{
  "_format": "hh-sol-artifact-1",
  "contractName": "AssetManagerController",
  "sourceName": "contracts/assetManager/implementation/AssetManagerController.sol",
  "abi": [
    {
      "inputs": [],
      "stateMutability": "nonpayable",
      "type": "constructor"
    },
    {
      "anonymous": false,
      "inputs": [
        {
          "indexed": false,
          "internalType": "address",
          "name": "previousAdmin",
          "type": "address"
        },
        {
          "indexed": false,
          "internalType": "address",
          "name": "newAdmin",
          "type": "address"
        }
      ],
      "name": "AdminChanged",
      "type": "event"
    },
    {
      "anonymous": false,
      "inputs": [
        {
          "indexed": true,
          "internalType": "address",
          "name": "beacon",
          "type": "address"
        }
      ],
      "name": "BeaconUpgraded",
      "type": "event"
    },
    {
      "anonymous": false,
      "inputs": [
        {
          "indexed": false,
          "internalType": "bytes",
          "name": "encodedCall",
          "type": "bytes"
        },
        {
          "indexed": false,
          "internalType": "bytes32",
          "name": "encodedCallHash",
          "type": "bytes32"
        },
        {
          "indexed": false,
          "internalType": "uint256",
          "name": "allowedAfterTimestamp",
          "type": "uint256"
        }
      ],
      "name": "GovernanceCallTimelocked",
      "type": "event"
    },
    {
      "anonymous": false,
      "inputs": [
        {
          "indexed": false,
          "internalType": "address",
          "name": "initialGovernance",
          "type": "address"
        }
      ],
      "name": "GovernanceInitialised",
      "type": "event"
    },
    {
      "anonymous": false,
      "inputs": [
        {
          "indexed": false,
          "internalType": "address",
          "name": "governanceSettings",
          "type": "address"
        }
      ],
      "name": "GovernedProductionModeEntered",
      "type": "event"
    },
    {
      "anonymous": false,
      "inputs": [
        {
          "indexed": false,
          "internalType": "bytes32",
          "name": "encodedCallHash",
          "type": "bytes32"
        }
      ],
      "name": "TimelockedGovernanceCallCanceled",
      "type": "event"
    },
    {
      "anonymous": false,
      "inputs": [
        {
          "indexed": false,
          "internalType": "bytes32",
          "name": "encodedCallHash",
          "type": "bytes32"
        }
      ],
      "name": "TimelockedGovernanceCallExecuted",
      "type": "event"
    },
    {
      "anonymous": false,
      "inputs": [
        {
          "indexed": true,
          "internalType": "address",
          "name": "implementation",
          "type": "address"
        }
      ],
      "name": "Upgraded",
      "type": "event"
    },
    {
      "inputs": [
        {
          "internalType": "contract IIAssetManager",
          "name": "_assetManager",
          "type": "address"
        }
      ],
      "name": "addAssetManager",
      "outputs": [],
      "stateMutability": "nonpayable",
      "type": "function"
    },
    {
      "inputs": [
        {
          "internalType": "contract IIAssetManager[]",
          "name": "_assetManagers",
          "type": "address[]"
        },
        {
          "components": [
            {
              "internalType": "enum CollateralType.Class",
              "name": "collateralClass",
              "type": "uint8"
            },
            {
              "internalType": "contract IERC20",
              "name": "token",
              "type": "address"
            },
            {
              "internalType": "uint256",
              "name": "decimals",
              "type": "uint256"
            },
            {
              "internalType": "uint256",
              "name": "validUntil",
              "type": "uint256"
            },
            {
              "internalType": "bool",
              "name": "directPricePair",
              "type": "bool"
            },
            {
              "internalType": "string",
              "name": "assetFtsoSymbol",
              "type": "string"
            },
            {
              "internalType": "string",
              "name": "tokenFtsoSymbol",
              "type": "string"
            },
            {
              "internalType": "uint256",
              "name": "minCollateralRatioBIPS",
              "type": "uint256"
            },
            {
              "internalType": "uint256",
              "name": "ccbMinCollateralRatioBIPS",
              "type": "uint256"
            },
            {
              "internalType": "uint256",
              "name": "safetyMinCollateralRatioBIPS",
              "type": "uint256"
            }
          ],
          "internalType": "struct CollateralType.Data",
          "name": "_data",
          "type": "tuple"
        }
      ],
      "name": "addCollateralType",
      "outputs": [],
      "stateMutability": "nonpayable",
      "type": "function"
    },
    {
      "inputs": [
        {
          "internalType": "address",
          "name": "_address",
          "type": "address"
        }
      ],
      "name": "addEmergencyPauseSender",
      "outputs": [],
      "stateMutability": "nonpayable",
      "type": "function"
    },
    {
      "inputs": [
        {
          "internalType": "address",
          "name": "_assetManager",
          "type": "address"
        }
      ],
      "name": "assetManagerExists",
      "outputs": [
        {
          "internalType": "bool",
          "name": "",
          "type": "bool"
        }
      ],
      "stateMutability": "view",
      "type": "function"
    },
    {
      "inputs": [
        {
          "internalType": "bytes",
          "name": "_encodedCall",
          "type": "bytes"
        }
      ],
      "name": "cancelGovernanceCall",
      "outputs": [],
      "stateMutability": "nonpayable",
      "type": "function"
    },
    {
      "inputs": [
        {
          "internalType": "contract IIAssetManager[]",
          "name": "_assetManagers",
          "type": "address[]"
        },
        {
          "internalType": "enum CollateralType.Class",
          "name": "_class",
          "type": "uint8"
        },
        {
          "internalType": "contract IERC20",
          "name": "_token",
          "type": "address"
        },
        {
          "internalType": "uint256",
          "name": "_invalidationTimeSec",
          "type": "uint256"
        }
      ],
      "name": "deprecateCollateralType",
      "outputs": [],
      "stateMutability": "nonpayable",
      "type": "function"
    },
    {
      "inputs": [
        {
          "internalType": "contract IIAssetManager[]",
          "name": "_assetManagers",
          "type": "address[]"
        },
        {
          "internalType": "uint256",
          "name": "_duration",
          "type": "uint256"
        }
      ],
      "name": "emergencyPause",
      "outputs": [],
      "stateMutability": "nonpayable",
      "type": "function"
    },
    {
      "inputs": [
        {
          "internalType": "contract IIAssetManager[]",
          "name": "_assetManagers",
          "type": "address[]"
        },
        {
          "internalType": "uint256",
          "name": "_duration",
          "type": "uint256"
        }
      ],
      "name": "emergencyPauseTransfers",
      "outputs": [],
      "stateMutability": "nonpayable",
      "type": "function"
    },
    {
      "inputs": [
        {
          "internalType": "bytes",
          "name": "_encodedCall",
          "type": "bytes"
        }
      ],
      "name": "executeGovernanceCall",
      "outputs": [],
      "stateMutability": "nonpayable",
      "type": "function"
    },
    {
      "inputs": [],
      "name": "getAddressUpdater",
      "outputs": [
        {
          "internalType": "address",
          "name": "_addressUpdater",
          "type": "address"
        }
      ],
      "stateMutability": "view",
      "type": "function"
    },
    {
      "inputs": [],
      "name": "getAssetManagers",
      "outputs": [
        {
          "internalType": "contract IAssetManager[]",
          "name": "_assetManagers",
          "type": "address[]"
        }
      ],
      "stateMutability": "view",
      "type": "function"
    },
    {
      "inputs": [],
      "name": "governance",
      "outputs": [
        {
          "internalType": "address",
          "name": "",
          "type": "address"
        }
      ],
      "stateMutability": "view",
      "type": "function"
    },
    {
      "inputs": [],
      "name": "governanceSettings",
      "outputs": [
        {
          "internalType": "contract IGovernanceSettings",
          "name": "",
          "type": "address"
        }
      ],
      "stateMutability": "view",
      "type": "function"
    },
    {
      "inputs": [
        {
          "internalType": "contract IGovernanceSettings",
          "name": "_governanceSettings",
          "type": "address"
        },
        {
          "internalType": "address",
          "name": "_initialGovernance",
          "type": "address"
        },
        {
          "internalType": "address",
          "name": "_addressUpdater",
          "type": "address"
        }
      ],
      "name": "initialize",
      "outputs": [],
      "stateMutability": "nonpayable",
      "type": "function"
    },
    {
      "inputs": [
        {
          "internalType": "address",
          "name": "_address",
          "type": "address"
        }
      ],
      "name": "isExecutor",
      "outputs": [
        {
          "internalType": "bool",
          "name": "",
          "type": "bool"
        }
      ],
      "stateMutability": "view",
      "type": "function"
    },
    {
      "inputs": [
        {
          "internalType": "contract IIAssetManager[]",
          "name": "_assetManagers",
          "type": "address[]"
        }
      ],
      "name": "pauseMinting",
      "outputs": [],
      "stateMutability": "nonpayable",
      "type": "function"
    },
    {
      "inputs": [],
      "name": "productionMode",
      "outputs": [
        {
          "internalType": "bool",
          "name": "",
          "type": "bool"
        }
      ],
      "stateMutability": "view",
      "type": "function"
    },
    {
      "inputs": [],
      "name": "proxiableUUID",
      "outputs": [
        {
          "internalType": "bytes32",
          "name": "",
          "type": "bytes32"
        }
      ],
      "stateMutability": "view",
      "type": "function"
    },
    {
      "inputs": [
        {
          "internalType": "contract IIAssetManager",
          "name": "_assetManager",
          "type": "address"
        }
      ],
      "name": "removeAssetManager",
      "outputs": [],
      "stateMutability": "nonpayable",
      "type": "function"
    },
    {
      "inputs": [
        {
          "internalType": "address",
          "name": "_address",
          "type": "address"
        }
      ],
      "name": "removeEmergencyPauseSender",
      "outputs": [],
      "stateMutability": "nonpayable",
      "type": "function"
    },
    {
      "inputs": [],
      "name": "replacedBy",
      "outputs": [
        {
          "internalType": "address",
          "name": "",
          "type": "address"
        }
      ],
      "stateMutability": "view",
      "type": "function"
    },
    {
      "inputs": [
        {
          "internalType": "contract IIAssetManager[]",
          "name": "_assetManagers",
          "type": "address[]"
        }
      ],
      "name": "resetEmergencyPauseTotalDuration",
      "outputs": [],
      "stateMutability": "nonpayable",
      "type": "function"
    },
    {
      "inputs": [
        {
          "internalType": "contract IIAssetManager[]",
          "name": "_assetManagers",
          "type": "address[]"
        },
        {
          "internalType": "uint256",
          "name": "_value",
          "type": "uint256"
        }
      ],
      "name": "setAgentExitAvailableTimelockSeconds",
      "outputs": [],
      "stateMutability": "nonpayable",
      "type": "function"
    },
    {
      "inputs": [
        {
          "internalType": "contract IIAssetManager[]",
          "name": "_assetManagers",
          "type": "address[]"
        },
        {
          "internalType": "uint256",
          "name": "_value",
          "type": "uint256"
        }
      ],
      "name": "setAgentFeeChangeTimelockSeconds",
      "outputs": [],
      "stateMutability": "nonpayable",
      "type": "function"
    },
    {
      "inputs": [
        {
          "internalType": "contract IIAssetManager[]",
          "name": "_assetManagers",
          "type": "address[]"
        },
        {
          "internalType": "uint256",
          "name": "_value",
          "type": "uint256"
        }
      ],
      "name": "setAgentMintingCRChangeTimelockSeconds",
      "outputs": [],
      "stateMutability": "nonpayable",
      "type": "function"
    },
    {
      "inputs": [
        {
          "internalType": "contract IIAssetManager[]",
          "name": "_assetManagers",
          "type": "address[]"
        },
        {
          "internalType": "address",
          "name": "_value",
          "type": "address"
        }
      ],
      "name": "setAgentOwnerRegistry",
      "outputs": [],
      "stateMutability": "nonpayable",
      "type": "function"
    },
    {
      "inputs": [
        {
          "internalType": "contract IIAssetManager[]",
          "name": "_assetManagers",
          "type": "address[]"
        },
        {
          "internalType": "uint256",
          "name": "_value",
          "type": "uint256"
        }
      ],
      "name": "setAgentTimelockedOperationWindowSeconds",
      "outputs": [],
      "stateMutability": "nonpayable",
      "type": "function"
    },
    {
      "inputs": [
        {
          "internalType": "contract IIAssetManager[]",
          "name": "_assetManagers",
          "type": "address[]"
        },
        {
          "internalType": "address",
          "name": "_value",
          "type": "address"
        }
      ],
      "name": "setAgentVaultFactory",
      "outputs": [],
      "stateMutability": "nonpayable",
      "type": "function"
    },
    {
      "inputs": [
        {
          "internalType": "contract IIAssetManager[]",
          "name": "_assetManagers",
          "type": "address[]"
        },
        {
          "internalType": "uint256",
          "name": "_value",
          "type": "uint256"
        }
      ],
      "name": "setAnnouncedUnderlyingConfirmationMinSeconds",
      "outputs": [],
      "stateMutability": "nonpayable",
      "type": "function"
    },
    {
      "inputs": [
        {
          "internalType": "contract IIAssetManager[]",
          "name": "_assetManagers",
          "type": "address[]"
        },
        {
          "internalType": "uint256",
          "name": "_value",
          "type": "uint256"
        }
      ],
      "name": "setAttestationWindowSeconds",
      "outputs": [],
      "stateMutability": "nonpayable",
      "type": "function"
    },
    {
      "inputs": [
        {
          "internalType": "contract IIAssetManager[]",
          "name": "_assetManagers",
          "type": "address[]"
        },
        {
          "internalType": "uint256",
          "name": "_value",
          "type": "uint256"
        }
      ],
      "name": "setAverageBlockTimeMS",
      "outputs": [],
      "stateMutability": "nonpayable",
      "type": "function"
    },
    {
      "inputs": [
        {
          "internalType": "contract IIAssetManager[]",
          "name": "_assetManagers",
          "type": "address[]"
        },
        {
          "internalType": "uint256",
          "name": "_value",
          "type": "uint256"
        }
      ],
      "name": "setCancelCollateralReservationAfterSeconds",
      "outputs": [],
      "stateMutability": "nonpayable",
      "type": "function"
    },
    {
      "inputs": [
        {
          "internalType": "contract IIAssetManager[]",
          "name": "_assetManagers",
          "type": "address[]"
        },
        {
          "internalType": "uint256",
          "name": "_value",
          "type": "uint256"
        }
      ],
      "name": "setCcbTimeSeconds",
      "outputs": [],
      "stateMutability": "nonpayable",
      "type": "function"
    },
    {
      "inputs": [
        {
          "internalType": "contract IIAssetManager[]",
          "name": "_assetManagers",
          "type": "address[]"
        },
        {
          "internalType": "address",
          "name": "_value",
          "type": "address"
        }
      ],
      "name": "setCleanerContract",
      "outputs": [],
      "stateMutability": "nonpayable",
      "type": "function"
    },
    {
      "inputs": [
        {
          "internalType": "contract IIAssetManager[]",
          "name": "_assetManagers",
          "type": "address[]"
        },
        {
          "internalType": "address",
          "name": "_value",
          "type": "address"
        }
      ],
      "name": "setCleanupBlockNumberManager",
      "outputs": [],
      "stateMutability": "nonpayable",
      "type": "function"
    },
    {
      "inputs": [
        {
          "internalType": "contract IIAssetManager[]",
          "name": "_assetManagers",
          "type": "address[]"
        },
        {
          "internalType": "address",
          "name": "_value",
          "type": "address"
        }
      ],
      "name": "setCollateralPoolFactory",
      "outputs": [],
      "stateMutability": "nonpayable",
      "type": "function"
    },
    {
      "inputs": [
        {
          "internalType": "contract IIAssetManager[]",
          "name": "_assetManagers",
          "type": "address[]"
        },
        {
          "internalType": "address",
          "name": "_value",
          "type": "address"
        }
      ],
      "name": "setCollateralPoolTokenFactory",
      "outputs": [],
      "stateMutability": "nonpayable",
      "type": "function"
    },
    {
      "inputs": [
        {
          "internalType": "contract IIAssetManager[]",
          "name": "_assetManagers",
          "type": "address[]"
        },
        {
          "internalType": "uint256",
          "name": "_value",
          "type": "uint256"
        }
      ],
      "name": "setCollateralPoolTokenTimelockSeconds",
      "outputs": [],
      "stateMutability": "nonpayable",
      "type": "function"
    },
    {
      "inputs": [
        {
          "internalType": "contract IIAssetManager[]",
          "name": "_assetManagers",
          "type": "address[]"
        },
        {
          "internalType": "enum CollateralType.Class",
          "name": "_class",
          "type": "uint8"
        },
        {
          "internalType": "contract IERC20",
          "name": "_token",
          "type": "address"
        },
        {
          "internalType": "uint256",
          "name": "_minCollateralRatioBIPS",
          "type": "uint256"
        },
        {
          "internalType": "uint256",
          "name": "_ccbMinCollateralRatioBIPS",
          "type": "uint256"
        },
        {
          "internalType": "uint256",
          "name": "_safetyMinCollateralRatioBIPS",
          "type": "uint256"
        }
      ],
      "name": "setCollateralRatiosForToken",
      "outputs": [],
      "stateMutability": "nonpayable",
      "type": "function"
    },
    {
      "inputs": [
        {
          "internalType": "contract IIAssetManager[]",
          "name": "_assetManagers",
          "type": "address[]"
        },
        {
          "internalType": "uint256",
          "name": "_value",
          "type": "uint256"
        }
      ],
      "name": "setCollateralReservationFeeBips",
      "outputs": [],
      "stateMutability": "nonpayable",
      "type": "function"
    },
    {
      "inputs": [
        {
          "internalType": "contract IIAssetManager[]",
          "name": "_assetManagers",
          "type": "address[]"
        },
        {
          "internalType": "uint256",
          "name": "_value",
          "type": "uint256"
        }
      ],
      "name": "setConfirmationByOthersAfterSeconds",
      "outputs": [],
      "stateMutability": "nonpayable",
      "type": "function"
    },
    {
      "inputs": [
        {
          "internalType": "contract IIAssetManager[]",
          "name": "_assetManagers",
          "type": "address[]"
        },
        {
          "internalType": "uint256",
          "name": "_value",
          "type": "uint256"
        }
      ],
      "name": "setConfirmationByOthersRewardUSD5",
      "outputs": [],
      "stateMutability": "nonpayable",
      "type": "function"
    },
    {
      "inputs": [
        {
          "internalType": "contract IIAssetManager[]",
          "name": "_assetManagers",
          "type": "address[]"
        },
        {
          "internalType": "uint256",
          "name": "_value",
          "type": "uint256"
        }
      ],
      "name": "setEmergencyPauseDurationResetAfterSeconds",
      "outputs": [],
      "stateMutability": "nonpayable",
      "type": "function"
    },
    {
      "inputs": [
        {
          "internalType": "contract IIAssetManager[]",
          "name": "_assetManagers",
          "type": "address[]"
        },
        {
          "internalType": "address",
          "name": "_value",
          "type": "address"
        }
      ],
      "name": "setFdcVerification",
      "outputs": [],
      "stateMutability": "nonpayable",
      "type": "function"
    },
    {
      "inputs": [
        {
          "internalType": "contract IIAssetManager[]",
          "name": "_assetManagers",
          "type": "address[]"
        },
        {
          "internalType": "uint256[]",
          "name": "_paymentFactors",
          "type": "uint256[]"
        },
        {
          "internalType": "uint256[]",
          "name": "_vaultCollateralFactors",
          "type": "uint256[]"
        }
      ],
      "name": "setLiquidationPaymentFactors",
      "outputs": [],
      "stateMutability": "nonpayable",
      "type": "function"
    },
    {
      "inputs": [
        {
          "internalType": "contract IIAssetManager[]",
          "name": "_assetManagers",
          "type": "address[]"
        },
        {
          "internalType": "uint256",
          "name": "_value",
          "type": "uint256"
        }
      ],
      "name": "setLiquidationStepSeconds",
      "outputs": [],
      "stateMutability": "nonpayable",
      "type": "function"
    },
    {
      "inputs": [
        {
          "internalType": "contract IIAssetManager[]",
          "name": "_assetManagers",
          "type": "address[]"
        },
        {
          "internalType": "uint256",
          "name": "_value",
          "type": "uint256"
        }
      ],
      "name": "setLotSizeAmg",
      "outputs": [],
      "stateMutability": "nonpayable",
      "type": "function"
    },
    {
      "inputs": [
        {
          "internalType": "contract IIAssetManager[]",
          "name": "_assetManagers",
          "type": "address[]"
        },
        {
          "internalType": "uint256",
          "name": "_value",
          "type": "uint256"
        }
      ],
      "name": "setMaxEmergencyPauseDurationSeconds",
      "outputs": [],
      "stateMutability": "nonpayable",
      "type": "function"
    },
    {
      "inputs": [
        {
          "internalType": "contract IIAssetManager[]",
          "name": "_assetManagers",
          "type": "address[]"
        },
        {
          "internalType": "uint256",
          "name": "_value",
          "type": "uint256"
        }
      ],
      "name": "setMaxRedeemedTickets",
      "outputs": [],
      "stateMutability": "nonpayable",
      "type": "function"
    },
    {
      "inputs": [
        {
          "internalType": "contract IIAssetManager[]",
          "name": "_assetManagers",
          "type": "address[]"
        },
        {
          "internalType": "uint256",
          "name": "_value",
          "type": "uint256"
        }
      ],
      "name": "setMaxTrustedPriceAgeSeconds",
      "outputs": [],
      "stateMutability": "nonpayable",
      "type": "function"
    },
    {
      "inputs": [
        {
          "internalType": "contract IIAssetManager[]",
          "name": "_assetManagers",
          "type": "address[]"
        },
        {
          "internalType": "uint256",
          "name": "_value",
          "type": "uint256"
        }
      ],
      "name": "setMinUnderlyingBackingBips",
      "outputs": [],
      "stateMutability": "nonpayable",
      "type": "function"
    },
    {
      "inputs": [
        {
          "internalType": "contract IIAssetManager[]",
          "name": "_assetManagers",
          "type": "address[]"
        },
        {
          "internalType": "uint256",
          "name": "_value",
          "type": "uint256"
        }
      ],
      "name": "setMinUpdateRepeatTimeSeconds",
      "outputs": [],
      "stateMutability": "nonpayable",
      "type": "function"
    },
    {
      "inputs": [
        {
          "internalType": "contract IIAssetManager[]",
          "name": "_assetManagers",
          "type": "address[]"
        },
        {
          "internalType": "uint256",
          "name": "_value",
          "type": "uint256"
        }
      ],
      "name": "setMintingCapAmg",
      "outputs": [],
      "stateMutability": "nonpayable",
      "type": "function"
    },
    {
      "inputs": [
        {
          "internalType": "contract IIAssetManager[]",
          "name": "_assetManagers",
          "type": "address[]"
        },
        {
          "internalType": "uint256",
          "name": "_value",
          "type": "uint256"
        }
      ],
      "name": "setMintingPoolHoldingsRequiredBIPS",
      "outputs": [],
      "stateMutability": "nonpayable",
      "type": "function"
    },
    {
      "inputs": [
        {
          "internalType": "contract IIAssetManager[]",
          "name": "_assetManagers",
          "type": "address[]"
        },
        {
          "internalType": "uint256",
          "name": "_rewardVaultCollateralWei",
          "type": "uint256"
        },
        {
          "internalType": "uint256",
          "name": "_rewardBIPS",
          "type": "uint256"
        }
      ],
      "name": "setPaymentChallengeReward",
      "outputs": [],
      "stateMutability": "nonpayable",
      "type": "function"
    },
    {
      "inputs": [
        {
          "internalType": "contract IIAssetManager[]",
          "name": "_assetManagers",
          "type": "address[]"
        },
        {
          "internalType": "uint256",
          "name": "_value",
          "type": "uint256"
        }
      ],
      "name": "setPoolExitAndTopupChangeTimelockSeconds",
      "outputs": [],
      "stateMutability": "nonpayable",
      "type": "function"
    },
    {
      "inputs": [
        {
          "internalType": "contract IIAssetManager[]",
          "name": "_assetManagers",
          "type": "address[]"
        },
        {
          "internalType": "address",
          "name": "_value",
          "type": "address"
        }
      ],
      "name": "setPriceReader",
      "outputs": [],
      "stateMutability": "nonpayable",
      "type": "function"
    },
    {
      "inputs": [
        {
          "internalType": "contract IIAssetManager[]",
          "name": "_assetManagers",
          "type": "address[]"
        },
        {
          "internalType": "uint256",
          "name": "_vaultF",
          "type": "uint256"
        },
        {
          "internalType": "uint256",
          "name": "_poolF",
          "type": "uint256"
        }
      ],
      "name": "setRedemptionDefaultFactorBips",
      "outputs": [],
      "stateMutability": "nonpayable",
      "type": "function"
    },
    {
      "inputs": [
        {
          "internalType": "contract IIAssetManager[]",
          "name": "_assetManagers",
          "type": "address[]"
        },
        {
          "internalType": "uint256",
          "name": "_value",
          "type": "uint256"
        }
      ],
      "name": "setRedemptionFeeBips",
      "outputs": [],
      "stateMutability": "nonpayable",
      "type": "function"
    },
    {
      "inputs": [
        {
          "internalType": "contract IIAssetManager[]",
          "name": "_assetManagers",
          "type": "address[]"
        },
        {
          "internalType": "uint256",
          "name": "_value",
          "type": "uint256"
        }
      ],
      "name": "setRedemptionPaymentExtensionSeconds",
      "outputs": [],
      "stateMutability": "nonpayable",
      "type": "function"
    },
    {
      "inputs": [
        {
          "internalType": "contract IIAssetManager[]",
          "name": "_assetManagers",
          "type": "address[]"
        },
        {
          "internalType": "uint256",
          "name": "_value",
          "type": "uint256"
        }
      ],
      "name": "setRejectOrCancelCollateralReservationReturnFactorBIPS",
      "outputs": [],
      "stateMutability": "nonpayable",
      "type": "function"
    },
    {
      "inputs": [
        {
          "internalType": "contract IIAssetManager[]",
          "name": "_assetManagers",
          "type": "address[]"
        },
        {
          "internalType": "uint256",
          "name": "_value",
          "type": "uint256"
        }
      ],
      "name": "setRejectRedemptionRequestWindowSeconds",
      "outputs": [],
      "stateMutability": "nonpayable",
      "type": "function"
    },
    {
      "inputs": [
        {
          "internalType": "contract IIAssetManager[]",
          "name": "_assetManagers",
          "type": "address[]"
        },
        {
          "internalType": "uint256",
          "name": "_vaultF",
          "type": "uint256"
        },
        {
          "internalType": "uint256",
          "name": "_poolF",
          "type": "uint256"
        }
      ],
      "name": "setRejectedRedemptionDefaultFactorBips",
      "outputs": [],
      "stateMutability": "nonpayable",
      "type": "function"
    },
    {
      "inputs": [
        {
          "internalType": "contract IIAssetManager[]",
          "name": "_assetManagers",
          "type": "address[]"
        },
        {
          "internalType": "uint256",
          "name": "_value",
          "type": "uint256"
        }
      ],
      "name": "setTakeOverRedemptionRequestWindowSeconds",
      "outputs": [],
      "stateMutability": "nonpayable",
      "type": "function"
    },
    {
      "inputs": [
        {
          "internalType": "contract IIAssetManager[]",
          "name": "_assetManagers",
          "type": "address[]"
        },
        {
          "internalType": "uint256",
          "name": "_underlyingBlocks",
          "type": "uint256"
        },
        {
          "internalType": "uint256",
          "name": "_underlyingSeconds",
          "type": "uint256"
        }
      ],
      "name": "setTimeForPayment",
      "outputs": [],
      "stateMutability": "nonpayable",
      "type": "function"
    },
    {
      "inputs": [
        {
          "internalType": "contract IIAssetManager[]",
          "name": "_assetManagers",
          "type": "address[]"
        },
        {
          "internalType": "uint256",
          "name": "_value",
          "type": "uint256"
        }
      ],
      "name": "setTokenInvalidationTimeMinSeconds",
      "outputs": [],
      "stateMutability": "nonpayable",
      "type": "function"
    },
    {
      "inputs": [
        {
          "internalType": "contract IIAssetManager[]",
          "name": "_assetManagers",
          "type": "address[]"
        },
        {
          "internalType": "uint256",
          "name": "_value",
          "type": "uint256"
        },
        {
          "internalType": "uint256",
          "name": "_scheduledAt",
          "type": "uint256"
        }
      ],
      "name": "setTransferFeeMillionths",
      "outputs": [],
      "stateMutability": "nonpayable",
      "type": "function"
    },
    {
      "inputs": [
        {
          "internalType": "contract IIAssetManager[]",
          "name": "_assetManagers",
          "type": "address[]"
        },
        {
          "internalType": "uint256",
          "name": "_value",
          "type": "uint256"
        }
      ],
      "name": "setVaultCollateralBuyForFlareFactorBIPS",
      "outputs": [],
      "stateMutability": "nonpayable",
      "type": "function"
    },
    {
      "inputs": [
        {
          "internalType": "contract IIAssetManager[]",
          "name": "_assetManagers",
          "type": "address[]"
        },
        {
          "internalType": "address",
          "name": "_value",
          "type": "address"
        }
      ],
      "name": "setWhitelist",
      "outputs": [],
      "stateMutability": "nonpayable",
      "type": "function"
    },
    {
      "inputs": [
        {
          "internalType": "contract IIAssetManager[]",
          "name": "_assetManagers",
          "type": "address[]"
        },
        {
          "internalType": "uint256",
          "name": "_value",
          "type": "uint256"
        }
      ],
      "name": "setWithdrawalOrDestroyWaitMinSeconds",
      "outputs": [],
      "stateMutability": "nonpayable",
      "type": "function"
    },
    {
      "inputs": [
        {
          "internalType": "bytes4",
          "name": "_interfaceId",
          "type": "bytes4"
        }
      ],
      "name": "supportsInterface",
      "outputs": [
        {
          "internalType": "bool",
          "name": "",
          "type": "bool"
        }
      ],
      "stateMutability": "pure",
      "type": "function"
    },
    {
      "inputs": [],
      "name": "switchToProductionMode",
      "outputs": [],
      "stateMutability": "nonpayable",
      "type": "function"
    },
    {
      "inputs": [
        {
          "internalType": "contract IIAssetManager[]",
          "name": "_assetManagers",
          "type": "address[]"
        }
      ],
      "name": "terminate",
      "outputs": [],
      "stateMutability": "nonpayable",
      "type": "function"
    },
    {
      "inputs": [
        {
          "internalType": "contract IIAssetManager[]",
          "name": "_assetManagers",
          "type": "address[]"
        }
      ],
      "name": "unpauseMinting",
      "outputs": [],
      "stateMutability": "nonpayable",
      "type": "function"
    },
    {
      "inputs": [
        {
          "internalType": "bytes32[]",
          "name": "_contractNameHashes",
          "type": "bytes32[]"
        },
        {
          "internalType": "address[]",
          "name": "_contractAddresses",
          "type": "address[]"
        }
      ],
      "name": "updateContractAddresses",
      "outputs": [],
      "stateMutability": "nonpayable",
      "type": "function"
    },
    {
      "inputs": [
        {
          "internalType": "contract IIAssetManager[]",
          "name": "_assetManagers",
          "type": "address[]"
        }
      ],
      "name": "updateContracts",
      "outputs": [],
      "stateMutability": "nonpayable",
      "type": "function"
    },
    {
      "inputs": [
        {
          "internalType": "contract IIAssetManager[]",
          "name": "_assetManagers",
          "type": "address[]"
        },
        {
          "internalType": "uint256",
          "name": "_start",
          "type": "uint256"
        },
        {
          "internalType": "uint256",
          "name": "_end",
          "type": "uint256"
        }
      ],
      "name": "upgradeAgentVaultsAndPools",
      "outputs": [],
      "stateMutability": "nonpayable",
      "type": "function"
    },
    {
      "inputs": [
        {
          "internalType": "contract IIAssetManager[]",
          "name": "_assetManagers",
          "type": "address[]"
        },
        {
          "internalType": "address",
          "name": "_implementation",
          "type": "address"
        },
        {
          "internalType": "bytes",
          "name": "_callData",
          "type": "bytes"
        }
      ],
      "name": "upgradeFAssetImplementation",
      "outputs": [],
      "stateMutability": "nonpayable",
      "type": "function"
    },
    {
      "inputs": [
        {
          "internalType": "address",
          "name": "newImplementation",
          "type": "address"
        }
      ],
      "name": "upgradeTo",
      "outputs": [],
      "stateMutability": "nonpayable",
      "type": "function"
    },
    {
      "inputs": [
        {
          "internalType": "address",
          "name": "newImplementation",
          "type": "address"
        },
        {
          "internalType": "bytes",
          "name": "data",
          "type": "bytes"
        }
      ],
      "name": "upgradeToAndCall",
      "outputs": [],
      "stateMutability": "payable",
      "type": "function"
    }
  ],
  "bytecode": "0x60a0604052306080523480156200001557600080fd5b506000620000266111118062000056565b6200004f817f714f205b2abd25bef1d06a1af944e38c113fe6160375c4e1d6d5cf28848e771955565b50620001ef565b7f2aa47ee5db910f3b2a06970c443249cc77dbd9f96100cfebc1775ab7fb1d18248054600160a01b900460ff1615620000d65760405162461bcd60e51b815260206004820152601460248201527f696e697469616c6973656420213d2066616c736500000000000000000000000060448201526064015b60405180910390fd5b6001600160a01b0383166200012e5760405162461bcd60e51b815260206004820152601860248201527f676f7665726e616e63652073657474696e6773207a65726f00000000000000006044820152606401620000cd565b6001600160a01b038216620001795760405162461bcd60e51b815260206004820152601060248201526f5f676f7665726e616e6365207a65726f60801b6044820152606401620000cd565b80546001600160a01b038481166001600160a81b031990921691909117600160a01b1782556001820180549184166001600160a01b0319909216821790556040519081527f9789733827840833afc031fb2ef9ab6894271f77bad2085687cf4ae5c7bee4db9060200160405180910390a1505050565b60805161453f62000227600039600081816116b3015281816116f301528181611881015281816118c1015261194a015261453f6000f3fe6080604052600436106104735760003560e01c80638ca061d41161024a578063ccfb791111610139578063e49ee36d116100b6578063ef098e551161007a578063ef098e5514610e0b578063efa3d7eb14610e2b578063efe058ef14610e4b578063f5a9838314610e6b578063f603bf9814610e8057600080fd5b8063e49ee36d14610d6b578063e77ebcab14610d8b578063e789e7d414610dab578063ec8e316114610dcb578063eddaf29314610deb57600080fd5b8063d2e57812116100fd578063d2e5781214610cbf578063d48b75f614610cdf578063debfda3014610cff578063dede95f114610d1f578063e17f212e14610d3f57600080fd5b8063ccfb791114610c1f578063cf2fdaa414610c3f578063d0c391b514610c5f578063d13e499d14610c7f578063d285a63614610c9f57600080fd5b8063b4c0a333116101c7578063bf4788131161018b578063bf47881314610b7f578063c0c53b8b14610b9f578063c38ec41814610bbf578063c56e378414610bdf578063c6c257cb14610bff57600080fd5b8063b4c0a33314610add578063b577fc7614610afd578063b87b82f014610b1d578063bb6f41b314610b3f578063be46c73d14610b5f57600080fd5b8063a6a24e251161020e578063a6a24e2514610a3d578063a82ee3d514610a5d578063aeb4155514610a7d578063af823a2714610a9d578063b00c0b7614610abd57600080fd5b80638ca061d41461099d57806397d2fcc6146109bd578063987ea899146109dd5780639e1508a1146109fd578063a391dd9c14610a1d57600080fd5b806347956606116103665780635cce89ea116102e3578063758f07f2116102a7578063758f07f2146108e5578063763d1a16146109055780637ad62f51146109255780637c703e131461095d5780637e3566fe1461097d57600080fd5b80635cce89ea14610850578063617637aa1461087057806362354e03146108905780636b76ab0e146108a55780636f1f1fc0146108c557600080fd5b80635267a15d1161032a5780635267a15d146107a257806352d1902d146107d8578063556d5118146107fb5780635aa6e6751461081b5780635b5bad731461083057600080fd5b8063479566061461070f5780634944d22d1461072f5780634a79bc9f1461074f5780634f1ef2861461076f578063512410601461078257600080fd5b806326a9055b116103f457806334dc3932116103b857806334dc39321461066f578063358bca771461068f5780633659cfe6146106af57806340b9d6b0146106cf57806344944a9b146106ef57600080fd5b806326a9055b146105cf57806326df3d0c146105ef5780632aedabe41461060f5780632af713fc1461062f5780632d5846da1461064f57600080fd5b8063115a6e151161043b578063115a6e151461052f57806316fc2f6d1461054f578063171898fe1461056f578063207566711461058f57806320c5f99d146105af57600080fd5b80630117d9871461047857806301ffc9a71461049a5780630207aff2146104cf57806305a1790a146104ef5780630a3eb8741461050f575b600080fd5b34801561048457600080fd5b506104986104933660046138bf565b610ea0565b005b3480156104a657600080fd5b506104ba6104b5366004613903565b610ed8565b60405190151581526020015b60405180910390f35b3480156104db57600080fd5b506104986104ea3660046138bf565b610f7b565b3480156104fb57600080fd5b5061049861050a36600461392d565b610f95565b34801561051b57600080fd5b5061049861052a3660046138bf565b610fe1565b34801561053b57600080fd5b5061049861054a3660046138bf565b610ffb565b34801561055b57600080fd5b5061049861056a366004613998565b611015565b34801561057b57600080fd5b5061049861058a366004613a09565b6110fd565b34801561059b57600080fd5b506104986105aa3660046138bf565b611110565b3480156105bb57600080fd5b506104986105ca366004613998565b611137565b3480156105db57600080fd5b506104986105ea3660046138bf565b611326565b3480156105fb57600080fd5b5061049861060a3660046138bf565b611340565b34801561061b57600080fd5b5061049861062a3660046138bf565b6113dd565b34801561063b57600080fd5b5061049861064a366004613a26565b6113f7565b34801561065b57600080fd5b5061049861066a3660046138bf565b61141e565b34801561067b57600080fd5b5061049861068a3660046138bf565b611438565b34801561069b57600080fd5b506104986106aa366004613a09565b611452565b3480156106bb57600080fd5b506104986106ca366004613a09565b611694565b3480156106db57600080fd5b506104986106ea3660046138bf565b611765565b3480156106fb57600080fd5b5061049861070a366004613a6c565b61177f565b34801561071b57600080fd5b5061049861072a3660046138bf565b6117d0565b34801561073b57600080fd5b5061049861074a366004613a6c565b6117ea565b34801561075b57600080fd5b5061049861076a366004613a26565b61183b565b61049861077d366004613b28565b611862565b34801561078e57600080fd5b5061049861079d3660046138bf565b611923565b3480156107ae57600080fd5b50600080516020614483833981519152545b6040516001600160a01b0390911681526020016104c6565b3480156107e457600080fd5b506107ed61193d565b6040519081526020016104c6565b34801561080757600080fd5b506104986108163660046138bf565b6119f0565b34801561082757600080fd5b506107c0611a0a565b34801561083c57600080fd5b5061049861084b366004613b77565b611ab3565b34801561085c57600080fd5b5061049861086b3660046138bf565b611b21565b34801561087c57600080fd5b5061049861088b3660046138bf565b611b3b565b34801561089c57600080fd5b506107c0611b55565b3480156108b157600080fd5b506104986108c0366004613b77565b611b76565b3480156108d157600080fd5b506104986108e03660046138bf565b611be4565b3480156108f157600080fd5b506104986109003660046138bf565b611c0b565b34801561091157600080fd5b50610498610920366004613c38565b611c25565b34801561093157600080fd5b506104ba610940366004613a09565b6001600160a01b0316600090815260016020526040902054151590565b34801561096957600080fd5b506104986109783660046138bf565b611c8d565b34801561098957600080fd5b506104986109983660046138bf565b611ca7565b3480156109a957600080fd5b506104986109b8366004613cde565b611cc1565b3480156109c957600080fd5b506104986109d8366004613a26565b611d34565b3480156109e957600080fd5b506104986109f8366004613a09565b611d5b565b348015610a0957600080fd5b50610498610a183660046138bf565b611eb6565b348015610a2957600080fd5b50610498610a38366004613a6c565b611edd565b348015610a4957600080fd5b50610498610a58366004613a26565b611f3b565b348015610a6957600080fd5b50610498610a783660046138bf565b611f62565b348015610a8957600080fd5b50610498610a983660046138bf565b611f7c565b348015610aa957600080fd5b50610498610ab8366004613a26565b611f96565b348015610ac957600080fd5b50610498610ad8366004613d59565b611fbd565b348015610ae957600080fd5b50610498610af8366004613e07565b612074565b348015610b0957600080fd5b506000546107c0906001600160a01b031681565b348015610b2957600080fd5b50610b326120c3565b6040516104c69190613e6e565b348015610b4b57600080fd5b50610498610b5a366004613a26565b612180565b348015610b6b57600080fd5b50610498610b7a3660046138bf565b6121a7565b348015610b8b57600080fd5b50610498610b9a3660046138bf565b6121c1565b348015610bab57600080fd5b50610498610bba366004613ebb565b6121db565b348015610bcb57600080fd5b50610498610bda3660046138bf565b6121fb565b348015610beb57600080fd5b50610498610bfa3660046138bf565b612214565b348015610c0b57600080fd5b50610498610c1a366004613a09565b61222e565b348015610c2b57600080fd5b50610498610c3a3660046138bf565b612241565b348015610c4b57600080fd5b50610498610c5a3660046138bf565b612268565b348015610c6b57600080fd5b50610498610c7a3660046138bf565b612300565b348015610c8b57600080fd5b50610498610c9a366004613b77565b612327565b348015610cab57600080fd5b50610498610cba3660046138bf565b61259b565b348015610ccb57600080fd5b50610498610cda366004613a6c565b6125c2565b348015610ceb57600080fd5b50610498610cfa366004613a26565b612613565b348015610d0b57600080fd5b506104ba610d1a366004613a09565b61263a565b348015610d2b57600080fd5b50610498610d3a3660046138bf565b6126d4565b348015610d4b57600080fd5b506000805160206144ea83398151915254600160a81b900460ff166104ba565b348015610d7757600080fd5b50610498610d86366004613f06565b6126ee565b348015610d9757600080fd5b50610498610da63660046138bf565b61275e565b348015610db757600080fd5b50610498610dc6366004613f3a565b612785565b348015610dd757600080fd5b50610498610de6366004613a26565b6127e0565b348015610df757600080fd5b50610498610e06366004613a6c565b612807565b348015610e1757600080fd5b50610498610e26366004613a26565b612858565b348015610e3757600080fd5b50610498610e463660046138bf565b612872565b348015610e5757600080fd5b50610498610e66366004613b77565b61288c565b348015610e7757600080fd5b506104986128fa565b348015610e8c57600080fd5b50610498610e9b366004613a6c565b6129ce565b610ea8612a1f565b15610ecb57610eb5612a55565b610ec78263050f443960e01b83612a99565b5050565b610ec76000366000612ae8565b60006001600160e01b031982166301ffc9a760e01b1480610f0957506001600160e01b03198216635267a15d60e01b145b80610f2457506001600160e01b0319821663580605bb60e11b145b80610f3f57506001600160e01b0319821663c2adada160e01b145b80610f5a57506001600160e01b03198216630fe5993f60e11b145b80610f7557506001600160e01b0319821663c4c3061b60e01b145b92915050565b610f83612bff565b610ec78263d074339560e01b83612a99565b610f9d612bff565b610ec78282604051602401610fb29190614057565b60408051601f198184030181529190526020810180516001600160e01b031663eebbcd5560e01b179052612c5b565b610fe9612bff565b610ec782636dc30beb60e11b83612a99565b611003612bff565b610ec7826302c06abf60e41b83612a99565b61101d612bff565b6040516000805160206144ea833981519152906000906110409085908590614132565b60405180910390209050816002016000828152602001908152602001600020546000036110b45760405162461bcd60e51b815260206004820152601a60248201527f74696d656c6f636b3a20696e76616c69642073656c6563746f7200000000000060448201526064015b60405180910390fd5b6040518181527f69b058d6225c01c1f2a25801ca5b05705fa2e9118e93d518390ba804398c87b19060200160405180910390a16000908152600290910160205260408120555050565b611105612bff565b610ec7600382612d0e565b611118612a1f565b15610ecb57611125612a55565b610ec7826315ebe57360e31b83612a99565b6000805160206144ea83398151915261114f3361263a565b61118b5760405162461bcd60e51b815260206004820152600d60248201526c37b7363c9032bc32b1baba37b960991b60448201526064016110ab565b6000838360405161119d929190614132565b6040805191829003909120600081815260028501602052918220549092509081900361120b5760405162461bcd60e51b815260206004820152601a60248201527f74696d656c6f636b3a20696e76616c69642073656c6563746f7200000000000060448201526064016110ab565b8042101561125b5760405162461bcd60e51b815260206004820152601960248201527f74696d656c6f636b3a206e6f7420616c6c6f776564207965740000000000000060448201526064016110ab565b6000828152600284016020526040808220829055845460ff60b01b1916600160b01b1785555130906112909088908890614132565b6000604051808303816000865af19150503d80600081146112cd576040519150601f19603f3d011682016040523d82523d6000602084013e6112d2565b606091505b5050845460ff60b01b191685556040518481529091507fec1225e5a8a8acb91e03ce648c683c74f5d152a775b9715980999441d714c44f9060200160405180910390a161131e81612d23565b505050505050565b61132e612bff565b610ec782633db7d3b160e11b83612a99565b600061134a611a0a565b6001600160a01b0316336001600160a01b031614905080806113725750611372600333612d40565b61138e5760405162461bcd60e51b81526004016110ab90614142565b6040518115156024820152604481018390526113d890849060640160408051601f198184030181529190526020810180516001600160e01b0316634d4071c160e01b179052612c5b565b505050565b6113e5612bff565b610ec782632b4572c760e11b83612a99565b6113ff612a1f565b15610ecb5761140c612a55565b610ec78263be06971960e01b83612d62565b611426612bff565b610ec7826337592f4160e21b83612a99565b611440612bff565b610ec782639db27f5560e01b83612a99565b61145a612a1f565b1561168457611467612a55565b6001600160a01b0381166000908152600160205260408120549081900361148c575050565b60006114996001836141a2565b6002549091506000906114ae906001906141a2565b90508082101561156857600281815481106114cb576114cb6141b5565b600091825260209091200154600280546001600160a01b0390921691849081106114f7576114f76141b5565b600091825260209091200180546001600160a01b0319166001600160a01b039290921691909117905561152b8260016141cb565b6001600060028581548110611542576115426141b5565b60009182526020808320909101546001600160a01b031683528201929092526040019020555b6002805480611579576115796141de565b60008281526020808220830160001990810180546001600160a01b03191690559092019092556001600160a01b03861680835260018252604080842093909355825163f0c0b72560e01b815292513093919263f0c0b72592600480820193918290030181865afa1580156115f1573d6000803e3d6000fd5b505050506040513d601f19601f8201168201806040525081019061161591906141f4565b6001600160a01b03160361167e5760405163b928b53360e01b8152600060048201526001600160a01b0385169063b928b53390602401600060405180830381600087803b15801561166557600080fd5b505af1158015611679573d6000803e3d6000fd5b505050505b50505050565b6116916000366000612ae8565b50565b61169c612a1f565b15611684576116a9612a55565b6001600160a01b037f00000000000000000000000000000000000000000000000000000000000000001630036116f15760405162461bcd60e51b81526004016110ab90614211565b7f00000000000000000000000000000000000000000000000000000000000000006001600160a01b0316611723612d84565b6001600160a01b0316146117495760405162461bcd60e51b81526004016110ab9061425d565b6040805160008082526020820190925261169191839190612d9a565b61176d612bff565b610ec782632a92649160e01b83612a99565b611787612bff565b60405160248101839052604481018290526113d890849060640160408051601f198184030181529190526020810180516001600160e01b0316631529264f60e01b179052612c5b565b6117d8612bff565b610ec7826323c0a60360e11b83612a99565b6117f2612bff565b60405160248101839052604481018290526113d890849060640160408051601f198184030181529190526020810180516001600160e01b0316633128590960e01b179052612c5b565b611843612a1f565b15610ecb57611850612a55565b610ec7826309eb52f160e11b83612d62565b61186a612a1f565b15610ecb57611877612a55565b6001600160a01b037f00000000000000000000000000000000000000000000000000000000000000001630036118bf5760405162461bcd60e51b81526004016110ab90614211565b7f00000000000000000000000000000000000000000000000000000000000000006001600160a01b03166118f1612d84565b6001600160a01b0316146119175760405162461bcd60e51b81526004016110ab9061425d565b610ec782826001612d9a565b61192b612bff565b610ec782632d62e08f60e11b83612a99565b6000306001600160a01b037f000000000000000000000000000000000000000000000000000000000000000016146119dd5760405162461bcd60e51b815260206004820152603860248201527f555550535570677261646561626c653a206d757374206e6f742062652063616c60448201527f6c6564207468726f7567682064656c656761746563616c6c000000000000000060648201526084016110ab565b506000805160206144a383398151915290565b6119f8612bff565b610ec7826340973e9760e11b83612a99565b6000805160206144ea833981519152805460009190600160a81b900460ff16611a405760018101546001600160a01b0316611aad565b805460408051631cc9492560e21b815290516001600160a01b03909216916373252494916004808201926020929091908290030181865afa158015611a89573d6000803e3d6000fd5b505050506040513d601f19601f82011682018060405250810190611aad91906141f4565b91505090565b611abb612bff565b610ec7828280806020026020016040519081016040528093929190818152602001838360200280828437600092019190915250506040805160048152602481019091526020810180516001600160e01b031663018117f160e31b1790529150612c5b9050565b611b29612bff565b610ec78263ad74c72d60e01b83612a99565b611b43612bff565b610ec782636ad6fb4f60e01b83612a99565b60006000805160206144ea8339815191525b546001600160a01b0316919050565b611b7e612bff565b610ec7828280806020026020016040519081016040528093929190818152602001838360200280828437600092019190915250506040805160048152602481019091526020810180516001600160e01b0316636d47df9560e11b1790529150612c5b9050565b611bec612a1f565b15610ecb57611bf9612a55565b610ec7826336f9886b60e11b83612a99565b611c13612bff565b610ec78263b2e6a2b560e01b83612a99565b611c2d612a1f565b15611c8057611c3a612a55565b6113d8838383604051602401611c519291906142e5565b60408051601f198184030181529190526020810180516001600160e01b0316633b145b4960e21b179052612c5b565b6113d86000366000612ae8565b611c95612bff565b610ec7826351b5fbe760e11b83612a99565b611caf612bff565b610ec782637cdcda2360e11b83612a99565b611cc9612a1f565b15611d2757611cd6612a55565b611d22868686868686604051602401611cf395949392919061430a565b60408051601f198184030181529190526020810180516001600160e01b031663249f1b5960e01b179052612c5b565b61131e565b61131e6000366000612ae8565b611d3c612a1f565b15610ecb57611d49612a55565b610ec78263e443147f60e01b83612d62565b611d63612a1f565b1561168457611d70612a55565b6001600160a01b03811660009081526001602052604081205490036116915760028054600180820183557f405787fa12a823e0f2b7631cc41b3ba8828b3321ca811111fa75cd3aa3bb5ace90910180546001600160a01b0319166001600160a01b03851690811790915591546000838152602092835260409081902091909155805163f0c0b72560e01b8152905130939263f0c0b72592600480820193918290030181865afa158015611e27573d6000803e3d6000fd5b505050506040513d601f19601f82011682018060405250810190611e4b91906141f4565b6001600160a01b0316036116915760405163b928b53360e01b8152600160048201526001600160a01b0382169063b928b53390602401600060405180830381600087803b158015611e9b57600080fd5b505af1158015611eaf573d6000803e3d6000fd5b5050505050565b611ebe612a1f565b15610ecb57611ecb612a55565b610ec78263d57d25c560e01b83612a99565b611ee5612a1f565b15611c8057611ef2612a55565b60405160248101839052604481018290526113d890849060640160408051601f198184030181529190526020810180516001600160e01b03166334dc4f3f60e11b179052612c5b565b611f43612a1f565b15610ecb57611f50612a55565b610ec782636f83754b60e11b83612d62565b611f6a612bff565b610ec78263dfc5941760e01b83612a99565b611f84612bff565b610ec7826313bcd55560e11b83612a99565b611f9e612a1f565b15610ecb57611fab612a55565b610ec782637f4fcaa960e01b83612d62565b600080516020614483833981519152546001600160a01b0316336001600160a01b0316146120245760405162461bcd60e51b815260206004820152601460248201527337b7363c9030b2323932b9b9903ab83230ba32b960611b60448201526064016110ab565b61206a61205883836040518060400160405280600e81526020016d20b2323932b9b9aab83230ba32b960911b815250612f05565b60008051602061448383398151915255565b610ec78282612fd6565b61207c612bff565b61167e8484848460405160240161209593929190614344565b60408051601f198184030181529190526020810180516001600160e01b03166298ccf760e51b179052612c5b565b600254606090806001600160401b038111156120e1576120e16137c9565b60405190808252806020026020018201604052801561210a578160200160208202803683370190505b50915060005b8181101561217b576002818154811061212b5761212b6141b5565b9060005260206000200160009054906101000a90046001600160a01b031683828151811061215b5761215b6141b5565b6001600160a01b0390921660209283029190910190910152600101612110565b505090565b612188612a1f565b15610ecb57612195612a55565b610ec782636dd3d58960e01b83612d62565b6121af612bff565b610ec78263cfcb991d60e01b83612a99565b6121c9612bff565b610ec782630de034c760e41b83612a99565b6121e583836130d9565b6113d88160008051602061448383398151915255565b612203612bff565b610ec7826254d6a960e51b83612a99565b61221c612bff565b610ec7826301b81e7f60e51b83612a99565b612236612bff565b610ec760038261324d565b612249612a1f565b15610ecb57612256612a55565b610ec78263f35653f160e01b83612a99565b6000612272611a0a565b6001600160a01b0316336001600160a01b0316149050808061229a575061229a600333612d40565b6122b65760405162461bcd60e51b81526004016110ab90614142565b6040518115156024820152604481018390526113d890849060640160408051601f198184030181529190526020810180516001600160e01b03166304e48a6d60e51b179052612c5b565b612308612a1f565b15610ecb57612315612a55565b610ec782636b38c64360e01b83612a99565b600061233f6000805160206144838339815191525490565b604051630110ceef60e21b815260206004820152600e60248201526d20b2323932b9b9aab83230ba32b960911b60448201529091506000906001600160a01b038316906304433bbc90606401602060405180830381865afa1580156123a8573d6000803e3d6000fd5b505050506040513d601f19601f820116820180604052508101906123cc91906141f4565b604051630110ceef60e21b815260206004820152601660248201527520b9b9b2ba26b0b730b3b2b921b7b73a3937b63632b960511b60448201529091506000906001600160a01b038416906304433bbc90606401602060405180830381865afa15801561243d573d6000803e3d6000fd5b505050506040513d601f19601f8201168201806040525081019061246191906141f4565b90506000836001600160a01b03166304433bbc6040518163ffffffff1660e01b81526004016124a89060208082526004908201526315d3985d60e21b604082015260600190565b602060405180830381865afa1580156124c5573d6000803e3d6000fd5b505050506040513d601f19601f820116820180604052508101906124e991906141f4565b90506001600160a01b0383161580159061250b57506001600160a01b03821615155b801561251f57506001600160a01b03811615155b61255a5760405162461bcd60e51b815260206004820152600c60248201526b61646472657373207a65726f60a01b60448201526064016110ab565b61131e868680806020026020016040519081016040528093929190818152602001838360200280828437600092019190915250879250869150859050613262565b6125a3612a1f565b15610ecb576125b0612a55565b610ec7826346ca288560e11b83612a99565b6125ca612bff565b60405160248101839052604481018290526113d890849060640160408051601f198184030181529190526020810180516001600160e01b03166314127e3f60e11b179052612c5b565b61261b612a1f565b15610ecb57612628612a55565b610ec78263cda4c54160e01b83612d62565b6000805160206144ea833981519152805460009190600160a01b900460ff1680156126cd57508054604051630debfda360e41b81526001600160a01b0385811660048301529091169063debfda3090602401602060405180830381865afa1580156126a9573d6000803e3d6000fd5b505050506040513d601f19601f820116820180604052508101906126cd919061436c565b9392505050565b6126dc612bff565b610ec78263e68f3fbf60e01b83612a99565b6126f6612bff565b6040805160048152602481019091526020810180516001600160e01b031663460831c360e01b17905261272a908290612c5b565b6040805160048152602481019091526020810180516001600160e01b0316630249996560e61b179052611691908290612c5b565b612766612a1f565b15610ecb57612773612a55565b610ec782637800a11f60e01b83612a99565b61278d612a1f565b15611c805761279a612a55565b6113d88383836040516024016127b19291906143d9565b60408051601f198184030181529190526020810180516001600160e01b0316636a59860960e01b179052612c5b565b6127e8612a1f565b15610ecb576127f5612a55565b610ec78263854cff2f60e01b83612d62565b61280f612bff565b60405160248101839052604481018290526113d890849060640160408051601f198184030181529190526020810180516001600160e01b0316633479125d60e11b179052612c5b565b612860612bff565b610ec78263f6a494af60e01b83612d62565b61287a612bff565b610ec782632ae535ab60e01b83612a99565b612894612bff565b610ec7828280806020026020016040519081016040528093929190818152602001838360200280828437600092019190915250506040805160048152602481019091526020810180516001600160e01b0316635710019160e11b1790529150612c5b9050565b612902612bff565b6000805160206144ea8339815191528054600160a81b900460ff161561296a5760405162461bcd60e51b815260206004820152601a60248201527f616c726561647920696e2070726f64756374696f6e206d6f646500000000000060448201526064016110ab565b6001810180546001600160a01b03191690558054600160a81b60ff60a81b1982161782556040516001600160a01b0390911681527f83af113638b5422f9e977cebc0aaf0eaf2188eb9a8baae7f9d46c42b33a1560c9060200160405180910390a150565b6129d6612bff565b60405160248101839052604481018290526113d890849060640160408051601f198184030181529190526020810180516001600160e01b03166335b35f4b60e01b179052612c5b565b6000805160206144ea833981519152805460009190600160b01b900460ff1680611aad575054600160a81b900460ff1615919050565b6000805160206144ea8339815191528054600160b01b900460ff1615612a9157333014612a8457612a846143fd565b805460ff60b01b19169055565b611691612bff565b6113d8838383604051602401612ab191815260200190565b60408051601f198184030181529190526020810180516001600160e01b03166001600160e01b031990931692909217909152612c5b565b6000805160206144ea833981519152612aff612bff565b60008484604051612b11929190614132565b604080519182900382208454636221a54b60e01b845291519093506000926001600160a01b0390921691636221a54b9160048083019260209291908290030181865afa158015612b65573d6000803e3d6000fd5b505050506040513d601f19601f82011682018060405250810190612b899190614413565b905083811015612b965750825b6000612ba282426141cb565b600084815260028601602052604090819020829055519091507f8c02104dfc280f713854f25297de671710c544c58de69dbde8fb66974ce1ab9e90612bee90899089908790869061442c565b60405180910390a150505050505050565b612c07611a0a565b6001600160a01b0316336001600160a01b031614612c595760405162461bcd60e51b815260206004820152600f60248201526e6f6e6c7920676f7665726e616e636560881b60448201526064016110ab565b565b60005b82518110156113d8576000838281518110612c7b57612c7b6141b5565b6020026020010151905060016000826001600160a01b03166001600160a01b0316815260200190815260200160002054600003612cfa5760405162461bcd60e51b815260206004820152601960248201527f4173736574206d616e61676572206e6f74206d616e616765640000000000000060448201526064016110ab565b612d048184613325565b5050600101612c5e565b60006126cd836001600160a01b038416613369565b3d604051818101604052816000823e8215612d3c578181f35b8181fd5b6001600160a01b038116600090815260018301602052604081205415156126cd565b6040516001600160a01b03821660248201526113d89084908490604401612ab1565b60006000805160206144a3833981519152611b67565b7f4910fdfa16fed3260ed0e7147f7cc6da11a60208b5b9406d12a635614ffd91435460ff1615612dcd576113d88361345c565b826001600160a01b03166352d1902d6040518163ffffffff1660e01b8152600401602060405180830381865afa925050508015612e27575060408051601f3d908101601f19168201909252612e2491810190614413565b60015b612e8a5760405162461bcd60e51b815260206004820152602e60248201527f45524331393637557067726164653a206e657720696d706c656d656e7461746960448201526d6f6e206973206e6f74205555505360901b60648201526084016110ab565b6000805160206144a38339815191528114612ef95760405162461bcd60e51b815260206004820152602960248201527f45524331393637557067726164653a20756e737570706f727465642070726f786044820152681a58589b195555525160ba1b60648201526084016110ab565b506113d88383836134f8565b60008082604051602001612f199190614453565b6040516020818303038152906040528051906020012090506000805b8651811015612f8757868181518110612f5057612f506141b5565b60200260200101518303612f7f57858181518110612f7057612f706141b5565b60200260200101519150612f87565b600101612f35565b506001600160a01b038116612fcd5760405162461bcd60e51b815260206004820152600c60248201526b61646472657373207a65726f60a01b60448201526064016110ab565b95945050505050565b600061300983836040518060400160405280600e81526020016d20b2323932b9b9aab83230ba32b960911b815250612f05565b9050600061304684846040518060400160405280601681526020017520b9b9b2ba26b0b730b3b2b921b7b73a3937b63632b960511b815250612f05565b9050600061307185856040518060400160405280600481526020016315d3985d60e21b815250612f05565b9050611eaf60028054806020026020016040519081016040528092919081815260200182805480156130cc57602002820191906000526020600020905b81546001600160a01b031681526001909101906020018083116130ae575b5050505050848484613262565b6000805160206144ea8339815191528054600160a01b900460ff16156131385760405162461bcd60e51b8152602060048201526014602482015273696e697469616c6973656420213d2066616c736560601b60448201526064016110ab565b6001600160a01b03831661318e5760405162461bcd60e51b815260206004820152601860248201527f676f7665726e616e63652073657474696e6773207a65726f000000000000000060448201526064016110ab565b6001600160a01b0382166131d75760405162461bcd60e51b815260206004820152601060248201526f5f676f7665726e616e6365207a65726f60801b60448201526064016110ab565b80546001600160a01b038481166001600160a81b031990921691909117600160a01b1782556001820180549184166001600160a01b0319909216821790556040519081527f9789733827840833afc031fb2ef9ab6894271f77bad2085687cf4ae5c7bee4db9060200160405180910390a1505050565b60006126cd836001600160a01b03841661351d565b600080516020614483833981519152546001600160a01b0316836001600160a01b0316146132a0576132a08360008051602061448383398151915255565b6040516001600160a01b038084166024830152821660448201526132f290859060640160408051601f198184030181529190526020810180516001600160e01b0316636075765d60e01b179052612c5b565b6001600160a01b038216301461167e57600080546001600160a01b0384166001600160a01b031990911617905550505050565b60606126cd838360006040518060400160405280601e81526020017f416464726573733a206c6f772d6c6576656c2063616c6c206661696c6564000081525061356c565b6000818152600183016020526040812054801561345257600061338d6001836141a2565b85549091506000906133a1906001906141a2565b90508181146134065760008660000182815481106133c1576133c16141b5565b90600052602060002001549050808760000184815481106133e4576133e46141b5565b6000918252602080832090910192909255918252600188019052604090208390555b8554869080613417576134176141de565b600190038181906000526020600020016000905590558560010160008681526020019081526020016000206000905560019350505050610f75565b6000915050610f75565b6001600160a01b0381163b6134c95760405162461bcd60e51b815260206004820152602d60248201527f455243313936373a206e657720696d706c656d656e746174696f6e206973206e60448201526c1bdd08184818dbdb9d1c9858dd609a1b60648201526084016110ab565b6000805160206144a383398151915280546001600160a01b0319166001600160a01b0392909216919091179055565b61350183613649565b60008251118061350e5750805b156113d85761167e8383613689565b600081815260018301602052604081205461356457508154600181810184556000848152602080822090930184905584548482528286019093526040902091909155610f75565b506000610f75565b6060824710156135cd5760405162461bcd60e51b815260206004820152602660248201527f416464726573733a20696e73756666696369656e742062616c616e636520666f6044820152651c8818d85b1b60d21b60648201526084016110ab565b600080866001600160a01b031685876040516135e99190614466565b60006040518083038185875af1925050503d8060008114613626576040519150601f19603f3d011682016040523d82523d6000602084013e61362b565b606091505b509150915061363c878383876136ae565b925050505b949350505050565b6136528161345c565b6040516001600160a01b038216907fbc7cd75a20ee27fd9adebab32041f755214dbc6bffa90cc0225b39da2e5c2d3b90600090a250565b60606126cd83836040518060600160405280602781526020016144c360279139613727565b6060831561371d578251600003613716576001600160a01b0385163b6137165760405162461bcd60e51b815260206004820152601d60248201527f416464726573733a2063616c6c20746f206e6f6e2d636f6e747261637400000060448201526064016110ab565b5081613641565b613641838361379f565b6060600080856001600160a01b0316856040516137449190614466565b600060405180830381855af49150503d806000811461377f576040519150601f19603f3d011682016040523d82523d6000602084013e613784565b606091505b5091509150613795868383876136ae565b9695505050505050565b8151156137af5781518083602001fd5b8060405162461bcd60e51b81526004016110ab9190614453565b634e487b7160e01b600052604160045260246000fd5b604051601f8201601f191681016001600160401b0381118282101715613807576138076137c9565b604052919050565b60006001600160401b03821115613828576138286137c9565b5060051b60200190565b6001600160a01b038116811461169157600080fd5b600082601f83011261385857600080fd5b8135602061386d6138688361380f565b6137df565b8083825260208201915060208460051b87010193508684111561388f57600080fd5b602086015b848110156138b45780356138a781613832565b8352918301918301613894565b509695505050505050565b600080604083850312156138d257600080fd5b82356001600160401b038111156138e857600080fd5b6138f485828601613847565b95602094909401359450505050565b60006020828403121561391557600080fd5b81356001600160e01b0319811681146126cd57600080fd5b6000806040838503121561394057600080fd5b82356001600160401b038082111561395757600080fd5b61396386838701613847565b9350602085013591508082111561397957600080fd5b508301610140818603121561398d57600080fd5b809150509250929050565b600080602083850312156139ab57600080fd5b82356001600160401b03808211156139c257600080fd5b818501915085601f8301126139d657600080fd5b8135818111156139e557600080fd5b8660208285010111156139f757600080fd5b60209290920196919550909350505050565b600060208284031215613a1b57600080fd5b81356126cd81613832565b60008060408385031215613a3957600080fd5b82356001600160401b03811115613a4f57600080fd5b613a5b85828601613847565b925050602083013561398d81613832565b600080600060608486031215613a8157600080fd5b83356001600160401b03811115613a9757600080fd5b613aa386828701613847565b9660208601359650604090950135949350505050565b600082601f830112613aca57600080fd5b81356001600160401b03811115613ae357613ae36137c9565b613af6601f8201601f19166020016137df565b818152846020838601011115613b0b57600080fd5b816020850160208301376000918101602001919091529392505050565b60008060408385031215613b3b57600080fd5b8235613b4681613832565b915060208301356001600160401b03811115613b6157600080fd5b613b6d85828601613ab9565b9150509250929050565b60008060208385031215613b8a57600080fd5b82356001600160401b0380821115613ba157600080fd5b818501915085601f830112613bb557600080fd5b813581811115613bc457600080fd5b8660208260051b85010111156139f757600080fd5b600082601f830112613bea57600080fd5b81356020613bfa6138688361380f565b8083825260208201915060208460051b870101935086841115613c1c57600080fd5b602086015b848110156138b45780358352918301918301613c21565b600080600060608486031215613c4d57600080fd5b83356001600160401b0380821115613c6457600080fd5b613c7087838801613847565b94506020860135915080821115613c8657600080fd5b613c9287838801613bd9565b93506040860135915080821115613ca857600080fd5b50613cb586828701613bd9565b9150509250925092565b803560038110613cce57600080fd5b919050565b8035613cce81613832565b60008060008060008060c08789031215613cf757600080fd5b86356001600160401b03811115613d0d57600080fd5b613d1989828a01613847565b965050613d2860208801613cbf565b94506040870135613d3881613832565b959894975094956060810135955060808101359460a0909101359350915050565b60008060408385031215613d6c57600080fd5b82356001600160401b0380821115613d8357600080fd5b818501915085601f830112613d9757600080fd5b81356020613da76138688361380f565b82815260059290921b84018101918181019089841115613dc657600080fd5b948201945b83861015613de457853582529482019490820190613dcb565b96505086013592505080821115613dfa57600080fd5b50613b6d85828601613847565b60008060008060808587031215613e1d57600080fd5b84356001600160401b03811115613e3357600080fd5b613e3f87828801613847565b945050613e4e60208601613cbf565b92506040850135613e5e81613832565b9396929550929360600135925050565b6020808252825182820181905260009190848201906040850190845b81811015613eaf5783516001600160a01b031683529284019291840191600101613e8a565b50909695505050505050565b600080600060608486031215613ed057600080fd5b8335613edb81613832565b92506020840135613eeb81613832565b91506040840135613efb81613832565b809150509250925092565b600060208284031215613f1857600080fd5b81356001600160401b03811115613f2e57600080fd5b61364184828501613847565b600080600060608486031215613f4f57600080fd5b83356001600160401b0380821115613f6657600080fd5b613f7287838801613847565b945060208601359150613f8482613832565b90925060408501359080821115613f9a57600080fd5b50613cb586828701613ab9565b60038110613fc557634e487b7160e01b600052602160045260246000fd5b9052565b801515811461169157600080fd5b8035613cce81613fc9565b6000808335601e19843603018112613ff957600080fd5b83016020810192503590506001600160401b0381111561401857600080fd5b80360382131561402757600080fd5b9250929050565b81835281816020850137506000828201602090810191909152601f909101601f19169091010190565b602081526140706020820161406b84613cbf565b613fa7565b600061407e60208401613cd3565b6001600160a01b03811660408401525060408301356060830152606083013560808301526140ae60808401613fd7565b80151560a0840152506140c460a0840184613fe2565b6101408060c08601526140dc6101608601838561402e565b92506140eb60c0870187613fe2565b868503601f190160e0880152925061410484848361402e565b60e0880135610100888101919091528801356101208089019190915290970135919095015250929392505050565b8183823760009101908152919050565b6020808252602a908201527f6f6e6c7920676f7665726e616e6365206f7220656d657267656e63792070617560408201526973652073656e6465727360b01b606082015260800190565b634e487b7160e01b600052601160045260246000fd5b81810381811115610f7557610f7561418c565b634e487b7160e01b600052603260045260246000fd5b80820180821115610f7557610f7561418c565b634e487b7160e01b600052603160045260246000fd5b60006020828403121561420657600080fd5b81516126cd81613832565b6020808252602c908201527f46756e6374696f6e206d7573742062652063616c6c6564207468726f7567682060408201526b19195b1959d85d1958d85b1b60a21b606082015260800190565b6020808252602c908201527f46756e6374696f6e206d7573742062652063616c6c6564207468726f7567682060408201526b6163746976652070726f787960a01b606082015260800190565b60008151808452602080850194506020840160005b838110156142da578151875295820195908201906001016142be565b509495945050505050565b6040815260006142f860408301856142a9565b8281036020840152612fcd81856142a9565b60a081016143188288613fa7565b6001600160a01b0395909516602082015260408101939093526060830191909152608090910152919050565b606081016143528286613fa7565b6001600160a01b0393909316602082015260400152919050565b60006020828403121561437e57600080fd5b81516126cd81613fc9565b60005b838110156143a457818101518382015260200161438c565b50506000910152565b600081518084526143c5816020860160208601614389565b601f01601f19169290920160200192915050565b6001600160a01b0383168152604060208201819052600090613641908301846143ad565b634e487b7160e01b600052600160045260246000fd5b60006020828403121561442557600080fd5b5051919050565b60608152600061444060608301868861402e565b6020830194909452506040015292915050565b6020815260006126cd60208301846143ad565b60008251614478818460208701614389565b919091019291505056fe714f205b2abd25bef1d06a1af944e38c113fe6160375c4e1d6d5cf28848e7719360894a13ba1a3210667c828492db98dca3e2076cc3735a920a3ca505d382bbc416464726573733a206c6f772d6c6576656c2064656c65676174652063616c6c206661696c65642aa47ee5db910f3b2a06970c443249cc77dbd9f96100cfebc1775ab7fb1d1824a26469706673582212207df6999c67c04580486605035b8c10c8d6826b8c69a2ce1c3b92512dc2569d5664736f6c63430008170033",
  "linkReferences": {},
  "deployedLinkReferences": {}
}