{
  "_format": "hh-sol-artifact-1",
  "contractName": "AssetManagerController",
  "sourceName": "contracts/assetManager/implementation/AssetManagerController.sol",
  "abi": [
    {
      "inputs": [],
      "stateMutability": "nonpayable",
      "type": "constructor"
    },
    {
      "anonymous": false,
      "inputs": [
        {
          "indexed": false,
          "internalType": "address",
          "name": "previousAdmin",
          "type": "address"
        },
        {
          "indexed": false,
          "internalType": "address",
          "name": "newAdmin",
          "type": "address"
        }
      ],
      "name": "AdminChanged",
      "type": "event"
    },
    {
      "anonymous": false,
      "inputs": [
        {
          "indexed": true,
          "internalType": "address",
          "name": "beacon",
          "type": "address"
        }
      ],
      "name": "BeaconUpgraded",
      "type": "event"
    },
    {
      "anonymous": false,
      "inputs": [
        {
          "indexed": false,
          "internalType": "bytes",
          "name": "encodedCall",
          "type": "bytes"
        },
        {
          "indexed": false,
          "internalType": "bytes32",
          "name": "encodedCallHash",
          "type": "bytes32"
        },
        {
          "indexed": false,
          "internalType": "uint256",
          "name": "allowedAfterTimestamp",
          "type": "uint256"
        }
      ],
      "name": "GovernanceCallTimelocked",
      "type": "event"
    },
    {
      "anonymous": false,
      "inputs": [
        {
          "indexed": false,
          "internalType": "address",
          "name": "initialGovernance",
          "type": "address"
        }
      ],
      "name": "GovernanceInitialised",
      "type": "event"
    },
    {
      "anonymous": false,
      "inputs": [
        {
          "indexed": false,
          "internalType": "address",
          "name": "governanceSettings",
          "type": "address"
        }
      ],
      "name": "GovernedProductionModeEntered",
      "type": "event"
    },
    {
      "anonymous": false,
      "inputs": [
        {
          "indexed": false,
          "internalType": "bytes32",
          "name": "encodedCallHash",
          "type": "bytes32"
        }
      ],
      "name": "TimelockedGovernanceCallCanceled",
      "type": "event"
    },
    {
      "anonymous": false,
      "inputs": [
        {
          "indexed": false,
          "internalType": "bytes32",
          "name": "encodedCallHash",
          "type": "bytes32"
        }
      ],
      "name": "TimelockedGovernanceCallExecuted",
      "type": "event"
    },
    {
      "anonymous": false,
      "inputs": [
        {
          "indexed": true,
          "internalType": "address",
          "name": "implementation",
          "type": "address"
        }
      ],
      "name": "Upgraded",
      "type": "event"
    },
    {
      "inputs": [
        {
          "internalType": "contract IIAssetManager",
          "name": "_assetManager",
          "type": "address"
        }
      ],
      "name": "addAssetManager",
      "outputs": [],
      "stateMutability": "nonpayable",
      "type": "function"
    },
    {
      "inputs": [
        {
          "internalType": "contract IIAssetManager[]",
          "name": "_assetManagers",
          "type": "address[]"
        },
        {
          "components": [
            {
              "internalType": "enum CollateralType.Class",
              "name": "collateralClass",
              "type": "uint8"
            },
            {
              "internalType": "contract IERC20",
              "name": "token",
              "type": "address"
            },
            {
              "internalType": "uint256",
              "name": "decimals",
              "type": "uint256"
            },
            {
              "internalType": "uint256",
              "name": "validUntil",
              "type": "uint256"
            },
            {
              "internalType": "bool",
              "name": "directPricePair",
              "type": "bool"
            },
            {
              "internalType": "string",
              "name": "assetFtsoSymbol",
              "type": "string"
            },
            {
              "internalType": "string",
              "name": "tokenFtsoSymbol",
              "type": "string"
            },
            {
              "internalType": "uint256",
              "name": "minCollateralRatioBIPS",
              "type": "uint256"
            },
            {
              "internalType": "uint256",
              "name": "ccbMinCollateralRatioBIPS",
              "type": "uint256"
            },
            {
              "internalType": "uint256",
              "name": "safetyMinCollateralRatioBIPS",
              "type": "uint256"
            }
          ],
          "internalType": "struct CollateralType.Data",
          "name": "_data",
          "type": "tuple"
        }
      ],
      "name": "addCollateralType",
      "outputs": [],
      "stateMutability": "nonpayable",
      "type": "function"
    },
    {
      "inputs": [
        {
          "internalType": "address",
          "name": "_address",
          "type": "address"
        }
      ],
      "name": "addEmergencyPauseSender",
      "outputs": [],
      "stateMutability": "nonpayable",
      "type": "function"
    },
    {
      "inputs": [
        {
          "internalType": "address",
          "name": "_assetManager",
          "type": "address"
        }
      ],
      "name": "assetManagerExists",
      "outputs": [
        {
          "internalType": "bool",
          "name": "",
          "type": "bool"
        }
      ],
      "stateMutability": "view",
      "type": "function"
    },
    {
      "inputs": [
        {
          "internalType": "bytes",
          "name": "_encodedCall",
          "type": "bytes"
        }
      ],
      "name": "cancelGovernanceCall",
      "outputs": [],
      "stateMutability": "nonpayable",
      "type": "function"
    },
    {
      "inputs": [
        {
          "internalType": "contract IIAssetManager[]",
          "name": "_assetManagers",
          "type": "address[]"
        },
        {
          "internalType": "enum CollateralType.Class",
          "name": "_class",
          "type": "uint8"
        },
        {
          "internalType": "contract IERC20",
          "name": "_token",
          "type": "address"
        },
        {
          "internalType": "uint256",
          "name": "_invalidationTimeSec",
          "type": "uint256"
        }
      ],
      "name": "deprecateCollateralType",
      "outputs": [],
      "stateMutability": "nonpayable",
      "type": "function"
    },
    {
      "inputs": [
        {
          "internalType": "contract IIAssetManager[]",
          "name": "_assetManagers",
          "type": "address[]"
        },
        {
          "internalType": "uint256",
          "name": "_duration",
          "type": "uint256"
        }
      ],
      "name": "emergencyPause",
      "outputs": [],
      "stateMutability": "nonpayable",
      "type": "function"
    },
    {
      "inputs": [
        {
          "internalType": "contract IIAssetManager[]",
          "name": "_assetManagers",
          "type": "address[]"
        },
        {
          "internalType": "uint256",
          "name": "_duration",
          "type": "uint256"
        }
      ],
      "name": "emergencyPauseTransfers",
      "outputs": [],
      "stateMutability": "nonpayable",
      "type": "function"
    },
    {
      "inputs": [
        {
          "internalType": "bytes",
          "name": "_encodedCall",
          "type": "bytes"
        }
      ],
      "name": "executeGovernanceCall",
      "outputs": [],
      "stateMutability": "nonpayable",
      "type": "function"
    },
    {
      "inputs": [],
      "name": "getAddressUpdater",
      "outputs": [
        {
          "internalType": "address",
          "name": "_addressUpdater",
          "type": "address"
        }
      ],
      "stateMutability": "view",
      "type": "function"
    },
    {
      "inputs": [],
      "name": "getAssetManagers",
      "outputs": [
        {
          "internalType": "contract IAssetManager[]",
          "name": "_assetManagers",
          "type": "address[]"
        }
      ],
      "stateMutability": "view",
      "type": "function"
    },
    {
      "inputs": [],
      "name": "governance",
      "outputs": [
        {
          "internalType": "address",
          "name": "",
          "type": "address"
        }
      ],
      "stateMutability": "view",
      "type": "function"
    },
    {
      "inputs": [],
      "name": "governanceSettings",
      "outputs": [
        {
          "internalType": "contract IGovernanceSettings",
          "name": "",
          "type": "address"
        }
      ],
      "stateMutability": "view",
      "type": "function"
    },
    {
      "inputs": [
        {
          "internalType": "contract IGovernanceSettings",
          "name": "_governanceSettings",
          "type": "address"
        },
        {
          "internalType": "address",
          "name": "_initialGovernance",
          "type": "address"
        },
        {
          "internalType": "address",
          "name": "_addressUpdater",
          "type": "address"
        }
      ],
      "name": "initialize",
      "outputs": [],
      "stateMutability": "nonpayable",
      "type": "function"
    },
    {
      "inputs": [
        {
          "internalType": "address",
          "name": "_address",
          "type": "address"
        }
      ],
      "name": "isExecutor",
      "outputs": [
        {
          "internalType": "bool",
          "name": "",
          "type": "bool"
        }
      ],
      "stateMutability": "view",
      "type": "function"
    },
    {
      "inputs": [
        {
          "internalType": "contract IIAssetManager[]",
          "name": "_assetManagers",
          "type": "address[]"
        }
      ],
      "name": "pauseMinting",
      "outputs": [],
      "stateMutability": "nonpayable",
      "type": "function"
    },
    {
      "inputs": [],
      "name": "productionMode",
      "outputs": [
        {
          "internalType": "bool",
          "name": "",
          "type": "bool"
        }
      ],
      "stateMutability": "view",
      "type": "function"
    },
    {
      "inputs": [],
      "name": "proxiableUUID",
      "outputs": [
        {
          "internalType": "bytes32",
          "name": "",
          "type": "bytes32"
        }
      ],
      "stateMutability": "view",
      "type": "function"
    },
    {
      "inputs": [
        {
          "internalType": "contract IIAssetManager",
          "name": "_assetManager",
          "type": "address"
        }
      ],
      "name": "removeAssetManager",
      "outputs": [],
      "stateMutability": "nonpayable",
      "type": "function"
    },
    {
      "inputs": [
        {
          "internalType": "address",
          "name": "_address",
          "type": "address"
        }
      ],
      "name": "removeEmergencyPauseSender",
      "outputs": [],
      "stateMutability": "nonpayable",
      "type": "function"
    },
    {
      "inputs": [],
      "name": "replacedBy",
      "outputs": [
        {
          "internalType": "address",
          "name": "",
          "type": "address"
        }
      ],
      "stateMutability": "view",
      "type": "function"
    },
    {
      "inputs": [
        {
          "internalType": "contract IIAssetManager[]",
          "name": "_assetManagers",
          "type": "address[]"
        }
      ],
      "name": "resetEmergencyPauseTotalDuration",
      "outputs": [],
      "stateMutability": "nonpayable",
      "type": "function"
    },
    {
      "inputs": [
        {
          "internalType": "contract IIAssetManager[]",
          "name": "_assetManagers",
          "type": "address[]"
        },
        {
          "internalType": "uint256",
          "name": "_value",
          "type": "uint256"
        }
      ],
      "name": "setAgentExitAvailableTimelockSeconds",
      "outputs": [],
      "stateMutability": "nonpayable",
      "type": "function"
    },
    {
      "inputs": [
        {
          "internalType": "contract IIAssetManager[]",
          "name": "_assetManagers",
          "type": "address[]"
        },
        {
          "internalType": "uint256",
          "name": "_value",
          "type": "uint256"
        }
      ],
      "name": "setAgentFeeChangeTimelockSeconds",
      "outputs": [],
      "stateMutability": "nonpayable",
      "type": "function"
    },
    {
      "inputs": [
        {
          "internalType": "contract IIAssetManager[]",
          "name": "_assetManagers",
          "type": "address[]"
        },
        {
          "internalType": "uint256",
          "name": "_value",
          "type": "uint256"
        }
      ],
      "name": "setAgentMintingCRChangeTimelockSeconds",
      "outputs": [],
      "stateMutability": "nonpayable",
      "type": "function"
    },
    {
      "inputs": [
        {
          "internalType": "contract IIAssetManager[]",
          "name": "_assetManagers",
          "type": "address[]"
        },
        {
          "internalType": "address",
          "name": "_value",
          "type": "address"
        }
      ],
      "name": "setAgentOwnerRegistry",
      "outputs": [],
      "stateMutability": "nonpayable",
      "type": "function"
    },
    {
      "inputs": [
        {
          "internalType": "contract IIAssetManager[]",
          "name": "_assetManagers",
          "type": "address[]"
        },
        {
          "internalType": "uint256",
          "name": "_value",
          "type": "uint256"
        }
      ],
      "name": "setAgentTimelockedOperationWindowSeconds",
      "outputs": [],
      "stateMutability": "nonpayable",
      "type": "function"
    },
    {
      "inputs": [
        {
          "internalType": "contract IIAssetManager[]",
          "name": "_assetManagers",
          "type": "address[]"
        },
        {
          "internalType": "address",
          "name": "_value",
          "type": "address"
        }
      ],
      "name": "setAgentVaultFactory",
      "outputs": [],
      "stateMutability": "nonpayable",
      "type": "function"
    },
    {
      "inputs": [
        {
          "internalType": "contract IIAssetManager[]",
          "name": "_assetManagers",
          "type": "address[]"
        },
        {
          "internalType": "uint256",
          "name": "_value",
          "type": "uint256"
        }
      ],
      "name": "setAnnouncedUnderlyingConfirmationMinSeconds",
      "outputs": [],
      "stateMutability": "nonpayable",
      "type": "function"
    },
    {
      "inputs": [
        {
          "internalType": "contract IIAssetManager[]",
          "name": "_assetManagers",
          "type": "address[]"
        },
        {
          "internalType": "uint256",
          "name": "_value",
          "type": "uint256"
        }
      ],
      "name": "setAttestationWindowSeconds",
      "outputs": [],
      "stateMutability": "nonpayable",
      "type": "function"
    },
    {
      "inputs": [
        {
          "internalType": "contract IIAssetManager[]",
          "name": "_assetManagers",
          "type": "address[]"
        },
        {
          "internalType": "uint256",
          "name": "_value",
          "type": "uint256"
        }
      ],
      "name": "setAverageBlockTimeMS",
      "outputs": [],
      "stateMutability": "nonpayable",
      "type": "function"
    },
    {
      "inputs": [
        {
          "internalType": "contract IIAssetManager[]",
          "name": "_assetManagers",
          "type": "address[]"
        },
        {
          "internalType": "uint256",
          "name": "_value",
          "type": "uint256"
        }
      ],
      "name": "setCancelCollateralReservationAfterSeconds",
      "outputs": [],
      "stateMutability": "nonpayable",
      "type": "function"
    },
    {
      "inputs": [
        {
          "internalType": "contract IIAssetManager[]",
          "name": "_assetManagers",
          "type": "address[]"
        },
        {
          "internalType": "uint256",
          "name": "_value",
          "type": "uint256"
        }
      ],
      "name": "setCcbTimeSeconds",
      "outputs": [],
      "stateMutability": "nonpayable",
      "type": "function"
    },
    {
      "inputs": [
        {
          "internalType": "contract IIAssetManager[]",
          "name": "_assetManagers",
          "type": "address[]"
        },
        {
          "internalType": "address",
          "name": "_value",
          "type": "address"
        }
      ],
      "name": "setCleanerContract",
      "outputs": [],
      "stateMutability": "nonpayable",
      "type": "function"
    },
    {
      "inputs": [
        {
          "internalType": "contract IIAssetManager[]",
          "name": "_assetManagers",
          "type": "address[]"
        },
        {
          "internalType": "address",
          "name": "_value",
          "type": "address"
        }
      ],
      "name": "setCleanupBlockNumberManager",
      "outputs": [],
      "stateMutability": "nonpayable",
      "type": "function"
    },
    {
      "inputs": [
        {
          "internalType": "contract IIAssetManager[]",
          "name": "_assetManagers",
          "type": "address[]"
        },
        {
          "internalType": "address",
          "name": "_value",
          "type": "address"
        }
      ],
      "name": "setCollateralPoolFactory",
      "outputs": [],
      "stateMutability": "nonpayable",
      "type": "function"
    },
    {
      "inputs": [
        {
          "internalType": "contract IIAssetManager[]",
          "name": "_assetManagers",
          "type": "address[]"
        },
        {
          "internalType": "address",
          "name": "_value",
          "type": "address"
        }
      ],
      "name": "setCollateralPoolTokenFactory",
      "outputs": [],
      "stateMutability": "nonpayable",
      "type": "function"
    },
    {
      "inputs": [
        {
          "internalType": "contract IIAssetManager[]",
          "name": "_assetManagers",
          "type": "address[]"
        },
        {
          "internalType": "uint256",
          "name": "_value",
          "type": "uint256"
        }
      ],
      "name": "setCollateralPoolTokenTimelockSeconds",
      "outputs": [],
      "stateMutability": "nonpayable",
      "type": "function"
    },
    {
      "inputs": [
        {
          "internalType": "contract IIAssetManager[]",
          "name": "_assetManagers",
          "type": "address[]"
        },
        {
          "internalType": "enum CollateralType.Class",
          "name": "_class",
          "type": "uint8"
        },
        {
          "internalType": "contract IERC20",
          "name": "_token",
          "type": "address"
        },
        {
          "internalType": "uint256",
          "name": "_minCollateralRatioBIPS",
          "type": "uint256"
        },
        {
          "internalType": "uint256",
          "name": "_ccbMinCollateralRatioBIPS",
          "type": "uint256"
        },
        {
          "internalType": "uint256",
          "name": "_safetyMinCollateralRatioBIPS",
          "type": "uint256"
        }
      ],
      "name": "setCollateralRatiosForToken",
      "outputs": [],
      "stateMutability": "nonpayable",
      "type": "function"
    },
    {
      "inputs": [
        {
          "internalType": "contract IIAssetManager[]",
          "name": "_assetManagers",
          "type": "address[]"
        },
        {
          "internalType": "uint256",
          "name": "_value",
          "type": "uint256"
        }
      ],
      "name": "setCollateralReservationFeeBips",
      "outputs": [],
      "stateMutability": "nonpayable",
      "type": "function"
    },
    {
      "inputs": [
        {
          "internalType": "contract IIAssetManager[]",
          "name": "_assetManagers",
          "type": "address[]"
        },
        {
          "internalType": "uint256",
          "name": "_value",
          "type": "uint256"
        }
      ],
      "name": "setConfirmationByOthersAfterSeconds",
      "outputs": [],
      "stateMutability": "nonpayable",
      "type": "function"
    },
    {
      "inputs": [
        {
          "internalType": "contract IIAssetManager[]",
          "name": "_assetManagers",
          "type": "address[]"
        },
        {
          "internalType": "uint256",
          "name": "_value",
          "type": "uint256"
        }
      ],
      "name": "setConfirmationByOthersRewardUSD5",
      "outputs": [],
      "stateMutability": "nonpayable",
      "type": "function"
    },
    {
      "inputs": [
        {
          "internalType": "contract IIAssetManager[]",
          "name": "_assetManagers",
          "type": "address[]"
        },
        {
          "internalType": "uint256",
          "name": "_value",
          "type": "uint256"
        }
      ],
      "name": "setEmergencyPauseDurationResetAfterSeconds",
      "outputs": [],
      "stateMutability": "nonpayable",
      "type": "function"
    },
    {
      "inputs": [
        {
          "internalType": "contract IIAssetManager[]",
          "name": "_assetManagers",
          "type": "address[]"
        },
        {
          "internalType": "address",
          "name": "_value",
          "type": "address"
        }
      ],
      "name": "setFdcVerification",
      "outputs": [],
      "stateMutability": "nonpayable",
      "type": "function"
    },
    {
      "inputs": [
        {
          "internalType": "contract IIAssetManager[]",
          "name": "_assetManagers",
          "type": "address[]"
        },
        {
          "internalType": "uint256[]",
          "name": "_paymentFactors",
          "type": "uint256[]"
        },
        {
          "internalType": "uint256[]",
          "name": "_vaultCollateralFactors",
          "type": "uint256[]"
        }
      ],
      "name": "setLiquidationPaymentFactors",
      "outputs": [],
      "stateMutability": "nonpayable",
      "type": "function"
    },
    {
      "inputs": [
        {
          "internalType": "contract IIAssetManager[]",
          "name": "_assetManagers",
          "type": "address[]"
        },
        {
          "internalType": "uint256",
          "name": "_value",
          "type": "uint256"
        }
      ],
      "name": "setLiquidationStepSeconds",
      "outputs": [],
      "stateMutability": "nonpayable",
      "type": "function"
    },
    {
      "inputs": [
        {
          "internalType": "contract IIAssetManager[]",
          "name": "_assetManagers",
          "type": "address[]"
        },
        {
          "internalType": "uint256",
          "name": "_value",
          "type": "uint256"
        }
      ],
      "name": "setLotSizeAmg",
      "outputs": [],
      "stateMutability": "nonpayable",
      "type": "function"
    },
    {
      "inputs": [
        {
          "internalType": "contract IIAssetManager[]",
          "name": "_assetManagers",
          "type": "address[]"
        },
        {
          "internalType": "uint256",
          "name": "_value",
          "type": "uint256"
        }
      ],
      "name": "setMaxEmergencyPauseDurationSeconds",
      "outputs": [],
      "stateMutability": "nonpayable",
      "type": "function"
    },
    {
      "inputs": [
        {
          "internalType": "contract IIAssetManager[]",
          "name": "_assetManagers",
          "type": "address[]"
        },
        {
          "internalType": "uint256",
          "name": "_value",
          "type": "uint256"
        }
      ],
      "name": "setMaxRedeemedTickets",
      "outputs": [],
      "stateMutability": "nonpayable",
      "type": "function"
    },
    {
      "inputs": [
        {
          "internalType": "contract IIAssetManager[]",
          "name": "_assetManagers",
          "type": "address[]"
        },
        {
          "internalType": "uint256",
          "name": "_value",
          "type": "uint256"
        }
      ],
      "name": "setMaxTrustedPriceAgeSeconds",
      "outputs": [],
      "stateMutability": "nonpayable",
      "type": "function"
    },
    {
      "inputs": [
        {
          "internalType": "contract IIAssetManager[]",
          "name": "_assetManagers",
          "type": "address[]"
        },
        {
          "internalType": "uint256",
          "name": "_value",
          "type": "uint256"
        }
      ],
      "name": "setMinUnderlyingBackingBips",
      "outputs": [],
      "stateMutability": "nonpayable",
      "type": "function"
    },
    {
      "inputs": [
        {
          "internalType": "contract IIAssetManager[]",
          "name": "_assetManagers",
          "type": "address[]"
        },
        {
          "internalType": "uint256",
          "name": "_value",
          "type": "uint256"
        }
      ],
      "name": "setMinUpdateRepeatTimeSeconds",
      "outputs": [],
      "stateMutability": "nonpayable",
      "type": "function"
    },
    {
      "inputs": [
        {
          "internalType": "contract IIAssetManager[]",
          "name": "_assetManagers",
          "type": "address[]"
        },
        {
          "internalType": "uint256",
          "name": "_value",
          "type": "uint256"
        }
      ],
      "name": "setMintingCapAmg",
      "outputs": [],
      "stateMutability": "nonpayable",
      "type": "function"
    },
    {
      "inputs": [
        {
          "internalType": "contract IIAssetManager[]",
          "name": "_assetManagers",
          "type": "address[]"
        },
        {
          "internalType": "uint256",
          "name": "_value",
          "type": "uint256"
        }
      ],
      "name": "setMintingPoolHoldingsRequiredBIPS",
      "outputs": [],
      "stateMutability": "nonpayable",
      "type": "function"
    },
    {
      "inputs": [
        {
          "internalType": "contract IIAssetManager[]",
          "name": "_assetManagers",
          "type": "address[]"
        },
        {
          "internalType": "uint256",
          "name": "_rewardVaultCollateralWei",
          "type": "uint256"
        },
        {
          "internalType": "uint256",
          "name": "_rewardBIPS",
          "type": "uint256"
        }
      ],
      "name": "setPaymentChallengeReward",
      "outputs": [],
      "stateMutability": "nonpayable",
      "type": "function"
    },
    {
      "inputs": [
        {
          "internalType": "contract IIAssetManager[]",
          "name": "_assetManagers",
          "type": "address[]"
        },
        {
          "internalType": "uint256",
          "name": "_value",
          "type": "uint256"
        }
      ],
      "name": "setPoolExitAndTopupChangeTimelockSeconds",
      "outputs": [],
      "stateMutability": "nonpayable",
      "type": "function"
    },
    {
      "inputs": [
        {
          "internalType": "contract IIAssetManager[]",
          "name": "_assetManagers",
          "type": "address[]"
        },
        {
          "internalType": "address",
          "name": "_value",
          "type": "address"
        }
      ],
      "name": "setPriceReader",
      "outputs": [],
      "stateMutability": "nonpayable",
      "type": "function"
    },
    {
      "inputs": [
        {
          "internalType": "contract IIAssetManager[]",
          "name": "_assetManagers",
          "type": "address[]"
        },
        {
          "internalType": "uint256",
          "name": "_vaultF",
          "type": "uint256"
        },
        {
          "internalType": "uint256",
          "name": "_poolF",
          "type": "uint256"
        }
      ],
      "name": "setRedemptionDefaultFactorBips",
      "outputs": [],
      "stateMutability": "nonpayable",
      "type": "function"
    },
    {
      "inputs": [
        {
          "internalType": "contract IIAssetManager[]",
          "name": "_assetManagers",
          "type": "address[]"
        },
        {
          "internalType": "uint256",
          "name": "_value",
          "type": "uint256"
        }
      ],
      "name": "setRedemptionFeeBips",
      "outputs": [],
      "stateMutability": "nonpayable",
      "type": "function"
    },
    {
      "inputs": [
        {
          "internalType": "contract IIAssetManager[]",
          "name": "_assetManagers",
          "type": "address[]"
        },
        {
          "internalType": "uint256",
          "name": "_value",
          "type": "uint256"
        }
      ],
      "name": "setRedemptionPaymentExtensionSeconds",
      "outputs": [],
      "stateMutability": "nonpayable",
      "type": "function"
    },
    {
      "inputs": [
        {
          "internalType": "contract IIAssetManager[]",
          "name": "_assetManagers",
          "type": "address[]"
        },
        {
          "internalType": "uint256",
          "name": "_value",
          "type": "uint256"
        }
      ],
      "name": "setRejectOrCancelCollateralReservationReturnFactorBIPS",
      "outputs": [],
      "stateMutability": "nonpayable",
      "type": "function"
    },
    {
      "inputs": [
        {
          "internalType": "contract IIAssetManager[]",
          "name": "_assetManagers",
          "type": "address[]"
        },
        {
          "internalType": "uint256",
          "name": "_value",
          "type": "uint256"
        }
      ],
      "name": "setRejectRedemptionRequestWindowSeconds",
      "outputs": [],
      "stateMutability": "nonpayable",
      "type": "function"
    },
    {
      "inputs": [
        {
          "internalType": "contract IIAssetManager[]",
          "name": "_assetManagers",
          "type": "address[]"
        },
        {
          "internalType": "uint256",
          "name": "_vaultF",
          "type": "uint256"
        },
        {
          "internalType": "uint256",
          "name": "_poolF",
          "type": "uint256"
        }
      ],
      "name": "setRejectedRedemptionDefaultFactorBips",
      "outputs": [],
      "stateMutability": "nonpayable",
      "type": "function"
    },
    {
      "inputs": [
        {
          "internalType": "contract IIAssetManager[]",
          "name": "_assetManagers",
          "type": "address[]"
        },
        {
          "internalType": "uint256",
          "name": "_value",
          "type": "uint256"
        }
      ],
      "name": "setTakeOverRedemptionRequestWindowSeconds",
      "outputs": [],
      "stateMutability": "nonpayable",
      "type": "function"
    },
    {
      "inputs": [
        {
          "internalType": "contract IIAssetManager[]",
          "name": "_assetManagers",
          "type": "address[]"
        },
        {
          "internalType": "uint256",
          "name": "_underlyingBlocks",
          "type": "uint256"
        },
        {
          "internalType": "uint256",
          "name": "_underlyingSeconds",
          "type": "uint256"
        }
      ],
      "name": "setTimeForPayment",
      "outputs": [],
      "stateMutability": "nonpayable",
      "type": "function"
    },
    {
      "inputs": [
        {
          "internalType": "contract IIAssetManager[]",
          "name": "_assetManagers",
          "type": "address[]"
        },
        {
          "internalType": "uint256",
          "name": "_value",
          "type": "uint256"
        }
      ],
      "name": "setTokenInvalidationTimeMinSeconds",
      "outputs": [],
      "stateMutability": "nonpayable",
      "type": "function"
    },
    {
      "inputs": [
        {
          "internalType": "contract IIAssetManager[]",
          "name": "_assetManagers",
          "type": "address[]"
        },
        {
          "internalType": "uint256",
          "name": "_value",
          "type": "uint256"
        },
        {
          "internalType": "uint256",
          "name": "_scheduledAt",
          "type": "uint256"
        }
      ],
      "name": "setTransferFeeMillionths",
      "outputs": [],
      "stateMutability": "nonpayable",
      "type": "function"
    },
    {
      "inputs": [
        {
          "internalType": "contract IIAssetManager[]",
          "name": "_assetManagers",
          "type": "address[]"
        },
        {
          "internalType": "uint256",
          "name": "_value",
          "type": "uint256"
        }
      ],
      "name": "setVaultCollateralBuyForFlareFactorBIPS",
      "outputs": [],
      "stateMutability": "nonpayable",
      "type": "function"
    },
    {
      "inputs": [
        {
          "internalType": "contract IIAssetManager[]",
          "name": "_assetManagers",
          "type": "address[]"
        },
        {
          "internalType": "address",
          "name": "_value",
          "type": "address"
        }
      ],
      "name": "setWhitelist",
      "outputs": [],
      "stateMutability": "nonpayable",
      "type": "function"
    },
    {
      "inputs": [
        {
          "internalType": "contract IIAssetManager[]",
          "name": "_assetManagers",
          "type": "address[]"
        },
        {
          "internalType": "uint256",
          "name": "_value",
          "type": "uint256"
        }
      ],
      "name": "setWithdrawalOrDestroyWaitMinSeconds",
      "outputs": [],
      "stateMutability": "nonpayable",
      "type": "function"
    },
    {
      "inputs": [
        {
          "internalType": "bytes4",
          "name": "_interfaceId",
          "type": "bytes4"
        }
      ],
      "name": "supportsInterface",
      "outputs": [
        {
          "internalType": "bool",
          "name": "",
          "type": "bool"
        }
      ],
      "stateMutability": "pure",
      "type": "function"
    },
    {
      "inputs": [],
      "name": "switchToProductionMode",
      "outputs": [],
      "stateMutability": "nonpayable",
      "type": "function"
    },
    {
      "inputs": [
        {
          "internalType": "contract IIAssetManager[]",
          "name": "_assetManagers",
          "type": "address[]"
        }
      ],
      "name": "terminate",
      "outputs": [],
      "stateMutability": "nonpayable",
      "type": "function"
    },
    {
      "inputs": [
        {
          "internalType": "contract IIAssetManager[]",
          "name": "_assetManagers",
          "type": "address[]"
        }
      ],
      "name": "unpauseMinting",
      "outputs": [],
      "stateMutability": "nonpayable",
      "type": "function"
    },
    {
      "inputs": [
        {
          "internalType": "bytes32[]",
          "name": "_contractNameHashes",
          "type": "bytes32[]"
        },
        {
          "internalType": "address[]",
          "name": "_contractAddresses",
          "type": "address[]"
        }
      ],
      "name": "updateContractAddresses",
      "outputs": [],
      "stateMutability": "nonpayable",
      "type": "function"
    },
    {
      "inputs": [
        {
          "internalType": "contract IIAssetManager[]",
          "name": "_assetManagers",
          "type": "address[]"
        }
      ],
      "name": "updateContracts",
      "outputs": [],
      "stateMutability": "nonpayable",
      "type": "function"
    },
    {
      "inputs": [
        {
          "internalType": "contract IIAssetManager[]",
          "name": "_assetManagers",
          "type": "address[]"
        },
        {
          "internalType": "address",
          "name": "_implementation",
          "type": "address"
        },
        {
          "internalType": "bytes",
          "name": "_callData",
          "type": "bytes"
        }
      ],
      "name": "upgradeFAssetImplementation",
      "outputs": [],
      "stateMutability": "nonpayable",
      "type": "function"
    },
    {
      "inputs": [
        {
          "internalType": "address",
          "name": "newImplementation",
          "type": "address"
        }
      ],
      "name": "upgradeTo",
      "outputs": [],
      "stateMutability": "nonpayable",
      "type": "function"
    },
    {
      "inputs": [
        {
          "internalType": "address",
          "name": "newImplementation",
          "type": "address"
        },
        {
          "internalType": "bytes",
          "name": "data",
          "type": "bytes"
        }
      ],
      "name": "upgradeToAndCall",
      "outputs": [],
      "stateMutability": "payable",
      "type": "function"
    }
  ],
  "bytecode": "0x60a0604052306080523480156200001557600080fd5b506000620000266111118062000056565b6200004f817f714f205b2abd25bef1d06a1af944e38c113fe6160375c4e1d6d5cf28848e771955565b50620001ef565b7f2aa47ee5db910f3b2a06970c443249cc77dbd9f96100cfebc1775ab7fb1d18248054600160a01b900460ff1615620000d65760405162461bcd60e51b815260206004820152601460248201527f696e697469616c6973656420213d2066616c736500000000000000000000000060448201526064015b60405180910390fd5b6001600160a01b0383166200012e5760405162461bcd60e51b815260206004820152601860248201527f676f7665726e616e63652073657474696e6773207a65726f00000000000000006044820152606401620000cd565b6001600160a01b038216620001795760405162461bcd60e51b815260206004820152601060248201526f5f676f7665726e616e6365207a65726f60801b6044820152606401620000cd565b80546001600160a01b038481166001600160a81b031990921691909117600160a01b1782556001820180549184166001600160a01b0319909216821790556040519081527f9789733827840833afc031fb2ef9ab6894271f77bad2085687cf4ae5c7bee4db9060200160405180910390a1505050565b6080516144c36200022760003960008181611688015281816116c8015281816118050152818161184501526118ce01526144c36000f3fe6080604052600436106104685760003560e01c80638ca061d41161024a578063ccfb791111610139578063e49ee36d116100b6578063ef098e551161007a578063ef098e5514610de0578063efa3d7eb14610e00578063efe058ef14610e20578063f5a9838314610e40578063f603bf9814610e5557600080fd5b8063e49ee36d14610d40578063e77ebcab14610d60578063e789e7d414610d80578063ec8e316114610da0578063eddaf29314610dc057600080fd5b8063d2e57812116100fd578063d2e5781214610c94578063d48b75f614610cb4578063debfda3014610cd4578063dede95f114610cf4578063e17f212e14610d1457600080fd5b8063ccfb791114610bf4578063cf2fdaa414610c14578063d0c391b514610c34578063d13e499d14610c54578063d285a63614610c7457600080fd5b8063b4c0a333116101c7578063bf4788131161018b578063bf47881314610b54578063c0c53b8b14610b74578063c38ec41814610b94578063c56e378414610bb4578063c6c257cb14610bd457600080fd5b8063b4c0a33314610ab2578063b577fc7614610ad2578063b87b82f014610af2578063bb6f41b314610b14578063be46c73d14610b3457600080fd5b8063a6a24e251161020e578063a6a24e2514610a12578063a82ee3d514610a32578063aeb4155514610a52578063af823a2714610a72578063b00c0b7614610a9257600080fd5b80638ca061d41461097257806397d2fcc614610992578063987ea899146109b25780639e1508a1146109d2578063a391dd9c146109f257600080fd5b806344944a9b116103665780635cce89ea116102e3578063758f07f2116102a7578063758f07f2146108ba578063763d1a16146108da5780637ad62f51146108fa5780637c703e13146109325780637e3566fe1461095257600080fd5b80635cce89ea14610825578063617637aa1461084557806362354e03146108655780636b76ab0e1461087a5780636f1f1fc01461089a57600080fd5b80635267a15d1161032a5780635267a15d1461077757806352d1902d146107ad578063556d5118146107d05780635aa6e675146107f05780635b5bad731461080557600080fd5b806344944a9b146106e457806347956606146107045780634a79bc9f146107245780634f1ef28614610744578063512410601461075757600080fd5b806320c5f99d116103f45780632d5846da116103b85780632d5846da1461064457806334dc393214610664578063358bca77146106845780633659cfe6146106a457806340b9d6b0146106c457600080fd5b806320c5f99d146105a457806326a9055b146105c457806326df3d0c146105e45780632aedabe4146106045780632af713fc1461062457600080fd5b80630a3eb8741161043b5780630a3eb87414610504578063115a6e151461052457806316fc2f6d14610544578063171898fe14610564578063207566711461058457600080fd5b80630117d9871461046d57806301ffc9a71461048f5780630207aff2146104c457806305a1790a146104e4575b600080fd5b34801561047957600080fd5b5061048d610488366004613843565b610e75565b005b34801561049b57600080fd5b506104af6104aa366004613887565b610ead565b60405190151581526020015b60405180910390f35b3480156104d057600080fd5b5061048d6104df366004613843565b610f50565b3480156104f057600080fd5b5061048d6104ff3660046138b1565b610f6a565b34801561051057600080fd5b5061048d61051f366004613843565b610fb6565b34801561053057600080fd5b5061048d61053f366004613843565b610fd0565b34801561055057600080fd5b5061048d61055f36600461391c565b610fea565b34801561057057600080fd5b5061048d61057f36600461398d565b6110d2565b34801561059057600080fd5b5061048d61059f366004613843565b6110e5565b3480156105b057600080fd5b5061048d6105bf36600461391c565b61110c565b3480156105d057600080fd5b5061048d6105df366004613843565b6112fb565b3480156105f057600080fd5b5061048d6105ff366004613843565b611315565b34801561061057600080fd5b5061048d61061f366004613843565b6113b2565b34801561063057600080fd5b5061048d61063f3660046139aa565b6113cc565b34801561065057600080fd5b5061048d61065f366004613843565b6113f3565b34801561067057600080fd5b5061048d61067f366004613843565b61140d565b34801561069057600080fd5b5061048d61069f36600461398d565b611427565b3480156106b057600080fd5b5061048d6106bf36600461398d565b611669565b3480156106d057600080fd5b5061048d6106df366004613843565b61173a565b3480156106f057600080fd5b5061048d6106ff3660046139f0565b611754565b34801561071057600080fd5b5061048d61071f366004613843565b6117a5565b34801561073057600080fd5b5061048d61073f3660046139aa565b6117bf565b61048d610752366004613aac565b6117e6565b34801561076357600080fd5b5061048d610772366004613843565b6118a7565b34801561078357600080fd5b50600080516020614407833981519152545b6040516001600160a01b0390911681526020016104bb565b3480156107b957600080fd5b506107c26118c1565b6040519081526020016104bb565b3480156107dc57600080fd5b5061048d6107eb366004613843565b611974565b3480156107fc57600080fd5b5061079561198e565b34801561081157600080fd5b5061048d610820366004613afb565b611a37565b34801561083157600080fd5b5061048d610840366004613843565b611aa5565b34801561085157600080fd5b5061048d610860366004613843565b611abf565b34801561087157600080fd5b50610795611ad9565b34801561088657600080fd5b5061048d610895366004613afb565b611afa565b3480156108a657600080fd5b5061048d6108b5366004613843565b611b68565b3480156108c657600080fd5b5061048d6108d5366004613843565b611b8f565b3480156108e657600080fd5b5061048d6108f5366004613bbc565b611ba9565b34801561090657600080fd5b506104af61091536600461398d565b6001600160a01b0316600090815260016020526040902054151590565b34801561093e57600080fd5b5061048d61094d366004613843565b611c11565b34801561095e57600080fd5b5061048d61096d366004613843565b611c2b565b34801561097e57600080fd5b5061048d61098d366004613c62565b611c45565b34801561099e57600080fd5b5061048d6109ad3660046139aa565b611cb8565b3480156109be57600080fd5b5061048d6109cd36600461398d565b611cdf565b3480156109de57600080fd5b5061048d6109ed366004613843565b611e3a565b3480156109fe57600080fd5b5061048d610a0d3660046139f0565b611e61565b348015610a1e57600080fd5b5061048d610a2d3660046139aa565b611ebf565b348015610a3e57600080fd5b5061048d610a4d366004613843565b611ee6565b348015610a5e57600080fd5b5061048d610a6d366004613843565b611f00565b348015610a7e57600080fd5b5061048d610a8d3660046139aa565b611f1a565b348015610a9e57600080fd5b5061048d610aad366004613cdd565b611f41565b348015610abe57600080fd5b5061048d610acd366004613d8b565b611ff8565b348015610ade57600080fd5b50600054610795906001600160a01b031681565b348015610afe57600080fd5b50610b07612047565b6040516104bb9190613df2565b348015610b2057600080fd5b5061048d610b2f3660046139aa565b612104565b348015610b4057600080fd5b5061048d610b4f366004613843565b61212b565b348015610b6057600080fd5b5061048d610b6f366004613843565b612145565b348015610b8057600080fd5b5061048d610b8f366004613e3f565b61215f565b348015610ba057600080fd5b5061048d610baf366004613843565b61217f565b348015610bc057600080fd5b5061048d610bcf366004613843565b612198565b348015610be057600080fd5b5061048d610bef36600461398d565b6121b2565b348015610c0057600080fd5b5061048d610c0f366004613843565b6121c5565b348015610c2057600080fd5b5061048d610c2f366004613843565b6121ec565b348015610c4057600080fd5b5061048d610c4f366004613843565b612284565b348015610c6057600080fd5b5061048d610c6f366004613afb565b6122ab565b348015610c8057600080fd5b5061048d610c8f366004613843565b61251f565b348015610ca057600080fd5b5061048d610caf3660046139f0565b612546565b348015610cc057600080fd5b5061048d610ccf3660046139aa565b612597565b348015610ce057600080fd5b506104af610cef36600461398d565b6125be565b348015610d0057600080fd5b5061048d610d0f366004613843565b612658565b348015610d2057600080fd5b5060008051602061446e83398151915254600160a81b900460ff166104af565b348015610d4c57600080fd5b5061048d610d5b366004613e8a565b612672565b348015610d6c57600080fd5b5061048d610d7b366004613843565b6126e2565b348015610d8c57600080fd5b5061048d610d9b366004613ebe565b612709565b348015610dac57600080fd5b5061048d610dbb3660046139aa565b612764565b348015610dcc57600080fd5b5061048d610ddb3660046139f0565b61278b565b348015610dec57600080fd5b5061048d610dfb3660046139aa565b6127dc565b348015610e0c57600080fd5b5061048d610e1b366004613843565b6127f6565b348015610e2c57600080fd5b5061048d610e3b366004613afb565b612810565b348015610e4c57600080fd5b5061048d61287e565b348015610e6157600080fd5b5061048d610e703660046139f0565b612952565b610e7d6129a3565b15610ea057610e8a6129d9565b610e9c8263050f443960e01b83612a1d565b5050565b610e9c6000366000612a6c565b60006001600160e01b031982166301ffc9a760e01b1480610ede57506001600160e01b03198216635267a15d60e01b145b80610ef957506001600160e01b0319821663580605bb60e11b145b80610f1457506001600160e01b0319821663c2adada160e01b145b80610f2f57506001600160e01b0319821663568fe05360e01b145b80610f4a57506001600160e01b0319821663c4c3061b60e01b145b92915050565b610f58612b83565b610e9c8263d074339560e01b83612a1d565b610f72612b83565b610e9c8282604051602401610f879190613fdb565b60408051601f198184030181529190526020810180516001600160e01b031663eebbcd5560e01b179052612bdf565b610fbe612b83565b610e9c82636dc30beb60e11b83612a1d565b610fd8612b83565b610e9c826302c06abf60e41b83612a1d565b610ff2612b83565b60405160008051602061446e8339815191529060009061101590859085906140b6565b60405180910390209050816002016000828152602001908152602001600020546000036110895760405162461bcd60e51b815260206004820152601a60248201527f74696d656c6f636b3a20696e76616c69642073656c6563746f7200000000000060448201526064015b60405180910390fd5b6040518181527f69b058d6225c01c1f2a25801ca5b05705fa2e9118e93d518390ba804398c87b19060200160405180910390a16000908152600290910160205260408120555050565b6110da612b83565b610e9c600382612c92565b6110ed6129a3565b15610ea0576110fa6129d9565b610e9c826315ebe57360e31b83612a1d565b60008051602061446e833981519152611124336125be565b6111605760405162461bcd60e51b815260206004820152600d60248201526c37b7363c9032bc32b1baba37b960991b6044820152606401611080565b600083836040516111729291906140b6565b604080519182900390912060008181526002850160205291822054909250908190036111e05760405162461bcd60e51b815260206004820152601a60248201527f74696d656c6f636b3a20696e76616c69642073656c6563746f720000000000006044820152606401611080565b804210156112305760405162461bcd60e51b815260206004820152601960248201527f74696d656c6f636b3a206e6f7420616c6c6f77656420796574000000000000006044820152606401611080565b6000828152600284016020526040808220829055845460ff60b01b1916600160b01b17855551309061126590889088906140b6565b6000604051808303816000865af19150503d80600081146112a2576040519150601f19603f3d011682016040523d82523d6000602084013e6112a7565b606091505b5050845460ff60b01b191685556040518481529091507fec1225e5a8a8acb91e03ce648c683c74f5d152a775b9715980999441d714c44f9060200160405180910390a16112f381612ca7565b505050505050565b611303612b83565b610e9c82633db7d3b160e11b83612a1d565b600061131f61198e565b6001600160a01b0316336001600160a01b031614905080806113475750611347600333612cc4565b6113635760405162461bcd60e51b8152600401611080906140c6565b6040518115156024820152604481018390526113ad90849060640160408051601f198184030181529190526020810180516001600160e01b0316634d4071c160e01b179052612bdf565b505050565b6113ba612b83565b610e9c82632b4572c760e11b83612a1d565b6113d46129a3565b15610ea0576113e16129d9565b610e9c8263be06971960e01b83612ce6565b6113fb612b83565b610e9c826337592f4160e21b83612a1d565b611415612b83565b610e9c82639db27f5560e01b83612a1d565b61142f6129a3565b156116595761143c6129d9565b6001600160a01b03811660009081526001602052604081205490819003611461575050565b600061146e600183614126565b60025490915060009061148390600190614126565b90508082101561153d57600281815481106114a0576114a0614139565b600091825260209091200154600280546001600160a01b0390921691849081106114cc576114cc614139565b600091825260209091200180546001600160a01b0319166001600160a01b039290921691909117905561150082600161414f565b600160006002858154811061151757611517614139565b60009182526020808320909101546001600160a01b031683528201929092526040019020555b600280548061154e5761154e614162565b60008281526020808220830160001990810180546001600160a01b03191690559092019092556001600160a01b03861680835260018252604080842093909355825163f0c0b72560e01b815292513093919263f0c0b72592600480820193918290030181865afa1580156115c6573d6000803e3d6000fd5b505050506040513d601f19601f820116820180604052508101906115ea9190614178565b6001600160a01b0316036116535760405163b928b53360e01b8152600060048201526001600160a01b0385169063b928b53390602401600060405180830381600087803b15801561163a57600080fd5b505af115801561164e573d6000803e3d6000fd5b505050505b50505050565b6116666000366000612a6c565b50565b6116716129a3565b156116595761167e6129d9565b6001600160a01b037f00000000000000000000000000000000000000000000000000000000000000001630036116c65760405162461bcd60e51b815260040161108090614195565b7f00000000000000000000000000000000000000000000000000000000000000006001600160a01b03166116f8612d08565b6001600160a01b03161461171e5760405162461bcd60e51b8152600401611080906141e1565b6040805160008082526020820190925261166691839190612d1e565b611742612b83565b610e9c82632a92649160e01b83612a1d565b61175c612b83565b60405160248101839052604481018290526113ad90849060640160408051601f198184030181529190526020810180516001600160e01b0316631529264f60e01b179052612bdf565b6117ad612b83565b610e9c826323c0a60360e11b83612a1d565b6117c76129a3565b15610ea0576117d46129d9565b610e9c826309eb52f160e11b83612ce6565b6117ee6129a3565b15610ea0576117fb6129d9565b6001600160a01b037f00000000000000000000000000000000000000000000000000000000000000001630036118435760405162461bcd60e51b815260040161108090614195565b7f00000000000000000000000000000000000000000000000000000000000000006001600160a01b0316611875612d08565b6001600160a01b03161461189b5760405162461bcd60e51b8152600401611080906141e1565b610e9c82826001612d1e565b6118af612b83565b610e9c82632d62e08f60e11b83612a1d565b6000306001600160a01b037f000000000000000000000000000000000000000000000000000000000000000016146119615760405162461bcd60e51b815260206004820152603860248201527f555550535570677261646561626c653a206d757374206e6f742062652063616c60448201527f6c6564207468726f7567682064656c656761746563616c6c00000000000000006064820152608401611080565b5060008051602061442783398151915290565b61197c612b83565b610e9c826340973e9760e11b83612a1d565b60008051602061446e833981519152805460009190600160a81b900460ff166119c45760018101546001600160a01b0316611a31565b805460408051631cc9492560e21b815290516001600160a01b03909216916373252494916004808201926020929091908290030181865afa158015611a0d573d6000803e3d6000fd5b505050506040513d601f19601f82011682018060405250810190611a319190614178565b91505090565b611a3f612b83565b610e9c828280806020026020016040519081016040528093929190818152602001838360200280828437600092019190915250506040805160048152602481019091526020810180516001600160e01b031663018117f160e31b1790529150612bdf9050565b611aad612b83565b610e9c8263ad74c72d60e01b83612a1d565b611ac7612b83565b610e9c82636ad6fb4f60e01b83612a1d565b600060008051602061446e8339815191525b546001600160a01b0316919050565b611b02612b83565b610e9c828280806020026020016040519081016040528093929190818152602001838360200280828437600092019190915250506040805160048152602481019091526020810180516001600160e01b0316636d47df9560e11b1790529150612bdf9050565b611b706129a3565b15610ea057611b7d6129d9565b610e9c826336f9886b60e11b83612a1d565b611b97612b83565b610e9c8263b2e6a2b560e01b83612a1d565b611bb16129a3565b15611c0457611bbe6129d9565b6113ad838383604051602401611bd5929190614269565b60408051601f198184030181529190526020810180516001600160e01b0316633b145b4960e21b179052612bdf565b6113ad6000366000612a6c565b611c19612b83565b610e9c826351b5fbe760e11b83612a1d565b611c33612b83565b610e9c82637cdcda2360e11b83612a1d565b611c4d6129a3565b15611cab57611c5a6129d9565b611ca6868686868686604051602401611c7795949392919061428e565b60408051601f198184030181529190526020810180516001600160e01b031663249f1b5960e01b179052612bdf565b6112f3565b6112f36000366000612a6c565b611cc06129a3565b15610ea057611ccd6129d9565b610e9c8263e443147f60e01b83612ce6565b611ce76129a3565b1561165957611cf46129d9565b6001600160a01b03811660009081526001602052604081205490036116665760028054600180820183557f405787fa12a823e0f2b7631cc41b3ba8828b3321ca811111fa75cd3aa3bb5ace90910180546001600160a01b0319166001600160a01b03851690811790915591546000838152602092835260409081902091909155805163f0c0b72560e01b8152905130939263f0c0b72592600480820193918290030181865afa158015611dab573d6000803e3d6000fd5b505050506040513d601f19601f82011682018060405250810190611dcf9190614178565b6001600160a01b0316036116665760405163b928b53360e01b8152600160048201526001600160a01b0382169063b928b53390602401600060405180830381600087803b158015611e1f57600080fd5b505af1158015611e33573d6000803e3d6000fd5b5050505050565b611e426129a3565b15610ea057611e4f6129d9565b610e9c8263d57d25c560e01b83612a1d565b611e696129a3565b15611c0457611e766129d9565b60405160248101839052604481018290526113ad90849060640160408051601f198184030181529190526020810180516001600160e01b03166334dc4f3f60e11b179052612bdf565b611ec76129a3565b15610ea057611ed46129d9565b610e9c82636f83754b60e11b83612ce6565b611eee612b83565b610e9c8263dfc5941760e01b83612a1d565b611f08612b83565b610e9c826313bcd55560e11b83612a1d565b611f226129a3565b15610ea057611f2f6129d9565b610e9c82637f4fcaa960e01b83612ce6565b600080516020614407833981519152546001600160a01b0316336001600160a01b031614611fa85760405162461bcd60e51b815260206004820152601460248201527337b7363c9030b2323932b9b9903ab83230ba32b960611b6044820152606401611080565b611fee611fdc83836040518060400160405280600e81526020016d20b2323932b9b9aab83230ba32b960911b815250612e89565b60008051602061440783398151915255565b610e9c8282612f5a565b612000612b83565b61165384848484604051602401612019939291906142c8565b60408051601f198184030181529190526020810180516001600160e01b03166298ccf760e51b179052612bdf565b600254606090806001600160401b038111156120655761206561374d565b60405190808252806020026020018201604052801561208e578160200160208202803683370190505b50915060005b818110156120ff57600281815481106120af576120af614139565b9060005260206000200160009054906101000a90046001600160a01b03168382815181106120df576120df614139565b6001600160a01b0390921660209283029190910190910152600101612094565b505090565b61210c6129a3565b15610ea0576121196129d9565b610e9c82636dd3d58960e01b83612ce6565b612133612b83565b610e9c8263cfcb991d60e01b83612a1d565b61214d612b83565b610e9c82630de034c760e41b83612a1d565b612169838361305d565b6113ad8160008051602061440783398151915255565b612187612b83565b610e9c826254d6a960e51b83612a1d565b6121a0612b83565b610e9c826301b81e7f60e51b83612a1d565b6121ba612b83565b610e9c6003826131d1565b6121cd6129a3565b15610ea0576121da6129d9565b610e9c8263f35653f160e01b83612a1d565b60006121f661198e565b6001600160a01b0316336001600160a01b0316149050808061221e575061221e600333612cc4565b61223a5760405162461bcd60e51b8152600401611080906140c6565b6040518115156024820152604481018390526113ad90849060640160408051601f198184030181529190526020810180516001600160e01b03166304e48a6d60e51b179052612bdf565b61228c6129a3565b15610ea0576122996129d9565b610e9c82636b38c64360e01b83612a1d565b60006122c36000805160206144078339815191525490565b604051630110ceef60e21b815260206004820152600e60248201526d20b2323932b9b9aab83230ba32b960911b60448201529091506000906001600160a01b038316906304433bbc90606401602060405180830381865afa15801561232c573d6000803e3d6000fd5b505050506040513d601f19601f820116820180604052508101906123509190614178565b604051630110ceef60e21b815260206004820152601660248201527520b9b9b2ba26b0b730b3b2b921b7b73a3937b63632b960511b60448201529091506000906001600160a01b038416906304433bbc90606401602060405180830381865afa1580156123c1573d6000803e3d6000fd5b505050506040513d601f19601f820116820180604052508101906123e59190614178565b90506000836001600160a01b03166304433bbc6040518163ffffffff1660e01b815260040161242c9060208082526004908201526315d3985d60e21b604082015260600190565b602060405180830381865afa158015612449573d6000803e3d6000fd5b505050506040513d601f19601f8201168201806040525081019061246d9190614178565b90506001600160a01b0383161580159061248f57506001600160a01b03821615155b80156124a357506001600160a01b03811615155b6124de5760405162461bcd60e51b815260206004820152600c60248201526b61646472657373207a65726f60a01b6044820152606401611080565b6112f38686808060200260200160405190810160405280939291908181526020018383602002808284376000920191909152508792508691508590506131e6565b6125276129a3565b15610ea0576125346129d9565b610e9c826346ca288560e11b83612a1d565b61254e612b83565b60405160248101839052604481018290526113ad90849060640160408051601f198184030181529190526020810180516001600160e01b03166314127e3f60e11b179052612bdf565b61259f6129a3565b15610ea0576125ac6129d9565b610e9c8263cda4c54160e01b83612ce6565b60008051602061446e833981519152805460009190600160a01b900460ff16801561265157508054604051630debfda360e41b81526001600160a01b0385811660048301529091169063debfda3090602401602060405180830381865afa15801561262d573d6000803e3d6000fd5b505050506040513d601f19601f8201168201806040525081019061265191906142f0565b9392505050565b612660612b83565b610e9c8263e68f3fbf60e01b83612a1d565b61267a612b83565b6040805160048152602481019091526020810180516001600160e01b031663460831c360e01b1790526126ae908290612bdf565b6040805160048152602481019091526020810180516001600160e01b0316630249996560e61b179052611666908290612bdf565b6126ea6129a3565b15610ea0576126f76129d9565b610e9c82637800a11f60e01b83612a1d565b6127116129a3565b15611c045761271e6129d9565b6113ad83838360405160240161273592919061435d565b60408051601f198184030181529190526020810180516001600160e01b0316636a59860960e01b179052612bdf565b61276c6129a3565b15610ea0576127796129d9565b610e9c8263854cff2f60e01b83612ce6565b612793612b83565b60405160248101839052604481018290526113ad90849060640160408051601f198184030181529190526020810180516001600160e01b0316633479125d60e11b179052612bdf565b6127e4612b83565b610e9c8263f6a494af60e01b83612ce6565b6127fe612b83565b610e9c82632ae535ab60e01b83612a1d565b612818612b83565b610e9c828280806020026020016040519081016040528093929190818152602001838360200280828437600092019190915250506040805160048152602481019091526020810180516001600160e01b0316635710019160e11b1790529150612bdf9050565b612886612b83565b60008051602061446e8339815191528054600160a81b900460ff16156128ee5760405162461bcd60e51b815260206004820152601a60248201527f616c726561647920696e2070726f64756374696f6e206d6f64650000000000006044820152606401611080565b6001810180546001600160a01b03191690558054600160a81b60ff60a81b1982161782556040516001600160a01b0390911681527f83af113638b5422f9e977cebc0aaf0eaf2188eb9a8baae7f9d46c42b33a1560c9060200160405180910390a150565b61295a612b83565b60405160248101839052604481018290526113ad90849060640160408051601f198184030181529190526020810180516001600160e01b03166335b35f4b60e01b179052612bdf565b60008051602061446e833981519152805460009190600160b01b900460ff1680611a31575054600160a81b900460ff1615919050565b60008051602061446e8339815191528054600160b01b900460ff1615612a1557333014612a0857612a08614381565b805460ff60b01b19169055565b611666612b83565b6113ad838383604051602401612a3591815260200190565b60408051601f198184030181529190526020810180516001600160e01b03166001600160e01b031990931692909217909152612bdf565b60008051602061446e833981519152612a83612b83565b60008484604051612a959291906140b6565b604080519182900382208454636221a54b60e01b845291519093506000926001600160a01b0390921691636221a54b9160048083019260209291908290030181865afa158015612ae9573d6000803e3d6000fd5b505050506040513d601f19601f82011682018060405250810190612b0d9190614397565b905083811015612b1a5750825b6000612b26824261414f565b600084815260028601602052604090819020829055519091507f8c02104dfc280f713854f25297de671710c544c58de69dbde8fb66974ce1ab9e90612b729089908990879086906143b0565b60405180910390a150505050505050565b612b8b61198e565b6001600160a01b0316336001600160a01b031614612bdd5760405162461bcd60e51b815260206004820152600f60248201526e6f6e6c7920676f7665726e616e636560881b6044820152606401611080565b565b60005b82518110156113ad576000838281518110612bff57612bff614139565b6020026020010151905060016000826001600160a01b03166001600160a01b0316815260200190815260200160002054600003612c7e5760405162461bcd60e51b815260206004820152601960248201527f4173736574206d616e61676572206e6f74206d616e61676564000000000000006044820152606401611080565b612c8881846132a9565b5050600101612be2565b6000612651836001600160a01b0384166132ed565b3d604051818101604052816000823e8215612cc0578181f35b8181fd5b6001600160a01b03811660009081526001830160205260408120541515612651565b6040516001600160a01b03821660248201526113ad9084908490604401612a35565b6000600080516020614427833981519152611aeb565b7f4910fdfa16fed3260ed0e7147f7cc6da11a60208b5b9406d12a635614ffd91435460ff1615612d51576113ad836133e0565b826001600160a01b03166352d1902d6040518163ffffffff1660e01b8152600401602060405180830381865afa925050508015612dab575060408051601f3d908101601f19168201909252612da891810190614397565b60015b612e0e5760405162461bcd60e51b815260206004820152602e60248201527f45524331393637557067726164653a206e657720696d706c656d656e7461746960448201526d6f6e206973206e6f74205555505360901b6064820152608401611080565b6000805160206144278339815191528114612e7d5760405162461bcd60e51b815260206004820152602960248201527f45524331393637557067726164653a20756e737570706f727465642070726f786044820152681a58589b195555525160ba1b6064820152608401611080565b506113ad83838361347c565b60008082604051602001612e9d91906143d7565b6040516020818303038152906040528051906020012090506000805b8651811015612f0b57868181518110612ed457612ed4614139565b60200260200101518303612f0357858181518110612ef457612ef4614139565b60200260200101519150612f0b565b600101612eb9565b506001600160a01b038116612f515760405162461bcd60e51b815260206004820152600c60248201526b61646472657373207a65726f60a01b6044820152606401611080565b95945050505050565b6000612f8d83836040518060400160405280600e81526020016d20b2323932b9b9aab83230ba32b960911b815250612e89565b90506000612fca84846040518060400160405280601681526020017520b9b9b2ba26b0b730b3b2b921b7b73a3937b63632b960511b815250612e89565b90506000612ff585856040518060400160405280600481526020016315d3985d60e21b815250612e89565b9050611e33600280548060200260200160405190810160405280929190818152602001828054801561305057602002820191906000526020600020905b81546001600160a01b03168152600190910190602001808311613032575b50505050508484846131e6565b60008051602061446e8339815191528054600160a01b900460ff16156130bc5760405162461bcd60e51b8152602060048201526014602482015273696e697469616c6973656420213d2066616c736560601b6044820152606401611080565b6001600160a01b0383166131125760405162461bcd60e51b815260206004820152601860248201527f676f7665726e616e63652073657474696e6773207a65726f00000000000000006044820152606401611080565b6001600160a01b03821661315b5760405162461bcd60e51b815260206004820152601060248201526f5f676f7665726e616e6365207a65726f60801b6044820152606401611080565b80546001600160a01b038481166001600160a81b031990921691909117600160a01b1782556001820180549184166001600160a01b0319909216821790556040519081527f9789733827840833afc031fb2ef9ab6894271f77bad2085687cf4ae5c7bee4db9060200160405180910390a1505050565b6000612651836001600160a01b0384166134a1565b600080516020614407833981519152546001600160a01b0316836001600160a01b031614613224576132248360008051602061440783398151915255565b6040516001600160a01b0380841660248301528216604482015261327690859060640160408051601f198184030181529190526020810180516001600160e01b0316636075765d60e01b179052612bdf565b6001600160a01b038216301461165357600080546001600160a01b0384166001600160a01b031990911617905550505050565b6060612651838360006040518060400160405280601e81526020017f416464726573733a206c6f772d6c6576656c2063616c6c206661696c656400008152506134f0565b600081815260018301602052604081205480156133d6576000613311600183614126565b855490915060009061332590600190614126565b905081811461338a57600086600001828154811061334557613345614139565b906000526020600020015490508087600001848154811061336857613368614139565b6000918252602080832090910192909255918252600188019052604090208390555b855486908061339b5761339b614162565b600190038181906000526020600020016000905590558560010160008681526020019081526020016000206000905560019350505050610f4a565b6000915050610f4a565b6001600160a01b0381163b61344d5760405162461bcd60e51b815260206004820152602d60248201527f455243313936373a206e657720696d706c656d656e746174696f6e206973206e60448201526c1bdd08184818dbdb9d1c9858dd609a1b6064820152608401611080565b60008051602061442783398151915280546001600160a01b0319166001600160a01b0392909216919091179055565b613485836135cd565b6000825111806134925750805b156113ad57611653838361360d565b60008181526001830160205260408120546134e857508154600181810184556000848152602080822090930184905584548482528286019093526040902091909155610f4a565b506000610f4a565b6060824710156135515760405162461bcd60e51b815260206004820152602660248201527f416464726573733a20696e73756666696369656e742062616c616e636520666f6044820152651c8818d85b1b60d21b6064820152608401611080565b600080866001600160a01b0316858760405161356d91906143ea565b60006040518083038185875af1925050503d80600081146135aa576040519150601f19603f3d011682016040523d82523d6000602084013e6135af565b606091505b50915091506135c087838387613632565b925050505b949350505050565b6135d6816133e0565b6040516001600160a01b038216907fbc7cd75a20ee27fd9adebab32041f755214dbc6bffa90cc0225b39da2e5c2d3b90600090a250565b60606126518383604051806060016040528060278152602001614447602791396136ab565b606083156136a157825160000361369a576001600160a01b0385163b61369a5760405162461bcd60e51b815260206004820152601d60248201527f416464726573733a2063616c6c20746f206e6f6e2d636f6e74726163740000006044820152606401611080565b50816135c5565b6135c58383613723565b6060600080856001600160a01b0316856040516136c891906143ea565b600060405180830381855af49150503d8060008114613703576040519150601f19603f3d011682016040523d82523d6000602084013e613708565b606091505b509150915061371986838387613632565b9695505050505050565b8151156137335781518083602001fd5b8060405162461bcd60e51b815260040161108091906143d7565b634e487b7160e01b600052604160045260246000fd5b604051601f8201601f191681016001600160401b038111828210171561378b5761378b61374d565b604052919050565b60006001600160401b038211156137ac576137ac61374d565b5060051b60200190565b6001600160a01b038116811461166657600080fd5b600082601f8301126137dc57600080fd5b813560206137f16137ec83613793565b613763565b8083825260208201915060208460051b87010193508684111561381357600080fd5b602086015b8481101561383857803561382b816137b6565b8352918301918301613818565b509695505050505050565b6000806040838503121561385657600080fd5b82356001600160401b0381111561386c57600080fd5b613878858286016137cb565b95602094909401359450505050565b60006020828403121561389957600080fd5b81356001600160e01b03198116811461265157600080fd5b600080604083850312156138c457600080fd5b82356001600160401b03808211156138db57600080fd5b6138e7868387016137cb565b935060208501359150808211156138fd57600080fd5b508301610140818603121561391157600080fd5b809150509250929050565b6000806020838503121561392f57600080fd5b82356001600160401b038082111561394657600080fd5b818501915085601f83011261395a57600080fd5b81358181111561396957600080fd5b86602082850101111561397b57600080fd5b60209290920196919550909350505050565b60006020828403121561399f57600080fd5b8135612651816137b6565b600080604083850312156139bd57600080fd5b82356001600160401b038111156139d357600080fd5b6139df858286016137cb565b9250506020830135613911816137b6565b600080600060608486031215613a0557600080fd5b83356001600160401b03811115613a1b57600080fd5b613a27868287016137cb565b9660208601359650604090950135949350505050565b600082601f830112613a4e57600080fd5b81356001600160401b03811115613a6757613a6761374d565b613a7a601f8201601f1916602001613763565b818152846020838601011115613a8f57600080fd5b816020850160208301376000918101602001919091529392505050565b60008060408385031215613abf57600080fd5b8235613aca816137b6565b915060208301356001600160401b03811115613ae557600080fd5b613af185828601613a3d565b9150509250929050565b60008060208385031215613b0e57600080fd5b82356001600160401b0380821115613b2557600080fd5b818501915085601f830112613b3957600080fd5b813581811115613b4857600080fd5b8660208260051b850101111561397b57600080fd5b600082601f830112613b6e57600080fd5b81356020613b7e6137ec83613793565b8083825260208201915060208460051b870101935086841115613ba057600080fd5b602086015b848110156138385780358352918301918301613ba5565b600080600060608486031215613bd157600080fd5b83356001600160401b0380821115613be857600080fd5b613bf4878388016137cb565b94506020860135915080821115613c0a57600080fd5b613c1687838801613b5d565b93506040860135915080821115613c2c57600080fd5b50613c3986828701613b5d565b9150509250925092565b803560038110613c5257600080fd5b919050565b8035613c52816137b6565b60008060008060008060c08789031215613c7b57600080fd5b86356001600160401b03811115613c9157600080fd5b613c9d89828a016137cb565b965050613cac60208801613c43565b94506040870135613cbc816137b6565b959894975094956060810135955060808101359460a0909101359350915050565b60008060408385031215613cf057600080fd5b82356001600160401b0380821115613d0757600080fd5b818501915085601f830112613d1b57600080fd5b81356020613d2b6137ec83613793565b82815260059290921b84018101918181019089841115613d4a57600080fd5b948201945b83861015613d6857853582529482019490820190613d4f565b96505086013592505080821115613d7e57600080fd5b50613af1858286016137cb565b60008060008060808587031215613da157600080fd5b84356001600160401b03811115613db757600080fd5b613dc3878288016137cb565b945050613dd260208601613c43565b92506040850135613de2816137b6565b9396929550929360600135925050565b6020808252825182820181905260009190848201906040850190845b81811015613e335783516001600160a01b031683529284019291840191600101613e0e565b50909695505050505050565b600080600060608486031215613e5457600080fd5b8335613e5f816137b6565b92506020840135613e6f816137b6565b91506040840135613e7f816137b6565b809150509250925092565b600060208284031215613e9c57600080fd5b81356001600160401b03811115613eb257600080fd5b6135c5848285016137cb565b600080600060608486031215613ed357600080fd5b83356001600160401b0380821115613eea57600080fd5b613ef6878388016137cb565b945060208601359150613f08826137b6565b90925060408501359080821115613f1e57600080fd5b50613c3986828701613a3d565b60038110613f4957634e487b7160e01b600052602160045260246000fd5b9052565b801515811461166657600080fd5b8035613c5281613f4d565b6000808335601e19843603018112613f7d57600080fd5b83016020810192503590506001600160401b03811115613f9c57600080fd5b803603821315613fab57600080fd5b9250929050565b81835281816020850137506000828201602090810191909152601f909101601f19169091010190565b60208152613ff460208201613fef84613c43565b613f2b565b600061400260208401613c57565b6001600160a01b038116604084015250604083013560608301526060830135608083015261403260808401613f5b565b80151560a08401525061404860a0840184613f66565b6101408060c086015261406061016086018385613fb2565b925061406f60c0870187613f66565b868503601f190160e08801529250614088848483613fb2565b60e0880135610100888101919091528801356101208089019190915290970135919095015250929392505050565b8183823760009101908152919050565b6020808252602a908201527f6f6e6c7920676f7665726e616e6365206f7220656d657267656e63792070617560408201526973652073656e6465727360b01b606082015260800190565b634e487b7160e01b600052601160045260246000fd5b81810381811115610f4a57610f4a614110565b634e487b7160e01b600052603260045260246000fd5b80820180821115610f4a57610f4a614110565b634e487b7160e01b600052603160045260246000fd5b60006020828403121561418a57600080fd5b8151612651816137b6565b6020808252602c908201527f46756e6374696f6e206d7573742062652063616c6c6564207468726f7567682060408201526b19195b1959d85d1958d85b1b60a21b606082015260800190565b6020808252602c908201527f46756e6374696f6e206d7573742062652063616c6c6564207468726f7567682060408201526b6163746976652070726f787960a01b606082015260800190565b60008151808452602080850194506020840160005b8381101561425e57815187529582019590820190600101614242565b509495945050505050565b60408152600061427c604083018561422d565b8281036020840152612f51818561422d565b60a0810161429c8288613f2b565b6001600160a01b0395909516602082015260408101939093526060830191909152608090910152919050565b606081016142d68286613f2b565b6001600160a01b0393909316602082015260400152919050565b60006020828403121561430257600080fd5b815161265181613f4d565b60005b83811015614328578181015183820152602001614310565b50506000910152565b6000815180845261434981602086016020860161430d565b601f01601f19169290920160200192915050565b6001600160a01b03831681526040602082018190526000906135c590830184614331565b634e487b7160e01b600052600160045260246000fd5b6000602082840312156143a957600080fd5b5051919050565b6060815260006143c4606083018688613fb2565b6020830194909452506040015292915050565b6020815260006126516020830184614331565b600082516143fc81846020870161430d565b919091019291505056fe714f205b2abd25bef1d06a1af944e38c113fe6160375c4e1d6d5cf28848e7719360894a13ba1a3210667c828492db98dca3e2076cc3735a920a3ca505d382bbc416464726573733a206c6f772d6c6576656c2064656c65676174652063616c6c206661696c65642aa47ee5db910f3b2a06970c443249cc77dbd9f96100cfebc1775ab7fb1d1824a2646970667358221220901b5303aa59fc50f8b3ebe1f58917e3b36864d08d97202a5b798fea98a5a95d64736f6c63430008170033",
  "linkReferences": {},
  "deployedLinkReferences": {}
}