{
  "_format": "hh-sol-artifact-1",
  "contractName": "AssetManagerDiamondCutFacet",
  "sourceName": "contracts/assetManager/facets/AssetManagerDiamondCutFacet.sol",
  "abi": [
    {
      "inputs": [
        {
          "internalType": "bytes4",
          "name": "_selector",
          "type": "bytes4"
        }
      ],
      "name": "CannotAddFunctionToDiamondThatAlreadyExists",
      "type": "error"
    },
    {
      "inputs": [
        {
          "internalType": "bytes4[]",
          "name": "_selectors",
          "type": "bytes4[]"
        }
      ],
      "name": "CannotAddSelectorsToZeroAddress",
      "type": "error"
    },
    {
      "inputs": [
        {
          "internalType": "bytes4",
          "name": "_selector",
          "type": "bytes4"
        }
      ],
      "name": "CannotRemoveFunctionThatDoesNotExist",
      "type": "error"
    },
    {
      "inputs": [
        {
          "internalType": "bytes4",
          "name": "_selector",
          "type": "bytes4"
        }
      ],
      "name": "CannotRemoveImmutableFunction",
      "type": "error"
    },
    {
      "inputs": [
        {
          "internalType": "bytes4",
          "name": "_selector",
          "type": "bytes4"
        }
      ],
      "name": "CannotReplaceFunctionThatDoesNotExists",
      "type": "error"
    },
    {
      "inputs": [
        {
          "internalType": "bytes4",
          "name": "_selector",
          "type": "bytes4"
        }
      ],
      "name": "CannotReplaceFunctionWithTheSameFunctionFromTheSameFacet",
      "type": "error"
    },
    {
      "inputs": [
        {
          "internalType": "bytes4[]",
          "name": "_selectors",
          "type": "bytes4[]"
        }
      ],
      "name": "CannotReplaceFunctionsFromFacetWithZeroAddress",
      "type": "error"
    },
    {
      "inputs": [
        {
          "internalType": "bytes4",
          "name": "_selector",
          "type": "bytes4"
        }
      ],
      "name": "CannotReplaceImmutableFunction",
      "type": "error"
    },
    {
      "inputs": [
        {
          "internalType": "uint8",
          "name": "_action",
          "type": "uint8"
        }
      ],
      "name": "IncorrectFacetCutAction",
      "type": "error"
    },
    {
      "inputs": [
        {
          "internalType": "address",
          "name": "_initializationContractAddress",
          "type": "address"
        },
        {
          "internalType": "bytes",
          "name": "_calldata",
          "type": "bytes"
        }
      ],
      "name": "InitializationFunctionReverted",
      "type": "error"
    },
    {
      "inputs": [
        {
          "internalType": "address",
          "name": "_contractAddress",
          "type": "address"
        },
        {
          "internalType": "string",
          "name": "_message",
          "type": "string"
        }
      ],
      "name": "NoBytecodeAtAddress",
      "type": "error"
    },
    {
      "inputs": [
        {
          "internalType": "address",
          "name": "_facetAddress",
          "type": "address"
        }
      ],
      "name": "NoSelectorsProvidedForFacetForCut",
      "type": "error"
    },
    {
      "inputs": [
        {
          "internalType": "address",
          "name": "_facetAddress",
          "type": "address"
        }
      ],
      "name": "RemoveFacetAddressMustBeZeroAddress",
      "type": "error"
    },
    {
      "anonymous": false,
      "inputs": [
        {
          "components": [
            {
              "internalType": "address",
              "name": "facetAddress",
              "type": "address"
            },
            {
              "internalType": "enum IDiamond.FacetCutAction",
              "name": "action",
              "type": "uint8"
            },
            {
              "internalType": "bytes4[]",
              "name": "functionSelectors",
              "type": "bytes4[]"
            }
          ],
          "indexed": false,
          "internalType": "struct IDiamond.FacetCut[]",
          "name": "_diamondCut",
          "type": "tuple[]"
        },
        {
          "indexed": false,
          "internalType": "address",
          "name": "_init",
          "type": "address"
        },
        {
          "indexed": false,
          "internalType": "bytes",
          "name": "_calldata",
          "type": "bytes"
        }
      ],
      "name": "DiamondCut",
      "type": "event"
    },
    {
      "anonymous": false,
      "inputs": [
        {
          "indexed": false,
          "internalType": "bytes",
          "name": "encodedCall",
          "type": "bytes"
        },
        {
          "indexed": false,
          "internalType": "bytes32",
          "name": "encodedCallHash",
          "type": "bytes32"
        },
        {
          "indexed": false,
          "internalType": "uint256",
          "name": "allowedAfterTimestamp",
          "type": "uint256"
        }
      ],
      "name": "GovernanceCallTimelocked",
      "type": "event"
    },
    {
      "anonymous": false,
      "inputs": [
        {
          "indexed": false,
          "internalType": "address",
          "name": "initialGovernance",
          "type": "address"
        }
      ],
      "name": "GovernanceInitialised",
      "type": "event"
    },
    {
      "anonymous": false,
      "inputs": [
        {
          "indexed": false,
          "internalType": "address",
          "name": "governanceSettings",
          "type": "address"
        }
      ],
      "name": "GovernedProductionModeEntered",
      "type": "event"
    },
    {
      "anonymous": false,
      "inputs": [
        {
          "indexed": false,
          "internalType": "bytes32",
          "name": "encodedCallHash",
          "type": "bytes32"
        }
      ],
      "name": "TimelockedGovernanceCallCanceled",
      "type": "event"
    },
    {
      "anonymous": false,
      "inputs": [
        {
          "indexed": false,
          "internalType": "bytes32",
          "name": "encodedCallHash",
          "type": "bytes32"
        }
      ],
      "name": "TimelockedGovernanceCallExecuted",
      "type": "event"
    },
    {
      "inputs": [
        {
          "internalType": "bytes",
          "name": "_encodedCall",
          "type": "bytes"
        }
      ],
      "name": "cancelGovernanceCall",
      "outputs": [],
      "stateMutability": "nonpayable",
      "type": "function"
    },
    {
      "inputs": [
        {
          "components": [
            {
              "internalType": "address",
              "name": "facetAddress",
              "type": "address"
            },
            {
              "internalType": "enum IDiamond.FacetCutAction",
              "name": "action",
              "type": "uint8"
            },
            {
              "internalType": "bytes4[]",
              "name": "functionSelectors",
              "type": "bytes4[]"
            }
          ],
          "internalType": "struct IDiamond.FacetCut[]",
          "name": "_diamondCut",
          "type": "tuple[]"
        },
        {
          "internalType": "address",
          "name": "_init",
          "type": "address"
        },
        {
          "internalType": "bytes",
          "name": "_calldata",
          "type": "bytes"
        }
      ],
      "name": "diamondCut",
      "outputs": [],
      "stateMutability": "nonpayable",
      "type": "function"
    },
    {
      "inputs": [
        {
          "internalType": "bytes",
          "name": "_encodedCall",
          "type": "bytes"
        }
      ],
      "name": "executeGovernanceCall",
      "outputs": [],
      "stateMutability": "nonpayable",
      "type": "function"
    },
    {
      "inputs": [],
      "name": "governance",
      "outputs": [
        {
          "internalType": "address",
          "name": "",
          "type": "address"
        }
      ],
      "stateMutability": "view",
      "type": "function"
    },
    {
      "inputs": [],
      "name": "governanceSettings",
      "outputs": [
        {
          "internalType": "contract IGovernanceSettings",
          "name": "",
          "type": "address"
        }
      ],
      "stateMutability": "view",
      "type": "function"
    },
    {
      "inputs": [
        {
          "internalType": "address",
          "name": "_address",
          "type": "address"
        }
      ],
      "name": "isExecutor",
      "outputs": [
        {
          "internalType": "bool",
          "name": "",
          "type": "bool"
        }
      ],
      "stateMutability": "view",
      "type": "function"
    },
    {
      "inputs": [],
      "name": "productionMode",
      "outputs": [
        {
          "internalType": "bool",
          "name": "",
          "type": "bool"
        }
      ],
      "stateMutability": "view",
      "type": "function"
    },
    {
      "inputs": [],
      "name": "switchToProductionMode",
      "outputs": [],
      "stateMutability": "nonpayable",
      "type": "function"
    }
  ],
  "bytecode": "0x608060405234801561001057600080fd5b5061001d61111180610022565b6101b6565b7f2aa47ee5db910f3b2a06970c443249cc77dbd9f96100cfebc1775ab7fb1d18248054600160a01b900460ff16156100a15760405162461bcd60e51b815260206004820152601460248201527f696e697469616c6973656420213d2066616c736500000000000000000000000060448201526064015b60405180910390fd5b6001600160a01b0383166100f75760405162461bcd60e51b815260206004820152601860248201527f676f7665726e616e63652073657474696e6773207a65726f00000000000000006044820152606401610098565b6001600160a01b0382166101405760405162461bcd60e51b815260206004820152601060248201526f5f676f7665726e616e6365207a65726f60801b6044820152606401610098565b80546001600160a01b038481166001600160a81b031990921691909117600160a01b1782556001820180549184166001600160a01b0319909216821790556040519081527f9789733827840833afc031fb2ef9ab6894271f77bad2085687cf4ae5c7bee4db9060200160405180910390a1505050565b6118d980620001c66000396000f3fe608060405234801561001057600080fd5b50600436106100885760003560e01c806362354e031161005b57806362354e03146100ed578063debfda301461010b578063e17f212e1461012e578063f5a983831461014d57600080fd5b806316fc2f6d1461008d5780631f931c1c146100a257806320c5f99d146100b55780635aa6e675146100c8575b600080fd5b6100a061009b36600461119a565b610155565b005b6100a06100b0366004611201565b61023d565b6100a06100c336600461119a565b6102e1565b6100d06104c8565b6040516001600160a01b0390911681526020015b60405180910390f35b600080516020611884833981519152546001600160a01b03166100d0565b61011e6101193660046112b3565b610571565b60405190151581526020016100e4565b60008051602061188483398151915254600160a81b900460ff1661011e565b6100a061060b565b61015d6106df565b6040516000805160206118848339815191529060009061018090859085906112d0565b60405180910390209050816002016000828152602001908152602001600020546000036101f45760405162461bcd60e51b815260206004820152601a60248201527f74696d656c6f636b3a20696e76616c69642073656c6563746f7200000000000060448201526064015b60405180910390fd5b6040518181527f69b058d6225c01c1f2a25801ca5b05705fa2e9118e93d518390ba804398c87b19060200160405180910390a16000908152600290910160205260408120555050565b7f4f24f5c433db0962dac0d2c8b84197a6e6c7cc4e5d9ebe1916a1b6193da2f3515467ffffffffffffffff1661027161073b565b156102cd5761027e610771565b6102c861028b8688611374565b8585858080601f0160208091040260200160405190810160405280939291908181526020018383808284376000920191909152506107b892505050565b6102d9565b6102d96000368361095d565b505050505050565b6000805160206118848339815191526102f933610571565b6103355760405162461bcd60e51b815260206004820152600d60248201526c37b7363c9032bc32b1baba37b960991b60448201526064016101eb565b600083836040516103479291906112d0565b604080519182900390912060008181526002850160205291822054909250908190036103b55760405162461bcd60e51b815260206004820152601a60248201527f74696d656c6f636b3a20696e76616c69642073656c6563746f7200000000000060448201526064016101eb565b804210156104055760405162461bcd60e51b815260206004820152601960248201527f74696d656c6f636b3a206e6f7420616c6c6f776564207965740000000000000060448201526064016101eb565b6000828152600284016020526040808220829055845460ff60b01b1916600160b01b17855551309061043a90889088906112d0565b6000604051808303816000865af19150503d8060008114610477576040519150601f19603f3d011682016040523d82523d6000602084013e61047c565b606091505b5050845460ff60b01b191685556040518481529091507fec1225e5a8a8acb91e03ce648c683c74f5d152a775b9715980999441d714c44f9060200160405180910390a16102d981610a74565b600080516020611884833981519152805460009190600160a81b900460ff166104fe5760018101546001600160a01b031661056b565b805460408051631cc9492560e21b815290516001600160a01b03909216916373252494916004808201926020929091908290030181865afa158015610547573d6000803e3d6000fd5b505050506040513d601f19601f8201168201806040525081019061056b91906114ba565b91505090565b600080516020611884833981519152805460009190600160a01b900460ff16801561060457508054604051630debfda360e41b81526001600160a01b0385811660048301529091169063debfda3090602401602060405180830381865afa1580156105e0573d6000803e3d6000fd5b505050506040513d601f19601f8201168201806040525081019061060491906114d7565b9392505050565b6106136106df565b6000805160206118848339815191528054600160a81b900460ff161561067b5760405162461bcd60e51b815260206004820152601a60248201527f616c726561647920696e2070726f64756374696f6e206d6f646500000000000060448201526064016101eb565b6001810180546001600160a01b03191690558054600160a81b60ff60a81b1982161782556040516001600160a01b0390911681527f83af113638b5422f9e977cebc0aaf0eaf2188eb9a8baae7f9d46c42b33a1560c9060200160405180910390a150565b6106e76104c8565b6001600160a01b0316336001600160a01b0316146107395760405162461bcd60e51b815260206004820152600f60248201526e6f6e6c7920676f7665726e616e636560881b60448201526064016101eb565b565b600080516020611884833981519152805460009190600160b01b900460ff168061056b575054600160a81b900460ff1615919050565b6000805160206118848339815191528054600160b01b900460ff16156107ad573330146107a0576107a06114f9565b805460ff60b01b19169055565b6107b56106df565b50565b60005b83518110156109125760008482815181106107d8576107d861150f565b602002602001015160400151905060008583815181106107fa576107fa61150f565b602002602001015160000151905081516000036108355760405163e767f91f60e01b81526001600160a01b03821660048201526024016101eb565b60008684815181106108495761084961150f565b60200260200101516020015190506000600281111561086a5761086a611525565b81600281111561087c5761087c611525565b036108905761088b8284610a91565b610907565b60018160028111156108a4576108a4611525565b036108b35761088b8284610c57565b60028160028111156108c7576108c7611525565b036108d65761088b8284610dd4565b8060028111156108e8576108e8611525565b604051633ff4d20f60e11b815260ff90911660048201526024016101eb565b5050506001016107bb565b507f8faa70878671ccd212d20771b795c50af8fd3ff6cf27f4bde57e5d4de0aeb6738383836040516109469392919061158b565b60405180910390a16109588282611063565b505050565b6000805160206118848339815191526109746106df565b600084846040516109869291906112d0565b604080519182900382208454636221a54b60e01b845291519093506000926001600160a01b0390921691636221a54b9160048083019260209291908290030181865afa1580156109da573d6000803e3d6000fd5b505050506040513d601f19601f820116820180604052508101906109fe919061168e565b905083811015610a0b5750825b6000610a1782426116bd565b600084815260028601602052604090819020829055519091507f8c02104dfc280f713854f25297de671710c544c58de69dbde8fb66974ce1ab9e90610a639089908990879086906116d6565b60405180910390a150505050505050565b3d604051818101604052816000823e8215610a8d578181f35b8181fd5b6001600160a01b038216610aba57806040516302b8da0760e21b81526004016101eb9190611716565b7fc8fcad8db84d3cc18b4c41d551ea0ee66dd599cde068d998e57d5e09332c131d54604080516060810190915260248082527fc8fcad8db84d3cc18b4c41d551ea0ee66dd599cde068d998e57d5e09332c131c9291610b23918691906118106020830139611129565b60005b8351811015610c50576000848281518110610b4357610b4361150f565b6020908102919091018101516001600160e01b031981166000908152918690526040909120549091506001600160a01b03168015610b96578160405163ebbf5d0760e01b81526004016101eb9190611764565b6040805180820182526001600160a01b03808a16825261ffff80881660208085019182526001600160e01b0319881660009081528b8252958620945185549251909316600160a01b026001600160b01b0319909216929093169190911717909155600180880180549182018155835291206008820401805460e085901c60046007909416939093026101000a92830263ffffffff909302191691909117905583610c3f81611779565b94505060019092019150610b269050565b5050505050565b7fc8fcad8db84d3cc18b4c41d551ea0ee66dd599cde068d998e57d5e09332c131c6001600160a01b038316610ca1578160405163cd98a96f60e01b81526004016101eb9190611716565b610cc38360405180606001604052806028815260200161185c60289139611129565b60005b8251811015610dce576000838281518110610ce357610ce361150f565b6020908102919091018101516001600160e01b031981166000908152918590526040909120549091506001600160a01b0316308103610d375781604051632901806d60e11b81526004016101eb9190611764565b856001600160a01b0316816001600160a01b031603610d6b5781604051631ac6ce8d60e11b81526004016101eb9190611764565b6001600160a01b038116610d945781604051637479f93960e01b81526004016101eb9190611764565b506001600160e01b031916600090815260208390526040902080546001600160a01b0319166001600160a01b038616179055600101610cc6565b50505050565b7fc8fcad8db84d3cc18b4c41d551ea0ee66dd599cde068d998e57d5e09332c131d547fc8fcad8db84d3cc18b4c41d551ea0ee66dd599cde068d998e57d5e09332c131c906001600160a01b03841615610e4b5760405163d091bc8160e01b81526001600160a01b03851660048201526024016101eb565b60005b8351811015610c50576000848281518110610e6b57610e6b61150f565b6020908102919091018101516001600160e01b0319811660009081528683526040908190208151808301909252546001600160a01b038116808352600160a01b90910461ffff169382019390935290925090610edc5781604051637a08a22d60e01b81526004016101eb9190611764565b8051306001600160a01b0390911603610f0a5781604051630df5fd6160e31b81526004016101eb9190611764565b83610f148161179a565b94505083816020015161ffff1614610ff2576000856001018581548110610f3d57610f3d61150f565b90600052602060002090600891828204019190066004029054906101000a900460e01b90508086600101836020015161ffff1681548110610f8057610f8061150f565b600091825260208083206008830401805463ffffffff60079094166004026101000a938402191660e09590951c92909202939093179055838201516001600160e01b03199390931681529087905260409020805461ffff60a01b1916600160a01b61ffff909316929092029190911790555b84600101805480611005576110056117b1565b60008281526020808220600860001990940193840401805463ffffffff600460078716026101000a0219169055919092556001600160e01b0319909316815291859052506040902080546001600160b01b0319169055600101610e4e565b6001600160a01b038216611075575050565b6110978260405180606001604052806028815260200161183460289139611129565b600080836001600160a01b0316836040516110b291906117c7565b600060405180830381855af49150503d80600081146110ed576040519150601f19603f3d011682016040523d82523d6000602084013e6110f2565b606091505b509150915081610dce5780511561110c5780518082602001fd5b838360405163192105d760e01b81526004016101eb9291906117e3565b813b600081900361095857828260405163919834b960e01b81526004016101eb9291906117e3565b60008083601f84011261116357600080fd5b50813567ffffffffffffffff81111561117b57600080fd5b60208301915083602082850101111561119357600080fd5b9250929050565b600080602083850312156111ad57600080fd5b823567ffffffffffffffff8111156111c457600080fd5b6111d085828601611151565b90969095509350505050565b6001600160a01b03811681146107b557600080fd5b80356111fc816111dc565b919050565b60008060008060006060868803121561121957600080fd5b853567ffffffffffffffff8082111561123157600080fd5b818801915088601f83011261124557600080fd5b81358181111561125457600080fd5b8960208260051b850101111561126957600080fd5b6020830197508096505061127f602089016111f1565b9450604088013591508082111561129557600080fd5b506112a288828901611151565b969995985093965092949392505050565b6000602082840312156112c557600080fd5b8135610604816111dc565b8183823760009101908152919050565b634e487b7160e01b600052604160045260246000fd5b6040516060810167ffffffffffffffff81118282101715611319576113196112e0565b60405290565b604051601f8201601f1916810167ffffffffffffffff81118282101715611348576113486112e0565b604052919050565b600067ffffffffffffffff82111561136a5761136a6112e0565b5060051b60200190565b600061138761138284611350565b61131f565b83815260208082019190600586811b8601368111156113a557600080fd5b865b818110156114ad57803567ffffffffffffffff808211156113c85760008081fd5b818a019150606082360312156113de5760008081fd5b6113e66112f6565b82356113f1816111dc565b815282870135600381106114055760008081fd5b818801526040838101358381111561141d5760008081fd5b939093019236601f85011261143457600092508283fd5b8335925061144461138284611350565b83815292871b840188019288810190368511156114615760008081fd5b948901945b848610156114965785356001600160e01b0319811681146114875760008081fd5b82529489019490890190611466565b9183019190915250885250509483019483016113a7565b5092979650505050505050565b6000602082840312156114cc57600080fd5b8151610604816111dc565b6000602082840312156114e957600080fd5b8151801515811461060457600080fd5b634e487b7160e01b600052600160045260246000fd5b634e487b7160e01b600052603260045260246000fd5b634e487b7160e01b600052602160045260246000fd5b60005b8381101561155657818101518382015260200161153e565b50506000910152565b6000815180845261157781602086016020860161153b565b601f01601f19169290920160200192915050565b60006060808301606084528087518083526080925060808601915060808160051b8701016020808b0160005b8481101561165e57898403607f19018652815180516001600160a01b031685528381015189860190600381106115fd57634e487b7160e01b600052602160045260246000fd5b868601526040918201519186018a905281519081905290840190600090898701905b808310156116495783516001600160e01b031916825292860192600192909201919086019061161f565b509785019795505050908201906001016115b7565b50506001600160a01b038a16908801528681036040880152611680818961155f565b9a9950505050505050505050565b6000602082840312156116a057600080fd5b5051919050565b634e487b7160e01b600052601160045260246000fd5b808201808211156116d0576116d06116a7565b92915050565b606081528360608201528385608083013760006080858301015260006080601f19601f870116830101905083602083015282604083015295945050505050565b6020808252825182820181905260009190848201906040850190845b818110156117585783516001600160e01b03191683529284019291840191600101611732565b50909695505050505050565b6001600160e01b031991909116815260200190565b600061ffff808316818103611790576117906116a7565b6001019392505050565b6000816117a9576117a96116a7565b506000190190565b634e487b7160e01b600052603160045260246000fd5b600082516117d981846020870161153b565b9190910192915050565b6001600160a01b03831681526040602082018190526000906118079083018461155f565b94935050505056fe4c69624469616d6f6e644375743a2041646420666163657420686173206e6f20636f64654c69624469616d6f6e644375743a205f696e6974206164647265737320686173206e6f20636f64654c69624469616d6f6e644375743a205265706c61636520666163657420686173206e6f20636f64652aa47ee5db910f3b2a06970c443249cc77dbd9f96100cfebc1775ab7fb1d1824a264697066735822122084edf40aad2cd52b3345fc21d7882bbf7c2c6e13f09996efbeb0f9c26c3070ec64736f6c63430008170033",
  "linkReferences": {},
  "deployedLinkReferences": {}
}