{
  "_format": "hh-sol-artifact-1",
  "contractName": "CollateralTypesFacet",
  "sourceName": "contracts/assetManager/facets/CollateralTypesFacet.sol",
  "abi": [
    {
      "anonymous": false,
      "inputs": [
        {
          "indexed": false,
          "internalType": "uint8",
          "name": "collateralClass",
          "type": "uint8"
        },
        {
          "indexed": false,
          "internalType": "address",
          "name": "collateralToken",
          "type": "address"
        },
        {
          "indexed": false,
          "internalType": "uint256",
          "name": "minCollateralRatioBIPS",
          "type": "uint256"
        },
        {
          "indexed": false,
          "internalType": "uint256",
          "name": "ccbMinCollateralRatioBIPS",
          "type": "uint256"
        },
        {
          "indexed": false,
          "internalType": "uint256",
          "name": "safetyMinCollateralRatioBIPS",
          "type": "uint256"
        }
      ],
      "name": "CollateralRatiosChanged",
      "type": "event"
    },
    {
      "anonymous": false,
      "inputs": [
        {
          "indexed": false,
          "internalType": "uint8",
          "name": "collateralClass",
          "type": "uint8"
        },
        {
          "indexed": false,
          "internalType": "address",
          "name": "token",
          "type": "address"
        },
        {
          "indexed": false,
          "internalType": "uint256",
          "name": "decimals",
          "type": "uint256"
        },
        {
          "indexed": false,
          "internalType": "bool",
          "name": "directPricePair",
          "type": "bool"
        },
        {
          "indexed": false,
          "internalType": "string",
          "name": "assetFtsoSymbol",
          "type": "string"
        },
        {
          "indexed": false,
          "internalType": "string",
          "name": "tokenFtsoSymbol",
          "type": "string"
        },
        {
          "indexed": false,
          "internalType": "uint256",
          "name": "minCollateralRatioBIPS",
          "type": "uint256"
        },
        {
          "indexed": false,
          "internalType": "uint256",
          "name": "ccbMinCollateralRatioBIPS",
          "type": "uint256"
        },
        {
          "indexed": false,
          "internalType": "uint256",
          "name": "safetyMinCollateralRatioBIPS",
          "type": "uint256"
        }
      ],
      "name": "CollateralTypeAdded",
      "type": "event"
    },
    {
      "anonymous": false,
      "inputs": [
        {
          "indexed": false,
          "internalType": "uint8",
          "name": "collateralClass",
          "type": "uint8"
        },
        {
          "indexed": false,
          "internalType": "address",
          "name": "collateralToken",
          "type": "address"
        },
        {
          "indexed": false,
          "internalType": "uint256",
          "name": "validUntil",
          "type": "uint256"
        }
      ],
      "name": "CollateralTypeDeprecated",
      "type": "event"
    },
    {
      "inputs": [
        {
          "components": [
            {
              "internalType": "enum CollateralType.Class",
              "name": "collateralClass",
              "type": "uint8"
            },
            {
              "internalType": "contract IERC20",
              "name": "token",
              "type": "address"
            },
            {
              "internalType": "uint256",
              "name": "decimals",
              "type": "uint256"
            },
            {
              "internalType": "uint256",
              "name": "validUntil",
              "type": "uint256"
            },
            {
              "internalType": "bool",
              "name": "directPricePair",
              "type": "bool"
            },
            {
              "internalType": "string",
              "name": "assetFtsoSymbol",
              "type": "string"
            },
            {
              "internalType": "string",
              "name": "tokenFtsoSymbol",
              "type": "string"
            },
            {
              "internalType": "uint256",
              "name": "minCollateralRatioBIPS",
              "type": "uint256"
            },
            {
              "internalType": "uint256",
              "name": "ccbMinCollateralRatioBIPS",
              "type": "uint256"
            },
            {
              "internalType": "uint256",
              "name": "safetyMinCollateralRatioBIPS",
              "type": "uint256"
            }
          ],
          "internalType": "struct CollateralType.Data",
          "name": "_data",
          "type": "tuple"
        }
      ],
      "name": "addCollateralType",
      "outputs": [],
      "stateMutability": "nonpayable",
      "type": "function"
    },
    {
      "inputs": [
        {
          "internalType": "enum CollateralType.Class",
          "name": "_collateralClass",
          "type": "uint8"
        },
        {
          "internalType": "contract IERC20",
          "name": "_token",
          "type": "address"
        },
        {
          "internalType": "uint256",
          "name": "_invalidationTimeSec",
          "type": "uint256"
        }
      ],
      "name": "deprecateCollateralType",
      "outputs": [],
      "stateMutability": "nonpayable",
      "type": "function"
    },
    {
      "inputs": [
        {
          "internalType": "enum CollateralType.Class",
          "name": "_collateralClass",
          "type": "uint8"
        },
        {
          "internalType": "contract IERC20",
          "name": "_token",
          "type": "address"
        }
      ],
      "name": "getCollateralType",
      "outputs": [
        {
          "components": [
            {
              "internalType": "enum CollateralType.Class",
              "name": "collateralClass",
              "type": "uint8"
            },
            {
              "internalType": "contract IERC20",
              "name": "token",
              "type": "address"
            },
            {
              "internalType": "uint256",
              "name": "decimals",
              "type": "uint256"
            },
            {
              "internalType": "uint256",
              "name": "validUntil",
              "type": "uint256"
            },
            {
              "internalType": "bool",
              "name": "directPricePair",
              "type": "bool"
            },
            {
              "internalType": "string",
              "name": "assetFtsoSymbol",
              "type": "string"
            },
            {
              "internalType": "string",
              "name": "tokenFtsoSymbol",
              "type": "string"
            },
            {
              "internalType": "uint256",
              "name": "minCollateralRatioBIPS",
              "type": "uint256"
            },
            {
              "internalType": "uint256",
              "name": "ccbMinCollateralRatioBIPS",
              "type": "uint256"
            },
            {
              "internalType": "uint256",
              "name": "safetyMinCollateralRatioBIPS",
              "type": "uint256"
            }
          ],
          "internalType": "struct CollateralType.Data",
          "name": "",
          "type": "tuple"
        }
      ],
      "stateMutability": "view",
      "type": "function"
    },
    {
      "inputs": [],
      "name": "getCollateralTypes",
      "outputs": [
        {
          "components": [
            {
              "internalType": "enum CollateralType.Class",
              "name": "collateralClass",
              "type": "uint8"
            },
            {
              "internalType": "contract IERC20",
              "name": "token",
              "type": "address"
            },
            {
              "internalType": "uint256",
              "name": "decimals",
              "type": "uint256"
            },
            {
              "internalType": "uint256",
              "name": "validUntil",
              "type": "uint256"
            },
            {
              "internalType": "bool",
              "name": "directPricePair",
              "type": "bool"
            },
            {
              "internalType": "string",
              "name": "assetFtsoSymbol",
              "type": "string"
            },
            {
              "internalType": "string",
              "name": "tokenFtsoSymbol",
              "type": "string"
            },
            {
              "internalType": "uint256",
              "name": "minCollateralRatioBIPS",
              "type": "uint256"
            },
            {
              "internalType": "uint256",
              "name": "ccbMinCollateralRatioBIPS",
              "type": "uint256"
            },
            {
              "internalType": "uint256",
              "name": "safetyMinCollateralRatioBIPS",
              "type": "uint256"
            }
          ],
          "internalType": "struct CollateralType.Data[]",
          "name": "_collateralTypes",
          "type": "tuple[]"
        }
      ],
      "stateMutability": "view",
      "type": "function"
    },
    {
      "inputs": [
        {
          "internalType": "enum CollateralType.Class",
          "name": "_collateralClass",
          "type": "uint8"
        },
        {
          "internalType": "contract IERC20",
          "name": "_token",
          "type": "address"
        },
        {
          "internalType": "uint256",
          "name": "_minCollateralRatioBIPS",
          "type": "uint256"
        },
        {
          "internalType": "uint256",
          "name": "_ccbMinCollateralRatioBIPS",
          "type": "uint256"
        },
        {
          "internalType": "uint256",
          "name": "_safetyMinCollateralRatioBIPS",
          "type": "uint256"
        }
      ],
      "name": "setCollateralRatiosForToken",
      "outputs": [],
      "stateMutability": "nonpayable",
      "type": "function"
    }
  ],
  "bytecode": "0x6080604052348015600f57600080fd5b506117228061001f6000396000f3fe608060405234801561001057600080fd5b50600436106100575760003560e01c806313199ee01461005c578063249f1b59146100715780634610bc231461008457806382dede26146100ad578063eebbcd55146100c2575b600080fd5b61006f61006a366004611050565b6100d5565b005b61006f61007f36600461108d565b610286565b6100976100923660046110da565b610439565b6040516100a4919061123e565b60405180910390f35b6100b5610454565b6040516100a49190611251565b61006f6100d03660046112b6565b610463565b6100dd61047f565b7f4f24f5c433db0962dac0d2c8b84197a6e6c7cc4e5d9ebe1916a1b6193da2f33a600061010a85856104f9565b8054909150600160b01b90046001600160401b0316158061013c5750805442600160b01b9091046001600160401b0316115b61017f5760405162461bcd60e51b815260206004820152600f60248201526e1d1bdad95b881b9bdd081d985b1a59608a1b60448201526064015b60405180910390fd5b6012820154600160401b90046001600160401b03168310156101e35760405162461bcd60e51b815260206004820152601960248201527f6465707265636174696f6e2074696d6520746f2073686f7274000000000000006044820152606401610176565b60006101ef844261130e565b90506101fa816105ce565b82546001600160401b0391909116600160b01b0267ffffffffffffffff60b01b199091161782557ffa93c441628a8345854526201d5fec9110fe2e4ad5a0822eb6eda950864075e68660028111156102545761025461110d565b6040805160ff90921682526001600160a01b0388166020830152810183905260600160405180910390a1505050505050565b61028e61047f565b600080356001600160e01b03191686866040516020016102b093929190611321565b6040516020818303038152906040528051906020012090506102d18161063a565b6000836127101080156102e45750848411155b80156102f05750828511155b90508061033b5760405162461bcd60e51b8152602060048201526019602482015278696e76616c696420636f6c6c61746572616c20726174696f7360381b6044820152606401610176565b600061034788886104f9565b905061035286610717565b60038201805463ffffffff191663ffffffff9290921691909117905561037785610717565b8160030160046101000a81548163ffffffff021916908363ffffffff1602179055506103a284610717565b8160030160086101000a81548163ffffffff021916908363ffffffff1602179055507fbaa56ba61f3fbb73cc7723520ea5139b9300100910496d3dc525d0344858cac88860028111156103f7576103f761110d565b6040805160ff90921682526001600160a01b038a1660208301528101889052606081018790526080810186905260a00160405180910390a15050505050505050565b610441610fc6565b61044b838361077c565b90505b92915050565b606061045e6107a3565b905090565b61046b61047f565b61047c61047782611434565b61087f565b50565b7f4f24f5c433db0962dac0d2c8b84197a6e6c7cc4e5d9ebe1916a1b6193da2f33a80546001600160a01b0316331461047c5760405162461bcd60e51b815260206004820152601d60248201527f6f6e6c79206173736574206d616e6167657220636f6e74726f6c6c65720000006044820152606401610176565b60007fec7e8c1c441439dd40959777f4c577ea0cd42fcc1dbe59d2bd0f5d9c55df8db6817fec7e8c1c441439dd40959777f4c577ea0cd42fcc1dbe59d2bd0f5d9c55df8db78161054987876108e7565b81526020019081526020016000205490506000811161059a5760405162461bcd60e51b815260206004820152600d60248201526c3ab735b737bbb7103a37b5b2b760991b6044820152606401610176565b816105a660018361150d565b815481106105b6576105b6611520565b90600052602060002090600402019250505092915050565b60006001600160401b038211156106365760405162461bcd60e51b815260206004820152602660248201527f53616665436173743a2076616c756520646f65736e27742066697420696e203660448201526534206269747360d01b6064820152608401610176565b5090565b60008181527fc6aafbe0f74bbe68eec7559401d7d311a092b5c4d8feb0452323e4ba73d8d8d160208190526040909120547f4f24f5c433db0962dac0d2c8b84197a6e6c7cc4e5d9ebe1916a1b6193da2f33a908015806106b8575060118201546106b490600160801b90046001600160401b03168261130e565b4210155b6107045760405162461bcd60e51b815260206004820152601c60248201527f746f6f20636c6f736520746f2070726576696f757320757064617465000000006044820152606401610176565b5050600091825260205260409020429055565b600063ffffffff8211156106365760405162461bcd60e51b815260206004820152602660248201527f53616665436173743a2076616c756520646f65736e27742066697420696e203360448201526532206269747360d01b6064820152608401610176565b610784610fc6565b600061079084846104f9565b905061079b81610911565b949350505050565b7fec7e8c1c441439dd40959777f4c577ea0cd42fcc1dbe59d2bd0f5d9c55df8db6805460609190806001600160401b038111156107e2576107e2611358565b60405190808252806020026020018201604052801561081b57816020015b610808610fc6565b8152602001906001900390816108005790505b50925060005b818110156108795761085483600001828154811061084157610841611520565b9060005260206000209060040201610911565b84828151811061086657610866611520565b6020908102919091010152600101610821565b50505090565b6002815160028111156108945761089461110d565b146108da5760405162461bcd60e51b81526020600482015260166024820152751b9bdd0818481d985d5b1d0818dbdb1b185d195c985b60521b6044820152606401610176565b6108e381610aec565b5050565b6000816001600160a01b031660a08460028111156109075761090761110d565b901b179392505050565b610919610fc6565b60408051610140810190915282548190600160a01b900460ff1660028111156109445761094461110d565b815283546001600160a01b038116602083015260ff600160a81b8204811660408401526001600160401b03600160b01b8304166060840152600160f01b909104161515608082015260018401805460a0909201916109a190611536565b80601f01602080910402602001604051908101604052809291908181526020018280546109cd90611536565b8015610a1a5780601f106109ef57610100808354040283529160200191610a1a565b820191906000526020600020905b8154815290600101906020018083116109fd57829003601f168201915b50505050508152602001836002018054610a3390611536565b80601f0160208091040260200160405190810160405280929190818152602001828054610a5f90611536565b8015610aac5780601f10610a8157610100808354040283529160200191610aac565b820191906000526020600020905b815481529060010190602001808311610a8f57829003601f168201915b505050918352505060039093015463ffffffff8082166020860152640100000000820481166040860152600160401b909104166060909301929092525090565b60208101516000907fec7e8c1c441439dd40959777f4c577ea0cd42fcc1dbe59d2bd0f5d9c55df8db6906001600160a01b0316610b585760405162461bcd60e51b815260206004820152600a602482015269746f6b656e207a65726f60b01b6044820152606401610176565b6000610b6c846000015185602001516108e7565b600081815260018401602052604090205490915015610bc45760405162461bcd60e51b8152602060048201526014602482015273746f6b656e20616c72656164792065786973747360601b6044820152606401610176565b606084015115610c165760405162461bcd60e51b815260206004820152601b60248201527f63616e6e6f7420616464206465707265636174656420746f6b656e00000000006044820152606401610176565b6000846101000151612710108015610c3757508460e0015185610100015111155b8015610c4c57508461012001518560e0015111155b905080610c975760405162461bcd60e51b8152602060048201526019602482015278696e76616c696420636f6c6c61746572616c20726174696f7360381b6044820152606401610176565b82546040805161014081019091526020808801516001600160a01b0316825287518692918201906002811115610ccf57610ccf61110d565b8152602001610ce18960400151610f65565b60ff168152602001610cf689606001516105ce565b6001600160401b031681526020018860800151151581526020018860a0015181526020018860c001518152602001610d318960e00151610717565b63ffffffff168152602001610d4a896101000151610717565b63ffffffff168152602001610d63896101200151610717565b63ffffffff16905281546001810183556000928352602092839020825160049092020180546001600160a01b031981166001600160a01b03909316928317825593830151929390929183916001600160a81b03191617600160a01b836002811115610dd057610dd061110d565b021790555060408201518154606084015160808501511515600160f01b0260ff60f01b196001600160401b03909216600160b01b0267ffffffffffffffff60b01b1960ff909516600160a81b029490941668ffffffffffffffffff60a81b1990931692909217929092179190911617815560a08201516001820190610e5590826115bf565b5060c08201516002820190610e6a90826115bf565b5060e0820151600390910180546101008401516101209094015163ffffffff908116600160401b026bffffffff0000000000000000199582166401000000000267ffffffffffffffff1990931691909416171792909216179055610ecf81600161130e565b600084815260018601602052604090205585517fbef4c272617e8773ee6209dd5f05e50ca5be37232b0c94cb8439d8a56bfdb7ce906002811115610f1557610f1561110d565b8760200151886040015189608001518a60a001518b60c001518c60e001518d61010001518e6101200151604051610f549998979695949392919061167d565b60405180910390a195945050505050565b600060ff8211156106365760405162461bcd60e51b815260206004820152602560248201527f53616665436173743a2076616c756520646f65736e27742066697420696e2038604482015264206269747360d81b6064820152608401610176565b604080516101408101909152806000815260200160006001600160a01b03168152602001600081526020016000815260200160001515815260200160608152602001606081526020016000815260200160008152602001600081525090565b80356003811061103457600080fd5b919050565b80356001600160a01b038116811461103457600080fd5b60008060006060848603121561106557600080fd5b61106e84611025565b925061107c60208501611039565b929592945050506040919091013590565b600080600080600060a086880312156110a557600080fd5b6110ae86611025565b94506110bc60208701611039565b94979496505050506040830135926060810135926080909101359150565b600080604083850312156110ed57600080fd5b6110f683611025565b915061110460208401611039565b90509250929050565b634e487b7160e01b600052602160045260246000fd5b6003811061114157634e487b7160e01b600052602160045260246000fd5b9052565b6000815180845260005b8181101561116b5760208185018101518683018201520161114f565b506000602082860101526020601f19601f83011685010191505092915050565b611196828251611123565b600060208201516111b260208501826001600160a01b03169052565b50604082015160408401526060820151606084015260808201516111da608085018215159052565b5060a082015161014060a08501526111f6610140850182611145565b905060c083015184820360c086015261120f8282611145565b91505060e083015160e08501526101008301516101008501526101208301516101208501528091505092915050565b60208152600061044b602083018461118b565b6000602082016020835280845180835260408501915060408160051b86010192506020860160005b828110156112aa57603f1987860301845261129585835161118b565b94506020938401939190910190600101611279565b50929695505050505050565b6000602082840312156112c857600080fd5b81356001600160401b038111156112de57600080fd5b820161014081850312156112f157600080fd5b9392505050565b634e487b7160e01b600052601160045260246000fd5b8082018082111561044e5761044e6112f8565b6001600160e01b0319841681526060810161133f6020830185611123565b6001600160a01b03929092166040919091015292915050565b634e487b7160e01b600052604160045260246000fd5b60405161014081016001600160401b038111828210171561139157611391611358565b60405290565b8035801515811461103457600080fd5b600082601f8301126113b857600080fd5b81356001600160401b038111156113d1576113d1611358565b604051601f8201601f19908116603f011681016001600160401b03811182821017156113ff576113ff611358565b60405281815283820160200185101561141757600080fd5b816020850160208301376000918101602001919091529392505050565b6000610140823603121561144757600080fd5b61144f61136e565b61145883611025565b815261146660208401611039565b6020820152604083810135908201526060808401359082015261148b60808401611397565b608082015260a08301356001600160401b038111156114a957600080fd5b6114b5368286016113a7565b60a08301525060c08301356001600160401b038111156114d457600080fd5b6114e0368286016113a7565b60c08301525060e08381013590820152610100808401359082015261012092830135928101929092525090565b8181038181111561044e5761044e6112f8565b634e487b7160e01b600052603260045260246000fd5b600181811c9082168061154a57607f821691505b60208210810361156a57634e487b7160e01b600052602260045260246000fd5b50919050565b601f8211156115ba57806000526020600020601f840160051c810160208510156115975750805b601f840160051c820191505b818110156115b757600081556001016115a3565b50505b505050565b81516001600160401b038111156115d8576115d8611358565b6115ec816115e68454611536565b84611570565b6020601f82116001811461162057600083156116085750848201515b600019600385901b1c1916600184901b1784556115b7565b600084815260208120601f198516915b828110156116505787850151825560209485019460019092019101611630565b508482101561166e5786840151600019600387901b60f8161c191681555b50505050600190811b01905550565b60ff8a16815260018060a01b03891660208201528760408201528615156060820152610120608082015260006116b7610120830188611145565b82810360a08401526116c98188611145565b60c0840196909652505060e081019290925261010090910152969550505050505056fea264697066735822122070e8e20e8dbb07f9977c90f6b8ef937f72b37b1525fb951bb88d3f0b3c0ba43064736f6c634300081b0033",
  "linkReferences": {},
  "deployedLinkReferences": {}
}