{
  "_format": "hh-sol-artifact-1",
  "contractName": "CollateralTypesFacet",
  "sourceName": "contracts/assetManager/facets/CollateralTypesFacet.sol",
  "abi": [
    {
      "inputs": [],
      "name": "CannotAddDeprecatedToken",
      "type": "error"
    },
    {
      "inputs": [],
      "name": "DeprecationTimeToShort",
      "type": "error"
    },
    {
      "inputs": [],
      "name": "EmergencyPauseActive",
      "type": "error"
    },
    {
      "inputs": [],
      "name": "InvalidCollateralRatios",
      "type": "error"
    },
    {
      "inputs": [],
      "name": "NotAVaultCollateral",
      "type": "error"
    },
    {
      "inputs": [],
      "name": "NotAttached",
      "type": "error"
    },
    {
      "inputs": [],
      "name": "NotWhitelisted",
      "type": "error"
    },
    {
      "inputs": [],
      "name": "OnlyAssetManagerController",
      "type": "error"
    },
    {
      "inputs": [],
      "name": "PriceNotInitialized",
      "type": "error"
    },
    {
      "inputs": [],
      "name": "TokenAlreadyExists",
      "type": "error"
    },
    {
      "inputs": [],
      "name": "TokenNotValid",
      "type": "error"
    },
    {
      "inputs": [],
      "name": "TokenZero",
      "type": "error"
    },
    {
      "inputs": [],
      "name": "TooCloseToPreviousUpdate",
      "type": "error"
    },
    {
      "inputs": [],
      "name": "UnknownToken",
      "type": "error"
    },
    {
      "anonymous": false,
      "inputs": [
        {
          "indexed": false,
          "internalType": "uint8",
          "name": "collateralClass",
          "type": "uint8"
        },
        {
          "indexed": false,
          "internalType": "address",
          "name": "collateralToken",
          "type": "address"
        },
        {
          "indexed": false,
          "internalType": "uint256",
          "name": "minCollateralRatioBIPS",
          "type": "uint256"
        },
        {
          "indexed": false,
          "internalType": "uint256",
          "name": "safetyMinCollateralRatioBIPS",
          "type": "uint256"
        }
      ],
      "name": "CollateralRatiosChanged",
      "type": "event"
    },
    {
      "anonymous": false,
      "inputs": [
        {
          "indexed": false,
          "internalType": "uint8",
          "name": "collateralClass",
          "type": "uint8"
        },
        {
          "indexed": false,
          "internalType": "address",
          "name": "token",
          "type": "address"
        },
        {
          "indexed": false,
          "internalType": "uint256",
          "name": "decimals",
          "type": "uint256"
        },
        {
          "indexed": false,
          "internalType": "bool",
          "name": "directPricePair",
          "type": "bool"
        },
        {
          "indexed": false,
          "internalType": "string",
          "name": "assetFtsoSymbol",
          "type": "string"
        },
        {
          "indexed": false,
          "internalType": "string",
          "name": "tokenFtsoSymbol",
          "type": "string"
        },
        {
          "indexed": false,
          "internalType": "uint256",
          "name": "minCollateralRatioBIPS",
          "type": "uint256"
        },
        {
          "indexed": false,
          "internalType": "uint256",
          "name": "safetyMinCollateralRatioBIPS",
          "type": "uint256"
        }
      ],
      "name": "CollateralTypeAdded",
      "type": "event"
    },
    {
      "anonymous": false,
      "inputs": [
        {
          "indexed": false,
          "internalType": "uint8",
          "name": "collateralClass",
          "type": "uint8"
        },
        {
          "indexed": false,
          "internalType": "address",
          "name": "collateralToken",
          "type": "address"
        },
        {
          "indexed": false,
          "internalType": "uint256",
          "name": "validUntil",
          "type": "uint256"
        }
      ],
      "name": "CollateralTypeDeprecated",
      "type": "event"
    },
    {
      "inputs": [
        {
          "components": [
            {
              "internalType": "enum CollateralType.Class",
              "name": "collateralClass",
              "type": "uint8"
            },
            {
              "internalType": "contract IERC20",
              "name": "token",
              "type": "address"
            },
            {
              "internalType": "uint256",
              "name": "decimals",
              "type": "uint256"
            },
            {
              "internalType": "uint256",
              "name": "validUntil",
              "type": "uint256"
            },
            {
              "internalType": "bool",
              "name": "directPricePair",
              "type": "bool"
            },
            {
              "internalType": "string",
              "name": "assetFtsoSymbol",
              "type": "string"
            },
            {
              "internalType": "string",
              "name": "tokenFtsoSymbol",
              "type": "string"
            },
            {
              "internalType": "uint256",
              "name": "minCollateralRatioBIPS",
              "type": "uint256"
            },
            {
              "internalType": "uint256",
              "name": "safetyMinCollateralRatioBIPS",
              "type": "uint256"
            }
          ],
          "internalType": "struct CollateralType.Data",
          "name": "_data",
          "type": "tuple"
        }
      ],
      "name": "addCollateralType",
      "outputs": [],
      "stateMutability": "nonpayable",
      "type": "function"
    },
    {
      "inputs": [
        {
          "internalType": "enum CollateralType.Class",
          "name": "_collateralClass",
          "type": "uint8"
        },
        {
          "internalType": "contract IERC20",
          "name": "_token",
          "type": "address"
        },
        {
          "internalType": "uint256",
          "name": "_invalidationTimeSec",
          "type": "uint256"
        }
      ],
      "name": "deprecateCollateralType",
      "outputs": [],
      "stateMutability": "nonpayable",
      "type": "function"
    },
    {
      "inputs": [
        {
          "internalType": "enum CollateralType.Class",
          "name": "_collateralClass",
          "type": "uint8"
        },
        {
          "internalType": "contract IERC20",
          "name": "_token",
          "type": "address"
        }
      ],
      "name": "getCollateralType",
      "outputs": [
        {
          "components": [
            {
              "internalType": "enum CollateralType.Class",
              "name": "collateralClass",
              "type": "uint8"
            },
            {
              "internalType": "contract IERC20",
              "name": "token",
              "type": "address"
            },
            {
              "internalType": "uint256",
              "name": "decimals",
              "type": "uint256"
            },
            {
              "internalType": "uint256",
              "name": "validUntil",
              "type": "uint256"
            },
            {
              "internalType": "bool",
              "name": "directPricePair",
              "type": "bool"
            },
            {
              "internalType": "string",
              "name": "assetFtsoSymbol",
              "type": "string"
            },
            {
              "internalType": "string",
              "name": "tokenFtsoSymbol",
              "type": "string"
            },
            {
              "internalType": "uint256",
              "name": "minCollateralRatioBIPS",
              "type": "uint256"
            },
            {
              "internalType": "uint256",
              "name": "safetyMinCollateralRatioBIPS",
              "type": "uint256"
            }
          ],
          "internalType": "struct CollateralType.Data",
          "name": "",
          "type": "tuple"
        }
      ],
      "stateMutability": "view",
      "type": "function"
    },
    {
      "inputs": [],
      "name": "getCollateralTypes",
      "outputs": [
        {
          "components": [
            {
              "internalType": "enum CollateralType.Class",
              "name": "collateralClass",
              "type": "uint8"
            },
            {
              "internalType": "contract IERC20",
              "name": "token",
              "type": "address"
            },
            {
              "internalType": "uint256",
              "name": "decimals",
              "type": "uint256"
            },
            {
              "internalType": "uint256",
              "name": "validUntil",
              "type": "uint256"
            },
            {
              "internalType": "bool",
              "name": "directPricePair",
              "type": "bool"
            },
            {
              "internalType": "string",
              "name": "assetFtsoSymbol",
              "type": "string"
            },
            {
              "internalType": "string",
              "name": "tokenFtsoSymbol",
              "type": "string"
            },
            {
              "internalType": "uint256",
              "name": "minCollateralRatioBIPS",
              "type": "uint256"
            },
            {
              "internalType": "uint256",
              "name": "safetyMinCollateralRatioBIPS",
              "type": "uint256"
            }
          ],
          "internalType": "struct CollateralType.Data[]",
          "name": "_collateralTypes",
          "type": "tuple[]"
        }
      ],
      "stateMutability": "view",
      "type": "function"
    },
    {
      "inputs": [
        {
          "internalType": "enum CollateralType.Class",
          "name": "_collateralClass",
          "type": "uint8"
        },
        {
          "internalType": "contract IERC20",
          "name": "_token",
          "type": "address"
        },
        {
          "internalType": "uint256",
          "name": "_minCollateralRatioBIPS",
          "type": "uint256"
        },
        {
          "internalType": "uint256",
          "name": "_safetyMinCollateralRatioBIPS",
          "type": "uint256"
        }
      ],
      "name": "setCollateralRatiosForToken",
      "outputs": [],
      "stateMutability": "nonpayable",
      "type": "function"
    }
  ],
  "bytecode": "0x6080604052348015600f57600080fd5b506116538061001f6000396000f3fe608060405234801561001057600080fd5b50600436106100575760003560e01c80630f8d62c91461005c57806313199ee0146100715780634610bc231461008457806382dede26146100ad578063b18e8e67146100c2575b600080fd5b61006f61006a366004610f22565b6100d5565b005b61006f61007f366004610f8f565b6100f1565b610097610092366004610fcc565b61023b565b6040516100a49190611124565b60405180910390f35b6100b5610256565b6040516100a49190611137565b61006f6100d036600461119c565b610265565b6100dd6103ae565b6100ee6100e9826112ba565b6103e7565b50565b6100f96103ae565b6000805160206115fe83398151915260006101148585610427565b8054909150600160b01b90046001600160401b031615806101465750805442600160b01b9091046001600160401b0316115b610163576040516358700a0160e11b815260040160405180910390fd5b6012820154600160401b90046001600160401b0316831015610198576040516366a35a7760e01b815260040160405180910390fd5b60006101a4844261139e565b90506101af816104dd565b82546001600160401b0391909116600160b01b0267ffffffffffffffff60b01b199091161782557ffa93c441628a8345854526201d5fec9110fe2e4ad5a0822eb6eda950864075e686600281111561020957610209610fff565b6040805160ff90921682526001600160a01b0388166020830152810183905260600160405180910390a1505050505050565b610243610eca565b61024d838361054e565b90505b92915050565b6060610260610575565b905090565b61026d6103ae565b600080356001600160e01b031916858560405160200161028f939291906113b1565b6040516020818303038152906040528051906020012090506102b081610651565b6000836127101080156102c35750828411155b9050806102e357604051631654ba8b60e11b815260040160405180910390fd5b60006102ef8787610427565b90506102fa856106ed565b60038201805463ffffffff191663ffffffff9290921691909117905561031f846106ed565b8160030160086101000a81548163ffffffff021916908363ffffffff1602179055507fc55dbd357742f80f67e700f698752534baf140c57d79c9233707e97eb370b34487600281111561037457610374610fff565b6040805160ff90921682526001600160a01b038916602083015281018790526060810186905260800160405180910390a150505050505050565b6000805160206115fe83398151915280546001600160a01b031633146100ee57604051634ae14edf60e11b815260040160405180910390fd5b6002815160028111156103fc576103fc610fff565b1461041a57604051630a2a2d9760e31b815260040160405180910390fd5b61042381610752565b5050565b60007fec7e8c1c441439dd40959777f4c577ea0cd42fcc1dbe59d2bd0f5d9c55df8db6817fec7e8c1c441439dd40959777f4c577ea0cd42fcc1dbe59d2bd0f5d9c55df8db7816104778787610b7e565b8152602001908152602001600020549050600081116104a957604051638698bf3760e01b815260040160405180910390fd5b816104b56001836113e8565b815481106104c5576104c56113fb565b90600052602060002090600402019250505092915050565b60006001600160401b0382111561054a5760405162461bcd60e51b815260206004820152602660248201527f53616665436173743a2076616c756520646f65736e27742066697420696e203660448201526534206269747360d01b60648201526084015b60405180910390fd5b5090565b610556610eca565b60006105628484610427565b905061056d81610ba8565b949350505050565b7fec7e8c1c441439dd40959777f4c577ea0cd42fcc1dbe59d2bd0f5d9c55df8db6805460609190806001600160401b038111156105b4576105b46111de565b6040519080825280602002602001820160405280156105ed57816020015b6105da610eca565b8152602001906001900390816105d25790505b50925060005b8181101561064b57610626836000018281548110610613576106136113fb565b9060005260206000209060040201610ba8565b848281518110610638576106386113fb565b60209081029190910101526001016105f3565b50505090565b60008181527fc6aafbe0f74bbe68eec7559401d7d311a092b5c4d8feb0452323e4ba73d8d8d160208190526040909120546000805160206115fe833981519152908015806106bd575060118201546106b990600160801b90046001600160401b03168261139e565b4210155b6106da57604051630e216b9960e31b815260040160405180910390fd5b5050600091825260205260409020429055565b600063ffffffff82111561054a5760405162461bcd60e51b815260206004820152602660248201527f53616665436173743a2076616c756520646f65736e27742066697420696e203360448201526532206269747360d01b6064820152608401610541565b60208101516000907fec7e8c1c441439dd40959777f4c577ea0cd42fcc1dbe59d2bd0f5d9c55df8db6906001600160a01b03166107a25760405163ab42242d60e01b815260040160405180910390fd5b60006107b684600001518560200151610b7e565b6000818152600184016020526040902054909150156107e85760405163c991cbb160e01b815260040160405180910390fd5b60608401511561080b576040516308d5b2cb60e31b815260040160405180910390fd5b60008460e0015161271010801561082b57508461010001518560e0015111155b90508061084b57604051631654ba8b60e11b815260040160405180910390fd5b600061085c8660a001516000610d74565b505090508060000361088157604051636fdc2d5b60e01b815260040160405180910390fd5b85608001516108c257600061089b8760c001516000610d74565b50509050806000036108c057604051636fdc2d5b60e01b815260040160405180910390fd5b505b83546040805161014081019091526020808901516001600160a01b03168252885187929182019060028111156108fa576108fa610fff565b815260200161090c8a60400151610e69565b60ff1681526020016109218a606001516104dd565b6001600160401b031681526020018960800151151581526020018960a0015181526020018960c00151815260200161095c8a60e001516106ed565b63ffffffff168152602001600063ffffffff1681526020016109828a61010001516106ed565b63ffffffff16905281546001810183556000928352602092839020825160049092020180546001600160a01b031981166001600160a01b03909316928317825593830151929390929183916001600160a81b03191617600160a01b8360028111156109ef576109ef610fff565b021790555060408201518154606084015160808501511515600160f01b0260ff60f01b196001600160401b03909216600160b01b0267ffffffffffffffff60b01b1960ff909516600160a81b029490941668ffffffffffffffffff60a81b1990931692909217929092179190911617815560a08201516001820190610a74908261149a565b5060c08201516002820190610a89908261149a565b5060e0820151600390910180546101008401516101209094015163ffffffff908116600160401b026bffffffff0000000000000000199582166401000000000267ffffffffffffffff1990931691909416171792909216179055610aee81600161139e565b600085815260018701602052604090205586517fc4531f4cebd6a3b1974b381202c861ca7d302755db0d983686b77c75be048455906002811115610b3457610b34610fff565b886020015189604001518a608001518b60a001518c60c001518d60e001518e6101000151604051610b6c989796959493929190611558565b60405180910390a19695505050505050565b6000816001600160a01b031660a0846002811115610b9e57610b9e610fff565b901b179392505050565b610bb0610eca565b60408051610120810190915282548190600160a01b900460ff166002811115610bdb57610bdb610fff565b815283546001600160a01b038116602083015260ff600160a81b8204811660408401526001600160401b03600160b01b8304166060840152600160f01b909104161515608082015260018401805460a090920191610c3890611411565b80601f0160208091040260200160405190810160405280929190818152602001828054610c6490611411565b8015610cb15780601f10610c8657610100808354040283529160200191610cb1565b820191906000526020600020905b815481529060010190602001808311610c9457829003601f168201915b50505050508152602001836002018054610cca90611411565b80601f0160208091040260200160405190810160405280929190818152602001828054610cf690611411565b8015610d435780601f10610d1857610100808354040283529160200191610d43565b820191906000526020600020905b815481529060010190602001808311610d2657829003601f168201915b505050918352505060039093015463ffffffff8082166020860152600160401b909104166040909301929092525090565b7f4f24f5c433db0962dac0d2c8b84197a6e6c7cc4e5d9ebe1916a1b6193da2f34454600090819081906000805160206115fe833981519152906001600160a01b03168515610e365760405163e4a0a55b60e01b81526001600160a01b0382169063e4a0a55b90610de8908a906004016115bc565b606060405180830381865afa158015610e05573d6000803e3d6000fd5b505050506040513d601f19601f82011682018060405250810190610e2991906115cf565b9450945094505050610e62565b60405163524f388960e01b81526001600160a01b0382169063524f388990610de8908a906004016115bc565b9250925092565b600060ff82111561054a5760405162461bcd60e51b815260206004820152602560248201527f53616665436173743a2076616c756520646f65736e27742066697420696e2038604482015264206269747360d81b6064820152608401610541565b604080516101208101909152806000815260200160006001600160a01b031681526020016000815260200160008152602001600015158152602001606081526020016060815260200160008152602001600081525090565b600060208284031215610f3457600080fd5b81356001600160401b03811115610f4a57600080fd5b82016101208185031215610f5d57600080fd5b9392505050565b803560038110610f7357600080fd5b919050565b80356001600160a01b0381168114610f7357600080fd5b600080600060608486031215610fa457600080fd5b610fad84610f64565b9250610fbb60208501610f78565b929592945050506040919091013590565b60008060408385031215610fdf57600080fd5b610fe883610f64565b9150610ff660208401610f78565b90509250929050565b634e487b7160e01b600052602160045260246000fd5b6003811061103357634e487b7160e01b600052602160045260246000fd5b9052565b6000815180845260005b8181101561105d57602081850181015186830182015201611041565b506000602082860101526020601f19601f83011685010191505092915050565b611088828251611015565b600060208201516110a460208501826001600160a01b03169052565b50604082015160408401526060820151606084015260808201516110cc608085018215159052565b5060a082015161012060a08501526110e8610120850182611037565b905060c083015184820360c08601526111018282611037565b91505060e083015160e08501526101008301516101008501528091505092915050565b60208152600061024d602083018461107d565b6000602082016020835280845180835260408501915060408160051b86010192506020860160005b8281101561119057603f1987860301845261117b85835161107d565b9450602093840193919091019060010161115f565b50929695505050505050565b600080600080608085870312156111b257600080fd5b6111bb85610f64565b93506111c960208601610f78565b93969395505050506040820135916060013590565b634e487b7160e01b600052604160045260246000fd5b60405161012081016001600160401b0381118282101715611217576112176111de565b60405290565b80358015158114610f7357600080fd5b600082601f83011261123e57600080fd5b81356001600160401b03811115611257576112576111de565b604051601f8201601f19908116603f011681016001600160401b0381118282101715611285576112856111de565b60405281815283820160200185101561129d57600080fd5b816020850160208301376000918101602001919091529392505050565b600061012082360312156112cd57600080fd5b6112d56111f4565b6112de83610f64565b81526112ec60208401610f78565b602082015260408381013590820152606080840135908201526113116080840161121d565b608082015260a08301356001600160401b0381111561132f57600080fd5b61133b3682860161122d565b60a08301525060c08301356001600160401b0381111561135a57600080fd5b6113663682860161122d565b60c08301525060e0838101359082015261010092830135928101929092525090565b634e487b7160e01b600052601160045260246000fd5b8082018082111561025057610250611388565b6001600160e01b031984168152606081016113cf6020830185611015565b6001600160a01b03929092166040919091015292915050565b8181038181111561025057610250611388565b634e487b7160e01b600052603260045260246000fd5b600181811c9082168061142557607f821691505b60208210810361144557634e487b7160e01b600052602260045260246000fd5b50919050565b601f82111561149557806000526020600020601f840160051c810160208510156114725750805b601f840160051c820191505b81811015611492576000815560010161147e565b50505b505050565b81516001600160401b038111156114b3576114b36111de565b6114c7816114c18454611411565b8461144b565b6020601f8211600181146114fb57600083156114e35750848201515b600019600385901b1c1916600184901b178455611492565b600084815260208120601f198516915b8281101561152b578785015182556020948501946001909201910161150b565b50848210156115495786840151600019600387901b60f8161c191681555b50505050600190811b01905550565b60ff8916815260018060a01b0388166020820152866040820152851515606082015261010060808201526000611592610100830187611037565b82810360a08401526115a48187611037565b60c0840195909552505060e001529695505050505050565b60208152600061024d6020830184611037565b6000806000606084860312156115e457600080fd5b505081516020830151604090930151909492935091905056fe4f24f5c433db0962dac0d2c8b84197a6e6c7cc4e5d9ebe1916a1b6193da2f33aa26469706673582212205afa8f1e72ad1900defddd0e58aff5679a7c43d8decdc3d5518ee554350202dc64736f6c634300081b0033",
  "linkReferences": {},
  "deployedLinkReferences": {}
}