{
  "_format": "hh-sol-artifact-1",
  "contractName": "CollateralTypesFacet",
  "sourceName": "contracts/assetManager/facets/CollateralTypesFacet.sol",
  "abi": [
    {
      "anonymous": false,
      "inputs": [
        {
          "indexed": false,
          "internalType": "uint8",
          "name": "collateralClass",
          "type": "uint8"
        },
        {
          "indexed": false,
          "internalType": "address",
          "name": "collateralToken",
          "type": "address"
        },
        {
          "indexed": false,
          "internalType": "uint256",
          "name": "minCollateralRatioBIPS",
          "type": "uint256"
        },
        {
          "indexed": false,
          "internalType": "uint256",
          "name": "ccbMinCollateralRatioBIPS",
          "type": "uint256"
        },
        {
          "indexed": false,
          "internalType": "uint256",
          "name": "safetyMinCollateralRatioBIPS",
          "type": "uint256"
        }
      ],
      "name": "CollateralRatiosChanged",
      "type": "event"
    },
    {
      "anonymous": false,
      "inputs": [
        {
          "indexed": false,
          "internalType": "uint8",
          "name": "collateralClass",
          "type": "uint8"
        },
        {
          "indexed": false,
          "internalType": "address",
          "name": "token",
          "type": "address"
        },
        {
          "indexed": false,
          "internalType": "uint256",
          "name": "decimals",
          "type": "uint256"
        },
        {
          "indexed": false,
          "internalType": "bool",
          "name": "directPricePair",
          "type": "bool"
        },
        {
          "indexed": false,
          "internalType": "string",
          "name": "assetFtsoSymbol",
          "type": "string"
        },
        {
          "indexed": false,
          "internalType": "string",
          "name": "tokenFtsoSymbol",
          "type": "string"
        },
        {
          "indexed": false,
          "internalType": "uint256",
          "name": "minCollateralRatioBIPS",
          "type": "uint256"
        },
        {
          "indexed": false,
          "internalType": "uint256",
          "name": "ccbMinCollateralRatioBIPS",
          "type": "uint256"
        },
        {
          "indexed": false,
          "internalType": "uint256",
          "name": "safetyMinCollateralRatioBIPS",
          "type": "uint256"
        }
      ],
      "name": "CollateralTypeAdded",
      "type": "event"
    },
    {
      "anonymous": false,
      "inputs": [
        {
          "indexed": false,
          "internalType": "uint8",
          "name": "collateralClass",
          "type": "uint8"
        },
        {
          "indexed": false,
          "internalType": "address",
          "name": "collateralToken",
          "type": "address"
        },
        {
          "indexed": false,
          "internalType": "uint256",
          "name": "validUntil",
          "type": "uint256"
        }
      ],
      "name": "CollateralTypeDeprecated",
      "type": "event"
    },
    {
      "inputs": [
        {
          "components": [
            {
              "internalType": "enum CollateralType.Class",
              "name": "collateralClass",
              "type": "uint8"
            },
            {
              "internalType": "contract IERC20",
              "name": "token",
              "type": "address"
            },
            {
              "internalType": "uint256",
              "name": "decimals",
              "type": "uint256"
            },
            {
              "internalType": "uint256",
              "name": "validUntil",
              "type": "uint256"
            },
            {
              "internalType": "bool",
              "name": "directPricePair",
              "type": "bool"
            },
            {
              "internalType": "string",
              "name": "assetFtsoSymbol",
              "type": "string"
            },
            {
              "internalType": "string",
              "name": "tokenFtsoSymbol",
              "type": "string"
            },
            {
              "internalType": "uint256",
              "name": "minCollateralRatioBIPS",
              "type": "uint256"
            },
            {
              "internalType": "uint256",
              "name": "ccbMinCollateralRatioBIPS",
              "type": "uint256"
            },
            {
              "internalType": "uint256",
              "name": "safetyMinCollateralRatioBIPS",
              "type": "uint256"
            }
          ],
          "internalType": "struct CollateralType.Data",
          "name": "_data",
          "type": "tuple"
        }
      ],
      "name": "addCollateralType",
      "outputs": [],
      "stateMutability": "nonpayable",
      "type": "function"
    },
    {
      "inputs": [
        {
          "internalType": "enum CollateralType.Class",
          "name": "_collateralClass",
          "type": "uint8"
        },
        {
          "internalType": "contract IERC20",
          "name": "_token",
          "type": "address"
        },
        {
          "internalType": "uint256",
          "name": "_invalidationTimeSec",
          "type": "uint256"
        }
      ],
      "name": "deprecateCollateralType",
      "outputs": [],
      "stateMutability": "nonpayable",
      "type": "function"
    },
    {
      "inputs": [
        {
          "internalType": "enum CollateralType.Class",
          "name": "_collateralClass",
          "type": "uint8"
        },
        {
          "internalType": "contract IERC20",
          "name": "_token",
          "type": "address"
        }
      ],
      "name": "getCollateralType",
      "outputs": [
        {
          "components": [
            {
              "internalType": "enum CollateralType.Class",
              "name": "collateralClass",
              "type": "uint8"
            },
            {
              "internalType": "contract IERC20",
              "name": "token",
              "type": "address"
            },
            {
              "internalType": "uint256",
              "name": "decimals",
              "type": "uint256"
            },
            {
              "internalType": "uint256",
              "name": "validUntil",
              "type": "uint256"
            },
            {
              "internalType": "bool",
              "name": "directPricePair",
              "type": "bool"
            },
            {
              "internalType": "string",
              "name": "assetFtsoSymbol",
              "type": "string"
            },
            {
              "internalType": "string",
              "name": "tokenFtsoSymbol",
              "type": "string"
            },
            {
              "internalType": "uint256",
              "name": "minCollateralRatioBIPS",
              "type": "uint256"
            },
            {
              "internalType": "uint256",
              "name": "ccbMinCollateralRatioBIPS",
              "type": "uint256"
            },
            {
              "internalType": "uint256",
              "name": "safetyMinCollateralRatioBIPS",
              "type": "uint256"
            }
          ],
          "internalType": "struct CollateralType.Data",
          "name": "",
          "type": "tuple"
        }
      ],
      "stateMutability": "view",
      "type": "function"
    },
    {
      "inputs": [],
      "name": "getCollateralTypes",
      "outputs": [
        {
          "components": [
            {
              "internalType": "enum CollateralType.Class",
              "name": "collateralClass",
              "type": "uint8"
            },
            {
              "internalType": "contract IERC20",
              "name": "token",
              "type": "address"
            },
            {
              "internalType": "uint256",
              "name": "decimals",
              "type": "uint256"
            },
            {
              "internalType": "uint256",
              "name": "validUntil",
              "type": "uint256"
            },
            {
              "internalType": "bool",
              "name": "directPricePair",
              "type": "bool"
            },
            {
              "internalType": "string",
              "name": "assetFtsoSymbol",
              "type": "string"
            },
            {
              "internalType": "string",
              "name": "tokenFtsoSymbol",
              "type": "string"
            },
            {
              "internalType": "uint256",
              "name": "minCollateralRatioBIPS",
              "type": "uint256"
            },
            {
              "internalType": "uint256",
              "name": "ccbMinCollateralRatioBIPS",
              "type": "uint256"
            },
            {
              "internalType": "uint256",
              "name": "safetyMinCollateralRatioBIPS",
              "type": "uint256"
            }
          ],
          "internalType": "struct CollateralType.Data[]",
          "name": "",
          "type": "tuple[]"
        }
      ],
      "stateMutability": "view",
      "type": "function"
    },
    {
      "inputs": [
        {
          "internalType": "enum CollateralType.Class",
          "name": "_collateralClass",
          "type": "uint8"
        },
        {
          "internalType": "contract IERC20",
          "name": "_token",
          "type": "address"
        },
        {
          "internalType": "uint256",
          "name": "_minCollateralRatioBIPS",
          "type": "uint256"
        },
        {
          "internalType": "uint256",
          "name": "_ccbMinCollateralRatioBIPS",
          "type": "uint256"
        },
        {
          "internalType": "uint256",
          "name": "_safetyMinCollateralRatioBIPS",
          "type": "uint256"
        }
      ],
      "name": "setCollateralRatiosForToken",
      "outputs": [],
      "stateMutability": "nonpayable",
      "type": "function"
    }
  ],
  "bytecode": "0x608060405234801561001057600080fd5b50611753806100206000396000f3fe608060405234801561001057600080fd5b50600436106100575760003560e01c806313199ee01461005c578063249f1b59146100715780634610bc231461008457806382dede26146100ad578063eebbcd55146100c2575b600080fd5b61006f61006a366004611084565b6100d5565b005b61006f61007f3660046110c0565b6100ed565b61009761009236600461110d565b610109565b6040516100a4919061126e565b60405180910390f35b6100b5610124565b6040516100a49190611281565b61006f6100d03660046112e5565b610133565b6100dd61014f565b6100e88383836101ce565b505050565b6100f561014f565b610102858585858561034b565b5050505050565b610111610ffa565b61011b83836104f6565b90505b92915050565b606061012e61051d565b905090565b61013b61014f565b61014c61014782611402565b6105f9565b50565b7f4f24f5c433db0962dac0d2c8b84197a6e6c7cc4e5d9ebe1916a1b6193da2f33a80546001600160a01b0316331461014c5760405162461bcd60e51b815260206004820152601d60248201527f6f6e6c79206173736574206d616e6167657220636f6e74726f6c6c657200000060448201526064015b60405180910390fd5b7f4f24f5c433db0962dac0d2c8b84197a6e6c7cc4e5d9ebe1916a1b6193da2f33a60006101fb8585610661565b905061020681610736565b6102445760405162461bcd60e51b815260206004820152600f60248201526e1d1bdad95b881b9bdd081d985b1a59608a1b60448201526064016101c5565b6012820154600160401b90046001600160401b03168310156102a85760405162461bcd60e51b815260206004820152601960248201527f6465707265636174696f6e2074696d6520746f2073686f72740000000000000060448201526064016101c5565b60006102b484426114ed565b90506102bf8161076d565b82546001600160401b0391909116600160b01b0267ffffffffffffffff60b01b199091161782557ffa93c441628a8345854526201d5fec9110fe2e4ad5a0822eb6eda950864075e686600281111561031957610319611140565b6040805160ff90921682526001600160a01b0388166020830152810183905260600160405180910390a1505050505050565b600080356001600160e01b031916868660405160200161036d93929190611500565b60405160208183030381529060405280519060200120905061038e816107d9565b6000836127101080156103a15750848411155b80156103ad5750828511155b9050806103f85760405162461bcd60e51b8152602060048201526019602482015278696e76616c696420636f6c6c61746572616c20726174696f7360381b60448201526064016101c5565b60006104048888610661565b905061040f866108b6565b60038201805463ffffffff191663ffffffff92909216919091179055610434856108b6565b8160030160046101000a81548163ffffffff021916908363ffffffff16021790555061045f846108b6565b8160030160086101000a81548163ffffffff021916908363ffffffff1602179055507fbaa56ba61f3fbb73cc7723520ea5139b9300100910496d3dc525d0344858cac88860028111156104b4576104b4611140565b6040805160ff90921682526001600160a01b038a1660208301528101889052606081018790526080810186905260a00160405180910390a15050505050505050565b6104fe610ffa565b600061050a8484610661565b90506105158161091b565b949350505050565b7fec7e8c1c441439dd40959777f4c577ea0cd42fcc1dbe59d2bd0f5d9c55df8db6805460609190806001600160401b0381111561055c5761055c611327565b60405190808252806020026020018201604052801561059557816020015b610582610ffa565b81526020019060019003908161057a5790505b50925060005b818110156105f3576105ce8360000182815481106105bb576105bb611537565b906000526020600020906004020161091b565b8482815181106105e0576105e0611537565b602090810291909101015260010161059b565b50505090565b60028151600281111561060e5761060e611140565b146106545760405162461bcd60e51b81526020600482015260166024820152751b9bdd0818481d985d5b1d0818dbdb1b185d195c985b60521b60448201526064016101c5565b61065d81610af6565b5050565b60007fec7e8c1c441439dd40959777f4c577ea0cd42fcc1dbe59d2bd0f5d9c55df8db6817fec7e8c1c441439dd40959777f4c577ea0cd42fcc1dbe59d2bd0f5d9c55df8db7816106b18787610f6f565b8152602001908152602001600020549050600081116107025760405162461bcd60e51b815260206004820152600d60248201526c3ab735b737bbb7103a37b5b2b760991b60448201526064016101c5565b8161070e60018361154d565b8154811061071e5761071e611537565b90600052602060002090600402019250505092915050565b8054600090600160b01b90046001600160401b0316158061011e5750815442600160b01b9091046001600160401b03161192915050565b60006001600160401b038211156107d55760405162461bcd60e51b815260206004820152602660248201527f53616665436173743a2076616c756520646f65736e27742066697420696e203660448201526534206269747360d01b60648201526084016101c5565b5090565b60008181527fc6aafbe0f74bbe68eec7559401d7d311a092b5c4d8feb0452323e4ba73d8d8d160208190526040909120547f4f24f5c433db0962dac0d2c8b84197a6e6c7cc4e5d9ebe1916a1b6193da2f33a908015806108575750601182015461085390600160801b90046001600160401b0316826114ed565b4210155b6108a35760405162461bcd60e51b815260206004820152601c60248201527f746f6f20636c6f736520746f2070726576696f7573207570646174650000000060448201526064016101c5565b5050600091825260205260409020429055565b600063ffffffff8211156107d55760405162461bcd60e51b815260206004820152602660248201527f53616665436173743a2076616c756520646f65736e27742066697420696e203360448201526532206269747360d01b60648201526084016101c5565b610923610ffa565b60408051610140810190915282548190600160a01b900460ff16600281111561094e5761094e611140565b815283546001600160a01b038116602083015260ff600160a81b8204811660408401526001600160401b03600160b01b8304166060840152600160f01b909104161515608082015260018401805460a0909201916109ab90611560565b80601f01602080910402602001604051908101604052809291908181526020018280546109d790611560565b8015610a245780601f106109f957610100808354040283529160200191610a24565b820191906000526020600020905b815481529060010190602001808311610a0757829003601f168201915b50505050508152602001836002018054610a3d90611560565b80601f0160208091040260200160405190810160405280929190818152602001828054610a6990611560565b8015610ab65780601f10610a8b57610100808354040283529160200191610ab6565b820191906000526020600020905b815481529060010190602001808311610a9957829003601f168201915b505050918352505060039093015463ffffffff8082166020860152640100000000820481166040860152600160401b909104166060909301929092525090565b60208101516000907fec7e8c1c441439dd40959777f4c577ea0cd42fcc1dbe59d2bd0f5d9c55df8db6906001600160a01b0316610b625760405162461bcd60e51b815260206004820152600a602482015269746f6b656e207a65726f60b01b60448201526064016101c5565b6000610b7684600001518560200151610f6f565b600081815260018401602052604090205490915015610bce5760405162461bcd60e51b8152602060048201526014602482015273746f6b656e20616c72656164792065786973747360601b60448201526064016101c5565b606084015115610c205760405162461bcd60e51b815260206004820152601b60248201527f63616e6e6f7420616464206465707265636174656420746f6b656e000000000060448201526064016101c5565b6000846101000151612710108015610c4157508460e0015185610100015111155b8015610c5657508461012001518560e0015111155b905080610ca15760405162461bcd60e51b8152602060048201526019602482015278696e76616c696420636f6c6c61746572616c20726174696f7360381b60448201526064016101c5565b82546040805161014081019091526020808801516001600160a01b0316825287518692918201906002811115610cd957610cd9611140565b8152602001610ceb8960400151610f99565b60ff168152602001610d00896060015161076d565b6001600160401b031681526020018860800151151581526020018860a0015181526020018860c001518152602001610d3b8960e001516108b6565b63ffffffff168152602001610d548961010001516108b6565b63ffffffff168152602001610d6d8961012001516108b6565b63ffffffff16905281546001810183556000928352602092839020825160049092020180546001600160a01b031981166001600160a01b03909316928317825593830151929390929183916001600160a81b03191617600160a01b836002811115610dda57610dda611140565b021790555060408201518154606084015160808501511515600160f01b0260ff60f01b196001600160401b03909216600160b01b0267ffffffffffffffff60b01b1960ff909516600160a81b029490941668ffffffffffffffffff60a81b1990931692909217929092179190911617815560a08201516001820190610e5f90826115ea565b5060c08201516002820190610e7490826115ea565b5060e0820151600390910180546101008401516101209094015163ffffffff908116600160401b026bffffffff0000000000000000199582166401000000000267ffffffffffffffff1990931691909416171792909216179055610ed98160016114ed565b600084815260018601602052604090205585517fbef4c272617e8773ee6209dd5f05e50ca5be37232b0c94cb8439d8a56bfdb7ce906002811115610f1f57610f1f611140565b8760200151886040015189608001518a60a001518b60c001518c60e001518d61010001518e6101200151604051610f5e999897969594939291906116a9565b60405180910390a195945050505050565b6000816001600160a01b031660a0846002811115610f8f57610f8f611140565b901b179392505050565b600060ff8211156107d55760405162461bcd60e51b815260206004820152602560248201527f53616665436173743a2076616c756520646f65736e27742066697420696e2038604482015264206269747360d81b60648201526084016101c5565b604080516101408101909152806000815260200160006001600160a01b03168152602001600081526020016000815260200160001515815260200160608152602001606081526020016000815260200160008152602001600081525090565b80356003811061106857600080fd5b919050565b80356001600160a01b038116811461106857600080fd5b60008060006060848603121561109957600080fd5b6110a284611059565b92506110b06020850161106d565b9150604084013590509250925092565b600080600080600060a086880312156110d857600080fd5b6110e186611059565b94506110ef6020870161106d565b94979496505050506040830135926060810135926080909101359150565b6000806040838503121561112057600080fd5b61112983611059565b91506111376020840161106d565b90509250929050565b634e487b7160e01b600052602160045260246000fd5b6003811061117457634e487b7160e01b600052602160045260246000fd5b9052565b6000815180845260005b8181101561119e57602081850181015186830182015201611182565b506000602082860101526020601f19601f83011685010191505092915050565b60006101406111ce848451611156565b60208301516111e860208601826001600160a01b03169052565b5060408301516040850152606083015160608501526080830151611210608086018215159052565b5060a08301518160a086015261122882860182611178565b91505060c083015184820360c08601526112428282611178565b60e085810151908701526101008086015190870152610120948501519490950193909352509192915050565b60208152600061011b60208301846111be565b600060208083016020845280855180835260408601915060408160051b87010192506020870160005b828110156112d857603f198886030184526112c68583516111be565b945092850192908501906001016112aa565b5092979650505050505050565b6000602082840312156112f757600080fd5b81356001600160401b0381111561130d57600080fd5b8201610140818503121561132057600080fd5b9392505050565b634e487b7160e01b600052604160045260246000fd5b60405161014081016001600160401b038111828210171561136057611360611327565b60405290565b8035801515811461106857600080fd5b600082601f83011261138757600080fd5b81356001600160401b03808211156113a1576113a1611327565b604051601f8301601f19908116603f011681019082821181831017156113c9576113c9611327565b816040528381528660208588010111156113e257600080fd5b836020870160208301376000602085830101528094505050505092915050565b6000610140823603121561141557600080fd5b61141d61133d565b61142683611059565b81526114346020840161106d565b6020820152604083013560408201526060830135606082015261145960808401611366565b608082015260a08301356001600160401b038082111561147857600080fd5b61148436838701611376565b60a084015260c085013591508082111561149d57600080fd5b506114aa36828601611376565b60c08301525060e08381013590820152610100808401359082015261012092830135928101929092525090565b634e487b7160e01b600052601160045260246000fd5b8082018082111561011e5761011e6114d7565b6001600160e01b0319841681526060810161151e6020830185611156565b6001600160a01b03929092166040919091015292915050565b634e487b7160e01b600052603260045260246000fd5b8181038181111561011e5761011e6114d7565b600181811c9082168061157457607f821691505b60208210810361159457634e487b7160e01b600052602260045260246000fd5b50919050565b601f8211156100e8576000816000526020600020601f850160051c810160208610156115c35750805b601f850160051c820191505b818110156115e2578281556001016115cf565b505050505050565b81516001600160401b0381111561160357611603611327565b611617816116118454611560565b8461159a565b602080601f83116001811461164c57600084156116345750858301515b600019600386901b1c1916600185901b1785556115e2565b600085815260208120601f198616915b8281101561167b5788860151825594840194600190910190840161165c565b50858210156116995787850151600019600388901b60f8161c191681555b5050505050600190811b01905550565b60ff8a1681526001600160a01b0389166020820152604081018890528615156060820152610120608082018190526000906116e683820189611178565b905082810360a08401526116fa8188611178565b60c0840196909652505060e081019290925261010090910152969550505050505056fea264697066735822122005e202378859e181b5103da3d5970417f24aa1a3b8821d83b1918ad69f1325fa64736f6c63430008170033",
  "linkReferences": {},
  "deployedLinkReferences": {}
}