{
  "_format": "hh-sol-artifact-1",
  "contractName": "CollateralTypesFacet",
  "sourceName": "contracts/assetManager/facets/CollateralTypesFacet.sol",
  "abi": [
    {
      "inputs": [],
      "name": "CannotAddDeprecatedToken",
      "type": "error"
    },
    {
      "inputs": [],
      "name": "DeprecationTimeToShort",
      "type": "error"
    },
    {
      "inputs": [],
      "name": "EmergencyPauseActive",
      "type": "error"
    },
    {
      "inputs": [],
      "name": "InvalidCollateralRatios",
      "type": "error"
    },
    {
      "inputs": [],
      "name": "NotAVaultCollateral",
      "type": "error"
    },
    {
      "inputs": [],
      "name": "NotAttached",
      "type": "error"
    },
    {
      "inputs": [],
      "name": "NotWhitelisted",
      "type": "error"
    },
    {
      "inputs": [],
      "name": "OnlyAssetManagerController",
      "type": "error"
    },
    {
      "inputs": [],
      "name": "TokenAlreadyExists",
      "type": "error"
    },
    {
      "inputs": [],
      "name": "TokenNotValid",
      "type": "error"
    },
    {
      "inputs": [],
      "name": "TokenZero",
      "type": "error"
    },
    {
      "inputs": [],
      "name": "TooCloseToPreviousUpdate",
      "type": "error"
    },
    {
      "inputs": [],
      "name": "UnknownToken",
      "type": "error"
    },
    {
      "anonymous": false,
      "inputs": [
        {
          "indexed": false,
          "internalType": "uint8",
          "name": "collateralClass",
          "type": "uint8"
        },
        {
          "indexed": false,
          "internalType": "address",
          "name": "collateralToken",
          "type": "address"
        },
        {
          "indexed": false,
          "internalType": "uint256",
          "name": "minCollateralRatioBIPS",
          "type": "uint256"
        },
        {
          "indexed": false,
          "internalType": "uint256",
          "name": "safetyMinCollateralRatioBIPS",
          "type": "uint256"
        }
      ],
      "name": "CollateralRatiosChanged",
      "type": "event"
    },
    {
      "anonymous": false,
      "inputs": [
        {
          "indexed": false,
          "internalType": "uint8",
          "name": "collateralClass",
          "type": "uint8"
        },
        {
          "indexed": false,
          "internalType": "address",
          "name": "token",
          "type": "address"
        },
        {
          "indexed": false,
          "internalType": "uint256",
          "name": "decimals",
          "type": "uint256"
        },
        {
          "indexed": false,
          "internalType": "bool",
          "name": "directPricePair",
          "type": "bool"
        },
        {
          "indexed": false,
          "internalType": "string",
          "name": "assetFtsoSymbol",
          "type": "string"
        },
        {
          "indexed": false,
          "internalType": "string",
          "name": "tokenFtsoSymbol",
          "type": "string"
        },
        {
          "indexed": false,
          "internalType": "uint256",
          "name": "minCollateralRatioBIPS",
          "type": "uint256"
        },
        {
          "indexed": false,
          "internalType": "uint256",
          "name": "safetyMinCollateralRatioBIPS",
          "type": "uint256"
        }
      ],
      "name": "CollateralTypeAdded",
      "type": "event"
    },
    {
      "anonymous": false,
      "inputs": [
        {
          "indexed": false,
          "internalType": "uint8",
          "name": "collateralClass",
          "type": "uint8"
        },
        {
          "indexed": false,
          "internalType": "address",
          "name": "collateralToken",
          "type": "address"
        },
        {
          "indexed": false,
          "internalType": "uint256",
          "name": "validUntil",
          "type": "uint256"
        }
      ],
      "name": "CollateralTypeDeprecated",
      "type": "event"
    },
    {
      "inputs": [
        {
          "components": [
            {
              "internalType": "enum CollateralType.Class",
              "name": "collateralClass",
              "type": "uint8"
            },
            {
              "internalType": "contract IERC20",
              "name": "token",
              "type": "address"
            },
            {
              "internalType": "uint256",
              "name": "decimals",
              "type": "uint256"
            },
            {
              "internalType": "uint256",
              "name": "validUntil",
              "type": "uint256"
            },
            {
              "internalType": "bool",
              "name": "directPricePair",
              "type": "bool"
            },
            {
              "internalType": "string",
              "name": "assetFtsoSymbol",
              "type": "string"
            },
            {
              "internalType": "string",
              "name": "tokenFtsoSymbol",
              "type": "string"
            },
            {
              "internalType": "uint256",
              "name": "minCollateralRatioBIPS",
              "type": "uint256"
            },
            {
              "internalType": "uint256",
              "name": "safetyMinCollateralRatioBIPS",
              "type": "uint256"
            }
          ],
          "internalType": "struct CollateralType.Data",
          "name": "_data",
          "type": "tuple"
        }
      ],
      "name": "addCollateralType",
      "outputs": [],
      "stateMutability": "nonpayable",
      "type": "function"
    },
    {
      "inputs": [
        {
          "internalType": "enum CollateralType.Class",
          "name": "_collateralClass",
          "type": "uint8"
        },
        {
          "internalType": "contract IERC20",
          "name": "_token",
          "type": "address"
        },
        {
          "internalType": "uint256",
          "name": "_invalidationTimeSec",
          "type": "uint256"
        }
      ],
      "name": "deprecateCollateralType",
      "outputs": [],
      "stateMutability": "nonpayable",
      "type": "function"
    },
    {
      "inputs": [
        {
          "internalType": "enum CollateralType.Class",
          "name": "_collateralClass",
          "type": "uint8"
        },
        {
          "internalType": "contract IERC20",
          "name": "_token",
          "type": "address"
        }
      ],
      "name": "getCollateralType",
      "outputs": [
        {
          "components": [
            {
              "internalType": "enum CollateralType.Class",
              "name": "collateralClass",
              "type": "uint8"
            },
            {
              "internalType": "contract IERC20",
              "name": "token",
              "type": "address"
            },
            {
              "internalType": "uint256",
              "name": "decimals",
              "type": "uint256"
            },
            {
              "internalType": "uint256",
              "name": "validUntil",
              "type": "uint256"
            },
            {
              "internalType": "bool",
              "name": "directPricePair",
              "type": "bool"
            },
            {
              "internalType": "string",
              "name": "assetFtsoSymbol",
              "type": "string"
            },
            {
              "internalType": "string",
              "name": "tokenFtsoSymbol",
              "type": "string"
            },
            {
              "internalType": "uint256",
              "name": "minCollateralRatioBIPS",
              "type": "uint256"
            },
            {
              "internalType": "uint256",
              "name": "safetyMinCollateralRatioBIPS",
              "type": "uint256"
            }
          ],
          "internalType": "struct CollateralType.Data",
          "name": "",
          "type": "tuple"
        }
      ],
      "stateMutability": "view",
      "type": "function"
    },
    {
      "inputs": [],
      "name": "getCollateralTypes",
      "outputs": [
        {
          "components": [
            {
              "internalType": "enum CollateralType.Class",
              "name": "collateralClass",
              "type": "uint8"
            },
            {
              "internalType": "contract IERC20",
              "name": "token",
              "type": "address"
            },
            {
              "internalType": "uint256",
              "name": "decimals",
              "type": "uint256"
            },
            {
              "internalType": "uint256",
              "name": "validUntil",
              "type": "uint256"
            },
            {
              "internalType": "bool",
              "name": "directPricePair",
              "type": "bool"
            },
            {
              "internalType": "string",
              "name": "assetFtsoSymbol",
              "type": "string"
            },
            {
              "internalType": "string",
              "name": "tokenFtsoSymbol",
              "type": "string"
            },
            {
              "internalType": "uint256",
              "name": "minCollateralRatioBIPS",
              "type": "uint256"
            },
            {
              "internalType": "uint256",
              "name": "safetyMinCollateralRatioBIPS",
              "type": "uint256"
            }
          ],
          "internalType": "struct CollateralType.Data[]",
          "name": "_collateralTypes",
          "type": "tuple[]"
        }
      ],
      "stateMutability": "view",
      "type": "function"
    },
    {
      "inputs": [
        {
          "internalType": "enum CollateralType.Class",
          "name": "_collateralClass",
          "type": "uint8"
        },
        {
          "internalType": "contract IERC20",
          "name": "_token",
          "type": "address"
        },
        {
          "internalType": "uint256",
          "name": "_minCollateralRatioBIPS",
          "type": "uint256"
        },
        {
          "internalType": "uint256",
          "name": "_safetyMinCollateralRatioBIPS",
          "type": "uint256"
        }
      ],
      "name": "setCollateralRatiosForToken",
      "outputs": [],
      "stateMutability": "nonpayable",
      "type": "function"
    }
  ],
  "bytecode": "0x6080604052348015600f57600080fd5b506114b68061001f6000396000f3fe608060405234801561001057600080fd5b50600436106100575760003560e01c80630f8d62c91461005c57806313199ee0146100715780634610bc231461008457806382dede26146100ad578063b18e8e67146100c2575b600080fd5b61006f61006a366004610de6565b6100d5565b005b61006f61007f366004610e53565b6100f1565b610097610092366004610e90565b61024d565b6040516100a49190610fe8565b60405180910390f35b6100b5610268565b6040516100a49190610ffb565b61006f6100d0366004611060565b610277565b6100dd6103c0565b6100ee6100e98261117e565b61040b565b50565b6100f96103c0565b7f4f24f5c433db0962dac0d2c8b84197a6e6c7cc4e5d9ebe1916a1b6193da2f33a6000610126858561044b565b8054909150600160b01b90046001600160401b031615806101585750805442600160b01b9091046001600160401b0316115b610175576040516358700a0160e11b815260040160405180910390fd5b6012820154600160401b90046001600160401b03168310156101aa576040516366a35a7760e01b815260040160405180910390fd5b60006101b68442611262565b90506101c181610501565b82546001600160401b0391909116600160b01b0267ffffffffffffffff60b01b199091161782557ffa93c441628a8345854526201d5fec9110fe2e4ad5a0822eb6eda950864075e686600281111561021b5761021b610ec3565b6040805160ff90921682526001600160a01b0388166020830152810183905260600160405180910390a1505050505050565b610255610d8e565b61025f8383610572565b90505b92915050565b6060610272610599565b905090565b61027f6103c0565b600080356001600160e01b03191685856040516020016102a193929190611275565b6040516020818303038152906040528051906020012090506102c281610675565b6000836127101080156102d55750828411155b9050806102f557604051631654ba8b60e11b815260040160405180910390fd5b6000610301878761044b565b905061030c85610723565b60038201805463ffffffff191663ffffffff9290921691909117905561033184610723565b8160030160086101000a81548163ffffffff021916908363ffffffff1602179055507fc55dbd357742f80f67e700f698752534baf140c57d79c9233707e97eb370b34487600281111561038657610386610ec3565b6040805160ff90921682526001600160a01b038916602083015281018790526060810186905260800160405180910390a150505050505050565b7f4f24f5c433db0962dac0d2c8b84197a6e6c7cc4e5d9ebe1916a1b6193da2f33a80546001600160a01b031633146100ee57604051634ae14edf60e11b815260040160405180910390fd5b60028151600281111561042057610420610ec3565b1461043e57604051630a2a2d9760e31b815260040160405180910390fd5b61044781610788565b5050565b60007fec7e8c1c441439dd40959777f4c577ea0cd42fcc1dbe59d2bd0f5d9c55df8db6817fec7e8c1c441439dd40959777f4c577ea0cd42fcc1dbe59d2bd0f5d9c55df8db78161049b8787610b37565b8152602001908152602001600020549050600081116104cd57604051638698bf3760e01b815260040160405180910390fd5b816104d96001836112ac565b815481106104e9576104e96112bf565b90600052602060002090600402019250505092915050565b60006001600160401b0382111561056e5760405162461bcd60e51b815260206004820152602660248201527f53616665436173743a2076616c756520646f65736e27742066697420696e203660448201526534206269747360d01b60648201526084015b60405180910390fd5b5090565b61057a610d8e565b6000610586848461044b565b905061059181610b61565b949350505050565b7fec7e8c1c441439dd40959777f4c577ea0cd42fcc1dbe59d2bd0f5d9c55df8db6805460609190806001600160401b038111156105d8576105d86110a2565b60405190808252806020026020018201604052801561061157816020015b6105fe610d8e565b8152602001906001900390816105f65790505b50925060005b8181101561066f5761064a836000018281548110610637576106376112bf565b9060005260206000209060040201610b61565b84828151811061065c5761065c6112bf565b6020908102919091010152600101610617565b50505090565b60008181527fc6aafbe0f74bbe68eec7559401d7d311a092b5c4d8feb0452323e4ba73d8d8d160208190526040909120547f4f24f5c433db0962dac0d2c8b84197a6e6c7cc4e5d9ebe1916a1b6193da2f33a908015806106f3575060118201546106ef90600160801b90046001600160401b031682611262565b4210155b61071057604051630e216b9960e31b815260040160405180910390fd5b5050600091825260205260409020429055565b600063ffffffff82111561056e5760405162461bcd60e51b815260206004820152602660248201527f53616665436173743a2076616c756520646f65736e27742066697420696e203360448201526532206269747360d01b6064820152608401610565565b60208101516000907fec7e8c1c441439dd40959777f4c577ea0cd42fcc1dbe59d2bd0f5d9c55df8db6906001600160a01b03166107d85760405163ab42242d60e01b815260040160405180910390fd5b60006107ec84600001518560200151610b37565b60008181526001840160205260409020549091501561081e5760405163c991cbb160e01b815260040160405180910390fd5b606084015115610841576040516308d5b2cb60e31b815260040160405180910390fd5b60008460e0015161271010801561086157508461010001518560e0015111155b90508061088157604051631654ba8b60e11b815260040160405180910390fd5b82546040805161014081019091526020808801516001600160a01b03168252875186929182019060028111156108b9576108b9610ec3565b81526020016108cb8960400151610d2d565b60ff1681526020016108e08960600151610501565b6001600160401b031681526020018860800151151581526020018860a0015181526020018860c00151815260200161091b8960e00151610723565b63ffffffff168152602001600063ffffffff168152602001610941896101000151610723565b63ffffffff16905281546001810183556000928352602092839020825160049092020180546001600160a01b031981166001600160a01b03909316928317825593830151929390929183916001600160a81b03191617600160a01b8360028111156109ae576109ae610ec3565b021790555060408201518154606084015160808501511515600160f01b0260ff60f01b196001600160401b03909216600160b01b0267ffffffffffffffff60b01b1960ff909516600160a81b029490941668ffffffffffffffffff60a81b1990931692909217929092179190911617815560a08201516001820190610a33908261135e565b5060c08201516002820190610a48908261135e565b5060e0820151600390910180546101008401516101209094015163ffffffff908116600160401b026bffffffff0000000000000000199582166401000000000267ffffffffffffffff1990931691909416171792909216179055610aad816001611262565b600084815260018601602052604090205585517fc4531f4cebd6a3b1974b381202c861ca7d302755db0d983686b77c75be048455906002811115610af357610af3610ec3565b60208801516040808a015160808b015160a08c015160c08d015160e08e01516101008f01519551610b269897969061141c565b60405180910390a195945050505050565b6000816001600160a01b031660a0846002811115610b5757610b57610ec3565b901b179392505050565b610b69610d8e565b60408051610120810190915282548190600160a01b900460ff166002811115610b9457610b94610ec3565b815283546001600160a01b038116602083015260ff600160a81b8204811660408401526001600160401b03600160b01b8304166060840152600160f01b909104161515608082015260018401805460a090920191610bf1906112d5565b80601f0160208091040260200160405190810160405280929190818152602001828054610c1d906112d5565b8015610c6a5780601f10610c3f57610100808354040283529160200191610c6a565b820191906000526020600020905b815481529060010190602001808311610c4d57829003601f168201915b50505050508152602001836002018054610c83906112d5565b80601f0160208091040260200160405190810160405280929190818152602001828054610caf906112d5565b8015610cfc5780601f10610cd157610100808354040283529160200191610cfc565b820191906000526020600020905b815481529060010190602001808311610cdf57829003601f168201915b505050918352505060039093015463ffffffff8082166020860152600160401b909104166040909301929092525090565b600060ff82111561056e5760405162461bcd60e51b815260206004820152602560248201527f53616665436173743a2076616c756520646f65736e27742066697420696e2038604482015264206269747360d81b6064820152608401610565565b604080516101208101909152806000815260200160006001600160a01b031681526020016000815260200160008152602001600015158152602001606081526020016060815260200160008152602001600081525090565b600060208284031215610df857600080fd5b81356001600160401b03811115610e0e57600080fd5b82016101208185031215610e2157600080fd5b9392505050565b803560038110610e3757600080fd5b919050565b80356001600160a01b0381168114610e3757600080fd5b600080600060608486031215610e6857600080fd5b610e7184610e28565b9250610e7f60208501610e3c565b929592945050506040919091013590565b60008060408385031215610ea357600080fd5b610eac83610e28565b9150610eba60208401610e3c565b90509250929050565b634e487b7160e01b600052602160045260246000fd5b60038110610ef757634e487b7160e01b600052602160045260246000fd5b9052565b6000815180845260005b81811015610f2157602081850181015186830182015201610f05565b506000602082860101526020601f19601f83011685010191505092915050565b610f4c828251610ed9565b60006020820151610f6860208501826001600160a01b03169052565b5060408201516040840152606082015160608401526080820151610f90608085018215159052565b5060a082015161012060a0850152610fac610120850182610efb565b905060c083015184820360c0860152610fc58282610efb565b91505060e083015160e08501526101008301516101008501528091505092915050565b60208152600061025f6020830184610f41565b6000602082016020835280845180835260408501915060408160051b86010192506020860160005b8281101561105457603f1987860301845261103f858351610f41565b94506020938401939190910190600101611023565b50929695505050505050565b6000806000806080858703121561107657600080fd5b61107f85610e28565b935061108d60208601610e3c565b93969395505050506040820135916060013590565b634e487b7160e01b600052604160045260246000fd5b60405161012081016001600160401b03811182821017156110db576110db6110a2565b60405290565b80358015158114610e3757600080fd5b600082601f83011261110257600080fd5b81356001600160401b0381111561111b5761111b6110a2565b604051601f8201601f19908116603f011681016001600160401b0381118282101715611149576111496110a2565b60405281815283820160200185101561116157600080fd5b816020850160208301376000918101602001919091529392505050565b6000610120823603121561119157600080fd5b6111996110b8565b6111a283610e28565b81526111b060208401610e3c565b602082015260408381013590820152606080840135908201526111d5608084016110e1565b608082015260a08301356001600160401b038111156111f357600080fd5b6111ff368286016110f1565b60a08301525060c08301356001600160401b0381111561121e57600080fd5b61122a368286016110f1565b60c08301525060e0838101359082015261010092830135928101929092525090565b634e487b7160e01b600052601160045260246000fd5b808201808211156102625761026261124c565b6001600160e01b031984168152606081016112936020830185610ed9565b6001600160a01b03929092166040919091015292915050565b818103818111156102625761026261124c565b634e487b7160e01b600052603260045260246000fd5b600181811c908216806112e957607f821691505b60208210810361130957634e487b7160e01b600052602260045260246000fd5b50919050565b601f82111561135957806000526020600020601f840160051c810160208510156113365750805b601f840160051c820191505b818110156113565760008155600101611342565b50505b505050565b81516001600160401b03811115611377576113776110a2565b61138b8161138584546112d5565b8461130f565b6020601f8211600181146113bf57600083156113a75750848201515b600019600385901b1c1916600184901b178455611356565b600084815260208120601f198516915b828110156113ef57878501518255602094850194600190920191016113cf565b508482101561140d5786840151600019600387901b60f8161c191681555b50505050600190811b01905550565b60ff8916815260018060a01b0388166020820152866040820152851515606082015261010060808201526000611456610100830187610efb565b82810360a08401526114688187610efb565b60c0840195909552505060e00152969550505050505056fea26469706673582212209a0d816b0e27f4ade336ac35821132f1c10437c9613e75ac2a2e2c462e733f3864736f6c634300081b0033",
  "linkReferences": {},
  "deployedLinkReferences": {}
}