{
  "_format": "hh-sol-artifact-1",
  "contractName": "CollateralTypesFacet",
  "sourceName": "contracts/assetManager/facets/CollateralTypesFacet.sol",
  "abi": [
    {
      "inputs": [],
      "name": "CannotAddDeprecatedToken",
      "type": "error"
    },
    {
      "inputs": [],
      "name": "EmergencyPauseActive",
      "type": "error"
    },
    {
      "inputs": [],
      "name": "InvalidCollateralRatios",
      "type": "error"
    },
    {
      "inputs": [],
      "name": "NotAVaultCollateral",
      "type": "error"
    },
    {
      "inputs": [],
      "name": "NotAttached",
      "type": "error"
    },
    {
      "inputs": [],
      "name": "NotWhitelisted",
      "type": "error"
    },
    {
      "inputs": [],
      "name": "OnlyAssetManagerController",
      "type": "error"
    },
    {
      "inputs": [],
      "name": "PriceNotInitialized",
      "type": "error"
    },
    {
      "inputs": [],
      "name": "TokenAlreadyExists",
      "type": "error"
    },
    {
      "inputs": [],
      "name": "TokenZero",
      "type": "error"
    },
    {
      "inputs": [],
      "name": "TooCloseToPreviousUpdate",
      "type": "error"
    },
    {
      "inputs": [],
      "name": "UnknownToken",
      "type": "error"
    },
    {
      "anonymous": false,
      "inputs": [
        {
          "indexed": false,
          "internalType": "uint8",
          "name": "collateralClass",
          "type": "uint8"
        },
        {
          "indexed": false,
          "internalType": "address",
          "name": "collateralToken",
          "type": "address"
        },
        {
          "indexed": false,
          "internalType": "uint256",
          "name": "minCollateralRatioBIPS",
          "type": "uint256"
        },
        {
          "indexed": false,
          "internalType": "uint256",
          "name": "safetyMinCollateralRatioBIPS",
          "type": "uint256"
        }
      ],
      "name": "CollateralRatiosChanged",
      "type": "event"
    },
    {
      "anonymous": false,
      "inputs": [
        {
          "indexed": false,
          "internalType": "uint8",
          "name": "collateralClass",
          "type": "uint8"
        },
        {
          "indexed": false,
          "internalType": "address",
          "name": "token",
          "type": "address"
        },
        {
          "indexed": false,
          "internalType": "uint256",
          "name": "decimals",
          "type": "uint256"
        },
        {
          "indexed": false,
          "internalType": "bool",
          "name": "directPricePair",
          "type": "bool"
        },
        {
          "indexed": false,
          "internalType": "string",
          "name": "assetFtsoSymbol",
          "type": "string"
        },
        {
          "indexed": false,
          "internalType": "string",
          "name": "tokenFtsoSymbol",
          "type": "string"
        },
        {
          "indexed": false,
          "internalType": "uint256",
          "name": "minCollateralRatioBIPS",
          "type": "uint256"
        },
        {
          "indexed": false,
          "internalType": "uint256",
          "name": "safetyMinCollateralRatioBIPS",
          "type": "uint256"
        }
      ],
      "name": "CollateralTypeAdded",
      "type": "event"
    },
    {
      "inputs": [
        {
          "components": [
            {
              "internalType": "enum CollateralType.Class",
              "name": "collateralClass",
              "type": "uint8"
            },
            {
              "internalType": "contract IERC20",
              "name": "token",
              "type": "address"
            },
            {
              "internalType": "uint256",
              "name": "decimals",
              "type": "uint256"
            },
            {
              "internalType": "uint256",
              "name": "validUntil",
              "type": "uint256"
            },
            {
              "internalType": "bool",
              "name": "directPricePair",
              "type": "bool"
            },
            {
              "internalType": "string",
              "name": "assetFtsoSymbol",
              "type": "string"
            },
            {
              "internalType": "string",
              "name": "tokenFtsoSymbol",
              "type": "string"
            },
            {
              "internalType": "uint256",
              "name": "minCollateralRatioBIPS",
              "type": "uint256"
            },
            {
              "internalType": "uint256",
              "name": "safetyMinCollateralRatioBIPS",
              "type": "uint256"
            }
          ],
          "internalType": "struct CollateralType.Data",
          "name": "_data",
          "type": "tuple"
        }
      ],
      "name": "addCollateralType",
      "outputs": [],
      "stateMutability": "nonpayable",
      "type": "function"
    },
    {
      "inputs": [
        {
          "internalType": "enum CollateralType.Class",
          "name": "_collateralClass",
          "type": "uint8"
        },
        {
          "internalType": "contract IERC20",
          "name": "_token",
          "type": "address"
        }
      ],
      "name": "getCollateralType",
      "outputs": [
        {
          "components": [
            {
              "internalType": "enum CollateralType.Class",
              "name": "collateralClass",
              "type": "uint8"
            },
            {
              "internalType": "contract IERC20",
              "name": "token",
              "type": "address"
            },
            {
              "internalType": "uint256",
              "name": "decimals",
              "type": "uint256"
            },
            {
              "internalType": "uint256",
              "name": "validUntil",
              "type": "uint256"
            },
            {
              "internalType": "bool",
              "name": "directPricePair",
              "type": "bool"
            },
            {
              "internalType": "string",
              "name": "assetFtsoSymbol",
              "type": "string"
            },
            {
              "internalType": "string",
              "name": "tokenFtsoSymbol",
              "type": "string"
            },
            {
              "internalType": "uint256",
              "name": "minCollateralRatioBIPS",
              "type": "uint256"
            },
            {
              "internalType": "uint256",
              "name": "safetyMinCollateralRatioBIPS",
              "type": "uint256"
            }
          ],
          "internalType": "struct CollateralType.Data",
          "name": "",
          "type": "tuple"
        }
      ],
      "stateMutability": "view",
      "type": "function"
    },
    {
      "inputs": [],
      "name": "getCollateralTypes",
      "outputs": [
        {
          "components": [
            {
              "internalType": "enum CollateralType.Class",
              "name": "collateralClass",
              "type": "uint8"
            },
            {
              "internalType": "contract IERC20",
              "name": "token",
              "type": "address"
            },
            {
              "internalType": "uint256",
              "name": "decimals",
              "type": "uint256"
            },
            {
              "internalType": "uint256",
              "name": "validUntil",
              "type": "uint256"
            },
            {
              "internalType": "bool",
              "name": "directPricePair",
              "type": "bool"
            },
            {
              "internalType": "string",
              "name": "assetFtsoSymbol",
              "type": "string"
            },
            {
              "internalType": "string",
              "name": "tokenFtsoSymbol",
              "type": "string"
            },
            {
              "internalType": "uint256",
              "name": "minCollateralRatioBIPS",
              "type": "uint256"
            },
            {
              "internalType": "uint256",
              "name": "safetyMinCollateralRatioBIPS",
              "type": "uint256"
            }
          ],
          "internalType": "struct CollateralType.Data[]",
          "name": "_collateralTypes",
          "type": "tuple[]"
        }
      ],
      "stateMutability": "view",
      "type": "function"
    },
    {
      "inputs": [
        {
          "internalType": "enum CollateralType.Class",
          "name": "_collateralClass",
          "type": "uint8"
        },
        {
          "internalType": "contract IERC20",
          "name": "_token",
          "type": "address"
        },
        {
          "internalType": "uint256",
          "name": "_minCollateralRatioBIPS",
          "type": "uint256"
        },
        {
          "internalType": "uint256",
          "name": "_safetyMinCollateralRatioBIPS",
          "type": "uint256"
        }
      ],
      "name": "setCollateralRatiosForToken",
      "outputs": [],
      "stateMutability": "nonpayable",
      "type": "function"
    }
  ],
  "bytecode": "0x6080604052348015600f57600080fd5b5061145d8061001f6000396000f3fe608060405234801561001057600080fd5b506004361061004c5760003560e01c80630f8d62c9146100515780634610bc231461006657806382dede261461008f578063b18e8e67146100a4575b600080fd5b61006461005f366004610d82565b6100b7565b005b610079610074366004610df0565b6100d3565b6040516100869190610f48565b60405180910390f35b6100976100ee565b6040516100869190610f5b565b6100646100b2366004610fc0565b6100fd565b6100bf610246565b6100d06100cb826110e1565b610291565b50565b6100db610d2a565b6100e583836102d1565b90505b92915050565b60606100f86102f8565b905090565b610105610246565b600080356001600160e01b0319168585604051602001610127939291906111b1565b604051602081830303815290604052805190602001209050610148816103d5565b60008361271010801561015b5750828411155b90508061017b57604051631654ba8b60e11b815260040160405180910390fd5b60006101878787610484565b90506101928561053a565b60038201805463ffffffff191663ffffffff929092169190911790556101b78461053a565b8160030160086101000a81548163ffffffff021916908363ffffffff1602179055507fc55dbd357742f80f67e700f698752534baf140c57d79c9233707e97eb370b34487600281111561020c5761020c610e23565b6040805160ff90921682526001600160a01b038916602083015281018790526060810186905260800160405180910390a150505050505050565b7f4f24f5c433db0962dac0d2c8b84197a6e6c7cc4e5d9ebe1916a1b6193da2f33a80546001600160a01b031633146100d057604051634ae14edf60e11b815260040160405180910390fd5b6002815160028111156102a6576102a6610e23565b146102c457604051630a2a2d9760e31b815260040160405180910390fd5b6102cd816105a8565b5050565b6102d9610d2a565b60006102e58484610484565b90506102f0816109cb565b949350505050565b7fec7e8c1c441439dd40959777f4c577ea0cd42fcc1dbe59d2bd0f5d9c55df8db68054606091908067ffffffffffffffff81111561033857610338611002565b60405190808252806020026020018201604052801561037157816020015b61035e610d2a565b8152602001906001900390816103565790505b50925060005b818110156103cf576103aa836000018281548110610397576103976111e8565b90600052602060002090600402016109cb565b8482815181106103bc576103bc6111e8565b6020908102919091010152600101610377565b50505090565b60008181527fc6aafbe0f74bbe68eec7559401d7d311a092b5c4d8feb0452323e4ba73d8d8d160208190526040909120547f4f24f5c433db0962dac0d2c8b84197a6e6c7cc4e5d9ebe1916a1b6193da2f33a908015806104545750601182015461045090600160801b900467ffffffffffffffff1682611214565b4210155b61047157604051630e216b9960e31b815260040160405180910390fd5b5050600091825260205260409020429055565b60007fec7e8c1c441439dd40959777f4c577ea0cd42fcc1dbe59d2bd0f5d9c55df8db6817fec7e8c1c441439dd40959777f4c577ea0cd42fcc1dbe59d2bd0f5d9c55df8db7816104d48787610b98565b81526020019081526020016000205490506000811161050657604051638698bf3760e01b815260040160405180910390fd5b81610512600183611227565b81548110610522576105226111e8565b90600052602060002090600402019250505092915050565b600063ffffffff8211156105a45760405162461bcd60e51b815260206004820152602660248201527f53616665436173743a2076616c756520646f65736e27742066697420696e203360448201526532206269747360d01b60648201526084015b60405180910390fd5b5090565b60208101516000907fec7e8c1c441439dd40959777f4c577ea0cd42fcc1dbe59d2bd0f5d9c55df8db6906001600160a01b03166105f85760405163ab42242d60e01b815260040160405180910390fd5b600061060c84600001518560200151610b98565b60008181526001840160205260409020549091501561063e5760405163c991cbb160e01b815260040160405180910390fd5b606084015115610661576040516308d5b2cb60e31b815260040160405180910390fd5b60008460e0015161271010801561068157508461010001518560e0015111155b9050806106a157604051631654ba8b60e11b815260040160405180910390fd5b60006106b28660a001516000610bc2565b50509050806000036106d757604051636fdc2d5b60e01b815260040160405180910390fd5b85608001516107185760006106f18760c001516000610bc2565b505090508060000361071657604051636fdc2d5b60e01b815260040160405180910390fd5b505b83546040805161014081019091526020808901516001600160a01b031682528851879291820190600281111561075057610750610e23565b81526020016107628a60400151610cc9565b60ff168152602001600067ffffffffffffffff1681526020018960800151151581526020018960a0015181526020018960c0015181526020016107a88a60e0015161053a565b63ffffffff168152602001600063ffffffff1681526020016107ce8a610100015161053a565b63ffffffff16905281546001810183556000928352602092839020825160049092020180546001600160a01b031981166001600160a01b03909316928317825593830151929390929183916001600160a81b03191617600160a01b83600281111561083b5761083b610e23565b021790555060408201518154606084015160808501511515600160f01b0260ff60f01b1967ffffffffffffffff909216600160b01b0267ffffffffffffffff60b01b1960ff909516600160a81b029490941668ffffffffffffffffff60a81b1990931692909217929092179190911617815560a082015160018201906108c190826112c3565b5060c082015160028201906108d690826112c3565b5060e0820151600390910180546101008401516101209094015163ffffffff908116600160401b026bffffffff0000000000000000199582166401000000000267ffffffffffffffff199093169190941617179290921617905561093b816001611214565b600085815260018701602052604090205586517fc4531f4cebd6a3b1974b381202c861ca7d302755db0d983686b77c75be04845590600281111561098157610981610e23565b886020015189604001518a608001518b60a001518c60c001518d60e001518e61010001516040516109b9989796959493929190611382565b60405180910390a19695505050505050565b6109d3610d2a565b60408051610120810190915282548190600160a01b900460ff1660028111156109fe576109fe610e23565b815283546001600160a01b038116602083015260ff600160a81b82048116604084015267ffffffffffffffff600160b01b8304166060840152600160f01b909104161515608082015260018401805460a090920191610a5c9061123a565b80601f0160208091040260200160405190810160405280929190818152602001828054610a889061123a565b8015610ad55780601f10610aaa57610100808354040283529160200191610ad5565b820191906000526020600020905b815481529060010190602001808311610ab857829003601f168201915b50505050508152602001836002018054610aee9061123a565b80601f0160208091040260200160405190810160405280929190818152602001828054610b1a9061123a565b8015610b675780601f10610b3c57610100808354040283529160200191610b67565b820191906000526020600020905b815481529060010190602001808311610b4a57829003601f168201915b505050918352505060039093015463ffffffff8082166020860152600160401b909104166040909301929092525090565b6000816001600160a01b031660a0846002811115610bb857610bb8610e23565b901b179392505050565b7f4f24f5c433db0962dac0d2c8b84197a6e6c7cc4e5d9ebe1916a1b6193da2f34454600090819081907f4f24f5c433db0962dac0d2c8b84197a6e6c7cc4e5d9ebe1916a1b6193da2f33a906001600160a01b03168515610c965760405163e4a0a55b60e01b81526001600160a01b0382169063e4a0a55b90610c48908a906004016113e6565b606060405180830381865afa158015610c65573d6000803e3d6000fd5b505050506040513d601f19601f82011682018060405250810190610c8991906113f9565b9450945094505050610cc2565b60405163524f388960e01b81526001600160a01b0382169063524f388990610c48908a906004016113e6565b9250925092565b600060ff8211156105a45760405162461bcd60e51b815260206004820152602560248201527f53616665436173743a2076616c756520646f65736e27742066697420696e2038604482015264206269747360d81b606482015260840161059b565b604080516101208101909152806000815260200160006001600160a01b031681526020016000815260200160008152602001600015158152602001606081526020016060815260200160008152602001600081525090565b600060208284031215610d9457600080fd5b813567ffffffffffffffff811115610dab57600080fd5b82016101208185031215610dbe57600080fd5b9392505050565b803560038110610dd457600080fd5b919050565b80356001600160a01b0381168114610dd457600080fd5b60008060408385031215610e0357600080fd5b610e0c83610dc5565b9150610e1a60208401610dd9565b90509250929050565b634e487b7160e01b600052602160045260246000fd5b60038110610e5757634e487b7160e01b600052602160045260246000fd5b9052565b6000815180845260005b81811015610e8157602081850181015186830182015201610e65565b506000602082860101526020601f19601f83011685010191505092915050565b610eac828251610e39565b60006020820151610ec860208501826001600160a01b03169052565b5060408201516040840152606082015160608401526080820151610ef0608085018215159052565b5060a082015161012060a0850152610f0c610120850182610e5b565b905060c083015184820360c0860152610f258282610e5b565b91505060e083015160e08501526101008301516101008501528091505092915050565b6020815260006100e56020830184610ea1565b6000602082016020835280845180835260408501915060408160051b86010192506020860160005b82811015610fb457603f19878603018452610f9f858351610ea1565b94506020938401939190910190600101610f83565b50929695505050505050565b60008060008060808587031215610fd657600080fd5b610fdf85610dc5565b9350610fed60208601610dd9565b93969395505050506040820135916060013590565b634e487b7160e01b600052604160045260246000fd5b604051610120810167ffffffffffffffff8111828210171561103c5761103c611002565b60405290565b80358015158114610dd457600080fd5b600082601f83011261106357600080fd5b813567ffffffffffffffff81111561107d5761107d611002565b604051601f8201601f19908116603f0116810167ffffffffffffffff811182821017156110ac576110ac611002565b6040528181528382016020018510156110c457600080fd5b816020850160208301376000918101602001919091529392505050565b600061012082360312156110f457600080fd5b6110fc611018565b61110583610dc5565b815261111360208401610dd9565b6020820152604083810135908201526060808401359082015261113860808401611042565b608082015260a083013567ffffffffffffffff81111561115757600080fd5b61116336828601611052565b60a08301525060c083013567ffffffffffffffff81111561118357600080fd5b61118f36828601611052565b60c08301525060e0838101359082015261010092830135928101929092525090565b6001600160e01b031984168152606081016111cf6020830185610e39565b6001600160a01b03929092166040919091015292915050565b634e487b7160e01b600052603260045260246000fd5b634e487b7160e01b600052601160045260246000fd5b808201808211156100e8576100e86111fe565b818103818111156100e8576100e86111fe565b600181811c9082168061124e57607f821691505b60208210810361126e57634e487b7160e01b600052602260045260246000fd5b50919050565b601f8211156112be57806000526020600020601f840160051c8101602085101561129b5750805b601f840160051c820191505b818110156112bb57600081556001016112a7565b50505b505050565b815167ffffffffffffffff8111156112dd576112dd611002565b6112f1816112eb845461123a565b84611274565b6020601f821160018114611325576000831561130d5750848201515b600019600385901b1c1916600184901b1784556112bb565b600084815260208120601f198516915b828110156113555787850151825560209485019460019092019101611335565b50848210156113735786840151600019600387901b60f8161c191681555b50505050600190811b01905550565b60ff8916815260018060a01b03881660208201528660408201528515156060820152610100608082015260006113bc610100830187610e5b565b82810360a08401526113ce8187610e5b565b60c0840195909552505060e001529695505050505050565b6020815260006100e56020830184610e5b565b60008060006060848603121561140e57600080fd5b505081516020830151604090930151909492935091905056fea26469706673582212209e163f168be8f91b3358d2617d8e543386c765203fc9ee686692e431eb6552c564736f6c634300081b0033",
  "linkReferences": {},
  "deployedLinkReferences": {}
}