{
  "_format": "hh-sol-artifact-1",
  "contractName": "DiamondCutFacet",
  "sourceName": "contracts/diamond/mock/DiamondCutFacet.sol",
  "abi": [
    {
      "inputs": [
        {
          "internalType": "bytes4",
          "name": "_selector",
          "type": "bytes4"
        }
      ],
      "name": "CannotAddFunctionToDiamondThatAlreadyExists",
      "type": "error"
    },
    {
      "inputs": [
        {
          "internalType": "bytes4[]",
          "name": "_selectors",
          "type": "bytes4[]"
        }
      ],
      "name": "CannotAddSelectorsToZeroAddress",
      "type": "error"
    },
    {
      "inputs": [
        {
          "internalType": "bytes4",
          "name": "_selector",
          "type": "bytes4"
        }
      ],
      "name": "CannotRemoveFunctionThatDoesNotExist",
      "type": "error"
    },
    {
      "inputs": [
        {
          "internalType": "bytes4",
          "name": "_selector",
          "type": "bytes4"
        }
      ],
      "name": "CannotRemoveImmutableFunction",
      "type": "error"
    },
    {
      "inputs": [
        {
          "internalType": "bytes4",
          "name": "_selector",
          "type": "bytes4"
        }
      ],
      "name": "CannotReplaceFunctionThatDoesNotExists",
      "type": "error"
    },
    {
      "inputs": [
        {
          "internalType": "bytes4",
          "name": "_selector",
          "type": "bytes4"
        }
      ],
      "name": "CannotReplaceFunctionWithTheSameFunctionFromTheSameFacet",
      "type": "error"
    },
    {
      "inputs": [
        {
          "internalType": "bytes4[]",
          "name": "_selectors",
          "type": "bytes4[]"
        }
      ],
      "name": "CannotReplaceFunctionsFromFacetWithZeroAddress",
      "type": "error"
    },
    {
      "inputs": [
        {
          "internalType": "bytes4",
          "name": "_selector",
          "type": "bytes4"
        }
      ],
      "name": "CannotReplaceImmutableFunction",
      "type": "error"
    },
    {
      "inputs": [
        {
          "internalType": "uint8",
          "name": "_action",
          "type": "uint8"
        }
      ],
      "name": "IncorrectFacetCutAction",
      "type": "error"
    },
    {
      "inputs": [
        {
          "internalType": "address",
          "name": "_initializationContractAddress",
          "type": "address"
        },
        {
          "internalType": "bytes",
          "name": "_calldata",
          "type": "bytes"
        }
      ],
      "name": "InitializationFunctionReverted",
      "type": "error"
    },
    {
      "inputs": [
        {
          "internalType": "address",
          "name": "_contractAddress",
          "type": "address"
        },
        {
          "internalType": "string",
          "name": "_message",
          "type": "string"
        }
      ],
      "name": "NoBytecodeAtAddress",
      "type": "error"
    },
    {
      "inputs": [
        {
          "internalType": "address",
          "name": "_facetAddress",
          "type": "address"
        }
      ],
      "name": "NoSelectorsProvidedForFacetForCut",
      "type": "error"
    },
    {
      "inputs": [
        {
          "internalType": "address",
          "name": "_facetAddress",
          "type": "address"
        }
      ],
      "name": "RemoveFacetAddressMustBeZeroAddress",
      "type": "error"
    },
    {
      "anonymous": false,
      "inputs": [
        {
          "components": [
            {
              "internalType": "address",
              "name": "facetAddress",
              "type": "address"
            },
            {
              "internalType": "enum IDiamond.FacetCutAction",
              "name": "action",
              "type": "uint8"
            },
            {
              "internalType": "bytes4[]",
              "name": "functionSelectors",
              "type": "bytes4[]"
            }
          ],
          "indexed": false,
          "internalType": "struct IDiamond.FacetCut[]",
          "name": "_diamondCut",
          "type": "tuple[]"
        },
        {
          "indexed": false,
          "internalType": "address",
          "name": "_init",
          "type": "address"
        },
        {
          "indexed": false,
          "internalType": "bytes",
          "name": "_calldata",
          "type": "bytes"
        }
      ],
      "name": "DiamondCut",
      "type": "event"
    },
    {
      "anonymous": false,
      "inputs": [
        {
          "indexed": false,
          "internalType": "bytes",
          "name": "encodedCall",
          "type": "bytes"
        },
        {
          "indexed": false,
          "internalType": "bytes32",
          "name": "encodedCallHash",
          "type": "bytes32"
        },
        {
          "indexed": false,
          "internalType": "uint256",
          "name": "allowedAfterTimestamp",
          "type": "uint256"
        }
      ],
      "name": "GovernanceCallTimelocked",
      "type": "event"
    },
    {
      "anonymous": false,
      "inputs": [
        {
          "indexed": false,
          "internalType": "address",
          "name": "initialGovernance",
          "type": "address"
        }
      ],
      "name": "GovernanceInitialised",
      "type": "event"
    },
    {
      "anonymous": false,
      "inputs": [
        {
          "indexed": false,
          "internalType": "address",
          "name": "governanceSettings",
          "type": "address"
        }
      ],
      "name": "GovernedProductionModeEntered",
      "type": "event"
    },
    {
      "anonymous": false,
      "inputs": [
        {
          "indexed": false,
          "internalType": "bytes32",
          "name": "encodedCallHash",
          "type": "bytes32"
        }
      ],
      "name": "TimelockedGovernanceCallCanceled",
      "type": "event"
    },
    {
      "anonymous": false,
      "inputs": [
        {
          "indexed": false,
          "internalType": "bytes32",
          "name": "encodedCallHash",
          "type": "bytes32"
        }
      ],
      "name": "TimelockedGovernanceCallExecuted",
      "type": "event"
    },
    {
      "inputs": [
        {
          "internalType": "bytes",
          "name": "_encodedCall",
          "type": "bytes"
        }
      ],
      "name": "cancelGovernanceCall",
      "outputs": [],
      "stateMutability": "nonpayable",
      "type": "function"
    },
    {
      "inputs": [
        {
          "components": [
            {
              "internalType": "address",
              "name": "facetAddress",
              "type": "address"
            },
            {
              "internalType": "enum IDiamond.FacetCutAction",
              "name": "action",
              "type": "uint8"
            },
            {
              "internalType": "bytes4[]",
              "name": "functionSelectors",
              "type": "bytes4[]"
            }
          ],
          "internalType": "struct IDiamond.FacetCut[]",
          "name": "_diamondCut",
          "type": "tuple[]"
        },
        {
          "internalType": "address",
          "name": "_init",
          "type": "address"
        },
        {
          "internalType": "bytes",
          "name": "_calldata",
          "type": "bytes"
        }
      ],
      "name": "diamondCut",
      "outputs": [],
      "stateMutability": "nonpayable",
      "type": "function"
    },
    {
      "inputs": [
        {
          "internalType": "bytes",
          "name": "_encodedCall",
          "type": "bytes"
        }
      ],
      "name": "executeGovernanceCall",
      "outputs": [],
      "stateMutability": "nonpayable",
      "type": "function"
    },
    {
      "inputs": [],
      "name": "governance",
      "outputs": [
        {
          "internalType": "address",
          "name": "",
          "type": "address"
        }
      ],
      "stateMutability": "view",
      "type": "function"
    },
    {
      "inputs": [],
      "name": "governanceSettings",
      "outputs": [
        {
          "internalType": "contract IGovernanceSettings",
          "name": "",
          "type": "address"
        }
      ],
      "stateMutability": "view",
      "type": "function"
    },
    {
      "inputs": [
        {
          "internalType": "address",
          "name": "_address",
          "type": "address"
        }
      ],
      "name": "isExecutor",
      "outputs": [
        {
          "internalType": "bool",
          "name": "",
          "type": "bool"
        }
      ],
      "stateMutability": "view",
      "type": "function"
    },
    {
      "inputs": [],
      "name": "productionMode",
      "outputs": [
        {
          "internalType": "bool",
          "name": "",
          "type": "bool"
        }
      ],
      "stateMutability": "view",
      "type": "function"
    },
    {
      "inputs": [],
      "name": "switchToProductionMode",
      "outputs": [],
      "stateMutability": "nonpayable",
      "type": "function"
    }
  ],
  "bytecode": "0x608060405234801561001057600080fd5b5061001d61111180610022565b6101b6565b7f2aa47ee5db910f3b2a06970c443249cc77dbd9f96100cfebc1775ab7fb1d18248054600160a01b900460ff16156100a15760405162461bcd60e51b815260206004820152601460248201527f696e697469616c6973656420213d2066616c736500000000000000000000000060448201526064015b60405180910390fd5b6001600160a01b0383166100f75760405162461bcd60e51b815260206004820152601860248201527f676f7665726e616e63652073657474696e6773207a65726f00000000000000006044820152606401610098565b6001600160a01b0382166101405760405162461bcd60e51b815260206004820152601060248201526f5f676f7665726e616e6365207a65726f60801b6044820152606401610098565b80546001600160a01b038481166001600160a81b031990921691909117600160a01b1782556001820180549184166001600160a01b0319909216821790556040519081527f9789733827840833afc031fb2ef9ab6894271f77bad2085687cf4ae5c7bee4db9060200160405180910390a1505050565b6118b5806101c56000396000f3fe608060405234801561001057600080fd5b50600436106100885760003560e01c806362354e031161005b57806362354e03146100ed578063debfda301461010b578063e17f212e1461012e578063f5a983831461014d57600080fd5b806316fc2f6d1461008d5780631f931c1c146100a257806320c5f99d146100b55780635aa6e675146100c8575b600080fd5b6100a061009b36600461116f565b610155565b005b6100a06100b03660046111d6565b61023d565b6100a06100c336600461116f565b6102b5565b6100d06104a4565b6040516001600160a01b0390911681526020015b60405180910390f35b600080516020611860833981519152546001600160a01b03166100d0565b61011e61011936600461128f565b61054d565b60405190151581526020016100e4565b60008051602061186083398151915254600160a81b900460ff1661011e565b6100a06105e7565b61015d6106bb565b6040516000805160206118608339815191529060009061018090859085906112ac565b60405180910390209050816002016000828152602001908152602001600020546000036101f45760405162461bcd60e51b815260206004820152601a60248201527f74696d656c6f636b3a20696e76616c69642073656c6563746f7200000000000060448201526064015b60405180910390fd5b6040518181527f69b058d6225c01c1f2a25801ca5b05705fa2e9118e93d518390ba804398c87b19060200160405180910390a16000908152600290910160205260408120555050565b610245610717565b156102a15761025261074d565b61029c61025f8587611350565b8484848080601f01602080910402602001604051908101604052809392919081815260200183838082843760009201919091525061079492505050565b6102ae565b6102ae6000366000610939565b5050505050565b6000805160206118608339815191526102cd3361054d565b6103095760405162461bcd60e51b815260206004820152600d60248201526c37b7363c9032bc32b1baba37b960991b60448201526064016101eb565b6000838360405161031b9291906112ac565b604080519182900390912060008181526002850160205291822054909250908190036103895760405162461bcd60e51b815260206004820152601a60248201527f74696d656c6f636b3a20696e76616c69642073656c6563746f7200000000000060448201526064016101eb565b804210156103d95760405162461bcd60e51b815260206004820152601960248201527f74696d656c6f636b3a206e6f7420616c6c6f776564207965740000000000000060448201526064016101eb565b6000828152600284016020526040808220829055845460ff60b01b1916600160b01b17855551309061040e90889088906112ac565b6000604051808303816000865af19150503d806000811461044b576040519150601f19603f3d011682016040523d82523d6000602084013e610450565b606091505b5050845460ff60b01b191685556040518481529091507fec1225e5a8a8acb91e03ce648c683c74f5d152a775b9715980999441d714c44f9060200160405180910390a161049c81610a50565b505050505050565b600080516020611860833981519152805460009190600160a81b900460ff166104da5760018101546001600160a01b0316610547565b805460408051631cc9492560e21b815290516001600160a01b03909216916373252494916004808201926020929091908290030181865afa158015610523573d6000803e3d6000fd5b505050506040513d601f19601f820116820180604052508101906105479190611496565b91505090565b600080516020611860833981519152805460009190600160a01b900460ff1680156105e057508054604051630debfda360e41b81526001600160a01b0385811660048301529091169063debfda3090602401602060405180830381865afa1580156105bc573d6000803e3d6000fd5b505050506040513d601f19601f820116820180604052508101906105e091906114b3565b9392505050565b6105ef6106bb565b6000805160206118608339815191528054600160a81b900460ff16156106575760405162461bcd60e51b815260206004820152601a60248201527f616c726561647920696e2070726f64756374696f6e206d6f646500000000000060448201526064016101eb565b6001810180546001600160a01b03191690558054600160a81b60ff60a81b1982161782556040516001600160a01b0390911681527f83af113638b5422f9e977cebc0aaf0eaf2188eb9a8baae7f9d46c42b33a1560c9060200160405180910390a150565b6106c36104a4565b6001600160a01b0316336001600160a01b0316146107155760405162461bcd60e51b815260206004820152600f60248201526e6f6e6c7920676f7665726e616e636560881b60448201526064016101eb565b565b600080516020611860833981519152805460009190600160b01b900460ff1680610547575054600160a81b900460ff1615919050565b6000805160206118608339815191528054600160b01b900460ff16156107895733301461077c5761077c6114d5565b805460ff60b01b19169055565b6107916106bb565b50565b60005b83518110156108ee5760008482815181106107b4576107b46114eb565b602002602001015160400151905060008583815181106107d6576107d66114eb565b602002602001015160000151905081516000036108115760405163e767f91f60e01b81526001600160a01b03821660048201526024016101eb565b6000868481518110610825576108256114eb565b60200260200101516020015190506000600281111561084657610846611501565b81600281111561085857610858611501565b0361086c576108678284610a6d565b6108e3565b600181600281111561088057610880611501565b0361088f576108678284610c2c565b60028160028111156108a3576108a3611501565b036108b2576108678284610da9565b8060028111156108c4576108c4611501565b604051633ff4d20f60e11b815260ff90911660048201526024016101eb565b505050600101610797565b507f8faa70878671ccd212d20771b795c50af8fd3ff6cf27f4bde57e5d4de0aeb67383838360405161092293929190611567565b60405180910390a16109348282611038565b505050565b6000805160206118608339815191526109506106bb565b600084846040516109629291906112ac565b604080519182900382208454636221a54b60e01b845291519093506000926001600160a01b0390921691636221a54b9160048083019260209291908290030181865afa1580156109b6573d6000803e3d6000fd5b505050506040513d601f19601f820116820180604052508101906109da9190611676565b9050838110156109e75750825b60006109f382426116a5565b600084815260028601602052604090819020829055519091507f8c02104dfc280f713854f25297de671710c544c58de69dbde8fb66974ce1ab9e90610a3f9089908990879086906116be565b60405180910390a150505050505050565b3d604051818101604052816000823e8215610a69578181f35b8181fd5b6001600160a01b038216610a9657806040516302b8da0760e21b81526004016101eb91906116fe565b7fc8fcad8db84d3cc18b4c41d551ea0ee66dd599cde068d998e57d5e09332c131d54604080516060810190915260248082527fc8fcad8db84d3cc18b4c41d551ea0ee66dd599cde068d998e57d5e09332c131c9291610aff918691906117ec60208301396110fe565b60005b83518110156102ae576000848281518110610b1f57610b1f6114eb565b6020908102919091018101516001600160e01b031981166000908152918690526040909120549091506001600160a01b03168015610b72578160405163ebbf5d0760e01b81526004016101eb9190611740565b6040805180820182526001600160a01b03808a16825261ffff80881660208085019182526001600160e01b0319881660009081528b8252958620945185549251909316600160a01b026001600160b01b0319909216929093169190911717909155600180880180549182018155835291206008820401805460e085901c60046007909416939093026101000a92830263ffffffff909302191691909117905583610c1b81611755565b94505060019092019150610b029050565b7fc8fcad8db84d3cc18b4c41d551ea0ee66dd599cde068d998e57d5e09332c131c6001600160a01b038316610c76578160405163cd98a96f60e01b81526004016101eb91906116fe565b610c9883604051806060016040528060288152602001611838602891396110fe565b60005b8251811015610da3576000838281518110610cb857610cb86114eb565b6020908102919091018101516001600160e01b031981166000908152918590526040909120549091506001600160a01b0316308103610d0c5781604051632901806d60e11b81526004016101eb9190611740565b856001600160a01b0316816001600160a01b031603610d405781604051631ac6ce8d60e11b81526004016101eb9190611740565b6001600160a01b038116610d695781604051637479f93960e01b81526004016101eb9190611740565b506001600160e01b031916600090815260208390526040902080546001600160a01b0319166001600160a01b038616179055600101610c9b565b50505050565b7fc8fcad8db84d3cc18b4c41d551ea0ee66dd599cde068d998e57d5e09332c131d547fc8fcad8db84d3cc18b4c41d551ea0ee66dd599cde068d998e57d5e09332c131c906001600160a01b03841615610e205760405163d091bc8160e01b81526001600160a01b03851660048201526024016101eb565b60005b83518110156102ae576000848281518110610e4057610e406114eb565b6020908102919091018101516001600160e01b0319811660009081528683526040908190208151808301909252546001600160a01b038116808352600160a01b90910461ffff169382019390935290925090610eb15781604051637a08a22d60e01b81526004016101eb9190611740565b8051306001600160a01b0390911603610edf5781604051630df5fd6160e31b81526004016101eb9190611740565b83610ee981611776565b94505083816020015161ffff1614610fc7576000856001018581548110610f1257610f126114eb565b90600052602060002090600891828204019190066004029054906101000a900460e01b90508086600101836020015161ffff1681548110610f5557610f556114eb565b600091825260208083206008830401805463ffffffff60079094166004026101000a938402191660e09590951c92909202939093179055838201516001600160e01b03199390931681529087905260409020805461ffff60a01b1916600160a01b61ffff909316929092029190911790555b84600101805480610fda57610fda61178d565b60008281526020808220600860001990940193840401805463ffffffff600460078716026101000a0219169055919092556001600160e01b0319909316815291859052506040902080546001600160b01b0319169055600101610e23565b6001600160a01b03821661104a575050565b61106c82604051806060016040528060288152602001611810602891396110fe565b600080836001600160a01b03168360405161108791906117a3565b600060405180830381855af49150503d80600081146110c2576040519150601f19603f3d011682016040523d82523d6000602084013e6110c7565b606091505b509150915081610da3578051156110e15780518082602001fd5b838360405163192105d760e01b81526004016101eb9291906117bf565b813b600081900361093457828260405163919834b960e01b81526004016101eb9291906117bf565b60008083601f84011261113857600080fd5b50813567ffffffffffffffff81111561115057600080fd5b60208301915083602082850101111561116857600080fd5b9250929050565b6000806020838503121561118257600080fd5b823567ffffffffffffffff81111561119957600080fd5b6111a585828601611126565b90969095509350505050565b6001600160a01b038116811461079157600080fd5b80356111d1816111b1565b919050565b6000806000806000606086880312156111ee57600080fd5b853567ffffffffffffffff81111561120557600080fd5b8601601f8101881361121657600080fd5b803567ffffffffffffffff81111561122d57600080fd5b8860208260051b840101111561124257600080fd5b6020918201965094506112569087016111c6565b9250604086013567ffffffffffffffff81111561127257600080fd5b61127e88828901611126565b969995985093965092949392505050565b6000602082840312156112a157600080fd5b81356105e0816111b1565b8183823760009101908152919050565b634e487b7160e01b600052604160045260246000fd5b6040516060810167ffffffffffffffff811182821017156112f5576112f56112bc565b60405290565b604051601f8201601f1916810167ffffffffffffffff81118282101715611324576113246112bc565b604052919050565b600067ffffffffffffffff821115611346576113466112bc565b5060051b60200190565b600061136361135e8461132c565b6112fb565b8381526020810190600585901b84013681111561137f57600080fd5b845b8181101561148b57803567ffffffffffffffff8111156113a057600080fd5b860160603682900312156113b357600080fd5b6113bb6112d2565b81356113c6816111b1565b81526020820135600381106113da57600080fd5b6020820152604082013567ffffffffffffffff8111156113f957600080fd5b919091019036601f83011261140d57600080fd5b813561141b61135e8261132c565b8082825260208201915060208360051b86010192503683111561143d57600080fd5b6020850194505b828510156114755784356001600160e01b03198116811461146457600080fd5b825260209485019490910190611444565b6040840152505085525060209384019301611381565b509095945050505050565b6000602082840312156114a857600080fd5b81516105e0816111b1565b6000602082840312156114c557600080fd5b815180151581146105e057600080fd5b634e487b7160e01b600052600160045260246000fd5b634e487b7160e01b600052603260045260246000fd5b634e487b7160e01b600052602160045260246000fd5b60005b8381101561153257818101518382015260200161151a565b50506000910152565b60008151808452611553816020860160208601611517565b601f01601f19169290920160200192915050565b6000606082016060835280865180835260808501915060808160051b86010192506020880160005b8281101561164757868503607f19018452815180516001600160a01b0316865260208101516060870190600381106115d757634e487b7160e01b600052602160045260246000fd5b806020890152506040820151915060606040880152808251808352608089019150602084019350600092505b8083101561162f5783516001600160e01b03191682526020938401936001939093019290910190611603565b5096505050602093840193919091019060010161158f565b5050506001600160a01b038616602085015250828103604084015261166c818561153b565b9695505050505050565b60006020828403121561168857600080fd5b5051919050565b634e487b7160e01b600052601160045260246000fd5b808201808211156116b8576116b861168f565b92915050565b606081528360608201528385608083013760006080858301015260006080601f19601f870116830101905083602083015282604083015295945050505050565b602080825282518282018190526000918401906040840190835b8181101561148b5783516001600160e01b031916835260209384019390920191600101611718565b6001600160e01b031991909116815260200190565b600061ffff821661ffff810361176d5761176d61168f565b60010192915050565b6000816117855761178561168f565b506000190190565b634e487b7160e01b600052603160045260246000fd5b600082516117b5818460208701611517565b9190910192915050565b6001600160a01b03831681526040602082018190526000906117e39083018461153b565b94935050505056fe4c69624469616d6f6e644375743a2041646420666163657420686173206e6f20636f64654c69624469616d6f6e644375743a205f696e6974206164647265737320686173206e6f20636f64654c69624469616d6f6e644375743a205265706c61636520666163657420686173206e6f20636f64652aa47ee5db910f3b2a06970c443249cc77dbd9f96100cfebc1775ab7fb1d1824a2646970667358221220b13deec92f40a1a21f23235f6dbabb29c0c309c847a1993c4a8c827d051f462f64736f6c634300081b0033",
  "linkReferences": {},
  "deployedLinkReferences": {}
}