{
  "_format": "hh-sol-artifact-1",
  "contractName": "AgentVault",
  "sourceName": "contracts/agentVault/implementation/AgentVault.sol",
  "abi": [
    {
      "inputs": [
        {
          "internalType": "contract IIAssetManager",
          "name": "_assetManager",
          "type": "address"
        }
      ],
      "stateMutability": "nonpayable",
      "type": "constructor"
    },
    {
      "inputs": [],
      "name": "AlreadyInitialized",
      "type": "error"
    },
    {
      "inputs": [],
      "name": "OnlyAssetManager",
      "type": "error"
    },
    {
      "inputs": [],
      "name": "OnlyNonCollateralTokens",
      "type": "error"
    },
    {
      "inputs": [],
      "name": "OnlyOwner",
      "type": "error"
    },
    {
      "inputs": [],
      "name": "ReentrancyGuardReentrantCall",
      "type": "error"
    },
    {
      "inputs": [],
      "name": "UnknownToken",
      "type": "error"
    },
    {
      "anonymous": false,
      "inputs": [
        {
          "indexed": false,
          "internalType": "address",
          "name": "previousAdmin",
          "type": "address"
        },
        {
          "indexed": false,
          "internalType": "address",
          "name": "newAdmin",
          "type": "address"
        }
      ],
      "name": "AdminChanged",
      "type": "event"
    },
    {
      "anonymous": false,
      "inputs": [
        {
          "indexed": true,
          "internalType": "address",
          "name": "beacon",
          "type": "address"
        }
      ],
      "name": "BeaconUpgraded",
      "type": "event"
    },
    {
      "anonymous": false,
      "inputs": [
        {
          "indexed": true,
          "internalType": "address",
          "name": "implementation",
          "type": "address"
        }
      ],
      "name": "Upgraded",
      "type": "event"
    },
    {
      "inputs": [],
      "name": "assetManager",
      "outputs": [
        {
          "internalType": "contract IIAssetManager",
          "name": "",
          "type": "address"
        }
      ],
      "stateMutability": "view",
      "type": "function"
    },
    {
      "inputs": [],
      "name": "buyCollateralPoolTokens",
      "outputs": [],
      "stateMutability": "payable",
      "type": "function"
    },
    {
      "inputs": [],
      "name": "collateralPool",
      "outputs": [
        {
          "internalType": "contract ICollateralPool",
          "name": "",
          "type": "address"
        }
      ],
      "stateMutability": "view",
      "type": "function"
    },
    {
      "inputs": [
        {
          "internalType": "contract IERC20",
          "name": "_token",
          "type": "address"
        },
        {
          "internalType": "uint256",
          "name": "_amount",
          "type": "uint256"
        }
      ],
      "name": "depositCollateral",
      "outputs": [],
      "stateMutability": "nonpayable",
      "type": "function"
    },
    {
      "inputs": [],
      "name": "destroy",
      "outputs": [],
      "stateMutability": "nonpayable",
      "type": "function"
    },
    {
      "inputs": [],
      "name": "implementation",
      "outputs": [
        {
          "internalType": "address",
          "name": "",
          "type": "address"
        }
      ],
      "stateMutability": "view",
      "type": "function"
    },
    {
      "inputs": [
        {
          "internalType": "contract IIAssetManager",
          "name": "_assetManager",
          "type": "address"
        }
      ],
      "name": "initialize",
      "outputs": [],
      "stateMutability": "nonpayable",
      "type": "function"
    },
    {
      "inputs": [
        {
          "internalType": "address",
          "name": "_address",
          "type": "address"
        }
      ],
      "name": "isOwner",
      "outputs": [
        {
          "internalType": "bool",
          "name": "",
          "type": "bool"
        }
      ],
      "stateMutability": "view",
      "type": "function"
    },
    {
      "inputs": [
        {
          "internalType": "contract IERC20",
          "name": "_token",
          "type": "address"
        },
        {
          "internalType": "address",
          "name": "_recipient",
          "type": "address"
        },
        {
          "internalType": "uint256",
          "name": "_amount",
          "type": "uint256"
        }
      ],
      "name": "payout",
      "outputs": [],
      "stateMutability": "nonpayable",
      "type": "function"
    },
    {
      "inputs": [],
      "name": "proxiableUUID",
      "outputs": [
        {
          "internalType": "bytes32",
          "name": "",
          "type": "bytes32"
        }
      ],
      "stateMutability": "view",
      "type": "function"
    },
    {
      "inputs": [
        {
          "internalType": "uint256",
          "name": "_amount",
          "type": "uint256"
        },
        {
          "internalType": "address payable",
          "name": "_recipient",
          "type": "address"
        }
      ],
      "name": "redeemCollateralPoolTokens",
      "outputs": [],
      "stateMutability": "nonpayable",
      "type": "function"
    },
    {
      "inputs": [
        {
          "internalType": "bytes4",
          "name": "_interfaceId",
          "type": "bytes4"
        }
      ],
      "name": "supportsInterface",
      "outputs": [
        {
          "internalType": "bool",
          "name": "",
          "type": "bool"
        }
      ],
      "stateMutability": "pure",
      "type": "function"
    },
    {
      "inputs": [
        {
          "internalType": "contract IERC20",
          "name": "_token",
          "type": "address"
        },
        {
          "internalType": "uint256",
          "name": "_amount",
          "type": "uint256"
        }
      ],
      "name": "transferExternalToken",
      "outputs": [],
      "stateMutability": "nonpayable",
      "type": "function"
    },
    {
      "inputs": [
        {
          "internalType": "contract IERC20",
          "name": "_token",
          "type": "address"
        }
      ],
      "name": "updateCollateral",
      "outputs": [],
      "stateMutability": "nonpayable",
      "type": "function"
    },
    {
      "inputs": [
        {
          "internalType": "address",
          "name": "newImplementation",
          "type": "address"
        }
      ],
      "name": "upgradeTo",
      "outputs": [],
      "stateMutability": "nonpayable",
      "type": "function"
    },
    {
      "inputs": [
        {
          "internalType": "address",
          "name": "newImplementation",
          "type": "address"
        },
        {
          "internalType": "bytes",
          "name": "data",
          "type": "bytes"
        }
      ],
      "name": "upgradeToAndCall",
      "outputs": [],
      "stateMutability": "payable",
      "type": "function"
    },
    {
      "inputs": [
        {
          "internalType": "contract IERC20",
          "name": "_token",
          "type": "address"
        },
        {
          "internalType": "uint256",
          "name": "_amount",
          "type": "uint256"
        },
        {
          "internalType": "address",
          "name": "_recipient",
          "type": "address"
        }
      ],
      "name": "withdrawCollateral",
      "outputs": [],
      "stateMutability": "nonpayable",
      "type": "function"
    },
    {
      "inputs": [
        {
          "internalType": "uint256",
          "name": "_amount",
          "type": "uint256"
        },
        {
          "internalType": "address",
          "name": "_recipient",
          "type": "address"
        }
      ],
      "name": "withdrawPoolFees",
      "outputs": [],
      "stateMutability": "nonpayable",
      "type": "function"
    }
  ],
  "bytecode": "0x60a06040523060805234801561001457600080fd5b50604051611a80380380611a80833981016040819052610033916100c5565b61003c81610042565b506100f5565b600054600160a01b900460ff161561006c5760405162dc149f60e41b815260040160405180910390fd5b600080546001600160a01b0383166001600160a81b031990911617600160a01b17905561009761009a565b50565b6100c360017f0cd2207518cd3e5213e2c6dbe63d55b60aa893c194a427b7d7f1600408fd5bde55565b565b6000602082840312156100d757600080fd5b81516001600160a01b03811681146100ee57600080fd5b9392505050565b60805161195461012c60003960008181610792015281816107db015281816109b0015281816109f00152610a6801526119546000f3fe6080604052600436106101095760003560e01c806352d1902d1161009557806394217ad11161006457806394217ad1146102bd578063a5d5db0c146102dd578063c4d66de8146102fd578063d348400c1461031d578063ff0eccf61461032557600080fd5b806352d1902d146102385780635c60da1b1461025b5780637a7da0041461028857806383197ef0146102a857600080fd5b80632772e48b116100dc5780632772e48b146101a55780632f54bf6e146101c55780633659cfe6146101e5578063489a8a47146102055780634f1ef2861461022557600080fd5b806301ffc9a71461010e5780631cc7c5f3146101435780631f1088a01461016557806320f801d414610185575b600080fd5b34801561011a57600080fd5b5061012e610129366004611513565b61033a565b60405190151581526020015b60405180910390f35b34801561014f57600080fd5b5061016361015e366004611552565b61038c565b005b34801561017157600080fd5b50610163610180366004611582565b61053a565b34801561019157600080fd5b506101636101a03660046115c4565b610619565b3480156101b157600080fd5b506101636101c0366004611552565b61067c565b3480156101d157600080fd5b5061012e6101e0366004611605565b610713565b3480156101f157600080fd5b50610163610200366004611605565b610788565b34801561021157600080fd5b50610163610220366004611622565b610859565b610163610233366004611664565b6109a6565b34801561024457600080fd5b5061024d610a5b565b60405190815260200161013a565b34801561026757600080fd5b50610270610b0e565b6040516001600160a01b03909116815260200161013a565b34801561029457600080fd5b506101636102a3366004611605565b610b1d565b3480156102b457600080fd5b50610163610b85565b3480156102c957600080fd5b50600054610270906001600160a01b031681565b3480156102e957600080fd5b506101636102f8366004611622565b610be0565b34801561030957600080fd5b50610163610318366004611605565b610c8f565b610163610ce4565b34801561033157600080fd5b50610270610d75565b60006001600160e01b031982166301ffc9a760e01b148061036b57506001600160e01b03198216639fd1d46d60e01b145b8061038657506001600160e01b03198216631894ba9b60e01b145b92915050565b61039533610713565b6103b257604051635fc483c560e01b815260040160405180910390fd5b6103ba610de2565b60006103c4610d75565b905060008054906101000a90046001600160a01b03166001600160a01b031663469052ad826001600160a01b031663cbdf382c6040518163ffffffff1660e01b8152600401602060405180830381865afa158015610426573d6000803e3d6000fd5b505050506040513d601f19601f8201168201806040525081019061044a9190611730565b6040516001600160e01b031960e084901b1681526001600160a01b03909116600482015260248101869052604401600060405180830381600087803b15801561049257600080fd5b505af11580156104a6573d6000803e3d6000fd5b50506040516333a0ec4360e21b8152600481018690526001600160a01b0385811660248301528416925063ce83b10c91506044016020604051808303816000875af11580156104f9573d6000803e3d6000fd5b505050506040513d601f19601f8201168201806040525081019061051d919061174d565b505061053660016000805160206118ff83398151915255565b5050565b61054333610713565b61056057604051635fc483c560e01b815260040160405180910390fd5b8261056a81610e1a565b610572610de2565b600354610100900460ff166105e85760005460405163469052ad60e01b81526001600160a01b038681166004830152602482018690529091169063469052ad90604401600060405180830381600087803b1580156105cf57600080fd5b505af11580156105e3573d6000803e3d6000fd5b505050505b6105fc6001600160a01b0385168385610ea5565b61061360016000805160206118ff83398151915255565b50505050565b6000546001600160a01b0316331461064457604051636d5ab9d360e01b815260040160405180910390fd5b61064c610de2565b6106606001600160a01b0384168383610ea5565b61067760016000805160206118ff83398151915255565b505050565b61068533610713565b6106a257604051635fc483c560e01b815260040160405180910390fd5b6106aa610d75565b60405163868c3ba760e01b8152600481018490526001600160a01b038381166024830152919091169063868c3ba7906044015b600060405180830381600087803b1580156106f757600080fd5b505af115801561070b573d6000803e3d6000fd5b505050505050565b6000805460405163d6b93a9f60e01b81523060048201526001600160a01b0384811660248301529091169063d6b93a9f90604401602060405180830381865afa158015610764573d6000803e3d6000fd5b505050506040513d601f19601f820116820180604052508101906103869190611766565b6001600160a01b037f00000000000000000000000000000000000000000000000000000000000000001630036107d95760405162461bcd60e51b81526004016107d090611788565b60405180910390fd5b7f00000000000000000000000000000000000000000000000000000000000000006001600160a01b031661080b610f08565b6001600160a01b0316146108315760405162461bcd60e51b81526004016107d0906117d4565b61083a81610f24565b6040805160008082526020820190925261085691839190610f4f565b50565b61086233610713565b61087f57604051635fc483c560e01b815260040160405180910390fd5b600354610100900460ff1680610906575060005460405163700104f760e01b81523060048201526001600160a01b0384811660248301529091169063700104f790604401602060405180830381865afa1580156108e0573d6000803e3d6000fd5b505050506040513d601f19601f820116820180604052508101906109049190611766565b155b6109235760405163c41122b960e01b815260040160405180910390fd5b60008054604051636e61164f60e01b81523060048201526001600160a01b0390911690636e61164f90602401602060405180830381865afa15801561096c573d6000803e3d6000fd5b505050506040513d601f19601f820116820180604052508101906109909190611730565b90506106776001600160a01b0384168284610ea5565b6001600160a01b037f00000000000000000000000000000000000000000000000000000000000000001630036109ee5760405162461bcd60e51b81526004016107d090611788565b7f00000000000000000000000000000000000000000000000000000000000000006001600160a01b0316610a20610f08565b6001600160a01b031614610a465760405162461bcd60e51b81526004016107d0906117d4565b610a4f82610f24565b61053682826001610f4f565b6000306001600160a01b037f00000000000000000000000000000000000000000000000000000000000000001614610afb5760405162461bcd60e51b815260206004820152603860248201527f555550535570677261646561626c653a206d757374206e6f742062652063616c60448201527f6c6564207468726f7567682064656c656761746563616c6c000000000000000060648201526084016107d0565b506000805160206118b883398151915290565b6000610b18610f08565b905090565b610b2633610713565b610b4357604051635fc483c560e01b815260040160405180910390fd5b80610b4d81610e1a565b60005460405163053fe26160e31b81523060048201526001600160a01b038481166024830152909116906329ff1308906044016106dd565b6000546001600160a01b03163314610bb057604051636d5ab9d360e01b815260040160405180910390fd5b610bb8610de2565b6003805461ff001916610100179055610bde60016000805160206118ff83398151915255565b565b610be933610713565b610c0657604051635fc483c560e01b815260040160405180910390fd5b81610c1081610e1a565b610c256001600160a01b0384163330856110ba565b60005460405163053fe26160e31b81523060048201526001600160a01b038581166024830152909116906329ff130890604401600060405180830381600087803b158015610c7257600080fd5b505af1158015610c86573d6000803e3d6000fd5b50505050505050565b600054600160a01b900460ff1615610cb95760405162dc149f60e41b815260040160405180910390fd5b600080546001600160a01b0383166001600160a81b031990911617600160a01b1790556108566110f2565b610ced33610713565b610d0a57604051635fc483c560e01b815260040160405180910390fd5b610d12610d75565b6001600160a01b031663e97dcb62346040518263ffffffff1660e01b8152600401604080518083038185885af1158015610d50573d6000803e3d6000fd5b50505050506040513d601f19601f820116820180604052508101906105369190611820565b6000805460405163292979d160e11b81523060048201526001600160a01b0390911690635252f3a290602401602060405180830381865afa158015610dbe573d6000803e3d6000fd5b505050506040513d601f19601f82011682018060405250810190610b189190611730565b6000805160206118ff833981519152805460011901610e1457604051633ee5aeb560e01b815260040160405180910390fd5b60029055565b6000546040516339c045df60e01b81526001600160a01b038381166004830152909116906339c045df90602401602060405180830381865afa158015610e64573d6000803e3d6000fd5b505050506040513d601f19601f82011682018060405250810190610e889190611766565b61085657604051638698bf3760e01b815260040160405180910390fd5b6040516001600160a01b03831660248201526044810182905261067790849063a9059cbb60e01b906064015b60408051601f198184030181529190526020810180516001600160e01b03166001600160e01b031990931692909217909152611109565b6000805160206118b8833981519152546001600160a01b031690565b6000546001600160a01b0316331461085657604051636d5ab9d360e01b815260040160405180910390fd5b7f4910fdfa16fed3260ed0e7147f7cc6da11a60208b5b9406d12a635614ffd91435460ff1615610f8257610677836111de565b826001600160a01b03166352d1902d6040518163ffffffff1660e01b8152600401602060405180830381865afa925050508015610fdc575060408051601f3d908101601f19168201909252610fd99181019061174d565b60015b61103f5760405162461bcd60e51b815260206004820152602e60248201527f45524331393637557067726164653a206e657720696d706c656d656e7461746960448201526d6f6e206973206e6f74205555505360901b60648201526084016107d0565b6000805160206118b883398151915281146110ae5760405162461bcd60e51b815260206004820152602960248201527f45524331393637557067726164653a20756e737570706f727465642070726f786044820152681a58589b195555525160ba1b60648201526084016107d0565b5061067783838361127a565b6040516001600160a01b03808516602483015283166044820152606481018290526106139085906323b872dd60e01b90608401610ed1565b610bde60016000805160206118ff83398151915255565b600061115e826040518060400160405280602081526020017f5361666545524332303a206c6f772d6c6576656c2063616c6c206661696c6564815250856001600160a01b031661129f9092919063ffffffff16565b905080516000148061117f57508080602001905181019061117f9190611766565b6106775760405162461bcd60e51b815260206004820152602a60248201527f5361666545524332303a204552433230206f7065726174696f6e20646964206e6044820152691bdd081cdd58d8d9595960b21b60648201526084016107d0565b6001600160a01b0381163b61124b5760405162461bcd60e51b815260206004820152602d60248201527f455243313936373a206e657720696d706c656d656e746174696f6e206973206e60448201526c1bdd08184818dbdb9d1c9858dd609a1b60648201526084016107d0565b6000805160206118b883398151915280546001600160a01b0319166001600160a01b0392909216919091179055565b611283836112b6565b6000825111806112905750805b156106775761061383836112f6565b60606112ae8484600085611322565b949350505050565b6112bf816111de565b6040516001600160a01b038216907fbc7cd75a20ee27fd9adebab32041f755214dbc6bffa90cc0225b39da2e5c2d3b90600090a250565b606061131b83836040518060600160405280602781526020016118d8602791396113fd565b9392505050565b6060824710156113835760405162461bcd60e51b815260206004820152602660248201527f416464726573733a20696e73756666696369656e742062616c616e636520666f6044820152651c8818d85b1b60d21b60648201526084016107d0565b600080866001600160a01b0316858760405161139f9190611868565b60006040518083038185875af1925050503d80600081146113dc576040519150601f19603f3d011682016040523d82523d6000602084013e6113e1565b606091505b50915091506113f287838387611475565b979650505050505050565b6060600080856001600160a01b03168560405161141a9190611868565b600060405180830381855af49150503d8060008114611455576040519150601f19603f3d011682016040523d82523d6000602084013e61145a565b606091505b509150915061146b86838387611475565b9695505050505050565b606083156114e45782516000036114dd576001600160a01b0385163b6114dd5760405162461bcd60e51b815260206004820152601d60248201527f416464726573733a2063616c6c20746f206e6f6e2d636f6e747261637400000060448201526064016107d0565b50816112ae565b6112ae83838151156114f95781518083602001fd5b8060405162461bcd60e51b81526004016107d09190611884565b60006020828403121561152557600080fd5b81356001600160e01b03198116811461131b57600080fd5b6001600160a01b038116811461085657600080fd5b6000806040838503121561156557600080fd5b8235915060208301356115778161153d565b809150509250929050565b60008060006060848603121561159757600080fd5b83356115a28161153d565b92506020840135915060408401356115b98161153d565b809150509250925092565b6000806000606084860312156115d957600080fd5b83356115e48161153d565b925060208401356115f48161153d565b929592945050506040919091013590565b60006020828403121561161757600080fd5b813561131b8161153d565b6000806040838503121561163557600080fd5b82356116408161153d565b946020939093013593505050565b634e487b7160e01b600052604160045260246000fd5b6000806040838503121561167757600080fd5b82356116828161153d565b9150602083013567ffffffffffffffff81111561169e57600080fd5b8301601f810185136116af57600080fd5b803567ffffffffffffffff8111156116c9576116c961164e565b604051601f8201601f19908116603f0116810167ffffffffffffffff811182821017156116f8576116f861164e565b60405281815282820160200187101561171057600080fd5b816020840160208301376000602083830101528093505050509250929050565b60006020828403121561174257600080fd5b815161131b8161153d565b60006020828403121561175f57600080fd5b5051919050565b60006020828403121561177857600080fd5b8151801515811461131b57600080fd5b6020808252602c908201527f46756e6374696f6e206d7573742062652063616c6c6564207468726f7567682060408201526b19195b1959d85d1958d85b1b60a21b606082015260800190565b6020808252602c908201527f46756e6374696f6e206d7573742062652063616c6c6564207468726f7567682060408201526b6163746976652070726f787960a01b606082015260800190565b6000806040838503121561183357600080fd5b505080516020909101519092909150565b60005b8381101561185f578181015183820152602001611847565b50506000910152565b6000825161187a818460208701611844565b9190910192915050565b60208152600082518060208401526118a3816040850160208701611844565b601f01601f1916919091016040019291505056fe360894a13ba1a3210667c828492db98dca3e2076cc3735a920a3ca505d382bbc416464726573733a206c6f772d6c6576656c2064656c65676174652063616c6c206661696c65640cd2207518cd3e5213e2c6dbe63d55b60aa893c194a427b7d7f1600408fd5bdea26469706673582212203d939221ffea8eb85edaf5575ef062e30dce385d7eb2f4cd9e19ee2eeb716e0264736f6c634300081b0033",
  "linkReferences": {},
  "deployedLinkReferences": {}
}