{
  "_format": "hh-sol-artifact-1",
  "contractName": "AgentVault",
  "sourceName": "contracts/agentVault/implementation/AgentVault.sol",
  "abi": [
    {
      "inputs": [
        {
          "internalType": "contract IIAssetManager",
          "name": "_assetManager",
          "type": "address"
        }
      ],
      "stateMutability": "nonpayable",
      "type": "constructor"
    },
    {
      "anonymous": false,
      "inputs": [
        {
          "indexed": false,
          "internalType": "address",
          "name": "previousAdmin",
          "type": "address"
        },
        {
          "indexed": false,
          "internalType": "address",
          "name": "newAdmin",
          "type": "address"
        }
      ],
      "name": "AdminChanged",
      "type": "event"
    },
    {
      "anonymous": false,
      "inputs": [
        {
          "indexed": true,
          "internalType": "address",
          "name": "beacon",
          "type": "address"
        }
      ],
      "name": "BeaconUpgraded",
      "type": "event"
    },
    {
      "anonymous": false,
      "inputs": [
        {
          "indexed": true,
          "internalType": "address",
          "name": "implementation",
          "type": "address"
        }
      ],
      "name": "Upgraded",
      "type": "event"
    },
    {
      "inputs": [],
      "name": "assetManager",
      "outputs": [
        {
          "internalType": "contract IIAssetManager",
          "name": "",
          "type": "address"
        }
      ],
      "stateMutability": "view",
      "type": "function"
    },
    {
      "inputs": [],
      "name": "buyCollateralPoolTokens",
      "outputs": [],
      "stateMutability": "payable",
      "type": "function"
    },
    {
      "inputs": [],
      "name": "collateralPool",
      "outputs": [
        {
          "internalType": "contract ICollateralPool",
          "name": "",
          "type": "address"
        }
      ],
      "stateMutability": "view",
      "type": "function"
    },
    {
      "inputs": [
        {
          "internalType": "contract IVPToken",
          "name": "_token",
          "type": "address"
        },
        {
          "internalType": "address",
          "name": "_to",
          "type": "address"
        },
        {
          "internalType": "uint256",
          "name": "_bips",
          "type": "uint256"
        }
      ],
      "name": "delegate",
      "outputs": [],
      "stateMutability": "nonpayable",
      "type": "function"
    },
    {
      "inputs": [
        {
          "internalType": "contract IVPToken",
          "name": "_token",
          "type": "address"
        },
        {
          "internalType": "address",
          "name": "_to",
          "type": "address"
        }
      ],
      "name": "delegateGovernance",
      "outputs": [],
      "stateMutability": "nonpayable",
      "type": "function"
    },
    {
      "inputs": [
        {
          "internalType": "contract IERC20",
          "name": "_token",
          "type": "address"
        },
        {
          "internalType": "uint256",
          "name": "_amount",
          "type": "uint256"
        }
      ],
      "name": "depositCollateral",
      "outputs": [],
      "stateMutability": "nonpayable",
      "type": "function"
    },
    {
      "inputs": [],
      "name": "destroy",
      "outputs": [],
      "stateMutability": "nonpayable",
      "type": "function"
    },
    {
      "inputs": [],
      "name": "implementation",
      "outputs": [
        {
          "internalType": "address",
          "name": "",
          "type": "address"
        }
      ],
      "stateMutability": "view",
      "type": "function"
    },
    {
      "inputs": [
        {
          "internalType": "contract IIAssetManager",
          "name": "_assetManager",
          "type": "address"
        }
      ],
      "name": "initialize",
      "outputs": [],
      "stateMutability": "nonpayable",
      "type": "function"
    },
    {
      "inputs": [
        {
          "internalType": "address",
          "name": "_address",
          "type": "address"
        }
      ],
      "name": "isOwner",
      "outputs": [
        {
          "internalType": "bool",
          "name": "",
          "type": "bool"
        }
      ],
      "stateMutability": "view",
      "type": "function"
    },
    {
      "inputs": [
        {
          "internalType": "contract IERC20",
          "name": "_token",
          "type": "address"
        },
        {
          "internalType": "address",
          "name": "_recipient",
          "type": "address"
        },
        {
          "internalType": "uint256",
          "name": "_amount",
          "type": "uint256"
        }
      ],
      "name": "payout",
      "outputs": [],
      "stateMutability": "nonpayable",
      "type": "function"
    },
    {
      "inputs": [],
      "name": "proxiableUUID",
      "outputs": [
        {
          "internalType": "bytes32",
          "name": "",
          "type": "bytes32"
        }
      ],
      "stateMutability": "view",
      "type": "function"
    },
    {
      "inputs": [
        {
          "internalType": "uint256",
          "name": "_amount",
          "type": "uint256"
        },
        {
          "internalType": "address payable",
          "name": "_recipient",
          "type": "address"
        }
      ],
      "name": "redeemCollateralPoolTokens",
      "outputs": [],
      "stateMutability": "nonpayable",
      "type": "function"
    },
    {
      "inputs": [
        {
          "internalType": "bytes4",
          "name": "_interfaceId",
          "type": "bytes4"
        }
      ],
      "name": "supportsInterface",
      "outputs": [
        {
          "internalType": "bool",
          "name": "",
          "type": "bool"
        }
      ],
      "stateMutability": "pure",
      "type": "function"
    },
    {
      "inputs": [
        {
          "internalType": "contract IERC20",
          "name": "_token",
          "type": "address"
        },
        {
          "internalType": "uint256",
          "name": "_amount",
          "type": "uint256"
        }
      ],
      "name": "transferExternalToken",
      "outputs": [],
      "stateMutability": "nonpayable",
      "type": "function"
    },
    {
      "inputs": [
        {
          "internalType": "contract IVPToken",
          "name": "_token",
          "type": "address"
        }
      ],
      "name": "undelegateAll",
      "outputs": [],
      "stateMutability": "nonpayable",
      "type": "function"
    },
    {
      "inputs": [
        {
          "internalType": "contract IVPToken",
          "name": "_token",
          "type": "address"
        }
      ],
      "name": "undelegateGovernance",
      "outputs": [],
      "stateMutability": "nonpayable",
      "type": "function"
    },
    {
      "inputs": [
        {
          "internalType": "contract IERC20",
          "name": "_token",
          "type": "address"
        }
      ],
      "name": "updateCollateral",
      "outputs": [],
      "stateMutability": "nonpayable",
      "type": "function"
    },
    {
      "inputs": [
        {
          "internalType": "address",
          "name": "newImplementation",
          "type": "address"
        }
      ],
      "name": "upgradeTo",
      "outputs": [],
      "stateMutability": "nonpayable",
      "type": "function"
    },
    {
      "inputs": [
        {
          "internalType": "address",
          "name": "newImplementation",
          "type": "address"
        },
        {
          "internalType": "bytes",
          "name": "data",
          "type": "bytes"
        }
      ],
      "name": "upgradeToAndCall",
      "outputs": [],
      "stateMutability": "payable",
      "type": "function"
    },
    {
      "inputs": [
        {
          "internalType": "contract IERC20",
          "name": "_token",
          "type": "address"
        },
        {
          "internalType": "uint256",
          "name": "_amount",
          "type": "uint256"
        },
        {
          "internalType": "address",
          "name": "_recipient",
          "type": "address"
        }
      ],
      "name": "withdrawCollateral",
      "outputs": [],
      "stateMutability": "nonpayable",
      "type": "function"
    },
    {
      "inputs": [
        {
          "internalType": "uint256",
          "name": "_amount",
          "type": "uint256"
        },
        {
          "internalType": "address",
          "name": "_recipient",
          "type": "address"
        }
      ],
      "name": "withdrawPoolFees",
      "outputs": [],
      "stateMutability": "nonpayable",
      "type": "function"
    }
  ],
  "bytecode": "0x60a06040523060805234801561001457600080fd5b50604051611efd380380611efd833981016040819052610033916100c9565b61003c81610042565b506100f9565b600054600160a01b900460ff16156100a05760405162461bcd60e51b815260206004820152601360248201527f616c726561647920696e697469616c697a656400000000000000000000000000604482015260640160405180910390fd5b600080546001600160a01b039092166001600160a81b031990921691909117600160a01b179055565b6000602082840312156100db57600080fd5b81516001600160a01b03811681146100f257600080fd5b9392505050565b608051611dcd61013060003960008181610992015281816109d201528181610bf501528181610c350152610cad0152611dcd6000f3fe6080604052600436106101355760003560e01c80635c60da1b116100ab57806397c9c8f81161006f57806397c9c8f814610349578063a5d5db0c14610369578063c26f3acf14610389578063c4d66de8146103a9578063d348400c146103c9578063ff0eccf6146103d157600080fd5b80635c60da1b146102a75780635eb71cfb146102d45780637a7da004146102f457806383197ef01461031457806394217ad11461032957600080fd5b80632772e48b116100fd5780632772e48b146101f15780632f54bf6e146102115780633659cfe614610231578063489a8a47146102515780634f1ef2861461027157806352d1902d1461028457600080fd5b806301ffc9a71461013a5780631cc7c5f31461016f5780631d75e42a146101915780631f1088a0146101b157806320f801d4146101d1575b600080fd5b34801561014657600080fd5b5061015a61015536600461190e565b6103e6565b60405190151581526020015b60405180910390f35b34801561017b57600080fd5b5061018f61018a36600461194d565b610438565b005b34801561019d57600080fd5b5061018f6101ac36600461197d565b6105ee565b3480156101bd57600080fd5b5061018f6101cc3660046119ab565b6106d7565b3480156101dd57600080fd5b5061018f6101ec3660046119ed565b6107aa565b3480156101fd57600080fd5b5061018f61020c36600461194d565b6107f0565b34801561021d57600080fd5b5061015a61022c366004611a2e565b610854565b34801561023d57600080fd5b5061018f61024c366004611a2e565b610988565b34801561025d57600080fd5b5061018f61026c366004611a4b565b610a50565b61018f61027f366004611a8d565b610beb565b34801561029057600080fd5b50610299610ca0565b604051908152602001610166565b3480156102b357600080fd5b506102bc610d53565b6040516001600160a01b039091168152602001610166565b3480156102e057600080fd5b5061018f6102ef366004611a2e565b610d62565b34801561030057600080fd5b5061018f61030f366004611a2e565b610ddd565b34801561032057600080fd5b5061018f610e4f565b34801561033557600080fd5b506000546102bc906001600160a01b031681565b34801561035557600080fd5b5061018f610364366004611a2e565b610f3b565b34801561037557600080fd5b5061018f610384366004611a4b565b610ffc565b34801561039557600080fd5b5061018f6103a43660046119ed565b61106e565b3480156103b557600080fd5b5061018f6103c4366004611a2e565b6110fa565b61018f611173565b3480156103dd57600080fd5b506102bc6111de565b60006001600160e01b031982166301ffc9a760e01b148061041757506001600160e01b031982166389b5de8b60e01b145b8061043257506001600160e01b03198216631894ba9b60e01b145b92915050565b61044133610854565b6104665760405162461bcd60e51b815260040161045d90611b59565b60405180910390fd5b61046e61124b565b60006104786111de565b905060008054906101000a90046001600160a01b03166001600160a01b031663469052ad826001600160a01b031663cbdf382c6040518163ffffffff1660e01b8152600401602060405180830381865afa1580156104da573d6000803e3d6000fd5b505050506040513d601f19601f820116820180604052508101906104fe9190611b7d565b6040516001600160e01b031960e084901b1681526001600160a01b03909116600482015260248101869052604401600060405180830381600087803b15801561054657600080fd5b505af115801561055a573d6000803e3d6000fd5b50506040516333a0ec4360e21b8152600481018690526001600160a01b0385811660248301528416925063ce83b10c91506044016020604051808303816000875af11580156105ad573d6000803e3d6000fd5b505050506040513d601f19601f820116820180604052508101906105d19190611b9a565b50506105ea6001600080516020611d7883398151915255565b5050565b6105f733610854565b6106135760405162461bcd60e51b815260040161045d90611b59565b816001600160a01b0316638c2b8ae16040518163ffffffff1660e01b8152600401602060405180830381865afa158015610651573d6000803e3d6000fd5b505050506040513d601f19601f820116820180604052508101906106759190611b7d565b6040516317066a5760e21b81526001600160a01b0383811660048301529190911690635c19a95c906024015b600060405180830381600087803b1580156106bb57600080fd5b505af11580156106cf573d6000803e3d6000fd5b505050505050565b6106e033610854565b6106fc5760405162461bcd60e51b815260040161045d90611b59565b61070461124b565b600354610100900460ff1661077a5760005460405163469052ad60e01b81526001600160a01b038581166004830152602482018590529091169063469052ad90604401600060405180830381600087803b15801561076157600080fd5b505af1158015610775573d6000803e3d6000fd5b505050505b61078e6001600160a01b03841682846112b2565b6107a56001600080516020611d7883398151915255565b505050565b6000546001600160a01b031633146107d45760405162461bcd60e51b815260040161045d90611bb3565b6107dc61124b565b61078e6001600160a01b03841683836112b2565b6107f933610854565b6108155760405162461bcd60e51b815260040161045d90611b59565b61081d6111de565b60405163868c3ba760e01b8152600481018490526001600160a01b038381166024830152919091169063868c3ba7906044016106a1565b6003546000906201000090046001600160a01b03166108e15760005460405163d6b93a9f60e01b81523060048201526001600160a01b0384811660248301529091169063d6b93a9f90604401602060405180830381865afa1580156108bd573d6000803e3d6000fd5b505050506040513d601f19601f820116820180604052508101906104329190611bdf565b6003546001600160a01b03838116620100009092041614806104325750600054600354604051631f86345d60e31b8152620100009091046001600160a01b03908116600483015284811692169063fc31a2e890602401602060405180830381865afa158015610954573d6000803e3d6000fd5b505050506040513d601f19601f820116820180604052508101906109789190611b7d565b6001600160a01b03161492915050565b6001600160a01b037f00000000000000000000000000000000000000000000000000000000000000001630036109d05760405162461bcd60e51b815260040161045d90611c01565b7f00000000000000000000000000000000000000000000000000000000000000006001600160a01b0316610a02611315565b6001600160a01b031614610a285760405162461bcd60e51b815260040161045d90611c4d565b610a3181611331565b60408051600080825260208201909252610a4d9183919061135b565b50565b610a5933610854565b610a755760405162461bcd60e51b815260040161045d90611b59565b610a7d61124b565b600354610100900460ff1680610b04575060005460405163700104f760e01b81523060048201526001600160a01b0384811660248301529091169063700104f790604401602060405180830381865afa158015610ade573d6000803e3d6000fd5b505050506040513d601f19601f82011682018060405250810190610b029190611bdf565b155b610b505760405162461bcd60e51b815260206004820152601a60248201527f6f6e6c79206e6f6e2d636f6c6c61746572616c20746f6b656e73000000000000604482015260640161045d565b60008054604051636e61164f60e01b81523060048201526001600160a01b0390911690636e61164f90602401602060405180830381865afa158015610b99573d6000803e3d6000fd5b505050506040513d601f19601f82011682018060405250810190610bbd9190611b7d565b9050610bd36001600160a01b03841682846112b2565b506105ea6001600080516020611d7883398151915255565b6001600160a01b037f0000000000000000000000000000000000000000000000000000000000000000163003610c335760405162461bcd60e51b815260040161045d90611c01565b7f00000000000000000000000000000000000000000000000000000000000000006001600160a01b0316610c65611315565b6001600160a01b031614610c8b5760405162461bcd60e51b815260040161045d90611c4d565b610c9482611331565b6105ea8282600161135b565b6000306001600160a01b037f00000000000000000000000000000000000000000000000000000000000000001614610d405760405162461bcd60e51b815260206004820152603860248201527f555550535570677261646561626c653a206d757374206e6f742062652063616c60448201527f6c6564207468726f7567682064656c656761746563616c6c0000000000000000606482015260840161045d565b50600080516020611d3183398151915290565b6000610d5d611315565b905090565b610d6b33610854565b610d875760405162461bcd60e51b815260040161045d90611b59565b806001600160a01b031663b302f3936040518163ffffffff1660e01b8152600401600060405180830381600087803b158015610dc257600080fd5b505af1158015610dd6573d6000803e3d6000fd5b5050505050565b610de633610854565b610e025760405162461bcd60e51b815260040161045d90611b59565b60005460405163053fe26160e31b81523060048201526001600160a01b038381166024830152909116906329ff130890604401600060405180830381600087803b158015610dc257600080fd5b6000546001600160a01b03163314610e795760405162461bcd60e51b815260040161045d90611bb3565b610e8161124b565b6003805461ff001916610100179055600054604051636e61164f60e01b81523060048201526001600160a01b0390911690636e61164f90602401602060405180830381865afa158015610ed8573d6000803e3d6000fd5b505050506040513d601f19601f82011682018060405250810190610efc9190611b7d565b600360026101000a8154816001600160a01b0302191690836001600160a01b03160217905550610f396001600080516020611d7883398151915255565b565b610f4433610854565b610f605760405162461bcd60e51b815260040161045d90611b59565b806001600160a01b0316638c2b8ae16040518163ffffffff1660e01b8152600401602060405180830381865afa158015610f9e573d6000803e3d6000fd5b505050506040513d601f19601f82011682018060405250810190610fc29190611b7d565b6001600160a01b03166392ab89bb6040518163ffffffff1660e01b8152600401600060405180830381600087803b158015610dc257600080fd5b61100533610854565b6110215760405162461bcd60e51b815260040161045d90611b59565b6110366001600160a01b0383163330846114c6565b60005460405163053fe26160e31b81523060048201526001600160a01b038481166024830152909116906329ff1308906044016106a1565b61107733610854565b6110935760405162461bcd60e51b815260040161045d90611b59565b60405163026e402b60e01b81526001600160a01b0383811660048301526024820183905284169063026e402b90604401600060405180830381600087803b1580156110dd57600080fd5b505af11580156110f1573d6000803e3d6000fd5b50505050505050565b600054600160a01b900460ff161561114a5760405162461bcd60e51b8152602060048201526013602482015272185b1c9958591e481a5b9a5d1a585b1a5e9959606a1b604482015260640161045d565b600080546001600160a01b039092166001600160a81b031990921691909117600160a01b179055565b61117b6111de565b6001600160a01b031663e97dcb62346040518263ffffffff1660e01b8152600401604080518083038185885af11580156111b9573d6000803e3d6000fd5b50505050506040513d601f19601f820116820180604052508101906105ea9190611c99565b6000805460405163292979d160e11b81523060048201526001600160a01b0390911690635252f3a290602401602060405180830381865afa158015611227573d6000803e3d6000fd5b505050506040513d601f19601f82011682018060405250810190610d5d9190611b7d565b600080516020611d788339815191528054600119016112ac5760405162461bcd60e51b815260206004820152601f60248201527f5265656e7472616e637947756172643a207265656e7472616e742063616c6c00604482015260640161045d565b60029055565b6040516001600160a01b0383166024820152604481018290526107a590849063a9059cbb60e01b906064015b60408051601f198184030181529190526020810180516001600160e01b03166001600160e01b031990931692909217909152611504565b600080516020611d31833981519152546001600160a01b031690565b6000546001600160a01b03163314610a4d5760405162461bcd60e51b815260040161045d90611bb3565b7f4910fdfa16fed3260ed0e7147f7cc6da11a60208b5b9406d12a635614ffd91435460ff161561138e576107a5836115d9565b826001600160a01b03166352d1902d6040518163ffffffff1660e01b8152600401602060405180830381865afa9250505080156113e8575060408051601f3d908101601f191682019092526113e591810190611b9a565b60015b61144b5760405162461bcd60e51b815260206004820152602e60248201527f45524331393637557067726164653a206e657720696d706c656d656e7461746960448201526d6f6e206973206e6f74205555505360901b606482015260840161045d565b600080516020611d3183398151915281146114ba5760405162461bcd60e51b815260206004820152602960248201527f45524331393637557067726164653a20756e737570706f727465642070726f786044820152681a58589b195555525160ba1b606482015260840161045d565b506107a5838383611675565b6040516001600160a01b03808516602483015283166044820152606481018290526114fe9085906323b872dd60e01b906084016112de565b50505050565b6000611559826040518060400160405280602081526020017f5361666545524332303a206c6f772d6c6576656c2063616c6c206661696c6564815250856001600160a01b031661169a9092919063ffffffff16565b905080516000148061157a57508080602001905181019061157a9190611bdf565b6107a55760405162461bcd60e51b815260206004820152602a60248201527f5361666545524332303a204552433230206f7065726174696f6e20646964206e6044820152691bdd081cdd58d8d9595960b21b606482015260840161045d565b6001600160a01b0381163b6116465760405162461bcd60e51b815260206004820152602d60248201527f455243313936373a206e657720696d706c656d656e746174696f6e206973206e60448201526c1bdd08184818dbdb9d1c9858dd609a1b606482015260840161045d565b600080516020611d3183398151915280546001600160a01b0319166001600160a01b0392909216919091179055565b61167e836116b1565b60008251118061168b5750805b156107a5576114fe83836116f1565b60606116a9848460008561171d565b949350505050565b6116ba816115d9565b6040516001600160a01b038216907fbc7cd75a20ee27fd9adebab32041f755214dbc6bffa90cc0225b39da2e5c2d3b90600090a250565b60606117168383604051806060016040528060278152602001611d51602791396117f8565b9392505050565b60608247101561177e5760405162461bcd60e51b815260206004820152602660248201527f416464726573733a20696e73756666696369656e742062616c616e636520666f6044820152651c8818d85b1b60d21b606482015260840161045d565b600080866001600160a01b0316858760405161179a9190611ce1565b60006040518083038185875af1925050503d80600081146117d7576040519150601f19603f3d011682016040523d82523d6000602084013e6117dc565b606091505b50915091506117ed87838387611870565b979650505050505050565b6060600080856001600160a01b0316856040516118159190611ce1565b600060405180830381855af49150503d8060008114611850576040519150601f19603f3d011682016040523d82523d6000602084013e611855565b606091505b509150915061186686838387611870565b9695505050505050565b606083156118df5782516000036118d8576001600160a01b0385163b6118d85760405162461bcd60e51b815260206004820152601d60248201527f416464726573733a2063616c6c20746f206e6f6e2d636f6e7472616374000000604482015260640161045d565b50816116a9565b6116a983838151156118f45781518083602001fd5b8060405162461bcd60e51b815260040161045d9190611cfd565b60006020828403121561192057600080fd5b81356001600160e01b03198116811461171657600080fd5b6001600160a01b0381168114610a4d57600080fd5b6000806040838503121561196057600080fd5b82359150602083013561197281611938565b809150509250929050565b6000806040838503121561199057600080fd5b823561199b81611938565b9150602083013561197281611938565b6000806000606084860312156119c057600080fd5b83356119cb81611938565b92506020840135915060408401356119e281611938565b809150509250925092565b600080600060608486031215611a0257600080fd5b8335611a0d81611938565b92506020840135611a1d81611938565b929592945050506040919091013590565b600060208284031215611a4057600080fd5b813561171681611938565b60008060408385031215611a5e57600080fd5b8235611a6981611938565b946020939093013593505050565b634e487b7160e01b600052604160045260246000fd5b60008060408385031215611aa057600080fd5b8235611aab81611938565b9150602083013567ffffffffffffffff811115611ac757600080fd5b8301601f81018513611ad857600080fd5b803567ffffffffffffffff811115611af257611af2611a77565b604051601f8201601f19908116603f0116810167ffffffffffffffff81118282101715611b2157611b21611a77565b604052818152828201602001871015611b3957600080fd5b816020840160208301376000602083830101528093505050509250929050565b6020808252600a908201526937b7363c9037bbb732b960b11b604082015260600190565b600060208284031215611b8f57600080fd5b815161171681611938565b600060208284031215611bac57600080fd5b5051919050565b60208082526012908201527137b7363c9030b9b9b2ba1036b0b730b3b2b960711b604082015260600190565b600060208284031215611bf157600080fd5b8151801515811461171657600080fd5b6020808252602c908201527f46756e6374696f6e206d7573742062652063616c6c6564207468726f7567682060408201526b19195b1959d85d1958d85b1b60a21b606082015260800190565b6020808252602c908201527f46756e6374696f6e206d7573742062652063616c6c6564207468726f7567682060408201526b6163746976652070726f787960a01b606082015260800190565b60008060408385031215611cac57600080fd5b505080516020909101519092909150565b60005b83811015611cd8578181015183820152602001611cc0565b50506000910152565b60008251611cf3818460208701611cbd565b9190910192915050565b6020815260008251806020840152611d1c816040850160208701611cbd565b601f01601f1916919091016040019291505056fe360894a13ba1a3210667c828492db98dca3e2076cc3735a920a3ca505d382bbc416464726573733a206c6f772d6c6576656c2064656c65676174652063616c6c206661696c65640cd2207518cd3e5213e2c6dbe63d55b60aa893c194a427b7d7f1600408fd5bdea264697066735822122039eb69bdbabadf63420e05b0ea02d24eed9f679a6a5f72786ae0281dce082c3c64736f6c634300081b0033",
  "linkReferences": {},
  "deployedLinkReferences": {}
}