{
  "_format": "hh-sol-artifact-1",
  "contractName": "AgentVault",
  "sourceName": "contracts/agentVault/implementation/AgentVault.sol",
  "abi": [
    {
      "inputs": [
        {
          "internalType": "contract IIAssetManager",
          "name": "_assetManager",
          "type": "address"
        }
      ],
      "stateMutability": "nonpayable",
      "type": "constructor"
    },
    {
      "inputs": [],
      "name": "AlreadyInitialized",
      "type": "error"
    },
    {
      "inputs": [],
      "name": "OnlyAssetManager",
      "type": "error"
    },
    {
      "inputs": [],
      "name": "OnlyNonCollateralTokens",
      "type": "error"
    },
    {
      "inputs": [],
      "name": "OnlyOwner",
      "type": "error"
    },
    {
      "inputs": [],
      "name": "ReentrancyGuardReentrantCall",
      "type": "error"
    },
    {
      "anonymous": false,
      "inputs": [
        {
          "indexed": false,
          "internalType": "address",
          "name": "previousAdmin",
          "type": "address"
        },
        {
          "indexed": false,
          "internalType": "address",
          "name": "newAdmin",
          "type": "address"
        }
      ],
      "name": "AdminChanged",
      "type": "event"
    },
    {
      "anonymous": false,
      "inputs": [
        {
          "indexed": true,
          "internalType": "address",
          "name": "beacon",
          "type": "address"
        }
      ],
      "name": "BeaconUpgraded",
      "type": "event"
    },
    {
      "anonymous": false,
      "inputs": [
        {
          "indexed": true,
          "internalType": "address",
          "name": "implementation",
          "type": "address"
        }
      ],
      "name": "Upgraded",
      "type": "event"
    },
    {
      "inputs": [],
      "name": "assetManager",
      "outputs": [
        {
          "internalType": "contract IIAssetManager",
          "name": "",
          "type": "address"
        }
      ],
      "stateMutability": "view",
      "type": "function"
    },
    {
      "inputs": [],
      "name": "buyCollateralPoolTokens",
      "outputs": [],
      "stateMutability": "payable",
      "type": "function"
    },
    {
      "inputs": [],
      "name": "collateralPool",
      "outputs": [
        {
          "internalType": "contract ICollateralPool",
          "name": "",
          "type": "address"
        }
      ],
      "stateMutability": "view",
      "type": "function"
    },
    {
      "inputs": [
        {
          "internalType": "contract IERC20",
          "name": "_token",
          "type": "address"
        },
        {
          "internalType": "uint256",
          "name": "_amount",
          "type": "uint256"
        }
      ],
      "name": "depositCollateral",
      "outputs": [],
      "stateMutability": "nonpayable",
      "type": "function"
    },
    {
      "inputs": [],
      "name": "destroy",
      "outputs": [],
      "stateMutability": "nonpayable",
      "type": "function"
    },
    {
      "inputs": [],
      "name": "implementation",
      "outputs": [
        {
          "internalType": "address",
          "name": "",
          "type": "address"
        }
      ],
      "stateMutability": "view",
      "type": "function"
    },
    {
      "inputs": [
        {
          "internalType": "contract IIAssetManager",
          "name": "_assetManager",
          "type": "address"
        }
      ],
      "name": "initialize",
      "outputs": [],
      "stateMutability": "nonpayable",
      "type": "function"
    },
    {
      "inputs": [
        {
          "internalType": "address",
          "name": "_address",
          "type": "address"
        }
      ],
      "name": "isOwner",
      "outputs": [
        {
          "internalType": "bool",
          "name": "",
          "type": "bool"
        }
      ],
      "stateMutability": "view",
      "type": "function"
    },
    {
      "inputs": [
        {
          "internalType": "contract IERC20",
          "name": "_token",
          "type": "address"
        },
        {
          "internalType": "address",
          "name": "_recipient",
          "type": "address"
        },
        {
          "internalType": "uint256",
          "name": "_amount",
          "type": "uint256"
        }
      ],
      "name": "payout",
      "outputs": [],
      "stateMutability": "nonpayable",
      "type": "function"
    },
    {
      "inputs": [],
      "name": "proxiableUUID",
      "outputs": [
        {
          "internalType": "bytes32",
          "name": "",
          "type": "bytes32"
        }
      ],
      "stateMutability": "view",
      "type": "function"
    },
    {
      "inputs": [
        {
          "internalType": "uint256",
          "name": "_amount",
          "type": "uint256"
        },
        {
          "internalType": "address payable",
          "name": "_recipient",
          "type": "address"
        }
      ],
      "name": "redeemCollateralPoolTokens",
      "outputs": [],
      "stateMutability": "nonpayable",
      "type": "function"
    },
    {
      "inputs": [
        {
          "internalType": "bytes4",
          "name": "_interfaceId",
          "type": "bytes4"
        }
      ],
      "name": "supportsInterface",
      "outputs": [
        {
          "internalType": "bool",
          "name": "",
          "type": "bool"
        }
      ],
      "stateMutability": "pure",
      "type": "function"
    },
    {
      "inputs": [
        {
          "internalType": "contract IERC20",
          "name": "_token",
          "type": "address"
        },
        {
          "internalType": "uint256",
          "name": "_amount",
          "type": "uint256"
        }
      ],
      "name": "transferExternalToken",
      "outputs": [],
      "stateMutability": "nonpayable",
      "type": "function"
    },
    {
      "inputs": [
        {
          "internalType": "contract IERC20",
          "name": "_token",
          "type": "address"
        }
      ],
      "name": "updateCollateral",
      "outputs": [],
      "stateMutability": "nonpayable",
      "type": "function"
    },
    {
      "inputs": [
        {
          "internalType": "address",
          "name": "newImplementation",
          "type": "address"
        }
      ],
      "name": "upgradeTo",
      "outputs": [],
      "stateMutability": "nonpayable",
      "type": "function"
    },
    {
      "inputs": [
        {
          "internalType": "address",
          "name": "newImplementation",
          "type": "address"
        },
        {
          "internalType": "bytes",
          "name": "data",
          "type": "bytes"
        }
      ],
      "name": "upgradeToAndCall",
      "outputs": [],
      "stateMutability": "payable",
      "type": "function"
    },
    {
      "inputs": [
        {
          "internalType": "contract IERC20",
          "name": "_token",
          "type": "address"
        },
        {
          "internalType": "uint256",
          "name": "_amount",
          "type": "uint256"
        },
        {
          "internalType": "address",
          "name": "_recipient",
          "type": "address"
        }
      ],
      "name": "withdrawCollateral",
      "outputs": [],
      "stateMutability": "nonpayable",
      "type": "function"
    },
    {
      "inputs": [
        {
          "internalType": "uint256",
          "name": "_amount",
          "type": "uint256"
        },
        {
          "internalType": "address",
          "name": "_recipient",
          "type": "address"
        }
      ],
      "name": "withdrawPoolFees",
      "outputs": [],
      "stateMutability": "nonpayable",
      "type": "function"
    }
  ],
  "bytecode": "0x60a06040523060805234801561001457600080fd5b5060405161199538038061199583398101604081905261003391610095565b61003c81610042565b506100c5565b600054600160a01b900460ff161561006c5760405162dc149f60e41b815260040160405180910390fd5b600080546001600160a01b039092166001600160a81b031990921691909117600160a01b179055565b6000602082840312156100a757600080fd5b81516001600160a01b03811681146100be57600080fd5b9392505050565b6080516118996100fc6000396000818161076b015281816107b4015281816109a9015281816109e90152610a6101526118996000f3fe6080604052600436106101095760003560e01c806352d1902d1161009557806394217ad11161006457806394217ad1146102bd578063a5d5db0c146102dd578063c4d66de8146102fd578063d348400c1461031d578063ff0eccf61461032557600080fd5b806352d1902d146102385780635c60da1b1461025b5780637a7da0041461028857806383197ef0146102a857600080fd5b80632772e48b116100dc5780632772e48b146101a55780632f54bf6e146101c55780633659cfe6146101e5578063489a8a47146102055780634f1ef2861461022557600080fd5b806301ffc9a71461010e5780631cc7c5f3146101435780631f1088a01461016557806320f801d414610185575b600080fd5b34801561011a57600080fd5b5061012e610129366004611458565b61033a565b60405190151581526020015b60405180910390f35b34801561014f57600080fd5b5061016361015e366004611497565b61038c565b005b34801561017157600080fd5b506101636101803660046114c7565b61053a565b34801561019157600080fd5b506101636101a0366004611509565b61060e565b3480156101b157600080fd5b506101636101c0366004611497565b610655565b3480156101d157600080fd5b5061012e6101e036600461154a565b6106ec565b3480156101f157600080fd5b5061016361020036600461154a565b610761565b34801561021157600080fd5b50610163610220366004611567565b610832565b6101636102333660046115a9565b61099f565b34801561024457600080fd5b5061024d610a54565b60405190815260200161013a565b34801561026757600080fd5b50610270610b07565b6040516001600160a01b03909116815260200161013a565b34801561029457600080fd5b506101636102a336600461154a565b610b16565b3480156102b457600080fd5b50610163610ba4565b3480156102c957600080fd5b50600054610270906001600160a01b031681565b3480156102e957600080fd5b506101636102f8366004611567565b610bff565b34801561030957600080fd5b5061016361031836600461154a565b610c72565b610163610cc5565b34801561033157600080fd5b50610270610d56565b60006001600160e01b031982166301ffc9a760e01b148061036b57506001600160e01b03198216639fd1d46d60e01b145b8061038657506001600160e01b03198216631894ba9b60e01b145b92915050565b610395336106ec565b6103b257604051635fc483c560e01b815260040160405180910390fd5b6103ba610dc3565b60006103c4610d56565b905060008054906101000a90046001600160a01b03166001600160a01b031663469052ad826001600160a01b031663cbdf382c6040518163ffffffff1660e01b8152600401602060405180830381865afa158015610426573d6000803e3d6000fd5b505050506040513d601f19601f8201168201806040525081019061044a9190611675565b6040516001600160e01b031960e084901b1681526001600160a01b03909116600482015260248101869052604401600060405180830381600087803b15801561049257600080fd5b505af11580156104a6573d6000803e3d6000fd5b50506040516333a0ec4360e21b8152600481018690526001600160a01b0385811660248301528416925063ce83b10c91506044016020604051808303816000875af11580156104f9573d6000803e3d6000fd5b505050506040513d601f19601f8201168201806040525081019061051d9190611692565b5050610536600160008051602061184483398151915255565b5050565b610543336106ec565b61056057604051635fc483c560e01b815260040160405180910390fd5b610568610dc3565b600354610100900460ff166105de5760005460405163469052ad60e01b81526001600160a01b038581166004830152602482018590529091169063469052ad90604401600060405180830381600087803b1580156105c557600080fd5b505af11580156105d9573d6000803e3d6000fd5b505050505b6105f26001600160a01b0384168284610dfb565b610609600160008051602061184483398151915255565b505050565b6000546001600160a01b0316331461063957604051636d5ab9d360e01b815260040160405180910390fd5b610641610dc3565b6105f26001600160a01b0384168383610dfb565b61065e336106ec565b61067b57604051635fc483c560e01b815260040160405180910390fd5b610683610d56565b60405163868c3ba760e01b8152600481018490526001600160a01b038381166024830152919091169063868c3ba7906044015b600060405180830381600087803b1580156106d057600080fd5b505af11580156106e4573d6000803e3d6000fd5b505050505050565b6000805460405163d6b93a9f60e01b81523060048201526001600160a01b0384811660248301529091169063d6b93a9f90604401602060405180830381865afa15801561073d573d6000803e3d6000fd5b505050506040513d601f19601f8201168201806040525081019061038691906116ab565b6001600160a01b037f00000000000000000000000000000000000000000000000000000000000000001630036107b25760405162461bcd60e51b81526004016107a9906116cd565b60405180910390fd5b7f00000000000000000000000000000000000000000000000000000000000000006001600160a01b03166107e4610e5e565b6001600160a01b03161461080a5760405162461bcd60e51b81526004016107a990611719565b61081381610e7a565b6040805160008082526020820190925261082f91839190610ea5565b50565b61083b336106ec565b61085857604051635fc483c560e01b815260040160405180910390fd5b610860610dc3565b600354610100900460ff16806108e7575060005460405163700104f760e01b81523060048201526001600160a01b0384811660248301529091169063700104f790604401602060405180830381865afa1580156108c1573d6000803e3d6000fd5b505050506040513d601f19601f820116820180604052508101906108e591906116ab565b155b6109045760405163c41122b960e01b815260040160405180910390fd5b60008054604051636e61164f60e01b81523060048201526001600160a01b0390911690636e61164f90602401602060405180830381865afa15801561094d573d6000803e3d6000fd5b505050506040513d601f19601f820116820180604052508101906109719190611675565b90506109876001600160a01b0384168284610dfb565b50610536600160008051602061184483398151915255565b6001600160a01b037f00000000000000000000000000000000000000000000000000000000000000001630036109e75760405162461bcd60e51b81526004016107a9906116cd565b7f00000000000000000000000000000000000000000000000000000000000000006001600160a01b0316610a19610e5e565b6001600160a01b031614610a3f5760405162461bcd60e51b81526004016107a990611719565b610a4882610e7a565b61053682826001610ea5565b6000306001600160a01b037f00000000000000000000000000000000000000000000000000000000000000001614610af45760405162461bcd60e51b815260206004820152603860248201527f555550535570677261646561626c653a206d757374206e6f742062652063616c60448201527f6c6564207468726f7567682064656c656761746563616c6c000000000000000060648201526084016107a9565b506000805160206117fd83398151915290565b6000610b11610e5e565b905090565b610b1f336106ec565b610b3c57604051635fc483c560e01b815260040160405180910390fd5b60005460405163053fe26160e31b81523060048201526001600160a01b038381166024830152909116906329ff130890604401600060405180830381600087803b158015610b8957600080fd5b505af1158015610b9d573d6000803e3d6000fd5b5050505050565b6000546001600160a01b03163314610bcf57604051636d5ab9d360e01b815260040160405180910390fd5b610bd7610dc3565b6003805461ff001916610100179055610bfd600160008051602061184483398151915255565b565b610c08336106ec565b610c2557604051635fc483c560e01b815260040160405180910390fd5b610c3a6001600160a01b038316333084611010565b60005460405163053fe26160e31b81523060048201526001600160a01b038481166024830152909116906329ff1308906044016106b6565b600054600160a01b900460ff1615610c9c5760405162dc149f60e41b815260040160405180910390fd5b600080546001600160a01b039092166001600160a81b031990921691909117600160a01b179055565b610cce336106ec565b610ceb57604051635fc483c560e01b815260040160405180910390fd5b610cf3610d56565b6001600160a01b031663e97dcb62346040518263ffffffff1660e01b8152600401604080518083038185885af1158015610d31573d6000803e3d6000fd5b50505050506040513d601f19601f820116820180604052508101906105369190611765565b6000805460405163292979d160e11b81523060048201526001600160a01b0390911690635252f3a290602401602060405180830381865afa158015610d9f573d6000803e3d6000fd5b505050506040513d601f19601f82011682018060405250810190610b119190611675565b600080516020611844833981519152805460011901610df557604051633ee5aeb560e01b815260040160405180910390fd5b60029055565b6040516001600160a01b03831660248201526044810182905261060990849063a9059cbb60e01b906064015b60408051601f198184030181529190526020810180516001600160e01b03166001600160e01b03199093169290921790915261104e565b6000805160206117fd833981519152546001600160a01b031690565b6000546001600160a01b0316331461082f57604051636d5ab9d360e01b815260040160405180910390fd5b7f4910fdfa16fed3260ed0e7147f7cc6da11a60208b5b9406d12a635614ffd91435460ff1615610ed85761060983611123565b826001600160a01b03166352d1902d6040518163ffffffff1660e01b8152600401602060405180830381865afa925050508015610f32575060408051601f3d908101601f19168201909252610f2f91810190611692565b60015b610f955760405162461bcd60e51b815260206004820152602e60248201527f45524331393637557067726164653a206e657720696d706c656d656e7461746960448201526d6f6e206973206e6f74205555505360901b60648201526084016107a9565b6000805160206117fd83398151915281146110045760405162461bcd60e51b815260206004820152602960248201527f45524331393637557067726164653a20756e737570706f727465642070726f786044820152681a58589b195555525160ba1b60648201526084016107a9565b506106098383836111bf565b6040516001600160a01b03808516602483015283166044820152606481018290526110489085906323b872dd60e01b90608401610e27565b50505050565b60006110a3826040518060400160405280602081526020017f5361666545524332303a206c6f772d6c6576656c2063616c6c206661696c6564815250856001600160a01b03166111e49092919063ffffffff16565b90508051600014806110c45750808060200190518101906110c491906116ab565b6106095760405162461bcd60e51b815260206004820152602a60248201527f5361666545524332303a204552433230206f7065726174696f6e20646964206e6044820152691bdd081cdd58d8d9595960b21b60648201526084016107a9565b6001600160a01b0381163b6111905760405162461bcd60e51b815260206004820152602d60248201527f455243313936373a206e657720696d706c656d656e746174696f6e206973206e60448201526c1bdd08184818dbdb9d1c9858dd609a1b60648201526084016107a9565b6000805160206117fd83398151915280546001600160a01b0319166001600160a01b0392909216919091179055565b6111c8836111fb565b6000825111806111d55750805b1561060957611048838361123b565b60606111f38484600085611267565b949350505050565b61120481611123565b6040516001600160a01b038216907fbc7cd75a20ee27fd9adebab32041f755214dbc6bffa90cc0225b39da2e5c2d3b90600090a250565b6060611260838360405180606001604052806027815260200161181d60279139611342565b9392505050565b6060824710156112c85760405162461bcd60e51b815260206004820152602660248201527f416464726573733a20696e73756666696369656e742062616c616e636520666f6044820152651c8818d85b1b60d21b60648201526084016107a9565b600080866001600160a01b031685876040516112e491906117ad565b60006040518083038185875af1925050503d8060008114611321576040519150601f19603f3d011682016040523d82523d6000602084013e611326565b606091505b5091509150611337878383876113ba565b979650505050505050565b6060600080856001600160a01b03168560405161135f91906117ad565b600060405180830381855af49150503d806000811461139a576040519150601f19603f3d011682016040523d82523d6000602084013e61139f565b606091505b50915091506113b0868383876113ba565b9695505050505050565b60608315611429578251600003611422576001600160a01b0385163b6114225760405162461bcd60e51b815260206004820152601d60248201527f416464726573733a2063616c6c20746f206e6f6e2d636f6e747261637400000060448201526064016107a9565b50816111f3565b6111f3838381511561143e5781518083602001fd5b8060405162461bcd60e51b81526004016107a991906117c9565b60006020828403121561146a57600080fd5b81356001600160e01b03198116811461126057600080fd5b6001600160a01b038116811461082f57600080fd5b600080604083850312156114aa57600080fd5b8235915060208301356114bc81611482565b809150509250929050565b6000806000606084860312156114dc57600080fd5b83356114e781611482565b92506020840135915060408401356114fe81611482565b809150509250925092565b60008060006060848603121561151e57600080fd5b833561152981611482565b9250602084013561153981611482565b929592945050506040919091013590565b60006020828403121561155c57600080fd5b813561126081611482565b6000806040838503121561157a57600080fd5b823561158581611482565b946020939093013593505050565b634e487b7160e01b600052604160045260246000fd5b600080604083850312156115bc57600080fd5b82356115c781611482565b9150602083013567ffffffffffffffff8111156115e357600080fd5b8301601f810185136115f457600080fd5b803567ffffffffffffffff81111561160e5761160e611593565b604051601f8201601f19908116603f0116810167ffffffffffffffff8111828210171561163d5761163d611593565b60405281815282820160200187101561165557600080fd5b816020840160208301376000602083830101528093505050509250929050565b60006020828403121561168757600080fd5b815161126081611482565b6000602082840312156116a457600080fd5b5051919050565b6000602082840312156116bd57600080fd5b8151801515811461126057600080fd5b6020808252602c908201527f46756e6374696f6e206d7573742062652063616c6c6564207468726f7567682060408201526b19195b1959d85d1958d85b1b60a21b606082015260800190565b6020808252602c908201527f46756e6374696f6e206d7573742062652063616c6c6564207468726f7567682060408201526b6163746976652070726f787960a01b606082015260800190565b6000806040838503121561177857600080fd5b505080516020909101519092909150565b60005b838110156117a457818101518382015260200161178c565b50506000910152565b600082516117bf818460208701611789565b9190910192915050565b60208152600082518060208401526117e8816040850160208701611789565b601f01601f1916919091016040019291505056fe360894a13ba1a3210667c828492db98dca3e2076cc3735a920a3ca505d382bbc416464726573733a206c6f772d6c6576656c2064656c65676174652063616c6c206661696c65640cd2207518cd3e5213e2c6dbe63d55b60aa893c194a427b7d7f1600408fd5bdea2646970667358221220560c95031a794c2216cd8aa1be96c74277687e51a33ebecdf147b9759ff82c7664736f6c634300081b0033",
  "linkReferences": {},
  "deployedLinkReferences": {}
}