{
  "_format": "hh-sol-artifact-1",
  "contractName": "AgentOwnerRegistry",
  "sourceName": "contracts/agentOwnerRegistry/implementation/AgentOwnerRegistry.sol",
  "abi": [
    {
      "inputs": [
        {
          "internalType": "contract IGovernanceSettings",
          "name": "_governanceSettings",
          "type": "address"
        },
        {
          "internalType": "address",
          "name": "_initialGovernance",
          "type": "address"
        }
      ],
      "stateMutability": "nonpayable",
      "type": "constructor"
    },
    {
      "inputs": [],
      "name": "AddressZero",
      "type": "error"
    },
    {
      "inputs": [],
      "name": "AgentNotWhitelisted",
      "type": "error"
    },
    {
      "inputs": [],
      "name": "AlreadyInProductionMode",
      "type": "error"
    },
    {
      "inputs": [],
      "name": "GovernedAddressZero",
      "type": "error"
    },
    {
      "inputs": [],
      "name": "GovernedAlreadyInitialized",
      "type": "error"
    },
    {
      "inputs": [],
      "name": "OnlyExecutor",
      "type": "error"
    },
    {
      "inputs": [],
      "name": "OnlyGovernance",
      "type": "error"
    },
    {
      "inputs": [],
      "name": "OnlyGovernanceOrManager",
      "type": "error"
    },
    {
      "inputs": [],
      "name": "TimelockInvalidSelector",
      "type": "error"
    },
    {
      "inputs": [],
      "name": "TimelockNotAllowedYet",
      "type": "error"
    },
    {
      "inputs": [],
      "name": "WorkAddressInUse",
      "type": "error"
    },
    {
      "anonymous": false,
      "inputs": [
        {
          "indexed": true,
          "internalType": "address",
          "name": "managementAddress",
          "type": "address"
        },
        {
          "indexed": false,
          "internalType": "string",
          "name": "name",
          "type": "string"
        },
        {
          "indexed": false,
          "internalType": "string",
          "name": "description",
          "type": "string"
        },
        {
          "indexed": false,
          "internalType": "string",
          "name": "iconUrl",
          "type": "string"
        },
        {
          "indexed": false,
          "internalType": "string",
          "name": "termsOfUseUrl",
          "type": "string"
        }
      ],
      "name": "AgentDataChanged",
      "type": "event"
    },
    {
      "anonymous": false,
      "inputs": [
        {
          "indexed": false,
          "internalType": "bytes",
          "name": "encodedCall",
          "type": "bytes"
        },
        {
          "indexed": false,
          "internalType": "bytes32",
          "name": "encodedCallHash",
          "type": "bytes32"
        },
        {
          "indexed": false,
          "internalType": "uint256",
          "name": "allowedAfterTimestamp",
          "type": "uint256"
        }
      ],
      "name": "GovernanceCallTimelocked",
      "type": "event"
    },
    {
      "anonymous": false,
      "inputs": [
        {
          "indexed": false,
          "internalType": "address",
          "name": "initialGovernance",
          "type": "address"
        }
      ],
      "name": "GovernanceInitialised",
      "type": "event"
    },
    {
      "anonymous": false,
      "inputs": [
        {
          "indexed": false,
          "internalType": "address",
          "name": "governanceSettings",
          "type": "address"
        }
      ],
      "name": "GovernedProductionModeEntered",
      "type": "event"
    },
    {
      "anonymous": false,
      "inputs": [
        {
          "indexed": false,
          "internalType": "address",
          "name": "manager",
          "type": "address"
        }
      ],
      "name": "ManagerChanged",
      "type": "event"
    },
    {
      "anonymous": false,
      "inputs": [
        {
          "indexed": false,
          "internalType": "bytes32",
          "name": "encodedCallHash",
          "type": "bytes32"
        }
      ],
      "name": "TimelockedGovernanceCallCanceled",
      "type": "event"
    },
    {
      "anonymous": false,
      "inputs": [
        {
          "indexed": false,
          "internalType": "bytes32",
          "name": "encodedCallHash",
          "type": "bytes32"
        }
      ],
      "name": "TimelockedGovernanceCallExecuted",
      "type": "event"
    },
    {
      "anonymous": false,
      "inputs": [
        {
          "indexed": false,
          "internalType": "address",
          "name": "value",
          "type": "address"
        }
      ],
      "name": "Whitelisted",
      "type": "event"
    },
    {
      "anonymous": false,
      "inputs": [
        {
          "indexed": false,
          "internalType": "address",
          "name": "value",
          "type": "address"
        }
      ],
      "name": "WhitelistingRevoked",
      "type": "event"
    },
    {
      "anonymous": false,
      "inputs": [
        {
          "indexed": true,
          "internalType": "address",
          "name": "managementAddress",
          "type": "address"
        },
        {
          "indexed": false,
          "internalType": "address",
          "name": "prevWorkAddress",
          "type": "address"
        },
        {
          "indexed": false,
          "internalType": "address",
          "name": "workAddress",
          "type": "address"
        }
      ],
      "name": "WorkAddressChanged",
      "type": "event"
    },
    {
      "inputs": [
        {
          "internalType": "bytes",
          "name": "_encodedCall",
          "type": "bytes"
        }
      ],
      "name": "cancelGovernanceCall",
      "outputs": [],
      "stateMutability": "nonpayable",
      "type": "function"
    },
    {
      "inputs": [
        {
          "internalType": "bytes",
          "name": "_encodedCall",
          "type": "bytes"
        }
      ],
      "name": "executeGovernanceCall",
      "outputs": [],
      "stateMutability": "nonpayable",
      "type": "function"
    },
    {
      "inputs": [
        {
          "internalType": "address",
          "name": "_managementAddress",
          "type": "address"
        }
      ],
      "name": "getAgentDescription",
      "outputs": [
        {
          "internalType": "string",
          "name": "",
          "type": "string"
        }
      ],
      "stateMutability": "view",
      "type": "function"
    },
    {
      "inputs": [
        {
          "internalType": "address",
          "name": "_managementAddress",
          "type": "address"
        }
      ],
      "name": "getAgentIconUrl",
      "outputs": [
        {
          "internalType": "string",
          "name": "",
          "type": "string"
        }
      ],
      "stateMutability": "view",
      "type": "function"
    },
    {
      "inputs": [
        {
          "internalType": "address",
          "name": "_managementAddress",
          "type": "address"
        }
      ],
      "name": "getAgentName",
      "outputs": [
        {
          "internalType": "string",
          "name": "",
          "type": "string"
        }
      ],
      "stateMutability": "view",
      "type": "function"
    },
    {
      "inputs": [
        {
          "internalType": "address",
          "name": "_managementAddress",
          "type": "address"
        }
      ],
      "name": "getAgentTermsOfUseUrl",
      "outputs": [
        {
          "internalType": "string",
          "name": "",
          "type": "string"
        }
      ],
      "stateMutability": "view",
      "type": "function"
    },
    {
      "inputs": [
        {
          "internalType": "address",
          "name": "_workAddress",
          "type": "address"
        }
      ],
      "name": "getManagementAddress",
      "outputs": [
        {
          "internalType": "address",
          "name": "",
          "type": "address"
        }
      ],
      "stateMutability": "view",
      "type": "function"
    },
    {
      "inputs": [
        {
          "internalType": "address",
          "name": "_managementAddress",
          "type": "address"
        }
      ],
      "name": "getWorkAddress",
      "outputs": [
        {
          "internalType": "address",
          "name": "",
          "type": "address"
        }
      ],
      "stateMutability": "view",
      "type": "function"
    },
    {
      "inputs": [],
      "name": "governance",
      "outputs": [
        {
          "internalType": "address",
          "name": "",
          "type": "address"
        }
      ],
      "stateMutability": "view",
      "type": "function"
    },
    {
      "inputs": [],
      "name": "governanceSettings",
      "outputs": [
        {
          "internalType": "contract IGovernanceSettings",
          "name": "",
          "type": "address"
        }
      ],
      "stateMutability": "view",
      "type": "function"
    },
    {
      "inputs": [
        {
          "internalType": "address",
          "name": "_address",
          "type": "address"
        }
      ],
      "name": "isExecutor",
      "outputs": [
        {
          "internalType": "bool",
          "name": "",
          "type": "bool"
        }
      ],
      "stateMutability": "view",
      "type": "function"
    },
    {
      "inputs": [
        {
          "internalType": "address",
          "name": "_address",
          "type": "address"
        }
      ],
      "name": "isWhitelisted",
      "outputs": [
        {
          "internalType": "bool",
          "name": "",
          "type": "bool"
        }
      ],
      "stateMutability": "view",
      "type": "function"
    },
    {
      "inputs": [],
      "name": "manager",
      "outputs": [
        {
          "internalType": "address",
          "name": "",
          "type": "address"
        }
      ],
      "stateMutability": "view",
      "type": "function"
    },
    {
      "inputs": [],
      "name": "productionMode",
      "outputs": [
        {
          "internalType": "bool",
          "name": "",
          "type": "bool"
        }
      ],
      "stateMutability": "view",
      "type": "function"
    },
    {
      "inputs": [
        {
          "internalType": "address",
          "name": "_address",
          "type": "address"
        }
      ],
      "name": "revokeAddress",
      "outputs": [],
      "stateMutability": "nonpayable",
      "type": "function"
    },
    {
      "inputs": [
        {
          "internalType": "address",
          "name": "_managementAddress",
          "type": "address"
        },
        {
          "internalType": "string",
          "name": "_description",
          "type": "string"
        }
      ],
      "name": "setAgentDescription",
      "outputs": [],
      "stateMutability": "nonpayable",
      "type": "function"
    },
    {
      "inputs": [
        {
          "internalType": "address",
          "name": "_managementAddress",
          "type": "address"
        },
        {
          "internalType": "string",
          "name": "_iconUrl",
          "type": "string"
        }
      ],
      "name": "setAgentIconUrl",
      "outputs": [],
      "stateMutability": "nonpayable",
      "type": "function"
    },
    {
      "inputs": [
        {
          "internalType": "address",
          "name": "_managementAddress",
          "type": "address"
        },
        {
          "internalType": "string",
          "name": "_name",
          "type": "string"
        }
      ],
      "name": "setAgentName",
      "outputs": [],
      "stateMutability": "nonpayable",
      "type": "function"
    },
    {
      "inputs": [
        {
          "internalType": "address",
          "name": "_managementAddress",
          "type": "address"
        },
        {
          "internalType": "string",
          "name": "_touUrl",
          "type": "string"
        }
      ],
      "name": "setAgentTermsOfUseUrl",
      "outputs": [],
      "stateMutability": "nonpayable",
      "type": "function"
    },
    {
      "inputs": [
        {
          "internalType": "address",
          "name": "_manager",
          "type": "address"
        }
      ],
      "name": "setManager",
      "outputs": [],
      "stateMutability": "nonpayable",
      "type": "function"
    },
    {
      "inputs": [
        {
          "internalType": "address",
          "name": "_ownerWorkAddress",
          "type": "address"
        }
      ],
      "name": "setWorkAddress",
      "outputs": [],
      "stateMutability": "nonpayable",
      "type": "function"
    },
    {
      "inputs": [
        {
          "internalType": "bytes4",
          "name": "_interfaceId",
          "type": "bytes4"
        }
      ],
      "name": "supportsInterface",
      "outputs": [
        {
          "internalType": "bool",
          "name": "",
          "type": "bool"
        }
      ],
      "stateMutability": "pure",
      "type": "function"
    },
    {
      "inputs": [],
      "name": "switchToProductionMode",
      "outputs": [],
      "stateMutability": "nonpayable",
      "type": "function"
    },
    {
      "inputs": [
        {
          "internalType": "address",
          "name": "_managementAddress",
          "type": "address"
        },
        {
          "internalType": "string",
          "name": "_name",
          "type": "string"
        },
        {
          "internalType": "string",
          "name": "_description",
          "type": "string"
        },
        {
          "internalType": "string",
          "name": "_iconUrl",
          "type": "string"
        },
        {
          "internalType": "string",
          "name": "_touUrl",
          "type": "string"
        }
      ],
      "name": "whitelistAndDescribeAgent",
      "outputs": [],
      "stateMutability": "nonpayable",
      "type": "function"
    }
  ],
  "bytecode": "0x608060405234801561001057600080fd5b50604051611a07380380611a0783398101604081905261002f9161016b565b818161003b8282610044565b505050506101a5565b7f2aa47ee5db910f3b2a06970c443249cc77dbd9f96100cfebc1775ab7fb1d18248054600160a01b900460ff161561008f5760405163b2f0162160e01b815260040160405180910390fd5b6001600160a01b0383166100b6576040516334ab92fb60e11b815260040160405180910390fd5b6001600160a01b0382166100dd576040516334ab92fb60e11b815260040160405180910390fd5b80546001600160a01b038481166001600160a81b031990921691909117600160a01b1782556001820180549184166001600160a01b0319909216821790556040519081527f9789733827840833afc031fb2ef9ab6894271f77bad2085687cf4ae5c7bee4db9060200160405180910390a1505050565b6001600160a01b038116811461016857600080fd5b50565b6000806040838503121561017e57600080fd5b825161018981610153565b602084015190925061019a81610153565b809150509250929050565b611853806101b46000396000f3fe608060405234801561001057600080fd5b50600436106101585760003560e01c80637f32be9e116100c3578063debfda301161007c578063debfda3014610321578063e17f212e14610334578063ec8fbdb014610353578063f5a9838314610366578063f72eaade1461036e578063fc31a2e81461038157600080fd5b80637f32be9e146102af5780638c30defc146102c25780638d28b5e9146102d5578063baddba2c146102e8578063c6062392146102fb578063d0ebdbe71461030e57600080fd5b8063481c6a7511610115578063481c6a75146102305780635553b1fd146102435780635aa6e6751461026357806362354e031461026b578063689baff01461028957806378d2ac291461029c57600080fd5b806301ffc9a71461015d578063073e824e1461018557806316fc2f6d146101c957806320c5f99d146101de578063317a7aec146101f15780633af32abf14610204575b600080fd5b61017061016b3660046111c0565b6103ad565b60405190151581526020015b60405180910390f35b6101b16101933660046111ff565b6001600160a01b039081166000908152600260205260409020541690565b6040516001600160a01b03909116815260200161017c565b6101dc6101d736600461121c565b6103e4565b005b6101dc6101ec36600461121c565b610498565b6101dc6101ff3660046111ff565b61060a565b6101706102123660046111ff565b6001600160a01b031660009081526001602052604090205460ff1690565b6000546101b1906001600160a01b031681565b6102566102513660046111ff565b610664565b60405161017c91906112d6565b6101b1610710565b6000805160206117fe833981519152546001600160a01b03166101b1565b6101dc6102973660046111ff565b6107b9565b6102566102aa3660046111ff565b61091c565b6101dc6102bd36600461138e565b610943565b6101dc6102d0366004611461565b6109ae565b6102566102e33660046111ff565b610a2c565b6101dc6102f6366004611461565b610a53565b6102566103093660046111ff565b610ac3565b6101dc61031c3660046111ff565b610aea565b61017061032f3660046111ff565b610b61565b6000805160206117fe83398151915254600160a81b900460ff16610170565b6101dc610361366004611461565b610bfb565b6101dc610c6b565b6101dc61037c366004611461565b610d0a565b6101b161038f3660046111ff565b6001600160a01b039081166000908152600360205260409020541690565b60006001600160e01b031982166301ffc9a760e01b14806103de57506001600160e01b031982166353a9c0db60e11b145b92915050565b6103ec610d7a565b6040516000805160206117fe8339815191529060009061040f90859085906114b1565b604051809103902090508160020160008281526020019081526020016000205460000361044f5760405163023679b760e21b815260040160405180910390fd5b6040518181527f69b058d6225c01c1f2a25801ca5b05705fa2e9118e93d518390ba804398c87b19060200160405180910390a16000908152600290910160205260408120555050565b6000805160206117fe8339815191526104b033610b61565b6104cd57604051633fdb5f0160e11b815260040160405180910390fd5b600083836040516104df9291906114b1565b6040805191829003909120600081815260028501602052918220549092509081900361051e5760405163023679b760e21b815260040160405180910390fd5b8042101561053f5760405163309272e160e11b815260040160405180910390fd5b6000828152600284016020526040808220829055845460ff60b01b1916600160b01b17855551309061057490889088906114b1565b6000604051808303816000865af19150503d80600081146105b1576040519150601f19603f3d011682016040523d82523d6000602084013e6105b6565b606091505b5050845460ff60b01b191685556040518481529091507fec1225e5a8a8acb91e03ce648c683c74f5d152a775b9715980999441d714c44f9060200160405180910390a161060281610db5565b505050505050565b6000546001600160a01b031633148061063b5750610626610710565b6001600160a01b0316336001600160a01b0316145b61065857604051631401019f60e11b815260040160405180910390fd5b61066181610dd2565b50565b6001600160a01b038116600090815260076020526040902080546060919061068b906114c1565b80601f01602080910402602001604051908101604052809291908181526020018280546106b7906114c1565b80156107045780601f106106d957610100808354040283529160200191610704565b820191906000526020600020905b8154815290600101906020018083116106e757829003601f168201915b50505050509050919050565b6000805160206117fe833981519152805460009190600160a81b900460ff166107465760018101546001600160a01b03166107b3565b805460408051631cc9492560e21b815290516001600160a01b03909216916373252494916004808201926020929091908290030181865afa15801561078f573d6000803e3d6000fd5b505050506040513d601f19601f820116820180604052508101906107b391906114fb565b91505090565b3360009081526001602052604090205460ff166107e957604051631408f3ef60e31b815260040160405180910390fd5b6001600160a01b038116158061081757506001600160a01b0381811660009081526002602052604090205416155b6108345760405163333b5b9360e11b815260040160405180910390fd5b336000908152600360205260409020546001600160a01b0316801561087a576001600160a01b038116600090815260026020526040902080546001600160a01b03191690555b33600090815260036020526040902080546001600160a01b0319166001600160a01b038416908117909155156108d3576001600160a01b038216600090815260026020526040902080546001600160a01b031916331790555b604080516001600160a01b0383811682528416602082015233917f174ce844d7e28d695e043ecb1f4f404b2b32b9d554236756bbbf09c730cfaf20910160405180910390a25050565b6001600160a01b038116600090815260056020526040902080546060919061068b906114c1565b6000546001600160a01b0316331480610974575061095f610710565b6001600160a01b0316336001600160a01b0316145b61099157604051631401019f60e11b815260040160405180910390fd5b61099a85610e46565b6109a78585858585610ee6565b5050505050565b6000546001600160a01b03163314806109df57506109ca610710565b6001600160a01b0316336001600160a01b0316145b6109fc57604051631401019f60e11b815260040160405180910390fd5b6001600160a01b0382166000908152600560205260409020610a1e8282611564565b50610a2882610fc0565b5050565b6001600160a01b038116600090815260066020526040902080546060919061068b906114c1565b6000546001600160a01b0316331480610a845750610a6f610710565b6001600160a01b0316336001600160a01b0316145b610aa157604051631401019f60e11b815260040160405180910390fd5b6001600160a01b0382166000908152600660205260409020610a1e8282611564565b6001600160a01b038116600090815260046020526040902080546060919061068b906114c1565b610af261102f565b15610b5457610aff611065565b600080546001600160a01b0319166001600160a01b0383169081179091556040519081527f198db6e425fb8aafd1823c6ca50be2d51e5764571a5ae0f0f21c6812e45def0b906020015b60405180910390a150565b61066160003660006110a9565b6000805160206117fe833981519152805460009190600160a01b900460ff168015610bf457508054604051630debfda360e41b81526001600160a01b0385811660048301529091169063debfda3090602401602060405180830381865afa158015610bd0573d6000803e3d6000fd5b505050506040513d601f19601f82011682018060405250810190610bf49190611623565b9392505050565b6000546001600160a01b0316331480610c2c5750610c17610710565b6001600160a01b0316336001600160a01b0316145b610c4957604051631401019f60e11b815260040160405180910390fd5b6001600160a01b0382166000908152600760205260409020610a1e8282611564565b610c73610d7a565b6000805160206117fe8339815191528054600160a81b900460ff1615610cac576040516339511f6160e11b815260040160405180910390fd5b6001810180546001600160a01b03191690558054600160a81b60ff60a81b1982161782556040516001600160a01b0390911681527f83af113638b5422f9e977cebc0aaf0eaf2188eb9a8baae7f9d46c42b33a1560c90602001610b49565b6000546001600160a01b0316331480610d3b5750610d26610710565b6001600160a01b0316336001600160a01b0316145b610d5857604051631401019f60e11b815260040160405180910390fd5b6001600160a01b0382166000908152600460205260409020610a1e8282611564565b610d82610710565b6001600160a01b0316336001600160a01b031614610db3576040516354348f0360e01b815260040160405180910390fd5b565b3d604051818101604052816000823e8215610dce578181f35b8181fd5b6001600160a01b03811660009081526001602052604090205460ff16610df55750565b6001600160a01b038116600081815260016020908152604091829020805460ff1916905590519182527fe01091cddc91f5497c62b6d5b4ae6514036739c2528f0463485236065e1eba4a9101610b49565b6001600160a01b038116610e6d57604051639fabe1c160e01b815260040160405180910390fd5b6001600160a01b03811660009081526001602052604090205460ff1615610e915750565b6001600160a01b038116600081815260016020818152604092839020805460ff191690921790915590519182527faab7954e9d246b167ef88aeddad35209ca2489d95a8aeb59e288d9b19fae5a549101610b49565b6001600160a01b0385166000908152600460205260409020610f088582611564565b506001600160a01b0385166000908152600560205260409020610f2b8482611564565b506001600160a01b0385166000908152600660205260409020610f4e8382611564565b506001600160a01b0385166000908152600760205260409020610f718282611564565b50846001600160a01b03167f37ba00dd71bd9df021c3096e44f644e4ab3fa32ac083e02e28ba21d3ec159fe185858585604051610fb19493929190611645565b60405180910390a25050505050565b6001600160a01b0381166000818152600460209081526040808320600583528184206006845282852060079094529382902091517f37ba00dd71bd9df021c3096e44f644e4ab3fa32ac083e02e28ba21d3ec159fe194611024949293909291611720565b60405180910390a250565b6000805160206117fe833981519152805460009190600160b01b900460ff16806107b3575054600160a81b900460ff1615919050565b6000805160206117fe8339815191528054600160b01b900460ff16156110a1573330146110945761109461176d565b805460ff60b01b19169055565b610661610d7a565b6000805160206117fe8339815191526110c0610d7a565b600084846040516110d29291906114b1565b604080519182900382208454636221a54b60e01b845291519093506000926001600160a01b0390921691636221a54b9160048083019260209291908290030181865afa158015611126573d6000803e3d6000fd5b505050506040513d601f19601f8201168201806040525081019061114a9190611783565b9050838110156111575750825b6000611163824261179c565b600084815260028601602052604090819020829055519091507f8c02104dfc280f713854f25297de671710c544c58de69dbde8fb66974ce1ab9e906111af9089908990879086906117bd565b60405180910390a150505050505050565b6000602082840312156111d257600080fd5b81356001600160e01b031981168114610bf457600080fd5b6001600160a01b038116811461066157600080fd5b60006020828403121561121157600080fd5b8135610bf4816111ea565b6000806020838503121561122f57600080fd5b823567ffffffffffffffff81111561124657600080fd5b8301601f8101851361125757600080fd5b803567ffffffffffffffff81111561126e57600080fd5b85602082840101111561128057600080fd5b6020919091019590945092505050565b6000815180845260005b818110156112b65760208185018101518683018201520161129a565b506000602082860101526020601f19601f83011685010191505092915050565b602081526000610bf46020830184611290565b634e487b7160e01b600052604160045260246000fd5b600082601f83011261131057600080fd5b813567ffffffffffffffff81111561132a5761132a6112e9565b604051601f8201601f19908116603f0116810167ffffffffffffffff81118282101715611359576113596112e9565b60405281815283820160200185101561137157600080fd5b816020850160208301376000918101602001919091529392505050565b600080600080600060a086880312156113a657600080fd5b85356113b1816111ea565b9450602086013567ffffffffffffffff8111156113cd57600080fd5b6113d9888289016112ff565b945050604086013567ffffffffffffffff8111156113f657600080fd5b611402888289016112ff565b935050606086013567ffffffffffffffff81111561141f57600080fd5b61142b888289016112ff565b925050608086013567ffffffffffffffff81111561144857600080fd5b611454888289016112ff565b9150509295509295909350565b6000806040838503121561147457600080fd5b823561147f816111ea565b9150602083013567ffffffffffffffff81111561149b57600080fd5b6114a7858286016112ff565b9150509250929050565b8183823760009101908152919050565b600181811c908216806114d557607f821691505b6020821081036114f557634e487b7160e01b600052602260045260246000fd5b50919050565b60006020828403121561150d57600080fd5b8151610bf4816111ea565b601f82111561155f57806000526020600020601f840160051c8101602085101561153f5750805b601f840160051c820191505b818110156109a7576000815560010161154b565b505050565b815167ffffffffffffffff81111561157e5761157e6112e9565b6115928161158c84546114c1565b84611518565b6020601f8211600181146115c657600083156115ae5750848201515b600019600385901b1c1916600184901b1784556109a7565b600084815260208120601f198516915b828110156115f657878501518255602094850194600190920191016115d6565b50848210156116145786840151600019600387901b60f8161c191681555b50505050600190811b01905550565b60006020828403121561163557600080fd5b81518015158114610bf457600080fd5b6080815260006116586080830187611290565b828103602084015261166a8187611290565b9050828103604084015261167e8186611290565b905082810360608401526116928185611290565b979650505050505050565b600081546116aa816114c1565b8085526001821680156116c457600181146116e057611717565b60ff1983166020870152602082151560051b8701019350611717565b84600052602060002060005b8381101561170e5781546020828a0101526001820191506020810190506116ec565b87016020019450505b50505092915050565b608081526000611733608083018761169d565b8281036020840152611745818761169d565b90508281036040840152611759818661169d565b90508281036060840152611692818561169d565b634e487b7160e01b600052600160045260246000fd5b60006020828403121561179557600080fd5b5051919050565b808201808211156103de57634e487b7160e01b600052601160045260246000fd5b606081528360608201528385608083013760006080858301015260006080601f19601f87011683010190508360208301528260408301529594505050505056fe2aa47ee5db910f3b2a06970c443249cc77dbd9f96100cfebc1775ab7fb1d1824a26469706673582212202aafe94d2904958baf3fe4a0b781ffd0a9883b7dbfde22356765d338f2c7a92c64736f6c634300081b0033",
  "linkReferences": {},
  "deployedLinkReferences": {}
}