{
  "_format": "hh-sol-artifact-1",
  "contractName": "AgentOwnerRegistry",
  "sourceName": "contracts/agentOwnerRegistry/implementation/AgentOwnerRegistry.sol",
  "abi": [
    {
      "inputs": [],
      "name": "AddressZero",
      "type": "error"
    },
    {
      "inputs": [],
      "name": "AgentNotWhitelisted",
      "type": "error"
    },
    {
      "inputs": [],
      "name": "AlreadyInProductionMode",
      "type": "error"
    },
    {
      "inputs": [],
      "name": "GovernedAddressZero",
      "type": "error"
    },
    {
      "inputs": [],
      "name": "GovernedAlreadyInitialized",
      "type": "error"
    },
    {
      "inputs": [],
      "name": "OnlyExecutor",
      "type": "error"
    },
    {
      "inputs": [],
      "name": "OnlyGovernance",
      "type": "error"
    },
    {
      "inputs": [],
      "name": "OnlyGovernanceOrManager",
      "type": "error"
    },
    {
      "inputs": [],
      "name": "TimelockInvalidSelector",
      "type": "error"
    },
    {
      "inputs": [],
      "name": "TimelockNotAllowedYet",
      "type": "error"
    },
    {
      "inputs": [],
      "name": "WorkAddressInUse",
      "type": "error"
    },
    {
      "anonymous": false,
      "inputs": [
        {
          "indexed": false,
          "internalType": "address",
          "name": "previousAdmin",
          "type": "address"
        },
        {
          "indexed": false,
          "internalType": "address",
          "name": "newAdmin",
          "type": "address"
        }
      ],
      "name": "AdminChanged",
      "type": "event"
    },
    {
      "anonymous": false,
      "inputs": [
        {
          "indexed": true,
          "internalType": "address",
          "name": "managementAddress",
          "type": "address"
        },
        {
          "indexed": false,
          "internalType": "string",
          "name": "name",
          "type": "string"
        },
        {
          "indexed": false,
          "internalType": "string",
          "name": "description",
          "type": "string"
        },
        {
          "indexed": false,
          "internalType": "string",
          "name": "iconUrl",
          "type": "string"
        },
        {
          "indexed": false,
          "internalType": "string",
          "name": "termsOfUseUrl",
          "type": "string"
        }
      ],
      "name": "AgentDataChanged",
      "type": "event"
    },
    {
      "anonymous": false,
      "inputs": [
        {
          "indexed": true,
          "internalType": "address",
          "name": "beacon",
          "type": "address"
        }
      ],
      "name": "BeaconUpgraded",
      "type": "event"
    },
    {
      "anonymous": false,
      "inputs": [
        {
          "indexed": false,
          "internalType": "bytes",
          "name": "encodedCall",
          "type": "bytes"
        },
        {
          "indexed": false,
          "internalType": "bytes32",
          "name": "encodedCallHash",
          "type": "bytes32"
        },
        {
          "indexed": false,
          "internalType": "uint256",
          "name": "allowedAfterTimestamp",
          "type": "uint256"
        }
      ],
      "name": "GovernanceCallTimelocked",
      "type": "event"
    },
    {
      "anonymous": false,
      "inputs": [
        {
          "indexed": false,
          "internalType": "address",
          "name": "initialGovernance",
          "type": "address"
        }
      ],
      "name": "GovernanceInitialised",
      "type": "event"
    },
    {
      "anonymous": false,
      "inputs": [
        {
          "indexed": false,
          "internalType": "address",
          "name": "governanceSettings",
          "type": "address"
        }
      ],
      "name": "GovernedProductionModeEntered",
      "type": "event"
    },
    {
      "anonymous": false,
      "inputs": [
        {
          "indexed": false,
          "internalType": "address",
          "name": "manager",
          "type": "address"
        }
      ],
      "name": "ManagerChanged",
      "type": "event"
    },
    {
      "anonymous": false,
      "inputs": [
        {
          "indexed": false,
          "internalType": "bytes32",
          "name": "encodedCallHash",
          "type": "bytes32"
        }
      ],
      "name": "TimelockedGovernanceCallCanceled",
      "type": "event"
    },
    {
      "anonymous": false,
      "inputs": [
        {
          "indexed": false,
          "internalType": "bytes32",
          "name": "encodedCallHash",
          "type": "bytes32"
        }
      ],
      "name": "TimelockedGovernanceCallExecuted",
      "type": "event"
    },
    {
      "anonymous": false,
      "inputs": [
        {
          "indexed": true,
          "internalType": "address",
          "name": "implementation",
          "type": "address"
        }
      ],
      "name": "Upgraded",
      "type": "event"
    },
    {
      "anonymous": false,
      "inputs": [
        {
          "indexed": false,
          "internalType": "address",
          "name": "value",
          "type": "address"
        }
      ],
      "name": "Whitelisted",
      "type": "event"
    },
    {
      "anonymous": false,
      "inputs": [
        {
          "indexed": false,
          "internalType": "address",
          "name": "value",
          "type": "address"
        }
      ],
      "name": "WhitelistingRevoked",
      "type": "event"
    },
    {
      "anonymous": false,
      "inputs": [
        {
          "indexed": true,
          "internalType": "address",
          "name": "managementAddress",
          "type": "address"
        },
        {
          "indexed": false,
          "internalType": "address",
          "name": "prevWorkAddress",
          "type": "address"
        },
        {
          "indexed": false,
          "internalType": "address",
          "name": "workAddress",
          "type": "address"
        }
      ],
      "name": "WorkAddressChanged",
      "type": "event"
    },
    {
      "inputs": [
        {
          "internalType": "bytes",
          "name": "_encodedCall",
          "type": "bytes"
        }
      ],
      "name": "cancelGovernanceCall",
      "outputs": [],
      "stateMutability": "nonpayable",
      "type": "function"
    },
    {
      "inputs": [
        {
          "internalType": "bytes",
          "name": "_encodedCall",
          "type": "bytes"
        }
      ],
      "name": "executeGovernanceCall",
      "outputs": [],
      "stateMutability": "nonpayable",
      "type": "function"
    },
    {
      "inputs": [
        {
          "internalType": "address",
          "name": "_managementAddress",
          "type": "address"
        }
      ],
      "name": "getAgentDescription",
      "outputs": [
        {
          "internalType": "string",
          "name": "",
          "type": "string"
        }
      ],
      "stateMutability": "view",
      "type": "function"
    },
    {
      "inputs": [
        {
          "internalType": "address",
          "name": "_managementAddress",
          "type": "address"
        }
      ],
      "name": "getAgentIconUrl",
      "outputs": [
        {
          "internalType": "string",
          "name": "",
          "type": "string"
        }
      ],
      "stateMutability": "view",
      "type": "function"
    },
    {
      "inputs": [
        {
          "internalType": "address",
          "name": "_managementAddress",
          "type": "address"
        }
      ],
      "name": "getAgentName",
      "outputs": [
        {
          "internalType": "string",
          "name": "",
          "type": "string"
        }
      ],
      "stateMutability": "view",
      "type": "function"
    },
    {
      "inputs": [
        {
          "internalType": "address",
          "name": "_managementAddress",
          "type": "address"
        }
      ],
      "name": "getAgentTermsOfUseUrl",
      "outputs": [
        {
          "internalType": "string",
          "name": "",
          "type": "string"
        }
      ],
      "stateMutability": "view",
      "type": "function"
    },
    {
      "inputs": [
        {
          "internalType": "address",
          "name": "_workAddress",
          "type": "address"
        }
      ],
      "name": "getManagementAddress",
      "outputs": [
        {
          "internalType": "address",
          "name": "",
          "type": "address"
        }
      ],
      "stateMutability": "view",
      "type": "function"
    },
    {
      "inputs": [
        {
          "internalType": "address",
          "name": "_managementAddress",
          "type": "address"
        }
      ],
      "name": "getWorkAddress",
      "outputs": [
        {
          "internalType": "address",
          "name": "",
          "type": "address"
        }
      ],
      "stateMutability": "view",
      "type": "function"
    },
    {
      "inputs": [],
      "name": "governance",
      "outputs": [
        {
          "internalType": "address",
          "name": "",
          "type": "address"
        }
      ],
      "stateMutability": "view",
      "type": "function"
    },
    {
      "inputs": [],
      "name": "governanceSettings",
      "outputs": [
        {
          "internalType": "contract IGovernanceSettings",
          "name": "",
          "type": "address"
        }
      ],
      "stateMutability": "view",
      "type": "function"
    },
    {
      "inputs": [
        {
          "internalType": "contract IGovernanceSettings",
          "name": "_governanceSettings",
          "type": "address"
        },
        {
          "internalType": "address",
          "name": "_initialGovernance",
          "type": "address"
        }
      ],
      "name": "initialize",
      "outputs": [],
      "stateMutability": "nonpayable",
      "type": "function"
    },
    {
      "inputs": [
        {
          "internalType": "address",
          "name": "_address",
          "type": "address"
        }
      ],
      "name": "isExecutor",
      "outputs": [
        {
          "internalType": "bool",
          "name": "",
          "type": "bool"
        }
      ],
      "stateMutability": "view",
      "type": "function"
    },
    {
      "inputs": [
        {
          "internalType": "address",
          "name": "_address",
          "type": "address"
        }
      ],
      "name": "isWhitelisted",
      "outputs": [
        {
          "internalType": "bool",
          "name": "",
          "type": "bool"
        }
      ],
      "stateMutability": "view",
      "type": "function"
    },
    {
      "inputs": [],
      "name": "manager",
      "outputs": [
        {
          "internalType": "address",
          "name": "",
          "type": "address"
        }
      ],
      "stateMutability": "view",
      "type": "function"
    },
    {
      "inputs": [],
      "name": "productionMode",
      "outputs": [
        {
          "internalType": "bool",
          "name": "",
          "type": "bool"
        }
      ],
      "stateMutability": "view",
      "type": "function"
    },
    {
      "inputs": [],
      "name": "proxiableUUID",
      "outputs": [
        {
          "internalType": "bytes32",
          "name": "",
          "type": "bytes32"
        }
      ],
      "stateMutability": "view",
      "type": "function"
    },
    {
      "inputs": [
        {
          "internalType": "address",
          "name": "_address",
          "type": "address"
        }
      ],
      "name": "revokeAddress",
      "outputs": [],
      "stateMutability": "nonpayable",
      "type": "function"
    },
    {
      "inputs": [
        {
          "internalType": "address",
          "name": "_managementAddress",
          "type": "address"
        },
        {
          "internalType": "string",
          "name": "_description",
          "type": "string"
        }
      ],
      "name": "setAgentDescription",
      "outputs": [],
      "stateMutability": "nonpayable",
      "type": "function"
    },
    {
      "inputs": [
        {
          "internalType": "address",
          "name": "_managementAddress",
          "type": "address"
        },
        {
          "internalType": "string",
          "name": "_iconUrl",
          "type": "string"
        }
      ],
      "name": "setAgentIconUrl",
      "outputs": [],
      "stateMutability": "nonpayable",
      "type": "function"
    },
    {
      "inputs": [
        {
          "internalType": "address",
          "name": "_managementAddress",
          "type": "address"
        },
        {
          "internalType": "string",
          "name": "_name",
          "type": "string"
        }
      ],
      "name": "setAgentName",
      "outputs": [],
      "stateMutability": "nonpayable",
      "type": "function"
    },
    {
      "inputs": [
        {
          "internalType": "address",
          "name": "_managementAddress",
          "type": "address"
        },
        {
          "internalType": "string",
          "name": "_touUrl",
          "type": "string"
        }
      ],
      "name": "setAgentTermsOfUseUrl",
      "outputs": [],
      "stateMutability": "nonpayable",
      "type": "function"
    },
    {
      "inputs": [
        {
          "internalType": "address",
          "name": "_manager",
          "type": "address"
        }
      ],
      "name": "setManager",
      "outputs": [],
      "stateMutability": "nonpayable",
      "type": "function"
    },
    {
      "inputs": [
        {
          "internalType": "address",
          "name": "_ownerWorkAddress",
          "type": "address"
        }
      ],
      "name": "setWorkAddress",
      "outputs": [],
      "stateMutability": "nonpayable",
      "type": "function"
    },
    {
      "inputs": [
        {
          "internalType": "bytes4",
          "name": "_interfaceId",
          "type": "bytes4"
        }
      ],
      "name": "supportsInterface",
      "outputs": [
        {
          "internalType": "bool",
          "name": "",
          "type": "bool"
        }
      ],
      "stateMutability": "pure",
      "type": "function"
    },
    {
      "inputs": [],
      "name": "switchToProductionMode",
      "outputs": [],
      "stateMutability": "nonpayable",
      "type": "function"
    },
    {
      "inputs": [
        {
          "internalType": "address",
          "name": "newImplementation",
          "type": "address"
        }
      ],
      "name": "upgradeTo",
      "outputs": [],
      "stateMutability": "nonpayable",
      "type": "function"
    },
    {
      "inputs": [
        {
          "internalType": "address",
          "name": "newImplementation",
          "type": "address"
        },
        {
          "internalType": "bytes",
          "name": "data",
          "type": "bytes"
        }
      ],
      "name": "upgradeToAndCall",
      "outputs": [],
      "stateMutability": "payable",
      "type": "function"
    },
    {
      "inputs": [
        {
          "internalType": "address",
          "name": "_managementAddress",
          "type": "address"
        },
        {
          "internalType": "string",
          "name": "_name",
          "type": "string"
        },
        {
          "internalType": "string",
          "name": "_description",
          "type": "string"
        },
        {
          "internalType": "string",
          "name": "_iconUrl",
          "type": "string"
        },
        {
          "internalType": "string",
          "name": "_touUrl",
          "type": "string"
        }
      ],
      "name": "whitelistAndDescribeAgent",
      "outputs": [],
      "stateMutability": "nonpayable",
      "type": "function"
    }
  ],
  "bytecode": "0x60a06040523060805234801561001457600080fd5b5061002161111180610026565b610135565b7f2aa47ee5db910f3b2a06970c443249cc77dbd9f96100cfebc1775ab7fb1d18248054600160a01b900460ff16156100715760405163b2f0162160e01b815260040160405180910390fd5b6001600160a01b038316610098576040516334ab92fb60e11b815260040160405180910390fd5b6001600160a01b0382166100bf576040516334ab92fb60e11b815260040160405180910390fd5b80546001600160a01b038481166001600160a81b031990921691909117600160a01b1782556001820180549184166001600160a01b0319909216821790556040519081527f9789733827840833afc031fb2ef9ab6894271f77bad2085687cf4ae5c7bee4db9060200160405180910390a1505050565b60805161233b61016c6000396000818161087a015281816108c30152818161096f015281816109af0152610a2b015261233b6000f3fe6080604052600436106101b75760003560e01c8063689baff0116100ec578063d0ebdbe71161008a578063ec8fbdb011610064578063ec8fbdb014610516578063f5a9838314610536578063f72eaade1461054b578063fc31a2e81461056b57600080fd5b8063d0ebdbe7146104aa578063debfda30146104ca578063e17f212e146104ea57600080fd5b80638c30defc116100c65780638c30defc1461042a5780638d28b5e91461044a578063baddba2c1461046a578063c60623921461048a57600080fd5b8063689baff0146103ca57806378d2ac29146103ea5780637f32be9e1461040a57600080fd5b8063481c6a751161015957806352d1902d1161013357806352d1902d146103505780635553b1fd146103735780635aa6e675146103a057806362354e03146103b557600080fd5b8063481c6a75146102fd578063485cc9551461031d5780634f1ef2861461033d57600080fd5b806320c5f99d1161019557806320c5f99d14610264578063317a7aec146102845780633659cfe6146102a45780633af32abf146102c457600080fd5b806301ffc9a7146101bc578063073e824e146101f157806316fc2f6d14610242575b600080fd5b3480156101c857600080fd5b506101dc6101d7366004611b0a565b6105a4565b60405190151581526020015b60405180910390f35b3480156101fd57600080fd5b5061022a61020c366004611b49565b6001600160a01b039081166000908152600260205260409020541690565b6040516001600160a01b0390911681526020016101e8565b34801561024e57600080fd5b5061026261025d366004611b66565b6105db565b005b34801561027057600080fd5b5061026261027f366004611b66565b61068f565b34801561029057600080fd5b5061026261029f366004611b49565b610801565b3480156102b057600080fd5b506102626102bf366004611b49565b61085b565b3480156102d057600080fd5b506101dc6102df366004611b49565b6001600160a01b031660009081526001602052604090205460ff1690565b34801561030957600080fd5b5060005461022a906001600160a01b031681565b34801561032957600080fd5b50610262610338366004611bda565b610942565b61026261034b366004611ca3565b610950565b34801561035c57600080fd5b50610365610a1e565b6040519081526020016101e8565b34801561037f57600080fd5b5061039361038e366004611b49565b610ad1565b6040516101e89190611d57565b3480156103ac57600080fd5b5061022a610b7d565b3480156103c157600080fd5b5061022a610c26565b3480156103d657600080fd5b506102626103e5366004611b49565b610c47565b3480156103f657600080fd5b50610393610405366004611b49565b610daa565b34801561041657600080fd5b50610262610425366004611d8a565b610dd1565b34801561043657600080fd5b50610262610445366004611e5d565b610e3c565b34801561045657600080fd5b50610393610465366004611b49565b610eb6565b34801561047657600080fd5b50610262610485366004611e5d565b610edd565b34801561049657600080fd5b506103936104a5366004611b49565b610f4d565b3480156104b657600080fd5b506102626104c5366004611b49565b610f74565b3480156104d657600080fd5b506101dc6104e5366004611b49565b610fde565b3480156104f657600080fd5b506000805160206122e683398151915254600160a81b900460ff166101dc565b34801561052257600080fd5b50610262610531366004611e5d565b611078565b34801561054257600080fd5b506102626110e8565b34801561055757600080fd5b50610262610566366004611e5d565b611187565b34801561057757600080fd5b5061022a610586366004611b49565b6001600160a01b039081166000908152600360205260409020541690565b60006001600160e01b031982166301ffc9a760e01b14806105d557506001600160e01b031982166353a9c0db60e11b145b92915050565b6105e36111f7565b6040516000805160206122e6833981519152906000906106069085908590611ea3565b60405180910390209050816002016000828152602001908152602001600020546000036106465760405163023679b760e21b815260040160405180910390fd5b6040518181527f69b058d6225c01c1f2a25801ca5b05705fa2e9118e93d518390ba804398c87b19060200160405180910390a16000908152600290910160205260408120555050565b6000805160206122e68339815191526106a733610fde565b6106c457604051633fdb5f0160e11b815260040160405180910390fd5b600083836040516106d6929190611ea3565b604080519182900390912060008181526002850160205291822054909250908190036107155760405163023679b760e21b815260040160405180910390fd5b804210156107365760405163309272e160e11b815260040160405180910390fd5b6000828152600284016020526040808220829055845460ff60b01b1916600160b01b17855551309061076b9088908890611ea3565b6000604051808303816000865af19150503d80600081146107a8576040519150601f19603f3d011682016040523d82523d6000602084013e6107ad565b606091505b5050845460ff60b01b191685556040518481529091507fec1225e5a8a8acb91e03ce648c683c74f5d152a775b9715980999441d714c44f9060200160405180910390a16107f981611232565b505050505050565b6000546001600160a01b0316331480610832575061081d610b7d565b6001600160a01b0316336001600160a01b0316145b61084f57604051631401019f60e11b815260040160405180910390fd5b6108588161124f565b50565b6108636112c3565b15610935576108706112f9565b6001600160a01b037f00000000000000000000000000000000000000000000000000000000000000001630036108c15760405162461bcd60e51b81526004016108b890611eb3565b60405180910390fd5b7f00000000000000000000000000000000000000000000000000000000000000006001600160a01b03166108f361133d565b6001600160a01b0316146109195760405162461bcd60e51b81526004016108b890611eff565b6040805160008082526020820190925261085891839190611353565b61085860003660006114c3565b61094c82826115da565b5050565b6109586112c3565b15610a11576109656112f9565b6001600160a01b037f00000000000000000000000000000000000000000000000000000000000000001630036109ad5760405162461bcd60e51b81526004016108b890611eb3565b7f00000000000000000000000000000000000000000000000000000000000000006001600160a01b03166109df61133d565b6001600160a01b031614610a055760405162461bcd60e51b81526004016108b890611eff565b61094c82826001611353565b61094c60003660006114c3565b6000306001600160a01b037f00000000000000000000000000000000000000000000000000000000000000001614610abe5760405162461bcd60e51b815260206004820152603860248201527f555550535570677261646561626c653a206d757374206e6f742062652063616c60448201527f6c6564207468726f7567682064656c656761746563616c6c000000000000000060648201526084016108b8565b5060008051602061229f83398151915290565b6001600160a01b0381166000908152600760205260409020805460609190610af890611f4b565b80601f0160208091040260200160405190810160405280929190818152602001828054610b2490611f4b565b8015610b715780601f10610b4657610100808354040283529160200191610b71565b820191906000526020600020905b815481529060010190602001808311610b5457829003601f168201915b50505050509050919050565b6000805160206122e6833981519152805460009190600160a81b900460ff16610bb35760018101546001600160a01b0316610c20565b805460408051631cc9492560e21b815290516001600160a01b03909216916373252494916004808201926020929091908290030181865afa158015610bfc573d6000803e3d6000fd5b505050506040513d601f19601f82011682018060405250810190610c209190611f85565b91505090565b60006000805160206122e68339815191525b546001600160a01b0316919050565b3360009081526001602052604090205460ff16610c7757604051631408f3ef60e31b815260040160405180910390fd5b6001600160a01b0381161580610ca557506001600160a01b0381811660009081526002602052604090205416155b610cc25760405163333b5b9360e11b815260040160405180910390fd5b336000908152600360205260409020546001600160a01b03168015610d08576001600160a01b038116600090815260026020526040902080546001600160a01b03191690555b33600090815260036020526040902080546001600160a01b0319166001600160a01b03841690811790915515610d61576001600160a01b038216600090815260026020526040902080546001600160a01b031916331790555b604080516001600160a01b0383811682528416602082015233917f174ce844d7e28d695e043ecb1f4f404b2b32b9d554236756bbbf09c730cfaf20910160405180910390a25050565b6001600160a01b0381166000908152600560205260409020805460609190610af890611f4b565b6000546001600160a01b0316331480610e025750610ded610b7d565b6001600160a01b0316336001600160a01b0316145b610e1f57604051631401019f60e11b815260040160405180910390fd5b610e28856116d7565b610e358585858585611777565b5050505050565b6000546001600160a01b0316331480610e6d5750610e58610b7d565b6001600160a01b0316336001600160a01b0316145b610e8a57604051631401019f60e11b815260040160405180910390fd5b6001600160a01b0382166000908152600560205260409020610eac8282611fe9565b5061094c82611851565b6001600160a01b0381166000908152600660205260409020805460609190610af890611f4b565b6000546001600160a01b0316331480610f0e5750610ef9610b7d565b6001600160a01b0316336001600160a01b0316145b610f2b57604051631401019f60e11b815260040160405180910390fd5b6001600160a01b0382166000908152600660205260409020610eac8282611fe9565b6001600160a01b0381166000908152600460205260409020805460609190610af890611f4b565b610f7c6112c3565b1561093557610f896112f9565b600080546001600160a01b0319166001600160a01b0383169081179091556040519081527f198db6e425fb8aafd1823c6ca50be2d51e5764571a5ae0f0f21c6812e45def0b906020015b60405180910390a150565b6000805160206122e6833981519152805460009190600160a01b900460ff16801561107157508054604051630debfda360e41b81526001600160a01b0385811660048301529091169063debfda3090602401602060405180830381865afa15801561104d573d6000803e3d6000fd5b505050506040513d601f19601f8201168201806040525081019061107191906120a8565b9392505050565b6000546001600160a01b03163314806110a95750611094610b7d565b6001600160a01b0316336001600160a01b0316145b6110c657604051631401019f60e11b815260040160405180910390fd5b6001600160a01b0382166000908152600760205260409020610eac8282611fe9565b6110f06111f7565b6000805160206122e68339815191528054600160a81b900460ff1615611129576040516339511f6160e11b815260040160405180910390fd5b6001810180546001600160a01b03191690558054600160a81b60ff60a81b1982161782556040516001600160a01b0390911681527f83af113638b5422f9e977cebc0aaf0eaf2188eb9a8baae7f9d46c42b33a1560c90602001610fd3565b6000546001600160a01b03163314806111b857506111a3610b7d565b6001600160a01b0316336001600160a01b0316145b6111d557604051631401019f60e11b815260040160405180910390fd5b6001600160a01b0382166000908152600460205260409020610eac8282611fe9565b6111ff610b7d565b6001600160a01b0316336001600160a01b031614611230576040516354348f0360e01b815260040160405180910390fd5b565b3d604051818101604052816000823e821561124b578181f35b8181fd5b6001600160a01b03811660009081526001602052604090205460ff166112725750565b6001600160a01b038116600081815260016020908152604091829020805460ff1916905590519182527fe01091cddc91f5497c62b6d5b4ae6514036739c2528f0463485236065e1eba4a9101610fd3565b6000805160206122e6833981519152805460009190600160b01b900460ff1680610c20575054600160a81b900460ff1615919050565b6000805160206122e68339815191528054600160b01b900460ff161561133557333014611328576113286120ca565b805460ff60b01b19169055565b6108586111f7565b600060008051602061229f833981519152610c38565b7f4910fdfa16fed3260ed0e7147f7cc6da11a60208b5b9406d12a635614ffd91435460ff161561138b57611386836118c0565b505050565b826001600160a01b03166352d1902d6040518163ffffffff1660e01b8152600401602060405180830381865afa9250505080156113e5575060408051601f3d908101601f191682019092526113e2918101906120e0565b60015b6114485760405162461bcd60e51b815260206004820152602e60248201527f45524331393637557067726164653a206e657720696d706c656d656e7461746960448201526d6f6e206973206e6f74205555505360901b60648201526084016108b8565b60008051602061229f83398151915281146114b75760405162461bcd60e51b815260206004820152602960248201527f45524331393637557067726164653a20756e737570706f727465642070726f786044820152681a58589b195555525160ba1b60648201526084016108b8565b5061138683838361195c565b6000805160206122e68339815191526114da6111f7565b600084846040516114ec929190611ea3565b604080519182900382208454636221a54b60e01b845291519093506000926001600160a01b0390921691636221a54b9160048083019260209291908290030181865afa158015611540573d6000803e3d6000fd5b505050506040513d601f19601f8201168201806040525081019061156491906120e0565b9050838110156115715750825b600061157d82426120f9565b600084815260028601602052604090819020829055519091507f8c02104dfc280f713854f25297de671710c544c58de69dbde8fb66974ce1ab9e906115c990899089908790869061211a565b60405180910390a150505050505050565b6000805160206122e68339815191528054600160a01b900460ff16156116135760405163b2f0162160e01b815260040160405180910390fd5b6001600160a01b03831661163a576040516334ab92fb60e11b815260040160405180910390fd5b6001600160a01b038216611661576040516334ab92fb60e11b815260040160405180910390fd5b80546001600160a01b038481166001600160a81b031990921691909117600160a01b1782556001820180549184166001600160a01b0319909216821790556040519081527f9789733827840833afc031fb2ef9ab6894271f77bad2085687cf4ae5c7bee4db9060200160405180910390a1505050565b6001600160a01b0381166116fe57604051639fabe1c160e01b815260040160405180910390fd5b6001600160a01b03811660009081526001602052604090205460ff16156117225750565b6001600160a01b038116600081815260016020818152604092839020805460ff191690921790915590519182527faab7954e9d246b167ef88aeddad35209ca2489d95a8aeb59e288d9b19fae5a549101610fd3565b6001600160a01b03851660009081526004602052604090206117998582611fe9565b506001600160a01b03851660009081526005602052604090206117bc8482611fe9565b506001600160a01b03851660009081526006602052604090206117df8382611fe9565b506001600160a01b03851660009081526007602052604090206118028282611fe9565b50846001600160a01b03167f37ba00dd71bd9df021c3096e44f644e4ab3fa32ac083e02e28ba21d3ec159fe185858585604051611842949392919061215a565b60405180910390a25050505050565b6001600160a01b0381166000818152600460209081526040808320600583528184206006845282852060079094529382902091517f37ba00dd71bd9df021c3096e44f644e4ab3fa32ac083e02e28ba21d3ec159fe1946118b5949293909291612235565b60405180910390a250565b6001600160a01b0381163b61192d5760405162461bcd60e51b815260206004820152602d60248201527f455243313936373a206e657720696d706c656d656e746174696f6e206973206e60448201526c1bdd08184818dbdb9d1c9858dd609a1b60648201526084016108b8565b60008051602061229f83398151915280546001600160a01b0319166001600160a01b0392909216919091179055565b61196583611987565b6000825111806119725750805b156113865761198183836119c7565b50505050565b611990816118c0565b6040516001600160a01b038216907fbc7cd75a20ee27fd9adebab32041f755214dbc6bffa90cc0225b39da2e5c2d3b90600090a250565b606061107183836040518060600160405280602781526020016122bf602791396060600080856001600160a01b031685604051611a049190612282565b600060405180830381855af49150503d8060008114611a3f576040519150601f19603f3d011682016040523d82523d6000602084013e611a44565b606091505b5091509150611a5586838387611a5f565b9695505050505050565b60608315611ace578251600003611ac7576001600160a01b0385163b611ac75760405162461bcd60e51b815260206004820152601d60248201527f416464726573733a2063616c6c20746f206e6f6e2d636f6e747261637400000060448201526064016108b8565b5081611ad8565b611ad88383611ae0565b949350505050565b815115611af05781518083602001fd5b8060405162461bcd60e51b81526004016108b89190611d57565b600060208284031215611b1c57600080fd5b81356001600160e01b03198116811461107157600080fd5b6001600160a01b038116811461085857600080fd5b600060208284031215611b5b57600080fd5b813561107181611b34565b60008060208385031215611b7957600080fd5b823567ffffffffffffffff811115611b9057600080fd5b8301601f81018513611ba157600080fd5b803567ffffffffffffffff811115611bb857600080fd5b856020828401011115611bca57600080fd5b6020919091019590945092505050565b60008060408385031215611bed57600080fd5b8235611bf881611b34565b91506020830135611c0881611b34565b809150509250929050565b634e487b7160e01b600052604160045260246000fd5b60008067ffffffffffffffff841115611c4457611c44611c13565b50604051601f19601f85018116603f0116810181811067ffffffffffffffff82111715611c7357611c73611c13565b604052838152905080828401851015611c8b57600080fd5b83836020830137600060208583010152509392505050565b60008060408385031215611cb657600080fd5b8235611cc181611b34565b9150602083013567ffffffffffffffff811115611cdd57600080fd5b8301601f81018513611cee57600080fd5b611cfd85823560208401611c29565b9150509250929050565b60005b83811015611d22578181015183820152602001611d0a565b50506000910152565b60008151808452611d43816020860160208601611d07565b601f01601f19169290920160200192915050565b6020815260006110716020830184611d2b565b600082601f830112611d7b57600080fd5b61107183833560208501611c29565b600080600080600060a08688031215611da257600080fd5b8535611dad81611b34565b9450602086013567ffffffffffffffff811115611dc957600080fd5b611dd588828901611d6a565b945050604086013567ffffffffffffffff811115611df257600080fd5b611dfe88828901611d6a565b935050606086013567ffffffffffffffff811115611e1b57600080fd5b611e2788828901611d6a565b925050608086013567ffffffffffffffff811115611e4457600080fd5b611e5088828901611d6a565b9150509295509295909350565b60008060408385031215611e7057600080fd5b8235611e7b81611b34565b9150602083013567ffffffffffffffff811115611e9757600080fd5b611cfd85828601611d6a565b8183823760009101908152919050565b6020808252602c908201527f46756e6374696f6e206d7573742062652063616c6c6564207468726f7567682060408201526b19195b1959d85d1958d85b1b60a21b606082015260800190565b6020808252602c908201527f46756e6374696f6e206d7573742062652063616c6c6564207468726f7567682060408201526b6163746976652070726f787960a01b606082015260800190565b600181811c90821680611f5f57607f821691505b602082108103611f7f57634e487b7160e01b600052602260045260246000fd5b50919050565b600060208284031215611f9757600080fd5b815161107181611b34565b601f82111561138657806000526020600020601f840160051c81016020851015611fc95750805b601f840160051c820191505b81811015610e355760008155600101611fd5565b815167ffffffffffffffff81111561200357612003611c13565b612017816120118454611f4b565b84611fa2565b6020601f82116001811461204b57600083156120335750848201515b600019600385901b1c1916600184901b178455610e35565b600084815260208120601f198516915b8281101561207b578785015182556020948501946001909201910161205b565b50848210156120995786840151600019600387901b60f8161c191681555b50505050600190811b01905550565b6000602082840312156120ba57600080fd5b8151801515811461107157600080fd5b634e487b7160e01b600052600160045260246000fd5b6000602082840312156120f257600080fd5b5051919050565b808201808211156105d557634e487b7160e01b600052601160045260246000fd5b606081528360608201528385608083013760006080858301015260006080601f19601f870116830101905083602083015282604083015295945050505050565b60808152600061216d6080830187611d2b565b828103602084015261217f8187611d2b565b905082810360408401526121938186611d2b565b905082810360608401526121a78185611d2b565b979650505050505050565b600081546121bf81611f4b565b8085526001821680156121d957600181146121f55761222c565b60ff1983166020870152602082151560051b870101935061222c565b84600052602060002060005b838110156122235781546020828a010152600182019150602081019050612201565b87016020019450505b50505092915050565b60808152600061224860808301876121b2565b828103602084015261225a81876121b2565b9050828103604084015261226e81866121b2565b905082810360608401526121a781856121b2565b60008251612294818460208701611d07565b919091019291505056fe360894a13ba1a3210667c828492db98dca3e2076cc3735a920a3ca505d382bbc416464726573733a206c6f772d6c6576656c2064656c65676174652063616c6c206661696c65642aa47ee5db910f3b2a06970c443249cc77dbd9f96100cfebc1775ab7fb1d1824a2646970667358221220d647d7491c0ee31c7687466fc7d4435fe611f1cc1fc8ecf005c4e28d4c04f78064736f6c634300081b0033",
  "linkReferences": {},
  "deployedLinkReferences": {}
}