{
  "_format": "hh-sol-artifact-1",
  "contractName": "ReentrancyMock",
  "sourceName": "contracts/openzeppelin/mock/ReentrancyMock.sol",
  "abi": [
    {
      "inputs": [
        {
          "internalType": "bool",
          "name": "_initialize",
          "type": "bool"
        }
      ],
      "stateMutability": "nonpayable",
      "type": "constructor"
    },
    {
      "inputs": [],
      "name": "ReentrancyGuardReentrantCall",
      "type": "error"
    },
    {
      "inputs": [],
      "name": "ReentrancyGuardRequired",
      "type": "error"
    },
    {
      "inputs": [],
      "name": "callback",
      "outputs": [],
      "stateMutability": "nonpayable",
      "type": "function"
    },
    {
      "inputs": [
        {
          "internalType": "contract ReentrancyAttackMock",
          "name": "attacker",
          "type": "address"
        }
      ],
      "name": "countAndCall",
      "outputs": [],
      "stateMutability": "nonpayable",
      "type": "function"
    },
    {
      "inputs": [
        {
          "internalType": "uint256",
          "name": "n",
          "type": "uint256"
        }
      ],
      "name": "countLocalRecursive",
      "outputs": [],
      "stateMutability": "nonpayable",
      "type": "function"
    },
    {
      "inputs": [
        {
          "internalType": "uint256",
          "name": "n",
          "type": "uint256"
        }
      ],
      "name": "countThisRecursive",
      "outputs": [],
      "stateMutability": "nonpayable",
      "type": "function"
    },
    {
      "inputs": [],
      "name": "counter",
      "outputs": [
        {
          "internalType": "uint256",
          "name": "",
          "type": "uint256"
        }
      ],
      "stateMutability": "view",
      "type": "function"
    },
    {
      "inputs": [],
      "name": "guardedCheckEntered",
      "outputs": [],
      "stateMutability": "nonpayable",
      "type": "function"
    },
    {
      "inputs": [],
      "name": "unguardedCheckNotEntered",
      "outputs": [],
      "stateMutability": "view",
      "type": "function"
    },
    {
      "inputs": [],
      "name": "unguardedMethodThatShouldFail",
      "outputs": [],
      "stateMutability": "nonpayable",
      "type": "function"
    }
  ],
  "bytecode": "0x6080604052348015600f57600080fd5b506040516105b93803806105b9833981016040819052602c91606a565b801560375760376040565b50600080556091565b606860017f0cd2207518cd3e5213e2c6dbe63d55b60aa893c194a427b7d7f1600408fd5bde55565b565b600060208284031215607b57600080fd5b81518015158114608a57600080fd5b9392505050565b610519806100a06000396000f3fe608060405234801561001057600080fd5b50600436106100885760003560e01c806396ffa6901161005b57806396ffa690146100cd578063a408f312146100e0578063b672ad8b146100e8578063cecc95a7146100fb57600080fd5b8063083b27321461008d57806361bc221a146100975780636eea204a146100b25780638c5344fa146100ba575b600080fd5b610095610103565b005b6100a060005481565b60405190815260200160405180910390f35b610095610134565b6100956100c8366004610409565b610144565b6100956100db366004610409565b61026a565b610095610296565b6100956100f6366004610422565b6102ba565b610095610364565b61010b610380565b6101136103b8565b61011b6103c0565b61013260016000805160206104c483398151915255565b565b61013c6103b8565b6101326103c0565b61014c610380565b6101546103b8565b8015610250576101626103c0565b600030610170600184610468565b60405160240161018291815260200190565b60408051601f198184030181529181526020820180516001600160e01b0316634629a27d60e11b179052516101b79190610481565b6000604051808303816000865af19150503d80600081146101f4576040519150601f19603f3d011682016040523d82523d6000602084013e6101f9565b606091505b505090508061024e5760405162461bcd60e51b815260206004820152601b60248201527f5265656e7472616e63794d6f636b3a206661696c65642063616c6c0000000000604482015260640160405180910390fd5b505b61026760016000805160206104c483398151915255565b50565b610272610380565b61027a6103b8565b8015610250576102886103c0565b6102506100db600183610468565b61029e610380565b6000805160206104c48339815191525460021461011b57600080fd5b6102c2610380565b6102ca6103c0565b604051630a2df1ed60e01b815263041d939960e11b60048201527f083b2732f78169bfaad6b407fa338cc97d697ed69d3915a18239cc111d51a402906001600160a01b03831690630a2df1ed90602401600060405180830381600087803b15801561033457600080fd5b505af1158015610348573d6000803e3d6000fd5b505050505061026760016000805160206104c483398151915255565b6000805160206104c48339815191525460020361013257600080fd5b6000805160206104c48339815191528054600119016103b257604051633ee5aeb560e01b815260040160405180910390fd5b60029055565b6101326103d9565b60016000808282546103d291906104b0565b9091555050565b6000805160206104c48339815191525460021461013257604051635bff566960e01b815260040160405180910390fd5b60006020828403121561041b57600080fd5b5035919050565b60006020828403121561043457600080fd5b81356001600160a01b038116811461044b57600080fd5b9392505050565b634e487b7160e01b600052601160045260246000fd5b8181038181111561047b5761047b610452565b92915050565b6000825160005b818110156104a25760208186018101518583015201610488565b506000920191825250919050565b8082018082111561047b5761047b61045256fe0cd2207518cd3e5213e2c6dbe63d55b60aa893c194a427b7d7f1600408fd5bdea2646970667358221220bcc427884307f1fcf3291d2e468e0ed0df5ee418532a15d097335df6068100df64736f6c634300081b0033",
  "linkReferences": {},
  "deployedLinkReferences": {}
}