{
  "_format": "hh-sol-artifact-1",
  "contractName": "ConversionMock",
  "sourceName": "contracts/assetManager/library/mock/ConversionMock.sol",
  "abi": [
    {
      "inputs": [],
      "name": "DivisionByZero",
      "type": "error"
    },
    {
      "inputs": [
        {
          "internalType": "uint256",
          "name": "_tokenDecimals",
          "type": "uint256"
        },
        {
          "internalType": "uint256",
          "name": "_tokenPrice",
          "type": "uint256"
        },
        {
          "internalType": "uint256",
          "name": "_tokenFtsoDecimals",
          "type": "uint256"
        },
        {
          "internalType": "uint256",
          "name": "_assetPrice",
          "type": "uint256"
        },
        {
          "internalType": "uint256",
          "name": "_assetFtsoDecimals",
          "type": "uint256"
        }
      ],
      "name": "calcAmgToTokenWeiPrice",
      "outputs": [
        {
          "internalType": "uint256",
          "name": "",
          "type": "uint256"
        }
      ],
      "stateMutability": "view",
      "type": "function"
    },
    {
      "inputs": [
        {
          "internalType": "uint256",
          "name": "_valueAMG",
          "type": "uint256"
        },
        {
          "internalType": "uint256",
          "name": "_amgToNATWeiPrice",
          "type": "uint256"
        }
      ],
      "name": "convertAmgToTokenWei",
      "outputs": [
        {
          "internalType": "uint256",
          "name": "",
          "type": "uint256"
        }
      ],
      "stateMutability": "pure",
      "type": "function"
    },
    {
      "inputs": [
        {
          "internalType": "uint256",
          "name": "_valueNATWei",
          "type": "uint256"
        },
        {
          "internalType": "uint256",
          "name": "_amgToNATWeiPrice",
          "type": "uint256"
        }
      ],
      "name": "convertTokenWeiToAMG",
      "outputs": [
        {
          "internalType": "uint256",
          "name": "",
          "type": "uint256"
        }
      ],
      "stateMutability": "pure",
      "type": "function"
    },
    {
      "inputs": [
        {
          "internalType": "uint256",
          "name": "assetDecimals",
          "type": "uint256"
        },
        {
          "internalType": "uint256",
          "name": "assetMintingDecimals",
          "type": "uint256"
        }
      ],
      "name": "setAssetDecimals",
      "outputs": [],
      "stateMutability": "nonpayable",
      "type": "function"
    }
  ],
  "bytecode": "0x6080604052348015600f57600080fd5b506106af8061001f6000396000f3fe608060405234801561001057600080fd5b506004361061004c5760003560e01c80635170738c146100515780636338489e14610066578063b2ae335d1461008b578063d55f0a4e1461009e575b600080fd5b61006461005f366004610482565b6100b1565b005b610079610074366004610482565b6101a7565b60405190815260200160405180910390f35b6100796100993660046104a4565b6101bc565b6100796100ac366004610482565b6101d5565b7f4f24f5c433db0962dac0d2c8b84197a6e6c7cc4e5d9ebe1916a1b6193da2f33a6100db836101e1565b81600a0160146101000a81548160ff021916908360ff160217905550610100826101e1565b81600a0160156101000a81548160ff021916908360ff16021790555061013183600a61012c91906105dc565b61024b565b600c8201805467ffffffffffffffff92909216600160501b0267ffffffffffffffff60501b1990921691909117905561017861016d83856105e8565b61012c90600a6105dc565b81600c0160126101000a81548167ffffffffffffffff021916908367ffffffffffffffff160217905550505050565b60006101b383836102b4565b90505b92915050565b60006101cb86868686866102ce565b9695505050505050565b60006101b38383610367565b600060ff8211156102475760405162461bcd60e51b815260206004820152602560248201527f53616665436173743a2076616c756520646f65736e27742066697420696e2038604482015264206269747360d81b60648201526084015b60405180910390fd5b5090565b600067ffffffffffffffff8211156102475760405162461bcd60e51b815260206004820152602660248201527f53616665436173743a2076616c756520646f65736e27742066697420696e203660448201526534206269747360d01b606482015260840161023e565b60006101b3826102c66009600a6105dc565b85919061037c565b60007f4f24f5c433db0962dac0d2c8b84197a6e6c7cc4e5d9ebe1916a1b6193da2f33a8160096102fe878a6105fb565b61030891906105fb565b600a830154909150600090610328908690600160a81b900460ff166105fb565b90508082101561033a5761033a61060e565b61035a61034782846105e8565b61035290600a6105dc565b87908a61037c565b9998505050505050505050565b60006101b36103786009600a6105dc565b8490845b600080821161039e576040516323d359a360e01b815260040160405180910390fd5b836000036103ae5750600061047b565b838302838582816103c1576103c1610624565b04036103df578281816103d6576103d6610624565b0491505061047b565b5060006103ec838661063a565b905060006103fa848761064e565b90506000610408858761063a565b90506000610416868861064e565b9050856104238285610662565b61042d919061063a565b6104378385610662565b6104418387610662565b8861044c8689610662565b6104569190610662565b61046091906105fb565b61046a91906105fb565b61047491906105fb565b9450505050505b9392505050565b6000806040838503121561049557600080fd5b50508035926020909101359150565b600080600080600060a086880312156104bc57600080fd5b505083359560208501359550604085013594606081013594506080013592509050565b634e487b7160e01b600052601160045260246000fd5b6001815b600184111561053057808504811115610514576105146104df565b600184161561052257908102905b60019390931c9280026104f9565b935093915050565b600082610547575060016101b6565b81610554575060006101b6565b816001811461056a576002811461057457610590565b60019150506101b6565b60ff841115610585576105856104df565b50506001821b6101b6565b5060208310610133831016604e8410600b84101617156105b3575081810a6101b6565b6105c060001984846104f5565b80600019048211156105d4576105d46104df565b029392505050565b60006101b38383610538565b818103818111156101b6576101b66104df565b808201808211156101b6576101b66104df565b634e487b7160e01b600052600160045260246000fd5b634e487b7160e01b600052601260045260246000fd5b60008261064957610649610624565b500490565b60008261065d5761065d610624565b500690565b80820281158282048414176101b6576101b66104df56fea264697066735822122017e7e6d83ecc2ab3f52e4608728d8132cd00ab384440590be68b47c1ddac3a5664736f6c634300081b0033",
  "linkReferences": {},
  "deployedLinkReferences": {}
}