{
  "_format": "hh-sol-artifact-1",
  "contractName": "MintingFacet",
  "sourceName": "contracts/assetManager/facets/MintingFacet.sol",
  "abi": [
    {
      "inputs": [],
      "name": "AgentNotWhitelisted",
      "type": "error"
    },
    {
      "inputs": [],
      "name": "CannotMintZeroLots",
      "type": "error"
    },
    {
      "inputs": [],
      "name": "DivisionByZero",
      "type": "error"
    },
    {
      "inputs": [],
      "name": "EmergencyPauseActive",
      "type": "error"
    },
    {
      "inputs": [],
      "name": "FreeUnderlyingBalanceToSmall",
      "type": "error"
    },
    {
      "inputs": [],
      "name": "InvalidAgentVaultAddress",
      "type": "error"
    },
    {
      "inputs": [],
      "name": "InvalidChain",
      "type": "error"
    },
    {
      "inputs": [],
      "name": "InvalidCrtId",
      "type": "error"
    },
    {
      "inputs": [],
      "name": "InvalidMintingReference",
      "type": "error"
    },
    {
      "inputs": [],
      "name": "InvalidSelfMintReference",
      "type": "error"
    },
    {
      "inputs": [],
      "name": "LegalPaymentNotProven",
      "type": "error"
    },
    {
      "inputs": [],
      "name": "MintingCapExceeded",
      "type": "error"
    },
    {
      "inputs": [],
      "name": "MintingPaused",
      "type": "error"
    },
    {
      "inputs": [],
      "name": "MintingPaymentTooOld",
      "type": "error"
    },
    {
      "inputs": [],
      "name": "MintingPaymentTooSmall",
      "type": "error"
    },
    {
      "inputs": [],
      "name": "NotAttached",
      "type": "error"
    },
    {
      "inputs": [],
      "name": "NotEnoughFreeCollateral",
      "type": "error"
    },
    {
      "inputs": [],
      "name": "NotMintingAgentsAddress",
      "type": "error"
    },
    {
      "inputs": [],
      "name": "NotWhitelisted",
      "type": "error"
    },
    {
      "inputs": [],
      "name": "OnlyAgentVaultOwner",
      "type": "error"
    },
    {
      "inputs": [],
      "name": "OnlyAssetManagerController",
      "type": "error"
    },
    {
      "inputs": [],
      "name": "OnlyMinterExecutorOrAgent",
      "type": "error"
    },
    {
      "inputs": [],
      "name": "PaymentAlreadyConfirmed",
      "type": "error"
    },
    {
      "inputs": [],
      "name": "PaymentFailed",
      "type": "error"
    },
    {
      "inputs": [],
      "name": "ReentrancyGuardReentrantCall",
      "type": "error"
    },
    {
      "inputs": [],
      "name": "SelfMintInvalidAgentStatus",
      "type": "error"
    },
    {
      "inputs": [],
      "name": "SelfMintNotAgentsAddress",
      "type": "error"
    },
    {
      "inputs": [],
      "name": "SelfMintPaymentTooOld",
      "type": "error"
    },
    {
      "inputs": [],
      "name": "SelfMintPaymentTooSmall",
      "type": "error"
    },
    {
      "anonymous": false,
      "inputs": [
        {
          "indexed": false,
          "internalType": "uint256",
          "name": "underlyingBlockNumber",
          "type": "uint256"
        },
        {
          "indexed": false,
          "internalType": "uint256",
          "name": "underlyingBlockTimestamp",
          "type": "uint256"
        },
        {
          "indexed": false,
          "internalType": "uint256",
          "name": "updatedAt",
          "type": "uint256"
        }
      ],
      "name": "CurrentUnderlyingBlockUpdated",
      "type": "event"
    },
    {
      "anonymous": false,
      "inputs": [
        {
          "indexed": true,
          "internalType": "address",
          "name": "agentVault",
          "type": "address"
        },
        {
          "indexed": false,
          "internalType": "uint256",
          "name": "dustUBA",
          "type": "uint256"
        }
      ],
      "name": "DustChanged",
      "type": "event"
    },
    {
      "anonymous": false,
      "inputs": [
        {
          "indexed": true,
          "internalType": "address",
          "name": "agentVault",
          "type": "address"
        },
        {
          "indexed": true,
          "internalType": "uint256",
          "name": "collateralReservationId",
          "type": "uint256"
        },
        {
          "indexed": false,
          "internalType": "uint256",
          "name": "mintedAmountUBA",
          "type": "uint256"
        },
        {
          "indexed": false,
          "internalType": "uint256",
          "name": "agentFeeUBA",
          "type": "uint256"
        },
        {
          "indexed": false,
          "internalType": "uint256",
          "name": "poolFeeUBA",
          "type": "uint256"
        }
      ],
      "name": "MintingExecuted",
      "type": "event"
    },
    {
      "anonymous": false,
      "inputs": [
        {
          "indexed": true,
          "internalType": "address",
          "name": "agentVault",
          "type": "address"
        },
        {
          "indexed": true,
          "internalType": "uint256",
          "name": "redemptionTicketId",
          "type": "uint256"
        },
        {
          "indexed": false,
          "internalType": "uint256",
          "name": "ticketValueUBA",
          "type": "uint256"
        }
      ],
      "name": "RedemptionTicketCreated",
      "type": "event"
    },
    {
      "anonymous": false,
      "inputs": [
        {
          "indexed": true,
          "internalType": "address",
          "name": "agentVault",
          "type": "address"
        },
        {
          "indexed": true,
          "internalType": "uint256",
          "name": "redemptionTicketId",
          "type": "uint256"
        },
        {
          "indexed": false,
          "internalType": "uint256",
          "name": "ticketValueUBA",
          "type": "uint256"
        }
      ],
      "name": "RedemptionTicketUpdated",
      "type": "event"
    },
    {
      "anonymous": false,
      "inputs": [
        {
          "indexed": true,
          "internalType": "address",
          "name": "agentVault",
          "type": "address"
        },
        {
          "indexed": false,
          "internalType": "bool",
          "name": "mintFromFreeUnderlying",
          "type": "bool"
        },
        {
          "indexed": false,
          "internalType": "uint256",
          "name": "mintedAmountUBA",
          "type": "uint256"
        },
        {
          "indexed": false,
          "internalType": "uint256",
          "name": "depositedAmountUBA",
          "type": "uint256"
        },
        {
          "indexed": false,
          "internalType": "uint256",
          "name": "poolFeeUBA",
          "type": "uint256"
        }
      ],
      "name": "SelfMint",
      "type": "event"
    },
    {
      "anonymous": false,
      "inputs": [
        {
          "indexed": true,
          "internalType": "address",
          "name": "agentVault",
          "type": "address"
        },
        {
          "indexed": false,
          "internalType": "int256",
          "name": "underlyingBalanceUBA",
          "type": "int256"
        }
      ],
      "name": "UnderlyingBalanceChanged",
      "type": "event"
    },
    {
      "inputs": [
        {
          "components": [
            {
              "internalType": "bytes32[]",
              "name": "merkleProof",
              "type": "bytes32[]"
            },
            {
              "components": [
                {
                  "internalType": "bytes32",
                  "name": "attestationType",
                  "type": "bytes32"
                },
                {
                  "internalType": "bytes32",
                  "name": "sourceId",
                  "type": "bytes32"
                },
                {
                  "internalType": "uint64",
                  "name": "votingRound",
                  "type": "uint64"
                },
                {
                  "internalType": "uint64",
                  "name": "lowestUsedTimestamp",
                  "type": "uint64"
                },
                {
                  "components": [
                    {
                      "internalType": "bytes32",
                      "name": "transactionId",
                      "type": "bytes32"
                    },
                    {
                      "internalType": "uint256",
                      "name": "inUtxo",
                      "type": "uint256"
                    },
                    {
                      "internalType": "uint256",
                      "name": "utxo",
                      "type": "uint256"
                    }
                  ],
                  "internalType": "struct IPayment.RequestBody",
                  "name": "requestBody",
                  "type": "tuple"
                },
                {
                  "components": [
                    {
                      "internalType": "uint64",
                      "name": "blockNumber",
                      "type": "uint64"
                    },
                    {
                      "internalType": "uint64",
                      "name": "blockTimestamp",
                      "type": "uint64"
                    },
                    {
                      "internalType": "bytes32",
                      "name": "sourceAddressHash",
                      "type": "bytes32"
                    },
                    {
                      "internalType": "bytes32",
                      "name": "sourceAddressesRoot",
                      "type": "bytes32"
                    },
                    {
                      "internalType": "bytes32",
                      "name": "receivingAddressHash",
                      "type": "bytes32"
                    },
                    {
                      "internalType": "bytes32",
                      "name": "intendedReceivingAddressHash",
                      "type": "bytes32"
                    },
                    {
                      "internalType": "int256",
                      "name": "spentAmount",
                      "type": "int256"
                    },
                    {
                      "internalType": "int256",
                      "name": "intendedSpentAmount",
                      "type": "int256"
                    },
                    {
                      "internalType": "int256",
                      "name": "receivedAmount",
                      "type": "int256"
                    },
                    {
                      "internalType": "int256",
                      "name": "intendedReceivedAmount",
                      "type": "int256"
                    },
                    {
                      "internalType": "bytes32",
                      "name": "standardPaymentReference",
                      "type": "bytes32"
                    },
                    {
                      "internalType": "bool",
                      "name": "oneToOne",
                      "type": "bool"
                    },
                    {
                      "internalType": "uint8",
                      "name": "status",
                      "type": "uint8"
                    }
                  ],
                  "internalType": "struct IPayment.ResponseBody",
                  "name": "responseBody",
                  "type": "tuple"
                }
              ],
              "internalType": "struct IPayment.Response",
              "name": "data",
              "type": "tuple"
            }
          ],
          "internalType": "struct IPayment.Proof",
          "name": "_payment",
          "type": "tuple"
        },
        {
          "internalType": "uint256",
          "name": "_crtId",
          "type": "uint256"
        }
      ],
      "name": "executeMinting",
      "outputs": [],
      "stateMutability": "nonpayable",
      "type": "function"
    },
    {
      "inputs": [
        {
          "internalType": "address",
          "name": "_agentVault",
          "type": "address"
        },
        {
          "internalType": "uint64",
          "name": "_lots",
          "type": "uint64"
        }
      ],
      "name": "mintFromFreeUnderlying",
      "outputs": [],
      "stateMutability": "nonpayable",
      "type": "function"
    },
    {
      "inputs": [
        {
          "components": [
            {
              "internalType": "bytes32[]",
              "name": "merkleProof",
              "type": "bytes32[]"
            },
            {
              "components": [
                {
                  "internalType": "bytes32",
                  "name": "attestationType",
                  "type": "bytes32"
                },
                {
                  "internalType": "bytes32",
                  "name": "sourceId",
                  "type": "bytes32"
                },
                {
                  "internalType": "uint64",
                  "name": "votingRound",
                  "type": "uint64"
                },
                {
                  "internalType": "uint64",
                  "name": "lowestUsedTimestamp",
                  "type": "uint64"
                },
                {
                  "components": [
                    {
                      "internalType": "bytes32",
                      "name": "transactionId",
                      "type": "bytes32"
                    },
                    {
                      "internalType": "uint256",
                      "name": "inUtxo",
                      "type": "uint256"
                    },
                    {
                      "internalType": "uint256",
                      "name": "utxo",
                      "type": "uint256"
                    }
                  ],
                  "internalType": "struct IPayment.RequestBody",
                  "name": "requestBody",
                  "type": "tuple"
                },
                {
                  "components": [
                    {
                      "internalType": "uint64",
                      "name": "blockNumber",
                      "type": "uint64"
                    },
                    {
                      "internalType": "uint64",
                      "name": "blockTimestamp",
                      "type": "uint64"
                    },
                    {
                      "internalType": "bytes32",
                      "name": "sourceAddressHash",
                      "type": "bytes32"
                    },
                    {
                      "internalType": "bytes32",
                      "name": "sourceAddressesRoot",
                      "type": "bytes32"
                    },
                    {
                      "internalType": "bytes32",
                      "name": "receivingAddressHash",
                      "type": "bytes32"
                    },
                    {
                      "internalType": "bytes32",
                      "name": "intendedReceivingAddressHash",
                      "type": "bytes32"
                    },
                    {
                      "internalType": "int256",
                      "name": "spentAmount",
                      "type": "int256"
                    },
                    {
                      "internalType": "int256",
                      "name": "intendedSpentAmount",
                      "type": "int256"
                    },
                    {
                      "internalType": "int256",
                      "name": "receivedAmount",
                      "type": "int256"
                    },
                    {
                      "internalType": "int256",
                      "name": "intendedReceivedAmount",
                      "type": "int256"
                    },
                    {
                      "internalType": "bytes32",
                      "name": "standardPaymentReference",
                      "type": "bytes32"
                    },
                    {
                      "internalType": "bool",
                      "name": "oneToOne",
                      "type": "bool"
                    },
                    {
                      "internalType": "uint8",
                      "name": "status",
                      "type": "uint8"
                    }
                  ],
                  "internalType": "struct IPayment.ResponseBody",
                  "name": "responseBody",
                  "type": "tuple"
                }
              ],
              "internalType": "struct IPayment.Response",
              "name": "data",
              "type": "tuple"
            }
          ],
          "internalType": "struct IPayment.Proof",
          "name": "_payment",
          "type": "tuple"
        },
        {
          "internalType": "address",
          "name": "_agentVault",
          "type": "address"
        },
        {
          "internalType": "uint256",
          "name": "_lots",
          "type": "uint256"
        }
      ],
      "name": "selfMint",
      "outputs": [],
      "stateMutability": "nonpayable",
      "type": "function"
    }
  ],
  "bytecode": "0x6080604052348015600f57600080fd5b506136be8061001f6000396000f3fe608060405234801561001057600080fd5b50600436106100415760003560e01c80630da5e8e0146100465780635a48b7631461005b57806369f020201461006e575b600080fd5b610059610054366004612efb565b610081565b005b610059610069366004612f6b565b610361565b61005961007c366004612fa0565b610533565b6100896107cc565b6000610096826001610816565b60028101549091506000906100b3906001600160a01b03166108ef565b90506100be84610983565b60038201546001600160a01b03163314806100e5575060048201546001600160a01b031633145b806100f557506100f581336109c4565b61011257604051637a5494e960e01b815260040160405180910390fd5b61011b83610a07565b6102408501351461013f576040516307dc70b360e51b815260040160405180910390fd5b6003810154610180850135146101685760405163c31f246360e01b815260040160405180910390fd5b815460009061017f906001600160401b0316610a31565b60018401549091506101a39061019e906001600160801b03168361300f565b610a79565b61020086013512156101c85760405163068f2e3d60e01b815260040160405180910390fd5b8254600160401b90046001600160401b03166101ec61012087016101008801613022565b6001600160401b0316101561021457604051632de55f0d60e01b815260040160405180910390fd5b61023e7fec7e8c1c441439dd40959777f4c577ea0cd42fcc1dbe59d2bd0f5d9c55df8dc186610aec565b6003830154835461027a91849160009188916001600160a01b03909116906001600160401b03166102008b0135610275868b610afa565b610b57565b61028385610e22565b60048301546001600160a01b038116906000906102b590633b9aca0090600160a01b90046001600160401b031661303d565b90506000336001600160a01b038416146102d05760006102d2565b815b600187015490915060009082906102fa908590600160801b90046001600160801b031661300f565b6103049190613054565b9050610311876001610e50565b61031b8682610f86565b61032d61032661103a565b85846110a7565b5050505050505061035d60017f0cd2207518cd3e5213e2c6dbe63d55b60aa893c194a427b7d7f1600408fd5bde55565b5050565b61036961110f565b61037161115a565b600080516020613649833981519152600061038b846108ef565b9050610396816111bd565b61039f816111e4565b60006103aa826111fb565b60108401549091506001600160401b0316156103d9576040516375ab03ab60e11b815260040160405180910390fd5b6000846001600160401b031611610403576040516359ed140d60e01b815260040160405180910390fd5b6001600483015460ff16600581111561041e5761041e613067565b1461043c576040516347fa468760e11b815260040160405180910390fd5b6001600160401b03841661045082846112a5565b101561046f5760405163d78c667760e01b815260040160405180910390fd5b6000610483856001600160401b03166112b3565b9050600061049082610a31565b9050600061049e8583611304565b90506104bb6104ac8261134a565b6104b6908561307d565b61138b565b600081836104c8886114d0565b6104d2919061300f565b6104dc919061300f565b6006870154909150600160401b9004600f0b6104f782610a79565b1315610516576040516317e3a9d160e31b815260040160405180910390fd5b61052886600260003388600088610b57565b505050505050505050565b61053b61110f565b61054361115a565b600080516020613649833981519152600061055d846108ef565b9050610568816111bd565b610571816111e4565b600061057c826111fb565b905061058786610983565b60108301546001600160401b0316156105b3576040516375ab03ab60e11b815260040160405180910390fd5b6001600483015460ff1660058111156105ce576105ce613067565b146105ec576040516347fa468760e11b815260040160405180910390fd5b836105f782846112a5565b10156106165760405163d78c667760e01b815260040160405180910390fd5b6000610621856112b3565b9050600061062e82610a31565b9050600061063c8583611304565b905061064a6104ac8261134a565b67232128293320800960c11b6001600160a01b038916176102408a01351461068557604051630f1c2ef760e01b815260040160405180910390fd5b60038501546101808a0135146106ad576040516202cb0b60e91b815260040160405180910390fd5b6106ba61019e828461300f565b6102008a013512156106df57604051639f5b804560e01b815260040160405180910390fd5b600a8501546001600160401b03166106ff6101208b016101008c01613022565b6001600160401b0316116107265760405163b32bbe4f60e01b815260040160405180910390fd5b610733600b87018a610aec565b61073c89610e22565b610200890135871561075e57610759866001600033888688610b57565b6107c0565b610768868261153a565b6040805160008082526020820181905291810183905260608101919091526001600160a01b038a16907f2b8def7928f95ea587bcff888708376aefe2c32d3671c2846769a692ba59055d906080015b60405180910390a25b50505050505050505050565b7f0cd2207518cd3e5213e2c6dbe63d55b60aa893c194a427b7d7f1600408fd5bde80546001190161081057604051633ee5aeb560e01b815260040160405180910390fd5b60029055565b600080831161083857604051631905b1b960e21b815260040160405180910390fd5b5060008281527fec7e8c1c441439dd40959777f4c577ea0cd42fcc1dbe59d2bd0f5d9c55df8dbc6020526040812080549091600080516020613649833981519152916001600160401b031690036108a257604051631905b1b960e21b815260040160405180910390fd5b82156108e8576000600383810154600160a01b900460ff16908111156108ca576108ca613067565b146108e857604051631905b1b960e21b815260040160405180910390fd5b5092915050565b604081901b68010000000000000000600160e01b03167f5bebac0595fee029d42bb673937f5f1cb81cf8641382bc17774635de9b7d79651860048101546000919060ff168281600581111561094657610946613067565b141580156109665750600581600581111561096357610963613067565b14155b6108e85760405163d68a46c560e01b815260040160405180910390fd5b60006109976102a0830161028084016130ad565b60ff16146109b8576040516307a4ced160e51b815260040160405180910390fd5b6109c1816115ec565b50565b60018201546000906001600160a01b03838116911614806109fe57506109e9836116f7565b6001600160a01b0316826001600160a01b0316145b90505b92915050565b60006001600160401b03821115610a2057610a206130c8565b5067464250526641000160c01b1790565b6000805160206136698339815191525460009060008051602061362983398151915290610a7290600160901b90046001600160401b0390811690851661303d565b9392505050565b60006001600160ff1b03821115610ae85760405162461bcd60e51b815260206004820152602860248201527f53616665436173743a2076616c756520646f65736e27742066697420696e2061604482015267371034b73a191a9b60c11b60648201526084015b60405180910390fd5b5090565b61035d8260a0830135611799565b6002810154600090600160a01b900461ffff168181610b28576004850154600160581b900461ffff16610b33565b610b336001836130de565b6001850154909150610b4e906001600160801b0316826117d9565b95945050505050565b6000610b628261134a565b9050610b7788610b72838761307d565b6117f1565b610b81888461153a565b6000610b8c85610a31565b9050610bbf7f4f24f5c433db0962dac0d2c8b84197a6e6c7cc4e5d9ebe1916a1b6193da2f33b546001600160a01b031690565b6040516340c10f1960e01b81526001600160a01b0388811660048301526024820184905291909116906340c10f1990604401600060405180830381600087803b158015610c0b57600080fd5b505af1158015610c1f573d6000803e3d6000fd5b50505050610c547f4f24f5c433db0962dac0d2c8b84197a6e6c7cc4e5d9ebe1916a1b6193da2f33b546001600160a01b031690565b89546040516340c10f1960e01b81526001600160a01b039182166004820152602481018690529116906340c10f1990604401600060405180830381600087803b158015610ca057600080fd5b505af1158015610cb4573d6000803e3d6000fd5b50508a5460405163542a535160e11b8152600481018790526001600160a01b03909116925063a854a6a29150602401600060405180830381600087803b158015610cfd57600080fd5b505af1158015610d11573d6000803e3d6000fd5b5060009250610d1e915050565b886002811115610d3057610d30613067565b03610dac57600083610d428387613054565b610d4c9190613054565b905087610d588b6118c2565b60408051858152602081018590529081018790526001600160a01b0391909116907f0d418f2ae12260f9d0ceacf72b08fcc4b05560719443f40d3761ee90da0d8fa59060600160405180910390a350610528565b60006002896002811115610dc257610dc2613067565b149050610dce8a6118c2565b60408051831515815260208101859052908101879052606081018690526001600160a01b0391909116907f2b8def7928f95ea587bcff888708376aefe2c32d3671c2846769a692ba59055d906080016107b7565b6109c1610e3761012083016101008401613022565b610e4961014084016101208501613022565b60016118ea565b600282015460008051602061364983398151915290600090610e7a906001600160a01b03166108ef565b90506000610e90610e8b8387610afa565b61134a565b8554610ea591906001600160401b031661307d565b6005830154909150610ec19082906001600160401b03166130f8565b60058301805467ffffffffffffffff19166001600160401b03928316179055600e840180548392601891610efe918591600160c01b9004166130f8565b92506101000a8154816001600160401b0302191690836001600160401b0316021790555060006003811115610f3557610f35613067565b846003811115610f4757610f47613067565b03610f5457610f546130c8565b838560030160146101000a81548160ff02191690836003811115610f7a57610f7a613067565b02179055505050505050565b80600003610f92575050565b6004820154600090610fb0908390600160581b900461ffff16611a78565b8354604080516368dc448760e11b815290519293506001600160a01b039091169163d1b8890e918491600480830192600092919082900301818588803b158015610ff957600080fd5b505af115801561100d573d6000803e3d6000fd5b505050505061103561101d61103a565b61102685611a87565b6110308486613054565b6110a7565b505050565b7fec7e8c1c441439dd40959777f4c577ea0cd42fcc1dbe59d2bd0f5d9c55df8dc5546000805160206136498339815191528054600092829161ffff90911690811061108757611087613117565b60009182526020909120600490910201546001600160a01b031692915050565b80156110355760405163b760faf960e01b81526001600160a01b03838116600483015284169063b760faf99083906024016000604051808303818588803b1580156110f157600080fd5b505af1158015611105573d6000803e3d6000fd5b5050505050505050565b7fec7e8c1c441439dd40959777f4c577ea0cd42fcc1dbe59d2bd0f5d9c55df8dc754600160881b900460ff1661115857604051630d6e7efb60e41b815260040160405180910390fd5b565b7fec7e8c1c441439dd40959777f4c577ea0cd42fcc1dbe59d2bd0f5d9c55df8dc6546000805160206136498339815191529042600160401b9091046001600160401b031611156109c15760405163909b191760e01b815260040160405180910390fd5b6111c781336109c4565b6109c15760405163f6e2f99b60e01b815260040160405180910390fd5b60018101546109c1906001600160a01b0316611ab6565b6112666040805160c081019091526000606082018181526080830182905260a083019190915281908152604080516060810182526000808252602082810182905292820152910190815260408051606081018252600080825260208281018290529282015291015290565b600061127183611b6a565b9050604051806060016040528061128785611c27565b815260200182815260200161129c8584611ccc565b90529392505050565b60006109fe83836001611e9b565b7f4f24f5c433db0962dac0d2c8b84197a6e6c7cc4e5d9ebe1916a1b6193da2f3475460009060008051602061362983398151915290610a72906112ff906001600160401b03168561303d565b611ef3565b60048201546000908190611324908490600160481b900461ffff16611a78565b90506113428185600401600b9054906101000a900461ffff166117d9565b949350505050565b6000805160206136698339815191525460009060008051602061362983398151915290610a72906112ff90600160901b90046001600160401b031685613143565b7f4f24f5c433db0962dac0d2c8b84197a6e6c7cc4e5d9ebe1916a1b6193da2f347546000805160206136498339815191529060008051602061362983398151915290600160581b90046001600160401b031660008190036113ec5750505050565b6001820154604080516318160ddd60e01b815290516000926001600160a01b0316916318160ddd9160048083019260209291908290030181865afa158015611438573d6000803e3d6000fd5b505050506040513d601f19601f8201168201806040525081019061145c9190613157565b905060006114698261134a565b600e8601546114889190600160c01b90046001600160401b031661307d565b6001600160401b0316905082866001600160401b0316826114a9919061300f565b11156114c85760405163c4d282e360e01b815260040160405180910390fd5b505050505050565b60008051602061366983398151915254600582015460009160008051602061362983398151915291600160901b9091046001600160401b039081169161152791600160801b8204811691600160401b90041661307d565b6001600160401b0316610a72919061303d565b61154b61154682610a79565b611f5b565b600683018054600890611569908490600160401b9004600f0b613170565b92506101000a8154816001600160801b030219169083600f0b6001600160801b03160217905550611599826118c2565b6006830154604051600160401b909104600f0b81526001600160a01b0391909116907f73da6891cb86668451f612d2555e88650888a0133a30b1d226b2d1f955e62bca9060200160405180910390a25050565b7f4f24f5c433db0962dac0d2c8b84197a6e6c7cc4e5d9ebe1916a1b6193da2f342547f4f24f5c433db0962dac0d2c8b84197a6e6c7cc4e5d9ebe1916a1b6193da2f34554600080516020613629833981519152916001600160a01b03169060408401351461166d5760405163057f3fa760e51b815260040160405180910390fd5b60405163a7a3797560e01b81526001600160a01b0382169063a7a37975906116999086906004016132f9565b602060405180830381865afa1580156116b6573d6000803e3d6000fd5b505050506040513d601f19601f820116820180604052508101906116da919061338e565b611035576040516316c32dbb60e21b815260040160405180910390fd5b600061172a7f4f24f5c433db0962dac0d2c8b84197a6e6c7cc4e5d9ebe1916a1b6193da2f341546001600160a01b031690565b6001830154604051631f86345d60e31b81526001600160a01b03918216600482015291169063fc31a2e890602401602060405180830381865afa158015611775573d6000803e3d6000fd5b505050506040513d601f19601f82011682018060405250810190610a0191906133ab565b600081815260208390526040902054156117c6576040516318dce79f60e01b815260040160405180910390fd5b6000818152602092909252604090912055565b60006109fe6117ec8461ffff8516611a78565b611fc4565b808260050160088282829054906101000a90046001600160401b0316611817919061307d565b92506101000a8154816001600160401b0302191690836001600160401b03160217905550600061185260008051602061362983398151915290565b60068401549091506000906118719084906001600160401b031661307d565b600d83015490915060009061188f906001600160401b0316836133c8565b9050600061189d82846130f8565b90506001600160401b038116156118b8576118b8868261200b565b6114c886836121ae565b7f5bebac0595fee029d42bb673937f5f1cb81cf8641382bc17774635de9b7d79651860401c90565b600080516020613649833981519152600080611906848761307d565b600f8401549091506001600160401b03620100009091048116908216111561195257600f8301805469ffffffffffffffff00001916620100006001600160401b03841602179055600191505b60006103e8600080516020613629833981519152600c015461197a9063ffffffff16876133f6565b6119849190613418565b61198e908761307d565b600f8501546001600160401b039182169250600160501b9004168111156119e5576119b881611ef3565b84600f01600a6101000a8154816001600160401b0302191690836001600160401b03160217905550600192505b8215611a6f576119f442611ef3565b600f8501805467ffffffffffffffff60901b1916600160901b6001600160401b039384160217908190556040805162010000830484168152600160501b9092049092166020820152428183015290517f2078549e3faec355556787458d744ad19765bbb953b3f71801333f29abdce1c8916060908290030190a15b50505050505050565b60006109fe8383612710612244565b600080611a93836116f7565b90506001600160a01b038116610a015760018301546001600160a01b0316610a72565b7f4f24f5c433db0962dac0d2c8b84197a6e6c7cc4e5d9ebe1916a1b6193da2f341546001600160a01b0316604051633af32abf60e01b81526001600160a01b0383811660048301529190911690633af32abf90602401602060405180830381865afa158015611b29573d6000803e3d6000fd5b505050506040513d601f19601f82011682018060405250810190611b4d919061338e565b6109c157604051631408f3ef60e31b815260040160405180910390fd5b611b8f6040805160608101909152806000815260200160008152602001600081525090565b6000611b9a83612348565b604080516060810182526001815285548251634ac8eb5f60e01b8152925193945090926020808501936001600160a01b0390931692634ac8eb5f92600480830193928290030181865afa158015611bf5573d6000803e3d6000fd5b505050506040513d601f19601f82011682018060405250810190611c199190613157565b815260200161129c83612397565b611c4c6040805160608101909152806000815260200160008152602001600081525090565b6000611c57836123ad565b60408051606081019091526000815281549192509060208201906001600160a01b03166370a08231611c88876118c2565b6040516001600160e01b031960e084901b1681526001600160a01b039091166004820152602401602060405180830381865afa158015611bf5573d6000803e3d6000fd5b611cf16040805160608101909152806000815260200160008152602001600081525090565b8254604080516332f7ce0b60e21b815290516000926001600160a01b03169163cbdf382c9160048083019260209291908290030181865afa158015611d3a573d6000803e3d6000fd5b505050506040513d601f19601f82011682018060405250810190611d5e91906133ab565b90506000816001600160a01b03166370a08231611d7a876118c2565b6040516001600160e01b031960e084901b1681526001600160a01b039091166004820152602401602060405180830381865afa158015611dbe573d6000803e3d6000fd5b505050506040513d601f19601f82011682018060405250810190611de29190613157565b90506000826001600160a01b03166318160ddd6040518163ffffffff1660e01b8152600401602060405180830381865afa158015611e24573d6000803e3d6000fd5b505050506040513d601f19601f82011682018060405250810190611e489190613157565b905060008560200151600003611e62578560400151611e77565b60208601516040870151611e77918490612244565b60408051606081018252600281526020810195909552840152509095945050505050565b600080611ead856000015185856123e4565b90506000611ec0866020015186866123e4565b90506000611ed3876040015187876123e4565b9050611ee883611ee38484612425565b612425565b979650505050505050565b60006001600160401b03821115610ae85760405162461bcd60e51b815260206004820152602660248201527f53616665436173743a2076616c756520646f65736e27742066697420696e203660448201526534206269747360d01b6064820152608401610adf565b80600f81900b8114611fbf5760405162461bcd60e51b815260206004820152602760248201527f53616665436173743a2076616c756520646f65736e27742066697420696e20316044820152663238206269747360c81b6064820152608401610adf565b919050565b600080516020613669833981519152546000906000805160206136298339815191529061200190600160901b90046001600160401b031684613446565b610a729084613054565b6000805160206136498339815191526001600160401b03821660000361203057505050565b600061203b846118c2565b6009830154600160401b90046001600160401b031660008181526007850160205260409020805492935090916001600160a01b038085169116036121385780548590829060149061209d908490600160a01b90046001600160401b031661307d565b92506101000a8154816001600160401b0302191690836001600160401b0316021790555060006120e38260000160149054906101000a90046001600160401b0316610a31565b9050826001600160401b0316846001600160a01b03167f9d2e72c50be7927e999d37329649af37a863df77bcb25361699ce021d3d7475d8360405161212a91815260200190565b60405180910390a3506114c8565b600061214860078601858861243b565b9050600061215587610a31565b9050816001600160401b0316856001600160a01b03167f631f8f2039090539b2ea4ef7dc567f7f1939ef4dd3e790b1ca7bc548a1fada588360405161219c91815260200190565b60405180910390a35050505050505050565b60068201546001600160401b038083169116036121c9575050565b60068201805467ffffffffffffffff19166001600160401b03831617905560006121f282610a31565b90506121fd836118c2565b6001600160a01b03167fa3db2bc927901a1d3ba09ad51d84609457b98443be9132a0a936a47c5a1081b58260405161223791815260200190565b60405180910390a2505050565b6000808211612266576040516323d359a360e01b815260040160405180910390fd5b8360000361227657506000610a72565b838302838582816122895761228961312d565b04036122a75782818161229e5761229e61312d565b04915050610a72565b5060006122b48386613143565b905060006122c28487613446565b905060006122d08587613143565b905060006122de8688613446565b9050856122eb828561303d565b6122f59190613143565b6122ff838561303d565b612309838761303d565b88612314868961303d565b61231e919061303d565b612328919061300f565b612332919061300f565b61233c919061300f565b98975050505050505050565b600080600080516020613649833981519152600484015481549192508291630100000090910461ffff1690811061238157612381613117565b9060005260206000209060040201915050919050565b60006123a4826000612844565b50909392505050565b60008060008051602061364983398151915260048401548154919250829161010090910461ffff1690811061238157612381613117565b6000806123f18585612a03565b90506000612400868686612a20565b90508060000361241157600061241b565b61241b8183613143565b9695505050505050565b600081831061243457816109fe565b5090919050565b6001600160a01b0382166000908152600184016020526040812060028501805483919060109061247a90600160801b90046001600160401b031661345a565b91906101000a8154816001600160401b0302191690836001600160401b03160217905590506040518060c00160405280866001600160a01b03168152602001856001600160401b031681526020018760020160089054906101000a90046001600160401b03166001600160401b0316815260200160006001600160401b031681526020018360000160089054906101000a90046001600160401b03166001600160401b0316815260200160006001600160401b0316815250866000016000836001600160401b03166001600160401b0316815260200190815260200160002060008201518160000160006101000a8154816001600160a01b0302191690836001600160a01b0316021790555060208201518160000160146101000a8154816001600160401b0302191690836001600160401b0316021790555060408201518160010160006101000a8154816001600160401b0302191690836001600160401b0316021790555060608201518160010160086101000a8154816001600160401b0302191690836001600160401b0316021790555060808201518160010160106101000a8154816001600160401b0302191690836001600160401b0316021790555060a08201518160010160186101000a8154816001600160401b0302191690836001600160401b031602179055509050508560020160009054906101000a90046001600160401b03166001600160401b03166000036126d7576002860154600160401b90046001600160401b0316156126b4576126b46130c8565b60028601805467ffffffffffffffff19166001600160401b03831617905561273f565b6002860154600160401b90046001600160401b03166000036126fb576126fb6130c8565b6002860154600160401b908190046001600160401b039081166000908152602089905260409020600101805467ffffffffffffffff60401b19169184169092021790555b6002860180546001600160401b03808416600160401b0267ffffffffffffffff60401b19909216919091179091558254166000036127b5578154600160401b90046001600160401b031615612796576127966130c8565b815467ffffffffffffffff19166001600160401b038216178255612818565b8154600160401b90046001600160401b03166000036127d6576127d66130c8565b81546001600160401b03600160401b909104811660009081526020889052604090206001018054918316600160c01b026001600160c01b039092169190911790555b815467ffffffffffffffff60401b1916600160401b6001600160401b0383160217909155949350505050565b6000806000806000806128e388600101805461285f90613485565b80601f016020809104026020016040519081016040528092919081815260200182805461288b90613485565b80156128d85780601f106128ad576101008083540402835291602001916128d8565b820191906000526020600020905b8154815290600101906020018083116128bb57829003601f168201915b505050505088612a6c565b8a549295509093509150600160f01b900460ff161561292a57875460009061291990600160a81b900460ff166001838786612b5a565b96509194508493506129fc92505050565b60008060006129c58b600201805461294190613485565b80601f016020809104026020016040519081016040528092919081815260200182805461296d90613485565b80156129ba5780601f1061298f576101008083540402835291602001916129ba565b820191906000526020600020905b81548152906001019060200180831161299d57829003601f168201915b50505050508b612a6c565b8d5492955090935091506000906129e990600160a81b900460ff1685848a89612b5a565b99509497509095506129fc945050505050565b9250925092565b600080612a108484612be1565b9050611342846020015182612d11565b7f4f24f5c433db0962dac0d2c8b84197a6e6c7cc4e5d9ebe1916a1b6193da2f3475460009060008051602061362983398151915290610b4e90869086906001600160401b031686612d2b565b7f4f24f5c433db0962dac0d2c8b84197a6e6c7cc4e5d9ebe1916a1b6193da2f3445460009081908190600080516020613629833981519152906001600160a01b03168515612b2e5760405163e4a0a55b60e01b81526001600160a01b0382169063e4a0a55b90612ae0908a906004016134b9565b606060405180830381865afa158015612afd573d6000803e3d6000fd5b505050506040513d601f19601f82011682018060405250810190612b219190613507565b94509450945050506129fc565b60405163524f388960e01b81526001600160a01b0382169063524f388990612ae0908a906004016134b9565b6000600080516020613629833981519152816009612b78878a61300f565b612b82919061300f565b600a830154909150600090612ba2908690600160a81b900460ff1661300f565b905080821015612bb457612bb46130c8565b612bd4612bc18284613054565b612bcc90600a61361c565b87908a612244565b9998505050505050505050565b6000806000612bf4848660000151612da2565b60058601549193509150600090612c1d906001600160401b03600160401b82048116911661300f565b90506000612c3984612c33848a60400151612e6c565b90611a78565b90506000600188516002811115612c5257612c52613067565b14612c71576005870154600160801b90046001600160401b0316612c87565b6005870154600160c01b90046001600160401b03165b90506000612ca685612c33846001600160401b03168c60400151612e6c565b9050600060018a516002811115612cbf57612cbf613067565b03612ccb576000612ce3565b8951612cd8908a90612e86565b546001600160801b03165b6001600160801b0316905080612cf9838661300f565b612d03919061300f565b9a9950505050505050505050565b6000818311612d215760006109fe565b6109fe8284613054565b60008082612d3a576000612d63565b6004850154612d639061ffff600160581b8204811691612c33918891600160481b900416611a78565b90506000612d71828661300f565b90506000612d83828960400151612e6c565b90506000612d95888a60000151612da2565b509050612bd48282611a78565b6000806002836002811115612db957612db9613067565b03612de457505060008051602061366983398151915254640100000000900463ffffffff1680612e65565b6001836002811115612df857612df8613067565b03612e3357612e0684612348565b60030154600485015463ffffffff9182169250612e2c91600160881b9091041682612ed3565b9150612e65565b612e3c846123ad565b60030154600485015463ffffffff9182169250612e6291600160681b9091041682612ed3565b91505b9250929050565b60006109fe82612e7e6009600a61361c565b859190612244565b60006001826002811115612e9c57612e9c613067565b03612ea957612ea96130c8565b6000826002811115612ebd57612ebd613067565b14612ecb57826009016109fe565b505060080190565b600081831161243457816109fe565b60006102a08284031215612ef557600080fd5b50919050565b60008060408385031215612f0e57600080fd5b82356001600160401b03811115612f2457600080fd5b612f3085828601612ee2565b95602094909401359450505050565b6001600160a01b03811681146109c157600080fd5b80356001600160401b0381168114611fbf57600080fd5b60008060408385031215612f7e57600080fd5b8235612f8981612f3f565b9150612f9760208401612f54565b90509250929050565b600080600060608486031215612fb557600080fd5b83356001600160401b03811115612fcb57600080fd5b612fd786828701612ee2565b9350506020840135612fe881612f3f565b929592945050506040919091013590565b634e487b7160e01b600052601160045260246000fd5b80820180821115610a0157610a01612ff9565b60006020828403121561303457600080fd5b6109fe82612f54565b8082028115828204841417610a0157610a01612ff9565b81810381811115610a0157610a01612ff9565b634e487b7160e01b600052602160045260246000fd5b6001600160401b038181168382160190811115610a0157610a01612ff9565b803560ff81168114611fbf57600080fd5b6000602082840312156130bf57600080fd5b6109fe8261309c565b634e487b7160e01b600052600160045260246000fd5b61ffff8281168282160390811115610a0157610a01612ff9565b6001600160401b038281168282160390811115610a0157610a01612ff9565b634e487b7160e01b600052603260045260246000fd5b634e487b7160e01b600052601260045260246000fd5b6000826131525761315261312d565b500490565b60006020828403121561316957600080fd5b5051919050565b600f81810b9083900b016f7fffffffffffffffffffffffffffffff81136f7fffffffffffffffffffffffffffffff1982121715610a0157610a01612ff9565b80151581146109c157600080fd5b8035611fbf816131af565b80358252602080820135908301526001600160401b036131ea60408301612f54565b1660408301526001600160401b0361320460608301612f54565b1660608301526080818101359083015260a0808201359083015260c0808201359083015261324960e08084019061323c908401612f54565b6001600160401b03169052565b6132566101008201612f54565b6001600160401b031661010083015261012081810135908301526101408082013590830152610160808201359083015261018080820135908301526101a080820135908301526101c080820135908301526101e08082013590830152610200808201359083015261022080820135908301526132d561024082016131bd565b15156102408301526132ea610260820161309c565b60ff8116610260840152505050565b6020815260008235601e1984360301811261331357600080fd5b83016020810190356001600160401b0381111561332f57600080fd5b8060051b80360383131561334257600080fd5b6102a060208601526102c085018290526001600160fb1b0382111561336657600080fd5b80836102e087013761337e60408601602088016131c8565b939093016102e001949350505050565b6000602082840312156133a057600080fd5b8151610a72816131af565b6000602082840312156133bd57600080fd5b8151610a7281612f3f565b60006001600160401b038316806133e1576133e161312d565b806001600160401b0384160691505092915050565b6001600160401b0381811683821602908116908181146108e8576108e8612ff9565b60006001600160401b038316806134315761343161312d565b806001600160401b0384160491505092915050565b6000826134555761345561312d565b500690565b60006001600160401b0382166001600160401b03810361347c5761347c612ff9565b60010192915050565b600181811c9082168061349957607f821691505b602082108103612ef557634e487b7160e01b600052602260045260246000fd5b602081526000825180602084015260005b818110156134e757602081860181015160408684010152016134ca565b506000604082850101526040601f19601f83011684010191505092915050565b60008060006060848603121561351c57600080fd5b5050815160208301516040909301519094929350919050565b6001815b60018411156135705780850481111561355457613554612ff9565b600184161561356257908102905b60019390931c928002613539565b935093915050565b60008261358757506001610a01565b8161359457506000610a01565b81600181146135aa57600281146135b4576135d0565b6001915050610a01565b60ff8411156135c5576135c5612ff9565b50506001821b610a01565b5060208310610133831016604e8410600b84101617156135f3575081810a610a01565b6136006000198484613535565b806000190482111561361457613614612ff9565b029392505050565b60006109fe838361357856fe4f24f5c433db0962dac0d2c8b84197a6e6c7cc4e5d9ebe1916a1b6193da2f33aec7e8c1c441439dd40959777f4c577ea0cd42fcc1dbe59d2bd0f5d9c55df8db64f24f5c433db0962dac0d2c8b84197a6e6c7cc4e5d9ebe1916a1b6193da2f346a264697066735822122085a14a3d009c567288a9877716f4718137f37056357c09d9cc71f13228bd879c64736f6c634300081b0033",
  "linkReferences": {},
  "deployedLinkReferences": {}
}