{
  "_format": "hh-sol-artifact-1",
  "contractName": "MintingFacet",
  "sourceName": "contracts/assetManager/facets/MintingFacet.sol",
  "abi": [
    {
      "anonymous": false,
      "inputs": [
        {
          "indexed": true,
          "internalType": "address",
          "name": "agentVault",
          "type": "address"
        },
        {
          "indexed": false,
          "internalType": "uint256",
          "name": "dustUBA",
          "type": "uint256"
        }
      ],
      "name": "DustChanged",
      "type": "event"
    },
    {
      "anonymous": false,
      "inputs": [
        {
          "indexed": true,
          "internalType": "address",
          "name": "agentVault",
          "type": "address"
        },
        {
          "indexed": true,
          "internalType": "uint256",
          "name": "collateralReservationId",
          "type": "uint256"
        },
        {
          "indexed": false,
          "internalType": "uint256",
          "name": "mintedAmountUBA",
          "type": "uint256"
        },
        {
          "indexed": false,
          "internalType": "uint256",
          "name": "agentFeeUBA",
          "type": "uint256"
        },
        {
          "indexed": false,
          "internalType": "uint256",
          "name": "poolFeeUBA",
          "type": "uint256"
        }
      ],
      "name": "MintingExecuted",
      "type": "event"
    },
    {
      "anonymous": false,
      "inputs": [
        {
          "indexed": true,
          "internalType": "address",
          "name": "agentVault",
          "type": "address"
        },
        {
          "indexed": true,
          "internalType": "uint256",
          "name": "redemptionTicketId",
          "type": "uint256"
        },
        {
          "indexed": false,
          "internalType": "uint256",
          "name": "ticketValueUBA",
          "type": "uint256"
        }
      ],
      "name": "RedemptionTicketCreated",
      "type": "event"
    },
    {
      "anonymous": false,
      "inputs": [
        {
          "indexed": true,
          "internalType": "address",
          "name": "agentVault",
          "type": "address"
        },
        {
          "indexed": true,
          "internalType": "uint256",
          "name": "redemptionTicketId",
          "type": "uint256"
        },
        {
          "indexed": false,
          "internalType": "uint256",
          "name": "ticketValueUBA",
          "type": "uint256"
        }
      ],
      "name": "RedemptionTicketUpdated",
      "type": "event"
    },
    {
      "anonymous": false,
      "inputs": [
        {
          "indexed": true,
          "internalType": "address",
          "name": "agentVault",
          "type": "address"
        },
        {
          "indexed": false,
          "internalType": "bool",
          "name": "mintFromFreeUnderlying",
          "type": "bool"
        },
        {
          "indexed": false,
          "internalType": "uint256",
          "name": "mintedAmountUBA",
          "type": "uint256"
        },
        {
          "indexed": false,
          "internalType": "uint256",
          "name": "depositedAmountUBA",
          "type": "uint256"
        },
        {
          "indexed": false,
          "internalType": "uint256",
          "name": "poolFeeUBA",
          "type": "uint256"
        }
      ],
      "name": "SelfMint",
      "type": "event"
    },
    {
      "anonymous": false,
      "inputs": [
        {
          "indexed": true,
          "internalType": "address",
          "name": "agentVault",
          "type": "address"
        },
        {
          "indexed": false,
          "internalType": "int256",
          "name": "underlyingBalanceUBA",
          "type": "int256"
        }
      ],
      "name": "UnderlyingBalanceChanged",
      "type": "event"
    },
    {
      "inputs": [
        {
          "components": [
            {
              "internalType": "bytes32[]",
              "name": "merkleProof",
              "type": "bytes32[]"
            },
            {
              "components": [
                {
                  "internalType": "bytes32",
                  "name": "attestationType",
                  "type": "bytes32"
                },
                {
                  "internalType": "bytes32",
                  "name": "sourceId",
                  "type": "bytes32"
                },
                {
                  "internalType": "uint64",
                  "name": "votingRound",
                  "type": "uint64"
                },
                {
                  "internalType": "uint64",
                  "name": "lowestUsedTimestamp",
                  "type": "uint64"
                },
                {
                  "components": [
                    {
                      "internalType": "bytes32",
                      "name": "transactionId",
                      "type": "bytes32"
                    },
                    {
                      "internalType": "uint256",
                      "name": "inUtxo",
                      "type": "uint256"
                    },
                    {
                      "internalType": "uint256",
                      "name": "utxo",
                      "type": "uint256"
                    }
                  ],
                  "internalType": "struct IPayment.RequestBody",
                  "name": "requestBody",
                  "type": "tuple"
                },
                {
                  "components": [
                    {
                      "internalType": "uint64",
                      "name": "blockNumber",
                      "type": "uint64"
                    },
                    {
                      "internalType": "uint64",
                      "name": "blockTimestamp",
                      "type": "uint64"
                    },
                    {
                      "internalType": "bytes32",
                      "name": "sourceAddressHash",
                      "type": "bytes32"
                    },
                    {
                      "internalType": "bytes32",
                      "name": "sourceAddressesRoot",
                      "type": "bytes32"
                    },
                    {
                      "internalType": "bytes32",
                      "name": "receivingAddressHash",
                      "type": "bytes32"
                    },
                    {
                      "internalType": "bytes32",
                      "name": "intendedReceivingAddressHash",
                      "type": "bytes32"
                    },
                    {
                      "internalType": "int256",
                      "name": "spentAmount",
                      "type": "int256"
                    },
                    {
                      "internalType": "int256",
                      "name": "intendedSpentAmount",
                      "type": "int256"
                    },
                    {
                      "internalType": "int256",
                      "name": "receivedAmount",
                      "type": "int256"
                    },
                    {
                      "internalType": "int256",
                      "name": "intendedReceivedAmount",
                      "type": "int256"
                    },
                    {
                      "internalType": "bytes32",
                      "name": "standardPaymentReference",
                      "type": "bytes32"
                    },
                    {
                      "internalType": "bool",
                      "name": "oneToOne",
                      "type": "bool"
                    },
                    {
                      "internalType": "uint8",
                      "name": "status",
                      "type": "uint8"
                    }
                  ],
                  "internalType": "struct IPayment.ResponseBody",
                  "name": "responseBody",
                  "type": "tuple"
                }
              ],
              "internalType": "struct IPayment.Response",
              "name": "data",
              "type": "tuple"
            }
          ],
          "internalType": "struct IPayment.Proof",
          "name": "_payment",
          "type": "tuple"
        },
        {
          "internalType": "uint256",
          "name": "_collateralReservationId",
          "type": "uint256"
        }
      ],
      "name": "executeMinting",
      "outputs": [],
      "stateMutability": "nonpayable",
      "type": "function"
    },
    {
      "inputs": [
        {
          "internalType": "address",
          "name": "_agentVault",
          "type": "address"
        },
        {
          "internalType": "uint64",
          "name": "_lots",
          "type": "uint64"
        }
      ],
      "name": "mintFromFreeUnderlying",
      "outputs": [],
      "stateMutability": "nonpayable",
      "type": "function"
    },
    {
      "inputs": [
        {
          "components": [
            {
              "internalType": "bytes32[]",
              "name": "merkleProof",
              "type": "bytes32[]"
            },
            {
              "components": [
                {
                  "internalType": "bytes32",
                  "name": "attestationType",
                  "type": "bytes32"
                },
                {
                  "internalType": "bytes32",
                  "name": "sourceId",
                  "type": "bytes32"
                },
                {
                  "internalType": "uint64",
                  "name": "votingRound",
                  "type": "uint64"
                },
                {
                  "internalType": "uint64",
                  "name": "lowestUsedTimestamp",
                  "type": "uint64"
                },
                {
                  "components": [
                    {
                      "internalType": "bytes32",
                      "name": "transactionId",
                      "type": "bytes32"
                    },
                    {
                      "internalType": "uint256",
                      "name": "inUtxo",
                      "type": "uint256"
                    },
                    {
                      "internalType": "uint256",
                      "name": "utxo",
                      "type": "uint256"
                    }
                  ],
                  "internalType": "struct IPayment.RequestBody",
                  "name": "requestBody",
                  "type": "tuple"
                },
                {
                  "components": [
                    {
                      "internalType": "uint64",
                      "name": "blockNumber",
                      "type": "uint64"
                    },
                    {
                      "internalType": "uint64",
                      "name": "blockTimestamp",
                      "type": "uint64"
                    },
                    {
                      "internalType": "bytes32",
                      "name": "sourceAddressHash",
                      "type": "bytes32"
                    },
                    {
                      "internalType": "bytes32",
                      "name": "sourceAddressesRoot",
                      "type": "bytes32"
                    },
                    {
                      "internalType": "bytes32",
                      "name": "receivingAddressHash",
                      "type": "bytes32"
                    },
                    {
                      "internalType": "bytes32",
                      "name": "intendedReceivingAddressHash",
                      "type": "bytes32"
                    },
                    {
                      "internalType": "int256",
                      "name": "spentAmount",
                      "type": "int256"
                    },
                    {
                      "internalType": "int256",
                      "name": "intendedSpentAmount",
                      "type": "int256"
                    },
                    {
                      "internalType": "int256",
                      "name": "receivedAmount",
                      "type": "int256"
                    },
                    {
                      "internalType": "int256",
                      "name": "intendedReceivedAmount",
                      "type": "int256"
                    },
                    {
                      "internalType": "bytes32",
                      "name": "standardPaymentReference",
                      "type": "bytes32"
                    },
                    {
                      "internalType": "bool",
                      "name": "oneToOne",
                      "type": "bool"
                    },
                    {
                      "internalType": "uint8",
                      "name": "status",
                      "type": "uint8"
                    }
                  ],
                  "internalType": "struct IPayment.ResponseBody",
                  "name": "responseBody",
                  "type": "tuple"
                }
              ],
              "internalType": "struct IPayment.Response",
              "name": "data",
              "type": "tuple"
            }
          ],
          "internalType": "struct IPayment.Proof",
          "name": "_payment",
          "type": "tuple"
        },
        {
          "internalType": "address",
          "name": "_agentVault",
          "type": "address"
        },
        {
          "internalType": "uint256",
          "name": "_lots",
          "type": "uint256"
        }
      ],
      "name": "selfMint",
      "outputs": [],
      "stateMutability": "nonpayable",
      "type": "function"
    }
  ],
  "bytecode": "0x608060405234801561001057600080fd5b506142d4806100206000396000f3fe608060405234801561001057600080fd5b50600436106100415760003560e01c80630da5e8e0146100465780635a48b7631461005b57806369f020201461006e575b600080fd5b610059610054366004613ac4565b610081565b005b610059610069366004613b34565b6100c8565b61005961007c366004613b69565b6100e2565b61008961010a565b61009b8261009683610188565b6101f4565b6100c460017f0cd2207518cd3e5213e2c6dbe63d55b60aa893c194a427b7d7f1600408fd5bde55565b5050565b6100d0610650565b6100d86106b9565b6100c48282610747565b6100ea610650565b6100f26106b9565b610105838361010084610188565b6109ec565b505050565b7f0cd2207518cd3e5213e2c6dbe63d55b60aa893c194a427b7d7f1600408fd5bde8054600119016101825760405162461bcd60e51b815260206004820152601f60248201527f5265656e7472616e637947756172643a207265656e7472616e742063616c6c0060448201526064015b60405180910390fd5b60029055565b60006001600160401b038211156101f05760405162461bcd60e51b815260206004820152602660248201527f53616665436173743a2076616c756520646f65736e27742066697420696e203660448201526534206269747360d01b6064820152608401610179565b5090565b60006101ff82610dd5565b60058101549091506001600160401b0316156102695760405162461bcd60e51b815260206004820152602360248201527f636f6c6c61746572616c207265736572766174696f6e206e6f7420617070726f6044820152621d995960ea1b6064820152608401610179565b6002810154600090610283906001600160a01b0316610e76565b905061028e84610f1d565b60038201546001600160a01b03163314806102b5575060048201546001600160a01b031633145b806102c557506102c58133610f7b565b6103115760405162461bcd60e51b815260206004820152601e60248201527f6f6e6c79206d696e7465722c206578656375746f72206f72206167656e7400006044820152606401610179565b67464250526641000160c01b6001600160401b038416176102408501351461037b5760405162461bcd60e51b815260206004820152601960248201527f696e76616c6964206d696e74696e67207265666572656e6365000000000000006044820152606401610179565b6003810154610180850135146103d35760405162461bcd60e51b815260206004820152601b60248201527f6e6f74206d696e74696e67206167656e742773206164647265737300000000006044820152606401610179565b600682015415806103ec57506006820154610160850135145b6104495760405162461bcd60e51b815260206004820152602860248201527f696e76616c6964206d696e74657220756e6465726c79696e67206164647265736044820152671cd95cc81c9bdbdd60c21b6064820152608401610179565b8154600090610460906001600160401b031661104f565b60018401549091506104849061047f906001600160801b031683613bd8565b611097565b61020086013512156104d85760405162461bcd60e51b815260206004820152601960248201527f6d696e74696e67207061796d656e7420746f6f20736d616c6c000000000000006044820152606401610179565b8254600160401b90046001600160401b03166104fc61012087016101008801613beb565b6001600160401b031610156105535760405162461bcd60e51b815260206004820152601760248201527f6d696e74696e67207061796d656e7420746f6f206f6c640000000000000000006044820152606401610179565b61057d7fec7e8c1c441439dd40959777f4c577ea0cd42fcc1dbe59d2bd0f5d9c55df8dc186611101565b600383015483546105b991849160009188916001600160a01b03909116906001600160401b03166102008b01356105b4868b61110f565b61116c565b60048301546000906105e090633b9aca0090600160a01b90046001600160401b0316613c06565b60048501549091506001600160a01b0316330361061357600484015461060f906001600160a01b031682611440565b5060005b600184015461063e908490610639908490600160801b90046001600160801b0316613bd8565b6114e9565b61064884866115fc565b505050505050565b7fec7e8c1c441439dd40959777f4c577ea0cd42fcc1dbe59d2bd0f5d9c55df8dc754600160881b900460ff166106b75760405162461bcd60e51b815260206004820152600c60248201526b1b9bdd08185d1d1858da195960a21b6044820152606401610179565b565b7fec7e8c1c441439dd40959777f4c577ea0cd42fcc1dbe59d2bd0f5d9c55df8dc65460008051602061425f8339815191529042600160401b9091046001600160401b031611156107445760405162461bcd60e51b8152602060048201526016602482015275656d657267656e63792070617573652061637469766560501b6044820152606401610179565b50565b60008051602061425f833981519152600061076184610e76565b905061076c8161176c565b610775816117bb565b6000610780826117d2565b60108401549091506001600160401b0316156107cf5760405162461bcd60e51b815260206004820152600e60248201526d1b5a5b9d1a5b99c81c185d5cd95960921b6044820152606401610179565b6000846001600160401b03161161081d5760405162461bcd60e51b815260206004820152601260248201527163616e6e6f74206d696e742030206c6f747360701b6044820152606401610179565b600160048084015460ff169081111561083857610838613c1d565b146108855760405162461bcd60e51b815260206004820152601e60248201527f73656c662d6d696e7420696e76616c6964206167656e742073746174757300006044820152606401610179565b6001600160401b038416610899828461187c565b10156108e75760405162461bcd60e51b815260206004820152601a60248201527f6e6f7420656e6f756768206672656520636f6c6c61746572616c0000000000006044820152606401610179565b60008051602061421f8339815191525460009061090d906001600160401b031686613c33565b9050600061091a8261104f565b90506000610928858361188a565b9050610945610936826118c8565b6109409085613c5e565b61190e565b6000818361095288611a5f565b61095c9190613bd8565b6109669190613bd8565b6006870154909150600160401b9004600f0b61098182611097565b13156109cf5760405162461bcd60e51b815260206004820181905260248201527f6672656520756e6465726c79696e672062616c616e636520746f20736d616c6c6044820152606401610179565b6109e18660026000338860008861116c565b505050505050505050565b60008051602061425f8339815191526000610a0684610e76565b9050610a118161176c565b610a1a816117bb565b6000610a25826117d2565b9050610a3086610f1d565b60108301546001600160401b031615610a7c5760405162461bcd60e51b815260206004820152600e60248201526d1b5a5b9d1a5b99c81c185d5cd95960921b6044820152606401610179565b600160048084015460ff1690811115610a9757610a97613c1d565b14610ae45760405162461bcd60e51b815260206004820152601e60248201527f73656c662d6d696e7420696e76616c6964206167656e742073746174757300006044820152606401610179565b6001600160401b038416610af8828461187c565b1015610b465760405162461bcd60e51b815260206004820152601a60248201527f6e6f7420656e6f756768206672656520636f6c6c61746572616c0000000000006044820152606401610179565b60008051602061421f83398151915254600090610b6c906001600160401b031686613c33565b90506000610b798261104f565b90506000610b87858361188a565b9050610b95610936826118c8565b67232128293320800960c11b6001600160a01b038916176102408a013514610bff5760405162461bcd60e51b815260206004820152601b60248201527f696e76616c69642073656c662d6d696e74207265666572656e636500000000006044820152606401610179565b60038501546101808a013514610c575760405162461bcd60e51b815260206004820152601d60248201527f73656c662d6d696e74206e6f74206167656e74277320616464726573730000006044820152606401610179565b610c6461047f8284613bd8565b6102008a01351215610cb85760405162461bcd60e51b815260206004820152601b60248201527f73656c662d6d696e74207061796d656e7420746f6f20736d616c6c00000000006044820152606401610179565b600a8501546001600160401b0316610cd86101208b016101008c01613beb565b6001600160401b03161015610d2f5760405162461bcd60e51b815260206004820152601960248201527f73656c662d6d696e74207061796d656e7420746f6f206f6c64000000000000006044820152606401610179565b610d3c600b87018a611101565b6102008901356001600160401b03881615610d6757610d6286600160003388868861116c565b610dc9565b610d718682611af0565b6040805160008082526020820181905291810183905260608101919091526001600160a01b038a16907f2b8def7928f95ea587bcff888708376aefe2c32d3671c2846769a692ba59055d906080015b60405180910390a25b50505050505050505050565b600060008051602061425f8339815191526001600160401b03831615801590610e1957506001600160401b0380841660009081526006830160205260409020541615155b610e565760405162461bcd60e51b815260206004820152600e60248201526d1a5b9d985b1a590818dc9d081a5960921b6044820152606401610179565b6001600160401b0390921660009081526006909201602052506040902090565b7f5bebac0595fee029d42bb673937f5f1cb81cf8641382bc17774635de9b7d796568010000000000000000600160e01b03604083901b161880600060048084015460ff1690811115610eca57610eca613c1d565b03610f175760405162461bcd60e51b815260206004820152601b60248201527f696e76616c6964206167656e74207661756c74206164647265737300000000006044820152606401610179565b50919050565b6000610f316102a083016102808401613c96565b60ff1614610f725760405162461bcd60e51b815260206004820152600e60248201526d1c185e5b595b9d0819985a5b195960921b6044820152606401610179565b61074481611ba2565b60018201546000906001600160a01b0390811690831681148061104557507f4f24f5c433db0962dac0d2c8b84197a6e6c7cc4e5d9ebe1916a1b6193da2f341546001600160a01b0316604051631f86345d60e31b81526001600160a01b038381166004830152919091169063fc31a2e890602401602060405180830381865afa15801561100c573d6000803e3d6000fd5b505050506040513d601f19601f820116820180604052508101906110309190613cb1565b6001600160a01b0316836001600160a01b0316145b9150505b92915050565b60008051602061427f8339815191525460009060008051602061423f8339815191529061109090600160901b90046001600160401b03908116908516613c06565b9392505050565b60006001600160ff1b038211156101f05760405162461bcd60e51b815260206004820152602860248201527f53616665436173743a2076616c756520646f65736e27742066697420696e2061604482015267371034b73a191a9b60c11b6064820152608401610179565b6100c48260a0830135611d6a565b6002810154600090600160a01b900461ffff16818161113d576004850154600160581b900461ffff16611148565b611148600183613cce565b6001850154909150611163906001600160801b031682611e33565b95945050505050565b6000611177826118c8565b905061118c886111878387613c5e565b611e4b565b6111968884611af0565b60006111a18561104f565b90506111d47f4f24f5c433db0962dac0d2c8b84197a6e6c7cc4e5d9ebe1916a1b6193da2f33b546001600160a01b031690565b6040516340c10f1960e01b81526001600160a01b0388811660048301526024820184905291909116906340c10f1990604401600060405180830381600087803b15801561122057600080fd5b505af1158015611234573d6000803e3d6000fd5b505050506112697f4f24f5c433db0962dac0d2c8b84197a6e6c7cc4e5d9ebe1916a1b6193da2f33b546001600160a01b031690565b89546040516340c10f1960e01b81526001600160a01b039182166004820152602481018690529116906340c10f1990604401600060405180830381600087803b1580156112b557600080fd5b505af11580156112c9573d6000803e3d6000fd5b50508a5460405163542a535160e11b8152600481018790526001600160a01b03909116925063a854a6a29150602401600060405180830381600087803b15801561131257600080fd5b505af1158015611326573d6000803e3d6000fd5b5060009250611333915050565b88600281111561134557611345613c1d565b036113ca576000836113578387613ce9565b6113619190613ce9565b9050876001600160401b03166113768b611ed2565b60408051858152602081018590529081018790526001600160a01b0391909116907f0d418f2ae12260f9d0ceacf72b08fcc4b05560719443f40d3761ee90da0d8fa59060600160405180910390a3506109e1565b600060028960028111156113e0576113e0613c1d565b1490506113ec8a611ed2565b60408051831515815260208101859052908101879052606081018690526001600160a01b0391909116907f2b8def7928f95ea587bcff888708376aefe2c32d3671c2846769a692ba59055d90608001610dc0565b611448611efa565b80156100c4576000826001600160a01b031682620186a090604051600060405180830381858888f193505050503d80600081146114a1576040519150601f19603f3d011682016040523d82523d6000602084013e6114a6565b606091505b50509050806101055760405162461bcd60e51b815260206004820152600f60248201526e1d1c985b9cd9995c8819985a5b1959608a1b6044820152606401610179565b806000036114f5575050565b6004820154600090611513908390600160581b900461ffff16611f6b565b8354604080516368dc448760e11b815290519293506001600160a01b039091169163d1b8890e918491600480830192600092919082900301818588803b15801561155c57600080fd5b505af1158015611570573d6000803e3d6000fd5b505050505061157e83611ed2565b6001600160a01b031663677fa2326115968385613ce9565b61159e611f7a565b6040516001600160e01b031960e085901b1681526001600160a01b0390911660048201526024016000604051808303818588803b1580156115de57600080fd5b505af11580156115f2573d6000803e3d6000fd5b5050505050505050565b600282015460008051602061425f83398151915290600090611626906001600160a01b0316610e76565b9050600061163c611637838761110f565b6118c8565b855461165191906001600160401b0316613c5e565b600583015460408051808201909152601381527234b73b30b634b2103932b9b2b93b30ba34b7b760691b602082015291925061169a916001600160401b03909116908390611fe7565b60058301805467ffffffffffffffff19166001600160401b03928316179055600e8401805483926018916116d7918591600160c01b900416613cfc565b82546101009290920a6001600160401b03818102199093169183160217909155949094166000908152600693840160205260408120818155600181018290556002810180546001600160b01b03191690556003810180546001600160a01b03191690556004810180546001600160e01b031916905560058101805467ffffffffffffffff191690559093019290925550505050565b6117768133610f7b565b6107445760405162461bcd60e51b815260206004820152601660248201527537b7363c9030b3b2b73a103b30bab63a1037bbb732b960511b6044820152606401610179565b6001810154610744906001600160a01b0316612032565b61183d6040805160c081019091526000606082018181526080830182905260a083019190915281908152604080516060810182526000808252602082810182905292820152910190815260408051606081018252600080825260208281018290529282015291015290565b60006118488361210d565b9050604051806060016040528061185e856121ca565b8152602001828152602001611873858461226f565b90529392505050565b60006110908383600161243e565b600482015460009081906118aa908490600160481b900461ffff16611f6b565b90506110458185600401600b9054906101000a900461ffff16611e33565b60008051602061427f8339815191525460009060008051602061423f833981519152906110909061190990600160901b90046001600160401b031685613d32565b610188565b60008051602061421f8339815191525460008051602061425f8339815191529060008051602061423f83398151915290600160581b90046001600160401b0316600081900361195d5750505050565b6001820154604080516318160ddd60e01b815290516000926001600160a01b0316916318160ddd9160048083019260209291908290030181865afa1580156119a9573d6000803e3d6000fd5b505050506040513d601f19601f820116820180604052508101906119cd9190613d46565b905060006119da826118c8565b600e8601546119f99190600160c01b90046001600160401b0316613c5e565b6001600160401b0316905082866001600160401b031682611a1a9190613bd8565b11156106485760405162461bcd60e51b81526020600482015260146024820152731b5a5b9d1a5b99c818d85c08195e18d95959195960621b6044820152606401610179565b60008051602061427f83398151915254600582015460009160008051602061423f833981519152918391600160901b90046001600160401b0390811691611ab791600160801b8204811691600160401b900416613c5e565b6001600160401b0316611aca9190613c06565b600d830154909150611ae8908290600160401b900461ffff16611f6b565b949350505050565b611b01611afc82611097565b612496565b600683018054600890611b1f908490600160401b9004600f0b613d5f565b92506101000a8154816001600160801b030219169083600f0b6001600160801b03160217905550611b4f82611ed2565b6006830154604051600160401b909104600f0b81526001600160a01b0391909116907f73da6891cb86668451f612d2555e88650888a0133a30b1d226b2d1f955e62bca9060200160405180910390a25050565b7f4f24f5c433db0962dac0d2c8b84197a6e6c7cc4e5d9ebe1916a1b6193da2f342547f4f24f5c433db0962dac0d2c8b84197a6e6c7cc4e5d9ebe1916a1b6193da2f3455460008051602061423f833981519152916001600160a01b031690604084013514611c425760405162461bcd60e51b815260206004820152600d60248201526c34b73b30b634b21031b430b4b760991b6044820152606401610179565b60405163a7a3797560e01b81526001600160a01b0382169063a7a3797590611c6e908690600401613ee1565b602060405180830381865afa158015611c8b573d6000803e3d6000fd5b505050506040513d601f19601f82011682018060405250810190611caf9190613f74565b611cfb5760405162461bcd60e51b815260206004820152601860248201527f6c6567616c207061796d656e74206e6f742070726f76656400000000000000006044820152606401610179565b611d1e611d1061014085016101208601613beb565b6001600160401b03166124bf565b6101055760405162461bcd60e51b815260206004820152601c60248201527f7665726966696564207472616e73616374696f6e20746f6f206f6c64000000006044820152606401610179565b60008181526020839052604090205415611dc65760405162461bcd60e51b815260206004820152601960248201527f7061796d656e7420616c726561647920636f6e6669726d6564000000000000006044820152606401610179565b6000611dd56201518042613d32565b6000818152600185016020526040812054919250819003611df65782611df8565b805b6000848152602086815260408083209390935584825260018701905290812084905560028501549003611e2d57600284018290555b50505050565b6000611090611e468461ffff8516611f6b565b6124e2565b600682015460008051602061423f83398151915290600090611e779084906001600160401b0316613c5e565b600d830154909150600090611e95906001600160401b031683613f91565b90506000611ea38284613cfc565b9050611eaf8686612529565b6001600160401b03811615611ec857611ec88682612597565b610648868361273a565b7f5bebac0595fee029d42bb673937f5f1cb81cf8641382bc17774635de9b7d79651860401c90565b7f0cd2207518cd3e5213e2c6dbe63d55b60aa893c194a427b7d7f1600408fd5bde546002146106b75760405162461bcd60e51b815260206004820152601f60248201527f5265656e7472616e637947756172643a206775617264207265717569726564006044820152606401610179565b600061109083836127106127d0565b7fec7e8c1c441439dd40959777f4c577ea0cd42fcc1dbe59d2bd0f5d9c55df8dc55460008051602061425f8339815191528054600092829161ffff909116908110611fc757611fc7613fb7565b60009182526020909120600490910201546001600160a01b031692915050565b6000826001600160401b0316846001600160401b03161015829061201e5760405162461bcd60e51b81526004016101799190613fcd565b5050506001600160401b0390811691160390565b7f4f24f5c433db0962dac0d2c8b84197a6e6c7cc4e5d9ebe1916a1b6193da2f341546001600160a01b0316604051633af32abf60e01b81526001600160a01b0383811660048301529190911690633af32abf90602401602060405180830381865afa1580156120a5573d6000803e3d6000fd5b505050506040513d601f19601f820116820180604052508101906120c99190613f74565b6107445760405162461bcd60e51b81526020600482015260156024820152741859d95b9d081b9bdd081dda1a5d195b1a5cdd1959605a1b6044820152606401610179565b6121326040805160608101909152806000815260200160008152602001600081525090565b600061213d836128f6565b604080516060810182526001815285548251634ac8eb5f60e01b8152925193945090926020808501936001600160a01b0390931692634ac8eb5f92600480830193928290030181865afa158015612198573d6000803e3d6000fd5b505050506040513d601f19601f820116820180604052508101906121bc9190613d46565b815260200161187383612945565b6121ef6040805160608101909152806000815260200160008152602001600081525090565b60006121fa8361295b565b60408051606081019091526000815281549192509060208201906001600160a01b03166370a0823161222b87611ed2565b6040516001600160e01b031960e084901b1681526001600160a01b039091166004820152602401602060405180830381865afa158015612198573d6000803e3d6000fd5b6122946040805160608101909152806000815260200160008152602001600081525090565b8254604080516332f7ce0b60e21b815290516000926001600160a01b03169163cbdf382c9160048083019260209291908290030181865afa1580156122dd573d6000803e3d6000fd5b505050506040513d601f19601f820116820180604052508101906123019190613cb1565b90506000816001600160a01b03166370a0823161231d87611ed2565b6040516001600160e01b031960e084901b1681526001600160a01b039091166004820152602401602060405180830381865afa158015612361573d6000803e3d6000fd5b505050506040513d601f19601f820116820180604052508101906123859190613d46565b90506000826001600160a01b03166318160ddd6040518163ffffffff1660e01b8152600401602060405180830381865afa1580156123c7573d6000803e3d6000fd5b505050506040513d601f19601f820116820180604052508101906123eb9190613d46565b90506000856020015160000361240557856040015161241a565b6020860151604087015161241a9184906127d0565b60408051606081018252600281526020810195909552840152509095945050505050565b60008061245085600001518585612992565b9050600061246386602001518686612992565b9050600061247687604001518787612992565b905061248b8361248684846129d3565b6129d3565b979650505050505050565b80600f81900b81146124ba5760405162461bcd60e51b81526004016101799061401c565b919050565b60006124cf600e62015180613c06565b6124d99042613ce9565b90911015919050565b60008051602061427f8339815191525460009060008051602061423f8339815191529061251f90600160901b90046001600160401b031684614063565b6110909084613ce9565b6005820154612549908290600160401b90046001600160401b0316613c5e565b8260050160086101000a8154816001600160401b0302191690836001600160401b031602179055506100c461257d83611ed2565b6005840154600160401b90046001600160401b03166129e9565b60008051602061425f8339815191526001600160401b0382166000036125bc57505050565b60006125c784611ed2565b6009830154600160401b90046001600160401b031660008181526007850160205260409020805492935090916001600160a01b038085169116036126c457805485908290601490612629908490600160a01b90046001600160401b0316613c5e565b92506101000a8154816001600160401b0302191690836001600160401b03160217905550600061266f8260000160149054906101000a90046001600160401b031661104f565b9050826001600160401b0316846001600160a01b03167f9d2e72c50be7927e999d37329649af37a863df77bcb25361699ce021d3d7475d836040516126b691815260200190565b60405180910390a350610648565b60006126d4600786018588612a35565b905060006126e18761104f565b9050816001600160401b0316856001600160a01b03167f631f8f2039090539b2ea4ef7dc567f7f1939ef4dd3e790b1ca7bc548a1fada588360405161272891815260200190565b60405180910390a35050505050505050565b60068201546001600160401b03808316911603612755575050565b60068201805467ffffffffffffffff19166001600160401b038316179055600061277e8261104f565b905061278983611ed2565b6001600160a01b03167fa3db2bc927901a1d3ba09ad51d84609457b98443be9132a0a936a47c5a1081b5826040516127c391815260200190565b60405180910390a2505050565b60008082116128145760405162461bcd60e51b815260206004820152601060248201526f4469766973696f6e206279207a65726f60801b6044820152606401610179565b8360000361282457506000611090565b8383028385828161283757612837613d1c565b04036128555782818161284c5761284c613d1c565b04915050611090565b5060006128628386613d32565b905060006128708487614063565b9050600061287e8587613d32565b9050600061288c8688614063565b9050856128998285613c06565b6128a39190613d32565b6128ad8385613c06565b6128b78387613c06565b886128c28689613c06565b6128cc9190613c06565b6128d69190613bd8565b6128e09190613bd8565b6128ea9190613bd8565b98975050505050505050565b60008060008051602061425f833981519152600484015481549192508291630100000090910461ffff1690811061292f5761292f613fb7565b9060005260206000209060040201915050919050565b6000612952826000612e3e565b50909392505050565b60008060008051602061425f83398151915260048401548154919250829161010090910461ffff1690811061292f5761292f613fb7565b60008061299f8585612ffd565b905060006129ae86868661301a565b9050806000036129bf5760006129c9565b6129c98183613d32565b9695505050505050565b60008183106129e25781611090565b5090919050565b7f341c6685fdb8ed7133465b64f545b9fbc5699a59cbd1ad98992e5c070a74c5106101057f341c6685fdb8ed7133465b64f545b9fbc5699a59cbd1ad98992e5c070a74c5118484613054565b6001600160a01b03821660009081526001840160205260408120600285018054839190601090612a7490600160801b90046001600160401b0316614077565b91906101000a8154816001600160401b0302191690836001600160401b03160217905590506040518060c00160405280866001600160a01b03168152602001856001600160401b031681526020018760020160089054906101000a90046001600160401b03166001600160401b0316815260200160006001600160401b031681526020018360000160089054906101000a90046001600160401b03166001600160401b0316815260200160006001600160401b0316815250866000016000836001600160401b03166001600160401b0316815260200190815260200160002060008201518160000160006101000a8154816001600160a01b0302191690836001600160a01b0316021790555060208201518160000160146101000a8154816001600160401b0302191690836001600160401b0316021790555060408201518160010160006101000a8154816001600160401b0302191690836001600160401b0316021790555060608201518160010160086101000a8154816001600160401b0302191690836001600160401b0316021790555060808201518160010160106101000a8154816001600160401b0302191690836001600160401b0316021790555060a08201518160010160186101000a8154816001600160401b0302191690836001600160401b031602179055509050508560020160009054906101000a90046001600160401b03166001600160401b0316600003612cd1576002860154600160401b90046001600160401b031615612cae57612cae61409d565b60028601805467ffffffffffffffff19166001600160401b038316179055612d39565b6002860154600160401b90046001600160401b0316600003612cf557612cf561409d565b6002860154600160401b908190046001600160401b039081166000908152602089905260409020600101805467ffffffffffffffff60401b19169184169092021790555b6002860180546001600160401b03808416600160401b0267ffffffffffffffff60401b1990921691909117909155825416600003612daf578154600160401b90046001600160401b031615612d9057612d9061409d565b815467ffffffffffffffff19166001600160401b038216178255612e12565b8154600160401b90046001600160401b0316600003612dd057612dd061409d565b81546001600160401b03600160401b909104811660009081526020889052604090206001018054918316600160c01b026001600160c01b039092169190911790555b815467ffffffffffffffff60401b1916600160401b6001600160401b0383160217909155949350505050565b600080600080600080612edd886001018054612e59906140b3565b80601f0160208091040260200160405190810160405280929190818152602001828054612e85906140b3565b8015612ed25780601f10612ea757610100808354040283529160200191612ed2565b820191906000526020600020905b815481529060010190602001808311612eb557829003601f168201915b5050505050886130bd565b8a549295509093509150600160f01b900460ff1615612f24578754600090612f1390600160a81b900460ff1660018387866131ab565b9650919450849350612ff692505050565b6000806000612fbf8b6002018054612f3b906140b3565b80601f0160208091040260200160405190810160405280929190818152602001828054612f67906140b3565b8015612fb45780601f10612f8957610100808354040283529160200191612fb4565b820191906000526020600020905b815481529060010190602001808311612f9757829003601f168201915b50505050508b6130bd565b8d549295509093509150600090612fe390600160a81b900460ff1685848a896131ab565b9950949750909550612ff6945050505050565b9250925092565b60008061300a8484613232565b9050611045846020015182613362565b60008051602061421f8339815191525460009060008051602061423f8339815191529061116390869086906001600160401b03168661337c565b6001600160a01b0382166000908152600484016020526040812090613078826133f3565b90506000613085866133f3565b905061309283428661348e565b6130b342836130a18785613c5e565b6130ab9190613cfc565b88919061348e565b61064886846137ff565b7f4f24f5c433db0962dac0d2c8b84197a6e6c7cc4e5d9ebe1916a1b6193da2f344546000908190819060008051602061423f833981519152906001600160a01b0316851561317f5760405163e4a0a55b60e01b81526001600160a01b0382169063e4a0a55b90613131908a90600401613fcd565b606060405180830381865afa15801561314e573d6000803e3d6000fd5b505050506040513d601f19601f8201168201806040525081019061317291906140e7565b9450945094505050612ff6565b60405163524f388960e01b81526001600160a01b0382169063524f388990613131908a90600401613fcd565b600060008051602061423f8339815191528160096131c9878a613bd8565b6131d39190613bd8565b600a8301549091506000906131f3908690600160a81b900460ff16613bd8565b9050808210156132055761320561409d565b6132256132128284613ce9565b61321d90600a6141f9565b87908a6127d0565b9998505050505050505050565b600080600061324584866000015161383c565b6005860154919350915060009061326e906001600160401b03600160401b820481169116613bd8565b9050600061328a84613284848a60400151613906565b90611f6b565b905060006001885160028111156132a3576132a3613c1d565b146132c2576005870154600160801b90046001600160401b03166132d8565b6005870154600160c01b90046001600160401b03165b905060006132f785613284846001600160401b03168c60400151613906565b9050600060018a51600281111561331057613310613c1d565b0361331c576000613334565b8951613329908a90613920565b546001600160801b03165b6001600160801b031690508061334a8386613bd8565b6133549190613bd8565b9a9950505050505050505050565b6000818311613372576000611090565b6110908284613ce9565b6000808261338b5760006133b4565b60048501546133b49061ffff600160581b8204811691613284918891600160481b900416611f6b565b905060006133c28286613bd8565b905060006133d4828960400151613906565b905060006133e6888a6000015161383c565b5090506132258282611f6b565b6001810154600090600160401b90046001600160401b0316810361341957506000919050565b60018201546001600160401b03808216600160401b909204161161343f5761343f61409d565b60018281015483916000916134649190600160401b90046001600160401b0316613cfc565b6001600160401b039081168252602082019290925260400160002054600160c01b90041692915050565b6001830154600160401b90046001600160401b03166000036135ad5760018301546001600160401b0316156134c5576134c561409d565b604051806060016040528060006001600160801b031681526020016134e984610188565b6001600160401b0390811682528381166020909201919091526001850180548692600092600160401b9092041690600861352283614077565b82546001600160401b039182166101009390930a92830292820219169190911790915590811682526020808301939093526040918201600020845181549486015195909301518216600160c01b026001600160c01b0395909216600160801b026001600160c01b03199094166001600160801b03909316929092179290921792909216179055505050565b60018301546001600160401b03808216600160401b90920416116135d3576135d361409d565b600183810154600091859183916135f991600160401b90046001600160401b0316613cfc565b6001600160401b03908116825260208201929092526040016000208054909250600160801b90041683900361364b5780546001600160c01b0316600160c01b6001600160401b03841602178155611e2d565b8054600160801b90046001600160401b031683116136bc5760405162461bcd60e51b815260206004820152602860248201527f54696d6543756d756c61746976653a2074696d657374616d70206e6f7420696e6044820152676372656173696e6760c01b6064820152608401610179565b80546000906136db90600160801b90046001600160401b031685613ce9565b82546136f79190600160c01b90046001600160401b0316613c06565b825461370c91906001600160801b0316613bd8565b905060405180606001604052806137228361396d565b6001600160801b0316815260200161373986610188565b6001600160401b0390811682528581166020909201919091526001870180548892600092600160401b9092041690600861377283614077565b82546001600160401b039182166101009390930a92830292820219169190911790915590811682526020808301939093526040918201600020845181549486015195909301518216600160c01b026001600160c01b0395909216600160801b026001600160c01b03199094166001600160801b039093169290921792909217929092161790555050505050565b6003820154600090613822908490600160c01b90046001600160401b0316613996565b9050613830828260026139d1565b610105838260026139d1565b600080600283600281111561385357613853613c1d565b0361387e57505060008051602061427f83398151915254640100000000900463ffffffff16806138ff565b600183600281111561389257613892613c1d565b036138cd576138a0846128f6565b60030154600485015463ffffffff91821692506138c691600160881b9091041682613aa2565b91506138ff565b6138d68461295b565b60030154600485015463ffffffff91821692506138fc91600160681b9091041682613aa2565b91505b9250929050565b6000611090826139186009600a6141f9565b8591906127d0565b6000600182600281111561393657613936613c1d565b036139435761394361409d565b600082600281111561395757613957613c1d565b146139655782600901611090565b505060080190565b60006001600160801b038211156101f05760405162461bcd60e51b81526004016101799061401c565b60038201546000906139b9908390600160401b90046001600160401b0316613c06565b600384015461109091906001600160401b0316613bd8565b60018301546001600160401b0380821691600160401b90041660005b8381108015613a05575081613a03846001613bd8565b105b8015613a3e575084866000613a1b866001613bd8565b8152602081019190915260400160002054600160801b90046001600160401b0316105b15613a6d57600083815260208790526040812055613a5b83614205565b9250613a6681614205565b90506139ed565b613a7683610188565b600196909601805467ffffffffffffffff19166001600160401b03909716969096179095555050505050565b60008183116129e25781611090565b60006102a08284031215610f1757600080fd5b60008060408385031215613ad757600080fd5b82356001600160401b03811115613aed57600080fd5b613af985828601613ab1565b95602094909401359450505050565b6001600160a01b038116811461074457600080fd5b80356001600160401b03811681146124ba57600080fd5b60008060408385031215613b4757600080fd5b8235613b5281613b08565b9150613b6060208401613b1d565b90509250929050565b600080600060608486031215613b7e57600080fd5b83356001600160401b03811115613b9457600080fd5b613ba086828701613ab1565b9350506020840135613bb181613b08565b929592945050506040919091013590565b634e487b7160e01b600052601160045260246000fd5b8082018082111561104957611049613bc2565b600060208284031215613bfd57600080fd5b61109082613b1d565b808202811582820484141761104957611049613bc2565b634e487b7160e01b600052602160045260246000fd5b6001600160401b03818116838216028082169190828114613c5657613c56613bc2565b505092915050565b6001600160401b03818116838216019080821115613c7e57613c7e613bc2565b5092915050565b803560ff811681146124ba57600080fd5b600060208284031215613ca857600080fd5b61109082613c85565b600060208284031215613cc357600080fd5b815161109081613b08565b61ffff828116828216039080821115613c7e57613c7e613bc2565b8181038181111561104957611049613bc2565b6001600160401b03828116828216039080821115613c7e57613c7e613bc2565b634e487b7160e01b600052601260045260246000fd5b600082613d4157613d41613d1c565b500490565b600060208284031215613d5857600080fd5b5051919050565b600f81810b9083900b016f7fffffffffffffffffffffffffffffff81136f7fffffffffffffffffffffffffffffff198212171561104957611049613bc2565b801515811461074457600080fd5b80356124ba81613d9e565b8035825260208101356020830152613dd160408201613b1d565b6001600160401b03808216604085015280613dee60608501613b1d565b16606085015250506080810135608083015260a081013560a083015260c081013560c0830152613e3460e08301613e2760e08401613b1d565b6001600160401b03169052565b610100613e42818301613b1d565b6001600160401b03169083015261012081810135908301526101408082013590830152610160808201359083015261018080820135908301526101a080820135908301526101c080820135908301526101e0808201359083015261020080820135908301526102208082013590830152610240613ec0818301613dac565b151590830152610260613ed4828201613c85565b60ff811684830152611e2d565b6020815260008235601e19843603018112613efb57600080fd5b83016020810190356001600160401b03811115613f1757600080fd5b8060051b803603831315613f2a57600080fd5b6102a060208601526102c085018290526102e06001600160fb1b03831115613f5157600080fd5b818482880137613f676040870160208901613db7565b9401909301949350505050565b600060208284031215613f8657600080fd5b815161109081613d9e565b60006001600160401b0380841680613fab57613fab613d1c565b92169190910692915050565b634e487b7160e01b600052603260045260246000fd5b60006020808352835180602085015260005b81811015613ffb57858101830151858201604001528201613fdf565b506000604082860101526040601f19601f8301168501019250505092915050565b60208082526027908201527f53616665436173743a2076616c756520646f65736e27742066697420696e20316040820152663238206269747360c81b606082015260800190565b60008261407257614072613d1c565b500690565b60006001600160401b0380831681810361409357614093613bc2565b6001019392505050565b634e487b7160e01b600052600160045260246000fd5b600181811c908216806140c757607f821691505b602082108103610f1757634e487b7160e01b600052602260045260246000fd5b6000806000606084860312156140fc57600080fd5b8351925060208401519150604084015190509250925092565b600181815b8085111561415057816000190482111561413657614136613bc2565b8085161561414357918102915b93841c939080029061411a565b509250929050565b60008261416757506001611049565b8161417457506000611049565b816001811461418a5760028114614194576141b0565b6001915050611049565b60ff8411156141a5576141a5613bc2565b50506001821b611049565b5060208310610133831016604e8410600b84101617156141d3575081810a611049565b6141dd8383614115565b80600019048211156141f1576141f1613bc2565b029392505050565b60006110908383614158565b60006001820161421757614217613bc2565b506001019056fe4f24f5c433db0962dac0d2c8b84197a6e6c7cc4e5d9ebe1916a1b6193da2f3474f24f5c433db0962dac0d2c8b84197a6e6c7cc4e5d9ebe1916a1b6193da2f33aec7e8c1c441439dd40959777f4c577ea0cd42fcc1dbe59d2bd0f5d9c55df8db64f24f5c433db0962dac0d2c8b84197a6e6c7cc4e5d9ebe1916a1b6193da2f346a264697066735822122059337654f94ece761a9b2a8023b84bd146612ad46e8a409df856690e55af19c964736f6c63430008170033",
  "linkReferences": {},
  "deployedLinkReferences": {}
}