{
  "_format": "hh-sol-artifact-1",
  "contractName": "MaliciousExecutor",
  "sourceName": "contracts/assetManager/mock/MaliciousExecutor.sol",
  "abi": [
    {
      "inputs": [
        {
          "internalType": "address",
          "name": "_diamond",
          "type": "address"
        }
      ],
      "stateMutability": "nonpayable",
      "type": "constructor"
    },
    {
      "stateMutability": "payable",
      "type": "fallback"
    },
    {
      "inputs": [
        {
          "components": [
            {
              "internalType": "bytes32[]",
              "name": "merkleProof",
              "type": "bytes32[]"
            },
            {
              "components": [
                {
                  "internalType": "bytes32",
                  "name": "attestationType",
                  "type": "bytes32"
                },
                {
                  "internalType": "bytes32",
                  "name": "sourceId",
                  "type": "bytes32"
                },
                {
                  "internalType": "uint64",
                  "name": "votingRound",
                  "type": "uint64"
                },
                {
                  "internalType": "uint64",
                  "name": "lowestUsedTimestamp",
                  "type": "uint64"
                },
                {
                  "components": [
                    {
                      "internalType": "uint64",
                      "name": "minimalBlockNumber",
                      "type": "uint64"
                    },
                    {
                      "internalType": "uint64",
                      "name": "deadlineBlockNumber",
                      "type": "uint64"
                    },
                    {
                      "internalType": "uint64",
                      "name": "deadlineTimestamp",
                      "type": "uint64"
                    },
                    {
                      "internalType": "bytes32",
                      "name": "destinationAddressHash",
                      "type": "bytes32"
                    },
                    {
                      "internalType": "uint256",
                      "name": "amount",
                      "type": "uint256"
                    },
                    {
                      "internalType": "bytes32",
                      "name": "standardPaymentReference",
                      "type": "bytes32"
                    },
                    {
                      "internalType": "bool",
                      "name": "checkSourceAddresses",
                      "type": "bool"
                    },
                    {
                      "internalType": "bytes32",
                      "name": "sourceAddressesRoot",
                      "type": "bytes32"
                    }
                  ],
                  "internalType": "struct IReferencedPaymentNonexistence.RequestBody",
                  "name": "requestBody",
                  "type": "tuple"
                },
                {
                  "components": [
                    {
                      "internalType": "uint64",
                      "name": "minimalBlockTimestamp",
                      "type": "uint64"
                    },
                    {
                      "internalType": "uint64",
                      "name": "firstOverflowBlockNumber",
                      "type": "uint64"
                    },
                    {
                      "internalType": "uint64",
                      "name": "firstOverflowBlockTimestamp",
                      "type": "uint64"
                    }
                  ],
                  "internalType": "struct IReferencedPaymentNonexistence.ResponseBody",
                  "name": "responseBody",
                  "type": "tuple"
                }
              ],
              "internalType": "struct IReferencedPaymentNonexistence.Response",
              "name": "data",
              "type": "tuple"
            }
          ],
          "internalType": "struct IReferencedPaymentNonexistence.Proof",
          "name": "_proof",
          "type": "tuple"
        },
        {
          "internalType": "uint256",
          "name": "_redemptionRequestId",
          "type": "uint256"
        },
        {
          "internalType": "uint256",
          "name": "_trigger",
          "type": "uint256"
        }
      ],
      "name": "defaulting",
      "outputs": [],
      "stateMutability": "nonpayable",
      "type": "function"
    },
    {
      "inputs": [],
      "name": "diamond",
      "outputs": [
        {
          "internalType": "address",
          "name": "",
          "type": "address"
        }
      ],
      "stateMutability": "view",
      "type": "function"
    },
    {
      "inputs": [],
      "name": "hit",
      "outputs": [
        {
          "internalType": "uint256",
          "name": "",
          "type": "uint256"
        }
      ],
      "stateMutability": "view",
      "type": "function"
    },
    {
      "inputs": [],
      "name": "howMuchIsMyNativeBalance",
      "outputs": [
        {
          "internalType": "uint256",
          "name": "",
          "type": "uint256"
        }
      ],
      "stateMutability": "view",
      "type": "function"
    },
    {
      "inputs": [],
      "name": "tempProof",
      "outputs": [
        {
          "components": [
            {
              "internalType": "bytes32",
              "name": "attestationType",
              "type": "bytes32"
            },
            {
              "internalType": "bytes32",
              "name": "sourceId",
              "type": "bytes32"
            },
            {
              "internalType": "uint64",
              "name": "votingRound",
              "type": "uint64"
            },
            {
              "internalType": "uint64",
              "name": "lowestUsedTimestamp",
              "type": "uint64"
            },
            {
              "components": [
                {
                  "internalType": "uint64",
                  "name": "minimalBlockNumber",
                  "type": "uint64"
                },
                {
                  "internalType": "uint64",
                  "name": "deadlineBlockNumber",
                  "type": "uint64"
                },
                {
                  "internalType": "uint64",
                  "name": "deadlineTimestamp",
                  "type": "uint64"
                },
                {
                  "internalType": "bytes32",
                  "name": "destinationAddressHash",
                  "type": "bytes32"
                },
                {
                  "internalType": "uint256",
                  "name": "amount",
                  "type": "uint256"
                },
                {
                  "internalType": "bytes32",
                  "name": "standardPaymentReference",
                  "type": "bytes32"
                },
                {
                  "internalType": "bool",
                  "name": "checkSourceAddresses",
                  "type": "bool"
                },
                {
                  "internalType": "bytes32",
                  "name": "sourceAddressesRoot",
                  "type": "bytes32"
                }
              ],
              "internalType": "struct IReferencedPaymentNonexistence.RequestBody",
              "name": "requestBody",
              "type": "tuple"
            },
            {
              "components": [
                {
                  "internalType": "uint64",
                  "name": "minimalBlockTimestamp",
                  "type": "uint64"
                },
                {
                  "internalType": "uint64",
                  "name": "firstOverflowBlockNumber",
                  "type": "uint64"
                },
                {
                  "internalType": "uint64",
                  "name": "firstOverflowBlockTimestamp",
                  "type": "uint64"
                }
              ],
              "internalType": "struct IReferencedPaymentNonexistence.ResponseBody",
              "name": "responseBody",
              "type": "tuple"
            }
          ],
          "internalType": "struct IReferencedPaymentNonexistence.Response",
          "name": "data",
          "type": "tuple"
        }
      ],
      "stateMutability": "view",
      "type": "function"
    },
    {
      "inputs": [],
      "name": "tempRequestId",
      "outputs": [
        {
          "internalType": "uint256",
          "name": "",
          "type": "uint256"
        }
      ],
      "stateMutability": "view",
      "type": "function"
    },
    {
      "inputs": [],
      "name": "trigger",
      "outputs": [
        {
          "internalType": "uint256",
          "name": "",
          "type": "uint256"
        }
      ],
      "stateMutability": "view",
      "type": "function"
    }
  ],
  "bytecode": "0x60a06040526000600c556000600d5534801561001a57600080fd5b50604051610ba2380380610ba28339810160408190526100399161004a565b6001600160a01b031660805261007a565b60006020828403121561005c57600080fd5b81516001600160a01b038116811461007357600080fd5b9392505050565b608051610b006100a26000396000818160a6015281816102a5015261030f0152610b006000f3fe6080604052600436106100705760003560e01c8063606263411161004e57806360626341146101755780637fec8d3814610188578063e2155b011461019e578063f0b7db4e1461029357610070565b8063141fe3e8146101165780632ae3594a1461013f5780632e9777e114610155575b600c541580156100825750600d546001145b15610114576001600c55600b546040516337fbae9160e01b81526001600160a01b037f000000000000000000000000000000000000000000000000000000000000000016916337fbae91916100dc9160009160040161037d565b600060405180830381600087803b1580156100f657600080fd5b505af115801561010a573d6000803e3d6000fd5b50506000600c5550505b005b34801561012257600080fd5b5061012c600b5481565b6040519081526020015b60405180910390f35b34801561014b57600080fd5b5061012c600c5481565b34801561016157600080fd5b506101146101703660046104ab565b6102df565b34801561018157600080fd5b504761012c565b34801561019457600080fd5b5061012c600d5481565b3480156101aa57600080fd5b506040805160c0808201835260015482526002546020808401919091526003546001600160401b0380821685870152600160401b9182900481166060808701919091528651610100810188526004548084168252848104841682870152600160801b908190048416828a01526005548284015260065460808381019190915260075460a08085019190915260085460ff1615159884019890985260095460e084015288019190915287519182018852600a5480841683529384048316948201949094529290910416938101939093528101919091526102869081565b60405161013691906104fe565b34801561029f57600080fd5b506102c77f000000000000000000000000000000000000000000000000000000000000000081565b6040516001600160a01b039091168152602001610136565b8260006102ec828261080b565b5050600b829055600d8190556040516337fbae9160e01b81526001600160a01b037f000000000000000000000000000000000000000000000000000000000000000016906337fbae91906103469086908690600401610a30565b600060405180830381600087803b15801561036057600080fd5b505af1158015610374573d6000803e3d6000fd5b50505050505050565b604080825261020090820152825461024082018190526000848152602081209091610260840190835b818110156103c45783548352600193840193602090930192016103a6565b5050600186015460608501526002860154608085015260038601546001600160401b0380821660a0870152604091821c811660c0870152600488015480821660e08801529182901c166101008601529150608082901c6001600160401b0316610120850152600586015461014085015260068601546101608501526007860154610180850152600886015460ff168015156101a0860152915060098601546101c085015261049a6101e08501600a8801546001600160401b038082168352604082811c8216602085015260809290921c16910152565b602093909301939093525092915050565b6000806000606084860312156104c057600080fd5b83356001600160401b038111156104d657600080fd5b840161020081870312156104e957600080fd5b95602085013595506040909401359392505050565b60006101e08201905082518252602083015160208301526001600160401b0360408401511660408301526001600160401b03606084015116606083015260808301516001600160401b0381511660808401526001600160401b0360208201511660a08401526001600160401b0360408201511660c0840152606081015160e0840152608081015161010084015260a081015161012084015260c08101516105aa61014085018215159052565b5060e0015161016083015260a083015180516001600160401b03908116610180850152602082015181166101a08501526040820151166101c08401525092915050565b634e487b7160e01b600052604160045260246000fd5b6001600160401b038116811461061857600080fd5b50565b805467ffffffffffffffff60401b8360401b1667ffffffffffffffff60401b198216178255505050565b805467ffffffffffffffff60801b191660809290921b67ffffffffffffffff60801b16919091179055565b801515811461061857600080fd5b6000813561068b81610670565b92915050565b813561069c81610603565b815467ffffffffffffffff19166001600160401b0382161782555060208201356106c581610603565b6106cf818361061b565b5060408201356106de81610603565b6106e88183610645565b505050565b813581556020820135600182015560028101604083013561070d81610603565b815467ffffffffffffffff19166001600160401b03821617825550606083013561073681610603565b610740818361061b565b505060038101608083013561075481610603565b815467ffffffffffffffff19166001600160401b0382161782555060a083013561077d81610603565b610787818361061b565b5060c083013561079681610603565b6107a08183610645565b505060e08201356004820155610100820135600582015561012082013560068201556107eb6107d2610140840161067e565b6007830160ff1981541660ff8315151681178255505050565b6101608201356008820155610807610180830160098301610691565b5050565b8135601e1983360301811261081f57600080fd5b820180356001600160401b038111801561083857600080fd5b6020830192508160051b360383131561085057600080fd5b506000600160401b821115610867576108676105ed565b83548285558083101561089b57848252602082208381019082015b8082101561089857838255600182019150610882565b50505b50600084815260209020815b838110156108c3578435828201556020909401936001016108a7565b505050505061080760208301600183016106ed565b80356108e381610603565b919050565b80356108e381610670565b80356108fe81610603565b6001600160401b03168252602081013561091781610603565b6001600160401b03166020830152604081013561093381610603565b6001600160401b0381166040840152505050565b8035825260208082013590830152604081013561096381610603565b6001600160401b03166040830152606081013561097f81610603565b6001600160401b03166060830152608081013561099b81610603565b6001600160401b0316608083015260a08101356109b781610603565b6001600160401b031660a08301526109d160c082016108d8565b6001600160401b031660c083015260e0818101359083015261010080820135908301526101208082013590830152610a0c61014082016108e8565b151561014083015261016081810135908301526108076101808084019083016108f3565b6040815260008335601e19853603018112610a4a57600080fd5b84016020810190356001600160401b03811115610a6657600080fd5b8060051b803603831315610a7957600080fd5b610200604086015261024085018290526001600160fb1b03821115610a9d57600080fd5b8083610260870137610ab56060860160208901610947565b6020850195909552505050016102600191905056fea2646970667358221220db70c13ce9431d3222cd87f056feb184a91125cb10b57f1f6b3cd13cc9c3f7eb64736f6c634300081b0033",
  "linkReferences": {},
  "deployedLinkReferences": {}
}