{
  "_format": "hh-sol-artifact-1",
  "contractName": "RedemptionDefaultsFacet",
  "sourceName": "contracts/assetManager/facets/RedemptionDefaultsFacet.sol",
  "abi": [
    {
      "inputs": [],
      "name": "BlockHeightNotProven",
      "type": "error"
    },
    {
      "inputs": [],
      "name": "CoreVaultNotEnabled",
      "type": "error"
    },
    {
      "inputs": [],
      "name": "DivisionByZero",
      "type": "error"
    },
    {
      "inputs": [],
      "name": "EmergencyPauseActive",
      "type": "error"
    },
    {
      "inputs": [],
      "name": "InvalidAgentVaultAddress",
      "type": "error"
    },
    {
      "inputs": [],
      "name": "InvalidChain",
      "type": "error"
    },
    {
      "inputs": [],
      "name": "InvalidRedemptionStatus",
      "type": "error"
    },
    {
      "inputs": [],
      "name": "InvalidRequestId",
      "type": "error"
    },
    {
      "inputs": [],
      "name": "NonPaymentNotProven",
      "type": "error"
    },
    {
      "inputs": [],
      "name": "NotAttached",
      "type": "error"
    },
    {
      "inputs": [],
      "name": "NotEnoughAgentPoolTokensToCoverFailedVaultPayment",
      "type": "error"
    },
    {
      "inputs": [],
      "name": "NotEnoughPoolCollateralToCoverFailedVaultPayment",
      "type": "error"
    },
    {
      "inputs": [],
      "name": "NotWhitelisted",
      "type": "error"
    },
    {
      "inputs": [],
      "name": "OnlyAgentVaultOwner",
      "type": "error"
    },
    {
      "inputs": [],
      "name": "OnlyAssetManagerController",
      "type": "error"
    },
    {
      "inputs": [],
      "name": "OnlyRedeemerExecutorOrAgent",
      "type": "error"
    },
    {
      "inputs": [],
      "name": "RedemptionDefaultTooEarly",
      "type": "error"
    },
    {
      "inputs": [],
      "name": "RedemptionNonPaymentMismatch",
      "type": "error"
    },
    {
      "inputs": [],
      "name": "RedemptionNonPaymentProofWindowTooShort",
      "type": "error"
    },
    {
      "inputs": [],
      "name": "ReentrancyGuardReentrantCall",
      "type": "error"
    },
    {
      "inputs": [],
      "name": "ShouldDefaultFirst",
      "type": "error"
    },
    {
      "inputs": [],
      "name": "SourceAddressesNotSupported",
      "type": "error"
    },
    {
      "anonymous": false,
      "inputs": [
        {
          "indexed": true,
          "internalType": "address",
          "name": "agentVault",
          "type": "address"
        },
        {
          "indexed": false,
          "internalType": "uint256",
          "name": "dustUBA",
          "type": "uint256"
        }
      ],
      "name": "DustChanged",
      "type": "event"
    },
    {
      "anonymous": false,
      "inputs": [
        {
          "indexed": true,
          "internalType": "address",
          "name": "agentVault",
          "type": "address"
        },
        {
          "indexed": true,
          "internalType": "address",
          "name": "redeemer",
          "type": "address"
        },
        {
          "indexed": true,
          "internalType": "uint256",
          "name": "requestId",
          "type": "uint256"
        },
        {
          "indexed": false,
          "internalType": "uint256",
          "name": "redemptionAmountUBA",
          "type": "uint256"
        },
        {
          "indexed": false,
          "internalType": "uint256",
          "name": "redeemedVaultCollateralWei",
          "type": "uint256"
        },
        {
          "indexed": false,
          "internalType": "uint256",
          "name": "redeemedPoolCollateralWei",
          "type": "uint256"
        }
      ],
      "name": "RedemptionDefault",
      "type": "event"
    },
    {
      "anonymous": false,
      "inputs": [
        {
          "indexed": true,
          "internalType": "address",
          "name": "agentVault",
          "type": "address"
        },
        {
          "indexed": true,
          "internalType": "uint256",
          "name": "redemptionTicketId",
          "type": "uint256"
        },
        {
          "indexed": false,
          "internalType": "uint256",
          "name": "ticketValueUBA",
          "type": "uint256"
        }
      ],
      "name": "RedemptionTicketCreated",
      "type": "event"
    },
    {
      "anonymous": false,
      "inputs": [
        {
          "indexed": true,
          "internalType": "address",
          "name": "agentVault",
          "type": "address"
        },
        {
          "indexed": true,
          "internalType": "uint256",
          "name": "redemptionTicketId",
          "type": "uint256"
        },
        {
          "indexed": false,
          "internalType": "uint256",
          "name": "ticketValueUBA",
          "type": "uint256"
        }
      ],
      "name": "RedemptionTicketUpdated",
      "type": "event"
    },
    {
      "anonymous": false,
      "inputs": [
        {
          "indexed": true,
          "internalType": "address",
          "name": "agentVault",
          "type": "address"
        },
        {
          "indexed": true,
          "internalType": "uint256",
          "name": "transferRedemptionRequestId",
          "type": "uint256"
        },
        {
          "indexed": false,
          "internalType": "uint256",
          "name": "remintedUBA",
          "type": "uint256"
        }
      ],
      "name": "TransferToCoreVaultDefaulted",
      "type": "event"
    },
    {
      "inputs": [
        {
          "components": [
            {
              "internalType": "bytes32[]",
              "name": "merkleProof",
              "type": "bytes32[]"
            },
            {
              "components": [
                {
                  "internalType": "bytes32",
                  "name": "attestationType",
                  "type": "bytes32"
                },
                {
                  "internalType": "bytes32",
                  "name": "sourceId",
                  "type": "bytes32"
                },
                {
                  "internalType": "uint64",
                  "name": "votingRound",
                  "type": "uint64"
                },
                {
                  "internalType": "uint64",
                  "name": "lowestUsedTimestamp",
                  "type": "uint64"
                },
                {
                  "components": [
                    {
                      "internalType": "uint64",
                      "name": "blockNumber",
                      "type": "uint64"
                    },
                    {
                      "internalType": "uint64",
                      "name": "queryWindow",
                      "type": "uint64"
                    }
                  ],
                  "internalType": "struct IConfirmedBlockHeightExists.RequestBody",
                  "name": "requestBody",
                  "type": "tuple"
                },
                {
                  "components": [
                    {
                      "internalType": "uint64",
                      "name": "blockTimestamp",
                      "type": "uint64"
                    },
                    {
                      "internalType": "uint64",
                      "name": "numberOfConfirmations",
                      "type": "uint64"
                    },
                    {
                      "internalType": "uint64",
                      "name": "lowestQueryWindowBlockNumber",
                      "type": "uint64"
                    },
                    {
                      "internalType": "uint64",
                      "name": "lowestQueryWindowBlockTimestamp",
                      "type": "uint64"
                    }
                  ],
                  "internalType": "struct IConfirmedBlockHeightExists.ResponseBody",
                  "name": "responseBody",
                  "type": "tuple"
                }
              ],
              "internalType": "struct IConfirmedBlockHeightExists.Response",
              "name": "data",
              "type": "tuple"
            }
          ],
          "internalType": "struct IConfirmedBlockHeightExists.Proof",
          "name": "_proof",
          "type": "tuple"
        },
        {
          "internalType": "uint256",
          "name": "_redemptionRequestId",
          "type": "uint256"
        }
      ],
      "name": "finishRedemptionWithoutPayment",
      "outputs": [],
      "stateMutability": "nonpayable",
      "type": "function"
    },
    {
      "inputs": [
        {
          "components": [
            {
              "internalType": "bytes32[]",
              "name": "merkleProof",
              "type": "bytes32[]"
            },
            {
              "components": [
                {
                  "internalType": "bytes32",
                  "name": "attestationType",
                  "type": "bytes32"
                },
                {
                  "internalType": "bytes32",
                  "name": "sourceId",
                  "type": "bytes32"
                },
                {
                  "internalType": "uint64",
                  "name": "votingRound",
                  "type": "uint64"
                },
                {
                  "internalType": "uint64",
                  "name": "lowestUsedTimestamp",
                  "type": "uint64"
                },
                {
                  "components": [
                    {
                      "internalType": "uint64",
                      "name": "minimalBlockNumber",
                      "type": "uint64"
                    },
                    {
                      "internalType": "uint64",
                      "name": "deadlineBlockNumber",
                      "type": "uint64"
                    },
                    {
                      "internalType": "uint64",
                      "name": "deadlineTimestamp",
                      "type": "uint64"
                    },
                    {
                      "internalType": "bytes32",
                      "name": "destinationAddressHash",
                      "type": "bytes32"
                    },
                    {
                      "internalType": "uint256",
                      "name": "amount",
                      "type": "uint256"
                    },
                    {
                      "internalType": "bytes32",
                      "name": "standardPaymentReference",
                      "type": "bytes32"
                    },
                    {
                      "internalType": "bool",
                      "name": "checkSourceAddresses",
                      "type": "bool"
                    },
                    {
                      "internalType": "bytes32",
                      "name": "sourceAddressesRoot",
                      "type": "bytes32"
                    }
                  ],
                  "internalType": "struct IReferencedPaymentNonexistence.RequestBody",
                  "name": "requestBody",
                  "type": "tuple"
                },
                {
                  "components": [
                    {
                      "internalType": "uint64",
                      "name": "minimalBlockTimestamp",
                      "type": "uint64"
                    },
                    {
                      "internalType": "uint64",
                      "name": "firstOverflowBlockNumber",
                      "type": "uint64"
                    },
                    {
                      "internalType": "uint64",
                      "name": "firstOverflowBlockTimestamp",
                      "type": "uint64"
                    }
                  ],
                  "internalType": "struct IReferencedPaymentNonexistence.ResponseBody",
                  "name": "responseBody",
                  "type": "tuple"
                }
              ],
              "internalType": "struct IReferencedPaymentNonexistence.Response",
              "name": "data",
              "type": "tuple"
            }
          ],
          "internalType": "struct IReferencedPaymentNonexistence.Proof",
          "name": "_proof",
          "type": "tuple"
        },
        {
          "internalType": "uint256",
          "name": "_redemptionRequestId",
          "type": "uint256"
        }
      ],
      "name": "redemptionPaymentDefault",
      "outputs": [],
      "stateMutability": "nonpayable",
      "type": "function"
    }
  ],
  "bytecode": "0x6080604052348015600f57600080fd5b506131948061001f6000396000f3fe608060405234801561001057600080fd5b50600436106100365760003560e01c806337fbae911461003b5780637b3477c314610050575b600080fd5b61004e610049366004612972565b610063565b005b61004e61005e3660046129bc565b61032d565b61006b6104e6565b61007d61018083016101608401612a16565b1561009b576040516313fff32760e21b815260040160405180910390fd5b60006100a8826001610530565b60048101549091506000906100c5906001600160a01b03166105eb565b905060016004830154600160a01b900460ff1660068111156100e9576100e9612a33565b1461010757604051638336ad7d60e01b815260040160405180910390fd5b6101108461067f565b6101198361078f565b61014085013514801561013157508154610100850135145b801561016a57506001820154610159906001600160801b03600160801b820481169116612a5f565b6001600160801b0316610120850135145b610187576040516339b26dc760e11b815260040160405180910390fd5b6002820154600160401b90046001600160401b03166101ae6101e086016101c08701612a95565b6001600160401b03161180156101f157506002820154600160801b90046001600160401b03166101e661020086016101e08701612a95565b6001600160401b0316115b61020e576040516313b697a560e11b815260040160405180910390fd5b60028201546001600160401b031661022c60c0860160a08701612a95565b6001600160401b0316111561025457604051630135d0d760e31b815260040160405180910390fd5b60038201546000906001600160a01b031633148061027e575060058301546001600160a01b031633145b8061028e575061028e82336107b9565b905080806102a057506102a0836107fc565b6102bd5760405163d7d8f13b60e01b815260040160405180910390fd5b6102c882848661085f565b806102d7576102d78233610a36565b6102e083610a93565b6004830180546002919060ff60a01b1916600160a01b835b021790555050505061032960017f0cd2207518cd3e5213e2c6dbe63d55b60aa893c194a427b7d7f1600408fd5bde55565b5050565b6103356104e6565b60008051602061311f8339815191526000610351836001610530565b600481015490915060009061036e906001600160a01b03166105eb565b905061037981610b6c565b60016004830154600160a01b900460ff16600681111561039b5761039b612a33565b036104ba576103a985610b96565b6002820154600160401b90046001600160401b03166103d061014087016101208801612a95565b6001600160401b031611801561041357506002820154600160801b90046001600160401b031661040861016087016101408801612a95565b6001600160401b0316115b801561046d575061042b610100860160e08701612a95565b60118401546001600160401b0391821691600160401b9091041661045761016088016101408901612a95565b6104619190612ab0565b6001600160401b031611155b61048a576040516380064c2d60e01b815260040160405180910390fd5b61049581838661085f565b61049e82610ca1565b6004820180546002919060ff60a01b1916600160a01b836102f8565b50505061032960017f0cd2207518cd3e5213e2c6dbe63d55b60aa893c194a427b7d7f1600408fd5bde55565b7f0cd2207518cd3e5213e2c6dbe63d55b60aa893c194a427b7d7f1600408fd5bde80546001190161052a57604051633ee5aeb560e01b815260040160405180910390fd5b60029055565b600060008051602061313f833981519152838203610561576040516302e8145360e61b815260040160405180910390fd5b6000848152600a820160205260409020915082156105a45761058282610d16565b61059f576040516302e8145360e61b815260040160405180910390fd5b6105e4565b60006004830154600160a01b900460ff1660068111156105c6576105c6612a33565b036105e4576040516302e8145360e61b815260040160405180910390fd5b5092915050565b604081901b68010000000000000000600160e01b03167f5bebac0595fee029d42bb673937f5f1cb81cf8641382bc17774635de9b7d79651860048101546000919060ff168281600581111561064257610642612a33565b141580156106625750600581600581111561065f5761065f612a33565b14155b6105e45760405163d68a46c560e01b815260040160405180910390fd5b7f4f24f5c433db0962dac0d2c8b84197a6e6c7cc4e5d9ebe1916a1b6193da2f342547f4f24f5c433db0962dac0d2c8b84197a6e6c7cc4e5d9ebe1916a1b6193da2f3455460008051602061311f833981519152916001600160a01b0316906040840135146107005760405163057f3fa760e51b815260040160405180910390fd5b60405163d577275160e01b81526001600160a01b0382169063d57727519061072c908690600401612b9c565b602060405180830381865afa158015610749573d6000803e3d6000fd5b505050506040513d601f19601f8201168201806040525081019061076d9190612cc8565b61078a576040516380d7253360e01b815260040160405180910390fd5b505050565b60006001600160401b038211156107a8576107a8612ce5565b5067232128293320800160c11b1790565b60018201546000906001600160a01b03838116911614806107f357506107de83610d5f565b6001600160a01b0316826001600160a01b0316145b90505b92915050565b600881015460009060008051602061311f8339815191529060ff1680156108585750600e810154600384015461084c916001600160401b03600160901b909104811691600160a01b900416612ab0565b6001600160401b031642115b9392505050565b60016004830154600160a01b900460ff16600681111561088157610881612a33565b1461088e5761088e612ce5565b600882015460ff166109b7576000806108a78585610e01565b600386015491935091506000906108c99087906001600160a01b031685610f76565b509050806108e4576108dd86868585611093565b9150600092505b81156109075760038501546109059087906001600160a01b03168480611229565b505b61093a868660020160189054906101000a90046001600160401b03168760040160159054906101000a900460ff16611334565b600385015484906001600160a01b0316610953886113ce565b6001880154604080516001600160801b0390921682526020820188905281018690526001600160a01b0391909116907f1de98aa7f7442c6299d2d4f8dbfb9455830c5ea4e71f9e152a95fc2ce94fe5cc9060600160405180910390a4505050505050565b600382015481906001600160a01b03166109d0856113ce565b6001850154604080516001600160801b03909216825260006020830181905282820152516001600160a01b0392909216917f1de98aa7f7442c6299d2d4f8dbfb9455830c5ea4e71f9e152a95fc2ce94fe5cc9181900360600190a461078a8383836113f6565b7f4f24f5c433db0962dac0d2c8b84197a6e6c7cc4e5d9ebe1916a1b6193da2f3495460008051602061311f83398151915290600090610a7f9085906001600160801b0316611470565b9050610a8c848483611484565b5050505050565b6005810154600090610aba90633b9aca0090600160a01b90046001600160401b0316612cfb565b905080156103295760058201805467ffffffffffffffff60a01b1981169091556001600160a01b03163303610b0857610329610af461154d565b60058401546001600160a01b0316836115ba565b7f4f24f5c433db0962dac0d2c8b84197a6e6c7cc4e5d9ebe1916a1b6193da2f343546001600160a01b03165b6001600160a01b03166108fc829081150290604051600060405180830381858888f1935050505015801561078a573d6000803e3d6000fd5b610b7681336107b9565b610b935760405163f6e2f99b60e01b815260040160405180910390fd5b50565b7f4f24f5c433db0962dac0d2c8b84197a6e6c7cc4e5d9ebe1916a1b6193da2f342547f4f24f5c433db0962dac0d2c8b84197a6e6c7cc4e5d9ebe1916a1b6193da2f3455460008051602061311f833981519152916001600160a01b031690604084013514610c175760405163057f3fa760e51b815260040160405180910390fd5b604051635e30ebfb60e01b81526001600160a01b03821690635e30ebfb90610c43908690600401612d12565b602060405180830381865afa158015610c60573d6000803e3d6000fd5b505050506040513d601f19601f82011682018060405250810190610c849190612cc8565b61078a57604051633bc6e97360e01b815260040160405180910390fd5b6005810154600090610cc890633b9aca0090600160a01b90046001600160401b0316612cfb565b905080156103295760058201805467ffffffffffffffff60a01b191690557f4f24f5c433db0962dac0d2c8b84197a6e6c7cc4e5d9ebe1916a1b6193da2f343546001600160a01b0316610b34565b6004810154600090600160a01b900460ff166001816006811115610d3c57610d3c612a33565b148061085857506002816006811115610d5757610d57612a33565b149392505050565b6000610d927f4f24f5c433db0962dac0d2c8b84197a6e6c7cc4e5d9ebe1916a1b6193da2f341546001600160a01b031690565b6001830154604051631f86345d60e31b81526001600160a01b03918216600482015291169063fc31a2e890602401602060405180830381865afa158015610ddd573d6000803e3d6000fd5b505050506040513d601f19601f820116820180604052508101906107f69190612e4d565b60008060008051602061311f83398151915281610e1d86611622565b6002860154909150600090610e459083908990600160c01b90046001600160401b0316611702565b6004870154909150600160a81b900460ff1615610e975760028601546040830151610e8091600160c01b90046001600160401b0316906117c9565b945060009350610e9085826117e3565b9450610f6c565b600e83015460028701546040840151610ed992600160501b900463ffffffff1691610ed391600160c01b9091046001600160401b0316906117c9565b906117f9565b94506000935080851115610f6c576000610ef288611808565b6002880154909150600090610f1a9083908b90600160c01b90046001600160401b0316611702565b90506000610f47610f2b858a612e6a565b60028b0154600160c01b90046001600160401b0316908a611893565b9050839750610f5a8184604001516117c9565b9650610f6687836117e3565b96505050505b5050509250929050565b6000806000610f84866118d0565b90506000610f91876113ce565b82546040516370a0823160e01b81526001600160a01b03808416600483015292935061100b92889216906370a08231906024015b602060405180830381865afa158015610fe2573d6000803e3d6000fd5b505050506040513d601f19601f820116820180604052508101906110069190612e7d565b6117e3565b825460405163083e007560e21b81526001600160a01b0391821660048201528882166024820152604481018390529194508216906320f801d490606401600060405180830381600087803b15801561106257600080fd5b505af1925050508015611073575060015b611084576000935060009250611089565b600193505b5050935093915050565b60008061109f8661191d565b905060006110c8826040015160400151836000015160400151876119be9092919063ffffffff16565b9050600061116960008051602061311f833981519152600c0154604085810151015164010000000090910463ffffffff1690610ed39061110a6009600a612f7d565b60028c015460058e01546001600160401b03600160c01b909204821691600160801b820481169161114591600160401b820481169116612ab0565b61114f9190612ab0565b6111599190612f89565b6001600160401b031691906119be565b60408401516020015190915061117f8383612fa8565b111561119e5760405163b179f0db60e01b815260040160405180910390fd5b60006111c5846020015160400151856000015160400151896119be9092919063ffffffff16565b905060006111d38288612fa8565b60028a015460208701519192506111fc91908c90600160c01b90046001600160401b0316611702565b81111561121c57604051633f6b20df60e21b815260040160405180910390fd5b9998505050505050505050565b6000808560000160009054906101000a90046001600160a01b03166001600160a01b0316634ac8eb5f6040518163ffffffff1660e01b8152600401602060405180830381865afa158015611281573d6000803e3d6000fd5b505050506040513d601f19601f820116820180604052508101906112a59190612e7d565b90506112b184826117e3565b91506112bd83836117e3565b865460405163adf58c1560e01b81526001600160a01b038881166004830152602482018690526044820184905292955091169063adf58c1590606401600060405180830381600087803b15801561131357600080fd5b505af1158015611327573d6000803e3d6000fd5b5050505050949350505050565b6005830154611354908390600160801b90046001600160401b0316612f89565b8360050160106101000a8154816001600160401b0302191690836001600160401b031602179055508061078a5760058301546113a1908390600160c01b90046001600160401b0316612f89565b8360050160186101000a8154816001600160401b0302191690836001600160401b03160217905550505050565b7f5bebac0595fee029d42bb673937f5f1cb81cf8641382bc17774635de9b7d79651860401c90565b6113fe611ac2565b6114088183611b0b565b6114128383611b6c565b8061141c846113ce565b60018401546040516001600160801b0390911681526001600160a01b0391909116907f5f2a331e2db53740999cc1c370fa531b2e3b7fac4bf1156e8fe7c2578ad299e49060200160405180910390a3505050565b60006107f38261147f856118d0565b611bbf565b600080611490856118d0565b9050600061149d866113ce565b82546040516370a0823160e01b81526001600160a01b0380841660048301529293506114d592879216906370a0823190602401610fc5565b825460405163083e007560e21b81526001600160a01b0391821660048201528782166024820152604481018390529194508216906320f801d490606401600060405180830381600087803b15801561152c57600080fd5b505af1158015611540573d6000803e3d6000fd5b5050505050509392505050565b7fec7e8c1c441439dd40959777f4c577ea0cd42fcc1dbe59d2bd0f5d9c55df8dc55460008051602061313f8339815191528054600092829161ffff90911690811061159a5761159a612fbb565b60009182526020909120600490910201546001600160a01b031692915050565b801561078a5760405163b760faf960e01b81526001600160a01b03838116600483015284169063b760faf99083906024016000604051808303818588803b15801561160457600080fd5b505af1158015611618573d6000803e3d6000fd5b5050505050505050565b6116476040805160608101909152806000815260200160008152602001600081525090565b6000611652836118d0565b60408051606081019091526000815281549192509060208201906001600160a01b03166370a08231611683876113ce565b6040516001600160e01b031960e084901b1681526001600160a01b039091166004820152602401602060405180830381865afa1580156116c7573d6000803e3d6000fd5b505050506040513d601f19601f820116820180604052508101906116eb9190612e7d565b81526020016116f983611cbf565b90529392505050565b60008160000361171457506000610858565b600060018551600281111561172b5761172b612a33565b1461174a576005840154600160801b90046001600160401b0316611760565b6005840154600160c01b90046001600160401b03165b6001600160401b031690508083111561177b5761177b612ce5565b600584015460009082906117a2906001600160401b0380821691600160401b900416612fa8565b6117ac9190612fa8565b60208701519091506117bf9085836119be565b9695505050505050565b60006107f3826117db6009600a612f7d565b8591906119be565b60008183106117f257816107f3565b5090919050565b60006107f383836127106119be565b61182d6040805160608101909152806000815260200160008152602001600081525090565b600061183883611cd5565b604080516060810182526001815285548251634ac8eb5f60e01b8152925193945090926020808501936001600160a01b0390931692634ac8eb5f92600480830193928290030181865afa1580156116c7573d6000803e3d6000fd5b6000806118a18585856119be565b9050600083806118b3576118b3612fd1565b858709905080156118c757816001016117bf565b50949350505050565b60008060008051602061313f83398151915260048401548154919250829161010090910461ffff1690811061190757611907612fbb565b9060005260206000209060040201915050919050565b6119886040805160c081019091526000606082018181526080830182905260a083019190915281908152604080516060810182526000808252602082810182905292820152910190815260408051606081018252600080825260208281018290529282015291015290565b600061199383611808565b905060405180606001604052806119a985611622565b81526020018281526020016116f98584611d0e565b60008082116119e0576040516323d359a360e01b815260040160405180910390fd5b836000036119f057506000610858565b83830283858281611a0357611a03612fd1565b0403611a2157828181611a1857611a18612fd1565b04915050610858565b506000611a2e8386612fe7565b90506000611a3c8487612ffb565b90506000611a4a8587612fe7565b90506000611a588688612ffb565b905085611a658285612cfb565b611a6f9190612fe7565b611a798385612cfb565b611a838387612cfb565b88611a8e8689612cfb565b611a989190612cfb565b611aa29190612fa8565b611aac9190612fa8565b611ab69190612fa8565b98975050505050505050565b7f908500188c8f91f50d58dffac83eda18fc06d9da0208fc6b66c78a4c3fec74f280546001600160a01b0316610b93576040516356f9eaeb60e11b815260040160405180910390fd5b600881015460ff1615610329576004810154600090611b32906001600160a01b03166105eb565b600c81015490915064010000000090046001600160401b031683900361078a57600c0180546bffffffffffffffff00000000191690555050565b611b9f828260020160189054906101000a90046001600160401b03168360040160159054906101000a900460ff16611334565b6002810154610329908390600160c01b90046001600160401b0316611edd565b6000816002018054611bd09061300f565b9050600003611be05750816107f6565b600080611c7a846002018054611bf59061300f565b80601f0160208091040260200160405190810160405280929190818152602001828054611c219061300f565b8015611c6e5780601f10611c4357610100808354040283529160200191611c6e565b820191906000526020600020905b815481529060010190602001808311611c5157829003601f168201915b50505050506000611fb6565b8654929450925060009160059150611c9d908490600160a81b900460ff16612fa8565b611ca79190612e6a565b90506117bf611cb782600a612f7d565b8790856119be565b6000611ccc8260006120ab565b50909392505050565b60008060008051602061313f833981519152600484015481549192508291630100000090910461ffff1690811061190757611907612fbb565b611d336040805160608101909152806000815260200160008152602001600081525090565b8254604080516332f7ce0b60e21b815290516000926001600160a01b03169163cbdf382c9160048083019260209291908290030181865afa158015611d7c573d6000803e3d6000fd5b505050506040513d601f19601f82011682018060405250810190611da09190612e4d565b90506000816001600160a01b03166370a08231611dbc876113ce565b6040516001600160e01b031960e084901b1681526001600160a01b039091166004820152602401602060405180830381865afa158015611e00573d6000803e3d6000fd5b505050506040513d601f19601f82011682018060405250810190611e249190612e7d565b90506000826001600160a01b03166318160ddd6040518163ffffffff1660e01b8152600401602060405180830381865afa158015611e66573d6000803e3d6000fd5b505050506040513d601f19601f82011682018060405250810190611e8a9190612e7d565b905060008560200151600003611ea4578560400151611eb9565b60208601516040870151611eb99184906119be565b60408051606081018252600281526020810195909552840152509095945050505050565b808260050160088282829054906101000a90046001600160401b0316611f039190612ab0565b92506101000a8154816001600160401b0302191690836001600160401b031602179055506000611f3e60008051602061311f83398151915290565b6006840154909150600090611f5d9084906001600160401b0316612ab0565b600d830154909150600090611f7b906001600160401b031683613049565b90506000611f898284612f89565b90506001600160401b03811615611fa457611fa48682612263565b611fae8683612406565b505050505050565b7f4f24f5c433db0962dac0d2c8b84197a6e6c7cc4e5d9ebe1916a1b6193da2f344546000908190819060008051602061311f833981519152906001600160a01b031685156120785760405163e4a0a55b60e01b81526001600160a01b0382169063e4a0a55b9061202a908a90600401613077565b606060405180830381865afa158015612047573d6000803e3d6000fd5b505050506040513d601f19601f8201168201806040525081019061206b91906130c5565b94509450945050506120a4565b60405163524f388960e01b81526001600160a01b0382169063524f38899061202a908a90600401613077565b9250925092565b60008060008060008061214a8860010180546120c69061300f565b80601f01602080910402602001604051908101604052809291908181526020018280546120f29061300f565b801561213f5780601f106121145761010080835404028352916020019161213f565b820191906000526020600020905b81548152906001019060200180831161212257829003601f168201915b505050505088611fb6565b8a549295509093509150600160f01b900460ff161561219157875460009061218090600160a81b900460ff16600183878661249c565b96509194508493506120a492505050565b600080600061222c8b60020180546121a89061300f565b80601f01602080910402602001604051908101604052809291908181526020018280546121d49061300f565b80156122215780601f106121f657610100808354040283529160200191612221565b820191906000526020600020905b81548152906001019060200180831161220457829003601f168201915b50505050508b611fb6565b8d54929550909350915060009061225090600160a81b900460ff1685848a8961249c565b99509497509095506120a4945050505050565b60008051602061313f8339815191526001600160401b03821660000361228857505050565b6000612293846113ce565b6009830154600160401b90046001600160401b031660008181526007850160205260409020805492935090916001600160a01b03808516911603612390578054859082906014906122f5908490600160a01b90046001600160401b0316612ab0565b92506101000a8154816001600160401b0302191690836001600160401b03160217905550600061233b8260000160149054906101000a90046001600160401b0316612516565b9050826001600160401b0316846001600160a01b03167f9d2e72c50be7927e999d37329649af37a863df77bcb25361699ce021d3d7475d8360405161238291815260200190565b60405180910390a350611fae565b60006123a0600786018588612569565b905060006123ad87612516565b9050816001600160401b0316856001600160a01b03167f631f8f2039090539b2ea4ef7dc567f7f1939ef4dd3e790b1ca7bc548a1fada58836040516123f491815260200190565b60405180910390a35050505050505050565b60068201546001600160401b03808316911603612421575050565b60068201805467ffffffffffffffff19166001600160401b038316179055600061244a82612516565b9050612455836113ce565b6001600160a01b03167fa3db2bc927901a1d3ba09ad51d84609457b98443be9132a0a936a47c5a1081b58260405161248f91815260200190565b60405180910390a2505050565b600060008051602061311f8339815191528160096124ba878a612fa8565b6124c49190612fa8565b600a8301549091506000906124e4908690600160a81b900460ff16612fa8565b9050808210156124f6576124f6612ce5565b61121c6125038284612e6a565b61250e90600a612f7d565b87908a6119be565b7f4f24f5c433db0962dac0d2c8b84197a6e6c7cc4e5d9ebe1916a1b6193da2f3465460009060008051602061311f8339815191529061085890600160901b90046001600160401b03908116908516612cfb565b6001600160a01b038216600090815260018401602052604081206002850180548391906010906125a890600160801b90046001600160401b03166130f3565b91906101000a8154816001600160401b0302191690836001600160401b03160217905590506040518060c00160405280866001600160a01b03168152602001856001600160401b031681526020018760020160089054906101000a90046001600160401b03166001600160401b0316815260200160006001600160401b031681526020018360000160089054906101000a90046001600160401b03166001600160401b0316815260200160006001600160401b0316815250866000016000836001600160401b03166001600160401b0316815260200190815260200160002060008201518160000160006101000a8154816001600160a01b0302191690836001600160a01b0316021790555060208201518160000160146101000a8154816001600160401b0302191690836001600160401b0316021790555060408201518160010160006101000a8154816001600160401b0302191690836001600160401b0316021790555060608201518160010160086101000a8154816001600160401b0302191690836001600160401b0316021790555060808201518160010160106101000a8154816001600160401b0302191690836001600160401b0316021790555060a08201518160010160186101000a8154816001600160401b0302191690836001600160401b031602179055509050508560020160009054906101000a90046001600160401b03166001600160401b0316600003612805576002860154600160401b90046001600160401b0316156127e2576127e2612ce5565b60028601805467ffffffffffffffff19166001600160401b03831617905561286d565b6002860154600160401b90046001600160401b031660000361282957612829612ce5565b6002860154600160401b908190046001600160401b039081166000908152602089905260409020600101805467ffffffffffffffff60401b19169184169092021790555b6002860180546001600160401b03808416600160401b0267ffffffffffffffff60401b19909216919091179091558254166000036128e3578154600160401b90046001600160401b0316156128c4576128c4612ce5565b815467ffffffffffffffff19166001600160401b038216178255612946565b8154600160401b90046001600160401b031660000361290457612904612ce5565b81546001600160401b03600160401b909104811660009081526020889052604090206001018054918316600160c01b026001600160c01b039092169190911790555b815467ffffffffffffffff60401b1916600160401b6001600160401b0383160217909155949350505050565b6000806040838503121561298557600080fd5b82356001600160401b0381111561299b57600080fd5b830161020081860312156129ae57600080fd5b946020939093013593505050565b600080604083850312156129cf57600080fd5b82356001600160401b038111156129e557600080fd5b830161016081860312156129ae57600080fd5b8015158114610b9357600080fd5b8035612a11816129f8565b919050565b600060208284031215612a2857600080fd5b8135610858816129f8565b634e487b7160e01b600052602160045260246000fd5b634e487b7160e01b600052601160045260246000fd5b6001600160801b0382811682821603908111156107f6576107f6612a49565b80356001600160401b0381168114612a1157600080fd5b600060208284031215612aa757600080fd5b6107f382612a7e565b6001600160401b0381811683821601908111156107f6576107f6612a49565b6000808335601e19843603018112612ae657600080fd5b83016020810192503590506001600160401b03811115612b0557600080fd5b8060051b3603821315612b1757600080fd5b9250929050565b81835260006001600160fb1b03831115612b3757600080fd5b8260051b80836020870137939093016020019392505050565b6001600160401b03612b6182612a7e565b1682526001600160401b03612b7860208301612a7e565b1660208301526001600160401b03612b9260408301612a7e565b1660408301525050565b602081526000612bac8384612acf565b6102006020850152612bc361022085018284612b1e565b60208601356040868101919091528601356060808701919091529092506001600160401b039150612bf5908601612a7e565b1660808401526001600160401b03612c0f60808601612a7e565b1660a08401526001600160401b03612c2960a08601612a7e565b1660c08401526001600160401b03612c4360c08601612a7e565b1660e08401526001600160401b03612c5d60e08601612a7e565b1661010084810191909152840135610120808501919091528401356101408085019190915284013561016080850191909152612c9a908501612a06565b8015156101808501525060006101808501359050806101a0850152506108586101c084016101a08601612b50565b600060208284031215612cda57600080fd5b8151610858816129f8565b634e487b7160e01b600052600160045260246000fd5b80820281158282048414176107f6576107f6612a49565b602081526000612d228384612acf565b6101606020850152612d3961018085018284612b1e565b60208601356040868101919091528601356060808701919091529092506001600160401b039150612d6b908601612a7e565b1660808401526001600160401b03612d8560808601612a7e565b1660a08401526001600160401b03612d9f60a08601612a7e565b1660c08401526001600160401b03612db960c08601612a7e565b1660e08401526001600160401b03612dd360e08601612a7e565b166101008401526001600160401b03612def6101008601612a7e565b166101208401526001600160401b03612e0b6101208601612a7e565b166101408401526001600160401b03612e276101408601612a7e565b166101608401528091505092915050565b6001600160a01b0381168114610b9357600080fd5b600060208284031215612e5f57600080fd5b815161085881612e38565b818103818111156107f6576107f6612a49565b600060208284031215612e8f57600080fd5b5051919050565b6001815b6001841115612ed157808504811115612eb557612eb5612a49565b6001841615612ec357908102905b60019390931c928002612e9a565b935093915050565b600082612ee8575060016107f6565b81612ef5575060006107f6565b8160018114612f0b5760028114612f1557612f31565b60019150506107f6565b60ff841115612f2657612f26612a49565b50506001821b6107f6565b5060208310610133831016604e8410600b8410161715612f54575081810a6107f6565b612f616000198484612e96565b8060001904821115612f7557612f75612a49565b029392505050565b60006107f38383612ed9565b6001600160401b0382811682821603908111156107f6576107f6612a49565b808201808211156107f6576107f6612a49565b634e487b7160e01b600052603260045260246000fd5b634e487b7160e01b600052601260045260246000fd5b600082612ff657612ff6612fd1565b500490565b60008261300a5761300a612fd1565b500690565b600181811c9082168061302357607f821691505b60208210810361304357634e487b7160e01b600052602260045260246000fd5b50919050565b60006001600160401b0383168061306257613062612fd1565b806001600160401b0384160691505092915050565b602081526000825180602084015260005b818110156130a55760208186018101516040868401015201613088565b506000604082850101526040601f19601f83011684010191505092915050565b6000806000606084860312156130da57600080fd5b5050815160208301516040909301519094929350919050565b60006001600160401b0382166001600160401b03810361311557613115612a49565b6001019291505056fe4f24f5c433db0962dac0d2c8b84197a6e6c7cc4e5d9ebe1916a1b6193da2f33aec7e8c1c441439dd40959777f4c577ea0cd42fcc1dbe59d2bd0f5d9c55df8db6a2646970667358221220d040cd331b45c0dcc42bed149af29b68ba08cf1945d226c750046a4755f0dbec64736f6c634300081b0033",
  "linkReferences": {},
  "deployedLinkReferences": {}
}