{
  "_format": "hh-sol-artifact-1",
  "contractName": "RedemptionDefaultsFacet",
  "sourceName": "contracts/assetManager/facets/RedemptionDefaultsFacet.sol",
  "abi": [
    {
      "inputs": [],
      "name": "BlockHeightNotProven",
      "type": "error"
    },
    {
      "inputs": [],
      "name": "CoreVaultNotEnabled",
      "type": "error"
    },
    {
      "inputs": [],
      "name": "DivisionByZero",
      "type": "error"
    },
    {
      "inputs": [],
      "name": "EmergencyPauseActive",
      "type": "error"
    },
    {
      "inputs": [],
      "name": "InvalidAgentVaultAddress",
      "type": "error"
    },
    {
      "inputs": [],
      "name": "InvalidChain",
      "type": "error"
    },
    {
      "inputs": [],
      "name": "InvalidRedemptionStatus",
      "type": "error"
    },
    {
      "inputs": [],
      "name": "InvalidRequestId",
      "type": "error"
    },
    {
      "inputs": [],
      "name": "NonPaymentNotProven",
      "type": "error"
    },
    {
      "inputs": [],
      "name": "NotAttached",
      "type": "error"
    },
    {
      "inputs": [],
      "name": "NotEnoughAgentPoolTokensToCoverFailedVaultPayment",
      "type": "error"
    },
    {
      "inputs": [],
      "name": "NotEnoughPoolCollateralToCoverFailedVaultPayment",
      "type": "error"
    },
    {
      "inputs": [],
      "name": "NotWhitelisted",
      "type": "error"
    },
    {
      "inputs": [],
      "name": "OnlyAgentVaultOwner",
      "type": "error"
    },
    {
      "inputs": [],
      "name": "OnlyAssetManagerController",
      "type": "error"
    },
    {
      "inputs": [],
      "name": "OnlyRedeemerExecutorOrAgent",
      "type": "error"
    },
    {
      "inputs": [],
      "name": "RedemptionDefaultTooEarly",
      "type": "error"
    },
    {
      "inputs": [],
      "name": "RedemptionNonPaymentMismatch",
      "type": "error"
    },
    {
      "inputs": [],
      "name": "RedemptionNonPaymentProofWindowTooShort",
      "type": "error"
    },
    {
      "inputs": [],
      "name": "ReentrancyGuardReentrantCall",
      "type": "error"
    },
    {
      "inputs": [],
      "name": "ShouldDefaultFirst",
      "type": "error"
    },
    {
      "inputs": [],
      "name": "SourceAddressesNotSupported",
      "type": "error"
    },
    {
      "anonymous": false,
      "inputs": [
        {
          "indexed": true,
          "internalType": "address",
          "name": "agentVault",
          "type": "address"
        },
        {
          "indexed": false,
          "internalType": "uint256",
          "name": "dustUBA",
          "type": "uint256"
        }
      ],
      "name": "DustChanged",
      "type": "event"
    },
    {
      "anonymous": false,
      "inputs": [
        {
          "indexed": true,
          "internalType": "address",
          "name": "agentVault",
          "type": "address"
        },
        {
          "indexed": true,
          "internalType": "address",
          "name": "redeemer",
          "type": "address"
        },
        {
          "indexed": true,
          "internalType": "uint256",
          "name": "requestId",
          "type": "uint256"
        },
        {
          "indexed": false,
          "internalType": "uint256",
          "name": "redemptionAmountUBA",
          "type": "uint256"
        },
        {
          "indexed": false,
          "internalType": "uint256",
          "name": "redeemedVaultCollateralWei",
          "type": "uint256"
        },
        {
          "indexed": false,
          "internalType": "uint256",
          "name": "redeemedPoolCollateralWei",
          "type": "uint256"
        }
      ],
      "name": "RedemptionDefault",
      "type": "event"
    },
    {
      "anonymous": false,
      "inputs": [
        {
          "indexed": true,
          "internalType": "address",
          "name": "agentVault",
          "type": "address"
        },
        {
          "indexed": true,
          "internalType": "uint256",
          "name": "redemptionTicketId",
          "type": "uint256"
        },
        {
          "indexed": false,
          "internalType": "uint256",
          "name": "ticketValueUBA",
          "type": "uint256"
        }
      ],
      "name": "RedemptionTicketCreated",
      "type": "event"
    },
    {
      "anonymous": false,
      "inputs": [
        {
          "indexed": true,
          "internalType": "address",
          "name": "agentVault",
          "type": "address"
        },
        {
          "indexed": true,
          "internalType": "uint256",
          "name": "redemptionTicketId",
          "type": "uint256"
        },
        {
          "indexed": false,
          "internalType": "uint256",
          "name": "ticketValueUBA",
          "type": "uint256"
        }
      ],
      "name": "RedemptionTicketUpdated",
      "type": "event"
    },
    {
      "anonymous": false,
      "inputs": [
        {
          "indexed": true,
          "internalType": "address",
          "name": "agentVault",
          "type": "address"
        },
        {
          "indexed": true,
          "internalType": "uint256",
          "name": "transferRedemptionRequestId",
          "type": "uint256"
        },
        {
          "indexed": false,
          "internalType": "uint256",
          "name": "remintedUBA",
          "type": "uint256"
        }
      ],
      "name": "TransferToCoreVaultDefaulted",
      "type": "event"
    },
    {
      "inputs": [
        {
          "components": [
            {
              "internalType": "bytes32[]",
              "name": "merkleProof",
              "type": "bytes32[]"
            },
            {
              "components": [
                {
                  "internalType": "bytes32",
                  "name": "attestationType",
                  "type": "bytes32"
                },
                {
                  "internalType": "bytes32",
                  "name": "sourceId",
                  "type": "bytes32"
                },
                {
                  "internalType": "uint64",
                  "name": "votingRound",
                  "type": "uint64"
                },
                {
                  "internalType": "uint64",
                  "name": "lowestUsedTimestamp",
                  "type": "uint64"
                },
                {
                  "components": [
                    {
                      "internalType": "uint64",
                      "name": "blockNumber",
                      "type": "uint64"
                    },
                    {
                      "internalType": "uint64",
                      "name": "queryWindow",
                      "type": "uint64"
                    }
                  ],
                  "internalType": "struct IConfirmedBlockHeightExists.RequestBody",
                  "name": "requestBody",
                  "type": "tuple"
                },
                {
                  "components": [
                    {
                      "internalType": "uint64",
                      "name": "blockTimestamp",
                      "type": "uint64"
                    },
                    {
                      "internalType": "uint64",
                      "name": "numberOfConfirmations",
                      "type": "uint64"
                    },
                    {
                      "internalType": "uint64",
                      "name": "lowestQueryWindowBlockNumber",
                      "type": "uint64"
                    },
                    {
                      "internalType": "uint64",
                      "name": "lowestQueryWindowBlockTimestamp",
                      "type": "uint64"
                    }
                  ],
                  "internalType": "struct IConfirmedBlockHeightExists.ResponseBody",
                  "name": "responseBody",
                  "type": "tuple"
                }
              ],
              "internalType": "struct IConfirmedBlockHeightExists.Response",
              "name": "data",
              "type": "tuple"
            }
          ],
          "internalType": "struct IConfirmedBlockHeightExists.Proof",
          "name": "_proof",
          "type": "tuple"
        },
        {
          "internalType": "uint256",
          "name": "_redemptionRequestId",
          "type": "uint256"
        }
      ],
      "name": "finishRedemptionWithoutPayment",
      "outputs": [],
      "stateMutability": "nonpayable",
      "type": "function"
    },
    {
      "inputs": [
        {
          "components": [
            {
              "internalType": "bytes32[]",
              "name": "merkleProof",
              "type": "bytes32[]"
            },
            {
              "components": [
                {
                  "internalType": "bytes32",
                  "name": "attestationType",
                  "type": "bytes32"
                },
                {
                  "internalType": "bytes32",
                  "name": "sourceId",
                  "type": "bytes32"
                },
                {
                  "internalType": "uint64",
                  "name": "votingRound",
                  "type": "uint64"
                },
                {
                  "internalType": "uint64",
                  "name": "lowestUsedTimestamp",
                  "type": "uint64"
                },
                {
                  "components": [
                    {
                      "internalType": "uint64",
                      "name": "minimalBlockNumber",
                      "type": "uint64"
                    },
                    {
                      "internalType": "uint64",
                      "name": "deadlineBlockNumber",
                      "type": "uint64"
                    },
                    {
                      "internalType": "uint64",
                      "name": "deadlineTimestamp",
                      "type": "uint64"
                    },
                    {
                      "internalType": "bytes32",
                      "name": "destinationAddressHash",
                      "type": "bytes32"
                    },
                    {
                      "internalType": "uint256",
                      "name": "amount",
                      "type": "uint256"
                    },
                    {
                      "internalType": "bytes32",
                      "name": "standardPaymentReference",
                      "type": "bytes32"
                    },
                    {
                      "internalType": "bool",
                      "name": "checkSourceAddresses",
                      "type": "bool"
                    },
                    {
                      "internalType": "bytes32",
                      "name": "sourceAddressesRoot",
                      "type": "bytes32"
                    }
                  ],
                  "internalType": "struct IReferencedPaymentNonexistence.RequestBody",
                  "name": "requestBody",
                  "type": "tuple"
                },
                {
                  "components": [
                    {
                      "internalType": "uint64",
                      "name": "minimalBlockTimestamp",
                      "type": "uint64"
                    },
                    {
                      "internalType": "uint64",
                      "name": "firstOverflowBlockNumber",
                      "type": "uint64"
                    },
                    {
                      "internalType": "uint64",
                      "name": "firstOverflowBlockTimestamp",
                      "type": "uint64"
                    }
                  ],
                  "internalType": "struct IReferencedPaymentNonexistence.ResponseBody",
                  "name": "responseBody",
                  "type": "tuple"
                }
              ],
              "internalType": "struct IReferencedPaymentNonexistence.Response",
              "name": "data",
              "type": "tuple"
            }
          ],
          "internalType": "struct IReferencedPaymentNonexistence.Proof",
          "name": "_proof",
          "type": "tuple"
        },
        {
          "internalType": "uint256",
          "name": "_redemptionRequestId",
          "type": "uint256"
        }
      ],
      "name": "redemptionPaymentDefault",
      "outputs": [],
      "stateMutability": "nonpayable",
      "type": "function"
    }
  ],
  "bytecode": "0x6080604052348015600f57600080fd5b506131218061001f6000396000f3fe608060405234801561001057600080fd5b50600436106100365760003560e01c806337fbae911461003b5780637b3477c314610050575b600080fd5b61004e610049366004612905565b610063565b005b61004e61005e36600461294f565b61032b565b61006b6104e2565b61007d610180830161016084016129a9565b1561009b576040516313fff32760e21b815260040160405180910390fd5b60006100a68261052c565b60048101549091506000906100c3906001600160a01b03166105b3565b905060016004830154600160a01b900460ff1660028111156100e7576100e76129c6565b1461010557604051638336ad7d60e01b815260040160405180910390fd5b61010e8461064e565b6101178361075e565b61014085013514801561012f57508154610100850135145b801561016857506001820154610157906001600160801b03600160801b8204811691166129f2565b6001600160801b0316610120850135145b610185576040516339b26dc760e11b815260040160405180910390fd5b6002820154600160401b90046001600160401b03166101ac6101e086016101c08701612a28565b6001600160401b03161180156101ef57506002820154600160801b90046001600160401b03166101e461020086016101e08701612a28565b6001600160401b0316115b61020c576040516313b697a560e11b815260040160405180910390fd5b60028201546001600160401b031661022a60c0860160a08701612a28565b6001600160401b0316111561025257604051630135d0d760e31b815260040160405180910390fd5b60038201546000906001600160a01b031633148061027c575060058301546001600160a01b031633145b8061028c575061028c8233610788565b9050808061029e575061029e836107cb565b6102bb5760405163d7d8f13b60e01b815260040160405180910390fd5b6102c682848661082e565b806102d5576102d58233610a05565b6102de83610a62565b6004830180546002919060ff60a01b1916600160a01b835b021790555050505061032760017f0cd2207518cd3e5213e2c6dbe63d55b60aa893c194a427b7d7f1600408fd5bde55565b5050565b6103336104e2565b6000805160206130ac833981519152600061034d8361052c565b600481015490915060009061036a906001600160a01b03166105b3565b905061037581610b3b565b60016004830154600160a01b900460ff166002811115610397576103976129c6565b036104b6576103a585610b65565b6002820154600160401b90046001600160401b03166103cc61014087016101208801612a28565b6001600160401b031611801561040f57506002820154600160801b90046001600160401b031661040461016087016101408801612a28565b6001600160401b0316115b80156104695750610427610100860160e08701612a28565b60118401546001600160401b0391821691600160401b9091041661045361016088016101408901612a28565b61045d9190612a43565b6001600160401b031611155b610486576040516380064c2d60e01b815260040160405180910390fd5b61049181838661082e565b61049a82610c70565b6004820180546002919060ff60a01b1916600160a01b836102f6565b50505061032760017f0cd2207518cd3e5213e2c6dbe63d55b60aa893c194a427b7d7f1600408fd5bde55565b7f0cd2207518cd3e5213e2c6dbe63d55b60aa893c194a427b7d7f1600408fd5bde80546001190161052657604051633ee5aeb560e01b815260040160405180910390fd5b60029055565b60006000805160206130cc83398151915282820361055d576040516302e8145360e61b815260040160405180910390fd5b6000838152600a82016020526040812092506004830154600160a01b900460ff16600281111561058f5761058f6129c6565b036105ad576040516302e8145360e61b815260040160405180910390fd5b50919050565b604081901b68010000000000000000600160e01b03167f5bebac0595fee029d42bb673937f5f1cb81cf8641382bc17774635de9b7d79651860048101546000919060ff168281600581111561060a5761060a6129c6565b1415801561062a57506005816005811115610627576106276129c6565b14155b6106475760405163d68a46c560e01b815260040160405180910390fd5b5092915050565b7f4f24f5c433db0962dac0d2c8b84197a6e6c7cc4e5d9ebe1916a1b6193da2f342547f4f24f5c433db0962dac0d2c8b84197a6e6c7cc4e5d9ebe1916a1b6193da2f345546000805160206130ac833981519152916001600160a01b0316906040840135146106cf5760405163057f3fa760e51b815260040160405180910390fd5b60405163d577275160e01b81526001600160a01b0382169063d5772751906106fb908690600401612b2f565b602060405180830381865afa158015610718573d6000803e3d6000fd5b505050506040513d601f19601f8201168201806040525081019061073c9190612c5b565b610759576040516380d7253360e01b815260040160405180910390fd5b505050565b60006001600160401b0382111561077757610777612c78565b5067232128293320800160c11b1790565b60018201546000906001600160a01b03838116911614806107c257506107ad83610ce5565b6001600160a01b0316826001600160a01b0316145b90505b92915050565b60088101546000906000805160206130ac8339815191529060ff1680156108275750600e810154600384015461081b916001600160401b03600160901b909104811691600160a01b900416612a43565b6001600160401b031642115b9392505050565b60016004830154600160a01b900460ff166002811115610850576108506129c6565b1461085d5761085d612c78565b600882015460ff16610986576000806108768585610d87565b600386015491935091506000906108989087906001600160a01b031685610efc565b509050806108b3576108ac86868585611019565b9150600092505b81156108d65760038501546108d49087906001600160a01b031684806111af565b505b610909868660020160189054906101000a90046001600160401b03168760040160159054906101000a900460ff166112ba565b600385015484906001600160a01b031661092288611354565b6001880154604080516001600160801b0390921682526020820188905281018690526001600160a01b0391909116907f1de98aa7f7442c6299d2d4f8dbfb9455830c5ea4e71f9e152a95fc2ce94fe5cc9060600160405180910390a4505050505050565b600382015481906001600160a01b031661099f85611354565b6001850154604080516001600160801b03909216825260006020830181905282820152516001600160a01b0392909216917f1de98aa7f7442c6299d2d4f8dbfb9455830c5ea4e71f9e152a95fc2ce94fe5cc9181900360600190a461075983838361137c565b7f4f24f5c433db0962dac0d2c8b84197a6e6c7cc4e5d9ebe1916a1b6193da2f349546000805160206130ac83398151915290600090610a4e9085906001600160801b03166113f5565b9050610a5b848483611409565b5050505050565b6005810154600090610a8990633b9aca0090600160a01b90046001600160401b0316612c8e565b905080156103275760058201805467ffffffffffffffff60a01b1981169091556001600160a01b03163303610ad757610327610ac36114d2565b60058401546001600160a01b03168361153f565b7f4f24f5c433db0962dac0d2c8b84197a6e6c7cc4e5d9ebe1916a1b6193da2f343546001600160a01b03165b6001600160a01b03166108fc829081150290604051600060405180830381858888f19350505050158015610759573d6000803e3d6000fd5b610b458133610788565b610b625760405163f6e2f99b60e01b815260040160405180910390fd5b50565b7f4f24f5c433db0962dac0d2c8b84197a6e6c7cc4e5d9ebe1916a1b6193da2f342547f4f24f5c433db0962dac0d2c8b84197a6e6c7cc4e5d9ebe1916a1b6193da2f345546000805160206130ac833981519152916001600160a01b031690604084013514610be65760405163057f3fa760e51b815260040160405180910390fd5b604051635e30ebfb60e01b81526001600160a01b03821690635e30ebfb90610c12908690600401612ca5565b602060405180830381865afa158015610c2f573d6000803e3d6000fd5b505050506040513d601f19601f82011682018060405250810190610c539190612c5b565b61075957604051633bc6e97360e01b815260040160405180910390fd5b6005810154600090610c9790633b9aca0090600160a01b90046001600160401b0316612c8e565b905080156103275760058201805467ffffffffffffffff60a01b191690557f4f24f5c433db0962dac0d2c8b84197a6e6c7cc4e5d9ebe1916a1b6193da2f343546001600160a01b0316610b03565b6000610d187f4f24f5c433db0962dac0d2c8b84197a6e6c7cc4e5d9ebe1916a1b6193da2f341546001600160a01b031690565b6001830154604051631f86345d60e31b81526001600160a01b03918216600482015291169063fc31a2e890602401602060405180830381865afa158015610d63573d6000803e3d6000fd5b505050506040513d601f19601f820116820180604052508101906107c59190612de0565b6000806000805160206130ac83398151915281610da3866115a7565b6002860154909150600090610dcb9083908990600160c01b90046001600160401b0316611687565b6004870154909150600160a81b900460ff1615610e1d5760028601546040830151610e0691600160c01b90046001600160401b03169061174e565b945060009350610e168582611768565b9450610ef2565b600e83015460028701546040840151610e5f92600160501b900463ffffffff1691610e5991600160c01b9091046001600160401b03169061174e565b9061177e565b94506000935080851115610ef2576000610e788861178d565b6002880154909150600090610ea09083908b90600160c01b90046001600160401b0316611687565b90506000610ecd610eb1858a612dfd565b60028b0154600160c01b90046001600160401b0316908a611818565b9050839750610ee081846040015161174e565b9650610eec8783611768565b96505050505b5050509250929050565b6000806000610f0a86611855565b90506000610f1787611354565b82546040516370a0823160e01b81526001600160a01b038084166004830152929350610f9192889216906370a08231906024015b602060405180830381865afa158015610f68573d6000803e3d6000fd5b505050506040513d601f19601f82011682018060405250810190610f8c9190612e10565b611768565b825460405163083e007560e21b81526001600160a01b0391821660048201528882166024820152604481018390529194508216906320f801d490606401600060405180830381600087803b158015610fe857600080fd5b505af1925050508015610ff9575060015b61100a57600093506000925061100f565b600193505b5050935093915050565b600080611025866118a2565b9050600061104e826040015160400151836000015160400151876119439092919063ffffffff16565b905060006110ef6000805160206130ac833981519152600c0154604085810151015164010000000090910463ffffffff1690610e59906110906009600a612f10565b60028c015460058e01546001600160401b03600160c01b909204821691600160801b82048116916110cb91600160401b820481169116612a43565b6110d59190612a43565b6110df9190612f1c565b6001600160401b03169190611943565b6040840151602001519091506111058383612f3b565b11156111245760405163b179f0db60e01b815260040160405180910390fd5b600061114b846020015160400151856000015160400151896119439092919063ffffffff16565b905060006111598288612f3b565b60028a0154602087015191925061118291908c90600160c01b90046001600160401b0316611687565b8111156111a257604051633f6b20df60e21b815260040160405180910390fd5b9998505050505050505050565b6000808560000160009054906101000a90046001600160a01b03166001600160a01b0316634ac8eb5f6040518163ffffffff1660e01b8152600401602060405180830381865afa158015611207573d6000803e3d6000fd5b505050506040513d601f19601f8201168201806040525081019061122b9190612e10565b90506112378482611768565b91506112438383611768565b865460405163adf58c1560e01b81526001600160a01b038881166004830152602482018690526044820184905292955091169063adf58c1590606401600060405180830381600087803b15801561129957600080fd5b505af11580156112ad573d6000803e3d6000fd5b5050505050949350505050565b60058301546112da908390600160801b90046001600160401b0316612f1c565b8360050160106101000a8154816001600160401b0302191690836001600160401b0316021790555080610759576005830154611327908390600160c01b90046001600160401b0316612f1c565b8360050160186101000a8154816001600160401b0302191690836001600160401b03160217905550505050565b7f5bebac0595fee029d42bb673937f5f1cb81cf8641382bc17774635de9b7d79651860401c90565b611384611a47565b61138d81611a90565b6113978383611aff565b806113a184611354565b60018401546040516001600160801b0390911681526001600160a01b0391909116907f5f2a331e2db53740999cc1c370fa531b2e3b7fac4bf1156e8fe7c2578ad299e49060200160405180910390a3505050565b60006107c28261140485611855565b611b52565b60008061141585611855565b9050600061142286611354565b82546040516370a0823160e01b81526001600160a01b03808416600483015292935061145a92879216906370a0823190602401610f4b565b825460405163083e007560e21b81526001600160a01b0391821660048201528782166024820152604481018390529194508216906320f801d490606401600060405180830381600087803b1580156114b157600080fd5b505af11580156114c5573d6000803e3d6000fd5b5050505050509392505050565b7fec7e8c1c441439dd40959777f4c577ea0cd42fcc1dbe59d2bd0f5d9c55df8dc5546000805160206130cc8339815191528054600092829161ffff90911690811061151f5761151f612f4e565b60009182526020909120600490910201546001600160a01b031692915050565b80156107595760405163b760faf960e01b81526001600160a01b03838116600483015284169063b760faf99083906024016000604051808303818588803b15801561158957600080fd5b505af115801561159d573d6000803e3d6000fd5b5050505050505050565b6115cc6040805160608101909152806000815260200160008152602001600081525090565b60006115d783611855565b60408051606081019091526000815281549192509060208201906001600160a01b03166370a0823161160887611354565b6040516001600160e01b031960e084901b1681526001600160a01b039091166004820152602401602060405180830381865afa15801561164c573d6000803e3d6000fd5b505050506040513d601f19601f820116820180604052508101906116709190612e10565b815260200161167e83611c52565b90529392505050565b60008160000361169957506000610827565b60006001855160028111156116b0576116b06129c6565b146116cf576005840154600160801b90046001600160401b03166116e5565b6005840154600160c01b90046001600160401b03165b6001600160401b031690508083111561170057611700612c78565b60058401546000908290611727906001600160401b0380821691600160401b900416612f3b565b6117319190612f3b565b6020870151909150611744908583611943565b9695505050505050565b60006107c2826117606009600a612f10565b859190611943565b600081831061177757816107c2565b5090919050565b60006107c28383612710611943565b6117b26040805160608101909152806000815260200160008152602001600081525090565b60006117bd83611c68565b604080516060810182526001815285548251634ac8eb5f60e01b8152925193945090926020808501936001600160a01b0390931692634ac8eb5f92600480830193928290030181865afa15801561164c573d6000803e3d6000fd5b600080611826858585611943565b90506000838061183857611838612f64565b8587099050801561184c5781600101611744565b50949350505050565b6000806000805160206130cc83398151915260048401548154919250829161010090910461ffff1690811061188c5761188c612f4e565b9060005260206000209060040201915050919050565b61190d6040805160c081019091526000606082018181526080830182905260a083019190915281908152604080516060810182526000808252602082810182905292820152910190815260408051606081018252600080825260208281018290529282015291015290565b60006119188361178d565b9050604051806060016040528061192e856115a7565b815260200182815260200161167e8584611ca1565b6000808211611965576040516323d359a360e01b815260040160405180910390fd5b8360000361197557506000610827565b8383028385828161198857611988612f64565b04036119a65782818161199d5761199d612f64565b04915050610827565b5060006119b38386612f7a565b905060006119c18487612f8e565b905060006119cf8587612f7a565b905060006119dd8688612f8e565b9050856119ea8285612c8e565b6119f49190612f7a565b6119fe8385612c8e565b611a088387612c8e565b88611a138689612c8e565b611a1d9190612c8e565b611a279190612f3b565b611a319190612f3b565b611a3b9190612f3b565b98975050505050505050565b7f5176d9aff61164d28f93ea46eb1dc40e6c1f84dd050716ad33cf1851e70a4aa180546001600160a01b0316610b62576040516356f9eaeb60e11b815260040160405180910390fd5b6000611a9b8261052c565b600881015490915060ff1615610327576004810154600090611ac5906001600160a01b03166105b3565b600c81015490915064010000000090046001600160401b031683900361075957600c0180546bffffffffffffffff00000000191690555050565b611b32828260020160189054906101000a90046001600160401b03168360040160159054906101000a900460ff166112ba565b6002810154610327908390600160c01b90046001600160401b0316611e70565b6000816002018054611b6390612fa2565b9050600003611b735750816107c5565b600080611c0d846002018054611b8890612fa2565b80601f0160208091040260200160405190810160405280929190818152602001828054611bb490612fa2565b8015611c015780601f10611bd657610100808354040283529160200191611c01565b820191906000526020600020905b815481529060010190602001808311611be457829003601f168201915b50505050506000611f49565b8654929450925060009160059150611c30908490600160a81b900460ff16612f3b565b611c3a9190612dfd565b9050611744611c4a82600a612f10565b879085611943565b6000611c5f82600061203e565b50909392505050565b6000806000805160206130cc833981519152600484015481549192508291630100000090910461ffff1690811061188c5761188c612f4e565b611cc66040805160608101909152806000815260200160008152602001600081525090565b8254604080516332f7ce0b60e21b815290516000926001600160a01b03169163cbdf382c9160048083019260209291908290030181865afa158015611d0f573d6000803e3d6000fd5b505050506040513d601f19601f82011682018060405250810190611d339190612de0565b90506000816001600160a01b03166370a08231611d4f87611354565b6040516001600160e01b031960e084901b1681526001600160a01b039091166004820152602401602060405180830381865afa158015611d93573d6000803e3d6000fd5b505050506040513d601f19601f82011682018060405250810190611db79190612e10565b90506000826001600160a01b03166318160ddd6040518163ffffffff1660e01b8152600401602060405180830381865afa158015611df9573d6000803e3d6000fd5b505050506040513d601f19601f82011682018060405250810190611e1d9190612e10565b905060008560200151600003611e37578560400151611e4c565b60208601516040870151611e4c918490611943565b60408051606081018252600281526020810195909552840152509095945050505050565b808260050160088282829054906101000a90046001600160401b0316611e969190612a43565b92506101000a8154816001600160401b0302191690836001600160401b031602179055506000611ed16000805160206130ac83398151915290565b6006840154909150600090611ef09084906001600160401b0316612a43565b600d830154909150600090611f0e906001600160401b031683612fd6565b90506000611f1c8284612f1c565b90506001600160401b03811615611f3757611f3786826121f6565b611f418683612399565b505050505050565b7f4f24f5c433db0962dac0d2c8b84197a6e6c7cc4e5d9ebe1916a1b6193da2f34454600090819081906000805160206130ac833981519152906001600160a01b0316851561200b5760405163e4a0a55b60e01b81526001600160a01b0382169063e4a0a55b90611fbd908a90600401613004565b606060405180830381865afa158015611fda573d6000803e3d6000fd5b505050506040513d601f19601f82011682018060405250810190611ffe9190613052565b9450945094505050612037565b60405163524f388960e01b81526001600160a01b0382169063524f388990611fbd908a90600401613004565b9250925092565b6000806000806000806120dd88600101805461205990612fa2565b80601f016020809104026020016040519081016040528092919081815260200182805461208590612fa2565b80156120d25780601f106120a7576101008083540402835291602001916120d2565b820191906000526020600020905b8154815290600101906020018083116120b557829003601f168201915b505050505088611f49565b8a549295509093509150600160f01b900460ff161561212457875460009061211390600160a81b900460ff16600183878661242f565b965091945084935061203792505050565b60008060006121bf8b600201805461213b90612fa2565b80601f016020809104026020016040519081016040528092919081815260200182805461216790612fa2565b80156121b45780601f10612189576101008083540402835291602001916121b4565b820191906000526020600020905b81548152906001019060200180831161219757829003601f168201915b50505050508b611f49565b8d5492955090935091506000906121e390600160a81b900460ff1685848a8961242f565b9950949750909550612037945050505050565b6000805160206130cc8339815191526001600160401b03821660000361221b57505050565b600061222684611354565b6009830154600160401b90046001600160401b031660008181526007850160205260409020805492935090916001600160a01b0380851691160361232357805485908290601490612288908490600160a01b90046001600160401b0316612a43565b92506101000a8154816001600160401b0302191690836001600160401b0316021790555060006122ce8260000160149054906101000a90046001600160401b03166124a9565b9050826001600160401b0316846001600160a01b03167f9d2e72c50be7927e999d37329649af37a863df77bcb25361699ce021d3d7475d8360405161231591815260200190565b60405180910390a350611f41565b60006123336007860185886124fc565b90506000612340876124a9565b9050816001600160401b0316856001600160a01b03167f631f8f2039090539b2ea4ef7dc567f7f1939ef4dd3e790b1ca7bc548a1fada588360405161238791815260200190565b60405180910390a35050505050505050565b60068201546001600160401b038083169116036123b4575050565b60068201805467ffffffffffffffff19166001600160401b03831617905560006123dd826124a9565b90506123e883611354565b6001600160a01b03167fa3db2bc927901a1d3ba09ad51d84609457b98443be9132a0a936a47c5a1081b58260405161242291815260200190565b60405180910390a2505050565b60006000805160206130ac83398151915281600961244d878a612f3b565b6124579190612f3b565b600a830154909150600090612477908690600160a81b900460ff16612f3b565b90508082101561248957612489612c78565b6111a26124968284612dfd565b6124a190600a612f10565b87908a611943565b7f4f24f5c433db0962dac0d2c8b84197a6e6c7cc4e5d9ebe1916a1b6193da2f346546000906000805160206130ac8339815191529061082790600160901b90046001600160401b03908116908516612c8e565b6001600160a01b0382166000908152600184016020526040812060028501805483919060109061253b90600160801b90046001600160401b0316613080565b91906101000a8154816001600160401b0302191690836001600160401b03160217905590506040518060c00160405280866001600160a01b03168152602001856001600160401b031681526020018760020160089054906101000a90046001600160401b03166001600160401b0316815260200160006001600160401b031681526020018360000160089054906101000a90046001600160401b03166001600160401b0316815260200160006001600160401b0316815250866000016000836001600160401b03166001600160401b0316815260200190815260200160002060008201518160000160006101000a8154816001600160a01b0302191690836001600160a01b0316021790555060208201518160000160146101000a8154816001600160401b0302191690836001600160401b0316021790555060408201518160010160006101000a8154816001600160401b0302191690836001600160401b0316021790555060608201518160010160086101000a8154816001600160401b0302191690836001600160401b0316021790555060808201518160010160106101000a8154816001600160401b0302191690836001600160401b0316021790555060a08201518160010160186101000a8154816001600160401b0302191690836001600160401b031602179055509050508560020160009054906101000a90046001600160401b03166001600160401b0316600003612798576002860154600160401b90046001600160401b03161561277557612775612c78565b60028601805467ffffffffffffffff19166001600160401b038316179055612800565b6002860154600160401b90046001600160401b03166000036127bc576127bc612c78565b6002860154600160401b908190046001600160401b039081166000908152602089905260409020600101805467ffffffffffffffff60401b19169184169092021790555b6002860180546001600160401b03808416600160401b0267ffffffffffffffff60401b1990921691909117909155825416600003612876578154600160401b90046001600160401b03161561285757612857612c78565b815467ffffffffffffffff19166001600160401b0382161782556128d9565b8154600160401b90046001600160401b031660000361289757612897612c78565b81546001600160401b03600160401b909104811660009081526020889052604090206001018054918316600160c01b026001600160c01b039092169190911790555b815467ffffffffffffffff60401b1916600160401b6001600160401b0383160217909155949350505050565b6000806040838503121561291857600080fd5b82356001600160401b0381111561292e57600080fd5b8301610200818603121561294157600080fd5b946020939093013593505050565b6000806040838503121561296257600080fd5b82356001600160401b0381111561297857600080fd5b8301610160818603121561294157600080fd5b8015158114610b6257600080fd5b80356129a48161298b565b919050565b6000602082840312156129bb57600080fd5b81356108278161298b565b634e487b7160e01b600052602160045260246000fd5b634e487b7160e01b600052601160045260246000fd5b6001600160801b0382811682821603908111156107c5576107c56129dc565b80356001600160401b03811681146129a457600080fd5b600060208284031215612a3a57600080fd5b6107c282612a11565b6001600160401b0381811683821601908111156107c5576107c56129dc565b6000808335601e19843603018112612a7957600080fd5b83016020810192503590506001600160401b03811115612a9857600080fd5b8060051b3603821315612aaa57600080fd5b9250929050565b81835260006001600160fb1b03831115612aca57600080fd5b8260051b80836020870137939093016020019392505050565b6001600160401b03612af482612a11565b1682526001600160401b03612b0b60208301612a11565b1660208301526001600160401b03612b2560408301612a11565b1660408301525050565b602081526000612b3f8384612a62565b6102006020850152612b5661022085018284612ab1565b60208601356040868101919091528601356060808701919091529092506001600160401b039150612b88908601612a11565b1660808401526001600160401b03612ba260808601612a11565b1660a08401526001600160401b03612bbc60a08601612a11565b1660c08401526001600160401b03612bd660c08601612a11565b1660e08401526001600160401b03612bf060e08601612a11565b1661010084810191909152840135610120808501919091528401356101408085019190915284013561016080850191909152612c2d908501612999565b8015156101808501525060006101808501359050806101a0850152506108276101c084016101a08601612ae3565b600060208284031215612c6d57600080fd5b81516108278161298b565b634e487b7160e01b600052600160045260246000fd5b80820281158282048414176107c5576107c56129dc565b602081526000612cb58384612a62565b6101606020850152612ccc61018085018284612ab1565b60208601356040868101919091528601356060808701919091529092506001600160401b039150612cfe908601612a11565b1660808401526001600160401b03612d1860808601612a11565b1660a08401526001600160401b03612d3260a08601612a11565b1660c08401526001600160401b03612d4c60c08601612a11565b1660e08401526001600160401b03612d6660e08601612a11565b166101008401526001600160401b03612d826101008601612a11565b166101208401526001600160401b03612d9e6101208601612a11565b166101408401526001600160401b03612dba6101408601612a11565b166101608401528091505092915050565b6001600160a01b0381168114610b6257600080fd5b600060208284031215612df257600080fd5b815161082781612dcb565b818103818111156107c5576107c56129dc565b600060208284031215612e2257600080fd5b5051919050565b6001815b6001841115612e6457808504811115612e4857612e486129dc565b6001841615612e5657908102905b60019390931c928002612e2d565b935093915050565b600082612e7b575060016107c5565b81612e88575060006107c5565b8160018114612e9e5760028114612ea857612ec4565b60019150506107c5565b60ff841115612eb957612eb96129dc565b50506001821b6107c5565b5060208310610133831016604e8410600b8410161715612ee7575081810a6107c5565b612ef46000198484612e29565b8060001904821115612f0857612f086129dc565b029392505050565b60006107c28383612e6c565b6001600160401b0382811682821603908111156107c5576107c56129dc565b808201808211156107c5576107c56129dc565b634e487b7160e01b600052603260045260246000fd5b634e487b7160e01b600052601260045260246000fd5b600082612f8957612f89612f64565b500490565b600082612f9d57612f9d612f64565b500690565b600181811c90821680612fb657607f821691505b6020821081036105ad57634e487b7160e01b600052602260045260246000fd5b60006001600160401b03831680612fef57612fef612f64565b806001600160401b0384160691505092915050565b602081526000825180602084015260005b818110156130325760208186018101516040868401015201613015565b506000604082850101526040601f19601f83011684010191505092915050565b60008060006060848603121561306757600080fd5b5050815160208301516040909301519094929350919050565b60006001600160401b0382166001600160401b0381036130a2576130a26129dc565b6001019291505056fe4f24f5c433db0962dac0d2c8b84197a6e6c7cc4e5d9ebe1916a1b6193da2f33aec7e8c1c441439dd40959777f4c577ea0cd42fcc1dbe59d2bd0f5d9c55df8db6a2646970667358221220c46636b07d4ffe1e6d2a64d37132bb0c237ea7c12ef0d869246cc8150c59797564736f6c634300081b0033",
  "linkReferences": {},
  "deployedLinkReferences": {}
}