{
  "_format": "hh-sol-artifact-1",
  "contractName": "AgentVaultMock",
  "sourceName": "contracts/agentVault/mock/AgentVaultMock.sol",
  "abi": [
    {
      "inputs": [
        {
          "internalType": "address",
          "name": "_assetManager",
          "type": "address"
        },
        {
          "internalType": "address",
          "name": "_owner",
          "type": "address"
        }
      ],
      "stateMutability": "nonpayable",
      "type": "constructor"
    },
    {
      "inputs": [],
      "name": "assetManager",
      "outputs": [
        {
          "internalType": "address",
          "name": "",
          "type": "address"
        }
      ],
      "stateMutability": "view",
      "type": "function"
    },
    {
      "inputs": [
        {
          "internalType": "address",
          "name": "_contract",
          "type": "address"
        },
        {
          "internalType": "bytes",
          "name": "_payload",
          "type": "bytes"
        },
        {
          "internalType": "uint256",
          "name": "_pay",
          "type": "uint256"
        }
      ],
      "name": "callFunctionAt",
      "outputs": [],
      "stateMutability": "payable",
      "type": "function"
    },
    {
      "inputs": [
        {
          "internalType": "contract IICollateralPool",
          "name": "_collateralPool",
          "type": "address"
        }
      ],
      "name": "enterPool",
      "outputs": [],
      "stateMutability": "payable",
      "type": "function"
    },
    {
      "inputs": [],
      "name": "owner",
      "outputs": [
        {
          "internalType": "address",
          "name": "",
          "type": "address"
        }
      ],
      "stateMutability": "view",
      "type": "function"
    },
    {
      "stateMutability": "payable",
      "type": "receive"
    }
  ],
  "bytecode": "0x6080604052348015600f57600080fd5b50604051610479380380610479833981016040819052602c916077565b600080546001600160a01b039384166001600160a01b0319918216179091556001805492909316911617905560a5565b80516001600160a01b0381168114607257600080fd5b919050565b60008060408385031215608957600080fd5b609083605c565b9150609c60208401605c565b90509250929050565b6103c5806100b46000396000f3fe6080604052600436106100435760003560e01c80638da5cb5b1461004f57806394217ad11461008b578063dea10492146100ab578063ffd10e07146100c057600080fd5b3661004a57005b600080fd5b34801561005b57600080fd5b5060015461006f906001600160a01b031681565b6040516001600160a01b03909116815260200160405180910390f35b34801561009757600080fd5b5060005461006f906001600160a01b031681565b6100be6100b93660046101fe565b6100d3565b005b6100be6100ce3660046102d4565b610167565b600080846001600160a01b031683856040516100ef919061031c565b60006040518083038185875af1925050503d806000811461012c576040519150601f19603f3d011682016040523d82523d6000602084013e610131565b606091505b509150915081819061015f5760405162461bcd60e51b81526004016101569190610338565b60405180910390fd5b505050505050565b806001600160a01b031663e97dcb62346040518263ffffffff1660e01b8152600401604080518083038185885af11580156101a6573d6000803e3d6000fd5b50505050506040513d601f19601f820116820180604052508101906101cb919061036b565b505050565b6001600160a01b03811681146101e557600080fd5b50565b634e487b7160e01b600052604160045260246000fd5b60008060006060848603121561021357600080fd5b833561021e816101d0565b9250602084013567ffffffffffffffff81111561023a57600080fd5b8401601f8101861361024b57600080fd5b803567ffffffffffffffff811115610265576102656101e8565b604051601f8201601f19908116603f0116810167ffffffffffffffff81118282101715610294576102946101e8565b6040528181528282016020018810156102ac57600080fd5b8160208401602083013760009181016020019190915293969395505050506040919091013590565b6000602082840312156102e657600080fd5b81356102f1816101d0565b9392505050565b60005b838110156103135781810151838201526020016102fb565b50506000910152565b6000825161032e8184602087016102f8565b9190910192915050565b60208152600082518060208401526103578160408501602087016102f8565b601f01601f19169190910160400192915050565b6000806040838503121561037e57600080fd5b50508051602090910151909290915056fea26469706673582212207a03c8b354d5fdf9691d28e1206fff1f86ccfae77bc41253b5cf3fb3d3b0544a64736f6c634300081b0033",
  "linkReferences": {},
  "deployedLinkReferences": {}
}