{
  "_format": "hh-sol-artifact-1",
  "contractName": "ChallengesFacet",
  "sourceName": "contracts/assetManager/facets/ChallengesFacet.sol",
  "abi": [
    {
      "inputs": [],
      "name": "ChallengeAlreadyLiquidating",
      "type": "error"
    },
    {
      "inputs": [],
      "name": "ChallengeNotAgentsAddress",
      "type": "error"
    },
    {
      "inputs": [],
      "name": "ChallengeNotDuplicate",
      "type": "error"
    },
    {
      "inputs": [],
      "name": "ChallengeSameTransactionRepeated",
      "type": "error"
    },
    {
      "inputs": [],
      "name": "ChallengeTransactionAlreadyConfirmed",
      "type": "error"
    },
    {
      "inputs": [],
      "name": "DivisionByZero",
      "type": "error"
    },
    {
      "inputs": [],
      "name": "EmergencyPauseActive",
      "type": "error"
    },
    {
      "inputs": [],
      "name": "InvalidAgentVaultAddress",
      "type": "error"
    },
    {
      "inputs": [],
      "name": "InvalidChain",
      "type": "error"
    },
    {
      "inputs": [],
      "name": "MatchingAnnouncedPaymentActive",
      "type": "error"
    },
    {
      "inputs": [],
      "name": "MatchingRedemptionActive",
      "type": "error"
    },
    {
      "inputs": [],
      "name": "MultiplePaymentsChallengeEnoughBalance",
      "type": "error"
    },
    {
      "inputs": [],
      "name": "NotAttached",
      "type": "error"
    },
    {
      "inputs": [],
      "name": "NotWhitelisted",
      "type": "error"
    },
    {
      "inputs": [],
      "name": "OnlyAssetManagerController",
      "type": "error"
    },
    {
      "inputs": [],
      "name": "ReentrancyGuardReentrantCall",
      "type": "error"
    },
    {
      "inputs": [],
      "name": "TransactionNotProven",
      "type": "error"
    },
    {
      "anonymous": false,
      "inputs": [
        {
          "indexed": true,
          "internalType": "address",
          "name": "agentVault",
          "type": "address"
        },
        {
          "indexed": false,
          "internalType": "bytes32",
          "name": "transactionHash1",
          "type": "bytes32"
        },
        {
          "indexed": false,
          "internalType": "bytes32",
          "name": "transactionHash2",
          "type": "bytes32"
        }
      ],
      "name": "DuplicatePaymentConfirmed",
      "type": "event"
    },
    {
      "anonymous": false,
      "inputs": [
        {
          "indexed": true,
          "internalType": "address",
          "name": "agentVault",
          "type": "address"
        },
        {
          "indexed": false,
          "internalType": "uint256",
          "name": "timestamp",
          "type": "uint256"
        }
      ],
      "name": "FullLiquidationStarted",
      "type": "event"
    },
    {
      "anonymous": false,
      "inputs": [
        {
          "indexed": true,
          "internalType": "address",
          "name": "agentVault",
          "type": "address"
        },
        {
          "indexed": false,
          "internalType": "bytes32",
          "name": "transactionHash",
          "type": "bytes32"
        }
      ],
      "name": "IllegalPaymentConfirmed",
      "type": "event"
    },
    {
      "anonymous": false,
      "inputs": [
        {
          "indexed": true,
          "internalType": "address",
          "name": "agentVault",
          "type": "address"
        },
        {
          "indexed": false,
          "internalType": "int256",
          "name": "balance",
          "type": "int256"
        },
        {
          "indexed": false,
          "internalType": "uint256",
          "name": "requiredBalance",
          "type": "uint256"
        }
      ],
      "name": "UnderlyingBalanceTooLow",
      "type": "event"
    },
    {
      "inputs": [
        {
          "components": [
            {
              "internalType": "bytes32[]",
              "name": "merkleProof",
              "type": "bytes32[]"
            },
            {
              "components": [
                {
                  "internalType": "bytes32",
                  "name": "attestationType",
                  "type": "bytes32"
                },
                {
                  "internalType": "bytes32",
                  "name": "sourceId",
                  "type": "bytes32"
                },
                {
                  "internalType": "uint64",
                  "name": "votingRound",
                  "type": "uint64"
                },
                {
                  "internalType": "uint64",
                  "name": "lowestUsedTimestamp",
                  "type": "uint64"
                },
                {
                  "components": [
                    {
                      "internalType": "bytes32",
                      "name": "transactionId",
                      "type": "bytes32"
                    },
                    {
                      "internalType": "bytes32",
                      "name": "sourceAddressIndicator",
                      "type": "bytes32"
                    }
                  ],
                  "internalType": "struct IBalanceDecreasingTransaction.RequestBody",
                  "name": "requestBody",
                  "type": "tuple"
                },
                {
                  "components": [
                    {
                      "internalType": "uint64",
                      "name": "blockNumber",
                      "type": "uint64"
                    },
                    {
                      "internalType": "uint64",
                      "name": "blockTimestamp",
                      "type": "uint64"
                    },
                    {
                      "internalType": "bytes32",
                      "name": "sourceAddressHash",
                      "type": "bytes32"
                    },
                    {
                      "internalType": "int256",
                      "name": "spentAmount",
                      "type": "int256"
                    },
                    {
                      "internalType": "bytes32",
                      "name": "standardPaymentReference",
                      "type": "bytes32"
                    }
                  ],
                  "internalType": "struct IBalanceDecreasingTransaction.ResponseBody",
                  "name": "responseBody",
                  "type": "tuple"
                }
              ],
              "internalType": "struct IBalanceDecreasingTransaction.Response",
              "name": "data",
              "type": "tuple"
            }
          ],
          "internalType": "struct IBalanceDecreasingTransaction.Proof",
          "name": "_payment1",
          "type": "tuple"
        },
        {
          "components": [
            {
              "internalType": "bytes32[]",
              "name": "merkleProof",
              "type": "bytes32[]"
            },
            {
              "components": [
                {
                  "internalType": "bytes32",
                  "name": "attestationType",
                  "type": "bytes32"
                },
                {
                  "internalType": "bytes32",
                  "name": "sourceId",
                  "type": "bytes32"
                },
                {
                  "internalType": "uint64",
                  "name": "votingRound",
                  "type": "uint64"
                },
                {
                  "internalType": "uint64",
                  "name": "lowestUsedTimestamp",
                  "type": "uint64"
                },
                {
                  "components": [
                    {
                      "internalType": "bytes32",
                      "name": "transactionId",
                      "type": "bytes32"
                    },
                    {
                      "internalType": "bytes32",
                      "name": "sourceAddressIndicator",
                      "type": "bytes32"
                    }
                  ],
                  "internalType": "struct IBalanceDecreasingTransaction.RequestBody",
                  "name": "requestBody",
                  "type": "tuple"
                },
                {
                  "components": [
                    {
                      "internalType": "uint64",
                      "name": "blockNumber",
                      "type": "uint64"
                    },
                    {
                      "internalType": "uint64",
                      "name": "blockTimestamp",
                      "type": "uint64"
                    },
                    {
                      "internalType": "bytes32",
                      "name": "sourceAddressHash",
                      "type": "bytes32"
                    },
                    {
                      "internalType": "int256",
                      "name": "spentAmount",
                      "type": "int256"
                    },
                    {
                      "internalType": "bytes32",
                      "name": "standardPaymentReference",
                      "type": "bytes32"
                    }
                  ],
                  "internalType": "struct IBalanceDecreasingTransaction.ResponseBody",
                  "name": "responseBody",
                  "type": "tuple"
                }
              ],
              "internalType": "struct IBalanceDecreasingTransaction.Response",
              "name": "data",
              "type": "tuple"
            }
          ],
          "internalType": "struct IBalanceDecreasingTransaction.Proof",
          "name": "_payment2",
          "type": "tuple"
        },
        {
          "internalType": "address",
          "name": "_agentVault",
          "type": "address"
        }
      ],
      "name": "doublePaymentChallenge",
      "outputs": [],
      "stateMutability": "nonpayable",
      "type": "function"
    },
    {
      "inputs": [
        {
          "components": [
            {
              "internalType": "bytes32[]",
              "name": "merkleProof",
              "type": "bytes32[]"
            },
            {
              "components": [
                {
                  "internalType": "bytes32",
                  "name": "attestationType",
                  "type": "bytes32"
                },
                {
                  "internalType": "bytes32",
                  "name": "sourceId",
                  "type": "bytes32"
                },
                {
                  "internalType": "uint64",
                  "name": "votingRound",
                  "type": "uint64"
                },
                {
                  "internalType": "uint64",
                  "name": "lowestUsedTimestamp",
                  "type": "uint64"
                },
                {
                  "components": [
                    {
                      "internalType": "bytes32",
                      "name": "transactionId",
                      "type": "bytes32"
                    },
                    {
                      "internalType": "bytes32",
                      "name": "sourceAddressIndicator",
                      "type": "bytes32"
                    }
                  ],
                  "internalType": "struct IBalanceDecreasingTransaction.RequestBody",
                  "name": "requestBody",
                  "type": "tuple"
                },
                {
                  "components": [
                    {
                      "internalType": "uint64",
                      "name": "blockNumber",
                      "type": "uint64"
                    },
                    {
                      "internalType": "uint64",
                      "name": "blockTimestamp",
                      "type": "uint64"
                    },
                    {
                      "internalType": "bytes32",
                      "name": "sourceAddressHash",
                      "type": "bytes32"
                    },
                    {
                      "internalType": "int256",
                      "name": "spentAmount",
                      "type": "int256"
                    },
                    {
                      "internalType": "bytes32",
                      "name": "standardPaymentReference",
                      "type": "bytes32"
                    }
                  ],
                  "internalType": "struct IBalanceDecreasingTransaction.ResponseBody",
                  "name": "responseBody",
                  "type": "tuple"
                }
              ],
              "internalType": "struct IBalanceDecreasingTransaction.Response",
              "name": "data",
              "type": "tuple"
            }
          ],
          "internalType": "struct IBalanceDecreasingTransaction.Proof[]",
          "name": "_payments",
          "type": "tuple[]"
        },
        {
          "internalType": "address",
          "name": "_agentVault",
          "type": "address"
        }
      ],
      "name": "freeBalanceNegativeChallenge",
      "outputs": [],
      "stateMutability": "nonpayable",
      "type": "function"
    },
    {
      "inputs": [
        {
          "components": [
            {
              "internalType": "bytes32[]",
              "name": "merkleProof",
              "type": "bytes32[]"
            },
            {
              "components": [
                {
                  "internalType": "bytes32",
                  "name": "attestationType",
                  "type": "bytes32"
                },
                {
                  "internalType": "bytes32",
                  "name": "sourceId",
                  "type": "bytes32"
                },
                {
                  "internalType": "uint64",
                  "name": "votingRound",
                  "type": "uint64"
                },
                {
                  "internalType": "uint64",
                  "name": "lowestUsedTimestamp",
                  "type": "uint64"
                },
                {
                  "components": [
                    {
                      "internalType": "bytes32",
                      "name": "transactionId",
                      "type": "bytes32"
                    },
                    {
                      "internalType": "bytes32",
                      "name": "sourceAddressIndicator",
                      "type": "bytes32"
                    }
                  ],
                  "internalType": "struct IBalanceDecreasingTransaction.RequestBody",
                  "name": "requestBody",
                  "type": "tuple"
                },
                {
                  "components": [
                    {
                      "internalType": "uint64",
                      "name": "blockNumber",
                      "type": "uint64"
                    },
                    {
                      "internalType": "uint64",
                      "name": "blockTimestamp",
                      "type": "uint64"
                    },
                    {
                      "internalType": "bytes32",
                      "name": "sourceAddressHash",
                      "type": "bytes32"
                    },
                    {
                      "internalType": "int256",
                      "name": "spentAmount",
                      "type": "int256"
                    },
                    {
                      "internalType": "bytes32",
                      "name": "standardPaymentReference",
                      "type": "bytes32"
                    }
                  ],
                  "internalType": "struct IBalanceDecreasingTransaction.ResponseBody",
                  "name": "responseBody",
                  "type": "tuple"
                }
              ],
              "internalType": "struct IBalanceDecreasingTransaction.Response",
              "name": "data",
              "type": "tuple"
            }
          ],
          "internalType": "struct IBalanceDecreasingTransaction.Proof",
          "name": "_payment",
          "type": "tuple"
        },
        {
          "internalType": "address",
          "name": "_agentVault",
          "type": "address"
        }
      ],
      "name": "illegalPaymentChallenge",
      "outputs": [],
      "stateMutability": "nonpayable",
      "type": "function"
    }
  ],
  "bytecode": "0x6080604052348015600f57600080fd5b50611b5b8061001f6000396000f3fe608060405234801561001057600080fd5b50600436106100415760003560e01c806366a37046146100465780637e7bfdc61461005b578063eb81ca631461006e575b600080fd5b6100596100543660046114f5565b610081565b005b610059610069366004611542565b6102ba565b61005961007c3660046115c6565b61059a565b610089610720565b7fec7e8c1c441439dd40959777f4c577ea0cd42fcc1dbe59d2bd0f5d9c55df8db660006100b583610758565b90506003600482015460ff1660058111156100d2576100d2611634565b036100f05760405163010345fd60e41b815260040160405180910390fd5b6100f9846107e1565b60038101546101208501351461012257604051635d6f8fe760e11b815260040160405180910390fd5b61012f600b8301856108ec565b1561014d57604051630c5ce4c960e11b815260040160405180910390fd5b61016084013580156102385761016e8167232128293320800160c11b610935565b156101da57600061017e8261096d565b6000818152600a8601602052604081206004810154929350916001600160a01b0388811691161480156101b557506101b582610986565b905080156101d65760405163146528d760e01b815260040160405180910390fd5b5050505b6101ef8167464250526641000360c01b610935565b156102385760006101ff8261096d565b6006840154909150600160c01b90046001600160401b0316810361023657604051633048562d60e21b815260040160405180910390fd5b505b600582015461025a9083903390600160401b90046001600160401b03166109d0565b60405160a086013581526001600160a01b038516907f874b3e56440a065ac7740d39114a84e127ccd3d20311567b84878685710506b59060200160405180910390a25050506102b66001600080516020611b0683398151915255565b5050565b6102c2610720565b7fec7e8c1c441439dd40959777f4c577ea0cd42fcc1dbe59d2bd0f5d9c55df8db660006102ee83610758565b90506003600482015460ff16600581111561030b5761030b611634565b036103295760405163010345fd60e41b815260040160405180910390fd5b6000805b858110156104be57368787838181106103485761034861164a565b905060200281019061035a9190611660565b9050610365816107e1565b60005b828110156103c25760a08201358989838181106103875761038761164a565b90506020028101906103999190611660565b60a00135036103ba5760405162df838760e81b815260040160405180910390fd5b600101610368565b506003840154610120820135146103ec57604051635d6f8fe760e11b815260040160405180910390fd5b6103f9600b8601826108ec565b1561040457506104b6565b61016081013561041f8167232128293320800160c11b610935565b156104a157600061043461016084013561096d565b6000818152600a89016020526040812091925061045082610986565b61045b57600061046a565b60018201546001600160801b03165b6001600160801b0316905061047e81610a62565b61048d90610140870135611697565b61049790886116b7565b96505050506104b3565b6104b0610140830135856116b7565b93505b50505b60010161032d565b5060068201546000906104dc908390600160401b9004600f0b611697565b905060006104e984610ad5565b90506104f481610a62565b8212610513576040516355b7babd60e11b815260040160405180910390fd5b60058401546105359085903390600160401b90046001600160401b03166109d0565b60408051838152602081018390526001600160a01b038816917f3232fdbb55664d655aff08d1cc31318b51047d1178a5cea499006d9f9d4c07ae910160405180910390a250505050506105956001600080516020611b0683398151915255565b505050565b6105a2610720565b60006105ad82610758565b90506003600482015460ff1660058111156105ca576105ca611634565b036105e85760405163010345fd60e41b815260040160405180910390fd5b6105f1846107e1565b6105fa836107e1565b60a08084013590850135036106215760405162df838760e81b815260040160405180910390fd5b60038101546101208501351461064a57604051635d6f8fe760e11b815260040160405180910390fd5b60038101546101208401351461067357604051635d6f8fe760e11b815260040160405180910390fd5b61016084810135908401351461069c5760405163f66c991d60e01b815260040160405180910390fd5b60058101546106be9082903390600160401b90046001600160401b03166109d0565b6040805160a086810135825285013560208201526001600160a01b038416917f8ffdcc5d703424623d5d4b95aa3551030ae55d7925aea68e0d9dd8ddf8cf1d44910160405180910390a2506105956001600080516020611b0683398151915255565b600080516020611b0683398151915280546001190161075257604051633ee5aeb560e01b815260040160405180910390fd5b60029055565b604081901b68010000000000000000600160e01b0316600080516020611ae68339815191521860048101546000919060ff168281600581111561079d5761079d611634565b141580156107bd575060058160058111156107ba576107ba611634565b14155b6107da5760405163d68a46c560e01b815260040160405180910390fd5b5092915050565b7f4f24f5c433db0962dac0d2c8b84197a6e6c7cc4e5d9ebe1916a1b6193da2f342547f4f24f5c433db0962dac0d2c8b84197a6e6c7cc4e5d9ebe1916a1b6193da2f34554600080516020611ac6833981519152916001600160a01b0316906040840135146108625760405163057f3fa760e51b815260040160405180910390fd5b604051636ec659c760e01b81526001600160a01b03821690636ec659c79061088e9086906004016117a2565b602060405180830381865afa1580156108ab573d6000803e3d6000fd5b505050506040513d601f19601f820116820180604052508101906108cf9190611837565b610595576040516371095c2760e01b815260040160405180910390fd5b6040805161012083013560208083019190915260a08401358284015282518083038401815260609092018352815191810191909120600090815290849052205415155b92915050565b60006001600160c01b03198316816109526001600160c01b611859565b85169050818414801561096457508015155b95945050505050565b600061097e6001600160c01b611859565b909116919050565b6004810154600090600160a01b900460ff1660018160068111156109ac576109ac611634565b14806109c9575060028160068111156109c7576109c7611634565b145b9392505050565b600080516020611ac68339815191526109e884610b51565b60006109f385610c4d565b600f830154909150600090610a14908590600160901b900461ffff16610d39565b6010840154909150600090610a339088906001600160801b0316610d48565b610a41838560400151610d5c565b610a4b919061186c565b9050610a58878783610d76565b5050505050505050565b60006001600160ff1b03821115610ad15760405162461bcd60e51b815260206004820152602860248201527f53616665436173743a2076616c756520646f65736e27742066697420696e2061604482015267371034b73a191a9b60c11b60648201526084015b60405180910390fd5b5090565b7f4f24f5c433db0962dac0d2c8b84197a6e6c7cc4e5d9ebe1916a1b6193da2f346546005820154600091600080516020611ac683398151915291600160901b9091046001600160401b0390811691610b3e91600160801b8204811691600160401b90041661187f565b6001600160401b03166109c9919061189e565b6003600482015460ff166005811115610b6c57610b6c611634565b1480610b8f575060048082015460ff166005811115610b8d57610b8d611634565b145b15610b975750565b6004810154600160a81b90046001600160401b0316600003610be557610bbc42610e8b565b8160040160156101000a8154816001600160401b0302191690836001600160401b031602179055505b60048101805460ff19166003179055600080516020611ae6833981519152811860401c6001600160a01b03167fa3bf539465c1a8746950e123769affaff9097155e9e8cb9e079e1d55d6ba349742604051610c4291815260200190565b60405180910390a250565b610c726040805160608101909152806000815260200160008152602001600081525090565b6000610c7d83610ef3565b6040805160608101909152909150806000815282546020909101906001600160a01b03166370a08231600080516020611ae6833981519152871860401c6040516001600160e01b031960e084901b1681526001600160a01b039091166004820152602401602060405180830381865afa158015610cfe573d6000803e3d6000fd5b505050506040513d601f19601f82011682018060405250810190610d2291906118b5565b8152602001610d3083610f52565b90529392505050565b60006109c98383612710610f68565b60006109c982610d5785610ef3565b61106c565b60006109c982610d6e6009600a6119b5565b859190610f68565b600080610d8285610ef3565b90506000600080516020611ae6833981519152861860401c82546040516370a0823160e01b81526001600160a01b038084166004830152929350610e1392879216906370a0823190602401602060405180830381865afa158015610dea573d6000803e3d6000fd5b505050506040513d601f19601f82011682018060405250810190610e0e91906118b5565b611176565b825460405163083e007560e21b81526001600160a01b0391821660048201528782166024820152604481018390529194508216906320f801d490606401600060405180830381600087803b158015610e6a57600080fd5b505af1158015610e7e573d6000803e3d6000fd5b5050505050509392505050565b60006001600160401b03821115610ad15760405162461bcd60e51b815260206004820152602660248201527f53616665436173743a2076616c756520646f65736e27742066697420696e203660448201526534206269747360d01b6064820152608401610ac8565b6000807fec7e8c1c441439dd40959777f4c577ea0cd42fcc1dbe59d2bd0f5d9c55df8db660048401548154919250829161010090910461ffff16908110610f3c57610f3c61164a565b9060005260206000209060040201915050919050565b6000610f5f82600061118c565b50909392505050565b6000808211610f8a576040516323d359a360e01b815260040160405180910390fd5b83600003610f9a575060006109c9565b83830283858281610fad57610fad6119c1565b0403610fcb57828181610fc257610fc26119c1565b049150506109c9565b506000610fd883866119d7565b90506000610fe684876119eb565b90506000610ff485876119d7565b9050600061100286886119eb565b90508561100f828561189e565b61101991906119d7565b611023838561189e565b61102d838761189e565b88611038868961189e565b611042919061189e565b61104c919061186c565b611056919061186c565b611060919061186c565b98975050505050505050565b600081600201805461107d906119ff565b905060000361108d57508161092f565b6000806111278460020180546110a2906119ff565b80601f01602080910402602001604051908101604052809291908181526020018280546110ce906119ff565b801561111b5780601f106110f05761010080835404028352916020019161111b565b820191906000526020600020905b8154815290600101906020018083116110fe57829003601f168201915b5050505050600061134b565b865492945092506000916005915061114a908490600160a81b900460ff1661186c565b6111549190611859565b905061116c61116482600a6119b5565b879085610f68565b9695505050505050565b600081831061118557816109c9565b5090919050565b60008060008060008061122b8860010180546111a7906119ff565b80601f01602080910402602001604051908101604052809291908181526020018280546111d3906119ff565b80156112205780601f106111f557610100808354040283529160200191611220565b820191906000526020600020905b81548152906001019060200180831161120357829003601f168201915b50505050508861134b565b8a549295509093509150600160f01b900460ff161561127257875460009061126190600160a81b900460ff166001838786611439565b965091945084935061134492505050565b600080600061130d8b6002018054611289906119ff565b80601f01602080910402602001604051908101604052809291908181526020018280546112b5906119ff565b80156113025780601f106112d757610100808354040283529160200191611302565b820191906000526020600020905b8154815290600101906020018083116112e557829003601f168201915b50505050508b61134b565b8d54929550909350915060009061133190600160a81b900460ff1685848a89611439565b9950949750909550611344945050505050565b9250925092565b7f4f24f5c433db0962dac0d2c8b84197a6e6c7cc4e5d9ebe1916a1b6193da2f3445460009081908190600080516020611ac6833981519152906001600160a01b0316851561140d5760405163e4a0a55b60e01b81526001600160a01b0382169063e4a0a55b906113bf908a90600401611a33565b606060405180830381865afa1580156113dc573d6000803e3d6000fd5b505050506040513d601f19601f820116820180604052508101906114009190611a81565b9450945094505050611344565b60405163524f388960e01b81526001600160a01b0382169063524f3889906113bf908a90600401611a33565b6000600080516020611ac6833981519152816009611457878a61186c565b611461919061186c565b600a830154909150600090611481908690600160a81b900460ff1661186c565b90508082101561149357611493611aaf565b6114b36114a08284611859565b6114ab90600a6119b5565b87908a610f68565b9998505050505050505050565b600061018082840312156114d357600080fd5b50919050565b80356001600160a01b03811681146114f057600080fd5b919050565b6000806040838503121561150857600080fd5b82356001600160401b0381111561151e57600080fd5b61152a858286016114c0565b925050611539602084016114d9565b90509250929050565b60008060006040848603121561155757600080fd5b83356001600160401b0381111561156d57600080fd5b8401601f8101861361157e57600080fd5b80356001600160401b0381111561159457600080fd5b8660208260051b84010111156115a957600080fd5b6020918201945092506115bd9085016114d9565b90509250925092565b6000806000606084860312156115db57600080fd5b83356001600160401b038111156115f157600080fd5b6115fd868287016114c0565b93505060208401356001600160401b0381111561161957600080fd5b611625868287016114c0565b9250506115bd604085016114d9565b634e487b7160e01b600052602160045260246000fd5b634e487b7160e01b600052603260045260246000fd5b6000823561017e1983360301811261167757600080fd5b9190910192915050565b634e487b7160e01b600052601160045260246000fd5b81810360008312801583831316838312821617156107da576107da611681565b80820182811260008312801582168215821617156116d7576116d7611681565b505092915050565b80356001600160401b03811681146114f057600080fd5b80358252602080820135908301526001600160401b03611718604083016116df565b1660408301526001600160401b03611732606083016116df565b1660608301526080818101359083015260a080820135908301526001600160401b0361176060c083016116df565b1660c08301526001600160401b0361177a60e083016116df565b1660e08301526101008181013590830152610120808201359083015261014090810135910152565b6020815260008235601e198436030181126117bc57600080fd5b83016020810190356001600160401b038111156117d857600080fd5b8060051b8036038313156117eb57600080fd5b61018060208601526101a085018290526001600160fb1b0382111561180f57600080fd5b80836101c087013761182760408601602088016116f6565b939093016101c001949350505050565b60006020828403121561184957600080fd5b815180151581146109c957600080fd5b8181038181111561092f5761092f611681565b8082018082111561092f5761092f611681565b6001600160401b03818116838216019081111561092f5761092f611681565b808202811582820484141761092f5761092f611681565b6000602082840312156118c757600080fd5b5051919050565b6001815b6001841115611909578085048111156118ed576118ed611681565b60018416156118fb57908102905b60019390931c9280026118d2565b935093915050565b6000826119205750600161092f565b8161192d5750600061092f565b8160018114611943576002811461194d57611969565b600191505061092f565b60ff84111561195e5761195e611681565b50506001821b61092f565b5060208310610133831016604e8410600b841016171561198c575081810a61092f565b61199960001984846118ce565b80600019048211156119ad576119ad611681565b029392505050565b60006109c98383611911565b634e487b7160e01b600052601260045260246000fd5b6000826119e6576119e66119c1565b500490565b6000826119fa576119fa6119c1565b500690565b600181811c90821680611a1357607f821691505b6020821081036114d357634e487b7160e01b600052602260045260246000fd5b602081526000825180602084015260005b81811015611a615760208186018101516040868401015201611a44565b506000604082850101526040601f19601f83011684010191505092915050565b600080600060608486031215611a9657600080fd5b5050815160208301516040909301519094929350919050565b634e487b7160e01b600052600160045260246000fdfe4f24f5c433db0962dac0d2c8b84197a6e6c7cc4e5d9ebe1916a1b6193da2f33a5bebac0595fee029d42bb673937f5f1cb81cf8641382bc17774635de9b7d79650cd2207518cd3e5213e2c6dbe63d55b60aa893c194a427b7d7f1600408fd5bdea264697066735822122067322a138d06f920d63ad0bdad2b9466f669833a796eaab1d432e93487a618ed64736f6c634300081b0033",
  "linkReferences": {},
  "deployedLinkReferences": {}
}