{
  "_format": "hh-sol-artifact-1",
  "contractName": "ChallengesFacet",
  "sourceName": "contracts/assetManager/facets/ChallengesFacet.sol",
  "abi": [
    {
      "inputs": [],
      "name": "ChallengeAlreadyLiquidating",
      "type": "error"
    },
    {
      "inputs": [],
      "name": "ChallengeInvalidAgentStatus",
      "type": "error"
    },
    {
      "inputs": [],
      "name": "ChallengeNotAgentsAddress",
      "type": "error"
    },
    {
      "inputs": [],
      "name": "ChallengeNotDuplicate",
      "type": "error"
    },
    {
      "inputs": [],
      "name": "ChallengeSameTransactionRepeated",
      "type": "error"
    },
    {
      "inputs": [],
      "name": "ChallengeTransactionAlreadyConfirmed",
      "type": "error"
    },
    {
      "inputs": [],
      "name": "DivisionByZero",
      "type": "error"
    },
    {
      "inputs": [],
      "name": "EmergencyPauseActive",
      "type": "error"
    },
    {
      "inputs": [],
      "name": "InvalidAgentVaultAddress",
      "type": "error"
    },
    {
      "inputs": [],
      "name": "InvalidChain",
      "type": "error"
    },
    {
      "inputs": [],
      "name": "MatchingAnnouncedPaymentActive",
      "type": "error"
    },
    {
      "inputs": [],
      "name": "MatchingRedemptionActive",
      "type": "error"
    },
    {
      "inputs": [],
      "name": "MultiplePaymentsChallengeEnoughBalance",
      "type": "error"
    },
    {
      "inputs": [],
      "name": "NotAttached",
      "type": "error"
    },
    {
      "inputs": [],
      "name": "NotWhitelisted",
      "type": "error"
    },
    {
      "inputs": [],
      "name": "OnlyAssetManagerController",
      "type": "error"
    },
    {
      "inputs": [],
      "name": "ReentrancyGuardReentrantCall",
      "type": "error"
    },
    {
      "inputs": [],
      "name": "TransactionNotProven",
      "type": "error"
    },
    {
      "anonymous": false,
      "inputs": [
        {
          "indexed": true,
          "internalType": "address",
          "name": "agentVault",
          "type": "address"
        },
        {
          "indexed": false,
          "internalType": "bytes32",
          "name": "transactionHash1",
          "type": "bytes32"
        },
        {
          "indexed": false,
          "internalType": "bytes32",
          "name": "transactionHash2",
          "type": "bytes32"
        }
      ],
      "name": "DuplicatePaymentConfirmed",
      "type": "event"
    },
    {
      "anonymous": false,
      "inputs": [
        {
          "indexed": true,
          "internalType": "address",
          "name": "agentVault",
          "type": "address"
        },
        {
          "indexed": false,
          "internalType": "uint256",
          "name": "timestamp",
          "type": "uint256"
        }
      ],
      "name": "FullLiquidationStarted",
      "type": "event"
    },
    {
      "anonymous": false,
      "inputs": [
        {
          "indexed": true,
          "internalType": "address",
          "name": "agentVault",
          "type": "address"
        },
        {
          "indexed": false,
          "internalType": "bytes32",
          "name": "transactionHash",
          "type": "bytes32"
        }
      ],
      "name": "IllegalPaymentConfirmed",
      "type": "event"
    },
    {
      "anonymous": false,
      "inputs": [
        {
          "indexed": true,
          "internalType": "address",
          "name": "agentVault",
          "type": "address"
        },
        {
          "indexed": false,
          "internalType": "int256",
          "name": "balance",
          "type": "int256"
        },
        {
          "indexed": false,
          "internalType": "uint256",
          "name": "requiredBalance",
          "type": "uint256"
        }
      ],
      "name": "UnderlyingBalanceTooLow",
      "type": "event"
    },
    {
      "inputs": [
        {
          "components": [
            {
              "internalType": "bytes32[]",
              "name": "merkleProof",
              "type": "bytes32[]"
            },
            {
              "components": [
                {
                  "internalType": "bytes32",
                  "name": "attestationType",
                  "type": "bytes32"
                },
                {
                  "internalType": "bytes32",
                  "name": "sourceId",
                  "type": "bytes32"
                },
                {
                  "internalType": "uint64",
                  "name": "votingRound",
                  "type": "uint64"
                },
                {
                  "internalType": "uint64",
                  "name": "lowestUsedTimestamp",
                  "type": "uint64"
                },
                {
                  "components": [
                    {
                      "internalType": "bytes32",
                      "name": "transactionId",
                      "type": "bytes32"
                    },
                    {
                      "internalType": "bytes32",
                      "name": "sourceAddressIndicator",
                      "type": "bytes32"
                    }
                  ],
                  "internalType": "struct IBalanceDecreasingTransaction.RequestBody",
                  "name": "requestBody",
                  "type": "tuple"
                },
                {
                  "components": [
                    {
                      "internalType": "uint64",
                      "name": "blockNumber",
                      "type": "uint64"
                    },
                    {
                      "internalType": "uint64",
                      "name": "blockTimestamp",
                      "type": "uint64"
                    },
                    {
                      "internalType": "bytes32",
                      "name": "sourceAddressHash",
                      "type": "bytes32"
                    },
                    {
                      "internalType": "int256",
                      "name": "spentAmount",
                      "type": "int256"
                    },
                    {
                      "internalType": "bytes32",
                      "name": "standardPaymentReference",
                      "type": "bytes32"
                    }
                  ],
                  "internalType": "struct IBalanceDecreasingTransaction.ResponseBody",
                  "name": "responseBody",
                  "type": "tuple"
                }
              ],
              "internalType": "struct IBalanceDecreasingTransaction.Response",
              "name": "data",
              "type": "tuple"
            }
          ],
          "internalType": "struct IBalanceDecreasingTransaction.Proof",
          "name": "_payment1",
          "type": "tuple"
        },
        {
          "components": [
            {
              "internalType": "bytes32[]",
              "name": "merkleProof",
              "type": "bytes32[]"
            },
            {
              "components": [
                {
                  "internalType": "bytes32",
                  "name": "attestationType",
                  "type": "bytes32"
                },
                {
                  "internalType": "bytes32",
                  "name": "sourceId",
                  "type": "bytes32"
                },
                {
                  "internalType": "uint64",
                  "name": "votingRound",
                  "type": "uint64"
                },
                {
                  "internalType": "uint64",
                  "name": "lowestUsedTimestamp",
                  "type": "uint64"
                },
                {
                  "components": [
                    {
                      "internalType": "bytes32",
                      "name": "transactionId",
                      "type": "bytes32"
                    },
                    {
                      "internalType": "bytes32",
                      "name": "sourceAddressIndicator",
                      "type": "bytes32"
                    }
                  ],
                  "internalType": "struct IBalanceDecreasingTransaction.RequestBody",
                  "name": "requestBody",
                  "type": "tuple"
                },
                {
                  "components": [
                    {
                      "internalType": "uint64",
                      "name": "blockNumber",
                      "type": "uint64"
                    },
                    {
                      "internalType": "uint64",
                      "name": "blockTimestamp",
                      "type": "uint64"
                    },
                    {
                      "internalType": "bytes32",
                      "name": "sourceAddressHash",
                      "type": "bytes32"
                    },
                    {
                      "internalType": "int256",
                      "name": "spentAmount",
                      "type": "int256"
                    },
                    {
                      "internalType": "bytes32",
                      "name": "standardPaymentReference",
                      "type": "bytes32"
                    }
                  ],
                  "internalType": "struct IBalanceDecreasingTransaction.ResponseBody",
                  "name": "responseBody",
                  "type": "tuple"
                }
              ],
              "internalType": "struct IBalanceDecreasingTransaction.Response",
              "name": "data",
              "type": "tuple"
            }
          ],
          "internalType": "struct IBalanceDecreasingTransaction.Proof",
          "name": "_payment2",
          "type": "tuple"
        },
        {
          "internalType": "address",
          "name": "_agentVault",
          "type": "address"
        }
      ],
      "name": "doublePaymentChallenge",
      "outputs": [],
      "stateMutability": "nonpayable",
      "type": "function"
    },
    {
      "inputs": [
        {
          "components": [
            {
              "internalType": "bytes32[]",
              "name": "merkleProof",
              "type": "bytes32[]"
            },
            {
              "components": [
                {
                  "internalType": "bytes32",
                  "name": "attestationType",
                  "type": "bytes32"
                },
                {
                  "internalType": "bytes32",
                  "name": "sourceId",
                  "type": "bytes32"
                },
                {
                  "internalType": "uint64",
                  "name": "votingRound",
                  "type": "uint64"
                },
                {
                  "internalType": "uint64",
                  "name": "lowestUsedTimestamp",
                  "type": "uint64"
                },
                {
                  "components": [
                    {
                      "internalType": "bytes32",
                      "name": "transactionId",
                      "type": "bytes32"
                    },
                    {
                      "internalType": "bytes32",
                      "name": "sourceAddressIndicator",
                      "type": "bytes32"
                    }
                  ],
                  "internalType": "struct IBalanceDecreasingTransaction.RequestBody",
                  "name": "requestBody",
                  "type": "tuple"
                },
                {
                  "components": [
                    {
                      "internalType": "uint64",
                      "name": "blockNumber",
                      "type": "uint64"
                    },
                    {
                      "internalType": "uint64",
                      "name": "blockTimestamp",
                      "type": "uint64"
                    },
                    {
                      "internalType": "bytes32",
                      "name": "sourceAddressHash",
                      "type": "bytes32"
                    },
                    {
                      "internalType": "int256",
                      "name": "spentAmount",
                      "type": "int256"
                    },
                    {
                      "internalType": "bytes32",
                      "name": "standardPaymentReference",
                      "type": "bytes32"
                    }
                  ],
                  "internalType": "struct IBalanceDecreasingTransaction.ResponseBody",
                  "name": "responseBody",
                  "type": "tuple"
                }
              ],
              "internalType": "struct IBalanceDecreasingTransaction.Response",
              "name": "data",
              "type": "tuple"
            }
          ],
          "internalType": "struct IBalanceDecreasingTransaction.Proof[]",
          "name": "_payments",
          "type": "tuple[]"
        },
        {
          "internalType": "address",
          "name": "_agentVault",
          "type": "address"
        }
      ],
      "name": "freeBalanceNegativeChallenge",
      "outputs": [],
      "stateMutability": "nonpayable",
      "type": "function"
    },
    {
      "inputs": [
        {
          "components": [
            {
              "internalType": "bytes32[]",
              "name": "merkleProof",
              "type": "bytes32[]"
            },
            {
              "components": [
                {
                  "internalType": "bytes32",
                  "name": "attestationType",
                  "type": "bytes32"
                },
                {
                  "internalType": "bytes32",
                  "name": "sourceId",
                  "type": "bytes32"
                },
                {
                  "internalType": "uint64",
                  "name": "votingRound",
                  "type": "uint64"
                },
                {
                  "internalType": "uint64",
                  "name": "lowestUsedTimestamp",
                  "type": "uint64"
                },
                {
                  "components": [
                    {
                      "internalType": "bytes32",
                      "name": "transactionId",
                      "type": "bytes32"
                    },
                    {
                      "internalType": "bytes32",
                      "name": "sourceAddressIndicator",
                      "type": "bytes32"
                    }
                  ],
                  "internalType": "struct IBalanceDecreasingTransaction.RequestBody",
                  "name": "requestBody",
                  "type": "tuple"
                },
                {
                  "components": [
                    {
                      "internalType": "uint64",
                      "name": "blockNumber",
                      "type": "uint64"
                    },
                    {
                      "internalType": "uint64",
                      "name": "blockTimestamp",
                      "type": "uint64"
                    },
                    {
                      "internalType": "bytes32",
                      "name": "sourceAddressHash",
                      "type": "bytes32"
                    },
                    {
                      "internalType": "int256",
                      "name": "spentAmount",
                      "type": "int256"
                    },
                    {
                      "internalType": "bytes32",
                      "name": "standardPaymentReference",
                      "type": "bytes32"
                    }
                  ],
                  "internalType": "struct IBalanceDecreasingTransaction.ResponseBody",
                  "name": "responseBody",
                  "type": "tuple"
                }
              ],
              "internalType": "struct IBalanceDecreasingTransaction.Response",
              "name": "data",
              "type": "tuple"
            }
          ],
          "internalType": "struct IBalanceDecreasingTransaction.Proof",
          "name": "_payment",
          "type": "tuple"
        },
        {
          "internalType": "address",
          "name": "_agentVault",
          "type": "address"
        }
      ],
      "name": "illegalPaymentChallenge",
      "outputs": [],
      "stateMutability": "nonpayable",
      "type": "function"
    }
  ],
  "bytecode": "0x6080604052348015600f57600080fd5b50611caf8061001f6000396000f3fe608060405234801561001057600080fd5b50600436106100415760003560e01c806366a37046146100465780637e7bfdc61461005b578063eb81ca631461006e575b600080fd5b610059610054366004611629565b610081565b005b610059610069366004611676565b610282565b61005961007c3660046116fa565b61052a565b61008b600261068a565b6100936106d9565b600080516020611c3a83398151915260006100ad83610711565b90506100b88161079a565b6100c184610806565b6003810154610120850135146100ea57604051635d6f8fe760e11b815260040160405180910390fd5b6100f7600b830185610911565b1561011557604051630c5ce4c960e11b815260040160405180910390fd5b6101608401358015610200576101368167232128293320800160c11b61095a565b156101a257600061014682610992565b6000818152600a8601602052604081206004810154929350916001600160a01b03888116911614801561017d575061017d826109ab565b9050801561019e5760405163146528d760e01b815260040160405180910390fd5b5050505b6101b78167464250526641000360c01b61095a565b156102005760006101c782610992565b6006840154909150600160c01b90046001600160401b031681036101fe57604051633048562d60e21b815260040160405180910390fd5b505b60058201546102229083903390600160401b90046001600160401b03166109f5565b60405160a086013581526001600160a01b038516907f874b3e56440a065ac7740d39114a84e127ccd3d20311567b84878685710506b59060200160405180910390a250505061027e6001600080516020611c5a83398151915255565b5050565b61028c600261068a565b6102946106d9565b600080516020611c3a83398151915260006102ae83610711565b90506102b98161079a565b6000805b8581101561044e57368787838181106102d8576102d8611768565b90506020028101906102ea919061177e565b90506102f581610806565b60005b828110156103525760a082013589898381811061031757610317611768565b9050602002810190610329919061177e565b60a001350361034a5760405162df838760e81b815260040160405180910390fd5b6001016102f8565b5060038401546101208201351461037c57604051635d6f8fe760e11b815260040160405180910390fd5b610389600b860182610911565b156103945750610446565b6101608101356103af8167232128293320800160c11b61095a565b156104315760006103c4610160840135610992565b6000818152600a8901602052604081209192506103e0826109ab565b6103eb5760006103fa565b60018201546001600160801b03165b6001600160801b0316905061040e81610a87565b61041d906101408701356117b5565b61042790886117d5565b9650505050610443565b610440610140830135856117d5565b93505b50505b6001016102bd565b50600682015460009061046c908390600160401b9004600f0b6117b5565b9050600061047984610afa565b905061048481610a87565b82126104a3576040516355b7babd60e11b815260040160405180910390fd5b60058401546104c59085903390600160401b90046001600160401b03166109f5565b60408051838152602081018390526001600160a01b038816917f3232fdbb55664d655aff08d1cc31318b51047d1178a5cea499006d9f9d4c07ae910160405180910390a250505050506105256001600080516020611c5a83398151915255565b505050565b610534600261068a565b61053c6106d9565b600061054782610711565b90506105528161079a565b61055b84610806565b61056483610806565b60a080840135908501350361058b5760405162df838760e81b815260040160405180910390fd5b6003810154610120850135146105b457604051635d6f8fe760e11b815260040160405180910390fd5b6003810154610120840135146105dd57604051635d6f8fe760e11b815260040160405180910390fd5b6101608481013590840135146106065760405163f66c991d60e01b815260040160405180910390fd5b60058101546106289082903390600160401b90046001600160401b03166109f5565b6040805160a086810135825285013560208201526001600160a01b038416917f8ffdcc5d703424623d5d4b95aa3551030ae55d7925aea68e0d9dd8ddf8cf1d44910160405180910390a2506105256001600080516020611c5a83398151915255565b600081600381111561069e5761069e6117fd565b6106a6610b76565b60038111156106b7576106b76117fd565b108015915061027e5760405163909b191760e01b815260040160405180910390fd5b600080516020611c5a83398151915280546001190161070b57604051633ee5aeb560e01b815260040160405180910390fd5b60029055565b604081901b68010000000000000000600160e01b0316600080516020611c1a8339815191521860048101546000919060ff1682816005811115610756576107566117fd565b1415801561077657506005816005811115610773576107736117fd565b14155b6107935760405163d68a46c560e01b815260040160405180910390fd5b5092915050565b600481015460ff1660038160058111156107b6576107b66117fd565b036107d45760405163010345fd60e41b815260040160405180910390fd5b60048160058111156107e8576107e86117fd565b0361027e57604051633bc8990160e21b815260040160405180910390fd5b7f4f24f5c433db0962dac0d2c8b84197a6e6c7cc4e5d9ebe1916a1b6193da2f342547f4f24f5c433db0962dac0d2c8b84197a6e6c7cc4e5d9ebe1916a1b6193da2f34554600080516020611bfa833981519152916001600160a01b0316906040840135146108875760405163057f3fa760e51b815260040160405180910390fd5b604051636ec659c760e01b81526001600160a01b03821690636ec659c7906108b39086906004016118d6565b602060405180830381865afa1580156108d0573d6000803e3d6000fd5b505050506040513d601f19601f820116820180604052508101906108f4919061196b565b610525576040516371095c2760e01b815260040160405180910390fd5b6040805161012083013560208083019190915260a08401358284015282518083038401815260609092018352815191810191909120600090815290849052205415155b92915050565b60006001600160c01b03198316816109776001600160c01b61198d565b85169050818414801561098957508015155b95945050505050565b60006109a36001600160c01b61198d565b909116919050565b6004810154600090600160a01b900460ff1660018160068111156109d1576109d16117fd565b14806109ee575060028160068111156109ec576109ec6117fd565b145b9392505050565b600080516020611bfa833981519152610a0d84610bc7565b6000610a1885610cc3565b600f830154909150600090610a39908590600160901b900461ffff16610daf565b6010840154909150600090610a589088906001600160801b0316610dbe565b610a66838560400151610dd2565b610a7091906119a0565b9050610a7d878783610dec565b5050505050505050565b60006001600160ff1b03821115610af65760405162461bcd60e51b815260206004820152602860248201527f53616665436173743a2076616c756520646f65736e27742066697420696e2061604482015267371034b73a191a9b60c11b60648201526084015b60405180910390fd5b5090565b7f4f24f5c433db0962dac0d2c8b84197a6e6c7cc4e5d9ebe1916a1b6193da2f346546005820154600091600080516020611bfa83398151915291600160901b9091046001600160401b0390811691610b6391600160801b8204811691600160401b9004166119b3565b6001600160401b03166109ee91906119d2565b600080610b81610f01565b90506000610b8d610f69565b9050816003811115610ba157610ba16117fd565b816003811115610bb357610bb36117fd565b11610bbe5781610bc0565b805b9250505090565b6003600482015460ff166005811115610be257610be26117fd565b1480610c05575060048082015460ff166005811115610c0357610c036117fd565b145b15610c0d5750565b6004810154600160a81b90046001600160401b0316600003610c5b57610c3242610fd1565b8160040160156101000a8154816001600160401b0302191690836001600160401b031602179055505b60048101805460ff19166003179055600080516020611c1a833981519152811860401c6001600160a01b03167fa3bf539465c1a8746950e123769affaff9097155e9e8cb9e079e1d55d6ba349742604051610cb891815260200190565b60405180910390a250565b610ce86040805160608101909152806000815260200160008152602001600081525090565b6000610cf383611039565b6040805160608101909152909150806000815282546020909101906001600160a01b03166370a08231600080516020611c1a833981519152871860401c6040516001600160e01b031960e084901b1681526001600160a01b039091166004820152602401602060405180830381865afa158015610d74573d6000803e3d6000fd5b505050506040513d601f19601f82011682018060405250810190610d9891906119e9565b8152602001610da683611086565b90529392505050565b60006109ee838361271061109c565b60006109ee82610dcd85611039565b6111a0565b60006109ee82610de46009600a611ae9565b85919061109c565b600080610df885611039565b90506000600080516020611c1a833981519152861860401c82546040516370a0823160e01b81526001600160a01b038084166004830152929350610e8992879216906370a0823190602401602060405180830381865afa158015610e60573d6000803e3d6000fd5b505050506040513d601f19601f82011682018060405250810190610e8491906119e9565b6112aa565b825460405163083e007560e21b81526001600160a01b0391821660048201528782166024820152604481018390529194508216906320f801d490606401600060405180830381600087803b158015610ee057600080fd5b505af1158015610ef4573d6000803e3d6000fd5b5050505050509392505050565b7fec7e8c1c441439dd40959777f4c577ea0cd42fcc1dbe59d2bd0f5d9c55df8dc654600090600080516020611c3a8339815191529042600160401b9091046001600160401b03161180610f55576000610bc0565b5060110154600160901b900460ff16919050565b7fec7e8c1c441439dd40959777f4c577ea0cd42fcc1dbe59d2bd0f5d9c55df8dc754600090600080516020611c3a8339815191529042600160a01b9091046001600160401b03161180610fbd576000610bc0565b5060110154600160981b900460ff16919050565b60006001600160401b03821115610af65760405162461bcd60e51b815260206004820152602660248201527f53616665436173743a2076616c756520646f65736e27742066697420696e203660448201526534206269747360d01b6064820152608401610aed565b600080600080516020611c3a83398151915260048401548154919250829161010090910461ffff1690811061107057611070611768565b9060005260206000209060040201915050919050565b60006110938260006112c0565b50909392505050565b60008082116110be576040516323d359a360e01b815260040160405180910390fd5b836000036110ce575060006109ee565b838302838582816110e1576110e1611af5565b04036110ff578281816110f6576110f6611af5565b049150506109ee565b50600061110c8386611b0b565b9050600061111a8487611b1f565b905060006111288587611b0b565b905060006111368688611b1f565b90508561114382856119d2565b61114d9190611b0b565b61115783856119d2565b61116183876119d2565b8861116c86896119d2565b61117691906119d2565b61118091906119a0565b61118a91906119a0565b61119491906119a0565b98975050505050505050565b60008160020180546111b190611b33565b90506000036111c1575081610954565b60008061125b8460020180546111d690611b33565b80601f016020809104026020016040519081016040528092919081815260200182805461120290611b33565b801561124f5780601f106112245761010080835404028352916020019161124f565b820191906000526020600020905b81548152906001019060200180831161123257829003601f168201915b5050505050600061147f565b865492945092506000916005915061127e908490600160a81b900460ff166119a0565b611288919061198d565b90506112a061129882600a611ae9565b87908561109c565b9695505050505050565b60008183106112b957816109ee565b5090919050565b60008060008060008061135f8860010180546112db90611b33565b80601f016020809104026020016040519081016040528092919081815260200182805461130790611b33565b80156113545780601f1061132957610100808354040283529160200191611354565b820191906000526020600020905b81548152906001019060200180831161133757829003601f168201915b50505050508861147f565b8a549295509093509150600160f01b900460ff16156113a657875460009061139590600160a81b900460ff16600183878661156d565b965091945084935061147892505050565b60008060006114418b60020180546113bd90611b33565b80601f01602080910402602001604051908101604052809291908181526020018280546113e990611b33565b80156114365780601f1061140b57610100808354040283529160200191611436565b820191906000526020600020905b81548152906001019060200180831161141957829003601f168201915b50505050508b61147f565b8d54929550909350915060009061146590600160a81b900460ff1685848a8961156d565b9950949750909550611478945050505050565b9250925092565b7f4f24f5c433db0962dac0d2c8b84197a6e6c7cc4e5d9ebe1916a1b6193da2f3445460009081908190600080516020611bfa833981519152906001600160a01b031685156115415760405163e4a0a55b60e01b81526001600160a01b0382169063e4a0a55b906114f3908a90600401611b67565b606060405180830381865afa158015611510573d6000803e3d6000fd5b505050506040513d601f19601f820116820180604052508101906115349190611bb5565b9450945094505050611478565b60405163524f388960e01b81526001600160a01b0382169063524f3889906114f3908a90600401611b67565b6000600080516020611bfa83398151915281600961158b878a6119a0565b61159591906119a0565b600a8301549091506000906115b5908690600160a81b900460ff166119a0565b9050808210156115c7576115c7611be3565b6115e76115d4828461198d565b6115df90600a611ae9565b87908a61109c565b9998505050505050505050565b6000610180828403121561160757600080fd5b50919050565b80356001600160a01b038116811461162457600080fd5b919050565b6000806040838503121561163c57600080fd5b82356001600160401b0381111561165257600080fd5b61165e858286016115f4565b92505061166d6020840161160d565b90509250929050565b60008060006040848603121561168b57600080fd5b83356001600160401b038111156116a157600080fd5b8401601f810186136116b257600080fd5b80356001600160401b038111156116c857600080fd5b8660208260051b84010111156116dd57600080fd5b6020918201945092506116f190850161160d565b90509250925092565b60008060006060848603121561170f57600080fd5b83356001600160401b0381111561172557600080fd5b611731868287016115f4565b93505060208401356001600160401b0381111561174d57600080fd5b611759868287016115f4565b9250506116f16040850161160d565b634e487b7160e01b600052603260045260246000fd5b6000823561017e1983360301811261179557600080fd5b9190910192915050565b634e487b7160e01b600052601160045260246000fd5b81810360008312801583831316838312821617156107935761079361179f565b80820182811260008312801582168215821617156117f5576117f561179f565b505092915050565b634e487b7160e01b600052602160045260246000fd5b80356001600160401b038116811461162457600080fd5b80358252602080820135908301526001600160401b0361184c60408301611813565b1660408301526001600160401b0361186660608301611813565b1660608301526080818101359083015260a080820135908301526001600160401b0361189460c08301611813565b1660c08301526001600160401b036118ae60e08301611813565b1660e08301526101008181013590830152610120808201359083015261014090810135910152565b6020815260008235601e198436030181126118f057600080fd5b83016020810190356001600160401b0381111561190c57600080fd5b8060051b80360383131561191f57600080fd5b61018060208601526101a085018290526001600160fb1b0382111561194357600080fd5b80836101c087013761195b604086016020880161182a565b939093016101c001949350505050565b60006020828403121561197d57600080fd5b815180151581146109ee57600080fd5b818103818111156109545761095461179f565b808201808211156109545761095461179f565b6001600160401b0381811683821601908111156109545761095461179f565b80820281158282048414176109545761095461179f565b6000602082840312156119fb57600080fd5b5051919050565b6001815b6001841115611a3d57808504811115611a2157611a2161179f565b6001841615611a2f57908102905b60019390931c928002611a06565b935093915050565b600082611a5457506001610954565b81611a6157506000610954565b8160018114611a775760028114611a8157611a9d565b6001915050610954565b60ff841115611a9257611a9261179f565b50506001821b610954565b5060208310610133831016604e8410600b8410161715611ac0575081810a610954565b611acd6000198484611a02565b8060001904821115611ae157611ae161179f565b029392505050565b60006109ee8383611a45565b634e487b7160e01b600052601260045260246000fd5b600082611b1a57611b1a611af5565b500490565b600082611b2e57611b2e611af5565b500690565b600181811c90821680611b4757607f821691505b60208210810361160757634e487b7160e01b600052602260045260246000fd5b602081526000825180602084015260005b81811015611b955760208186018101516040868401015201611b78565b506000604082850101526040601f19601f83011684010191505092915050565b600080600060608486031215611bca57600080fd5b5050815160208301516040909301519094929350919050565b634e487b7160e01b600052600160045260246000fdfe4f24f5c433db0962dac0d2c8b84197a6e6c7cc4e5d9ebe1916a1b6193da2f33a5bebac0595fee029d42bb673937f5f1cb81cf8641382bc17774635de9b7d7965ec7e8c1c441439dd40959777f4c577ea0cd42fcc1dbe59d2bd0f5d9c55df8db60cd2207518cd3e5213e2c6dbe63d55b60aa893c194a427b7d7f1600408fd5bdea264697066735822122031d314d9f2380cb78c0dd68d84afcc2b610e64b919eed9141dbc5fec1149686d64736f6c634300081b0033",
  "linkReferences": {},
  "deployedLinkReferences": {}
}