{
  "_format": "hh-sol-artifact-1",
  "contractName": "FakePriceReader",
  "sourceName": "contracts/ftso/mock/FakePriceReader.sol",
  "abi": [
    {
      "inputs": [
        {
          "internalType": "address",
          "name": "_provider",
          "type": "address"
        }
      ],
      "stateMutability": "nonpayable",
      "type": "constructor"
    },
    {
      "anonymous": false,
      "inputs": [
        {
          "indexed": true,
          "internalType": "uint32",
          "name": "votingRoundId",
          "type": "uint32"
        }
      ],
      "name": "PricesPublished",
      "type": "event"
    },
    {
      "inputs": [],
      "name": "finalizePrices",
      "outputs": [],
      "stateMutability": "nonpayable",
      "type": "function"
    },
    {
      "inputs": [
        {
          "internalType": "string",
          "name": "_symbol",
          "type": "string"
        }
      ],
      "name": "getPrice",
      "outputs": [
        {
          "internalType": "uint256",
          "name": "_price",
          "type": "uint256"
        },
        {
          "internalType": "uint256",
          "name": "_timestamp",
          "type": "uint256"
        },
        {
          "internalType": "uint256",
          "name": "_priceDecimals",
          "type": "uint256"
        }
      ],
      "stateMutability": "view",
      "type": "function"
    },
    {
      "inputs": [
        {
          "internalType": "string",
          "name": "_symbol",
          "type": "string"
        }
      ],
      "name": "getPriceFromTrustedProviders",
      "outputs": [
        {
          "internalType": "uint256",
          "name": "_price",
          "type": "uint256"
        },
        {
          "internalType": "uint256",
          "name": "_timestamp",
          "type": "uint256"
        },
        {
          "internalType": "uint256",
          "name": "_priceDecimals",
          "type": "uint256"
        }
      ],
      "stateMutability": "view",
      "type": "function"
    },
    {
      "inputs": [
        {
          "internalType": "string",
          "name": "_symbol",
          "type": "string"
        }
      ],
      "name": "getPriceFromTrustedProvidersWithQuality",
      "outputs": [
        {
          "internalType": "uint256",
          "name": "_price",
          "type": "uint256"
        },
        {
          "internalType": "uint256",
          "name": "_timestamp",
          "type": "uint256"
        },
        {
          "internalType": "uint256",
          "name": "_priceDecimals",
          "type": "uint256"
        },
        {
          "internalType": "uint8",
          "name": "_numberOfSubmits",
          "type": "uint8"
        }
      ],
      "stateMutability": "view",
      "type": "function"
    },
    {
      "inputs": [],
      "name": "provider",
      "outputs": [
        {
          "internalType": "address",
          "name": "",
          "type": "address"
        }
      ],
      "stateMutability": "view",
      "type": "function"
    },
    {
      "inputs": [
        {
          "internalType": "string",
          "name": "_symbol",
          "type": "string"
        },
        {
          "internalType": "uint256",
          "name": "_decimals",
          "type": "uint256"
        }
      ],
      "name": "setDecimals",
      "outputs": [],
      "stateMutability": "nonpayable",
      "type": "function"
    },
    {
      "inputs": [
        {
          "internalType": "string",
          "name": "_symbol",
          "type": "string"
        },
        {
          "internalType": "uint256",
          "name": "_price",
          "type": "uint256"
        }
      ],
      "name": "setPrice",
      "outputs": [],
      "stateMutability": "nonpayable",
      "type": "function"
    },
    {
      "inputs": [
        {
          "internalType": "string",
          "name": "_symbol",
          "type": "string"
        },
        {
          "internalType": "uint256",
          "name": "_price",
          "type": "uint256"
        }
      ],
      "name": "setPriceFromTrustedProviders",
      "outputs": [],
      "stateMutability": "nonpayable",
      "type": "function"
    },
    {
      "inputs": [
        {
          "internalType": "bytes4",
          "name": "_interfaceId",
          "type": "bytes4"
        }
      ],
      "name": "supportsInterface",
      "outputs": [
        {
          "internalType": "bool",
          "name": "",
          "type": "bool"
        }
      ],
      "stateMutability": "pure",
      "type": "function"
    }
  ],
  "bytecode": "0x6080604052348015600f57600080fd5b506040516108d73803806108d7833981016040819052602c916050565b600080546001600160a01b0319166001600160a01b0392909216919091179055607e565b600060208284031215606157600080fd5b81516001600160a01b0381168114607757600080fd5b9392505050565b61084a8061008d6000396000f3fe608060405234801561001057600080fd5b50600436106100935760003560e01c8063524f388911610066578063524f388914610108578063dd44aa1f14610136578063e3cf295614610149578063e4a0a55b1461015c578063e731a1bc1461016f57600080fd5b806301ffc9a714610098578063085d4883146100c057806322e01192146100eb5780632ba265ed14610100575b600080fd5b6100ab6100a6366004610666565b6101a5565b60405190151581526020015b60405180910390f35b6000546100d3906001600160a01b031681565b6040516001600160a01b0390911681526020016100b7565b6100fe6100f936600461073c565b6101ef565b005b6100fe610298565b61011b610116366004610781565b6102ef565b604080519384526020840192909252908201526060016100b7565b6100fe61014436600461073c565b61032e565b6100fe61015736600461073c565b6103d1565b61011b61016a366004610781565b61043b565b61018261017d366004610781565b61047b565b6040805194855260208501939093529183015260ff1660608201526080016100b7565b60006001600160e01b031982166301ffc9a760e01b14806101d657506001600160e01b031982166328ef1e3760e11b145b806101e957506001600160e01b03198216155b92915050565b6000546001600160a01b031633146102225760405162461bcd60e51b8152600401610219906107be565b60405180910390fd5b600061022d836104c1565b90506102388261052f565b81546001600160801b03919091166101000270ffffffffffffffffffffffffffffffff001990911617815561026c4261059c565b815467ffffffffffffffff91909116600160881b0267ffffffffffffffff60881b199091161790555050565b6000546001600160a01b031633146102c25760405162461bcd60e51b8152600401610219906107be565b6040516000907f46e3fc5e4e4ccb87b783c134ecaf8dc9e6207f10034ec05f74c24007fcc2e2d1908290a2565b6000806000806102fe856104c1565b5461010081046001600160801b031696600160881b820467ffffffffffffffff16965060ff909116945092505050565b6000546001600160a01b031633146103585760405162461bcd60e51b8152600401610219906107be565b6000610363836104c1565b905061036e8261052f565b6001820180546fffffffffffffffffffffffffffffffff19166001600160801b03929092169190911790556103a24261059c565b8160010160106101000a81548167ffffffffffffffff021916908367ffffffffffffffff160217905550505050565b6000546001600160a01b031633146103fb5760405162461bcd60e51b8152600401610219906107be565b61040481610605565b60018360405161041491906107e5565b908152604051908190036020019020805460ff9290921660ff199092169190911790555050565b60008060008061044a856104c1565b600181015490546001600160801b03821697600160801b90920467ffffffffffffffff16965060ff16945092505050565b600080600080600061048c866104c1565b600181015490546001600160801b03821698600160801b90920467ffffffffffffffff16975060ff1695506000945092505050565b6000806001836040516104d491906107e5565b908152604051908190036020019020805490915060ff166101e95760405162461bcd60e51b81526020600482015260156024820152741c1c9a58d9481b9bdd081a5b9a5d1a585b1a5e9959605a1b6044820152606401610219565b60006001600160801b038211156105985760405162461bcd60e51b815260206004820152602760248201527f53616665436173743a2076616c756520646f65736e27742066697420696e20316044820152663238206269747360c81b6064820152608401610219565b5090565b600067ffffffffffffffff8211156105985760405162461bcd60e51b815260206004820152602660248201527f53616665436173743a2076616c756520646f65736e27742066697420696e203660448201526534206269747360d01b6064820152608401610219565b600060ff8211156105985760405162461bcd60e51b815260206004820152602560248201527f53616665436173743a2076616c756520646f65736e27742066697420696e2038604482015264206269747360d81b6064820152608401610219565b60006020828403121561067857600080fd5b81356001600160e01b03198116811461069057600080fd5b9392505050565b634e487b7160e01b600052604160045260246000fd5b600082601f8301126106be57600080fd5b813567ffffffffffffffff8111156106d8576106d8610697565b604051601f8201601f19908116603f0116810167ffffffffffffffff8111828210171561070757610707610697565b60405281815283820160200185101561071f57600080fd5b816020850160208301376000918101602001919091529392505050565b6000806040838503121561074f57600080fd5b823567ffffffffffffffff81111561076657600080fd5b610772858286016106ad565b95602094909401359450505050565b60006020828403121561079357600080fd5b813567ffffffffffffffff8111156107aa57600080fd5b6107b6848285016106ad565b949350505050565b6020808252600d908201526c37b7363c90383937bb34b232b960991b604082015260600190565b6000825160005b8181101561080657602081860181015185830152016107ec565b50600092019182525091905056fea2646970667358221220f26e3ad1de16d594f30205ac10734e25072f44ab204fc7b37c66f41683baf5df64736f6c634300081b0033",
  "linkReferences": {},
  "deployedLinkReferences": {}
}