{
  "_format": "hh-sol-artifact-1",
  "contractName": "AgentPingFacet",
  "sourceName": "contracts/assetManager/facets/AgentPingFacet.sol",
  "abi": [
    {
      "anonymous": false,
      "inputs": [
        {
          "indexed": true,
          "internalType": "address",
          "name": "agentVault",
          "type": "address"
        },
        {
          "indexed": true,
          "internalType": "address",
          "name": "sender",
          "type": "address"
        },
        {
          "indexed": false,
          "internalType": "uint256",
          "name": "query",
          "type": "uint256"
        }
      ],
      "name": "AgentPing",
      "type": "event"
    },
    {
      "anonymous": false,
      "inputs": [
        {
          "indexed": true,
          "internalType": "address",
          "name": "agentVault",
          "type": "address"
        },
        {
          "indexed": true,
          "internalType": "address",
          "name": "owner",
          "type": "address"
        },
        {
          "indexed": false,
          "internalType": "uint256",
          "name": "query",
          "type": "uint256"
        },
        {
          "indexed": false,
          "internalType": "string",
          "name": "response",
          "type": "string"
        }
      ],
      "name": "AgentPingResponse",
      "type": "event"
    },
    {
      "inputs": [
        {
          "internalType": "address",
          "name": "_agentVault",
          "type": "address"
        },
        {
          "internalType": "uint256",
          "name": "_query",
          "type": "uint256"
        }
      ],
      "name": "agentPing",
      "outputs": [],
      "stateMutability": "nonpayable",
      "type": "function"
    },
    {
      "inputs": [
        {
          "internalType": "address",
          "name": "_agentVault",
          "type": "address"
        },
        {
          "internalType": "uint256",
          "name": "_query",
          "type": "uint256"
        },
        {
          "internalType": "string",
          "name": "_response",
          "type": "string"
        }
      ],
      "name": "agentPingResponse",
      "outputs": [],
      "stateMutability": "nonpayable",
      "type": "function"
    }
  ],
  "bytecode": "0x6080604052348015600f57600080fd5b506104ee8061001f6000396000f3fe608060405234801561001057600080fd5b50600436106100365760003560e01c8063578558ac1461003b578063e11112ab14610050575b600080fd5b61004e610049366004610319565b610063565b005b61004e61005e36600461035b565b6100a7565b60405181815233906001600160a01b038416907f930d58454e0712650191995b99df264671955eb5539e2ca62e725e9aa4b699c99060200160405180910390a35050565b826100b181610115565b60006100bc85610174565b60018101546040519192506001600160a01b0390811691908716907f46614006385e99b674e4123f95f527c520a01e4f04e5985e63c85607f2777e6e906101069088908890610430565b60405180910390a35050505050565b61012761012182610174565b3361021b565b6101715760405162461bcd60e51b815260206004820152601660248201527537b7363c9030b3b2b73a103b30bab63a1037bbb732b960511b60448201526064015b60405180910390fd5b50565b7f5bebac0595fee029d42bb673937f5f1cb81cf8641382bc17774635de9b7d796568010000000000000000600160e01b03604083901b161880600060048084015460ff16908111156101c8576101c8610485565b036102155760405162461bcd60e51b815260206004820152601b60248201527f696e76616c6964206167656e74207661756c74206164647265737300000000006044820152606401610168565b50919050565b60018201546000906001600160a01b038381169116148061025557506102408361025c565b6001600160a01b0316826001600160a01b0316145b9392505050565b600061028f7f4f24f5c433db0962dac0d2c8b84197a6e6c7cc4e5d9ebe1916a1b6193da2f341546001600160a01b031690565b6001830154604051631f86345d60e31b81526001600160a01b03918216600482015291169063fc31a2e890602401602060405180830381865afa1580156102da573d6000803e3d6000fd5b505050506040513d601f19601f820116820180604052508101906102fe919061049b565b92915050565b6001600160a01b038116811461017157600080fd5b6000806040838503121561032c57600080fd5b823561033781610304565b946020939093013593505050565b634e487b7160e01b600052604160045260246000fd5b60008060006060848603121561037057600080fd5b833561037b81610304565b925060208401359150604084013567ffffffffffffffff81111561039e57600080fd5b8401601f810186136103af57600080fd5b803567ffffffffffffffff8111156103c9576103c9610345565b604051601f8201601f19908116603f0116810167ffffffffffffffff811182821017156103f8576103f8610345565b60405281815282820160200188101561041057600080fd5b816020840160208301376000602083830101528093505050509250925092565b828152604060208201526000825180604084015260005b818110156104645760208186018101516060868401015201610447565b506000606082850101526060601f19601f8301168401019150509392505050565b634e487b7160e01b600052602160045260246000fd5b6000602082840312156104ad57600080fd5b81516102558161030456fea26469706673582212208a2b49b6248468803284c8036797838c5e262d7b8fc2731a2e33854fb5691bdb64736f6c634300081b0033",
  "linkReferences": {},
  "deployedLinkReferences": {}
}