{
  "_format": "hh-sol-artifact-1",
  "contractName": "AgentPingFacet",
  "sourceName": "contracts/assetManager/facets/AgentPingFacet.sol",
  "abi": [
    {
      "inputs": [],
      "name": "EmergencyPauseActive",
      "type": "error"
    },
    {
      "inputs": [],
      "name": "InvalidAgentVaultAddress",
      "type": "error"
    },
    {
      "inputs": [],
      "name": "NotAttached",
      "type": "error"
    },
    {
      "inputs": [],
      "name": "NotWhitelisted",
      "type": "error"
    },
    {
      "inputs": [],
      "name": "OnlyAgentVaultOwner",
      "type": "error"
    },
    {
      "inputs": [],
      "name": "OnlyAssetManagerController",
      "type": "error"
    },
    {
      "anonymous": false,
      "inputs": [
        {
          "indexed": true,
          "internalType": "address",
          "name": "agentVault",
          "type": "address"
        },
        {
          "indexed": true,
          "internalType": "address",
          "name": "sender",
          "type": "address"
        },
        {
          "indexed": false,
          "internalType": "uint256",
          "name": "query",
          "type": "uint256"
        }
      ],
      "name": "AgentPing",
      "type": "event"
    },
    {
      "anonymous": false,
      "inputs": [
        {
          "indexed": true,
          "internalType": "address",
          "name": "agentVault",
          "type": "address"
        },
        {
          "indexed": true,
          "internalType": "address",
          "name": "owner",
          "type": "address"
        },
        {
          "indexed": false,
          "internalType": "uint256",
          "name": "query",
          "type": "uint256"
        },
        {
          "indexed": false,
          "internalType": "string",
          "name": "response",
          "type": "string"
        }
      ],
      "name": "AgentPingResponse",
      "type": "event"
    },
    {
      "inputs": [
        {
          "internalType": "address",
          "name": "_agentVault",
          "type": "address"
        },
        {
          "internalType": "uint256",
          "name": "_query",
          "type": "uint256"
        }
      ],
      "name": "agentPing",
      "outputs": [],
      "stateMutability": "nonpayable",
      "type": "function"
    },
    {
      "inputs": [
        {
          "internalType": "address",
          "name": "_agentVault",
          "type": "address"
        },
        {
          "internalType": "uint256",
          "name": "_query",
          "type": "uint256"
        },
        {
          "internalType": "string",
          "name": "_response",
          "type": "string"
        }
      ],
      "name": "agentPingResponse",
      "outputs": [],
      "stateMutability": "nonpayable",
      "type": "function"
    }
  ],
  "bytecode": "0x6080604052348015600f57600080fd5b506104b58061001f6000396000f3fe608060405234801561001057600080fd5b50600436106100365760003560e01c8063578558ac1461003b578063e11112ab14610050575b600080fd5b61004e6100493660046102e0565b610063565b005b61004e61005e366004610322565b6100a7565b60405181815233906001600160a01b038416907f930d58454e0712650191995b99df264671955eb5539e2ca62e725e9aa4b699c99060200160405180910390a35050565b826100b181610115565b60006100bc85610147565b60018101546040519192506001600160a01b0390811691908716907f46614006385e99b674e4123f95f527c520a01e4f04e5985e63c85607f2777e6e9061010690889088906103f7565b60405180910390a35050505050565b61012761012182610147565b336101e2565b6101445760405163f6e2f99b60e01b815260040160405180910390fd5b50565b604081901b68010000000000000000600160e01b03167f5bebac0595fee029d42bb673937f5f1cb81cf8641382bc17774635de9b7d79651860048101546000919060ff168281600581111561019e5761019e61044c565b141580156101be575060058160058111156101bb576101bb61044c565b14155b6101db5760405163d68a46c560e01b815260040160405180910390fd5b5092915050565b60018201546000906001600160a01b038381169116148061021c575061020783610223565b6001600160a01b0316826001600160a01b0316145b9392505050565b60006102567f4f24f5c433db0962dac0d2c8b84197a6e6c7cc4e5d9ebe1916a1b6193da2f341546001600160a01b031690565b6001830154604051631f86345d60e31b81526001600160a01b03918216600482015291169063fc31a2e890602401602060405180830381865afa1580156102a1573d6000803e3d6000fd5b505050506040513d601f19601f820116820180604052508101906102c59190610462565b92915050565b6001600160a01b038116811461014457600080fd5b600080604083850312156102f357600080fd5b82356102fe816102cb565b946020939093013593505050565b634e487b7160e01b600052604160045260246000fd5b60008060006060848603121561033757600080fd5b8335610342816102cb565b925060208401359150604084013567ffffffffffffffff81111561036557600080fd5b8401601f8101861361037657600080fd5b803567ffffffffffffffff8111156103905761039061030c565b604051601f8201601f19908116603f0116810167ffffffffffffffff811182821017156103bf576103bf61030c565b6040528181528282016020018810156103d757600080fd5b816020840160208301376000602083830101528093505050509250925092565b828152604060208201526000825180604084015260005b8181101561042b576020818601810151606086840101520161040e565b506000606082850101526060601f19601f8301168401019150509392505050565b634e487b7160e01b600052602160045260246000fd5b60006020828403121561047457600080fd5b815161021c816102cb56fea264697066735822122024e7ca7ec1e20d9ec86e4e76f7c17b3ac1d9df4d4b5dfdaf490d21aec3be7e0464736f6c634300081b0033",
  "linkReferences": {},
  "deployedLinkReferences": {}
}