{
  "_format": "hh-sol-artifact-1",
  "contractName": "EIP712DomainMock",
  "sourceName": "contracts/openzeppelin/mock/EIP712DomainMock.sol",
  "abi": [
    {
      "inputs": [
        {
          "internalType": "string",
          "name": "name",
          "type": "string"
        },
        {
          "internalType": "string",
          "name": "version",
          "type": "string"
        }
      ],
      "stateMutability": "nonpayable",
      "type": "constructor"
    },
    {
      "anonymous": false,
      "inputs": [],
      "name": "EIP712DomainChanged",
      "type": "event"
    },
    {
      "inputs": [],
      "name": "domainSeparatorV4",
      "outputs": [
        {
          "internalType": "bytes32",
          "name": "",
          "type": "bytes32"
        }
      ],
      "stateMutability": "view",
      "type": "function"
    },
    {
      "inputs": [],
      "name": "eip712Domain",
      "outputs": [
        {
          "internalType": "bytes1",
          "name": "fields",
          "type": "bytes1"
        },
        {
          "internalType": "string",
          "name": "name",
          "type": "string"
        },
        {
          "internalType": "string",
          "name": "version",
          "type": "string"
        },
        {
          "internalType": "uint256",
          "name": "chainId",
          "type": "uint256"
        },
        {
          "internalType": "address",
          "name": "verifyingContract",
          "type": "address"
        },
        {
          "internalType": "bytes32",
          "name": "salt",
          "type": "bytes32"
        },
        {
          "internalType": "uint256[]",
          "name": "extensions",
          "type": "uint256[]"
        }
      ],
      "stateMutability": "view",
      "type": "function"
    },
    {
      "inputs": [
        {
          "internalType": "bytes32",
          "name": "structHash",
          "type": "bytes32"
        }
      ],
      "name": "hashTypedDataV4",
      "outputs": [
        {
          "internalType": "bytes32",
          "name": "",
          "type": "bytes32"
        }
      ],
      "stateMutability": "view",
      "type": "function"
    },
    {
      "inputs": [
        {
          "internalType": "bytes",
          "name": "signature",
          "type": "bytes"
        },
        {
          "internalType": "address",
          "name": "signer",
          "type": "address"
        },
        {
          "internalType": "address",
          "name": "mailTo",
          "type": "address"
        },
        {
          "internalType": "string",
          "name": "mailContents",
          "type": "string"
        }
      ],
      "name": "verify",
      "outputs": [],
      "stateMutability": "view",
      "type": "function"
    }
  ],
  "bytecode": "0x608060405234801561001057600080fd5b50604051610c62380380610c6283398101604081905261002f9161016e565b6100398282610040565b505061031e565b7f4433daa742dbf1d9ef1ca283831944614879e423be777b51d57c60ed18a721007f4433daa742dbf1d9ef1ca283831944614879e423be777b51d57c60ed18a7210261008c8482610260565b506003810161009b8382610260565b508251602093840120815581519190920120600190910155565b634e487b7160e01b600052604160045260246000fd5b600082601f8301126100dc57600080fd5b81516001600160401b038111156100f5576100f56100b5565b604051601f8201601f19908116603f011681016001600160401b0381118282101715610123576101236100b5565b60405281815283820160200185101561013b57600080fd5b60005b8281101561015a5760208186018101518383018201520161013e565b506000918101602001919091529392505050565b6000806040838503121561018157600080fd5b82516001600160401b0381111561019757600080fd5b6101a3858286016100cb565b602085015190935090506001600160401b038111156101c157600080fd5b6101cd858286016100cb565b9150509250929050565b600181811c908216806101eb57607f821691505b60208210810361020b57634e487b7160e01b600052602260045260246000fd5b50919050565b601f82111561025b57806000526020600020601f840160051c810160208510156102385750805b601f840160051c820191505b818110156102585760008155600101610244565b50505b505050565b81516001600160401b03811115610279576102796100b5565b61028d8161028784546101d7565b84610211565b6020601f8211600181146102c157600083156102a95750848201515b600019600385901b1c1916600184901b178455610258565b600084815260208120601f198516915b828110156102f157878501518255602094850194600190920191016102d1565b508482101561030f5786840151600019600387901b60f8161c191681555b50505050600190811b01905550565b6109358061032d6000396000f3fe608060405234801561001057600080fd5b506004361061004c5760003560e01c806308c6e079146100515780634980f2881461006657806378e890ba1461008c57806384b0196e14610094575b600080fd5b61006461005f366004610706565b6100af565b005b6100796100743660046107b8565b61015b565b6040519081526020015b60405180910390f35b61007961016c565b61009c61017b565b6040516100839796959493929190610817565b60006101257f847fc9da8ec3c72cae85ca691245eaeb0a4a1e74f77c3a919c43afda231d39ba84848051906020012060405160200161010a939291909283526001600160a01b03919091166020830152604082015260600190565b6040516020818303038152906040528051906020012061031a565b905060006101338287610347565b9050846001600160a01b0316816001600160a01b03161461015357600080fd5b505050505050565b60006101668261031a565b92915050565b600061017661036b565b905090565b600060608082808083817f4433daa742dbf1d9ef1ca283831944614879e423be777b51d57c60ed18a721009050600281016003820146306000806040519080825280602002602001820160405280156101de578160200160208202803683370190505b50600f60f81b9594939291908580546101f6906108af565b80601f0160208091040260200160405190810160405280929190818152602001828054610222906108af565b801561026f5780601f106102445761010080835404028352916020019161026f565b820191906000526020600020905b81548152906001019060200180831161025257829003601f168201915b50505050509550848054610282906108af565b80601f01602080910402602001604051908101604052809291908181526020018280546102ae906108af565b80156102fb5780601f106102d0576101008083540402835291602001916102fb565b820191906000526020600020905b8154815290600101906020018083116102de57829003601f168201915b5050505050945097509750975097509750975097505090919293949596565b600061016661032761036b565b8360405161190160f01b8152600281019290925260228201526042902090565b600080600061035685856103ff565b9150915061036381610444565b509392505050565b60006101766000807f4433daa742dbf1d9ef1ca283831944614879e423be777b51d57c60ed18a7210080546001820154604080517f8b73c3c69bb8fe3d512ecc4cf759cc79239f7b179b0ffacaa9a75d522b39400f60208201529081019290925260608201524660808201523060a082015290915060c0016040516020818303038152906040528051906020012091505090565b60008082516041036104355760208301516040840151606085015160001a61042987828585610596565b9450945050505061043d565b506000905060025b9250929050565b6000816004811115610458576104586108e9565b036104605750565b6001816004811115610474576104746108e9565b036104c65760405162461bcd60e51b815260206004820152601860248201527f45434453413a20696e76616c6964207369676e6174757265000000000000000060448201526064015b60405180910390fd5b60028160048111156104da576104da6108e9565b036105275760405162461bcd60e51b815260206004820152601f60248201527f45434453413a20696e76616c6964207369676e6174757265206c656e6774680060448201526064016104bd565b600381600481111561053b5761053b6108e9565b036105935760405162461bcd60e51b815260206004820152602260248201527f45434453413a20696e76616c6964207369676e6174757265202773272076616c604482015261756560f01b60648201526084016104bd565b50565b6000807f7fffffffffffffffffffffffffffffff5d576e7357a4501ddfe92f46681b20a08311156105cd5750600090506003610651565b6040805160008082526020820180845289905260ff881692820192909252606081018690526080810185905260019060a0016020604051602081039080840390855afa158015610621573d6000803e3d6000fd5b5050604051601f1901519150506001600160a01b03811661064a57600060019250925050610651565b9150600090505b94509492505050565b634e487b7160e01b600052604160045260246000fd5b60008067ffffffffffffffff84111561068b5761068b61065a565b50604051601f19601f85018116603f0116810181811067ffffffffffffffff821117156106ba576106ba61065a565b6040528381529050808284018510156106d257600080fd5b83836020830137600060208583010152509392505050565b80356001600160a01b038116811461070157600080fd5b919050565b6000806000806080858703121561071c57600080fd5b843567ffffffffffffffff81111561073357600080fd5b8501601f8101871361074457600080fd5b61075387823560208401610670565b945050610762602086016106ea565b9250610770604086016106ea565b9150606085013567ffffffffffffffff81111561078c57600080fd5b8501601f8101871361079d57600080fd5b6107ac87823560208401610670565b91505092959194509250565b6000602082840312156107ca57600080fd5b5035919050565b6000815180845260005b818110156107f7576020818501810151868301820152016107db565b506000602082860101526020601f19601f83011685010191505092915050565b60ff60f81b8816815260e06020820152600061083660e08301896107d1565b828103604084015261084881896107d1565b606084018890526001600160a01b038716608085015260a0840186905283810360c08501528451808252602080870193509091019060005b8181101561089e578351835260209384019390920191600101610880565b50909b9a5050505050505050505050565b600181811c908216806108c357607f821691505b6020821081036108e357634e487b7160e01b600052602260045260246000fd5b50919050565b634e487b7160e01b600052602160045260246000fdfea26469706673582212203d733468729795de914034bcda442ffbbfe147169fc978fe592de31b4f3a961964736f6c634300081b0033",
  "linkReferences": {},
  "deployedLinkReferences": {}
}