{
  "_format": "hh-sol-artifact-1",
  "contractName": "AgentVault",
  "sourceName": "contracts/assetManager/implementation/AgentVault.sol",
  "abi": [
    {
      "inputs": [
        {
          "internalType": "contract IIAssetManager",
          "name": "_assetManager",
          "type": "address"
        }
      ],
      "stateMutability": "nonpayable",
      "type": "constructor"
    },
    {
      "anonymous": false,
      "inputs": [
        {
          "indexed": false,
          "internalType": "address",
          "name": "previousAdmin",
          "type": "address"
        },
        {
          "indexed": false,
          "internalType": "address",
          "name": "newAdmin",
          "type": "address"
        }
      ],
      "name": "AdminChanged",
      "type": "event"
    },
    {
      "anonymous": false,
      "inputs": [
        {
          "indexed": true,
          "internalType": "address",
          "name": "beacon",
          "type": "address"
        }
      ],
      "name": "BeaconUpgraded",
      "type": "event"
    },
    {
      "anonymous": false,
      "inputs": [
        {
          "indexed": true,
          "internalType": "address",
          "name": "implementation",
          "type": "address"
        }
      ],
      "name": "Upgraded",
      "type": "event"
    },
    {
      "inputs": [],
      "name": "assetManager",
      "outputs": [
        {
          "internalType": "contract IIAssetManager",
          "name": "",
          "type": "address"
        }
      ],
      "stateMutability": "view",
      "type": "function"
    },
    {
      "inputs": [],
      "name": "buyCollateralPoolTokens",
      "outputs": [],
      "stateMutability": "payable",
      "type": "function"
    },
    {
      "inputs": [
        {
          "internalType": "contract IDistributionToDelegators",
          "name": "_distribution",
          "type": "address"
        },
        {
          "internalType": "uint256",
          "name": "_month",
          "type": "uint256"
        },
        {
          "internalType": "address payable",
          "name": "_recipient",
          "type": "address"
        }
      ],
      "name": "claimAirdropDistribution",
      "outputs": [
        {
          "internalType": "uint256",
          "name": "",
          "type": "uint256"
        }
      ],
      "stateMutability": "nonpayable",
      "type": "function"
    },
    {
      "inputs": [
        {
          "internalType": "contract IRewardManager",
          "name": "_rewardManager",
          "type": "address"
        },
        {
          "internalType": "uint24",
          "name": "_lastRewardEpoch",
          "type": "uint24"
        },
        {
          "internalType": "address payable",
          "name": "_recipient",
          "type": "address"
        },
        {
          "components": [
            {
              "internalType": "bytes32[]",
              "name": "merkleProof",
              "type": "bytes32[]"
            },
            {
              "components": [
                {
                  "internalType": "uint24",
                  "name": "rewardEpochId",
                  "type": "uint24"
                },
                {
                  "internalType": "bytes20",
                  "name": "beneficiary",
                  "type": "bytes20"
                },
                {
                  "internalType": "uint120",
                  "name": "amount",
                  "type": "uint120"
                },
                {
                  "internalType": "enum RewardsV2Interface.ClaimType",
                  "name": "claimType",
                  "type": "uint8"
                }
              ],
              "internalType": "struct RewardsV2Interface.RewardClaim",
              "name": "body",
              "type": "tuple"
            }
          ],
          "internalType": "struct RewardsV2Interface.RewardClaimWithProof[]",
          "name": "_proofs",
          "type": "tuple[]"
        }
      ],
      "name": "claimDelegationRewards",
      "outputs": [
        {
          "internalType": "uint256",
          "name": "",
          "type": "uint256"
        }
      ],
      "stateMutability": "nonpayable",
      "type": "function"
    },
    {
      "inputs": [],
      "name": "collateralPool",
      "outputs": [
        {
          "internalType": "contract ICollateralPool",
          "name": "",
          "type": "address"
        }
      ],
      "stateMutability": "view",
      "type": "function"
    },
    {
      "inputs": [
        {
          "internalType": "contract IVPToken",
          "name": "_token",
          "type": "address"
        },
        {
          "internalType": "address",
          "name": "_to",
          "type": "address"
        },
        {
          "internalType": "uint256",
          "name": "_bips",
          "type": "uint256"
        }
      ],
      "name": "delegate",
      "outputs": [],
      "stateMutability": "nonpayable",
      "type": "function"
    },
    {
      "inputs": [
        {
          "internalType": "contract IVPToken",
          "name": "_token",
          "type": "address"
        },
        {
          "internalType": "address",
          "name": "_to",
          "type": "address"
        }
      ],
      "name": "delegateGovernance",
      "outputs": [],
      "stateMutability": "nonpayable",
      "type": "function"
    },
    {
      "inputs": [
        {
          "internalType": "contract IERC20",
          "name": "_token",
          "type": "address"
        },
        {
          "internalType": "uint256",
          "name": "_amount",
          "type": "uint256"
        }
      ],
      "name": "depositCollateral",
      "outputs": [],
      "stateMutability": "nonpayable",
      "type": "function"
    },
    {
      "inputs": [
        {
          "internalType": "contract IWNat",
          "name": "_wNat",
          "type": "address"
        }
      ],
      "name": "depositNat",
      "outputs": [],
      "stateMutability": "payable",
      "type": "function"
    },
    {
      "inputs": [
        {
          "internalType": "address payable",
          "name": "_recipient",
          "type": "address"
        }
      ],
      "name": "destroy",
      "outputs": [],
      "stateMutability": "nonpayable",
      "type": "function"
    },
    {
      "inputs": [],
      "name": "implementation",
      "outputs": [
        {
          "internalType": "address",
          "name": "",
          "type": "address"
        }
      ],
      "stateMutability": "view",
      "type": "function"
    },
    {
      "inputs": [
        {
          "internalType": "contract IIAssetManager",
          "name": "_assetManager",
          "type": "address"
        }
      ],
      "name": "initialize",
      "outputs": [],
      "stateMutability": "nonpayable",
      "type": "function"
    },
    {
      "inputs": [
        {
          "internalType": "address",
          "name": "_address",
          "type": "address"
        }
      ],
      "name": "isOwner",
      "outputs": [
        {
          "internalType": "bool",
          "name": "",
          "type": "bool"
        }
      ],
      "stateMutability": "view",
      "type": "function"
    },
    {
      "inputs": [
        {
          "internalType": "contract IDistributionToDelegators",
          "name": "_distribution",
          "type": "address"
        }
      ],
      "name": "optOutOfAirdrop",
      "outputs": [],
      "stateMutability": "nonpayable",
      "type": "function"
    },
    {
      "inputs": [
        {
          "internalType": "contract IERC20",
          "name": "_token",
          "type": "address"
        },
        {
          "internalType": "address",
          "name": "_recipient",
          "type": "address"
        },
        {
          "internalType": "uint256",
          "name": "_amount",
          "type": "uint256"
        }
      ],
      "name": "payout",
      "outputs": [],
      "stateMutability": "nonpayable",
      "type": "function"
    },
    {
      "inputs": [
        {
          "internalType": "contract IWNat",
          "name": "_wNat",
          "type": "address"
        },
        {
          "internalType": "address payable",
          "name": "_recipient",
          "type": "address"
        },
        {
          "internalType": "uint256",
          "name": "_amount",
          "type": "uint256"
        }
      ],
      "name": "payoutNAT",
      "outputs": [],
      "stateMutability": "nonpayable",
      "type": "function"
    },
    {
      "inputs": [],
      "name": "proxiableUUID",
      "outputs": [
        {
          "internalType": "bytes32",
          "name": "",
          "type": "bytes32"
        }
      ],
      "stateMutability": "view",
      "type": "function"
    },
    {
      "inputs": [
        {
          "internalType": "uint256",
          "name": "_amount",
          "type": "uint256"
        },
        {
          "internalType": "address payable",
          "name": "_recipient",
          "type": "address"
        }
      ],
      "name": "redeemCollateralPoolTokens",
      "outputs": [],
      "stateMutability": "nonpayable",
      "type": "function"
    },
    {
      "inputs": [
        {
          "internalType": "contract IVPToken",
          "name": "_token",
          "type": "address"
        },
        {
          "internalType": "address",
          "name": "_who",
          "type": "address"
        },
        {
          "internalType": "uint256",
          "name": "_blockNumber",
          "type": "uint256"
        }
      ],
      "name": "revokeDelegationAt",
      "outputs": [],
      "stateMutability": "nonpayable",
      "type": "function"
    },
    {
      "inputs": [
        {
          "internalType": "bytes4",
          "name": "_interfaceId",
          "type": "bytes4"
        }
      ],
      "name": "supportsInterface",
      "outputs": [
        {
          "internalType": "bool",
          "name": "",
          "type": "bool"
        }
      ],
      "stateMutability": "pure",
      "type": "function"
    },
    {
      "inputs": [
        {
          "internalType": "contract IERC20",
          "name": "_token",
          "type": "address"
        },
        {
          "internalType": "uint256",
          "name": "_amount",
          "type": "uint256"
        }
      ],
      "name": "transferExternalToken",
      "outputs": [],
      "stateMutability": "nonpayable",
      "type": "function"
    },
    {
      "inputs": [
        {
          "internalType": "contract IVPToken",
          "name": "_token",
          "type": "address"
        }
      ],
      "name": "undelegateAll",
      "outputs": [],
      "stateMutability": "nonpayable",
      "type": "function"
    },
    {
      "inputs": [
        {
          "internalType": "contract IVPToken",
          "name": "_token",
          "type": "address"
        }
      ],
      "name": "undelegateGovernance",
      "outputs": [],
      "stateMutability": "nonpayable",
      "type": "function"
    },
    {
      "inputs": [
        {
          "internalType": "contract IERC20",
          "name": "_token",
          "type": "address"
        }
      ],
      "name": "updateCollateral",
      "outputs": [],
      "stateMutability": "nonpayable",
      "type": "function"
    },
    {
      "inputs": [
        {
          "internalType": "address",
          "name": "newImplementation",
          "type": "address"
        }
      ],
      "name": "upgradeTo",
      "outputs": [],
      "stateMutability": "nonpayable",
      "type": "function"
    },
    {
      "inputs": [
        {
          "internalType": "address",
          "name": "newImplementation",
          "type": "address"
        },
        {
          "internalType": "bytes",
          "name": "data",
          "type": "bytes"
        }
      ],
      "name": "upgradeToAndCall",
      "outputs": [],
      "stateMutability": "payable",
      "type": "function"
    },
    {
      "inputs": [
        {
          "internalType": "contract IERC20",
          "name": "_token",
          "type": "address"
        },
        {
          "internalType": "uint256",
          "name": "_amount",
          "type": "uint256"
        },
        {
          "internalType": "address",
          "name": "_recipient",
          "type": "address"
        }
      ],
      "name": "withdrawCollateral",
      "outputs": [],
      "stateMutability": "nonpayable",
      "type": "function"
    },
    {
      "inputs": [
        {
          "internalType": "uint256",
          "name": "_amount",
          "type": "uint256"
        },
        {
          "internalType": "address",
          "name": "_recipient",
          "type": "address"
        }
      ],
      "name": "withdrawPoolFees",
      "outputs": [],
      "stateMutability": "nonpayable",
      "type": "function"
    },
    {
      "stateMutability": "payable",
      "type": "receive"
    }
  ],
  "bytecode": "0x60a0604052306080523480156200001557600080fd5b50604051620029c4380380620029c48339810160408190526200003891620000d2565b62000043816200004a565b5062000104565b600054600160a01b900460ff1615620000a95760405162461bcd60e51b815260206004820152601360248201527f616c726561647920696e697469616c697a656400000000000000000000000000604482015260640160405180910390fd5b600080546001600160a01b039092166001600160a81b031990921691909117600160a01b179055565b600060208284031215620000e557600080fd5b81516001600160a01b0381168114620000fd57600080fd5b9392505050565b6080516128886200013c60003960008181610ce001528181610d2001528181610f2e01528181610f6e0152610fe601526128886000f3fe6080604052600436106101ba5760003560e01c8063648d0878116100ec578063a3ea6d1b1161008a578063c26f3acf11610064578063c26f3acf1461051c578063c4d66de81461053c578063d348400c1461055c578063ff0eccf61461056457600080fd5b8063a3ea6d1b146104bc578063a5d5db0c146104dc578063a6fc49cc146104fc57600080fd5b80637a7da004116100c65780637a7da0041461043c57806386ac57a21461045c57806394217ad11461047c57806397c9c8f81461049c57600080fd5b8063648d0878146103e9578063677fa23214610409578063751aa8d61461041c57600080fd5b80632f54bf6e116101595780634f1ef286116101335780634f1ef2861461036657806352d1902d146103795780635c60da1b1461039c5780635eb71cfb146103c957600080fd5b80632f54bf6e146103065780633659cfe614610326578063489a8a471461034657600080fd5b80631d75e42a116101955780631d75e42a146102865780631f1088a0146102a657806320f801d4146102c65780632772e48b146102e657600080fd5b8062f55d9d1461021157806301ffc9a7146102315780631cc7c5f31461026657600080fd5b3661020c5760035460ff1661020a5760405162461bcd60e51b8152602060048201526011602482015270696e7465726e616c20757365206f6e6c7960781b60448201526064015b60405180910390fd5b005b600080fd5b34801561021d57600080fd5b5061020a61022c366004612136565b610579565b34801561023d57600080fd5b5061025161024c366004612153565b6107d3565b60405190151581526020015b60405180910390f35b34801561027257600080fd5b5061020a61028136600461217d565b610825565b34801561029257600080fd5b5061020a6102a13660046121ad565b6109d3565b3480156102b257600080fd5b5061020a6102c13660046121db565b610ac2565b3480156102d257600080fd5b5061020a6102e136600461221d565b610b86565b3480156102f257600080fd5b5061020a61030136600461217d565b610bcc565b34801561031257600080fd5b50610251610321366004612136565b610c61565b34801561033257600080fd5b5061020a610341366004612136565b610cd6565b34801561035257600080fd5b5061020a61036136600461225e565b610d9b565b61020a6103743660046122a0565b610f24565b34801561038557600080fd5b5061038e610fd9565b60405190815260200161025d565b3480156103a857600080fd5b506103b161108c565b6040516001600160a01b03909116815260200161025d565b3480156103d557600080fd5b5061020a6103e4366004612136565b61109b565b3480156103f557600080fd5b5061020a61040436600461221d565b611116565b61020a610417366004612136565b611153565b34801561042857600080fd5b5061038e61043736600461237c565b611243565b34801561044857600080fd5b5061020a610457366004612136565b6112f5565b34801561046857600080fd5b5061020a610477366004612136565b611352565b34801561048857600080fd5b506000546103b1906001600160a01b031681565b3480156104a857600080fd5b5061020a6104b7366004612136565b6113b2565b3480156104c857600080fd5b5061020a6104d736600461221d565b611473565b3480156104e857600080fd5b5061020a6104f736600461225e565b6114ff565b34801561050857600080fd5b5061038e6105173660046121db565b6115a9565b34801561052857600080fd5b5061020a61053736600461221d565b611662565b34801561054857600080fd5b5061020a610557366004612136565b6116f4565b61020a61176d565b34801561057057600080fd5b506103b16117ea565b6000546001600160a01b031633146105a35760405162461bcd60e51b815260040161020190612425565b6105ab611857565b60015460005b818110156107ad576000600182815481106105ce576105ce612451565b60009182526020808320909101546001600160a01b0316808352600290915260409091205490915060048116156106b457816001600160a01b0316638c2b8ae16040518163ffffffff1660e01b8152600401602060405180830381865afa15801561063d573d6000803e3d6000fd5b505050506040513d601f19601f820116820180604052508101906106619190612467565b6001600160a01b03166392ab89bb6040518163ffffffff1660e01b8152600401600060405180830381600087803b15801561069b57600080fd5b505af11580156106af573d6000803e3d6000fd5b505050505b600281161561071157816001600160a01b031663b302f3936040518163ffffffff1660e01b8152600401600060405180830381600087803b1580156106f857600080fd5b505af115801561070c573d6000803e3d6000fd5b505050505b60018116156107a3576040516370a0823160e01b81523060048201526000906001600160a01b038416906370a0823190602401602060405180830381865afa158015610761573d6000803e3d6000fd5b505050506040513d601f19601f820116820180604052508101906107859190612484565b905080156107a1576107a16001600160a01b03841687836118be565b505b50506001016105b1565b506107b88247611921565b506107d0600160008051602061283383398151915255565b50565b60006001600160e01b031982166301ffc9a760e01b148061080457506001600160e01b03198216630fe2a0a560e31b145b8061081f57506001600160e01b031982166326228cef60e21b145b92915050565b61082e33610c61565b61084a5760405162461bcd60e51b81526004016102019061249d565b610852611857565b600061085c6117ea565b905060008054906101000a90046001600160a01b03166001600160a01b031663469052ad826001600160a01b031663cbdf382c6040518163ffffffff1660e01b8152600401602060405180830381865afa1580156108be573d6000803e3d6000fd5b505050506040513d601f19601f820116820180604052508101906108e29190612467565b6040516001600160e01b031960e084901b1681526001600160a01b03909116600482015260248101869052604401600060405180830381600087803b15801561092a57600080fd5b505af115801561093e573d6000803e3d6000fd5b505060405163eaf413fd60e01b81526001600160a01b038416925063eaf413fd915061097390869086906000906004016124c1565b60408051808303816000875af1158015610991573d6000803e3d6000fd5b505050506040513d601f19601f820116820180604052508101906109b59190612503565b5050506109cf600160008051602061283383398151915255565b5050565b6109dc33610c61565b6109f85760405162461bcd60e51b81526004016102019061249d565b816001600160a01b0316638c2b8ae16040518163ffffffff1660e01b8152600401602060405180830381865afa158015610a36573d6000803e3d6000fd5b505050506040513d601f19601f82011682018060405250810190610a5a9190612467565b6040516317066a5760e21b81526001600160a01b0383811660048301529190911690635c19a95c90602401600060405180830381600087803b158015610a9f57600080fd5b505af1158015610ab3573d6000803e3d6000fd5b505050506109cf8260046119ca565b610acb33610c61565b610ae75760405162461bcd60e51b81526004016102019061249d565b610aef611857565b60005460405163469052ad60e01b81526001600160a01b038581166004830152602482018590529091169063469052ad90604401600060405180830381600087803b158015610b3d57600080fd5b505af1158015610b51573d6000803e3d6000fd5b50610b6a925050506001600160a01b03841682846118be565b610b81600160008051602061283383398151915255565b505050565b6000546001600160a01b03163314610bb05760405162461bcd60e51b815260040161020190612425565b610bb8611857565b610b6a6001600160a01b03841683836118be565b610bd533610c61565b610bf15760405162461bcd60e51b81526004016102019061249d565b610bf96117ea565b60405163868c3ba760e01b8152600481018490526001600160a01b038381166024830152919091169063868c3ba790604401600060405180830381600087803b158015610c4557600080fd5b505af1158015610c59573d6000803e3d6000fd5b505050505050565b6000805460405163d6b93a9f60e01b81523060048201526001600160a01b0384811660248301529091169063d6b93a9f90604401602060405180830381865afa158015610cb2573d6000803e3d6000fd5b505050506040513d601f19601f8201168201806040525081019061081f9190612527565b6001600160a01b037f0000000000000000000000000000000000000000000000000000000000000000163003610d1e5760405162461bcd60e51b815260040161020190612549565b7f00000000000000000000000000000000000000000000000000000000000000006001600160a01b0316610d50611a56565b6001600160a01b031614610d765760405162461bcd60e51b815260040161020190612595565b610d7f81611a72565b604080516000808252602082019092526107d091839190611a9c565b610da433610c61565b610dc05760405162461bcd60e51b81526004016102019061249d565b610dc8611857565b60005460405163700104f760e01b81523060048201526001600160a01b0384811660248301529091169063700104f790604401602060405180830381865afa158015610e18573d6000803e3d6000fd5b505050506040513d601f19601f82011682018060405250810190610e3c9190612527565b15610e895760405162461bcd60e51b815260206004820152601a60248201527f6f6e6c79206e6f6e2d636f6c6c61746572616c20746f6b656e730000000000006044820152606401610201565b60008054604051636e61164f60e01b81523060048201526001600160a01b0390911690636e61164f90602401602060405180830381865afa158015610ed2573d6000803e3d6000fd5b505050506040513d601f19601f82011682018060405250810190610ef69190612467565b9050610f0c6001600160a01b03841682846118be565b506109cf600160008051602061283383398151915255565b6001600160a01b037f0000000000000000000000000000000000000000000000000000000000000000163003610f6c5760405162461bcd60e51b815260040161020190612549565b7f00000000000000000000000000000000000000000000000000000000000000006001600160a01b0316610f9e611a56565b6001600160a01b031614610fc45760405162461bcd60e51b815260040161020190612595565b610fcd82611a72565b6109cf82826001611a9c565b6000306001600160a01b037f000000000000000000000000000000000000000000000000000000000000000016146110795760405162461bcd60e51b815260206004820152603860248201527f555550535570677261646561626c653a206d757374206e6f742062652063616c60448201527f6c6564207468726f7567682064656c656761746563616c6c00000000000000006064820152608401610201565b506000805160206127ec83398151915290565b6000611096611a56565b905090565b6110a433610c61565b6110c05760405162461bcd60e51b81526004016102019061249d565b806001600160a01b031663b302f3936040518163ffffffff1660e01b8152600401600060405180830381600087803b1580156110fb57600080fd5b505af115801561110f573d6000803e3d6000fd5b5050505050565b6000546001600160a01b031633146111405760405162461bcd60e51b815260040161020190612425565b611148611857565b610b6a838383611c07565b6000546001600160a01b0316331461117d5760405162461bcd60e51b815260040161020190612425565b806001600160a01b031663d0e30db0346040518263ffffffff1660e01b81526004016000604051808303818588803b1580156111b857600080fd5b505af11580156111cc573d6000803e3d6000fd5b505060005460405163053fe26160e31b81523060048201526001600160a01b03868116602483015290911693506329ff1308925060440190505b600060405180830381600087803b15801561122057600080fd5b505af1158015611234573d6000803e3d6000fd5b505050506107d08160016119ca565b600061124e33610c61565b61126a5760405162461bcd60e51b81526004016102019061249d565b604051638e33aba560e01b81526001600160a01b03858116309081149291891691638e33aba5916112a79189908b9087908b908b9060040161265e565b6020604051808303816000875af11580156112c6573d6000803e3d6000fd5b505050506040513d601f19601f820116820180604052508101906112ea9190612484565b979650505050505050565b6112fe33610c61565b61131a5760405162461bcd60e51b81526004016102019061249d565b60005460405163053fe26160e31b81523060048201526001600160a01b038381166024830152909116906329ff130890604401611206565b61135b33610c61565b6113775760405162461bcd60e51b81526004016102019061249d565b806001600160a01b031663f2a1f7676040518163ffffffff1660e01b8152600401600060405180830381600087803b1580156110fb57600080fd5b6113bb33610c61565b6113d75760405162461bcd60e51b81526004016102019061249d565b806001600160a01b0316638c2b8ae16040518163ffffffff1660e01b8152600401602060405180830381865afa158015611415573d6000803e3d6000fd5b505050506040513d601f19601f820116820180604052508101906114399190612467565b6001600160a01b03166392ab89bb6040518163ffffffff1660e01b8152600401600060405180830381600087803b1580156110fb57600080fd5b61147c33610c61565b6114985760405162461bcd60e51b81526004016102019061249d565b60405163177adf7f60e31b81526001600160a01b0383811660048301526024820183905284169063bbd6fbf890604401600060405180830381600087803b1580156114e257600080fd5b505af11580156114f6573d6000803e3d6000fd5b50505050505050565b61150833610c61565b6115245760405162461bcd60e51b81526004016102019061249d565b6115396001600160a01b038316333084611c83565b60005460405163053fe26160e31b81523060048201526001600160a01b038481166024830152909116906329ff130890604401600060405180830381600087803b15801561158657600080fd5b505af115801561159a573d6000803e3d6000fd5b505050506109cf8260016119ca565b60006115b433610c61565b6115d05760405162461bcd60e51b81526004016102019061249d565b60405163596090c960e11b815230600482018190526001600160a01b03848116602484018190526044840187905290911460648301819052919086169063b2c12192906084016020604051808303816000875af1158015611635573d6000803e3d6000fd5b505050506040513d601f19601f820116820180604052508101906116599190612484565b95945050505050565b61166b33610c61565b6116875760405162461bcd60e51b81526004016102019061249d565b60405163026e402b60e01b81526001600160a01b0383811660048301526024820183905284169063026e402b90604401600060405180830381600087803b1580156116d157600080fd5b505af11580156116e5573d6000803e3d6000fd5b50505050610b818360026119ca565b600054600160a01b900460ff16156117445760405162461bcd60e51b8152602060048201526013602482015272185b1c9958591e481a5b9a5d1a585b1a5e9959606a1b6044820152606401610201565b600080546001600160a01b039092166001600160a81b031990921691909117600160a01b179055565b6117756117ea565b60405163ac3736c160e01b815260006004820181905260248201526001600160a01b03919091169063ac3736c1903490604401604080518083038185885af11580156117c5573d6000803e3d6000fd5b50505050506040513d601f19601f820116820180604052508101906109cf9190612503565b6000805460405163292979d160e11b81523060048201526001600160a01b0390911690635252f3a290602401602060405180830381865afa158015611833573d6000803e3d6000fd5b505050506040513d601f19601f820116820180604052508101906110969190612467565b6000805160206128338339815191528054600119016118b85760405162461bcd60e51b815260206004820152601f60248201527f5265656e7472616e637947756172643a207265656e7472616e742063616c6c006044820152606401610201565b60029055565b6040516001600160a01b038316602482015260448101829052610b8190849063a9059cbb60e01b906064015b60408051601f198184030181529190526020810180516001600160e01b03166001600160e01b031990931692909217909152611cc1565b611929611d96565b80156109cf576000826001600160a01b031682620186a090604051600060405180830381858888f193505050503d8060008114611982576040519150601f19603f3d011682016040523d82523d6000602084013e611987565b606091505b5050905080610b815760405162461bcd60e51b815260206004820152600f60248201526e1d1c985b9cd9995c8819985a5b1959608a1b6044820152606401610201565b6001600160a01b0382166000908152600260205260408120549003611a34576001805480820182556000919091527fb10e2d527612073b26eecdfd717e6a320cf44b4afac2b0732d9fcbe2b7fa0cf60180546001600160a01b0319166001600160a01b0384161790555b6001600160a01b03909116600090815260026020526040902080549091179055565b6000805160206127ec833981519152546001600160a01b031690565b6000546001600160a01b031633146107d05760405162461bcd60e51b815260040161020190612425565b7f4910fdfa16fed3260ed0e7147f7cc6da11a60208b5b9406d12a635614ffd91435460ff1615611acf57610b8183611df7565b826001600160a01b03166352d1902d6040518163ffffffff1660e01b8152600401602060405180830381865afa925050508015611b29575060408051601f3d908101601f19168201909252611b2691810190612484565b60015b611b8c5760405162461bcd60e51b815260206004820152602e60248201527f45524331393637557067726164653a206e657720696d706c656d656e7461746960448201526d6f6e206973206e6f74205555505360901b6064820152608401610201565b6000805160206127ec8339815191528114611bfb5760405162461bcd60e51b815260206004820152602960248201527f45524331393637557067726164653a20756e737570706f727465642070726f786044820152681a58589b195555525160ba1b6064820152608401610201565b50610b81838383611e93565b6003805460ff19166001179055604051632e1a7d4d60e01b8152600481018290526001600160a01b03841690632e1a7d4d90602401600060405180830381600087803b158015611c5657600080fd5b505af1158015611c6a573d6000803e3d6000fd5b50506003805460ff1916905550610b8190508282611921565b6040516001600160a01b0380851660248301528316604482015260648101829052611cbb9085906323b872dd60e01b906084016118ea565b50505050565b6000611d16826040518060400160405280602081526020017f5361666545524332303a206c6f772d6c6576656c2063616c6c206661696c6564815250856001600160a01b0316611eb89092919063ffffffff16565b9050805160001480611d37575080806020019051810190611d379190612527565b610b815760405162461bcd60e51b815260206004820152602a60248201527f5361666545524332303a204552433230206f7065726174696f6e20646964206e6044820152691bdd081cdd58d8d9595960b21b6064820152608401610201565b60008051602061283383398151915254600214611df55760405162461bcd60e51b815260206004820152601f60248201527f5265656e7472616e637947756172643a206775617264207265717569726564006044820152606401610201565b565b6001600160a01b0381163b611e645760405162461bcd60e51b815260206004820152602d60248201527f455243313936373a206e657720696d706c656d656e746174696f6e206973206e60448201526c1bdd08184818dbdb9d1c9858dd609a1b6064820152608401610201565b6000805160206127ec83398151915280546001600160a01b0319166001600160a01b0392909216919091179055565b611e9c83611ecf565b600082511180611ea95750805b15610b8157611cbb8383611f0f565b6060611ec78484600085611f3b565b949350505050565b611ed881611df7565b6040516001600160a01b038216907fbc7cd75a20ee27fd9adebab32041f755214dbc6bffa90cc0225b39da2e5c2d3b90600090a250565b6060611f34838360405180606001604052806027815260200161280c6027913961200b565b9392505050565b606082471015611f9c5760405162461bcd60e51b815260206004820152602660248201527f416464726573733a20696e73756666696369656e742062616c616e636520666f6044820152651c8818d85b1b60d21b6064820152608401610201565b600080866001600160a01b03168587604051611fb8919061279c565b60006040518083038185875af1925050503d8060008114611ff5576040519150601f19603f3d011682016040523d82523d6000602084013e611ffa565b606091505b50915091506112ea87838387612083565b6060600080856001600160a01b031685604051612028919061279c565b600060405180830381855af49150503d8060008114612063576040519150601f19603f3d011682016040523d82523d6000602084013e612068565b606091505b509150915061207986838387612083565b9695505050505050565b606083156120f25782516000036120eb576001600160a01b0385163b6120eb5760405162461bcd60e51b815260206004820152601d60248201527f416464726573733a2063616c6c20746f206e6f6e2d636f6e74726163740000006044820152606401610201565b5081611ec7565b611ec783838151156121075781518083602001fd5b8060405162461bcd60e51b815260040161020191906127b8565b6001600160a01b03811681146107d057600080fd5b60006020828403121561214857600080fd5b8135611f3481612121565b60006020828403121561216557600080fd5b81356001600160e01b031981168114611f3457600080fd5b6000806040838503121561219057600080fd5b8235915060208301356121a281612121565b809150509250929050565b600080604083850312156121c057600080fd5b82356121cb81612121565b915060208301356121a281612121565b6000806000606084860312156121f057600080fd5b83356121fb81612121565b925060208401359150604084013561221281612121565b809150509250925092565b60008060006060848603121561223257600080fd5b833561223d81612121565b9250602084013561224d81612121565b929592945050506040919091013590565b6000806040838503121561227157600080fd5b823561227c81612121565b946020939093013593505050565b634e487b7160e01b600052604160045260246000fd5b600080604083850312156122b357600080fd5b82356122be81612121565b9150602083013567ffffffffffffffff808211156122db57600080fd5b818501915085601f8301126122ef57600080fd5b8135818111156123015761230161228a565b604051601f8201601f19908116603f011681019083821181831017156123295761232961228a565b8160405282815288602084870101111561234257600080fd5b8260208601602083013760006020848301015280955050505050509250929050565b803562ffffff8116811461237757600080fd5b919050565b60008060008060006080868803121561239457600080fd5b853561239f81612121565b94506123ad60208701612364565b935060408601356123bd81612121565b9250606086013567ffffffffffffffff808211156123da57600080fd5b818801915088601f8301126123ee57600080fd5b8135818111156123fd57600080fd5b8960208260051b850101111561241257600080fd5b9699959850939650602001949392505050565b60208082526012908201527137b7363c9030b9b9b2ba1036b0b730b3b2b960711b604082015260600190565b634e487b7160e01b600052603260045260246000fd5b60006020828403121561247957600080fd5b8151611f3481612121565b60006020828403121561249657600080fd5b5051919050565b6020808252600a908201526937b7363c9037bbb732b960b11b604082015260600190565b8381526001600160a01b038316602082015260608101600383106124f557634e487b7160e01b600052602160045260246000fd5b826040830152949350505050565b6000806040838503121561251657600080fd5b505080516020909101519092909150565b60006020828403121561253957600080fd5b81518015158114611f3457600080fd5b6020808252602c908201527f46756e6374696f6e206d7573742062652063616c6c6564207468726f7567682060408201526b19195b1959d85d1958d85b1b60a21b606082015260800190565b6020808252602c908201527f46756e6374696f6e206d7573742062652063616c6c6564207468726f7567682060408201526b6163746976652070726f787960a01b606082015260800190565b62ffffff6125ee82612364565b16825260208101356bffffffffffffffffffffffff19811680821461261257600080fd5b60208401525060408101356effffffffffffffffffffffffffffff811680821461263b57600080fd5b60408401525060608101356005811061265357600080fd5b806060840152505050565b6001600160a01b038781168252861660208083019190915262ffffff86166040830152841515606083015260a06080830181905282810184905260009160c09081850190600587811b8701840189875b8a8110156127645789830360bf190186528135368d9003609e190181126126d457600080fd5b8c01803536829003601e190181126126eb57600080fd5b8101868101903567ffffffffffffffff81111561270757600080fd5b80871b80360383131561271957600080fd5b8b8752868c018290526001600160fb1b0382111561273657600080fd5b80838c89013761274a8988018a86016125e1565b9888019895909501890194505050908401906001016126ae565b50909e9d5050505050505050505050505050565b60005b8381101561279357818101518382015260200161277b565b50506000910152565b600082516127ae818460208701612778565b9190910192915050565b60208152600082518060208401526127d7816040850160208701612778565b601f01601f1916919091016040019291505056fe360894a13ba1a3210667c828492db98dca3e2076cc3735a920a3ca505d382bbc416464726573733a206c6f772d6c6576656c2064656c65676174652063616c6c206661696c65640cd2207518cd3e5213e2c6dbe63d55b60aa893c194a427b7d7f1600408fd5bdea2646970667358221220f9de81cced5c9b4b312dae060aa024fc27cad06fac8a050959642ccaceff921264736f6c63430008170033",
  "linkReferences": {},
  "deployedLinkReferences": {}
}