{
  "_format": "hh-sol-artifact-1",
  "contractName": "MintingProxyMock",
  "sourceName": "contracts/assetManager/mock/MintingProxyMock.sol",
  "abi": [
    {
      "inputs": [
        {
          "internalType": "contract IAssetManager",
          "name": "_assetManager",
          "type": "address"
        },
        {
          "internalType": "address",
          "name": "_agentVault",
          "type": "address"
        },
        {
          "internalType": "address",
          "name": "_operator",
          "type": "address"
        }
      ],
      "stateMutability": "nonpayable",
      "type": "constructor"
    },
    {
      "inputs": [
        {
          "components": [
            {
              "internalType": "bytes32[]",
              "name": "merkleProof",
              "type": "bytes32[]"
            },
            {
              "components": [
                {
                  "internalType": "bytes32",
                  "name": "attestationType",
                  "type": "bytes32"
                },
                {
                  "internalType": "bytes32",
                  "name": "sourceId",
                  "type": "bytes32"
                },
                {
                  "internalType": "uint64",
                  "name": "votingRound",
                  "type": "uint64"
                },
                {
                  "internalType": "uint64",
                  "name": "lowestUsedTimestamp",
                  "type": "uint64"
                },
                {
                  "components": [
                    {
                      "internalType": "bytes32",
                      "name": "transactionId",
                      "type": "bytes32"
                    },
                    {
                      "internalType": "uint256",
                      "name": "inUtxo",
                      "type": "uint256"
                    },
                    {
                      "internalType": "uint256",
                      "name": "utxo",
                      "type": "uint256"
                    }
                  ],
                  "internalType": "struct IPayment.RequestBody",
                  "name": "requestBody",
                  "type": "tuple"
                },
                {
                  "components": [
                    {
                      "internalType": "uint64",
                      "name": "blockNumber",
                      "type": "uint64"
                    },
                    {
                      "internalType": "uint64",
                      "name": "blockTimestamp",
                      "type": "uint64"
                    },
                    {
                      "internalType": "bytes32",
                      "name": "sourceAddressHash",
                      "type": "bytes32"
                    },
                    {
                      "internalType": "bytes32",
                      "name": "sourceAddressesRoot",
                      "type": "bytes32"
                    },
                    {
                      "internalType": "bytes32",
                      "name": "receivingAddressHash",
                      "type": "bytes32"
                    },
                    {
                      "internalType": "bytes32",
                      "name": "intendedReceivingAddressHash",
                      "type": "bytes32"
                    },
                    {
                      "internalType": "int256",
                      "name": "spentAmount",
                      "type": "int256"
                    },
                    {
                      "internalType": "int256",
                      "name": "intendedSpentAmount",
                      "type": "int256"
                    },
                    {
                      "internalType": "int256",
                      "name": "receivedAmount",
                      "type": "int256"
                    },
                    {
                      "internalType": "int256",
                      "name": "intendedReceivedAmount",
                      "type": "int256"
                    },
                    {
                      "internalType": "bytes32",
                      "name": "standardPaymentReference",
                      "type": "bytes32"
                    },
                    {
                      "internalType": "bool",
                      "name": "oneToOne",
                      "type": "bool"
                    },
                    {
                      "internalType": "uint8",
                      "name": "status",
                      "type": "uint8"
                    }
                  ],
                  "internalType": "struct IPayment.ResponseBody",
                  "name": "responseBody",
                  "type": "tuple"
                }
              ],
              "internalType": "struct IPayment.Response",
              "name": "data",
              "type": "tuple"
            }
          ],
          "internalType": "struct IPayment.Proof",
          "name": "_payment",
          "type": "tuple"
        },
        {
          "internalType": "uint256",
          "name": "_collateralReservationId",
          "type": "uint256"
        }
      ],
      "name": "executeMinting",
      "outputs": [],
      "stateMutability": "nonpayable",
      "type": "function"
    },
    {
      "inputs": [],
      "name": "mintingFeeBIPS",
      "outputs": [
        {
          "internalType": "uint256",
          "name": "",
          "type": "uint256"
        }
      ],
      "stateMutability": "view",
      "type": "function"
    },
    {
      "inputs": [
        {
          "internalType": "uint256",
          "name": "_lots",
          "type": "uint256"
        },
        {
          "internalType": "uint256",
          "name": "_maxMintingFeeBIPS",
          "type": "uint256"
        }
      ],
      "name": "reserveCollateral",
      "outputs": [],
      "stateMutability": "nonpayable",
      "type": "function"
    },
    {
      "stateMutability": "payable",
      "type": "receive"
    }
  ],
  "bytecode": "0x608060405234801561001057600080fd5b5060405161114a38038061114a83398101604081905261002f91610089565b600080546001600160a01b039485166001600160a01b0319918216179091556002805493851693821693909317909255600180549190931691161790556100d6565b6001600160a01b038116811461008657600080fd5b50565b60008060006060848603121561009e57600080fd5b83516100a981610071565b60208501519093506100ba81610071565b60408501519092506100cb81610071565b809150509250925092565b611065806100e56000396000f3fe6080604052600436106100385760003560e01c80630da5e8e0146100445780632ee3211a14610066578063daf940c61461008d57600080fd5b3661003f57005b600080fd5b34801561005057600080fd5b5061006461005f3660046106f4565b6100ad565b005b34801561007257600080fd5b5061007b6102e4565b60405190815260200160405180910390f35b34801561009957600080fd5b506100646100a836600461073f565b610367565b6001546001600160a01b031633146100fc5760405162461bcd60e51b815260206004820152600d60248201526c37b7363c9037b832b930ba37b960991b60448201526064015b60405180910390fd5b6000818152600360205260409020546001600160a01b03168061015a5760405162461bcd60e51b81526020600482015260166024820152751a5b9d985b1a59081c995cd95c9d985d1a5bdb881a5960521b60448201526064016100f3565b60008281526003602052604080822080546001600160a01b031916905581549051632e483f5560e11b8152600481018590526001600160a01b0390911690635c907eaa90602401600060405180830381865afa1580156101be573d6000803e3d6000fd5b505050506040513d6000823e601f3d908101601f191682016040526101e691908101906108ec565b600054604051626d2f4760e51b81529192506001600160a01b031690630da5e8e0906102189087908790600401610bbe565b600060405180830381600087803b15801561023257600080fd5b505af1158015610246573d6000803e3d6000fd5b5050505060008160a0015190506102dd838260008054906101000a90046001600160a01b03166001600160a01b0316637c7db1a56040518163ffffffff1660e01b8152600401602060405180830381865afa1580156102a9573d6000803e3d6000fd5b505050506040513d601f19601f820116820180604052508101906102cd9190610c5b565b6001600160a01b03169190610438565b5050505050565b60008054600254604051630152052b60e41b81526001600160a01b0391821660048201528392919091169063152052b090602401600060405180830381865afa158015610335573d6000803e3d6000fd5b505050506040513d6000823e601f3d908101601f1916820160405261035d9190810190610c99565b60e0015192915050565b6000805460025460408051848152602081019091526001600160a01b0392831692631a7b5ff7921690869086908690816103b1565b606081526020019060019003908161039c5790505b506040518663ffffffff1660e01b81526004016103d2959493929190610f3c565b6020604051808303816000875af11580156103f1573d6000803e3d6000fd5b505050506040513d601f19601f820116820180604052508101906104159190610fca565b600090815260036020526040902080546001600160a01b03191633179055505050565b604080516001600160a01b038416602482015260448082018490528251808303909101815260649091019091526020810180516001600160e01b031663a9059cbb60e01b17905261048a90849061048f565b505050565b60006104e4826040518060400160405280602081526020017f5361666545524332303a206c6f772d6c6576656c2063616c6c206661696c6564815250856001600160a01b03166105649092919063ffffffff16565b90508051600014806105055750808060200190518101906105059190610fe3565b61048a5760405162461bcd60e51b815260206004820152602a60248201527f5361666545524332303a204552433230206f7065726174696f6e20646964206e6044820152691bdd081cdd58d8d9595960b21b60648201526084016100f3565b6060610573848460008561057b565b949350505050565b6060824710156105dc5760405162461bcd60e51b815260206004820152602660248201527f416464726573733a20696e73756666696369656e742062616c616e636520666f6044820152651c8818d85b1b60d21b60648201526084016100f3565b600080866001600160a01b031685876040516105f89190611000565b60006040518083038185875af1925050503d8060008114610635576040519150601f19603f3d011682016040523d82523d6000602084013e61063a565b606091505b509150915061064b87838387610656565b979650505050505050565b606083156106c55782516000036106be576001600160a01b0385163b6106be5760405162461bcd60e51b815260206004820152601d60248201527f416464726573733a2063616c6c20746f206e6f6e2d636f6e747261637400000060448201526064016100f3565b5081610573565b61057383838151156106da5781518083602001fd5b8060405162461bcd60e51b81526004016100f3919061101c565b6000806040838503121561070757600080fd5b823567ffffffffffffffff81111561071e57600080fd5b83016102a0818603121561073157600080fd5b946020939093013593505050565b6000806040838503121561075257600080fd5b50508035926020909101359150565b634e487b7160e01b600052604160045260246000fd5b604051610200810167ffffffffffffffff8111828210171561079b5761079b610761565b60405290565b604051610560810167ffffffffffffffff8111828210171561079b5761079b610761565b67ffffffffffffffff811681146107db57600080fd5b50565b80516107e9816107c5565b919050565b6001600160a01b03811681146107db57600080fd5b80516107e9816107ee565b60005b83811015610829578181015183820152602001610811565b50506000910152565b600082601f83011261084357600080fd5b815167ffffffffffffffff8082111561085e5761085e610761565b604051601f8301601f19908116603f0116810190828211818310171561088657610886610761565b8160405283815286602085880101111561089f57600080fd5b6108b084602083016020890161080e565b9695505050505050565b80516fffffffffffffffffffffffffffffffff811681146107e957600080fd5b805161ffff811681146107e957600080fd5b6000602082840312156108fe57600080fd5b815167ffffffffffffffff8082111561091657600080fd5b90830190610200828603121561092b57600080fd5b610933610777565b61093c836107de565b815261094a60208401610803565b602082015261095b60408401610803565b604082015260608301518281111561097257600080fd5b61097e87828601610832565b6060830152506080830151608082015260a083015160a08201526109a460c084016108ba565b60c08201526109b560e084016108ba565b60e082015261010091506109ca8284016108da565b8282015261012091506109de8284016107de565b8282015261014091506109f28284016107de565b828201526101609150610a068284016107de565b828201526101809150610a1a828401610803565b828201526101a0915081830151828201526101c09150610a3b8284016107de565b918101919091526101e091820151918101919091529392505050565b80356107e9816107c5565b80151581146107db57600080fd5b80356107e981610a62565b803560ff811681146107e957600080fd5b80358252602081013560208301526040810135610aa8816107c5565b67ffffffffffffffff9081166040840152606082013590610ac8826107c5565b808216606085015250506080810135608083015260a081013560a083015260c081013560c0830152610b1160e08301610b0360e08401610a57565b67ffffffffffffffff169052565b610100610b1f818301610a57565b67ffffffffffffffff169083015261012081810135908301526101408082013590830152610160808201359083015261018080820135908301526101a080820135908301526101c080820135908301526101e0808201359083015261020080820135908301526102208082013590830152610240610b9e818301610a70565b151590830152610260610bb2828201610a7b565b60ff1692019190915250565b6040815260008335601e19853603018112610bd857600080fd5b840160208101903567ffffffffffffffff811115610bf557600080fd5b8060051b803603831315610c0857600080fd5b6102a060408601526102e085018290526103006001600160fb1b03831115610c2f57600080fd5b818482880137610c456060870160208a01610a8c565b6020860196909652909301909301949350505050565b600060208284031215610c6d57600080fd5b8151610c78816107ee565b9392505050565b8051600581106107e957600080fd5b80516107e981610a62565b600060208284031215610cab57600080fd5b815167ffffffffffffffff80821115610cc357600080fd5b908301906105608286031215610cd857600080fd5b610ce06107a1565b610ce983610c7f565b8152610cf760208401610803565b6020820152610d0860408401610803565b6040820152610d1960608401610803565b6060820152610d2a60808401610803565b608082015260a083015182811115610d4157600080fd5b610d4d87828601610832565b60a083015250610d5f60c08401610c8e565b60c082015260e0838101519082015261010080840151908201526101209150610d89828401610803565b918101919091526101408281015190820152610160808301519082015261018080830151908201526101a080830151908201526101c080830151908201526101e0808301519082015261020090610de1828401610803565b9181019190915261022082810151908201526102408083015190820152610260808301519082015261028080830151908201526102a080830151908201526102c080830151908201526102e08083015190820152610300808301519082015261032080830151908201526103408083015190820152610360808301519082015261038080830151908201526103a080830151908201526103c080830151908201526103e08083015190820152610400808301519082015261042080830151908201526104408083015190820152610460808301519082015261048080830151908201526104a080830151908201526104c080830151908201526104e080830151908201526105008083015190820152610520808301519082015261054091820151918101919091529392505050565b60008151808452610f2881602086016020860161080e565b601f01601f19169290920160200192915050565b600060a0820160018060a01b0380891684526020886020860152876040860152818716606086015260a06080860152829150855180845260c08601925060c08160051b87010193506020870160005b82811015610fb95760bf19888703018552610fa7868351610f10565b95509383019390830190600101610f8b565b50939b9a5050505050505050505050565b600060208284031215610fdc57600080fd5b5051919050565b600060208284031215610ff557600080fd5b8151610c7881610a62565b6000825161101281846020870161080e565b9190910192915050565b602081526000610c786020830184610f1056fea2646970667358221220f1fdda3cfa051e36a62b3c8298a576c3cfab51dc0043bdc4d4b316587989176264736f6c63430008170033",
  "linkReferences": {},
  "deployedLinkReferences": {}
}