{
  "_format": "hh-sol-artifact-1",
  "contractName": "MintingProxyMock",
  "sourceName": "contracts/assetManager/mock/MintingProxyMock.sol",
  "abi": [
    {
      "inputs": [
        {
          "internalType": "contract IAssetManager",
          "name": "_assetManager",
          "type": "address"
        },
        {
          "internalType": "address",
          "name": "_agentVault",
          "type": "address"
        },
        {
          "internalType": "address",
          "name": "_operator",
          "type": "address"
        }
      ],
      "stateMutability": "nonpayable",
      "type": "constructor"
    },
    {
      "inputs": [
        {
          "components": [
            {
              "internalType": "bytes32[]",
              "name": "merkleProof",
              "type": "bytes32[]"
            },
            {
              "components": [
                {
                  "internalType": "bytes32",
                  "name": "attestationType",
                  "type": "bytes32"
                },
                {
                  "internalType": "bytes32",
                  "name": "sourceId",
                  "type": "bytes32"
                },
                {
                  "internalType": "uint64",
                  "name": "votingRound",
                  "type": "uint64"
                },
                {
                  "internalType": "uint64",
                  "name": "lowestUsedTimestamp",
                  "type": "uint64"
                },
                {
                  "components": [
                    {
                      "internalType": "bytes32",
                      "name": "transactionId",
                      "type": "bytes32"
                    },
                    {
                      "internalType": "uint256",
                      "name": "inUtxo",
                      "type": "uint256"
                    },
                    {
                      "internalType": "uint256",
                      "name": "utxo",
                      "type": "uint256"
                    }
                  ],
                  "internalType": "struct IPayment.RequestBody",
                  "name": "requestBody",
                  "type": "tuple"
                },
                {
                  "components": [
                    {
                      "internalType": "uint64",
                      "name": "blockNumber",
                      "type": "uint64"
                    },
                    {
                      "internalType": "uint64",
                      "name": "blockTimestamp",
                      "type": "uint64"
                    },
                    {
                      "internalType": "bytes32",
                      "name": "sourceAddressHash",
                      "type": "bytes32"
                    },
                    {
                      "internalType": "bytes32",
                      "name": "sourceAddressesRoot",
                      "type": "bytes32"
                    },
                    {
                      "internalType": "bytes32",
                      "name": "receivingAddressHash",
                      "type": "bytes32"
                    },
                    {
                      "internalType": "bytes32",
                      "name": "intendedReceivingAddressHash",
                      "type": "bytes32"
                    },
                    {
                      "internalType": "int256",
                      "name": "spentAmount",
                      "type": "int256"
                    },
                    {
                      "internalType": "int256",
                      "name": "intendedSpentAmount",
                      "type": "int256"
                    },
                    {
                      "internalType": "int256",
                      "name": "receivedAmount",
                      "type": "int256"
                    },
                    {
                      "internalType": "int256",
                      "name": "intendedReceivedAmount",
                      "type": "int256"
                    },
                    {
                      "internalType": "bytes32",
                      "name": "standardPaymentReference",
                      "type": "bytes32"
                    },
                    {
                      "internalType": "bool",
                      "name": "oneToOne",
                      "type": "bool"
                    },
                    {
                      "internalType": "uint8",
                      "name": "status",
                      "type": "uint8"
                    }
                  ],
                  "internalType": "struct IPayment.ResponseBody",
                  "name": "responseBody",
                  "type": "tuple"
                }
              ],
              "internalType": "struct IPayment.Response",
              "name": "data",
              "type": "tuple"
            }
          ],
          "internalType": "struct IPayment.Proof",
          "name": "_payment",
          "type": "tuple"
        },
        {
          "internalType": "uint256",
          "name": "_collateralReservationId",
          "type": "uint256"
        }
      ],
      "name": "executeMinting",
      "outputs": [],
      "stateMutability": "nonpayable",
      "type": "function"
    },
    {
      "inputs": [],
      "name": "mintingFeeBIPS",
      "outputs": [
        {
          "internalType": "uint256",
          "name": "",
          "type": "uint256"
        }
      ],
      "stateMutability": "view",
      "type": "function"
    },
    {
      "inputs": [
        {
          "internalType": "uint256",
          "name": "_lots",
          "type": "uint256"
        },
        {
          "internalType": "uint256",
          "name": "_maxMintingFeeBIPS",
          "type": "uint256"
        }
      ],
      "name": "reserveCollateral",
      "outputs": [],
      "stateMutability": "nonpayable",
      "type": "function"
    },
    {
      "stateMutability": "payable",
      "type": "receive"
    }
  ],
  "bytecode": "0x6080604052348015600f57600080fd5b5060405161104d38038061104d833981016040819052602c916084565b600080546001600160a01b039485166001600160a01b03199182161790915560028054938516938216939093179092556001805491909316911617905560ca565b6001600160a01b0381168114608157600080fd5b50565b600080600060608486031215609857600080fd5b835160a181606d565b602085015190935060b081606d565b604085015190925060bf81606d565b809150509250925092565b610f74806100d96000396000f3fe6080604052600436106100385760003560e01c80630da5e8e0146100445780632ee3211a14610066578063daf940c61461008d57600080fd5b3661003f57005b600080fd5b34801561005057600080fd5b5061006461005f3660046106d2565b6100ad565b005b34801561007257600080fd5b5061007b6102e4565b60405190815260200160405180910390f35b34801561009957600080fd5b506100646100a836600461071c565b610367565b6001546001600160a01b031633146100fc5760405162461bcd60e51b815260206004820152600d60248201526c37b7363c9037b832b930ba37b960991b60448201526064015b60405180910390fd5b6000818152600360205260409020546001600160a01b03168061015a5760405162461bcd60e51b81526020600482015260166024820152751a5b9d985b1a59081c995cd95c9d985d1a5bdb881a5960521b60448201526064016100f3565b60008281526003602052604080822080546001600160a01b031916905581549051632e483f5560e11b8152600481018590526001600160a01b0390911690635c907eaa90602401600060405180830381865afa1580156101be573d6000803e3d6000fd5b505050506040513d6000823e601f3d908101601f191682016040526101e691908101906108ce565b600054604051626d2f4760e51b81529192506001600160a01b031690630da5e8e0906102189087908790600401610b8f565b600060405180830381600087803b15801561023257600080fd5b505af1158015610246573d6000803e3d6000fd5b5050505060008160a0015190506102dd838260008054906101000a90046001600160a01b03166001600160a01b0316637c7db1a56040518163ffffffff1660e01b8152600401602060405180830381865afa1580156102a9573d6000803e3d6000fd5b505050506040513d601f19601f820116820180604052508101906102cd9190610c29565b6001600160a01b03169190610412565b5050505050565b60008054600254604051630152052b60e41b81526001600160a01b0391821660048201528392919091169063152052b090602401600060405180830381865afa158015610335573d6000803e3d6000fd5b505050506040513d6000823e601f3d908101601f1916820160405261035d9190810190610c67565b60e0015192915050565b600080546002546040516309d69eff60e21b81526001600160a01b03918216600482015260248101869052604481018590526064810184905291169063275a7bfc906084016020604051808303816000875af11580156103cb573d6000803e3d6000fd5b505050506040513d601f19601f820116820180604052508101906103ef9190610eb9565b600090815260036020526040902080546001600160a01b03191633179055505050565b604080516001600160a01b038416602482015260448082018490528251808303909101815260649091019091526020810180516001600160e01b031663a9059cbb60e01b179052610464908490610469565b505050565b60006104be826040518060400160405280602081526020017f5361666545524332303a206c6f772d6c6576656c2063616c6c206661696c6564815250856001600160a01b031661053e9092919063ffffffff16565b90508051600014806104df5750808060200190518101906104df9190610ed2565b6104645760405162461bcd60e51b815260206004820152602a60248201527f5361666545524332303a204552433230206f7065726174696f6e20646964206e6044820152691bdd081cdd58d8d9595960b21b60648201526084016100f3565b606061054d8484600085610555565b949350505050565b6060824710156105b65760405162461bcd60e51b815260206004820152602660248201527f416464726573733a20696e73756666696369656e742062616c616e636520666f6044820152651c8818d85b1b60d21b60648201526084016100f3565b600080866001600160a01b031685876040516105d29190610eef565b60006040518083038185875af1925050503d806000811461060f576040519150601f19603f3d011682016040523d82523d6000602084013e610614565b606091505b509150915061062587838387610630565b979650505050505050565b6060831561069f578251600003610698576001600160a01b0385163b6106985760405162461bcd60e51b815260206004820152601d60248201527f416464726573733a2063616c6c20746f206e6f6e2d636f6e747261637400000060448201526064016100f3565b508161054d565b61054d83838151156106b45781518083602001fd5b8060405162461bcd60e51b81526004016100f39190610f0b565b5050565b600080604083850312156106e557600080fd5b82356001600160401b038111156106fb57600080fd5b83016102a0818603121561070e57600080fd5b946020939093013593505050565b6000806040838503121561072f57600080fd5b50508035926020909101359150565b634e487b7160e01b600052604160045260246000fd5b6040516101e081016001600160401b03811182821017156107775761077761073e565b60405290565b60405161050081016001600160401b03811182821017156107775761077761073e565b6001600160401b03811681146107b557600080fd5b50565b80516107c3816107a0565b919050565b6001600160a01b03811681146107b557600080fd5b80516107c3816107c8565b60005b838110156108035781810151838201526020016107eb565b50506000910152565b600082601f83011261081d57600080fd5b81516001600160401b038111156108365761083661073e565b604051601f8201601f19908116603f011681016001600160401b03811182821017156108645761086461073e565b60405281815283820160200185101561087c57600080fd5b61054d8260208301602087016107e8565b80516fffffffffffffffffffffffffffffffff811681146107c357600080fd5b805161ffff811681146107c357600080fd5b8051600481106107c357600080fd5b6000602082840312156108e057600080fd5b81516001600160401b038111156108f657600080fd5b82016101e0818503121561090957600080fd5b610911610754565b61091a826107b8565b8152610928602083016107dd565b6020820152610939604083016107dd565b604082015260608201516001600160401b0381111561095757600080fd5b6109638682850161080c565b6060830152506080828101519082015260a0808301519082015261098960c0830161088d565b60c082015261099a60e0830161088d565b60e08201526109ac61010083016108ad565b6101008201526109bf61012083016107b8565b6101208201526109d261014083016107b8565b6101408201526109e561016083016107b8565b6101608201526109f861018083016107dd565b6101808201526101a08281015190820152610a166101c083016108bf565b6101c0820152949350505050565b80356107c3816107a0565b80151581146107b557600080fd5b80356107c381610a2f565b803560ff811681146107c357600080fd5b610a7382610a6683610a24565b6001600160401b03169052565b610a7f60208201610a24565b6001600160401b0316602083015260408181013590830152606080820135908301526080808201359083015260a0808201359083015260c0808201359083015260e08082013590830152610100808201359083015261012080820135908301526101408082013590830152610af76101608201610a3d565b1515610160830152610b0c6101808201610a48565b60ff8116610180840152505050565b80358252602080820135908301526040810135610b37816107a0565b6001600160401b031660408301526060810135610b53816107a0565b6001600160401b031660608301526080818101359083015260a0808201359083015260c080820135908301526106ce60e0808401908301610a59565b6040815260008335601e19853603018112610ba957600080fd5b84016020810190356001600160401b03811115610bc557600080fd5b8060051b803603831315610bd857600080fd5b6102a060408601526102e085018290526001600160fb1b03821115610bfc57600080fd5b8083610300870137610c146060860160208901610b1b565b60208501959095525050500161030001919050565b600060208284031215610c3b57600080fd5b8151610c46816107c8565b9392505050565b8051600581106107c357600080fd5b80516107c381610a2f565b600060208284031215610c7957600080fd5b81516001600160401b03811115610c8f57600080fd5b82016105008185031215610ca257600080fd5b610caa61077d565b610cb382610c4d565b8152610cc1602083016107dd565b6020820152610cd2604083016107dd565b6040820152610ce3606083016107dd565b6060820152610cf4608083016107dd565b608082015260a08201516001600160401b03811115610d1257600080fd5b610d1e8682850161080c565b60a083015250610d3060c08301610c5c565b60c082015260e082810151908201526101008083015190820152610d5761012083016107dd565b6101208201526101408281015190820152610160808301519082015261018080830151908201526101a080830151908201526101c080830151908201526101e08083015190820152610dac61020083016107dd565b61020082015261022082810151908201526102408083015190820152610260808301519082015261028080830151908201526102a080830151908201526102c080830151908201526102e08083015190820152610300808301519082015261032080830151908201526103408083015190820152610360808301519082015261038080830151908201526103a080830151908201526103c080830151908201526103e08083015190820152610400808301519082015261042080830151908201526104408083015190820152610460808301519082015261048080830151908201526104a080830151908201526104c080830151908201526104e091820151918101919091529392505050565b600060208284031215610ecb57600080fd5b5051919050565b600060208284031215610ee457600080fd5b8151610c4681610a2f565b60008251610f018184602087016107e8565b9190910192915050565b6020815260008251806020840152610f2a8160408501602087016107e8565b601f01601f1916919091016040019291505056fea2646970667358221220b1d82bacdaa5256db5afde775fa29ffc18233b007c919984edb6bbbe32b91cbd64736f6c634300081b0033",
  "linkReferences": {},
  "deployedLinkReferences": {}
}