{
  "_format": "hh-sol-artifact-1",
  "contractName": "MathUtilsMock",
  "sourceName": "contracts/utils/mock/MathUtilsMock.sol",
  "abi": [
    {
      "inputs": [
        {
          "internalType": "int256",
          "name": "_a",
          "type": "int256"
        },
        {
          "internalType": "uint256",
          "name": "_b",
          "type": "uint256"
        }
      ],
      "name": "mixedLTE_iu",
      "outputs": [
        {
          "internalType": "bool",
          "name": "",
          "type": "bool"
        }
      ],
      "stateMutability": "pure",
      "type": "function"
    },
    {
      "inputs": [
        {
          "internalType": "uint256",
          "name": "_a",
          "type": "uint256"
        },
        {
          "internalType": "int256",
          "name": "_b",
          "type": "int256"
        }
      ],
      "name": "mixedLTE_ui",
      "outputs": [
        {
          "internalType": "bool",
          "name": "",
          "type": "bool"
        }
      ],
      "stateMutability": "pure",
      "type": "function"
    },
    {
      "inputs": [
        {
          "internalType": "int256",
          "name": "_x",
          "type": "int256"
        }
      ],
      "name": "positivePart",
      "outputs": [
        {
          "internalType": "uint256",
          "name": "",
          "type": "uint256"
        }
      ],
      "stateMutability": "pure",
      "type": "function"
    },
    {
      "inputs": [
        {
          "internalType": "uint256",
          "name": "x",
          "type": "uint256"
        },
        {
          "internalType": "uint256",
          "name": "rounding",
          "type": "uint256"
        }
      ],
      "name": "roundUp",
      "outputs": [
        {
          "internalType": "uint256",
          "name": "",
          "type": "uint256"
        }
      ],
      "stateMutability": "pure",
      "type": "function"
    },
    {
      "inputs": [
        {
          "internalType": "uint256",
          "name": "_a",
          "type": "uint256"
        },
        {
          "internalType": "uint256",
          "name": "_b",
          "type": "uint256"
        }
      ],
      "name": "subOrZero",
      "outputs": [
        {
          "internalType": "uint256",
          "name": "",
          "type": "uint256"
        }
      ],
      "stateMutability": "pure",
      "type": "function"
    }
  ],
  "bytecode": "0x6080604052348015600f57600080fd5b5061027e8061001f6000396000f3fe608060405234801561001057600080fd5b50600436106100575760003560e01c806303ce6c551461005c578063084266981461008257806342ad83aa14610095578063791f3d97146100b8578063e3c63b80146100cb575b600080fd5b61006f61006a3660046101af565b6100de565b6040519081526020015b60405180910390f35b61006f6100903660046101af565b6100f3565b6100a86100a33660046101af565b6100ff565b6040519015158152602001610079565b6100a86100c63660046101af565b61010b565b61006f6100d93660046101d1565b610117565b60006100ea8383610122565b90505b92915050565b60006100ea838361015b565b60006100ea8383610175565b60006100ea8383610187565b60006100ed8261019a565b60008061012f83856101ea565b9050801561015157826101428286610222565b61014c9190610235565b610153565b835b949350505050565b600081831161016b5760006100ea565b6100ea8284610222565b600080831315806100ea575050101590565b60008082121580156100ea575050101590565b6000808212156101ab5760006100ed565b5090565b600080604083850312156101c257600080fd5b50508035926020909101359150565b6000602082840312156101e357600080fd5b5035919050565b60008261020757634e487b7160e01b600052601260045260246000fd5b500690565b634e487b7160e01b600052601160045260246000fd5b818103818111156100ed576100ed61020c565b808201808211156100ed576100ed61020c56fea26469706673582212200ec206bb78bf9807bda6604765372d9452a322e36599cd10b109b39f2ef8568b64736f6c634300081b0033",
  "linkReferences": {},
  "deployedLinkReferences": {}
}