{
  "_format": "hh-sol-artifact-1",
  "contractName": "RedemptionHandshakeFacet",
  "sourceName": "contracts/assetManager/facets/RedemptionHandshakeFacet.sol",
  "abi": [
    {
      "anonymous": false,
      "inputs": [
        {
          "indexed": true,
          "internalType": "address",
          "name": "agentVault",
          "type": "address"
        },
        {
          "indexed": false,
          "internalType": "uint256",
          "name": "dustUBA",
          "type": "uint256"
        }
      ],
      "name": "DustChanged",
      "type": "event"
    },
    {
      "anonymous": false,
      "inputs": [
        {
          "indexed": true,
          "internalType": "address",
          "name": "agentVault",
          "type": "address"
        },
        {
          "indexed": true,
          "internalType": "address",
          "name": "redeemer",
          "type": "address"
        },
        {
          "indexed": true,
          "internalType": "uint64",
          "name": "requestId",
          "type": "uint64"
        },
        {
          "indexed": false,
          "internalType": "uint256",
          "name": "redemptionAmountUBA",
          "type": "uint256"
        },
        {
          "indexed": false,
          "internalType": "uint256",
          "name": "redeemedVaultCollateralWei",
          "type": "uint256"
        },
        {
          "indexed": false,
          "internalType": "uint256",
          "name": "redeemedPoolCollateralWei",
          "type": "uint256"
        }
      ],
      "name": "RedemptionDefault",
      "type": "event"
    },
    {
      "anonymous": false,
      "inputs": [
        {
          "indexed": true,
          "internalType": "address",
          "name": "agentVault",
          "type": "address"
        },
        {
          "indexed": true,
          "internalType": "address",
          "name": "redeemer",
          "type": "address"
        },
        {
          "indexed": true,
          "internalType": "uint64",
          "name": "requestId",
          "type": "uint64"
        },
        {
          "indexed": false,
          "internalType": "string",
          "name": "paymentAddress",
          "type": "string"
        },
        {
          "indexed": false,
          "internalType": "uint256",
          "name": "valueUBA",
          "type": "uint256"
        }
      ],
      "name": "RedemptionRequestRejected",
      "type": "event"
    },
    {
      "anonymous": false,
      "inputs": [
        {
          "indexed": true,
          "internalType": "address",
          "name": "agentVault",
          "type": "address"
        },
        {
          "indexed": true,
          "internalType": "address",
          "name": "redeemer",
          "type": "address"
        },
        {
          "indexed": true,
          "internalType": "uint64",
          "name": "requestId",
          "type": "uint64"
        },
        {
          "indexed": false,
          "internalType": "uint256",
          "name": "valueTakenOverUBA",
          "type": "uint256"
        },
        {
          "indexed": false,
          "internalType": "address",
          "name": "newAgentVault",
          "type": "address"
        },
        {
          "indexed": false,
          "internalType": "uint64",
          "name": "newRequestId",
          "type": "uint64"
        }
      ],
      "name": "RedemptionRequestTakenOver",
      "type": "event"
    },
    {
      "anonymous": false,
      "inputs": [
        {
          "indexed": true,
          "internalType": "address",
          "name": "agentVault",
          "type": "address"
        },
        {
          "indexed": true,
          "internalType": "address",
          "name": "redeemer",
          "type": "address"
        },
        {
          "indexed": true,
          "internalType": "uint256",
          "name": "requestId",
          "type": "uint256"
        },
        {
          "indexed": false,
          "internalType": "string",
          "name": "paymentAddress",
          "type": "string"
        },
        {
          "indexed": false,
          "internalType": "uint256",
          "name": "valueUBA",
          "type": "uint256"
        },
        {
          "indexed": false,
          "internalType": "uint256",
          "name": "feeUBA",
          "type": "uint256"
        },
        {
          "indexed": false,
          "internalType": "uint256",
          "name": "firstUnderlyingBlock",
          "type": "uint256"
        },
        {
          "indexed": false,
          "internalType": "uint256",
          "name": "lastUnderlyingBlock",
          "type": "uint256"
        },
        {
          "indexed": false,
          "internalType": "uint256",
          "name": "lastUnderlyingTimestamp",
          "type": "uint256"
        },
        {
          "indexed": false,
          "internalType": "bytes32",
          "name": "paymentReference",
          "type": "bytes32"
        },
        {
          "indexed": false,
          "internalType": "address",
          "name": "executor",
          "type": "address"
        },
        {
          "indexed": false,
          "internalType": "uint256",
          "name": "executorFeeNatWei",
          "type": "uint256"
        }
      ],
      "name": "RedemptionRequested",
      "type": "event"
    },
    {
      "anonymous": false,
      "inputs": [
        {
          "indexed": true,
          "internalType": "address",
          "name": "agentVault",
          "type": "address"
        },
        {
          "indexed": true,
          "internalType": "uint256",
          "name": "redemptionTicketId",
          "type": "uint256"
        },
        {
          "indexed": false,
          "internalType": "uint256",
          "name": "ticketValueUBA",
          "type": "uint256"
        }
      ],
      "name": "RedemptionTicketCreated",
      "type": "event"
    },
    {
      "anonymous": false,
      "inputs": [
        {
          "indexed": true,
          "internalType": "address",
          "name": "agentVault",
          "type": "address"
        },
        {
          "indexed": true,
          "internalType": "uint256",
          "name": "redemptionTicketId",
          "type": "uint256"
        }
      ],
      "name": "RedemptionTicketDeleted",
      "type": "event"
    },
    {
      "anonymous": false,
      "inputs": [
        {
          "indexed": true,
          "internalType": "address",
          "name": "agentVault",
          "type": "address"
        },
        {
          "indexed": true,
          "internalType": "uint256",
          "name": "redemptionTicketId",
          "type": "uint256"
        },
        {
          "indexed": false,
          "internalType": "uint256",
          "name": "ticketValueUBA",
          "type": "uint256"
        }
      ],
      "name": "RedemptionTicketUpdated",
      "type": "event"
    },
    {
      "anonymous": false,
      "inputs": [
        {
          "indexed": true,
          "internalType": "address",
          "name": "agentVault",
          "type": "address"
        },
        {
          "indexed": true,
          "internalType": "uint256",
          "name": "transferRedemptionRequestId",
          "type": "uint256"
        },
        {
          "indexed": false,
          "internalType": "uint256",
          "name": "remintedUBA",
          "type": "uint256"
        }
      ],
      "name": "TransferToCoreVaultDefaulted",
      "type": "event"
    },
    {
      "inputs": [
        {
          "internalType": "uint256",
          "name": "_redemptionRequestId",
          "type": "uint256"
        }
      ],
      "name": "rejectRedemptionRequest",
      "outputs": [],
      "stateMutability": "nonpayable",
      "type": "function"
    },
    {
      "inputs": [
        {
          "internalType": "address",
          "name": "_agentVault",
          "type": "address"
        },
        {
          "internalType": "uint256",
          "name": "_redemptionRequestId",
          "type": "uint256"
        }
      ],
      "name": "takeOverRedemptionRequest",
      "outputs": [],
      "stateMutability": "nonpayable",
      "type": "function"
    }
  ],
  "bytecode": "0x608060405234801561001057600080fd5b50614d1e806100206000396000f3fe608060405234801561001057600080fd5b50600436106100365760003560e01c80635593e4d01461003b578063f826a2a014610050575b600080fd5b61004e6100493660046146ab565b610063565b005b61004e61005e3660046146d9565b610096565b61006b6100d3565b61007c6100778261013f565b6101ab565b6100936001600080516020614cc983398151915255565b50565b61009e610535565b6100a66100d3565b6100b8826100b38361013f565b6105c0565b6100cf6001600080516020614cc983398151915255565b5050565b600080516020614cc98339815191528054600119016101395760405162461bcd60e51b815260206004820152601f60248201527f5265656e7472616e637947756172643a207265656e7472616e742063616c6c0060448201526064015b60405180910390fd5b60029055565b60006001600160401b038211156101a75760405162461bcd60e51b815260206004820152602660248201527f53616665436173743a2076616c756520646f65736e27742066697420696e203660448201526534206269747360d01b6064820152608401610130565b5090565b60006101b682610bdb565b60048101549091506000906101d3906001600160a01b0316610cbd565b90506101de81610d5e565b600c81015463ffffffff1660000361022d5760405162461bcd60e51b81526020600482015260126024820152711a185b991cda185ad948191a5cd8589b195960721b6044820152606401610130565b60016004830154600160a01b900460ff16600281111561024f5761024f614705565b146102895760405162461bcd60e51b815260206004820152600a6024820152696e6f742061637469766560b01b6044820152606401610130565b60068201546001600160401b0316156102d75760405162461bcd60e51b815260206004820152601060248201526f185b1c9958591e481c995a9958dd195960821b6044820152606401610130565b6006820154600160401b90046001600160401b03161561032e5760405162461bcd60e51b815260206004820152601260248201527130b63932b0b23c903a30b5b2b71037bb32b960711b6044820152606401610130565b600882015460ff16156103925760405162461bcd60e51b815260206004820152602660248201527f636f7265207661756c74207472616e736665722063616e6e6f742062652072656044820152651a9958dd195960d21b6064820152608401610130565b7f4f24f5c433db0962dac0d2c8b84197a6e6c7cc4e5d9ebe1916a1b6193da2f352546003830154600080516020614c898339815191529142916103ee916201000090046001600160401b0390811691600160a01b900416614731565b6001600160401b0316116104545760405162461bcd60e51b815260206004820152602760248201527f72656a65637420726564656d7074696f6e20726571756573742077696e646f776044820152660818db1bdcd95960ca1b6064820152608401610130565b61045d4261013f565b60068401805467ffffffffffffffff19166001600160401b03929092169190911790556004830154600160a81b900460ff16156104b65761049f828486610dad565b6104a883610f9b565b6104b184611012565b61052f565b6003830154600484015460028501546001600160401b03808816936001600160a01b039081169316917f53dc6bb24d3e68f322621ede45a68da3b91792851d240fcbe0598d11308e755391600789019161051891600160c01b909104166110d6565b60405161052692919061478c565b60405180910390a45b50505050565b7fec7e8c1c441439dd40959777f4c577ea0cd42fcc1dbe59d2bd0f5d9c55df8dc654600080516020614ca98339815191529042600160401b9091046001600160401b031611156100935760405162461bcd60e51b8152602060048201526016602482015275656d657267656e63792070617573652061637469766560501b6044820152606401610130565b60006105cb82610bdb565b600881015490915060ff16156105e3576105e3614823565b60048101546000906105fd906001600160a01b0316610cbd565b60048301549091506001600160a01b0380861691160361064c5760405162461bcd60e51b815260206004820152600a6024820152691cd85b59481859d95b9d60b21b6044820152606401610130565b600061065785610cbd565b905061066281610d5e565b60016004840154600160a01b900460ff16600281111561068457610684614705565b146106be5760405162461bcd60e51b815260206004820152600a6024820152696e6f742061637469766560b01b6044820152606401610130565b60068301546001600160401b031660000361070a5760405162461bcd60e51b815260206004820152600c60248201526b1b9bdd081c995a9958dd195960a21b6044820152606401610130565b7f4f24f5c433db0962dac0d2c8b84197a6e6c7cc4e5d9ebe1916a1b6193da2f352546006840154600080516020614c8983398151915291429161076091600160501b90046001600160401b039081169116614731565b6001600160401b0316116107c95760405162461bcd60e51b815260206004820152602a60248201527f74616b65206f76657220726564656d7074696f6e20726571756573742077696e604482015269191bddc818db1bdcd95960b21b6064820152608401610130565b6000806107f1848760020160189054906101000a90046001600160401b031660006001611130565b915091506000826001600160401b03161161083b5760405162461bcd60e51b815260206004820152600a6024820152696e6f207469636b65747360b01b6044820152606401610130565b600286015460058701546000916001600160401b03600160c01b9091048116916108709186811691600160a01b900416614839565b61087a9190614866565b604080518082019091526001600160a01b03808c1682526001600160401b038616602083015260038a015460078b018054949550929360009361096493869316916108c490614758565b80601f01602080910402602001604051908101604052809291908181526020018280546108f090614758565b801561093d5780601f106109125761010080835404028352916020019161093d565b820191906000526020600020905b81548152906001019060200180831161092057829003601f168201915b5050505060058e0154600091506001600160a01b031661095c8961013f565b60008061132d565b9050896001600160401b03168960030160009054906101000a90046001600160a01b03166001600160a01b03168a60040160009054906101000a90046001600160a01b03166001600160a01b03167fc716e45ba445102e4d7a69b2010b79ef00478399e0f82a9934f796f7210113bc878f86604051610a08939291909283526001600160a01b039190911660208301526001600160401b0316604082015260600190565b60405180910390a46000610a1b82610bdb565b9050610a264261013f565b60068201805467ffffffffffffffff60401b1916600160401b6001600160401b039384160217905560028b0154878216600160c01b9091049091161115610ba457858a60020160188282829054906101000a90046001600160401b0316610a8d919061487a565b92506101000a8154816001600160401b0302191690836001600160401b03160217905550610aba8461013f565b60058b018054601490610ade908490600160a01b90046001600160401b031661487a565b92506101000a8154816001600160401b0302191690836001600160401b031602179055506000610b2c610b278c60020160189054906101000a90046001600160401b03166110d6565b611824565b60018c0180546001600160801b0319166001600160801b0383161790559050610b7f610b27600080516020614c89833981519152600e01546001600160801b03841690600160401b900461ffff1661188d565b60018c0180546001600160801b03928316600160801b02921691909117905550610bad565b610bad8b611012565b610bb9898760006118a5565b610bc3898761199b565b610bcd8987611a09565b505050505050505050505050565b6000600080516020614ca98339815191526001600160401b0383168203610c395760405162461bcd60e51b81526020600482015260126024820152711a5b9d985b1a59081c995c5d595cdd081a5960721b6044820152606401610130565b6001600160401b0383166000908152600a82016020526040812092506004830154600160a01b900460ff166002811115610c7557610c75614705565b03610cb75760405162461bcd60e51b81526020600482015260126024820152711a5b9d985b1a59081c995c5d595cdd081a5960721b6044820152606401610130565b50919050565b7f5bebac0595fee029d42bb673937f5f1cb81cf8641382bc17774635de9b7d796568010000000000000000600160e01b03604083901b161880600060048084015460ff1690811115610d1157610d11614705565b03610cb75760405162461bcd60e51b815260206004820152601b60248201527f696e76616c6964206167656e74207661756c74206164647265737300000000006044820152606401610130565b610d688133611bad565b6100935760405162461bcd60e51b815260206004820152601660248201527537b7363c9030b3b2b73a103b30bab63a1037bbb732b960511b6044820152606401610130565b60016004830154600160a01b900460ff166002811115610dcf57610dcf614705565b14610ddc57610ddc614823565b600882015460ff16610f0e57600080610df58585611c7f565b60038601549193509150600090610e179087906001600160a01b031685611e9e565b50905080610e3257610e2b86868585611fba565b9150600092505b8115610e55576003850154610e539087906001600160a01b031684806121fa565b505b610e88868660020160189054906101000a90046001600160401b03168760040160159054906101000a900460ff166118a5565b60038501546001600160401b038516906001600160a01b0316610eaa88612305565b6001880154604080516001600160801b0390921682526020820188905281018690526001600160a01b0391909116907f3d88a018be66851f57adfd6fde7c19c103407f95df0b7c2640baf28a0330c6949060600160405180910390a4505050505050565b60038201546001600160401b038216906001600160a01b0316610f3085612305565b6001850154604080516001600160801b03909216825260006020830181905282820152516001600160a01b0392909216917f3d88a018be66851f57adfd6fde7c19c103407f95df0b7c2640baf28a0330c6949181900360600190a4610f9683838361232d565b505050565b6005810154600090610fc290633b9aca0090600160a01b90046001600160401b0316614839565b905080156100cf5760058201805467ffffffffffffffff60a01b1981169091556001600160a01b031633036110095760058201546100cf906001600160a01b0316826123af565b6100cf81612458565b61101b816124bf565b6001600160401b03811660009081527fec7e8c1c441439dd40959777f4c577ea0cd42fcc1dbe59d2bd0f5d9c55df8dc06020526040812081815560018101829055600281018290556003810180546001600160e01b03199081169091556004820180546001600160b01b031916905560058201805490911690556006810180546001600160801b0319169055600080516020614ca9833981519152916110c46007830182614661565b50600801805462ffffff191690555050565b7f4f24f5c433db0962dac0d2c8b84197a6e6c7cc4e5d9ebe1916a1b6193da2f34654600090600080516020614c898339815191529061112990600160901b90046001600160401b03908116908516614839565b9392505050565b7f4f24f5c433db0962dac0d2c8b84197a6e6c7cc4e5d9ebe1916a1b6193da2f349547f4f24f5c433db0962dac0d2c8b84197a6e6c7cc4e5d9ebe1916a1b6193da2f347546000918291600080516020614ca983398151915291600160801b900461ffff16906001600160401b0316835b82811080156111c05750886001600160401b0316866001600160401b0316105b1561129e57600060088501816111d58d612305565b6001600160a01b0316815260208101919091526040016000908120546001600160401b03169150819003611209575061129e565b6001600160401b038181166000908152600787016020526040812060068e0154815491936112429291811691600160a01b900416614731565b905061124e858261489a565b611258908261487a565b9050600061126f6112698b8f61487a565b83612530565b905061127b8482612559565b611285818b614731565b9950505050508080611296906148c0565b9150506111a0565b5060006112c16112ae878b61487a565b60068c01546001600160401b0316612530565b905086156112e0576112d3828261489a565b6112dd908261487a565b90505b6001600160401b03811615611305576112f98187614731565b95506113058a82612744565b8715611315576113158a87612795565b61131e866110d6565b94505050505094509492505050565b8751600090600080516020614ca983398151915290829061134d90610cbd565b905060808951106113a05760405162461bcd60e51b815260206004820152601b60248201527f756e6465726c79696e67206164647265737320746f6f206c6f6e6700000000006044820152606401610130565b885160208a0120600382015481036113fa5760405162461bcd60e51b815260206004820181905260248201527f63616e6e6f742072656465656d20746f206167656e74277320616464726573736044820152606401610130565b600061140c610b278e602001516110d6565b90506114178a6127e0565b94506114b16040805161026081018252600080825260208201819052918101829052606081018290526080810182905260a0810182905260c0810182905260e08101829052610100810182905261012081018290529061014082019081526000602082018190526040820181905260608083018290526080830182905260a0830182905260c083015260e082018190526101009091015290565b8281526001600160801b0382166020820152600f8501546201000090046001600160401b031660608201528d516114e89089612875565b6001600160401b0390811660a08401521660808201526115074261013f565b6001600160401b0316610100820152866115545761154f610b27600080516020614c89833981519152600e01546001600160801b03851690600160401b900461ffff1661188d565b611557565b60005b6001600160801b031660408201526001600160a01b038d811660e08301528e511661012082015260208e01516001600160401b031660c082015260016101408201819052508a15156101608201526001600160a01b038a81166101808301526001600160401b038a81166101a084015261020083018e9052881515610220840152600c860154600160e01b900461ffff166102408401528781166000908152600a880160209081526040918290208551815590850151918501516001600160801b03928316600160801b918416820217600183015560608601516002808401805460808a015160a08b015160c08c0151958a166001600160801b031990931692909217600160401b918a1691909102179096169587169093026001600160c01b031694909417600160c01b9186169190910217905560e08501516003820180546101008801519287166001600160e01b031990911617600160a01b929095168202949094179093556101208501516004820180546001600160a01b0319811692909616918217815561014087015187969395909491936001600160a81b0319169092179190849081111561170d5761170d614705565b021790555061016082015160048201805460ff60a81b1916600160a81b921515929092029190911790556101808201516005820180546101a08501516001600160a01b039093166001600160e01b031990911617600160a01b6001600160401b03938416021790556101c08301516006830180546101e08601519284166001600160801b031990911617600160401b929093169190910291909117905561020082015160078201906117bf9082614937565b50610220820151600890910180546102409093015161ffff166101000262ffff00199215159290921662ffffff199093169290921717905560208e01516118089085908d612995565b61181381878e612a39565b505050505098975050505050505050565b60006001600160801b038211156101a75760405162461bcd60e51b815260206004820152602760248201527f53616665436173743a2076616c756520646f65736e27742066697420696e20316044820152663238206269747360c81b6064820152608401610130565b600061189c8383612710612afe565b90505b92915050565b6118f38360050160109054906101000a90046001600160401b031683604051806040016040528060148152602001736e6f7420656e6f7567682072656465656d696e6760601b815250612c24565b8360050160106101000a8154816001600160401b0302191690836001600160401b0316021790555080610f965761196e8360050160189054906101000a90046001600160401b031683604051806040016040528060148152602001736e6f7420656e6f7567682072656465656d696e6760601b815250612c24565b8360050160186101000a8154816001600160401b0302191690836001600160401b03160217905550505050565b60058201546119bb908290600160401b90046001600160401b0316614731565b8260050160086101000a8154816001600160401b0302191690836001600160401b031602179055506100cf6119ef83612305565b6005840154600160401b90046001600160401b0316612c6f565b600080516020614ca98339815191526001600160401b038216600003611a2e57505050565b6000611a3984612305565b6009830154600160401b90046001600160401b031660008181526007850160205260409020805492935090916001600160a01b03808516911603611b3657805485908290601490611a9b908490600160a01b90046001600160401b0316614731565b92506101000a8154816001600160401b0302191690836001600160401b031602179055506000611ae18260000160149054906101000a90046001600160401b03166110d6565b9050826001600160401b0316846001600160a01b03167f9d2e72c50be7927e999d37329649af37a863df77bcb25361699ce021d3d7475d83604051611b2891815260200190565b60405180910390a350611ba5565b6000611b46600786018588612cbb565b90506000611b53876110d6565b9050816001600160401b0316856001600160a01b03167f631f8f2039090539b2ea4ef7dc567f7f1939ef4dd3e790b1ca7bc548a1fada5883604051611b9a91815260200190565b60405180910390a350505b505050505050565b60018201546000906001600160a01b03908116908316811480611c7757507f4f24f5c433db0962dac0d2c8b84197a6e6c7cc4e5d9ebe1916a1b6193da2f341546001600160a01b0316604051631f86345d60e31b81526001600160a01b038381166004830152919091169063fc31a2e890602401602060405180830381865afa158015611c3e573d6000803e3d6000fd5b505050506040513d601f19601f82011682018060405250810190611c6291906149f6565b6001600160a01b0316836001600160a01b0316145b949350505050565b600080600080516020614c8983398151915281611c9b866130c4565b6002860154909150600090611cc39083908990600160c01b90046001600160401b03166131a4565b6004870154909150600160a81b900460ff1615611d155760028601546040830151611cfe91600160c01b90046001600160401b03169061326b565b945060009350611d0e8582613285565b9450611e94565b60068601546001600160401b03161515611d9181611d4457600e850154600160501b900463ffffffff16611d57565b6018850154600160901b900463ffffffff165b63ffffffff16611d8b8960020160189054906101000a90046001600160401b03166001600160401b0316866040015161326b565b9061188d565b95506000611d9e89613294565b9050611e0682611dbf57600e860154600160701b900463ffffffff16611dd2565b6018860154600160b01b900463ffffffff165b63ffffffff16611d8b8a60020160189054906101000a90046001600160401b03166001600160401b0316846040015161326b565b6002890154909650600090611e2e9083908c90600160c01b90046001600160401b03166131a4565b905083881115611e84576000611e63611e47868b614a13565b60028c0154600160c01b90046001600160401b0316908b61331f565b9050611e7381846040015161326b565b611e7d9089614a26565b9750849850505b611e8e8782613285565b96505050505b5050509250929050565b6000806000611eac8661335c565b90506000611eb987612305565b82546040516370a0823160e01b81526001600160a01b038084166004830152929350611f3292889216906370a0823190602401602060405180830381865afa158015611f09573d6000803e3d6000fd5b505050506040513d601f19601f82011682018060405250810190611f2d9190614a39565b613285565b825460405163083e007560e21b81526001600160a01b0391821660048201528882166024820152604481018390529194508216906320f801d490606401600060405180830381600087803b158015611f8957600080fd5b505af1925050508015611f9a575060015b611fab576000935060009250611fb0565b600193505b5050935093915050565b600080611fc6866133a9565b90506000611fef82604001516040015183600001516040015187612afe9092919063ffffffff16565b90506000612090600080516020614c89833981519152600c0154604085810151015164010000000090910463ffffffff1690611d8b906120316009600a614b36565b60028c015460058e01546001600160401b03600160c01b909204821691600160801b820481169161206c91600160401b820481169116614731565b6120769190614731565b612080919061487a565b6001600160401b03169190612afe565b6040840151602001519091506120a68383614a26565b111561211a5760405162461bcd60e51b815260206004820152603a60248201527f6e6f7420656e6f756768206167656e7420706f6f6c20746f6b656e7320746f2060448201527f636f766572206661696c6564207661756c74207061796d656e740000000000006064820152608401610130565b600061214184602001516040015185600001516040015189612afe9092919063ffffffff16565b9050600061214f8288614a26565b60028a0154602087015191925061217891908c90600160c01b90046001600160401b03166131a4565b8111156121ed5760405162461bcd60e51b815260206004820152603860248201527f6e6f7420656e6f75676820706f6f6c20636f6c6c61746572616c20746f20636f60448201527f766572206661696c6564207661756c74207061796d656e7400000000000000006064820152608401610130565b9998505050505050505050565b6000808560000160009054906101000a90046001600160a01b03166001600160a01b0316634ac8eb5f6040518163ffffffff1660e01b8152600401602060405180830381865afa158015612252573d6000803e3d6000fd5b505050506040513d601f19601f820116820180604052508101906122769190614a39565b90506122828482613285565b915061228e8383613285565b865460405163adf58c1560e01b81526001600160a01b038881166004830152602482018690526044820184905292955091169063adf58c1590606401600060405180830381600087803b1580156122e457600080fd5b505af11580156122f8573d6000803e3d6000fd5b5050505050949350505050565b7f5bebac0595fee029d42bb673937f5f1cb81cf8641382bc17774635de9b7d79651860401c90565b61233561344a565b61233e816124bf565b61234883836134bb565b806001600160401b031661235b84612305565b60018401546040516001600160801b0390911681526001600160a01b0391909116907f5f2a331e2db53740999cc1c370fa531b2e3b7fac4bf1156e8fe7c2578ad299e49060200160405180910390a3505050565b6123b761350e565b80156100cf576000826001600160a01b031682620186a090604051600060405180830381858888f193505050503d8060008114612410576040519150601f19603f3d011682016040523d82523d6000602084013e612415565b606091505b5050905080610f965760405162461bcd60e51b815260206004820152600f60248201526e1d1c985b9cd9995c8819985a5b1959608a1b6044820152606401610130565b7f4f24f5c433db0962dac0d2c8b84197a6e6c7cc4e5d9ebe1916a1b6193da2f34354604051600080516020614c89833981519152916001600160a01b0316906108fc8415029084906000818181858888f19350505050158015610f96573d6000803e3d6000fd5b60006124ca82610bdb565b600881015490915060ff16156100cf5760048101546000906124f4906001600160a01b0316610cbd565b600c8101549091506001600160401b038085166401000000009092041603610f9657600c0180546bffffffffffffffff00000000191690555050565b6000816001600160401b0316836001600160401b03161115612552578161189c565b5090919050565b6001600160401b03821660009081527fec7e8c1c441439dd40959777f4c577ea0cd42fcc1dbe59d2bd0f5d9c55df8dbd6020819052604082208054919290916125aa906001600160a01b0316610cbd565b7f4f24f5c433db0962dac0d2c8b84197a6e6c7cc4e5d9ebe1916a1b6193da2f34754600682015484549293506001600160401b039182169260009288926125fd9290821691600160a01b90910416614731565b612607919061487a565b90506000612615838361489a565b90506000612623828461487a565b9050806001600160401b031660000361268d57612640878a61356f565b886001600160401b031661265386612305565b6001600160a01b03167fb7f65e70a51658e24800516a5dc90e2dd65176e18381adda77f58e2044482b1960405160405180910390a361272f565b85546001600160401b03828116600160a01b909204161461272f57855467ffffffffffffffff60a01b1916600160a01b6001600160401b0383160217865560006126d6826110d6565b9050896001600160401b03166126eb87612305565b6001600160a01b03167f9d2e72c50be7927e999d37329649af37a863df77bcb25361699ce021d3d7475d8360405161272591815260200190565b60405180910390a3505b6127398583613949565b505050505050505050565b600682015460408051808201909152600f81526e1b9bdd08195b9bdd59da08191d5cdd608a1b6020820152600091612789916001600160401b03909116908490612c24565b9050610f968382613949565b6119bb8260050160089054906101000a90046001600160401b031682604051806040016040528060118152602001701b9bdd08195b9bdd59da081b5a5b9d1959607a1b815250612c24565b6000600080516020614ca9833981519152816127fa6139df565b600e8301546128199190600160401b90046001600160401b0316614731565b905060008461282957600061282c565b60015b60ff1660011961283d846001614731565b161790508083600e0160086101000a8154816001600160401b0302191690836001600160401b03160217905550809350505050919050565b600080600080516020614ca9833981519152600080516020614c8983398151915282856128a1886139fd565b600f850154600160901b90046001600160401b03166128bf4261013f565b6128c9919061487a565b6128d39190614731565b6128dd9190614731565b600c8301549091506000906129169063ffffffff166129076001600160401b0385166103e8614839565b6129119190614866565b61013f565b600d840154600f8601549192506001600160401b03600160981b90910481169161294891849162010000900416614731565b6129529190614731565b600e840154600f8601549197506001600160401b039081169161297e918591600160501b900416614731565b6129889190614731565b9450505050509250929050565b818360050160108282829054906101000a90046001600160401b03166129bb9190614731565b92506101000a8154816001600160401b0302191690836001600160401b0316021790555080612a2f57818360050160188282829054906101000a90046001600160401b0316612a0a9190614731565b92506101000a8154816001600160401b0302191690836001600160401b031602179055505b610f968383612795565b816001600160401b03168360e001516001600160a01b03168461012001516001600160a01b03167f8cbbd73a8d1b8b02a53c4c3b0ee34b472fe3099cc19bcfb57f1aae09e8a9847e848760200151886040015189606001518a608001518b60a00151612ab88c6001600160401b031667232128293320800160c11b1790565b8d6101800151633b9aca008f6101a001516001600160401b0316612adc9190614839565b604051612af199989796959493929190614b88565b60405180910390a4505050565b6000808211612b425760405162461bcd60e51b815260206004820152601060248201526f4469766973696f6e206279207a65726f60801b6044820152606401610130565b83600003612b5257506000611129565b83830283858281612b6557612b65614850565b0403612b8357828181612b7a57612b7a614850565b04915050611129565b506000612b908386614866565b90506000612b9e8487614bf7565b90506000612bac8587614866565b90506000612bba8688614bf7565b905085612bc78285614839565b612bd19190614866565b612bdb8385614839565b612be58387614839565b88612bf08689614839565b612bfa9190614839565b612c049190614a26565b612c0e9190614a26565b612c189190614a26565b98975050505050505050565b6000826001600160401b0316846001600160401b031610158290612c5b5760405162461bcd60e51b81526004016101309190614c0b565b5050506001600160401b0390811691160390565b7f341c6685fdb8ed7133465b64f545b9fbc5699a59cbd1ad98992e5c070a74c510610f967f341c6685fdb8ed7133465b64f545b9fbc5699a59cbd1ad98992e5c070a74c5118484613ab5565b6001600160a01b03821660009081526001840160205260408120600285018054839190601090612cfa90600160801b90046001600160401b0316614c1e565b91906101000a8154816001600160401b0302191690836001600160401b03160217905590506040518060c00160405280866001600160a01b03168152602001856001600160401b031681526020018760020160089054906101000a90046001600160401b03166001600160401b0316815260200160006001600160401b031681526020018360000160089054906101000a90046001600160401b03166001600160401b0316815260200160006001600160401b0316815250866000016000836001600160401b03166001600160401b0316815260200190815260200160002060008201518160000160006101000a8154816001600160a01b0302191690836001600160a01b0316021790555060208201518160000160146101000a8154816001600160401b0302191690836001600160401b0316021790555060408201518160010160006101000a8154816001600160401b0302191690836001600160401b0316021790555060608201518160010160086101000a8154816001600160401b0302191690836001600160401b0316021790555060808201518160010160106101000a8154816001600160401b0302191690836001600160401b0316021790555060a08201518160010160186101000a8154816001600160401b0302191690836001600160401b031602179055509050508560020160009054906101000a90046001600160401b03166001600160401b0316600003612f57576002860154600160401b90046001600160401b031615612f3457612f34614823565b60028601805467ffffffffffffffff19166001600160401b038316179055612fbf565b6002860154600160401b90046001600160401b0316600003612f7b57612f7b614823565b6002860154600160401b908190046001600160401b039081166000908152602089905260409020600101805467ffffffffffffffff60401b19169184169092021790555b6002860180546001600160401b03808416600160401b0267ffffffffffffffff60401b1990921691909117909155825416600003613035578154600160401b90046001600160401b03161561301657613016614823565b815467ffffffffffffffff19166001600160401b038216178255613098565b8154600160401b90046001600160401b031660000361305657613056614823565b81546001600160401b03600160401b909104811660009081526020889052604090206001018054918316600160c01b026001600160c01b039092169190911790555b815467ffffffffffffffff60401b1916600160401b6001600160401b0383160217909155949350505050565b6130e96040805160608101909152806000815260200160008152602001600081525090565b60006130f48361335c565b60408051606081019091526000815281549192509060208201906001600160a01b03166370a0823161312587612305565b6040516001600160e01b031960e084901b1681526001600160a01b039091166004820152602401602060405180830381865afa158015613169573d6000803e3d6000fd5b505050506040513d601f19601f8201168201806040525081019061318d9190614a39565b815260200161319b83613b1e565b90529392505050565b6000816000036131b657506000611129565b60006001855160028111156131cd576131cd614705565b146131ec576005840154600160801b90046001600160401b0316613202565b6005840154600160c01b90046001600160401b03165b6001600160401b031690508083111561321d5761321d614823565b60058401546000908290613244906001600160401b0380821691600160401b900416614a26565b61324e9190614a26565b6020870151909150613261908583612afe565b9695505050505050565b600061189c8261327d6009600a614b36565b859190612afe565b6000818310612552578161189c565b6132b96040805160608101909152806000815260200160008152602001600081525090565b60006132c483613b34565b604080516060810182526001815285548251634ac8eb5f60e01b8152925193945090926020808501936001600160a01b0390931692634ac8eb5f92600480830193928290030181865afa158015613169573d6000803e3d6000fd5b60008061332d858585612afe565b90506000838061333f5761333f614850565b858709905080156133535781600101613261565b50949350505050565b600080600080516020614ca983398151915260048401548154919250829161010090910461ffff1690811061339357613393614c44565b9060005260206000209060040201915050919050565b6134146040805160c081019091526000606082018181526080830182905260a083019190915281908152604080516060810182526000808252602082810182905292820152910190815260408051606081018252600080825260208281018290529282015291015290565b600061341f83613294565b90506040518060600160405280613435856130c4565b815260200182815260200161319b8584613b6d565b7f908500188c8f91f50d58dffac83eda18fc06d9da0208fc6b66c78a4c3fec74f280546001600160a01b03166100935760405162461bcd60e51b815260206004820152601660248201527518dbdc99481d985d5b1d081b9bdd08195b98589b195960521b6044820152606401610130565b6134ee828260020160189054906101000a90046001600160401b03168360040160159054906101000a900460ff166118a5565b60028101546100cf908390600160c01b90046001600160401b0316613d3c565b600080516020614cc98339815191525460021461356d5760405162461bcd60e51b815260206004820152601f60248201527f5265656e7472616e637947756172643a206775617264207265717569726564006044820152606401610130565b565b6001600160401b038116600090815260208390526040902080546001600160a01b031661359e5761359e614823565b80546001600160a01b031660009081526001808501602052604082209083015490916001600160401b0390911690036136245760028401546001600160401b038481169116146135f0576135f0614823565b6001820154600285018054600160401b9092046001600160401b031667ffffffffffffffff1990921691909117905561368c565b60028401546001600160401b039081169084160361364457613644614823565b6001828101546001600160401b038082166000908152602088905260409020909201805467ffffffffffffffff60401b1916600160401b928390049093169091029190911790555b6001820154600160401b90046001600160401b03166000036137035760028401546001600160401b03848116600160401b90920416146136ce576136ce614823565b600182015460028501805467ffffffffffffffff60401b19166001600160401b03909216600160401b0291909117905561376b565b60028401546001600160401b03600160401b90910481169084160361372a5761372a614823565b600180830154600160401b81046001600160401b039081166000908152602088905260409020909201805467ffffffffffffffff1916929091169190911790555b6001820154600160801b90046001600160401b03166000036137d05780546001600160401b038481169116146137a3576137a3614823565b60018201548154600160c01b9091046001600160401b031667ffffffffffffffff19909116178155613836565b80546001600160401b03908116908416036137ed576137ed614823565b6001828101546001600160401b03600160801b82048116600090815260208890526040902090920180546001600160c01b0316600160c01b928390049093169091029190911790555b6001820154600160c01b90046001600160401b03166000036138a95780546001600160401b03848116600160401b909204161461387557613875614823565b6001820154815467ffffffffffffffff60401b1916600160801b9091046001600160401b0316600160401b0217815561391b565b80546001600160401b03600160401b9091048116908416036138cd576138cd614823565b6001828101546001600160401b03600160c01b820481166000908152602088905260409020909201805467ffffffffffffffff60801b1916600160801b928390049093169091029190911790555b50506001600160401b031660009081526020919091526040812080546001600160e01b031916815560010155565b60068201546001600160401b03808316911603613964575050565b60068201805467ffffffffffffffff19166001600160401b038316179055600061398d826110d6565b905061399883612305565b6001600160a01b03167fa3db2bc927901a1d3ba09ad51d84609457b98443be9132a0a936a47c5a1081b5826040516139d291815260200190565b60405180910390a2505050565b60006139ed6103e843614bf7565b6139f8906001614a26565b905090565b6001600160a01b03811660009081527f1309a575a1ebd5e5ca64d58e63b864f1d06aed3e31a021b0eabae653c215fb07602052604081207f1309a575a1ebd5e5ca64d58e63b864f1d06aed3e31a021b0eabae653c215fb069082613a604261013f565b83548354919250600091613a80916001600160401b039081169116614731565b9050613a8c8183613dc3565b835467ffffffffffffffff19166001600160401b0391909116908117845561326190839061487a565b6001600160a01b0382166000908152600484016020526040812090613ad982613de5565b90506000613ae686613de5565b9050613af3834286613e80565b613b144283613b028785614731565b613b0c919061487a565b889190613e80565b611ba586846141f1565b6000613b2b82600061422e565b50909392505050565b600080600080516020614ca9833981519152600484015481549192508291630100000090910461ffff1690811061339357613393614c44565b613b926040805160608101909152806000815260200160008152602001600081525090565b8254604080516332f7ce0b60e21b815290516000926001600160a01b03169163cbdf382c9160048083019260209291908290030181865afa158015613bdb573d6000803e3d6000fd5b505050506040513d601f19601f82011682018060405250810190613bff91906149f6565b90506000816001600160a01b03166370a08231613c1b87612305565b6040516001600160e01b031960e084901b1681526001600160a01b039091166004820152602401602060405180830381865afa158015613c5f573d6000803e3d6000fd5b505050506040513d601f19601f82011682018060405250810190613c839190614a39565b90506000826001600160a01b03166318160ddd6040518163ffffffff1660e01b8152600401602060405180830381865afa158015613cc5573d6000803e3d6000fd5b505050506040513d601f19601f82011682018060405250810190613ce99190614a39565b905060008560200151600003613d03578560400151613d18565b60208601516040870151613d18918490612afe565b60408051606081018252600281526020810195909552840152509095945050505050565b6006820154600080516020614c8983398151915290600090613d689084906001600160401b0316614731565b600d830154909150600090613d86906001600160401b03168361489a565b90506000613d94828461487a565b9050613da0868661199b565b6001600160401b03811615613db957613db98682611a09565b611ba58683613949565b6000816001600160401b0316836001600160401b03161015612552578161189c565b6001810154600090600160401b90046001600160401b03168103613e0b57506000919050565b60018201546001600160401b03808216600160401b9092041611613e3157613e31614823565b6001828101548391600091613e569190600160401b90046001600160401b031661487a565b6001600160401b039081168252602082019290925260400160002054600160c01b90041692915050565b6001830154600160401b90046001600160401b0316600003613f9f5760018301546001600160401b031615613eb757613eb7614823565b604051806060016040528060006001600160801b03168152602001613edb8461013f565b6001600160401b0390811682528381166020909201919091526001850180548692600092600160401b90920416906008613f1483614c1e565b82546001600160401b039182166101009390930a92830292820219169190911790915590811682526020808301939093526040918201600020845181549486015195909301518216600160c01b026001600160c01b0395909216600160801b026001600160c01b03199094166001600160801b03909316929092179290921792909216179055505050565b60018301546001600160401b03808216600160401b9092041611613fc557613fc5614823565b60018381015460009185918391613feb91600160401b90046001600160401b031661487a565b6001600160401b03908116825260208201929092526040016000208054909250600160801b90041683900361403d5780546001600160c01b0316600160c01b6001600160401b0384160217815561052f565b8054600160801b90046001600160401b031683116140ae5760405162461bcd60e51b815260206004820152602860248201527f54696d6543756d756c61746976653a2074696d657374616d70206e6f7420696e6044820152676372656173696e6760c01b6064820152608401610130565b80546000906140cd90600160801b90046001600160401b031685614a13565b82546140e99190600160c01b90046001600160401b0316614839565b82546140fe91906001600160801b0316614a26565b9050604051806060016040528061411483611824565b6001600160801b0316815260200161412b8661013f565b6001600160401b0390811682528581166020909201919091526001870180548892600092600160401b9092041690600861416483614c1e565b82546001600160401b039182166101009390930a92830292820219169190911790915590811682526020808301939093526040918201600020845181549486015195909301518216600160c01b026001600160c01b0395909216600160801b026001600160c01b03199094166001600160801b039093169290921792909217929092161790555050505050565b6003820154600090614214908490600160c01b90046001600160401b03166143ed565b905061422282826002614428565b610f9683826002614428565b6000806000806000806142cd88600101805461424990614758565b80601f016020809104026020016040519081016040528092919081815260200182805461427590614758565b80156142c25780601f10614297576101008083540402835291602001916142c2565b820191906000526020600020905b8154815290600101906020018083116142a557829003601f168201915b5050505050886144f9565b8a549295509093509150600160f01b900460ff161561431457875460009061430390600160a81b900460ff1660018387866145e7565b96509194508493506143e692505050565b60008060006143af8b600201805461432b90614758565b80601f016020809104026020016040519081016040528092919081815260200182805461435790614758565b80156143a45780601f10614379576101008083540402835291602001916143a4565b820191906000526020600020905b81548152906001019060200180831161438757829003601f168201915b50505050508b6144f9565b8d5492955090935091506000906143d390600160a81b900460ff1685848a896145e7565b99509497509095506143e6945050505050565b9250925092565b6003820154600090614410908390600160401b90046001600160401b0316614839565b600384015461189c91906001600160401b0316614a26565b60018301546001600160401b0380821691600160401b90041660005b838110801561445c57508161445a846001614a26565b105b8015614495575084866000614472866001614a26565b8152602081019190915260400160002054600160801b90046001600160401b0316105b156144c4576000838152602087905260408120556144b2836148c0565b92506144bd816148c0565b9050614444565b6144cd8361013f565b600196909601805467ffffffffffffffff19166001600160401b03909716969096179095555050505050565b7f4f24f5c433db0962dac0d2c8b84197a6e6c7cc4e5d9ebe1916a1b6193da2f3445460009081908190600080516020614c89833981519152906001600160a01b031685156145bb5760405163e4a0a55b60e01b81526001600160a01b0382169063e4a0a55b9061456d908a90600401614c0b565b606060405180830381865afa15801561458a573d6000803e3d6000fd5b505050506040513d601f19601f820116820180604052508101906145ae9190614c5a565b94509450945050506143e6565b60405163524f388960e01b81526001600160a01b0382169063524f38899061456d908a90600401614c0b565b6000600080516020614c89833981519152816009614605878a614a26565b61460f9190614a26565b600a83015490915060009061462f908690600160a81b900460ff16614a26565b90508082101561464157614641614823565b6121ed61464e8284614a13565b61465990600a614b36565b87908a612afe565b50805461466d90614758565b6000825580601f1061467d575050565b601f01602090049060005260206000209081019061009391905b808211156101a75760008155600101614697565b6000602082840312156146bd57600080fd5b5035919050565b6001600160a01b038116811461009357600080fd5b600080604083850312156146ec57600080fd5b82356146f7816146c4565b946020939093013593505050565b634e487b7160e01b600052602160045260246000fd5b634e487b7160e01b600052601160045260246000fd5b6001600160401b038181168382160190808211156147515761475161471b565b5092915050565b600181811c9082168061476c57607f821691505b602082108103610cb757634e487b7160e01b600052602260045260246000fd5b60408152600080845461479e81614758565b80604086015260606001808416600081146147c057600181146147dc5761480e565b60ff1985166060890152606084151560051b890101955061480e565b8960005260208060002060005b868110156148045781548b82018701529084019082016147e9565b8a01606001975050505b50505050506020929092019290925292915050565b634e487b7160e01b600052600160045260246000fd5b808202811582820484141761189f5761189f61471b565b634e487b7160e01b600052601260045260246000fd5b60008261487557614875614850565b500490565b6001600160401b038281168282160390808211156147515761475161471b565b60006001600160401b03808416806148b4576148b4614850565b92169190910692915050565b6000600182016148d2576148d261471b565b5060010190565b634e487b7160e01b600052604160045260246000fd5b601f821115610f96576000816000526020600020601f850160051c810160208610156149185750805b601f850160051c820191505b81811015611ba557828155600101614924565b81516001600160401b03811115614950576149506148d9565b6149648161495e8454614758565b846148ef565b602080601f83116001811461499957600084156149815750858301515b600019600386901b1c1916600185901b178555611ba5565b600085815260208120601f198616915b828110156149c8578886015182559484019460019091019084016149a9565b50858210156149e65787850151600019600388901b60f8161c191681555b5050505050600190811b01905550565b600060208284031215614a0857600080fd5b8151611129816146c4565b8181038181111561189f5761189f61471b565b8082018082111561189f5761189f61471b565b600060208284031215614a4b57600080fd5b5051919050565b600181815b80851115614a8d578160001904821115614a7357614a7361471b565b80851615614a8057918102915b93841c9390800290614a57565b509250929050565b600082614aa45750600161189f565b81614ab15750600061189f565b8160018114614ac75760028114614ad157614aed565b600191505061189f565b60ff841115614ae257614ae261471b565b50506001821b61189f565b5060208310610133831016604e8410600b8410161715614b10575081810a61189f565b614b1a8383614a52565b8060001904821115614b2e57614b2e61471b565b029392505050565b600061189c8383614a95565b6000815180845260005b81811015614b6857602081850181015186830182015201614b4c565b506000602082860101526020601f19601f83011685010191505092915050565b6000610120808352614b9c8184018d614b42565b6001600160801b039b8c16602085015299909a166040830152506001600160401b03968716606082015294861660808601529290941660a084015260c08301526001600160a01b0390921660e0820152610100015292915050565b600082614c0657614c06614850565b500690565b60208152600061189c6020830184614b42565b60006001600160401b03808316818103614c3a57614c3a61471b565b6001019392505050565b634e487b7160e01b600052603260045260246000fd5b600080600060608486031215614c6f57600080fd5b835192506020840151915060408401519050925092509256fe4f24f5c433db0962dac0d2c8b84197a6e6c7cc4e5d9ebe1916a1b6193da2f33aec7e8c1c441439dd40959777f4c577ea0cd42fcc1dbe59d2bd0f5d9c55df8db60cd2207518cd3e5213e2c6dbe63d55b60aa893c194a427b7d7f1600408fd5bdea2646970667358221220a6d422c8dbadc826d27c72f87f9ce36b275b4c1c8316bb98d7737303e4c88d5e64736f6c63430008170033",
  "linkReferences": {},
  "deployedLinkReferences": {}
}