{
  "_format": "hh-sol-artifact-1",
  "contractName": "Challenger",
  "sourceName": "liquidator/contracts/Challenger.sol",
  "abi": [
    {
      "inputs": [
        {
          "internalType": "address",
          "name": "_flashLender",
          "type": "address"
        },
        {
          "internalType": "address",
          "name": "_dex",
          "type": "address"
        }
      ],
      "stateMutability": "nonpayable",
      "type": "constructor"
    },
    {
      "anonymous": false,
      "inputs": [
        {
          "indexed": true,
          "internalType": "address",
          "name": "previousOwner",
          "type": "address"
        },
        {
          "indexed": true,
          "internalType": "address",
          "name": "newOwner",
          "type": "address"
        }
      ],
      "name": "OwnershipTransferred",
      "type": "event"
    },
    {
      "inputs": [],
      "name": "dex",
      "outputs": [
        {
          "internalType": "address",
          "name": "",
          "type": "address"
        }
      ],
      "stateMutability": "view",
      "type": "function"
    },
    {
      "inputs": [
        {
          "components": [
            {
              "internalType": "bytes32[]",
              "name": "merkleProof",
              "type": "bytes32[]"
            },
            {
              "components": [
                {
                  "internalType": "bytes32",
                  "name": "attestationType",
                  "type": "bytes32"
                },
                {
                  "internalType": "bytes32",
                  "name": "sourceId",
                  "type": "bytes32"
                },
                {
                  "internalType": "uint64",
                  "name": "votingRound",
                  "type": "uint64"
                },
                {
                  "internalType": "uint64",
                  "name": "lowestUsedTimestamp",
                  "type": "uint64"
                },
                {
                  "components": [
                    {
                      "internalType": "bytes32",
                      "name": "transactionId",
                      "type": "bytes32"
                    },
                    {
                      "internalType": "bytes32",
                      "name": "sourceAddressIndicator",
                      "type": "bytes32"
                    }
                  ],
                  "internalType": "struct IBalanceDecreasingTransaction.RequestBody",
                  "name": "requestBody",
                  "type": "tuple"
                },
                {
                  "components": [
                    {
                      "internalType": "uint64",
                      "name": "blockNumber",
                      "type": "uint64"
                    },
                    {
                      "internalType": "uint64",
                      "name": "blockTimestamp",
                      "type": "uint64"
                    },
                    {
                      "internalType": "bytes32",
                      "name": "sourceAddressHash",
                      "type": "bytes32"
                    },
                    {
                      "internalType": "int256",
                      "name": "spentAmount",
                      "type": "int256"
                    },
                    {
                      "internalType": "bytes32",
                      "name": "standardPaymentReference",
                      "type": "bytes32"
                    }
                  ],
                  "internalType": "struct IBalanceDecreasingTransaction.ResponseBody",
                  "name": "responseBody",
                  "type": "tuple"
                }
              ],
              "internalType": "struct IBalanceDecreasingTransaction.Response",
              "name": "data",
              "type": "tuple"
            }
          ],
          "internalType": "struct IBalanceDecreasingTransaction.Proof",
          "name": "_payment1",
          "type": "tuple"
        },
        {
          "components": [
            {
              "internalType": "bytes32[]",
              "name": "merkleProof",
              "type": "bytes32[]"
            },
            {
              "components": [
                {
                  "internalType": "bytes32",
                  "name": "attestationType",
                  "type": "bytes32"
                },
                {
                  "internalType": "bytes32",
                  "name": "sourceId",
                  "type": "bytes32"
                },
                {
                  "internalType": "uint64",
                  "name": "votingRound",
                  "type": "uint64"
                },
                {
                  "internalType": "uint64",
                  "name": "lowestUsedTimestamp",
                  "type": "uint64"
                },
                {
                  "components": [
                    {
                      "internalType": "bytes32",
                      "name": "transactionId",
                      "type": "bytes32"
                    },
                    {
                      "internalType": "bytes32",
                      "name": "sourceAddressIndicator",
                      "type": "bytes32"
                    }
                  ],
                  "internalType": "struct IBalanceDecreasingTransaction.RequestBody",
                  "name": "requestBody",
                  "type": "tuple"
                },
                {
                  "components": [
                    {
                      "internalType": "uint64",
                      "name": "blockNumber",
                      "type": "uint64"
                    },
                    {
                      "internalType": "uint64",
                      "name": "blockTimestamp",
                      "type": "uint64"
                    },
                    {
                      "internalType": "bytes32",
                      "name": "sourceAddressHash",
                      "type": "bytes32"
                    },
                    {
                      "internalType": "int256",
                      "name": "spentAmount",
                      "type": "int256"
                    },
                    {
                      "internalType": "bytes32",
                      "name": "standardPaymentReference",
                      "type": "bytes32"
                    }
                  ],
                  "internalType": "struct IBalanceDecreasingTransaction.ResponseBody",
                  "name": "responseBody",
                  "type": "tuple"
                }
              ],
              "internalType": "struct IBalanceDecreasingTransaction.Response",
              "name": "data",
              "type": "tuple"
            }
          ],
          "internalType": "struct IBalanceDecreasingTransaction.Proof",
          "name": "_payment2",
          "type": "tuple"
        },
        {
          "internalType": "address",
          "name": "_agentVault",
          "type": "address"
        },
        {
          "internalType": "address",
          "name": "_profitTo",
          "type": "address"
        },
        {
          "components": [
            {
              "internalType": "address",
              "name": "flashLender",
              "type": "address"
            },
            {
              "internalType": "uint256",
              "name": "maxFlashFeeBips",
              "type": "uint256"
            },
            {
              "internalType": "address",
              "name": "dex",
              "type": "address"
            },
            {
              "components": [
                {
                  "internalType": "address[]",
                  "name": "path",
                  "type": "address[]"
                },
                {
                  "internalType": "uint256",
                  "name": "minPriceMul",
                  "type": "uint256"
                },
                {
                  "internalType": "uint256",
                  "name": "minPriceDiv",
                  "type": "uint256"
                }
              ],
              "internalType": "struct DexPairConfig",
              "name": "dexPair1",
              "type": "tuple"
            },
            {
              "components": [
                {
                  "internalType": "address[]",
                  "name": "path",
                  "type": "address[]"
                },
                {
                  "internalType": "uint256",
                  "name": "minPriceMul",
                  "type": "uint256"
                },
                {
                  "internalType": "uint256",
                  "name": "minPriceDiv",
                  "type": "uint256"
                }
              ],
              "internalType": "struct DexPairConfig",
              "name": "dexPair2",
              "type": "tuple"
            }
          ],
          "internalType": "struct ArbitrageConfig",
          "name": "_config",
          "type": "tuple"
        }
      ],
      "name": "doublePaymentChallenge",
      "outputs": [],
      "stateMutability": "nonpayable",
      "type": "function"
    },
    {
      "inputs": [],
      "name": "flashLender",
      "outputs": [
        {
          "internalType": "address",
          "name": "",
          "type": "address"
        }
      ],
      "stateMutability": "view",
      "type": "function"
    },
    {
      "inputs": [
        {
          "components": [
            {
              "internalType": "bytes32[]",
              "name": "merkleProof",
              "type": "bytes32[]"
            },
            {
              "components": [
                {
                  "internalType": "bytes32",
                  "name": "attestationType",
                  "type": "bytes32"
                },
                {
                  "internalType": "bytes32",
                  "name": "sourceId",
                  "type": "bytes32"
                },
                {
                  "internalType": "uint64",
                  "name": "votingRound",
                  "type": "uint64"
                },
                {
                  "internalType": "uint64",
                  "name": "lowestUsedTimestamp",
                  "type": "uint64"
                },
                {
                  "components": [
                    {
                      "internalType": "bytes32",
                      "name": "transactionId",
                      "type": "bytes32"
                    },
                    {
                      "internalType": "bytes32",
                      "name": "sourceAddressIndicator",
                      "type": "bytes32"
                    }
                  ],
                  "internalType": "struct IBalanceDecreasingTransaction.RequestBody",
                  "name": "requestBody",
                  "type": "tuple"
                },
                {
                  "components": [
                    {
                      "internalType": "uint64",
                      "name": "blockNumber",
                      "type": "uint64"
                    },
                    {
                      "internalType": "uint64",
                      "name": "blockTimestamp",
                      "type": "uint64"
                    },
                    {
                      "internalType": "bytes32",
                      "name": "sourceAddressHash",
                      "type": "bytes32"
                    },
                    {
                      "internalType": "int256",
                      "name": "spentAmount",
                      "type": "int256"
                    },
                    {
                      "internalType": "bytes32",
                      "name": "standardPaymentReference",
                      "type": "bytes32"
                    }
                  ],
                  "internalType": "struct IBalanceDecreasingTransaction.ResponseBody",
                  "name": "responseBody",
                  "type": "tuple"
                }
              ],
              "internalType": "struct IBalanceDecreasingTransaction.Response",
              "name": "data",
              "type": "tuple"
            }
          ],
          "internalType": "struct IBalanceDecreasingTransaction.Proof[]",
          "name": "_payments",
          "type": "tuple[]"
        },
        {
          "internalType": "address",
          "name": "_agentVault",
          "type": "address"
        },
        {
          "internalType": "address",
          "name": "_profitTo",
          "type": "address"
        },
        {
          "components": [
            {
              "internalType": "address",
              "name": "flashLender",
              "type": "address"
            },
            {
              "internalType": "uint256",
              "name": "maxFlashFeeBips",
              "type": "uint256"
            },
            {
              "internalType": "address",
              "name": "dex",
              "type": "address"
            },
            {
              "components": [
                {
                  "internalType": "address[]",
                  "name": "path",
                  "type": "address[]"
                },
                {
                  "internalType": "uint256",
                  "name": "minPriceMul",
                  "type": "uint256"
                },
                {
                  "internalType": "uint256",
                  "name": "minPriceDiv",
                  "type": "uint256"
                }
              ],
              "internalType": "struct DexPairConfig",
              "name": "dexPair1",
              "type": "tuple"
            },
            {
              "components": [
                {
                  "internalType": "address[]",
                  "name": "path",
                  "type": "address[]"
                },
                {
                  "internalType": "uint256",
                  "name": "minPriceMul",
                  "type": "uint256"
                },
                {
                  "internalType": "uint256",
                  "name": "minPriceDiv",
                  "type": "uint256"
                }
              ],
              "internalType": "struct DexPairConfig",
              "name": "dexPair2",
              "type": "tuple"
            }
          ],
          "internalType": "struct ArbitrageConfig",
          "name": "_config",
          "type": "tuple"
        }
      ],
      "name": "freeBalanceNegativeChallenge",
      "outputs": [],
      "stateMutability": "nonpayable",
      "type": "function"
    },
    {
      "inputs": [
        {
          "components": [
            {
              "internalType": "bytes32[]",
              "name": "merkleProof",
              "type": "bytes32[]"
            },
            {
              "components": [
                {
                  "internalType": "bytes32",
                  "name": "attestationType",
                  "type": "bytes32"
                },
                {
                  "internalType": "bytes32",
                  "name": "sourceId",
                  "type": "bytes32"
                },
                {
                  "internalType": "uint64",
                  "name": "votingRound",
                  "type": "uint64"
                },
                {
                  "internalType": "uint64",
                  "name": "lowestUsedTimestamp",
                  "type": "uint64"
                },
                {
                  "components": [
                    {
                      "internalType": "bytes32",
                      "name": "transactionId",
                      "type": "bytes32"
                    },
                    {
                      "internalType": "bytes32",
                      "name": "sourceAddressIndicator",
                      "type": "bytes32"
                    }
                  ],
                  "internalType": "struct IBalanceDecreasingTransaction.RequestBody",
                  "name": "requestBody",
                  "type": "tuple"
                },
                {
                  "components": [
                    {
                      "internalType": "uint64",
                      "name": "blockNumber",
                      "type": "uint64"
                    },
                    {
                      "internalType": "uint64",
                      "name": "blockTimestamp",
                      "type": "uint64"
                    },
                    {
                      "internalType": "bytes32",
                      "name": "sourceAddressHash",
                      "type": "bytes32"
                    },
                    {
                      "internalType": "int256",
                      "name": "spentAmount",
                      "type": "int256"
                    },
                    {
                      "internalType": "bytes32",
                      "name": "standardPaymentReference",
                      "type": "bytes32"
                    }
                  ],
                  "internalType": "struct IBalanceDecreasingTransaction.ResponseBody",
                  "name": "responseBody",
                  "type": "tuple"
                }
              ],
              "internalType": "struct IBalanceDecreasingTransaction.Response",
              "name": "data",
              "type": "tuple"
            }
          ],
          "internalType": "struct IBalanceDecreasingTransaction.Proof",
          "name": "_transaction",
          "type": "tuple"
        },
        {
          "internalType": "address",
          "name": "_agentVault",
          "type": "address"
        },
        {
          "internalType": "address",
          "name": "_profitTo",
          "type": "address"
        },
        {
          "components": [
            {
              "internalType": "address",
              "name": "flashLender",
              "type": "address"
            },
            {
              "internalType": "uint256",
              "name": "maxFlashFeeBips",
              "type": "uint256"
            },
            {
              "internalType": "address",
              "name": "dex",
              "type": "address"
            },
            {
              "components": [
                {
                  "internalType": "address[]",
                  "name": "path",
                  "type": "address[]"
                },
                {
                  "internalType": "uint256",
                  "name": "minPriceMul",
                  "type": "uint256"
                },
                {
                  "internalType": "uint256",
                  "name": "minPriceDiv",
                  "type": "uint256"
                }
              ],
              "internalType": "struct DexPairConfig",
              "name": "dexPair1",
              "type": "tuple"
            },
            {
              "components": [
                {
                  "internalType": "address[]",
                  "name": "path",
                  "type": "address[]"
                },
                {
                  "internalType": "uint256",
                  "name": "minPriceMul",
                  "type": "uint256"
                },
                {
                  "internalType": "uint256",
                  "name": "minPriceDiv",
                  "type": "uint256"
                }
              ],
              "internalType": "struct DexPairConfig",
              "name": "dexPair2",
              "type": "tuple"
            }
          ],
          "internalType": "struct ArbitrageConfig",
          "name": "_config",
          "type": "tuple"
        }
      ],
      "name": "illegalPaymentChallenge",
      "outputs": [],
      "stateMutability": "nonpayable",
      "type": "function"
    },
    {
      "inputs": [
        {
          "internalType": "uint256",
          "name": "_maxSlippageBipsDex1",
          "type": "uint256"
        },
        {
          "internalType": "uint256",
          "name": "_maxSlippageBipsDex2",
          "type": "uint256"
        },
        {
          "internalType": "address",
          "name": "_agentVault",
          "type": "address"
        }
      ],
      "name": "maxSlippageToMinPrices",
      "outputs": [
        {
          "internalType": "uint256",
          "name": "",
          "type": "uint256"
        },
        {
          "internalType": "uint256",
          "name": "",
          "type": "uint256"
        },
        {
          "internalType": "uint256",
          "name": "",
          "type": "uint256"
        },
        {
          "internalType": "uint256",
          "name": "",
          "type": "uint256"
        }
      ],
      "stateMutability": "view",
      "type": "function"
    },
    {
      "inputs": [
        {
          "internalType": "address",
          "name": "",
          "type": "address"
        },
        {
          "internalType": "address",
          "name": "_token",
          "type": "address"
        },
        {
          "internalType": "uint256",
          "name": "_amount",
          "type": "uint256"
        },
        {
          "internalType": "uint256",
          "name": "_fee",
          "type": "uint256"
        },
        {
          "internalType": "bytes",
          "name": "_data",
          "type": "bytes"
        }
      ],
      "name": "onFlashLoan",
      "outputs": [
        {
          "internalType": "bytes32",
          "name": "",
          "type": "bytes32"
        }
      ],
      "stateMutability": "nonpayable",
      "type": "function"
    },
    {
      "inputs": [],
      "name": "owner",
      "outputs": [
        {
          "internalType": "address",
          "name": "",
          "type": "address"
        }
      ],
      "stateMutability": "view",
      "type": "function"
    },
    {
      "inputs": [],
      "name": "renounceOwnership",
      "outputs": [],
      "stateMutability": "nonpayable",
      "type": "function"
    },
    {
      "inputs": [
        {
          "internalType": "address",
          "name": "_agentVault",
          "type": "address"
        },
        {
          "internalType": "address",
          "name": "_profitTo",
          "type": "address"
        },
        {
          "components": [
            {
              "internalType": "address",
              "name": "flashLender",
              "type": "address"
            },
            {
              "internalType": "uint256",
              "name": "maxFlashFeeBips",
              "type": "uint256"
            },
            {
              "internalType": "address",
              "name": "dex",
              "type": "address"
            },
            {
              "components": [
                {
                  "internalType": "address[]",
                  "name": "path",
                  "type": "address[]"
                },
                {
                  "internalType": "uint256",
                  "name": "minPriceMul",
                  "type": "uint256"
                },
                {
                  "internalType": "uint256",
                  "name": "minPriceDiv",
                  "type": "uint256"
                }
              ],
              "internalType": "struct DexPairConfig",
              "name": "dexPair1",
              "type": "tuple"
            },
            {
              "components": [
                {
                  "internalType": "address[]",
                  "name": "path",
                  "type": "address[]"
                },
                {
                  "internalType": "uint256",
                  "name": "minPriceMul",
                  "type": "uint256"
                },
                {
                  "internalType": "uint256",
                  "name": "minPriceDiv",
                  "type": "uint256"
                }
              ],
              "internalType": "struct DexPairConfig",
              "name": "dexPair2",
              "type": "tuple"
            }
          ],
          "internalType": "struct ArbitrageConfig",
          "name": "_config",
          "type": "tuple"
        }
      ],
      "name": "runArbitrage",
      "outputs": [],
      "stateMutability": "nonpayable",
      "type": "function"
    },
    {
      "inputs": [
        {
          "internalType": "address",
          "name": "newOwner",
          "type": "address"
        }
      ],
      "name": "transferOwnership",
      "outputs": [],
      "stateMutability": "nonpayable",
      "type": "function"
    },
    {
      "inputs": [],
      "name": "withdrawNat",
      "outputs": [],
      "stateMutability": "nonpayable",
      "type": "function"
    },
    {
      "inputs": [
        {
          "internalType": "contract IERC20",
          "name": "token",
          "type": "address"
        }
      ],
      "name": "withdrawToken",
      "outputs": [],
      "stateMutability": "nonpayable",
      "type": "function"
    }
  ],
  "bytecode": "0x60c060405234801561001057600080fd5b5060405161503738038061503783398101604081905261002f916100c0565b818161003a33610054565b6001600160a01b039182166080521660a052506100f39050565b600080546001600160a01b038381166001600160a01b0319831681178455604051919092169283917f8be0079c531659141344cd1fd0a4f28419497f9722a3daafe3b4186f6b6457e09190a35050565b80516001600160a01b03811681146100bb57600080fd5b919050565b600080604083850312156100d357600080fd5b6100dc836100a4565b91506100ea602084016100a4565b90509250929050565b60805160a051614f0a61012d6000396000818161010f01528181610859015261172601526000818161017c01526116e70152614f0a6000f3fe608060405234801561001057600080fd5b50600436106100df5760003560e01c8063a82f5fec1161008c578063d2fba79811610066578063d2fba798146101ec578063dbe83cdf146101ff578063f2fde38b14610212578063f609bbec1461022557600080fd5b8063a82f5fec1461019e578063ae405860146101b1578063ca2196bf146101e457600080fd5b806389476069116100bd57806389476069146101535780638da5cb5b14610166578063a77144581461017757600080fd5b806323e30c8b146100e4578063692058c21461010a578063715018a614610149575b600080fd5b6100f76100f2366004613c1d565b610238565b6040519081526020015b60405180910390f35b6101317f000000000000000000000000000000000000000000000000000000000000000081565b6040516001600160a01b039091168152602001610101565b610151610607565b005b610151610161366004613cca565b61061b565b6000546001600160a01b0316610131565b6101317f000000000000000000000000000000000000000000000000000000000000000081565b6101516101ac366004613d12565b6106c2565b6101c46101bf366004613da0565b610852565b604080519485526020850193909352918301526060820152608001610101565b6101516108cc565b6101516101fa366004614036565b61090e565b61015161020d366004614098565b610993565b610151610220366004613cca565b610b26565b610151610233366004614152565b610bb3565b6000600160005474010000000000000000000000000000000000000000900460ff16600281111561026b5761026b6141fc565b146102e35760405162461bcd60e51b815260206004820152602d60248201527f4c697175696461746f723a20466c617368206c6f616e207769746820696e766160448201527f6c696420696e69746961746f720000000000000000000000000000000000000060648201526084015b60405180910390fd5b600080547fffffffffffffffffffffff00ffffffffffffffffffffffffffffffffffffffff1674020000000000000000000000000000000000000000179055604051610332908490849061422b565b60405190819003902060015460081b7fffffffffffffffffffffffffffffffffffffffffffffffffffffffffffffff009081169116146103da5760405162461bcd60e51b815260206004820152602c60248201527f4c697175696461746f723a20466c617368206c656e646572207061737365642060448201527f696e76616c69642064617461000000000000000000000000000000000000000060648201526084016102da565b600080806103ea85870187614036565b925092509250612710888260200151610403919061426a565b61040d91906142b0565b8711156104825760405162461bcd60e51b815260206004820152602c60248201527f4c697175696461746f723a20466c617368206c656e646572207061737365642060448201527f746f6f206869676820666565000000000000000000000000000000000000000060648201526084016102da565b6060810151518051600090610499576104996142eb565b60200260200101516001600160a01b0316896001600160a01b0316146105275760405162461bcd60e51b815260206004820152602d60248201527f4c697175696461746f723a20466c617368206c656e646572207061737365642060448201527f696e76616c696420746f6b656e0000000000000000000000000000000000000060648201526084016102da565b61053388848484610c6b565b80516001600160a01b038a169063095ea7b3906105508a8c61431a565b6040517fffffffff0000000000000000000000000000000000000000000000000000000060e085901b1681526001600160a01b03909216600483015260248201526044016020604051808303816000875af11580156105b3573d6000803e3d6000fd5b505050506040513d601f19601f820116820180604052508101906105d7919061433d565b507f439148f0bbc682ca079e46d6e2c2f0c1e3b820f1a291b069d8882abf8cf18dd99a9950505050505050505050565b61060f611064565b61061960006110be565b565b610623611064565b6106bf816106396000546001600160a01b031690565b6040517f70a082310000000000000000000000000000000000000000000000000000000081523060048201526001600160a01b038516906370a0823190602401602060405180830381865afa158015610696573d6000803e3d6000fd5b505050506040513d601f19601f820116820180604052508101906106ba9190614358565b611126565b50565b6106ca611064565b6000836001600160a01b03166394217ad16040518163ffffffff1660e01b8152600401602060405180830381865afa15801561070a573d6000803e3d6000fd5b505050506040513d601f19601f8201168201806040525081019061072e9190614371565b6040517f66a370460000000000000000000000000000000000000000000000000000000081529091506001600160a01b038216906366a37046906107789088908890600401614529565b600060405180830381600087803b15801561079257600080fd5b505af11580156107a6573d6000803e3d6000fd5b50506040517fd2fba79800000000000000000000000000000000000000000000000000000000815230925063d2fba79891506107ea90879087908790600401614604565b600060405180830381600087803b15801561080457600080fd5b505af1925050508015610815575060015b61084b573d808015610843576040519150601f19603f3d011682016040523d82523d6000602084013e610848565b606091505b50505b5050505050565b60008080807f000000000000000000000000000000000000000000000000000000000000000081610882876111a6565b905060008061089b848c85606001518660400151611677565b915091506000806108b6868d87608001518860600151611677565b949e939d509b5092995090975050505050505050565b6108d4611064565b600080546040516001600160a01b03909116914780156108fc02929091818181858888f193505050501580156106bf573d6000803e3d6000fd5b3330146109835760405162461bcd60e51b815260206004820152602660248201527f4368616c6c656e6765723a2043616c6c696e6720616e20696e7465726e616c2060448201527f6d6574686f64000000000000000000000000000000000000000000000000000060648201526084016102da565b61098e8383836116ce565b505050565b61099b611064565b6000836001600160a01b03166394217ad16040518163ffffffff1660e01b8152600401602060405180830381865afa1580156109db573d6000803e3d6000fd5b505050506040513d601f19601f820116820180604052508101906109ff9190614371565b6040517feb81ca630000000000000000000000000000000000000000000000000000000081529091506001600160a01b0382169063eb81ca6390610a4b908990899089906004016146cc565b600060405180830381600087803b158015610a6557600080fd5b505af1158015610a79573d6000803e3d6000fd5b50506040517fd2fba79800000000000000000000000000000000000000000000000000000000815230925063d2fba7989150610abd90879087908790600401614604565b600060405180830381600087803b158015610ad757600080fd5b505af1925050508015610ae8575060015b610b1e573d808015610b16576040519150601f19603f3d011682016040523d82523d6000602084013e610b1b565b606091505b50505b505050505050565b610b2e611064565b6001600160a01b038116610baa5760405162461bcd60e51b815260206004820152602660248201527f4f776e61626c653a206e6577206f776e657220697320746865207a65726f206160448201527f646472657373000000000000000000000000000000000000000000000000000060648201526084016102da565b6106bf816110be565b610bbb611064565b6000836001600160a01b03166394217ad16040518163ffffffff1660e01b8152600401602060405180830381865afa158015610bfb573d6000803e3d6000fd5b505050506040513d601f19601f82011682018060405250810190610c1f9190614371565b6040517f7e7bfdc60000000000000000000000000000000000000000000000000000000081529091506001600160a01b03821690637e7bfdc690610a4b9089908990899060040161470b565b6060806000836060015160000151600081518110610c8b57610c8b6142eb565b602002602001015190506000846080015160000151600081518110610cb257610cb26142eb565b602090810291909101015160408087015190517f095ea7b30000000000000000000000000000000000000000000000000000000081526001600160a01b039182166004820152602481018b905291925083169063095ea7b3906044016020604051808303816000875af1158015610d2d573d6000803e3d6000fd5b505050506040513d601f19601f82011682018060405250810190610d51919061433d565b50610d8f88610d718a886060015160200151896060015160400151611bb1565b60608801515160408901516001600160a01b03169291903042611bd2565b60408781015190517f095ea7b30000000000000000000000000000000000000000000000000000000081526001600160a01b039182166004820152600060248201529196509194509083169063095ea7b3906044016020604051808303816000875af1158015610e03573d6000803e3d6000fd5b505050506040513d601f19601f82011682018060405250810190610e27919061433d565b5060008460018651610e3991906147d0565b81518110610e4957610e496142eb565b60209081029190910101516040517fbcbaf4870000000000000000000000000000000000000000000000000000000081526001600160a01b038981166004830152602482018390529192506000918a169063bcbaf487906044016060604051808303816000875af1158015610ec2573d6000803e3d6000fd5b505050506040513d601f19601f82011682018060405250810190610ee691906147e3565b925050811590506110585760408781015190517f095ea7b30000000000000000000000000000000000000000000000000000000081526001600160a01b039182166004820152602481018390529084169063095ea7b3906044016020604051808303816000875af1158015610f5f573d6000803e3d6000fd5b505050506040513d601f19601f82011682018060405250810190610f83919061433d565b50610fc181610fa3838a60800151602001518b6080015160400151611bb1565b60808a01515160408b01516001600160a01b03169291903042611bd2565b60408981015190517f095ea7b30000000000000000000000000000000000000000000000000000000081526001600160a01b039182166004820152600060248201529198508516915063095ea7b3906044016020604051808303816000875af1158015611032573d6000803e3d6000fd5b505050506040513d601f19601f82011682018060405250810190611056919061433d565b505b50505050505050505050565b6000546001600160a01b031633146106195760405162461bcd60e51b815260206004820181905260248201527f4f776e61626c653a2063616c6c6572206973206e6f7420746865206f776e657260448201526064016102da565b600080546001600160a01b038381167fffffffffffffffffffffffff0000000000000000000000000000000000000000831681178455604051919092169283917f8be0079c531659141344cd1fd0a4f28419497f9722a3daafe3b4186f6b6457e09190a35050565b604080516001600160a01b038416602482015260448082018490528251808303909101815260649091019091526020810180517bffffffffffffffffffffffffffffffffffffffffffffffffffffffff167fa9059cbb0000000000000000000000000000000000000000000000000000000017905261098e908490611e2d565b61125360405180610200016040528060006001600160a01b0316815260200160006001600160a01b0316815260200160006001600160a01b0316815260200160006001600160a01b0316815260200160006001600160a01b0316815260200160008152602001600081526020016000815260200160008152602001600081526020016000815260200160008152602001606081526020016060815260200160608152602001606081525090565b6000826001600160a01b03166394217ad16040518163ffffffff1660e01b8152600401602060405180830381865afa158015611293573d6000803e3d6000fd5b505050506040513d601f19601f820116820180604052508101906112b79190614371565b6001600160a01b03808216808552908516602080860191909152604080517f7c7db1a500000000000000000000000000000000000000000000000000000000815290519394509192637c7db1a59260048082019392918290030181865afa158015611326573d6000803e3d6000fd5b505050506040513d601f19601f8201168201806040525081019061134a9190614371565b82604001906001600160a01b031690816001600160a01b031681525050806001600160a01b031663b5a488a66040518163ffffffff1660e01b8152600401602060405180830381865afa1580156113a5573d6000803e3d6000fd5b505050506040513d601f19601f820116820180604052508101906113c99190614371565b82608001906001600160a01b031690816001600160a01b031681525050806001600160a01b031663531090f36040518163ffffffff1660e01b8152600401602060405180830381865afa158015611424573d6000803e3d6000fd5b505050506040513d601f19601f820116820180604052508101906114489190614358565b82610100018181525050806001600160a01b031663410418f16040518163ffffffff1660e01b8152600401602060405180830381865afa158015611490573d6000803e3d6000fd5b505050506040513d601f19601f820116820180604052508101906114b49190614358565b6101208301526040517f5f0169060000000000000000000000000000000000000000000000000000000081526001600160a01b038481166004830152821690635f01690690602401602060405180830381865afa158015611519573d6000803e3d6000fd5b505050506040513d601f19601f8201168201806040525081019061153d9190614371565b6001600160a01b0390811660608401526040517f529cc2b900000000000000000000000000000000000000000000000000000000815284821660048201529082169063529cc2b990602401606060405180830381865afa1580156115a5573d6000803e3d6000fd5b505050506040513d601f19601f820116820180604052508101906115c991906147e3565b60a085015260e084015260c0830152604080517f49b5fdb400000000000000000000000000000000000000000000000000000000815290516116659184916001600160a01b038516916349b5fdb49160048083019260209291908290030181865afa15801561163c573d6000803e3d6000fd5b505050506040513d601f19601f820116820180604052508101906116609190614371565b611f15565b61016084015261014083015250919050565b60008080806116906001600160a01b03891687876121bf565b909250905060006116a3886127106147d0565b6116ad908361426a565b905060006116bd8461271061426a565b919a91995090975050505050505050565b80516001600160a01b031661170a576001600160a01b037f00000000000000000000000000000000000000000000000000000000000000001681525b60408101516001600160a01b031661174c576001600160a01b037f00000000000000000000000000000000000000000000000000000000000000001660408201525b6000836001600160a01b03166394217ad16040518163ffffffff1660e01b8152600401602060405180830381865afa15801561178c573d6000803e3d6000fd5b505050506040513d601f19601f820116820180604052508101906117b09190614371565b6040517fe1c501000000000000000000000000000000000000000000000000000000000081526001600160a01b0386811660048301529192509082169063e1c50100906024016020604051808303816000875af1925050508015611831575060408051601f3d908101601f1916820190925261182e91810190614358565b60015b1561183857505b6000611843856111a6565b9050611860836060015160000151826060015183604001516123e8565b836060015160000181905250611887836080015160000151826080015183606001516123e8565b60808401515260408301516060840151516118a291906124ca565b61018082015260408301516080840151516118bd91906124ca565b6101a0820152606083810151516101c08301526080840151516101e08301528101516040517f70a082310000000000000000000000000000000000000000000000000000000081523060048201526000916001600160a01b0316906370a0823190602401602060405180830381865afa15801561193e573d6000803e3d6000fd5b505050506040513d601f19601f820116820180604052508101906119629190614358565b60808301516040517f70a082310000000000000000000000000000000000000000000000000000000081523060048201529192506000916001600160a01b03909116906370a0823190602401602060405180830381865afa1580156119cb573d6000803e3d6000fd5b505050506040513d601f19601f820116820180604052508101906119ef9190614358565b90506119fb85846125fe565b60608301516040517f70a082310000000000000000000000000000000000000000000000000000000081523060048201526000916001600160a01b0316906370a0823190602401602060405180830381865afa158015611a5f573d6000803e3d6000fd5b505050506040513d601f19601f82011682018060405250810190611a839190614358565b60808501516040517f70a082310000000000000000000000000000000000000000000000000000000081523060048201529192506000916001600160a01b03909116906370a0823190602401602060405180830381865afa158015611aec573d6000803e3d6000fd5b505050506040513d601f19601f82011682018060405250810190611b109190614358565b9050838210158015611b225750828110155b611b945760405162461bcd60e51b815260206004820152603b60248201527f4c697175696461746f723a204e656761746976652070726f66697420776f756c60448201527f6420646563726561736520636f6e74726163742062616c616e6365000000000060648201526084016102da565b6000611ba085846147d0565b905061105886606001518a83611126565b600081611bbe848661426a565b611bc891906142b0565b90505b9392505050565b606080876001600160a01b03166338ed173988888888886040518663ffffffff1660e01b8152600401611c09959493929190614861565b6000604051808303816000875af1925050508015611c4957506040513d6000823e601f3d908101601f19168201604052611c469190810190614905565b60015b611e1c573d808015611c77576040519150601f19603f3d011682016040523d82523d6000602084013e611c7c565b606091505b50805115611c8982612afc565b90611ca75760405162461bcd60e51b81526004016102da91906149be565b506040517f38ed17390000000000000000000000000000000000000000000000000000000081526001600160a01b038a16906338ed173990611cf5908b908b908b908b908b90600401614861565b6000604051808303816000875af1925050508015611d3557506040513d6000823e601f3d908101601f19168201604052611d3291908101906149d1565b60015b611e02573d808015611d63576040519150601f19603f3d011682016040523d82523d6000602084013e611d68565b606091505b50805115611d7582612afc565b90611d935760405162461bcd60e51b81526004016102da91906149be565b5060405162461bcd60e51b815260206004820152602a60248201527f556e697377617056323a20737761704578616374546f6b656e73466f72546f6b60448201527f656e73206661696c65640000000000000000000000000000000000000000000060648201526084016102da565b60408051600081526020810190915293509150611e229050565b90925090505b965096945050505050565b6000611e82826040518060400160405280602081526020017f5361666545524332303a206c6f772d6c6576656c2063616c6c206661696c6564815250856001600160a01b0316612be49092919063ffffffff16565b9050805160001480611ea3575080806020019051810190611ea3919061433d565b61098e5760405162461bcd60e51b815260206004820152602a60248201527f5361666545524332303a204552433230206f7065726174696f6e20646964206e60448201527f6f7420737563636565640000000000000000000000000000000000000000000060648201526084016102da565b6000806000611f31856000015186606001518760800151612bf3565b80516040517f524f388900000000000000000000000000000000000000000000000000000000815291925060009182916001600160a01b0388169163524f388991611f7e916004016149be565b606060405180830381865afa158015611f9b573d6000803e3d6000fd5b505050506040513d601f19601f82011682018060405250810190611fbf91906147e3565b9250509150600080876001600160a01b031663524f388986602001516040518263ffffffff1660e01b8152600401611ff791906149be565b606060405180830381865afa158015612014573d6000803e3d6000fd5b505050506040513d601f19601f8201168201806040525081019061203891906147e3565b9250509150600080896001600160a01b031663524f388988604001516040518263ffffffff1660e01b815260040161207091906149be565b606060405180830381865afa15801561208d573d6000803e3d6000fd5b505050506040513d601f19601f820116820180604052508101906120b191906147e3565b92505091506121318b606001516001600160a01b031663313ce5676040518163ffffffff1660e01b8152600401602060405180830381865afa1580156120fb573d6000803e3d6000fd5b505050506040513d601f19601f8201168201806040525081019061211f9190614a06565b60ff1685858e61012001518a8a612d42565b6121ac8c608001516001600160a01b031663313ce5676040518163ffffffff1660e01b8152600401602060405180830381865afa158015612176573d6000803e3d6000fd5b505050506040513d601f19601f8201168201806040525081019061219a9190614a06565b60ff1684848f61012001518b8b612d42565b98509850505050505050505b9250929050565b6040517fd52bb6f40000000000000000000000000000000000000000000000000000000081526001600160a01b0383811660048301528281166024830152600091829186169063d52bb6f4906044016040805180830381865afa925050508015612246575060408051601f3d908101601f1916820190925261224391810190614a29565b60015b6123da573d808015612274576040519150601f19603f3d011682016040523d82523d6000602084013e612279565b606091505b5080511561228682612afc565b906122a45760405162461bcd60e51b81526004016102da91906149be565b506040517f7f6f21780000000000000000000000000000000000000000000000000000000081526001600160a01b0386811660048301528581166024830152871690637f6f2178906044016040805180830381865afa925050508015612327575060408051601f3d908101601f1916820190925261232491810190614a29565b60015b6123ce573d808015612355576040519150601f19603f3d011682016040523d82523d6000602084013e61235a565b606091505b5080511561236782612afc565b906123855760405162461bcd60e51b81526004016102da91906149be565b5060405162461bcd60e51b815260206004820152601d60248201527f556e697377617056323a206765745265736572766573206661696c656400000060448201526064016102da565b90935091506123e09050565b90925090505b935093915050565b60608351600003612404576123fd8383612db2565b9050611bcb565b826001600160a01b031684600081518110612421576124216142eb565b60200260200101516001600160a01b03161480156124765750816001600160a01b0316846001865161245391906147d0565b81518110612463576124636142eb565b60200260200101516001600160a01b0316145b6124c25760405162461bcd60e51b815260206004820152601e60248201527f4c697175696461746f723a20496e76616c696420746f6b656e2070617468000060448201526064016102da565b509192915050565b6060600182516124da91906147d0565b67ffffffffffffffff8111156124f2576124f2613dd9565b60405190808252806020026020018201604052801561253757816020015b60408051808201909152600080825260208201528152602001906001900390816125105790505b50905060005b6001835161254b91906147d0565b8110156125f7576125ae838281518110612567576125676142eb565b60200260200101518483600161257d919061431a565b8151811061258d5761258d6142eb565b6020026020010151866001600160a01b03166121bf9092919063ffffffff16565b8383815181106125c0576125c06142eb565b60200260200101516000018484815181106125dd576125dd6142eb565b60209081029190910181015101919091525260010161253d565b5092915050565b6000805474010000000000000000000000000000000000000000900460ff16600281111561262e5761262e6141fc565b1461267b5760405162461bcd60e51b815260206004820152601e60248201527f4c697175696461746f723a205265656e7472616e637920626c6f636b6564000060448201526064016102da565b600080547fffffffffffffffffffffff00ffffffffffffffffffffffffffffffffffffffff167401000000000000000000000000000000000000000017905560a08101516127315760405162461bcd60e51b815260206004820152602360248201527f4c697175696461746f723a204e6f20662d617373657420746f206c697175696460448201527f617465000000000000000000000000000000000000000000000000000000000060648201526084016102da565b815160608201516040517f613255ab0000000000000000000000000000000000000000000000000000000081526001600160a01b039182166004820152600092919091169063613255ab90602401602060405180830381865afa15801561279c573d6000803e3d6000fd5b505050506040513d601f19601f820116820180604052508101906127c09190614358565b9050600081116128385760405162461bcd60e51b815260206004820152602260248201527f4c697175696461746f723a20466c617368206c6f616e20756e617661696c616260448201527f6c6500000000000000000000000000000000000000000000000000000000000060648201526084016102da565b600061284383612e40565b9050600081116128955760405162461bcd60e51b815260206004820152601f60248201527f4c697175696461746f723a204e6f2070726f66697420617661696c61626c650060448201526064016102da565b600083600001518460200151866040516020016128b493929190614a82565b60405160208183030381529060405290508080519060200120600160006101000a8154817effffffffffffffffffffffffffffffffffffffffffffffffffffffffffffff021916908360081c021790555084600001516001600160a01b0316635cffe9de3086606001516129288787612eca565b856040518563ffffffff1660e01b81526004016129489493929190614b28565b6020604051808303816000875af1158015612967573d6000803e3d6000fd5b505050506040513d601f19601f8201168201806040525081019061298b919061433d565b50606084015185516040517f095ea7b30000000000000000000000000000000000000000000000000000000081526001600160a01b0391821660048201526000602482015291169063095ea7b3906044016020604051808303816000875af11580156129fb573d6000803e3d6000fd5b505050506040513d601f19601f82011682018060405250810190612a1f919061433d565b5060029250612a2c915050565b60005474010000000000000000000000000000000000000000900460ff166002811115612a5b57612a5b6141fc565b14612ad0576040805162461bcd60e51b81526020600482015260248101919091527f4c697175696461746f723a205265656e7472616e637920626c6f636b6564206f60448201527f7220666c617368206c6f616e207265636569766572206e6f742063616c6c656460648201526084016102da565b5050600080547fffffffffffffffffffffff00ffffffffffffffffffffffffffffffffffffffff169055565b6060600060048351612b0e91906147d0565b67ffffffffffffffff811115612b2657612b26613dd9565b6040519080825280601f01601f191660200182016040528015612b50576020820181803683370190505b50905060005b8151811015612bcf5783612b6b82600461431a565b81518110612b7b57612b7b6142eb565b602001015160f81c60f81b828281518110612b9857612b986142eb565b60200101907effffffffffffffffffffffffffffffffffffffffffffffffffffffffffffff1916908160001a905350600101612b56565b5080806020019051810190611bcb9190614bc3565b6060611bc88484600085612ee0565b612c1760405180606001604052806060815260200160608152602001606081525090565b6040517f4610bc230000000000000000000000000000000000000000000000000000000081526000906001600160a01b03861690634610bc2390612c62906002908890600401614bf8565b600060405180830381865afa158015612c7f573d6000803e3d6000fd5b505050506040513d6000823e601f3d908101601f19168201604052612ca79190810190614c5a565b90506000856001600160a01b0316634610bc236001866040518363ffffffff1660e01b8152600401612cda929190614bf8565b600060405180830381865afa158015612cf7573d6000803e3d6000fd5b505050506040513d6000823e601f3d908101601f19168201604052612d1f9190810190614c5a565b60a0830151845260c0928301516020850152909101516040830152509392505050565b6000806009612d51878a61431a565b612d5b919061431a565b90506000612d69848761431a565b905080821015612d7b57612d7b614d56565b87612d8682846147d0565b612d9190600a614ea0565b612d9b908761426a565b612da591906142b0565b9998505050505050505050565b604080516002808252606080830184529260009291906020830190803683370190505090508381600081518110612deb57612deb6142eb565b60200260200101906001600160a01b031690816001600160a01b0316815250508281600181518110612e1f57612e1f6142eb565b6001600160a01b039092166020928302919091019091015290505b92915050565b6000806001836101800151511180612e5e57506001836101a0015151115b9050600081612e7557612e7084612fd4565b612e7e565b612e7e84613208565b905080600003612e92575060009392505050565b6000612eb0612ea683876101000151613357565b8660a00151612eca565b9050612ec181866101800151613363565b95945050505050565b6000818310612ed95781611bcb565b5090919050565b606082471015612f585760405162461bcd60e51b815260206004820152602660248201527f416464726573733a20696e73756666696369656e742062616c616e636520666f60448201527f722063616c6c000000000000000000000000000000000000000000000000000060648201526084016102da565b600080866001600160a01b03168587604051612f749190614eac565b60006040518083038185875af1925050503d8060008114612fb1576040519150601f19603f3d011682016040523d82523d6000602084013e612fb6565b606091505b5091509150612fc7878383876133dd565b925050505b949350505050565b600080826101800151600081518110612fef57612fef6142eb565b60200260200101516000015190506000836101800151600081518110613017576130176142eb565b60200260200101516020015190506000846101a0015160008151811061303f5761303f6142eb565b60200260200101516000015190506000856101a00151600081518110613067576130676142eb565b6020026020010151602001519050816103e860036103e861308891906147d0565b613092908761426a565b61309c91906142b0565b6130a6919061426a565b94506130b185613456565b945060006130c4848861010001516135d9565b90506000836127108960c001516130e0858c61014001516135fc565b6130ea919061426a565b6130f491906142b0565b6130fe919061426a565b90506000836103e86131116003826147d0565b6127108c60e00151613128888f61016001516135fc565b613132919061426a565b61313c91906142b0565b613146919061426a565b61315091906142b0565b61315a919061426a565b905061316e613169828461431a565b613456565b613178908961426a565b97505050506000828561318b919061426a565b90508581106131a1575060009695505050505050565b6131ab81876147d0565b95506131bb90506103e88661426a565b94506131ca60036103e86147d0565b6131d490866142b0565b94506131e082866142b0565b94506131ed858585613614565b94506131fe858761010001516135d9565b9695505050505050565b60008061321e8360a001518461010001516135d9565b9050600081815b60088110156132ea576000613f3461271061324086866147d0565b61324a919061426a565b61325491906142b0565b61325e90846147d0565b90506000613f3461271061327287876147d0565b61327c919061426a565b61328691906142b0565b613290908661431a565b9050606461329e82866147d0565b116132aa5750506132ea565b60006132b6898461366e565b905060006132c48a8461366e565b9050808211156132d6578295506132da565b8396505b5050600190920191506132259050565b50600060026132f9838561431a565b61330391906142b0565b90506000613311878661366e565b9050600061331f888461366e565b90508015801561332d575081155b1561334057506000979650505050505050565b81811161334b578592505b50909695505050505050565b6000611bcb828461426a565b805182905b80156125f7576133c9828461337e6001856147d0565b8151811061338e5761338e6142eb565b602002602001015160000151856001856133a891906147d0565b815181106133b8576133b86142eb565b602002602001015160200151613ab8565b9150806133d581614ec8565b915050613368565b6060831561344c578251600003613445576001600160a01b0385163b6134455760405162461bcd60e51b815260206004820152601d60248201527f416464726573733a2063616c6c20746f206e6f6e2d636f6e747261637400000060448201526064016102da565b5081612fcc565b612fcc8383613b0e565b60008160000361346857506000919050565b816001700100000000000000000000000000000000821061348e5760809190911c9060401b5b6801000000000000000082106134a95760409190911c9060201b5b64010000000082106134c05760209190911c9060101b5b6201000082106134d55760109190911c9060081b5b61010082106134e95760089190911c9060041b5b601082106134fc5760049190911c9060021b5b600882106135085760011b5b600181858161351957613519614281565b048201901c9050600181858161353157613531614281565b048201901c9050600181858161354957613549614281565b048201901c9050600181858161356157613561614281565b048201901c9050600181858161357957613579614281565b048201901c9050600181858161359157613591614281565b048201901c905060018185816135a9576135a9614281565b048201901c905060008185816135c1576135c1614281565b0490508082106135d15780612ec1565b509392505050565b60008160016135e8828661431a565b6135f291906147d0565b611bcb91906142b0565b600061360a6009600a614ea0565b6135f2838561426a565b60008061362460036103e86147d0565b61362e908661426a565b9050600061363c848361426a565b905060008261364d6103e88861426a565b613657919061431a565b905061366381836142b0565b979650505050505050565b600080836101a001515167ffffffffffffffff81111561369057613690613dd9565b6040519080825280602002602001820160405280156136d557816020015b60408051808201909152600080825260208201528152602001906001900390816136ae5790505b50905060005b846101a0015151811015613767576040518060400160405280866101a00151838151811061370b5761370b6142eb565b6020026020010151600001518152602001866101a001518381518110613733576137336142eb565b602002602001015160200151815250828281518110613754576137546142eb565b60209081029190910101526001016136db565b50600061377984866101000151613357565b610180860151519091505b8015613a725760006137d2838861018001516001856137a391906147d0565b815181106137b3576137b36142eb565b6020026020010151600001518961018001516001866133a891906147d0565b905060015b876101e0015151811015613a5d57876101c0015183815181106137fc576137fc6142eb565b60200260200101516001600160a01b0316886101e0015160018361382091906147d0565b81518110613830576138306142eb565b60200260200101516001600160a01b03161480156138a557506101c088015161385a6001856147d0565b8151811061386a5761386a6142eb565b60200260200101516001600160a01b0316886101e001518281518110613892576138926142eb565b60200260200101516001600160a01b0316145b1561391f5783856138b76001846147d0565b815181106138c7576138c76142eb565b60200260200101516000018181516138df91906147d0565b90525081856138ef6001846147d0565b815181106138ff576138ff6142eb565b6020026020010151602001818151613917919061431a565b905250613a55565b6101c08801516139306001856147d0565b81518110613940576139406142eb565b60200260200101516001600160a01b0316886101e0015160018361396491906147d0565b81518110613974576139746142eb565b60200260200101516001600160a01b03161480156139df5750876101c0015183815181106139a4576139a46142eb565b60200260200101516001600160a01b0316886101e0015182815181106139cc576139cc6142eb565b60200260200101516001600160a01b0316145b15613a555781856139f16001846147d0565b81518110613a0157613a016142eb565b6020026020010151600001818151613a1991906147d0565b9052508385613a296001846147d0565b81518110613a3957613a396142eb565b6020026020010151602001818151613a51919061431a565b9052505b6001016137d7565b50915080613a6a81614ec8565b915050613784565b50600080613a808787613b38565b915091506000613a908286613b9c565b90506000613a9e828561431a565b9050848111613aae576000612da5565b612da585826147d0565b6000806103e8613ac8868661426a565b613ad2919061426a565b90506000613ae360036103e86147d0565b613aed87866147d0565b613af7919061426a565b9050613b0381836142b0565b6131fe90600161431a565b815115613b1e5781518083602001fd5b8060405162461bcd60e51b81526004016102da91906149be565b600080613b666127108560c0015185613b51919061426a565b613b5b91906142b0565b8561014001516135fc565b9150613b936127108560e0015185613b7e919061426a565b613b8891906142b0565b8561016001516135fc565b90509250929050565b8160005b82518110156125f757613bee82848381518110613bbf57613bbf6142eb565b602002602001015160000151858481518110613bdd57613bdd6142eb565b602002602001015160200151613614565b9150600101613ba0565b6001600160a01b03811681146106bf57600080fd5b8035613c1881613bf8565b919050565b60008060008060008060a08789031215613c3657600080fd5b8635613c4181613bf8565b95506020870135613c5181613bf8565b94506040870135935060608701359250608087013567ffffffffffffffff811115613c7b57600080fd5b8701601f81018913613c8c57600080fd5b803567ffffffffffffffff811115613ca357600080fd5b896020828401011115613cb557600080fd5b60208201935080925050509295509295509295565b600060208284031215613cdc57600080fd5b8135611bcb81613bf8565b60006101808284031215613cfa57600080fd5b50919050565b600060a08284031215613cfa57600080fd5b60008060008060808587031215613d2857600080fd5b843567ffffffffffffffff811115613d3f57600080fd5b613d4b87828801613ce7565b9450506020850135613d5c81613bf8565b92506040850135613d6c81613bf8565b9150606085013567ffffffffffffffff811115613d8857600080fd5b613d9487828801613d00565b91505092959194509250565b600080600060608486031215613db557600080fd5b83359250602084013591506040840135613dce81613bf8565b809150509250925092565b7f4e487b7100000000000000000000000000000000000000000000000000000000600052604160045260246000fd5b6040516060810167ffffffffffffffff81118282101715613e2b57613e2b613dd9565b60405290565b60405160a0810167ffffffffffffffff81118282101715613e2b57613e2b613dd9565b604051610120810167ffffffffffffffff81118282101715613e2b57613e2b613dd9565b604051601f8201601f1916810167ffffffffffffffff81118282101715613ea157613ea1613dd9565b604052919050565b600067ffffffffffffffff821115613ec357613ec3613dd9565b5060051b60200190565b600060608284031215613edf57600080fd5b613ee7613e08565b9050813567ffffffffffffffff811115613f0057600080fd5b8201601f81018413613f1157600080fd5b8035613f24613f1f82613ea9565b613e78565b8082825260208201915060208360051b850101925086831115613f4657600080fd5b6020840193505b82841015613f71578335613f6081613bf8565b825260209384019390910190613f4d565b84525050506020828101359082015260409182013591810191909152919050565b600060a08284031215613fa457600080fd5b613fac613e31565b90508135613fb981613bf8565b8152602082810135908201526040820135613fd381613bf8565b6040820152606082013567ffffffffffffffff811115613ff257600080fd5b613ffe84828501613ecd565b606083015250608082013567ffffffffffffffff81111561401e57600080fd5b61402a84828501613ecd565b60808301525092915050565b60008060006060848603121561404b57600080fd5b833561405681613bf8565b9250602084013561406681613bf8565b9150604084013567ffffffffffffffff81111561408257600080fd5b61408e86828701613f92565b9150509250925092565b600080600080600060a086880312156140b057600080fd5b853567ffffffffffffffff8111156140c757600080fd5b6140d388828901613ce7565b955050602086013567ffffffffffffffff8111156140f057600080fd5b6140fc88828901613ce7565b945050604086013561410d81613bf8565b9250606086013561411d81613bf8565b9150608086013567ffffffffffffffff81111561413957600080fd5b61414588828901613d00565b9150509295509295909350565b60008060008060006080868803121561416a57600080fd5b853567ffffffffffffffff81111561418157600080fd5b8601601f8101881361419257600080fd5b803567ffffffffffffffff8111156141a957600080fd5b8860208260051b84010111156141be57600080fd5b6020918201965094506141d2908701613c0d565b92506141e060408701613c0d565b9150606086013567ffffffffffffffff81111561413957600080fd5b7f4e487b7100000000000000000000000000000000000000000000000000000000600052602160045260246000fd5b8183823760009101908152919050565b7f4e487b7100000000000000000000000000000000000000000000000000000000600052601160045260246000fd5b8082028115828204841417612e3a57612e3a61423b565b7f4e487b7100000000000000000000000000000000000000000000000000000000600052601260045260246000fd5b6000826142e6577f4e487b7100000000000000000000000000000000000000000000000000000000600052601260045260246000fd5b500490565b7f4e487b7100000000000000000000000000000000000000000000000000000000600052603260045260246000fd5b80820180821115612e3a57612e3a61423b565b80518015158114613c1857600080fd5b60006020828403121561434f57600080fd5b611bcb8261432d565b60006020828403121561436a57600080fd5b5051919050565b60006020828403121561438357600080fd5b8151611bcb81613bf8565b60008083357fffffffffffffffffffffffffffffffffffffffffffffffffffffffffffffffe18436030181126143c357600080fd5b830160208101925035905067ffffffffffffffff8111156143e357600080fd5b8060051b36038213156121b857600080fd5b803567ffffffffffffffff81168114613c1857600080fd5b6000614419828361438e565b6101808552806101808601527f07ffffffffffffffffffffffffffffffffffffffffffffffffffffffffffffff81111561445257600080fd5b60051b80826101a087013760208481013590860152604080850135908601819052915067ffffffffffffffff61448a606086016143f5565b16606086015267ffffffffffffffff6144a5608086016143f5565b16608086015260a0848101359086015260c080850135908601819052915067ffffffffffffffff6144d860e086016143f5565b1660e086015267ffffffffffffffff6144f461010086016143f5565b166101008601526101208481013590860152610140808501359086015261016093840135938501939093525050016101a00190565b60408152600061453c604083018561440d565b90506001600160a01b03831660208301529392505050565b600082357fffffffffffffffffffffffffffffffffffffffffffffffffffffffffffffffa183360301811261458857600080fd5b90910192915050565b6000606083016145a1838461438e565b606086529182905290600090608086015b818310156145e35783356145c581613bf8565b6001600160a01b0316815260209384019360019390930192016145b2565b60208681013590880152604095860135959096019490945250929392505050565b6001600160a01b03841681526001600160a01b0383166020820152606060408201526000823561463381613bf8565b6001600160a01b0316606083015260208301356080830152604083013561465981613bf8565b6001600160a01b031660a08301526146746060840184614554565b60a060c0840152614689610100840182614591565b90506146986080850185614554565b7fffffffffffffffffffffffffffffffffffffffffffffffffffffffffffffffa08483030160e0850152612fc78282614591565b6060815260006146df606083018661440d565b82810360208401526146f1818661440d565b9150506001600160a01b0383166040830152949350505050565b6040808252810183905260006060600585901b8301810190830186837ffffffffffffffffffffffffffffffffffffffffffffffffffffffffffffffe8136839003015b888210156147b1577fffffffffffffffffffffffffffffffffffffffffffffffffffffffffffffffa0878603018452823581811261478b57600080fd5b614797868c830161440d565b95505060208301925060208401935060018201915061474e565b50505050809150506001600160a01b0383166020830152949350505050565b81810381811115612e3a57612e3a61423b565b6000806000606084860312156147f857600080fd5b5050815160208301516040909301519094929350919050565b8051613c1881613bf8565b600081518084526020840193506020830160005b828110156148575781516001600160a01b0316865260209586019590910190600101614830565b5093949350505050565b85815284602082015260a06040820152600061488060a083018661481c565b6001600160a01b0394909416606083015250608001529392505050565b600082601f8301126148ae57600080fd5b81516148bc613f1f82613ea9565b8082825260208201915060208360051b8601019250858311156148de57600080fd5b602085015b838110156148fb5780518352602092830192016148e3565b5095945050505050565b6000806040838503121561491857600080fd5b825167ffffffffffffffff81111561492f57600080fd5b61493b8582860161489d565b925050602083015167ffffffffffffffff81111561495857600080fd5b6149648582860161489d565b9150509250929050565b60005b83811015614989578181015183820152602001614971565b50506000910152565b600081518084526149aa81602086016020860161496e565b601f01601f19169290920160200192915050565b602081526000611bcb6020830184614992565b6000602082840312156149e357600080fd5b815167ffffffffffffffff8111156149fa57600080fd5b612fcc8482850161489d565b600060208284031215614a1857600080fd5b815160ff81168114611bcb57600080fd5b60008060408385031215614a3c57600080fd5b505080516020909101519092909150565b6000815160608452614a62606085018261481c565b905060208301516020850152604083015160408501528091505092915050565b6001600160a01b03841681526001600160a01b0383166020820152606060408201526001600160a01b038251166060820152602082015160808201526001600160a01b0360408301511660a08201526000606083015160a060c0840152614aed610100840182614a4d565b905060808401517fffffffffffffffffffffffffffffffffffffffffffffffffffffffffffffffa08483030160e0850152612fc78282614a4d565b6001600160a01b03851681526001600160a01b03841660208201528260408201526080606082015260006131fe6080830184614992565b600082601f830112614b7057600080fd5b815167ffffffffffffffff811115614b8a57614b8a613dd9565b614b9d6020601f19601f84011601613e78565b818152846020838601011115614bb257600080fd5b612fcc82602083016020870161496e565b600060208284031215614bd557600080fd5b815167ffffffffffffffff811115614bec57600080fd5b612fcc84828501614b5f565b6040810160038410614c33577f4e487b7100000000000000000000000000000000000000000000000000000000600052602160045260246000fd5b9281526001600160a01b039190911660209091015290565b805160038110613c1857600080fd5b600060208284031215614c6c57600080fd5b815167ffffffffffffffff811115614c8357600080fd5b82016101208185031215614c9657600080fd5b614c9e613e54565b614ca782614c4b565b8152614cb560208301614811565b60208201526040828101519082015260608083015190820152614cda6080830161432d565b608082015260a082015167ffffffffffffffff811115614cf957600080fd5b614d0586828501614b5f565b60a08301525060c082015167ffffffffffffffff811115614d2557600080fd5b614d3186828501614b5f565b60c08301525060e0828101519082015261010091820151918101919091529392505050565b7f4e487b7100000000000000000000000000000000000000000000000000000000600052600160045260246000fd5b6001815b60018411156123e057808504811115614da457614da461423b565b6001841615614db257908102905b60019390931c928002614d89565b600082614dcf57506001612e3a565b81614ddc57506000612e3a565b8160018114614df25760028114614dfc57614e18565b6001915050612e3a565b60ff841115614e0d57614e0d61423b565b50506001821b612e3a565b5060208310610133831016604e8410600b8410161715614e3b575081810a612e3a565b614e667fffffffffffffffffffffffffffffffffffffffffffffffffffffffffffffffff8484614d85565b807fffffffffffffffffffffffffffffffffffffffffffffffffffffffffffffffff04821115614e9857614e9861423b565b029392505050565b6000611bcb8383614dc0565b60008251614ebe81846020870161496e565b9190910192915050565b600081614ed757614ed761423b565b507fffffffffffffffffffffffffffffffffffffffffffffffffffffffffffffffff019056fea164736f6c634300081b000a",
  "linkReferences": {},
  "deployedLinkReferences": {}
}