{
  "_format": "hh-sol-artifact-1",
  "contractName": "AddressUpdaterMock",
  "sourceName": "contracts/flareSmartContracts/mock/AddressUpdaterMock.sol",
  "abi": [
    {
      "inputs": [
        {
          "internalType": "contract IGovernanceSettings",
          "name": "_governanceSettings",
          "type": "address"
        },
        {
          "internalType": "address",
          "name": "_initialGovernance",
          "type": "address"
        }
      ],
      "stateMutability": "nonpayable",
      "type": "constructor"
    },
    {
      "anonymous": false,
      "inputs": [
        {
          "indexed": false,
          "internalType": "bytes",
          "name": "encodedCall",
          "type": "bytes"
        },
        {
          "indexed": false,
          "internalType": "bytes32",
          "name": "encodedCallHash",
          "type": "bytes32"
        },
        {
          "indexed": false,
          "internalType": "uint256",
          "name": "allowedAfterTimestamp",
          "type": "uint256"
        }
      ],
      "name": "GovernanceCallTimelocked",
      "type": "event"
    },
    {
      "anonymous": false,
      "inputs": [
        {
          "indexed": false,
          "internalType": "address",
          "name": "initialGovernance",
          "type": "address"
        }
      ],
      "name": "GovernanceInitialised",
      "type": "event"
    },
    {
      "anonymous": false,
      "inputs": [
        {
          "indexed": false,
          "internalType": "address",
          "name": "governanceSettings",
          "type": "address"
        }
      ],
      "name": "GovernedProductionModeEntered",
      "type": "event"
    },
    {
      "anonymous": false,
      "inputs": [
        {
          "indexed": false,
          "internalType": "bytes32",
          "name": "encodedCallHash",
          "type": "bytes32"
        }
      ],
      "name": "TimelockedGovernanceCallCanceled",
      "type": "event"
    },
    {
      "anonymous": false,
      "inputs": [
        {
          "indexed": false,
          "internalType": "bytes32",
          "name": "encodedCallHash",
          "type": "bytes32"
        }
      ],
      "name": "TimelockedGovernanceCallExecuted",
      "type": "event"
    },
    {
      "inputs": [
        {
          "internalType": "string[]",
          "name": "_contractNames",
          "type": "string[]"
        },
        {
          "internalType": "address[]",
          "name": "_contractAddresses",
          "type": "address[]"
        }
      ],
      "name": "addOrUpdateContractNamesAndAddresses",
      "outputs": [],
      "stateMutability": "nonpayable",
      "type": "function"
    },
    {
      "inputs": [
        {
          "internalType": "bytes",
          "name": "_encodedCall",
          "type": "bytes"
        }
      ],
      "name": "cancelGovernanceCall",
      "outputs": [],
      "stateMutability": "nonpayable",
      "type": "function"
    },
    {
      "inputs": [
        {
          "internalType": "bytes",
          "name": "_encodedCall",
          "type": "bytes"
        }
      ],
      "name": "executeGovernanceCall",
      "outputs": [],
      "stateMutability": "nonpayable",
      "type": "function"
    },
    {
      "inputs": [
        {
          "internalType": "string",
          "name": "_name",
          "type": "string"
        }
      ],
      "name": "getContractAddress",
      "outputs": [
        {
          "internalType": "address",
          "name": "",
          "type": "address"
        }
      ],
      "stateMutability": "view",
      "type": "function"
    },
    {
      "inputs": [
        {
          "internalType": "bytes32",
          "name": "_nameHash",
          "type": "bytes32"
        }
      ],
      "name": "getContractAddressByHash",
      "outputs": [
        {
          "internalType": "address",
          "name": "",
          "type": "address"
        }
      ],
      "stateMutability": "view",
      "type": "function"
    },
    {
      "inputs": [
        {
          "internalType": "string[]",
          "name": "_names",
          "type": "string[]"
        }
      ],
      "name": "getContractAddresses",
      "outputs": [
        {
          "internalType": "address[]",
          "name": "",
          "type": "address[]"
        }
      ],
      "stateMutability": "view",
      "type": "function"
    },
    {
      "inputs": [
        {
          "internalType": "bytes32[]",
          "name": "_nameHashes",
          "type": "bytes32[]"
        }
      ],
      "name": "getContractAddressesByHash",
      "outputs": [
        {
          "internalType": "address[]",
          "name": "",
          "type": "address[]"
        }
      ],
      "stateMutability": "view",
      "type": "function"
    },
    {
      "inputs": [],
      "name": "getContractNamesAndAddresses",
      "outputs": [
        {
          "internalType": "string[]",
          "name": "_contractNames",
          "type": "string[]"
        },
        {
          "internalType": "address[]",
          "name": "_contractAddresses",
          "type": "address[]"
        }
      ],
      "stateMutability": "view",
      "type": "function"
    },
    {
      "inputs": [],
      "name": "governance",
      "outputs": [
        {
          "internalType": "address",
          "name": "",
          "type": "address"
        }
      ],
      "stateMutability": "view",
      "type": "function"
    },
    {
      "inputs": [],
      "name": "governanceSettings",
      "outputs": [
        {
          "internalType": "contract IGovernanceSettings",
          "name": "",
          "type": "address"
        }
      ],
      "stateMutability": "view",
      "type": "function"
    },
    {
      "inputs": [
        {
          "internalType": "address",
          "name": "_address",
          "type": "address"
        }
      ],
      "name": "isExecutor",
      "outputs": [
        {
          "internalType": "bool",
          "name": "",
          "type": "bool"
        }
      ],
      "stateMutability": "view",
      "type": "function"
    },
    {
      "inputs": [],
      "name": "productionMode",
      "outputs": [
        {
          "internalType": "bool",
          "name": "",
          "type": "bool"
        }
      ],
      "stateMutability": "view",
      "type": "function"
    },
    {
      "inputs": [
        {
          "internalType": "string[]",
          "name": "_contractNames",
          "type": "string[]"
        }
      ],
      "name": "removeContracts",
      "outputs": [],
      "stateMutability": "nonpayable",
      "type": "function"
    },
    {
      "inputs": [],
      "name": "switchToProductionMode",
      "outputs": [],
      "stateMutability": "nonpayable",
      "type": "function"
    },
    {
      "inputs": [
        {
          "internalType": "string[]",
          "name": "_contractNames",
          "type": "string[]"
        },
        {
          "internalType": "address[]",
          "name": "_contractAddresses",
          "type": "address[]"
        },
        {
          "internalType": "contract IIAddressUpdatable[]",
          "name": "_contractsToUpdate",
          "type": "address[]"
        }
      ],
      "name": "update",
      "outputs": [],
      "stateMutability": "nonpayable",
      "type": "function"
    },
    {
      "inputs": [
        {
          "internalType": "contract IIAddressUpdatable[]",
          "name": "_contractsToUpdate",
          "type": "address[]"
        }
      ],
      "name": "updateContractAddresses",
      "outputs": [],
      "stateMutability": "nonpayable",
      "type": "function"
    }
  ],
  "bytecode": "0x608060405234801561001057600080fd5b5060405161204d38038061204d83398101604081905261002f916101f0565b818161003b8282610044565b5050505061022a565b7f2aa47ee5db910f3b2a06970c443249cc77dbd9f96100cfebc1775ab7fb1d18248054600160a01b900460ff16156100c35760405162461bcd60e51b815260206004820152601460248201527f696e697469616c6973656420213d2066616c736500000000000000000000000060448201526064015b60405180910390fd5b6001600160a01b0383166101195760405162461bcd60e51b815260206004820152601860248201527f676f7665726e616e63652073657474696e6773207a65726f000000000000000060448201526064016100ba565b6001600160a01b0382166101625760405162461bcd60e51b815260206004820152601060248201526f5f676f7665726e616e6365207a65726f60801b60448201526064016100ba565b80546001600160a01b038481166001600160a81b031990921691909117600160a01b1782556001820180549184166001600160a01b0319909216821790556040519081527f9789733827840833afc031fb2ef9ab6894271f77bad2085687cf4ae5c7bee4db9060200160405180910390a1505050565b6001600160a01b03811681146101ed57600080fd5b50565b6000806040838503121561020357600080fd5b825161020e816101d8565b602084015190925061021f816101d8565b809150509250929050565b611e14806102396000396000f3fe608060405234801561001057600080fd5b50600436106101005760003560e01c806362354e0311610097578063debfda3011610066578063debfda301461022e578063e17f212e14610251578063ee6f63c314610270578063f5a983831461028357600080fd5b806362354e03146101d757806370d44f28146101f55780638246e467146102085780639933dba61461021b57600080fd5b806320c5f99d116100d357806320c5f99d146101865780632f26c5c3146101995780635aa6e675146101af5780635e11e2d1146101b757600080fd5b806304433bbc14610105578063159354a21461013557806316fc2f6d1461015e5780631b0e296014610173575b600080fd5b610118610113366004611475565b61028b565b6040516001600160a01b0390911681526020015b60405180910390f35b6101186101433660046114b6565b6000908152600160205260409020546001600160a01b031690565b61017161016c366004611475565b6102f3565b005b6101716101813660046115c3565b6103db565b610171610194366004611475565b6103ef565b6101a16105de565b60405161012c92919061168a565b610118610795565b6101ca6101c5366004611746565b61083e565b60405161012c919061177b565b600080516020611dbf833981519152546001600160a01b0316610118565b610171610203366004611871565b61090a565b6101716102163660046118a5565b610b3a565b61017161022936600461190c565b610b66565b61024161023c36600461199d565b610ba0565b604051901515815260200161012c565b600080516020611dbf83398151915254600160a81b900460ff16610241565b6101ca61027e366004611746565b610c3a565b610171610d46565b6000600160006102d085858080601f016020809104026020016040519081016040528093929190818152602001838380828437600092019190915250610e1a92505050565b81526020810191909152604001600020546001600160a01b031690505b92915050565b6102fb610e4a565b604051600080516020611dbf8339815191529060009061031e90859085906119ba565b60405180910390209050816002016000828152602001908152602001600020546000036103925760405162461bcd60e51b815260206004820152601a60248201527f74696d656c6f636b3a20696e76616c69642073656c6563746f7200000000000060448201526064015b60405180910390fd5b6040518181527f69b058d6225c01c1f2a25801ca5b05705fa2e9118e93d518390ba804398c87b19060200160405180910390a16000908152600290910160205260408120555050565b6103e3610e4a565b6103ec81610ea6565b50565b600080516020611dbf83398151915261040733610ba0565b6104435760405162461bcd60e51b815260206004820152600d60248201526c37b7363c9032bc32b1baba37b960991b6044820152606401610389565b600083836040516104559291906119ba565b604080519182900390912060008181526002850160205291822054909250908190036104c35760405162461bcd60e51b815260206004820152601a60248201527f74696d656c6f636b3a20696e76616c69642073656c6563746f720000000000006044820152606401610389565b804210156105135760405162461bcd60e51b815260206004820152601960248201527f74696d656c6f636b3a206e6f7420616c6c6f77656420796574000000000000006044820152606401610389565b6000828152600284016020526040808220829055845460ff60b01b1916600160b01b17855551309061054890889088906119ba565b6000604051808303816000865af19150503d8060008114610585576040519150601f19603f3d011682016040523d82523d6000602084013e61058a565b606091505b5050845460ff60b01b191685556040518481529091507fec1225e5a8a8acb91e03ce648c683c74f5d152a775b9715980999441d714c44f9060200160405180910390a16105d68161108c565b505050505050565b6060806000805480602002602001604051908101604052809291908181526020016000905b828210156106af578382906000526020600020018054610622906119ca565b80601f016020809104026020016040519081016040528092919081815260200182805461064e906119ca565b801561069b5780601f106106705761010080835404028352916020019161069b565b820191906000526020600020905b81548152906001019060200180831161067e57829003601f168201915b505050505081526020019060010190610603565b50508251929450829150506001600160401b038111156106d1576106d16114cf565b6040519080825280602002602001820160405280156106fa578160200160208202803683370190505b5091505b8015610790578061070e81611a1a565b9150506001600061073785848151811061072a5761072a611a31565b6020026020010151610e1a565b815260200190815260200160002060009054906101000a90046001600160a01b031682828151811061076b5761076b611a31565b60200260200101906001600160a01b031690816001600160a01b0316815250506106fe565b509091565b600080516020611dbf833981519152805460009190600160a81b900460ff166107cb5760018101546001600160a01b0316610838565b805460408051631cc9492560e21b815290516001600160a01b03909216916373252494916004808201926020929091908290030181865afa158015610814573d6000803e3d6000fd5b505050506040513d601f19601f820116820180604052508101906108389190611a47565b91505090565b60606000826001600160401b0381111561085a5761085a6114cf565b604051908082528060200260200182016040528015610883578160200160208202803683370190505b50905060005b8381101561090257600160008686848181106108a7576108a7611a31565b90506020020135815260200190815260200160002060009054906101000a90046001600160a01b03168282815181106108e2576108e2611a31565b6001600160a01b0390921660209283029190910190910152600101610889565b509392505050565b6109126110a9565b15610b2d5761091f6110df565b60005b8151811015610b2957600082828151811061093f5761093f611a31565b60200260200101519050600061095482610e1a565b600081815260016020908152604091829020548251808401909352600c83526b61646472657373207a65726f60a01b91830191909152919250906001600160a01b03166109b45760405162461bcd60e51b81526004016103899190611a64565b50600081815260016020526040812080546001600160a01b0319169055545b8015610a9b57806109e381611a1a565b915050610a94600082815481106109fc576109fc611a31565b906000526020600020018054610a11906119ca565b80601f0160208091040260200160405190810160405280929190818152602001828054610a3d906119ca565b8015610a8a5780601f10610a5f57610100808354040283529160200191610a8a565b820191906000526020600020905b815481529060010190602001808311610a6d57829003601f168201915b5050505050610e1a565b82036109d3575b60008054610aab90600190611a77565b81548110610abb57610abb611a31565b9060005260206000200160008281548110610ad857610ad8611a31565b906000526020600020019081610aee9190611ad1565b506000805480610b0057610b00611bb0565b600190038181906000526020600020016000610b1c91906113df565b9055505050600101610922565b5050565b6103ec6000366000611123565b610b426110a9565b15610b5957610b4f6110df565b610b29828261123a565b610b296000366000611123565b610b6e6110a9565b15610b9357610b7b6110df565b610b85838361123a565b610b8e81610ea6565b505050565b610b8e6000366000611123565b600080516020611dbf833981519152805460009190600160a01b900460ff168015610c3357508054604051630debfda360e41b81526001600160a01b0385811660048301529091169063debfda3090602401602060405180830381865afa158015610c0f573d6000803e3d6000fd5b505050506040513d601f19601f82011682018060405250810190610c339190611bc6565b9392505050565b60606000826001600160401b03811115610c5657610c566114cf565b604051908082528060200260200182016040528015610c7f578160200160208202803683370190505b50905060005b838110156109025760016000610cf2878785818110610ca657610ca6611a31565b9050602002810190610cb89190611be8565b8080601f016020809104026020016040519081016040528093929190818152602001838380828437600092019190915250610e1a92505050565b815260200190815260200160002060009054906101000a90046001600160a01b0316828281518110610d2657610d26611a31565b6001600160a01b0390921660209283029190910190910152600101610c85565b610d4e610e4a565b600080516020611dbf8339815191528054600160a81b900460ff1615610db65760405162461bcd60e51b815260206004820152601a60248201527f616c726561647920696e2070726f64756374696f6e206d6f64650000000000006044820152606401610389565b6001810180546001600160a01b03191690558054600160a81b60ff60a81b1982161782556040516001600160a01b0390911681527f83af113638b5422f9e977cebc0aaf0eaf2188eb9a8baae7f9d46c42b33a1560c9060200160405180910390a150565b600081604051602001610e2d9190611a64565b604051602081830303815290604052805190602001209050919050565b610e52610795565b6001600160a01b0316336001600160a01b031614610ea45760405162461bcd60e51b815260206004820152600f60248201526e6f6e6c7920676f7665726e616e636560881b6044820152606401610389565b565b6000805490816001600160401b03811115610ec357610ec36114cf565b604051908082528060200260200182016040528015610eec578160200160208202803683370190505b5090506000826001600160401b03811115610f0957610f096114cf565b604051908082528060200260200182016040528015610f32578160200160208202803683370190505b5090505b8215610ff45782610f4681611a1a565b935050610f5f600084815481106109fc576109fc611a31565b828481518110610f7157610f71611a31565b60200260200101818152505060016000838581518110610f9357610f93611a31565b6020026020010151815260200190815260200160002060009054906101000a90046001600160a01b0316818481518110610fcf57610fcf611a31565b60200260200101906001600160a01b031690816001600160a01b031681525050610f36565b60005b84518110156110855784818151811061101257611012611a31565b60200260200101516001600160a01b031663b00c0b7684846040518363ffffffff1660e01b8152600401611047929190611c2e565b600060405180830381600087803b15801561106157600080fd5b505af1158015611075573d6000803e3d6000fd5b505060019092019150610ff79050565b5050505050565b3d604051818101604052816000823e82156110a5578181f35b8181fd5b600080516020611dbf833981519152805460009190600160b01b900460ff1680610838575054600160a81b900460ff1615919050565b600080516020611dbf8339815191528054600160b01b900460ff161561111b5733301461110e5761110e611c86565b805460ff60b01b19169055565b6103ec610e4a565b600080516020611dbf83398151915261113a610e4a565b6000848460405161114c9291906119ba565b604080519182900382208454636221a54b60e01b845291519093506000926001600160a01b0390921691636221a54b9160048083019260209291908290030181865afa1580156111a0573d6000803e3d6000fd5b505050506040513d601f19601f820116820180604052508101906111c49190611c9c565b9050838110156111d15750825b60006111dd8242611cb5565b600084815260028601602052604090819020829055519091507f8c02104dfc280f713854f25297de671710c544c58de69dbde8fb66974ce1ab9e90611229908990899087908690611cc8565b60405180910390a150505050505050565b8151815160408051808201909152601a81527f6172726179206c656e6774687320646f206e6f74206d6174636800000000000060208201529082146112925760405162461bcd60e51b81526004016103899190611a64565b5060005b818110156113d95760006001600160a01b03168382815181106112bb576112bb611a31565b60200260200101516001600160a01b031614156040518060400160405280600c81526020016b61646472657373207a65726f60a01b815250906113115760405162461bcd60e51b81526004016103899190611a64565b50600061132985838151811061072a5761072a611a31565b6000818152600160205260409020549091506001600160a01b031661138757600085838151811061135c5761135c611a31565b602090810291909101810151825460018101845560009384529190922001906113859082611d08565b505b83828151811061139957611399611a31565b6020908102919091018101516000928352600191829052604090922080546001600160a01b0319166001600160a01b039093169290921790915501611296565b50505050565b5080546113eb906119ca565b6000825580601f106113fb575050565b601f0160209004906000526020600020908101906103ec91905b808211156114295760008155600101611415565b5090565b60008083601f84011261143f57600080fd5b5081356001600160401b0381111561145657600080fd5b60208301915083602082850101111561146e57600080fd5b9250929050565b6000806020838503121561148857600080fd5b82356001600160401b0381111561149e57600080fd5b6114aa8582860161142d565b90969095509350505050565b6000602082840312156114c857600080fd5b5035919050565b634e487b7160e01b600052604160045260246000fd5b604051601f8201601f191681016001600160401b038111828210171561150d5761150d6114cf565b604052919050565b60006001600160401b0382111561152e5761152e6114cf565b5060051b60200190565b6001600160a01b03811681146103ec57600080fd5b600082601f83011261155e57600080fd5b813561157161156c82611515565b6114e5565b8082825260208201915060208360051b86010192508583111561159357600080fd5b602085015b838110156115b95780356115ab81611538565b835260209283019201611598565b5095945050505050565b6000602082840312156115d557600080fd5b81356001600160401b038111156115eb57600080fd5b6115f78482850161154d565b949350505050565b6000815180845260005b8181101561162557602081850181015186830182015201611609565b506000602082860101526020601f19601f83011685010191505092915050565b600081518084526020840193506020830160005b828110156116805781516001600160a01b0316865260209586019590910190600101611659565b5093949350505050565b6000604082016040835280855180835260608501915060608160051b86010192506020870160005b828110156116e357605f198786030184526116ce8583516115ff565b945060209384019391909101906001016116b2565b5050505082810360208401526116f98185611645565b95945050505050565b60008083601f84011261171457600080fd5b5081356001600160401b0381111561172b57600080fd5b6020830191508360208260051b850101111561146e57600080fd5b6000806020838503121561175957600080fd5b82356001600160401b0381111561176f57600080fd5b6114aa85828601611702565b602081526000610c336020830184611645565b600082601f83011261179f57600080fd5b81356117ad61156c82611515565b8082825260208201915060208360051b8601019250858311156117cf57600080fd5b602085015b838110156115b95780356001600160401b038111156117f257600080fd5b8601603f8101881361180357600080fd5b60208101356001600160401b0381111561181f5761181f6114cf565b611832601f8201601f19166020016114e5565b8181526040838301018a101561184757600080fd5b816040840160208301376000602083830101528086525050506020830192506020810190506117d4565b60006020828403121561188357600080fd5b81356001600160401b0381111561189957600080fd5b6115f78482850161178e565b600080604083850312156118b857600080fd5b82356001600160401b038111156118ce57600080fd5b6118da8582860161178e565b92505060208301356001600160401b038111156118f657600080fd5b6119028582860161154d565b9150509250929050565b60008060006060848603121561192157600080fd5b83356001600160401b0381111561193757600080fd5b6119438682870161178e565b93505060208401356001600160401b0381111561195f57600080fd5b61196b8682870161154d565b92505060408401356001600160401b0381111561198757600080fd5b6119938682870161154d565b9150509250925092565b6000602082840312156119af57600080fd5b8135610c3381611538565b8183823760009101908152919050565b600181811c908216806119de57607f821691505b6020821081036119fe57634e487b7160e01b600052602260045260246000fd5b50919050565b634e487b7160e01b600052601160045260246000fd5b600081611a2957611a29611a04565b506000190190565b634e487b7160e01b600052603260045260246000fd5b600060208284031215611a5957600080fd5b8151610c3381611538565b602081526000610c3360208301846115ff565b818103818111156102ed576102ed611a04565b601f821115610b8e57806000526020600020601f840160051c81016020851015611ab15750805b601f840160051c820191505b818110156110855760008155600101611abd565b818103611adc575050565b611ae682546119ca565b6001600160401b03811115611afd57611afd6114cf565b611b1181611b0b84546119ca565b84611a8a565b6000601f821160018114611b485760008315611b2d5750848201545b600184901b600019600386901b1c198216175b855550611085565b600085815260209020601f19841690600086815260209020845b83811015611b825782860154825560019586019590910190602001611b62565b5085831015611ba05781850154600019600388901b60f8161c191681555b5050505050600190811b01905550565b634e487b7160e01b600052603160045260246000fd5b600060208284031215611bd857600080fd5b81518015158114610c3357600080fd5b6000808335601e19843603018112611bff57600080fd5b8301803591506001600160401b03821115611c1957600080fd5b60200191503681900382131561146e57600080fd5b6040808252835190820181905260009060208501906060840190835b81811015611c68578351835260209384019390920191600101611c4a565b50508381036020850152611c7c8186611645565b9695505050505050565b634e487b7160e01b600052600160045260246000fd5b600060208284031215611cae57600080fd5b5051919050565b808201808211156102ed576102ed611a04565b606081528360608201528385608083013760006080858301015260006080601f19601f870116830101905083602083015282604083015295945050505050565b81516001600160401b03811115611d2157611d216114cf565b611d2f81611b0b84546119ca565b6020601f821160018114611d615760008315611b2d575081850151600184901b600019600386901b1c19821617611b40565b600084815260208120601f198516915b82811015611d915787850151825560209485019460019092019101611d71565b5084821015611daf5786840151600019600387901b60f8161c191681555b50505050600190811b0190555056fe2aa47ee5db910f3b2a06970c443249cc77dbd9f96100cfebc1775ab7fb1d1824a26469706673582212202ee84622255e1c6a78c4c10aefa7b5a0d691b3bd9ca5122da69d53c19f1a9d3364736f6c634300081b0033",
  "linkReferences": {},
  "deployedLinkReferences": {}
}