{
  "_format": "hh-sol-artifact-1",
  "contractName": "AddressUpdaterMock",
  "sourceName": "contracts/flareSmartContracts/mock/AddressUpdaterMock.sol",
  "abi": [
    {
      "inputs": [
        {
          "internalType": "contract IGovernanceSettings",
          "name": "_governanceSettings",
          "type": "address"
        },
        {
          "internalType": "address",
          "name": "_initialGovernance",
          "type": "address"
        }
      ],
      "stateMutability": "nonpayable",
      "type": "constructor"
    },
    {
      "inputs": [],
      "name": "AlreadyInProductionMode",
      "type": "error"
    },
    {
      "inputs": [],
      "name": "GovernedAddressZero",
      "type": "error"
    },
    {
      "inputs": [],
      "name": "GovernedAlreadyInitialized",
      "type": "error"
    },
    {
      "inputs": [],
      "name": "OnlyExecutor",
      "type": "error"
    },
    {
      "inputs": [],
      "name": "OnlyGovernance",
      "type": "error"
    },
    {
      "inputs": [],
      "name": "TimelockInvalidSelector",
      "type": "error"
    },
    {
      "inputs": [],
      "name": "TimelockNotAllowedYet",
      "type": "error"
    },
    {
      "anonymous": false,
      "inputs": [
        {
          "indexed": false,
          "internalType": "bytes",
          "name": "encodedCall",
          "type": "bytes"
        },
        {
          "indexed": false,
          "internalType": "bytes32",
          "name": "encodedCallHash",
          "type": "bytes32"
        },
        {
          "indexed": false,
          "internalType": "uint256",
          "name": "allowedAfterTimestamp",
          "type": "uint256"
        }
      ],
      "name": "GovernanceCallTimelocked",
      "type": "event"
    },
    {
      "anonymous": false,
      "inputs": [
        {
          "indexed": false,
          "internalType": "address",
          "name": "initialGovernance",
          "type": "address"
        }
      ],
      "name": "GovernanceInitialised",
      "type": "event"
    },
    {
      "anonymous": false,
      "inputs": [
        {
          "indexed": false,
          "internalType": "address",
          "name": "governanceSettings",
          "type": "address"
        }
      ],
      "name": "GovernedProductionModeEntered",
      "type": "event"
    },
    {
      "anonymous": false,
      "inputs": [
        {
          "indexed": false,
          "internalType": "bytes32",
          "name": "encodedCallHash",
          "type": "bytes32"
        }
      ],
      "name": "TimelockedGovernanceCallCanceled",
      "type": "event"
    },
    {
      "anonymous": false,
      "inputs": [
        {
          "indexed": false,
          "internalType": "bytes32",
          "name": "encodedCallHash",
          "type": "bytes32"
        }
      ],
      "name": "TimelockedGovernanceCallExecuted",
      "type": "event"
    },
    {
      "inputs": [
        {
          "internalType": "string[]",
          "name": "_contractNames",
          "type": "string[]"
        },
        {
          "internalType": "address[]",
          "name": "_contractAddresses",
          "type": "address[]"
        }
      ],
      "name": "addOrUpdateContractNamesAndAddresses",
      "outputs": [],
      "stateMutability": "nonpayable",
      "type": "function"
    },
    {
      "inputs": [
        {
          "internalType": "bytes",
          "name": "_encodedCall",
          "type": "bytes"
        }
      ],
      "name": "cancelGovernanceCall",
      "outputs": [],
      "stateMutability": "nonpayable",
      "type": "function"
    },
    {
      "inputs": [
        {
          "internalType": "bytes",
          "name": "_encodedCall",
          "type": "bytes"
        }
      ],
      "name": "executeGovernanceCall",
      "outputs": [],
      "stateMutability": "nonpayable",
      "type": "function"
    },
    {
      "inputs": [
        {
          "internalType": "string",
          "name": "_name",
          "type": "string"
        }
      ],
      "name": "getContractAddress",
      "outputs": [
        {
          "internalType": "address",
          "name": "",
          "type": "address"
        }
      ],
      "stateMutability": "view",
      "type": "function"
    },
    {
      "inputs": [
        {
          "internalType": "bytes32",
          "name": "_nameHash",
          "type": "bytes32"
        }
      ],
      "name": "getContractAddressByHash",
      "outputs": [
        {
          "internalType": "address",
          "name": "",
          "type": "address"
        }
      ],
      "stateMutability": "view",
      "type": "function"
    },
    {
      "inputs": [
        {
          "internalType": "string[]",
          "name": "_names",
          "type": "string[]"
        }
      ],
      "name": "getContractAddresses",
      "outputs": [
        {
          "internalType": "address[]",
          "name": "",
          "type": "address[]"
        }
      ],
      "stateMutability": "view",
      "type": "function"
    },
    {
      "inputs": [
        {
          "internalType": "bytes32[]",
          "name": "_nameHashes",
          "type": "bytes32[]"
        }
      ],
      "name": "getContractAddressesByHash",
      "outputs": [
        {
          "internalType": "address[]",
          "name": "",
          "type": "address[]"
        }
      ],
      "stateMutability": "view",
      "type": "function"
    },
    {
      "inputs": [],
      "name": "getContractNamesAndAddresses",
      "outputs": [
        {
          "internalType": "string[]",
          "name": "_contractNames",
          "type": "string[]"
        },
        {
          "internalType": "address[]",
          "name": "_contractAddresses",
          "type": "address[]"
        }
      ],
      "stateMutability": "view",
      "type": "function"
    },
    {
      "inputs": [],
      "name": "governance",
      "outputs": [
        {
          "internalType": "address",
          "name": "",
          "type": "address"
        }
      ],
      "stateMutability": "view",
      "type": "function"
    },
    {
      "inputs": [],
      "name": "governanceSettings",
      "outputs": [
        {
          "internalType": "contract IGovernanceSettings",
          "name": "",
          "type": "address"
        }
      ],
      "stateMutability": "view",
      "type": "function"
    },
    {
      "inputs": [
        {
          "internalType": "address",
          "name": "_address",
          "type": "address"
        }
      ],
      "name": "isExecutor",
      "outputs": [
        {
          "internalType": "bool",
          "name": "",
          "type": "bool"
        }
      ],
      "stateMutability": "view",
      "type": "function"
    },
    {
      "inputs": [],
      "name": "productionMode",
      "outputs": [
        {
          "internalType": "bool",
          "name": "",
          "type": "bool"
        }
      ],
      "stateMutability": "view",
      "type": "function"
    },
    {
      "inputs": [
        {
          "internalType": "string[]",
          "name": "_contractNames",
          "type": "string[]"
        }
      ],
      "name": "removeContracts",
      "outputs": [],
      "stateMutability": "nonpayable",
      "type": "function"
    },
    {
      "inputs": [],
      "name": "switchToProductionMode",
      "outputs": [],
      "stateMutability": "nonpayable",
      "type": "function"
    },
    {
      "inputs": [
        {
          "internalType": "string[]",
          "name": "_contractNames",
          "type": "string[]"
        },
        {
          "internalType": "address[]",
          "name": "_contractAddresses",
          "type": "address[]"
        },
        {
          "internalType": "contract IIAddressUpdatable[]",
          "name": "_contractsToUpdate",
          "type": "address[]"
        }
      ],
      "name": "update",
      "outputs": [],
      "stateMutability": "nonpayable",
      "type": "function"
    },
    {
      "inputs": [
        {
          "internalType": "contract IIAddressUpdatable[]",
          "name": "_contractsToUpdate",
          "type": "address[]"
        }
      ],
      "name": "updateContractAddresses",
      "outputs": [],
      "stateMutability": "nonpayable",
      "type": "function"
    }
  ],
  "bytecode": "0x608060405234801561001057600080fd5b50604051611ed0380380611ed083398101604081905261002f9161016b565b818161003b8282610044565b505050506101a5565b7f2aa47ee5db910f3b2a06970c443249cc77dbd9f96100cfebc1775ab7fb1d18248054600160a01b900460ff161561008f5760405163b2f0162160e01b815260040160405180910390fd5b6001600160a01b0383166100b6576040516334ab92fb60e11b815260040160405180910390fd5b6001600160a01b0382166100dd576040516334ab92fb60e11b815260040160405180910390fd5b80546001600160a01b038481166001600160a81b031990921691909117600160a01b1782556001820180549184166001600160a01b0319909216821790556040519081527f9789733827840833afc031fb2ef9ab6894271f77bad2085687cf4ae5c7bee4db9060200160405180910390a1505050565b6001600160a01b038116811461016857600080fd5b50565b6000806040838503121561017e57600080fd5b825161018981610153565b602084015190925061019a81610153565b809150509250929050565b611d1c806101b46000396000f3fe608060405234801561001057600080fd5b50600436106101005760003560e01c806362354e0311610097578063debfda3011610066578063debfda301461022e578063e17f212e14610251578063ee6f63c314610270578063f5a983831461028357600080fd5b806362354e03146101d757806370d44f28146101f55780638246e467146102085780639933dba61461021b57600080fd5b806320c5f99d116100d357806320c5f99d146101865780632f26c5c3146101995780635aa6e675146101af5780635e11e2d1146101b757600080fd5b806304433bbc14610105578063159354a21461013557806316fc2f6d1461015e5780631b0e296014610173575b600080fd5b61011861011336600461137d565b61028b565b6040516001600160a01b0390911681526020015b60405180910390f35b6101186101433660046113be565b6000908152600160205260409020546001600160a01b031690565b61017161016c36600461137d565b6102f3565b005b6101716101813660046114cb565b6103a7565b61017161019436600461137d565b6103bb565b6101a161052d565b60405161012c929190611592565b6101186106e4565b6101ca6101c536600461164e565b61078d565b60405161012c9190611683565b600080516020611cc7833981519152546001600160a01b0316610118565b610171610203366004611779565b610859565b6101716102163660046117ad565b610a92565b610171610229366004611814565b610abe565b61024161023c3660046118a5565b610af8565b604051901515815260200161012c565b600080516020611cc783398151915254600160a81b900460ff16610241565b6101ca61027e36600461164e565b610b92565b610171610c9e565b6000600160006102d085858080601f016020809104026020016040519081016040528093929190818152602001838380828437600092019190915250610d4392505050565b81526020810191909152604001600020546001600160a01b031690505b92915050565b6102fb610d73565b604051600080516020611cc78339815191529060009061031e90859085906118c2565b604051809103902090508160020160008281526020019081526020016000205460000361035e5760405163023679b760e21b815260040160405180910390fd5b6040518181527f69b058d6225c01c1f2a25801ca5b05705fa2e9118e93d518390ba804398c87b19060200160405180910390a16000908152600290910160205260408120555050565b6103af610d73565b6103b881610dae565b50565b600080516020611cc78339815191526103d333610af8565b6103f057604051633fdb5f0160e11b815260040160405180910390fd5b600083836040516104029291906118c2565b604080519182900390912060008181526002850160205291822054909250908190036104415760405163023679b760e21b815260040160405180910390fd5b804210156104625760405163309272e160e11b815260040160405180910390fd5b6000828152600284016020526040808220829055845460ff60b01b1916600160b01b17855551309061049790889088906118c2565b6000604051808303816000865af19150503d80600081146104d4576040519150601f19603f3d011682016040523d82523d6000602084013e6104d9565b606091505b5050845460ff60b01b191685556040518481529091507fec1225e5a8a8acb91e03ce648c683c74f5d152a775b9715980999441d714c44f9060200160405180910390a161052581610f94565b505050505050565b6060806000805480602002602001604051908101604052809291908181526020016000905b828210156105fe578382906000526020600020018054610571906118d2565b80601f016020809104026020016040519081016040528092919081815260200182805461059d906118d2565b80156105ea5780601f106105bf576101008083540402835291602001916105ea565b820191906000526020600020905b8154815290600101906020018083116105cd57829003601f168201915b505050505081526020019060010190610552565b50508251929450829150506001600160401b03811115610620576106206113d7565b604051908082528060200260200182016040528015610649578160200160208202803683370190505b5091505b80156106df578061065d81611922565b9150506001600061068685848151811061067957610679611939565b6020026020010151610d43565b815260200190815260200160002060009054906101000a90046001600160a01b03168282815181106106ba576106ba611939565b60200260200101906001600160a01b031690816001600160a01b03168152505061064d565b509091565b600080516020611cc7833981519152805460009190600160a81b900460ff1661071a5760018101546001600160a01b0316610787565b805460408051631cc9492560e21b815290516001600160a01b03909216916373252494916004808201926020929091908290030181865afa158015610763573d6000803e3d6000fd5b505050506040513d601f19601f82011682018060405250810190610787919061194f565b91505090565b60606000826001600160401b038111156107a9576107a96113d7565b6040519080825280602002602001820160405280156107d2578160200160208202803683370190505b50905060005b8381101561085157600160008686848181106107f6576107f6611939565b90506020020135815260200190815260200160002060009054906101000a90046001600160a01b031682828151811061083157610831611939565b6001600160a01b03909216602092830291909101909101526001016107d8565b509392505050565b610861610fb1565b15610a855761086e610fe7565b60005b8151811015610a8157600082828151811061088e5761088e611939565b6020026020010151905060006108a382610d43565b600081815260016020908152604091829020548251808401909352600c83526b61646472657373207a65726f60a01b91830191909152919250906001600160a01b031661090c5760405162461bcd60e51b8152600401610903919061196c565b60405180910390fd5b50600081815260016020526040812080546001600160a01b0319169055545b80156109f3578061093b81611922565b9150506109ec6000828154811061095457610954611939565b906000526020600020018054610969906118d2565b80601f0160208091040260200160405190810160405280929190818152602001828054610995906118d2565b80156109e25780601f106109b7576101008083540402835291602001916109e2565b820191906000526020600020905b8154815290600101906020018083116109c557829003601f168201915b5050505050610d43565b820361092b575b60008054610a039060019061197f565b81548110610a1357610a13611939565b9060005260206000200160008281548110610a3057610a30611939565b906000526020600020019081610a4691906119d9565b506000805480610a5857610a58611ab8565b600190038181906000526020600020016000610a7491906112e7565b9055505050600101610871565b5050565b6103b8600036600061102b565b610a9a610fb1565b15610ab157610aa7610fe7565b610a818282611142565b610a81600036600061102b565b610ac6610fb1565b15610aeb57610ad3610fe7565b610add8383611142565b610ae681610dae565b505050565b610ae6600036600061102b565b600080516020611cc7833981519152805460009190600160a01b900460ff168015610b8b57508054604051630debfda360e41b81526001600160a01b0385811660048301529091169063debfda3090602401602060405180830381865afa158015610b67573d6000803e3d6000fd5b505050506040513d601f19601f82011682018060405250810190610b8b9190611ace565b9392505050565b60606000826001600160401b03811115610bae57610bae6113d7565b604051908082528060200260200182016040528015610bd7578160200160208202803683370190505b50905060005b838110156108515760016000610c4a878785818110610bfe57610bfe611939565b9050602002810190610c109190611af0565b8080601f016020809104026020016040519081016040528093929190818152602001838380828437600092019190915250610d4392505050565b815260200190815260200160002060009054906101000a90046001600160a01b0316828281518110610c7e57610c7e611939565b6001600160a01b0390921660209283029190910190910152600101610bdd565b610ca6610d73565b600080516020611cc78339815191528054600160a81b900460ff1615610cdf576040516339511f6160e11b815260040160405180910390fd5b6001810180546001600160a01b03191690558054600160a81b60ff60a81b1982161782556040516001600160a01b0390911681527f83af113638b5422f9e977cebc0aaf0eaf2188eb9a8baae7f9d46c42b33a1560c9060200160405180910390a150565b600081604051602001610d56919061196c565b604051602081830303815290604052805190602001209050919050565b610d7b6106e4565b6001600160a01b0316336001600160a01b031614610dac576040516354348f0360e01b815260040160405180910390fd5b565b6000805490816001600160401b03811115610dcb57610dcb6113d7565b604051908082528060200260200182016040528015610df4578160200160208202803683370190505b5090506000826001600160401b03811115610e1157610e116113d7565b604051908082528060200260200182016040528015610e3a578160200160208202803683370190505b5090505b8215610efc5782610e4e81611922565b935050610e676000848154811061095457610954611939565b828481518110610e7957610e79611939565b60200260200101818152505060016000838581518110610e9b57610e9b611939565b6020026020010151815260200190815260200160002060009054906101000a90046001600160a01b0316818481518110610ed757610ed7611939565b60200260200101906001600160a01b031690816001600160a01b031681525050610e3e565b60005b8451811015610f8d57848181518110610f1a57610f1a611939565b60200260200101516001600160a01b031663b00c0b7684846040518363ffffffff1660e01b8152600401610f4f929190611b36565b600060405180830381600087803b158015610f6957600080fd5b505af1158015610f7d573d6000803e3d6000fd5b505060019092019150610eff9050565b5050505050565b3d604051818101604052816000823e8215610fad578181f35b8181fd5b600080516020611cc7833981519152805460009190600160b01b900460ff1680610787575054600160a81b900460ff1615919050565b600080516020611cc78339815191528054600160b01b900460ff16156110235733301461101657611016611b8e565b805460ff60b01b19169055565b6103b8610d73565b600080516020611cc7833981519152611042610d73565b600084846040516110549291906118c2565b604080519182900382208454636221a54b60e01b845291519093506000926001600160a01b0390921691636221a54b9160048083019260209291908290030181865afa1580156110a8573d6000803e3d6000fd5b505050506040513d601f19601f820116820180604052508101906110cc9190611ba4565b9050838110156110d95750825b60006110e58242611bbd565b600084815260028601602052604090819020829055519091507f8c02104dfc280f713854f25297de671710c544c58de69dbde8fb66974ce1ab9e90611131908990899087908690611bd0565b60405180910390a150505050505050565b8151815160408051808201909152601a81527f6172726179206c656e6774687320646f206e6f74206d61746368000000000000602082015290821461119a5760405162461bcd60e51b8152600401610903919061196c565b5060005b818110156112e15760006001600160a01b03168382815181106111c3576111c3611939565b60200260200101516001600160a01b031614156040518060400160405280600c81526020016b61646472657373207a65726f60a01b815250906112195760405162461bcd60e51b8152600401610903919061196c565b50600061123185838151811061067957610679611939565b6000818152600160205260409020549091506001600160a01b031661128f57600085838151811061126457611264611939565b6020908102919091018101518254600181018455600093845291909220019061128d9082611c10565b505b8382815181106112a1576112a1611939565b6020908102919091018101516000928352600191829052604090922080546001600160a01b0319166001600160a01b03909316929092179091550161119e565b50505050565b5080546112f3906118d2565b6000825580601f10611303575050565b601f0160209004906000526020600020908101906103b891905b80821115611331576000815560010161131d565b5090565b60008083601f84011261134757600080fd5b5081356001600160401b0381111561135e57600080fd5b60208301915083602082850101111561137657600080fd5b9250929050565b6000806020838503121561139057600080fd5b82356001600160401b038111156113a657600080fd5b6113b285828601611335565b90969095509350505050565b6000602082840312156113d057600080fd5b5035919050565b634e487b7160e01b600052604160045260246000fd5b604051601f8201601f191681016001600160401b0381118282101715611415576114156113d7565b604052919050565b60006001600160401b03821115611436576114366113d7565b5060051b60200190565b6001600160a01b03811681146103b857600080fd5b600082601f83011261146657600080fd5b81356114796114748261141d565b6113ed565b8082825260208201915060208360051b86010192508583111561149b57600080fd5b602085015b838110156114c15780356114b381611440565b8352602092830192016114a0565b5095945050505050565b6000602082840312156114dd57600080fd5b81356001600160401b038111156114f357600080fd5b6114ff84828501611455565b949350505050565b6000815180845260005b8181101561152d57602081850181015186830182015201611511565b506000602082860101526020601f19601f83011685010191505092915050565b600081518084526020840193506020830160005b828110156115885781516001600160a01b0316865260209586019590910190600101611561565b5093949350505050565b6000604082016040835280855180835260608501915060608160051b86010192506020870160005b828110156115eb57605f198786030184526115d6858351611507565b945060209384019391909101906001016115ba565b505050508281036020840152611601818561154d565b95945050505050565b60008083601f84011261161c57600080fd5b5081356001600160401b0381111561163357600080fd5b6020830191508360208260051b850101111561137657600080fd5b6000806020838503121561166157600080fd5b82356001600160401b0381111561167757600080fd5b6113b28582860161160a565b602081526000610b8b602083018461154d565b600082601f8301126116a757600080fd5b81356116b56114748261141d565b8082825260208201915060208360051b8601019250858311156116d757600080fd5b602085015b838110156114c15780356001600160401b038111156116fa57600080fd5b8601603f8101881361170b57600080fd5b60208101356001600160401b03811115611727576117276113d7565b61173a601f8201601f19166020016113ed565b8181526040838301018a101561174f57600080fd5b816040840160208301376000602083830101528086525050506020830192506020810190506116dc565b60006020828403121561178b57600080fd5b81356001600160401b038111156117a157600080fd5b6114ff84828501611696565b600080604083850312156117c057600080fd5b82356001600160401b038111156117d657600080fd5b6117e285828601611696565b92505060208301356001600160401b038111156117fe57600080fd5b61180a85828601611455565b9150509250929050565b60008060006060848603121561182957600080fd5b83356001600160401b0381111561183f57600080fd5b61184b86828701611696565b93505060208401356001600160401b0381111561186757600080fd5b61187386828701611455565b92505060408401356001600160401b0381111561188f57600080fd5b61189b86828701611455565b9150509250925092565b6000602082840312156118b757600080fd5b8135610b8b81611440565b8183823760009101908152919050565b600181811c908216806118e657607f821691505b60208210810361190657634e487b7160e01b600052602260045260246000fd5b50919050565b634e487b7160e01b600052601160045260246000fd5b6000816119315761193161190c565b506000190190565b634e487b7160e01b600052603260045260246000fd5b60006020828403121561196157600080fd5b8151610b8b81611440565b602081526000610b8b6020830184611507565b818103818111156102ed576102ed61190c565b601f821115610ae657806000526020600020601f840160051c810160208510156119b95750805b601f840160051c820191505b81811015610f8d57600081556001016119c5565b8181036119e4575050565b6119ee82546118d2565b6001600160401b03811115611a0557611a056113d7565b611a1981611a1384546118d2565b84611992565b6000601f821160018114611a505760008315611a355750848201545b600184901b600019600386901b1c198216175b855550610f8d565b600085815260209020601f19841690600086815260209020845b83811015611a8a5782860154825560019586019590910190602001611a6a565b5085831015611aa85781850154600019600388901b60f8161c191681555b5050505050600190811b01905550565b634e487b7160e01b600052603160045260246000fd5b600060208284031215611ae057600080fd5b81518015158114610b8b57600080fd5b6000808335601e19843603018112611b0757600080fd5b8301803591506001600160401b03821115611b2157600080fd5b60200191503681900382131561137657600080fd5b6040808252835190820181905260009060208501906060840190835b81811015611b70578351835260209384019390920191600101611b52565b50508381036020850152611b84818661154d565b9695505050505050565b634e487b7160e01b600052600160045260246000fd5b600060208284031215611bb657600080fd5b5051919050565b808201808211156102ed576102ed61190c565b606081528360608201528385608083013760006080858301015260006080601f19601f870116830101905083602083015282604083015295945050505050565b81516001600160401b03811115611c2957611c296113d7565b611c3781611a1384546118d2565b6020601f821160018114611c695760008315611a35575081850151600184901b600019600386901b1c19821617611a48565b600084815260208120601f198516915b82811015611c995787850151825560209485019460019092019101611c79565b5084821015611cb75786840151600019600387901b60f8161c191681555b50505050600190811b0190555056fe2aa47ee5db910f3b2a06970c443249cc77dbd9f96100cfebc1775ab7fb1d1824a26469706673582212200a11df9a70744ddad68204e098562652b1031ec28a133bb068142bf50282eada64736f6c634300081b0033",
  "linkReferences": {},
  "deployedLinkReferences": {}
}