{
  "_format": "hh-sol-artifact-1",
  "contractName": "DiamondInit",
  "sourceName": "contracts/diamond/mock/DiamondInit.sol",
  "abi": [
    {
      "inputs": [],
      "name": "AlreadyInProductionMode",
      "type": "error"
    },
    {
      "inputs": [],
      "name": "GovernedAddressZero",
      "type": "error"
    },
    {
      "inputs": [],
      "name": "GovernedAlreadyInitialized",
      "type": "error"
    },
    {
      "inputs": [],
      "name": "OnlyExecutor",
      "type": "error"
    },
    {
      "inputs": [],
      "name": "OnlyGovernance",
      "type": "error"
    },
    {
      "inputs": [],
      "name": "TimelockInvalidSelector",
      "type": "error"
    },
    {
      "inputs": [],
      "name": "TimelockNotAllowedYet",
      "type": "error"
    },
    {
      "anonymous": false,
      "inputs": [
        {
          "indexed": false,
          "internalType": "bytes",
          "name": "encodedCall",
          "type": "bytes"
        },
        {
          "indexed": false,
          "internalType": "bytes32",
          "name": "encodedCallHash",
          "type": "bytes32"
        },
        {
          "indexed": false,
          "internalType": "uint256",
          "name": "allowedAfterTimestamp",
          "type": "uint256"
        }
      ],
      "name": "GovernanceCallTimelocked",
      "type": "event"
    },
    {
      "anonymous": false,
      "inputs": [
        {
          "indexed": false,
          "internalType": "address",
          "name": "initialGovernance",
          "type": "address"
        }
      ],
      "name": "GovernanceInitialised",
      "type": "event"
    },
    {
      "anonymous": false,
      "inputs": [
        {
          "indexed": false,
          "internalType": "address",
          "name": "governanceSettings",
          "type": "address"
        }
      ],
      "name": "GovernedProductionModeEntered",
      "type": "event"
    },
    {
      "anonymous": false,
      "inputs": [
        {
          "indexed": false,
          "internalType": "bytes32",
          "name": "encodedCallHash",
          "type": "bytes32"
        }
      ],
      "name": "TimelockedGovernanceCallCanceled",
      "type": "event"
    },
    {
      "anonymous": false,
      "inputs": [
        {
          "indexed": false,
          "internalType": "bytes32",
          "name": "encodedCallHash",
          "type": "bytes32"
        }
      ],
      "name": "TimelockedGovernanceCallExecuted",
      "type": "event"
    },
    {
      "inputs": [
        {
          "internalType": "bytes",
          "name": "_encodedCall",
          "type": "bytes"
        }
      ],
      "name": "cancelGovernanceCall",
      "outputs": [],
      "stateMutability": "nonpayable",
      "type": "function"
    },
    {
      "inputs": [
        {
          "internalType": "bytes",
          "name": "_encodedCall",
          "type": "bytes"
        }
      ],
      "name": "executeGovernanceCall",
      "outputs": [],
      "stateMutability": "nonpayable",
      "type": "function"
    },
    {
      "inputs": [],
      "name": "governance",
      "outputs": [
        {
          "internalType": "address",
          "name": "",
          "type": "address"
        }
      ],
      "stateMutability": "view",
      "type": "function"
    },
    {
      "inputs": [],
      "name": "governanceSettings",
      "outputs": [
        {
          "internalType": "contract IGovernanceSettings",
          "name": "",
          "type": "address"
        }
      ],
      "stateMutability": "view",
      "type": "function"
    },
    {
      "inputs": [
        {
          "internalType": "contract IGovernanceSettings",
          "name": "_governanceSettings",
          "type": "address"
        },
        {
          "internalType": "address",
          "name": "_initialGovernance",
          "type": "address"
        }
      ],
      "name": "init",
      "outputs": [],
      "stateMutability": "nonpayable",
      "type": "function"
    },
    {
      "inputs": [
        {
          "internalType": "address",
          "name": "_address",
          "type": "address"
        }
      ],
      "name": "isExecutor",
      "outputs": [
        {
          "internalType": "bool",
          "name": "",
          "type": "bool"
        }
      ],
      "stateMutability": "view",
      "type": "function"
    },
    {
      "inputs": [],
      "name": "productionMode",
      "outputs": [
        {
          "internalType": "bool",
          "name": "",
          "type": "bool"
        }
      ],
      "stateMutability": "view",
      "type": "function"
    },
    {
      "inputs": [],
      "name": "switchToProductionMode",
      "outputs": [],
      "stateMutability": "nonpayable",
      "type": "function"
    }
  ],
  "bytecode": "0x608060405234801561001057600080fd5b5061001d61111180610022565b610131565b7f2aa47ee5db910f3b2a06970c443249cc77dbd9f96100cfebc1775ab7fb1d18248054600160a01b900460ff161561006d5760405163b2f0162160e01b815260040160405180910390fd5b6001600160a01b038316610094576040516334ab92fb60e11b815260040160405180910390fd5b6001600160a01b0382166100bb576040516334ab92fb60e11b815260040160405180910390fd5b80546001600160a01b038481166001600160a81b031990921691909117600160a01b1782556001820180549184166001600160a01b0319909216821790556040519081527f9789733827840833afc031fb2ef9ab6894271f77bad2085687cf4ae5c7bee4db9060200160405180910390a1505050565b610900806101406000396000f3fe608060405234801561001057600080fd5b50600436106100885760003560e01c8063debfda301161005b578063debfda30146100f8578063e17f212e1461011b578063f09a40161461013a578063f5a983831461014d57600080fd5b806316fc2f6d1461008d57806320c5f99d146100a25780635aa6e675146100b557806362354e03146100da575b600080fd5b6100a061009b366004610779565b610155565b005b6100a06100b0366004610779565b610209565b6100bd61037b565b6040516001600160a01b0390911681526020015b60405180910390f35b6000805160206108ab833981519152546001600160a01b03166100bd565b61010b610106366004610805565b610424565b60405190151581526020016100d1565b6000805160206108ab83398151915254600160a81b900460ff1661010b565b6100a0610148366004610822565b6104be565b6100a061057f565b61015d610624565b6040516000805160206108ab83398151915290600090610180908590859061085b565b60405180910390209050816002016000828152602001908152602001600020546000036101c05760405163023679b760e21b815260040160405180910390fd5b6040518181527f69b058d6225c01c1f2a25801ca5b05705fa2e9118e93d518390ba804398c87b19060200160405180910390a16000908152600290910160205260408120555050565b6000805160206108ab83398151915261022133610424565b61023e57604051633fdb5f0160e11b815260040160405180910390fd5b6000838360405161025092919061085b565b6040805191829003909120600081815260028501602052918220549092509081900361028f5760405163023679b760e21b815260040160405180910390fd5b804210156102b05760405163309272e160e11b815260040160405180910390fd5b6000828152600284016020526040808220829055845460ff60b01b1916600160b01b1785555130906102e5908890889061085b565b6000604051808303816000865af19150503d8060008114610322576040519150601f19603f3d011682016040523d82523d6000602084013e610327565b606091505b5050845460ff60b01b191685556040518481529091507fec1225e5a8a8acb91e03ce648c683c74f5d152a775b9715980999441d714c44f9060200160405180910390a16103738161065f565b505050505050565b6000805160206108ab833981519152805460009190600160a81b900460ff166103b15760018101546001600160a01b031661041e565b805460408051631cc9492560e21b815290516001600160a01b03909216916373252494916004808201926020929091908290030181865afa1580156103fa573d6000803e3d6000fd5b505050506040513d601f19601f8201168201806040525081019061041e919061086b565b91505090565b6000805160206108ab833981519152805460009190600160a01b900460ff1680156104b757508054604051630debfda360e41b81526001600160a01b0385811660048301529091169063debfda3090602401602060405180830381865afa158015610493573d6000803e3d6000fd5b505050506040513d601f19601f820116820180604052508101906104b79190610888565b9392505050565b6104c8828261067c565b50507fc8fcad8db84d3cc18b4c41d551ea0ee66dd599cde068d998e57d5e09332c131e6020527f673a26ab9c976db950bbe987aa80c5e387f329563bb0afe093ddccc970489e318054600160ff1991821681179092557f9bed265332efc30fa7643cc339edc91cb284a0f6566818a5788922af58c86b5080548216831790556348e2b09360e01b6000527f795db15802e151b19272d3e7b72ebd9d0cedc282cc23a6e937c8c3c90d9e213780549091169091179055565b610587610624565b6000805160206108ab8339815191528054600160a81b900460ff16156105c0576040516339511f6160e11b815260040160405180910390fd5b6001810180546001600160a01b03191690558054600160a81b60ff60a81b1982161782556040516001600160a01b0390911681527f83af113638b5422f9e977cebc0aaf0eaf2188eb9a8baae7f9d46c42b33a1560c9060200160405180910390a150565b61062c61037b565b6001600160a01b0316336001600160a01b03161461065d576040516354348f0360e01b815260040160405180910390fd5b565b3d604051818101604052816000823e8215610678578181f35b8181fd5b6000805160206108ab8339815191528054600160a01b900460ff16156106b55760405163b2f0162160e01b815260040160405180910390fd5b6001600160a01b0383166106dc576040516334ab92fb60e11b815260040160405180910390fd5b6001600160a01b038216610703576040516334ab92fb60e11b815260040160405180910390fd5b80546001600160a01b038481166001600160a81b031990921691909117600160a01b1782556001820180549184166001600160a01b0319909216821790556040519081527f9789733827840833afc031fb2ef9ab6894271f77bad2085687cf4ae5c7bee4db9060200160405180910390a1505050565b6000806020838503121561078c57600080fd5b823567ffffffffffffffff8111156107a357600080fd5b8301601f810185136107b457600080fd5b803567ffffffffffffffff8111156107cb57600080fd5b8560208284010111156107dd57600080fd5b6020919091019590945092505050565b6001600160a01b038116811461080257600080fd5b50565b60006020828403121561081757600080fd5b81356104b7816107ed565b6000806040838503121561083557600080fd5b8235610840816107ed565b91506020830135610850816107ed565b809150509250929050565b8183823760009101908152919050565b60006020828403121561087d57600080fd5b81516104b7816107ed565b60006020828403121561089a57600080fd5b815180151581146104b757600080fdfe2aa47ee5db910f3b2a06970c443249cc77dbd9f96100cfebc1775ab7fb1d1824a264697066735822122087473f1a303e6aa677750342c00a1e1e46bbfb151458592d135b9178d18185a064736f6c634300081b0033",
  "linkReferences": {},
  "deployedLinkReferences": {}
}