{
  "_format": "hh-sol-artifact-1",
  "contractName": "FtsoV2PriceStoreMock",
  "sourceName": "contracts/assetManager/mock/FtsoV2PriceStoreMock.sol",
  "abi": [
    {
      "inputs": [
        {
          "internalType": "contract IGovernanceSettings",
          "name": "_governanceSettings",
          "type": "address"
        },
        {
          "internalType": "address",
          "name": "_initialGovernance",
          "type": "address"
        },
        {
          "internalType": "address",
          "name": "_addressUpdater",
          "type": "address"
        },
        {
          "internalType": "uint64",
          "name": "_firstVotingRoundStartTs",
          "type": "uint64"
        },
        {
          "internalType": "uint8",
          "name": "_votingEpochDurationSeconds",
          "type": "uint8"
        },
        {
          "internalType": "uint8",
          "name": "_ftsoProtocolId",
          "type": "uint8"
        }
      ],
      "stateMutability": "nonpayable",
      "type": "constructor"
    },
    {
      "anonymous": false,
      "inputs": [
        {
          "indexed": false,
          "internalType": "bytes",
          "name": "encodedCall",
          "type": "bytes"
        },
        {
          "indexed": false,
          "internalType": "bytes32",
          "name": "encodedCallHash",
          "type": "bytes32"
        },
        {
          "indexed": false,
          "internalType": "uint256",
          "name": "allowedAfterTimestamp",
          "type": "uint256"
        }
      ],
      "name": "GovernanceCallTimelocked",
      "type": "event"
    },
    {
      "anonymous": false,
      "inputs": [
        {
          "indexed": false,
          "internalType": "address",
          "name": "initialGovernance",
          "type": "address"
        }
      ],
      "name": "GovernanceInitialised",
      "type": "event"
    },
    {
      "anonymous": false,
      "inputs": [
        {
          "indexed": false,
          "internalType": "address",
          "name": "governanceSettings",
          "type": "address"
        }
      ],
      "name": "GovernedProductionModeEntered",
      "type": "event"
    },
    {
      "anonymous": false,
      "inputs": [
        {
          "indexed": true,
          "internalType": "uint32",
          "name": "votingRoundId",
          "type": "uint32"
        }
      ],
      "name": "PricesPublished",
      "type": "event"
    },
    {
      "anonymous": false,
      "inputs": [
        {
          "indexed": false,
          "internalType": "bytes32",
          "name": "encodedCallHash",
          "type": "bytes32"
        }
      ],
      "name": "TimelockedGovernanceCallCanceled",
      "type": "event"
    },
    {
      "anonymous": false,
      "inputs": [
        {
          "indexed": false,
          "internalType": "bytes32",
          "name": "encodedCallHash",
          "type": "bytes32"
        }
      ],
      "name": "TimelockedGovernanceCallExecuted",
      "type": "event"
    },
    {
      "inputs": [
        {
          "internalType": "bytes",
          "name": "_encodedCall",
          "type": "bytes"
        }
      ],
      "name": "cancelGovernanceCall",
      "outputs": [],
      "stateMutability": "nonpayable",
      "type": "function"
    },
    {
      "inputs": [
        {
          "internalType": "bytes",
          "name": "_encodedCall",
          "type": "bytes"
        }
      ],
      "name": "executeGovernanceCall",
      "outputs": [],
      "stateMutability": "nonpayable",
      "type": "function"
    },
    {
      "inputs": [],
      "name": "finalizePrices",
      "outputs": [],
      "stateMutability": "nonpayable",
      "type": "function"
    },
    {
      "inputs": [],
      "name": "firstVotingRoundStartTs",
      "outputs": [
        {
          "internalType": "uint64",
          "name": "",
          "type": "uint64"
        }
      ],
      "stateMutability": "view",
      "type": "function"
    },
    {
      "inputs": [],
      "name": "ftsoProtocolId",
      "outputs": [
        {
          "internalType": "uint8",
          "name": "",
          "type": "uint8"
        }
      ],
      "stateMutability": "view",
      "type": "function"
    },
    {
      "inputs": [],
      "name": "getAddressUpdater",
      "outputs": [
        {
          "internalType": "address",
          "name": "_addressUpdater",
          "type": "address"
        }
      ],
      "stateMutability": "view",
      "type": "function"
    },
    {
      "inputs": [
        {
          "internalType": "string",
          "name": "_symbol",
          "type": "string"
        }
      ],
      "name": "getFeedId",
      "outputs": [
        {
          "internalType": "bytes21",
          "name": "",
          "type": "bytes21"
        }
      ],
      "stateMutability": "view",
      "type": "function"
    },
    {
      "inputs": [],
      "name": "getFeedIds",
      "outputs": [
        {
          "internalType": "bytes21[]",
          "name": "",
          "type": "bytes21[]"
        }
      ],
      "stateMutability": "view",
      "type": "function"
    },
    {
      "inputs": [],
      "name": "getFeedIdsWithDecimals",
      "outputs": [
        {
          "internalType": "bytes21[]",
          "name": "_feedIds",
          "type": "bytes21[]"
        },
        {
          "internalType": "int8[]",
          "name": "_decimals",
          "type": "int8[]"
        }
      ],
      "stateMutability": "view",
      "type": "function"
    },
    {
      "inputs": [
        {
          "internalType": "string",
          "name": "_symbol",
          "type": "string"
        }
      ],
      "name": "getPrice",
      "outputs": [
        {
          "internalType": "uint256",
          "name": "_price",
          "type": "uint256"
        },
        {
          "internalType": "uint256",
          "name": "_timestamp",
          "type": "uint256"
        },
        {
          "internalType": "uint256",
          "name": "_priceDecimals",
          "type": "uint256"
        }
      ],
      "stateMutability": "view",
      "type": "function"
    },
    {
      "inputs": [
        {
          "internalType": "string",
          "name": "_symbol",
          "type": "string"
        }
      ],
      "name": "getPriceFromTrustedProviders",
      "outputs": [
        {
          "internalType": "uint256",
          "name": "_price",
          "type": "uint256"
        },
        {
          "internalType": "uint256",
          "name": "_timestamp",
          "type": "uint256"
        },
        {
          "internalType": "uint256",
          "name": "_priceDecimals",
          "type": "uint256"
        }
      ],
      "stateMutability": "view",
      "type": "function"
    },
    {
      "inputs": [
        {
          "internalType": "string",
          "name": "_symbol",
          "type": "string"
        }
      ],
      "name": "getPriceFromTrustedProvidersWithQuality",
      "outputs": [
        {
          "internalType": "uint256",
          "name": "_price",
          "type": "uint256"
        },
        {
          "internalType": "uint256",
          "name": "_timestamp",
          "type": "uint256"
        },
        {
          "internalType": "uint256",
          "name": "_priceDecimals",
          "type": "uint256"
        },
        {
          "internalType": "uint8",
          "name": "_numberOfSubmits",
          "type": "uint8"
        }
      ],
      "stateMutability": "view",
      "type": "function"
    },
    {
      "inputs": [],
      "name": "getSymbols",
      "outputs": [
        {
          "internalType": "string[]",
          "name": "_symbols",
          "type": "string[]"
        }
      ],
      "stateMutability": "view",
      "type": "function"
    },
    {
      "inputs": [],
      "name": "getTrustedProviders",
      "outputs": [
        {
          "internalType": "address[]",
          "name": "",
          "type": "address[]"
        }
      ],
      "stateMutability": "view",
      "type": "function"
    },
    {
      "inputs": [],
      "name": "governance",
      "outputs": [
        {
          "internalType": "address",
          "name": "",
          "type": "address"
        }
      ],
      "stateMutability": "view",
      "type": "function"
    },
    {
      "inputs": [],
      "name": "governanceSettings",
      "outputs": [
        {
          "internalType": "contract IGovernanceSettings",
          "name": "",
          "type": "address"
        }
      ],
      "stateMutability": "view",
      "type": "function"
    },
    {
      "inputs": [
        {
          "internalType": "address",
          "name": "_address",
          "type": "address"
        }
      ],
      "name": "isExecutor",
      "outputs": [
        {
          "internalType": "bool",
          "name": "",
          "type": "bool"
        }
      ],
      "stateMutability": "view",
      "type": "function"
    },
    {
      "inputs": [],
      "name": "lastPublishedVotingRoundId",
      "outputs": [
        {
          "internalType": "uint32",
          "name": "",
          "type": "uint32"
        }
      ],
      "stateMutability": "view",
      "type": "function"
    },
    {
      "inputs": [],
      "name": "maxSpreadBIPS",
      "outputs": [
        {
          "internalType": "uint16",
          "name": "",
          "type": "uint16"
        }
      ],
      "stateMutability": "view",
      "type": "function"
    },
    {
      "inputs": [],
      "name": "productionMode",
      "outputs": [
        {
          "internalType": "bool",
          "name": "",
          "type": "bool"
        }
      ],
      "stateMutability": "view",
      "type": "function"
    },
    {
      "inputs": [
        {
          "components": [
            {
              "internalType": "bytes32[]",
              "name": "proof",
              "type": "bytes32[]"
            },
            {
              "components": [
                {
                  "internalType": "uint32",
                  "name": "votingRoundId",
                  "type": "uint32"
                },
                {
                  "internalType": "bytes21",
                  "name": "id",
                  "type": "bytes21"
                },
                {
                  "internalType": "int32",
                  "name": "value",
                  "type": "int32"
                },
                {
                  "internalType": "uint16",
                  "name": "turnoutBIPS",
                  "type": "uint16"
                },
                {
                  "internalType": "int8",
                  "name": "decimals",
                  "type": "int8"
                }
              ],
              "internalType": "struct IPricePublisher.Feed",
              "name": "body",
              "type": "tuple"
            }
          ],
          "internalType": "struct IPricePublisher.FeedWithProof[]",
          "name": "_proofs",
          "type": "tuple[]"
        }
      ],
      "name": "publishPrices",
      "outputs": [],
      "stateMutability": "nonpayable",
      "type": "function"
    },
    {
      "inputs": [],
      "name": "relay",
      "outputs": [
        {
          "internalType": "contract IRelay",
          "name": "",
          "type": "address"
        }
      ],
      "stateMutability": "view",
      "type": "function"
    },
    {
      "inputs": [
        {
          "internalType": "string",
          "name": "_symbol",
          "type": "string"
        },
        {
          "internalType": "uint256",
          "name": "_price",
          "type": "uint256"
        },
        {
          "internalType": "uint256",
          "name": "_ageSeconds",
          "type": "uint256"
        }
      ],
      "name": "setCurrentPrice",
      "outputs": [],
      "stateMutability": "nonpayable",
      "type": "function"
    },
    {
      "inputs": [
        {
          "internalType": "string",
          "name": "_symbol",
          "type": "string"
        },
        {
          "internalType": "uint256",
          "name": "_price",
          "type": "uint256"
        },
        {
          "internalType": "uint256",
          "name": "_ageSeconds",
          "type": "uint256"
        }
      ],
      "name": "setCurrentPriceFromTrustedProviders",
      "outputs": [],
      "stateMutability": "nonpayable",
      "type": "function"
    },
    {
      "inputs": [
        {
          "internalType": "string",
          "name": "_symbol",
          "type": "string"
        },
        {
          "internalType": "int8",
          "name": "_decimals",
          "type": "int8"
        }
      ],
      "name": "setDecimals",
      "outputs": [],
      "stateMutability": "nonpayable",
      "type": "function"
    },
    {
      "inputs": [
        {
          "internalType": "address[]",
          "name": "_trustedProviders",
          "type": "address[]"
        },
        {
          "internalType": "uint8",
          "name": "_trustedProvidersThreshold",
          "type": "uint8"
        }
      ],
      "name": "setTrustedProviders",
      "outputs": [],
      "stateMutability": "nonpayable",
      "type": "function"
    },
    {
      "inputs": [
        {
          "internalType": "uint32",
          "name": "_votingRoundId",
          "type": "uint32"
        },
        {
          "components": [
            {
              "internalType": "bytes21",
              "name": "id",
              "type": "bytes21"
            },
            {
              "internalType": "uint32",
              "name": "value",
              "type": "uint32"
            },
            {
              "internalType": "int8",
              "name": "decimals",
              "type": "int8"
            }
          ],
          "internalType": "struct IPricePublisher.TrustedProviderFeed[]",
          "name": "_feeds",
          "type": "tuple[]"
        }
      ],
      "name": "submitTrustedPrices",
      "outputs": [],
      "stateMutability": "nonpayable",
      "type": "function"
    },
    {
      "inputs": [],
      "name": "submitTrustedPricesWindowSeconds",
      "outputs": [
        {
          "internalType": "uint64",
          "name": "",
          "type": "uint64"
        }
      ],
      "stateMutability": "view",
      "type": "function"
    },
    {
      "inputs": [
        {
          "internalType": "bytes4",
          "name": "_interfaceId",
          "type": "bytes4"
        }
      ],
      "name": "supportsInterface",
      "outputs": [
        {
          "internalType": "bool",
          "name": "",
          "type": "bool"
        }
      ],
      "stateMutability": "pure",
      "type": "function"
    },
    {
      "inputs": [],
      "name": "switchToProductionMode",
      "outputs": [],
      "stateMutability": "nonpayable",
      "type": "function"
    },
    {
      "inputs": [],
      "name": "trustedProvidersThreshold",
      "outputs": [
        {
          "internalType": "uint8",
          "name": "",
          "type": "uint8"
        }
      ],
      "stateMutability": "view",
      "type": "function"
    },
    {
      "inputs": [
        {
          "internalType": "bytes32[]",
          "name": "_contractNameHashes",
          "type": "bytes32[]"
        },
        {
          "internalType": "address[]",
          "name": "_contractAddresses",
          "type": "address[]"
        }
      ],
      "name": "updateContractAddresses",
      "outputs": [],
      "stateMutability": "nonpayable",
      "type": "function"
    },
    {
      "inputs": [
        {
          "internalType": "bytes21[]",
          "name": "_feedIds",
          "type": "bytes21[]"
        },
        {
          "internalType": "string[]",
          "name": "_symbols",
          "type": "string[]"
        },
        {
          "internalType": "int8[]",
          "name": "_trustedDecimals",
          "type": "int8[]"
        },
        {
          "internalType": "uint16",
          "name": "_maxSpreadBIPS",
          "type": "uint16"
        }
      ],
      "name": "updateSettings",
      "outputs": [],
      "stateMutability": "nonpayable",
      "type": "function"
    },
    {
      "inputs": [],
      "name": "votingEpochDurationSeconds",
      "outputs": [
        {
          "internalType": "uint64",
          "name": "",
          "type": "uint64"
        }
      ],
      "stateMutability": "view",
      "type": "function"
    }
  ],
  "bytecode": "0x6101006040523480156200001257600080fd5b5060405162004275380380620042758339810160408190526200003591620003a3565b8585858585858386866200004a828262000198565b50620000769050817f714f205b2abd25bef1d06a1af944e38c113fe6160375c4e1d6d5cf28848e771955565b50426200008760ff84168562000450565b6001600160401b03161115620000d95760405162461bcd60e51b8152602060048201526012602482015271696e76616c69642073746172742074696d6560701b60448201526064015b60405180910390fd5b60018260ff16116200012e5760405162461bcd60e51b815260206004820152601f60248201527f766f74696e672065706f6368206475726174696f6e20746f6f2073686f7274006044820152606401620000d0565b6001600160401b03831660805260ff821660a0526200014f60028362000490565b60ff90811660c052811660e052620001666200032d565b600860176101000a81548163ffffffff021916908363ffffffff16021790555050505050505050505050505062000508565b7f2aa47ee5db910f3b2a06970c443249cc77dbd9f96100cfebc1775ab7fb1d18248054600160a01b900460ff1615620002145760405162461bcd60e51b815260206004820152601460248201527f696e697469616c6973656420213d2066616c73650000000000000000000000006044820152606401620000d0565b6001600160a01b0383166200026c5760405162461bcd60e51b815260206004820152601860248201527f676f7665726e616e63652073657474696e6773207a65726f00000000000000006044820152606401620000d0565b6001600160a01b038216620002b75760405162461bcd60e51b815260206004820152601060248201526f5f676f7665726e616e6365207a65726f60801b6044820152606401620000d0565b80546001600160a01b038481166001600160a81b031990921691909117600160a01b1782556001820180549184166001600160a01b0319909216821790556040519081527f9789733827840833afc031fb2ef9ab6894271f77bad2085687cf4ae5c7bee4db9060200160405180910390a1505050565b6000600160a0516001600160401b03166080516001600160401b031642620003569190620004b5565b620003629190620004d1565b6200036e9190620004e8565b905090565b6001600160a01b03811681146200038957600080fd5b50565b805160ff811681146200039e57600080fd5b919050565b60008060008060008060c08789031215620003bd57600080fd5b8651620003ca8162000373565b6020880151909650620003dd8162000373565b6040880151909550620003f08162000373565b60608801519094506001600160401b03811681146200040e57600080fd5b92506200041e608088016200038c565b91506200042e60a088016200038c565b90509295509295509295565b634e487b7160e01b600052601160045260246000fd5b6001600160401b038181168382160190808211156200047357620004736200043a565b5092915050565b634e487b7160e01b600052601260045260246000fd5b600060ff831680620004a657620004a66200047a565b8060ff84160491505092915050565b81810381811115620004cb57620004cb6200043a565b92915050565b600082620004e357620004e36200047a565b500490565b63ffffffff8281168282160390808211156200047357620004736200043a565b60805160a05160c05160e051613cf4620005816000396000818161040601526116af0152600081816103df015281816114410152611cf901526000818161034e0152818161248a0152818161255c01526125d4015260008181610590015281816124cd0152818161258601526125fe0152613cf46000f3fe608060405234801561001057600080fd5b50600436106102065760003560e01c80639a2bc19a1161011a578063debfda30116100ad578063e4a0a55b1161007c578063e4a0a55b14610542578063e731a1bc14610555578063e8d0e70a1461058b578063f5a98383146105b2578063f78b7568146105ba57600080fd5b8063debfda30146104e8578063df7f710e146104fb578063e05372ff14610510578063e17f212e1461052357600080fd5b8063b44cd1ba116100e9578063b44cd1ba14610480578063b59589d1146104a6578063c88987dc146104c0578063cea648a5146104d557600080fd5b80639a2bc19a1461043a578063a036aa471461044d578063a83bf08d1461045a578063b00c0b761461046d57600080fd5b8063524f38891161019d5780635aa6e6751161016c5780635aa6e6751461038857806362354e03146103905780636512bf1d146103ae57806367776a2b146103da5780636c2b111f1461040157600080fd5b8063524f3889146102b45780635267a15d146102e25780635a07ad131461031d5780635a8320881461034957600080fd5b806320c5f99d116101d957806320c5f99d146102735780632ba265ed1461028657806337e4bfc31461028e57806343abc2aa146102a157600080fd5b806301ffc9a71461020b5780630c518dce1461023357806316fc2f6d1461024857806319f6e8071461025d575b600080fd5b61021e610219366004612d18565b6105cd565b60405190151581526020015b60405180910390f35b61023b61061f565b60405161022a9190612d88565b61025b610256366004612d9b565b610685565b005b61026561076d565b60405161022a929190612e0c565b61025b610281366004612d9b565b6108ad565b61025b610a9c565b61025b61029c366004612eb2565b610ac9565b61025b6102af366004612fda565b610c76565b6102c76102c2366004613027565b610cc2565b6040805193845260208401929092529082015260600161022a565b7f714f205b2abd25bef1d06a1af944e38c113fe6160375c4e1d6d5cf28848e7719545b6040516001600160a01b03909116815260200161022a565b60085461033490600160b81b900463ffffffff1681565b60405163ffffffff909116815260200161022a565b6103707f000000000000000000000000000000000000000000000000000000000000000081565b6040516001600160401b03909116815260200161022a565b610305610d9a565b600080516020613c9f833981519152546001600160a01b0316610305565b6103c16103bc366004613027565b610e43565b6040516001600160581b0319909116815260200161022a565b6103707f000000000000000000000000000000000000000000000000000000000000000081565b6104287f000000000000000000000000000000000000000000000000000000000000000081565b60405160ff909116815260200161022a565b61025b610448366004613063565b610e6e565b6008546104289060ff1681565b61025b6104683660046130c2565b610ef8565b61025b61047b36600461321c565b611202565b60085461049390610100900461ffff1681565b60405161ffff909116815260200161022a565b60085461030590630100000090046001600160a01b031681565b6104c86112e1565b60405161022a91906132d4565b61025b6104e3366004613321565b611342565b61021e6104f6366004613362565b6119e2565b610503611a7c565b60405161022a91906133cf565b61025b61051e366004613447565b611bcd565b600080516020613c9f83398151915254600160a81b900460ff1661021e565b6102c7610550366004613027565b611fad565b610568610563366004613027565b612030565b6040805194855260208501939093529183015260ff16606082015260800161022a565b6103707f000000000000000000000000000000000000000000000000000000000000000081565b61025b6120c2565b61025b6105c8366004613063565b612196565b60006001600160e01b031982166301ffc9a760e01b14806105fe57506001600160e01b031982166328ef1e3760e11b145b8061061957506001600160e01b0319821663126d859760e21b145b92915050565b6060600080548060200260200160405190810160405280929190818152602001828054801561067b57602002820191906000526020600020905b815460581b6001600160581b0319168152600190910190602001808311610659575b5050505050905090565b61068d612204565b604051600080516020613c9f833981519152906000906106b090859085906134cc565b60405180910390209050816002016000828152602001908152602001600020546000036107245760405162461bcd60e51b815260206004820152601a60248201527f74696d656c6f636b3a20696e76616c69642073656c6563746f7200000000000060448201526064015b60405180910390fd5b6040518181527f69b058d6225c01c1f2a25801ca5b05705fa2e9118e93d518390ba804398c87b19060200160405180910390a16000908152600290910160205260408120555050565b60608060008054806020026020016040519081016040528092919081815260200182805480156107ca57602002820191906000526020600020905b815460581b6001600160581b03191681526001909101906020018083116107a8575b5050505050915081516001600160401b038111156107ea576107ea612f0e565b604051908082528060200260200182016040528015610813578160200160208202803683370190505b50905060005b82518110156108a85760036000848381518110610838576108386134dc565b60200260200101516affffffffffffffffffffff19166affffffffffffffffffffff1916815260200190815260200160002060000160119054906101000a900460000b82828151811061088d5761088d6134dc565b60009290920b60209283029190910190910152600101610819565b509091565b600080516020613c9f8339815191526108c5336119e2565b6109015760405162461bcd60e51b815260206004820152600d60248201526c37b7363c9032bc32b1baba37b960991b604482015260640161071b565b600083836040516109139291906134cc565b604080519182900390912060008181526002850160205291822054909250908190036109815760405162461bcd60e51b815260206004820152601a60248201527f74696d656c6f636b3a20696e76616c69642073656c6563746f72000000000000604482015260640161071b565b804210156109d15760405162461bcd60e51b815260206004820152601960248201527f74696d656c6f636b3a206e6f7420616c6c6f7765642079657400000000000000604482015260640161071b565b6000828152600284016020526040808220829055845460ff60b01b1916600160b01b178555513090610a0690889088906134cc565b6000604051808303816000865af19150503d8060008114610a43576040519150601f19603f3d011682016040523d82523d6000602084013e610a48565b606091505b5050845460ff60b01b191685556040518481529091507fec1225e5a8a8acb91e03ce648c683c74f5d152a775b9715980999441d714c44f9060200160405180910390a1610a9481612260565b505050505050565b6040516000907f46e3fc5e4e4ccb87b783c134ecaf8dc9e6207f10034ec05f74c24007fcc2e2d1908290a2565b610ad161227d565b15610c6457610ade6122b3565b6101008210610b2f5760405162461bcd60e51b815260206004820152601a60248201527f746f6f206d616e7920747275737465642070726f766964657273000000000000604482015260640161071b565b60ff8116821015610b775760405162461bcd60e51b81526020600482015260126024820152710e8d0e4cae6d0ded8c840e8dede40d0d2ced60731b604482015260640161071b565b6008805460ff191660ff831617905560005b600654811015610be85760006007600060068481548110610bac57610bac6134dc565b6000918252602080832091909101546001600160a01b031683528201929092526040019020805460ff1916911515919091179055600101610b89565b50610bf560068484612c21565b5060005b82811015610c5e57600160076000868685818110610c1957610c196134dc565b9050602002016020810190610c2e9190613362565b6001600160a01b031681526020810191909152604001600020805460ff1916911515919091179055600101610bf9565b50505050565b610c7160003660006122fa565b505050565b6000610c8183612411565b805471ff0000000000000000ff00000000000000001916600160401b60ff9490941693840260ff60881b191617600160881b93909302929092179091555050565b600080600080600185604051610cd891906134f2565b9081526040519081900360200190205460581b90506001600160581b03198116610d145760405162461bcd60e51b815260040161071b9061350e565b6001600160581b031981166000908152600360205260409020805463ffffffff640100000000820481169650610d4a911661247e565b8154909450600160401b9004600090810b90811215610d8c5760009350610d7081613552565b610d7b90600a613652565b610d85908761365e565b9550610d90565b8093505b5050509193909250565b600080516020613c9f833981519152805460009190600160a81b900460ff16610dd05760018101546001600160a01b0316610e3d565b805460408051631cc9492560e21b815290516001600160a01b03909216916373252494916004808201926020929091908290030181865afa158015610e19573d6000803e3d6000fd5b505050506040513d601f19601f82011682018060405250810190610e3d9190613675565b91505090565b6000600182604051610e5591906134f2565b9081526040519081900360200190205460581b92915050565b6000610e7984612411565b9050610e84836124f2565b815463ffffffff919091166401000000000267ffffffff0000000019909116178155610eb8610eb38342613692565b612557565b815460ff600160881b63ffffffff9390931663ffffffff19831681179390930416600160401b0268ff00000000ffffffff19909116909117179055505050565b610f0061227d565b156111ec57610f0d6122b3565b8584148015610f1b57508582145b610f595760405162461bcd60e51b815260206004820152600f60248201526e0d8cadccee8d040dad2e6dac2e8c6d608b1b604482015260640161071b565b6127108161ffff161115610fa45760405162461bcd60e51b81526020600482015260126024820152716d61782073707265616420746f6f2062696760701b604482015260640161071b565b6008805462ffff00191661010061ffff841602179055610fc660008888612c80565b5060005b868110156111e6576000888883818110610fe657610fe66134dc565b9050602002016020810190610ffb91906136bd565b9050806001888885818110611012576110126134dc565b905060200281019061102491906136d8565b6040516110329291906134cc565b908152604051908190036020019020805460589290921c6001600160a81b031990921691909117905586868381811061106d5761106d6134dc565b905060200281019061107f91906136d8565b6001600160581b031983166000908152600260205260409020916110a49190836137a0565b506001600160581b0319811660009081526003602052604090208585848181106110d0576110d06134dc565b90506020020160208101906110e59190613860565b8154600160881b9004600090810b91900b146111dc5785858481811061110d5761110d6134dc565b90506020020160208101906111229190613860565b815471ffffffffffffffffff0000000000000000001916600160881b60ff929092169190910267ffffffffffffffff60481b19161781556008546000906111789063ffffffff600160b81b90910416600161387b565b90505b6111836125ce565b63ffffffff168163ffffffff16116111da576001600160581b03198316600090815260046020908152604080832063ffffffff8516845290915281206111c891612ccd565b806111d28161389f565b91505061117b565b505b5050600101610fca565b506111f9565b6111f960003660006122fa565b50505050505050565b7f714f205b2abd25bef1d06a1af944e38c113fe6160375c4e1d6d5cf28848e7719546001600160a01b0316336001600160a01b03161461127b5760405162461bcd60e51b815260206004820152601460248201527337b7363c9030b2323932b9b9903ab83230ba32b960611b604482015260640161071b565b6112d36112af83836040518060400160405280600e81526020016d20b2323932b9b9aab83230ba32b960911b81525061264a565b7f714f205b2abd25bef1d06a1af944e38c113fe6160375c4e1d6d5cf28848e771955565b6112dd828261271b565b5050565b6060600680548060200260200160405190810160405280929190818152602001828054801561067b57602002820191906000526020600020905b81546001600160a01b0316815260019091019060200180831161131b575050505050905090565b60008054821461138d5760405162461bcd60e51b815260206004820152601660248201527577726f6e67206e756d626572206f662070726f6f667360501b604482015260640161071b565b60005b82811015610c5e57368484838181106113ab576113ab6134dc565b90506020028101906113bd91906138c2565b9050602081016000839003611522576113d960208201826138d8565b60085490945063ffffffff600160b81b90910481169085161161143e5760405162461bcd60e51b815260206004820181905260248201527f286e65776572292070726963657320616c7265616479207075626c6973686564604482015260640161071b565b427f00000000000000000000000000000000000000000000000000000000000000006001600160401b03166114788663ffffffff1661247e565b61148291906138f3565b11156114d05760405162461bcd60e51b815260206004820181905260248201527f7375626d697373696f6e2077696e646f77206e6f7420636c6f73656420796574604482015260640161071b565b6008805463ffffffff60b81b1916600160b81b63ffffffff8716908102919091179091556040517f46e3fc5e4e4ccb87b783c134ecaf8dc9e6207f10034ec05f74c24007fcc2e2d190600090a2611584565b63ffffffff841661153660208301836138d8565b63ffffffff16146115845760405162461bcd60e51b81526020600482015260186024820152770ecdee8d2dcce40e4deeadcc840d2c840dad2e6dac2e8c6d60431b604482015260640161071b565b6000808481548110611598576115986134dc565b6000918252602091829020015460581b91506001600160581b03198216906115c690604085019085016136bd565b6001600160581b031916146116105760405162461bcd60e51b815260206004820152601060248201526f0cccacac840d2c840dad2e6dac2e8c6d60831b604482015260640161071b565b60006116226060840160408501613918565b60030b12156116735760405162461bcd60e51b815260206004820152601a60248201527f76616c7565206d757374206265206e6f6e2d6e65676174697665000000000000604482015260640161071b565b6000826040516020016116869190613933565b60408051808303601f190181529082905280516020909101206008546239436b60e81b835260ff7f000000000000000000000000000000000000000000000000000000000000000016600484015263ffffffff8916602484015290925060009163010000009091046001600160a01b0316906339436b0090604401602060405180830381865afa15801561171e573d6000803e3d6000fd5b505050506040513d601f19601f8201168201806040525081019061174291906139a6565b905061175c818361175388806139bf565b9092909161276d565b61179f5760405162461bcd60e51b81526020600482015260146024820152731b595c9adb19481c1c9bdbd9881a5b9d985b1a5960621b604482015260640161071b565b6001600160581b031983166000908152600360209081526040909120906117c8908601866138d8565b815463ffffffff191663ffffffff919091161781556117ed6060860160408701613918565b815463ffffffff919091166401000000000267ffffffff000000001990911617815561181f60a0860160808701613860565b815460ff91909116600160401b0268ff0000000000000000199091161781556001600160581b03198416600090815260046020908152604080832063ffffffff8c168452909152812080546118739061371e565b80601f016020809104026020016040519081016040528092919081815260200182805461189f9061371e565b80156118ec5780601f106118c1576101008083540402835291602001916118ec565b820191906000526020600020905b8154815290600101906020018083116118cf57829003601f168201915b505050505090506000815111801561191857506008546119109060ff166004613a08565b60ff16815110155b156119cf5760008061192983612785565b91509150801561199957835463ffffffff838116600160681b0263ffffffff60681b19918e16600160481b029190911667ffffffffffffffff60481b1990921691909117178455825161197e90600490613a3a565b845460ff91909116600160901b0260ff60901b199091161784555b6001600160581b03198716600090815260046020908152604080832063ffffffff8f16845290915281206119cc91612ccd565b50505b5050600190950194506113909350505050565b600080516020613c9f833981519152805460009190600160a01b900460ff168015611a7557508054604051630debfda360e41b81526001600160a01b0385811660048301529091169063debfda3090602401602060405180830381865afa158015611a51573d6000803e3d6000fd5b505050506040513d601f19601f82011682018060405250810190611a759190613a4e565b9392505050565b6000546060906001600160401b03811115611a9957611a99612f0e565b604051908082528060200260200182016040528015611acc57816020015b6060815260200190600190039081611ab75790505b50905060005b600054811015611bc95760026000808381548110611af257611af26134dc565b60009182526020808320919091015460581b6001600160581b031916835282019290925260400190208054611b269061371e565b80601f0160208091040260200160405190810160405280929190818152602001828054611b529061371e565b8015611b9f5780601f10611b7457610100808354040283529160200191611b9f565b820191906000526020600020905b815481529060010190602001808311611b8257829003601f168201915b5050505050828281518110611bb657611bb66134dc565b6020908102919091010152600101611ad2565b5090565b3360009081526007602052604090205460ff16611c245760405162461bcd60e51b815260206004820152601560248201527437b7363c903a393ab9ba32b210383937bb34b232b960591b604482015260640161071b565b6000548114611c755760405162461bcd60e51b815260206004820152601b60248201527f616c6c20707269636573206d7573742062652070726f76696465640000000000604482015260640161071b565b6000611c7f6125ce565b90508063ffffffff168463ffffffff1614611cd75760405162461bcd60e51b81526020600482015260186024820152770ecdee8d2dcce40e4deeadcc840d2c840dad2e6dac2e8c6d60431b604482015260640161071b565b6000611ce88263ffffffff1661247e565b90506000611d1f6001600160401b037f000000000000000000000000000000000000000000000000000000000000000016836138f3565b9050814210158015611d3057508042105b611d7c5760405162461bcd60e51b815260206004820152601860248201527f7375626d697373696f6e2077696e646f7720636c6f7365640000000000000000604482015260640161071b565b3360009081526005602052604090205463ffffffff841611611dd45760405162461bcd60e51b8152602060048201526011602482015270185b1c9958591e481cdd589b5a5d1d1959607a1b604482015260640161071b565b33600090815260056020526040812063ffffffff851690555b848110156111f95736868683818110611e0857611e086134dc565b90506060020190506000808381548110611e2457611e246134dc565b6000918252602091829020015460581b91506001600160581b0319821690611e4e908401846136bd565b6001600160581b03191614611e985760405162461bcd60e51b815260206004820152601060248201526f0cccacac840d2c840dad2e6dac2e8c6d60831b604482015260640161071b565b6001600160581b0319811660009081526003602052604080822054600160881b900490910b90611ece9060608501908501613860565b60000b14611f125760405162461bcd60e51b81526020600482015260116024820152700c8cac6d2dac2d8e640dad2e6dac2e8c6d607b1b604482015260640161071b565b6001600160581b03198116600090815260046020908152604080832063ffffffff8a16845282529182902091611f4d919085019085016138d8565b60e01b604051602001611f61929190613a70565b60408051601f198184030181529181526001600160581b0319831660009081526004602090815282822063ffffffff8b16835290522090611fa29082613af7565b505050600101611ded565b600080600080600185604051611fc391906134f2565b9081526040519081900360200190205460581b90506001600160581b03198116611fff5760405162461bcd60e51b815260040161071b9061350e565b6001600160581b03198116600090815260036020526040902061202181612b3d565b91989097509095509350505050565b600080600080600060018660405161204891906134f2565b9081526040519081900360200190205460581b90506001600160581b031981166120845760405162461bcd60e51b815260040161071b9061350e565b6001600160581b0319811660009081526003602052604090206120a681612b3d565b92549199909850919650600160901b900460ff16945092505050565b6120ca612204565b600080516020613c9f8339815191528054600160a81b900460ff16156121325760405162461bcd60e51b815260206004820152601a60248201527f616c726561647920696e2070726f64756374696f6e206d6f6465000000000000604482015260640161071b565b6001810180546001600160a01b03191690558054600160a81b60ff60a81b1982161782556040516001600160a01b0390911681527f83af113638b5422f9e977cebc0aaf0eaf2188eb9a8baae7f9d46c42b33a1560c9060200160405180910390a150565b60006121a184612411565b90506121ac836124f2565b815463ffffffff91909116600160681b0263ffffffff60681b199091161781556121d9610eb38342613692565b815463ffffffff91909116600160481b026cffffffff00000000000000000019909116179055505050565b61220c610d9a565b6001600160a01b0316336001600160a01b03161461225e5760405162461bcd60e51b815260206004820152600f60248201526e6f6e6c7920676f7665726e616e636560881b604482015260640161071b565b565b3d604051818101604052816000823e8215612279578181f35b8181fd5b600080516020613c9f833981519152805460009190600160b01b900460ff1680610e3d575054600160a81b900460ff1615919050565b600080516020613c9f8339815191528054600160b01b900460ff16156122ef573330146122e2576122e2613bb6565b805460ff60b01b19169055565b6122f7612204565b50565b600080516020613c9f833981519152612311612204565b600084846040516123239291906134cc565b604080519182900382208454636221a54b60e01b845291519093506000926001600160a01b0390921691636221a54b9160048083019260209291908290030181865afa158015612377573d6000803e3d6000fd5b505050506040513d601f19601f8201168201806040525081019061239b91906139a6565b9050838110156123a85750825b60006123b482426138f3565b600084815260028601602052604090819020829055519091507f8c02104dfc280f713854f25297de671710c544c58de69dbde8fb66974ce1ab9e90612400908990899087908690613bcc565b60405180910390a150505050505050565b60008060018360405161242491906134f2565b9081526040519081900360200190205460581b90506001600160581b031981166124605760405162461bcd60e51b815260040161071b9061350e565b6001600160581b031916600090815260036020526040902092915050565b60006001600160401b037f0000000000000000000000000000000000000000000000000000000000000000166124b58360016138f3565b6124bf919061365e565b610619906001600160401b037f0000000000000000000000000000000000000000000000000000000000000000166138f3565b600063ffffffff821115611bc95760405162461bcd60e51b815260206004820152602660248201527f53616665436173743a2076616c756520646f65736e27742066697420696e203360448201526532206269747360d01b606482015260840161071b565b6000807f00000000000000000000000000000000000000000000000000000000000000006001600160401b03167f00000000000000000000000000000000000000000000000000000000000000006001600160401b0316846125b99190613692565b6125c39190613a3a565b9050611a75816124f2565b600060017f00000000000000000000000000000000000000000000000000000000000000006001600160401b03167f00000000000000000000000000000000000000000000000000000000000000006001600160401b0316426126319190613692565b61263b9190613a3a565b6126459190613c0c565b905090565b6000808260405160200161265e9190613c29565b6040516020818303038152906040528051906020012090506000805b86518110156126cc57868181518110612695576126956134dc565b602002602001015183036126c4578581815181106126b5576126b56134dc565b602002602001015191506126cc565b60010161267a565b506001600160a01b0381166127125760405162461bcd60e51b815260206004820152600c60248201526b61646472657373207a65726f60a01b604482015260640161071b565b95945050505050565b61274382826040518060400160405280600581526020016452656c617960d81b81525061264a565b600860036101000a8154816001600160a01b0302191690836001600160a01b031602179055505050565b60008261277b868685612bb3565b1495945050505050565b8051600090819080158015906127a357506127a1600482613c3c565b155b6127af576127af613bb6565b6127ba600482613a3a565b90506000816001600160401b038111156127d6576127d6612f0e565b6040519080825280602002602001820160405280156127ff578160200160208202803683370190505b50905060005b828110156128d65760408051600480825281830190925260009160208201818036833701905050905060005b600481101561289d57878161284785600461365e565b61285191906138f3565b81518110612861576128616134dc565b602001015160f81c60f81b82828151811061287e5761287e6134dc565b60200101906001600160f81b031916908160001a905350600101612831565b506128a781613c50565b60e01c63ffffffff168383815181106128c2576128c26134dc565b602090810291909101015250600101612805565b5060015b828110156129b85760008282815181106128f6576128f66134dc565b6020026020010151905060008290505b6000811180156129385750818461291e600184613692565b8151811061292e5761292e6134dc565b6020026020010151115b156129905783612949600183613692565b81518110612959576129596134dc565b6020026020010151848281518110612973576129736134dc565b60209081029190910101528061298881613c87565b915050612906565b818482815181106129a3576129a36134dc565b602090810291909101015250506001016128da565b506000806129c7600285613a3a565b90506129d4600285613c3c565b600103612a67578281815181106129ed576129ed6134dc565b6020026020010151955060038410612a6257600283612a0d600184613692565b81518110612a1d57612a1d6134dc565b602002602001015184836001612a3391906138f3565b81518110612a4357612a436134dc565b6020026020010151612a559190613692565b612a5f9190613a3a565b91505b612b0a565b6002838281518110612a7b57612a7b6134dc565b602002602001015184600184612a919190613692565b81518110612aa157612aa16134dc565b6020026020010151612ab391906138f3565b612abd9190613a3a565b955082612acb600183613692565b81518110612adb57612adb6134dc565b6020026020010151838281518110612af557612af56134dc565b6020026020010151612b079190613692565b91505b60085461271090612b25908890610100900461ffff1661365e565b612b2f9190613a3a565b821115945050505050915091565b805463ffffffff600160681b82048116916000918291612b6591600160481b9091041661247e565b8454909250600160881b9004600090810b90811215612ba75760009150612b8b81613552565b612b9690600a613652565b612ba0908561365e565b9350612bab565b8091505b509193909250565b600081815b84811015612bec57612be282878784818110612bd657612bd66134dc565b90506020020135612bf5565b9150600101612bb8565b50949350505050565b6000818310612c11576000828152602084905260409020611a75565b5060009182526020526040902090565b828054828255906000526020600020908101928215612c74579160200282015b82811115612c745781546001600160a01b0319166001600160a01b03843516178255602090920191600190910190612c41565b50611bc9929150612d03565b828054828255906000526020600020908101928215612c74579160200282015b82811115612c745781546001600160a81b031916833560581c178255602090920191600190910190612ca0565b508054612cd99061371e565b6000825580601f10612ce9575050565b601f0160209004906000526020600020908101906122f791905b5b80821115611bc95760008155600101612d04565b600060208284031215612d2a57600080fd5b81356001600160e01b031981168114611a7557600080fd5b60008151808452602080850194506020840160005b83811015612d7d5781516001600160581b03191687529582019590820190600101612d57565b509495945050505050565b602081526000611a756020830184612d42565b60008060208385031215612dae57600080fd5b82356001600160401b0380821115612dc557600080fd5b818501915085601f830112612dd957600080fd5b813581811115612de857600080fd5b866020828501011115612dfa57600080fd5b60209290920196919550909350505050565b604081526000612e1f6040830185612d42565b8281036020848101919091528451808352858201928201906000805b82811015612e59578551820b84529484019492840192600101612e3b565b509198975050505050505050565b60008083601f840112612e7957600080fd5b5081356001600160401b03811115612e9057600080fd5b6020830191508360208260051b8501011115612eab57600080fd5b9250929050565b600080600060408486031215612ec757600080fd5b83356001600160401b03811115612edd57600080fd5b612ee986828701612e67565b909450925050602084013560ff81168114612f0357600080fd5b809150509250925092565b634e487b7160e01b600052604160045260246000fd5b604051601f8201601f191681016001600160401b0381118282101715612f4c57612f4c612f0e565b604052919050565b600082601f830112612f6557600080fd5b81356001600160401b03811115612f7e57612f7e612f0e565b612f91601f8201601f1916602001612f24565b818152846020838601011115612fa657600080fd5b816020850160208301376000918101602001919091529392505050565b8035600081900b8114612fd557600080fd5b919050565b60008060408385031215612fed57600080fd5b82356001600160401b0381111561300357600080fd5b61300f85828601612f54565b92505061301e60208401612fc3565b90509250929050565b60006020828403121561303957600080fd5b81356001600160401b0381111561304f57600080fd5b61305b84828501612f54565b949350505050565b60008060006060848603121561307857600080fd5b83356001600160401b0381111561308e57600080fd5b61309a86828701612f54565b9660208601359650604090950135949350505050565b803561ffff81168114612fd557600080fd5b60008060008060008060006080888a0312156130dd57600080fd5b87356001600160401b03808211156130f457600080fd5b6131008b838c01612e67565b909950975060208a013591508082111561311957600080fd5b6131258b838c01612e67565b909750955060408a013591508082111561313e57600080fd5b5061314b8a828b01612e67565b909450925061315e9050606089016130b0565b905092959891949750929550565b60006001600160401b0382111561318557613185612f0e565b5060051b60200190565b6001600160a01b03811681146122f757600080fd5b600082601f8301126131b557600080fd5b813560206131ca6131c58361316c565b612f24565b8083825260208201915060208460051b8701019350868411156131ec57600080fd5b602086015b848110156132115780356132048161318f565b83529183019183016131f1565b509695505050505050565b6000806040838503121561322f57600080fd5b82356001600160401b038082111561324657600080fd5b818501915085601f83011261325a57600080fd5b8135602061326a6131c58361316c565b82815260059290921b8401810191818101908984111561328957600080fd5b948201945b838610156132a75785358252948201949082019061328e565b965050860135925050808211156132bd57600080fd5b506132ca858286016131a4565b9150509250929050565b6020808252825182820181905260009190848201906040850190845b818110156133155783516001600160a01b0316835292840192918401916001016132f0565b50909695505050505050565b6000806020838503121561333457600080fd5b82356001600160401b0381111561334a57600080fd5b61335685828601612e67565b90969095509350505050565b60006020828403121561337457600080fd5b8135611a758161318f565b60005b8381101561339a578181015183820152602001613382565b50506000910152565b600081518084526133bb81602086016020860161337f565b601f01601f19169290920160200192915050565b600060208083016020845280855180835260408601915060408160051b87010192506020870160005b8281101561342657603f198886030184526134148583516133a3565b945092850192908501906001016133f8565b5092979650505050505050565b803563ffffffff81168114612fd557600080fd5b60008060006040848603121561345c57600080fd5b61346584613433565b925060208401356001600160401b038082111561348157600080fd5b818601915086601f83011261349557600080fd5b8135818111156134a457600080fd5b8760206060830285010111156134b957600080fd5b6020830194508093505050509250925092565b8183823760009101908152919050565b634e487b7160e01b600052603260045260246000fd5b6000825161350481846020870161337f565b9190910192915050565b6020808252601490820152731cde5b589bdb081b9bdd081cdd5c1c1bdc9d195960621b604082015260600190565b634e487b7160e01b600052601160045260246000fd5b6000600160ff1b82016135675761356761353c565b5060000390565b600181815b808511156135a957816000190482111561358f5761358f61353c565b8085161561359c57918102915b93841c9390800290613573565b509250929050565b6000826135c057506001610619565b816135cd57506000610619565b81600181146135e357600281146135ed57613609565b6001915050610619565b60ff8411156135fe576135fe61353c565b50506001821b610619565b5060208310610133831016604e8410600b841016171561362c575081810a610619565b613636838361356e565b806000190482111561364a5761364a61353c565b029392505050565b6000611a7583836135b1565b80820281158282048414176106195761061961353c565b60006020828403121561368757600080fd5b8151611a758161318f565b818103818111156106195761061961353c565b80356001600160581b031981168114612fd557600080fd5b6000602082840312156136cf57600080fd5b611a75826136a5565b6000808335601e198436030181126136ef57600080fd5b8301803591506001600160401b0382111561370957600080fd5b602001915036819003821315612eab57600080fd5b600181811c9082168061373257607f821691505b60208210810361375257634e487b7160e01b600052602260045260246000fd5b50919050565b601f821115610c71576000816000526020600020601f850160051c810160208610156137815750805b601f850160051c820191505b81811015610a945782815560010161378d565b6001600160401b038311156137b7576137b7612f0e565b6137cb836137c5835461371e565b83613758565b6000601f8411600181146137ff57600085156137e75750838201355b600019600387901b1c1916600186901b178355613859565b600083815260209020601f19861690835b828110156138305786850135825560209485019460019092019101613810565b508682101561384d5760001960f88860031b161c19848701351681555b505060018560011b0183555b5050505050565b60006020828403121561387257600080fd5b611a7582612fc3565b63ffffffff8181168382160190808211156138985761389861353c565b5092915050565b600063ffffffff8083168181036138b8576138b861353c565b6001019392505050565b6000823560be1983360301811261350457600080fd5b6000602082840312156138ea57600080fd5b611a7582613433565b808201808211156106195761061961353c565b8035600381900b8114612fd557600080fd5b60006020828403121561392a57600080fd5b611a7582613906565b60a0810163ffffffff61394584613433565b1682526001600160581b031961395d602085016136a5565b16602083015261396f60408401613906565b60030b604083015261ffff613986606085016130b0565b16606083015261399860808401612fc3565b60000b608083015292915050565b6000602082840312156139b857600080fd5b5051919050565b6000808335601e198436030181126139d657600080fd5b8301803591506001600160401b038211156139f057600080fd5b6020019150600581901b3603821315612eab57600080fd5b60ff81811683821602908116908181146138985761389861353c565b634e487b7160e01b600052601260045260246000fd5b600082613a4957613a49613a24565b500490565b600060208284031215613a6057600080fd5b81518015158114611a7557600080fd5b6000808454613a7e8161371e565b60018281168015613a965760018114613aab57613ada565b60ff1984168752821515830287019450613ada565b8860005260208060002060005b85811015613ad15781548a820152908401908201613ab8565b50505082870194505b505050506001600160e01b03199390931683525050600401919050565b81516001600160401b03811115613b1057613b10612f0e565b613b2481613b1e845461371e565b84613758565b602080601f831160018114613b595760008415613b415750858301515b600019600386901b1c1916600185901b178555610a94565b600085815260208120601f198616915b82811015613b8857888601518255948401946001909101908401613b69565b5085821015613ba65787850151600019600388901b60f8161c191681555b5050505050600190811b01905550565b634e487b7160e01b600052600160045260246000fd5b606081528360608201528385608083013760006080858301015260006080601f19601f870116830101905083602083015282604083015295945050505050565b63ffffffff8281168282160390808211156138985761389861353c565b602081526000611a7560208301846133a3565b600082613c4b57613c4b613a24565b500690565b805160208201516001600160e01b03198082169291906004831015613c7f5780818460040360031b1b83161693505b505050919050565b600081613c9657613c9661353c565b50600019019056fe2aa47ee5db910f3b2a06970c443249cc77dbd9f96100cfebc1775ab7fb1d1824a26469706673582212209e7e093784fa783720a11aab4cef018b13d919e75e72a37c7875a8dd05a9074764736f6c63430008170033",
  "linkReferences": {},
  "deployedLinkReferences": {}
}