{
  "_format": "hh-sol-artifact-1",
  "contractName": "AgentCollateralFacet",
  "sourceName": "contracts/assetManager/facets/AgentCollateralFacet.sol",
  "abi": [
    {
      "inputs": [],
      "name": "CollateralDeprecated",
      "type": "error"
    },
    {
      "inputs": [],
      "name": "CollateralNotDeprecated",
      "type": "error"
    },
    {
      "inputs": [],
      "name": "CollateralWithdrawalAnnounced",
      "type": "error"
    },
    {
      "inputs": [],
      "name": "DivisionByZero",
      "type": "error"
    },
    {
      "inputs": [],
      "name": "EmergencyPauseActive",
      "type": "error"
    },
    {
      "inputs": [],
      "name": "FAssetNotTerminated",
      "type": "error"
    },
    {
      "inputs": [],
      "name": "InvalidAgentVaultAddress",
      "type": "error"
    },
    {
      "inputs": [],
      "name": "NotAttached",
      "type": "error"
    },
    {
      "inputs": [],
      "name": "NotEnoughCollateral",
      "type": "error"
    },
    {
      "inputs": [],
      "name": "NotWhitelisted",
      "type": "error"
    },
    {
      "inputs": [],
      "name": "OnlyAgentVaultOrPool",
      "type": "error"
    },
    {
      "inputs": [],
      "name": "OnlyAgentVaultOwner",
      "type": "error"
    },
    {
      "inputs": [],
      "name": "OnlyAssetManagerController",
      "type": "error"
    },
    {
      "inputs": [],
      "name": "UnknownToken",
      "type": "error"
    },
    {
      "inputs": [],
      "name": "WithdrawalCRTooLow",
      "type": "error"
    },
    {
      "inputs": [],
      "name": "WithdrawalInvalidAgentStatus",
      "type": "error"
    },
    {
      "inputs": [],
      "name": "WithdrawalMoreThanAnnounced",
      "type": "error"
    },
    {
      "inputs": [],
      "name": "WithdrawalNotAllowedYet",
      "type": "error"
    },
    {
      "inputs": [],
      "name": "WithdrawalNotAnnounced",
      "type": "error"
    },
    {
      "inputs": [],
      "name": "WithdrawalTooLate",
      "type": "error"
    },
    {
      "inputs": [],
      "name": "WithdrawalValueTooHigh",
      "type": "error"
    },
    {
      "anonymous": false,
      "inputs": [
        {
          "indexed": true,
          "internalType": "address",
          "name": "agentVault",
          "type": "address"
        },
        {
          "indexed": false,
          "internalType": "uint8",
          "name": "collateralClass",
          "type": "uint8"
        },
        {
          "indexed": false,
          "internalType": "address",
          "name": "token",
          "type": "address"
        }
      ],
      "name": "AgentCollateralTypeChanged",
      "type": "event"
    },
    {
      "anonymous": false,
      "inputs": [
        {
          "indexed": true,
          "internalType": "address",
          "name": "agentVault",
          "type": "address"
        }
      ],
      "name": "LiquidationEnded",
      "type": "event"
    },
    {
      "anonymous": false,
      "inputs": [
        {
          "indexed": true,
          "internalType": "address",
          "name": "agentVault",
          "type": "address"
        },
        {
          "indexed": false,
          "internalType": "uint256",
          "name": "amountWei",
          "type": "uint256"
        },
        {
          "indexed": false,
          "internalType": "uint256",
          "name": "withdrawalAllowedAt",
          "type": "uint256"
        }
      ],
      "name": "PoolTokenRedemptionAnnounced",
      "type": "event"
    },
    {
      "anonymous": false,
      "inputs": [
        {
          "indexed": true,
          "internalType": "address",
          "name": "agentVault",
          "type": "address"
        },
        {
          "indexed": false,
          "internalType": "uint256",
          "name": "amountWei",
          "type": "uint256"
        },
        {
          "indexed": false,
          "internalType": "uint256",
          "name": "withdrawalAllowedAt",
          "type": "uint256"
        }
      ],
      "name": "VaultCollateralWithdrawalAnnounced",
      "type": "event"
    },
    {
      "inputs": [
        {
          "internalType": "address",
          "name": "_agentVault",
          "type": "address"
        },
        {
          "internalType": "uint256",
          "name": "_valueNATWei",
          "type": "uint256"
        }
      ],
      "name": "announceAgentPoolTokenRedemption",
      "outputs": [
        {
          "internalType": "uint256",
          "name": "_redemptionAllowedAt",
          "type": "uint256"
        }
      ],
      "stateMutability": "nonpayable",
      "type": "function"
    },
    {
      "inputs": [
        {
          "internalType": "address",
          "name": "_agentVault",
          "type": "address"
        },
        {
          "internalType": "uint256",
          "name": "_valueNATWei",
          "type": "uint256"
        }
      ],
      "name": "announceVaultCollateralWithdrawal",
      "outputs": [
        {
          "internalType": "uint256",
          "name": "_withdrawalAllowedAt",
          "type": "uint256"
        }
      ],
      "stateMutability": "nonpayable",
      "type": "function"
    },
    {
      "inputs": [
        {
          "internalType": "contract IERC20",
          "name": "_token",
          "type": "address"
        },
        {
          "internalType": "uint256",
          "name": "_amountWei",
          "type": "uint256"
        }
      ],
      "name": "beforeCollateralWithdrawal",
      "outputs": [],
      "stateMutability": "nonpayable",
      "type": "function"
    },
    {
      "inputs": [
        {
          "internalType": "address",
          "name": "_agentVault",
          "type": "address"
        },
        {
          "internalType": "contract IERC20",
          "name": "_token",
          "type": "address"
        }
      ],
      "name": "switchVaultCollateral",
      "outputs": [],
      "stateMutability": "nonpayable",
      "type": "function"
    },
    {
      "inputs": [
        {
          "internalType": "address",
          "name": "_agentVault",
          "type": "address"
        },
        {
          "internalType": "contract IERC20",
          "name": "_token",
          "type": "address"
        }
      ],
      "name": "updateCollateral",
      "outputs": [],
      "stateMutability": "nonpayable",
      "type": "function"
    },
    {
      "inputs": [
        {
          "internalType": "address",
          "name": "_agentVault",
          "type": "address"
        }
      ],
      "name": "upgradeWNatContract",
      "outputs": [],
      "stateMutability": "nonpayable",
      "type": "function"
    }
  ],
  "bytecode": "0x6080604052348015600f57600080fd5b506125f48061001f6000396000f3fe608060405234801561001057600080fd5b50600436106100625760003560e01c806329ff1308146100675780632dabf2d01461007c578063469052ad146100a15780637a2cf412146100b4578063d9d71463146100c7578063f4d000b2146100da575b600080fd5b61007a61007536600461220b565b6100ed565b005b61008f61008a366004612244565b610154565b60405190815260200160405180910390f35b61007a6100af366004612244565b610174565b61007a6100c236600461220b565b610447565b61008f6100d5366004612244565b610535565b61007a6100e8366004612270565b61054d565b60006100f8836106c2565b9050336001600160a01b038416148061011a575080546001600160a01b031633145b610137576040516331f414a960e11b815260040160405180910390fd5b610141818361074b565b1561014f5761014f81610797565b505050565b6000826101608161088e565b61016c600285856108c0565b949350505050565b600061017f336106c2565b9050600061018c82610b20565b6001600160a01b0316846001600160a01b0316036101ac5750600061023f565b8154604080516332f7ce0b60e21b815290516001600160a01b039092169163cbdf382c916004808201926020929091908290030181865afa1580156101f5573d6000803e3d6000fd5b505050506040513d601f19601f82011682018060405250810190610219919061228d565b6001600160a01b0316846001600160a01b0316036102395750600261023f565b50505050565b600061024b8383610b78565b905060006102598484610bc5565b90506001600485015460ff166005811115610276576102766122aa565b1480610291575061028684610c47565b6001600160401b0316155b6102ae57604051630efb15e960e41b815260040160405180910390fd5b8154600160801b90046001600160401b03166000036102e057604051633be7298360e21b815260040160405180910390fd5b81546001600160801b031685111561030b57604051631c20fbb560e11b815260040160405180910390fd5b8154600160801b90046001600160401b031642101561033d576040516357c9104b60e11b815260040160405180910390fd5b7f4f24f5c433db0962dac0d2c8b84197a6e6c7cc4e5d9ebe1916a1b6193da2f34d54825460008051602061255f8339815191529161039691600160c01b9091046001600160401b0390811691600160801b9004166122d6565b6001600160401b03164211156103bf576040516375da9bff60e01b815260040160405180910390fd5b60208201516103ce8387610cad565b11156103ed57604051632e3676c560e11b815260040160405180910390fd5b82546000906104069088906001600160801b03166122f5565b84546001600160801b0319166001600160801b0382161785559050600081900361043d57835467ffffffffffffffff60801b191684555b5050505050505050565b816104518161088e565b600061045c846106c2565b9050600061046982610ddd565b8054909150600160b01b90046001600160401b031660000361049e57604051633ea7966b60e11b815260040160405180910390fd5b60006104aa8382610b78565b8054909150600160801b90046001600160401b0316156104dd576040516375d5a32560e01b815260040160405180910390fd5b6104e78386610e2a565b60408051600281526001600160a01b0387811660208301528816917f88b6ac79ad99776ae32e236db624ff70afc6aedfaa56430d9924c5165ceadef6910160405180910390a2505050505050565b6000826105418161088e565b61016c600085856108c0565b806105578161088e565b6000610562836106c2565b7fec7e8c1c441439dd40959777f4c577ea0cd42fcc1dbe59d2bd0f5d9c55df8dc55460008051602061259f833981519152805492935091600091839161ffff9091169081106105b3576105b3612308565b6000918252602090912060049182020154600f840154918501546001600160a01b0390911692506301000000900461ffff9081169116146106bb57600f8201546004848101805464ffff000000191661ffff909316630100000002929092179091558354604051637a68005960e11b81526001600160a01b038481169382019390935291169063f4d000b290602401600060405180830381600087803b15801561065c57600080fd5b505af1158015610670573d6000803e3d6000fd5b505060408051600181526001600160a01b038581166020830152891693507f88b6ac79ad99776ae32e236db624ff70afc6aedfaa56430d9924c5165ceadef692500160405180910390a25b5050505050565b604081901b68010000000000000000600160e01b031660008051602061257f8339815191521860048101546000919060ff1682816005811115610707576107076122aa565b1415801561072757506005816005811115610724576107246122aa565b14155b6107445760405163d68a46c560e01b815260040160405180910390fd5b5092915050565b600061075683610f43565b6001600160a01b0316826001600160a01b0316148061078e575061077983610b20565b6001600160a01b0316826001600160a01b0316145b90505b92915050565b6002600482015460ff1660058111156107b2576107b26122aa565b146107ba5750565b60006107c582610f7c565b905060006107d283610ff0565b905060006107e2848360006110cb565b905060006107f2858460016110cb565b90508184600001511015801561080c575080846020015110155b156106bb576004850180547fff00000000000000000000ffffffffffffffffffffffffffffffffffffffff0016600117905560008051602061257f833981519152851860401c6001600160a01b03167fe513b42585b0ceec0d56d56fe3a23861c15a2f74eb4c32c94334d63d68ff4dcf60405160405180910390a25050505050565b6108a061089a826106c2565b3361112f565b6108bd5760405163f6e2f99b60e01b815260040160405180910390fd5b50565b6000806108cc846106c2565b90506001600482015460ff1660058111156108e9576108e96122aa565b148061090457506108f981610c47565b6001600160401b0316155b61092157604051630efb15e960e41b815260040160405180910390fd5b600061092d8287610b78565b80549091506001600160801b03168411156109fc5760008051602061255f833981519152600061095d8489610bc5565b8354909150600090610978906001600160801b0316886122f5565b90506109848286611154565b8111156109a457604051630d97900360e01b815260040160405180910390fd5b60108301546109cc906109c790600160801b90046001600160401b03164261231e565b611171565b84546001600160401b0391909116600160801b0267ffffffffffffffff60801b1990911617845550610a17915050565b83600003610a1757805467ffffffffffffffff60801b191681555b610a20846111e2565b81546001600160801b0319166001600160801b03919091161781556000866002811115610a4f57610a4f6122aa565b03610aae57805460408051868152600160801b9092046001600160401b031660208301526001600160a01b038716917f67212b72b610c952a34bdd8a6e005684df8b1a31e96ba45ae1dbfb926e5447fa910160405180910390a2610b04565b805460408051868152600160801b9092046001600160401b031660208301526001600160a01b038716917fd8af9ece0435675178bfc0aba18c040e3bd5ad88eabd3d313cd0b469a8e1d06b910160405180910390a25b54600160801b90046001600160401b03169150505b9392505050565b60008060008051602061259f83398151915260048401548154919250829161010090910461ffff16908110610b5757610b57612308565b60009182526020909120600490910201546001600160a01b03169392505050565b60006001826002811115610b8e57610b8e6122aa565b03610b9b57610b9b612331565b6000826002811115610baf57610baf6122aa565b14610bbd578260090161078e565b505060080190565b610bea6040805160608101909152806000815260200160008152602001600081525090565b6000826002811115610bfe57610bfe6122aa565b03610c1357610c0c8361124b565b9050610791565b6001826002811115610c2757610c276122aa565b03610c3557610c0c83611337565b610c0c83610c4285611337565b6113c2565b60058101546000906001600160401b03600160801b82048116600160c01b909204161115610c7757610c77612331565b60058201546001600160401b03600160801b8204811691610ca39180821691600160401b9004166122d6565b61079191906122d6565b6000806000610cc084866000015161159c565b60058601549193509150600090610ce9906001600160401b03600160401b82048116911661231e565b90506000610d0584610cff848a60400151611678565b90611692565b90506000600188516002811115610d1e57610d1e6122aa565b14610d3d576005870154600160801b90046001600160401b0316610d53565b6005870154600160c01b90046001600160401b03165b90506000610d7285610cff846001600160401b03168c60400151611678565b9050600060018a516002811115610d8b57610d8b6122aa565b03610d97576000610daf565b8951610da4908a90610b78565b546001600160801b03165b6001600160801b0316905080610dc5838661231e565b610dcf919061231e565b9a9950505050505050505050565b60008060008051602061259f83398151915260048401548154919250829161010090910461ffff16908110610e1457610e14612308565b9060005260206000209060040201915050919050565b60008051602061259f8339815191526000610e466002846116a1565b90506000826000018281548110610e5f57610e5f612308565b60009182526020909120600490910201905060028154600160a01b900460ff166002811115610e9057610e906122aa565b14610e9d57610e9d612331565b8054600160b01b90046001600160401b031615610ecd57604051636b73c3bd60e01b815260040160405180910390fd5b610ed68261171c565b8560040160016101000a81548161ffff021916908361ffff1602179055506000610eff8661124b565b90506000610f0d828861177f565b600384015490915063ffffffff16811015610f3a5760405162d11df360e61b815260040160405180910390fd5b50505050505050565b60008060008051602061259f833981519152600484015481549192508291630100000090910461ffff16908110610b5757610b57612308565b610fa76040518060800160405280600081526020016000815260200160008152602001600081525090565b600080610fb584600061184a565b91509150600080610fc786600161184a565b604080516080810182529687526020870192909252908501939093525050606082015292915050565b600481015460009060008051602061255f8339815191529060ff16600281600581111561101f5761101f6122aa565b0361109e57600060016004860154600160e81b900460ff166002811115611048576110486122aa565b148015611084575060118301546004860154611077916001600160401b0390811691600160a81b9004166122d6565b6001600160401b03164211155b905080611092576002611095565b60015b95945050505050565b60038160058111156110b2576110b26122aa565b036110c1575060029392505050565b5060009392505050565b6000806110d88584611898565b905060018460028111156110ee576110ee6122aa565b148061110157506110ff858461193d565b155b15611117576003015463ffffffff169050610b19565b60030154600160401b900463ffffffff169050610b19565b60018201546000906001600160a01b038381169116148061078e5750610779836119a6565b6000806111618484610cad565b905061016c846020015182611a48565b60006001600160401b038211156111de5760405162461bcd60e51b815260206004820152602660248201527f53616665436173743a2076616c756520646f65736e27742066697420696e203660448201526534206269747360d01b60648201526084015b60405180910390fd5b5090565b60006001600160801b038211156111de5760405162461bcd60e51b815260206004820152602760248201527f53616665436173743a2076616c756520646f65736e27742066697420696e20316044820152663238206269747360c81b60648201526084016111d5565b6112706040805160608101909152806000815260200160008152602001600081525090565b600061127b83610ddd565b6040805160608101909152909150806000815282546020909101906001600160a01b03166370a0823160008051602061257f833981519152871860401c6040516001600160e01b031960e084901b1681526001600160a01b039091166004820152602401602060405180830381865afa1580156112fc573d6000803e3d6000fd5b505050506040513d601f19601f820116820180604052508101906113209190612347565b815260200161132e83611a62565b90529392505050565b61135c6040805160608101909152806000815260200160008152602001600081525090565b600061136783611a78565b604080516060810182526001815285548251634ac8eb5f60e01b8152925193945090926020808501936001600160a01b0390931692634ac8eb5f92600480830193928290030181865afa1580156112fc573d6000803e3d6000fd5b6113e76040805160608101909152806000815260200160008152602001600081525090565b8254604080516332f7ce0b60e21b815290516000926001600160a01b03169163cbdf382c9160048083019260209291908290030181865afa158015611430573d6000803e3d6000fd5b505050506040513d601f19601f82011682018060405250810190611454919061228d565b905060006001600160a01b0382166370a0823160008051602061257f833981519152871860401c6040516001600160e01b031960e084901b1681526001600160a01b039091166004820152602401602060405180830381865afa1580156114bf573d6000803e3d6000fd5b505050506040513d601f19601f820116820180604052508101906114e39190612347565b90506000826001600160a01b03166318160ddd6040518163ffffffff1660e01b8152600401602060405180830381865afa158015611525573d6000803e3d6000fd5b505050506040513d601f19601f820116820180604052508101906115499190612347565b905060008560200151600003611563578560400151611578565b60208601516040870151611578918490611ab1565b60408051606081018252600281526020810195909552840152509095945050505050565b60008060028360028111156115b3576115b36122aa565b036115f05750507f4f24f5c433db0962dac0d2c8b84197a6e6c7cc4e5d9ebe1916a1b6193da2f34654640100000000900463ffffffff1680611671565b6001836002811115611604576116046122aa565b0361163f5761161284611a78565b60030154600485015463ffffffff918216925061163891600160881b9091041682611bb5565b9150611671565b61164884610ddd565b60030154600485015463ffffffff918216925061166e91600160681b9091041682611bb5565b91505b9250929050565b600061078e8261168a6009600a612447565b859190611ab1565b600061078e8383612710611ab1565b600060008051602061259f833981519152817fec7e8c1c441439dd40959777f4c577ea0cd42fcc1dbe59d2bd0f5d9c55df8db7816116df8787611bcb565b81526020019081526020016000205490506000811161171157604051638698bf3760e01b815260040160405180910390fd5b6110956001826122f5565b600061ffff8211156111de5760405162461bcd60e51b815260206004820152602660248201527f53616665436173743a2076616c756520646f65736e27742066697420696e203160448201526536206269747360d01b60648201526084016111d5565b600080600184516002811115611797576117976122aa565b146117b6576005830154600160801b90046001600160401b03166117cc565b6005830154600160c01b90046001600160401b03165b60058401546001600160401b03918216925060009183916117f89181811691600160401b90041661231e565b611802919061231e565b90506000611814828760400151611678565b90508060000361182e576402540be4009350505050610791565b60208601516118409061271083611ab1565b9695505050505050565b60008060008061185a8686611bf5565b91509150600061186a838861177f565b90506000611878838961177f565b90508360400151945061188b8282611bb5565b9550505050509250929050565b600060028260028111156118ae576118ae6122aa565b036118bb576118bb612331565b60008051602061259f83398151915260008360028111156118de576118de6122aa565b0361191a57600484015481548291610100900461ffff1690811061190457611904612308565b9060005260206000209060040201915050610791565b6004840154815482916301000000900461ffff1690811061190457611904612308565b600080826002811115611952576119526122aa565b0361196e57506004820154600160f01b90046001161515610791565b6001826002811115611982576119826122aa565b1461198f5761198f612331565b506004820154600160f01b90046002161515610791565b60006119d97f4f24f5c433db0962dac0d2c8b84197a6e6c7cc4e5d9ebe1916a1b6193da2f341546001600160a01b031690565b6001830154604051631f86345d60e31b81526001600160a01b03918216600482015291169063fc31a2e890602401602060405180830381865afa158015611a24573d6000803e3d6000fd5b505050506040513d601f19601f82011682018060405250810190610791919061228d565b6000818311611a5857600061078e565b61078e82846122f5565b6000611a6f826000611cd3565b50909392505050565b60008060008051602061259f833981519152600484015481549192508291630100000090910461ffff16908110610e1457610e14612308565b6000808211611ad3576040516323d359a360e01b815260040160405180910390fd5b83600003611ae357506000610b19565b83830283858281611af657611af6612453565b0403611b1457828181611b0b57611b0b612453565b04915050610b19565b506000611b218386612469565b90506000611b2f848761247d565b90506000611b3d8587612469565b90506000611b4b868861247d565b905085611b588285612491565b611b629190612469565b611b6c8385612491565b611b768387612491565b88611b818689612491565b611b8b9190612491565b611b95919061231e565b611b9f919061231e565b611ba9919061231e565b98975050505050505050565b6000818311611bc4578161078e565b5090919050565b6000816001600160a01b031660a0846002811115611beb57611beb6122aa565b901b179392505050565b611c1a6040805160608101909152806000815260200160008152602001600081525090565b611c3f6040805160608101909152806000815260200160008152602001600081525090565b6000611c4b8585611898565b90506000611c5a868684611e92565b9050600080611c6884611f9e565b915091506040518060600160405280886002811115611c8957611c896122aa565b81526020018481526020018381525095506040518060600160405280886002811115611cb757611cb76122aa565b8152602001848152602001828152509450505050509250929050565b600080600080600080611d72886001018054611cee906124a8565b80601f0160208091040260200160405190810160405280929190818152602001828054611d1a906124a8565b8015611d675780601f10611d3c57610100808354040283529160200191611d67565b820191906000526020600020905b815481529060010190602001808311611d4a57829003601f168201915b50505050508861204d565b8a549295509093509150600160f01b900460ff1615611db9578754600090611da890600160a81b900460ff16600183878661213b565b9650919450849350611e8b92505050565b6000806000611e548b6002018054611dd0906124a8565b80601f0160208091040260200160405190810160405280929190818152602001828054611dfc906124a8565b8015611e495780601f10611e1e57610100808354040283529160200191611e49565b820191906000526020600020905b815481529060010190602001808311611e2c57829003601f168201915b50505050508b61204d565b8d549295509093509150600090611e7890600160a81b900460ff1685848a8961213b565b9950949750909550611e8b945050505050565b9250925092565b6000611e9d826121c2565b611ea957506000610b19565b6001836002811115611ebd57611ebd6122aa565b03611f3657835460408051634ac8eb5f60e01b815290516001600160a01b0390921691634ac8eb5f916004808201926020929091908290030181865afa158015611f0b573d6000803e3d6000fd5b505050506040513d601f19601f82011682018060405250810190611f2f9190612347565b9050610b19565b81546001600160a01b03166370a0823160008051602061257f833981519152861860401c6040516001600160e01b031960e084901b1681526001600160a01b039091166004820152602401602060405180830381865afa158015611f0b573d6000803e3d6000fd5b60008060008051602061255f833981519152818080611fbd8782611cd3565b9250925092506000806000611fd38a6001611cd3565b60108a015492955090935091506000908590611fff90600160c01b90046001600160401b03168461231e565b1015801561202c57506010880154869061202990600160c01b90046001600160401b03168561231e565b10155b90508699508061203c578661203e565b835b98505050505050505050915091565b7f4f24f5c433db0962dac0d2c8b84197a6e6c7cc4e5d9ebe1916a1b6193da2f344546000908190819060008051602061255f833981519152906001600160a01b0316851561210f5760405163e4a0a55b60e01b81526001600160a01b0382169063e4a0a55b906120c1908a906004016124e2565b606060405180830381865afa1580156120de573d6000803e3d6000fd5b505050506040513d601f19601f820116820180604052508101906121029190612530565b9450945094505050611e8b565b60405163524f388960e01b81526001600160a01b0382169063524f3889906120c1908a906004016124e2565b600060008051602061255f833981519152816009612159878a61231e565b612163919061231e565b600a830154909150600090612183908690600160a81b900460ff1661231e565b90508082101561219557612195612331565b6121b56121a282846122f5565b6121ad90600a612447565b87908a611ab1565b9998505050505050505050565b8054600090600160b01b90046001600160401b031615806107915750505442600160b01b9091046001600160401b03161190565b6001600160a01b03811681146108bd57600080fd5b6000806040838503121561221e57600080fd5b8235612229816121f6565b91506020830135612239816121f6565b809150509250929050565b6000806040838503121561225757600080fd5b8235612262816121f6565b946020939093013593505050565b60006020828403121561228257600080fd5b8135610b19816121f6565b60006020828403121561229f57600080fd5b8151610b19816121f6565b634e487b7160e01b600052602160045260246000fd5b634e487b7160e01b600052601160045260246000fd5b6001600160401b038181168382160190811115610791576107916122c0565b81810381811115610791576107916122c0565b634e487b7160e01b600052603260045260246000fd5b80820180821115610791576107916122c0565b634e487b7160e01b600052600160045260246000fd5b60006020828403121561235957600080fd5b5051919050565b6001815b600184111561239b5780850481111561237f5761237f6122c0565b600184161561238d57908102905b60019390931c928002612364565b935093915050565b6000826123b257506001610791565b816123bf57506000610791565b81600181146123d557600281146123df576123fb565b6001915050610791565b60ff8411156123f0576123f06122c0565b50506001821b610791565b5060208310610133831016604e8410600b841016171561241e575081810a610791565b61242b6000198484612360565b806000190482111561243f5761243f6122c0565b029392505050565b600061078e83836123a3565b634e487b7160e01b600052601260045260246000fd5b60008261247857612478612453565b500490565b60008261248c5761248c612453565b500690565b8082028115828204841417610791576107916122c0565b600181811c908216806124bc57607f821691505b6020821081036124dc57634e487b7160e01b600052602260045260246000fd5b50919050565b602081526000825180602084015260005b8181101561251057602081860181015160408684010152016124f3565b506000604082850101526040601f19601f83011684010191505092915050565b60008060006060848603121561254557600080fd5b505081516020830151604090930151909492935091905056fe4f24f5c433db0962dac0d2c8b84197a6e6c7cc4e5d9ebe1916a1b6193da2f33a5bebac0595fee029d42bb673937f5f1cb81cf8641382bc17774635de9b7d7965ec7e8c1c441439dd40959777f4c577ea0cd42fcc1dbe59d2bd0f5d9c55df8db6a2646970667358221220690d334dbb9a8635c63b0a1d4b5536ede084681fa4fe4838a0c1ba616925888f64736f6c634300081b0033",
  "linkReferences": {},
  "deployedLinkReferences": {}
}