{
  "_format": "hh-sol-artifact-1",
  "contractName": "AgentCollateralFacet",
  "sourceName": "contracts/assetManager/facets/AgentCollateralFacet.sol",
  "abi": [
    {
      "inputs": [],
      "name": "CollateralDeprecated",
      "type": "error"
    },
    {
      "inputs": [],
      "name": "CollateralNotDeprecated",
      "type": "error"
    },
    {
      "inputs": [],
      "name": "CollateralWithdrawalAnnounced",
      "type": "error"
    },
    {
      "inputs": [],
      "name": "DivisionByZero",
      "type": "error"
    },
    {
      "inputs": [],
      "name": "EmergencyPauseActive",
      "type": "error"
    },
    {
      "inputs": [],
      "name": "FAssetNotTerminated",
      "type": "error"
    },
    {
      "inputs": [],
      "name": "InvalidAgentVaultAddress",
      "type": "error"
    },
    {
      "inputs": [],
      "name": "NotAttached",
      "type": "error"
    },
    {
      "inputs": [],
      "name": "NotEnoughCollateral",
      "type": "error"
    },
    {
      "inputs": [],
      "name": "NotWhitelisted",
      "type": "error"
    },
    {
      "inputs": [],
      "name": "OnlyAgentVaultOrPool",
      "type": "error"
    },
    {
      "inputs": [],
      "name": "OnlyAgentVaultOwner",
      "type": "error"
    },
    {
      "inputs": [],
      "name": "OnlyAssetManagerController",
      "type": "error"
    },
    {
      "inputs": [],
      "name": "UnknownToken",
      "type": "error"
    },
    {
      "inputs": [],
      "name": "WithdrawalCRTooLow",
      "type": "error"
    },
    {
      "inputs": [],
      "name": "WithdrawalInvalidAgentStatus",
      "type": "error"
    },
    {
      "inputs": [],
      "name": "WithdrawalMoreThanAnnounced",
      "type": "error"
    },
    {
      "inputs": [],
      "name": "WithdrawalNotAllowedYet",
      "type": "error"
    },
    {
      "inputs": [],
      "name": "WithdrawalNotAnnounced",
      "type": "error"
    },
    {
      "inputs": [],
      "name": "WithdrawalTooLate",
      "type": "error"
    },
    {
      "inputs": [],
      "name": "WithdrawalValueTooHigh",
      "type": "error"
    },
    {
      "anonymous": false,
      "inputs": [
        {
          "indexed": true,
          "internalType": "address",
          "name": "agentVault",
          "type": "address"
        },
        {
          "indexed": false,
          "internalType": "uint8",
          "name": "collateralClass",
          "type": "uint8"
        },
        {
          "indexed": false,
          "internalType": "address",
          "name": "token",
          "type": "address"
        }
      ],
      "name": "AgentCollateralTypeChanged",
      "type": "event"
    },
    {
      "anonymous": false,
      "inputs": [
        {
          "indexed": true,
          "internalType": "address",
          "name": "agentVault",
          "type": "address"
        }
      ],
      "name": "LiquidationEnded",
      "type": "event"
    },
    {
      "anonymous": false,
      "inputs": [
        {
          "indexed": true,
          "internalType": "address",
          "name": "agentVault",
          "type": "address"
        },
        {
          "indexed": false,
          "internalType": "uint256",
          "name": "amountWei",
          "type": "uint256"
        },
        {
          "indexed": false,
          "internalType": "uint256",
          "name": "withdrawalAllowedAt",
          "type": "uint256"
        }
      ],
      "name": "PoolTokenRedemptionAnnounced",
      "type": "event"
    },
    {
      "anonymous": false,
      "inputs": [
        {
          "indexed": true,
          "internalType": "address",
          "name": "agentVault",
          "type": "address"
        },
        {
          "indexed": false,
          "internalType": "uint256",
          "name": "amountWei",
          "type": "uint256"
        },
        {
          "indexed": false,
          "internalType": "uint256",
          "name": "withdrawalAllowedAt",
          "type": "uint256"
        }
      ],
      "name": "VaultCollateralWithdrawalAnnounced",
      "type": "event"
    },
    {
      "inputs": [
        {
          "internalType": "address",
          "name": "_agentVault",
          "type": "address"
        },
        {
          "internalType": "uint256",
          "name": "_valueNATWei",
          "type": "uint256"
        }
      ],
      "name": "announceAgentPoolTokenRedemption",
      "outputs": [
        {
          "internalType": "uint256",
          "name": "_redemptionAllowedAt",
          "type": "uint256"
        }
      ],
      "stateMutability": "nonpayable",
      "type": "function"
    },
    {
      "inputs": [
        {
          "internalType": "address",
          "name": "_agentVault",
          "type": "address"
        },
        {
          "internalType": "uint256",
          "name": "_valueNATWei",
          "type": "uint256"
        }
      ],
      "name": "announceVaultCollateralWithdrawal",
      "outputs": [
        {
          "internalType": "uint256",
          "name": "_withdrawalAllowedAt",
          "type": "uint256"
        }
      ],
      "stateMutability": "nonpayable",
      "type": "function"
    },
    {
      "inputs": [
        {
          "internalType": "contract IERC20",
          "name": "_token",
          "type": "address"
        },
        {
          "internalType": "uint256",
          "name": "_amountWei",
          "type": "uint256"
        }
      ],
      "name": "beforeCollateralWithdrawal",
      "outputs": [],
      "stateMutability": "nonpayable",
      "type": "function"
    },
    {
      "inputs": [
        {
          "internalType": "address",
          "name": "_agentVault",
          "type": "address"
        },
        {
          "internalType": "contract IERC20",
          "name": "_token",
          "type": "address"
        }
      ],
      "name": "switchVaultCollateral",
      "outputs": [],
      "stateMutability": "nonpayable",
      "type": "function"
    },
    {
      "inputs": [
        {
          "internalType": "address",
          "name": "_agentVault",
          "type": "address"
        },
        {
          "internalType": "contract IERC20",
          "name": "_token",
          "type": "address"
        }
      ],
      "name": "updateCollateral",
      "outputs": [],
      "stateMutability": "nonpayable",
      "type": "function"
    },
    {
      "inputs": [
        {
          "internalType": "address",
          "name": "_agentVault",
          "type": "address"
        }
      ],
      "name": "upgradeWNatContract",
      "outputs": [],
      "stateMutability": "nonpayable",
      "type": "function"
    }
  ],
  "bytecode": "0x6080604052348015600f57600080fd5b506124f48061001f6000396000f3fe608060405234801561001057600080fd5b50600436106100625760003560e01c806329ff1308146100675780632dabf2d01461007c578063469052ad146100a15780637a2cf412146100b4578063d9d71463146100c7578063f4d000b2146100da575b600080fd5b61007a61007536600461210b565b6100ed565b005b61008f61008a366004612144565b610154565b60405190815260200160405180910390f35b61007a6100af366004612144565b610174565b61007a6100c236600461210b565b610447565b61008f6100d5366004612144565b610535565b61007a6100e8366004612170565b61054d565b60006100f8836106c2565b9050336001600160a01b038416148061011a575080546001600160a01b031633145b610137576040516331f414a960e11b815260040160405180910390fd5b610141818361074b565b1561014f5761014f81610797565b505050565b6000826101608161087e565b61016c600285856108b0565b949350505050565b600061017f336106c2565b9050600061018c82610b10565b6001600160a01b0316846001600160a01b0316036101ac5750600061023f565b8154604080516332f7ce0b60e21b815290516001600160a01b039092169163cbdf382c916004808201926020929091908290030181865afa1580156101f5573d6000803e3d6000fd5b505050506040513d601f19601f82011682018060405250810190610219919061218d565b6001600160a01b0316846001600160a01b0316036102395750600261023f565b50505050565b600061024b8383610b68565b905060006102598484610bb5565b90506001600485015460ff166005811115610276576102766121aa565b1480610291575061028684610c37565b6001600160401b0316155b6102ae57604051630efb15e960e41b815260040160405180910390fd5b8154600160801b90046001600160401b03166000036102e057604051633be7298360e21b815260040160405180910390fd5b81546001600160801b031685111561030b57604051631c20fbb560e11b815260040160405180910390fd5b8154600160801b90046001600160401b031642101561033d576040516357c9104b60e11b815260040160405180910390fd5b7f4f24f5c433db0962dac0d2c8b84197a6e6c7cc4e5d9ebe1916a1b6193da2f34d54825460008051602061245f8339815191529161039691600160c01b9091046001600160401b0390811691600160801b9004166121d6565b6001600160401b03164211156103bf576040516375da9bff60e01b815260040160405180910390fd5b60208201516103ce8387610c9d565b11156103ed57604051632e3676c560e11b815260040160405180910390fd5b82546000906104069088906001600160801b03166121f5565b84546001600160801b0319166001600160801b0382161785559050600081900361043d57835467ffffffffffffffff60801b191684555b5050505050505050565b816104518161087e565b600061045c846106c2565b9050600061046982610dcd565b8054909150600160b01b90046001600160401b031660000361049e57604051633ea7966b60e11b815260040160405180910390fd5b60006104aa8382610b68565b8054909150600160801b90046001600160401b0316156104dd576040516375d5a32560e01b815260040160405180910390fd5b6104e78386610e1a565b60408051600281526001600160a01b0387811660208301528816917f88b6ac79ad99776ae32e236db624ff70afc6aedfaa56430d9924c5165ceadef6910160405180910390a2505050505050565b6000826105418161087e565b61016c600085856108b0565b806105578161087e565b6000610562836106c2565b7fec7e8c1c441439dd40959777f4c577ea0cd42fcc1dbe59d2bd0f5d9c55df8dc55460008051602061249f833981519152805492935091600091839161ffff9091169081106105b3576105b3612208565b6000918252602090912060049182020154600f840154918501546001600160a01b0390911692506301000000900461ffff9081169116146106bb57600f8201546004848101805464ffff000000191661ffff909316630100000002929092179091558354604051637a68005960e11b81526001600160a01b038481169382019390935291169063f4d000b290602401600060405180830381600087803b15801561065c57600080fd5b505af1158015610670573d6000803e3d6000fd5b505060408051600181526001600160a01b038581166020830152891693507f88b6ac79ad99776ae32e236db624ff70afc6aedfaa56430d9924c5165ceadef692500160405180910390a25b5050505050565b604081901b68010000000000000000600160e01b031660008051602061247f8339815191521860048101546000919060ff1682816005811115610707576107076121aa565b1415801561072757506005816005811115610724576107246121aa565b14155b6107445760405163d68a46c560e01b815260040160405180910390fd5b5092915050565b600061075683610f33565b6001600160a01b0316826001600160a01b0316148061078e575061077983610b10565b6001600160a01b0316826001600160a01b0316145b90505b92915050565b6002600482015460ff1660058111156107b2576107b26121aa565b146107ba5750565b60006107c582610f6c565b905060006107d4836000610fe0565b905060006107e3846001610fe0565b9050818360000151101580156107fd575080836020015110155b15610239576004840180547fff00ff0000000000000000ffffffffffffffffffffffffffffffffffffffff0016600117905560008051602061247f833981519152841860401c6001600160a01b03167fe513b42585b0ceec0d56d56fe3a23861c15a2f74eb4c32c94334d63d68ff4dcf60405160405180910390a250505050565b61089061088a826106c2565b33611026565b6108ad5760405163f6e2f99b60e01b815260040160405180910390fd5b50565b6000806108bc846106c2565b90506001600482015460ff1660058111156108d9576108d96121aa565b14806108f457506108e981610c37565b6001600160401b0316155b61091157604051630efb15e960e41b815260040160405180910390fd5b600061091d8287610b68565b80549091506001600160801b03168411156109ec5760008051602061245f833981519152600061094d8489610bb5565b8354909150600090610968906001600160801b0316886121f5565b9050610974828661104b565b81111561099457604051630d97900360e01b815260040160405180910390fd5b60108301546109bc906109b790600160801b90046001600160401b03164261221e565b611068565b84546001600160401b0391909116600160801b0267ffffffffffffffff60801b1990911617845550610a07915050565b83600003610a0757805467ffffffffffffffff60801b191681555b610a10846110d9565b81546001600160801b0319166001600160801b03919091161781556000866002811115610a3f57610a3f6121aa565b03610a9e57805460408051868152600160801b9092046001600160401b031660208301526001600160a01b038716917f67212b72b610c952a34bdd8a6e005684df8b1a31e96ba45ae1dbfb926e5447fa910160405180910390a2610af4565b805460408051868152600160801b9092046001600160401b031660208301526001600160a01b038716917fd8af9ece0435675178bfc0aba18c040e3bd5ad88eabd3d313cd0b469a8e1d06b910160405180910390a25b54600160801b90046001600160401b03169150505b9392505050565b60008060008051602061249f83398151915260048401548154919250829161010090910461ffff16908110610b4757610b47612208565b60009182526020909120600490910201546001600160a01b03169392505050565b60006001826002811115610b7e57610b7e6121aa565b03610b8b57610b8b612231565b6000826002811115610b9f57610b9f6121aa565b14610bad578260090161078e565b505060080190565b610bda6040805160608101909152806000815260200160008152602001600081525090565b6000826002811115610bee57610bee6121aa565b03610c0357610bfc83611142565b9050610791565b6001826002811115610c1757610c176121aa565b03610c2557610bfc8361122e565b610bfc83610c328561122e565b6112b9565b60058101546000906001600160401b03600160801b82048116600160c01b909204161115610c6757610c67612231565b60058201546001600160401b03600160801b8204811691610c939180821691600160401b9004166121d6565b61079191906121d6565b6000806000610cb0848660000151611493565b60058601549193509150600090610cd9906001600160401b03600160401b82048116911661221e565b90506000610cf584610cef848a6040015161156f565b90611589565b90506000600188516002811115610d0e57610d0e6121aa565b14610d2d576005870154600160801b90046001600160401b0316610d43565b6005870154600160c01b90046001600160401b03165b90506000610d6285610cef846001600160401b03168c6040015161156f565b9050600060018a516002811115610d7b57610d7b6121aa565b03610d87576000610d9f565b8951610d94908a90610b68565b546001600160801b03165b6001600160801b0316905080610db5838661221e565b610dbf919061221e565b9a9950505050505050505050565b60008060008051602061249f83398151915260048401548154919250829161010090910461ffff16908110610e0457610e04612208565b9060005260206000209060040201915050919050565b60008051602061249f8339815191526000610e36600284611598565b90506000826000018281548110610e4f57610e4f612208565b60009182526020909120600490910201905060028154600160a01b900460ff166002811115610e8057610e806121aa565b14610e8d57610e8d612231565b8054600160b01b90046001600160401b031615610ebd57604051636b73c3bd60e01b815260040160405180910390fd5b610ec68261161c565b8560040160016101000a81548161ffff021916908361ffff1602179055506000610eef86611142565b90506000610efd828861167f565b600384015490915063ffffffff16811015610f2a5760405162d11df360e61b815260040160405180910390fd5b50505050505050565b60008060008051602061249f833981519152600484015481549192508291630100000090910461ffff16908110610b4757610b47612208565b610f976040518060800160405280600081526020016000815260200160008152602001600081525090565b600080610fa584600061174a565b91509150600080610fb786600161174a565b604080516080810182529687526020870192909252908501939093525050606082015292915050565b600080610fed8484611798565b9050610ff9848461183d565b61100e576003015463ffffffff169050610791565b60030154600160401b900463ffffffff169050610791565b60018201546000906001600160a01b038381169116148061078e5750610779836118a6565b6000806110588484610c9d565b905061016c846020015182611948565b60006001600160401b038211156110d55760405162461bcd60e51b815260206004820152602660248201527f53616665436173743a2076616c756520646f65736e27742066697420696e203660448201526534206269747360d01b60648201526084015b60405180910390fd5b5090565b60006001600160801b038211156110d55760405162461bcd60e51b815260206004820152602760248201527f53616665436173743a2076616c756520646f65736e27742066697420696e20316044820152663238206269747360c81b60648201526084016110cc565b6111676040805160608101909152806000815260200160008152602001600081525090565b600061117283610dcd565b6040805160608101909152909150806000815282546020909101906001600160a01b03166370a0823160008051602061247f833981519152871860401c6040516001600160e01b031960e084901b1681526001600160a01b039091166004820152602401602060405180830381865afa1580156111f3573d6000803e3d6000fd5b505050506040513d601f19601f820116820180604052508101906112179190612247565b815260200161122583611962565b90529392505050565b6112536040805160608101909152806000815260200160008152602001600081525090565b600061125e83611978565b604080516060810182526001815285548251634ac8eb5f60e01b8152925193945090926020808501936001600160a01b0390931692634ac8eb5f92600480830193928290030181865afa1580156111f3573d6000803e3d6000fd5b6112de6040805160608101909152806000815260200160008152602001600081525090565b8254604080516332f7ce0b60e21b815290516000926001600160a01b03169163cbdf382c9160048083019260209291908290030181865afa158015611327573d6000803e3d6000fd5b505050506040513d601f19601f8201168201806040525081019061134b919061218d565b905060006001600160a01b0382166370a0823160008051602061247f833981519152871860401c6040516001600160e01b031960e084901b1681526001600160a01b039091166004820152602401602060405180830381865afa1580156113b6573d6000803e3d6000fd5b505050506040513d601f19601f820116820180604052508101906113da9190612247565b90506000826001600160a01b03166318160ddd6040518163ffffffff1660e01b8152600401602060405180830381865afa15801561141c573d6000803e3d6000fd5b505050506040513d601f19601f820116820180604052508101906114409190612247565b90506000856020015160000361145a57856040015161146f565b6020860151604087015161146f9184906119b1565b60408051606081018252600281526020810195909552840152509095945050505050565b60008060028360028111156114aa576114aa6121aa565b036114e75750507f4f24f5c433db0962dac0d2c8b84197a6e6c7cc4e5d9ebe1916a1b6193da2f34654640100000000900463ffffffff1680611568565b60018360028111156114fb576114fb6121aa565b036115365761150984611978565b60030154600485015463ffffffff918216925061152f91600160881b9091041682611ab5565b9150611568565b61153f84610dcd565b60030154600485015463ffffffff918216925061156591600160681b9091041682611ab5565b91505b9250929050565b600061078e826115816009600a612347565b8591906119b1565b600061078e83836127106119b1565b600060008051602061249f833981519152817fec7e8c1c441439dd40959777f4c577ea0cd42fcc1dbe59d2bd0f5d9c55df8db7816115d68787611acb565b81526020019081526020016000205490506000811161160857604051638698bf3760e01b815260040160405180910390fd5b6116136001826121f5565b95945050505050565b600061ffff8211156110d55760405162461bcd60e51b815260206004820152602660248201527f53616665436173743a2076616c756520646f65736e27742066697420696e203160448201526536206269747360d01b60648201526084016110cc565b600080600184516002811115611697576116976121aa565b146116b6576005830154600160801b90046001600160401b03166116cc565b6005830154600160c01b90046001600160401b03165b60058401546001600160401b03918216925060009183916116f89181811691600160401b90041661221e565b611702919061221e565b9050600061171482876040015161156f565b90508060000361172e576402540be4009350505050610791565b602086015161174090612710836119b1565b9695505050505050565b60008060008061175a8686611af5565b91509150600061176a838861167f565b90506000611778838961167f565b90508360400151945061178b8282611ab5565b9550505050509250929050565b600060028260028111156117ae576117ae6121aa565b036117bb576117bb612231565b60008051602061249f83398151915260008360028111156117de576117de6121aa565b0361181a57600484015481548291610100900461ffff1690811061180457611804612208565b9060005260206000209060040201915050610791565b6004840154815482916301000000900461ffff1690811061180457611804612208565b600080826002811115611852576118526121aa565b0361186e57506004820154600160f01b90046001161515610791565b6001826002811115611882576118826121aa565b1461188f5761188f612231565b506004820154600160f01b90046002161515610791565b60006118d97f4f24f5c433db0962dac0d2c8b84197a6e6c7cc4e5d9ebe1916a1b6193da2f341546001600160a01b031690565b6001830154604051631f86345d60e31b81526001600160a01b03918216600482015291169063fc31a2e890602401602060405180830381865afa158015611924573d6000803e3d6000fd5b505050506040513d601f19601f82011682018060405250810190610791919061218d565b600081831161195857600061078e565b61078e82846121f5565b600061196f826000611bd3565b50909392505050565b60008060008051602061249f833981519152600484015481549192508291630100000090910461ffff16908110610e0457610e04612208565b60008082116119d3576040516323d359a360e01b815260040160405180910390fd5b836000036119e357506000610b09565b838302838582816119f6576119f6612353565b0403611a1457828181611a0b57611a0b612353565b04915050610b09565b506000611a218386612369565b90506000611a2f848761237d565b90506000611a3d8587612369565b90506000611a4b868861237d565b905085611a588285612391565b611a629190612369565b611a6c8385612391565b611a768387612391565b88611a818689612391565b611a8b9190612391565b611a95919061221e565b611a9f919061221e565b611aa9919061221e565b98975050505050505050565b6000818311611ac4578161078e565b5090919050565b6000816001600160a01b031660a0846002811115611aeb57611aeb6121aa565b901b179392505050565b611b1a6040805160608101909152806000815260200160008152602001600081525090565b611b3f6040805160608101909152806000815260200160008152602001600081525090565b6000611b4b8585611798565b90506000611b5a868684611d92565b9050600080611b6884611e9e565b915091506040518060600160405280886002811115611b8957611b896121aa565b81526020018481526020018381525095506040518060600160405280886002811115611bb757611bb76121aa565b8152602001848152602001828152509450505050509250929050565b600080600080600080611c72886001018054611bee906123a8565b80601f0160208091040260200160405190810160405280929190818152602001828054611c1a906123a8565b8015611c675780601f10611c3c57610100808354040283529160200191611c67565b820191906000526020600020905b815481529060010190602001808311611c4a57829003601f168201915b505050505088611f4d565b8a549295509093509150600160f01b900460ff1615611cb9578754600090611ca890600160a81b900460ff16600183878661203b565b9650919450849350611d8b92505050565b6000806000611d548b6002018054611cd0906123a8565b80601f0160208091040260200160405190810160405280929190818152602001828054611cfc906123a8565b8015611d495780601f10611d1e57610100808354040283529160200191611d49565b820191906000526020600020905b815481529060010190602001808311611d2c57829003601f168201915b50505050508b611f4d565b8d549295509093509150600090611d7890600160a81b900460ff1685848a8961203b565b9950949750909550611d8b945050505050565b9250925092565b6000611d9d826120c2565b611da957506000610b09565b6001836002811115611dbd57611dbd6121aa565b03611e3657835460408051634ac8eb5f60e01b815290516001600160a01b0390921691634ac8eb5f916004808201926020929091908290030181865afa158015611e0b573d6000803e3d6000fd5b505050506040513d601f19601f82011682018060405250810190611e2f9190612247565b9050610b09565b81546001600160a01b03166370a0823160008051602061247f833981519152861860401c6040516001600160e01b031960e084901b1681526001600160a01b039091166004820152602401602060405180830381865afa158015611e0b573d6000803e3d6000fd5b60008060008051602061245f833981519152818080611ebd8782611bd3565b9250925092506000806000611ed38a6001611bd3565b60108a015492955090935091506000908590611eff90600160c01b90046001600160401b03168461221e565b10158015611f2c575060108801548690611f2990600160c01b90046001600160401b03168561221e565b10155b905086995080611f3c5786611f3e565b835b98505050505050505050915091565b7f4f24f5c433db0962dac0d2c8b84197a6e6c7cc4e5d9ebe1916a1b6193da2f344546000908190819060008051602061245f833981519152906001600160a01b0316851561200f5760405163e4a0a55b60e01b81526001600160a01b0382169063e4a0a55b90611fc1908a906004016123e2565b606060405180830381865afa158015611fde573d6000803e3d6000fd5b505050506040513d601f19601f820116820180604052508101906120029190612430565b9450945094505050611d8b565b60405163524f388960e01b81526001600160a01b0382169063524f388990611fc1908a906004016123e2565b600060008051602061245f833981519152816009612059878a61221e565b612063919061221e565b600a830154909150600090612083908690600160a81b900460ff1661221e565b90508082101561209557612095612231565b6120b56120a282846121f5565b6120ad90600a612347565b87908a6119b1565b9998505050505050505050565b8054600090600160b01b90046001600160401b031615806107915750505442600160b01b9091046001600160401b03161190565b6001600160a01b03811681146108ad57600080fd5b6000806040838503121561211e57600080fd5b8235612129816120f6565b91506020830135612139816120f6565b809150509250929050565b6000806040838503121561215757600080fd5b8235612162816120f6565b946020939093013593505050565b60006020828403121561218257600080fd5b8135610b09816120f6565b60006020828403121561219f57600080fd5b8151610b09816120f6565b634e487b7160e01b600052602160045260246000fd5b634e487b7160e01b600052601160045260246000fd5b6001600160401b038181168382160190811115610791576107916121c0565b81810381811115610791576107916121c0565b634e487b7160e01b600052603260045260246000fd5b80820180821115610791576107916121c0565b634e487b7160e01b600052600160045260246000fd5b60006020828403121561225957600080fd5b5051919050565b6001815b600184111561229b5780850481111561227f5761227f6121c0565b600184161561228d57908102905b60019390931c928002612264565b935093915050565b6000826122b257506001610791565b816122bf57506000610791565b81600181146122d557600281146122df576122fb565b6001915050610791565b60ff8411156122f0576122f06121c0565b50506001821b610791565b5060208310610133831016604e8410600b841016171561231e575081810a610791565b61232b6000198484612260565b806000190482111561233f5761233f6121c0565b029392505050565b600061078e83836122a3565b634e487b7160e01b600052601260045260246000fd5b60008261237857612378612353565b500490565b60008261238c5761238c612353565b500690565b8082028115828204841417610791576107916121c0565b600181811c908216806123bc57607f821691505b6020821081036123dc57634e487b7160e01b600052602260045260246000fd5b50919050565b602081526000825180602084015260005b8181101561241057602081860181015160408684010152016123f3565b506000604082850101526040601f19601f83011684010191505092915050565b60008060006060848603121561244557600080fd5b505081516020830151604090930151909492935091905056fe4f24f5c433db0962dac0d2c8b84197a6e6c7cc4e5d9ebe1916a1b6193da2f33a5bebac0595fee029d42bb673937f5f1cb81cf8641382bc17774635de9b7d7965ec7e8c1c441439dd40959777f4c577ea0cd42fcc1dbe59d2bd0f5d9c55df8db6a264697066735822122016c4693418b525379af78f263dd21f1a20b7707a80420465307166ce6171938664736f6c634300081b0033",
  "linkReferences": {},
  "deployedLinkReferences": {}
}