{
  "_format": "hh-sol-artifact-1",
  "contractName": "AgentCollateralFacet",
  "sourceName": "contracts/assetManager/facets/AgentCollateralFacet.sol",
  "abi": [
    {
      "inputs": [],
      "name": "CollateralWithdrawalAnnounced",
      "type": "error"
    },
    {
      "inputs": [],
      "name": "DivisionByZero",
      "type": "error"
    },
    {
      "inputs": [],
      "name": "EmergencyPauseActive",
      "type": "error"
    },
    {
      "inputs": [],
      "name": "FAssetNotTerminated",
      "type": "error"
    },
    {
      "inputs": [],
      "name": "InvalidAgentVaultAddress",
      "type": "error"
    },
    {
      "inputs": [],
      "name": "NotAttached",
      "type": "error"
    },
    {
      "inputs": [],
      "name": "NotWhitelisted",
      "type": "error"
    },
    {
      "inputs": [],
      "name": "OnlyAgentVaultOrPool",
      "type": "error"
    },
    {
      "inputs": [],
      "name": "OnlyAgentVaultOwner",
      "type": "error"
    },
    {
      "inputs": [],
      "name": "OnlyAssetManagerController",
      "type": "error"
    },
    {
      "inputs": [],
      "name": "WithdrawalCRTooLow",
      "type": "error"
    },
    {
      "inputs": [],
      "name": "WithdrawalInvalidAgentStatus",
      "type": "error"
    },
    {
      "inputs": [],
      "name": "WithdrawalMoreThanAnnounced",
      "type": "error"
    },
    {
      "inputs": [],
      "name": "WithdrawalNotAllowedYet",
      "type": "error"
    },
    {
      "inputs": [],
      "name": "WithdrawalNotAnnounced",
      "type": "error"
    },
    {
      "inputs": [],
      "name": "WithdrawalTooLate",
      "type": "error"
    },
    {
      "inputs": [],
      "name": "WithdrawalValueTooHigh",
      "type": "error"
    },
    {
      "anonymous": false,
      "inputs": [
        {
          "indexed": true,
          "internalType": "address",
          "name": "agentVault",
          "type": "address"
        },
        {
          "indexed": false,
          "internalType": "uint8",
          "name": "collateralClass",
          "type": "uint8"
        },
        {
          "indexed": false,
          "internalType": "address",
          "name": "token",
          "type": "address"
        }
      ],
      "name": "AgentCollateralTypeChanged",
      "type": "event"
    },
    {
      "anonymous": false,
      "inputs": [
        {
          "indexed": true,
          "internalType": "address",
          "name": "agentVault",
          "type": "address"
        }
      ],
      "name": "LiquidationEnded",
      "type": "event"
    },
    {
      "anonymous": false,
      "inputs": [
        {
          "indexed": true,
          "internalType": "address",
          "name": "agentVault",
          "type": "address"
        },
        {
          "indexed": false,
          "internalType": "uint256",
          "name": "amountWei",
          "type": "uint256"
        },
        {
          "indexed": false,
          "internalType": "uint256",
          "name": "withdrawalAllowedAt",
          "type": "uint256"
        }
      ],
      "name": "PoolTokenRedemptionAnnounced",
      "type": "event"
    },
    {
      "anonymous": false,
      "inputs": [
        {
          "indexed": true,
          "internalType": "address",
          "name": "agentVault",
          "type": "address"
        },
        {
          "indexed": false,
          "internalType": "uint256",
          "name": "amountWei",
          "type": "uint256"
        },
        {
          "indexed": false,
          "internalType": "uint256",
          "name": "withdrawalAllowedAt",
          "type": "uint256"
        }
      ],
      "name": "VaultCollateralWithdrawalAnnounced",
      "type": "event"
    },
    {
      "inputs": [
        {
          "internalType": "address",
          "name": "_agentVault",
          "type": "address"
        },
        {
          "internalType": "uint256",
          "name": "_valueNATWei",
          "type": "uint256"
        }
      ],
      "name": "announceAgentPoolTokenRedemption",
      "outputs": [
        {
          "internalType": "uint256",
          "name": "_redemptionAllowedAt",
          "type": "uint256"
        }
      ],
      "stateMutability": "nonpayable",
      "type": "function"
    },
    {
      "inputs": [
        {
          "internalType": "address",
          "name": "_agentVault",
          "type": "address"
        },
        {
          "internalType": "uint256",
          "name": "_valueNATWei",
          "type": "uint256"
        }
      ],
      "name": "announceVaultCollateralWithdrawal",
      "outputs": [
        {
          "internalType": "uint256",
          "name": "_withdrawalAllowedAt",
          "type": "uint256"
        }
      ],
      "stateMutability": "nonpayable",
      "type": "function"
    },
    {
      "inputs": [
        {
          "internalType": "contract IERC20",
          "name": "_token",
          "type": "address"
        },
        {
          "internalType": "uint256",
          "name": "_amountWei",
          "type": "uint256"
        }
      ],
      "name": "beforeCollateralWithdrawal",
      "outputs": [],
      "stateMutability": "nonpayable",
      "type": "function"
    },
    {
      "inputs": [
        {
          "internalType": "address",
          "name": "_agentVault",
          "type": "address"
        },
        {
          "internalType": "contract IERC20",
          "name": "_token",
          "type": "address"
        }
      ],
      "name": "updateCollateral",
      "outputs": [],
      "stateMutability": "nonpayable",
      "type": "function"
    },
    {
      "inputs": [
        {
          "internalType": "address",
          "name": "_agentVault",
          "type": "address"
        }
      ],
      "name": "upgradeWNatContract",
      "outputs": [],
      "stateMutability": "nonpayable",
      "type": "function"
    }
  ],
  "bytecode": "0x6080604052348015600f57600080fd5b5061232c8061001f6000396000f3fe608060405234801561001057600080fd5b50600436106100575760003560e01c806329ff13081461005c5780632dabf2d014610071578063469052ad14610096578063d9d71463146100a9578063f4d000b2146100bc575b600080fd5b61006f61006a366004611f43565b6100cf565b005b61008461007f366004611f7c565b610136565b60405190815260200160405180910390f35b61006f6100a4366004611f7c565b610160565b6100846100b7366004611f7c565b61043e565b61006f6100ca366004611fa8565b610460565b60006100da836105d5565b9050336001600160a01b03841614806100fc575080546001600160a01b031633145b610119576040516331f414a960e11b815260040160405180910390fd5b610123818361065e565b1561013157610131816106aa565b505050565b60006101426001610791565b8261014c816107e0565b61015860028585610812565b949350505050565b61016a6002610791565b6000610175336105d5565b9050600061018282610a72565b6001600160a01b0316846001600160a01b0316036101a257506000610235565b8154604080516332f7ce0b60e21b815290516001600160a01b039092169163cbdf382c916004808201926020929091908290030181865afa1580156101eb573d6000803e3d6000fd5b505050506040513d601f19601f8201168201806040525081019061020f9190611fc5565b6001600160a01b0316846001600160a01b03160361022f57506002610235565b50505050565b60006102418383610aca565b9050600061024f8484610b17565b90506001600485015460ff16600581111561026c5761026c611fe2565b1480610287575061027c84610b99565b6001600160401b0316155b6102a457604051630efb15e960e41b815260040160405180910390fd5b8154600160801b90046001600160401b03166000036102d657604051633be7298360e21b815260040160405180910390fd5b81546001600160801b031685111561030157604051631c20fbb560e11b815260040160405180910390fd5b8154600160801b90046001600160401b0316421015610333576040516357c9104b60e11b815260040160405180910390fd5b7f4f24f5c433db0962dac0d2c8b84197a6e6c7cc4e5d9ebe1916a1b6193da2f34d5482546000805160206122978339815191529161038c91600160c01b9091046001600160401b0390811691600160801b90041661200e565b6001600160401b03164211156103b5576040516375da9bff60e01b815260040160405180910390fd5b60208201516103c48387610bff565b11156103e357604051632e3676c560e11b815260040160405180910390fd5b82546000906103fc9088906001600160801b031661202d565b84546001600160801b0319166001600160801b0382161785559050600081900361043357835467ffffffffffffffff60801b191684555b5050505050505b5050565b600061044a6001610791565b82610454816107e0565b61015860008585610812565b8061046a816107e0565b6000610475836105d5565b7fec7e8c1c441439dd40959777f4c577ea0cd42fcc1dbe59d2bd0f5d9c55df8dc5546000805160206122d7833981519152805492935091600091839161ffff9091169081106104c6576104c6612040565b6000918252602090912060049182020154600f840154918501546001600160a01b0390911692506301000000900461ffff9081169116146105ce57600f8201546004848101805464ffff000000191661ffff909316630100000002929092179091558354604051637a68005960e11b81526001600160a01b038481169382019390935291169063f4d000b290602401600060405180830381600087803b15801561056f57600080fd5b505af1158015610583573d6000803e3d6000fd5b505060408051600181526001600160a01b038581166020830152891693507f88b6ac79ad99776ae32e236db624ff70afc6aedfaa56430d9924c5165ceadef692500160405180910390a25b5050505050565b604081901b68010000000000000000600160e01b03166000805160206122b78339815191521860048101546000919060ff168281600581111561061a5761061a611fe2565b1415801561063a5750600581600581111561063757610637611fe2565b14155b6106575760405163d68a46c560e01b815260040160405180910390fd5b5092915050565b600061066983610d2f565b6001600160a01b0316826001600160a01b031614806106a1575061068c83610a72565b6001600160a01b0316826001600160a01b0316145b90505b92915050565b6002600482015460ff1660058111156106c5576106c5611fe2565b146106cd5750565b60006106d882610d68565b905060006106e7836000610ddc565b905060006106f6846001610ddc565b905081836000015110158015610710575080836020015110155b1561022f576004840180547fff00ff0000000000000000ffffffffffffffffffffffffffffffffffffffff001660011790556000805160206122b7833981519152841860401c6001600160a01b03167fe513b42585b0ceec0d56d56fe3a23861c15a2f74eb4c32c94334d63d68ff4dcf60405160405180910390a250505050565b60008160038111156107a5576107a5611fe2565b6107ad610e22565b60038111156107be576107be611fe2565b108015915061043a5760405163909b191760e01b815260040160405180910390fd5b6107f26107ec826105d5565b33610e73565b61080f5760405163f6e2f99b60e01b815260040160405180910390fd5b50565b60008061081e846105d5565b90506001600482015460ff16600581111561083b5761083b611fe2565b1480610856575061084b81610b99565b6001600160401b0316155b61087357604051630efb15e960e41b815260040160405180910390fd5b600061087f8287610aca565b80549091506001600160801b031684111561094e5760008051602061229783398151915260006108af8489610b17565b83549091506000906108ca906001600160801b03168861202d565b90506108d68286610e98565b8111156108f657604051630d97900360e01b815260040160405180910390fd5b601083015461091e9061091990600160801b90046001600160401b031642612056565b610eb5565b84546001600160401b0391909116600160801b0267ffffffffffffffff60801b1990911617845550610969915050565b8360000361096957805467ffffffffffffffff60801b191681555b61097284610f26565b81546001600160801b0319166001600160801b039190911617815560008660028111156109a1576109a1611fe2565b03610a0057805460408051868152600160801b9092046001600160401b031660208301526001600160a01b038716917f67212b72b610c952a34bdd8a6e005684df8b1a31e96ba45ae1dbfb926e5447fa910160405180910390a2610a56565b805460408051868152600160801b9092046001600160401b031660208301526001600160a01b038716917fd8af9ece0435675178bfc0aba18c040e3bd5ad88eabd3d313cd0b469a8e1d06b910160405180910390a25b54600160801b90046001600160401b03169150505b9392505050565b6000806000805160206122d783398151915260048401548154919250829161010090910461ffff16908110610aa957610aa9612040565b60009182526020909120600490910201546001600160a01b03169392505050565b60006001826002811115610ae057610ae0611fe2565b03610aed57610aed612069565b6000826002811115610b0157610b01611fe2565b14610b0f57826009016106a1565b505060080190565b610b3c6040805160608101909152806000815260200160008152602001600081525090565b6000826002811115610b5057610b50611fe2565b03610b6557610b5e83610f8f565b90506106a4565b6001826002811115610b7957610b79611fe2565b03610b8757610b5e8361107b565b610b5e83610b948561107b565b611106565b60058101546000906001600160401b03600160801b82048116600160c01b909204161115610bc957610bc9612069565b60058201546001600160401b03600160801b8204811691610bf59180821691600160401b90041661200e565b6106a4919061200e565b6000806000610c128486600001516112e0565b60058601549193509150600090610c3b906001600160401b03600160401b820481169116612056565b90506000610c5784610c51848a604001516113bc565b906113d6565b90506000600188516002811115610c7057610c70611fe2565b14610c8f576005870154600160801b90046001600160401b0316610ca5565b6005870154600160c01b90046001600160401b03165b90506000610cc485610c51846001600160401b03168c604001516113bc565b9050600060018a516002811115610cdd57610cdd611fe2565b03610ce9576000610d01565b8951610cf6908a90610aca565b546001600160801b03165b6001600160801b0316905080610d178386612056565b610d219190612056565b9a9950505050505050505050565b6000806000805160206122d7833981519152600484015481549192508291630100000090910461ffff16908110610aa957610aa9612040565b610d936040518060800160405280600081526020016000815260200160008152602001600081525090565b600080610da18460006113e5565b91509150600080610db38660016113e5565b604080516080810182529687526020870192909252908501939093525050606082015292915050565b600080610de98484611440565b9050610df584846114e5565b610e0a576003015463ffffffff1690506106a4565b60030154600160401b900463ffffffff1690506106a4565b600080610e2d61154e565b90506000610e396115b6565b9050816003811115610e4d57610e4d611fe2565b816003811115610e5f57610e5f611fe2565b11610e6a5781610e6c565b805b9250505090565b60018201546000906001600160a01b03838116911614806106a1575061068c8361161e565b600080610ea58484610bff565b90506101588460200151826116c0565b60006001600160401b03821115610f225760405162461bcd60e51b815260206004820152602660248201527f53616665436173743a2076616c756520646f65736e27742066697420696e203660448201526534206269747360d01b60648201526084015b60405180910390fd5b5090565b60006001600160801b03821115610f225760405162461bcd60e51b815260206004820152602760248201527f53616665436173743a2076616c756520646f65736e27742066697420696e20316044820152663238206269747360c81b6064820152608401610f19565b610fb46040805160608101909152806000815260200160008152602001600081525090565b6000610fbf836116da565b6040805160608101909152909150806000815282546020909101906001600160a01b03166370a082316000805160206122b7833981519152871860401c6040516001600160e01b031960e084901b1681526001600160a01b039091166004820152602401602060405180830381865afa158015611040573d6000803e3d6000fd5b505050506040513d601f19601f82011682018060405250810190611064919061207f565b815260200161107283611727565b90529392505050565b6110a06040805160608101909152806000815260200160008152602001600081525090565b60006110ab8361173d565b604080516060810182526001815285548251634ac8eb5f60e01b8152925193945090926020808501936001600160a01b0390931692634ac8eb5f92600480830193928290030181865afa158015611040573d6000803e3d6000fd5b61112b6040805160608101909152806000815260200160008152602001600081525090565b8254604080516332f7ce0b60e21b815290516000926001600160a01b03169163cbdf382c9160048083019260209291908290030181865afa158015611174573d6000803e3d6000fd5b505050506040513d601f19601f820116820180604052508101906111989190611fc5565b905060006001600160a01b0382166370a082316000805160206122b7833981519152871860401c6040516001600160e01b031960e084901b1681526001600160a01b039091166004820152602401602060405180830381865afa158015611203573d6000803e3d6000fd5b505050506040513d601f19601f82011682018060405250810190611227919061207f565b90506000826001600160a01b03166318160ddd6040518163ffffffff1660e01b8152600401602060405180830381865afa158015611269573d6000803e3d6000fd5b505050506040513d601f19601f8201168201806040525081019061128d919061207f565b9050600085602001516000036112a75785604001516112bc565b602086015160408701516112bc918490611776565b60408051606081018252600281526020810195909552840152509095945050505050565b60008060028360028111156112f7576112f7611fe2565b036113345750507f4f24f5c433db0962dac0d2c8b84197a6e6c7cc4e5d9ebe1916a1b6193da2f34654640100000000900463ffffffff16806113b5565b600183600281111561134857611348611fe2565b03611383576113568461173d565b60030154600485015463ffffffff918216925061137c91600160881b909104168261187a565b91506113b5565b61138c846116da565b60030154600485015463ffffffff91821692506113b291600160681b909104168261187a565b91505b9250929050565b60006106a1826113ce6009600a61217f565b859190611776565b60006106a18383612710611776565b6000806000806113f58686611890565b915091506000611405838861196e565b90506000611413838961196e565b9050611427846040015184604001516119c5565b9450611433828261187a565b9550505050509250929050565b6000600282600281111561145657611456611fe2565b0361146357611463612069565b6000805160206122d7833981519152600083600281111561148657611486611fe2565b036114c257600484015481548291610100900461ffff169081106114ac576114ac612040565b90600052602060002090600402019150506106a4565b6004840154815482916301000000900461ffff169081106114ac576114ac612040565b6000808260028111156114fa576114fa611fe2565b0361151657506004820154600160f01b900460011615156106a4565b600182600281111561152a5761152a611fe2565b1461153757611537612069565b506004820154600160f01b900460021615156106a4565b7fec7e8c1c441439dd40959777f4c577ea0cd42fcc1dbe59d2bd0f5d9c55df8dc6546000906000805160206122d78339815191529042600160401b9091046001600160401b031611806115a2576000610e6c565b5060110154600160901b900460ff16919050565b7fec7e8c1c441439dd40959777f4c577ea0cd42fcc1dbe59d2bd0f5d9c55df8dc7546000906000805160206122d78339815191529042600160a01b9091046001600160401b0316118061160a576000610e6c565b5060110154600160981b900460ff16919050565b60006116517f4f24f5c433db0962dac0d2c8b84197a6e6c7cc4e5d9ebe1916a1b6193da2f341546001600160a01b031690565b6001830154604051631f86345d60e31b81526001600160a01b03918216600482015291169063fc31a2e890602401602060405180830381865afa15801561169c573d6000803e3d6000fd5b505050506040513d601f19601f820116820180604052508101906106a49190611fc5565b60008183116116d05760006106a1565b6106a1828461202d565b6000806000805160206122d783398151915260048401548154919250829161010090910461ffff1690811061171157611711612040565b9060005260206000209060040201915050919050565b60006117348260006119d4565b50909392505050565b6000806000805160206122d7833981519152600484015481549192508291630100000090910461ffff1690811061171157611711612040565b6000808211611798576040516323d359a360e01b815260040160405180910390fd5b836000036117a857506000610a6b565b838302838582816117bb576117bb61218b565b04036117d9578281816117d0576117d061218b565b04915050610a6b565b5060006117e683866121a1565b905060006117f484876121b5565b9050600061180285876121a1565b9050600061181086886121b5565b90508561181d82856121c9565b61182791906121a1565b61183183856121c9565b61183b83876121c9565b8861184686896121c9565b61185091906121c9565b61185a9190612056565b6118649190612056565b61186e9190612056565b98975050505050505050565b600081831161188957816106a1565b5090919050565b6118b56040805160608101909152806000815260200160008152602001600081525090565b6118da6040805160608101909152806000815260200160008152602001600081525090565b60006118e68585611440565b905060006118f5868684611b93565b905060008061190384611c8a565b91509150604051806060016040528088600281111561192457611924611fe2565b8152602001848152602001838152509550604051806060016040528088600281111561195257611952611fe2565b8152602001848152602001828152509450505050509250929050565b60008061197f838560000151611d39565b905060006119918286604001516113bc565b9050806000036119aa576402540be400925050506106a4565b60208501516119bc9061271083611776565b95945050505050565b600081831061188957816106a1565b600080600080600080611a738860010180546119ef906121e0565b80601f0160208091040260200160405190810160405280929190818152602001828054611a1b906121e0565b8015611a685780601f10611a3d57610100808354040283529160200191611a68565b820191906000526020600020905b815481529060010190602001808311611a4b57829003601f168201915b505050505088611db9565b8a549295509093509150600160f01b900460ff1615611aba578754600090611aa990600160a81b900460ff166001838786611ea7565b9650919450849350611b8c92505050565b6000806000611b558b6002018054611ad1906121e0565b80601f0160208091040260200160405190810160405280929190818152602001828054611afd906121e0565b8015611b4a5780601f10611b1f57610100808354040283529160200191611b4a565b820191906000526020600020905b815481529060010190602001808311611b2d57829003601f168201915b50505050508b611db9565b8d549295509093509150600090611b7990600160a81b900460ff1685848a89611ea7565b9950949750909550611b8c945050505050565b9250925092565b60006001836002811115611ba957611ba9611fe2565b03611c2257835460408051634ac8eb5f60e01b815290516001600160a01b0390921691634ac8eb5f916004808201926020929091908290030181865afa158015611bf7573d6000803e3d6000fd5b505050506040513d601f19601f82011682018060405250810190611c1b919061207f565b9050610a6b565b81546001600160a01b03166370a082316000805160206122b7833981519152861860401c6040516001600160e01b031960e084901b1681526001600160a01b039091166004820152602401602060405180830381865afa158015611bf7573d6000803e3d6000fd5b600080600080516020612297833981519152818080611ca987826119d4565b9250925092506000806000611cbf8a60016119d4565b60108a015492955090935091506000908590611ceb90600160c01b90046001600160401b031684612056565b10158015611d18575060108801548690611d1590600160c01b90046001600160401b031685612056565b10155b905086995080611d285786611d2a565b835b98505050505050505050915091565b6000806001836002811115611d5057611d50611fe2565b14611d6f576005840154600160801b90046001600160401b0316611d85565b6005840154600160c01b90046001600160401b03165b60058501546001600160401b0391821692508291611daf9180821691600160401b90910416612056565b6101589190612056565b7f4f24f5c433db0962dac0d2c8b84197a6e6c7cc4e5d9ebe1916a1b6193da2f3445460009081908190600080516020612297833981519152906001600160a01b03168515611e7b5760405163e4a0a55b60e01b81526001600160a01b0382169063e4a0a55b90611e2d908a9060040161221a565b606060405180830381865afa158015611e4a573d6000803e3d6000fd5b505050506040513d601f19601f82011682018060405250810190611e6e9190612268565b9450945094505050611b8c565b60405163524f388960e01b81526001600160a01b0382169063524f388990611e2d908a9060040161221a565b6000600080516020612297833981519152816009611ec5878a612056565b611ecf9190612056565b600a830154909150600090611eef908690600160a81b900460ff16612056565b905080821015611f0157611f01612069565b611f21611f0e828461202d565b611f1990600a61217f565b87908a611776565b9998505050505050505050565b6001600160a01b038116811461080f57600080fd5b60008060408385031215611f5657600080fd5b8235611f6181611f2e565b91506020830135611f7181611f2e565b809150509250929050565b60008060408385031215611f8f57600080fd5b8235611f9a81611f2e565b946020939093013593505050565b600060208284031215611fba57600080fd5b8135610a6b81611f2e565b600060208284031215611fd757600080fd5b8151610a6b81611f2e565b634e487b7160e01b600052602160045260246000fd5b634e487b7160e01b600052601160045260246000fd5b6001600160401b0381811683821601908111156106a4576106a4611ff8565b818103818111156106a4576106a4611ff8565b634e487b7160e01b600052603260045260246000fd5b808201808211156106a4576106a4611ff8565b634e487b7160e01b600052600160045260246000fd5b60006020828403121561209157600080fd5b5051919050565b6001815b60018411156120d3578085048111156120b7576120b7611ff8565b60018416156120c557908102905b60019390931c92800261209c565b935093915050565b6000826120ea575060016106a4565b816120f7575060006106a4565b816001811461210d576002811461211757612133565b60019150506106a4565b60ff84111561212857612128611ff8565b50506001821b6106a4565b5060208310610133831016604e8410600b8410161715612156575081810a6106a4565b6121636000198484612098565b806000190482111561217757612177611ff8565b029392505050565b60006106a183836120db565b634e487b7160e01b600052601260045260246000fd5b6000826121b0576121b061218b565b500490565b6000826121c4576121c461218b565b500690565b80820281158282048414176106a4576106a4611ff8565b600181811c908216806121f457607f821691505b60208210810361221457634e487b7160e01b600052602260045260246000fd5b50919050565b602081526000825180602084015260005b81811015612248576020818601810151604086840101520161222b565b506000604082850101526040601f19601f83011684010191505092915050565b60008060006060848603121561227d57600080fd5b505081516020830151604090930151909492935091905056fe4f24f5c433db0962dac0d2c8b84197a6e6c7cc4e5d9ebe1916a1b6193da2f33a5bebac0595fee029d42bb673937f5f1cb81cf8641382bc17774635de9b7d7965ec7e8c1c441439dd40959777f4c577ea0cd42fcc1dbe59d2bd0f5d9c55df8db6a26469706673582212201a44b5dde146460bce8da8e16228636a522813a20df35ca8ed3dd312e7f6c0f664736f6c634300081b0033",
  "linkReferences": {},
  "deployedLinkReferences": {}
}