{
  "_format": "hh-sol-artifact-1",
  "contractName": "AgentCollateralFacet",
  "sourceName": "contracts/assetManager/facets/AgentCollateralFacet.sol",
  "abi": [
    {
      "inputs": [],
      "name": "CollateralWithdrawalAnnounced",
      "type": "error"
    },
    {
      "inputs": [],
      "name": "DivisionByZero",
      "type": "error"
    },
    {
      "inputs": [],
      "name": "EmergencyPauseActive",
      "type": "error"
    },
    {
      "inputs": [],
      "name": "FAssetNotTerminated",
      "type": "error"
    },
    {
      "inputs": [],
      "name": "InvalidAgentVaultAddress",
      "type": "error"
    },
    {
      "inputs": [],
      "name": "NotAttached",
      "type": "error"
    },
    {
      "inputs": [],
      "name": "NotWhitelisted",
      "type": "error"
    },
    {
      "inputs": [],
      "name": "OnlyAgentVaultOrPool",
      "type": "error"
    },
    {
      "inputs": [],
      "name": "OnlyAgentVaultOwner",
      "type": "error"
    },
    {
      "inputs": [],
      "name": "OnlyAssetManagerController",
      "type": "error"
    },
    {
      "inputs": [],
      "name": "WithdrawalCRTooLow",
      "type": "error"
    },
    {
      "inputs": [],
      "name": "WithdrawalInvalidAgentStatus",
      "type": "error"
    },
    {
      "inputs": [],
      "name": "WithdrawalMoreThanAnnounced",
      "type": "error"
    },
    {
      "inputs": [],
      "name": "WithdrawalNotAllowedYet",
      "type": "error"
    },
    {
      "inputs": [],
      "name": "WithdrawalNotAnnounced",
      "type": "error"
    },
    {
      "inputs": [],
      "name": "WithdrawalTooLate",
      "type": "error"
    },
    {
      "inputs": [],
      "name": "WithdrawalValueTooHigh",
      "type": "error"
    },
    {
      "anonymous": false,
      "inputs": [
        {
          "indexed": true,
          "internalType": "address",
          "name": "agentVault",
          "type": "address"
        },
        {
          "indexed": false,
          "internalType": "uint8",
          "name": "collateralClass",
          "type": "uint8"
        },
        {
          "indexed": false,
          "internalType": "address",
          "name": "token",
          "type": "address"
        }
      ],
      "name": "AgentCollateralTypeChanged",
      "type": "event"
    },
    {
      "anonymous": false,
      "inputs": [
        {
          "indexed": true,
          "internalType": "address",
          "name": "agentVault",
          "type": "address"
        }
      ],
      "name": "LiquidationEnded",
      "type": "event"
    },
    {
      "anonymous": false,
      "inputs": [
        {
          "indexed": true,
          "internalType": "address",
          "name": "agentVault",
          "type": "address"
        },
        {
          "indexed": false,
          "internalType": "uint256",
          "name": "amountWei",
          "type": "uint256"
        },
        {
          "indexed": false,
          "internalType": "uint256",
          "name": "withdrawalAllowedAt",
          "type": "uint256"
        }
      ],
      "name": "PoolTokenRedemptionAnnounced",
      "type": "event"
    },
    {
      "anonymous": false,
      "inputs": [
        {
          "indexed": true,
          "internalType": "address",
          "name": "agentVault",
          "type": "address"
        },
        {
          "indexed": false,
          "internalType": "uint256",
          "name": "amountWei",
          "type": "uint256"
        },
        {
          "indexed": false,
          "internalType": "uint256",
          "name": "withdrawalAllowedAt",
          "type": "uint256"
        }
      ],
      "name": "VaultCollateralWithdrawalAnnounced",
      "type": "event"
    },
    {
      "inputs": [
        {
          "internalType": "address",
          "name": "_agentVault",
          "type": "address"
        },
        {
          "internalType": "uint256",
          "name": "_valueNATWei",
          "type": "uint256"
        }
      ],
      "name": "announceAgentPoolTokenRedemption",
      "outputs": [
        {
          "internalType": "uint256",
          "name": "_redemptionAllowedAt",
          "type": "uint256"
        }
      ],
      "stateMutability": "nonpayable",
      "type": "function"
    },
    {
      "inputs": [
        {
          "internalType": "address",
          "name": "_agentVault",
          "type": "address"
        },
        {
          "internalType": "uint256",
          "name": "_valueNATWei",
          "type": "uint256"
        }
      ],
      "name": "announceVaultCollateralWithdrawal",
      "outputs": [
        {
          "internalType": "uint256",
          "name": "_withdrawalAllowedAt",
          "type": "uint256"
        }
      ],
      "stateMutability": "nonpayable",
      "type": "function"
    },
    {
      "inputs": [
        {
          "internalType": "contract IERC20",
          "name": "_token",
          "type": "address"
        },
        {
          "internalType": "uint256",
          "name": "_amountWei",
          "type": "uint256"
        }
      ],
      "name": "beforeCollateralWithdrawal",
      "outputs": [],
      "stateMutability": "nonpayable",
      "type": "function"
    },
    {
      "inputs": [
        {
          "internalType": "address",
          "name": "_agentVault",
          "type": "address"
        },
        {
          "internalType": "contract IERC20",
          "name": "_token",
          "type": "address"
        }
      ],
      "name": "updateCollateral",
      "outputs": [],
      "stateMutability": "nonpayable",
      "type": "function"
    },
    {
      "inputs": [
        {
          "internalType": "address",
          "name": "_agentVault",
          "type": "address"
        }
      ],
      "name": "upgradeWNatContract",
      "outputs": [],
      "stateMutability": "nonpayable",
      "type": "function"
    }
  ],
  "bytecode": "0x6080604052348015600f57600080fd5b506122608061001f6000396000f3fe608060405234801561001057600080fd5b50600436106100575760003560e01c806329ff13081461005c5780632dabf2d014610071578063469052ad14610096578063d9d71463146100a9578063f4d000b2146100bc575b600080fd5b61006f61006a366004611e77565b6100cf565b005b61008461007f366004611eb0565b610136565b60405190815260200160405180910390f35b61006f6100a4366004611eb0565b610160565b6100846100b7366004611eb0565b61043d565b61006f6100ca366004611edc565b61045f565b60006100da836105d4565b9050336001600160a01b03841614806100fc575080546001600160a01b031633145b610119576040516331f414a960e11b815260040160405180910390fd5b610123818361065d565b1561013157610131816106a9565b505050565b60006101426001610790565b8261014c81610835565b61015860028585610867565b949350505050565b61016a6002610790565b6000610175336105d4565b9050600061018282610ac7565b6001600160a01b0316846001600160a01b0316036101a257506000610235565b8154604080516332f7ce0b60e21b815290516001600160a01b039092169163cbdf382c916004808201926020929091908290030181865afa1580156101eb573d6000803e3d6000fd5b505050506040513d601f19601f8201168201806040525081019061020f9190611ef9565b6001600160a01b0316846001600160a01b03160361022f57506002610235565b50505050565b60006102418383610b1f565b9050600061024f8484610b6c565b90506001600485015460ff16600581111561026c5761026c611f16565b1480610287575061027c84610bee565b6001600160401b0316155b6102a457604051630efb15e960e41b815260040160405180910390fd5b8154600160801b90046001600160401b03166000036102d657604051633be7298360e21b815260040160405180910390fd5b81546001600160801b031685111561030157604051631c20fbb560e11b815260040160405180910390fd5b8154600160801b90046001600160401b0316421015610333576040516357c9104b60e11b815260040160405180910390fd5b7f4f24f5c433db0962dac0d2c8b84197a6e6c7cc4e5d9ebe1916a1b6193da2f34d5482546000805160206121cb8339815191529161038c91600160c01b9091046001600160401b0390811691600160801b900416611f42565b6001600160401b03164211156103b5576040516375da9bff60e01b815260040160405180910390fd5b60208201516103c48387610c54565b11156103e357604051632e3676c560e11b815260040160405180910390fd5b82546000906103fc9088906001600160801b0316611f61565b84546001600160801b0319166001600160801b0382161785559050600081900361043357835467ffffffffffffffff60801b191684555b5050505050505050565b60006104496001610790565b8261045381610835565b61015860008585610867565b8061046981610835565b6000610474836105d4565b7fec7e8c1c441439dd40959777f4c577ea0cd42fcc1dbe59d2bd0f5d9c55df8dc55460008051602061220b833981519152805492935091600091839161ffff9091169081106104c5576104c5611f74565b6000918252602090912060049182020154600f840154918501546001600160a01b0390911692506301000000900461ffff9081169116146105cd57600f8201546004848101805464ffff000000191661ffff909316630100000002929092179091558354604051637a68005960e11b81526001600160a01b038481169382019390935291169063f4d000b290602401600060405180830381600087803b15801561056e57600080fd5b505af1158015610582573d6000803e3d6000fd5b505060408051600181526001600160a01b038581166020830152891693507f88b6ac79ad99776ae32e236db624ff70afc6aedfaa56430d9924c5165ceadef692500160405180910390a25b5050505050565b604081901b68010000000000000000600160e01b03166000805160206121eb8339815191521860048101546000919060ff168281600581111561061957610619611f16565b141580156106395750600581600581111561063657610636611f16565b14155b6106565760405163d68a46c560e01b815260040160405180910390fd5b5092915050565b600061066883610d84565b6001600160a01b0316826001600160a01b031614806106a0575061068b83610ac7565b6001600160a01b0316826001600160a01b0316145b90505b92915050565b6002600482015460ff1660058111156106c4576106c4611f16565b146106cc5750565b60006106d782610dbd565b905060006106e6836000610e31565b905060006106f5846001610e31565b90508183600001511015801561070f575080836020015110155b1561022f576004840180547fff00ff0000000000000000ffffffffffffffffffffffffffffffffffffffff001660011790556000805160206121eb833981519152841860401c6001600160a01b03167fe513b42585b0ceec0d56d56fe3a23861c15a2f74eb4c32c94334d63d68ff4dcf60405160405180910390a250505050565b7fec7e8c1c441439dd40959777f4c577ea0cd42fcc1dbe59d2bd0f5d9c55df8dc65460008051602061220b8339815191529060009042600160401b9091046001600160401b031611801561081457508260038111156107f1576107f1611f16565b6011830154600160901b900460ff16600381111561081157610811611f16565b10155b905080156101315760405163909b191760e01b815260040160405180910390fd5b610847610841826105d4565b33610e77565b6108645760405163f6e2f99b60e01b815260040160405180910390fd5b50565b600080610873846105d4565b90506001600482015460ff16600581111561089057610890611f16565b14806108ab57506108a081610bee565b6001600160401b0316155b6108c857604051630efb15e960e41b815260040160405180910390fd5b60006108d48287610b1f565b80549091506001600160801b03168411156109a3576000805160206121cb83398151915260006109048489610b6c565b835490915060009061091f906001600160801b031688611f61565b905061092b8286610e9c565b81111561094b57604051630d97900360e01b815260040160405180910390fd5b60108301546109739061096e90600160801b90046001600160401b031642611f8a565b610eb9565b84546001600160401b0391909116600160801b0267ffffffffffffffff60801b19909116178455506109be915050565b836000036109be57805467ffffffffffffffff60801b191681555b6109c784610f2a565b81546001600160801b0319166001600160801b039190911617815560008660028111156109f6576109f6611f16565b03610a5557805460408051868152600160801b9092046001600160401b031660208301526001600160a01b038716917f67212b72b610c952a34bdd8a6e005684df8b1a31e96ba45ae1dbfb926e5447fa910160405180910390a2610aab565b805460408051868152600160801b9092046001600160401b031660208301526001600160a01b038716917fd8af9ece0435675178bfc0aba18c040e3bd5ad88eabd3d313cd0b469a8e1d06b910160405180910390a25b54600160801b90046001600160401b03169150505b9392505050565b60008060008051602061220b83398151915260048401548154919250829161010090910461ffff16908110610afe57610afe611f74565b60009182526020909120600490910201546001600160a01b03169392505050565b60006001826002811115610b3557610b35611f16565b03610b4257610b42611f9d565b6000826002811115610b5657610b56611f16565b14610b6457826009016106a0565b505060080190565b610b916040805160608101909152806000815260200160008152602001600081525090565b6000826002811115610ba557610ba5611f16565b03610bba57610bb383610f93565b90506106a3565b6001826002811115610bce57610bce611f16565b03610bdc57610bb38361107f565b610bb383610be98561107f565b61110a565b60058101546000906001600160401b03600160801b82048116600160c01b909204161115610c1e57610c1e611f9d565b60058201546001600160401b03600160801b8204811691610c4a9180821691600160401b900416611f42565b6106a39190611f42565b6000806000610c678486600001516112e4565b60058601549193509150600090610c90906001600160401b03600160401b820481169116611f8a565b90506000610cac84610ca6848a604001516113c0565b906113da565b90506000600188516002811115610cc557610cc5611f16565b14610ce4576005870154600160801b90046001600160401b0316610cfa565b6005870154600160c01b90046001600160401b03165b90506000610d1985610ca6846001600160401b03168c604001516113c0565b9050600060018a516002811115610d3257610d32611f16565b03610d3e576000610d56565b8951610d4b908a90610b1f565b546001600160801b03165b6001600160801b0316905080610d6c8386611f8a565b610d769190611f8a565b9a9950505050505050505050565b60008060008051602061220b833981519152600484015481549192508291630100000090910461ffff16908110610afe57610afe611f74565b610de86040518060800160405280600081526020016000815260200160008152602001600081525090565b600080610df68460006113e9565b91509150600080610e088660016113e9565b604080516080810182529687526020870192909252908501939093525050606082015292915050565b600080610e3e8484611444565b9050610e4a84846114e9565b610e5f576003015463ffffffff1690506106a3565b60030154600160401b900463ffffffff1690506106a3565b60018201546000906001600160a01b03838116911614806106a0575061068b83611552565b600080610ea98484610c54565b90506101588460200151826115f4565b60006001600160401b03821115610f265760405162461bcd60e51b815260206004820152602660248201527f53616665436173743a2076616c756520646f65736e27742066697420696e203660448201526534206269747360d01b60648201526084015b60405180910390fd5b5090565b60006001600160801b03821115610f265760405162461bcd60e51b815260206004820152602760248201527f53616665436173743a2076616c756520646f65736e27742066697420696e20316044820152663238206269747360c81b6064820152608401610f1d565b610fb86040805160608101909152806000815260200160008152602001600081525090565b6000610fc38361160e565b6040805160608101909152909150806000815282546020909101906001600160a01b03166370a082316000805160206121eb833981519152871860401c6040516001600160e01b031960e084901b1681526001600160a01b039091166004820152602401602060405180830381865afa158015611044573d6000803e3d6000fd5b505050506040513d601f19601f820116820180604052508101906110689190611fb3565b81526020016110768361165b565b90529392505050565b6110a46040805160608101909152806000815260200160008152602001600081525090565b60006110af83611671565b604080516060810182526001815285548251634ac8eb5f60e01b8152925193945090926020808501936001600160a01b0390931692634ac8eb5f92600480830193928290030181865afa158015611044573d6000803e3d6000fd5b61112f6040805160608101909152806000815260200160008152602001600081525090565b8254604080516332f7ce0b60e21b815290516000926001600160a01b03169163cbdf382c9160048083019260209291908290030181865afa158015611178573d6000803e3d6000fd5b505050506040513d601f19601f8201168201806040525081019061119c9190611ef9565b905060006001600160a01b0382166370a082316000805160206121eb833981519152871860401c6040516001600160e01b031960e084901b1681526001600160a01b039091166004820152602401602060405180830381865afa158015611207573d6000803e3d6000fd5b505050506040513d601f19601f8201168201806040525081019061122b9190611fb3565b90506000826001600160a01b03166318160ddd6040518163ffffffff1660e01b8152600401602060405180830381865afa15801561126d573d6000803e3d6000fd5b505050506040513d601f19601f820116820180604052508101906112919190611fb3565b9050600085602001516000036112ab5785604001516112c0565b602086015160408701516112c09184906116aa565b60408051606081018252600281526020810195909552840152509095945050505050565b60008060028360028111156112fb576112fb611f16565b036113385750507f4f24f5c433db0962dac0d2c8b84197a6e6c7cc4e5d9ebe1916a1b6193da2f34654640100000000900463ffffffff16806113b9565b600183600281111561134c5761134c611f16565b036113875761135a84611671565b60030154600485015463ffffffff918216925061138091600160881b90910416826117ae565b91506113b9565b6113908461160e565b60030154600485015463ffffffff91821692506113b691600160681b90910416826117ae565b91505b9250929050565b60006106a0826113d26009600a6120b3565b8591906116aa565b60006106a083836127106116aa565b6000806000806113f986866117c4565b91509150600061140983886118a2565b9050600061141783896118a2565b905061142b846040015184604001516118f9565b945061143782826117ae565b9550505050509250929050565b6000600282600281111561145a5761145a611f16565b0361146757611467611f9d565b60008051602061220b833981519152600083600281111561148a5761148a611f16565b036114c657600484015481548291610100900461ffff169081106114b0576114b0611f74565b90600052602060002090600402019150506106a3565b6004840154815482916301000000900461ffff169081106114b0576114b0611f74565b6000808260028111156114fe576114fe611f16565b0361151a57506004820154600160f01b900460011615156106a3565b600182600281111561152e5761152e611f16565b1461153b5761153b611f9d565b506004820154600160f01b900460021615156106a3565b60006115857f4f24f5c433db0962dac0d2c8b84197a6e6c7cc4e5d9ebe1916a1b6193da2f341546001600160a01b031690565b6001830154604051631f86345d60e31b81526001600160a01b03918216600482015291169063fc31a2e890602401602060405180830381865afa1580156115d0573d6000803e3d6000fd5b505050506040513d601f19601f820116820180604052508101906106a39190611ef9565b60008183116116045760006106a0565b6106a08284611f61565b60008060008051602061220b83398151915260048401548154919250829161010090910461ffff1690811061164557611645611f74565b9060005260206000209060040201915050919050565b6000611668826000611908565b50909392505050565b60008060008051602061220b833981519152600484015481549192508291630100000090910461ffff1690811061164557611645611f74565b60008082116116cc576040516323d359a360e01b815260040160405180910390fd5b836000036116dc57506000610ac0565b838302838582816116ef576116ef6120bf565b040361170d57828181611704576117046120bf565b04915050610ac0565b50600061171a83866120d5565b9050600061172884876120e9565b9050600061173685876120d5565b9050600061174486886120e9565b90508561175182856120fd565b61175b91906120d5565b61176583856120fd565b61176f83876120fd565b8861177a86896120fd565b61178491906120fd565b61178e9190611f8a565b6117989190611f8a565b6117a29190611f8a565b98975050505050505050565b60008183116117bd57816106a0565b5090919050565b6117e96040805160608101909152806000815260200160008152602001600081525090565b61180e6040805160608101909152806000815260200160008152602001600081525090565b600061181a8585611444565b90506000611829868684611ac7565b905060008061183784611bbe565b91509150604051806060016040528088600281111561185857611858611f16565b8152602001848152602001838152509550604051806060016040528088600281111561188657611886611f16565b8152602001848152602001828152509450505050509250929050565b6000806118b3838560000151611c6d565b905060006118c58286604001516113c0565b9050806000036118de576402540be400925050506106a3565b60208501516118f090612710836116aa565b95945050505050565b60008183106117bd57816106a0565b6000806000806000806119a788600101805461192390612114565b80601f016020809104026020016040519081016040528092919081815260200182805461194f90612114565b801561199c5780601f106119715761010080835404028352916020019161199c565b820191906000526020600020905b81548152906001019060200180831161197f57829003601f168201915b505050505088611ced565b8a549295509093509150600160f01b900460ff16156119ee5787546000906119dd90600160a81b900460ff166001838786611ddb565b9650919450849350611ac092505050565b6000806000611a898b6002018054611a0590612114565b80601f0160208091040260200160405190810160405280929190818152602001828054611a3190612114565b8015611a7e5780601f10611a5357610100808354040283529160200191611a7e565b820191906000526020600020905b815481529060010190602001808311611a6157829003601f168201915b50505050508b611ced565b8d549295509093509150600090611aad90600160a81b900460ff1685848a89611ddb565b9950949750909550611ac0945050505050565b9250925092565b60006001836002811115611add57611add611f16565b03611b5657835460408051634ac8eb5f60e01b815290516001600160a01b0390921691634ac8eb5f916004808201926020929091908290030181865afa158015611b2b573d6000803e3d6000fd5b505050506040513d601f19601f82011682018060405250810190611b4f9190611fb3565b9050610ac0565b81546001600160a01b03166370a082316000805160206121eb833981519152861860401c6040516001600160e01b031960e084901b1681526001600160a01b039091166004820152602401602060405180830381865afa158015611b2b573d6000803e3d6000fd5b6000806000805160206121cb833981519152818080611bdd8782611908565b9250925092506000806000611bf38a6001611908565b60108a015492955090935091506000908590611c1f90600160c01b90046001600160401b031684611f8a565b10158015611c4c575060108801548690611c4990600160c01b90046001600160401b031685611f8a565b10155b905086995080611c5c5786611c5e565b835b98505050505050505050915091565b6000806001836002811115611c8457611c84611f16565b14611ca3576005840154600160801b90046001600160401b0316611cb9565b6005840154600160c01b90046001600160401b03165b60058501546001600160401b0391821692508291611ce39180821691600160401b90910416611f8a565b6101589190611f8a565b7f4f24f5c433db0962dac0d2c8b84197a6e6c7cc4e5d9ebe1916a1b6193da2f34454600090819081906000805160206121cb833981519152906001600160a01b03168515611daf5760405163e4a0a55b60e01b81526001600160a01b0382169063e4a0a55b90611d61908a9060040161214e565b606060405180830381865afa158015611d7e573d6000803e3d6000fd5b505050506040513d601f19601f82011682018060405250810190611da2919061219c565b9450945094505050611ac0565b60405163524f388960e01b81526001600160a01b0382169063524f388990611d61908a9060040161214e565b60006000805160206121cb833981519152816009611df9878a611f8a565b611e039190611f8a565b600a830154909150600090611e23908690600160a81b900460ff16611f8a565b905080821015611e3557611e35611f9d565b611e55611e428284611f61565b611e4d90600a6120b3565b87908a6116aa565b9998505050505050505050565b6001600160a01b038116811461086457600080fd5b60008060408385031215611e8a57600080fd5b8235611e9581611e62565b91506020830135611ea581611e62565b809150509250929050565b60008060408385031215611ec357600080fd5b8235611ece81611e62565b946020939093013593505050565b600060208284031215611eee57600080fd5b8135610ac081611e62565b600060208284031215611f0b57600080fd5b8151610ac081611e62565b634e487b7160e01b600052602160045260246000fd5b634e487b7160e01b600052601160045260246000fd5b6001600160401b0381811683821601908111156106a3576106a3611f2c565b818103818111156106a3576106a3611f2c565b634e487b7160e01b600052603260045260246000fd5b808201808211156106a3576106a3611f2c565b634e487b7160e01b600052600160045260246000fd5b600060208284031215611fc557600080fd5b5051919050565b6001815b600184111561200757808504811115611feb57611feb611f2c565b6001841615611ff957908102905b60019390931c928002611fd0565b935093915050565b60008261201e575060016106a3565b8161202b575060006106a3565b8160018114612041576002811461204b57612067565b60019150506106a3565b60ff84111561205c5761205c611f2c565b50506001821b6106a3565b5060208310610133831016604e8410600b841016171561208a575081810a6106a3565b6120976000198484611fcc565b80600019048211156120ab576120ab611f2c565b029392505050565b60006106a0838361200f565b634e487b7160e01b600052601260045260246000fd5b6000826120e4576120e46120bf565b500490565b6000826120f8576120f86120bf565b500690565b80820281158282048414176106a3576106a3611f2c565b600181811c9082168061212857607f821691505b60208210810361214857634e487b7160e01b600052602260045260246000fd5b50919050565b602081526000825180602084015260005b8181101561217c576020818601810151604086840101520161215f565b506000604082850101526040601f19601f83011684010191505092915050565b6000806000606084860312156121b157600080fd5b505081516020830151604090930151909492935091905056fe4f24f5c433db0962dac0d2c8b84197a6e6c7cc4e5d9ebe1916a1b6193da2f33a5bebac0595fee029d42bb673937f5f1cb81cf8641382bc17774635de9b7d7965ec7e8c1c441439dd40959777f4c577ea0cd42fcc1dbe59d2bd0f5d9c55df8db6a2646970667358221220c847714fabf28c099b78bd40606f0fbb657f6e9edfd0cf567f38288c7763710364736f6c634300081b0033",
  "linkReferences": {},
  "deployedLinkReferences": {}
}