{
  "_format": "hh-sol-artifact-1",
  "contractName": "AgentCollateralFacet",
  "sourceName": "contracts/assetManager/facets/AgentCollateralFacet.sol",
  "abi": [
    {
      "inputs": [],
      "name": "CollateralWithdrawalAnnounced",
      "type": "error"
    },
    {
      "inputs": [],
      "name": "DivisionByZero",
      "type": "error"
    },
    {
      "inputs": [],
      "name": "EmergencyPauseActive",
      "type": "error"
    },
    {
      "inputs": [],
      "name": "FAssetNotTerminated",
      "type": "error"
    },
    {
      "inputs": [],
      "name": "InvalidAgentVaultAddress",
      "type": "error"
    },
    {
      "inputs": [],
      "name": "NotAttached",
      "type": "error"
    },
    {
      "inputs": [],
      "name": "NotWhitelisted",
      "type": "error"
    },
    {
      "inputs": [],
      "name": "OnlyAgentVaultOrPool",
      "type": "error"
    },
    {
      "inputs": [],
      "name": "OnlyAgentVaultOwner",
      "type": "error"
    },
    {
      "inputs": [],
      "name": "OnlyAssetManagerController",
      "type": "error"
    },
    {
      "inputs": [],
      "name": "OnlyImmediateGovernanceOrExecutor",
      "type": "error"
    },
    {
      "inputs": [],
      "name": "WithdrawalCRTooLow",
      "type": "error"
    },
    {
      "inputs": [],
      "name": "WithdrawalInvalidAgentStatus",
      "type": "error"
    },
    {
      "inputs": [],
      "name": "WithdrawalMoreThanAnnounced",
      "type": "error"
    },
    {
      "inputs": [],
      "name": "WithdrawalNotAllowedYet",
      "type": "error"
    },
    {
      "inputs": [],
      "name": "WithdrawalNotAnnounced",
      "type": "error"
    },
    {
      "inputs": [],
      "name": "WithdrawalTooLate",
      "type": "error"
    },
    {
      "inputs": [],
      "name": "WithdrawalValueTooHigh",
      "type": "error"
    },
    {
      "anonymous": false,
      "inputs": [
        {
          "indexed": true,
          "internalType": "address",
          "name": "agentVault",
          "type": "address"
        },
        {
          "indexed": false,
          "internalType": "uint8",
          "name": "collateralClass",
          "type": "uint8"
        },
        {
          "indexed": false,
          "internalType": "address",
          "name": "token",
          "type": "address"
        }
      ],
      "name": "AgentCollateralTypeChanged",
      "type": "event"
    },
    {
      "anonymous": false,
      "inputs": [
        {
          "indexed": true,
          "internalType": "address",
          "name": "agentVault",
          "type": "address"
        }
      ],
      "name": "LiquidationEnded",
      "type": "event"
    },
    {
      "anonymous": false,
      "inputs": [
        {
          "indexed": true,
          "internalType": "address",
          "name": "agentVault",
          "type": "address"
        },
        {
          "indexed": false,
          "internalType": "uint256",
          "name": "amountWei",
          "type": "uint256"
        },
        {
          "indexed": false,
          "internalType": "uint256",
          "name": "withdrawalAllowedAt",
          "type": "uint256"
        }
      ],
      "name": "PoolTokenRedemptionAnnounced",
      "type": "event"
    },
    {
      "anonymous": false,
      "inputs": [
        {
          "indexed": true,
          "internalType": "address",
          "name": "agentVault",
          "type": "address"
        },
        {
          "indexed": false,
          "internalType": "uint256",
          "name": "amountWei",
          "type": "uint256"
        },
        {
          "indexed": false,
          "internalType": "uint256",
          "name": "withdrawalAllowedAt",
          "type": "uint256"
        }
      ],
      "name": "VaultCollateralWithdrawalAnnounced",
      "type": "event"
    },
    {
      "inputs": [
        {
          "internalType": "address",
          "name": "_agentVault",
          "type": "address"
        },
        {
          "internalType": "uint256",
          "name": "_valueNATWei",
          "type": "uint256"
        }
      ],
      "name": "announceAgentPoolTokenRedemption",
      "outputs": [
        {
          "internalType": "uint256",
          "name": "_redemptionAllowedAt",
          "type": "uint256"
        }
      ],
      "stateMutability": "nonpayable",
      "type": "function"
    },
    {
      "inputs": [
        {
          "internalType": "address",
          "name": "_agentVault",
          "type": "address"
        },
        {
          "internalType": "uint256",
          "name": "_valueNATWei",
          "type": "uint256"
        }
      ],
      "name": "announceVaultCollateralWithdrawal",
      "outputs": [
        {
          "internalType": "uint256",
          "name": "_withdrawalAllowedAt",
          "type": "uint256"
        }
      ],
      "stateMutability": "nonpayable",
      "type": "function"
    },
    {
      "inputs": [
        {
          "internalType": "contract IERC20",
          "name": "_token",
          "type": "address"
        },
        {
          "internalType": "uint256",
          "name": "_amountWei",
          "type": "uint256"
        }
      ],
      "name": "beforeCollateralWithdrawal",
      "outputs": [],
      "stateMutability": "nonpayable",
      "type": "function"
    },
    {
      "inputs": [
        {
          "internalType": "address",
          "name": "_agentVault",
          "type": "address"
        },
        {
          "internalType": "contract IERC20",
          "name": "_token",
          "type": "address"
        }
      ],
      "name": "updateCollateral",
      "outputs": [],
      "stateMutability": "nonpayable",
      "type": "function"
    },
    {
      "inputs": [
        {
          "internalType": "uint256",
          "name": "_start",
          "type": "uint256"
        },
        {
          "internalType": "uint256",
          "name": "_end",
          "type": "uint256"
        }
      ],
      "name": "upgradeWNatContract",
      "outputs": [],
      "stateMutability": "nonpayable",
      "type": "function"
    }
  ],
  "bytecode": "0x6080604052348015600f57600080fd5b506125cb8061001f6000396000f3fe608060405234801561001057600080fd5b50600436106100575760003560e01c80630c6d51c11461005c57806329ff1308146100715780632dabf2d014610084578063469052ad146100a9578063d9d71463146100bc575b600080fd5b61006f61006a366004612190565b6100cf565b005b61006f61007f3660046121c7565b610122565b610097610092366004612200565b610189565b60405190815260200160405180910390f35b61006f6100b7366004612200565b6101b3565b6100976100ca366004612200565b610487565b6100d76104a9565b60006100e383836104d1565b50905060005b815181101561011c576101148282815181106101075761010761222c565b60200260200101516105e2565b6001016100e9565b50505050565b600061012d8361074b565b9050336001600160a01b038416148061014f575080546001600160a01b031633145b61016c576040516331f414a960e11b815260040160405180910390fd5b61017681836107d4565b156101845761018481610820565b505050565b60006101956001610907565b8261019f81610956565b6101ab60028585610988565b949350505050565b6101bd6002610907565b60006101c83361074b565b905060006101d582610be8565b6001600160a01b0316846001600160a01b0316036101f55750600061027e565b8154604080516332f7ce0b60e21b815290516001600160a01b039092169163cbdf382c916004808201926020929091908290030181865afa15801561023e573d6000803e3d6000fd5b505050506040513d601f19601f820116820180604052508101906102629190612242565b6001600160a01b0316846001600160a01b03160361011c575060025b600061028a8383610c40565b905060006102988484610c8d565b90506001600485015460ff1660058111156102b5576102b561225f565b14806102d057506102c584610d0f565b6001600160401b0316155b6102ed57604051630efb15e960e41b815260040160405180910390fd5b8154600160801b90046001600160401b031660000361031f57604051633be7298360e21b815260040160405180910390fd5b81546001600160801b031685111561034a57604051631c20fbb560e11b815260040160405180910390fd5b8154600160801b90046001600160401b031642101561037c576040516357c9104b60e11b815260040160405180910390fd5b7f4f24f5c433db0962dac0d2c8b84197a6e6c7cc4e5d9ebe1916a1b6193da2f34d548254600080516020612536833981519152916103d591600160c01b9091046001600160401b0390811691600160801b90041661228b565b6001600160401b03164211156103fe576040516375da9bff60e01b815260040160405180910390fd5b602082015161040d8387610d75565b111561042c57604051632e3676c560e11b815260040160405180910390fd5b82546000906104459088906001600160801b03166122aa565b84546001600160801b0319166001600160801b0382161785559050600081900361047c57835467ffffffffffffffff60801b191684555b5050505050505b5050565b60006104936001610907565b8261049d81610956565b6101ab60008585610988565b6104b233610ea5565b6104cf5760405163a4138f6160e01b815260040160405180910390fd5b565b7fec7e8c1c441439dd40959777f4c577ea0cd42fcc1dbe59d2bd0f5d9c55df8db95460609060008051602061257683398151915261050f8483610f91565b935061051b8585610f91565b945061052785856122aa565b6001600160401b0381111561053e5761053e6122bd565b604051908082528060200260200182016040528015610567578160200160208202803683370190505b509250845b848110156105d9578160030181815481106105895761058961222c565b6000918252602090912001546001600160a01b0316846105a988846122aa565b815181106105b9576105b961222c565b6001600160a01b039092166020928302919091019091015260010161056c565b50509250929050565b60006105ed8261074b565b7fec7e8c1c441439dd40959777f4c577ea0cd42fcc1dbe59d2bd0f5d9c55df8dc554600080516020612576833981519152805492935091600091839161ffff90911690811061063e5761063e61222c565b6000918252602090912060049182020154600f840154918501546001600160a01b0390911692506301000000900461ffff90811691161461011c57600f8201546004848101805464ffff000000191661ffff909316630100000002929092179091558354604051637a68005960e11b81526001600160a01b038481169382019390935291169063f4d000b290602401600060405180830381600087803b1580156106e757600080fd5b505af11580156106fb573d6000803e3d6000fd5b505060408051600181526001600160a01b038581166020830152881693507f88b6ac79ad99776ae32e236db624ff70afc6aedfaa56430d9924c5165ceadef692500160405180910390a250505050565b604081901b68010000000000000000600160e01b03166000805160206125568339815191521860048101546000919060ff16828160058111156107905761079061225f565b141580156107b0575060058160058111156107ad576107ad61225f565b14155b6107cd5760405163d68a46c560e01b815260040160405180910390fd5b5092915050565b60006107df83610fa7565b6001600160a01b0316826001600160a01b03161480610817575061080283610be8565b6001600160a01b0316826001600160a01b0316145b90505b92915050565b6002600482015460ff16600581111561083b5761083b61225f565b146108435750565b600061084e82610fe0565b9050600061085d836000611054565b9050600061086c846001611054565b905081836000015110158015610886575080836020015110155b1561011c576004840180547fff00ff0000000000000000ffffffffffffffffffffffffffffffffffffffff00166001179055600080516020612556833981519152841860401c6001600160a01b03167fe513b42585b0ceec0d56d56fe3a23861c15a2f74eb4c32c94334d63d68ff4dcf60405160405180910390a250505050565b600081600381111561091b5761091b61225f565b61092361109a565b60038111156109345761093461225f565b10801591506104835760405163909b191760e01b815260040160405180910390fd5b6109686109628261074b565b336110eb565b6109855760405163f6e2f99b60e01b815260040160405180910390fd5b50565b6000806109948461074b565b90506001600482015460ff1660058111156109b1576109b161225f565b14806109cc57506109c181610d0f565b6001600160401b0316155b6109e957604051630efb15e960e41b815260040160405180910390fd5b60006109f58287610c40565b80549091506001600160801b0316841115610ac4576000805160206125368339815191526000610a258489610c8d565b8354909150600090610a40906001600160801b0316886122aa565b9050610a4c8286611110565b811115610a6c57604051630d97900360e01b815260040160405180910390fd5b6010830154610a9490610a8f90600160801b90046001600160401b0316426122d3565b61112d565b84546001600160401b0391909116600160801b0267ffffffffffffffff60801b1990911617845550610adf915050565b83600003610adf57805467ffffffffffffffff60801b191681555b610ae88461119e565b81546001600160801b0319166001600160801b03919091161781556000866002811115610b1757610b1761225f565b03610b7657805460408051868152600160801b9092046001600160401b031660208301526001600160a01b038716917f67212b72b610c952a34bdd8a6e005684df8b1a31e96ba45ae1dbfb926e5447fa910160405180910390a2610bcc565b805460408051868152600160801b9092046001600160401b031660208301526001600160a01b038716917fd8af9ece0435675178bfc0aba18c040e3bd5ad88eabd3d313cd0b469a8e1d06b910160405180910390a25b54600160801b90046001600160401b03169150505b9392505050565b60008060008051602061257683398151915260048401548154919250829161010090910461ffff16908110610c1f57610c1f61222c565b60009182526020909120600490910201546001600160a01b03169392505050565b60006001826002811115610c5657610c5661225f565b03610c6357610c636122e6565b6000826002811115610c7757610c7761225f565b14610c855782600901610817565b505060080190565b610cb26040805160608101909152806000815260200160008152602001600081525090565b6000826002811115610cc657610cc661225f565b03610cdb57610cd483611207565b905061081a565b6001826002811115610cef57610cef61225f565b03610cfd57610cd4836112f3565b610cd483610d0a856112f3565b61137e565b60058101546000906001600160401b03600160801b82048116600160c01b909204161115610d3f57610d3f6122e6565b60058201546001600160401b03600160801b8204811691610d6b9180821691600160401b90041661228b565b61081a919061228b565b6000806000610d88848660000151611558565b60058601549193509150600090610db1906001600160401b03600160401b8204811691166122d3565b90506000610dcd84610dc7848a60400151611634565b9061164e565b90506000600188516002811115610de657610de661225f565b14610e05576005870154600160801b90046001600160401b0316610e1b565b6005870154600160c01b90046001600160401b03165b90506000610e3a85610dc7846001600160401b03168c60400151611634565b9050600060018a516002811115610e5357610e5361225f565b03610e5f576000610e77565b8951610e6c908a90610c40565b546001600160801b03165b6001600160801b0316905080610e8d83866122d3565b610e9791906122d3565b9a9950505050505050505050565b600080309050806001600160a01b0316635aa6e6756040518163ffffffff1660e01b8152600401602060405180830381865afa158015610ee9573d6000803e3d6000fd5b505050506040513d601f19601f82011682018060405250810190610f0d9190612242565b6001600160a01b0316836001600160a01b03161480610be15750604051630debfda360e41b81526001600160a01b03848116600483015282169063debfda3090602401602060405180830381865afa158015610f6d573d6000803e3d6000fd5b505050506040513d601f19601f82011682018060405250810190610be191906122fc565b6000818310610fa05781610817565b5090919050565b600080600080516020612576833981519152600484015481549192508291630100000090910461ffff16908110610c1f57610c1f61222c565b61100b6040518060800160405280600081526020016000815260200160008152602001600081525090565b60008061101984600061165d565b9150915060008061102b86600161165d565b604080516080810182529687526020870192909252908501939093525050606082015292915050565b60008061106184846116b8565b905061106d848461175d565b611082576003015463ffffffff16905061081a565b60030154600160401b900463ffffffff16905061081a565b6000806110a56117c6565b905060006110b161182e565b90508160038111156110c5576110c561225f565b8160038111156110d7576110d761225f565b116110e257816110e4565b805b9250505090565b60018201546000906001600160a01b0383811691161480610817575061080283611896565b60008061111d8484610d75565b90506101ab846020015182611938565b60006001600160401b0382111561119a5760405162461bcd60e51b815260206004820152602660248201527f53616665436173743a2076616c756520646f65736e27742066697420696e203660448201526534206269747360d01b60648201526084015b60405180910390fd5b5090565b60006001600160801b0382111561119a5760405162461bcd60e51b815260206004820152602760248201527f53616665436173743a2076616c756520646f65736e27742066697420696e20316044820152663238206269747360c81b6064820152608401611191565b61122c6040805160608101909152806000815260200160008152602001600081525090565b600061123783611952565b6040805160608101909152909150806000815282546020909101906001600160a01b03166370a08231600080516020612556833981519152871860401c6040516001600160e01b031960e084901b1681526001600160a01b039091166004820152602401602060405180830381865afa1580156112b8573d6000803e3d6000fd5b505050506040513d601f19601f820116820180604052508101906112dc919061231e565b81526020016112ea8361199f565b90529392505050565b6113186040805160608101909152806000815260200160008152602001600081525090565b6000611323836119b5565b604080516060810182526001815285548251634ac8eb5f60e01b8152925193945090926020808501936001600160a01b0390931692634ac8eb5f92600480830193928290030181865afa1580156112b8573d6000803e3d6000fd5b6113a36040805160608101909152806000815260200160008152602001600081525090565b8254604080516332f7ce0b60e21b815290516000926001600160a01b03169163cbdf382c9160048083019260209291908290030181865afa1580156113ec573d6000803e3d6000fd5b505050506040513d601f19601f820116820180604052508101906114109190612242565b905060006001600160a01b0382166370a08231600080516020612556833981519152871860401c6040516001600160e01b031960e084901b1681526001600160a01b039091166004820152602401602060405180830381865afa15801561147b573d6000803e3d6000fd5b505050506040513d601f19601f8201168201806040525081019061149f919061231e565b90506000826001600160a01b03166318160ddd6040518163ffffffff1660e01b8152600401602060405180830381865afa1580156114e1573d6000803e3d6000fd5b505050506040513d601f19601f82011682018060405250810190611505919061231e565b90506000856020015160000361151f578560400151611534565b602086015160408701516115349184906119ee565b60408051606081018252600281526020810195909552840152509095945050505050565b600080600283600281111561156f5761156f61225f565b036115ac5750507f4f24f5c433db0962dac0d2c8b84197a6e6c7cc4e5d9ebe1916a1b6193da2f34654640100000000900463ffffffff168061162d565b60018360028111156115c0576115c061225f565b036115fb576115ce846119b5565b60030154600485015463ffffffff91821692506115f491600160881b9091041682611af2565b915061162d565b61160484611952565b60030154600485015463ffffffff918216925061162a91600160681b9091041682611af2565b91505b9250929050565b6000610817826116466009600a61241e565b8591906119ee565b600061081783836127106119ee565b60008060008061166d8686611b01565b91509150600061167d8388611bdf565b9050600061168b8389611bdf565b905061169f84604001518460400151610f91565b94506116ab8282611af2565b9550505050509250929050565b600060028260028111156116ce576116ce61225f565b036116db576116db6122e6565b60008051602061257683398151915260008360028111156116fe576116fe61225f565b0361173a57600484015481548291610100900461ffff169081106117245761172461222c565b906000526020600020906004020191505061081a565b6004840154815482916301000000900461ffff169081106117245761172461222c565b6000808260028111156117725761177261225f565b0361178e57506004820154600160f01b9004600116151561081a565b60018260028111156117a2576117a261225f565b146117af576117af6122e6565b506004820154600160f01b9004600216151561081a565b7fec7e8c1c441439dd40959777f4c577ea0cd42fcc1dbe59d2bd0f5d9c55df8dc6546000906000805160206125768339815191529042600160401b9091046001600160401b0316118061181a5760006110e4565b5060110154600160901b900460ff16919050565b7fec7e8c1c441439dd40959777f4c577ea0cd42fcc1dbe59d2bd0f5d9c55df8dc7546000906000805160206125768339815191529042600160a01b9091046001600160401b031611806118825760006110e4565b5060110154600160981b900460ff16919050565b60006118c97f4f24f5c433db0962dac0d2c8b84197a6e6c7cc4e5d9ebe1916a1b6193da2f341546001600160a01b031690565b6001830154604051631f86345d60e31b81526001600160a01b03918216600482015291169063fc31a2e890602401602060405180830381865afa158015611914573d6000803e3d6000fd5b505050506040513d601f19601f8201168201806040525081019061081a9190612242565b6000818311611948576000610817565b61081782846122aa565b60008060008051602061257683398151915260048401548154919250829161010090910461ffff169081106119895761198961222c565b9060005260206000209060040201915050919050565b60006119ac826000611c36565b50909392505050565b600080600080516020612576833981519152600484015481549192508291630100000090910461ffff169081106119895761198961222c565b6000808211611a10576040516323d359a360e01b815260040160405180910390fd5b83600003611a2057506000610be1565b83830283858281611a3357611a3361242a565b0403611a5157828181611a4857611a4861242a565b04915050610be1565b506000611a5e8386612440565b90506000611a6c8487612454565b90506000611a7a8587612440565b90506000611a888688612454565b905085611a958285612468565b611a9f9190612440565b611aa98385612468565b611ab38387612468565b88611abe8689612468565b611ac89190612468565b611ad291906122d3565b611adc91906122d3565b611ae691906122d3565b98975050505050505050565b6000818311610fa05781610817565b611b266040805160608101909152806000815260200160008152602001600081525090565b611b4b6040805160608101909152806000815260200160008152602001600081525090565b6000611b5785856116b8565b90506000611b66868684611df5565b9050600080611b7484611eec565b915091506040518060600160405280886002811115611b9557611b9561225f565b81526020018481526020018381525095506040518060600160405280886002811115611bc357611bc361225f565b8152602001848152602001828152509450505050509250929050565b600080611bf0838560000151611f9b565b90506000611c02828660400151611634565b905080600003611c1b576402540be4009250505061081a565b6020850151611c2d90612710836119ee565b95945050505050565b600080600080600080611cd5886001018054611c519061247f565b80601f0160208091040260200160405190810160405280929190818152602001828054611c7d9061247f565b8015611cca5780601f10611c9f57610100808354040283529160200191611cca565b820191906000526020600020905b815481529060010190602001808311611cad57829003601f168201915b50505050508861201b565b8a549295509093509150600160f01b900460ff1615611d1c578754600090611d0b90600160a81b900460ff166001838786612109565b9650919450849350611dee92505050565b6000806000611db78b6002018054611d339061247f565b80601f0160208091040260200160405190810160405280929190818152602001828054611d5f9061247f565b8015611dac5780601f10611d8157610100808354040283529160200191611dac565b820191906000526020600020905b815481529060010190602001808311611d8f57829003601f168201915b50505050508b61201b565b8d549295509093509150600090611ddb90600160a81b900460ff1685848a89612109565b9950949750909550611dee945050505050565b9250925092565b60006001836002811115611e0b57611e0b61225f565b03611e8457835460408051634ac8eb5f60e01b815290516001600160a01b0390921691634ac8eb5f916004808201926020929091908290030181865afa158015611e59573d6000803e3d6000fd5b505050506040513d601f19601f82011682018060405250810190611e7d919061231e565b9050610be1565b81546001600160a01b03166370a08231600080516020612556833981519152861860401c6040516001600160e01b031960e084901b1681526001600160a01b039091166004820152602401602060405180830381865afa158015611e59573d6000803e3d6000fd5b600080600080516020612536833981519152818080611f0b8782611c36565b9250925092506000806000611f218a6001611c36565b60108a015492955090935091506000908590611f4d90600160c01b90046001600160401b0316846122d3565b10158015611f7a575060108801548690611f7790600160c01b90046001600160401b0316856122d3565b10155b905086995080611f8a5786611f8c565b835b98505050505050505050915091565b6000806001836002811115611fb257611fb261225f565b14611fd1576005840154600160801b90046001600160401b0316611fe7565b6005840154600160c01b90046001600160401b03165b60058501546001600160401b03918216925082916120119180821691600160401b909104166122d3565b6101ab91906122d3565b7f4f24f5c433db0962dac0d2c8b84197a6e6c7cc4e5d9ebe1916a1b6193da2f3445460009081908190600080516020612536833981519152906001600160a01b031685156120dd5760405163e4a0a55b60e01b81526001600160a01b0382169063e4a0a55b9061208f908a906004016124b9565b606060405180830381865afa1580156120ac573d6000803e3d6000fd5b505050506040513d601f19601f820116820180604052508101906120d09190612507565b9450945094505050611dee565b60405163524f388960e01b81526001600160a01b0382169063524f38899061208f908a906004016124b9565b6000600080516020612536833981519152816009612127878a6122d3565b61213191906122d3565b600a830154909150600090612151908690600160a81b900460ff166122d3565b905080821015612163576121636122e6565b61218361217082846122aa565b61217b90600a61241e565b87908a6119ee565b9998505050505050505050565b600080604083850312156121a357600080fd5b50508035926020909101359150565b6001600160a01b038116811461098557600080fd5b600080604083850312156121da57600080fd5b82356121e5816121b2565b915060208301356121f5816121b2565b809150509250929050565b6000806040838503121561221357600080fd5b823561221e816121b2565b946020939093013593505050565b634e487b7160e01b600052603260045260246000fd5b60006020828403121561225457600080fd5b8151610be1816121b2565b634e487b7160e01b600052602160045260246000fd5b634e487b7160e01b600052601160045260246000fd5b6001600160401b03818116838216019081111561081a5761081a612275565b8181038181111561081a5761081a612275565b634e487b7160e01b600052604160045260246000fd5b8082018082111561081a5761081a612275565b634e487b7160e01b600052600160045260246000fd5b60006020828403121561230e57600080fd5b81518015158114610be157600080fd5b60006020828403121561233057600080fd5b5051919050565b6001815b60018411156123725780850481111561235657612356612275565b600184161561236457908102905b60019390931c92800261233b565b935093915050565b6000826123895750600161081a565b816123965750600061081a565b81600181146123ac57600281146123b6576123d2565b600191505061081a565b60ff8411156123c7576123c7612275565b50506001821b61081a565b5060208310610133831016604e8410600b84101617156123f5575081810a61081a565b6124026000198484612337565b806000190482111561241657612416612275565b029392505050565b6000610817838361237a565b634e487b7160e01b600052601260045260246000fd5b60008261244f5761244f61242a565b500490565b6000826124635761246361242a565b500690565b808202811582820484141761081a5761081a612275565b600181811c9082168061249357607f821691505b6020821081036124b357634e487b7160e01b600052602260045260246000fd5b50919050565b602081526000825180602084015260005b818110156124e757602081860181015160408684010152016124ca565b506000604082850101526040601f19601f83011684010191505092915050565b60008060006060848603121561251c57600080fd5b505081516020830151604090930151909492935091905056fe4f24f5c433db0962dac0d2c8b84197a6e6c7cc4e5d9ebe1916a1b6193da2f33a5bebac0595fee029d42bb673937f5f1cb81cf8641382bc17774635de9b7d7965ec7e8c1c441439dd40959777f4c577ea0cd42fcc1dbe59d2bd0f5d9c55df8db6a2646970667358221220a7a6c21060b8f991aa9df47ca52b24d79f12f49f8dde59240435002e140d3a4c64736f6c634300081b0033",
  "linkReferences": {},
  "deployedLinkReferences": {}
}