{
  "_format": "hh-sol-artifact-1",
  "contractName": "AgentCollateralFacet",
  "sourceName": "contracts/assetManager/facets/AgentCollateralFacet.sol",
  "abi": [
    {
      "anonymous": false,
      "inputs": [
        {
          "indexed": true,
          "internalType": "address",
          "name": "agentVault",
          "type": "address"
        },
        {
          "indexed": false,
          "internalType": "uint8",
          "name": "collateralClass",
          "type": "uint8"
        },
        {
          "indexed": false,
          "internalType": "address",
          "name": "token",
          "type": "address"
        }
      ],
      "name": "AgentCollateralTypeChanged",
      "type": "event"
    },
    {
      "anonymous": false,
      "inputs": [
        {
          "indexed": true,
          "internalType": "address",
          "name": "agentVault",
          "type": "address"
        }
      ],
      "name": "LiquidationEnded",
      "type": "event"
    },
    {
      "anonymous": false,
      "inputs": [
        {
          "indexed": true,
          "internalType": "address",
          "name": "agentVault",
          "type": "address"
        },
        {
          "indexed": false,
          "internalType": "uint256",
          "name": "amountWei",
          "type": "uint256"
        },
        {
          "indexed": false,
          "internalType": "uint256",
          "name": "withdrawalAllowedAt",
          "type": "uint256"
        }
      ],
      "name": "PoolTokenRedemptionAnnounced",
      "type": "event"
    },
    {
      "anonymous": false,
      "inputs": [
        {
          "indexed": true,
          "internalType": "address",
          "name": "agentVault",
          "type": "address"
        },
        {
          "indexed": false,
          "internalType": "uint256",
          "name": "amountWei",
          "type": "uint256"
        },
        {
          "indexed": false,
          "internalType": "uint256",
          "name": "withdrawalAllowedAt",
          "type": "uint256"
        }
      ],
      "name": "VaultCollateralWithdrawalAnnounced",
      "type": "event"
    },
    {
      "inputs": [
        {
          "internalType": "address",
          "name": "_agentVault",
          "type": "address"
        },
        {
          "internalType": "uint256",
          "name": "_valueNATWei",
          "type": "uint256"
        }
      ],
      "name": "announceAgentPoolTokenRedemption",
      "outputs": [
        {
          "internalType": "uint256",
          "name": "_redemptionAllowedAt",
          "type": "uint256"
        }
      ],
      "stateMutability": "nonpayable",
      "type": "function"
    },
    {
      "inputs": [
        {
          "internalType": "address",
          "name": "_agentVault",
          "type": "address"
        },
        {
          "internalType": "uint256",
          "name": "_valueNATWei",
          "type": "uint256"
        }
      ],
      "name": "announceVaultCollateralWithdrawal",
      "outputs": [
        {
          "internalType": "uint256",
          "name": "_withdrawalAllowedAt",
          "type": "uint256"
        }
      ],
      "stateMutability": "nonpayable",
      "type": "function"
    },
    {
      "inputs": [
        {
          "internalType": "contract IERC20",
          "name": "_token",
          "type": "address"
        },
        {
          "internalType": "uint256",
          "name": "_valueNATWei",
          "type": "uint256"
        }
      ],
      "name": "beforeCollateralWithdrawal",
      "outputs": [],
      "stateMutability": "nonpayable",
      "type": "function"
    },
    {
      "inputs": [
        {
          "internalType": "address",
          "name": "_agentVault",
          "type": "address"
        }
      ],
      "name": "buybackAgentCollateral",
      "outputs": [],
      "stateMutability": "payable",
      "type": "function"
    },
    {
      "inputs": [
        {
          "internalType": "address",
          "name": "_agentVault",
          "type": "address"
        },
        {
          "internalType": "contract IERC20",
          "name": "_token",
          "type": "address"
        }
      ],
      "name": "switchVaultCollateral",
      "outputs": [],
      "stateMutability": "nonpayable",
      "type": "function"
    },
    {
      "inputs": [
        {
          "internalType": "address",
          "name": "_agentVault",
          "type": "address"
        },
        {
          "internalType": "contract IERC20",
          "name": "_token",
          "type": "address"
        }
      ],
      "name": "updateCollateral",
      "outputs": [],
      "stateMutability": "nonpayable",
      "type": "function"
    },
    {
      "inputs": [
        {
          "internalType": "address",
          "name": "_agentVault",
          "type": "address"
        }
      ],
      "name": "upgradeWNatContract",
      "outputs": [],
      "stateMutability": "nonpayable",
      "type": "function"
    }
  ],
  "bytecode": "0x608060405234801561001057600080fd5b506136fd806100206000396000f3fe6080604052600436106100705760003560e01c80637a2cf4121161004e5780637a2cf412146100e9578063b68af97e14610109578063d9d714631461011c578063f4d000b21461013c57600080fd5b806329ff1308146100755780632dabf2d014610097578063469052ad146100c9575b600080fd5b34801561008157600080fd5b506100956100903660046132ba565b61015c565b005b3480156100a357600080fd5b506100b76100b23660046132f3565b61016a565b60405190815260200160405180910390f35b3480156100d557600080fd5b506100956100e43660046132f3565b610181565b3480156100f557600080fd5b506100956101043660046132ba565b61018c565b61009561011736600461331f565b610196565b34801561012857600080fd5b506100b76101373660046132f3565b6101d3565b34801561014857600080fd5b5061009561015736600461331f565b6101e1565b61016682826101ea565b5050565b600061017860028484610285565b90505b92915050565b61016682338361054d565b610166828261092c565b61019e610a82565b6101a781610afb565b6101d060017f0cd2207518cd3e5213e2c6dbe63d55b60aa893c194a427b7d7f1600408fd5bde55565b50565b600061017860008484610285565b6101d081610d0e565b60006101f583610e82565b9050336001600160a01b0384161480610217575080546001600160a01b031633145b6102685760405162461bcd60e51b815260206004820152601860248201527f6f6e6c79206167656e74207661756c74206f7220706f6f6c000000000000000060448201526064015b60405180910390fd5b6102728183610f29565b156102805761028081610f73565b505050565b6000826102918161105f565b600061029c85610e82565b9050600160048083015460ff16908111156102b9576102b961333c565b14806102d457506102c9816110b6565b6001600160401b0316155b6103205760405162461bcd60e51b815260206004820152601e60248201527f7769746864726177616c20616e6e3a20696e76616c6964207374617475730000604482015260640161025f565b600061032c828861111c565b80549091506001600160801b031685111561042a57600080516020613688833981519152600061035c848a611169565b8354909150600090610377906001600160801b031689613368565b905061038382866111eb565b8111156103d25760405162461bcd60e51b815260206004820152601a60248201527f7769746864726177616c3a2076616c756520746f6f2068696768000000000000604482015260640161025f565b60108301546103fa906103f590600160801b90046001600160401b03164261337b565b611210565b84546001600160401b0391909116600160801b0267ffffffffffffffff60801b1990911617845550610445915050565b8460000361044557805467ffffffffffffffff60801b191681555b61044e8561127c565b81546001600160801b0319166001600160801b0391909116178155600087600281111561047d5761047d61333c565b036104dc57805460408051878152600160801b9092046001600160401b031660208301526001600160a01b038816917f67212b72b610c952a34bdd8a6e005684df8b1a31e96ba45ae1dbfb926e5447fa910160405180910390a2610532565b805460408051878152600160801b9092046001600160401b031660208301526001600160a01b038816917fd8af9ece0435675178bfc0aba18c040e3bd5ad88eabd3d313cd0b469a8e1d06b910160405180910390a25b54600160801b90046001600160401b03169695505050505050565b600061055883610e82565b90506000610565826112e5565b6001600160a01b0316856001600160a01b03160361058557506000610619565b8154604080516332f7ce0b60e21b815290516001600160a01b039092169163cbdf382c916004808201926020929091908290030181865afa1580156105ce573d6000803e3d6000fd5b505050506040513d601f19601f820116820180604052508101906105f2919061338e565b6001600160a01b0316856001600160a01b03160361061257506002610619565b5050505050565b6000610625838361111c565b905060006106338484611169565b9050600160048086015460ff16908111156106505761065061333c565b148061066b5750610660846110b6565b6001600160401b0316155b6106b75760405162461bcd60e51b815260206004820152601a60248201527f7769746864726177616c3a20696e76616c696420737461747573000000000000604482015260640161025f565b8154600160801b90046001600160401b03166000036107185760405162461bcd60e51b815260206004820152601960248201527f7769746864726177616c3a206e6f7420616e6e6f756e63656400000000000000604482015260640161025f565b81546001600160801b03168511156107725760405162461bcd60e51b815260206004820152601f60248201527f7769746864726177616c3a206d6f7265207468616e20616e6e6f756e63656400604482015260640161025f565b8154600160801b90046001600160401b03164210156107d35760405162461bcd60e51b815260206004820152601b60248201527f7769746864726177616c3a206e6f7420616c6c6f776564207965740000000000604482015260640161025f565b7f4f24f5c433db0962dac0d2c8b84197a6e6c7cc4e5d9ebe1916a1b6193da2f34d5482546000805160206136888339815191529161082c91600160c01b9091046001600160401b0390811691600160801b9004166133ab565b6001600160401b031642111561087b5760405162461bcd60e51b81526020600482015260146024820152737769746864726177616c3a20746f6f206c61746560601b604482015260640161025f565b602082015161088a838761133d565b11156108d15760405162461bcd60e51b81526020600482015260166024820152757769746864726177616c3a20435220746f6f206c6f7760501b604482015260640161025f565b82546000906108ea9088906001600160801b0316613368565b84546001600160801b0319166001600160801b0382161785559050600081900361092157835467ffffffffffffffff60801b191684555b505050505050505050565b816109368161105f565b600061094184610e82565b9050600061094e82611467565b8054909150600160b01b90046001600160401b03166000036109bc5760405162461bcd60e51b815260206004820152602160248201527f63757272656e7420636f6c6c61746572616c206e6f74206465707265636174656044820152601960fa1b606482015260840161025f565b60006109c8838261111c565b8054909150600160801b90046001600160401b031615610a2a5760405162461bcd60e51b815260206004820152601f60248201527f636f6c6c61746572616c207769746864726177616c20616e6e6f756e63656400604482015260640161025f565b610a3483866114b4565b60408051600281526001600160a01b0387811660208301528816917f88b6ac79ad99776ae32e236db624ff70afc6aedfaa56430d9924c5165ceadef6910160405180910390a2505050505050565b7f0cd2207518cd3e5213e2c6dbe63d55b60aa893c194a427b7d7f1600408fd5bde805460011901610af55760405162461bcd60e51b815260206004820152601f60248201527f5265656e7472616e637947756172643a207265656e7472616e742063616c6c00604482015260640161025f565b60029055565b80610b058161105f565b6000805160206136a88339815191526000610b1f84610e82565b9050610b527f4f24f5c433db0962dac0d2c8b84197a6e6c7cc4e5d9ebe1916a1b6193da2f33b546001600160a01b031690565b6001600160a01b031663194307bf6040518163ffffffff1660e01b8152600401602060405180830381865afa158015610b8f573d6000803e3d6000fd5b505050506040513d601f19601f82011682018060405250810190610bb391906133cb565b610bf85760405162461bcd60e51b8152602060048201526016602482015275198b585cdcd95d081b9bdd081d195c9b5a5b985d195960521b604482015260640161025f565b6005810154600090610c1c906001600160401b03600160401b8204811691166133ab565b90506000610c2983611467565b90506000610c368261161c565b90506000610c75600080516020613688833981519152601101546001600160401b03600160c01b909104811690610c6f90871685611632565b9061164c565b9050610c81858261165b565b6005850154610ca1908690600160401b90046001600160401b0316611835565b6005850154600e870180546001600160401b0392831692601891610cce918591600160c01b9004166133ed565b82546001600160401b039182166101009390930a92830291909202199091161790555050506005909201805467ffffffffffffffff191690555050505050565b80610d188161105f565b6000610d2383610e82565b7fec7e8c1c441439dd40959777f4c577ea0cd42fcc1dbe59d2bd0f5d9c55df8dc5546000805160206136a8833981519152805492935091600091839161ffff909116908110610d7457610d7461340d565b6000918252602090912060049182020154600f840154918501546001600160a01b0390911692506301000000900461ffff90811691161461061257600f8201546004848101805464ffff000000191661ffff909316630100000002929092179091558354604051637a68005960e11b81526001600160a01b038481169382019390935291169063f4d000b290602401600060405180830381600087803b158015610e1d57600080fd5b505af1158015610e31573d6000803e3d6000fd5b505060408051600181526001600160a01b038581166020830152891693507f88b6ac79ad99776ae32e236db624ff70afc6aedfaa56430d9924c5165ceadef692500160405180910390a25050505050565b7f5bebac0595fee029d42bb673937f5f1cb81cf8641382bc17774635de9b7d796568010000000000000000600160e01b03604083901b161880600060048084015460ff1690811115610ed657610ed661333c565b03610f235760405162461bcd60e51b815260206004820152601b60248201527f696e76616c6964206167656e74207661756c7420616464726573730000000000604482015260640161025f565b50919050565b6000610f34836118ce565b6001600160a01b0316826001600160a01b031614806101785750610f57836112e5565b6001600160a01b0316826001600160a01b031614905092915050565b600260048083015460ff1690811115610f8e57610f8e61333c565b14610f965750565b6000610fa182611907565b90506000610fae8361197b565b90506000610fbe84836000611a58565b90506000610fce85846001611a58565b905081846000015110158015610fe8575080846020015110155b15610612576004850180547fff00000000000000000000ffffffffffffffffffffffffffffffffffffffff0016600117905561102385611abf565b6001600160a01b03167fe513b42585b0ceec0d56d56fe3a23861c15a2f74eb4c32c94334d63d68ff4dcf60405160405180910390a25050505050565b61107161106b82610e82565b33611ae7565b6101d05760405162461bcd60e51b815260206004820152601660248201527537b7363c9030b3b2b73a103b30bab63a1037bbb732b960511b604482015260640161025f565b60058101546000906001600160401b03600160801b82048116600160c01b9092041611156110e6576110e6613423565b60058201546001600160401b03600160801b82048116916111129180821691600160401b9004166133ab565b61017b91906133ab565b600060018260028111156111325761113261333c565b0361113f5761113f613423565b60008260028111156111535761115361333c565b146111615782600901610178565b505060080190565b61118e6040805160608101909152806000815260200160008152602001600081525090565b60008260028111156111a2576111a261333c565b036111b7576111b083611bb9565b905061017b565b60018260028111156111cb576111cb61333c565b036111d9576111b083611c99565b6111b0836111e685611c99565b611d24565b6000806111f8848461133d565b9050611208846020015182611ef3565b949350505050565b60006001600160401b038211156112785760405162461bcd60e51b815260206004820152602660248201527f53616665436173743a2076616c756520646f65736e27742066697420696e203660448201526534206269747360d01b606482015260840161025f565b5090565b60006001600160801b038211156112785760405162461bcd60e51b815260206004820152602760248201527f53616665436173743a2076616c756520646f65736e27742066697420696e20316044820152663238206269747360c81b606482015260840161025f565b6000806000805160206136a883398151915260048401548154919250829161010090910461ffff1690811061131c5761131c61340d565b60009182526020909120600490910201546001600160a01b03169392505050565b6000806000611350848660000151611f0d565b60058601549193509150600090611379906001600160401b03600160401b82048116911661337b565b9050600061138f84610c6f848a60400151611632565b905060006001885160028111156113a8576113a861333c565b146113c7576005870154600160801b90046001600160401b03166113dd565b6005870154600160c01b90046001600160401b03165b905060006113fc85610c6f846001600160401b03168c60400151611632565b9050600060018a5160028111156114155761141561333c565b03611421576000611439565b895161142e908a9061111c565b546001600160801b03165b6001600160801b031690508061144f838661337b565b611459919061337b565b9a9950505050505050505050565b6000806000805160206136a883398151915260048401548154919250829161010090910461ffff1690811061149e5761149e61340d565b9060005260206000209060040201915050919050565b6000805160206136a883398151915260006114d0600284611fe9565b905060008260000182815481106114e9576114e961340d565b60009182526020909120600490910201905060028154600160a01b900460ff16600281111561151a5761151a61333c565b1461152757611527613423565b8054600160b01b90046001600160401b03161561157e5760405162461bcd60e51b815260206004820152601560248201527418dbdb1b185d195c985b0819195c1c9958d85d1959605a1b604482015260640161025f565b61158782612083565b8560040160016101000a81548161ffff021916908361ffff16021790555060006115b086611bb9565b905060006115be82886120e6565b600384015490915063ffffffff168110156116135760405162461bcd60e51b81526020600482015260156024820152741b9bdd08195b9bdd59da0818dbdb1b185d195c985b605a1b604482015260640161025f565b50505050505050565b60006116298260006121b1565b50909392505050565b6000610178826116446009600a61351d565b859190612370565b60006101788383612710612370565b600061166683611467565b9050600061167384612496565b805483549192506001600160a01b0390811691160361169b5761169684846124cf565b61182f565b60008051602061368883398151915260006116b586611abf565b60128301549091506000906116dc90600160801b900463ffffffff16610c6f888888612574565b8554600189015460405163083e007560e21b81526001600160a01b0392831660048201529082166024820152604481018990529192508316906320f801d490606401600060405180830381600087803b15801561173857600080fd5b505af115801561174c573d6000803e3d6000fd5b50505050803410156117a05760405162461bcd60e51b815260206004820152601960248201527f6e6f7420656e6f7567682066756e64732070726f766964656400000000000000604482015260640161025f565b6117a98161259a565b80341115611613576001600160a01b03821663677fa2326117ca8334613368565b6117d2612601565b6040516001600160e01b031960e085901b1681526001600160a01b0390911660048201526024016000604051808303818588803b15801561181257600080fd5b505af1158015611826573d6000803e3d6000fd5b50505050505050505b50505050565b6118808260050160089054906101000a90046001600160401b031682604051806040016040528060118152602001701b9bdd08195b9bdd59da081b5a5b9d1959607a1b81525061266e565b8260050160086101000a8154816001600160401b0302191690836001600160401b031602179055506101666118b483611abf565b6005840154600160401b90046001600160401b03166126b9565b6000806000805160206136a8833981519152600484015481549192508291630100000090910461ffff1690811061131c5761131c61340d565b6119326040518060800160405280600081526020016000815260200160008152602001600081525090565b600080611940846000612705565b91509150600080611952866001612705565b604080516080810182529687526020870192909252908501939093525050606082015292915050565b600080600080516020613688833981519152600484015490915060ff1660028160048111156119ac576119ac61333c565b03611a2b57600060016004860154600160e81b900460ff1660028111156119d5576119d561333c565b148015611a11575060118301546004860154611a04916001600160401b0390811691600160a81b9004166133ab565b6001600160401b03164211155b905080611a1f576002611a22565b60015b95945050505050565b6003816004811115611a3f57611a3f61333c565b03611a4e575060029392505050565b5060009392505050565b600080611a658584612753565b90506001846002811115611a7b57611a7b61333c565b1480611a8e5750611a8c85846127ff565b155b15611aa4576003015463ffffffff169050611ab8565b60030154600160401b900463ffffffff1690505b9392505050565b7f5bebac0595fee029d42bb673937f5f1cb81cf8641382bc17774635de9b7d79651860401c90565b60018201546000906001600160a01b0390811690831681148061120857507f4f24f5c433db0962dac0d2c8b84197a6e6c7cc4e5d9ebe1916a1b6193da2f341546001600160a01b0316604051631f86345d60e31b81526001600160a01b038381166004830152919091169063fc31a2e890602401602060405180830381865afa158015611b78573d6000803e3d6000fd5b505050506040513d601f19601f82011682018060405250810190611b9c919061338e565b6001600160a01b0316836001600160a01b03161491505092915050565b611bde6040805160608101909152806000815260200160008152602001600081525090565b6000611be983611467565b60408051606081019091526000815281549192509060208201906001600160a01b03166370a08231611c1a87611abf565b6040516001600160e01b031960e084901b1681526001600160a01b039091166004820152602401602060405180830381865afa158015611c5e573d6000803e3d6000fd5b505050506040513d601f19601f82011682018060405250810190611c829190613529565b8152602001611c908361161c565b90529392505050565b611cbe6040805160608101909152806000815260200160008152602001600081525090565b6000611cc983612496565b604080516060810182526001815285548251634ac8eb5f60e01b8152925193945090926020808501936001600160a01b0390931692634ac8eb5f92600480830193928290030181865afa158015611c5e573d6000803e3d6000fd5b611d496040805160608101909152806000815260200160008152602001600081525090565b8254604080516332f7ce0b60e21b815290516000926001600160a01b03169163cbdf382c9160048083019260209291908290030181865afa158015611d92573d6000803e3d6000fd5b505050506040513d601f19601f82011682018060405250810190611db6919061338e565b90506000816001600160a01b03166370a08231611dd287611abf565b6040516001600160e01b031960e084901b1681526001600160a01b039091166004820152602401602060405180830381865afa158015611e16573d6000803e3d6000fd5b505050506040513d601f19601f82011682018060405250810190611e3a9190613529565b90506000826001600160a01b03166318160ddd6040518163ffffffff1660e01b8152600401602060405180830381865afa158015611e7c573d6000803e3d6000fd5b505050506040513d601f19601f82011682018060405250810190611ea09190613529565b905060008560200151600003611eba578560400151611ecf565b60208601516040870151611ecf918490612370565b60408051606081018252600281526020810195909552840152509095945050505050565b6000818311611f03576000610178565b6101788284613368565b6000806002836002811115611f2457611f2461333c565b03611f615750507f4f24f5c433db0962dac0d2c8b84197a6e6c7cc4e5d9ebe1916a1b6193da2f34654640100000000900463ffffffff1680611fe2565b6001836002811115611f7557611f7561333c565b03611fb057611f8384612496565b60030154600485015463ffffffff9182169250611fa991600160881b9091041682612868565b9150611fe2565b611fb984611467565b60030154600485015463ffffffff9182169250611fdf91600160681b9091041682612868565b91505b9250929050565b60006000805160206136a8833981519152817fec7e8c1c441439dd40959777f4c577ea0cd42fcc1dbe59d2bd0f5d9c55df8db781612027878761287e565b8152602001908152602001600020549050600081116120785760405162461bcd60e51b815260206004820152600d60248201526c3ab735b737bbb7103a37b5b2b760991b604482015260640161025f565b611a22600182613368565b600061ffff8211156112785760405162461bcd60e51b815260206004820152602660248201527f53616665436173743a2076616c756520646f65736e27742066697420696e203160448201526536206269747360d01b606482015260840161025f565b6000806001845160028111156120fe576120fe61333c565b1461211d576005830154600160801b90046001600160401b0316612133565b6005830154600160c01b90046001600160401b03165b60058401546001600160401b039182169250600091839161215f9181811691600160401b90041661337b565b612169919061337b565b9050600061217b828760400151611632565b905080600003612195576402540be400935050505061017b565b60208601516121a79061271083612370565b9695505050505050565b6000806000806000806122508860010180546121cc90613542565b80601f01602080910402602001604051908101604052809291908181526020018280546121f890613542565b80156122455780601f1061221a57610100808354040283529160200191612245565b820191906000526020600020905b81548152906001019060200180831161222857829003601f168201915b5050505050886128a8565b8a549295509093509150600160f01b900460ff161561229757875460009061228690600160a81b900460ff166001838786612996565b965091945084935061236992505050565b60008060006123328b60020180546122ae90613542565b80601f01602080910402602001604051908101604052809291908181526020018280546122da90613542565b80156123275780601f106122fc57610100808354040283529160200191612327565b820191906000526020600020905b81548152906001019060200180831161230a57829003601f168201915b50505050508b6128a8565b8d54929550909350915060009061235690600160a81b900460ff1685848a89612996565b9950949750909550612369945050505050565b9250925092565b60008082116123b45760405162461bcd60e51b815260206004820152601060248201526f4469766973696f6e206279207a65726f60801b604482015260640161025f565b836000036123c457506000611ab8565b838302838582816123d7576123d7613576565b04036123f5578281816123ec576123ec613576565b04915050611ab8565b506000612402838661358c565b9050600061241084876135a0565b9050600061241e858761358c565b9050600061242c86886135a0565b90508561243982856135b4565b612443919061358c565b61244d83856135b4565b61245783876135b4565b8861246286896135b4565b61246c91906135b4565b612476919061337b565b612480919061337b565b61248a919061337b565b98975050505050505050565b6000806000805160206136a8833981519152600484015481549192508291630100000090910461ffff1690811061149e5761149e61340d565b60008051602061368883398151915260006124e984611abf565b9050806001600160a01b031663648d0878612502612601565b600985015460405160e084901b6001600160e01b03191681526001600160a01b0392831660048201529116602482015260448101869052606401600060405180830381600087803b15801561255657600080fd5b505af115801561256a573d6000803e3d6000fd5b5050505050505050565b6000806125808361161c565b9050600061258d8561161c565b90506121a7868383612370565b7f4f24f5c433db0962dac0d2c8b84197a6e6c7cc4e5d9ebe1916a1b6193da2f34354604051600080516020613688833981519152916001600160a01b0316906108fc8415029084906000818181858888f19350505050158015610280573d6000803e3d6000fd5b7fec7e8c1c441439dd40959777f4c577ea0cd42fcc1dbe59d2bd0f5d9c55df8dc5546000805160206136a88339815191528054600092829161ffff90911690811061264e5761264e61340d565b60009182526020909120600490910201546001600160a01b031692915050565b6000826001600160401b0316846001600160401b0316101582906126a55760405162461bcd60e51b815260040161025f91906135cb565b5050506001600160401b0390811691160390565b7f341c6685fdb8ed7133465b64f545b9fbc5699a59cbd1ad98992e5c070a74c5106102807f341c6685fdb8ed7133465b64f545b9fbc5699a59cbd1ad98992e5c070a74c5118484612a1d565b6000806000806127158686612a8e565b91509150600061272583886120e6565b9050600061273383896120e6565b9050836040015194506127468282612868565b9550505050509250929050565b600060028260028111156127695761276961333c565b0361277657612776613423565b6000805160206136a883398151915260008360028111156127995761279961333c565b036127d557600484015481548291610100900461ffff169081106127bf576127bf61340d565b906000526020600020906004020191505061017b565b6004840154815482916301000000900461ffff169081106127bf576127bf61340d565b5092915050565b6000808260028111156128145761281461333c565b0361283057506004820154600160f01b9004600116151561017b565b60018260028111156128445761284461333c565b1461285157612851613423565b506004820154600160f01b9004600216151561017b565b60008183116128775781610178565b5090919050565b6000816001600160a01b031660a084600281111561289e5761289e61333c565b901b179392505050565b7f4f24f5c433db0962dac0d2c8b84197a6e6c7cc4e5d9ebe1916a1b6193da2f3445460009081908190600080516020613688833981519152906001600160a01b0316851561296a5760405163e4a0a55b60e01b81526001600160a01b0382169063e4a0a55b9061291c908a906004016135cb565b606060405180830381865afa158015612939573d6000803e3d6000fd5b505050506040513d601f19601f8201168201806040525081019061295d919061361a565b9450945094505050612369565b60405163524f388960e01b81526001600160a01b0382169063524f38899061291c908a906004016135cb565b60006000805160206136888339815191528160096129b4878a61337b565b6129be919061337b565b600a8301549091506000906129de908690600160a81b900460ff1661337b565b9050808210156129f0576129f0613423565b612a106129fd8284613368565b612a0890600a61351d565b87908a612370565b9998505050505050505050565b6001600160a01b0382166000908152600484016020526040812090612a4182612b6c565b90506000612a4e86612b6c565b9050612a5b834286612c07565b612a7c4283612a6a87856133ab565b612a7491906133ed565b889190612c07565b612a868684612f78565b505050505050565b612ab36040805160608101909152806000815260200160008152602001600081525090565b612ad86040805160608101909152806000815260200160008152602001600081525090565b6000612ae48585612753565b90506000612af3868684612fb5565b9050600080612b01846130b6565b915091506040518060600160405280886002811115612b2257612b2261333c565b81526020018481526020018381525095506040518060600160405280886002811115612b5057612b5061333c565b8152602001848152602001828152509450505050509250929050565b6001810154600090600160401b90046001600160401b03168103612b9257506000919050565b60018201546001600160401b03808216600160401b9092041611612bb857612bb8613423565b6001828101548391600091612bdd9190600160401b90046001600160401b03166133ed565b6001600160401b039081168252602082019290925260400160002054600160c01b90041692915050565b6001830154600160401b90046001600160401b0316600003612d265760018301546001600160401b031615612c3e57612c3e613423565b604051806060016040528060006001600160801b03168152602001612c6284611210565b6001600160401b0390811682528381166020909201919091526001850180548692600092600160401b90920416906008612c9b83613648565b82546001600160401b039182166101009390930a92830292820219169190911790915590811682526020808301939093526040918201600020845181549486015195909301518216600160c01b026001600160c01b0395909216600160801b026001600160c01b03199094166001600160801b03909316929092179290921792909216179055505050565b60018301546001600160401b03808216600160401b9092041611612d4c57612d4c613423565b60018381015460009185918391612d7291600160401b90046001600160401b03166133ed565b6001600160401b03908116825260208201929092526040016000208054909250600160801b900416839003612dc45780546001600160c01b0316600160c01b6001600160401b0384160217815561182f565b8054600160801b90046001600160401b03168311612e355760405162461bcd60e51b815260206004820152602860248201527f54696d6543756d756c61746976653a2074696d657374616d70206e6f7420696e6044820152676372656173696e6760c01b606482015260840161025f565b8054600090612e5490600160801b90046001600160401b031685613368565b8254612e709190600160c01b90046001600160401b03166135b4565b8254612e8591906001600160801b031661337b565b90506040518060600160405280612e9b8361127c565b6001600160801b03168152602001612eb286611210565b6001600160401b0390811682528581166020909201919091526001870180548892600092600160401b90920416906008612eeb83613648565b82546001600160401b039182166101009390930a92830292820219169190911790915590811682526020808301939093526040918201600020845181549486015195909301518216600160c01b026001600160c01b0395909216600160801b026001600160c01b03199094166001600160801b039093169290921792909217929092161790555050505050565b6003820154600090612f9b908490600160c01b90046001600160401b0316613165565b9050612fa9828260026131a0565b610280838260026131a0565b6000612fc082613271565b612fcc57506000611ab8565b6001836002811115612fe057612fe061333c565b0361305957835460408051634ac8eb5f60e01b815290516001600160a01b0390921691634ac8eb5f916004808201926020929091908290030181865afa15801561302e573d6000803e3d6000fd5b505050506040513d601f19601f820116820180604052508101906130529190613529565b9050611ab8565b81546001600160a01b03166370a0823161307286611abf565b6040516001600160e01b031960e084901b1681526001600160a01b039091166004820152602401602060405180830381865afa15801561302e573d6000803e3d6000fd5b6000806000805160206136888339815191528180806130d587826121b1565b92509250925060008060006130eb8a60016121b1565b60108a01549295509093509150600090859061311790600160c01b90046001600160401b03168461337b565b1015801561314457506010880154869061314190600160c01b90046001600160401b03168561337b565b10155b9050869950806131545786613156565b835b98505050505050505050915091565b6003820154600090613188908390600160401b90046001600160401b03166135b4565b600384015461017891906001600160401b031661337b565b60018301546001600160401b0380821691600160401b90041660005b83811080156131d45750816131d284600161337b565b105b801561320d5750848660006131ea86600161337b565b8152602081019190915260400160002054600160801b90046001600160401b0316105b1561323c5760008381526020879052604081205561322a8361366e565b92506132358161366e565b90506131bc565b61324583611210565b600196909601805467ffffffffffffffff19166001600160401b03909716969096179095555050505050565b8054600090600160b01b90046001600160401b0316158061017b5750505442600160b01b9091046001600160401b03161190565b6001600160a01b03811681146101d057600080fd5b600080604083850312156132cd57600080fd5b82356132d8816132a5565b915060208301356132e8816132a5565b809150509250929050565b6000806040838503121561330657600080fd5b8235613311816132a5565b946020939093013593505050565b60006020828403121561333157600080fd5b8135611ab8816132a5565b634e487b7160e01b600052602160045260246000fd5b634e487b7160e01b600052601160045260246000fd5b8181038181111561017b5761017b613352565b8082018082111561017b5761017b613352565b6000602082840312156133a057600080fd5b8151611ab8816132a5565b6001600160401b038181168382160190808211156127f8576127f8613352565b6000602082840312156133dd57600080fd5b81518015158114611ab857600080fd5b6001600160401b038281168282160390808211156127f8576127f8613352565b634e487b7160e01b600052603260045260246000fd5b634e487b7160e01b600052600160045260246000fd5b600181815b8085111561347457816000190482111561345a5761345a613352565b8085161561346757918102915b93841c939080029061343e565b509250929050565b60008261348b5750600161017b565b816134985750600061017b565b81600181146134ae57600281146134b8576134d4565b600191505061017b565b60ff8411156134c9576134c9613352565b50506001821b61017b565b5060208310610133831016604e8410600b84101617156134f7575081810a61017b565b6135018383613439565b806000190482111561351557613515613352565b029392505050565b6000610178838361347c565b60006020828403121561353b57600080fd5b5051919050565b600181811c9082168061355657607f821691505b602082108103610f2357634e487b7160e01b600052602260045260246000fd5b634e487b7160e01b600052601260045260246000fd5b60008261359b5761359b613576565b500490565b6000826135af576135af613576565b500690565b808202811582820484141761017b5761017b613352565b60006020808352835180602085015260005b818110156135f9578581018301518582016040015282016135dd565b506000604082860101526040601f19601f8301168501019250505092915050565b60008060006060848603121561362f57600080fd5b8351925060208401519150604084015190509250925092565b60006001600160401b0380831681810361366457613664613352565b6001019392505050565b60006001820161368057613680613352565b506001019056fe4f24f5c433db0962dac0d2c8b84197a6e6c7cc4e5d9ebe1916a1b6193da2f33aec7e8c1c441439dd40959777f4c577ea0cd42fcc1dbe59d2bd0f5d9c55df8db6a26469706673582212206104ce32a9d61871e9610e826cc0fef1c66d9cd3cc1a8aee600d631d422575a864736f6c63430008170033",
  "linkReferences": {},
  "deployedLinkReferences": {}
}