{
  "_format": "hh-sol-artifact-1",
  "contractName": "FtsoV2PriceStoreMock",
  "sourceName": "contracts/ftso/mock/FtsoV2PriceStoreMock.sol",
  "abi": [
    {
      "inputs": [],
      "name": "AUAddressZero",
      "type": "error"
    },
    {
      "inputs": [],
      "name": "AllPricesMustBeProvided",
      "type": "error"
    },
    {
      "inputs": [],
      "name": "AlreadyInProductionMode",
      "type": "error"
    },
    {
      "inputs": [],
      "name": "AlreadySubmitted",
      "type": "error"
    },
    {
      "inputs": [],
      "name": "DecimalsMismatch",
      "type": "error"
    },
    {
      "inputs": [],
      "name": "FeedIdMismatch",
      "type": "error"
    },
    {
      "inputs": [],
      "name": "GovernedAddressZero",
      "type": "error"
    },
    {
      "inputs": [],
      "name": "GovernedAlreadyInitialized",
      "type": "error"
    },
    {
      "inputs": [],
      "name": "InvalidStartTime",
      "type": "error"
    },
    {
      "inputs": [],
      "name": "LengthMismatch",
      "type": "error"
    },
    {
      "inputs": [],
      "name": "MaxSpreadTooBig",
      "type": "error"
    },
    {
      "inputs": [],
      "name": "MerkleProofInvalid",
      "type": "error"
    },
    {
      "inputs": [],
      "name": "OnlyAddressUpdater",
      "type": "error"
    },
    {
      "inputs": [],
      "name": "OnlyExecutor",
      "type": "error"
    },
    {
      "inputs": [],
      "name": "OnlyGovernance",
      "type": "error"
    },
    {
      "inputs": [],
      "name": "OnlyTrustedProvider",
      "type": "error"
    },
    {
      "inputs": [],
      "name": "PricesAlreadyPublished",
      "type": "error"
    },
    {
      "inputs": [],
      "name": "SubmissionWindowClosed",
      "type": "error"
    },
    {
      "inputs": [],
      "name": "SubmissionWindowNotClosed",
      "type": "error"
    },
    {
      "inputs": [],
      "name": "SymbolNotSupported",
      "type": "error"
    },
    {
      "inputs": [],
      "name": "ThresholdTooHigh",
      "type": "error"
    },
    {
      "inputs": [],
      "name": "TimelockInvalidSelector",
      "type": "error"
    },
    {
      "inputs": [],
      "name": "TimelockNotAllowedYet",
      "type": "error"
    },
    {
      "inputs": [],
      "name": "TooManyTrustedProviders",
      "type": "error"
    },
    {
      "inputs": [],
      "name": "ValueMustBeNonNegative",
      "type": "error"
    },
    {
      "inputs": [],
      "name": "VotingEpochDurationTooShort",
      "type": "error"
    },
    {
      "inputs": [],
      "name": "VotingRoundIdMismatch",
      "type": "error"
    },
    {
      "inputs": [],
      "name": "WrongNumberOfProofs",
      "type": "error"
    },
    {
      "anonymous": false,
      "inputs": [
        {
          "indexed": false,
          "internalType": "address",
          "name": "previousAdmin",
          "type": "address"
        },
        {
          "indexed": false,
          "internalType": "address",
          "name": "newAdmin",
          "type": "address"
        }
      ],
      "name": "AdminChanged",
      "type": "event"
    },
    {
      "anonymous": false,
      "inputs": [
        {
          "indexed": true,
          "internalType": "address",
          "name": "beacon",
          "type": "address"
        }
      ],
      "name": "BeaconUpgraded",
      "type": "event"
    },
    {
      "anonymous": false,
      "inputs": [
        {
          "indexed": false,
          "internalType": "bytes",
          "name": "encodedCall",
          "type": "bytes"
        },
        {
          "indexed": false,
          "internalType": "bytes32",
          "name": "encodedCallHash",
          "type": "bytes32"
        },
        {
          "indexed": false,
          "internalType": "uint256",
          "name": "allowedAfterTimestamp",
          "type": "uint256"
        }
      ],
      "name": "GovernanceCallTimelocked",
      "type": "event"
    },
    {
      "anonymous": false,
      "inputs": [
        {
          "indexed": false,
          "internalType": "address",
          "name": "initialGovernance",
          "type": "address"
        }
      ],
      "name": "GovernanceInitialised",
      "type": "event"
    },
    {
      "anonymous": false,
      "inputs": [
        {
          "indexed": false,
          "internalType": "address",
          "name": "governanceSettings",
          "type": "address"
        }
      ],
      "name": "GovernedProductionModeEntered",
      "type": "event"
    },
    {
      "anonymous": false,
      "inputs": [
        {
          "indexed": true,
          "internalType": "uint32",
          "name": "votingRoundId",
          "type": "uint32"
        }
      ],
      "name": "PricesPublished",
      "type": "event"
    },
    {
      "anonymous": false,
      "inputs": [
        {
          "indexed": false,
          "internalType": "bytes32",
          "name": "encodedCallHash",
          "type": "bytes32"
        }
      ],
      "name": "TimelockedGovernanceCallCanceled",
      "type": "event"
    },
    {
      "anonymous": false,
      "inputs": [
        {
          "indexed": false,
          "internalType": "bytes32",
          "name": "encodedCallHash",
          "type": "bytes32"
        }
      ],
      "name": "TimelockedGovernanceCallExecuted",
      "type": "event"
    },
    {
      "anonymous": false,
      "inputs": [
        {
          "indexed": true,
          "internalType": "address",
          "name": "implementation",
          "type": "address"
        }
      ],
      "name": "Upgraded",
      "type": "event"
    },
    {
      "inputs": [
        {
          "internalType": "bytes21",
          "name": "_feedId",
          "type": "bytes21"
        },
        {
          "internalType": "string",
          "name": "_symbol",
          "type": "string"
        }
      ],
      "name": "addFeed",
      "outputs": [],
      "stateMutability": "nonpayable",
      "type": "function"
    },
    {
      "inputs": [
        {
          "internalType": "bytes",
          "name": "_encodedCall",
          "type": "bytes"
        }
      ],
      "name": "cancelGovernanceCall",
      "outputs": [],
      "stateMutability": "nonpayable",
      "type": "function"
    },
    {
      "inputs": [
        {
          "internalType": "bytes",
          "name": "_encodedCall",
          "type": "bytes"
        }
      ],
      "name": "executeGovernanceCall",
      "outputs": [],
      "stateMutability": "nonpayable",
      "type": "function"
    },
    {
      "inputs": [],
      "name": "finalizePrices",
      "outputs": [],
      "stateMutability": "nonpayable",
      "type": "function"
    },
    {
      "inputs": [],
      "name": "firstVotingRoundStartTs",
      "outputs": [
        {
          "internalType": "uint64",
          "name": "",
          "type": "uint64"
        }
      ],
      "stateMutability": "view",
      "type": "function"
    },
    {
      "inputs": [],
      "name": "ftsoProtocolId",
      "outputs": [
        {
          "internalType": "uint8",
          "name": "",
          "type": "uint8"
        }
      ],
      "stateMutability": "view",
      "type": "function"
    },
    {
      "inputs": [],
      "name": "getAddressUpdater",
      "outputs": [
        {
          "internalType": "address",
          "name": "_addressUpdater",
          "type": "address"
        }
      ],
      "stateMutability": "view",
      "type": "function"
    },
    {
      "inputs": [
        {
          "internalType": "string",
          "name": "_symbol",
          "type": "string"
        }
      ],
      "name": "getFeedId",
      "outputs": [
        {
          "internalType": "bytes21",
          "name": "",
          "type": "bytes21"
        }
      ],
      "stateMutability": "view",
      "type": "function"
    },
    {
      "inputs": [],
      "name": "getFeedIds",
      "outputs": [
        {
          "internalType": "bytes21[]",
          "name": "",
          "type": "bytes21[]"
        }
      ],
      "stateMutability": "view",
      "type": "function"
    },
    {
      "inputs": [],
      "name": "getFeedIdsWithDecimals",
      "outputs": [
        {
          "internalType": "bytes21[]",
          "name": "_feedIds",
          "type": "bytes21[]"
        },
        {
          "internalType": "int8[]",
          "name": "_decimals",
          "type": "int8[]"
        }
      ],
      "stateMutability": "view",
      "type": "function"
    },
    {
      "inputs": [
        {
          "internalType": "string",
          "name": "_symbol",
          "type": "string"
        }
      ],
      "name": "getPrice",
      "outputs": [
        {
          "internalType": "uint256",
          "name": "_price",
          "type": "uint256"
        },
        {
          "internalType": "uint256",
          "name": "_timestamp",
          "type": "uint256"
        },
        {
          "internalType": "uint256",
          "name": "_priceDecimals",
          "type": "uint256"
        }
      ],
      "stateMutability": "view",
      "type": "function"
    },
    {
      "inputs": [
        {
          "internalType": "string",
          "name": "_symbol",
          "type": "string"
        }
      ],
      "name": "getPriceFromTrustedProviders",
      "outputs": [
        {
          "internalType": "uint256",
          "name": "_price",
          "type": "uint256"
        },
        {
          "internalType": "uint256",
          "name": "_timestamp",
          "type": "uint256"
        },
        {
          "internalType": "uint256",
          "name": "_priceDecimals",
          "type": "uint256"
        }
      ],
      "stateMutability": "view",
      "type": "function"
    },
    {
      "inputs": [
        {
          "internalType": "string",
          "name": "_symbol",
          "type": "string"
        }
      ],
      "name": "getPriceFromTrustedProvidersWithQuality",
      "outputs": [
        {
          "internalType": "uint256",
          "name": "_price",
          "type": "uint256"
        },
        {
          "internalType": "uint256",
          "name": "_timestamp",
          "type": "uint256"
        },
        {
          "internalType": "uint256",
          "name": "_priceDecimals",
          "type": "uint256"
        },
        {
          "internalType": "uint8",
          "name": "_numberOfSubmits",
          "type": "uint8"
        }
      ],
      "stateMutability": "view",
      "type": "function"
    },
    {
      "inputs": [],
      "name": "getSymbols",
      "outputs": [
        {
          "internalType": "string[]",
          "name": "_symbols",
          "type": "string[]"
        }
      ],
      "stateMutability": "view",
      "type": "function"
    },
    {
      "inputs": [],
      "name": "getTrustedProviders",
      "outputs": [
        {
          "internalType": "address[]",
          "name": "",
          "type": "address[]"
        }
      ],
      "stateMutability": "view",
      "type": "function"
    },
    {
      "inputs": [],
      "name": "governance",
      "outputs": [
        {
          "internalType": "address",
          "name": "",
          "type": "address"
        }
      ],
      "stateMutability": "view",
      "type": "function"
    },
    {
      "inputs": [],
      "name": "governanceSettings",
      "outputs": [
        {
          "internalType": "contract IGovernanceSettings",
          "name": "",
          "type": "address"
        }
      ],
      "stateMutability": "view",
      "type": "function"
    },
    {
      "inputs": [
        {
          "internalType": "contract IGovernanceSettings",
          "name": "_governanceSettings",
          "type": "address"
        },
        {
          "internalType": "address",
          "name": "_initialGovernance",
          "type": "address"
        },
        {
          "internalType": "address",
          "name": "_addressUpdater",
          "type": "address"
        },
        {
          "internalType": "uint64",
          "name": "_firstVotingRoundStartTs",
          "type": "uint64"
        },
        {
          "internalType": "uint8",
          "name": "_votingEpochDurationSeconds",
          "type": "uint8"
        },
        {
          "internalType": "uint8",
          "name": "_ftsoProtocolId",
          "type": "uint8"
        }
      ],
      "name": "initialize",
      "outputs": [],
      "stateMutability": "nonpayable",
      "type": "function"
    },
    {
      "inputs": [
        {
          "internalType": "address",
          "name": "_address",
          "type": "address"
        }
      ],
      "name": "isExecutor",
      "outputs": [
        {
          "internalType": "bool",
          "name": "",
          "type": "bool"
        }
      ],
      "stateMutability": "view",
      "type": "function"
    },
    {
      "inputs": [],
      "name": "lastPublishedVotingRoundId",
      "outputs": [
        {
          "internalType": "uint32",
          "name": "",
          "type": "uint32"
        }
      ],
      "stateMutability": "view",
      "type": "function"
    },
    {
      "inputs": [],
      "name": "maxSpreadBIPS",
      "outputs": [
        {
          "internalType": "uint16",
          "name": "",
          "type": "uint16"
        }
      ],
      "stateMutability": "view",
      "type": "function"
    },
    {
      "inputs": [],
      "name": "productionMode",
      "outputs": [
        {
          "internalType": "bool",
          "name": "",
          "type": "bool"
        }
      ],
      "stateMutability": "view",
      "type": "function"
    },
    {
      "inputs": [],
      "name": "proxiableUUID",
      "outputs": [
        {
          "internalType": "bytes32",
          "name": "",
          "type": "bytes32"
        }
      ],
      "stateMutability": "view",
      "type": "function"
    },
    {
      "inputs": [
        {
          "components": [
            {
              "internalType": "bytes32[]",
              "name": "proof",
              "type": "bytes32[]"
            },
            {
              "components": [
                {
                  "internalType": "uint32",
                  "name": "votingRoundId",
                  "type": "uint32"
                },
                {
                  "internalType": "bytes21",
                  "name": "id",
                  "type": "bytes21"
                },
                {
                  "internalType": "int32",
                  "name": "value",
                  "type": "int32"
                },
                {
                  "internalType": "uint16",
                  "name": "turnoutBIPS",
                  "type": "uint16"
                },
                {
                  "internalType": "int8",
                  "name": "decimals",
                  "type": "int8"
                }
              ],
              "internalType": "struct IPricePublisher.Feed",
              "name": "body",
              "type": "tuple"
            }
          ],
          "internalType": "struct IPricePublisher.FeedWithProof[]",
          "name": "_proofs",
          "type": "tuple[]"
        }
      ],
      "name": "publishPrices",
      "outputs": [],
      "stateMutability": "nonpayable",
      "type": "function"
    },
    {
      "inputs": [],
      "name": "relay",
      "outputs": [
        {
          "internalType": "contract IRelay",
          "name": "",
          "type": "address"
        }
      ],
      "stateMutability": "view",
      "type": "function"
    },
    {
      "inputs": [
        {
          "internalType": "string",
          "name": "_symbol",
          "type": "string"
        },
        {
          "internalType": "uint256",
          "name": "_price",
          "type": "uint256"
        },
        {
          "internalType": "uint256",
          "name": "_ageSeconds",
          "type": "uint256"
        }
      ],
      "name": "setCurrentPrice",
      "outputs": [],
      "stateMutability": "nonpayable",
      "type": "function"
    },
    {
      "inputs": [
        {
          "internalType": "string",
          "name": "_symbol",
          "type": "string"
        },
        {
          "internalType": "uint256",
          "name": "_price",
          "type": "uint256"
        },
        {
          "internalType": "uint256",
          "name": "_ageSeconds",
          "type": "uint256"
        }
      ],
      "name": "setCurrentPriceFromTrustedProviders",
      "outputs": [],
      "stateMutability": "nonpayable",
      "type": "function"
    },
    {
      "inputs": [
        {
          "internalType": "string",
          "name": "_symbol",
          "type": "string"
        },
        {
          "internalType": "int8",
          "name": "_decimals",
          "type": "int8"
        }
      ],
      "name": "setDecimals",
      "outputs": [],
      "stateMutability": "nonpayable",
      "type": "function"
    },
    {
      "inputs": [
        {
          "internalType": "address[]",
          "name": "_trustedProviders",
          "type": "address[]"
        },
        {
          "internalType": "uint8",
          "name": "_trustedProvidersThreshold",
          "type": "uint8"
        }
      ],
      "name": "setTrustedProviders",
      "outputs": [],
      "stateMutability": "nonpayable",
      "type": "function"
    },
    {
      "inputs": [
        {
          "internalType": "uint32",
          "name": "_votingRoundId",
          "type": "uint32"
        },
        {
          "components": [
            {
              "internalType": "bytes21",
              "name": "id",
              "type": "bytes21"
            },
            {
              "internalType": "uint32",
              "name": "value",
              "type": "uint32"
            },
            {
              "internalType": "int8",
              "name": "decimals",
              "type": "int8"
            }
          ],
          "internalType": "struct IPricePublisher.TrustedProviderFeed[]",
          "name": "_feeds",
          "type": "tuple[]"
        }
      ],
      "name": "submitTrustedPrices",
      "outputs": [],
      "stateMutability": "nonpayable",
      "type": "function"
    },
    {
      "inputs": [],
      "name": "submitTrustedPricesWindowSeconds",
      "outputs": [
        {
          "internalType": "uint64",
          "name": "",
          "type": "uint64"
        }
      ],
      "stateMutability": "view",
      "type": "function"
    },
    {
      "inputs": [
        {
          "internalType": "bytes4",
          "name": "_interfaceId",
          "type": "bytes4"
        }
      ],
      "name": "supportsInterface",
      "outputs": [
        {
          "internalType": "bool",
          "name": "",
          "type": "bool"
        }
      ],
      "stateMutability": "pure",
      "type": "function"
    },
    {
      "inputs": [],
      "name": "switchToProductionMode",
      "outputs": [],
      "stateMutability": "nonpayable",
      "type": "function"
    },
    {
      "inputs": [],
      "name": "trustedProvidersThreshold",
      "outputs": [
        {
          "internalType": "uint8",
          "name": "",
          "type": "uint8"
        }
      ],
      "stateMutability": "view",
      "type": "function"
    },
    {
      "inputs": [
        {
          "internalType": "bytes32[]",
          "name": "_contractNameHashes",
          "type": "bytes32[]"
        },
        {
          "internalType": "address[]",
          "name": "_contractAddresses",
          "type": "address[]"
        }
      ],
      "name": "updateContractAddresses",
      "outputs": [],
      "stateMutability": "nonpayable",
      "type": "function"
    },
    {
      "inputs": [
        {
          "internalType": "bytes21[]",
          "name": "_feedIds",
          "type": "bytes21[]"
        },
        {
          "internalType": "string[]",
          "name": "_symbols",
          "type": "string[]"
        },
        {
          "internalType": "int8[]",
          "name": "_trustedDecimals",
          "type": "int8[]"
        },
        {
          "internalType": "uint16",
          "name": "_maxSpreadBIPS",
          "type": "uint16"
        }
      ],
      "name": "updateSettings",
      "outputs": [],
      "stateMutability": "nonpayable",
      "type": "function"
    },
    {
      "inputs": [
        {
          "internalType": "address",
          "name": "newImplementation",
          "type": "address"
        }
      ],
      "name": "upgradeTo",
      "outputs": [],
      "stateMutability": "nonpayable",
      "type": "function"
    },
    {
      "inputs": [
        {
          "internalType": "address",
          "name": "newImplementation",
          "type": "address"
        },
        {
          "internalType": "bytes",
          "name": "data",
          "type": "bytes"
        }
      ],
      "name": "upgradeToAndCall",
      "outputs": [],
      "stateMutability": "payable",
      "type": "function"
    },
    {
      "inputs": [],
      "name": "votingEpochDurationSeconds",
      "outputs": [
        {
          "internalType": "uint64",
          "name": "",
          "type": "uint64"
        }
      ],
      "stateMutability": "view",
      "type": "function"
    }
  ],
  "bytecode": "0x60a06040523060805234801561001457600080fd5b50600061002361111180610051565b61004b817f714f205b2abd25bef1d06a1af944e38c113fe6160375c4e1d6d5cf28848e771955565b50610160565b7f2aa47ee5db910f3b2a06970c443249cc77dbd9f96100cfebc1775ab7fb1d18248054600160a01b900460ff161561009c5760405163b2f0162160e01b815260040160405180910390fd5b6001600160a01b0383166100c3576040516334ab92fb60e11b815260040160405180910390fd5b6001600160a01b0382166100ea576040516334ab92fb60e11b815260040160405180910390fd5b80546001600160a01b038481166001600160a81b031990921691909117600160a01b1782556001820180549184166001600160a01b0319909216821790556040519081527f9789733827840833afc031fb2ef9ab6894271f77bad2085687cf4ae5c7bee4db9060200160405180910390a1505050565b60805161450061019760003960008181610d6601528181610daf01528181610ff601528181611036015261118f01526145006000f3fe6080604052600436106102305760003560e01c806367776a2b1161012e578063cea648a5116100ab578063e4a0a55b1161006f578063e4a0a55b14610726578063e731a1bc14610746578063e8d0e70a14610789578063f5a98383146107a9578063f78b7568146107be57600080fd5b8063cea648a514610678578063debfda3014610698578063df7f710e146106b8578063e05372ff146106da578063e17f212e146106fa57600080fd5b8063a83bf08d116100f2578063a83bf08d146105bc578063b00c0b76146105dc578063b44cd1ba146105fc578063b59589d11461062f578063c88987dc1461065657600080fd5b806367776a2b146105085780636c2b111f1461052f57806379489b5d146105625780639a2bc19a14610582578063a036aa47146105a257600080fd5b806343abc2aa116101bc5780635a07ad13116101805780635a07ad131461042d5780635a832088146104665780635aa6e675146104a557806362354e03146104ba5780636512bf1d146104cf57600080fd5b806343abc2aa146103665780634f1ef28614610386578063524f3889146103995780635267a15d146103d457806352d1902d1461040a57600080fd5b806320c5f99d1161020357806320c5f99d146102d15780632288a84a146102f15780632ba265ed146103115780633659cfe61461032657806337e4bfc31461034657600080fd5b806301ffc9a7146102355780630c518dce1461026a57806316fc2f6d1461028c57806319f6e807146102ae575b600080fd5b34801561024157600080fd5b506102556102503660046132c1565b6107de565b60405190151581526020015b60405180910390f35b34801561027657600080fd5b5061027f610830565b6040516102619190613331565b34801561029857600080fd5b506102ac6102a7366004613344565b610896565b005b3480156102ba57600080fd5b506102c361094a565b6040516102619291906133b6565b3480156102dd57600080fd5b506102ac6102ec366004613344565b610a8a565b3480156102fd57600080fd5b506102ac61030c36600461343e565b610bfc565b34801561031d57600080fd5b506102ac610d1a565b34801561033257600080fd5b506102ac6103413660046134c6565b610d47565b34801561035257600080fd5b506102ac61036136600461352e565b610e31565b34801561037257600080fd5b506102ac610381366004613654565b610f8b565b6102ac6103943660046136a1565b610fd7565b3480156103a557600080fd5b506103b96103b4366004613704565b6110a9565b60408051938452602084019290925290820152606001610261565b3480156103e057600080fd5b50600080516020614444833981519152545b6040516001600160a01b039091168152602001610261565b34801561041657600080fd5b5061041f611182565b604051908152602001610261565b34801561043957600080fd5b5060095461045190600160b81b900463ffffffff1681565b60405163ffffffff9091168152602001610261565b34801561047257600080fd5b5060005461048d90600160401b90046001600160401b031681565b6040516001600160401b039091168152602001610261565b3480156104b157600080fd5b506103f2611235565b3480156104c657600080fd5b506103f26112de565b3480156104db57600080fd5b506104ef6104ea366004613704565b6112ff565b6040516001600160581b03199091168152602001610261565b34801561051457600080fd5b5060005461048d90600160801b90046001600160401b031681565b34801561053b57600080fd5b5060005461055090600160c01b900460ff1681565b60405160ff9091168152602001610261565b34801561056e57600080fd5b506102ac61057d366004613750565b61132a565b34801561058e57600080fd5b506102ac61059d366004613793565b611385565b3480156105ae57600080fd5b506009546105509060ff1681565b3480156105c857600080fd5b506102ac6105d73660046137f2565b61140f565b3480156105e857600080fd5b506102ac6105f736600461393f565b6116d7565b34801561060857600080fd5b5060095461061c90610100900461ffff1681565b60405161ffff9091168152602001610261565b34801561063b57600080fd5b506009546103f290630100000090046001600160a01b031681565b34801561066257600080fd5b5061066b611768565b60405161026191906139f5565b34801561068457600080fd5b506102ac610693366004613a41565b6117c9565b3480156106a457600080fd5b506102556106b33660046134c6565b611d18565b3480156106c457600080fd5b506106cd611db2565b6040516102619190613ad2565b3480156106e657600080fd5b506102ac6106f5366004613b4b565b611f04565b34801561070657600080fd5b506000805160206144ab83398151915254600160a81b900460ff16610255565b34801561073257600080fd5b506103b9610741366004613704565b6121b8565b34801561075257600080fd5b50610766610761366004613704565b61223c565b6040805194855260208501939093529183015260ff166060820152608001610261565b34801561079557600080fd5b5060005461048d906001600160401b031681565b3480156107b557600080fd5b506102ac6122cf565b3480156107ca57600080fd5b506102ac6107d9366004613793565b612374565b60006001600160e01b031982166301ffc9a760e01b148061080f57506001600160e01b031982166328ef1e3760e11b145b8061082a57506001600160e01b0319821663126d859760e21b145b92915050565b6060600180548060200260200160405190810160405280929190818152602001828054801561088c57602002820191906000526020600020905b815460581b6001600160581b031916815260019091019060200180831161086a575b5050505050905090565b61089e6123e2565b6040516000805160206144ab833981519152906000906108c19085908590613bd1565b60405180910390209050816002016000828152602001908152602001600020546000036109015760405163023679b760e21b815260040160405180910390fd5b6040518181527f69b058d6225c01c1f2a25801ca5b05705fa2e9118e93d518390ba804398c87b19060200160405180910390a16000908152600290910160205260408120555050565b60608060018054806020026020016040519081016040528092919081815260200182805480156109a757602002820191906000526020600020905b815460581b6001600160581b0319168152600190910190602001808311610985575b5050505050915081516001600160401b038111156109c7576109c7613581565b6040519080825280602002602001820160405280156109f0578160200160208202803683370190505b50905060005b8251811015610a855760046000848381518110610a1557610a15613be1565b60200260200101516affffffffffffffffffffff19166affffffffffffffffffffff1916815260200190815260200160002060000160119054906101000a900460000b828281518110610a6a57610a6a613be1565b60009290920b602092830291909101909101526001016109f6565b509091565b6000805160206144ab833981519152610aa233611d18565b610abf57604051633fdb5f0160e11b815260040160405180910390fd5b60008383604051610ad1929190613bd1565b60408051918290039091206000818152600285016020529182205490925090819003610b105760405163023679b760e21b815260040160405180910390fd5b80421015610b315760405163309272e160e11b815260040160405180910390fd5b6000828152600284016020526040808220829055845460ff60b01b1916600160b01b178555513090610b669088908890613bd1565b6000604051808303816000865af19150503d8060008114610ba3576040519150601f19603f3d011682016040523d82523d6000602084013e610ba8565b606091505b5050845460ff60b01b191685556040518481529091507fec1225e5a8a8acb91e03ce648c683c74f5d152a775b9715980999441d714c44f9060200160405180910390a1610bf48161241d565b505050505050565b42610c0a60ff841685613c0d565b6001600160401b03161115610c3257604051632ca4094f60e21b815260040160405180910390fd5b60018260ff1611610c5657604051633204efdd60e11b815260040160405180910390fd5b610c60868661243a565b610c768460008051602061444483398151915255565b60008054600160401b60ff8516026fffffffffffffffffffffffffffffffff199091166001600160401b03861617179055610cb2600283613c42565b6000805468ffffffffffffffffff60801b191660ff928316600160801b0260ff60c01b191617600160c01b92841692909202919091179055610cf2612537565b600960176101000a81548163ffffffff021916908363ffffffff160217905550505050505050565b6040516000907f46e3fc5e4e4ccb87b783c134ecaf8dc9e6207f10034ec05f74c24007fcc2e2d1908290a2565b610d4f612574565b15610e2457610d5c6125aa565b6001600160a01b037f0000000000000000000000000000000000000000000000000000000000000000163003610dad5760405162461bcd60e51b8152600401610da490613c64565b60405180910390fd5b7f00000000000000000000000000000000000000000000000000000000000000006001600160a01b0316610ddf6125ee565b6001600160a01b031614610e055760405162461bcd60e51b8152600401610da490613cb0565b60408051600080825260208201909252610e2191839190612604565b50565b610e21600036600061276f565b610e39612574565b15610f7957610e466125aa565b6101008210610e6857604051630cabfead60e21b815260040160405180910390fd5b60ff8116821015610e8c5760405163e56d58cf60e01b815260040160405180910390fd5b6009805460ff191660ff831617905560005b600754811015610efd5760006008600060078481548110610ec157610ec1613be1565b6000918252602080832091909101546001600160a01b031683528201929092526040019020805460ff1916911515919091179055600101610e9e565b50610f0a600784846131ca565b5060005b82811015610f7357600160086000868685818110610f2e57610f2e613be1565b9050602002016020810190610f4391906134c6565b6001600160a01b031681526020810191909152604001600020805460ff1916911515919091179055600101610f0e565b50505050565b610f86600036600061276f565b505050565b6000610f9683612886565b805471ff0000000000000000ff00000000000000001916600160401b60ff9490941693840260ff60881b191617600160881b93909302929092179091555050565b610fdf612574565b1561109c57610fec6125aa565b6001600160a01b037f00000000000000000000000000000000000000000000000000000000000000001630036110345760405162461bcd60e51b8152600401610da490613c64565b7f00000000000000000000000000000000000000000000000000000000000000006001600160a01b03166110666125ee565b6001600160a01b03161461108c5760405162461bcd60e51b8152600401610da490613cb0565b61109882826001612604565b5050565b611098600036600061276f565b6000806000806002856040516110bf9190613cfc565b9081526040519081900360200190205460581b90506001600160581b031981166110fc57604051633b7ea93160e01b815260040160405180910390fd5b6001600160581b031981166000908152600460205260409020805463ffffffff64010000000082048116965061113291166128f4565b8154909450600160401b9004600090810b90811215611174576000935061115881613d18565b61116390600a613e1b565b61116d9087613e27565b9550611178565b8093505b5050509193909250565b6000306001600160a01b037f000000000000000000000000000000000000000000000000000000000000000016146112225760405162461bcd60e51b815260206004820152603860248201527f555550535570677261646561626c653a206d757374206e6f742062652063616c60448201527f6c6564207468726f7567682064656c656761746563616c6c00000000000000006064820152608401610da4565b5060008051602061446483398151915290565b6000805160206144ab833981519152805460009190600160a81b900460ff1661126b5760018101546001600160a01b03166112d8565b805460408051631cc9492560e21b815290516001600160a01b03909216916373252494916004808201926020929091908290030181865afa1580156112b4573d6000803e3d6000fd5b505050506040513d601f19601f820116820180604052508101906112d89190613e3e565b91505090565b60006000805160206144ab8339815191525b546001600160a01b0316919050565b60006002826040516113119190613cfc565b9081526040519081900360200190205460581b92915050565b8160028260405161133b9190613cfc565b908152604080516020928190038301902080546001600160a81b03191660589490941c939093179092556001600160581b031984166000908152600390915220610f868282613ee3565b600061139084612886565b905061139b83612933565b815463ffffffff919091166401000000000267ffffffff00000000199091161781556113cf6113ca8342613fa1565b612998565b815460ff600160881b63ffffffff9390931663ffffffff19831681179390930416600160401b0268ff00000000ffffffff19909116909117179055505050565b611417612574565b156116c1576114246125aa565b858414801561143257508582145b611452576040516001621398b960e31b0319815260040160405180910390fd5b6127108161ffff1611156114795760405163ab0a294360e01b815260040160405180910390fd5b6009805462ffff00191661010061ffff84160217905561149b60018888613229565b5060005b868110156116bb5760008888838181106114bb576114bb613be1565b90506020020160208101906114d09190613fb4565b90508060028888858181106114e7576114e7613be1565b90506020028101906114f99190613fcf565b604051611507929190613bd1565b908152604051908190036020019020805460589290921c6001600160a81b031990921691909117905586868381811061154257611542613be1565b90506020028101906115549190613fcf565b6001600160581b03198316600090815260036020526040902091611579919083614015565b506001600160581b0319811660009081526004602052604090208585848181106115a5576115a5613be1565b90506020020160208101906115ba91906140d4565b8154600160881b9004600090810b91900b146116b1578585848181106115e2576115e2613be1565b90506020020160208101906115f791906140d4565b815471ffffffffffffffffff0000000000000000001916600160881b60ff929092169190910267ffffffffffffffff60481b191617815560095460009061164d9063ffffffff600160b81b9091041660016140ef565b90505b611658612537565b63ffffffff168163ffffffff16116116af576001600160581b03198316600090815260056020908152604080832063ffffffff85168452909152812061169d91613276565b806116a78161410b565b915050611650565b505b505060010161149f565b506116ce565b6116ce600036600061276f565b50505050505050565b600080516020614444833981519152546001600160a01b0316336001600160a01b03161461171857604051633d8aad3760e11b815260040160405180910390fd5b61175e61174c83836040518060400160405280600e81526020016d20b2323932b9b9aab83230ba32b960911b8152506129d0565b60008051602061444483398151915255565b6110988282612a83565b6060600780548060200260200160405190810160405280929190818152602001828054801561088c57602002820191906000526020600020905b81546001600160a01b031681526001909101906020018083116117a2575050505050905090565b60015460009082146117ee576040516315e621ab60e11b815260040160405180910390fd5b60005b82811015610f73573684848381811061180c5761180c613be1565b905060200281019061181e9190614130565b905060208101600083900361190f5761183a6020820182614146565b60095490945063ffffffff600160b81b90910481169085161161187057604051639a0ce6d160e01b815260040160405180910390fd5b6000544290600160801b90046001600160401b031661189463ffffffff87166128f4565b61189e9190614161565b11156118bd57604051632f021e8d60e11b815260040160405180910390fd5b6009805463ffffffff60b81b1916600160b81b63ffffffff8716908102919091179091556040517f46e3fc5e4e4ccb87b783c134ecaf8dc9e6207f10034ec05f74c24007fcc2e2d190600090a2611947565b63ffffffff84166119236020830183614146565b63ffffffff1614611947576040516304ea38db60e51b815260040160405180910390fd5b60006001848154811061195c5761195c613be1565b6000918252602091829020015460581b91506001600160581b031982169061198a9060408501908501613fb4565b6001600160581b031916146119b25760405163c2a25c1b60e01b815260040160405180910390fd5b60006119c46060840160408501614186565b60030b12156119e657604051630781cbdb60e31b815260040160405180910390fd5b6000826040516020016119f991906141a1565b60408051808303601f19018152908290528051602090910120600954600080546239436b60e81b8552600160c01b900460ff16600485015263ffffffff8a166024850152919350909163010000009091046001600160a01b0316906339436b0090604401602060405180830381865afa158015611a7a573d6000803e3d6000fd5b505050506040513d601f19601f82011682018060405250810190611a9e9190614214565b9050611ab88183611aaf888061422d565b90929091612ad5565b611ad55760405163c8ac23c360e01b815260040160405180910390fd5b6001600160581b03198316600090815260046020908152604090912090611afe90860186614146565b815463ffffffff191663ffffffff91909116178155611b236060860160408701614186565b815463ffffffff919091166401000000000267ffffffff0000000019909116178155611b5560a08601608087016140d4565b815460ff91909116600160401b0268ff0000000000000000199091161781556001600160581b03198416600090815260056020908152604080832063ffffffff8c16845290915281208054611ba990613e5b565b80601f0160208091040260200160405190810160405280929190818152602001828054611bd590613e5b565b8015611c225780601f10611bf757610100808354040283529160200191611c22565b820191906000526020600020905b815481529060010190602001808311611c0557829003601f168201915b5050505050905060008151118015611c4e5750600954611c469060ff166004614276565b60ff16815110155b15611d0557600080611c5f83612aef565b915091508015611ccf57835463ffffffff838116600160681b0263ffffffff60681b19918e16600160481b029190911667ffffffffffffffff60481b19909216919091171784558251611cb490600490614299565b845460ff91909116600160901b0260ff60901b199091161784555b6001600160581b03198716600090815260056020908152604080832063ffffffff8f1684529091528120611d0291613276565b50505b5050600190950194506117f19350505050565b6000805160206144ab833981519152805460009190600160a01b900460ff168015611dab57508054604051630debfda360e41b81526001600160a01b0385811660048301529091169063debfda3090602401602060405180830381865afa158015611d87573d6000803e3d6000fd5b505050506040513d601f19601f82011682018060405250810190611dab91906142ad565b9392505050565b6001546060906001600160401b03811115611dcf57611dcf613581565b604051908082528060200260200182016040528015611e0257816020015b6060815260200190600190039081611ded5790505b50905060005b600154811015611f00576003600060018381548110611e2957611e29613be1565b60009182526020808320919091015460581b6001600160581b031916835282019290925260400190208054611e5d90613e5b565b80601f0160208091040260200160405190810160405280929190818152602001828054611e8990613e5b565b8015611ed65780601f10611eab57610100808354040283529160200191611ed6565b820191906000526020600020905b815481529060010190602001808311611eb957829003601f168201915b5050505050828281518110611eed57611eed613be1565b6020908102919091010152600101611e08565b5090565b3360009081526008602052604090205460ff16611f345760405163038c0c6d60e41b815260040160405180910390fd5b6001548114611f5557604051628125db60e21b815260040160405180910390fd5b6000611f5f612537565b90508063ffffffff168463ffffffff1614611f8d576040516304ea38db60e51b815260040160405180910390fd5b6000611f9e8263ffffffff166128f4565b6000805491925090611fc090600160801b90046001600160401b031683614161565b9050814210158015611fd157508042105b611fee576040516332999ab560e11b815260040160405180910390fd5b3360009081526006602052604090205463ffffffff84161161202357604051639fbfc58960e01b815260040160405180910390fd5b33600090815260066020526040812063ffffffff851690555b848110156116ce573686868381811061205757612057613be1565b905060600201905060006001838154811061207457612074613be1565b6000918252602091829020015460581b91506001600160581b031982169061209e90840184613fb4565b6001600160581b031916146120c65760405163c2a25c1b60e01b815260040160405180910390fd5b6001600160581b0319811660009081526004602052604080822054600160881b900490910b906120fc90606085019085016140d4565b60000b1461211d57604051635a8dbaed60e01b815260040160405180910390fd5b6001600160581b03198116600090815260056020908152604080832063ffffffff8a1684528252918290209161215891908501908501614146565b60e01b60405160200161216c9291906142cf565b60408051601f198184030181529181526001600160581b0319831660009081526005602090815282822063ffffffff8b168352905220906121ad9082613ee3565b50505060010161203c565b6000806000806002856040516121ce9190613cfc565b9081526040519081900360200190205460581b90506001600160581b0319811661220b57604051633b7ea93160e01b815260040160405180910390fd5b6001600160581b03198116600090815260046020526040902061222d81612ea7565b91989097509095509350505050565b60008060008060006002866040516122549190613cfc565b9081526040519081900360200190205460581b90506001600160581b0319811661229157604051633b7ea93160e01b815260040160405180910390fd5b6001600160581b0319811660009081526004602052604090206122b381612ea7565b92549199909850919650600160901b900460ff16945092505050565b6122d76123e2565b6000805160206144ab8339815191528054600160a81b900460ff1615612310576040516339511f6160e11b815260040160405180910390fd5b6001810180546001600160a01b03191690558054600160a81b60ff60a81b1982161782556040516001600160a01b0390911681527f83af113638b5422f9e977cebc0aaf0eaf2188eb9a8baae7f9d46c42b33a1560c9060200160405180910390a150565b600061237f84612886565b905061238a83612933565b815463ffffffff91909116600160681b0263ffffffff60681b199091161781556123b76113ca8342613fa1565b815463ffffffff91909116600160481b026cffffffff00000000000000000019909116179055505050565b6123ea611235565b6001600160a01b0316336001600160a01b03161461241b576040516354348f0360e01b815260040160405180910390fd5b565b3d604051818101604052816000823e8215612436578181f35b8181fd5b6000805160206144ab8339815191528054600160a01b900460ff16156124735760405163b2f0162160e01b815260040160405180910390fd5b6001600160a01b03831661249a576040516334ab92fb60e11b815260040160405180910390fd5b6001600160a01b0382166124c1576040516334ab92fb60e11b815260040160405180910390fd5b80546001600160a01b038481166001600160a81b031990921691909117600160a01b1782556001820180549184166001600160a01b0319909216821790556040519081527f9789733827840833afc031fb2ef9ab6894271f77bad2085687cf4ae5c7bee4db9060200160405180910390a1505050565b600080546001906001600160401b03600160401b820481169161255b911642613fa1565b6125659190614299565b61256f9190614355565b905090565b6000805160206144ab833981519152805460009190600160b01b900460ff16806112d8575054600160a81b900460ff1615919050565b6000805160206144ab8339815191528054600160b01b900460ff16156125e6573330146125d9576125d9614371565b805460ff60b01b19169055565b610e216123e2565b60006000805160206144648339815191526112f0565b7f4910fdfa16fed3260ed0e7147f7cc6da11a60208b5b9406d12a635614ffd91435460ff161561263757610f8683612f1d565b826001600160a01b03166352d1902d6040518163ffffffff1660e01b8152600401602060405180830381865afa925050508015612691575060408051601f3d908101601f1916820190925261268e91810190614214565b60015b6126f45760405162461bcd60e51b815260206004820152602e60248201527f45524331393637557067726164653a206e657720696d706c656d656e7461746960448201526d6f6e206973206e6f74205555505360901b6064820152608401610da4565b60008051602061446483398151915281146127635760405162461bcd60e51b815260206004820152602960248201527f45524331393637557067726164653a20756e737570706f727465642070726f786044820152681a58589b195555525160ba1b6064820152608401610da4565b50610f86838383612fb9565b6000805160206144ab8339815191526127866123e2565b60008484604051612798929190613bd1565b604080519182900382208454636221a54b60e01b845291519093506000926001600160a01b0390921691636221a54b9160048083019260209291908290030181865afa1580156127ec573d6000803e3d6000fd5b505050506040513d601f19601f820116820180604052508101906128109190614214565b90508381101561281d5750825b60006128298242614161565b600084815260028601602052604090819020829055519091507f8c02104dfc280f713854f25297de671710c544c58de69dbde8fb66974ce1ab9e90612875908990899087908690614387565b60405180910390a150505050505050565b6000806002836040516128999190613cfc565b9081526040519081900360200190205460581b90506001600160581b031981166128d657604051633b7ea93160e01b815260040160405180910390fd5b6001600160581b031916600090815260046020526040902092915050565b60008054600160401b90046001600160401b0316612913836001614161565b61291d9190613e27565b60005461082a91906001600160401b0316614161565b600063ffffffff821115611f005760405162461bcd60e51b815260206004820152602660248201527f53616665436173743a2076616c756520646f65736e27742066697420696e203360448201526532206269747360d01b6064820152608401610da4565b6000805481906001600160401b03600160401b82048116916129bb911685613fa1565b6129c59190614299565b9050611dab81612933565b600080826040516020016129e491906143c7565b6040516020818303038152906040528051906020012090506000805b8651811015612a5257868181518110612a1b57612a1b613be1565b60200260200101518303612a4a57858181518110612a3b57612a3b613be1565b60200260200101519150612a52565b600101612a00565b506001600160a01b038116612a7a5760405163e6ee175560e01b815260040160405180910390fd5b95945050505050565b612aab82826040518060400160405280600581526020016452656c617960d81b8152506129d0565b600960036101000a8154816001600160a01b0302191690836001600160a01b031602179055505050565b600082612ae3868685612fde565b1490505b949350505050565b805160009081908015801590612b0d5750612b0b6004826143da565b155b612b1957612b19614371565b612b24600482614299565b90506000816001600160401b03811115612b4057612b40613581565b604051908082528060200260200182016040528015612b69578160200160208202803683370190505b50905060005b82811015612c405760408051600480825281830190925260009160208201818036833701905050905060005b6004811015612c07578781612bb1856004613e27565b612bbb9190614161565b81518110612bcb57612bcb613be1565b602001015160f81c60f81b828281518110612be857612be8613be1565b60200101906001600160f81b031916908160001a905350600101612b9b565b50612c11816143ee565b60e01c63ffffffff16838381518110612c2c57612c2c613be1565b602090810291909101015250600101612b6f565b5060015b82811015612d22576000828281518110612c6057612c60613be1565b6020026020010151905060008290505b600081118015612ca257508184612c88600184613fa1565b81518110612c9857612c98613be1565b6020026020010151115b15612cfa5783612cb3600183613fa1565b81518110612cc357612cc3613be1565b6020026020010151848281518110612cdd57612cdd613be1565b602090810291909101015280612cf28161442c565b915050612c70565b81848281518110612d0d57612d0d613be1565b60209081029190910101525050600101612c44565b50600080612d31600285614299565b9050612d3e6002856143da565b600103612dd157828181518110612d5757612d57613be1565b6020026020010151955060038410612dcc57600283612d77600184613fa1565b81518110612d8757612d87613be1565b602002602001015184836001612d9d9190614161565b81518110612dad57612dad613be1565b6020026020010151612dbf9190613fa1565b612dc99190614299565b91505b612e74565b6002838281518110612de557612de5613be1565b602002602001015184600184612dfb9190613fa1565b81518110612e0b57612e0b613be1565b6020026020010151612e1d9190614161565b612e279190614299565b955082612e35600183613fa1565b81518110612e4557612e45613be1565b6020026020010151838281518110612e5f57612e5f613be1565b6020026020010151612e719190613fa1565b91505b60095461271090612e8f908890610100900461ffff16613e27565b612e999190614299565b821115945050505050915091565b805463ffffffff600160681b82048116916000918291612ecf91600160481b909104166128f4565b8454909250600160881b9004600090810b90811215612f115760009150612ef581613d18565b612f0090600a613e1b565b612f0a9085613e27565b9350612f15565b8091505b509193909250565b6001600160a01b0381163b612f8a5760405162461bcd60e51b815260206004820152602d60248201527f455243313936373a206e657720696d706c656d656e746174696f6e206973206e60448201526c1bdd08184818dbdb9d1c9858dd609a1b6064820152608401610da4565b60008051602061446483398151915280546001600160a01b0319166001600160a01b0392909216919091179055565b612fc283613020565b600082511180612fcf5750805b15610f8657610f738383613060565b600081815b848110156130175761300d8287878481811061300157613001613be1565b90506020020135613085565b9150600101612fe3565b50949350505050565b61302981612f1d565b6040516001600160a01b038216907fbc7cd75a20ee27fd9adebab32041f755214dbc6bffa90cc0225b39da2e5c2d3b90600090a250565b6060611dab8383604051806060016040528060278152602001614484602791396130b4565b60008183106130a1576000828152602084905260409020611dab565b6000838152602083905260409020611dab565b6060600080856001600160a01b0316856040516130d19190613cfc565b600060405180830381855af49150503d806000811461310c576040519150601f19603f3d011682016040523d82523d6000602084013e613111565b606091505b50915091506131228683838761312c565b9695505050505050565b6060831561319b578251600003613194576001600160a01b0385163b6131945760405162461bcd60e51b815260206004820152601d60248201527f416464726573733a2063616c6c20746f206e6f6e2d636f6e74726163740000006044820152606401610da4565b5081612ae7565b612ae783838151156131b05781518083602001fd5b8060405162461bcd60e51b8152600401610da491906143c7565b82805482825590600052602060002090810192821561321d579160200282015b8281111561321d5781546001600160a01b0319166001600160a01b038435161782556020909201916001909101906131ea565b50611f009291506132ac565b82805482825590600052602060002090810192821561321d579160200282015b8281111561321d5781546001600160a81b031916833560581c178255602090920191600190910190613249565b50805461328290613e5b565b6000825580601f10613292575050565b601f016020900490600052602060002090810190610e2191905b5b80821115611f0057600081556001016132ad565b6000602082840312156132d357600080fd5b81356001600160e01b031981168114611dab57600080fd5b600081518084526020840193506020830160005b828110156133275781516001600160581b0319168652602095860195909101906001016132ff565b5093949350505050565b602081526000611dab60208301846132eb565b6000806020838503121561335757600080fd5b82356001600160401b0381111561336d57600080fd5b8301601f8101851361337e57600080fd5b80356001600160401b0381111561339457600080fd5b8560208284010111156133a657600080fd5b6020919091019590945092505050565b6040815260006133c960408301856132eb565b828103602084015280845180835260208301915060208601925060005b8181101561340757835160000b8352602093840193909201916001016133e6565b50909695505050505050565b6001600160a01b0381168114610e2157600080fd5b803560ff8116811461343957600080fd5b919050565b60008060008060008060c0878903121561345757600080fd5b863561346281613413565b9550602087013561347281613413565b9450604087013561348281613413565b935060608701356001600160401b038116811461349e57600080fd5b92506134ac60808801613428565b91506134ba60a08801613428565b90509295509295509295565b6000602082840312156134d857600080fd5b8135611dab81613413565b60008083601f8401126134f557600080fd5b5081356001600160401b0381111561350c57600080fd5b6020830191508360208260051b850101111561352757600080fd5b9250929050565b60008060006040848603121561354357600080fd5b83356001600160401b0381111561355957600080fd5b613565868287016134e3565b9094509250613578905060208501613428565b90509250925092565b634e487b7160e01b600052604160045260246000fd5b604051601f8201601f191681016001600160401b03811182821017156135bf576135bf613581565b604052919050565b6000806001600160401b038411156135e1576135e1613581565b50601f8301601f19166020016135f681613597565b91505082815283838301111561360b57600080fd5b828260208301376000602084830101529392505050565b600082601f83011261363357600080fd5b611dab838335602085016135c7565b8035600081900b811461343957600080fd5b6000806040838503121561366757600080fd5b82356001600160401b0381111561367d57600080fd5b61368985828601613622565b92505061369860208401613642565b90509250929050565b600080604083850312156136b457600080fd5b82356136bf81613413565b915060208301356001600160401b038111156136da57600080fd5b8301601f810185136136eb57600080fd5b6136fa858235602084016135c7565b9150509250929050565b60006020828403121561371657600080fd5b81356001600160401b0381111561372c57600080fd5b612ae784828501613622565b80356001600160581b03198116811461343957600080fd5b6000806040838503121561376357600080fd5b61376c83613738565b915060208301356001600160401b0381111561378757600080fd5b6136fa85828601613622565b6000806000606084860312156137a857600080fd5b83356001600160401b038111156137be57600080fd5b6137ca86828701613622565b9660208601359650604090950135949350505050565b803561ffff8116811461343957600080fd5b60008060008060008060006080888a03121561380d57600080fd5b87356001600160401b0381111561382357600080fd5b61382f8a828b016134e3565b90985096505060208801356001600160401b0381111561384e57600080fd5b61385a8a828b016134e3565b90965094505060408801356001600160401b0381111561387957600080fd5b6138858a828b016134e3565b90945092506138989050606089016137e0565b905092959891949750929550565b60006001600160401b038211156138bf576138bf613581565b5060051b60200190565b600082601f8301126138da57600080fd5b81356138ed6138e8826138a6565b613597565b8082825260208201915060208360051b86010192508583111561390f57600080fd5b602085015b8381101561393557803561392781613413565b835260209283019201613914565b5095945050505050565b6000806040838503121561395257600080fd5b82356001600160401b0381111561396857600080fd5b8301601f8101851361397957600080fd5b80356139876138e8826138a6565b8082825260208201915060208360051b8501019250878311156139a957600080fd5b6020840193505b828410156139cb5783358252602093840193909101906139b0565b945050505060208301356001600160401b038111156139e957600080fd5b6136fa858286016138c9565b602080825282518282018190526000918401906040840190835b81811015613a365783516001600160a01b0316835260209384019390920191600101613a0f565b509095945050505050565b60008060208385031215613a5457600080fd5b82356001600160401b03811115613a6a57600080fd5b613a76858286016134e3565b90969095509350505050565b60005b83811015613a9d578181015183820152602001613a85565b50506000910152565b60008151808452613abe816020860160208601613a82565b601f01601f19169290920160200192915050565b6000602082016020835280845180835260408501915060408160051b86010192506020860160005b82811015613b2b57603f19878603018452613b16858351613aa6565b94506020938401939190910190600101613afa565b50929695505050505050565b803563ffffffff8116811461343957600080fd5b600080600060408486031215613b6057600080fd5b613b6984613b37565b925060208401356001600160401b03811115613b8457600080fd5b8401601f81018613613b9557600080fd5b80356001600160401b03811115613bab57600080fd5b866020606083028401011115613bc057600080fd5b939660209190910195509293505050565b8183823760009101908152919050565b634e487b7160e01b600052603260045260246000fd5b634e487b7160e01b600052601160045260246000fd5b6001600160401b03818116838216019081111561082a5761082a613bf7565b634e487b7160e01b600052601260045260246000fd5b600060ff831680613c5557613c55613c2c565b8060ff84160491505092915050565b6020808252602c908201527f46756e6374696f6e206d7573742062652063616c6c6564207468726f7567682060408201526b19195b1959d85d1958d85b1b60a21b606082015260800190565b6020808252602c908201527f46756e6374696f6e206d7573742062652063616c6c6564207468726f7567682060408201526b6163746976652070726f787960a01b606082015260800190565b60008251613d0e818460208701613a82565b9190910192915050565b6000600160ff1b8201613d2d57613d2d613bf7565b5060000390565b6001815b6001841115613d6f57808504811115613d5357613d53613bf7565b6001841615613d6157908102905b60019390931c928002613d38565b935093915050565b600082613d865750600161082a565b81613d935750600061082a565b8160018114613da95760028114613db357613dcf565b600191505061082a565b60ff841115613dc457613dc4613bf7565b50506001821b61082a565b5060208310610133831016604e8410600b8410161715613df2575081810a61082a565b613dff6000198484613d34565b8060001904821115613e1357613e13613bf7565b029392505050565b6000611dab8383613d77565b808202811582820484141761082a5761082a613bf7565b600060208284031215613e5057600080fd5b8151611dab81613413565b600181811c90821680613e6f57607f821691505b602082108103613e8f57634e487b7160e01b600052602260045260246000fd5b50919050565b601f821115610f8657806000526020600020601f840160051c81016020851015613ebc5750805b601f840160051c820191505b81811015613edc5760008155600101613ec8565b5050505050565b81516001600160401b03811115613efc57613efc613581565b613f1081613f0a8454613e5b565b84613e95565b6020601f821160018114613f445760008315613f2c5750848201515b600019600385901b1c1916600184901b178455613edc565b600084815260208120601f198516915b82811015613f745787850151825560209485019460019092019101613f54565b5084821015613f925786840151600019600387901b60f8161c191681555b50505050600190811b01905550565b8181038181111561082a5761082a613bf7565b600060208284031215613fc657600080fd5b611dab82613738565b6000808335601e19843603018112613fe657600080fd5b8301803591506001600160401b0382111561400057600080fd5b60200191503681900382131561352757600080fd5b6001600160401b0383111561402c5761402c613581565b6140408361403a8354613e5b565b83613e95565b6000601f841160018114614074576000851561405c5750838201355b600019600387901b1c1916600186901b178355613edc565b600083815260209020601f19861690835b828110156140a55786850135825560209485019460019092019101614085565b50868210156140c25760001960f88860031b161c19848701351681555b505060018560011b0183555050505050565b6000602082840312156140e657600080fd5b611dab82613642565b63ffffffff818116838216019081111561082a5761082a613bf7565b600063ffffffff821663ffffffff810361412757614127613bf7565b60010192915050565b6000823560be19833603018112613d0e57600080fd5b60006020828403121561415857600080fd5b611dab82613b37565b8082018082111561082a5761082a613bf7565b8035600381900b811461343957600080fd5b60006020828403121561419857600080fd5b611dab82614174565b60a0810163ffffffff6141b384613b37565b1682526001600160581b03196141cb60208501613738565b1660208301526141dd60408401614174565b60030b604083015261ffff6141f4606085016137e0565b16606083015261420660808401613642565b60000b608083015292915050565b60006020828403121561422657600080fd5b5051919050565b6000808335601e1984360301811261424457600080fd5b8301803591506001600160401b0382111561425e57600080fd5b6020019150600581901b360382131561352757600080fd5b60ff818116838216029081169081811461429257614292613bf7565b5092915050565b6000826142a8576142a8613c2c565b500490565b6000602082840312156142bf57600080fd5b81518015158114611dab57600080fd5b60008084546142dd81613e5b565b6001821680156142f4576001811461430957614339565b60ff1983168652811515820286019350614339565b87600052602060002060005b8381101561433157815488820152600190910190602001614315565b505081860193505b5050506001600160e01b03199390931683525050600401919050565b63ffffffff828116828216039081111561082a5761082a613bf7565b634e487b7160e01b600052600160045260246000fd5b606081528360608201528385608083013760006080858301015260006080601f19601f870116830101905083602083015282604083015295945050505050565b602081526000611dab6020830184613aa6565b6000826143e9576143e9613c2c565b500690565b805160208201516001600160e01b0319811691906004821015614425576001600160e01b0319600483900360031b81901b82161692505b5050919050565b60008161443b5761443b613bf7565b50600019019056fe714f205b2abd25bef1d06a1af944e38c113fe6160375c4e1d6d5cf28848e7719360894a13ba1a3210667c828492db98dca3e2076cc3735a920a3ca505d382bbc416464726573733a206c6f772d6c6576656c2064656c65676174652063616c6c206661696c65642aa47ee5db910f3b2a06970c443249cc77dbd9f96100cfebc1775ab7fb1d1824a26469706673582212207df743be470b8909ec4f3ac7b21aae17da3f70b962e017addf8d1c1f973aee2464736f6c634300081b0033",
  "linkReferences": {},
  "deployedLinkReferences": {}
}