{
  "_format": "hh-sol-artifact-1",
  "contractName": "SafeMath64Mock",
  "sourceName": "contracts/utils/mock/SafeMath64Mock.sol",
  "abi": [
    {
      "inputs": [],
      "name": "ConversionOverflow",
      "type": "error"
    },
    {
      "inputs": [],
      "name": "NegativeValue",
      "type": "error"
    },
    {
      "inputs": [
        {
          "internalType": "uint256",
          "name": "a",
          "type": "uint256"
        }
      ],
      "name": "toInt64",
      "outputs": [
        {
          "internalType": "int64",
          "name": "",
          "type": "int64"
        }
      ],
      "stateMutability": "pure",
      "type": "function"
    },
    {
      "inputs": [
        {
          "internalType": "int256",
          "name": "a",
          "type": "int256"
        }
      ],
      "name": "toUint64",
      "outputs": [
        {
          "internalType": "uint64",
          "name": "",
          "type": "uint64"
        }
      ],
      "stateMutability": "pure",
      "type": "function"
    }
  ],
  "bytecode": "0x6080604052348015600f57600080fd5b506101788061001f6000396000f3fe608060405234801561001057600080fd5b50600436106100365760003560e01c80630d6762921461003b57806315b3dc1c1461006c575b600080fd5b61004e610049366004610129565b610092565b60405167ffffffffffffffff90911681526020015b60405180910390f35b61007f61007a366004610129565b6100a3565b60405160079190910b8152602001610063565b600061009d826100ae565b92915050565b600061009d826100fe565b6000808212156100d157604051630313715960e01b815260040160405180910390fd5b67ffffffffffffffff8213156100fa5760405163c71d107160e01b815260040160405180910390fd5b5090565b6000677fffffffffffffff8211156100fa5760405163c71d107160e01b815260040160405180910390fd5b60006020828403121561013b57600080fd5b503591905056fea2646970667358221220ffe366a4d8c4065277a80bfec0bb4ed844dc8891df21a3ad153d8e937071fb9864736f6c634300081b0033",
  "linkReferences": {},
  "deployedLinkReferences": {}
}