{
  "_format": "hh-sol-artifact-1",
  "contractName": "SafeMath64Mock",
  "sourceName": "contracts/utils/mock/SafeMath64Mock.sol",
  "abi": [
    {
      "inputs": [
        {
          "internalType": "uint64",
          "name": "a",
          "type": "uint64"
        },
        {
          "internalType": "uint64",
          "name": "b",
          "type": "uint64"
        },
        {
          "internalType": "string",
          "name": "message",
          "type": "string"
        }
      ],
      "name": "sub64",
      "outputs": [
        {
          "internalType": "uint64",
          "name": "",
          "type": "uint64"
        }
      ],
      "stateMutability": "pure",
      "type": "function"
    },
    {
      "inputs": [
        {
          "internalType": "uint256",
          "name": "a",
          "type": "uint256"
        }
      ],
      "name": "toInt64",
      "outputs": [
        {
          "internalType": "int64",
          "name": "",
          "type": "int64"
        }
      ],
      "stateMutability": "pure",
      "type": "function"
    },
    {
      "inputs": [
        {
          "internalType": "int256",
          "name": "a",
          "type": "int256"
        }
      ],
      "name": "toUint64",
      "outputs": [
        {
          "internalType": "uint64",
          "name": "",
          "type": "uint64"
        }
      ],
      "stateMutability": "pure",
      "type": "function"
    }
  ],
  "bytecode": "0x6080604052348015600f57600080fd5b506103e68061001f6000396000f3fe608060405234801561001057600080fd5b50600436106100415760003560e01c80630d6762921461004657806315b3dc1c14610077578063face560a1461009d575b600080fd5b61005961005436600461023c565b6100b0565b60405167ffffffffffffffff90911681526020015b60405180910390f35b61008a61008536600461023c565b6100c1565b60405160079190910b815260200161006e565b6100596100ab366004610288565b6100cc565b60006100bb826100e1565b92915050565b60006100bb82610194565b60006100d98484846101ee565b949350505050565b6000808212156101385760405162461bcd60e51b815260206004820152601a60248201527f536166654d61746836343a206e656761746976652076616c756500000000000060448201526064015b60405180910390fd5b67ffffffffffffffff8213156101905760405162461bcd60e51b815260206004820152601f60248201527f536166654d61746836343a20636f6e76657273696f6e206f766572666c6f7700604482015260640161012f565b5090565b6000677fffffffffffffff8211156101905760405162461bcd60e51b815260206004820152601f60248201527f536166654d61746836343a20636f6e76657273696f6e206f766572666c6f7700604482015260640161012f565b60008267ffffffffffffffff168467ffffffffffffffff16101582906102275760405162461bcd60e51b815260040161012f9190610362565b50505067ffffffffffffffff90811691160390565b60006020828403121561024e57600080fd5b5035919050565b803567ffffffffffffffff8116811461026d57600080fd5b919050565b634e487b7160e01b600052604160045260246000fd5b60008060006060848603121561029d57600080fd5b6102a684610255565b92506102b460208501610255565b9150604084013567ffffffffffffffff8111156102d057600080fd5b8401601f810186136102e157600080fd5b803567ffffffffffffffff8111156102fb576102fb610272565b604051601f8201601f19908116603f0116810167ffffffffffffffff8111828210171561032a5761032a610272565b60405281815282820160200188101561034257600080fd5b816020840160208301376000602083830101528093505050509250925092565b602081526000825180602084015260005b818110156103905760208186018101516040868401015201610373565b506000604082850101526040601f19601f8301168401019150509291505056fea26469706673582212200991ebab7cc1ebb0281edbfa58034e341aa8093dea2e745b314780a8b2d9e7f464736f6c634300081b0033",
  "linkReferences": {},
  "deployedLinkReferences": {}
}