{
  "_format": "hh-sol-artifact-1",
  "contractName": "AgentInfoFacet",
  "sourceName": "contracts/assetManager/facets/AgentInfoFacet.sol",
  "abi": [
    {
      "inputs": [],
      "name": "DivisionByZero",
      "type": "error"
    },
    {
      "inputs": [],
      "name": "EmergencyPauseActive",
      "type": "error"
    },
    {
      "inputs": [],
      "name": "InvalidAgentVaultAddress",
      "type": "error"
    },
    {
      "inputs": [],
      "name": "NotAttached",
      "type": "error"
    },
    {
      "inputs": [],
      "name": "NotWhitelisted",
      "type": "error"
    },
    {
      "inputs": [],
      "name": "OnlyAssetManagerController",
      "type": "error"
    },
    {
      "inputs": [
        {
          "internalType": "address",
          "name": "_agentVault",
          "type": "address"
        }
      ],
      "name": "getAgentFullPoolCollateral",
      "outputs": [
        {
          "internalType": "uint256",
          "name": "",
          "type": "uint256"
        }
      ],
      "stateMutability": "view",
      "type": "function"
    },
    {
      "inputs": [
        {
          "internalType": "address",
          "name": "_agentVault",
          "type": "address"
        }
      ],
      "name": "getAgentFullVaultCollateral",
      "outputs": [
        {
          "internalType": "uint256",
          "name": "",
          "type": "uint256"
        }
      ],
      "stateMutability": "view",
      "type": "function"
    },
    {
      "inputs": [
        {
          "internalType": "address",
          "name": "_agentVault",
          "type": "address"
        }
      ],
      "name": "getAgentInfo",
      "outputs": [
        {
          "components": [
            {
              "internalType": "enum AgentInfo.Status",
              "name": "status",
              "type": "uint8"
            },
            {
              "internalType": "address",
              "name": "ownerManagementAddress",
              "type": "address"
            },
            {
              "internalType": "address",
              "name": "ownerWorkAddress",
              "type": "address"
            },
            {
              "internalType": "address",
              "name": "collateralPool",
              "type": "address"
            },
            {
              "internalType": "address",
              "name": "collateralPoolToken",
              "type": "address"
            },
            {
              "internalType": "string",
              "name": "underlyingAddressString",
              "type": "string"
            },
            {
              "internalType": "bool",
              "name": "publiclyAvailable",
              "type": "bool"
            },
            {
              "internalType": "uint256",
              "name": "feeBIPS",
              "type": "uint256"
            },
            {
              "internalType": "uint256",
              "name": "poolFeeShareBIPS",
              "type": "uint256"
            },
            {
              "internalType": "contract IERC20",
              "name": "vaultCollateralToken",
              "type": "address"
            },
            {
              "internalType": "uint256",
              "name": "mintingVaultCollateralRatioBIPS",
              "type": "uint256"
            },
            {
              "internalType": "uint256",
              "name": "mintingPoolCollateralRatioBIPS",
              "type": "uint256"
            },
            {
              "internalType": "uint256",
              "name": "freeCollateralLots",
              "type": "uint256"
            },
            {
              "internalType": "uint256",
              "name": "totalVaultCollateralWei",
              "type": "uint256"
            },
            {
              "internalType": "uint256",
              "name": "freeVaultCollateralWei",
              "type": "uint256"
            },
            {
              "internalType": "uint256",
              "name": "vaultCollateralRatioBIPS",
              "type": "uint256"
            },
            {
              "internalType": "contract IERC20",
              "name": "poolWNatToken",
              "type": "address"
            },
            {
              "internalType": "uint256",
              "name": "totalPoolCollateralNATWei",
              "type": "uint256"
            },
            {
              "internalType": "uint256",
              "name": "freePoolCollateralNATWei",
              "type": "uint256"
            },
            {
              "internalType": "uint256",
              "name": "poolCollateralRatioBIPS",
              "type": "uint256"
            },
            {
              "internalType": "uint256",
              "name": "totalAgentPoolTokensWei",
              "type": "uint256"
            },
            {
              "internalType": "uint256",
              "name": "announcedVaultCollateralWithdrawalWei",
              "type": "uint256"
            },
            {
              "internalType": "uint256",
              "name": "announcedPoolTokensWithdrawalWei",
              "type": "uint256"
            },
            {
              "internalType": "uint256",
              "name": "freeAgentPoolTokensWei",
              "type": "uint256"
            },
            {
              "internalType": "uint256",
              "name": "mintedUBA",
              "type": "uint256"
            },
            {
              "internalType": "uint256",
              "name": "reservedUBA",
              "type": "uint256"
            },
            {
              "internalType": "uint256",
              "name": "redeemingUBA",
              "type": "uint256"
            },
            {
              "internalType": "uint256",
              "name": "poolRedeemingUBA",
              "type": "uint256"
            },
            {
              "internalType": "uint256",
              "name": "dustUBA",
              "type": "uint256"
            },
            {
              "internalType": "uint256",
              "name": "liquidationStartTimestamp",
              "type": "uint256"
            },
            {
              "internalType": "uint256",
              "name": "maxLiquidationAmountUBA",
              "type": "uint256"
            },
            {
              "internalType": "uint256",
              "name": "liquidationPaymentFactorVaultBIPS",
              "type": "uint256"
            },
            {
              "internalType": "uint256",
              "name": "liquidationPaymentFactorPoolBIPS",
              "type": "uint256"
            },
            {
              "internalType": "int256",
              "name": "underlyingBalanceUBA",
              "type": "int256"
            },
            {
              "internalType": "uint256",
              "name": "requiredUnderlyingBalanceUBA",
              "type": "uint256"
            },
            {
              "internalType": "int256",
              "name": "freeUnderlyingBalanceUBA",
              "type": "int256"
            },
            {
              "internalType": "uint256",
              "name": "announcedUnderlyingWithdrawalId",
              "type": "uint256"
            },
            {
              "internalType": "uint256",
              "name": "buyFAssetByAgentFactorBIPS",
              "type": "uint256"
            },
            {
              "internalType": "uint256",
              "name": "poolExitCollateralRatioBIPS",
              "type": "uint256"
            },
            {
              "internalType": "uint256",
              "name": "redemptionPoolFeeShareBIPS",
              "type": "uint256"
            }
          ],
          "internalType": "struct AgentInfo.Info",
          "name": "_info",
          "type": "tuple"
        }
      ],
      "stateMutability": "view",
      "type": "function"
    },
    {
      "inputs": [
        {
          "internalType": "address",
          "name": "_agentVault",
          "type": "address"
        }
      ],
      "name": "getAgentLiquidationFactorsAndMaxAmount",
      "outputs": [
        {
          "internalType": "uint256",
          "name": "_liquidationPaymentFactorVaultBIPS",
          "type": "uint256"
        },
        {
          "internalType": "uint256",
          "name": "_liquidationPaymentFactorPoolBIPS",
          "type": "uint256"
        },
        {
          "internalType": "uint256",
          "name": "_maxLiquidationAmountUBA",
          "type": "uint256"
        }
      ],
      "stateMutability": "view",
      "type": "function"
    },
    {
      "inputs": [
        {
          "internalType": "address",
          "name": "_agentVault",
          "type": "address"
        }
      ],
      "name": "getAgentMinPoolCollateralRatioBIPS",
      "outputs": [
        {
          "internalType": "uint256",
          "name": "",
          "type": "uint256"
        }
      ],
      "stateMutability": "view",
      "type": "function"
    },
    {
      "inputs": [
        {
          "internalType": "address",
          "name": "_agentVault",
          "type": "address"
        }
      ],
      "name": "getAgentMinVaultCollateralRatioBIPS",
      "outputs": [
        {
          "internalType": "uint256",
          "name": "",
          "type": "uint256"
        }
      ],
      "stateMutability": "view",
      "type": "function"
    },
    {
      "inputs": [
        {
          "internalType": "address",
          "name": "_agentVault",
          "type": "address"
        }
      ],
      "name": "getAgentVaultCollateralToken",
      "outputs": [
        {
          "internalType": "contract IERC20",
          "name": "",
          "type": "address"
        }
      ],
      "stateMutability": "view",
      "type": "function"
    },
    {
      "inputs": [
        {
          "internalType": "address",
          "name": "_agentVault",
          "type": "address"
        }
      ],
      "name": "getAgentVaultOwner",
      "outputs": [
        {
          "internalType": "address",
          "name": "_ownerManagementAddress",
          "type": "address"
        }
      ],
      "stateMutability": "view",
      "type": "function"
    },
    {
      "inputs": [
        {
          "internalType": "uint256",
          "name": "_start",
          "type": "uint256"
        },
        {
          "internalType": "uint256",
          "name": "_end",
          "type": "uint256"
        }
      ],
      "name": "getAllAgents",
      "outputs": [
        {
          "internalType": "address[]",
          "name": "_agents",
          "type": "address[]"
        },
        {
          "internalType": "uint256",
          "name": "_totalLength",
          "type": "uint256"
        }
      ],
      "stateMutability": "view",
      "type": "function"
    },
    {
      "inputs": [
        {
          "internalType": "address",
          "name": "_agentVault",
          "type": "address"
        }
      ],
      "name": "getCollateralPool",
      "outputs": [
        {
          "internalType": "address",
          "name": "",
          "type": "address"
        }
      ],
      "stateMutability": "view",
      "type": "function"
    },
    {
      "inputs": [
        {
          "internalType": "string",
          "name": "_suffix",
          "type": "string"
        }
      ],
      "name": "isPoolTokenSuffixReserved",
      "outputs": [
        {
          "internalType": "bool",
          "name": "",
          "type": "bool"
        }
      ],
      "stateMutability": "view",
      "type": "function"
    }
  ],
  "bytecode": "0x6080604052348015600f57600080fd5b50612ca28061001f6000396000f3fe608060405234801561001057600080fd5b50600436106100a95760003560e01c80637e2ae0d7116100715780637e2ae0d714610156578063b19aec1714610177578063c97c1dcc14610198578063cd715935146101ab578063ceb84b66146101be578063d3a5af8b146101d157600080fd5b8063152052b0146100ae5780635252f3a2146100d7578063529cc2b9146101025780635f016906146101305780636e61164f14610143575b600080fd5b6100c16100bc3660046124f1565b6101f4565b6040516100ce9190612596565b60405180910390f35b6100ea6100e53660046124f1565b61085b565b6040516001600160a01b0390911681526020016100ce565b6101156101103660046124f1565b610876565b604080519384526020840192909252908201526060016100ce565b6100ea61013e3660046124f1565b6108ad565b6100ea6101513660046124f1565b6108c0565b6101696101643660046124f1565b6108de565b6040519081526020016100ce565b61018a6101853660046127ec565b6108f1565b6040516100ce92919061280e565b6101696101a63660046124f1565b61090b565b6101696101b93660046124f1565b610918565b6101696101cc3660046124f1565b610925565b6101e46101df36600461287a565b610932565b60405190151581526020016100ce565b610355604080516105008101909152806000815260200160006001600160a01b0316815260200160006001600160a01b0316815260200160006001600160a01b0316815260200160006001600160a01b0316815260200160608152602001600015158152602001600081526020016000815260200160006001600160a01b0316815260200160008152602001600081526020016000815260200160008152602001600081526020016000815260200160006001600160a01b0316815260200160008152602001600081526020016000815260200160008152602001600081526020016000815260200160008152602001600081526020016000815260200160008152602001600081526020016000815260200160008152602001600081526020016000815260200160008152602001600081526020016000815260200160008152602001600081526020016000815260200160008152602001600081525090565b60006103608361098f565b9050600061036d826109d6565b9050600061037a83610a80565b9050600061038784610acd565b84549091506001600160a01b031660006103a086610b06565b90506103ab86610b7a565b879060048111156103be576103be61250e565b908160048111156103d1576103d161250e565b90525060018601546001600160a01b031660208801526103f086610c3d565b6001600160a01b039081166040808a01919091529083166060890181905281516332f7ce0b60e21b81529151909163cbdf382c9160048083019260209291908290030181865afa158015610448573d6000803e3d6000fd5b505050506040513d601f19601f8201168201806040525081019061046c9190612930565b6001600160a01b031660808801526002860180546104899061294d565b80601f01602080910402602001604051908101604052809291908181526020018280546104b59061294d565b80156105025780601f106104d757610100808354040283529160200191610502565b820191906000526020600020905b8154815290600101906020018083116104e557829003601f168201915b505050505060a0880152600486015463ffffffff6501000000000082048116151560c08a015285546001600160a01b03166101208a015261ffff600160481b8304811660e08b0152600160581b8304166101008a0152600386015461057192600160681b900482169116610cdf565b6101408801526004860154600384015461059b9163ffffffff600160881b90910481169116610cdf565b6101608801526105ab8587610cf7565b6101808801528451602001516101a088015284516105c99087610d05565b6101c088015280516101e088015282546001600160a01b03166102008801526020808601805190910151610220890152516106049087610d05565b61024088015260208082015161026089015260408601805190910151610280890152516106319087610d05565b6102e0880152610642866000610d2a565b546001600160801b03166102a088015261065d866002610d2a565b546001600160801b03166102c0880152600586015461068b90600160401b90046001600160401b0316610d77565b61030088015260058601546106a8906001600160401b0316610d77565b61032088015260058601546106cc90600160801b90046001600160401b0316610d77565b61034088015260058601546106f090600160c01b90046001600160401b0316610d77565b610360880152600686015461070d906001600160401b0316610d77565b6103808801526004860154600160a81b90046001600160401b03166103a08801526107388682610dca565b6103c08a01526104008901526103e08801526006860154600160401b9004600f0b61042088015261076886610e86565b610440880181905261077990610f02565b8761042001516107899190612997565b6104608801526006860154600160c01b90046001600160401b0316610480880152600a860154600160801b900461ffff166104a0880152855460408051633cfc747d60e01b815290516001600160a01b0390921691633cfc747d916004808201926020929091908290030181865afa158015610809573d6000803e3d6000fd5b505050506040513d601f19601f8201168201806040525081019061082d91906129b7565b63ffffffff166104c088015250505050600c9190910154600160e01b900461ffff166104e083015250919050565b60006108668261098f565b546001600160a01b031692915050565b60008060008061088585610f75565b9050600061089282610b06565b905061089e8282610dca565b94509450945050509193909250565b60006108666108bb83610f75565b610a80565b60006108cb8261098f565b600101546001600160a01b031692915050565b60006108eb826001610fe4565b92915050565b606060006108ff848461100b565b915091505b9250929050565b60006108eb826000610fe4565b60006108eb82600161111c565b60006108eb82600061111c565b604051600090600080516020612c4d833981519152907fec7e8c1c441439dd40959777f4c577ea0cd42fcc1dbe59d2bd0f5d9c55df8db8906109759085906129dd565b9081526040519081900360200190205460ff169392505050565b60008061099b83611140565b90506000600482015460ff1660058111156109b8576109b861250e565b036108eb5760405163d68a46c560e01b815260040160405180910390fd5b610a416040805160c081019091526000606082018181526080830182905260a083019190915281908152604080516060810182526000808252602082810182905292820152910190815260408051606081018252600080825260208281018290529282015291015290565b6000610a4c83611167565b90506040518060600160405280610a6285611224565b8152602001828152602001610a7785846112d5565b90529392505050565b600080600080516020612c4d83398151915260048401548154919250829161010090910461ffff16908110610ab757610ab76129f9565b9060005260206000209060040201915050919050565b600080600080516020612c4d833981519152600484015481549192508291630100000090910461ffff16908110610ab757610ab76129f9565b610b316040518060800160405280600081526020016000815260200160008152602001600081525090565b600080610b3f8460006114af565b91509150600080610b518660016114af565b604080516080810182529687526020870192909252908501939093525050606082015292915050565b600481015460009060ff166001816005811115610b9957610b9961250e565b03610ba75750600092915050565b6002816005811115610bbb57610bbb61250e565b03610bc95750600192915050565b6003816005811115610bdd57610bdd61250e565b03610beb5750600292915050565b6004816005811115610bff57610bff61250e565b03610c0d5750600392915050565b6005816005811115610c2157610c2161250e565b14610c2e57610c2e612a0f565b50600492915050565b50919050565b6000610c707f4f24f5c433db0962dac0d2c8b84197a6e6c7cc4e5d9ebe1916a1b6193da2f341546001600160a01b031690565b6001830154604051631f86345d60e31b81526001600160a01b03918216600482015291169063fc31a2e890602401602060405180830381865afa158015610cbb573d6000803e3d6000fd5b505050506040513d601f19601f820116820180604052508101906108eb9190612930565b6000818311610cee5781610cf0565b825b9392505050565b6000610cf08383600161150a565b600080610d128484611562565b9050610d22846020015182611692565b949350505050565b60006001826002811115610d4057610d4061250e565b03610d4d57610d4d612a0f565b6000826002811115610d6157610d6161250e565b14610d6f5782600901610cf0565b505060080190565b7f4f24f5c433db0962dac0d2c8b84197a6e6c7cc4e5d9ebe1916a1b6193da2f34654600090600080516020612c0d83398151915290610cf090600160901b90046001600160401b03908116908516612a25565b60048201546000908190819060ff166002816005811115610ded57610ded61250e565b14158015610e0d57506003816005811115610e0a57610e0a61250e565b14155b15610e2357600080600093509350935050610e7f565b610e3686866000015187602001516116ac565b86519195509350600090610e6790610e51908990888561175d565b610e6289896020015188600161175d565b610cdf565b9050610e7a610e7582611829565b610d77565b925050505b9250925092565b7f4f24f5c433db0962dac0d2c8b84197a6e6c7cc4e5d9ebe1916a1b6193da2f346546005820154600091600080516020612c0d83398151915291600160901b9091046001600160401b0390811691610eef91600160801b8204811691600160401b900416612a3c565b6001600160401b0316610cf09190612a25565b60006001600160ff1b03821115610f715760405162461bcd60e51b815260206004820152602860248201527f53616665436173743a2076616c756520646f65736e27742066697420696e2061604482015267371034b73a191a9b60c11b60648201526084015b60405180910390fd5b5090565b600080610f8183611140565b600481015490915060ff166000816005811115610fa057610fa061250e565b14158015610fc057506005816005811115610fbd57610fbd61250e565b14155b610fdd5760405163d68a46c560e01b815260040160405180910390fd5b5092915050565b600080610ff084610f75565b90506000610ffe8285611891565b6020015195945050505050565b7fec7e8c1c441439dd40959777f4c577ea0cd42fcc1dbe59d2bd0f5d9c55df8db954606090600080516020612c4d8339815191526110498483611913565b93506110558585611913565b94506110618585612a5b565b6001600160401b0381111561107857611078612864565b6040519080825280602002602001820160405280156110a1578160200160208202803683370190505b509250845b84811015611113578160030181815481106110c3576110c36129f9565b6000918252602090912001546001600160a01b0316846110e38884612a5b565b815181106110f3576110f36129f9565b6001600160a01b03909216602092830291909101909101526001016110a6565b50509250929050565b60008061112884610f75565b905060006111368285611922565b9695505050505050565b60401b68010000000000000000600160e01b0316600080516020612c2d8339815191521890565b61118c6040805160608101909152806000815260200160008152602001600081525090565b600061119783610acd565b604080516060810182526001815285548251634ac8eb5f60e01b8152925193945090926020808501936001600160a01b0390931692634ac8eb5f92600480830193928290030181865afa1580156111f2573d6000803e3d6000fd5b505050506040513d601f19601f820116820180604052508101906112169190612a6e565b8152602001610a77836119fd565b6112496040805160608101909152806000815260200160008152602001600081525090565b600061125483610a80565b6040805160608101909152909150806000815282546020909101906001600160a01b03166370a08231600080516020612c2d833981519152871860401c6040516001600160e01b031960e084901b1681526001600160a01b039091166004820152602401602060405180830381865afa1580156111f2573d6000803e3d6000fd5b6112fa6040805160608101909152806000815260200160008152602001600081525090565b8254604080516332f7ce0b60e21b815290516000926001600160a01b03169163cbdf382c9160048083019260209291908290030181865afa158015611343573d6000803e3d6000fd5b505050506040513d601f19601f820116820180604052508101906113679190612930565b905060006001600160a01b0382166370a08231600080516020612c2d833981519152871860401c6040516001600160e01b031960e084901b1681526001600160a01b039091166004820152602401602060405180830381865afa1580156113d2573d6000803e3d6000fd5b505050506040513d601f19601f820116820180604052508101906113f69190612a6e565b90506000826001600160a01b03166318160ddd6040518163ffffffff1660e01b8152600401602060405180830381865afa158015611438573d6000803e3d6000fd5b505050506040513d601f19601f8201168201806040525081019061145c9190612a6e565b90506000856020015160000361147657856040015161148b565b6020860151604087015161148b918490611a13565b60408051606081018252600281526020810195909552840152509095945050505050565b6000806000806114bf8686611b17565b9150915060006114cf8388611bf5565b905060006114dd8389611bf5565b90506114f184604001518460400151611913565b94506114fd8282610cdf565b9550505050509250929050565b60008061151c85600001518585611c4c565b9050600061152f86602001518686611c4c565b9050600061154287604001518787611c4c565b9050611557836115528484611913565b611913565b979650505050505050565b6000806000611575848660000151611922565b6005860154919350915060009061159e906001600160401b03600160401b820481169116612a87565b905060006115ba846115b4848a60400151611c83565b90611c9d565b905060006001885160028111156115d3576115d361250e565b146115f2576005870154600160801b90046001600160401b0316611608565b6005870154600160c01b90046001600160401b03165b90506000611627856115b4846001600160401b03168c60400151611c83565b9050600060018a5160028111156116405761164061250e565b0361164c576000611664565b8951611659908a90610d2a565b546001600160801b03165b6001600160801b031690508061167a8386612a87565b6116849190612a87565b9a9950505050505050505050565b60008183116116a2576000610cf0565b610cf08284612a5b565b600080600080516020612c0d833981519152816116c887611cac565b905060008260150182815481106116e1576116e16129f9565b90600052602060002001549050611717836016018381548110611706576117066129f9565b906000526020600020015482611913565b945086851115611725578694505b61172f8582612a5b565b9350858411156117525785935061174f6117498583612a5b565b88611913565b94505b505050935093915050565b60006003600486015460ff16600581111561177a5761177a61250e565b0361179a57506005840154600160401b90046001600160401b0316610d22565b60006117a68684611d32565b90508481116117b9576000915050610d22565b8385116117dc5750506005840154600160401b90046001600160401b0316610d22565b60006118066117eb8784612a5b565b6117f58785612a5b565b6117ff8a88611d78565b9190611df8565b6005880154909150611557908290600160401b90046001600160401b0316611913565b60006001600160401b03821115610f715760405162461bcd60e51b815260206004820152602660248201527f53616665436173743a2076616c756520646f65736e27742066697420696e203660448201526534206269747360d01b6064820152608401610f68565b6118b66040805160608101909152806000815260200160008152602001600081525090565b60008260028111156118ca576118ca61250e565b036118df576118d883611224565b90506108eb565b60018260028111156118f3576118f361250e565b03611901576118d883611167565b6118d88361190e85611167565b6112d5565b6000818310610cee5781610cf0565b60008060028360028111156119395761193961250e565b036119765750507f4f24f5c433db0962dac0d2c8b84197a6e6c7cc4e5d9ebe1916a1b6193da2f34654640100000000900463ffffffff1680610904565b600183600281111561198a5761198a61250e565b036119c55761199884610acd565b60030154600485015463ffffffff91821692506119be91600160881b9091041682610cdf565b9150610904565b6119ce84610a80565b60030154600485015463ffffffff91821692506119f491600160681b9091041682610cdf565b91509250929050565b6000611a0a826000611e35565b50909392505050565b6000808211611a35576040516323d359a360e01b815260040160405180910390fd5b83600003611a4557506000610cf0565b83830283858281611a5857611a58612a9a565b0403611a7657828181611a6d57611a6d612a9a565b04915050610cf0565b506000611a838386612ab0565b90506000611a918487612ac4565b90506000611a9f8587612ab0565b90506000611aad8688612ac4565b905085611aba8285612a25565b611ac49190612ab0565b611ace8385612a25565b611ad88387612a25565b88611ae38689612a25565b611aed9190612a25565b611af79190612a87565b611b019190612a87565b611b0b9190612a87565b98975050505050505050565b611b3c6040805160608101909152806000815260200160008152602001600081525090565b611b616040805160608101909152806000815260200160008152602001600081525090565b6000611b6d8585611fed565b90506000611b7c868684612092565b9050600080611b8a84612189565b915091506040518060600160405280886002811115611bab57611bab61250e565b81526020018481526020018381525095506040518060600160405280886002811115611bd957611bd961250e565b8152602001848152602001828152509450505050509250929050565b600080611c06838560000151611d78565b90506000611c18828660400151611c83565b905080600003611c31576402540be400925050506108eb565b6020850151611c439061271083611a13565b95945050505050565b600080611c598585610d05565b90506000611c68868686612238565b905080600003611c79576000611136565b6111368183612ab0565b6000610cf082611c956009600a612bbf565b859190611a13565b6000610cf08383612710611a13565b60048101547f4f24f5c433db0962dac0d2c8b84197a6e6c7cc4e5d9ebe1916a1b6193da2f34e54600091600080516020612c0d833981519152916001600160401b03600160a81b9092048216918491640100000000900416611d0e8342612a5b565b611d189190612ab0565b9050611c4381600185601501805490506115529190612a5b565b600080611d3f8484611fed565b9050611d4b8484612284565b611d60576003015463ffffffff1690506108eb565b60030154600160401b900463ffffffff1690506108eb565b6000806001836002811115611d8f57611d8f61250e565b14611dae576005840154600160801b90046001600160401b0316611dc4565b6005840154600160c01b90046001600160401b03165b60058501546001600160401b0391821692508291611dee9180821691600160401b90910416612a87565b610d229190612a87565b600080611e06858585611a13565b905060008380611e1857611e18612a9a565b85870990508015611e2c5781600101611136565b50949350505050565b600080600080600080611ed4886001018054611e509061294d565b80601f0160208091040260200160405190810160405280929190818152602001828054611e7c9061294d565b8015611ec95780601f10611e9e57610100808354040283529160200191611ec9565b820191906000526020600020905b815481529060010190602001808311611eac57829003601f168201915b5050505050886122ed565b8a549295509093509150600160f01b900460ff1615611f1b578754600090611f0a90600160a81b900460ff1660018387866123db565b9650919450849350610e7f92505050565b6000806000611fb68b6002018054611f329061294d565b80601f0160208091040260200160405190810160405280929190818152602001828054611f5e9061294d565b8015611fab5780601f10611f8057610100808354040283529160200191611fab565b820191906000526020600020905b815481529060010190602001808311611f8e57829003601f168201915b50505050508b6122ed565b8d549295509093509150600090611fda90600160a81b900460ff1685848a896123db565b9950949750909550610e7f945050505050565b600060028260028111156120035761200361250e565b0361201057612010612a0f565b600080516020612c4d83398151915260008360028111156120335761203361250e565b0361206f57600484015481548291610100900461ffff16908110612059576120596129f9565b90600052602060002090600402019150506108eb565b6004840154815482916301000000900461ffff16908110612059576120596129f9565b600060018360028111156120a8576120a861250e565b0361212157835460408051634ac8eb5f60e01b815290516001600160a01b0390921691634ac8eb5f916004808201926020929091908290030181865afa1580156120f6573d6000803e3d6000fd5b505050506040513d601f19601f8201168201806040525081019061211a9190612a6e565b9050610cf0565b81546001600160a01b03166370a08231600080516020612c2d833981519152861860401c6040516001600160e01b031960e084901b1681526001600160a01b039091166004820152602401602060405180830381865afa1580156120f6573d6000803e3d6000fd5b600080600080516020612c0d8339815191528180806121a88782611e35565b92509250925060008060006121be8a6001611e35565b60108a0154929550909350915060009085906121ea90600160c01b90046001600160401b031684612a87565b1015801561221757506010880154869061221490600160c01b90046001600160401b031685612a87565b10155b9050869950806122275786612229565b835b98505050505050505050915091565b7f4f24f5c433db0962dac0d2c8b84197a6e6c7cc4e5d9ebe1916a1b6193da2f34754600090600080516020612c0d83398151915290611c4390869086906001600160401b031686612462565b6000808260028111156122995761229961250e565b036122b557506004820154600160f01b900460011615156108eb565b60018260028111156122c9576122c961250e565b146122d6576122d6612a0f565b506004820154600160f01b900460021615156108eb565b7f4f24f5c433db0962dac0d2c8b84197a6e6c7cc4e5d9ebe1916a1b6193da2f3445460009081908190600080516020612c0d833981519152906001600160a01b031685156123af5760405163e4a0a55b60e01b81526001600160a01b0382169063e4a0a55b90612361908a90600401612bcb565b606060405180830381865afa15801561237e573d6000803e3d6000fd5b505050506040513d601f19601f820116820180604052508101906123a29190612bde565b9450945094505050610e7f565b60405163524f388960e01b81526001600160a01b0382169063524f388990612361908a90600401612bcb565b6000600080516020612c0d8339815191528160096123f9878a612a87565b6124039190612a87565b600a830154909150600090612423908690600160a81b900460ff16612a87565b90508082101561243557612435612a0f565b6124556124428284612a5b565b61244d90600a612bbf565b87908a611a13565b9998505050505050505050565b6000808261247157600061249a565b600485015461249a9061ffff600160581b82048116916115b4918891600160481b900416611c9d565b905060006124a88286612a87565b905060006124ba828960400151611c83565b905060006124cc888a60000151611922565b5090506124558282611c9d565b6001600160a01b03811681146124ee57600080fd5b50565b60006020828403121561250357600080fd5b8135610cf0816124d9565b634e487b7160e01b600052602160045260246000fd5b6005811061254257634e487b7160e01b600052602160045260246000fd5b9052565b60005b83811015612561578181015183820152602001612549565b50506000910152565b60008151808452612582816020860160208601612546565b601f01601f19169290920160200192915050565b602081526125a8602082018351612524565b600060208301516125c460408401826001600160a01b03169052565b5060408301516001600160a01b03811660608401525060608301516001600160a01b03811660808401525060808301516001600160a01b03811660a08401525060a083015161050060c084015261261f61052084018261256a565b905060c084015161263460e085018215159052565b5060e08401516101008401526101008401516101208401526101208401516126686101408501826001600160a01b03169052565b506101408401516101608401526101608401516101808401526101808401516101a08401526101a08401516101c08401526101c08401516101e08401526101e08401516102008401526102008401516126cd6102208501826001600160a01b03169052565b506102208401516102408401526102408401516102608401526102608401516102808401526102808401516102a08401526102a08401516102c08401526102c08401516102e08401526102e08401516103008401526103008401516103208401526103208401516103408401526103408401516103608401526103608401516103808401526103808401516103a08401526103a08401516103c08401526103c08401516103e08401526103e08401516104008401526104008401516104208401526104208401516104408401526104408401516104608401526104608401516104808401526104808401516104a08401526104a08401516104c08401526104c08401516104e08401526104e08401516105008401528091505092915050565b600080604083850312156127ff57600080fd5b50508035926020909101359150565b6040808252835190820181905260009060208501906060840190835b818110156128515783516001600160a01b031683526020938401939092019160010161282a565b5050602093909301939093525092915050565b634e487b7160e01b600052604160045260246000fd5b60006020828403121561288c57600080fd5b81356001600160401b038111156128a257600080fd5b8201601f810184136128b357600080fd5b80356001600160401b038111156128cc576128cc612864565b604051601f8201601f19908116603f011681016001600160401b03811182821017156128fa576128fa612864565b60405281815282820160200186101561291257600080fd5b81602084016020830137600091810160200191909152949350505050565b60006020828403121561294257600080fd5b8151610cf0816124d9565b600181811c9082168061296157607f821691505b602082108103610c3757634e487b7160e01b600052602260045260246000fd5b634e487b7160e01b600052601160045260246000fd5b8181036000831280158383131683831282161715610fdd57610fdd612981565b6000602082840312156129c957600080fd5b815163ffffffff81168114610cf057600080fd5b600082516129ef818460208701612546565b9190910192915050565b634e487b7160e01b600052603260045260246000fd5b634e487b7160e01b600052600160045260246000fd5b80820281158282048414176108eb576108eb612981565b6001600160401b0381811683821601908111156108eb576108eb612981565b818103818111156108eb576108eb612981565b600060208284031215612a8057600080fd5b5051919050565b808201808211156108eb576108eb612981565b634e487b7160e01b600052601260045260246000fd5b600082612abf57612abf612a9a565b500490565b600082612ad357612ad3612a9a565b500690565b6001815b6001841115612b1357808504811115612af757612af7612981565b6001841615612b0557908102905b60019390931c928002612adc565b935093915050565b600082612b2a575060016108eb565b81612b37575060006108eb565b8160018114612b4d5760028114612b5757612b73565b60019150506108eb565b60ff841115612b6857612b68612981565b50506001821b6108eb565b5060208310610133831016604e8410600b8410161715612b96575081810a6108eb565b612ba36000198484612ad8565b8060001904821115612bb757612bb7612981565b029392505050565b6000610cf08383612b1b565b602081526000610cf0602083018461256a565b600080600060608486031215612bf357600080fd5b505081516020830151604090930151909492935091905056fe4f24f5c433db0962dac0d2c8b84197a6e6c7cc4e5d9ebe1916a1b6193da2f33a5bebac0595fee029d42bb673937f5f1cb81cf8641382bc17774635de9b7d7965ec7e8c1c441439dd40959777f4c577ea0cd42fcc1dbe59d2bd0f5d9c55df8db6a26469706673582212203bb22cb5fe724b17d4173029745be26bc86693d776e3619168311318aac78f9864736f6c634300081b0033",
  "linkReferences": {},
  "deployedLinkReferences": {}
}