{
  "_format": "hh-sol-artifact-1",
  "contractName": "AgentInfoFacet",
  "sourceName": "contracts/assetManager/facets/AgentInfoFacet.sol",
  "abi": [
    {
      "inputs": [],
      "name": "DivisionByZero",
      "type": "error"
    },
    {
      "inputs": [],
      "name": "EmergencyPauseActive",
      "type": "error"
    },
    {
      "inputs": [],
      "name": "InvalidAgentVaultAddress",
      "type": "error"
    },
    {
      "inputs": [],
      "name": "NotAttached",
      "type": "error"
    },
    {
      "inputs": [],
      "name": "NotWhitelisted",
      "type": "error"
    },
    {
      "inputs": [],
      "name": "OnlyAssetManagerController",
      "type": "error"
    },
    {
      "inputs": [
        {
          "internalType": "address",
          "name": "_agentVault",
          "type": "address"
        }
      ],
      "name": "getAgentFullPoolCollateral",
      "outputs": [
        {
          "internalType": "uint256",
          "name": "",
          "type": "uint256"
        }
      ],
      "stateMutability": "view",
      "type": "function"
    },
    {
      "inputs": [
        {
          "internalType": "address",
          "name": "_agentVault",
          "type": "address"
        }
      ],
      "name": "getAgentFullVaultCollateral",
      "outputs": [
        {
          "internalType": "uint256",
          "name": "",
          "type": "uint256"
        }
      ],
      "stateMutability": "view",
      "type": "function"
    },
    {
      "inputs": [
        {
          "internalType": "address",
          "name": "_agentVault",
          "type": "address"
        }
      ],
      "name": "getAgentInfo",
      "outputs": [
        {
          "components": [
            {
              "internalType": "enum AgentInfo.Status",
              "name": "status",
              "type": "uint8"
            },
            {
              "internalType": "address",
              "name": "ownerManagementAddress",
              "type": "address"
            },
            {
              "internalType": "address",
              "name": "ownerWorkAddress",
              "type": "address"
            },
            {
              "internalType": "address",
              "name": "collateralPool",
              "type": "address"
            },
            {
              "internalType": "address",
              "name": "collateralPoolToken",
              "type": "address"
            },
            {
              "internalType": "string",
              "name": "underlyingAddressString",
              "type": "string"
            },
            {
              "internalType": "bool",
              "name": "publiclyAvailable",
              "type": "bool"
            },
            {
              "internalType": "uint256",
              "name": "feeBIPS",
              "type": "uint256"
            },
            {
              "internalType": "uint256",
              "name": "poolFeeShareBIPS",
              "type": "uint256"
            },
            {
              "internalType": "contract IERC20",
              "name": "vaultCollateralToken",
              "type": "address"
            },
            {
              "internalType": "uint256",
              "name": "mintingVaultCollateralRatioBIPS",
              "type": "uint256"
            },
            {
              "internalType": "uint256",
              "name": "mintingPoolCollateralRatioBIPS",
              "type": "uint256"
            },
            {
              "internalType": "uint256",
              "name": "freeCollateralLots",
              "type": "uint256"
            },
            {
              "internalType": "uint256",
              "name": "totalVaultCollateralWei",
              "type": "uint256"
            },
            {
              "internalType": "uint256",
              "name": "freeVaultCollateralWei",
              "type": "uint256"
            },
            {
              "internalType": "uint256",
              "name": "vaultCollateralRatioBIPS",
              "type": "uint256"
            },
            {
              "internalType": "contract IERC20",
              "name": "poolWNatToken",
              "type": "address"
            },
            {
              "internalType": "uint256",
              "name": "totalPoolCollateralNATWei",
              "type": "uint256"
            },
            {
              "internalType": "uint256",
              "name": "freePoolCollateralNATWei",
              "type": "uint256"
            },
            {
              "internalType": "uint256",
              "name": "poolCollateralRatioBIPS",
              "type": "uint256"
            },
            {
              "internalType": "uint256",
              "name": "totalAgentPoolTokensWei",
              "type": "uint256"
            },
            {
              "internalType": "uint256",
              "name": "announcedVaultCollateralWithdrawalWei",
              "type": "uint256"
            },
            {
              "internalType": "uint256",
              "name": "announcedPoolTokensWithdrawalWei",
              "type": "uint256"
            },
            {
              "internalType": "uint256",
              "name": "freeAgentPoolTokensWei",
              "type": "uint256"
            },
            {
              "internalType": "uint256",
              "name": "mintedUBA",
              "type": "uint256"
            },
            {
              "internalType": "uint256",
              "name": "reservedUBA",
              "type": "uint256"
            },
            {
              "internalType": "uint256",
              "name": "redeemingUBA",
              "type": "uint256"
            },
            {
              "internalType": "uint256",
              "name": "poolRedeemingUBA",
              "type": "uint256"
            },
            {
              "internalType": "uint256",
              "name": "dustUBA",
              "type": "uint256"
            },
            {
              "internalType": "uint256",
              "name": "liquidationStartTimestamp",
              "type": "uint256"
            },
            {
              "internalType": "uint256",
              "name": "maxLiquidationAmountUBA",
              "type": "uint256"
            },
            {
              "internalType": "uint256",
              "name": "liquidationPaymentFactorVaultBIPS",
              "type": "uint256"
            },
            {
              "internalType": "uint256",
              "name": "liquidationPaymentFactorPoolBIPS",
              "type": "uint256"
            },
            {
              "internalType": "int256",
              "name": "underlyingBalanceUBA",
              "type": "int256"
            },
            {
              "internalType": "uint256",
              "name": "requiredUnderlyingBalanceUBA",
              "type": "uint256"
            },
            {
              "internalType": "int256",
              "name": "freeUnderlyingBalanceUBA",
              "type": "int256"
            },
            {
              "internalType": "uint256",
              "name": "announcedUnderlyingWithdrawalId",
              "type": "uint256"
            },
            {
              "internalType": "uint256",
              "name": "buyFAssetByAgentFactorBIPS",
              "type": "uint256"
            },
            {
              "internalType": "uint256",
              "name": "poolExitCollateralRatioBIPS",
              "type": "uint256"
            },
            {
              "internalType": "uint256",
              "name": "redemptionPoolFeeShareBIPS",
              "type": "uint256"
            }
          ],
          "internalType": "struct AgentInfo.Info",
          "name": "_info",
          "type": "tuple"
        }
      ],
      "stateMutability": "view",
      "type": "function"
    },
    {
      "inputs": [
        {
          "internalType": "address",
          "name": "_agentVault",
          "type": "address"
        }
      ],
      "name": "getAgentLiquidationFactorsAndMaxAmount",
      "outputs": [
        {
          "internalType": "uint256",
          "name": "_liquidationPaymentFactorVaultBIPS",
          "type": "uint256"
        },
        {
          "internalType": "uint256",
          "name": "_liquidationPaymentFactorPoolBIPS",
          "type": "uint256"
        },
        {
          "internalType": "uint256",
          "name": "_maxLiquidationAmountUBA",
          "type": "uint256"
        }
      ],
      "stateMutability": "view",
      "type": "function"
    },
    {
      "inputs": [
        {
          "internalType": "address",
          "name": "_agentVault",
          "type": "address"
        }
      ],
      "name": "getAgentMinPoolCollateralRatioBIPS",
      "outputs": [
        {
          "internalType": "uint256",
          "name": "",
          "type": "uint256"
        }
      ],
      "stateMutability": "view",
      "type": "function"
    },
    {
      "inputs": [
        {
          "internalType": "address",
          "name": "_agentVault",
          "type": "address"
        }
      ],
      "name": "getAgentMinVaultCollateralRatioBIPS",
      "outputs": [
        {
          "internalType": "uint256",
          "name": "",
          "type": "uint256"
        }
      ],
      "stateMutability": "view",
      "type": "function"
    },
    {
      "inputs": [
        {
          "internalType": "address",
          "name": "_agentVault",
          "type": "address"
        }
      ],
      "name": "getAgentVaultCollateralToken",
      "outputs": [
        {
          "internalType": "contract IERC20",
          "name": "",
          "type": "address"
        }
      ],
      "stateMutability": "view",
      "type": "function"
    },
    {
      "inputs": [
        {
          "internalType": "address",
          "name": "_agentVault",
          "type": "address"
        }
      ],
      "name": "getAgentVaultOwner",
      "outputs": [
        {
          "internalType": "address",
          "name": "_ownerManagementAddress",
          "type": "address"
        }
      ],
      "stateMutability": "view",
      "type": "function"
    },
    {
      "inputs": [
        {
          "internalType": "uint256",
          "name": "_start",
          "type": "uint256"
        },
        {
          "internalType": "uint256",
          "name": "_end",
          "type": "uint256"
        }
      ],
      "name": "getAllAgents",
      "outputs": [
        {
          "internalType": "address[]",
          "name": "_agents",
          "type": "address[]"
        },
        {
          "internalType": "uint256",
          "name": "_totalLength",
          "type": "uint256"
        }
      ],
      "stateMutability": "view",
      "type": "function"
    },
    {
      "inputs": [
        {
          "internalType": "address",
          "name": "_agentVault",
          "type": "address"
        }
      ],
      "name": "getCollateralPool",
      "outputs": [
        {
          "internalType": "address",
          "name": "",
          "type": "address"
        }
      ],
      "stateMutability": "view",
      "type": "function"
    },
    {
      "inputs": [
        {
          "internalType": "string",
          "name": "_suffix",
          "type": "string"
        }
      ],
      "name": "isPoolTokenSuffixReserved",
      "outputs": [
        {
          "internalType": "bool",
          "name": "",
          "type": "bool"
        }
      ],
      "stateMutability": "view",
      "type": "function"
    }
  ],
  "bytecode": "0x6080604052348015600f57600080fd5b50612dac8061001f6000396000f3fe608060405234801561001057600080fd5b50600436106100a95760003560e01c80637e2ae0d7116100715780637e2ae0d714610156578063b19aec1714610177578063c97c1dcc14610198578063cd715935146101ab578063ceb84b66146101be578063d3a5af8b146101d157600080fd5b8063152052b0146100ae5780635252f3a2146100d7578063529cc2b9146101025780635f016906146101305780636e61164f14610143575b600080fd5b6100c16100bc3660046125fb565b6101f4565b6040516100ce91906126a0565b60405180910390f35b6100ea6100e53660046125fb565b61085b565b6040516001600160a01b0390911681526020016100ce565b6101156101103660046125fb565b610876565b604080519384526020840192909252908201526060016100ce565b6100ea61013e3660046125fb565b6108ad565b6100ea6101513660046125fb565b6108c0565b6101696101643660046125fb565b6108de565b6040519081526020016100ce565b61018a6101853660046128f6565b6108f1565b6040516100ce929190612918565b6101696101a63660046125fb565b61090b565b6101696101b93660046125fb565b610918565b6101696101cc3660046125fb565b610925565b6101e46101df366004612984565b610932565b60405190151581526020016100ce565b610355604080516105008101909152806000815260200160006001600160a01b0316815260200160006001600160a01b0316815260200160006001600160a01b0316815260200160006001600160a01b0316815260200160608152602001600015158152602001600081526020016000815260200160006001600160a01b0316815260200160008152602001600081526020016000815260200160008152602001600081526020016000815260200160006001600160a01b0316815260200160008152602001600081526020016000815260200160008152602001600081526020016000815260200160008152602001600081526020016000815260200160008152602001600081526020016000815260200160008152602001600081526020016000815260200160008152602001600081526020016000815260200160008152602001600081526020016000815260200160008152602001600081525090565b60006103608361098f565b9050600061036d826109d6565b9050600061037a83610a80565b9050600061038784610acd565b84549091506001600160a01b031660006103a086610b06565b90506103ab86610b7a565b879060048111156103be576103be612618565b908160048111156103d1576103d1612618565b90525060018601546001600160a01b031660208801526103f086610c3d565b6001600160a01b039081166040808a01919091529083166060890181905281516332f7ce0b60e21b81529151909163cbdf382c9160048083019260209291908290030181865afa158015610448573d6000803e3d6000fd5b505050506040513d601f19601f8201168201806040525081019061046c9190612a3a565b6001600160a01b0316608088015260028601805461048990612a57565b80601f01602080910402602001604051908101604052809291908181526020018280546104b590612a57565b80156105025780601f106104d757610100808354040283529160200191610502565b820191906000526020600020905b8154815290600101906020018083116104e557829003601f168201915b505050505060a0880152600486015463ffffffff6501000000000082048116151560c08a015285546001600160a01b03166101208a015261ffff600160481b8304811660e08b0152600160581b8304166101008a0152600386015461057192600160681b900482169116610cdf565b6101408801526004860154600384015461059b9163ffffffff600160881b90910481169116610cdf565b6101608801526105ab8587610cf7565b6101808801528451602001516101a088015284516105c99087610d05565b6101c088015280516101e088015282546001600160a01b03166102008801526020808601805190910151610220890152516106049087610d05565b61024088015260208082015161026089015260408601805190910151610280890152516106319087610d05565b6102e0880152610642866000610d2a565b546001600160801b03166102a088015261065d866002610d2a565b546001600160801b03166102c0880152600586015461068b90600160401b90046001600160401b0316610d77565b61030088015260058601546106a8906001600160401b0316610d77565b61032088015260058601546106cc90600160801b90046001600160401b0316610d77565b61034088015260058601546106f090600160c01b90046001600160401b0316610d77565b610360880152600686015461070d906001600160401b0316610d77565b6103808801526004860154600160a81b90046001600160401b03166103a08801526107388682610dca565b6103c08a01526104008901526103e08801526006860154600160401b9004600f0b61042088015261076886610e86565b610440880181905261077990610f02565b8761042001516107899190612aa1565b6104608801526006860154600160c01b90046001600160401b0316610480880152600a860154600160801b900461ffff166104a0880152855460408051633cfc747d60e01b815290516001600160a01b0390921691633cfc747d916004808201926020929091908290030181865afa158015610809573d6000803e3d6000fd5b505050506040513d601f19601f8201168201806040525081019061082d9190612ac1565b63ffffffff166104c088015250505050600c9190910154600160e01b900461ffff166104e083015250919050565b60006108668261098f565b546001600160a01b031692915050565b60008060008061088585610f75565b9050600061089282610b06565b905061089e8282610dca565b94509450945050509193909250565b60006108666108bb83610f75565b610a80565b60006108cb8261098f565b600101546001600160a01b031692915050565b60006108eb826001610fe4565b92915050565b606060006108ff848461100b565b915091505b9250929050565b60006108eb826000610fe4565b60006108eb82600161111c565b60006108eb82600061111c565b604051600090600080516020612d57833981519152907fec7e8c1c441439dd40959777f4c577ea0cd42fcc1dbe59d2bd0f5d9c55df8db890610975908590612ae7565b9081526040519081900360200190205460ff169392505050565b60008061099b83611140565b90506000600482015460ff1660058111156109b8576109b8612618565b036108eb5760405163d68a46c560e01b815260040160405180910390fd5b610a416040805160c081019091526000606082018181526080830182905260a083019190915281908152604080516060810182526000808252602082810182905292820152910190815260408051606081018252600080825260208281018290529282015291015290565b6000610a4c83611167565b90506040518060600160405280610a6285611224565b8152602001828152602001610a7785846112d5565b90529392505050565b600080600080516020612d5783398151915260048401548154919250829161010090910461ffff16908110610ab757610ab7612b03565b9060005260206000209060040201915050919050565b600080600080516020612d57833981519152600484015481549192508291630100000090910461ffff16908110610ab757610ab7612b03565b610b316040518060800160405280600081526020016000815260200160008152602001600081525090565b600080610b3f8460006114af565b91509150600080610b518660016114af565b604080516080810182529687526020870192909252908501939093525050606082015292915050565b600481015460009060ff166001816005811115610b9957610b99612618565b03610ba75750600092915050565b6002816005811115610bbb57610bbb612618565b03610bc95750600192915050565b6003816005811115610bdd57610bdd612618565b03610beb5750600292915050565b6004816005811115610bff57610bff612618565b03610c0d5750600392915050565b6005816005811115610c2157610c21612618565b14610c2e57610c2e612b19565b50600492915050565b50919050565b6000610c707f4f24f5c433db0962dac0d2c8b84197a6e6c7cc4e5d9ebe1916a1b6193da2f341546001600160a01b031690565b6001830154604051631f86345d60e31b81526001600160a01b03918216600482015291169063fc31a2e890602401602060405180830381865afa158015610cbb573d6000803e3d6000fd5b505050506040513d601f19601f820116820180604052508101906108eb9190612a3a565b6000818311610cee5781610cf0565b825b9392505050565b6000610cf0838360016114fd565b600080610d128484611555565b9050610d22846020015182611685565b949350505050565b60006001826002811115610d4057610d40612618565b03610d4d57610d4d612b19565b6000826002811115610d6157610d61612618565b14610d6f5782600901610cf0565b505060080190565b7f4f24f5c433db0962dac0d2c8b84197a6e6c7cc4e5d9ebe1916a1b6193da2f34654600090600080516020612d1783398151915290610cf090600160901b90046001600160401b03908116908516612b2f565b60048201546000908190819060ff166002816005811115610ded57610ded612618565b14158015610e0d57506003816005811115610e0a57610e0a612618565b14155b15610e2357600080600093509350935050610e7f565b610e36868660000151876020015161169f565b86519195509350600090610e6790610e5190899088856117b8565b610e628989602001518860016117b8565b610cdf565b9050610e7a610e75826118cc565b610d77565b925050505b9250925092565b7f4f24f5c433db0962dac0d2c8b84197a6e6c7cc4e5d9ebe1916a1b6193da2f346546005820154600091600080516020612d1783398151915291600160901b9091046001600160401b0390811691610eef91600160801b8204811691600160401b900416612b46565b6001600160401b0316610cf09190612b2f565b60006001600160ff1b03821115610f715760405162461bcd60e51b815260206004820152602860248201527f53616665436173743a2076616c756520646f65736e27742066697420696e2061604482015267371034b73a191a9b60c11b60648201526084015b60405180910390fd5b5090565b600080610f8183611140565b600481015490915060ff166000816005811115610fa057610fa0612618565b14158015610fc057506005816005811115610fbd57610fbd612618565b14155b610fdd5760405163d68a46c560e01b815260040160405180910390fd5b5092915050565b600080610ff084610f75565b90506000610ffe8285611934565b6020015195945050505050565b7fec7e8c1c441439dd40959777f4c577ea0cd42fcc1dbe59d2bd0f5d9c55df8db954606090600080516020612d5783398151915261104984836119b6565b935061105585856119b6565b94506110618585612b65565b6001600160401b038111156110785761107861296e565b6040519080825280602002602001820160405280156110a1578160200160208202803683370190505b509250845b84811015611113578160030181815481106110c3576110c3612b03565b6000918252602090912001546001600160a01b0316846110e38884612b65565b815181106110f3576110f3612b03565b6001600160a01b03909216602092830291909101909101526001016110a6565b50509250929050565b60008061112884610f75565b9050600061113682856119c5565b9695505050505050565b60401b68010000000000000000600160e01b0316600080516020612d378339815191521890565b61118c6040805160608101909152806000815260200160008152602001600081525090565b600061119783610acd565b604080516060810182526001815285548251634ac8eb5f60e01b8152925193945090926020808501936001600160a01b0390931692634ac8eb5f92600480830193928290030181865afa1580156111f2573d6000803e3d6000fd5b505050506040513d601f19601f820116820180604052508101906112169190612b78565b8152602001610a7783611aa0565b6112496040805160608101909152806000815260200160008152602001600081525090565b600061125483610a80565b6040805160608101909152909150806000815282546020909101906001600160a01b03166370a08231600080516020612d37833981519152871860401c6040516001600160e01b031960e084901b1681526001600160a01b039091166004820152602401602060405180830381865afa1580156111f2573d6000803e3d6000fd5b6112fa6040805160608101909152806000815260200160008152602001600081525090565b8254604080516332f7ce0b60e21b815290516000926001600160a01b03169163cbdf382c9160048083019260209291908290030181865afa158015611343573d6000803e3d6000fd5b505050506040513d601f19601f820116820180604052508101906113679190612a3a565b905060006001600160a01b0382166370a08231600080516020612d37833981519152871860401c6040516001600160e01b031960e084901b1681526001600160a01b039091166004820152602401602060405180830381865afa1580156113d2573d6000803e3d6000fd5b505050506040513d601f19601f820116820180604052508101906113f69190612b78565b90506000826001600160a01b03166318160ddd6040518163ffffffff1660e01b8152600401602060405180830381865afa158015611438573d6000803e3d6000fd5b505050506040513d601f19601f8201168201806040525081019061145c9190612b78565b90506000856020015160000361147657856040015161148b565b6020860151604087015161148b918490611ab6565b60408051606081018252600281526020810195909552840152509095945050505050565b6000806000806114bf8686611bae565b9150915060006114cf8388611c8c565b905060006114dd8389611c8c565b9050836040015194506114f08282610cdf565b9550505050509250929050565b60008061150f85600001518585611d4d565b9050600061152286602001518686611d4d565b9050600061153587604001518787611d4d565b905061154a8361154584846119b6565b6119b6565b979650505050505050565b60008060006115688486600001516119c5565b60058601549193509150600090611591906001600160401b03600160401b820481169116612b91565b905060006115ad846115a7848a60400151611d84565b90611d9e565b905060006001885160028111156115c6576115c6612618565b146115e5576005870154600160801b90046001600160401b03166115fb565b6005870154600160c01b90046001600160401b03165b9050600061161a856115a7846001600160401b03168c60400151611d84565b9050600060018a51600281111561163357611633612618565b0361163f576000611657565b895161164c908a90610d2a565b546001600160801b03165b6001600160801b031690508061166d8386612b91565b6116779190612b91565b9a9950505050505050505050565b6000818311611695576000610cf0565b610cf08284612b65565b600080600080516020612d17833981519152816116bb87611dad565b905060008260150182815481106116d4576116d4612b03565b9060005260206000200154905061170a8360160183815481106116f9576116f9612b03565b9060005260206000200154826119b6565b9450600061171789610a80565b905060006117248a610acd565b905061172f82611e3c565b158015611740575061174081611e3c565b1561174e5760009650611772565b61175782611e3c565b8015611769575061176781611e3c565b155b15611772578296505b8887111561177e578896505b6117888784612b65565b9550878611156117ab578795506117a86117a28785612b65565b8a6119b6565b96505b5050505050935093915050565b600080600080516020612d1783398151915290506003600487015460ff1660058111156117e7576117e7612618565b036118085750506005840154600160401b90046001600160401b0316610d22565b60006118148785611e70565b905085811161182857600092505050610d22565b84861161184c575050506005840154600160401b90046001600160401b0316610d22565b600061188161185b8884612b65565b6118658885612b65565b60058b0154600160401b90046001600160401b03169190611eb6565b600d84015490915061189d9082906001600160401b0316611ef3565b60058901549091506118c0908290600160401b90046001600160401b03166119b6565b98975050505050505050565b60006001600160401b03821115610f715760405162461bcd60e51b815260206004820152602660248201527f53616665436173743a2076616c756520646f65736e27742066697420696e203660448201526534206269747360d01b6064820152608401610f68565b6119596040805160608101909152806000815260200160008152602001600081525090565b600082600281111561196d5761196d612618565b036119825761197b83611224565b90506108eb565b600182600281111561199657611996612618565b036119a45761197b83611167565b61197b836119b185611167565b6112d5565b6000818310610cee5781610cf0565b60008060028360028111156119dc576119dc612618565b03611a195750507f4f24f5c433db0962dac0d2c8b84197a6e6c7cc4e5d9ebe1916a1b6193da2f34654640100000000900463ffffffff1680610904565b6001836002811115611a2d57611a2d612618565b03611a6857611a3b84610acd565b60030154600485015463ffffffff9182169250611a6191600160881b9091041682610cdf565b9150610904565b611a7184610a80565b60030154600485015463ffffffff9182169250611a9791600160681b9091041682610cdf565b91509250929050565b6000611aad826000611f2a565b50909392505050565b6000808211611ad8576040516323d359a360e01b815260040160405180910390fd5b83600003611ae857506000610cf0565b83830283858281611afb57611afb612ba4565b0403611b1957828181611b1057611b10612ba4565b04915050610cf0565b506000611b268386612bba565b90506000611b348487612bce565b90506000611b428587612bba565b90506000611b508688612bce565b905085611b5d8285612b2f565b611b679190612bba565b611b718385612b2f565b611b7b8387612b2f565b88611b868689612b2f565b611b909190612b2f565b611b9a9190612b91565b611ba49190612b91565b6118c09190612b91565b611bd36040805160608101909152806000815260200160008152602001600081525090565b611bf86040805160608101909152806000815260200160008152602001600081525090565b6000611c0485856120e2565b90506000611c13868684612187565b9050600080611c2184612293565b915091506040518060600160405280886002811115611c4257611c42612618565b81526020018481526020018381525095506040518060600160405280886002811115611c7057611c70612618565b8152602001848152602001828152509450505050509250929050565b600080600184516002811115611ca457611ca4612618565b14611cc3576005830154600160801b90046001600160401b0316611cd9565b6005830154600160c01b90046001600160401b03165b60058401546001600160401b0391821692506000918391611d059181811691600160401b900416612b91565b611d0f9190612b91565b90506000611d21828760400151611d84565b905080600003611d3b576402540be40093505050506108eb565b60208601516111369061271083611ab6565b600080611d5a8585610d05565b90506000611d69868686612342565b905080600003611d7a576000611136565b6111368183612bba565b6000610cf082611d966009600a612cc9565b859190611ab6565b6000610cf08383612710611ab6565b60048101547f4f24f5c433db0962dac0d2c8b84197a6e6c7cc4e5d9ebe1916a1b6193da2f34e54600091600080516020612d17833981519152916001600160401b03600160a81b9092048216918491640100000000900416611e0f8342612b65565b611e199190612bba565b9050611e3381600185601501805490506115459190612b65565b95945050505050565b8054600090600160b01b90046001600160401b031615806108eb5750505442600160b01b9091046001600160401b03161190565b600080611e7d84846120e2565b9050611e89848461238e565b611e9e576003015463ffffffff1690506108eb565b60030154600160401b900463ffffffff1690506108eb565b600080611ec4858585611ab6565b905060008380611ed657611ed6612ba4565b85870990508015611eea5781600101611136565b50949350505050565b600080611f008385612bce565b90508015611f225782611f138286612b65565b611f1d9190612b91565b610d22565b509192915050565b600080600080600080611fc9886001018054611f4590612a57565b80601f0160208091040260200160405190810160405280929190818152602001828054611f7190612a57565b8015611fbe5780601f10611f9357610100808354040283529160200191611fbe565b820191906000526020600020905b815481529060010190602001808311611fa157829003601f168201915b5050505050886123f7565b8a549295509093509150600160f01b900460ff1615612010578754600090611fff90600160a81b900460ff1660018387866124e5565b9650919450849350610e7f92505050565b60008060006120ab8b600201805461202790612a57565b80601f016020809104026020016040519081016040528092919081815260200182805461205390612a57565b80156120a05780601f10612075576101008083540402835291602001916120a0565b820191906000526020600020905b81548152906001019060200180831161208357829003601f168201915b50505050508b6123f7565b8d5492955090935091506000906120cf90600160a81b900460ff1685848a896124e5565b9950949750909550610e7f945050505050565b600060028260028111156120f8576120f8612618565b0361210557612105612b19565b600080516020612d57833981519152600083600281111561212857612128612618565b0361216457600484015481548291610100900461ffff1690811061214e5761214e612b03565b90600052602060002090600402019150506108eb565b6004840154815482916301000000900461ffff1690811061214e5761214e612b03565b600061219282611e3c565b61219e57506000610cf0565b60018360028111156121b2576121b2612618565b0361222b57835460408051634ac8eb5f60e01b815290516001600160a01b0390921691634ac8eb5f916004808201926020929091908290030181865afa158015612200573d6000803e3d6000fd5b505050506040513d601f19601f820116820180604052508101906122249190612b78565b9050610cf0565b81546001600160a01b03166370a08231600080516020612d37833981519152861860401c6040516001600160e01b031960e084901b1681526001600160a01b039091166004820152602401602060405180830381865afa158015612200573d6000803e3d6000fd5b600080600080516020612d178339815191528180806122b28782611f2a565b92509250925060008060006122c88a6001611f2a565b60108a0154929550909350915060009085906122f490600160c01b90046001600160401b031684612b91565b1015801561232157506010880154869061231e90600160c01b90046001600160401b031685612b91565b10155b9050869950806123315786612333565b835b98505050505050505050915091565b7f4f24f5c433db0962dac0d2c8b84197a6e6c7cc4e5d9ebe1916a1b6193da2f34754600090600080516020612d1783398151915290611e3390869086906001600160401b03168661256c565b6000808260028111156123a3576123a3612618565b036123bf57506004820154600160f01b900460011615156108eb565b60018260028111156123d3576123d3612618565b146123e0576123e0612b19565b506004820154600160f01b900460021615156108eb565b7f4f24f5c433db0962dac0d2c8b84197a6e6c7cc4e5d9ebe1916a1b6193da2f3445460009081908190600080516020612d17833981519152906001600160a01b031685156124b95760405163e4a0a55b60e01b81526001600160a01b0382169063e4a0a55b9061246b908a90600401612cd5565b606060405180830381865afa158015612488573d6000803e3d6000fd5b505050506040513d601f19601f820116820180604052508101906124ac9190612ce8565b9450945094505050610e7f565b60405163524f388960e01b81526001600160a01b0382169063524f38899061246b908a90600401612cd5565b6000600080516020612d17833981519152816009612503878a612b91565b61250d9190612b91565b600a83015490915060009061252d908690600160a81b900460ff16612b91565b90508082101561253f5761253f612b19565b61255f61254c8284612b65565b61255790600a612cc9565b87908a611ab6565b9998505050505050505050565b6000808261257b5760006125a4565b60048501546125a49061ffff600160581b82048116916115a7918891600160481b900416611d9e565b905060006125b28286612b91565b905060006125c4828960400151611d84565b905060006125d6888a600001516119c5565b50905061255f8282611d9e565b6001600160a01b03811681146125f857600080fd5b50565b60006020828403121561260d57600080fd5b8135610cf0816125e3565b634e487b7160e01b600052602160045260246000fd5b6005811061264c57634e487b7160e01b600052602160045260246000fd5b9052565b60005b8381101561266b578181015183820152602001612653565b50506000910152565b6000815180845261268c816020860160208601612650565b601f01601f19169290920160200192915050565b602081526126b260208201835161262e565b600060208301516126ce60408401826001600160a01b03169052565b5060408301516001600160a01b03811660608401525060608301516001600160a01b03811660808401525060808301516001600160a01b03811660a08401525060a083015161050060c0840152612729610520840182612674565b905060c084015161273e60e085018215159052565b5060e08401516101008401526101008401516101208401526101208401516127726101408501826001600160a01b03169052565b506101408401516101608401526101608401516101808401526101808401516101a08401526101a08401516101c08401526101c08401516101e08401526101e08401516102008401526102008401516127d76102208501826001600160a01b03169052565b506102208401516102408401526102408401516102608401526102608401516102808401526102808401516102a08401526102a08401516102c08401526102c08401516102e08401526102e08401516103008401526103008401516103208401526103208401516103408401526103408401516103608401526103608401516103808401526103808401516103a08401526103a08401516103c08401526103c08401516103e08401526103e08401516104008401526104008401516104208401526104208401516104408401526104408401516104608401526104608401516104808401526104808401516104a08401526104a08401516104c08401526104c08401516104e08401526104e08401516105008401528091505092915050565b6000806040838503121561290957600080fd5b50508035926020909101359150565b6040808252835190820181905260009060208501906060840190835b8181101561295b5783516001600160a01b0316835260209384019390920191600101612934565b5050602093909301939093525092915050565b634e487b7160e01b600052604160045260246000fd5b60006020828403121561299657600080fd5b81356001600160401b038111156129ac57600080fd5b8201601f810184136129bd57600080fd5b80356001600160401b038111156129d6576129d661296e565b604051601f8201601f19908116603f011681016001600160401b0381118282101715612a0457612a0461296e565b604052818152828201602001861015612a1c57600080fd5b81602084016020830137600091810160200191909152949350505050565b600060208284031215612a4c57600080fd5b8151610cf0816125e3565b600181811c90821680612a6b57607f821691505b602082108103610c3757634e487b7160e01b600052602260045260246000fd5b634e487b7160e01b600052601160045260246000fd5b8181036000831280158383131683831282161715610fdd57610fdd612a8b565b600060208284031215612ad357600080fd5b815163ffffffff81168114610cf057600080fd5b60008251612af9818460208701612650565b9190910192915050565b634e487b7160e01b600052603260045260246000fd5b634e487b7160e01b600052600160045260246000fd5b80820281158282048414176108eb576108eb612a8b565b6001600160401b0381811683821601908111156108eb576108eb612a8b565b818103818111156108eb576108eb612a8b565b600060208284031215612b8a57600080fd5b5051919050565b808201808211156108eb576108eb612a8b565b634e487b7160e01b600052601260045260246000fd5b600082612bc957612bc9612ba4565b500490565b600082612bdd57612bdd612ba4565b500690565b6001815b6001841115612c1d57808504811115612c0157612c01612a8b565b6001841615612c0f57908102905b60019390931c928002612be6565b935093915050565b600082612c34575060016108eb565b81612c41575060006108eb565b8160018114612c575760028114612c6157612c7d565b60019150506108eb565b60ff841115612c7257612c72612a8b565b50506001821b6108eb565b5060208310610133831016604e8410600b8410161715612ca0575081810a6108eb565b612cad6000198484612be2565b8060001904821115612cc157612cc1612a8b565b029392505050565b6000610cf08383612c25565b602081526000610cf06020830184612674565b600080600060608486031215612cfd57600080fd5b505081516020830151604090930151909492935091905056fe4f24f5c433db0962dac0d2c8b84197a6e6c7cc4e5d9ebe1916a1b6193da2f33a5bebac0595fee029d42bb673937f5f1cb81cf8641382bc17774635de9b7d7965ec7e8c1c441439dd40959777f4c577ea0cd42fcc1dbe59d2bd0f5d9c55df8db6a26469706673582212207642cb18077f6783c4de9192f351c820b0c48a066109f7d42eaefc6ed4b9140964736f6c634300081b0033",
  "linkReferences": {},
  "deployedLinkReferences": {}
}