{
  "_format": "hh-sol-artifact-1",
  "contractName": "MockDiamond",
  "sourceName": "contracts/diamond/mock/MockDiamond.sol",
  "abi": [
    {
      "inputs": [
        {
          "components": [
            {
              "internalType": "address",
              "name": "facetAddress",
              "type": "address"
            },
            {
              "internalType": "enum IDiamond.FacetCutAction",
              "name": "action",
              "type": "uint8"
            },
            {
              "internalType": "bytes4[]",
              "name": "functionSelectors",
              "type": "bytes4[]"
            }
          ],
          "internalType": "struct IDiamond.FacetCut[]",
          "name": "_diamondCut",
          "type": "tuple[]"
        },
        {
          "internalType": "address",
          "name": "_init",
          "type": "address"
        },
        {
          "internalType": "bytes",
          "name": "_initCalldata",
          "type": "bytes"
        }
      ],
      "stateMutability": "payable",
      "type": "constructor"
    },
    {
      "inputs": [
        {
          "internalType": "bytes4",
          "name": "_selector",
          "type": "bytes4"
        }
      ],
      "name": "CannotAddFunctionToDiamondThatAlreadyExists",
      "type": "error"
    },
    {
      "inputs": [
        {
          "internalType": "bytes4[]",
          "name": "_selectors",
          "type": "bytes4[]"
        }
      ],
      "name": "CannotAddSelectorsToZeroAddress",
      "type": "error"
    },
    {
      "inputs": [
        {
          "internalType": "bytes4",
          "name": "_selector",
          "type": "bytes4"
        }
      ],
      "name": "CannotRemoveFunctionThatDoesNotExist",
      "type": "error"
    },
    {
      "inputs": [
        {
          "internalType": "bytes4",
          "name": "_selector",
          "type": "bytes4"
        }
      ],
      "name": "CannotRemoveImmutableFunction",
      "type": "error"
    },
    {
      "inputs": [
        {
          "internalType": "bytes4",
          "name": "_selector",
          "type": "bytes4"
        }
      ],
      "name": "CannotReplaceFunctionThatDoesNotExists",
      "type": "error"
    },
    {
      "inputs": [
        {
          "internalType": "bytes4",
          "name": "_selector",
          "type": "bytes4"
        }
      ],
      "name": "CannotReplaceFunctionWithTheSameFunctionFromTheSameFacet",
      "type": "error"
    },
    {
      "inputs": [
        {
          "internalType": "bytes4[]",
          "name": "_selectors",
          "type": "bytes4[]"
        }
      ],
      "name": "CannotReplaceFunctionsFromFacetWithZeroAddress",
      "type": "error"
    },
    {
      "inputs": [
        {
          "internalType": "bytes4",
          "name": "_selector",
          "type": "bytes4"
        }
      ],
      "name": "CannotReplaceImmutableFunction",
      "type": "error"
    },
    {
      "inputs": [
        {
          "internalType": "bytes4",
          "name": "_functionSelector",
          "type": "bytes4"
        }
      ],
      "name": "FunctionNotFound",
      "type": "error"
    },
    {
      "inputs": [
        {
          "internalType": "uint8",
          "name": "_action",
          "type": "uint8"
        }
      ],
      "name": "IncorrectFacetCutAction",
      "type": "error"
    },
    {
      "inputs": [
        {
          "internalType": "address",
          "name": "_initializationContractAddress",
          "type": "address"
        },
        {
          "internalType": "bytes",
          "name": "_calldata",
          "type": "bytes"
        }
      ],
      "name": "InitializationFunctionReverted",
      "type": "error"
    },
    {
      "inputs": [
        {
          "internalType": "address",
          "name": "_contractAddress",
          "type": "address"
        },
        {
          "internalType": "string",
          "name": "_message",
          "type": "string"
        }
      ],
      "name": "NoBytecodeAtAddress",
      "type": "error"
    },
    {
      "inputs": [
        {
          "internalType": "address",
          "name": "_facetAddress",
          "type": "address"
        }
      ],
      "name": "NoSelectorsProvidedForFacetForCut",
      "type": "error"
    },
    {
      "inputs": [
        {
          "internalType": "address",
          "name": "_facetAddress",
          "type": "address"
        }
      ],
      "name": "RemoveFacetAddressMustBeZeroAddress",
      "type": "error"
    },
    {
      "anonymous": false,
      "inputs": [
        {
          "components": [
            {
              "internalType": "address",
              "name": "facetAddress",
              "type": "address"
            },
            {
              "internalType": "enum IDiamond.FacetCutAction",
              "name": "action",
              "type": "uint8"
            },
            {
              "internalType": "bytes4[]",
              "name": "functionSelectors",
              "type": "bytes4[]"
            }
          ],
          "indexed": false,
          "internalType": "struct IDiamond.FacetCut[]",
          "name": "_diamondCut",
          "type": "tuple[]"
        },
        {
          "indexed": false,
          "internalType": "address",
          "name": "_init",
          "type": "address"
        },
        {
          "indexed": false,
          "internalType": "bytes",
          "name": "_calldata",
          "type": "bytes"
        }
      ],
      "name": "DiamondCut",
      "type": "event"
    },
    {
      "stateMutability": "payable",
      "type": "fallback"
    },
    {
      "inputs": [],
      "name": "testFunc",
      "outputs": [],
      "stateMutability": "nonpayable",
      "type": "function"
    },
    {
      "stateMutability": "payable",
      "type": "receive"
    }
  ],
  "bytecode": "0x6080604052604051610fa4380380610fa4833981016040819052610022916109bd565b61002d838383610035565b505050610de0565b60005b835181101561019457600084828151811061005557610055610b88565b6020026020010151604001519050600085838151811061007757610077610b88565b602002602001015160000151905081516000036100b75760405163e767f91f60e01b81526001600160a01b03821660048201526024015b60405180910390fd5b60008684815181106100cb576100cb610b88565b6020026020010151602001519050600060028111156100ec576100ec610b9e565b8160028111156100fe576100fe610b9e565b036101125761010d82846101df565b610189565b600181600281111561012657610126610b9e565b036101355761010d828461038b565b600281600281111561014957610149610b9e565b036101585761010d8284610514565b80600281111561016a5761016a610b9e565b604051633ff4d20f60e11b815260ff90911660048201526024016100ae565b505050600101610038565b507f8faa70878671ccd212d20771b795c50af8fd3ff6cf27f4bde57e5d4de0aeb6738383836040516101c893929190610be0565b60405180910390a16101da8282610793565b505050565b6001600160a01b03821661020857806040516302b8da0760e21b81526004016100ae9190610cef565b600080516020610f5c8339815191525460408051606081019091526024808252600080516020610ef0833981519152929161024d91869190610f106020830139610859565b60005b835181101561038457600084828151811061026d5761026d610b88565b6020908102919091018101516001600160e01b031981166000908152918690526040909120549091506001600160a01b031680156102ca5760405163ebbf5d0760e01b81526001600160e01b0319831660048201526024016100ae565b6040805180820182526001600160a01b03808a16825261ffff80881660208085019182526001600160e01b0319881660009081528b8252958620945185549251909316600160a01b026001600160b01b0319909216929093169190911717909155600180880180549182018155835291206008820401805460e085901c60046007909416939093026101000a92830263ffffffff90930219169190911790558361037381610d52565b945050600190920191506102509050565b5050505050565b600080516020610ef08339815191526001600160a01b0383166103c3578160405163cd98a96f60e01b81526004016100ae9190610cef565b6103e583604051806060016040528060288152602001610f7c60289139610859565b60005b825181101561050e57600083828151811061040557610405610b88565b6020908102919091018101516001600160e01b031981166000908152918590526040909120549091506001600160a01b031630810361046357604051632901806d60e11b81526001600160e01b0319831660048201526024016100ae565b856001600160a01b0316816001600160a01b0316036104a157604051631ac6ce8d60e11b81526001600160e01b0319831660048201526024016100ae565b6001600160a01b0381166104d457604051637479f93960e01b81526001600160e01b0319831660048201526024016100ae565b506001600160e01b031916600090815260208390526040902080546001600160a01b0319166001600160a01b0386161790556001016103e8565b50505050565b600080516020610f5c83398151915254600080516020610ef0833981519152906001600160a01b038416156105675760405163d091bc8160e01b81526001600160a01b03851660048201526024016100ae565b60005b835181101561038457600084828151811061058757610587610b88565b6020908102919091018101516001600160e01b0319811660009081528683526040908190208151808301909252546001600160a01b038116808352600160a01b90910461ffff16938201939093529092509061060257604051637a08a22d60e01b81526001600160e01b0319831660048201526024016100ae565b8051306001600160a01b039091160361063a57604051630df5fd6160e31b81526001600160e01b0319831660048201526024016100ae565b8361064481610d73565b94505083816020015161ffff161461072257600085600101858154811061066d5761066d610b88565b90600052602060002090600891828204019190066004029054906101000a900460e01b90508086600101836020015161ffff16815481106106b0576106b0610b88565b600091825260208083206008830401805463ffffffff60079094166004026101000a938402191660e09590951c92909202939093179055838201516001600160e01b03199390931681529087905260409020805461ffff60a01b1916600160a01b61ffff909316929092029190911790555b8460010180548061073557610735610d8a565b60008281526020808220600860001990940193840401805463ffffffff600460078716026101000a0219169055919092556001600160e01b0319909316815291859052506040902080546001600160b01b031916905560010161056a565b6001600160a01b0382166107a5575050565b6107c782604051806060016040528060288152602001610f3460289139610859565b600080836001600160a01b0316836040516107e29190610da0565b600060405180830381855af49150503d806000811461081d576040519150601f19603f3d011682016040523d82523d6000602084013e610822565b606091505b50915091508161050e5780511561083c5780518082602001fd5b838360405163192105d760e01b81526004016100ae929190610dbc565b813b60008190036101da57828260405163919834b960e01b81526004016100ae929190610dbc565b634e487b7160e01b600052604160045260246000fd5b604051606081016001600160401b03811182821017156108b9576108b9610881565b60405290565b604051601f8201601f191681016001600160401b03811182821017156108e7576108e7610881565b604052919050565b60006001600160401b0382111561090857610908610881565b5060051b60200190565b80516001600160a01b038116811461092957600080fd5b919050565b60005b83811015610949578181015183820152602001610931565b50506000910152565b600082601f83011261096357600080fd5b81516001600160401b0381111561097c5761097c610881565b61098f601f8201601f19166020016108bf565b8181528460208386010111156109a457600080fd5b6109b582602083016020870161092e565b949350505050565b6000806000606084860312156109d257600080fd5b83516001600160401b038111156109e857600080fd5b8401601f810186136109f957600080fd5b8051610a0c610a07826108ef565b6108bf565b8082825260208201915060208360051b850101925088831115610a2e57600080fd5b602084015b83811015610b435780516001600160401b03811115610a5157600080fd5b85016060818c03601f19011215610a6757600080fd5b610a6f610897565b610a7b60208301610912565b8152604082015160038110610a8f57600080fd5b602082015260608201516001600160401b03811115610aad57600080fd5b6020818401019250508b601f830112610ac557600080fd5b8151610ad3610a07826108ef565b8082825260208201915060208360051b86010192508e831115610af557600080fd5b6020850194505b82851015610b2d5784516001600160e01b031981168114610b1c57600080fd5b825260209485019490910190610afc565b6040840152505084525060209283019201610a33565b509550610b569250505060208501610912565b60408501519092506001600160401b03811115610b7257600080fd5b610b7e86828701610952565b9150509250925092565b634e487b7160e01b600052603260045260246000fd5b634e487b7160e01b600052602160045260246000fd5b60008151808452610bcc81602086016020860161092e565b601f01601f19169290920160200192915050565b6000606082016060835280865180835260808501915060808160051b86010192506020880160005b82811015610cc057868503607f19018452815180516001600160a01b031686526020810151606087019060038110610c5057634e487b7160e01b600052602160045260246000fd5b806020890152506040820151915060606040880152808251808352608089019150602084019350600092505b80831015610ca85783516001600160e01b03191682526020938401936001939093019290910190610c7c565b50965050506020938401939190910190600101610c08565b5050506001600160a01b0386166020850152508281036040840152610ce58185610bb4565b9695505050505050565b602080825282518282018190526000918401906040840190835b81811015610d315783516001600160e01b031916835260209384019390920191600101610d09565b509095945050505050565b634e487b7160e01b600052601160045260246000fd5b600061ffff821661ffff8103610d6a57610d6a610d3c565b60010192915050565b600081610d8257610d82610d3c565b506000190190565b634e487b7160e01b600052603160045260246000fd5b60008251610db281846020870161092e565b9190910192915050565b6001600160a01b03831681526040602082018190526000906109b590830184610bb4565b61010180610def6000396000f3fe608060405260043610601f5760003560e01c8063037a417c1460be576025565b36602557005b600080356001600160e01b03191681527fc8fcad8db84d3cc18b4c41d551ea0ee66dd599cde068d998e57d5e09332c131c602081905260409091205481906001600160a01b031680609b57604051630a82dd7360e31b81526001600160e01b031960003516600482015260240160405180910390fd5b3660008037600080366000845af43d6000803e80801560b9573d6000f35b3d6000fd5b34801560c957600080fd5b00fea26469706673582212207c3be2e8f371df97cfa3a7f1481a162bec2065d07a9e83bbb98ea1f9a114377664736f6c634300081b0033c8fcad8db84d3cc18b4c41d551ea0ee66dd599cde068d998e57d5e09332c131c4c69624469616d6f6e644375743a2041646420666163657420686173206e6f20636f64654c69624469616d6f6e644375743a205f696e6974206164647265737320686173206e6f20636f6465c8fcad8db84d3cc18b4c41d551ea0ee66dd599cde068d998e57d5e09332c131d4c69624469616d6f6e644375743a205265706c61636520666163657420686173206e6f20636f6465",
  "linkReferences": {},
  "deployedLinkReferences": {}
}