{
  "_format": "hh-sol-artifact-1",
  "contractName": "AssetManagerController",
  "sourceName": "contracts/assetManagerController/implementation/AssetManagerController.sol",
  "abi": [
    {
      "inputs": [],
      "stateMutability": "nonpayable",
      "type": "constructor"
    },
    {
      "inputs": [],
      "name": "AUAddressZero",
      "type": "error"
    },
    {
      "inputs": [],
      "name": "AddressZero",
      "type": "error"
    },
    {
      "inputs": [],
      "name": "AlreadyInProductionMode",
      "type": "error"
    },
    {
      "inputs": [],
      "name": "AssetManagerNotManaged",
      "type": "error"
    },
    {
      "inputs": [],
      "name": "GovernedAddressZero",
      "type": "error"
    },
    {
      "inputs": [],
      "name": "GovernedAlreadyInitialized",
      "type": "error"
    },
    {
      "inputs": [],
      "name": "OnlyAddressUpdater",
      "type": "error"
    },
    {
      "inputs": [],
      "name": "OnlyExecutor",
      "type": "error"
    },
    {
      "inputs": [],
      "name": "OnlyGovernance",
      "type": "error"
    },
    {
      "inputs": [],
      "name": "OnlyGovernanceOrEmergencyPauseSenders",
      "type": "error"
    },
    {
      "inputs": [],
      "name": "TimelockInvalidSelector",
      "type": "error"
    },
    {
      "inputs": [],
      "name": "TimelockNotAllowedYet",
      "type": "error"
    },
    {
      "anonymous": false,
      "inputs": [
        {
          "indexed": false,
          "internalType": "address",
          "name": "previousAdmin",
          "type": "address"
        },
        {
          "indexed": false,
          "internalType": "address",
          "name": "newAdmin",
          "type": "address"
        }
      ],
      "name": "AdminChanged",
      "type": "event"
    },
    {
      "anonymous": false,
      "inputs": [
        {
          "indexed": true,
          "internalType": "address",
          "name": "beacon",
          "type": "address"
        }
      ],
      "name": "BeaconUpgraded",
      "type": "event"
    },
    {
      "anonymous": false,
      "inputs": [
        {
          "indexed": false,
          "internalType": "bytes",
          "name": "encodedCall",
          "type": "bytes"
        },
        {
          "indexed": false,
          "internalType": "bytes32",
          "name": "encodedCallHash",
          "type": "bytes32"
        },
        {
          "indexed": false,
          "internalType": "uint256",
          "name": "allowedAfterTimestamp",
          "type": "uint256"
        }
      ],
      "name": "GovernanceCallTimelocked",
      "type": "event"
    },
    {
      "anonymous": false,
      "inputs": [
        {
          "indexed": false,
          "internalType": "address",
          "name": "initialGovernance",
          "type": "address"
        }
      ],
      "name": "GovernanceInitialised",
      "type": "event"
    },
    {
      "anonymous": false,
      "inputs": [
        {
          "indexed": false,
          "internalType": "address",
          "name": "governanceSettings",
          "type": "address"
        }
      ],
      "name": "GovernedProductionModeEntered",
      "type": "event"
    },
    {
      "anonymous": false,
      "inputs": [
        {
          "indexed": false,
          "internalType": "bytes32",
          "name": "encodedCallHash",
          "type": "bytes32"
        }
      ],
      "name": "TimelockedGovernanceCallCanceled",
      "type": "event"
    },
    {
      "anonymous": false,
      "inputs": [
        {
          "indexed": false,
          "internalType": "bytes32",
          "name": "encodedCallHash",
          "type": "bytes32"
        }
      ],
      "name": "TimelockedGovernanceCallExecuted",
      "type": "event"
    },
    {
      "anonymous": false,
      "inputs": [
        {
          "indexed": true,
          "internalType": "address",
          "name": "implementation",
          "type": "address"
        }
      ],
      "name": "Upgraded",
      "type": "event"
    },
    {
      "inputs": [
        {
          "internalType": "contract IIAssetManager",
          "name": "_assetManager",
          "type": "address"
        }
      ],
      "name": "addAssetManager",
      "outputs": [],
      "stateMutability": "nonpayable",
      "type": "function"
    },
    {
      "inputs": [
        {
          "internalType": "contract IIAssetManager[]",
          "name": "_assetManagers",
          "type": "address[]"
        },
        {
          "components": [
            {
              "internalType": "enum CollateralType.Class",
              "name": "collateralClass",
              "type": "uint8"
            },
            {
              "internalType": "contract IERC20",
              "name": "token",
              "type": "address"
            },
            {
              "internalType": "uint256",
              "name": "decimals",
              "type": "uint256"
            },
            {
              "internalType": "uint256",
              "name": "validUntil",
              "type": "uint256"
            },
            {
              "internalType": "bool",
              "name": "directPricePair",
              "type": "bool"
            },
            {
              "internalType": "string",
              "name": "assetFtsoSymbol",
              "type": "string"
            },
            {
              "internalType": "string",
              "name": "tokenFtsoSymbol",
              "type": "string"
            },
            {
              "internalType": "uint256",
              "name": "minCollateralRatioBIPS",
              "type": "uint256"
            },
            {
              "internalType": "uint256",
              "name": "safetyMinCollateralRatioBIPS",
              "type": "uint256"
            }
          ],
          "internalType": "struct CollateralType.Data",
          "name": "_data",
          "type": "tuple"
        }
      ],
      "name": "addCollateralType",
      "outputs": [],
      "stateMutability": "nonpayable",
      "type": "function"
    },
    {
      "inputs": [
        {
          "internalType": "address",
          "name": "_address",
          "type": "address"
        }
      ],
      "name": "addEmergencyPauseSender",
      "outputs": [],
      "stateMutability": "nonpayable",
      "type": "function"
    },
    {
      "inputs": [
        {
          "internalType": "address",
          "name": "_assetManager",
          "type": "address"
        }
      ],
      "name": "assetManagerExists",
      "outputs": [
        {
          "internalType": "bool",
          "name": "",
          "type": "bool"
        }
      ],
      "stateMutability": "view",
      "type": "function"
    },
    {
      "inputs": [
        {
          "internalType": "contract IIAssetManager[]",
          "name": "_assetManagers",
          "type": "address[]"
        }
      ],
      "name": "cancelEmergencyPause",
      "outputs": [],
      "stateMutability": "nonpayable",
      "type": "function"
    },
    {
      "inputs": [
        {
          "internalType": "bytes",
          "name": "_encodedCall",
          "type": "bytes"
        }
      ],
      "name": "cancelGovernanceCall",
      "outputs": [],
      "stateMutability": "nonpayable",
      "type": "function"
    },
    {
      "inputs": [
        {
          "internalType": "contract IIAssetManager[]",
          "name": "_assetManagers",
          "type": "address[]"
        },
        {
          "internalType": "uint256",
          "name": "_duration",
          "type": "uint256"
        }
      ],
      "name": "emergencyPauseFull",
      "outputs": [],
      "stateMutability": "nonpayable",
      "type": "function"
    },
    {
      "inputs": [
        {
          "internalType": "contract IIAssetManager[]",
          "name": "_assetManagers",
          "type": "address[]"
        },
        {
          "internalType": "uint256",
          "name": "_duration",
          "type": "uint256"
        }
      ],
      "name": "emergencyPauseFullAndTransfer",
      "outputs": [],
      "stateMutability": "nonpayable",
      "type": "function"
    },
    {
      "inputs": [
        {
          "internalType": "contract IIAssetManager[]",
          "name": "_assetManagers",
          "type": "address[]"
        },
        {
          "internalType": "uint256",
          "name": "_duration",
          "type": "uint256"
        }
      ],
      "name": "emergencyPauseStartOperations",
      "outputs": [],
      "stateMutability": "nonpayable",
      "type": "function"
    },
    {
      "inputs": [
        {
          "internalType": "bytes",
          "name": "_encodedCall",
          "type": "bytes"
        }
      ],
      "name": "executeGovernanceCall",
      "outputs": [],
      "stateMutability": "nonpayable",
      "type": "function"
    },
    {
      "inputs": [],
      "name": "getAddressUpdater",
      "outputs": [
        {
          "internalType": "address",
          "name": "_addressUpdater",
          "type": "address"
        }
      ],
      "stateMutability": "view",
      "type": "function"
    },
    {
      "inputs": [],
      "name": "getAssetManagers",
      "outputs": [
        {
          "internalType": "contract IAssetManager[]",
          "name": "_assetManagers",
          "type": "address[]"
        }
      ],
      "stateMutability": "view",
      "type": "function"
    },
    {
      "inputs": [],
      "name": "governance",
      "outputs": [
        {
          "internalType": "address",
          "name": "",
          "type": "address"
        }
      ],
      "stateMutability": "view",
      "type": "function"
    },
    {
      "inputs": [],
      "name": "governanceSettings",
      "outputs": [
        {
          "internalType": "contract IGovernanceSettings",
          "name": "",
          "type": "address"
        }
      ],
      "stateMutability": "view",
      "type": "function"
    },
    {
      "inputs": [
        {
          "internalType": "contract IGovernanceSettings",
          "name": "_governanceSettings",
          "type": "address"
        },
        {
          "internalType": "address",
          "name": "_initialGovernance",
          "type": "address"
        },
        {
          "internalType": "address",
          "name": "_addressUpdater",
          "type": "address"
        }
      ],
      "name": "initialize",
      "outputs": [],
      "stateMutability": "nonpayable",
      "type": "function"
    },
    {
      "inputs": [
        {
          "internalType": "address",
          "name": "_address",
          "type": "address"
        }
      ],
      "name": "isExecutor",
      "outputs": [
        {
          "internalType": "bool",
          "name": "",
          "type": "bool"
        }
      ],
      "stateMutability": "view",
      "type": "function"
    },
    {
      "inputs": [
        {
          "internalType": "contract IIAssetManager[]",
          "name": "_assetManagers",
          "type": "address[]"
        }
      ],
      "name": "pauseMinting",
      "outputs": [],
      "stateMutability": "nonpayable",
      "type": "function"
    },
    {
      "inputs": [],
      "name": "productionMode",
      "outputs": [
        {
          "internalType": "bool",
          "name": "",
          "type": "bool"
        }
      ],
      "stateMutability": "view",
      "type": "function"
    },
    {
      "inputs": [],
      "name": "proxiableUUID",
      "outputs": [
        {
          "internalType": "bytes32",
          "name": "",
          "type": "bytes32"
        }
      ],
      "stateMutability": "view",
      "type": "function"
    },
    {
      "inputs": [
        {
          "internalType": "contract IIAssetManager",
          "name": "_assetManager",
          "type": "address"
        }
      ],
      "name": "removeAssetManager",
      "outputs": [],
      "stateMutability": "nonpayable",
      "type": "function"
    },
    {
      "inputs": [
        {
          "internalType": "address",
          "name": "_address",
          "type": "address"
        }
      ],
      "name": "removeEmergencyPauseSender",
      "outputs": [],
      "stateMutability": "nonpayable",
      "type": "function"
    },
    {
      "inputs": [],
      "name": "replacedBy",
      "outputs": [
        {
          "internalType": "address",
          "name": "",
          "type": "address"
        }
      ],
      "stateMutability": "view",
      "type": "function"
    },
    {
      "inputs": [
        {
          "internalType": "contract IIAssetManager[]",
          "name": "_assetManagers",
          "type": "address[]"
        },
        {
          "internalType": "uint256",
          "name": "_value",
          "type": "uint256"
        }
      ],
      "name": "setAgentExitAvailableTimelockSeconds",
      "outputs": [],
      "stateMutability": "nonpayable",
      "type": "function"
    },
    {
      "inputs": [
        {
          "internalType": "contract IIAssetManager[]",
          "name": "_assetManagers",
          "type": "address[]"
        },
        {
          "internalType": "uint256",
          "name": "_value",
          "type": "uint256"
        }
      ],
      "name": "setAgentFeeChangeTimelockSeconds",
      "outputs": [],
      "stateMutability": "nonpayable",
      "type": "function"
    },
    {
      "inputs": [
        {
          "internalType": "contract IIAssetManager[]",
          "name": "_assetManagers",
          "type": "address[]"
        },
        {
          "internalType": "uint256",
          "name": "_value",
          "type": "uint256"
        }
      ],
      "name": "setAgentMintingCRChangeTimelockSeconds",
      "outputs": [],
      "stateMutability": "nonpayable",
      "type": "function"
    },
    {
      "inputs": [
        {
          "internalType": "contract IIAssetManager[]",
          "name": "_assetManagers",
          "type": "address[]"
        },
        {
          "internalType": "address",
          "name": "_value",
          "type": "address"
        }
      ],
      "name": "setAgentOwnerRegistry",
      "outputs": [],
      "stateMutability": "nonpayable",
      "type": "function"
    },
    {
      "inputs": [
        {
          "internalType": "contract IIAssetManager[]",
          "name": "_assetManagers",
          "type": "address[]"
        },
        {
          "internalType": "uint256",
          "name": "_value",
          "type": "uint256"
        }
      ],
      "name": "setAgentTimelockedOperationWindowSeconds",
      "outputs": [],
      "stateMutability": "nonpayable",
      "type": "function"
    },
    {
      "inputs": [
        {
          "internalType": "contract IIAssetManager[]",
          "name": "_assetManagers",
          "type": "address[]"
        },
        {
          "internalType": "address",
          "name": "_value",
          "type": "address"
        }
      ],
      "name": "setAgentVaultFactory",
      "outputs": [],
      "stateMutability": "nonpayable",
      "type": "function"
    },
    {
      "inputs": [
        {
          "internalType": "contract IIAssetManager[]",
          "name": "_assetManagers",
          "type": "address[]"
        },
        {
          "internalType": "uint256",
          "name": "_value",
          "type": "uint256"
        }
      ],
      "name": "setAttestationWindowSeconds",
      "outputs": [],
      "stateMutability": "nonpayable",
      "type": "function"
    },
    {
      "inputs": [
        {
          "internalType": "contract IIAssetManager[]",
          "name": "_assetManagers",
          "type": "address[]"
        },
        {
          "internalType": "uint256",
          "name": "_value",
          "type": "uint256"
        }
      ],
      "name": "setAverageBlockTimeMS",
      "outputs": [],
      "stateMutability": "nonpayable",
      "type": "function"
    },
    {
      "inputs": [
        {
          "internalType": "contract IIAssetManager[]",
          "name": "_assetManagers",
          "type": "address[]"
        },
        {
          "internalType": "address",
          "name": "_value",
          "type": "address"
        }
      ],
      "name": "setCleanerContract",
      "outputs": [],
      "stateMutability": "nonpayable",
      "type": "function"
    },
    {
      "inputs": [
        {
          "internalType": "contract IIAssetManager[]",
          "name": "_assetManagers",
          "type": "address[]"
        },
        {
          "internalType": "address",
          "name": "_value",
          "type": "address"
        }
      ],
      "name": "setCleanupBlockNumberManager",
      "outputs": [],
      "stateMutability": "nonpayable",
      "type": "function"
    },
    {
      "inputs": [
        {
          "internalType": "contract IIAssetManager[]",
          "name": "_assetManagers",
          "type": "address[]"
        },
        {
          "internalType": "address",
          "name": "_value",
          "type": "address"
        }
      ],
      "name": "setCollateralPoolFactory",
      "outputs": [],
      "stateMutability": "nonpayable",
      "type": "function"
    },
    {
      "inputs": [
        {
          "internalType": "contract IIAssetManager[]",
          "name": "_assetManagers",
          "type": "address[]"
        },
        {
          "internalType": "address",
          "name": "_value",
          "type": "address"
        }
      ],
      "name": "setCollateralPoolTokenFactory",
      "outputs": [],
      "stateMutability": "nonpayable",
      "type": "function"
    },
    {
      "inputs": [
        {
          "internalType": "contract IIAssetManager[]",
          "name": "_assetManagers",
          "type": "address[]"
        },
        {
          "internalType": "uint256",
          "name": "_value",
          "type": "uint256"
        }
      ],
      "name": "setCollateralPoolTokenTimelockSeconds",
      "outputs": [],
      "stateMutability": "nonpayable",
      "type": "function"
    },
    {
      "inputs": [
        {
          "internalType": "contract IIAssetManager[]",
          "name": "_assetManagers",
          "type": "address[]"
        },
        {
          "internalType": "enum CollateralType.Class",
          "name": "_class",
          "type": "uint8"
        },
        {
          "internalType": "contract IERC20",
          "name": "_token",
          "type": "address"
        },
        {
          "internalType": "uint256",
          "name": "_minCollateralRatioBIPS",
          "type": "uint256"
        },
        {
          "internalType": "uint256",
          "name": "_safetyMinCollateralRatioBIPS",
          "type": "uint256"
        }
      ],
      "name": "setCollateralRatiosForToken",
      "outputs": [],
      "stateMutability": "nonpayable",
      "type": "function"
    },
    {
      "inputs": [
        {
          "internalType": "contract IIAssetManager[]",
          "name": "_assetManagers",
          "type": "address[]"
        },
        {
          "internalType": "uint256",
          "name": "_value",
          "type": "uint256"
        }
      ],
      "name": "setCollateralReservationFeeBips",
      "outputs": [],
      "stateMutability": "nonpayable",
      "type": "function"
    },
    {
      "inputs": [
        {
          "internalType": "contract IIAssetManager[]",
          "name": "_assetManagers",
          "type": "address[]"
        },
        {
          "internalType": "uint256",
          "name": "_value",
          "type": "uint256"
        }
      ],
      "name": "setConfirmationByOthersAfterSeconds",
      "outputs": [],
      "stateMutability": "nonpayable",
      "type": "function"
    },
    {
      "inputs": [
        {
          "internalType": "contract IIAssetManager[]",
          "name": "_assetManagers",
          "type": "address[]"
        },
        {
          "internalType": "uint256",
          "name": "_value",
          "type": "uint256"
        }
      ],
      "name": "setConfirmationByOthersRewardUSD5",
      "outputs": [],
      "stateMutability": "nonpayable",
      "type": "function"
    },
    {
      "inputs": [
        {
          "internalType": "contract IIAssetManager[]",
          "name": "_assetManagers",
          "type": "address[]"
        },
        {
          "internalType": "uint256",
          "name": "_value",
          "type": "uint256"
        }
      ],
      "name": "setEmergencyPauseDurationResetAfterSeconds",
      "outputs": [],
      "stateMutability": "nonpayable",
      "type": "function"
    },
    {
      "inputs": [
        {
          "internalType": "contract IIAssetManager[]",
          "name": "_assetManagers",
          "type": "address[]"
        },
        {
          "internalType": "address",
          "name": "_value",
          "type": "address"
        }
      ],
      "name": "setFdcVerification",
      "outputs": [],
      "stateMutability": "nonpayable",
      "type": "function"
    },
    {
      "inputs": [
        {
          "internalType": "contract IIAssetManager[]",
          "name": "_assetManagers",
          "type": "address[]"
        },
        {
          "internalType": "uint256[]",
          "name": "_paymentFactors",
          "type": "uint256[]"
        },
        {
          "internalType": "uint256[]",
          "name": "_vaultCollateralFactors",
          "type": "uint256[]"
        }
      ],
      "name": "setLiquidationPaymentFactors",
      "outputs": [],
      "stateMutability": "nonpayable",
      "type": "function"
    },
    {
      "inputs": [
        {
          "internalType": "contract IIAssetManager[]",
          "name": "_assetManagers",
          "type": "address[]"
        },
        {
          "internalType": "uint256",
          "name": "_value",
          "type": "uint256"
        }
      ],
      "name": "setLiquidationStepSeconds",
      "outputs": [],
      "stateMutability": "nonpayable",
      "type": "function"
    },
    {
      "inputs": [
        {
          "internalType": "contract IIAssetManager[]",
          "name": "_assetManagers",
          "type": "address[]"
        },
        {
          "internalType": "uint256",
          "name": "_value",
          "type": "uint256"
        }
      ],
      "name": "setLotSizeAmg",
      "outputs": [],
      "stateMutability": "nonpayable",
      "type": "function"
    },
    {
      "inputs": [
        {
          "internalType": "contract IIAssetManager[]",
          "name": "_assetManagers",
          "type": "address[]"
        },
        {
          "internalType": "uint256",
          "name": "_value",
          "type": "uint256"
        }
      ],
      "name": "setMaxEmergencyPauseDurationSeconds",
      "outputs": [],
      "stateMutability": "nonpayable",
      "type": "function"
    },
    {
      "inputs": [
        {
          "internalType": "contract IIAssetManager[]",
          "name": "_assetManagers",
          "type": "address[]"
        },
        {
          "internalType": "uint256",
          "name": "_value",
          "type": "uint256"
        }
      ],
      "name": "setMaxRedeemedTickets",
      "outputs": [],
      "stateMutability": "nonpayable",
      "type": "function"
    },
    {
      "inputs": [
        {
          "internalType": "contract IIAssetManager[]",
          "name": "_assetManagers",
          "type": "address[]"
        },
        {
          "internalType": "uint256",
          "name": "_value",
          "type": "uint256"
        }
      ],
      "name": "setMaxTrustedPriceAgeSeconds",
      "outputs": [],
      "stateMutability": "nonpayable",
      "type": "function"
    },
    {
      "inputs": [
        {
          "internalType": "contract IIAssetManager[]",
          "name": "_assetManagers",
          "type": "address[]"
        },
        {
          "internalType": "uint256",
          "name": "_value",
          "type": "uint256"
        }
      ],
      "name": "setMinUpdateRepeatTimeSeconds",
      "outputs": [],
      "stateMutability": "nonpayable",
      "type": "function"
    },
    {
      "inputs": [
        {
          "internalType": "contract IIAssetManager[]",
          "name": "_assetManagers",
          "type": "address[]"
        },
        {
          "internalType": "uint256",
          "name": "_value",
          "type": "uint256"
        }
      ],
      "name": "setMintingCapAmg",
      "outputs": [],
      "stateMutability": "nonpayable",
      "type": "function"
    },
    {
      "inputs": [
        {
          "internalType": "contract IIAssetManager[]",
          "name": "_assetManagers",
          "type": "address[]"
        },
        {
          "internalType": "uint256",
          "name": "_value",
          "type": "uint256"
        }
      ],
      "name": "setMintingPoolHoldingsRequiredBIPS",
      "outputs": [],
      "stateMutability": "nonpayable",
      "type": "function"
    },
    {
      "inputs": [
        {
          "internalType": "contract IIAssetManager[]",
          "name": "_assetManagers",
          "type": "address[]"
        },
        {
          "internalType": "uint256",
          "name": "_rewardVaultCollateralWei",
          "type": "uint256"
        },
        {
          "internalType": "uint256",
          "name": "_rewardBIPS",
          "type": "uint256"
        }
      ],
      "name": "setPaymentChallengeReward",
      "outputs": [],
      "stateMutability": "nonpayable",
      "type": "function"
    },
    {
      "inputs": [
        {
          "internalType": "contract IIAssetManager[]",
          "name": "_assetManagers",
          "type": "address[]"
        },
        {
          "internalType": "uint256",
          "name": "_value",
          "type": "uint256"
        }
      ],
      "name": "setPoolExitCRChangeTimelockSeconds",
      "outputs": [],
      "stateMutability": "nonpayable",
      "type": "function"
    },
    {
      "inputs": [
        {
          "internalType": "contract IIAssetManager[]",
          "name": "_assetManagers",
          "type": "address[]"
        },
        {
          "internalType": "address",
          "name": "_value",
          "type": "address"
        }
      ],
      "name": "setPriceReader",
      "outputs": [],
      "stateMutability": "nonpayable",
      "type": "function"
    },
    {
      "inputs": [
        {
          "internalType": "contract IIAssetManager[]",
          "name": "_assetManagers",
          "type": "address[]"
        },
        {
          "internalType": "uint256",
          "name": "_value",
          "type": "uint256"
        }
      ],
      "name": "setRedemptionDefaultFactorVaultCollateralBIPS",
      "outputs": [],
      "stateMutability": "nonpayable",
      "type": "function"
    },
    {
      "inputs": [
        {
          "internalType": "contract IIAssetManager[]",
          "name": "_assetManagers",
          "type": "address[]"
        },
        {
          "internalType": "uint256",
          "name": "_value",
          "type": "uint256"
        }
      ],
      "name": "setRedemptionFeeBips",
      "outputs": [],
      "stateMutability": "nonpayable",
      "type": "function"
    },
    {
      "inputs": [
        {
          "internalType": "contract IIAssetManager[]",
          "name": "_assetManagers",
          "type": "address[]"
        },
        {
          "internalType": "uint256",
          "name": "_value",
          "type": "uint256"
        }
      ],
      "name": "setRedemptionPaymentExtensionSeconds",
      "outputs": [],
      "stateMutability": "nonpayable",
      "type": "function"
    },
    {
      "inputs": [
        {
          "internalType": "contract IIAssetManager[]",
          "name": "_assetManagers",
          "type": "address[]"
        },
        {
          "internalType": "uint256",
          "name": "_underlyingBlocks",
          "type": "uint256"
        },
        {
          "internalType": "uint256",
          "name": "_underlyingSeconds",
          "type": "uint256"
        }
      ],
      "name": "setTimeForPayment",
      "outputs": [],
      "stateMutability": "nonpayable",
      "type": "function"
    },
    {
      "inputs": [
        {
          "internalType": "contract IIAssetManager[]",
          "name": "_assetManagers",
          "type": "address[]"
        },
        {
          "internalType": "uint256",
          "name": "_value",
          "type": "uint256"
        }
      ],
      "name": "setVaultCollateralBuyForFlareFactorBIPS",
      "outputs": [],
      "stateMutability": "nonpayable",
      "type": "function"
    },
    {
      "inputs": [
        {
          "internalType": "contract IIAssetManager[]",
          "name": "_assetManagers",
          "type": "address[]"
        },
        {
          "internalType": "uint256",
          "name": "_value",
          "type": "uint256"
        }
      ],
      "name": "setWithdrawalOrDestroyWaitMinSeconds",
      "outputs": [],
      "stateMutability": "nonpayable",
      "type": "function"
    },
    {
      "inputs": [
        {
          "internalType": "bytes4",
          "name": "_interfaceId",
          "type": "bytes4"
        }
      ],
      "name": "supportsInterface",
      "outputs": [
        {
          "internalType": "bool",
          "name": "",
          "type": "bool"
        }
      ],
      "stateMutability": "pure",
      "type": "function"
    },
    {
      "inputs": [],
      "name": "switchToProductionMode",
      "outputs": [],
      "stateMutability": "nonpayable",
      "type": "function"
    },
    {
      "inputs": [
        {
          "internalType": "contract IIAssetManager[]",
          "name": "_assetManagers",
          "type": "address[]"
        }
      ],
      "name": "unpauseMinting",
      "outputs": [],
      "stateMutability": "nonpayable",
      "type": "function"
    },
    {
      "inputs": [
        {
          "internalType": "bytes32[]",
          "name": "_contractNameHashes",
          "type": "bytes32[]"
        },
        {
          "internalType": "address[]",
          "name": "_contractAddresses",
          "type": "address[]"
        }
      ],
      "name": "updateContractAddresses",
      "outputs": [],
      "stateMutability": "nonpayable",
      "type": "function"
    },
    {
      "inputs": [
        {
          "internalType": "contract IIAssetManager[]",
          "name": "_assetManagers",
          "type": "address[]"
        }
      ],
      "name": "updateContracts",
      "outputs": [],
      "stateMutability": "nonpayable",
      "type": "function"
    },
    {
      "inputs": [
        {
          "internalType": "contract IIAssetManager[]",
          "name": "_assetManagers",
          "type": "address[]"
        },
        {
          "internalType": "uint256",
          "name": "_start",
          "type": "uint256"
        },
        {
          "internalType": "uint256",
          "name": "_end",
          "type": "uint256"
        }
      ],
      "name": "upgradeAgentVaultsAndPools",
      "outputs": [],
      "stateMutability": "nonpayable",
      "type": "function"
    },
    {
      "inputs": [
        {
          "internalType": "contract IIAssetManager[]",
          "name": "_assetManagers",
          "type": "address[]"
        },
        {
          "internalType": "address",
          "name": "_implementation",
          "type": "address"
        },
        {
          "internalType": "bytes",
          "name": "_callData",
          "type": "bytes"
        }
      ],
      "name": "upgradeFAssetImplementation",
      "outputs": [],
      "stateMutability": "nonpayable",
      "type": "function"
    },
    {
      "inputs": [
        {
          "internalType": "address",
          "name": "newImplementation",
          "type": "address"
        }
      ],
      "name": "upgradeTo",
      "outputs": [],
      "stateMutability": "nonpayable",
      "type": "function"
    },
    {
      "inputs": [
        {
          "internalType": "address",
          "name": "newImplementation",
          "type": "address"
        },
        {
          "internalType": "bytes",
          "name": "data",
          "type": "bytes"
        }
      ],
      "name": "upgradeToAndCall",
      "outputs": [],
      "stateMutability": "payable",
      "type": "function"
    }
  ],
  "bytecode": "0x60a06040523060805234801561001457600080fd5b50600061002361111180610051565b61004b817f714f205b2abd25bef1d06a1af944e38c113fe6160375c4e1d6d5cf28848e771955565b50610160565b7f2aa47ee5db910f3b2a06970c443249cc77dbd9f96100cfebc1775ab7fb1d18248054600160a01b900460ff161561009c5760405163b2f0162160e01b815260040160405180910390fd5b6001600160a01b0383166100c3576040516334ab92fb60e11b815260040160405180910390fd5b6001600160a01b0382166100ea576040516334ab92fb60e11b815260040160405180910390fd5b80546001600160a01b038481166001600160a81b031990921691909117600160a01b1782556001820180549184166001600160a01b0319909216821790556040519081527f9789733827840833afc031fb2ef9ab6894271f77bad2085687cf4ae5c7bee4db9060200160405180910390a1505050565b608051613d0d610197600039600081816112d40152818161131d0152818161145f0152818161149f01526115280152613d0d6000f3fe6080604052600436106103ef5760003560e01c8063758f07f211610208578063bb6f41b311610118578063debfda30116100ab578063e789e7d41161007a578063e789e7d414610c07578063eddaf29314610c27578063ef098e5514610c47578063efe058ef14610c67578063f5a9838314610c8757600080fd5b8063debfda3014610b7b578063dede95f114610b9b578063e17f212e14610bbb578063e77ebcab14610be757600080fd5b8063d0c391b5116100e7578063d0c391b514610afb578063d13e499d14610b1b578063d285a63614610b3b578063d48b75f614610b5b57600080fd5b8063bb6f41b314610a7b578063be46c73d14610a9b578063c0c53b8b14610abb578063c6c257cb14610adb57600080fd5b8063a391dd9c1161019b578063af823a271161016a578063af823a27146109d9578063b00c0b76146109f9578063b577fc7614610a19578063b87b82f014610a39578063ba4388d114610a5b57600080fd5b8063a391dd9c14610959578063a6a24e2514610979578063a82ee3d514610999578063aeb41555146109b957600080fd5b80637f281299116101d75780637f281299146108d957806397d2fcc6146108f9578063987ea899146109195780639e1508a11461093957600080fd5b8063758f07f214610841578063763d1a16146108615780637ad62f51146108815780637adf26ee146108b957600080fd5b80634a79bc9f116103035780635b743b0111610296578063654f2d7a11610265578063654f2d7a146107a15780636a9f8ec8146107c15780636b76ab0e146107e15780636f1f1fc014610801578063704026261461082157600080fd5b80635b743b011461072c5780635cce89ea1461074c578063617637aa1461076c57806362354e031461078c57600080fd5b806352d1902d116102d257806352d1902d146106b457806353cf989a146106d7578063556d5118146106f75780635aa6e6751461071757600080fd5b80634a79bc9f1461062b5780634f1ef2861461064b578063512410601461065e5780635267a15d1461067e57600080fd5b80632aedabe411610386578063358bca7711610355578063358bca771461058b5780633659cfe6146105ab57806340b9d6b0146105cb57806347956606146105eb5780634944d22d1461060b57600080fd5b80632aedabe41461050b5780632af713fc1461052b5780632d5846da1461054b57806334dc39321461056b57600080fd5b8063171898fe116103c2578063171898fe1461048b57806320756671146104ab57806320c5f99d146104cb57806326a9055b146104eb57600080fd5b806301ffc9a7146103f45780630207aff214610429578063115a6e151461044b57806316fc2f6d1461046b575b600080fd5b34801561040057600080fd5b5061041461040f36600461303f565b610c9c565b60405190151581526020015b60405180910390f35b34801561043557600080fd5b5061044961044436600461315d565b610d3f565b005b34801561045757600080fd5b5061044961046636600461315d565b610d5d565b34801561047757600080fd5b506104496104863660046131a1565b610d77565b34801561049757600080fd5b506104496104a6366004613213565b610e2b565b3480156104b757600080fd5b506104496104c636600461315d565b610e3e565b3480156104d757600080fd5b506104496104e63660046131a1565b610e72565b3480156104f757600080fd5b5061044961050636600461315d565b610fe4565b34801561051757600080fd5b5061044961052636600461315d565b610ffe565b34801561053757600080fd5b50610449610546366004613230565b611018565b34801561055757600080fd5b5061044961056636600461315d565b61103f565b34801561057757600080fd5b5061044961058636600461315d565b611059565b34801561059757600080fd5b506104496105a6366004613213565b611073565b3480156105b757600080fd5b506104496105c6366004613213565b6112b5565b3480156105d757600080fd5b506104496105e636600461315d565b61138f565b3480156105f757600080fd5b5061044961060636600461315d565b6113a9565b34801561061757600080fd5b50610449610626366004613281565b6113c3565b34801561063757600080fd5b50610449610646366004613230565b611419565b61044961065936600461333d565b611440565b34801561066a57600080fd5b5061044961067936600461315d565b611501565b34801561068a57600080fd5b50600080516020613c51833981519152545b6040516001600160a01b039091168152602001610420565b3480156106c057600080fd5b506106c961151b565b604051908152602001610420565b3480156106e357600080fd5b506104496106f236600461338c565b6115ce565b34801561070357600080fd5b5061044961071236600461315d565b6115da565b34801561072357600080fd5b5061069c6115f4565b34801561073857600080fd5b506104496107473660046133df565b61169d565b34801561075857600080fd5b5061044961076736600461315d565b611715565b34801561077857600080fd5b5061044961078736600461315d565b61172f565b34801561079857600080fd5b5061069c611749565b3480156107ad57600080fd5b506104496107bc36600461315d565b61176a565b3480156107cd57600080fd5b506104496107dc36600461315d565b611776565b3480156107ed57600080fd5b506104496107fc366004613450565b611790565b34801561080d57600080fd5b5061044961081c36600461315d565b6117fe565b34801561082d57600080fd5b5061044961083c3660046134b5565b611825565b34801561084d57600080fd5b5061044961085c36600461315d565b611871565b34801561086d57600080fd5b5061044961087c366004613577565b61188b565b34801561088d57600080fd5b5061041461089c366004613213565b6001600160a01b0316600090815260016020526040902054151590565b3480156108c557600080fd5b506104496108d436600461315d565b6118f3565b3480156108e557600080fd5b506104496108f436600461315d565b6118ff565b34801561090557600080fd5b50610449610914366004613230565b611919565b34801561092557600080fd5b50610449610934366004613213565b611940565b34801561094557600080fd5b5061044961095436600461315d565b611a94565b34801561096557600080fd5b50610449610974366004613281565b611abb565b34801561098557600080fd5b50610449610994366004613230565b611b19565b3480156109a557600080fd5b506104496109b436600461315d565b611b40565b3480156109c557600080fd5b506104496109d436600461315d565b611b5a565b3480156109e557600080fd5b506104496109f4366004613230565b611b74565b348015610a0557600080fd5b50610449610a14366004613608565b611b9b565b348015610a2557600080fd5b5060005461069c906001600160a01b031681565b348015610a4557600080fd5b50610a4e611c2c565b60405161042091906136be565b348015610a6757600080fd5b50610449610a7636600461315d565b611ce9565b348015610a8757600080fd5b50610449610a96366004613230565b611cf5565b348015610aa757600080fd5b50610449610ab636600461315d565b611d1c565b348015610ac757600080fd5b50610449610ad636600461370a565b611d36565b348015610ae757600080fd5b50610449610af6366004613213565b611d56565b348015610b0757600080fd5b50610449610b1636600461315d565b611d69565b348015610b2757600080fd5b50610449610b36366004613450565b611d90565b348015610b4757600080fd5b50610449610b5636600461315d565b611fe6565b348015610b6757600080fd5b50610449610b76366004613230565b61200d565b348015610b8757600080fd5b50610414610b96366004613213565b612034565b348015610ba757600080fd5b50610449610bb636600461315d565b6120ce565b348015610bc757600080fd5b50600080516020613cb883398151915254600160a81b900460ff16610414565b348015610bf357600080fd5b50610449610c0236600461315d565b6120e8565b348015610c1357600080fd5b50610449610c22366004613755565b61210f565b348015610c3357600080fd5b50610449610c42366004613281565b61216a565b348015610c5357600080fd5b50610449610c62366004613230565b6121bb565b348015610c7357600080fd5b50610449610c82366004613450565b6121d5565b348015610c9357600080fd5b50610449612243565b60006001600160e01b031982166301ffc9a760e01b1480610ccd57506001600160e01b03198216635267a15d60e01b145b80610ce857506001600160e01b0319821663580605bb60e11b145b80610d0357506001600160e01b0319821663c2adada160e01b145b80610d1e57506001600160e01b0319821663a3cfea9760e01b145b80610d3957506001600160e01b0319821663c4c3061b60e01b145b92915050565b610d476122e8565b610d598263d074339560e01b83612323565b5050565b610d656122e8565b610d59826302c06abf60e41b83612323565b610d7f6122e8565b604051600080516020613cb883398151915290600090610da290859085906137c4565b6040518091039020905081600201600082815260200190815260200160002054600003610de25760405163023679b760e21b815260040160405180910390fd5b6040518181527f69b058d6225c01c1f2a25801ca5b05705fa2e9118e93d518390ba804398c87b19060200160405180910390a16000908152600290910160205260408120555050565b610e336122e8565b610d59600382612372565b610e46612387565b15610e6557610e536123bd565b610d59826315ebe57360e31b83612323565b610d596000366000612401565b600080516020613cb8833981519152610e8a33612034565b610ea757604051633fdb5f0160e11b815260040160405180910390fd5b60008383604051610eb99291906137c4565b60408051918290039091206000818152600285016020529182205490925090819003610ef85760405163023679b760e21b815260040160405180910390fd5b80421015610f195760405163309272e160e11b815260040160405180910390fd5b6000828152600284016020526040808220829055845460ff60b01b1916600160b01b178555513090610f4e90889088906137c4565b6000604051808303816000865af19150503d8060008114610f8b576040519150601f19603f3d011682016040523d82523d6000602084013e610f90565b606091505b5050845460ff60b01b191685556040518481529091507fec1225e5a8a8acb91e03ce648c683c74f5d152a775b9715980999441d714c44f9060200160405180910390a1610fdc81612518565b505050505050565b610fec6122e8565b610d5982633db7d3b160e11b83612323565b6110066122e8565b610d5982632b4572c760e11b83612323565b611020612387565b15610e655761102d6123bd565b610d598263be06971960e01b83612535565b6110476122e8565b610d59826337592f4160e21b83612323565b6110616122e8565b610d5982639db27f5560e01b83612323565b61107b612387565b156112a5576110886123bd565b6001600160a01b038116600090815260016020526040812054908190036110ad575050565b60006110ba6001836137ea565b6002549091506000906110cf906001906137ea565b90508082101561118957600281815481106110ec576110ec6137fd565b600091825260209091200154600280546001600160a01b039092169184908110611118576111186137fd565b600091825260209091200180546001600160a01b0319166001600160a01b039290921691909117905561114c826001613813565b6001600060028581548110611163576111636137fd565b60009182526020808320909101546001600160a01b031683528201929092526040019020555b600280548061119a5761119a613826565b60008281526020808220830160001990810180546001600160a01b03191690559092019092556001600160a01b03861680835260018252604080842093909355825163f0c0b72560e01b815292513093919263f0c0b72592600480820193918290030181865afa158015611212573d6000803e3d6000fd5b505050506040513d601f19601f82011682018060405250810190611236919061383c565b6001600160a01b03160361129f5760405163b928b53360e01b8152600060048201526001600160a01b0385169063b928b53390602401600060405180830381600087803b15801561128657600080fd5b505af115801561129a573d6000803e3d6000fd5b505050505b50505050565b6112b26000366000612401565b50565b6112bd612387565b156112a5576112ca6123bd565b6001600160a01b037f000000000000000000000000000000000000000000000000000000000000000016300361131b5760405162461bcd60e51b815260040161131290613859565b60405180910390fd5b7f00000000000000000000000000000000000000000000000000000000000000006001600160a01b031661134d612557565b6001600160a01b0316146113735760405162461bcd60e51b8152600401611312906138a5565b604080516000808252602082019092526112b29183919061256d565b6113976122e8565b610d5982632a92649160e01b83612323565b6113b16122e8565b610d59826323c0a60360e11b83612323565b6113cb6122e8565b604051602481018390526044810182905261141490849060640160408051601f198184030181529190526020810180516001600160e01b0316633128590960e01b1790526126d8565b505050565b611421612387565b15610e655761142e6123bd565b610d59826309eb52f160e11b83612535565b611448612387565b15610e65576114556123bd565b6001600160a01b037f000000000000000000000000000000000000000000000000000000000000000016300361149d5760405162461bcd60e51b815260040161131290613859565b7f00000000000000000000000000000000000000000000000000000000000000006001600160a01b03166114cf612557565b6001600160a01b0316146114f55760405162461bcd60e51b8152600401611312906138a5565b610d598282600161256d565b6115096122e8565b610d5982632d62e08f60e11b83612323565b6000306001600160a01b037f000000000000000000000000000000000000000000000000000000000000000016146115bb5760405162461bcd60e51b815260206004820152603860248201527f555550535570677261646561626c653a206d757374206e6f742062652063616c60448201527f6c6564207468726f7567682064656c656761746563616c6c00000000000000006064820152608401611312565b50600080516020613c7183398151915290565b6112b28160008061275c565b6115e26122e8565b610d59826340973e9760e11b83612323565b600080516020613cb8833981519152805460009190600160a81b900460ff1661162a5760018101546001600160a01b0316611697565b805460408051631cc9492560e21b815290516001600160a01b03909216916373252494916004808201926020929091908290030181865afa158015611673573d6000803e3d6000fd5b505050506040513d601f19601f82011682018060405250810190611697919061383c565b91505090565b6116a5612387565b15611701576116b26123bd565b6116fc85858585856040516024016116cd949392919061391b565b60408051601f198184030181529190526020810180516001600160e01b031663b18e8e6760e01b1790526126d8565b61170e565b61170e6000366000612401565b5050505050565b61171d6122e8565b610d598263ad74c72d60e01b83612323565b6117376122e8565b610d5982636ad6fb4f60e01b83612323565b6000600080516020613cb88339815191525b546001600160a01b0316919050565b610d598260018361275c565b61177e6122e8565b610d5982633b1d0c2960e21b83612323565b6117986122e8565b610d59828280806020026020016040519081016040528093929190818152602001838360200280828437600092019190915250506040805160048152602481019091526020810180516001600160e01b0316636d47df9560e11b17905291506126d89050565b611806612387565b15610e65576118136123bd565b610d59826336f9886b60e11b83612323565b61182d6122e8565b610d59828260405160240161184291906139db565b60408051601f198184030181529190526020810180516001600160e01b0316630f8d62c960e01b1790526126d8565b6118796122e8565b610d598263b2e6a2b560e01b83612323565b611893612387565b156118e6576118a06123bd565b6114148383836040516024016118b7929190613aed565b60408051601f198184030181529190526020810180516001600160e01b0316633b145b4960e21b1790526126d8565b6114146000366000612401565b610d598260028361275c565b6119076122e8565b610d5982634f0c992160e11b83612323565b611921612387565b15610e655761192e6123bd565b610d598263e443147f60e01b83612535565b611948612387565b156112a5576119556123bd565b6001600160a01b03811660009081526001602052604081205490036112b25760028054600180820183557f405787fa12a823e0f2b7631cc41b3ba8828b3321ca811111fa75cd3aa3bb5ace90910180546001600160a01b0319166001600160a01b03851690811790915591546000838152602092835260409081902091909155805163f0c0b72560e01b8152905130939263f0c0b72592600480820193918290030181865afa158015611a0c573d6000803e3d6000fd5b505050506040513d601f19601f82011682018060405250810190611a30919061383c565b6001600160a01b0316036112b25760405163b928b53360e01b8152600160048201526001600160a01b0382169063b928b53390602401600060405180830381600087803b158015611a8057600080fd5b505af115801561170e573d6000803e3d6000fd5b611a9c612387565b15610e6557611aa96123bd565b610d598263d57d25c560e01b83612323565b611ac3612387565b156118e657611ad06123bd565b604051602481018390526044810182905261141490849060640160408051601f198184030181529190526020810180516001600160e01b03166334dc4f3f60e11b1790526126d8565b611b21612387565b15610e6557611b2e6123bd565b610d5982636f83754b60e11b83612535565b611b486122e8565b610d598263dfc5941760e01b83612323565b611b626122e8565b610d59826313bcd55560e11b83612323565b611b7c612387565b15610e6557611b896123bd565b610d5982637f4fcaa960e01b83612535565b600080516020613c51833981519152546001600160a01b0316336001600160a01b031614611bdc57604051633d8aad3760e11b815260040160405180910390fd5b611c22611c1083836040518060400160405280600e81526020016d20b2323932b9b9aab83230ba32b960911b8152506127f3565b600080516020613c5183398151915255565b610d5982826128a6565b600254606090806001600160401b03811115611c4a57611c4a613069565b604051908082528060200260200182016040528015611c73578160200160208202803683370190505b50915060005b81811015611ce45760028181548110611c9457611c946137fd565b9060005260206000200160009054906101000a90046001600160a01b0316838281518110611cc457611cc46137fd565b6001600160a01b0390921660209283029190910190910152600101611c79565b505090565b610d598260038361275c565b611cfd612387565b15610e6557611d0a6123bd565b610d5982636dd3d58960e01b83612535565b611d246122e8565b610d598263cfcb991d60e01b83612323565b611d4083836129a9565b61141481600080516020613c5183398151915255565b611d5e6122e8565b610d59600382612aa6565b611d71612387565b15610e6557611d7e6123bd565b610d5982636b38c64360e01b83612323565b6000611da8600080516020613c518339815191525490565b604051630110ceef60e21b815260206004820152600e60248201526d20b2323932b9b9aab83230ba32b960911b60448201529091506000906001600160a01b038316906304433bbc90606401602060405180830381865afa158015611e11573d6000803e3d6000fd5b505050506040513d601f19601f82011682018060405250810190611e35919061383c565b604051630110ceef60e21b815260206004820152601660248201527520b9b9b2ba26b0b730b3b2b921b7b73a3937b63632b960511b60448201529091506000906001600160a01b038416906304433bbc90606401602060405180830381865afa158015611ea6573d6000803e3d6000fd5b505050506040513d601f19601f82011682018060405250810190611eca919061383c565b90506000836001600160a01b03166304433bbc6040518163ffffffff1660e01b8152600401611f119060208082526004908201526315d3985d60e21b604082015260600190565b602060405180830381865afa158015611f2e573d6000803e3d6000fd5b505050506040513d601f19601f82011682018060405250810190611f52919061383c565b90506001600160a01b03831615801590611f7457506001600160a01b03821615155b8015611f8857506001600160a01b03811615155b611fa557604051639fabe1c160e01b815260040160405180910390fd5b610fdc868680806020026020016040519081016040528093929190818152602001838360200280828437600092019190915250879250869150859050612abb565b611fee612387565b15610e6557611ffb6123bd565b610d59826346ca288560e11b83612323565b612015612387565b15610e65576120226123bd565b610d598263cda4c54160e01b83612535565b600080516020613cb8833981519152805460009190600160a01b900460ff1680156120c757508054604051630debfda360e41b81526001600160a01b0385811660048301529091169063debfda3090602401602060405180830381865afa1580156120a3573d6000803e3d6000fd5b505050506040513d601f19601f820116820180604052508101906120c79190613b12565b9392505050565b6120d66122e8565b610d598263e68f3fbf60e01b83612323565b6120f0612387565b15610e65576120fd6123bd565b610d5982637800a11f60e01b83612323565b612117612387565b156118e6576121246123bd565b61141483838360405160240161213b929190613b7f565b60408051601f198184030181529190526020810180516001600160e01b0316636a59860960e01b1790526126d8565b6121726122e8565b604051602481018390526044810182905261141490849060640160408051601f198184030181529190526020810180516001600160e01b0316633479125d60e11b1790526126d8565b6121c36122e8565b610d598263f6a494af60e01b83612535565b6121dd6122e8565b610d59828280806020026020016040519081016040528093929190818152602001838360200280828437600092019190915250506040805160048152602481019091526020810180516001600160e01b0316635710019160e11b17905291506126d89050565b61224b6122e8565b600080516020613cb88339815191528054600160a81b900460ff1615612284576040516339511f6160e11b815260040160405180910390fd5b6001810180546001600160a01b03191690558054600160a81b60ff60a81b1982161782556040516001600160a01b0390911681527f83af113638b5422f9e977cebc0aaf0eaf2188eb9a8baae7f9d46c42b33a1560c9060200160405180910390a150565b6122f06115f4565b6001600160a01b0316336001600160a01b031614612321576040516354348f0360e01b815260040160405180910390fd5b565b61141483838360405160240161233b91815260200190565b60408051601f198184030181529190526020810180516001600160e01b03166001600160e01b0319909316929092179091526126d8565b60006120c7836001600160a01b038416612b7e565b600080516020613cb8833981519152805460009190600160b01b900460ff1680611697575054600160a81b900460ff1615919050565b600080516020613cb88339815191528054600160b01b900460ff16156123f9573330146123ec576123ec613ba3565b805460ff60b01b19169055565b6112b26122e8565b600080516020613cb88339815191526124186122e8565b6000848460405161242a9291906137c4565b604080519182900382208454636221a54b60e01b845291519093506000926001600160a01b0390921691636221a54b9160048083019260209291908290030181865afa15801561247e573d6000803e3d6000fd5b505050506040513d601f19601f820116820180604052508101906124a29190613bb9565b9050838110156124af5750825b60006124bb8242613813565b600084815260028601602052604090819020829055519091507f8c02104dfc280f713854f25297de671710c544c58de69dbde8fb66974ce1ab9e90612507908990899087908690613bd2565b60405180910390a150505050505050565b3d604051818101604052816000823e8215612531578181f35b8181fd5b6040516001600160a01b0382166024820152611414908490849060440161233b565b6000600080516020613c7183398151915261175b565b7f4910fdfa16fed3260ed0e7147f7cc6da11a60208b5b9406d12a635614ffd91435460ff16156125a05761141483612c71565b826001600160a01b03166352d1902d6040518163ffffffff1660e01b8152600401602060405180830381865afa9250505080156125fa575060408051601f3d908101601f191682019092526125f791810190613bb9565b60015b61265d5760405162461bcd60e51b815260206004820152602e60248201527f45524331393637557067726164653a206e657720696d706c656d656e7461746960448201526d6f6e206973206e6f74205555505360901b6064820152608401611312565b600080516020613c7183398151915281146126cc5760405162461bcd60e51b815260206004820152602960248201527f45524331393637557067726164653a20756e737570706f727465642070726f786044820152681a58589b195555525160ba1b6064820152608401611312565b50611414838383612d0d565b60005b82518110156114145760008382815181106126f8576126f86137fd565b6020026020010151905060016000826001600160a01b03166001600160a01b031681526020019081526020016000205460000361274857604051635894060560e01b815260040160405180910390fd5b6127528184612d32565b50506001016126db565b60006127666115f4565b6001600160a01b0316336001600160a01b0316149050808061278e575061278e600333612d76565b6127ab5760405163ad0e0a7960e01b815260040160405180910390fd5b61129f848483856040516024016127c493929190613bf9565b60408051601f198184030181529190526020810180516001600160e01b0316636d92c6ad60e11b1790526126d8565b600080826040516020016128079190613c21565b6040516020818303038152906040528051906020012090506000805b86518110156128755786818151811061283e5761283e6137fd565b6020026020010151830361286d5785818151811061285e5761285e6137fd565b60200260200101519150612875565b600101612823565b506001600160a01b03811661289d5760405163e6ee175560e01b815260040160405180910390fd5b95945050505050565b60006128d983836040518060400160405280600e81526020016d20b2323932b9b9aab83230ba32b960911b8152506127f3565b9050600061291684846040518060400160405280601681526020017520b9b9b2ba26b0b730b3b2b921b7b73a3937b63632b960511b8152506127f3565b9050600061294185856040518060400160405280600481526020016315d3985d60e21b8152506127f3565b905061170e600280548060200260200160405190810160405280929190818152602001828054801561299c57602002820191906000526020600020905b81546001600160a01b0316815260019091019060200180831161297e575b5050505050848484612abb565b600080516020613cb88339815191528054600160a01b900460ff16156129e25760405163b2f0162160e01b815260040160405180910390fd5b6001600160a01b038316612a09576040516334ab92fb60e11b815260040160405180910390fd5b6001600160a01b038216612a30576040516334ab92fb60e11b815260040160405180910390fd5b80546001600160a01b038481166001600160a81b031990921691909117600160a01b1782556001820180549184166001600160a01b0319909216821790556040519081527f9789733827840833afc031fb2ef9ab6894271f77bad2085687cf4ae5c7bee4db9060200160405180910390a1505050565b60006120c7836001600160a01b038416612d98565b600080516020613c51833981519152546001600160a01b0316836001600160a01b031614612af957612af983600080516020613c5183398151915255565b6040516001600160a01b03808416602483015282166044820152612b4b90859060640160408051601f198184030181529190526020810180516001600160e01b0316636075765d60e01b1790526126d8565b6001600160a01b038216301461129f57600080546001600160a01b0384166001600160a01b031990911617905550505050565b60008181526001830160205260408120548015612c67576000612ba26001836137ea565b8554909150600090612bb6906001906137ea565b9050818114612c1b576000866000018281548110612bd657612bd66137fd565b9060005260206000200154905080876000018481548110612bf957612bf96137fd565b6000918252602080832090910192909255918252600188019052604090208390555b8554869080612c2c57612c2c613826565b600190038181906000526020600020016000905590558560010160008681526020019081526020016000206000905560019350505050610d39565b6000915050610d39565b6001600160a01b0381163b612cde5760405162461bcd60e51b815260206004820152602d60248201527f455243313936373a206e657720696d706c656d656e746174696f6e206973206e60448201526c1bdd08184818dbdb9d1c9858dd609a1b6064820152608401611312565b600080516020613c7183398151915280546001600160a01b0319166001600160a01b0392909216919091179055565b612d1683612de7565b600082511180612d235750805b156114145761129f8383612e27565b60606120c7838360006040518060400160405280601e81526020017f416464726573733a206c6f772d6c6576656c2063616c6c206661696c65640000815250612e4c565b6001600160a01b038116600090815260018301602052604081205415156120c7565b6000818152600183016020526040812054612ddf57508154600181810184556000848152602080822090930184905584548482528286019093526040902091909155610d39565b506000610d39565b612df081612c71565b6040516001600160a01b038216907fbc7cd75a20ee27fd9adebab32041f755214dbc6bffa90cc0225b39da2e5c2d3b90600090a250565b60606120c78383604051806060016040528060278152602001613c9160279139612f29565b606082471015612ead5760405162461bcd60e51b815260206004820152602660248201527f416464726573733a20696e73756666696369656e742062616c616e636520666f6044820152651c8818d85b1b60d21b6064820152608401611312565b600080866001600160a01b03168587604051612ec99190613c34565b60006040518083038185875af1925050503d8060008114612f06576040519150601f19603f3d011682016040523d82523d6000602084013e612f0b565b606091505b5091509150612f1c87838387612fa1565b925050505b949350505050565b6060600080856001600160a01b031685604051612f469190613c34565b600060405180830381855af49150503d8060008114612f81576040519150601f19603f3d011682016040523d82523d6000602084013e612f86565b606091505b5091509150612f9786838387612fa1565b9695505050505050565b60608315613010578251600003613009576001600160a01b0385163b6130095760405162461bcd60e51b815260206004820152601d60248201527f416464726573733a2063616c6c20746f206e6f6e2d636f6e74726163740000006044820152606401611312565b5081612f21565b612f2183838151156130255781518083602001fd5b8060405162461bcd60e51b81526004016113129190613c21565b60006020828403121561305157600080fd5b81356001600160e01b0319811681146120c757600080fd5b634e487b7160e01b600052604160045260246000fd5b604051601f8201601f191681016001600160401b03811182821017156130a7576130a7613069565b604052919050565b60006001600160401b038211156130c8576130c8613069565b5060051b60200190565b6001600160a01b03811681146112b257600080fd5b600082601f8301126130f857600080fd5b813561310b613106826130af565b61307f565b8082825260208201915060208360051b86010192508583111561312d57600080fd5b602085015b83811015613153578035613145816130d2565b835260209283019201613132565b5095945050505050565b6000806040838503121561317057600080fd5b82356001600160401b0381111561318657600080fd5b613192858286016130e7565b95602094909401359450505050565b600080602083850312156131b457600080fd5b82356001600160401b038111156131ca57600080fd5b8301601f810185136131db57600080fd5b80356001600160401b038111156131f157600080fd5b85602082840101111561320357600080fd5b6020919091019590945092505050565b60006020828403121561322557600080fd5b81356120c7816130d2565b6000806040838503121561324357600080fd5b82356001600160401b0381111561325957600080fd5b613265858286016130e7565b9250506020830135613276816130d2565b809150509250929050565b60008060006060848603121561329657600080fd5b83356001600160401b038111156132ac57600080fd5b6132b8868287016130e7565b9660208601359650604090950135949350505050565b600082601f8301126132df57600080fd5b81356001600160401b038111156132f8576132f8613069565b61330b601f8201601f191660200161307f565b81815284602083860101111561332057600080fd5b816020850160208301376000918101602001919091529392505050565b6000806040838503121561335057600080fd5b823561335b816130d2565b915060208301356001600160401b0381111561337657600080fd5b613382858286016132ce565b9150509250929050565b60006020828403121561339e57600080fd5b81356001600160401b038111156133b457600080fd5b612f21848285016130e7565b8035600381106133cf57600080fd5b919050565b80356133cf816130d2565b600080600080600060a086880312156133f757600080fd5b85356001600160401b0381111561340d57600080fd5b613419888289016130e7565b955050613428602087016133c0565b93506040860135613438816130d2565b94979396509394606081013594506080013592915050565b6000806020838503121561346357600080fd5b82356001600160401b0381111561347957600080fd5b8301601f8101851361348a57600080fd5b80356001600160401b038111156134a057600080fd5b8560208260051b840101111561320357600080fd5b600080604083850312156134c857600080fd5b82356001600160401b038111156134de57600080fd5b6134ea858286016130e7565b92505060208301356001600160401b0381111561350657600080fd5b8301610120818603121561327657600080fd5b600082601f83011261352a57600080fd5b8135613538613106826130af565b8082825260208201915060208360051b86010192508583111561355a57600080fd5b602085015b8381101561315357803583526020928301920161355f565b60008060006060848603121561358c57600080fd5b83356001600160401b038111156135a257600080fd5b6135ae868287016130e7565b93505060208401356001600160401b038111156135ca57600080fd5b6135d686828701613519565b92505060408401356001600160401b038111156135f257600080fd5b6135fe86828701613519565b9150509250925092565b6000806040838503121561361b57600080fd5b82356001600160401b0381111561363157600080fd5b8301601f8101851361364257600080fd5b8035613650613106826130af565b8082825260208201915060208360051b85010192508783111561367257600080fd5b6020840193505b82841015613694578335825260209384019390910190613679565b945050505060208301356001600160401b038111156136b257600080fd5b613382858286016130e7565b602080825282518282018190526000918401906040840190835b818110156136ff5783516001600160a01b03168352602093840193909201916001016136d8565b509095945050505050565b60008060006060848603121561371f57600080fd5b833561372a816130d2565b9250602084013561373a816130d2565b9150604084013561374a816130d2565b809150509250925092565b60008060006060848603121561376a57600080fd5b83356001600160401b0381111561378057600080fd5b61378c868287016130e7565b935050602084013561379d816130d2565b915060408401356001600160401b038111156137b857600080fd5b6135fe868287016132ce565b8183823760009101908152919050565b634e487b7160e01b600052601160045260246000fd5b81810381811115610d3957610d396137d4565b634e487b7160e01b600052603260045260246000fd5b80820180821115610d3957610d396137d4565b634e487b7160e01b600052603160045260246000fd5b60006020828403121561384e57600080fd5b81516120c7816130d2565b6020808252602c908201527f46756e6374696f6e206d7573742062652063616c6c6564207468726f7567682060408201526b19195b1959d85d1958d85b1b60a21b606082015260800190565b6020808252602c908201527f46756e6374696f6e206d7573742062652063616c6c6564207468726f7567682060408201526b6163746976652070726f787960a01b606082015260800190565b634e487b7160e01b600052602160045260246000fd5b60038110613917576139176138f1565b9052565b608081016139298287613907565b6001600160a01b039490941660208201526040810192909252606090910152919050565b80151581146112b257600080fd5b80356133cf8161394d565b6000808335601e1984360301811261397d57600080fd5b83016020810192503590506001600160401b0381111561399c57600080fd5b8036038213156139ab57600080fd5b9250929050565b81835281816020850137506000828201602090810191909152601f909101601f19169091010190565b602081526139f4602082016139ef846133c0565b613907565b6000613a02602084016133d4565b6001600160a01b0381166040840152506040830135606083810191909152830135608080840191909152613a3790840161395b565b80151560a084015250613a4d60a0840184613966565b61012060c0850152613a64610140850182846139b2565b915050613a7460c0850185613966565b848303601f190160e0860152613a8b8382846139b2565b60e087013561010087810191909152909601356101209095019490945250929392505050565b600081518084526020840193506020830160005b82811015613ae3578151865260209586019590910190600101613ac5565b5093949350505050565b604081526000613b006040830185613ab1565b828103602084015261289d8185613ab1565b600060208284031215613b2457600080fd5b81516120c78161394d565b60005b83811015613b4a578181015183820152602001613b32565b50506000910152565b60008151808452613b6b816020860160208601613b2f565b601f01601f19169290920160200192915050565b6001600160a01b0383168152604060208201819052600090612f2190830184613b53565b634e487b7160e01b600052600160045260246000fd5b600060208284031215613bcb57600080fd5b5051919050565b606081526000613be66060830186886139b2565b6020830194909452506040015292915050565b6060810160048510613c0d57613c0d6138f1565b938152911515602083015260409091015290565b6020815260006120c76020830184613b53565b60008251613c46818460208701613b2f565b919091019291505056fe714f205b2abd25bef1d06a1af944e38c113fe6160375c4e1d6d5cf28848e7719360894a13ba1a3210667c828492db98dca3e2076cc3735a920a3ca505d382bbc416464726573733a206c6f772d6c6576656c2064656c65676174652063616c6c206661696c65642aa47ee5db910f3b2a06970c443249cc77dbd9f96100cfebc1775ab7fb1d1824a26469706673582212209adcb13a3c9a5b54c07e34360837bf894955a3f146a1517e33e1f7d548e1227464736f6c634300081b0033",
  "linkReferences": {},
  "deployedLinkReferences": {}
}