{
  "_format": "hh-sol-artifact-1",
  "contractName": "AssetManagerController",
  "sourceName": "contracts/assetManagerController/implementation/AssetManagerController.sol",
  "abi": [
    {
      "inputs": [],
      "stateMutability": "nonpayable",
      "type": "constructor"
    },
    {
      "inputs": [],
      "name": "AUAddressZero",
      "type": "error"
    },
    {
      "inputs": [],
      "name": "AddressZero",
      "type": "error"
    },
    {
      "inputs": [],
      "name": "AlreadyInProductionMode",
      "type": "error"
    },
    {
      "inputs": [],
      "name": "AssetManagerNotManaged",
      "type": "error"
    },
    {
      "inputs": [],
      "name": "GovernedAddressZero",
      "type": "error"
    },
    {
      "inputs": [],
      "name": "GovernedAlreadyInitialized",
      "type": "error"
    },
    {
      "inputs": [],
      "name": "OnlyAddressUpdater",
      "type": "error"
    },
    {
      "inputs": [],
      "name": "OnlyExecutor",
      "type": "error"
    },
    {
      "inputs": [],
      "name": "OnlyGovernance",
      "type": "error"
    },
    {
      "inputs": [],
      "name": "OnlyGovernanceOrEmergencyPauseSenders",
      "type": "error"
    },
    {
      "inputs": [],
      "name": "TimelockInvalidSelector",
      "type": "error"
    },
    {
      "inputs": [],
      "name": "TimelockNotAllowedYet",
      "type": "error"
    },
    {
      "anonymous": false,
      "inputs": [
        {
          "indexed": false,
          "internalType": "address",
          "name": "previousAdmin",
          "type": "address"
        },
        {
          "indexed": false,
          "internalType": "address",
          "name": "newAdmin",
          "type": "address"
        }
      ],
      "name": "AdminChanged",
      "type": "event"
    },
    {
      "anonymous": false,
      "inputs": [
        {
          "indexed": true,
          "internalType": "address",
          "name": "beacon",
          "type": "address"
        }
      ],
      "name": "BeaconUpgraded",
      "type": "event"
    },
    {
      "anonymous": false,
      "inputs": [
        {
          "indexed": false,
          "internalType": "bytes",
          "name": "encodedCall",
          "type": "bytes"
        },
        {
          "indexed": false,
          "internalType": "bytes32",
          "name": "encodedCallHash",
          "type": "bytes32"
        },
        {
          "indexed": false,
          "internalType": "uint256",
          "name": "allowedAfterTimestamp",
          "type": "uint256"
        }
      ],
      "name": "GovernanceCallTimelocked",
      "type": "event"
    },
    {
      "anonymous": false,
      "inputs": [
        {
          "indexed": false,
          "internalType": "address",
          "name": "initialGovernance",
          "type": "address"
        }
      ],
      "name": "GovernanceInitialised",
      "type": "event"
    },
    {
      "anonymous": false,
      "inputs": [
        {
          "indexed": false,
          "internalType": "address",
          "name": "governanceSettings",
          "type": "address"
        }
      ],
      "name": "GovernedProductionModeEntered",
      "type": "event"
    },
    {
      "anonymous": false,
      "inputs": [
        {
          "indexed": false,
          "internalType": "bytes32",
          "name": "encodedCallHash",
          "type": "bytes32"
        }
      ],
      "name": "TimelockedGovernanceCallCanceled",
      "type": "event"
    },
    {
      "anonymous": false,
      "inputs": [
        {
          "indexed": false,
          "internalType": "bytes32",
          "name": "encodedCallHash",
          "type": "bytes32"
        }
      ],
      "name": "TimelockedGovernanceCallExecuted",
      "type": "event"
    },
    {
      "anonymous": false,
      "inputs": [
        {
          "indexed": true,
          "internalType": "address",
          "name": "implementation",
          "type": "address"
        }
      ],
      "name": "Upgraded",
      "type": "event"
    },
    {
      "inputs": [
        {
          "internalType": "contract IIAssetManager",
          "name": "_assetManager",
          "type": "address"
        }
      ],
      "name": "addAssetManager",
      "outputs": [],
      "stateMutability": "nonpayable",
      "type": "function"
    },
    {
      "inputs": [
        {
          "internalType": "contract IIAssetManager[]",
          "name": "_assetManagers",
          "type": "address[]"
        },
        {
          "components": [
            {
              "internalType": "enum CollateralType.Class",
              "name": "collateralClass",
              "type": "uint8"
            },
            {
              "internalType": "contract IERC20",
              "name": "token",
              "type": "address"
            },
            {
              "internalType": "uint256",
              "name": "decimals",
              "type": "uint256"
            },
            {
              "internalType": "uint256",
              "name": "validUntil",
              "type": "uint256"
            },
            {
              "internalType": "bool",
              "name": "directPricePair",
              "type": "bool"
            },
            {
              "internalType": "string",
              "name": "assetFtsoSymbol",
              "type": "string"
            },
            {
              "internalType": "string",
              "name": "tokenFtsoSymbol",
              "type": "string"
            },
            {
              "internalType": "uint256",
              "name": "minCollateralRatioBIPS",
              "type": "uint256"
            },
            {
              "internalType": "uint256",
              "name": "safetyMinCollateralRatioBIPS",
              "type": "uint256"
            }
          ],
          "internalType": "struct CollateralType.Data",
          "name": "_data",
          "type": "tuple"
        }
      ],
      "name": "addCollateralType",
      "outputs": [],
      "stateMutability": "nonpayable",
      "type": "function"
    },
    {
      "inputs": [
        {
          "internalType": "address",
          "name": "_address",
          "type": "address"
        }
      ],
      "name": "addEmergencyPauseSender",
      "outputs": [],
      "stateMutability": "nonpayable",
      "type": "function"
    },
    {
      "inputs": [
        {
          "internalType": "address",
          "name": "_assetManager",
          "type": "address"
        }
      ],
      "name": "assetManagerExists",
      "outputs": [
        {
          "internalType": "bool",
          "name": "",
          "type": "bool"
        }
      ],
      "stateMutability": "view",
      "type": "function"
    },
    {
      "inputs": [
        {
          "internalType": "bytes",
          "name": "_encodedCall",
          "type": "bytes"
        }
      ],
      "name": "cancelGovernanceCall",
      "outputs": [],
      "stateMutability": "nonpayable",
      "type": "function"
    },
    {
      "inputs": [
        {
          "internalType": "contract IIAssetManager[]",
          "name": "_assetManagers",
          "type": "address[]"
        },
        {
          "internalType": "enum CollateralType.Class",
          "name": "_class",
          "type": "uint8"
        },
        {
          "internalType": "contract IERC20",
          "name": "_token",
          "type": "address"
        },
        {
          "internalType": "uint256",
          "name": "_invalidationTimeSec",
          "type": "uint256"
        }
      ],
      "name": "deprecateCollateralType",
      "outputs": [],
      "stateMutability": "nonpayable",
      "type": "function"
    },
    {
      "inputs": [
        {
          "internalType": "contract IIAssetManager[]",
          "name": "_assetManagers",
          "type": "address[]"
        },
        {
          "internalType": "uint256",
          "name": "_duration",
          "type": "uint256"
        }
      ],
      "name": "emergencyPause",
      "outputs": [],
      "stateMutability": "nonpayable",
      "type": "function"
    },
    {
      "inputs": [
        {
          "internalType": "contract IIAssetManager[]",
          "name": "_assetManagers",
          "type": "address[]"
        },
        {
          "internalType": "uint256",
          "name": "_duration",
          "type": "uint256"
        }
      ],
      "name": "emergencyPauseTransfers",
      "outputs": [],
      "stateMutability": "nonpayable",
      "type": "function"
    },
    {
      "inputs": [
        {
          "internalType": "bytes",
          "name": "_encodedCall",
          "type": "bytes"
        }
      ],
      "name": "executeGovernanceCall",
      "outputs": [],
      "stateMutability": "nonpayable",
      "type": "function"
    },
    {
      "inputs": [],
      "name": "getAddressUpdater",
      "outputs": [
        {
          "internalType": "address",
          "name": "_addressUpdater",
          "type": "address"
        }
      ],
      "stateMutability": "view",
      "type": "function"
    },
    {
      "inputs": [],
      "name": "getAssetManagers",
      "outputs": [
        {
          "internalType": "contract IAssetManager[]",
          "name": "_assetManagers",
          "type": "address[]"
        }
      ],
      "stateMutability": "view",
      "type": "function"
    },
    {
      "inputs": [],
      "name": "governance",
      "outputs": [
        {
          "internalType": "address",
          "name": "",
          "type": "address"
        }
      ],
      "stateMutability": "view",
      "type": "function"
    },
    {
      "inputs": [],
      "name": "governanceSettings",
      "outputs": [
        {
          "internalType": "contract IGovernanceSettings",
          "name": "",
          "type": "address"
        }
      ],
      "stateMutability": "view",
      "type": "function"
    },
    {
      "inputs": [
        {
          "internalType": "contract IGovernanceSettings",
          "name": "_governanceSettings",
          "type": "address"
        },
        {
          "internalType": "address",
          "name": "_initialGovernance",
          "type": "address"
        },
        {
          "internalType": "address",
          "name": "_addressUpdater",
          "type": "address"
        }
      ],
      "name": "initialize",
      "outputs": [],
      "stateMutability": "nonpayable",
      "type": "function"
    },
    {
      "inputs": [
        {
          "internalType": "address",
          "name": "_address",
          "type": "address"
        }
      ],
      "name": "isExecutor",
      "outputs": [
        {
          "internalType": "bool",
          "name": "",
          "type": "bool"
        }
      ],
      "stateMutability": "view",
      "type": "function"
    },
    {
      "inputs": [
        {
          "internalType": "contract IIAssetManager[]",
          "name": "_assetManagers",
          "type": "address[]"
        }
      ],
      "name": "pauseMinting",
      "outputs": [],
      "stateMutability": "nonpayable",
      "type": "function"
    },
    {
      "inputs": [],
      "name": "productionMode",
      "outputs": [
        {
          "internalType": "bool",
          "name": "",
          "type": "bool"
        }
      ],
      "stateMutability": "view",
      "type": "function"
    },
    {
      "inputs": [],
      "name": "proxiableUUID",
      "outputs": [
        {
          "internalType": "bytes32",
          "name": "",
          "type": "bytes32"
        }
      ],
      "stateMutability": "view",
      "type": "function"
    },
    {
      "inputs": [
        {
          "internalType": "contract IIAssetManager",
          "name": "_assetManager",
          "type": "address"
        }
      ],
      "name": "removeAssetManager",
      "outputs": [],
      "stateMutability": "nonpayable",
      "type": "function"
    },
    {
      "inputs": [
        {
          "internalType": "address",
          "name": "_address",
          "type": "address"
        }
      ],
      "name": "removeEmergencyPauseSender",
      "outputs": [],
      "stateMutability": "nonpayable",
      "type": "function"
    },
    {
      "inputs": [],
      "name": "replacedBy",
      "outputs": [
        {
          "internalType": "address",
          "name": "",
          "type": "address"
        }
      ],
      "stateMutability": "view",
      "type": "function"
    },
    {
      "inputs": [
        {
          "internalType": "contract IIAssetManager[]",
          "name": "_assetManagers",
          "type": "address[]"
        }
      ],
      "name": "resetEmergencyPauseTotalDuration",
      "outputs": [],
      "stateMutability": "nonpayable",
      "type": "function"
    },
    {
      "inputs": [
        {
          "internalType": "contract IIAssetManager[]",
          "name": "_assetManagers",
          "type": "address[]"
        },
        {
          "internalType": "uint256",
          "name": "_value",
          "type": "uint256"
        }
      ],
      "name": "setAgentExitAvailableTimelockSeconds",
      "outputs": [],
      "stateMutability": "nonpayable",
      "type": "function"
    },
    {
      "inputs": [
        {
          "internalType": "contract IIAssetManager[]",
          "name": "_assetManagers",
          "type": "address[]"
        },
        {
          "internalType": "uint256",
          "name": "_value",
          "type": "uint256"
        }
      ],
      "name": "setAgentFeeChangeTimelockSeconds",
      "outputs": [],
      "stateMutability": "nonpayable",
      "type": "function"
    },
    {
      "inputs": [
        {
          "internalType": "contract IIAssetManager[]",
          "name": "_assetManagers",
          "type": "address[]"
        },
        {
          "internalType": "uint256",
          "name": "_value",
          "type": "uint256"
        }
      ],
      "name": "setAgentMintingCRChangeTimelockSeconds",
      "outputs": [],
      "stateMutability": "nonpayable",
      "type": "function"
    },
    {
      "inputs": [
        {
          "internalType": "contract IIAssetManager[]",
          "name": "_assetManagers",
          "type": "address[]"
        },
        {
          "internalType": "address",
          "name": "_value",
          "type": "address"
        }
      ],
      "name": "setAgentOwnerRegistry",
      "outputs": [],
      "stateMutability": "nonpayable",
      "type": "function"
    },
    {
      "inputs": [
        {
          "internalType": "contract IIAssetManager[]",
          "name": "_assetManagers",
          "type": "address[]"
        },
        {
          "internalType": "uint256",
          "name": "_value",
          "type": "uint256"
        }
      ],
      "name": "setAgentTimelockedOperationWindowSeconds",
      "outputs": [],
      "stateMutability": "nonpayable",
      "type": "function"
    },
    {
      "inputs": [
        {
          "internalType": "contract IIAssetManager[]",
          "name": "_assetManagers",
          "type": "address[]"
        },
        {
          "internalType": "address",
          "name": "_value",
          "type": "address"
        }
      ],
      "name": "setAgentVaultFactory",
      "outputs": [],
      "stateMutability": "nonpayable",
      "type": "function"
    },
    {
      "inputs": [
        {
          "internalType": "contract IIAssetManager[]",
          "name": "_assetManagers",
          "type": "address[]"
        },
        {
          "internalType": "uint256",
          "name": "_value",
          "type": "uint256"
        }
      ],
      "name": "setAttestationWindowSeconds",
      "outputs": [],
      "stateMutability": "nonpayable",
      "type": "function"
    },
    {
      "inputs": [
        {
          "internalType": "contract IIAssetManager[]",
          "name": "_assetManagers",
          "type": "address[]"
        },
        {
          "internalType": "uint256",
          "name": "_value",
          "type": "uint256"
        }
      ],
      "name": "setAverageBlockTimeMS",
      "outputs": [],
      "stateMutability": "nonpayable",
      "type": "function"
    },
    {
      "inputs": [
        {
          "internalType": "contract IIAssetManager[]",
          "name": "_assetManagers",
          "type": "address[]"
        },
        {
          "internalType": "address",
          "name": "_value",
          "type": "address"
        }
      ],
      "name": "setCleanerContract",
      "outputs": [],
      "stateMutability": "nonpayable",
      "type": "function"
    },
    {
      "inputs": [
        {
          "internalType": "contract IIAssetManager[]",
          "name": "_assetManagers",
          "type": "address[]"
        },
        {
          "internalType": "address",
          "name": "_value",
          "type": "address"
        }
      ],
      "name": "setCleanupBlockNumberManager",
      "outputs": [],
      "stateMutability": "nonpayable",
      "type": "function"
    },
    {
      "inputs": [
        {
          "internalType": "contract IIAssetManager[]",
          "name": "_assetManagers",
          "type": "address[]"
        },
        {
          "internalType": "address",
          "name": "_value",
          "type": "address"
        }
      ],
      "name": "setCollateralPoolFactory",
      "outputs": [],
      "stateMutability": "nonpayable",
      "type": "function"
    },
    {
      "inputs": [
        {
          "internalType": "contract IIAssetManager[]",
          "name": "_assetManagers",
          "type": "address[]"
        },
        {
          "internalType": "address",
          "name": "_value",
          "type": "address"
        }
      ],
      "name": "setCollateralPoolTokenFactory",
      "outputs": [],
      "stateMutability": "nonpayable",
      "type": "function"
    },
    {
      "inputs": [
        {
          "internalType": "contract IIAssetManager[]",
          "name": "_assetManagers",
          "type": "address[]"
        },
        {
          "internalType": "uint256",
          "name": "_value",
          "type": "uint256"
        }
      ],
      "name": "setCollateralPoolTokenTimelockSeconds",
      "outputs": [],
      "stateMutability": "nonpayable",
      "type": "function"
    },
    {
      "inputs": [
        {
          "internalType": "contract IIAssetManager[]",
          "name": "_assetManagers",
          "type": "address[]"
        },
        {
          "internalType": "enum CollateralType.Class",
          "name": "_class",
          "type": "uint8"
        },
        {
          "internalType": "contract IERC20",
          "name": "_token",
          "type": "address"
        },
        {
          "internalType": "uint256",
          "name": "_minCollateralRatioBIPS",
          "type": "uint256"
        },
        {
          "internalType": "uint256",
          "name": "_safetyMinCollateralRatioBIPS",
          "type": "uint256"
        }
      ],
      "name": "setCollateralRatiosForToken",
      "outputs": [],
      "stateMutability": "nonpayable",
      "type": "function"
    },
    {
      "inputs": [
        {
          "internalType": "contract IIAssetManager[]",
          "name": "_assetManagers",
          "type": "address[]"
        },
        {
          "internalType": "uint256",
          "name": "_value",
          "type": "uint256"
        }
      ],
      "name": "setCollateralReservationFeeBips",
      "outputs": [],
      "stateMutability": "nonpayable",
      "type": "function"
    },
    {
      "inputs": [
        {
          "internalType": "contract IIAssetManager[]",
          "name": "_assetManagers",
          "type": "address[]"
        },
        {
          "internalType": "uint256",
          "name": "_value",
          "type": "uint256"
        }
      ],
      "name": "setConfirmationByOthersAfterSeconds",
      "outputs": [],
      "stateMutability": "nonpayable",
      "type": "function"
    },
    {
      "inputs": [
        {
          "internalType": "contract IIAssetManager[]",
          "name": "_assetManagers",
          "type": "address[]"
        },
        {
          "internalType": "uint256",
          "name": "_value",
          "type": "uint256"
        }
      ],
      "name": "setConfirmationByOthersRewardUSD5",
      "outputs": [],
      "stateMutability": "nonpayable",
      "type": "function"
    },
    {
      "inputs": [
        {
          "internalType": "contract IIAssetManager[]",
          "name": "_assetManagers",
          "type": "address[]"
        },
        {
          "internalType": "uint256",
          "name": "_value",
          "type": "uint256"
        }
      ],
      "name": "setEmergencyPauseDurationResetAfterSeconds",
      "outputs": [],
      "stateMutability": "nonpayable",
      "type": "function"
    },
    {
      "inputs": [
        {
          "internalType": "contract IIAssetManager[]",
          "name": "_assetManagers",
          "type": "address[]"
        },
        {
          "internalType": "address",
          "name": "_value",
          "type": "address"
        }
      ],
      "name": "setFdcVerification",
      "outputs": [],
      "stateMutability": "nonpayable",
      "type": "function"
    },
    {
      "inputs": [
        {
          "internalType": "contract IIAssetManager[]",
          "name": "_assetManagers",
          "type": "address[]"
        },
        {
          "internalType": "uint256[]",
          "name": "_paymentFactors",
          "type": "uint256[]"
        },
        {
          "internalType": "uint256[]",
          "name": "_vaultCollateralFactors",
          "type": "uint256[]"
        }
      ],
      "name": "setLiquidationPaymentFactors",
      "outputs": [],
      "stateMutability": "nonpayable",
      "type": "function"
    },
    {
      "inputs": [
        {
          "internalType": "contract IIAssetManager[]",
          "name": "_assetManagers",
          "type": "address[]"
        },
        {
          "internalType": "uint256",
          "name": "_value",
          "type": "uint256"
        }
      ],
      "name": "setLiquidationStepSeconds",
      "outputs": [],
      "stateMutability": "nonpayable",
      "type": "function"
    },
    {
      "inputs": [
        {
          "internalType": "contract IIAssetManager[]",
          "name": "_assetManagers",
          "type": "address[]"
        },
        {
          "internalType": "uint256",
          "name": "_value",
          "type": "uint256"
        }
      ],
      "name": "setLotSizeAmg",
      "outputs": [],
      "stateMutability": "nonpayable",
      "type": "function"
    },
    {
      "inputs": [
        {
          "internalType": "contract IIAssetManager[]",
          "name": "_assetManagers",
          "type": "address[]"
        },
        {
          "internalType": "uint256",
          "name": "_value",
          "type": "uint256"
        }
      ],
      "name": "setMaxEmergencyPauseDurationSeconds",
      "outputs": [],
      "stateMutability": "nonpayable",
      "type": "function"
    },
    {
      "inputs": [
        {
          "internalType": "contract IIAssetManager[]",
          "name": "_assetManagers",
          "type": "address[]"
        },
        {
          "internalType": "uint256",
          "name": "_value",
          "type": "uint256"
        }
      ],
      "name": "setMaxRedeemedTickets",
      "outputs": [],
      "stateMutability": "nonpayable",
      "type": "function"
    },
    {
      "inputs": [
        {
          "internalType": "contract IIAssetManager[]",
          "name": "_assetManagers",
          "type": "address[]"
        },
        {
          "internalType": "uint256",
          "name": "_value",
          "type": "uint256"
        }
      ],
      "name": "setMaxTrustedPriceAgeSeconds",
      "outputs": [],
      "stateMutability": "nonpayable",
      "type": "function"
    },
    {
      "inputs": [
        {
          "internalType": "contract IIAssetManager[]",
          "name": "_assetManagers",
          "type": "address[]"
        },
        {
          "internalType": "uint256",
          "name": "_value",
          "type": "uint256"
        }
      ],
      "name": "setMinUpdateRepeatTimeSeconds",
      "outputs": [],
      "stateMutability": "nonpayable",
      "type": "function"
    },
    {
      "inputs": [
        {
          "internalType": "contract IIAssetManager[]",
          "name": "_assetManagers",
          "type": "address[]"
        },
        {
          "internalType": "uint256",
          "name": "_value",
          "type": "uint256"
        }
      ],
      "name": "setMintingCapAmg",
      "outputs": [],
      "stateMutability": "nonpayable",
      "type": "function"
    },
    {
      "inputs": [
        {
          "internalType": "contract IIAssetManager[]",
          "name": "_assetManagers",
          "type": "address[]"
        },
        {
          "internalType": "uint256",
          "name": "_value",
          "type": "uint256"
        }
      ],
      "name": "setMintingPoolHoldingsRequiredBIPS",
      "outputs": [],
      "stateMutability": "nonpayable",
      "type": "function"
    },
    {
      "inputs": [
        {
          "internalType": "contract IIAssetManager[]",
          "name": "_assetManagers",
          "type": "address[]"
        },
        {
          "internalType": "uint256",
          "name": "_rewardVaultCollateralWei",
          "type": "uint256"
        },
        {
          "internalType": "uint256",
          "name": "_rewardBIPS",
          "type": "uint256"
        }
      ],
      "name": "setPaymentChallengeReward",
      "outputs": [],
      "stateMutability": "nonpayable",
      "type": "function"
    },
    {
      "inputs": [
        {
          "internalType": "contract IIAssetManager[]",
          "name": "_assetManagers",
          "type": "address[]"
        },
        {
          "internalType": "uint256",
          "name": "_value",
          "type": "uint256"
        }
      ],
      "name": "setPoolExitCRChangeTimelockSeconds",
      "outputs": [],
      "stateMutability": "nonpayable",
      "type": "function"
    },
    {
      "inputs": [
        {
          "internalType": "contract IIAssetManager[]",
          "name": "_assetManagers",
          "type": "address[]"
        },
        {
          "internalType": "address",
          "name": "_value",
          "type": "address"
        }
      ],
      "name": "setPriceReader",
      "outputs": [],
      "stateMutability": "nonpayable",
      "type": "function"
    },
    {
      "inputs": [
        {
          "internalType": "contract IIAssetManager[]",
          "name": "_assetManagers",
          "type": "address[]"
        },
        {
          "internalType": "uint256",
          "name": "_value",
          "type": "uint256"
        }
      ],
      "name": "setRedemptionDefaultFactorVaultCollateralBIPS",
      "outputs": [],
      "stateMutability": "nonpayable",
      "type": "function"
    },
    {
      "inputs": [
        {
          "internalType": "contract IIAssetManager[]",
          "name": "_assetManagers",
          "type": "address[]"
        },
        {
          "internalType": "uint256",
          "name": "_value",
          "type": "uint256"
        }
      ],
      "name": "setRedemptionFeeBips",
      "outputs": [],
      "stateMutability": "nonpayable",
      "type": "function"
    },
    {
      "inputs": [
        {
          "internalType": "contract IIAssetManager[]",
          "name": "_assetManagers",
          "type": "address[]"
        },
        {
          "internalType": "uint256",
          "name": "_value",
          "type": "uint256"
        }
      ],
      "name": "setRedemptionPaymentExtensionSeconds",
      "outputs": [],
      "stateMutability": "nonpayable",
      "type": "function"
    },
    {
      "inputs": [
        {
          "internalType": "contract IIAssetManager[]",
          "name": "_assetManagers",
          "type": "address[]"
        },
        {
          "internalType": "uint256",
          "name": "_underlyingBlocks",
          "type": "uint256"
        },
        {
          "internalType": "uint256",
          "name": "_underlyingSeconds",
          "type": "uint256"
        }
      ],
      "name": "setTimeForPayment",
      "outputs": [],
      "stateMutability": "nonpayable",
      "type": "function"
    },
    {
      "inputs": [
        {
          "internalType": "contract IIAssetManager[]",
          "name": "_assetManagers",
          "type": "address[]"
        },
        {
          "internalType": "uint256",
          "name": "_value",
          "type": "uint256"
        }
      ],
      "name": "setTokenInvalidationTimeMinSeconds",
      "outputs": [],
      "stateMutability": "nonpayable",
      "type": "function"
    },
    {
      "inputs": [
        {
          "internalType": "contract IIAssetManager[]",
          "name": "_assetManagers",
          "type": "address[]"
        },
        {
          "internalType": "uint256",
          "name": "_value",
          "type": "uint256"
        }
      ],
      "name": "setVaultCollateralBuyForFlareFactorBIPS",
      "outputs": [],
      "stateMutability": "nonpayable",
      "type": "function"
    },
    {
      "inputs": [
        {
          "internalType": "contract IIAssetManager[]",
          "name": "_assetManagers",
          "type": "address[]"
        },
        {
          "internalType": "uint256",
          "name": "_value",
          "type": "uint256"
        }
      ],
      "name": "setWithdrawalOrDestroyWaitMinSeconds",
      "outputs": [],
      "stateMutability": "nonpayable",
      "type": "function"
    },
    {
      "inputs": [
        {
          "internalType": "bytes4",
          "name": "_interfaceId",
          "type": "bytes4"
        }
      ],
      "name": "supportsInterface",
      "outputs": [
        {
          "internalType": "bool",
          "name": "",
          "type": "bool"
        }
      ],
      "stateMutability": "pure",
      "type": "function"
    },
    {
      "inputs": [],
      "name": "switchToProductionMode",
      "outputs": [],
      "stateMutability": "nonpayable",
      "type": "function"
    },
    {
      "inputs": [
        {
          "internalType": "contract IIAssetManager[]",
          "name": "_assetManagers",
          "type": "address[]"
        }
      ],
      "name": "unpauseMinting",
      "outputs": [],
      "stateMutability": "nonpayable",
      "type": "function"
    },
    {
      "inputs": [
        {
          "internalType": "bytes32[]",
          "name": "_contractNameHashes",
          "type": "bytes32[]"
        },
        {
          "internalType": "address[]",
          "name": "_contractAddresses",
          "type": "address[]"
        }
      ],
      "name": "updateContractAddresses",
      "outputs": [],
      "stateMutability": "nonpayable",
      "type": "function"
    },
    {
      "inputs": [
        {
          "internalType": "contract IIAssetManager[]",
          "name": "_assetManagers",
          "type": "address[]"
        }
      ],
      "name": "updateContracts",
      "outputs": [],
      "stateMutability": "nonpayable",
      "type": "function"
    },
    {
      "inputs": [
        {
          "internalType": "contract IIAssetManager[]",
          "name": "_assetManagers",
          "type": "address[]"
        },
        {
          "internalType": "uint256",
          "name": "_start",
          "type": "uint256"
        },
        {
          "internalType": "uint256",
          "name": "_end",
          "type": "uint256"
        }
      ],
      "name": "upgradeAgentVaultsAndPools",
      "outputs": [],
      "stateMutability": "nonpayable",
      "type": "function"
    },
    {
      "inputs": [
        {
          "internalType": "contract IIAssetManager[]",
          "name": "_assetManagers",
          "type": "address[]"
        },
        {
          "internalType": "address",
          "name": "_implementation",
          "type": "address"
        },
        {
          "internalType": "bytes",
          "name": "_callData",
          "type": "bytes"
        }
      ],
      "name": "upgradeFAssetImplementation",
      "outputs": [],
      "stateMutability": "nonpayable",
      "type": "function"
    },
    {
      "inputs": [
        {
          "internalType": "address",
          "name": "newImplementation",
          "type": "address"
        }
      ],
      "name": "upgradeTo",
      "outputs": [],
      "stateMutability": "nonpayable",
      "type": "function"
    },
    {
      "inputs": [
        {
          "internalType": "address",
          "name": "newImplementation",
          "type": "address"
        },
        {
          "internalType": "bytes",
          "name": "data",
          "type": "bytes"
        }
      ],
      "name": "upgradeToAndCall",
      "outputs": [],
      "stateMutability": "payable",
      "type": "function"
    }
  ],
  "bytecode": "0x60a06040523060805234801561001457600080fd5b50600061002361111180610051565b61004b817f714f205b2abd25bef1d06a1af944e38c113fe6160375c4e1d6d5cf28848e771955565b50610160565b7f2aa47ee5db910f3b2a06970c443249cc77dbd9f96100cfebc1775ab7fb1d18248054600160a01b900460ff161561009c5760405163b2f0162160e01b815260040160405180910390fd5b6001600160a01b0383166100c3576040516334ab92fb60e11b815260040160405180910390fd5b6001600160a01b0382166100ea576040516334ab92fb60e11b815260040160405180910390fd5b80546001600160a01b038481166001600160a81b031990921691909117600160a01b1782556001820180549184166001600160a01b0319909216821790556040519081527f9789733827840833afc031fb2ef9ab6894271f77bad2085687cf4ae5c7bee4db9060200160405180910390a1505050565b608051613eed610197600039600081816113c40152818161140d0152818161154a0152818161158a01526116130152613eed6000f3fe6080604052600436106103fa5760003560e01c8063758f07f211610213578063be46c73d11610123578063dede95f1116100ab578063e789e7d41161007a578063e789e7d414610c32578063eddaf29314610c52578063ef098e5514610c72578063efe058ef14610c92578063f5a9838314610cb257600080fd5b8063dede95f114610ba6578063e17f212e14610bc6578063e49ee36d14610bf2578063e77ebcab14610c1257600080fd5b8063d0c391b5116100f2578063d0c391b514610b06578063d13e499d14610b26578063d285a63614610b46578063d48b75f614610b66578063debfda3014610b8657600080fd5b8063be46c73d14610a86578063c0c53b8b14610aa6578063c6c257cb14610ac6578063cf2fdaa414610ae657600080fd5b8063a6a24e25116101a6578063b00c0b7611610175578063b00c0b76146109e4578063b4c0a33314610a04578063b577fc7614610a24578063b87b82f014610a44578063bb6f41b314610a6657600080fd5b8063a6a24e2514610964578063a82ee3d514610984578063aeb41555146109a4578063af823a27146109c457600080fd5b806397d2fcc6116101e257806397d2fcc6146108e4578063987ea899146109045780639e1508a114610924578063a391dd9c1461094457600080fd5b8063758f07f21461084c578063763d1a161461086c5780637ad62f511461088c5780637f281299146108c457600080fd5b8063479566061161030e5780635aa6e675116102a157806362354e031161027057806362354e03146107b75780636a9f8ec8146107cc5780636b76ab0e146107ec5780636f1f1fc01461080c578063704026261461082c57600080fd5b80635aa6e675146107425780635b743b01146107575780635cce89ea14610777578063617637aa1461079757600080fd5b806351241060116102dd57806351241060146106a95780635267a15d146106c957806352d1902d146106ff578063556d51181461072257600080fd5b806347956606146106365780634944d22d146106565780634a79bc9f146106765780634f1ef2861461069657600080fd5b806326a9055b116103915780632d5846da116103605780632d5846da1461059657806334dc3932146105b6578063358bca77146105d65780633659cfe6146105f657806340b9d6b01461061657600080fd5b806326a9055b1461051657806326df3d0c146105365780632aedabe4146105565780632af713fc1461057657600080fd5b806316fc2f6d116103cd57806316fc2f6d14610496578063171898fe146104b657806320756671146104d657806320c5f99d146104f657600080fd5b80630117d987146103ff57806301ffc9a7146104215780630207aff214610456578063115a6e1514610476575b600080fd5b34801561040b57600080fd5b5061041f61041a3660046132b4565b610cc7565b005b34801561042d57600080fd5b5061044161043c3660046132f8565b610cff565b60405190151581526020015b60405180910390f35b34801561046257600080fd5b5061041f6104713660046132b4565b610da2565b34801561048257600080fd5b5061041f6104913660046132b4565b610dbc565b3480156104a257600080fd5b5061041f6104b1366004613322565b610dd6565b3480156104c257600080fd5b5061041f6104d1366004613394565b610e8a565b3480156104e257600080fd5b5061041f6104f13660046132b4565b610e9d565b34801561050257600080fd5b5061041f610511366004613322565b610ec4565b34801561052257600080fd5b5061041f6105313660046132b4565b611036565b34801561054257600080fd5b5061041f6105513660046132b4565b611050565b34801561056257600080fd5b5061041f6105713660046132b4565b6110ee565b34801561058257600080fd5b5061041f6105913660046133b1565b611108565b3480156105a257600080fd5b5061041f6105b13660046132b4565b61112f565b3480156105c257600080fd5b5061041f6105d13660046132b4565b611149565b3480156105e257600080fd5b5061041f6105f1366004613394565b611163565b34801561060257600080fd5b5061041f610611366004613394565b6113a5565b34801561062257600080fd5b5061041f6106313660046132b4565b61147f565b34801561064257600080fd5b5061041f6106513660046132b4565b611499565b34801561066257600080fd5b5061041f610671366004613402565b6114b3565b34801561068257600080fd5b5061041f6106913660046133b1565b611504565b61041f6106a43660046134be565b61152b565b3480156106b557600080fd5b5061041f6106c43660046132b4565b6115ec565b3480156106d557600080fd5b50600080516020613e31833981519152545b6040516001600160a01b03909116815260200161044d565b34801561070b57600080fd5b50610714611606565b60405190815260200161044d565b34801561072e57600080fd5b5061041f61073d3660046132b4565b6116b9565b34801561074e57600080fd5b506106e76116d3565b34801561076357600080fd5b5061041f61077236600461352c565b61177c565b34801561078357600080fd5b5061041f6107923660046132b4565b6117f4565b3480156107a357600080fd5b5061041f6107b23660046132b4565b61180e565b3480156107c357600080fd5b506106e7611828565b3480156107d857600080fd5b5061041f6107e73660046132b4565b611849565b3480156107f857600080fd5b5061041f61080736600461359d565b611863565b34801561081857600080fd5b5061041f6108273660046132b4565b6118d1565b34801561083857600080fd5b5061041f610847366004613602565b6118f8565b34801561085857600080fd5b5061041f6108673660046132b4565b611944565b34801561087857600080fd5b5061041f6108873660046136c4565b61195e565b34801561089857600080fd5b506104416108a7366004613394565b6001600160a01b0316600090815260016020526040902054151590565b3480156108d057600080fd5b5061041f6108df3660046132b4565b6119c6565b3480156108f057600080fd5b5061041f6108ff3660046133b1565b6119e0565b34801561091057600080fd5b5061041f61091f366004613394565b611a07565b34801561093057600080fd5b5061041f61093f3660046132b4565b611b5b565b34801561095057600080fd5b5061041f61095f366004613402565b611b82565b34801561097057600080fd5b5061041f61097f3660046133b1565b611be0565b34801561099057600080fd5b5061041f61099f3660046132b4565b611c07565b3480156109b057600080fd5b5061041f6109bf3660046132b4565b611c21565b3480156109d057600080fd5b5061041f6109df3660046133b1565b611c3b565b3480156109f057600080fd5b5061041f6109ff366004613755565b611c62565b348015610a1057600080fd5b5061041f610a1f36600461380b565b611cf3565b348015610a3057600080fd5b506000546106e7906001600160a01b031681565b348015610a5057600080fd5b50610a59611d42565b60405161044d9190613872565b348015610a7257600080fd5b5061041f610a813660046133b1565b611dff565b348015610a9257600080fd5b5061041f610aa13660046132b4565b611e26565b348015610ab257600080fd5b5061041f610ac13660046138be565b611e40565b348015610ad257600080fd5b5061041f610ae1366004613394565b611e60565b348015610af257600080fd5b5061041f610b013660046132b4565b611e73565b348015610b1257600080fd5b5061041f610b213660046132b4565b611f0c565b348015610b3257600080fd5b5061041f610b4136600461359d565b611f33565b348015610b5257600080fd5b5061041f610b613660046132b4565b612189565b348015610b7257600080fd5b5061041f610b813660046133b1565b6121b0565b348015610b9257600080fd5b50610441610ba1366004613394565b6121d7565b348015610bb257600080fd5b5061041f610bc13660046132b4565b612271565b348015610bd257600080fd5b50600080516020613e9883398151915254600160a81b900460ff16610441565b348015610bfe57600080fd5b5061041f610c0d366004613909565b61228b565b348015610c1e57600080fd5b5061041f610c2d3660046132b4565b6122fb565b348015610c3e57600080fd5b5061041f610c4d36600461393d565b612322565b348015610c5e57600080fd5b5061041f610c6d366004613402565b61237d565b348015610c7e57600080fd5b5061041f610c8d3660046133b1565b6123ce565b348015610c9e57600080fd5b5061041f610cad36600461359d565b6123e8565b348015610cbe57600080fd5b5061041f612456565b610ccf6124fb565b15610cf257610cdc612531565b610cee8263050f443960e01b83612575565b5050565b610cee60003660006125c4565b60006001600160e01b031982166301ffc9a760e01b1480610d3057506001600160e01b03198216635267a15d60e01b145b80610d4b57506001600160e01b0319821663580605bb60e11b145b80610d6657506001600160e01b0319821663c2adada160e01b145b80610d8157506001600160e01b0319821663ed6a8f3960e01b145b80610d9c57506001600160e01b0319821663c4c3061b60e01b145b92915050565b610daa6126db565b610cee8263d074339560e01b83612575565b610dc46126db565b610cee826302c06abf60e41b83612575565b610dde6126db565b604051600080516020613e9883398151915290600090610e0190859085906139ac565b6040518091039020905081600201600082815260200190815260200160002054600003610e415760405163023679b760e21b815260040160405180910390fd5b6040518181527f69b058d6225c01c1f2a25801ca5b05705fa2e9118e93d518390ba804398c87b19060200160405180910390a16000908152600290910160205260408120555050565b610e926126db565b610cee600382612716565b610ea56124fb565b15610cf257610eb2612531565b610cee826315ebe57360e31b83612575565b600080516020613e98833981519152610edc336121d7565b610ef957604051633fdb5f0160e11b815260040160405180910390fd5b60008383604051610f0b9291906139ac565b60408051918290039091206000818152600285016020529182205490925090819003610f4a5760405163023679b760e21b815260040160405180910390fd5b80421015610f6b5760405163309272e160e11b815260040160405180910390fd5b6000828152600284016020526040808220829055845460ff60b01b1916600160b01b178555513090610fa090889088906139ac565b6000604051808303816000865af19150503d8060008114610fdd576040519150601f19603f3d011682016040523d82523d6000602084013e610fe2565b606091505b5050845460ff60b01b191685556040518481529091507fec1225e5a8a8acb91e03ce648c683c74f5d152a775b9715980999441d714c44f9060200160405180910390a161102e8161272b565b505050505050565b61103e6126db565b610cee82633db7d3b160e11b83612575565b600061105a6116d3565b6001600160a01b0316336001600160a01b031614905080806110825750611082600333612748565b61109f5760405163ad0e0a7960e01b815260040160405180910390fd5b6040518115156024820152604481018390526110e990849060640160408051601f198184030181529190526020810180516001600160e01b0316634d4071c160e01b17905261276a565b505050565b6110f66126db565b610cee82632b4572c760e11b83612575565b6111106124fb565b15610cf25761111d612531565b610cee8263be06971960e01b836127ee565b6111376126db565b610cee826337592f4160e21b83612575565b6111516126db565b610cee82639db27f5560e01b83612575565b61116b6124fb565b1561139557611178612531565b6001600160a01b0381166000908152600160205260408120549081900361119d575050565b60006111aa6001836139d2565b6002549091506000906111bf906001906139d2565b90508082101561127957600281815481106111dc576111dc6139e5565b600091825260209091200154600280546001600160a01b039092169184908110611208576112086139e5565b600091825260209091200180546001600160a01b0319166001600160a01b039290921691909117905561123c8260016139fb565b6001600060028581548110611253576112536139e5565b60009182526020808320909101546001600160a01b031683528201929092526040019020555b600280548061128a5761128a613a0e565b60008281526020808220830160001990810180546001600160a01b03191690559092019092556001600160a01b03861680835260018252604080842093909355825163f0c0b72560e01b815292513093919263f0c0b72592600480820193918290030181865afa158015611302573d6000803e3d6000fd5b505050506040513d601f19601f820116820180604052508101906113269190613a24565b6001600160a01b03160361138f5760405163b928b53360e01b8152600060048201526001600160a01b0385169063b928b53390602401600060405180830381600087803b15801561137657600080fd5b505af115801561138a573d6000803e3d6000fd5b505050505b50505050565b6113a260003660006125c4565b50565b6113ad6124fb565b15611395576113ba612531565b6001600160a01b037f000000000000000000000000000000000000000000000000000000000000000016300361140b5760405162461bcd60e51b815260040161140290613a41565b60405180910390fd5b7f00000000000000000000000000000000000000000000000000000000000000006001600160a01b031661143d612810565b6001600160a01b0316146114635760405162461bcd60e51b815260040161140290613a8d565b604080516000808252602082019092526113a291839190612826565b6114876126db565b610cee82632a92649160e01b83612575565b6114a16126db565b610cee826323c0a60360e11b83612575565b6114bb6126db565b60405160248101839052604481018290526110e990849060640160408051601f198184030181529190526020810180516001600160e01b0316633128590960e01b17905261276a565b61150c6124fb565b15610cf257611519612531565b610cee826309eb52f160e11b836127ee565b6115336124fb565b15610cf257611540612531565b6001600160a01b037f00000000000000000000000000000000000000000000000000000000000000001630036115885760405162461bcd60e51b815260040161140290613a41565b7f00000000000000000000000000000000000000000000000000000000000000006001600160a01b03166115ba612810565b6001600160a01b0316146115e05760405162461bcd60e51b815260040161140290613a8d565b610cee82826001612826565b6115f46126db565b610cee82632d62e08f60e11b83612575565b6000306001600160a01b037f000000000000000000000000000000000000000000000000000000000000000016146116a65760405162461bcd60e51b815260206004820152603860248201527f555550535570677261646561626c653a206d757374206e6f742062652063616c60448201527f6c6564207468726f7567682064656c656761746563616c6c00000000000000006064820152608401611402565b50600080516020613e5183398151915290565b6116c16126db565b610cee826340973e9760e11b83612575565b600080516020613e98833981519152805460009190600160a81b900460ff166117095760018101546001600160a01b0316611776565b805460408051631cc9492560e21b815290516001600160a01b03909216916373252494916004808201926020929091908290030181865afa158015611752573d6000803e3d6000fd5b505050506040513d601f19601f820116820180604052508101906117769190613a24565b91505090565b6117846124fb565b156117e057611791612531565b6117db85858585856040516024016117ac9493929190613afb565b60408051601f198184030181529190526020810180516001600160e01b031663b18e8e6760e01b17905261276a565b6117ed565b6117ed60003660006125c4565b5050505050565b6117fc6126db565b610cee8263ad74c72d60e01b83612575565b6118166126db565b610cee82636ad6fb4f60e01b83612575565b6000600080516020613e988339815191525b546001600160a01b0316919050565b6118516126db565b610cee82633b1d0c2960e21b83612575565b61186b6126db565b610cee828280806020026020016040519081016040528093929190818152602001838360200280828437600092019190915250506040805160048152602481019091526020810180516001600160e01b0316636d47df9560e11b179052915061276a9050565b6118d96124fb565b15610cf2576118e6612531565b610cee826336f9886b60e11b83612575565b6119006126db565b610cee82826040516024016119159190613bbb565b60408051601f198184030181529190526020810180516001600160e01b0316630f8d62c960e01b17905261276a565b61194c6126db565b610cee8263b2e6a2b560e01b83612575565b6119666124fb565b156119b957611973612531565b6110e983838360405160240161198a929190613ccd565b60408051601f198184030181529190526020810180516001600160e01b0316633b145b4960e21b17905261276a565b6110e960003660006125c4565b6119ce6126db565b610cee82634f0c992160e11b83612575565b6119e86124fb565b15610cf2576119f5612531565b610cee8263e443147f60e01b836127ee565b611a0f6124fb565b1561139557611a1c612531565b6001600160a01b03811660009081526001602052604081205490036113a25760028054600180820183557f405787fa12a823e0f2b7631cc41b3ba8828b3321ca811111fa75cd3aa3bb5ace90910180546001600160a01b0319166001600160a01b03851690811790915591546000838152602092835260409081902091909155805163f0c0b72560e01b8152905130939263f0c0b72592600480820193918290030181865afa158015611ad3573d6000803e3d6000fd5b505050506040513d601f19601f82011682018060405250810190611af79190613a24565b6001600160a01b0316036113a25760405163b928b53360e01b8152600160048201526001600160a01b0382169063b928b53390602401600060405180830381600087803b158015611b4757600080fd5b505af11580156117ed573d6000803e3d6000fd5b611b636124fb565b15610cf257611b70612531565b610cee8263d57d25c560e01b83612575565b611b8a6124fb565b156119b957611b97612531565b60405160248101839052604481018290526110e990849060640160408051601f198184030181529190526020810180516001600160e01b03166334dc4f3f60e11b17905261276a565b611be86124fb565b15610cf257611bf5612531565b610cee82636f83754b60e11b836127ee565b611c0f6126db565b610cee8263dfc5941760e01b83612575565b611c296126db565b610cee826313bcd55560e11b83612575565b611c436124fb565b15610cf257611c50612531565b610cee82637f4fcaa960e01b836127ee565b600080516020613e31833981519152546001600160a01b0316336001600160a01b031614611ca357604051633d8aad3760e11b815260040160405180910390fd5b611ce9611cd783836040518060400160405280600e81526020016d20b2323932b9b9aab83230ba32b960911b815250612991565b600080516020613e3183398151915255565b610cee8282612a44565b611cfb6126db565b61138f84848484604051602401611d1493929190613cf2565b60408051601f198184030181529190526020810180516001600160e01b03166298ccf760e51b17905261276a565b600254606090806001600160401b03811115611d6057611d606131c0565b604051908082528060200260200182016040528015611d89578160200160208202803683370190505b50915060005b81811015611dfa5760028181548110611daa57611daa6139e5565b9060005260206000200160009054906101000a90046001600160a01b0316838281518110611dda57611dda6139e5565b6001600160a01b0390921660209283029190910190910152600101611d8f565b505090565b611e076124fb565b15610cf257611e14612531565b610cee82636dd3d58960e01b836127ee565b611e2e6126db565b610cee8263cfcb991d60e01b83612575565b611e4a8383612b47565b6110e981600080516020613e3183398151915255565b611e686126db565b610cee600382612c44565b6000611e7d6116d3565b6001600160a01b0316336001600160a01b03161490508080611ea55750611ea5600333612748565b611ec25760405163ad0e0a7960e01b815260040160405180910390fd5b6040518115156024820152604481018390526110e990849060640160408051601f198184030181529190526020810180516001600160e01b03166304e48a6d60e51b17905261276a565b611f146124fb565b15610cf257611f21612531565b610cee82636b38c64360e01b83612575565b6000611f4b600080516020613e318339815191525490565b604051630110ceef60e21b815260206004820152600e60248201526d20b2323932b9b9aab83230ba32b960911b60448201529091506000906001600160a01b038316906304433bbc90606401602060405180830381865afa158015611fb4573d6000803e3d6000fd5b505050506040513d601f19601f82011682018060405250810190611fd89190613a24565b604051630110ceef60e21b815260206004820152601660248201527520b9b9b2ba26b0b730b3b2b921b7b73a3937b63632b960511b60448201529091506000906001600160a01b038416906304433bbc90606401602060405180830381865afa158015612049573d6000803e3d6000fd5b505050506040513d601f19601f8201168201806040525081019061206d9190613a24565b90506000836001600160a01b03166304433bbc6040518163ffffffff1660e01b81526004016120b49060208082526004908201526315d3985d60e21b604082015260600190565b602060405180830381865afa1580156120d1573d6000803e3d6000fd5b505050506040513d601f19601f820116820180604052508101906120f59190613a24565b90506001600160a01b0383161580159061211757506001600160a01b03821615155b801561212b57506001600160a01b03811615155b61214857604051639fabe1c160e01b815260040160405180910390fd5b61102e868680806020026020016040519081016040528093929190818152602001838360200280828437600092019190915250879250869150859050612c59565b6121916124fb565b15610cf25761219e612531565b610cee826346ca288560e11b83612575565b6121b86124fb565b15610cf2576121c5612531565b610cee8263cda4c54160e01b836127ee565b600080516020613e98833981519152805460009190600160a01b900460ff16801561226a57508054604051630debfda360e41b81526001600160a01b0385811660048301529091169063debfda3090602401602060405180830381865afa158015612246573d6000803e3d6000fd5b505050506040513d601f19601f8201168201806040525081019061226a9190613d1a565b9392505050565b6122796126db565b610cee8263e68f3fbf60e01b83612575565b6122936126db565b6040805160048152602481019091526020810180516001600160e01b031663460831c360e01b1790526122c790829061276a565b6040805160048152602481019091526020810180516001600160e01b0316630249996560e61b1790526113a290829061276a565b6123036124fb565b15610cf257612310612531565b610cee82637800a11f60e01b83612575565b61232a6124fb565b156119b957612337612531565b6110e983838360405160240161234e929190613d87565b60408051601f198184030181529190526020810180516001600160e01b0316636a59860960e01b17905261276a565b6123856126db565b60405160248101839052604481018290526110e990849060640160408051601f198184030181529190526020810180516001600160e01b0316633479125d60e11b17905261276a565b6123d66126db565b610cee8263f6a494af60e01b836127ee565b6123f06126db565b610cee828280806020026020016040519081016040528093929190818152602001838360200280828437600092019190915250506040805160048152602481019091526020810180516001600160e01b0316635710019160e11b179052915061276a9050565b61245e6126db565b600080516020613e988339815191528054600160a81b900460ff1615612497576040516339511f6160e11b815260040160405180910390fd5b6001810180546001600160a01b03191690558054600160a81b60ff60a81b1982161782556040516001600160a01b0390911681527f83af113638b5422f9e977cebc0aaf0eaf2188eb9a8baae7f9d46c42b33a1560c9060200160405180910390a150565b600080516020613e98833981519152805460009190600160b01b900460ff1680611776575054600160a81b900460ff1615919050565b600080516020613e988339815191528054600160b01b900460ff161561256d5733301461256057612560613dab565b805460ff60b01b19169055565b6113a26126db565b6110e983838360405160240161258d91815260200190565b60408051601f198184030181529190526020810180516001600160e01b03166001600160e01b03199093169290921790915261276a565b600080516020613e988339815191526125db6126db565b600084846040516125ed9291906139ac565b604080519182900382208454636221a54b60e01b845291519093506000926001600160a01b0390921691636221a54b9160048083019260209291908290030181865afa158015612641573d6000803e3d6000fd5b505050506040513d601f19601f820116820180604052508101906126659190613dc1565b9050838110156126725750825b600061267e82426139fb565b600084815260028601602052604090819020829055519091507f8c02104dfc280f713854f25297de671710c544c58de69dbde8fb66974ce1ab9e906126ca908990899087908690613dda565b60405180910390a150505050505050565b6126e36116d3565b6001600160a01b0316336001600160a01b031614612714576040516354348f0360e01b815260040160405180910390fd5b565b600061226a836001600160a01b038416612d1c565b3d604051818101604052816000823e8215612744578181f35b8181fd5b6001600160a01b0381166000908152600183016020526040812054151561226a565b60005b82518110156110e957600083828151811061278a5761278a6139e5565b6020026020010151905060016000826001600160a01b03166001600160a01b03168152602001908152602001600020546000036127da57604051635894060560e01b815260040160405180910390fd5b6127e48184612e0f565b505060010161276d565b6040516001600160a01b03821660248201526110e9908490849060440161258d565b6000600080516020613e5183398151915261183a565b7f4910fdfa16fed3260ed0e7147f7cc6da11a60208b5b9406d12a635614ffd91435460ff1615612859576110e983612e53565b826001600160a01b03166352d1902d6040518163ffffffff1660e01b8152600401602060405180830381865afa9250505080156128b3575060408051601f3d908101601f191682019092526128b091810190613dc1565b60015b6129165760405162461bcd60e51b815260206004820152602e60248201527f45524331393637557067726164653a206e657720696d706c656d656e7461746960448201526d6f6e206973206e6f74205555505360901b6064820152608401611402565b600080516020613e5183398151915281146129855760405162461bcd60e51b815260206004820152602960248201527f45524331393637557067726164653a20756e737570706f727465642070726f786044820152681a58589b195555525160ba1b6064820152608401611402565b506110e9838383612eef565b600080826040516020016129a59190613e01565b6040516020818303038152906040528051906020012090506000805b8651811015612a13578681815181106129dc576129dc6139e5565b60200260200101518303612a0b578581815181106129fc576129fc6139e5565b60200260200101519150612a13565b6001016129c1565b506001600160a01b038116612a3b5760405163e6ee175560e01b815260040160405180910390fd5b95945050505050565b6000612a7783836040518060400160405280600e81526020016d20b2323932b9b9aab83230ba32b960911b815250612991565b90506000612ab484846040518060400160405280601681526020017520b9b9b2ba26b0b730b3b2b921b7b73a3937b63632b960511b815250612991565b90506000612adf85856040518060400160405280600481526020016315d3985d60e21b815250612991565b90506117ed6002805480602002602001604051908101604052809291908181526020018280548015612b3a57602002820191906000526020600020905b81546001600160a01b03168152600190910190602001808311612b1c575b5050505050848484612c59565b600080516020613e988339815191528054600160a01b900460ff1615612b805760405163b2f0162160e01b815260040160405180910390fd5b6001600160a01b038316612ba7576040516334ab92fb60e11b815260040160405180910390fd5b6001600160a01b038216612bce576040516334ab92fb60e11b815260040160405180910390fd5b80546001600160a01b038481166001600160a81b031990921691909117600160a01b1782556001820180549184166001600160a01b0319909216821790556040519081527f9789733827840833afc031fb2ef9ab6894271f77bad2085687cf4ae5c7bee4db9060200160405180910390a1505050565b600061226a836001600160a01b038416612f14565b600080516020613e31833981519152546001600160a01b0316836001600160a01b031614612c9757612c9783600080516020613e3183398151915255565b6040516001600160a01b03808416602483015282166044820152612ce990859060640160408051601f198184030181529190526020810180516001600160e01b0316636075765d60e01b17905261276a565b6001600160a01b038216301461138f57600080546001600160a01b0384166001600160a01b031990911617905550505050565b60008181526001830160205260408120548015612e05576000612d406001836139d2565b8554909150600090612d54906001906139d2565b9050818114612db9576000866000018281548110612d7457612d746139e5565b9060005260206000200154905080876000018481548110612d9757612d976139e5565b6000918252602080832090910192909255918252600188019052604090208390555b8554869080612dca57612dca613a0e565b600190038181906000526020600020016000905590558560010160008681526020019081526020016000206000905560019350505050610d9c565b6000915050610d9c565b606061226a838360006040518060400160405280601e81526020017f416464726573733a206c6f772d6c6576656c2063616c6c206661696c65640000815250612f63565b6001600160a01b0381163b612ec05760405162461bcd60e51b815260206004820152602d60248201527f455243313936373a206e657720696d706c656d656e746174696f6e206973206e60448201526c1bdd08184818dbdb9d1c9858dd609a1b6064820152608401611402565b600080516020613e5183398151915280546001600160a01b0319166001600160a01b0392909216919091179055565b612ef883613040565b600082511180612f055750805b156110e95761138f8383613080565b6000818152600183016020526040812054612f5b57508154600181810184556000848152602080822090930184905584548482528286019093526040902091909155610d9c565b506000610d9c565b606082471015612fc45760405162461bcd60e51b815260206004820152602660248201527f416464726573733a20696e73756666696369656e742062616c616e636520666f6044820152651c8818d85b1b60d21b6064820152608401611402565b600080866001600160a01b03168587604051612fe09190613e14565b60006040518083038185875af1925050503d806000811461301d576040519150601f19603f3d011682016040523d82523d6000602084013e613022565b606091505b5091509150613033878383876130a5565b925050505b949350505050565b61304981612e53565b6040516001600160a01b038216907fbc7cd75a20ee27fd9adebab32041f755214dbc6bffa90cc0225b39da2e5c2d3b90600090a250565b606061226a8383604051806060016040528060278152602001613e716027913961311e565b6060831561311457825160000361310d576001600160a01b0385163b61310d5760405162461bcd60e51b815260206004820152601d60248201527f416464726573733a2063616c6c20746f206e6f6e2d636f6e74726163740000006044820152606401611402565b5081613038565b6130388383613196565b6060600080856001600160a01b03168560405161313b9190613e14565b600060405180830381855af49150503d8060008114613176576040519150601f19603f3d011682016040523d82523d6000602084013e61317b565b606091505b509150915061318c868383876130a5565b9695505050505050565b8151156131a65781518083602001fd5b8060405162461bcd60e51b81526004016114029190613e01565b634e487b7160e01b600052604160045260246000fd5b604051601f8201601f191681016001600160401b03811182821017156131fe576131fe6131c0565b604052919050565b60006001600160401b0382111561321f5761321f6131c0565b5060051b60200190565b6001600160a01b03811681146113a257600080fd5b600082601f83011261324f57600080fd5b813561326261325d82613206565b6131d6565b8082825260208201915060208360051b86010192508583111561328457600080fd5b602085015b838110156132aa57803561329c81613229565b835260209283019201613289565b5095945050505050565b600080604083850312156132c757600080fd5b82356001600160401b038111156132dd57600080fd5b6132e98582860161323e565b95602094909401359450505050565b60006020828403121561330a57600080fd5b81356001600160e01b03198116811461226a57600080fd5b6000806020838503121561333557600080fd5b82356001600160401b0381111561334b57600080fd5b8301601f8101851361335c57600080fd5b80356001600160401b0381111561337257600080fd5b85602082840101111561338457600080fd5b6020919091019590945092505050565b6000602082840312156133a657600080fd5b813561226a81613229565b600080604083850312156133c457600080fd5b82356001600160401b038111156133da57600080fd5b6133e68582860161323e565b92505060208301356133f781613229565b809150509250929050565b60008060006060848603121561341757600080fd5b83356001600160401b0381111561342d57600080fd5b6134398682870161323e565b9660208601359650604090950135949350505050565b600082601f83011261346057600080fd5b81356001600160401b03811115613479576134796131c0565b61348c601f8201601f19166020016131d6565b8181528460208386010111156134a157600080fd5b816020850160208301376000918101602001919091529392505050565b600080604083850312156134d157600080fd5b82356134dc81613229565b915060208301356001600160401b038111156134f757600080fd5b6135038582860161344f565b9150509250929050565b80356003811061351c57600080fd5b919050565b803561351c81613229565b600080600080600060a0868803121561354457600080fd5b85356001600160401b0381111561355a57600080fd5b6135668882890161323e565b9550506135756020870161350d565b9350604086013561358581613229565b94979396509394606081013594506080013592915050565b600080602083850312156135b057600080fd5b82356001600160401b038111156135c657600080fd5b8301601f810185136135d757600080fd5b80356001600160401b038111156135ed57600080fd5b8560208260051b840101111561338457600080fd5b6000806040838503121561361557600080fd5b82356001600160401b0381111561362b57600080fd5b6136378582860161323e565b92505060208301356001600160401b0381111561365357600080fd5b830161012081860312156133f757600080fd5b600082601f83011261367757600080fd5b813561368561325d82613206565b8082825260208201915060208360051b8601019250858311156136a757600080fd5b602085015b838110156132aa5780358352602092830192016136ac565b6000806000606084860312156136d957600080fd5b83356001600160401b038111156136ef57600080fd5b6136fb8682870161323e565b93505060208401356001600160401b0381111561371757600080fd5b61372386828701613666565b92505060408401356001600160401b0381111561373f57600080fd5b61374b86828701613666565b9150509250925092565b6000806040838503121561376857600080fd5b82356001600160401b0381111561377e57600080fd5b8301601f8101851361378f57600080fd5b803561379d61325d82613206565b8082825260208201915060208360051b8501019250878311156137bf57600080fd5b6020840193505b828410156137e15783358252602093840193909101906137c6565b945050505060208301356001600160401b038111156137ff57600080fd5b6135038582860161323e565b6000806000806080858703121561382157600080fd5b84356001600160401b0381111561383757600080fd5b6138438782880161323e565b9450506138526020860161350d565b9250604085013561386281613229565b9396929550929360600135925050565b602080825282518282018190526000918401906040840190835b818110156138b35783516001600160a01b031683526020938401939092019160010161388c565b509095945050505050565b6000806000606084860312156138d357600080fd5b83356138de81613229565b925060208401356138ee81613229565b915060408401356138fe81613229565b809150509250925092565b60006020828403121561391b57600080fd5b81356001600160401b0381111561393157600080fd5b6130388482850161323e565b60008060006060848603121561395257600080fd5b83356001600160401b0381111561396857600080fd5b6139748682870161323e565b935050602084013561398581613229565b915060408401356001600160401b038111156139a057600080fd5b61374b8682870161344f565b8183823760009101908152919050565b634e487b7160e01b600052601160045260246000fd5b81810381811115610d9c57610d9c6139bc565b634e487b7160e01b600052603260045260246000fd5b80820180821115610d9c57610d9c6139bc565b634e487b7160e01b600052603160045260246000fd5b600060208284031215613a3657600080fd5b815161226a81613229565b6020808252602c908201527f46756e6374696f6e206d7573742062652063616c6c6564207468726f7567682060408201526b19195b1959d85d1958d85b1b60a21b606082015260800190565b6020808252602c908201527f46756e6374696f6e206d7573742062652063616c6c6564207468726f7567682060408201526b6163746976652070726f787960a01b606082015260800190565b60038110613af757634e487b7160e01b600052602160045260246000fd5b9052565b60808101613b098287613ad9565b6001600160a01b039490941660208201526040810192909252606090910152919050565b80151581146113a257600080fd5b803561351c81613b2d565b6000808335601e19843603018112613b5d57600080fd5b83016020810192503590506001600160401b03811115613b7c57600080fd5b803603821315613b8b57600080fd5b9250929050565b81835281816020850137506000828201602090810191909152601f909101601f19169091010190565b60208152613bd460208201613bcf8461350d565b613ad9565b6000613be260208401613521565b6001600160a01b0381166040840152506040830135606083810191909152830135608080840191909152613c17908401613b3b565b80151560a084015250613c2d60a0840184613b46565b61012060c0850152613c4461014085018284613b92565b915050613c5460c0850185613b46565b848303601f190160e0860152613c6b838284613b92565b60e087013561010087810191909152909601356101209095019490945250929392505050565b600081518084526020840193506020830160005b82811015613cc3578151865260209586019590910190600101613ca5565b5093949350505050565b604081526000613ce06040830185613c91565b8281036020840152612a3b8185613c91565b60608101613d008286613ad9565b6001600160a01b0393909316602082015260400152919050565b600060208284031215613d2c57600080fd5b815161226a81613b2d565b60005b83811015613d52578181015183820152602001613d3a565b50506000910152565b60008151808452613d73816020860160208601613d37565b601f01601f19169290920160200192915050565b6001600160a01b038316815260406020820181905260009061303890830184613d5b565b634e487b7160e01b600052600160045260246000fd5b600060208284031215613dd357600080fd5b5051919050565b606081526000613dee606083018688613b92565b6020830194909452506040015292915050565b60208152600061226a6020830184613d5b565b60008251613e26818460208701613d37565b919091019291505056fe714f205b2abd25bef1d06a1af944e38c113fe6160375c4e1d6d5cf28848e7719360894a13ba1a3210667c828492db98dca3e2076cc3735a920a3ca505d382bbc416464726573733a206c6f772d6c6576656c2064656c65676174652063616c6c206661696c65642aa47ee5db910f3b2a06970c443249cc77dbd9f96100cfebc1775ab7fb1d1824a2646970667358221220d5669cacb153a45fd1239a4cecffd4fc2c74a4e2abdfcd6e1604de8c57d0772564736f6c634300081b0033",
  "linkReferences": {},
  "deployedLinkReferences": {}
}