{
  "_format": "hh-sol-artifact-1",
  "contractName": "AssetManagerController",
  "sourceName": "contracts/assetManagerController/implementation/AssetManagerController.sol",
  "abi": [
    {
      "inputs": [],
      "stateMutability": "nonpayable",
      "type": "constructor"
    },
    {
      "inputs": [],
      "name": "AUAddressZero",
      "type": "error"
    },
    {
      "inputs": [],
      "name": "AddressZero",
      "type": "error"
    },
    {
      "inputs": [],
      "name": "AlreadyInProductionMode",
      "type": "error"
    },
    {
      "inputs": [],
      "name": "AssetManagerNotManaged",
      "type": "error"
    },
    {
      "inputs": [],
      "name": "GovernedAddressZero",
      "type": "error"
    },
    {
      "inputs": [],
      "name": "GovernedAlreadyInitialized",
      "type": "error"
    },
    {
      "inputs": [],
      "name": "OnlyAddressUpdater",
      "type": "error"
    },
    {
      "inputs": [],
      "name": "OnlyExecutor",
      "type": "error"
    },
    {
      "inputs": [],
      "name": "OnlyGovernance",
      "type": "error"
    },
    {
      "inputs": [],
      "name": "OnlyGovernanceOrEmergencyPauseSenders",
      "type": "error"
    },
    {
      "inputs": [],
      "name": "TimelockInvalidSelector",
      "type": "error"
    },
    {
      "inputs": [],
      "name": "TimelockNotAllowedYet",
      "type": "error"
    },
    {
      "anonymous": false,
      "inputs": [
        {
          "indexed": false,
          "internalType": "address",
          "name": "previousAdmin",
          "type": "address"
        },
        {
          "indexed": false,
          "internalType": "address",
          "name": "newAdmin",
          "type": "address"
        }
      ],
      "name": "AdminChanged",
      "type": "event"
    },
    {
      "anonymous": false,
      "inputs": [
        {
          "indexed": true,
          "internalType": "address",
          "name": "beacon",
          "type": "address"
        }
      ],
      "name": "BeaconUpgraded",
      "type": "event"
    },
    {
      "anonymous": false,
      "inputs": [
        {
          "indexed": false,
          "internalType": "bytes",
          "name": "encodedCall",
          "type": "bytes"
        },
        {
          "indexed": false,
          "internalType": "bytes32",
          "name": "encodedCallHash",
          "type": "bytes32"
        },
        {
          "indexed": false,
          "internalType": "uint256",
          "name": "allowedAfterTimestamp",
          "type": "uint256"
        }
      ],
      "name": "GovernanceCallTimelocked",
      "type": "event"
    },
    {
      "anonymous": false,
      "inputs": [
        {
          "indexed": false,
          "internalType": "address",
          "name": "initialGovernance",
          "type": "address"
        }
      ],
      "name": "GovernanceInitialised",
      "type": "event"
    },
    {
      "anonymous": false,
      "inputs": [
        {
          "indexed": false,
          "internalType": "address",
          "name": "governanceSettings",
          "type": "address"
        }
      ],
      "name": "GovernedProductionModeEntered",
      "type": "event"
    },
    {
      "anonymous": false,
      "inputs": [
        {
          "indexed": false,
          "internalType": "bytes32",
          "name": "encodedCallHash",
          "type": "bytes32"
        }
      ],
      "name": "TimelockedGovernanceCallCanceled",
      "type": "event"
    },
    {
      "anonymous": false,
      "inputs": [
        {
          "indexed": false,
          "internalType": "bytes32",
          "name": "encodedCallHash",
          "type": "bytes32"
        }
      ],
      "name": "TimelockedGovernanceCallExecuted",
      "type": "event"
    },
    {
      "anonymous": false,
      "inputs": [
        {
          "indexed": true,
          "internalType": "address",
          "name": "implementation",
          "type": "address"
        }
      ],
      "name": "Upgraded",
      "type": "event"
    },
    {
      "inputs": [
        {
          "internalType": "contract IIAssetManager",
          "name": "_assetManager",
          "type": "address"
        }
      ],
      "name": "addAssetManager",
      "outputs": [],
      "stateMutability": "nonpayable",
      "type": "function"
    },
    {
      "inputs": [
        {
          "internalType": "contract IIAssetManager[]",
          "name": "_assetManagers",
          "type": "address[]"
        },
        {
          "components": [
            {
              "internalType": "enum CollateralType.Class",
              "name": "collateralClass",
              "type": "uint8"
            },
            {
              "internalType": "contract IERC20",
              "name": "token",
              "type": "address"
            },
            {
              "internalType": "uint256",
              "name": "decimals",
              "type": "uint256"
            },
            {
              "internalType": "uint256",
              "name": "validUntil",
              "type": "uint256"
            },
            {
              "internalType": "bool",
              "name": "directPricePair",
              "type": "bool"
            },
            {
              "internalType": "string",
              "name": "assetFtsoSymbol",
              "type": "string"
            },
            {
              "internalType": "string",
              "name": "tokenFtsoSymbol",
              "type": "string"
            },
            {
              "internalType": "uint256",
              "name": "minCollateralRatioBIPS",
              "type": "uint256"
            },
            {
              "internalType": "uint256",
              "name": "safetyMinCollateralRatioBIPS",
              "type": "uint256"
            }
          ],
          "internalType": "struct CollateralType.Data",
          "name": "_data",
          "type": "tuple"
        }
      ],
      "name": "addCollateralType",
      "outputs": [],
      "stateMutability": "nonpayable",
      "type": "function"
    },
    {
      "inputs": [
        {
          "internalType": "address",
          "name": "_address",
          "type": "address"
        }
      ],
      "name": "addEmergencyPauseSender",
      "outputs": [],
      "stateMutability": "nonpayable",
      "type": "function"
    },
    {
      "inputs": [
        {
          "internalType": "address",
          "name": "_assetManager",
          "type": "address"
        }
      ],
      "name": "assetManagerExists",
      "outputs": [
        {
          "internalType": "bool",
          "name": "",
          "type": "bool"
        }
      ],
      "stateMutability": "view",
      "type": "function"
    },
    {
      "inputs": [
        {
          "internalType": "contract IIAssetManager[]",
          "name": "_assetManagers",
          "type": "address[]"
        }
      ],
      "name": "cancelEmergencyPause",
      "outputs": [],
      "stateMutability": "nonpayable",
      "type": "function"
    },
    {
      "inputs": [
        {
          "internalType": "bytes",
          "name": "_encodedCall",
          "type": "bytes"
        }
      ],
      "name": "cancelGovernanceCall",
      "outputs": [],
      "stateMutability": "nonpayable",
      "type": "function"
    },
    {
      "inputs": [
        {
          "internalType": "contract IIAssetManager[]",
          "name": "_assetManagers",
          "type": "address[]"
        },
        {
          "internalType": "uint256",
          "name": "_duration",
          "type": "uint256"
        }
      ],
      "name": "emergencyPauseFull",
      "outputs": [],
      "stateMutability": "nonpayable",
      "type": "function"
    },
    {
      "inputs": [
        {
          "internalType": "contract IIAssetManager[]",
          "name": "_assetManagers",
          "type": "address[]"
        },
        {
          "internalType": "uint256",
          "name": "_duration",
          "type": "uint256"
        }
      ],
      "name": "emergencyPauseFullAndTransfer",
      "outputs": [],
      "stateMutability": "nonpayable",
      "type": "function"
    },
    {
      "inputs": [
        {
          "internalType": "contract IIAssetManager[]",
          "name": "_assetManagers",
          "type": "address[]"
        },
        {
          "internalType": "uint256",
          "name": "_duration",
          "type": "uint256"
        }
      ],
      "name": "emergencyPauseStartOperations",
      "outputs": [],
      "stateMutability": "nonpayable",
      "type": "function"
    },
    {
      "inputs": [
        {
          "internalType": "bytes",
          "name": "_encodedCall",
          "type": "bytes"
        }
      ],
      "name": "executeGovernanceCall",
      "outputs": [],
      "stateMutability": "nonpayable",
      "type": "function"
    },
    {
      "inputs": [],
      "name": "getAddressUpdater",
      "outputs": [
        {
          "internalType": "address",
          "name": "_addressUpdater",
          "type": "address"
        }
      ],
      "stateMutability": "view",
      "type": "function"
    },
    {
      "inputs": [],
      "name": "getAssetManagers",
      "outputs": [
        {
          "internalType": "contract IAssetManager[]",
          "name": "_assetManagers",
          "type": "address[]"
        }
      ],
      "stateMutability": "view",
      "type": "function"
    },
    {
      "inputs": [],
      "name": "getEmergencyPauseSenders",
      "outputs": [
        {
          "internalType": "address[]",
          "name": "",
          "type": "address[]"
        }
      ],
      "stateMutability": "view",
      "type": "function"
    },
    {
      "inputs": [],
      "name": "governance",
      "outputs": [
        {
          "internalType": "address",
          "name": "",
          "type": "address"
        }
      ],
      "stateMutability": "view",
      "type": "function"
    },
    {
      "inputs": [],
      "name": "governanceSettings",
      "outputs": [
        {
          "internalType": "contract IGovernanceSettings",
          "name": "",
          "type": "address"
        }
      ],
      "stateMutability": "view",
      "type": "function"
    },
    {
      "inputs": [
        {
          "internalType": "contract IGovernanceSettings",
          "name": "_governanceSettings",
          "type": "address"
        },
        {
          "internalType": "address",
          "name": "_initialGovernance",
          "type": "address"
        },
        {
          "internalType": "address",
          "name": "_addressUpdater",
          "type": "address"
        }
      ],
      "name": "initialize",
      "outputs": [],
      "stateMutability": "nonpayable",
      "type": "function"
    },
    {
      "inputs": [
        {
          "internalType": "address",
          "name": "_address",
          "type": "address"
        }
      ],
      "name": "isExecutor",
      "outputs": [
        {
          "internalType": "bool",
          "name": "",
          "type": "bool"
        }
      ],
      "stateMutability": "view",
      "type": "function"
    },
    {
      "inputs": [
        {
          "internalType": "contract IIAssetManager[]",
          "name": "_assetManagers",
          "type": "address[]"
        }
      ],
      "name": "pauseMinting",
      "outputs": [],
      "stateMutability": "nonpayable",
      "type": "function"
    },
    {
      "inputs": [],
      "name": "productionMode",
      "outputs": [
        {
          "internalType": "bool",
          "name": "",
          "type": "bool"
        }
      ],
      "stateMutability": "view",
      "type": "function"
    },
    {
      "inputs": [],
      "name": "proxiableUUID",
      "outputs": [
        {
          "internalType": "bytes32",
          "name": "",
          "type": "bytes32"
        }
      ],
      "stateMutability": "view",
      "type": "function"
    },
    {
      "inputs": [
        {
          "internalType": "contract IIAssetManager",
          "name": "_assetManager",
          "type": "address"
        }
      ],
      "name": "removeAssetManager",
      "outputs": [],
      "stateMutability": "nonpayable",
      "type": "function"
    },
    {
      "inputs": [
        {
          "internalType": "address",
          "name": "_address",
          "type": "address"
        }
      ],
      "name": "removeEmergencyPauseSender",
      "outputs": [],
      "stateMutability": "nonpayable",
      "type": "function"
    },
    {
      "inputs": [],
      "name": "replacedBy",
      "outputs": [
        {
          "internalType": "address",
          "name": "",
          "type": "address"
        }
      ],
      "stateMutability": "view",
      "type": "function"
    },
    {
      "inputs": [
        {
          "internalType": "contract IIAssetManager[]",
          "name": "_assetManagers",
          "type": "address[]"
        },
        {
          "internalType": "uint256",
          "name": "_value",
          "type": "uint256"
        }
      ],
      "name": "setAgentExitAvailableTimelockSeconds",
      "outputs": [],
      "stateMutability": "nonpayable",
      "type": "function"
    },
    {
      "inputs": [
        {
          "internalType": "contract IIAssetManager[]",
          "name": "_assetManagers",
          "type": "address[]"
        },
        {
          "internalType": "uint256",
          "name": "_value",
          "type": "uint256"
        }
      ],
      "name": "setAgentFeeChangeTimelockSeconds",
      "outputs": [],
      "stateMutability": "nonpayable",
      "type": "function"
    },
    {
      "inputs": [
        {
          "internalType": "contract IIAssetManager[]",
          "name": "_assetManagers",
          "type": "address[]"
        },
        {
          "internalType": "uint256",
          "name": "_value",
          "type": "uint256"
        }
      ],
      "name": "setAgentMintingCRChangeTimelockSeconds",
      "outputs": [],
      "stateMutability": "nonpayable",
      "type": "function"
    },
    {
      "inputs": [
        {
          "internalType": "contract IIAssetManager[]",
          "name": "_assetManagers",
          "type": "address[]"
        },
        {
          "internalType": "address",
          "name": "_value",
          "type": "address"
        }
      ],
      "name": "setAgentOwnerRegistry",
      "outputs": [],
      "stateMutability": "nonpayable",
      "type": "function"
    },
    {
      "inputs": [
        {
          "internalType": "contract IIAssetManager[]",
          "name": "_assetManagers",
          "type": "address[]"
        },
        {
          "internalType": "uint256",
          "name": "_value",
          "type": "uint256"
        }
      ],
      "name": "setAgentTimelockedOperationWindowSeconds",
      "outputs": [],
      "stateMutability": "nonpayable",
      "type": "function"
    },
    {
      "inputs": [
        {
          "internalType": "contract IIAssetManager[]",
          "name": "_assetManagers",
          "type": "address[]"
        },
        {
          "internalType": "address",
          "name": "_value",
          "type": "address"
        }
      ],
      "name": "setAgentVaultFactory",
      "outputs": [],
      "stateMutability": "nonpayable",
      "type": "function"
    },
    {
      "inputs": [
        {
          "internalType": "contract IIAssetManager[]",
          "name": "_assetManagers",
          "type": "address[]"
        },
        {
          "internalType": "uint256",
          "name": "_value",
          "type": "uint256"
        }
      ],
      "name": "setAttestationWindowSeconds",
      "outputs": [],
      "stateMutability": "nonpayable",
      "type": "function"
    },
    {
      "inputs": [
        {
          "internalType": "contract IIAssetManager[]",
          "name": "_assetManagers",
          "type": "address[]"
        },
        {
          "internalType": "uint256",
          "name": "_value",
          "type": "uint256"
        }
      ],
      "name": "setAverageBlockTimeMS",
      "outputs": [],
      "stateMutability": "nonpayable",
      "type": "function"
    },
    {
      "inputs": [
        {
          "internalType": "contract IIAssetManager[]",
          "name": "_assetManagers",
          "type": "address[]"
        },
        {
          "internalType": "address",
          "name": "_value",
          "type": "address"
        }
      ],
      "name": "setCleanerContract",
      "outputs": [],
      "stateMutability": "nonpayable",
      "type": "function"
    },
    {
      "inputs": [
        {
          "internalType": "contract IIAssetManager[]",
          "name": "_assetManagers",
          "type": "address[]"
        },
        {
          "internalType": "address",
          "name": "_value",
          "type": "address"
        }
      ],
      "name": "setCleanupBlockNumberManager",
      "outputs": [],
      "stateMutability": "nonpayable",
      "type": "function"
    },
    {
      "inputs": [
        {
          "internalType": "contract IIAssetManager[]",
          "name": "_assetManagers",
          "type": "address[]"
        },
        {
          "internalType": "address",
          "name": "_value",
          "type": "address"
        }
      ],
      "name": "setCollateralPoolFactory",
      "outputs": [],
      "stateMutability": "nonpayable",
      "type": "function"
    },
    {
      "inputs": [
        {
          "internalType": "contract IIAssetManager[]",
          "name": "_assetManagers",
          "type": "address[]"
        },
        {
          "internalType": "address",
          "name": "_value",
          "type": "address"
        }
      ],
      "name": "setCollateralPoolTokenFactory",
      "outputs": [],
      "stateMutability": "nonpayable",
      "type": "function"
    },
    {
      "inputs": [
        {
          "internalType": "contract IIAssetManager[]",
          "name": "_assetManagers",
          "type": "address[]"
        },
        {
          "internalType": "uint256",
          "name": "_value",
          "type": "uint256"
        }
      ],
      "name": "setCollateralPoolTokenTimelockSeconds",
      "outputs": [],
      "stateMutability": "nonpayable",
      "type": "function"
    },
    {
      "inputs": [
        {
          "internalType": "contract IIAssetManager[]",
          "name": "_assetManagers",
          "type": "address[]"
        },
        {
          "internalType": "enum CollateralType.Class",
          "name": "_class",
          "type": "uint8"
        },
        {
          "internalType": "contract IERC20",
          "name": "_token",
          "type": "address"
        },
        {
          "internalType": "uint256",
          "name": "_minCollateralRatioBIPS",
          "type": "uint256"
        },
        {
          "internalType": "uint256",
          "name": "_safetyMinCollateralRatioBIPS",
          "type": "uint256"
        }
      ],
      "name": "setCollateralRatiosForToken",
      "outputs": [],
      "stateMutability": "nonpayable",
      "type": "function"
    },
    {
      "inputs": [
        {
          "internalType": "contract IIAssetManager[]",
          "name": "_assetManagers",
          "type": "address[]"
        },
        {
          "internalType": "uint256",
          "name": "_value",
          "type": "uint256"
        }
      ],
      "name": "setCollateralReservationFeeBips",
      "outputs": [],
      "stateMutability": "nonpayable",
      "type": "function"
    },
    {
      "inputs": [
        {
          "internalType": "contract IIAssetManager[]",
          "name": "_assetManagers",
          "type": "address[]"
        },
        {
          "internalType": "uint256",
          "name": "_value",
          "type": "uint256"
        }
      ],
      "name": "setConfirmationByOthersAfterSeconds",
      "outputs": [],
      "stateMutability": "nonpayable",
      "type": "function"
    },
    {
      "inputs": [
        {
          "internalType": "contract IIAssetManager[]",
          "name": "_assetManagers",
          "type": "address[]"
        },
        {
          "internalType": "uint256",
          "name": "_value",
          "type": "uint256"
        }
      ],
      "name": "setConfirmationByOthersRewardUSD5",
      "outputs": [],
      "stateMutability": "nonpayable",
      "type": "function"
    },
    {
      "inputs": [
        {
          "internalType": "contract IIAssetManager[]",
          "name": "_assetManagers",
          "type": "address[]"
        },
        {
          "internalType": "uint256",
          "name": "_value",
          "type": "uint256"
        }
      ],
      "name": "setEmergencyPauseDurationResetAfterSeconds",
      "outputs": [],
      "stateMutability": "nonpayable",
      "type": "function"
    },
    {
      "inputs": [
        {
          "internalType": "contract IIAssetManager[]",
          "name": "_assetManagers",
          "type": "address[]"
        },
        {
          "internalType": "address",
          "name": "_value",
          "type": "address"
        }
      ],
      "name": "setFdcVerification",
      "outputs": [],
      "stateMutability": "nonpayable",
      "type": "function"
    },
    {
      "inputs": [
        {
          "internalType": "contract IIAssetManager[]",
          "name": "_assetManagers",
          "type": "address[]"
        },
        {
          "internalType": "uint256[]",
          "name": "_paymentFactors",
          "type": "uint256[]"
        },
        {
          "internalType": "uint256[]",
          "name": "_vaultCollateralFactors",
          "type": "uint256[]"
        }
      ],
      "name": "setLiquidationPaymentFactors",
      "outputs": [],
      "stateMutability": "nonpayable",
      "type": "function"
    },
    {
      "inputs": [
        {
          "internalType": "contract IIAssetManager[]",
          "name": "_assetManagers",
          "type": "address[]"
        },
        {
          "internalType": "uint256",
          "name": "_value",
          "type": "uint256"
        }
      ],
      "name": "setLiquidationStepSeconds",
      "outputs": [],
      "stateMutability": "nonpayable",
      "type": "function"
    },
    {
      "inputs": [
        {
          "internalType": "contract IIAssetManager[]",
          "name": "_assetManagers",
          "type": "address[]"
        },
        {
          "internalType": "uint256",
          "name": "_value",
          "type": "uint256"
        }
      ],
      "name": "setLotSizeAmg",
      "outputs": [],
      "stateMutability": "nonpayable",
      "type": "function"
    },
    {
      "inputs": [
        {
          "internalType": "contract IIAssetManager[]",
          "name": "_assetManagers",
          "type": "address[]"
        },
        {
          "internalType": "uint256",
          "name": "_value",
          "type": "uint256"
        }
      ],
      "name": "setMaxEmergencyPauseDurationSeconds",
      "outputs": [],
      "stateMutability": "nonpayable",
      "type": "function"
    },
    {
      "inputs": [
        {
          "internalType": "contract IIAssetManager[]",
          "name": "_assetManagers",
          "type": "address[]"
        },
        {
          "internalType": "uint256",
          "name": "_value",
          "type": "uint256"
        }
      ],
      "name": "setMaxRedeemedTickets",
      "outputs": [],
      "stateMutability": "nonpayable",
      "type": "function"
    },
    {
      "inputs": [
        {
          "internalType": "contract IIAssetManager[]",
          "name": "_assetManagers",
          "type": "address[]"
        },
        {
          "internalType": "uint256",
          "name": "_value",
          "type": "uint256"
        }
      ],
      "name": "setMaxTrustedPriceAgeSeconds",
      "outputs": [],
      "stateMutability": "nonpayable",
      "type": "function"
    },
    {
      "inputs": [
        {
          "internalType": "contract IIAssetManager[]",
          "name": "_assetManagers",
          "type": "address[]"
        },
        {
          "internalType": "uint256",
          "name": "_value",
          "type": "uint256"
        }
      ],
      "name": "setMinUpdateRepeatTimeSeconds",
      "outputs": [],
      "stateMutability": "nonpayable",
      "type": "function"
    },
    {
      "inputs": [
        {
          "internalType": "contract IIAssetManager[]",
          "name": "_assetManagers",
          "type": "address[]"
        },
        {
          "internalType": "uint256",
          "name": "_value",
          "type": "uint256"
        }
      ],
      "name": "setMintingCapAmg",
      "outputs": [],
      "stateMutability": "nonpayable",
      "type": "function"
    },
    {
      "inputs": [
        {
          "internalType": "contract IIAssetManager[]",
          "name": "_assetManagers",
          "type": "address[]"
        },
        {
          "internalType": "uint256",
          "name": "_value",
          "type": "uint256"
        }
      ],
      "name": "setMintingPoolHoldingsRequiredBIPS",
      "outputs": [],
      "stateMutability": "nonpayable",
      "type": "function"
    },
    {
      "inputs": [
        {
          "internalType": "contract IIAssetManager[]",
          "name": "_assetManagers",
          "type": "address[]"
        },
        {
          "internalType": "uint256",
          "name": "_rewardVaultCollateralWei",
          "type": "uint256"
        },
        {
          "internalType": "uint256",
          "name": "_rewardBIPS",
          "type": "uint256"
        }
      ],
      "name": "setPaymentChallengeReward",
      "outputs": [],
      "stateMutability": "nonpayable",
      "type": "function"
    },
    {
      "inputs": [
        {
          "internalType": "contract IIAssetManager[]",
          "name": "_assetManagers",
          "type": "address[]"
        },
        {
          "internalType": "uint256",
          "name": "_value",
          "type": "uint256"
        }
      ],
      "name": "setPoolExitCRChangeTimelockSeconds",
      "outputs": [],
      "stateMutability": "nonpayable",
      "type": "function"
    },
    {
      "inputs": [
        {
          "internalType": "contract IIAssetManager[]",
          "name": "_assetManagers",
          "type": "address[]"
        },
        {
          "internalType": "address",
          "name": "_value",
          "type": "address"
        }
      ],
      "name": "setPriceReader",
      "outputs": [],
      "stateMutability": "nonpayable",
      "type": "function"
    },
    {
      "inputs": [
        {
          "internalType": "contract IIAssetManager[]",
          "name": "_assetManagers",
          "type": "address[]"
        },
        {
          "internalType": "uint256",
          "name": "_value",
          "type": "uint256"
        }
      ],
      "name": "setRedemptionDefaultFactorVaultCollateralBIPS",
      "outputs": [],
      "stateMutability": "nonpayable",
      "type": "function"
    },
    {
      "inputs": [
        {
          "internalType": "contract IIAssetManager[]",
          "name": "_assetManagers",
          "type": "address[]"
        },
        {
          "internalType": "uint256",
          "name": "_value",
          "type": "uint256"
        }
      ],
      "name": "setRedemptionFeeBips",
      "outputs": [],
      "stateMutability": "nonpayable",
      "type": "function"
    },
    {
      "inputs": [
        {
          "internalType": "contract IIAssetManager[]",
          "name": "_assetManagers",
          "type": "address[]"
        },
        {
          "internalType": "uint256",
          "name": "_value",
          "type": "uint256"
        }
      ],
      "name": "setRedemptionPaymentExtensionSeconds",
      "outputs": [],
      "stateMutability": "nonpayable",
      "type": "function"
    },
    {
      "inputs": [
        {
          "internalType": "contract IIAssetManager[]",
          "name": "_assetManagers",
          "type": "address[]"
        },
        {
          "internalType": "uint256",
          "name": "_underlyingBlocks",
          "type": "uint256"
        },
        {
          "internalType": "uint256",
          "name": "_underlyingSeconds",
          "type": "uint256"
        }
      ],
      "name": "setTimeForPayment",
      "outputs": [],
      "stateMutability": "nonpayable",
      "type": "function"
    },
    {
      "inputs": [
        {
          "internalType": "contract IIAssetManager[]",
          "name": "_assetManagers",
          "type": "address[]"
        },
        {
          "internalType": "uint256",
          "name": "_value",
          "type": "uint256"
        }
      ],
      "name": "setVaultCollateralBuyForFlareFactorBIPS",
      "outputs": [],
      "stateMutability": "nonpayable",
      "type": "function"
    },
    {
      "inputs": [
        {
          "internalType": "contract IIAssetManager[]",
          "name": "_assetManagers",
          "type": "address[]"
        },
        {
          "internalType": "uint256",
          "name": "_value",
          "type": "uint256"
        }
      ],
      "name": "setWithdrawalOrDestroyWaitMinSeconds",
      "outputs": [],
      "stateMutability": "nonpayable",
      "type": "function"
    },
    {
      "inputs": [
        {
          "internalType": "bytes4",
          "name": "_interfaceId",
          "type": "bytes4"
        }
      ],
      "name": "supportsInterface",
      "outputs": [
        {
          "internalType": "bool",
          "name": "",
          "type": "bool"
        }
      ],
      "stateMutability": "pure",
      "type": "function"
    },
    {
      "inputs": [],
      "name": "switchToProductionMode",
      "outputs": [],
      "stateMutability": "nonpayable",
      "type": "function"
    },
    {
      "inputs": [
        {
          "internalType": "contract IIAssetManager[]",
          "name": "_assetManagers",
          "type": "address[]"
        }
      ],
      "name": "unpauseMinting",
      "outputs": [],
      "stateMutability": "nonpayable",
      "type": "function"
    },
    {
      "inputs": [
        {
          "internalType": "bytes32[]",
          "name": "_contractNameHashes",
          "type": "bytes32[]"
        },
        {
          "internalType": "address[]",
          "name": "_contractAddresses",
          "type": "address[]"
        }
      ],
      "name": "updateContractAddresses",
      "outputs": [],
      "stateMutability": "nonpayable",
      "type": "function"
    },
    {
      "inputs": [
        {
          "internalType": "contract IIAssetManager[]",
          "name": "_assetManagers",
          "type": "address[]"
        }
      ],
      "name": "updateContracts",
      "outputs": [],
      "stateMutability": "nonpayable",
      "type": "function"
    },
    {
      "inputs": [
        {
          "internalType": "contract IIAssetManager[]",
          "name": "_assetManagers",
          "type": "address[]"
        },
        {
          "internalType": "uint256",
          "name": "_start",
          "type": "uint256"
        },
        {
          "internalType": "uint256",
          "name": "_end",
          "type": "uint256"
        }
      ],
      "name": "upgradeAgentVaultsAndPools",
      "outputs": [],
      "stateMutability": "nonpayable",
      "type": "function"
    },
    {
      "inputs": [
        {
          "internalType": "contract IIAssetManager[]",
          "name": "_assetManagers",
          "type": "address[]"
        },
        {
          "internalType": "address",
          "name": "_implementation",
          "type": "address"
        },
        {
          "internalType": "bytes",
          "name": "_callData",
          "type": "bytes"
        }
      ],
      "name": "upgradeFAssetImplementation",
      "outputs": [],
      "stateMutability": "nonpayable",
      "type": "function"
    },
    {
      "inputs": [
        {
          "internalType": "address",
          "name": "newImplementation",
          "type": "address"
        }
      ],
      "name": "upgradeTo",
      "outputs": [],
      "stateMutability": "nonpayable",
      "type": "function"
    },
    {
      "inputs": [
        {
          "internalType": "address",
          "name": "newImplementation",
          "type": "address"
        },
        {
          "internalType": "bytes",
          "name": "data",
          "type": "bytes"
        }
      ],
      "name": "upgradeToAndCall",
      "outputs": [],
      "stateMutability": "payable",
      "type": "function"
    }
  ],
  "bytecode": "0x60a06040523060805234801561001457600080fd5b50600061002361111180610051565b61004b817f714f205b2abd25bef1d06a1af944e38c113fe6160375c4e1d6d5cf28848e771955565b50610160565b7f2aa47ee5db910f3b2a06970c443249cc77dbd9f96100cfebc1775ab7fb1d18248054600160a01b900460ff161561009c5760405163b2f0162160e01b815260040160405180910390fd5b6001600160a01b0383166100c3576040516334ab92fb60e11b815260040160405180910390fd5b6001600160a01b0382166100ea576040516334ab92fb60e11b815260040160405180910390fd5b80546001600160a01b038481166001600160a81b031990921691909117600160a01b1782556001820180549184166001600160a01b0319909216821790556040519081527f9789733827840833afc031fb2ef9ab6894271f77bad2085687cf4ae5c7bee4db9060200160405180910390a1505050565b608051613da7610197600039600081816112f40152818161133d0152818161147f015281816114bf01526115480152613da76000f3fe6080604052600436106103fa5760003560e01c8063758f07f211610213578063ba4388d111610123578063debfda30116100ab578063e789e7d41161007a578063e789e7d414610c27578063eddaf29314610c47578063ef098e5514610c67578063efe058ef14610c87578063f5a9838314610ca757600080fd5b8063debfda3014610b9b578063dede95f114610bbb578063e17f212e14610bdb578063e77ebcab14610c0757600080fd5b8063c6c257cb116100f2578063c6c257cb14610afb578063d0c391b514610b1b578063d13e499d14610b3b578063d285a63614610b5b578063d48b75f614610b7b57600080fd5b8063ba4388d114610a7b578063bb6f41b314610a9b578063be46c73d14610abb578063c0c53b8b14610adb57600080fd5b80639e1508a1116101a6578063aeb4155511610175578063aeb41555146109e6578063af823a2714610a06578063b00c0b7614610a26578063b577fc7614610a46578063b87b82f014610a6657600080fd5b80639e1508a114610966578063a391dd9c14610986578063a6a24e25146109a6578063a82ee3d5146109c657600080fd5b80637f281299116101e25780637f281299146108e457806392fa95861461090457806397d2fcc614610926578063987ea8991461094657600080fd5b8063758f07f21461084c578063763d1a161461086c5780637ad62f511461088c5780637adf26ee146108c457600080fd5b80634a79bc9f1161030e5780635b743b01116102a1578063654f2d7a11610270578063654f2d7a146107ac5780636a9f8ec8146107cc5780636b76ab0e146107ec5780636f1f1fc01461080c578063704026261461082c57600080fd5b80635b743b01146107375780635cce89ea14610757578063617637aa1461077757806362354e031461079757600080fd5b806352d1902d116102dd57806352d1902d146106bf57806353cf989a146106e2578063556d5118146107025780635aa6e6751461072257600080fd5b80634a79bc9f146106365780634f1ef2861461065657806351241060146106695780635267a15d1461068957600080fd5b80632aedabe411610391578063358bca7711610360578063358bca77146105965780633659cfe6146105b657806340b9d6b0146105d657806347956606146105f65780634944d22d1461061657600080fd5b80632aedabe4146105165780632af713fc146105365780632d5846da1461055657806334dc39321461057657600080fd5b8063171898fe116103cd578063171898fe1461049657806320756671146104b657806320c5f99d146104d657806326a9055b146104f657600080fd5b806301ffc9a7146103ff5780630207aff214610434578063115a6e151461045657806316fc2f6d14610476575b600080fd5b34801561040b57600080fd5b5061041f61041a3660046130d9565b610cbc565b60405190151581526020015b60405180910390f35b34801561044057600080fd5b5061045461044f3660046131f7565b610d5f565b005b34801561046257600080fd5b506104546104713660046131f7565b610d7d565b34801561048257600080fd5b5061045461049136600461323b565b610d97565b3480156104a257600080fd5b506104546104b13660046132ad565b610e4b565b3480156104c257600080fd5b506104546104d13660046131f7565b610e5e565b3480156104e257600080fd5b506104546104f136600461323b565b610e92565b34801561050257600080fd5b506104546105113660046131f7565b611004565b34801561052257600080fd5b506104546105313660046131f7565b61101e565b34801561054257600080fd5b506104546105513660046132ca565b611038565b34801561056257600080fd5b506104546105713660046131f7565b61105f565b34801561058257600080fd5b506104546105913660046131f7565b611079565b3480156105a257600080fd5b506104546105b13660046132ad565b611093565b3480156105c257600080fd5b506104546105d13660046132ad565b6112d5565b3480156105e257600080fd5b506104546105f13660046131f7565b6113af565b34801561060257600080fd5b506104546106113660046131f7565b6113c9565b34801561062257600080fd5b5061045461063136600461331b565b6113e3565b34801561064257600080fd5b506104546106513660046132ca565b611439565b6104546106643660046133d7565b611460565b34801561067557600080fd5b506104546106843660046131f7565b611521565b34801561069557600080fd5b50600080516020613ceb833981519152545b6040516001600160a01b03909116815260200161042b565b3480156106cb57600080fd5b506106d461153b565b60405190815260200161042b565b3480156106ee57600080fd5b506104546106fd366004613426565b6115ee565b34801561070e57600080fd5b5061045461071d3660046131f7565b6115fa565b34801561072e57600080fd5b506106a7611614565b34801561074357600080fd5b50610454610752366004613479565b6116bd565b34801561076357600080fd5b506104546107723660046131f7565b611735565b34801561078357600080fd5b506104546107923660046131f7565b61174f565b3480156107a357600080fd5b506106a7611769565b3480156107b857600080fd5b506104546107c73660046131f7565b61178a565b3480156107d857600080fd5b506104546107e73660046131f7565b611796565b3480156107f857600080fd5b506104546108073660046134ea565b6117b0565b34801561081857600080fd5b506104546108273660046131f7565b61181e565b34801561083857600080fd5b5061045461084736600461354f565b611845565b34801561085857600080fd5b506104546108673660046131f7565b611891565b34801561087857600080fd5b50610454610887366004613611565b6118ab565b34801561089857600080fd5b5061041f6108a73660046132ad565b6001600160a01b0316600090815260016020526040902054151590565b3480156108d057600080fd5b506104546108df3660046131f7565b611913565b3480156108f057600080fd5b506104546108ff3660046131f7565b61191f565b34801561091057600080fd5b50610919611939565b60405161042b91906136a2565b34801561093257600080fd5b506104546109413660046132ca565b61194a565b34801561095257600080fd5b506104546109613660046132ad565b611971565b34801561097257600080fd5b506104546109813660046131f7565b611ac5565b34801561099257600080fd5b506104546109a136600461331b565b611aec565b3480156109b257600080fd5b506104546109c13660046132ca565b611b4a565b3480156109d257600080fd5b506104546109e13660046131f7565b611b71565b3480156109f257600080fd5b50610454610a013660046131f7565b611b8b565b348015610a1257600080fd5b50610454610a213660046132ca565b611ba5565b348015610a3257600080fd5b50610454610a413660046136ee565b611bcc565b348015610a5257600080fd5b506000546106a7906001600160a01b031681565b348015610a7257600080fd5b50610919611c5d565b348015610a8757600080fd5b50610454610a963660046131f7565b611d1a565b348015610aa757600080fd5b50610454610ab63660046132ca565b611d26565b348015610ac757600080fd5b50610454610ad63660046131f7565b611d4d565b348015610ae757600080fd5b50610454610af63660046137a4565b611d67565b348015610b0757600080fd5b50610454610b163660046132ad565b611d87565b348015610b2757600080fd5b50610454610b363660046131f7565b611d9a565b348015610b4757600080fd5b50610454610b563660046134ea565b611dc1565b348015610b6757600080fd5b50610454610b763660046131f7565b612017565b348015610b8757600080fd5b50610454610b963660046132ca565b61203e565b348015610ba757600080fd5b5061041f610bb63660046132ad565b612065565b348015610bc757600080fd5b50610454610bd63660046131f7565b6120ff565b348015610be757600080fd5b50600080516020613d5283398151915254600160a81b900460ff1661041f565b348015610c1357600080fd5b50610454610c223660046131f7565b612119565b348015610c3357600080fd5b50610454610c423660046137ef565b612140565b348015610c5357600080fd5b50610454610c6236600461331b565b61219b565b348015610c7357600080fd5b50610454610c823660046132ca565b6121ec565b348015610c9357600080fd5b50610454610ca23660046134ea565b612206565b348015610cb357600080fd5b50610454612274565b60006001600160e01b031982166301ffc9a760e01b1480610ced57506001600160e01b03198216635267a15d60e01b145b80610d0857506001600160e01b0319821663580605bb60e11b145b80610d2357506001600160e01b0319821663c2adada160e01b145b80610d3e57506001600160e01b031982166331357f1160e01b145b80610d5957506001600160e01b0319821663c4c3061b60e01b145b92915050565b610d67612319565b610d798263d074339560e01b83612354565b5050565b610d85612319565b610d79826302c06abf60e41b83612354565b610d9f612319565b604051600080516020613d5283398151915290600090610dc2908590859061385e565b6040518091039020905081600201600082815260200190815260200160002054600003610e025760405163023679b760e21b815260040160405180910390fd5b6040518181527f69b058d6225c01c1f2a25801ca5b05705fa2e9118e93d518390ba804398c87b19060200160405180910390a16000908152600290910160205260408120555050565b610e53612319565b610d796003826123a3565b610e666123b8565b15610e8557610e736123ee565b610d79826315ebe57360e31b83612354565b610d796000366000612432565b600080516020613d52833981519152610eaa33612065565b610ec757604051633fdb5f0160e11b815260040160405180910390fd5b60008383604051610ed992919061385e565b60408051918290039091206000818152600285016020529182205490925090819003610f185760405163023679b760e21b815260040160405180910390fd5b80421015610f395760405163309272e160e11b815260040160405180910390fd5b6000828152600284016020526040808220829055845460ff60b01b1916600160b01b178555513090610f6e908890889061385e565b6000604051808303816000865af19150503d8060008114610fab576040519150601f19603f3d011682016040523d82523d6000602084013e610fb0565b606091505b5050845460ff60b01b191685556040518481529091507fec1225e5a8a8acb91e03ce648c683c74f5d152a775b9715980999441d714c44f9060200160405180910390a1610ffc81612549565b505050505050565b61100c612319565b610d7982633db7d3b160e11b83612354565b611026612319565b610d7982632b4572c760e11b83612354565b6110406123b8565b15610e855761104d6123ee565b610d798263be06971960e01b83612566565b611067612319565b610d79826337592f4160e21b83612354565b611081612319565b610d7982639db27f5560e01b83612354565b61109b6123b8565b156112c5576110a86123ee565b6001600160a01b038116600090815260016020526040812054908190036110cd575050565b60006110da600183613884565b6002549091506000906110ef90600190613884565b9050808210156111a9576002818154811061110c5761110c613897565b600091825260209091200154600280546001600160a01b03909216918490811061113857611138613897565b600091825260209091200180546001600160a01b0319166001600160a01b039290921691909117905561116c8260016138ad565b600160006002858154811061118357611183613897565b60009182526020808320909101546001600160a01b031683528201929092526040019020555b60028054806111ba576111ba6138c0565b60008281526020808220830160001990810180546001600160a01b03191690559092019092556001600160a01b03861680835260018252604080842093909355825163f0c0b72560e01b815292513093919263f0c0b72592600480820193918290030181865afa158015611232573d6000803e3d6000fd5b505050506040513d601f19601f8201168201806040525081019061125691906138d6565b6001600160a01b0316036112bf5760405163b928b53360e01b8152600060048201526001600160a01b0385169063b928b53390602401600060405180830381600087803b1580156112a657600080fd5b505af11580156112ba573d6000803e3d6000fd5b505050505b50505050565b6112d26000366000612432565b50565b6112dd6123b8565b156112c5576112ea6123ee565b6001600160a01b037f000000000000000000000000000000000000000000000000000000000000000016300361133b5760405162461bcd60e51b8152600401611332906138f3565b60405180910390fd5b7f00000000000000000000000000000000000000000000000000000000000000006001600160a01b031661136d612588565b6001600160a01b0316146113935760405162461bcd60e51b81526004016113329061393f565b604080516000808252602082019092526112d29183919061259e565b6113b7612319565b610d7982632a92649160e01b83612354565b6113d1612319565b610d79826323c0a60360e11b83612354565b6113eb612319565b604051602481018390526044810182905261143490849060640160408051601f198184030181529190526020810180516001600160e01b0316633128590960e01b179052612709565b505050565b6114416123b8565b15610e855761144e6123ee565b610d79826309eb52f160e11b83612566565b6114686123b8565b15610e85576114756123ee565b6001600160a01b037f00000000000000000000000000000000000000000000000000000000000000001630036114bd5760405162461bcd60e51b8152600401611332906138f3565b7f00000000000000000000000000000000000000000000000000000000000000006001600160a01b03166114ef612588565b6001600160a01b0316146115155760405162461bcd60e51b81526004016113329061393f565b610d798282600161259e565b611529612319565b610d7982632d62e08f60e11b83612354565b6000306001600160a01b037f000000000000000000000000000000000000000000000000000000000000000016146115db5760405162461bcd60e51b815260206004820152603860248201527f555550535570677261646561626c653a206d757374206e6f742062652063616c60448201527f6c6564207468726f7567682064656c656761746563616c6c00000000000000006064820152608401611332565b50600080516020613d0b83398151915290565b6112d28160008061278d565b611602612319565b610d79826340973e9760e11b83612354565b600080516020613d52833981519152805460009190600160a81b900460ff1661164a5760018101546001600160a01b03166116b7565b805460408051631cc9492560e21b815290516001600160a01b03909216916373252494916004808201926020929091908290030181865afa158015611693573d6000803e3d6000fd5b505050506040513d601f19601f820116820180604052508101906116b791906138d6565b91505090565b6116c56123b8565b15611721576116d26123ee565b61171c85858585856040516024016116ed94939291906139b5565b60408051601f198184030181529190526020810180516001600160e01b031663b18e8e6760e01b179052612709565b61172e565b61172e6000366000612432565b5050505050565b61173d612319565b610d798263ad74c72d60e01b83612354565b611757612319565b610d7982636ad6fb4f60e01b83612354565b6000600080516020613d528339815191525b546001600160a01b0316919050565b610d798260018361278d565b61179e612319565b610d7982633b1d0c2960e21b83612354565b6117b8612319565b610d79828280806020026020016040519081016040528093929190818152602001838360200280828437600092019190915250506040805160048152602481019091526020810180516001600160e01b0316636d47df9560e11b17905291506127099050565b6118266123b8565b15610e85576118336123ee565b610d79826336f9886b60e11b83612354565b61184d612319565b610d7982826040516024016118629190613a75565b60408051601f198184030181529190526020810180516001600160e01b0316630f8d62c960e01b179052612709565b611899612319565b610d798263b2e6a2b560e01b83612354565b6118b36123b8565b15611906576118c06123ee565b6114348383836040516024016118d7929190613b87565b60408051601f198184030181529190526020810180516001600160e01b0316633b145b4960e21b179052612709565b6114346000366000612432565b610d798260028361278d565b611927612319565b610d7982634f0c992160e11b83612354565b60606119456003612824565b905090565b6119526123b8565b15610e855761195f6123ee565b610d798263e443147f60e01b83612566565b6119796123b8565b156112c5576119866123ee565b6001600160a01b03811660009081526001602052604081205490036112d25760028054600180820183557f405787fa12a823e0f2b7631cc41b3ba8828b3321ca811111fa75cd3aa3bb5ace90910180546001600160a01b0319166001600160a01b03851690811790915591546000838152602092835260409081902091909155805163f0c0b72560e01b8152905130939263f0c0b72592600480820193918290030181865afa158015611a3d573d6000803e3d6000fd5b505050506040513d601f19601f82011682018060405250810190611a6191906138d6565b6001600160a01b0316036112d25760405163b928b53360e01b8152600160048201526001600160a01b0382169063b928b53390602401600060405180830381600087803b158015611ab157600080fd5b505af115801561172e573d6000803e3d6000fd5b611acd6123b8565b15610e8557611ada6123ee565b610d798263d57d25c560e01b83612354565b611af46123b8565b1561190657611b016123ee565b604051602481018390526044810182905261143490849060640160408051601f198184030181529190526020810180516001600160e01b03166334dc4f3f60e11b179052612709565b611b526123b8565b15610e8557611b5f6123ee565b610d7982636f83754b60e11b83612566565b611b79612319565b610d798263dfc5941760e01b83612354565b611b93612319565b610d79826313bcd55560e11b83612354565b611bad6123b8565b15610e8557611bba6123ee565b610d7982637f4fcaa960e01b83612566565b600080516020613ceb833981519152546001600160a01b0316336001600160a01b031614611c0d57604051633d8aad3760e11b815260040160405180910390fd5b611c53611c4183836040518060400160405280600e81526020016d20b2323932b9b9aab83230ba32b960911b815250612831565b600080516020613ceb83398151915255565b610d7982826128e4565b600254606090806001600160401b03811115611c7b57611c7b613103565b604051908082528060200260200182016040528015611ca4578160200160208202803683370190505b50915060005b81811015611d155760028181548110611cc557611cc5613897565b9060005260206000200160009054906101000a90046001600160a01b0316838281518110611cf557611cf5613897565b6001600160a01b0390921660209283029190910190910152600101611caa565b505090565b610d798260038361278d565b611d2e6123b8565b15610e8557611d3b6123ee565b610d7982636dd3d58960e01b83612566565b611d55612319565b610d798263cfcb991d60e01b83612354565b611d7183836129e7565b61143481600080516020613ceb83398151915255565b611d8f612319565b610d79600382612ae4565b611da26123b8565b15610e8557611daf6123ee565b610d7982636b38c64360e01b83612354565b6000611dd9600080516020613ceb8339815191525490565b604051630110ceef60e21b815260206004820152600e60248201526d20b2323932b9b9aab83230ba32b960911b60448201529091506000906001600160a01b038316906304433bbc90606401602060405180830381865afa158015611e42573d6000803e3d6000fd5b505050506040513d601f19601f82011682018060405250810190611e6691906138d6565b604051630110ceef60e21b815260206004820152601660248201527520b9b9b2ba26b0b730b3b2b921b7b73a3937b63632b960511b60448201529091506000906001600160a01b038416906304433bbc90606401602060405180830381865afa158015611ed7573d6000803e3d6000fd5b505050506040513d601f19601f82011682018060405250810190611efb91906138d6565b90506000836001600160a01b03166304433bbc6040518163ffffffff1660e01b8152600401611f429060208082526004908201526315d3985d60e21b604082015260600190565b602060405180830381865afa158015611f5f573d6000803e3d6000fd5b505050506040513d601f19601f82011682018060405250810190611f8391906138d6565b90506001600160a01b03831615801590611fa557506001600160a01b03821615155b8015611fb957506001600160a01b03811615155b611fd657604051639fabe1c160e01b815260040160405180910390fd5b610ffc868680806020026020016040519081016040528093929190818152602001838360200280828437600092019190915250879250869150859050612af9565b61201f6123b8565b15610e855761202c6123ee565b610d79826346ca288560e11b83612354565b6120466123b8565b15610e85576120536123ee565b610d798263cda4c54160e01b83612566565b600080516020613d52833981519152805460009190600160a01b900460ff1680156120f857508054604051630debfda360e41b81526001600160a01b0385811660048301529091169063debfda3090602401602060405180830381865afa1580156120d4573d6000803e3d6000fd5b505050506040513d601f19601f820116820180604052508101906120f89190613bac565b9392505050565b612107612319565b610d798263e68f3fbf60e01b83612354565b6121216123b8565b15610e855761212e6123ee565b610d7982637800a11f60e01b83612354565b6121486123b8565b15611906576121556123ee565b61143483838360405160240161216c929190613c19565b60408051601f198184030181529190526020810180516001600160e01b0316636a59860960e01b179052612709565b6121a3612319565b604051602481018390526044810182905261143490849060640160408051601f198184030181529190526020810180516001600160e01b0316633479125d60e11b179052612709565b6121f4612319565b610d798263f6a494af60e01b83612566565b61220e612319565b610d79828280806020026020016040519081016040528093929190818152602001838360200280828437600092019190915250506040805160048152602481019091526020810180516001600160e01b0316635710019160e11b17905291506127099050565b61227c612319565b600080516020613d528339815191528054600160a81b900460ff16156122b5576040516339511f6160e11b815260040160405180910390fd5b6001810180546001600160a01b03191690558054600160a81b60ff60a81b1982161782556040516001600160a01b0390911681527f83af113638b5422f9e977cebc0aaf0eaf2188eb9a8baae7f9d46c42b33a1560c9060200160405180910390a150565b612321611614565b6001600160a01b0316336001600160a01b031614612352576040516354348f0360e01b815260040160405180910390fd5b565b61143483838360405160240161236c91815260200190565b60408051601f198184030181529190526020810180516001600160e01b03166001600160e01b031990931692909217909152612709565b60006120f8836001600160a01b038416612bbc565b600080516020613d52833981519152805460009190600160b01b900460ff16806116b7575054600160a81b900460ff1615919050565b600080516020613d528339815191528054600160b01b900460ff161561242a5733301461241d5761241d613c3d565b805460ff60b01b19169055565b6112d2612319565b600080516020613d52833981519152612449612319565b6000848460405161245b92919061385e565b604080519182900382208454636221a54b60e01b845291519093506000926001600160a01b0390921691636221a54b9160048083019260209291908290030181865afa1580156124af573d6000803e3d6000fd5b505050506040513d601f19601f820116820180604052508101906124d39190613c53565b9050838110156124e05750825b60006124ec82426138ad565b600084815260028601602052604090819020829055519091507f8c02104dfc280f713854f25297de671710c544c58de69dbde8fb66974ce1ab9e90612538908990899087908690613c6c565b60405180910390a150505050505050565b3d604051818101604052816000823e8215612562578181f35b8181fd5b6040516001600160a01b0382166024820152611434908490849060440161236c565b6000600080516020613d0b83398151915261177b565b7f4910fdfa16fed3260ed0e7147f7cc6da11a60208b5b9406d12a635614ffd91435460ff16156125d15761143483612caf565b826001600160a01b03166352d1902d6040518163ffffffff1660e01b8152600401602060405180830381865afa92505050801561262b575060408051601f3d908101601f1916820190925261262891810190613c53565b60015b61268e5760405162461bcd60e51b815260206004820152602e60248201527f45524331393637557067726164653a206e657720696d706c656d656e7461746960448201526d6f6e206973206e6f74205555505360901b6064820152608401611332565b600080516020613d0b83398151915281146126fd5760405162461bcd60e51b815260206004820152602960248201527f45524331393637557067726164653a20756e737570706f727465642070726f786044820152681a58589b195555525160ba1b6064820152608401611332565b50611434838383612d4b565b60005b825181101561143457600083828151811061272957612729613897565b6020026020010151905060016000826001600160a01b03166001600160a01b031681526020019081526020016000205460000361277957604051635894060560e01b815260040160405180910390fd5b6127838184612d70565b505060010161270c565b6000612797611614565b6001600160a01b0316336001600160a01b031614905080806127bf57506127bf600333612db4565b6127dc5760405163ad0e0a7960e01b815260040160405180910390fd5b6112bf848483856040516024016127f593929190613c93565b60408051601f198184030181529190526020810180516001600160e01b0316636d92c6ad60e11b179052612709565b606060006120f883612dd6565b600080826040516020016128459190613cbb565b6040516020818303038152906040528051906020012090506000805b86518110156128b35786818151811061287c5761287c613897565b602002602001015183036128ab5785818151811061289c5761289c613897565b602002602001015191506128b3565b600101612861565b506001600160a01b0381166128db5760405163e6ee175560e01b815260040160405180910390fd5b95945050505050565b600061291783836040518060400160405280600e81526020016d20b2323932b9b9aab83230ba32b960911b815250612831565b9050600061295484846040518060400160405280601681526020017520b9b9b2ba26b0b730b3b2b921b7b73a3937b63632b960511b815250612831565b9050600061297f85856040518060400160405280600481526020016315d3985d60e21b815250612831565b905061172e60028054806020026020016040519081016040528092919081815260200182805480156129da57602002820191906000526020600020905b81546001600160a01b031681526001909101906020018083116129bc575b5050505050848484612af9565b600080516020613d528339815191528054600160a01b900460ff1615612a205760405163b2f0162160e01b815260040160405180910390fd5b6001600160a01b038316612a47576040516334ab92fb60e11b815260040160405180910390fd5b6001600160a01b038216612a6e576040516334ab92fb60e11b815260040160405180910390fd5b80546001600160a01b038481166001600160a81b031990921691909117600160a01b1782556001820180549184166001600160a01b0319909216821790556040519081527f9789733827840833afc031fb2ef9ab6894271f77bad2085687cf4ae5c7bee4db9060200160405180910390a1505050565b60006120f8836001600160a01b038416612e32565b600080516020613ceb833981519152546001600160a01b0316836001600160a01b031614612b3757612b3783600080516020613ceb83398151915255565b6040516001600160a01b03808416602483015282166044820152612b8990859060640160408051601f198184030181529190526020810180516001600160e01b0316636075765d60e01b179052612709565b6001600160a01b03821630146112bf57600080546001600160a01b0384166001600160a01b031990911617905550505050565b60008181526001830160205260408120548015612ca5576000612be0600183613884565b8554909150600090612bf490600190613884565b9050818114612c59576000866000018281548110612c1457612c14613897565b9060005260206000200154905080876000018481548110612c3757612c37613897565b6000918252602080832090910192909255918252600188019052604090208390555b8554869080612c6a57612c6a6138c0565b600190038181906000526020600020016000905590558560010160008681526020019081526020016000206000905560019350505050610d59565b6000915050610d59565b6001600160a01b0381163b612d1c5760405162461bcd60e51b815260206004820152602d60248201527f455243313936373a206e657720696d706c656d656e746174696f6e206973206e60448201526c1bdd08184818dbdb9d1c9858dd609a1b6064820152608401611332565b600080516020613d0b83398151915280546001600160a01b0319166001600160a01b0392909216919091179055565b612d5483612e81565b600082511180612d615750805b15611434576112bf8383612ec1565b60606120f8838360006040518060400160405280601e81526020017f416464726573733a206c6f772d6c6576656c2063616c6c206661696c65640000815250612ee6565b6001600160a01b038116600090815260018301602052604081205415156120f8565b606081600001805480602002602001604051908101604052809291908181526020018280548015612e2657602002820191906000526020600020905b815481526020019060010190808311612e12575b50505050509050919050565b6000818152600183016020526040812054612e7957508154600181810184556000848152602080822090930184905584548482528286019093526040902091909155610d59565b506000610d59565b612e8a81612caf565b6040516001600160a01b038216907fbc7cd75a20ee27fd9adebab32041f755214dbc6bffa90cc0225b39da2e5c2d3b90600090a250565b60606120f88383604051806060016040528060278152602001613d2b60279139612fc3565b606082471015612f475760405162461bcd60e51b815260206004820152602660248201527f416464726573733a20696e73756666696369656e742062616c616e636520666f6044820152651c8818d85b1b60d21b6064820152608401611332565b600080866001600160a01b03168587604051612f639190613cce565b60006040518083038185875af1925050503d8060008114612fa0576040519150601f19603f3d011682016040523d82523d6000602084013e612fa5565b606091505b5091509150612fb68783838761303b565b925050505b949350505050565b6060600080856001600160a01b031685604051612fe09190613cce565b600060405180830381855af49150503d806000811461301b576040519150601f19603f3d011682016040523d82523d6000602084013e613020565b606091505b50915091506130318683838761303b565b9695505050505050565b606083156130aa5782516000036130a3576001600160a01b0385163b6130a35760405162461bcd60e51b815260206004820152601d60248201527f416464726573733a2063616c6c20746f206e6f6e2d636f6e74726163740000006044820152606401611332565b5081612fbb565b612fbb83838151156130bf5781518083602001fd5b8060405162461bcd60e51b81526004016113329190613cbb565b6000602082840312156130eb57600080fd5b81356001600160e01b0319811681146120f857600080fd5b634e487b7160e01b600052604160045260246000fd5b604051601f8201601f191681016001600160401b038111828210171561314157613141613103565b604052919050565b60006001600160401b0382111561316257613162613103565b5060051b60200190565b6001600160a01b03811681146112d257600080fd5b600082601f83011261319257600080fd5b81356131a56131a082613149565b613119565b8082825260208201915060208360051b8601019250858311156131c757600080fd5b602085015b838110156131ed5780356131df8161316c565b8352602092830192016131cc565b5095945050505050565b6000806040838503121561320a57600080fd5b82356001600160401b0381111561322057600080fd5b61322c85828601613181565b95602094909401359450505050565b6000806020838503121561324e57600080fd5b82356001600160401b0381111561326457600080fd5b8301601f8101851361327557600080fd5b80356001600160401b0381111561328b57600080fd5b85602082840101111561329d57600080fd5b6020919091019590945092505050565b6000602082840312156132bf57600080fd5b81356120f88161316c565b600080604083850312156132dd57600080fd5b82356001600160401b038111156132f357600080fd5b6132ff85828601613181565b92505060208301356133108161316c565b809150509250929050565b60008060006060848603121561333057600080fd5b83356001600160401b0381111561334657600080fd5b61335286828701613181565b9660208601359650604090950135949350505050565b600082601f83011261337957600080fd5b81356001600160401b0381111561339257613392613103565b6133a5601f8201601f1916602001613119565b8181528460208386010111156133ba57600080fd5b816020850160208301376000918101602001919091529392505050565b600080604083850312156133ea57600080fd5b82356133f58161316c565b915060208301356001600160401b0381111561341057600080fd5b61341c85828601613368565b9150509250929050565b60006020828403121561343857600080fd5b81356001600160401b0381111561344e57600080fd5b612fbb84828501613181565b80356003811061346957600080fd5b919050565b80356134698161316c565b600080600080600060a0868803121561349157600080fd5b85356001600160401b038111156134a757600080fd5b6134b388828901613181565b9550506134c26020870161345a565b935060408601356134d28161316c565b94979396509394606081013594506080013592915050565b600080602083850312156134fd57600080fd5b82356001600160401b0381111561351357600080fd5b8301601f8101851361352457600080fd5b80356001600160401b0381111561353a57600080fd5b8560208260051b840101111561329d57600080fd5b6000806040838503121561356257600080fd5b82356001600160401b0381111561357857600080fd5b61358485828601613181565b92505060208301356001600160401b038111156135a057600080fd5b8301610120818603121561331057600080fd5b600082601f8301126135c457600080fd5b81356135d26131a082613149565b8082825260208201915060208360051b8601019250858311156135f457600080fd5b602085015b838110156131ed5780358352602092830192016135f9565b60008060006060848603121561362657600080fd5b83356001600160401b0381111561363c57600080fd5b61364886828701613181565b93505060208401356001600160401b0381111561366457600080fd5b613670868287016135b3565b92505060408401356001600160401b0381111561368c57600080fd5b613698868287016135b3565b9150509250925092565b602080825282518282018190526000918401906040840190835b818110156136e35783516001600160a01b03168352602093840193909201916001016136bc565b509095945050505050565b6000806040838503121561370157600080fd5b82356001600160401b0381111561371757600080fd5b8301601f8101851361372857600080fd5b80356137366131a082613149565b8082825260208201915060208360051b85010192508783111561375857600080fd5b6020840193505b8284101561377a57833582526020938401939091019061375f565b945050505060208301356001600160401b0381111561379857600080fd5b61341c85828601613181565b6000806000606084860312156137b957600080fd5b83356137c48161316c565b925060208401356137d48161316c565b915060408401356137e48161316c565b809150509250925092565b60008060006060848603121561380457600080fd5b83356001600160401b0381111561381a57600080fd5b61382686828701613181565b93505060208401356138378161316c565b915060408401356001600160401b0381111561385257600080fd5b61369886828701613368565b8183823760009101908152919050565b634e487b7160e01b600052601160045260246000fd5b81810381811115610d5957610d5961386e565b634e487b7160e01b600052603260045260246000fd5b80820180821115610d5957610d5961386e565b634e487b7160e01b600052603160045260246000fd5b6000602082840312156138e857600080fd5b81516120f88161316c565b6020808252602c908201527f46756e6374696f6e206d7573742062652063616c6c6564207468726f7567682060408201526b19195b1959d85d1958d85b1b60a21b606082015260800190565b6020808252602c908201527f46756e6374696f6e206d7573742062652063616c6c6564207468726f7567682060408201526b6163746976652070726f787960a01b606082015260800190565b634e487b7160e01b600052602160045260246000fd5b600381106139b1576139b161398b565b9052565b608081016139c382876139a1565b6001600160a01b039490941660208201526040810192909252606090910152919050565b80151581146112d257600080fd5b8035613469816139e7565b6000808335601e19843603018112613a1757600080fd5b83016020810192503590506001600160401b03811115613a3657600080fd5b803603821315613a4557600080fd5b9250929050565b81835281816020850137506000828201602090810191909152601f909101601f19169091010190565b60208152613a8e60208201613a898461345a565b6139a1565b6000613a9c6020840161346e565b6001600160a01b0381166040840152506040830135606083810191909152830135608080840191909152613ad19084016139f5565b80151560a084015250613ae760a0840184613a00565b61012060c0850152613afe61014085018284613a4c565b915050613b0e60c0850185613a00565b848303601f190160e0860152613b25838284613a4c565b60e087013561010087810191909152909601356101209095019490945250929392505050565b600081518084526020840193506020830160005b82811015613b7d578151865260209586019590910190600101613b5f565b5093949350505050565b604081526000613b9a6040830185613b4b565b82810360208401526128db8185613b4b565b600060208284031215613bbe57600080fd5b81516120f8816139e7565b60005b83811015613be4578181015183820152602001613bcc565b50506000910152565b60008151808452613c05816020860160208601613bc9565b601f01601f19169290920160200192915050565b6001600160a01b0383168152604060208201819052600090612fbb90830184613bed565b634e487b7160e01b600052600160045260246000fd5b600060208284031215613c6557600080fd5b5051919050565b606081526000613c80606083018688613a4c565b6020830194909452506040015292915050565b6060810160048510613ca757613ca761398b565b938152911515602083015260409091015290565b6020815260006120f86020830184613bed565b60008251613ce0818460208701613bc9565b919091019291505056fe714f205b2abd25bef1d06a1af944e38c113fe6160375c4e1d6d5cf28848e7719360894a13ba1a3210667c828492db98dca3e2076cc3735a920a3ca505d382bbc416464726573733a206c6f772d6c6576656c2064656c65676174652063616c6c206661696c65642aa47ee5db910f3b2a06970c443249cc77dbd9f96100cfebc1775ab7fb1d1824a2646970667358221220f436575629d26d1982d4682182bd7c617fde8007537074dee0956a35845e501264736f6c634300081b0033",
  "linkReferences": {},
  "deployedLinkReferences": {}
}