{
  "_format": "hh-sol-artifact-1",
  "contractName": "AssetManagerController",
  "sourceName": "contracts/assetManagerController/implementation/AssetManagerController.sol",
  "abi": [
    {
      "inputs": [],
      "stateMutability": "nonpayable",
      "type": "constructor"
    },
    {
      "inputs": [],
      "name": "AUAddressZero",
      "type": "error"
    },
    {
      "inputs": [],
      "name": "AddressZero",
      "type": "error"
    },
    {
      "inputs": [],
      "name": "AlreadyInProductionMode",
      "type": "error"
    },
    {
      "inputs": [],
      "name": "AssetManagerNotManaged",
      "type": "error"
    },
    {
      "inputs": [],
      "name": "GovernedAddressZero",
      "type": "error"
    },
    {
      "inputs": [],
      "name": "GovernedAlreadyInitialized",
      "type": "error"
    },
    {
      "inputs": [],
      "name": "OnlyAddressUpdater",
      "type": "error"
    },
    {
      "inputs": [],
      "name": "OnlyExecutor",
      "type": "error"
    },
    {
      "inputs": [],
      "name": "OnlyGovernance",
      "type": "error"
    },
    {
      "inputs": [],
      "name": "OnlyGovernanceOrEmergencyPauseSenders",
      "type": "error"
    },
    {
      "inputs": [],
      "name": "TimelockInvalidSelector",
      "type": "error"
    },
    {
      "inputs": [],
      "name": "TimelockNotAllowedYet",
      "type": "error"
    },
    {
      "anonymous": false,
      "inputs": [
        {
          "indexed": false,
          "internalType": "address",
          "name": "previousAdmin",
          "type": "address"
        },
        {
          "indexed": false,
          "internalType": "address",
          "name": "newAdmin",
          "type": "address"
        }
      ],
      "name": "AdminChanged",
      "type": "event"
    },
    {
      "anonymous": false,
      "inputs": [
        {
          "indexed": true,
          "internalType": "address",
          "name": "beacon",
          "type": "address"
        }
      ],
      "name": "BeaconUpgraded",
      "type": "event"
    },
    {
      "anonymous": false,
      "inputs": [
        {
          "indexed": false,
          "internalType": "bytes",
          "name": "encodedCall",
          "type": "bytes"
        },
        {
          "indexed": false,
          "internalType": "bytes32",
          "name": "encodedCallHash",
          "type": "bytes32"
        },
        {
          "indexed": false,
          "internalType": "uint256",
          "name": "allowedAfterTimestamp",
          "type": "uint256"
        }
      ],
      "name": "GovernanceCallTimelocked",
      "type": "event"
    },
    {
      "anonymous": false,
      "inputs": [
        {
          "indexed": false,
          "internalType": "address",
          "name": "initialGovernance",
          "type": "address"
        }
      ],
      "name": "GovernanceInitialised",
      "type": "event"
    },
    {
      "anonymous": false,
      "inputs": [
        {
          "indexed": false,
          "internalType": "address",
          "name": "governanceSettings",
          "type": "address"
        }
      ],
      "name": "GovernedProductionModeEntered",
      "type": "event"
    },
    {
      "anonymous": false,
      "inputs": [
        {
          "indexed": false,
          "internalType": "bytes32",
          "name": "encodedCallHash",
          "type": "bytes32"
        }
      ],
      "name": "TimelockedGovernanceCallCanceled",
      "type": "event"
    },
    {
      "anonymous": false,
      "inputs": [
        {
          "indexed": false,
          "internalType": "bytes32",
          "name": "encodedCallHash",
          "type": "bytes32"
        }
      ],
      "name": "TimelockedGovernanceCallExecuted",
      "type": "event"
    },
    {
      "anonymous": false,
      "inputs": [
        {
          "indexed": true,
          "internalType": "address",
          "name": "implementation",
          "type": "address"
        }
      ],
      "name": "Upgraded",
      "type": "event"
    },
    {
      "inputs": [
        {
          "internalType": "contract IIAssetManager",
          "name": "_assetManager",
          "type": "address"
        }
      ],
      "name": "addAssetManager",
      "outputs": [],
      "stateMutability": "nonpayable",
      "type": "function"
    },
    {
      "inputs": [
        {
          "internalType": "contract IIAssetManager[]",
          "name": "_assetManagers",
          "type": "address[]"
        },
        {
          "components": [
            {
              "internalType": "enum CollateralType.Class",
              "name": "collateralClass",
              "type": "uint8"
            },
            {
              "internalType": "contract IERC20",
              "name": "token",
              "type": "address"
            },
            {
              "internalType": "uint256",
              "name": "decimals",
              "type": "uint256"
            },
            {
              "internalType": "uint256",
              "name": "validUntil",
              "type": "uint256"
            },
            {
              "internalType": "bool",
              "name": "directPricePair",
              "type": "bool"
            },
            {
              "internalType": "string",
              "name": "assetFtsoSymbol",
              "type": "string"
            },
            {
              "internalType": "string",
              "name": "tokenFtsoSymbol",
              "type": "string"
            },
            {
              "internalType": "uint256",
              "name": "minCollateralRatioBIPS",
              "type": "uint256"
            },
            {
              "internalType": "uint256",
              "name": "safetyMinCollateralRatioBIPS",
              "type": "uint256"
            }
          ],
          "internalType": "struct CollateralType.Data",
          "name": "_data",
          "type": "tuple"
        }
      ],
      "name": "addCollateralType",
      "outputs": [],
      "stateMutability": "nonpayable",
      "type": "function"
    },
    {
      "inputs": [
        {
          "internalType": "address",
          "name": "_address",
          "type": "address"
        }
      ],
      "name": "addEmergencyPauseSender",
      "outputs": [],
      "stateMutability": "nonpayable",
      "type": "function"
    },
    {
      "inputs": [
        {
          "internalType": "address",
          "name": "_assetManager",
          "type": "address"
        }
      ],
      "name": "assetManagerExists",
      "outputs": [
        {
          "internalType": "bool",
          "name": "",
          "type": "bool"
        }
      ],
      "stateMutability": "view",
      "type": "function"
    },
    {
      "inputs": [
        {
          "internalType": "contract IIAssetManager[]",
          "name": "_assetManagers",
          "type": "address[]"
        }
      ],
      "name": "cancelEmergencyPause",
      "outputs": [],
      "stateMutability": "nonpayable",
      "type": "function"
    },
    {
      "inputs": [
        {
          "internalType": "contract IIAssetManager[]",
          "name": "_assetManagers",
          "type": "address[]"
        }
      ],
      "name": "cancelExternalEmergencyPause",
      "outputs": [],
      "stateMutability": "nonpayable",
      "type": "function"
    },
    {
      "inputs": [
        {
          "internalType": "bytes",
          "name": "_encodedCall",
          "type": "bytes"
        }
      ],
      "name": "cancelGovernanceCall",
      "outputs": [],
      "stateMutability": "nonpayable",
      "type": "function"
    },
    {
      "inputs": [
        {
          "internalType": "contract IIAssetManager[]",
          "name": "_assetManagers",
          "type": "address[]"
        },
        {
          "internalType": "uint256",
          "name": "_duration",
          "type": "uint256"
        }
      ],
      "name": "emergencyPauseFull",
      "outputs": [],
      "stateMutability": "nonpayable",
      "type": "function"
    },
    {
      "inputs": [
        {
          "internalType": "contract IIAssetManager[]",
          "name": "_assetManagers",
          "type": "address[]"
        },
        {
          "internalType": "uint256",
          "name": "_duration",
          "type": "uint256"
        }
      ],
      "name": "emergencyPauseFullAndTransfer",
      "outputs": [],
      "stateMutability": "nonpayable",
      "type": "function"
    },
    {
      "inputs": [
        {
          "internalType": "contract IIAssetManager[]",
          "name": "_assetManagers",
          "type": "address[]"
        },
        {
          "internalType": "uint256",
          "name": "_duration",
          "type": "uint256"
        }
      ],
      "name": "emergencyPauseStartOperations",
      "outputs": [],
      "stateMutability": "nonpayable",
      "type": "function"
    },
    {
      "inputs": [
        {
          "internalType": "bytes",
          "name": "_encodedCall",
          "type": "bytes"
        }
      ],
      "name": "executeGovernanceCall",
      "outputs": [],
      "stateMutability": "nonpayable",
      "type": "function"
    },
    {
      "inputs": [],
      "name": "getAddressUpdater",
      "outputs": [
        {
          "internalType": "address",
          "name": "_addressUpdater",
          "type": "address"
        }
      ],
      "stateMutability": "view",
      "type": "function"
    },
    {
      "inputs": [],
      "name": "getAssetManagers",
      "outputs": [
        {
          "internalType": "contract IAssetManager[]",
          "name": "_assetManagers",
          "type": "address[]"
        }
      ],
      "stateMutability": "view",
      "type": "function"
    },
    {
      "inputs": [],
      "name": "getEmergencyPauseSenders",
      "outputs": [
        {
          "internalType": "address[]",
          "name": "",
          "type": "address[]"
        }
      ],
      "stateMutability": "view",
      "type": "function"
    },
    {
      "inputs": [],
      "name": "governance",
      "outputs": [
        {
          "internalType": "address",
          "name": "",
          "type": "address"
        }
      ],
      "stateMutability": "view",
      "type": "function"
    },
    {
      "inputs": [],
      "name": "governanceSettings",
      "outputs": [
        {
          "internalType": "contract IGovernanceSettings",
          "name": "",
          "type": "address"
        }
      ],
      "stateMutability": "view",
      "type": "function"
    },
    {
      "inputs": [
        {
          "internalType": "contract IGovernanceSettings",
          "name": "_governanceSettings",
          "type": "address"
        },
        {
          "internalType": "address",
          "name": "_initialGovernance",
          "type": "address"
        },
        {
          "internalType": "address",
          "name": "_addressUpdater",
          "type": "address"
        }
      ],
      "name": "initialize",
      "outputs": [],
      "stateMutability": "nonpayable",
      "type": "function"
    },
    {
      "inputs": [
        {
          "internalType": "address",
          "name": "_address",
          "type": "address"
        }
      ],
      "name": "isExecutor",
      "outputs": [
        {
          "internalType": "bool",
          "name": "",
          "type": "bool"
        }
      ],
      "stateMutability": "view",
      "type": "function"
    },
    {
      "inputs": [
        {
          "internalType": "contract IIAssetManager[]",
          "name": "_assetManagers",
          "type": "address[]"
        }
      ],
      "name": "pauseMinting",
      "outputs": [],
      "stateMutability": "nonpayable",
      "type": "function"
    },
    {
      "inputs": [],
      "name": "productionMode",
      "outputs": [
        {
          "internalType": "bool",
          "name": "",
          "type": "bool"
        }
      ],
      "stateMutability": "view",
      "type": "function"
    },
    {
      "inputs": [],
      "name": "proxiableUUID",
      "outputs": [
        {
          "internalType": "bytes32",
          "name": "",
          "type": "bytes32"
        }
      ],
      "stateMutability": "view",
      "type": "function"
    },
    {
      "inputs": [
        {
          "internalType": "contract IIAssetManager",
          "name": "_assetManager",
          "type": "address"
        }
      ],
      "name": "removeAssetManager",
      "outputs": [],
      "stateMutability": "nonpayable",
      "type": "function"
    },
    {
      "inputs": [
        {
          "internalType": "address",
          "name": "_address",
          "type": "address"
        }
      ],
      "name": "removeEmergencyPauseSender",
      "outputs": [],
      "stateMutability": "nonpayable",
      "type": "function"
    },
    {
      "inputs": [],
      "name": "replacedBy",
      "outputs": [
        {
          "internalType": "address",
          "name": "",
          "type": "address"
        }
      ],
      "stateMutability": "view",
      "type": "function"
    },
    {
      "inputs": [
        {
          "internalType": "contract IIAssetManager[]",
          "name": "_assetManagers",
          "type": "address[]"
        }
      ],
      "name": "resetEmergencyPauseTotalDuration",
      "outputs": [],
      "stateMutability": "nonpayable",
      "type": "function"
    },
    {
      "inputs": [
        {
          "internalType": "contract IIAssetManager[]",
          "name": "_assetManagers",
          "type": "address[]"
        },
        {
          "internalType": "uint256",
          "name": "_value",
          "type": "uint256"
        }
      ],
      "name": "setAgentExitAvailableTimelockSeconds",
      "outputs": [],
      "stateMutability": "nonpayable",
      "type": "function"
    },
    {
      "inputs": [
        {
          "internalType": "contract IIAssetManager[]",
          "name": "_assetManagers",
          "type": "address[]"
        },
        {
          "internalType": "uint256",
          "name": "_value",
          "type": "uint256"
        }
      ],
      "name": "setAgentFeeChangeTimelockSeconds",
      "outputs": [],
      "stateMutability": "nonpayable",
      "type": "function"
    },
    {
      "inputs": [
        {
          "internalType": "contract IIAssetManager[]",
          "name": "_assetManagers",
          "type": "address[]"
        },
        {
          "internalType": "uint256",
          "name": "_value",
          "type": "uint256"
        }
      ],
      "name": "setAgentMintingCRChangeTimelockSeconds",
      "outputs": [],
      "stateMutability": "nonpayable",
      "type": "function"
    },
    {
      "inputs": [
        {
          "internalType": "contract IIAssetManager[]",
          "name": "_assetManagers",
          "type": "address[]"
        },
        {
          "internalType": "address",
          "name": "_value",
          "type": "address"
        }
      ],
      "name": "setAgentOwnerRegistry",
      "outputs": [],
      "stateMutability": "nonpayable",
      "type": "function"
    },
    {
      "inputs": [
        {
          "internalType": "contract IIAssetManager[]",
          "name": "_assetManagers",
          "type": "address[]"
        },
        {
          "internalType": "uint256",
          "name": "_value",
          "type": "uint256"
        }
      ],
      "name": "setAgentTimelockedOperationWindowSeconds",
      "outputs": [],
      "stateMutability": "nonpayable",
      "type": "function"
    },
    {
      "inputs": [
        {
          "internalType": "contract IIAssetManager[]",
          "name": "_assetManagers",
          "type": "address[]"
        },
        {
          "internalType": "address",
          "name": "_value",
          "type": "address"
        }
      ],
      "name": "setAgentVaultFactory",
      "outputs": [],
      "stateMutability": "nonpayable",
      "type": "function"
    },
    {
      "inputs": [
        {
          "internalType": "contract IIAssetManager[]",
          "name": "_assetManagers",
          "type": "address[]"
        },
        {
          "internalType": "uint256",
          "name": "_value",
          "type": "uint256"
        }
      ],
      "name": "setAttestationWindowSeconds",
      "outputs": [],
      "stateMutability": "nonpayable",
      "type": "function"
    },
    {
      "inputs": [
        {
          "internalType": "contract IIAssetManager[]",
          "name": "_assetManagers",
          "type": "address[]"
        },
        {
          "internalType": "uint256",
          "name": "_value",
          "type": "uint256"
        }
      ],
      "name": "setAverageBlockTimeMS",
      "outputs": [],
      "stateMutability": "nonpayable",
      "type": "function"
    },
    {
      "inputs": [
        {
          "internalType": "contract IIAssetManager[]",
          "name": "_assetManagers",
          "type": "address[]"
        },
        {
          "internalType": "address",
          "name": "_value",
          "type": "address"
        }
      ],
      "name": "setCleanerContract",
      "outputs": [],
      "stateMutability": "nonpayable",
      "type": "function"
    },
    {
      "inputs": [
        {
          "internalType": "contract IIAssetManager[]",
          "name": "_assetManagers",
          "type": "address[]"
        },
        {
          "internalType": "address",
          "name": "_value",
          "type": "address"
        }
      ],
      "name": "setCleanupBlockNumberManager",
      "outputs": [],
      "stateMutability": "nonpayable",
      "type": "function"
    },
    {
      "inputs": [
        {
          "internalType": "contract IIAssetManager[]",
          "name": "_assetManagers",
          "type": "address[]"
        },
        {
          "internalType": "address",
          "name": "_value",
          "type": "address"
        }
      ],
      "name": "setCollateralPoolFactory",
      "outputs": [],
      "stateMutability": "nonpayable",
      "type": "function"
    },
    {
      "inputs": [
        {
          "internalType": "contract IIAssetManager[]",
          "name": "_assetManagers",
          "type": "address[]"
        },
        {
          "internalType": "address",
          "name": "_value",
          "type": "address"
        }
      ],
      "name": "setCollateralPoolTokenFactory",
      "outputs": [],
      "stateMutability": "nonpayable",
      "type": "function"
    },
    {
      "inputs": [
        {
          "internalType": "contract IIAssetManager[]",
          "name": "_assetManagers",
          "type": "address[]"
        },
        {
          "internalType": "uint256",
          "name": "_value",
          "type": "uint256"
        }
      ],
      "name": "setCollateralPoolTokenTimelockSeconds",
      "outputs": [],
      "stateMutability": "nonpayable",
      "type": "function"
    },
    {
      "inputs": [
        {
          "internalType": "contract IIAssetManager[]",
          "name": "_assetManagers",
          "type": "address[]"
        },
        {
          "internalType": "enum CollateralType.Class",
          "name": "_class",
          "type": "uint8"
        },
        {
          "internalType": "contract IERC20",
          "name": "_token",
          "type": "address"
        },
        {
          "internalType": "uint256",
          "name": "_minCollateralRatioBIPS",
          "type": "uint256"
        },
        {
          "internalType": "uint256",
          "name": "_safetyMinCollateralRatioBIPS",
          "type": "uint256"
        }
      ],
      "name": "setCollateralRatiosForToken",
      "outputs": [],
      "stateMutability": "nonpayable",
      "type": "function"
    },
    {
      "inputs": [
        {
          "internalType": "contract IIAssetManager[]",
          "name": "_assetManagers",
          "type": "address[]"
        },
        {
          "internalType": "uint256",
          "name": "_value",
          "type": "uint256"
        }
      ],
      "name": "setCollateralReservationFeeBips",
      "outputs": [],
      "stateMutability": "nonpayable",
      "type": "function"
    },
    {
      "inputs": [
        {
          "internalType": "contract IIAssetManager[]",
          "name": "_assetManagers",
          "type": "address[]"
        },
        {
          "internalType": "uint256",
          "name": "_value",
          "type": "uint256"
        }
      ],
      "name": "setConfirmationByOthersAfterSeconds",
      "outputs": [],
      "stateMutability": "nonpayable",
      "type": "function"
    },
    {
      "inputs": [
        {
          "internalType": "contract IIAssetManager[]",
          "name": "_assetManagers",
          "type": "address[]"
        },
        {
          "internalType": "uint256",
          "name": "_value",
          "type": "uint256"
        }
      ],
      "name": "setConfirmationByOthersRewardUSD5",
      "outputs": [],
      "stateMutability": "nonpayable",
      "type": "function"
    },
    {
      "inputs": [
        {
          "internalType": "contract IIAssetManager[]",
          "name": "_assetManagers",
          "type": "address[]"
        },
        {
          "internalType": "uint256",
          "name": "_value",
          "type": "uint256"
        }
      ],
      "name": "setEmergencyPauseDurationResetAfterSeconds",
      "outputs": [],
      "stateMutability": "nonpayable",
      "type": "function"
    },
    {
      "inputs": [
        {
          "internalType": "contract IIAssetManager[]",
          "name": "_assetManagers",
          "type": "address[]"
        },
        {
          "internalType": "address",
          "name": "_value",
          "type": "address"
        }
      ],
      "name": "setFdcVerification",
      "outputs": [],
      "stateMutability": "nonpayable",
      "type": "function"
    },
    {
      "inputs": [
        {
          "internalType": "contract IIAssetManager[]",
          "name": "_assetManagers",
          "type": "address[]"
        },
        {
          "internalType": "uint256[]",
          "name": "_paymentFactors",
          "type": "uint256[]"
        },
        {
          "internalType": "uint256[]",
          "name": "_vaultCollateralFactors",
          "type": "uint256[]"
        }
      ],
      "name": "setLiquidationPaymentFactors",
      "outputs": [],
      "stateMutability": "nonpayable",
      "type": "function"
    },
    {
      "inputs": [
        {
          "internalType": "contract IIAssetManager[]",
          "name": "_assetManagers",
          "type": "address[]"
        },
        {
          "internalType": "uint256",
          "name": "_value",
          "type": "uint256"
        }
      ],
      "name": "setLiquidationStepSeconds",
      "outputs": [],
      "stateMutability": "nonpayable",
      "type": "function"
    },
    {
      "inputs": [
        {
          "internalType": "contract IIAssetManager[]",
          "name": "_assetManagers",
          "type": "address[]"
        },
        {
          "internalType": "uint256",
          "name": "_value",
          "type": "uint256"
        }
      ],
      "name": "setLotSizeAmg",
      "outputs": [],
      "stateMutability": "nonpayable",
      "type": "function"
    },
    {
      "inputs": [
        {
          "internalType": "contract IIAssetManager[]",
          "name": "_assetManagers",
          "type": "address[]"
        },
        {
          "internalType": "uint256",
          "name": "_value",
          "type": "uint256"
        }
      ],
      "name": "setMaxEmergencyPauseDurationSeconds",
      "outputs": [],
      "stateMutability": "nonpayable",
      "type": "function"
    },
    {
      "inputs": [
        {
          "internalType": "contract IIAssetManager[]",
          "name": "_assetManagers",
          "type": "address[]"
        },
        {
          "internalType": "uint256",
          "name": "_value",
          "type": "uint256"
        }
      ],
      "name": "setMaxRedeemedTickets",
      "outputs": [],
      "stateMutability": "nonpayable",
      "type": "function"
    },
    {
      "inputs": [
        {
          "internalType": "contract IIAssetManager[]",
          "name": "_assetManagers",
          "type": "address[]"
        },
        {
          "internalType": "uint256",
          "name": "_value",
          "type": "uint256"
        }
      ],
      "name": "setMaxTrustedPriceAgeSeconds",
      "outputs": [],
      "stateMutability": "nonpayable",
      "type": "function"
    },
    {
      "inputs": [
        {
          "internalType": "contract IIAssetManager[]",
          "name": "_assetManagers",
          "type": "address[]"
        },
        {
          "internalType": "uint256",
          "name": "_value",
          "type": "uint256"
        }
      ],
      "name": "setMinUpdateRepeatTimeSeconds",
      "outputs": [],
      "stateMutability": "nonpayable",
      "type": "function"
    },
    {
      "inputs": [
        {
          "internalType": "contract IIAssetManager[]",
          "name": "_assetManagers",
          "type": "address[]"
        },
        {
          "internalType": "uint256",
          "name": "_value",
          "type": "uint256"
        }
      ],
      "name": "setMintingCapAmg",
      "outputs": [],
      "stateMutability": "nonpayable",
      "type": "function"
    },
    {
      "inputs": [
        {
          "internalType": "contract IIAssetManager[]",
          "name": "_assetManagers",
          "type": "address[]"
        },
        {
          "internalType": "uint256",
          "name": "_value",
          "type": "uint256"
        }
      ],
      "name": "setMintingPoolHoldingsRequiredBIPS",
      "outputs": [],
      "stateMutability": "nonpayable",
      "type": "function"
    },
    {
      "inputs": [
        {
          "internalType": "contract IIAssetManager[]",
          "name": "_assetManagers",
          "type": "address[]"
        },
        {
          "internalType": "uint256",
          "name": "_rewardVaultCollateralUSD5",
          "type": "uint256"
        },
        {
          "internalType": "uint256",
          "name": "_rewardBIPS",
          "type": "uint256"
        }
      ],
      "name": "setPaymentChallengeReward",
      "outputs": [],
      "stateMutability": "nonpayable",
      "type": "function"
    },
    {
      "inputs": [
        {
          "internalType": "contract IIAssetManager[]",
          "name": "_assetManagers",
          "type": "address[]"
        },
        {
          "internalType": "uint256",
          "name": "_value",
          "type": "uint256"
        }
      ],
      "name": "setPoolExitCRChangeTimelockSeconds",
      "outputs": [],
      "stateMutability": "nonpayable",
      "type": "function"
    },
    {
      "inputs": [
        {
          "internalType": "contract IIAssetManager[]",
          "name": "_assetManagers",
          "type": "address[]"
        },
        {
          "internalType": "address",
          "name": "_value",
          "type": "address"
        }
      ],
      "name": "setPriceReader",
      "outputs": [],
      "stateMutability": "nonpayable",
      "type": "function"
    },
    {
      "inputs": [
        {
          "internalType": "contract IIAssetManager[]",
          "name": "_assetManagers",
          "type": "address[]"
        },
        {
          "internalType": "uint256",
          "name": "_value",
          "type": "uint256"
        }
      ],
      "name": "setRedemptionDefaultFactorVaultCollateralBIPS",
      "outputs": [],
      "stateMutability": "nonpayable",
      "type": "function"
    },
    {
      "inputs": [
        {
          "internalType": "contract IIAssetManager[]",
          "name": "_assetManagers",
          "type": "address[]"
        },
        {
          "internalType": "uint256",
          "name": "_value",
          "type": "uint256"
        }
      ],
      "name": "setRedemptionFeeBips",
      "outputs": [],
      "stateMutability": "nonpayable",
      "type": "function"
    },
    {
      "inputs": [
        {
          "internalType": "contract IIAssetManager[]",
          "name": "_assetManagers",
          "type": "address[]"
        },
        {
          "internalType": "uint256",
          "name": "_value",
          "type": "uint256"
        }
      ],
      "name": "setRedemptionPaymentExtensionSeconds",
      "outputs": [],
      "stateMutability": "nonpayable",
      "type": "function"
    },
    {
      "inputs": [
        {
          "internalType": "contract IIAssetManager[]",
          "name": "_assetManagers",
          "type": "address[]"
        },
        {
          "internalType": "uint256",
          "name": "_underlyingBlocks",
          "type": "uint256"
        },
        {
          "internalType": "uint256",
          "name": "_underlyingSeconds",
          "type": "uint256"
        }
      ],
      "name": "setTimeForPayment",
      "outputs": [],
      "stateMutability": "nonpayable",
      "type": "function"
    },
    {
      "inputs": [
        {
          "internalType": "contract IIAssetManager[]",
          "name": "_assetManagers",
          "type": "address[]"
        },
        {
          "internalType": "uint256",
          "name": "_value",
          "type": "uint256"
        }
      ],
      "name": "setVaultCollateralBuyForFlareFactorBIPS",
      "outputs": [],
      "stateMutability": "nonpayable",
      "type": "function"
    },
    {
      "inputs": [
        {
          "internalType": "contract IIAssetManager[]",
          "name": "_assetManagers",
          "type": "address[]"
        },
        {
          "internalType": "uint256",
          "name": "_value",
          "type": "uint256"
        }
      ],
      "name": "setWithdrawalOrDestroyWaitMinSeconds",
      "outputs": [],
      "stateMutability": "nonpayable",
      "type": "function"
    },
    {
      "inputs": [
        {
          "internalType": "bytes4",
          "name": "_interfaceId",
          "type": "bytes4"
        }
      ],
      "name": "supportsInterface",
      "outputs": [
        {
          "internalType": "bool",
          "name": "",
          "type": "bool"
        }
      ],
      "stateMutability": "pure",
      "type": "function"
    },
    {
      "inputs": [],
      "name": "switchToProductionMode",
      "outputs": [],
      "stateMutability": "nonpayable",
      "type": "function"
    },
    {
      "inputs": [
        {
          "internalType": "contract IIAssetManager[]",
          "name": "_assetManagers",
          "type": "address[]"
        }
      ],
      "name": "unpauseMinting",
      "outputs": [],
      "stateMutability": "nonpayable",
      "type": "function"
    },
    {
      "inputs": [
        {
          "internalType": "bytes32[]",
          "name": "_contractNameHashes",
          "type": "bytes32[]"
        },
        {
          "internalType": "address[]",
          "name": "_contractAddresses",
          "type": "address[]"
        }
      ],
      "name": "updateContractAddresses",
      "outputs": [],
      "stateMutability": "nonpayable",
      "type": "function"
    },
    {
      "inputs": [
        {
          "internalType": "contract IIAssetManager[]",
          "name": "_assetManagers",
          "type": "address[]"
        }
      ],
      "name": "updateContracts",
      "outputs": [],
      "stateMutability": "nonpayable",
      "type": "function"
    },
    {
      "inputs": [
        {
          "internalType": "contract IIAssetManager[]",
          "name": "_assetManagers",
          "type": "address[]"
        },
        {
          "internalType": "uint256",
          "name": "_start",
          "type": "uint256"
        },
        {
          "internalType": "uint256",
          "name": "_end",
          "type": "uint256"
        }
      ],
      "name": "upgradeAgentVaultsAndPools",
      "outputs": [],
      "stateMutability": "nonpayable",
      "type": "function"
    },
    {
      "inputs": [
        {
          "internalType": "contract IIAssetManager[]",
          "name": "_assetManagers",
          "type": "address[]"
        },
        {
          "internalType": "address",
          "name": "_implementation",
          "type": "address"
        },
        {
          "internalType": "bytes",
          "name": "_callData",
          "type": "bytes"
        }
      ],
      "name": "upgradeFAssetImplementation",
      "outputs": [],
      "stateMutability": "nonpayable",
      "type": "function"
    },
    {
      "inputs": [
        {
          "internalType": "address",
          "name": "newImplementation",
          "type": "address"
        }
      ],
      "name": "upgradeTo",
      "outputs": [],
      "stateMutability": "nonpayable",
      "type": "function"
    },
    {
      "inputs": [
        {
          "internalType": "address",
          "name": "newImplementation",
          "type": "address"
        },
        {
          "internalType": "bytes",
          "name": "data",
          "type": "bytes"
        }
      ],
      "name": "upgradeToAndCall",
      "outputs": [],
      "stateMutability": "payable",
      "type": "function"
    }
  ],
  "bytecode": "0x60a06040523060805234801561001457600080fd5b50600061002361111180610051565b61004b817f714f205b2abd25bef1d06a1af944e38c113fe6160375c4e1d6d5cf28848e771955565b50610160565b7f2aa47ee5db910f3b2a06970c443249cc77dbd9f96100cfebc1775ab7fb1d18248054600160a01b900460ff161561009c5760405163b2f0162160e01b815260040160405180910390fd5b6001600160a01b0383166100c3576040516334ab92fb60e11b815260040160405180910390fd5b6001600160a01b0382166100ea576040516334ab92fb60e11b815260040160405180910390fd5b80546001600160a01b038481166001600160a81b031990921691909117600160a01b1782556001820180549184166001600160a01b0319909216821790556040519081527f9789733827840833afc031fb2ef9ab6894271f77bad2085687cf4ae5c7bee4db9060200160405180910390a1505050565b608051613e636101976000396000818161134a01528181611393015281816114d501528181611515015261159e0152613e636000f3fe6080604052600436106104105760003560e01c8063763d1a161161021e578063be46c73d11610123578063df6be528116100ab578063e789e7d41161007a578063e789e7d414610c7d578063eddaf29314610c9d578063ef098e5514610cbd578063efe058ef14610cdd578063f5a9838314610cfd57600080fd5b8063df6be52814610bf1578063e17f212e14610c11578063e49ee36d14610c3d578063e77ebcab14610c5d57600080fd5b8063d13e499d116100f2578063d13e499d14610b51578063d285a63614610b71578063d48b75f614610b91578063debfda3014610bb1578063dede95f114610bd157600080fd5b8063be46c73d14610ad1578063c0c53b8b14610af1578063c6c257cb14610b11578063d0c391b514610b3157600080fd5b8063a6a24e25116101a6578063b00c0b7611610175578063b00c0b7614610a3c578063b577fc7614610a5c578063b87b82f014610a7c578063ba4388d114610a91578063bb6f41b314610ab157600080fd5b8063a6a24e25146109bc578063a82ee3d5146109dc578063aeb41555146109fc578063af823a2714610a1c57600080fd5b806392fa9586116101ed57806392fa95861461091a57806397d2fcc61461093c578063987ea8991461095c5780639e1508a11461097c578063a391dd9c1461099c57600080fd5b8063763d1a16146108825780637ad62f51146108a25780637adf26ee146108da5780637f281299146108fa57600080fd5b80634a79bc9f116103245780635cce89ea116102ac5780636a9f8ec81161027b5780636a9f8ec8146107e25780636b76ab0e146108025780636f1f1fc0146108225780637040262614610842578063758f07f21461086257600080fd5b80635cce89ea1461076d578063617637aa1461078d57806362354e03146107ad578063654f2d7a146107c257600080fd5b806352d1902d116102f357806352d1902d146106d557806353cf989a146106f8578063556d5118146107185780635aa6e675146107385780635b743b011461074d57600080fd5b80634a79bc9f1461064c5780634f1ef2861461066c578063512410601461067f5780635267a15d1461069f57600080fd5b80632aedabe4116103a7578063358bca7711610376578063358bca77146105ac5780633659cfe6146105cc57806340b9d6b0146105ec578063479566061461060c5780634944d22d1461062c57600080fd5b80632aedabe41461052c5780632af713fc1461054c5780632d5846da1461056c57806334dc39321461058c57600080fd5b8063171898fe116103e3578063171898fe146104ac57806320756671146104cc57806320c5f99d146104ec57806326a9055b1461050c57600080fd5b806301ffc9a7146104155780630207aff21461044a578063115a6e151461046c57806316fc2f6d1461048c575b600080fd5b34801561042157600080fd5b5061043561043036600461318e565b610d12565b60405190151581526020015b60405180910390f35b34801561045657600080fd5b5061046a6104653660046132ac565b610db5565b005b34801561047857600080fd5b5061046a6104873660046132ac565b610dd3565b34801561049857600080fd5b5061046a6104a73660046132f0565b610ded565b3480156104b857600080fd5b5061046a6104c7366004613362565b610ea1565b3480156104d857600080fd5b5061046a6104e73660046132ac565b610eb4565b3480156104f857600080fd5b5061046a6105073660046132f0565b610ee8565b34801561051857600080fd5b5061046a6105273660046132ac565b61105a565b34801561053857600080fd5b5061046a6105473660046132ac565b611074565b34801561055857600080fd5b5061046a61056736600461337f565b61108e565b34801561057857600080fd5b5061046a6105873660046132ac565b6110b5565b34801561059857600080fd5b5061046a6105a73660046132ac565b6110cf565b3480156105b857600080fd5b5061046a6105c7366004613362565b6110e9565b3480156105d857600080fd5b5061046a6105e7366004613362565b61132b565b3480156105f857600080fd5b5061046a6106073660046132ac565b611405565b34801561061857600080fd5b5061046a6106273660046132ac565b61141f565b34801561063857600080fd5b5061046a6106473660046133d0565b611439565b34801561065857600080fd5b5061046a61066736600461337f565b61148f565b61046a61067a36600461348c565b6114b6565b34801561068b57600080fd5b5061046a61069a3660046132ac565b611577565b3480156106ab57600080fd5b50600080516020613da7833981519152545b6040516001600160a01b039091168152602001610441565b3480156106e157600080fd5b506106ea611591565b604051908152602001610441565b34801561070457600080fd5b5061046a6107133660046134db565b611644565b34801561072457600080fd5b5061046a6107333660046132ac565b611650565b34801561074457600080fd5b506106bd61166a565b34801561075957600080fd5b5061046a61076836600461352e565b611713565b34801561077957600080fd5b5061046a6107883660046132ac565b61178b565b34801561079957600080fd5b5061046a6107a83660046132ac565b6117a5565b3480156107b957600080fd5b506106bd6117bf565b3480156107ce57600080fd5b5061046a6107dd3660046132ac565b6117e0565b3480156107ee57600080fd5b5061046a6107fd3660046132ac565b6117ec565b34801561080e57600080fd5b5061046a61081d36600461359f565b611806565b34801561082e57600080fd5b5061046a61083d3660046132ac565b611874565b34801561084e57600080fd5b5061046a61085d366004613604565b61189b565b34801561086e57600080fd5b5061046a61087d3660046132ac565b6118e7565b34801561088e57600080fd5b5061046a61089d3660046136c6565b611901565b3480156108ae57600080fd5b506104356108bd366004613362565b6001600160a01b0316600090815260016020526040902054151590565b3480156108e657600080fd5b5061046a6108f53660046132ac565b611969565b34801561090657600080fd5b5061046a6109153660046132ac565b611975565b34801561092657600080fd5b5061092f61198f565b6040516104419190613757565b34801561094857600080fd5b5061046a61095736600461337f565b6119a0565b34801561096857600080fd5b5061046a610977366004613362565b6119c7565b34801561098857600080fd5b5061046a6109973660046132ac565b611b1b565b3480156109a857600080fd5b5061046a6109b73660046133d0565b611b42565b3480156109c857600080fd5b5061046a6109d736600461337f565b611ba0565b3480156109e857600080fd5b5061046a6109f73660046132ac565b611bc7565b348015610a0857600080fd5b5061046a610a173660046132ac565b611be1565b348015610a2857600080fd5b5061046a610a3736600461337f565b611bfb565b348015610a4857600080fd5b5061046a610a573660046137a3565b611c22565b348015610a6857600080fd5b506000546106bd906001600160a01b031681565b348015610a8857600080fd5b5061092f611cb3565b348015610a9d57600080fd5b5061046a610aac3660046132ac565b611d70565b348015610abd57600080fd5b5061046a610acc36600461337f565b611d7c565b348015610add57600080fd5b5061046a610aec3660046132ac565b611da3565b348015610afd57600080fd5b5061046a610b0c366004613859565b611dbd565b348015610b1d57600080fd5b5061046a610b2c366004613362565b611ddd565b348015610b3d57600080fd5b5061046a610b4c3660046132ac565b611df0565b348015610b5d57600080fd5b5061046a610b6c36600461359f565b611e17565b348015610b7d57600080fd5b5061046a610b8c3660046132ac565b61206d565b348015610b9d57600080fd5b5061046a610bac36600461337f565b612094565b348015610bbd57600080fd5b50610435610bcc366004613362565b6120bb565b348015610bdd57600080fd5b5061046a610bec3660046132ac565b612155565b348015610bfd57600080fd5b5061046a610c0c3660046134db565b61216f565b348015610c1d57600080fd5b50600080516020613e0e83398151915254600160a81b900460ff16610435565b348015610c4957600080fd5b5061046a610c583660046134db565b6121c1565b348015610c6957600080fd5b5061046a610c783660046132ac565b6121fd565b348015610c8957600080fd5b5061046a610c983660046138a4565b612224565b348015610ca957600080fd5b5061046a610cb83660046133d0565b61227f565b348015610cc957600080fd5b5061046a610cd836600461337f565b6122d0565b348015610ce957600080fd5b5061046a610cf836600461359f565b6122ea565b348015610d0957600080fd5b5061046a612358565b60006001600160e01b031982166301ffc9a760e01b1480610d4357506001600160e01b03198216635267a15d60e01b145b80610d5e57506001600160e01b0319821663580605bb60e11b145b80610d7957506001600160e01b0319821663c2adada160e01b145b80610d9457506001600160e01b031982166302b01e5560e21b145b80610daf57506001600160e01b0319821663c4c3061b60e01b145b92915050565b610dbd6123fd565b610dcf8263d074339560e01b83612438565b5050565b610ddb6123fd565b610dcf826302c06abf60e41b83612438565b610df56123fd565b604051600080516020613e0e83398151915290600090610e189085908590613913565b6040518091039020905081600201600082815260200190815260200160002054600003610e585760405163023679b760e21b815260040160405180910390fd5b6040518181527f69b058d6225c01c1f2a25801ca5b05705fa2e9118e93d518390ba804398c87b19060200160405180910390a16000908152600290910160205260408120555050565b610ea96123fd565b610dcf600382612487565b610ebc61249c565b15610edb57610ec96124d2565b610dcf826315ebe57360e31b83612438565b610dcf6000366000612516565b600080516020613e0e833981519152610f00336120bb565b610f1d57604051633fdb5f0160e11b815260040160405180910390fd5b60008383604051610f2f929190613913565b60408051918290039091206000818152600285016020529182205490925090819003610f6e5760405163023679b760e21b815260040160405180910390fd5b80421015610f8f5760405163309272e160e11b815260040160405180910390fd5b6000828152600284016020526040808220829055845460ff60b01b1916600160b01b178555513090610fc49088908890613913565b6000604051808303816000865af19150503d8060008114611001576040519150601f19603f3d011682016040523d82523d6000602084013e611006565b606091505b5050845460ff60b01b191685556040518481529091507fec1225e5a8a8acb91e03ce648c683c74f5d152a775b9715980999441d714c44f9060200160405180910390a16110528161262d565b505050505050565b6110626123fd565b610dcf82633db7d3b160e11b83612438565b61107c6123fd565b610dcf82632b4572c760e11b83612438565b61109661249c565b15610edb576110a36124d2565b610dcf8263be06971960e01b8361264a565b6110bd6123fd565b610dcf826337592f4160e21b83612438565b6110d76123fd565b610dcf82639db27f5560e01b83612438565b6110f161249c565b1561131b576110fe6124d2565b6001600160a01b03811660009081526001602052604081205490819003611123575050565b6000611130600183613939565b60025490915060009061114590600190613939565b9050808210156111ff57600281815481106111625761116261394c565b600091825260209091200154600280546001600160a01b03909216918490811061118e5761118e61394c565b600091825260209091200180546001600160a01b0319166001600160a01b03929092169190911790556111c2826001613962565b60016000600285815481106111d9576111d961394c565b60009182526020808320909101546001600160a01b031683528201929092526040019020555b600280548061121057611210613975565b60008281526020808220830160001990810180546001600160a01b03191690559092019092556001600160a01b03861680835260018252604080842093909355825163f0c0b72560e01b815292513093919263f0c0b72592600480820193918290030181865afa158015611288573d6000803e3d6000fd5b505050506040513d601f19601f820116820180604052508101906112ac919061398b565b6001600160a01b0316036113155760405163b928b53360e01b8152600060048201526001600160a01b0385169063b928b53390602401600060405180830381600087803b1580156112fc57600080fd5b505af1158015611310573d6000803e3d6000fd5b505050505b50505050565b6113286000366000612516565b50565b61133361249c565b1561131b576113406124d2565b6001600160a01b037f00000000000000000000000000000000000000000000000000000000000000001630036113915760405162461bcd60e51b8152600401611388906139a8565b60405180910390fd5b7f00000000000000000000000000000000000000000000000000000000000000006001600160a01b03166113c361266c565b6001600160a01b0316146113e95760405162461bcd60e51b8152600401611388906139f4565b6040805160008082526020820190925261132891839190612682565b61140d6123fd565b610dcf82632a92649160e01b83612438565b6114276123fd565b610dcf826323c0a60360e11b83612438565b6114416123fd565b604051602481018390526044810182905261148a90849060640160408051601f198184030181529190526020810180516001600160e01b0316633128590960e01b1790526127ed565b505050565b61149761249c565b15610edb576114a46124d2565b610dcf826309eb52f160e11b8361264a565b6114be61249c565b15610edb576114cb6124d2565b6001600160a01b037f00000000000000000000000000000000000000000000000000000000000000001630036115135760405162461bcd60e51b8152600401611388906139a8565b7f00000000000000000000000000000000000000000000000000000000000000006001600160a01b031661154561266c565b6001600160a01b03161461156b5760405162461bcd60e51b8152600401611388906139f4565b610dcf82826001612682565b61157f6123fd565b610dcf82632d62e08f60e11b83612438565b6000306001600160a01b037f000000000000000000000000000000000000000000000000000000000000000016146116315760405162461bcd60e51b815260206004820152603860248201527f555550535570677261646561626c653a206d757374206e6f742062652063616c60448201527f6c6564207468726f7567682064656c656761746563616c6c00000000000000006064820152608401611388565b50600080516020613dc783398151915290565b61132881600080612871565b6116586123fd565b610dcf826340973e9760e11b83612438565b600080516020613e0e833981519152805460009190600160a81b900460ff166116a05760018101546001600160a01b031661170d565b805460408051631cc9492560e21b815290516001600160a01b03909216916373252494916004808201926020929091908290030181865afa1580156116e9573d6000803e3d6000fd5b505050506040513d601f19601f8201168201806040525081019061170d919061398b565b91505090565b61171b61249c565b15611777576117286124d2565b61177285858585856040516024016117439493929190613a6a565b60408051601f198184030181529190526020810180516001600160e01b031663b18e8e6760e01b1790526127ed565b611784565b6117846000366000612516565b5050505050565b6117936123fd565b610dcf8263ad74c72d60e01b83612438565b6117ad6123fd565b610dcf82636ad6fb4f60e01b83612438565b6000600080516020613e0e8339815191525b546001600160a01b0316919050565b610dcf82600183612871565b6117f46123fd565b610dcf82633b1d0c2960e21b83612438565b61180e6123fd565b610dcf828280806020026020016040519081016040528093929190818152602001838360200280828437600092019190915250506040805160048152602481019091526020810180516001600160e01b0316636d47df9560e11b17905291506127ed9050565b61187c61249c565b15610edb576118896124d2565b610dcf826336f9886b60e11b83612438565b6118a36123fd565b610dcf82826040516024016118b89190613b2a565b60408051601f198184030181529190526020810180516001600160e01b0316630f8d62c960e01b1790526127ed565b6118ef6123fd565b610dcf8263b2e6a2b560e01b83612438565b61190961249c565b1561195c576119166124d2565b61148a83838360405160240161192d929190613c3c565b60408051601f198184030181529190526020810180516001600160e01b0316633b145b4960e21b1790526127ed565b61148a6000366000612516565b610dcf82600283612871565b61197d6123fd565b610dcf82634f0c992160e11b83612438565b606061199b60036128d9565b905090565b6119a861249c565b15610edb576119b56124d2565b610dcf8263e443147f60e01b8361264a565b6119cf61249c565b1561131b576119dc6124d2565b6001600160a01b03811660009081526001602052604081205490036113285760028054600180820183557f405787fa12a823e0f2b7631cc41b3ba8828b3321ca811111fa75cd3aa3bb5ace90910180546001600160a01b0319166001600160a01b03851690811790915591546000838152602092835260409081902091909155805163f0c0b72560e01b8152905130939263f0c0b72592600480820193918290030181865afa158015611a93573d6000803e3d6000fd5b505050506040513d601f19601f82011682018060405250810190611ab7919061398b565b6001600160a01b0316036113285760405163b928b53360e01b8152600160048201526001600160a01b0382169063b928b53390602401600060405180830381600087803b158015611b0757600080fd5b505af1158015611784573d6000803e3d6000fd5b611b2361249c565b15610edb57611b306124d2565b610dcf8263d57d25c560e01b83612438565b611b4a61249c565b1561195c57611b576124d2565b604051602481018390526044810182905261148a90849060640160408051601f198184030181529190526020810180516001600160e01b03166334dc4f3f60e11b1790526127ed565b611ba861249c565b15610edb57611bb56124d2565b610dcf82636f83754b60e11b8361264a565b611bcf6123fd565b610dcf8263dfc5941760e01b83612438565b611be96123fd565b610dcf826313bcd55560e11b83612438565b611c0361249c565b15610edb57611c106124d2565b610dcf82637f4fcaa960e01b8361264a565b600080516020613da7833981519152546001600160a01b0316336001600160a01b031614611c6357604051633d8aad3760e11b815260040160405180910390fd5b611ca9611c9783836040518060400160405280600e81526020016d20b2323932b9b9aab83230ba32b960911b8152506128e6565b600080516020613da783398151915255565b610dcf8282612999565b600254606090806001600160401b03811115611cd157611cd16131b8565b604051908082528060200260200182016040528015611cfa578160200160208202803683370190505b50915060005b81811015611d6b5760028181548110611d1b57611d1b61394c565b9060005260206000200160009054906101000a90046001600160a01b0316838281518110611d4b57611d4b61394c565b6001600160a01b0390921660209283029190910190910152600101611d00565b505090565b610dcf82600383612871565b611d8461249c565b15610edb57611d916124d2565b610dcf82636dd3d58960e01b8361264a565b611dab6123fd565b610dcf8263cfcb991d60e01b83612438565b611dc78383612a9c565b61148a81600080516020613da783398151915255565b611de56123fd565b610dcf600382612b99565b611df861249c565b15610edb57611e056124d2565b610dcf82636b38c64360e01b83612438565b6000611e2f600080516020613da78339815191525490565b604051630110ceef60e21b815260206004820152600e60248201526d20b2323932b9b9aab83230ba32b960911b60448201529091506000906001600160a01b038316906304433bbc90606401602060405180830381865afa158015611e98573d6000803e3d6000fd5b505050506040513d601f19601f82011682018060405250810190611ebc919061398b565b604051630110ceef60e21b815260206004820152601660248201527520b9b9b2ba26b0b730b3b2b921b7b73a3937b63632b960511b60448201529091506000906001600160a01b038416906304433bbc90606401602060405180830381865afa158015611f2d573d6000803e3d6000fd5b505050506040513d601f19601f82011682018060405250810190611f51919061398b565b90506000836001600160a01b03166304433bbc6040518163ffffffff1660e01b8152600401611f989060208082526004908201526315d3985d60e21b604082015260600190565b602060405180830381865afa158015611fb5573d6000803e3d6000fd5b505050506040513d601f19601f82011682018060405250810190611fd9919061398b565b90506001600160a01b03831615801590611ffb57506001600160a01b03821615155b801561200f57506001600160a01b03811615155b61202c57604051639fabe1c160e01b815260040160405180910390fd5b611052868680806020026020016040519081016040528093929190818152602001838360200280828437600092019190915250879250869150859050612bae565b61207561249c565b15610edb576120826124d2565b610dcf826346ca288560e11b83612438565b61209c61249c565b15610edb576120a96124d2565b610dcf8263cda4c54160e01b8361264a565b600080516020613e0e833981519152805460009190600160a01b900460ff16801561214e57508054604051630debfda360e41b81526001600160a01b0385811660048301529091169063debfda3090602401602060405180830381865afa15801561212a573d6000803e3d6000fd5b505050506040513d601f19601f8201168201806040525081019061214e9190613c61565b9392505050565b61215d6123fd565b610dcf8263e68f3fbf60e01b83612438565b6121776123fd565b61132881600080600060405160240161219293929190613c8e565b60408051601f198184030181529190526020810180516001600160e01b0316636d92c6ad60e11b1790526127ed565b6121c96123fd565b6040805160048152602481019091526020810180516001600160e01b031663460831c360e01b1790526113289082906127ed565b61220561249c565b15610edb576122126124d2565b610dcf82637800a11f60e01b83612438565b61222c61249c565b1561195c576122396124d2565b61148a838383604051602401612250929190613cfd565b60408051601f198184030181529190526020810180516001600160e01b0316636a59860960e01b1790526127ed565b6122876123fd565b604051602481018390526044810182905261148a90849060640160408051601f198184030181529190526020810180516001600160e01b0316633479125d60e11b1790526127ed565b6122d86123fd565b610dcf8263f6a494af60e01b8361264a565b6122f26123fd565b610dcf828280806020026020016040519081016040528093929190818152602001838360200280828437600092019190915250506040805160048152602481019091526020810180516001600160e01b0316635710019160e11b17905291506127ed9050565b6123606123fd565b600080516020613e0e8339815191528054600160a81b900460ff1615612399576040516339511f6160e11b815260040160405180910390fd5b6001810180546001600160a01b03191690558054600160a81b60ff60a81b1982161782556040516001600160a01b0390911681527f83af113638b5422f9e977cebc0aaf0eaf2188eb9a8baae7f9d46c42b33a1560c9060200160405180910390a150565b61240561166a565b6001600160a01b0316336001600160a01b031614612436576040516354348f0360e01b815260040160405180910390fd5b565b61148a83838360405160240161245091815260200190565b60408051601f198184030181529190526020810180516001600160e01b03166001600160e01b0319909316929092179091526127ed565b600061214e836001600160a01b038416612c71565b600080516020613e0e833981519152805460009190600160b01b900460ff168061170d575054600160a81b900460ff1615919050565b600080516020613e0e8339815191528054600160b01b900460ff161561250e5733301461250157612501613d21565b805460ff60b01b19169055565b6113286123fd565b600080516020613e0e83398151915261252d6123fd565b6000848460405161253f929190613913565b604080519182900382208454636221a54b60e01b845291519093506000926001600160a01b0390921691636221a54b9160048083019260209291908290030181865afa158015612593573d6000803e3d6000fd5b505050506040513d601f19601f820116820180604052508101906125b79190613d37565b9050838110156125c45750825b60006125d08242613962565b600084815260028601602052604090819020829055519091507f8c02104dfc280f713854f25297de671710c544c58de69dbde8fb66974ce1ab9e9061261c908990899087908690613d50565b60405180910390a150505050505050565b3d604051818101604052816000823e8215612646578181f35b8181fd5b6040516001600160a01b038216602482015261148a9084908490604401612450565b6000600080516020613dc78339815191526117d1565b7f4910fdfa16fed3260ed0e7147f7cc6da11a60208b5b9406d12a635614ffd91435460ff16156126b55761148a83612d64565b826001600160a01b03166352d1902d6040518163ffffffff1660e01b8152600401602060405180830381865afa92505050801561270f575060408051601f3d908101601f1916820190925261270c91810190613d37565b60015b6127725760405162461bcd60e51b815260206004820152602e60248201527f45524331393637557067726164653a206e657720696d706c656d656e7461746960448201526d6f6e206973206e6f74205555505360901b6064820152608401611388565b600080516020613dc783398151915281146127e15760405162461bcd60e51b815260206004820152602960248201527f45524331393637557067726164653a20756e737570706f727465642070726f786044820152681a58589b195555525160ba1b6064820152608401611388565b5061148a838383612e00565b60005b825181101561148a57600083828151811061280d5761280d61394c565b6020026020010151905060016000826001600160a01b03166001600160a01b031681526020019081526020016000205460000361285d57604051635894060560e01b815260040160405180910390fd5b6128678184612e25565b50506001016127f0565b600061287b61166a565b6001600160a01b0316336001600160a01b031614905080806128a357506128a3600333612e69565b6128c05760405163ad0e0a7960e01b815260040160405180910390fd5b6113158484838560405160240161219293929190613c8e565b6060600061214e83612e8b565b600080826040516020016128fa9190613d77565b6040516020818303038152906040528051906020012090506000805b8651811015612968578681815181106129315761293161394c565b60200260200101518303612960578581815181106129515761295161394c565b60200260200101519150612968565b600101612916565b506001600160a01b0381166129905760405163e6ee175560e01b815260040160405180910390fd5b95945050505050565b60006129cc83836040518060400160405280600e81526020016d20b2323932b9b9aab83230ba32b960911b8152506128e6565b90506000612a0984846040518060400160405280601681526020017520b9b9b2ba26b0b730b3b2b921b7b73a3937b63632b960511b8152506128e6565b90506000612a3485856040518060400160405280600481526020016315d3985d60e21b8152506128e6565b90506117846002805480602002602001604051908101604052809291908181526020018280548015612a8f57602002820191906000526020600020905b81546001600160a01b03168152600190910190602001808311612a71575b5050505050848484612bae565b600080516020613e0e8339815191528054600160a01b900460ff1615612ad55760405163b2f0162160e01b815260040160405180910390fd5b6001600160a01b038316612afc576040516334ab92fb60e11b815260040160405180910390fd5b6001600160a01b038216612b23576040516334ab92fb60e11b815260040160405180910390fd5b80546001600160a01b038481166001600160a81b031990921691909117600160a01b1782556001820180549184166001600160a01b0319909216821790556040519081527f9789733827840833afc031fb2ef9ab6894271f77bad2085687cf4ae5c7bee4db9060200160405180910390a1505050565b600061214e836001600160a01b038416612ee7565b600080516020613da7833981519152546001600160a01b0316836001600160a01b031614612bec57612bec83600080516020613da783398151915255565b6040516001600160a01b03808416602483015282166044820152612c3e90859060640160408051601f198184030181529190526020810180516001600160e01b0316636075765d60e01b1790526127ed565b6001600160a01b038216301461131557600080546001600160a01b0384166001600160a01b031990911617905550505050565b60008181526001830160205260408120548015612d5a576000612c95600183613939565b8554909150600090612ca990600190613939565b9050818114612d0e576000866000018281548110612cc957612cc961394c565b9060005260206000200154905080876000018481548110612cec57612cec61394c565b6000918252602080832090910192909255918252600188019052604090208390555b8554869080612d1f57612d1f613975565b600190038181906000526020600020016000905590558560010160008681526020019081526020016000206000905560019350505050610daf565b6000915050610daf565b6001600160a01b0381163b612dd15760405162461bcd60e51b815260206004820152602d60248201527f455243313936373a206e657720696d706c656d656e746174696f6e206973206e60448201526c1bdd08184818dbdb9d1c9858dd609a1b6064820152608401611388565b600080516020613dc783398151915280546001600160a01b0319166001600160a01b0392909216919091179055565b612e0983612f36565b600082511180612e165750805b1561148a576113158383612f76565b606061214e838360006040518060400160405280601e81526020017f416464726573733a206c6f772d6c6576656c2063616c6c206661696c65640000815250612f9b565b6001600160a01b0381166000908152600183016020526040812054151561214e565b606081600001805480602002602001604051908101604052809291908181526020018280548015612edb57602002820191906000526020600020905b815481526020019060010190808311612ec7575b50505050509050919050565b6000818152600183016020526040812054612f2e57508154600181810184556000848152602080822090930184905584548482528286019093526040902091909155610daf565b506000610daf565b612f3f81612d64565b6040516001600160a01b038216907fbc7cd75a20ee27fd9adebab32041f755214dbc6bffa90cc0225b39da2e5c2d3b90600090a250565b606061214e8383604051806060016040528060278152602001613de760279139613078565b606082471015612ffc5760405162461bcd60e51b815260206004820152602660248201527f416464726573733a20696e73756666696369656e742062616c616e636520666f6044820152651c8818d85b1b60d21b6064820152608401611388565b600080866001600160a01b031685876040516130189190613d8a565b60006040518083038185875af1925050503d8060008114613055576040519150601f19603f3d011682016040523d82523d6000602084013e61305a565b606091505b509150915061306b878383876130f0565b925050505b949350505050565b6060600080856001600160a01b0316856040516130959190613d8a565b600060405180830381855af49150503d80600081146130d0576040519150601f19603f3d011682016040523d82523d6000602084013e6130d5565b606091505b50915091506130e6868383876130f0565b9695505050505050565b6060831561315f578251600003613158576001600160a01b0385163b6131585760405162461bcd60e51b815260206004820152601d60248201527f416464726573733a2063616c6c20746f206e6f6e2d636f6e74726163740000006044820152606401611388565b5081613070565b61307083838151156131745781518083602001fd5b8060405162461bcd60e51b81526004016113889190613d77565b6000602082840312156131a057600080fd5b81356001600160e01b03198116811461214e57600080fd5b634e487b7160e01b600052604160045260246000fd5b604051601f8201601f191681016001600160401b03811182821017156131f6576131f66131b8565b604052919050565b60006001600160401b03821115613217576132176131b8565b5060051b60200190565b6001600160a01b038116811461132857600080fd5b600082601f83011261324757600080fd5b813561325a613255826131fe565b6131ce565b8082825260208201915060208360051b86010192508583111561327c57600080fd5b602085015b838110156132a257803561329481613221565b835260209283019201613281565b5095945050505050565b600080604083850312156132bf57600080fd5b82356001600160401b038111156132d557600080fd5b6132e185828601613236565b95602094909401359450505050565b6000806020838503121561330357600080fd5b82356001600160401b0381111561331957600080fd5b8301601f8101851361332a57600080fd5b80356001600160401b0381111561334057600080fd5b85602082840101111561335257600080fd5b6020919091019590945092505050565b60006020828403121561337457600080fd5b813561214e81613221565b6000806040838503121561339257600080fd5b82356001600160401b038111156133a857600080fd5b6133b485828601613236565b92505060208301356133c581613221565b809150509250929050565b6000806000606084860312156133e557600080fd5b83356001600160401b038111156133fb57600080fd5b61340786828701613236565b9660208601359650604090950135949350505050565b600082601f83011261342e57600080fd5b81356001600160401b03811115613447576134476131b8565b61345a601f8201601f19166020016131ce565b81815284602083860101111561346f57600080fd5b816020850160208301376000918101602001919091529392505050565b6000806040838503121561349f57600080fd5b82356134aa81613221565b915060208301356001600160401b038111156134c557600080fd5b6134d18582860161341d565b9150509250929050565b6000602082840312156134ed57600080fd5b81356001600160401b0381111561350357600080fd5b61307084828501613236565b80356003811061351e57600080fd5b919050565b803561351e81613221565b600080600080600060a0868803121561354657600080fd5b85356001600160401b0381111561355c57600080fd5b61356888828901613236565b9550506135776020870161350f565b9350604086013561358781613221565b94979396509394606081013594506080013592915050565b600080602083850312156135b257600080fd5b82356001600160401b038111156135c857600080fd5b8301601f810185136135d957600080fd5b80356001600160401b038111156135ef57600080fd5b8560208260051b840101111561335257600080fd5b6000806040838503121561361757600080fd5b82356001600160401b0381111561362d57600080fd5b61363985828601613236565b92505060208301356001600160401b0381111561365557600080fd5b830161012081860312156133c557600080fd5b600082601f83011261367957600080fd5b8135613687613255826131fe565b8082825260208201915060208360051b8601019250858311156136a957600080fd5b602085015b838110156132a25780358352602092830192016136ae565b6000806000606084860312156136db57600080fd5b83356001600160401b038111156136f157600080fd5b6136fd86828701613236565b93505060208401356001600160401b0381111561371957600080fd5b61372586828701613668565b92505060408401356001600160401b0381111561374157600080fd5b61374d86828701613668565b9150509250925092565b602080825282518282018190526000918401906040840190835b818110156137985783516001600160a01b0316835260209384019390920191600101613771565b509095945050505050565b600080604083850312156137b657600080fd5b82356001600160401b038111156137cc57600080fd5b8301601f810185136137dd57600080fd5b80356137eb613255826131fe565b8082825260208201915060208360051b85010192508783111561380d57600080fd5b6020840193505b8284101561382f578335825260209384019390910190613814565b945050505060208301356001600160401b0381111561384d57600080fd5b6134d185828601613236565b60008060006060848603121561386e57600080fd5b833561387981613221565b9250602084013561388981613221565b9150604084013561389981613221565b809150509250925092565b6000806000606084860312156138b957600080fd5b83356001600160401b038111156138cf57600080fd5b6138db86828701613236565b93505060208401356138ec81613221565b915060408401356001600160401b0381111561390757600080fd5b61374d8682870161341d565b8183823760009101908152919050565b634e487b7160e01b600052601160045260246000fd5b81810381811115610daf57610daf613923565b634e487b7160e01b600052603260045260246000fd5b80820180821115610daf57610daf613923565b634e487b7160e01b600052603160045260246000fd5b60006020828403121561399d57600080fd5b815161214e81613221565b6020808252602c908201527f46756e6374696f6e206d7573742062652063616c6c6564207468726f7567682060408201526b19195b1959d85d1958d85b1b60a21b606082015260800190565b6020808252602c908201527f46756e6374696f6e206d7573742062652063616c6c6564207468726f7567682060408201526b6163746976652070726f787960a01b606082015260800190565b634e487b7160e01b600052602160045260246000fd5b60038110613a6657613a66613a40565b9052565b60808101613a788287613a56565b6001600160a01b039490941660208201526040810192909252606090910152919050565b801515811461132857600080fd5b803561351e81613a9c565b6000808335601e19843603018112613acc57600080fd5b83016020810192503590506001600160401b03811115613aeb57600080fd5b803603821315613afa57600080fd5b9250929050565b81835281816020850137506000828201602090810191909152601f909101601f19169091010190565b60208152613b4360208201613b3e8461350f565b613a56565b6000613b5160208401613523565b6001600160a01b0381166040840152506040830135606083810191909152830135608080840191909152613b86908401613aaa565b80151560a084015250613b9c60a0840184613ab5565b61012060c0850152613bb361014085018284613b01565b915050613bc360c0850185613ab5565b848303601f190160e0860152613bda838284613b01565b60e087013561010087810191909152909601356101209095019490945250929392505050565b600081518084526020840193506020830160005b82811015613c32578151865260209586019590910190600101613c14565b5093949350505050565b604081526000613c4f6040830185613c00565b82810360208401526129908185613c00565b600060208284031215613c7357600080fd5b815161214e81613a9c565b60048110613a6657613a66613a40565b60608101613c9c8286613c7e565b921515602082015260400152919050565b60005b83811015613cc8578181015183820152602001613cb0565b50506000910152565b60008151808452613ce9816020860160208601613cad565b601f01601f19169290920160200192915050565b6001600160a01b038316815260406020820181905260009061307090830184613cd1565b634e487b7160e01b600052600160045260246000fd5b600060208284031215613d4957600080fd5b5051919050565b606081526000613d64606083018688613b01565b6020830194909452506040015292915050565b60208152600061214e6020830184613cd1565b60008251613d9c818460208701613cad565b919091019291505056fe714f205b2abd25bef1d06a1af944e38c113fe6160375c4e1d6d5cf28848e7719360894a13ba1a3210667c828492db98dca3e2076cc3735a920a3ca505d382bbc416464726573733a206c6f772d6c6576656c2064656c65676174652063616c6c206661696c65642aa47ee5db910f3b2a06970c443249cc77dbd9f96100cfebc1775ab7fb1d1824a2646970667358221220588d5d9a0496fc1341f405d34b3eb190bc9bfafdf7e530b317cf4dd64897ff0364736f6c634300081b0033",
  "linkReferences": {},
  "deployedLinkReferences": {}
}