{
  "_format": "hh-sol-artifact-1",
  "contractName": "AssetManagerController",
  "sourceName": "contracts/assetManagerController/implementation/AssetManagerController.sol",
  "abi": [
    {
      "inputs": [],
      "stateMutability": "nonpayable",
      "type": "constructor"
    },
    {
      "inputs": [],
      "name": "AUAddressZero",
      "type": "error"
    },
    {
      "inputs": [],
      "name": "AddressZero",
      "type": "error"
    },
    {
      "inputs": [],
      "name": "AlreadyInProductionMode",
      "type": "error"
    },
    {
      "inputs": [],
      "name": "AssetManagerNotManaged",
      "type": "error"
    },
    {
      "inputs": [],
      "name": "GovernedAddressZero",
      "type": "error"
    },
    {
      "inputs": [],
      "name": "GovernedAlreadyInitialized",
      "type": "error"
    },
    {
      "inputs": [],
      "name": "OnlyAddressUpdater",
      "type": "error"
    },
    {
      "inputs": [],
      "name": "OnlyExecutor",
      "type": "error"
    },
    {
      "inputs": [],
      "name": "OnlyGovernance",
      "type": "error"
    },
    {
      "inputs": [],
      "name": "OnlyGovernanceOrEmergencyPauseSenders",
      "type": "error"
    },
    {
      "inputs": [],
      "name": "TimelockInvalidSelector",
      "type": "error"
    },
    {
      "inputs": [],
      "name": "TimelockNotAllowedYet",
      "type": "error"
    },
    {
      "anonymous": false,
      "inputs": [
        {
          "indexed": false,
          "internalType": "address",
          "name": "previousAdmin",
          "type": "address"
        },
        {
          "indexed": false,
          "internalType": "address",
          "name": "newAdmin",
          "type": "address"
        }
      ],
      "name": "AdminChanged",
      "type": "event"
    },
    {
      "anonymous": false,
      "inputs": [
        {
          "indexed": true,
          "internalType": "address",
          "name": "beacon",
          "type": "address"
        }
      ],
      "name": "BeaconUpgraded",
      "type": "event"
    },
    {
      "anonymous": false,
      "inputs": [
        {
          "indexed": false,
          "internalType": "bytes",
          "name": "encodedCall",
          "type": "bytes"
        },
        {
          "indexed": false,
          "internalType": "bytes32",
          "name": "encodedCallHash",
          "type": "bytes32"
        },
        {
          "indexed": false,
          "internalType": "uint256",
          "name": "allowedAfterTimestamp",
          "type": "uint256"
        }
      ],
      "name": "GovernanceCallTimelocked",
      "type": "event"
    },
    {
      "anonymous": false,
      "inputs": [
        {
          "indexed": false,
          "internalType": "address",
          "name": "initialGovernance",
          "type": "address"
        }
      ],
      "name": "GovernanceInitialised",
      "type": "event"
    },
    {
      "anonymous": false,
      "inputs": [
        {
          "indexed": false,
          "internalType": "address",
          "name": "governanceSettings",
          "type": "address"
        }
      ],
      "name": "GovernedProductionModeEntered",
      "type": "event"
    },
    {
      "anonymous": false,
      "inputs": [
        {
          "indexed": false,
          "internalType": "bytes32",
          "name": "encodedCallHash",
          "type": "bytes32"
        }
      ],
      "name": "TimelockedGovernanceCallCanceled",
      "type": "event"
    },
    {
      "anonymous": false,
      "inputs": [
        {
          "indexed": false,
          "internalType": "bytes32",
          "name": "encodedCallHash",
          "type": "bytes32"
        }
      ],
      "name": "TimelockedGovernanceCallExecuted",
      "type": "event"
    },
    {
      "anonymous": false,
      "inputs": [
        {
          "indexed": true,
          "internalType": "address",
          "name": "implementation",
          "type": "address"
        }
      ],
      "name": "Upgraded",
      "type": "event"
    },
    {
      "inputs": [
        {
          "internalType": "contract IIAssetManager",
          "name": "_assetManager",
          "type": "address"
        }
      ],
      "name": "addAssetManager",
      "outputs": [],
      "stateMutability": "nonpayable",
      "type": "function"
    },
    {
      "inputs": [
        {
          "internalType": "contract IIAssetManager[]",
          "name": "_assetManagers",
          "type": "address[]"
        },
        {
          "components": [
            {
              "internalType": "enum CollateralType.Class",
              "name": "collateralClass",
              "type": "uint8"
            },
            {
              "internalType": "contract IERC20",
              "name": "token",
              "type": "address"
            },
            {
              "internalType": "uint256",
              "name": "decimals",
              "type": "uint256"
            },
            {
              "internalType": "uint256",
              "name": "validUntil",
              "type": "uint256"
            },
            {
              "internalType": "bool",
              "name": "directPricePair",
              "type": "bool"
            },
            {
              "internalType": "string",
              "name": "assetFtsoSymbol",
              "type": "string"
            },
            {
              "internalType": "string",
              "name": "tokenFtsoSymbol",
              "type": "string"
            },
            {
              "internalType": "uint256",
              "name": "minCollateralRatioBIPS",
              "type": "uint256"
            },
            {
              "internalType": "uint256",
              "name": "ccbMinCollateralRatioBIPS",
              "type": "uint256"
            },
            {
              "internalType": "uint256",
              "name": "safetyMinCollateralRatioBIPS",
              "type": "uint256"
            }
          ],
          "internalType": "struct CollateralType.Data",
          "name": "_data",
          "type": "tuple"
        }
      ],
      "name": "addCollateralType",
      "outputs": [],
      "stateMutability": "nonpayable",
      "type": "function"
    },
    {
      "inputs": [
        {
          "internalType": "address",
          "name": "_address",
          "type": "address"
        }
      ],
      "name": "addEmergencyPauseSender",
      "outputs": [],
      "stateMutability": "nonpayable",
      "type": "function"
    },
    {
      "inputs": [
        {
          "internalType": "address",
          "name": "_assetManager",
          "type": "address"
        }
      ],
      "name": "assetManagerExists",
      "outputs": [
        {
          "internalType": "bool",
          "name": "",
          "type": "bool"
        }
      ],
      "stateMutability": "view",
      "type": "function"
    },
    {
      "inputs": [
        {
          "internalType": "bytes",
          "name": "_encodedCall",
          "type": "bytes"
        }
      ],
      "name": "cancelGovernanceCall",
      "outputs": [],
      "stateMutability": "nonpayable",
      "type": "function"
    },
    {
      "inputs": [
        {
          "internalType": "contract IIAssetManager[]",
          "name": "_assetManagers",
          "type": "address[]"
        },
        {
          "internalType": "enum CollateralType.Class",
          "name": "_class",
          "type": "uint8"
        },
        {
          "internalType": "contract IERC20",
          "name": "_token",
          "type": "address"
        },
        {
          "internalType": "uint256",
          "name": "_invalidationTimeSec",
          "type": "uint256"
        }
      ],
      "name": "deprecateCollateralType",
      "outputs": [],
      "stateMutability": "nonpayable",
      "type": "function"
    },
    {
      "inputs": [
        {
          "internalType": "contract IIAssetManager[]",
          "name": "_assetManagers",
          "type": "address[]"
        },
        {
          "internalType": "uint256",
          "name": "_duration",
          "type": "uint256"
        }
      ],
      "name": "emergencyPause",
      "outputs": [],
      "stateMutability": "nonpayable",
      "type": "function"
    },
    {
      "inputs": [
        {
          "internalType": "contract IIAssetManager[]",
          "name": "_assetManagers",
          "type": "address[]"
        },
        {
          "internalType": "uint256",
          "name": "_duration",
          "type": "uint256"
        }
      ],
      "name": "emergencyPauseTransfers",
      "outputs": [],
      "stateMutability": "nonpayable",
      "type": "function"
    },
    {
      "inputs": [
        {
          "internalType": "bytes",
          "name": "_encodedCall",
          "type": "bytes"
        }
      ],
      "name": "executeGovernanceCall",
      "outputs": [],
      "stateMutability": "nonpayable",
      "type": "function"
    },
    {
      "inputs": [],
      "name": "getAddressUpdater",
      "outputs": [
        {
          "internalType": "address",
          "name": "_addressUpdater",
          "type": "address"
        }
      ],
      "stateMutability": "view",
      "type": "function"
    },
    {
      "inputs": [],
      "name": "getAssetManagers",
      "outputs": [
        {
          "internalType": "contract IAssetManager[]",
          "name": "_assetManagers",
          "type": "address[]"
        }
      ],
      "stateMutability": "view",
      "type": "function"
    },
    {
      "inputs": [],
      "name": "governance",
      "outputs": [
        {
          "internalType": "address",
          "name": "",
          "type": "address"
        }
      ],
      "stateMutability": "view",
      "type": "function"
    },
    {
      "inputs": [],
      "name": "governanceSettings",
      "outputs": [
        {
          "internalType": "contract IGovernanceSettings",
          "name": "",
          "type": "address"
        }
      ],
      "stateMutability": "view",
      "type": "function"
    },
    {
      "inputs": [
        {
          "internalType": "contract IGovernanceSettings",
          "name": "_governanceSettings",
          "type": "address"
        },
        {
          "internalType": "address",
          "name": "_initialGovernance",
          "type": "address"
        },
        {
          "internalType": "address",
          "name": "_addressUpdater",
          "type": "address"
        }
      ],
      "name": "initialize",
      "outputs": [],
      "stateMutability": "nonpayable",
      "type": "function"
    },
    {
      "inputs": [
        {
          "internalType": "address",
          "name": "_address",
          "type": "address"
        }
      ],
      "name": "isExecutor",
      "outputs": [
        {
          "internalType": "bool",
          "name": "",
          "type": "bool"
        }
      ],
      "stateMutability": "view",
      "type": "function"
    },
    {
      "inputs": [
        {
          "internalType": "contract IIAssetManager[]",
          "name": "_assetManagers",
          "type": "address[]"
        }
      ],
      "name": "pauseMinting",
      "outputs": [],
      "stateMutability": "nonpayable",
      "type": "function"
    },
    {
      "inputs": [],
      "name": "productionMode",
      "outputs": [
        {
          "internalType": "bool",
          "name": "",
          "type": "bool"
        }
      ],
      "stateMutability": "view",
      "type": "function"
    },
    {
      "inputs": [],
      "name": "proxiableUUID",
      "outputs": [
        {
          "internalType": "bytes32",
          "name": "",
          "type": "bytes32"
        }
      ],
      "stateMutability": "view",
      "type": "function"
    },
    {
      "inputs": [
        {
          "internalType": "contract IIAssetManager",
          "name": "_assetManager",
          "type": "address"
        }
      ],
      "name": "removeAssetManager",
      "outputs": [],
      "stateMutability": "nonpayable",
      "type": "function"
    },
    {
      "inputs": [
        {
          "internalType": "address",
          "name": "_address",
          "type": "address"
        }
      ],
      "name": "removeEmergencyPauseSender",
      "outputs": [],
      "stateMutability": "nonpayable",
      "type": "function"
    },
    {
      "inputs": [],
      "name": "replacedBy",
      "outputs": [
        {
          "internalType": "address",
          "name": "",
          "type": "address"
        }
      ],
      "stateMutability": "view",
      "type": "function"
    },
    {
      "inputs": [
        {
          "internalType": "contract IIAssetManager[]",
          "name": "_assetManagers",
          "type": "address[]"
        }
      ],
      "name": "resetEmergencyPauseTotalDuration",
      "outputs": [],
      "stateMutability": "nonpayable",
      "type": "function"
    },
    {
      "inputs": [
        {
          "internalType": "contract IIAssetManager[]",
          "name": "_assetManagers",
          "type": "address[]"
        },
        {
          "internalType": "uint256",
          "name": "_value",
          "type": "uint256"
        }
      ],
      "name": "setAgentExitAvailableTimelockSeconds",
      "outputs": [],
      "stateMutability": "nonpayable",
      "type": "function"
    },
    {
      "inputs": [
        {
          "internalType": "contract IIAssetManager[]",
          "name": "_assetManagers",
          "type": "address[]"
        },
        {
          "internalType": "uint256",
          "name": "_value",
          "type": "uint256"
        }
      ],
      "name": "setAgentFeeChangeTimelockSeconds",
      "outputs": [],
      "stateMutability": "nonpayable",
      "type": "function"
    },
    {
      "inputs": [
        {
          "internalType": "contract IIAssetManager[]",
          "name": "_assetManagers",
          "type": "address[]"
        },
        {
          "internalType": "uint256",
          "name": "_value",
          "type": "uint256"
        }
      ],
      "name": "setAgentMintingCRChangeTimelockSeconds",
      "outputs": [],
      "stateMutability": "nonpayable",
      "type": "function"
    },
    {
      "inputs": [
        {
          "internalType": "contract IIAssetManager[]",
          "name": "_assetManagers",
          "type": "address[]"
        },
        {
          "internalType": "address",
          "name": "_value",
          "type": "address"
        }
      ],
      "name": "setAgentOwnerRegistry",
      "outputs": [],
      "stateMutability": "nonpayable",
      "type": "function"
    },
    {
      "inputs": [
        {
          "internalType": "contract IIAssetManager[]",
          "name": "_assetManagers",
          "type": "address[]"
        },
        {
          "internalType": "uint256",
          "name": "_value",
          "type": "uint256"
        }
      ],
      "name": "setAgentTimelockedOperationWindowSeconds",
      "outputs": [],
      "stateMutability": "nonpayable",
      "type": "function"
    },
    {
      "inputs": [
        {
          "internalType": "contract IIAssetManager[]",
          "name": "_assetManagers",
          "type": "address[]"
        },
        {
          "internalType": "address",
          "name": "_value",
          "type": "address"
        }
      ],
      "name": "setAgentVaultFactory",
      "outputs": [],
      "stateMutability": "nonpayable",
      "type": "function"
    },
    {
      "inputs": [
        {
          "internalType": "contract IIAssetManager[]",
          "name": "_assetManagers",
          "type": "address[]"
        },
        {
          "internalType": "uint256",
          "name": "_value",
          "type": "uint256"
        }
      ],
      "name": "setAttestationWindowSeconds",
      "outputs": [],
      "stateMutability": "nonpayable",
      "type": "function"
    },
    {
      "inputs": [
        {
          "internalType": "contract IIAssetManager[]",
          "name": "_assetManagers",
          "type": "address[]"
        },
        {
          "internalType": "uint256",
          "name": "_value",
          "type": "uint256"
        }
      ],
      "name": "setAverageBlockTimeMS",
      "outputs": [],
      "stateMutability": "nonpayable",
      "type": "function"
    },
    {
      "inputs": [
        {
          "internalType": "contract IIAssetManager[]",
          "name": "_assetManagers",
          "type": "address[]"
        },
        {
          "internalType": "uint256",
          "name": "_value",
          "type": "uint256"
        }
      ],
      "name": "setCcbTimeSeconds",
      "outputs": [],
      "stateMutability": "nonpayable",
      "type": "function"
    },
    {
      "inputs": [
        {
          "internalType": "contract IIAssetManager[]",
          "name": "_assetManagers",
          "type": "address[]"
        },
        {
          "internalType": "address",
          "name": "_value",
          "type": "address"
        }
      ],
      "name": "setCleanerContract",
      "outputs": [],
      "stateMutability": "nonpayable",
      "type": "function"
    },
    {
      "inputs": [
        {
          "internalType": "contract IIAssetManager[]",
          "name": "_assetManagers",
          "type": "address[]"
        },
        {
          "internalType": "address",
          "name": "_value",
          "type": "address"
        }
      ],
      "name": "setCleanupBlockNumberManager",
      "outputs": [],
      "stateMutability": "nonpayable",
      "type": "function"
    },
    {
      "inputs": [
        {
          "internalType": "contract IIAssetManager[]",
          "name": "_assetManagers",
          "type": "address[]"
        },
        {
          "internalType": "address",
          "name": "_value",
          "type": "address"
        }
      ],
      "name": "setCollateralPoolFactory",
      "outputs": [],
      "stateMutability": "nonpayable",
      "type": "function"
    },
    {
      "inputs": [
        {
          "internalType": "contract IIAssetManager[]",
          "name": "_assetManagers",
          "type": "address[]"
        },
        {
          "internalType": "address",
          "name": "_value",
          "type": "address"
        }
      ],
      "name": "setCollateralPoolTokenFactory",
      "outputs": [],
      "stateMutability": "nonpayable",
      "type": "function"
    },
    {
      "inputs": [
        {
          "internalType": "contract IIAssetManager[]",
          "name": "_assetManagers",
          "type": "address[]"
        },
        {
          "internalType": "uint256",
          "name": "_value",
          "type": "uint256"
        }
      ],
      "name": "setCollateralPoolTokenTimelockSeconds",
      "outputs": [],
      "stateMutability": "nonpayable",
      "type": "function"
    },
    {
      "inputs": [
        {
          "internalType": "contract IIAssetManager[]",
          "name": "_assetManagers",
          "type": "address[]"
        },
        {
          "internalType": "enum CollateralType.Class",
          "name": "_class",
          "type": "uint8"
        },
        {
          "internalType": "contract IERC20",
          "name": "_token",
          "type": "address"
        },
        {
          "internalType": "uint256",
          "name": "_minCollateralRatioBIPS",
          "type": "uint256"
        },
        {
          "internalType": "uint256",
          "name": "_ccbMinCollateralRatioBIPS",
          "type": "uint256"
        },
        {
          "internalType": "uint256",
          "name": "_safetyMinCollateralRatioBIPS",
          "type": "uint256"
        }
      ],
      "name": "setCollateralRatiosForToken",
      "outputs": [],
      "stateMutability": "nonpayable",
      "type": "function"
    },
    {
      "inputs": [
        {
          "internalType": "contract IIAssetManager[]",
          "name": "_assetManagers",
          "type": "address[]"
        },
        {
          "internalType": "uint256",
          "name": "_value",
          "type": "uint256"
        }
      ],
      "name": "setCollateralReservationFeeBips",
      "outputs": [],
      "stateMutability": "nonpayable",
      "type": "function"
    },
    {
      "inputs": [
        {
          "internalType": "contract IIAssetManager[]",
          "name": "_assetManagers",
          "type": "address[]"
        },
        {
          "internalType": "uint256",
          "name": "_value",
          "type": "uint256"
        }
      ],
      "name": "setConfirmationByOthersAfterSeconds",
      "outputs": [],
      "stateMutability": "nonpayable",
      "type": "function"
    },
    {
      "inputs": [
        {
          "internalType": "contract IIAssetManager[]",
          "name": "_assetManagers",
          "type": "address[]"
        },
        {
          "internalType": "uint256",
          "name": "_value",
          "type": "uint256"
        }
      ],
      "name": "setConfirmationByOthersRewardUSD5",
      "outputs": [],
      "stateMutability": "nonpayable",
      "type": "function"
    },
    {
      "inputs": [
        {
          "internalType": "contract IIAssetManager[]",
          "name": "_assetManagers",
          "type": "address[]"
        },
        {
          "internalType": "uint256",
          "name": "_value",
          "type": "uint256"
        }
      ],
      "name": "setEmergencyPauseDurationResetAfterSeconds",
      "outputs": [],
      "stateMutability": "nonpayable",
      "type": "function"
    },
    {
      "inputs": [
        {
          "internalType": "contract IIAssetManager[]",
          "name": "_assetManagers",
          "type": "address[]"
        },
        {
          "internalType": "address",
          "name": "_value",
          "type": "address"
        }
      ],
      "name": "setFdcVerification",
      "outputs": [],
      "stateMutability": "nonpayable",
      "type": "function"
    },
    {
      "inputs": [
        {
          "internalType": "contract IIAssetManager[]",
          "name": "_assetManagers",
          "type": "address[]"
        },
        {
          "internalType": "uint256[]",
          "name": "_paymentFactors",
          "type": "uint256[]"
        },
        {
          "internalType": "uint256[]",
          "name": "_vaultCollateralFactors",
          "type": "uint256[]"
        }
      ],
      "name": "setLiquidationPaymentFactors",
      "outputs": [],
      "stateMutability": "nonpayable",
      "type": "function"
    },
    {
      "inputs": [
        {
          "internalType": "contract IIAssetManager[]",
          "name": "_assetManagers",
          "type": "address[]"
        },
        {
          "internalType": "uint256",
          "name": "_value",
          "type": "uint256"
        }
      ],
      "name": "setLiquidationStepSeconds",
      "outputs": [],
      "stateMutability": "nonpayable",
      "type": "function"
    },
    {
      "inputs": [
        {
          "internalType": "contract IIAssetManager[]",
          "name": "_assetManagers",
          "type": "address[]"
        },
        {
          "internalType": "uint256",
          "name": "_value",
          "type": "uint256"
        }
      ],
      "name": "setLotSizeAmg",
      "outputs": [],
      "stateMutability": "nonpayable",
      "type": "function"
    },
    {
      "inputs": [
        {
          "internalType": "contract IIAssetManager[]",
          "name": "_assetManagers",
          "type": "address[]"
        },
        {
          "internalType": "uint256",
          "name": "_value",
          "type": "uint256"
        }
      ],
      "name": "setMaxEmergencyPauseDurationSeconds",
      "outputs": [],
      "stateMutability": "nonpayable",
      "type": "function"
    },
    {
      "inputs": [
        {
          "internalType": "contract IIAssetManager[]",
          "name": "_assetManagers",
          "type": "address[]"
        },
        {
          "internalType": "uint256",
          "name": "_value",
          "type": "uint256"
        }
      ],
      "name": "setMaxRedeemedTickets",
      "outputs": [],
      "stateMutability": "nonpayable",
      "type": "function"
    },
    {
      "inputs": [
        {
          "internalType": "contract IIAssetManager[]",
          "name": "_assetManagers",
          "type": "address[]"
        },
        {
          "internalType": "uint256",
          "name": "_value",
          "type": "uint256"
        }
      ],
      "name": "setMaxTrustedPriceAgeSeconds",
      "outputs": [],
      "stateMutability": "nonpayable",
      "type": "function"
    },
    {
      "inputs": [
        {
          "internalType": "contract IIAssetManager[]",
          "name": "_assetManagers",
          "type": "address[]"
        },
        {
          "internalType": "uint256",
          "name": "_value",
          "type": "uint256"
        }
      ],
      "name": "setMinUpdateRepeatTimeSeconds",
      "outputs": [],
      "stateMutability": "nonpayable",
      "type": "function"
    },
    {
      "inputs": [
        {
          "internalType": "contract IIAssetManager[]",
          "name": "_assetManagers",
          "type": "address[]"
        },
        {
          "internalType": "uint256",
          "name": "_value",
          "type": "uint256"
        }
      ],
      "name": "setMintingCapAmg",
      "outputs": [],
      "stateMutability": "nonpayable",
      "type": "function"
    },
    {
      "inputs": [
        {
          "internalType": "contract IIAssetManager[]",
          "name": "_assetManagers",
          "type": "address[]"
        },
        {
          "internalType": "uint256",
          "name": "_value",
          "type": "uint256"
        }
      ],
      "name": "setMintingPoolHoldingsRequiredBIPS",
      "outputs": [],
      "stateMutability": "nonpayable",
      "type": "function"
    },
    {
      "inputs": [
        {
          "internalType": "contract IIAssetManager[]",
          "name": "_assetManagers",
          "type": "address[]"
        },
        {
          "internalType": "uint256",
          "name": "_rewardVaultCollateralWei",
          "type": "uint256"
        },
        {
          "internalType": "uint256",
          "name": "_rewardBIPS",
          "type": "uint256"
        }
      ],
      "name": "setPaymentChallengeReward",
      "outputs": [],
      "stateMutability": "nonpayable",
      "type": "function"
    },
    {
      "inputs": [
        {
          "internalType": "contract IIAssetManager[]",
          "name": "_assetManagers",
          "type": "address[]"
        },
        {
          "internalType": "uint256",
          "name": "_value",
          "type": "uint256"
        }
      ],
      "name": "setPoolExitCRChangeTimelockSeconds",
      "outputs": [],
      "stateMutability": "nonpayable",
      "type": "function"
    },
    {
      "inputs": [
        {
          "internalType": "contract IIAssetManager[]",
          "name": "_assetManagers",
          "type": "address[]"
        },
        {
          "internalType": "address",
          "name": "_value",
          "type": "address"
        }
      ],
      "name": "setPriceReader",
      "outputs": [],
      "stateMutability": "nonpayable",
      "type": "function"
    },
    {
      "inputs": [
        {
          "internalType": "contract IIAssetManager[]",
          "name": "_assetManagers",
          "type": "address[]"
        },
        {
          "internalType": "uint256",
          "name": "_value",
          "type": "uint256"
        }
      ],
      "name": "setRedemptionDefaultFactorVaultCollateralBIPS",
      "outputs": [],
      "stateMutability": "nonpayable",
      "type": "function"
    },
    {
      "inputs": [
        {
          "internalType": "contract IIAssetManager[]",
          "name": "_assetManagers",
          "type": "address[]"
        },
        {
          "internalType": "uint256",
          "name": "_value",
          "type": "uint256"
        }
      ],
      "name": "setRedemptionFeeBips",
      "outputs": [],
      "stateMutability": "nonpayable",
      "type": "function"
    },
    {
      "inputs": [
        {
          "internalType": "contract IIAssetManager[]",
          "name": "_assetManagers",
          "type": "address[]"
        },
        {
          "internalType": "uint256",
          "name": "_value",
          "type": "uint256"
        }
      ],
      "name": "setRedemptionPaymentExtensionSeconds",
      "outputs": [],
      "stateMutability": "nonpayable",
      "type": "function"
    },
    {
      "inputs": [
        {
          "internalType": "contract IIAssetManager[]",
          "name": "_assetManagers",
          "type": "address[]"
        },
        {
          "internalType": "uint256",
          "name": "_underlyingBlocks",
          "type": "uint256"
        },
        {
          "internalType": "uint256",
          "name": "_underlyingSeconds",
          "type": "uint256"
        }
      ],
      "name": "setTimeForPayment",
      "outputs": [],
      "stateMutability": "nonpayable",
      "type": "function"
    },
    {
      "inputs": [
        {
          "internalType": "contract IIAssetManager[]",
          "name": "_assetManagers",
          "type": "address[]"
        },
        {
          "internalType": "uint256",
          "name": "_value",
          "type": "uint256"
        }
      ],
      "name": "setTokenInvalidationTimeMinSeconds",
      "outputs": [],
      "stateMutability": "nonpayable",
      "type": "function"
    },
    {
      "inputs": [
        {
          "internalType": "contract IIAssetManager[]",
          "name": "_assetManagers",
          "type": "address[]"
        },
        {
          "internalType": "uint256",
          "name": "_value",
          "type": "uint256"
        }
      ],
      "name": "setVaultCollateralBuyForFlareFactorBIPS",
      "outputs": [],
      "stateMutability": "nonpayable",
      "type": "function"
    },
    {
      "inputs": [
        {
          "internalType": "contract IIAssetManager[]",
          "name": "_assetManagers",
          "type": "address[]"
        },
        {
          "internalType": "uint256",
          "name": "_value",
          "type": "uint256"
        }
      ],
      "name": "setWithdrawalOrDestroyWaitMinSeconds",
      "outputs": [],
      "stateMutability": "nonpayable",
      "type": "function"
    },
    {
      "inputs": [
        {
          "internalType": "bytes4",
          "name": "_interfaceId",
          "type": "bytes4"
        }
      ],
      "name": "supportsInterface",
      "outputs": [
        {
          "internalType": "bool",
          "name": "",
          "type": "bool"
        }
      ],
      "stateMutability": "pure",
      "type": "function"
    },
    {
      "inputs": [],
      "name": "switchToProductionMode",
      "outputs": [],
      "stateMutability": "nonpayable",
      "type": "function"
    },
    {
      "inputs": [
        {
          "internalType": "contract IIAssetManager[]",
          "name": "_assetManagers",
          "type": "address[]"
        }
      ],
      "name": "unpauseMinting",
      "outputs": [],
      "stateMutability": "nonpayable",
      "type": "function"
    },
    {
      "inputs": [
        {
          "internalType": "bytes32[]",
          "name": "_contractNameHashes",
          "type": "bytes32[]"
        },
        {
          "internalType": "address[]",
          "name": "_contractAddresses",
          "type": "address[]"
        }
      ],
      "name": "updateContractAddresses",
      "outputs": [],
      "stateMutability": "nonpayable",
      "type": "function"
    },
    {
      "inputs": [
        {
          "internalType": "contract IIAssetManager[]",
          "name": "_assetManagers",
          "type": "address[]"
        }
      ],
      "name": "updateContracts",
      "outputs": [],
      "stateMutability": "nonpayable",
      "type": "function"
    },
    {
      "inputs": [
        {
          "internalType": "contract IIAssetManager[]",
          "name": "_assetManagers",
          "type": "address[]"
        },
        {
          "internalType": "uint256",
          "name": "_start",
          "type": "uint256"
        },
        {
          "internalType": "uint256",
          "name": "_end",
          "type": "uint256"
        }
      ],
      "name": "upgradeAgentVaultsAndPools",
      "outputs": [],
      "stateMutability": "nonpayable",
      "type": "function"
    },
    {
      "inputs": [
        {
          "internalType": "contract IIAssetManager[]",
          "name": "_assetManagers",
          "type": "address[]"
        },
        {
          "internalType": "address",
          "name": "_implementation",
          "type": "address"
        },
        {
          "internalType": "bytes",
          "name": "_callData",
          "type": "bytes"
        }
      ],
      "name": "upgradeFAssetImplementation",
      "outputs": [],
      "stateMutability": "nonpayable",
      "type": "function"
    },
    {
      "inputs": [
        {
          "internalType": "address",
          "name": "newImplementation",
          "type": "address"
        }
      ],
      "name": "upgradeTo",
      "outputs": [],
      "stateMutability": "nonpayable",
      "type": "function"
    },
    {
      "inputs": [
        {
          "internalType": "address",
          "name": "newImplementation",
          "type": "address"
        },
        {
          "internalType": "bytes",
          "name": "data",
          "type": "bytes"
        }
      ],
      "name": "upgradeToAndCall",
      "outputs": [],
      "stateMutability": "payable",
      "type": "function"
    }
  ],
  "bytecode": "0x60a06040523060805234801561001457600080fd5b50600061002361111180610051565b61004b817f714f205b2abd25bef1d06a1af944e38c113fe6160375c4e1d6d5cf28848e771955565b50610160565b7f2aa47ee5db910f3b2a06970c443249cc77dbd9f96100cfebc1775ab7fb1d18248054600160a01b900460ff161561009c5760405163b2f0162160e01b815260040160405180910390fd5b6001600160a01b0383166100c3576040516334ab92fb60e11b815260040160405180910390fd5b6001600160a01b0382166100ea576040516334ab92fb60e11b815260040160405180910390fd5b80546001600160a01b038481166001600160a81b031990921691909117600160a01b1782556001820180549184166001600160a01b0319909216821790556040519081527f9789733827840833afc031fb2ef9ab6894271f77bad2085687cf4ae5c7bee4db9060200160405180910390a1505050565b608051613f536101976000396000818161143b01528181611484015281816115c101528181611601015261168a0152613f536000f3fe6080604052600436106104055760003560e01c80637ad62f5111610213578063be46c73d11610123578063dede95f1116100ab578063e789e7d41161007a578063e789e7d414610c5d578063eddaf29314610c7d578063ef098e5514610c9d578063efe058ef14610cbd578063f5a9838314610cdd57600080fd5b8063dede95f114610bd1578063e17f212e14610bf1578063e49ee36d14610c1d578063e77ebcab14610c3d57600080fd5b8063d0c391b5116100f2578063d0c391b514610b31578063d13e499d14610b51578063d285a63614610b71578063d48b75f614610b91578063debfda3014610bb157600080fd5b8063be46c73d14610ab1578063c0c53b8b14610ad1578063c6c257cb14610af1578063cf2fdaa414610b1157600080fd5b8063a6a24e25116101a6578063b00c0b7611610175578063b00c0b7614610a0f578063b4c0a33314610a2f578063b577fc7614610a4f578063b87b82f014610a6f578063bb6f41b314610a9157600080fd5b8063a6a24e251461098f578063a82ee3d5146109af578063aeb41555146109cf578063af823a27146109ef57600080fd5b806397d2fcc6116101e257806397d2fcc61461090f578063987ea8991461092f5780639e1508a11461094f578063a391dd9c1461096f57600080fd5b80637ad62f51146108775780637e3566fe146108af5780637f281299146108cf5780638ca061d4146108ef57600080fd5b806340b9d6b0116103195780635aa6e675116102a15780636a9f8ec8116102705780636a9f8ec8146107d75780636b76ab0e146107f75780636f1f1fc014610817578063758f07f214610837578063763d1a161461085757600080fd5b80635aa6e6751461076d5780635cce89ea14610782578063617637aa146107a257806362354e03146107c257600080fd5b80634f1ef286116102e85780634f1ef286146106c157806351241060146106d45780635267a15d146106f457806352d1902d1461072a578063556d51181461074d57600080fd5b806340b9d6b01461064157806347956606146106615780634944d22d146106815780634a79bc9f146106a157600080fd5b806320c5f99d1161039c5780632af713fc1161036b5780632af713fc146105a15780632d5846da146105c157806334dc3932146105e1578063358bca77146106015780633659cfe61461062157600080fd5b806320c5f99d1461052157806326a9055b1461054157806326df3d0c146105615780632aedabe41461058157600080fd5b8063115a6e15116103d8578063115a6e15146104a157806316fc2f6d146104c1578063171898fe146104e1578063207566711461050157600080fd5b80630117d9871461040a57806301ffc9a71461042c5780630207aff21461046157806305a1790a14610481575b600080fd5b34801561041657600080fd5b5061042a6104253660046132fb565b610cf2565b005b34801561043857600080fd5b5061044c61044736600461333f565b610d2a565b60405190151581526020015b60405180910390f35b34801561046d57600080fd5b5061042a61047c3660046132fb565b610dcd565b34801561048d57600080fd5b5061042a61049c366004613369565b610de7565b3480156104ad57600080fd5b5061042a6104bc3660046132fb565b610e33565b3480156104cd57600080fd5b5061042a6104dc3660046133d8565b610e4d565b3480156104ed57600080fd5b5061042a6104fc36600461344a565b610f01565b34801561050d57600080fd5b5061042a61051c3660046132fb565b610f14565b34801561052d57600080fd5b5061042a61053c3660046133d8565b610f3b565b34801561054d57600080fd5b5061042a61055c3660046132fb565b6110ad565b34801561056d57600080fd5b5061042a61057c3660046132fb565b6110c7565b34801561058d57600080fd5b5061042a61059c3660046132fb565b611165565b3480156105ad57600080fd5b5061042a6105bc366004613467565b61117f565b3480156105cd57600080fd5b5061042a6105dc3660046132fb565b6111a6565b3480156105ed57600080fd5b5061042a6105fc3660046132fb565b6111c0565b34801561060d57600080fd5b5061042a61061c36600461344a565b6111da565b34801561062d57600080fd5b5061042a61063c36600461344a565b61141c565b34801561064d57600080fd5b5061042a61065c3660046132fb565b6114f6565b34801561066d57600080fd5b5061042a61067c3660046132fb565b611510565b34801561068d57600080fd5b5061042a61069c3660046134ad565b61152a565b3480156106ad57600080fd5b5061042a6106bc366004613467565b61157b565b61042a6106cf366004613569565b6115a2565b3480156106e057600080fd5b5061042a6106ef3660046132fb565b611663565b34801561070057600080fd5b50600080516020613e97833981519152545b6040516001600160a01b039091168152602001610458565b34801561073657600080fd5b5061073f61167d565b604051908152602001610458565b34801561075957600080fd5b5061042a6107683660046132fb565b611730565b34801561077957600080fd5b5061071261174a565b34801561078e57600080fd5b5061042a61079d3660046132fb565b6117f3565b3480156107ae57600080fd5b5061042a6107bd3660046132fb565b61180d565b3480156107ce57600080fd5b50610712611827565b3480156107e357600080fd5b5061042a6107f23660046132fb565b611848565b34801561080357600080fd5b5061042a6108123660046135b8565b611862565b34801561082357600080fd5b5061042a6108323660046132fb565b6118d0565b34801561084357600080fd5b5061042a6108523660046132fb565b6118f7565b34801561086357600080fd5b5061042a61087236600461367b565b611911565b34801561088357600080fd5b5061044c61089236600461344a565b6001600160a01b0316600090815260016020526040902054151590565b3480156108bb57600080fd5b5061042a6108ca3660046132fb565b611979565b3480156108db57600080fd5b5061042a6108ea3660046132fb565b611993565b3480156108fb57600080fd5b5061042a61090a36600461372b565b6119ad565b34801561091b57600080fd5b5061042a61092a366004613467565b611a20565b34801561093b57600080fd5b5061042a61094a36600461344a565b611a47565b34801561095b57600080fd5b5061042a61096a3660046132fb565b611ba2565b34801561097b57600080fd5b5061042a61098a3660046134ad565b611bc9565b34801561099b57600080fd5b5061042a6109aa366004613467565b611c27565b3480156109bb57600080fd5b5061042a6109ca3660046132fb565b611c4e565b3480156109db57600080fd5b5061042a6109ea3660046132fb565b611c68565b3480156109fb57600080fd5b5061042a610a0a366004613467565b611c82565b348015610a1b57600080fd5b5061042a610a2a3660046137a6565b611ca9565b348015610a3b57600080fd5b5061042a610a4a36600461385c565b611d3a565b348015610a5b57600080fd5b50600054610712906001600160a01b031681565b348015610a7b57600080fd5b50610a84611d89565b60405161045891906138c3565b348015610a9d57600080fd5b5061042a610aac366004613467565b611e46565b348015610abd57600080fd5b5061042a610acc3660046132fb565b611e6d565b348015610add57600080fd5b5061042a610aec36600461390f565b611e87565b348015610afd57600080fd5b5061042a610b0c36600461344a565b611ea7565b348015610b1d57600080fd5b5061042a610b2c3660046132fb565b611eba565b348015610b3d57600080fd5b5061042a610b4c3660046132fb565b611f53565b348015610b5d57600080fd5b5061042a610b6c3660046135b8565b611f7a565b348015610b7d57600080fd5b5061042a610b8c3660046132fb565b6121d0565b348015610b9d57600080fd5b5061042a610bac366004613467565b6121f7565b348015610bbd57600080fd5b5061044c610bcc36600461344a565b61221e565b348015610bdd57600080fd5b5061042a610bec3660046132fb565b6122b8565b348015610bfd57600080fd5b50600080516020613efe83398151915254600160a81b900460ff1661044c565b348015610c2957600080fd5b5061042a610c3836600461395a565b6122d2565b348015610c4957600080fd5b5061042a610c583660046132fb565b612342565b348015610c6957600080fd5b5061042a610c7836600461398e565b612369565b348015610c8957600080fd5b5061042a610c983660046134ad565b6123c4565b348015610ca957600080fd5b5061042a610cb8366004613467565b612415565b348015610cc957600080fd5b5061042a610cd83660046135b8565b61242f565b348015610ce957600080fd5b5061042a61249d565b610cfa612542565b15610d1d57610d07612578565b610d198263050f443960e01b836125bc565b5050565b610d19600036600061260b565b60006001600160e01b031982166301ffc9a760e01b1480610d5b57506001600160e01b03198216635267a15d60e01b145b80610d7657506001600160e01b0319821663580605bb60e11b145b80610d9157506001600160e01b0319821663c2adada160e01b145b80610dac57506001600160e01b031982166318b5761f60e11b145b80610dc757506001600160e01b0319821663c4c3061b60e01b145b92915050565b610dd5612722565b610d198263d074339560e01b836125bc565b610def612722565b610d198282604051602401610e049190613aad565b60408051601f198184030181529190526020810180516001600160e01b031663eebbcd5560e01b17905261275d565b610e3b612722565b610d19826302c06abf60e41b836125bc565b610e55612722565b604051600080516020613efe83398151915290600090610e789085908590613b90565b6040518091039020905081600201600082815260200190815260200160002054600003610eb85760405163023679b760e21b815260040160405180910390fd5b6040518181527f69b058d6225c01c1f2a25801ca5b05705fa2e9118e93d518390ba804398c87b19060200160405180910390a16000908152600290910160205260408120555050565b610f09612722565b610d196003826127e1565b610f1c612542565b15610d1d57610f29612578565b610d19826315ebe57360e31b836125bc565b600080516020613efe833981519152610f533361221e565b610f7057604051633fdb5f0160e11b815260040160405180910390fd5b60008383604051610f82929190613b90565b60408051918290039091206000818152600285016020529182205490925090819003610fc15760405163023679b760e21b815260040160405180910390fd5b80421015610fe25760405163309272e160e11b815260040160405180910390fd5b6000828152600284016020526040808220829055845460ff60b01b1916600160b01b1785555130906110179088908890613b90565b6000604051808303816000865af19150503d8060008114611054576040519150601f19603f3d011682016040523d82523d6000602084013e611059565b606091505b5050845460ff60b01b191685556040518481529091507fec1225e5a8a8acb91e03ce648c683c74f5d152a775b9715980999441d714c44f9060200160405180910390a16110a5816127f6565b505050505050565b6110b5612722565b610d1982633db7d3b160e11b836125bc565b60006110d161174a565b6001600160a01b0316336001600160a01b031614905080806110f957506110f9600333612813565b6111165760405163ad0e0a7960e01b815260040160405180910390fd5b60405181151560248201526044810183905261116090849060640160408051601f198184030181529190526020810180516001600160e01b0316634d4071c160e01b17905261275d565b505050565b61116d612722565b610d1982632b4572c760e11b836125bc565b611187612542565b15610d1d57611194612578565b610d198263be06971960e01b83612835565b6111ae612722565b610d19826337592f4160e21b836125bc565b6111c8612722565b610d1982639db27f5560e01b836125bc565b6111e2612542565b1561140c576111ef612578565b6001600160a01b03811660009081526001602052604081205490819003611214575050565b6000611221600183613bb6565b60025490915060009061123690600190613bb6565b9050808210156112f0576002818154811061125357611253613bc9565b600091825260209091200154600280546001600160a01b03909216918490811061127f5761127f613bc9565b600091825260209091200180546001600160a01b0319166001600160a01b03929092169190911790556112b3826001613bdf565b60016000600285815481106112ca576112ca613bc9565b60009182526020808320909101546001600160a01b031683528201929092526040019020555b600280548061130157611301613bf2565b60008281526020808220830160001990810180546001600160a01b03191690559092019092556001600160a01b03861680835260018252604080842093909355825163f0c0b72560e01b815292513093919263f0c0b72592600480820193918290030181865afa158015611379573d6000803e3d6000fd5b505050506040513d601f19601f8201168201806040525081019061139d9190613c08565b6001600160a01b0316036114065760405163b928b53360e01b8152600060048201526001600160a01b0385169063b928b53390602401600060405180830381600087803b1580156113ed57600080fd5b505af1158015611401573d6000803e3d6000fd5b505050505b50505050565b611419600036600061260b565b50565b611424612542565b1561140c57611431612578565b6001600160a01b037f00000000000000000000000000000000000000000000000000000000000000001630036114825760405162461bcd60e51b815260040161147990613c25565b60405180910390fd5b7f00000000000000000000000000000000000000000000000000000000000000006001600160a01b03166114b4612857565b6001600160a01b0316146114da5760405162461bcd60e51b815260040161147990613c71565b604080516000808252602082019092526114199183919061286d565b6114fe612722565b610d1982632a92649160e01b836125bc565b611518612722565b610d19826323c0a60360e11b836125bc565b611532612722565b604051602481018390526044810182905261116090849060640160408051601f198184030181529190526020810180516001600160e01b0316633128590960e01b17905261275d565b611583612542565b15610d1d57611590612578565b610d19826309eb52f160e11b83612835565b6115aa612542565b15610d1d576115b7612578565b6001600160a01b037f00000000000000000000000000000000000000000000000000000000000000001630036115ff5760405162461bcd60e51b815260040161147990613c25565b7f00000000000000000000000000000000000000000000000000000000000000006001600160a01b0316611631612857565b6001600160a01b0316146116575760405162461bcd60e51b815260040161147990613c71565b610d198282600161286d565b61166b612722565b610d1982632d62e08f60e11b836125bc565b6000306001600160a01b037f0000000000000000000000000000000000000000000000000000000000000000161461171d5760405162461bcd60e51b815260206004820152603860248201527f555550535570677261646561626c653a206d757374206e6f742062652063616c60448201527f6c6564207468726f7567682064656c656761746563616c6c00000000000000006064820152608401611479565b50600080516020613eb783398151915290565b611738612722565b610d19826340973e9760e11b836125bc565b600080516020613efe833981519152805460009190600160a81b900460ff166117805760018101546001600160a01b03166117ed565b805460408051631cc9492560e21b815290516001600160a01b03909216916373252494916004808201926020929091908290030181865afa1580156117c9573d6000803e3d6000fd5b505050506040513d601f19601f820116820180604052508101906117ed9190613c08565b91505090565b6117fb612722565b610d198263ad74c72d60e01b836125bc565b611815612722565b610d1982636ad6fb4f60e01b836125bc565b6000600080516020613efe8339815191525b546001600160a01b0316919050565b611850612722565b610d1982633b1d0c2960e21b836125bc565b61186a612722565b610d19828280806020026020016040519081016040528093929190818152602001838360200280828437600092019190915250506040805160048152602481019091526020810180516001600160e01b0316636d47df9560e11b179052915061275d9050565b6118d8612542565b15610d1d576118e5612578565b610d19826336f9886b60e11b836125bc565b6118ff612722565b610d198263b2e6a2b560e01b836125bc565b611919612542565b1561196c57611926612578565b61116083838360405160240161193d929190613cf9565b60408051601f198184030181529190526020810180516001600160e01b0316633b145b4960e21b17905261275d565b611160600036600061260b565b611981612722565b610d1982637cdcda2360e11b836125bc565b61199b612722565b610d1982634f0c992160e11b836125bc565b6119b5612542565b15611a13576119c2612578565b611a0e8686868686866040516024016119df959493929190613d1e565b60408051601f198184030181529190526020810180516001600160e01b031663249f1b5960e01b17905261275d565b6110a5565b6110a5600036600061260b565b611a28612542565b15610d1d57611a35612578565b610d198263e443147f60e01b83612835565b611a4f612542565b1561140c57611a5c612578565b6001600160a01b03811660009081526001602052604081205490036114195760028054600180820183557f405787fa12a823e0f2b7631cc41b3ba8828b3321ca811111fa75cd3aa3bb5ace90910180546001600160a01b0319166001600160a01b03851690811790915591546000838152602092835260409081902091909155805163f0c0b72560e01b8152905130939263f0c0b72592600480820193918290030181865afa158015611b13573d6000803e3d6000fd5b505050506040513d601f19601f82011682018060405250810190611b379190613c08565b6001600160a01b0316036114195760405163b928b53360e01b8152600160048201526001600160a01b0382169063b928b53390602401600060405180830381600087803b158015611b8757600080fd5b505af1158015611b9b573d6000803e3d6000fd5b5050505050565b611baa612542565b15610d1d57611bb7612578565b610d198263d57d25c560e01b836125bc565b611bd1612542565b1561196c57611bde612578565b604051602481018390526044810182905261116090849060640160408051601f198184030181529190526020810180516001600160e01b03166334dc4f3f60e11b17905261275d565b611c2f612542565b15610d1d57611c3c612578565b610d1982636f83754b60e11b83612835565b611c56612722565b610d198263dfc5941760e01b836125bc565b611c70612722565b610d19826313bcd55560e11b836125bc565b611c8a612542565b15610d1d57611c97612578565b610d1982637f4fcaa960e01b83612835565b600080516020613e97833981519152546001600160a01b0316336001600160a01b031614611cea57604051633d8aad3760e11b815260040160405180910390fd5b611d30611d1e83836040518060400160405280600e81526020016d20b2323932b9b9aab83230ba32b960911b8152506129d8565b600080516020613e9783398151915255565b610d198282612a8b565b611d42612722565b61140684848484604051602401611d5b93929190613d58565b60408051601f198184030181529190526020810180516001600160e01b03166298ccf760e51b17905261275d565b600254606090806001600160401b03811115611da757611da7613207565b604051908082528060200260200182016040528015611dd0578160200160208202803683370190505b50915060005b81811015611e415760028181548110611df157611df1613bc9565b9060005260206000200160009054906101000a90046001600160a01b0316838281518110611e2157611e21613bc9565b6001600160a01b0390921660209283029190910190910152600101611dd6565b505090565b611e4e612542565b15610d1d57611e5b612578565b610d1982636dd3d58960e01b83612835565b611e75612722565b610d198263cfcb991d60e01b836125bc565b611e918383612b8e565b61116081600080516020613e9783398151915255565b611eaf612722565b610d19600382612c8b565b6000611ec461174a565b6001600160a01b0316336001600160a01b03161490508080611eec5750611eec600333612813565b611f095760405163ad0e0a7960e01b815260040160405180910390fd5b60405181151560248201526044810183905261116090849060640160408051601f198184030181529190526020810180516001600160e01b03166304e48a6d60e51b17905261275d565b611f5b612542565b15610d1d57611f68612578565b610d1982636b38c64360e01b836125bc565b6000611f92600080516020613e978339815191525490565b604051630110ceef60e21b815260206004820152600e60248201526d20b2323932b9b9aab83230ba32b960911b60448201529091506000906001600160a01b038316906304433bbc90606401602060405180830381865afa158015611ffb573d6000803e3d6000fd5b505050506040513d601f19601f8201168201806040525081019061201f9190613c08565b604051630110ceef60e21b815260206004820152601660248201527520b9b9b2ba26b0b730b3b2b921b7b73a3937b63632b960511b60448201529091506000906001600160a01b038416906304433bbc90606401602060405180830381865afa158015612090573d6000803e3d6000fd5b505050506040513d601f19601f820116820180604052508101906120b49190613c08565b90506000836001600160a01b03166304433bbc6040518163ffffffff1660e01b81526004016120fb9060208082526004908201526315d3985d60e21b604082015260600190565b602060405180830381865afa158015612118573d6000803e3d6000fd5b505050506040513d601f19601f8201168201806040525081019061213c9190613c08565b90506001600160a01b0383161580159061215e57506001600160a01b03821615155b801561217257506001600160a01b03811615155b61218f57604051639fabe1c160e01b815260040160405180910390fd5b6110a5868680806020026020016040519081016040528093929190818152602001838360200280828437600092019190915250879250869150859050612ca0565b6121d8612542565b15610d1d576121e5612578565b610d19826346ca288560e11b836125bc565b6121ff612542565b15610d1d5761220c612578565b610d198263cda4c54160e01b83612835565b600080516020613efe833981519152805460009190600160a01b900460ff1680156122b157508054604051630debfda360e41b81526001600160a01b0385811660048301529091169063debfda3090602401602060405180830381865afa15801561228d573d6000803e3d6000fd5b505050506040513d601f19601f820116820180604052508101906122b19190613d80565b9392505050565b6122c0612722565b610d198263e68f3fbf60e01b836125bc565b6122da612722565b6040805160048152602481019091526020810180516001600160e01b031663460831c360e01b17905261230e90829061275d565b6040805160048152602481019091526020810180516001600160e01b0316630249996560e61b17905261141990829061275d565b61234a612542565b15610d1d57612357612578565b610d1982637800a11f60e01b836125bc565b612371612542565b1561196c5761237e612578565b611160838383604051602401612395929190613ded565b60408051601f198184030181529190526020810180516001600160e01b0316636a59860960e01b17905261275d565b6123cc612722565b604051602481018390526044810182905261116090849060640160408051601f198184030181529190526020810180516001600160e01b0316633479125d60e11b17905261275d565b61241d612722565b610d198263f6a494af60e01b83612835565b612437612722565b610d19828280806020026020016040519081016040528093929190818152602001838360200280828437600092019190915250506040805160048152602481019091526020810180516001600160e01b0316635710019160e11b179052915061275d9050565b6124a5612722565b600080516020613efe8339815191528054600160a81b900460ff16156124de576040516339511f6160e11b815260040160405180910390fd5b6001810180546001600160a01b03191690558054600160a81b60ff60a81b1982161782556040516001600160a01b0390911681527f83af113638b5422f9e977cebc0aaf0eaf2188eb9a8baae7f9d46c42b33a1560c9060200160405180910390a150565b600080516020613efe833981519152805460009190600160b01b900460ff16806117ed575054600160a81b900460ff1615919050565b600080516020613efe8339815191528054600160b01b900460ff16156125b4573330146125a7576125a7613e11565b805460ff60b01b19169055565b611419612722565b6111608383836040516024016125d491815260200190565b60408051601f198184030181529190526020810180516001600160e01b03166001600160e01b03199093169290921790915261275d565b600080516020613efe833981519152612622612722565b60008484604051612634929190613b90565b604080519182900382208454636221a54b60e01b845291519093506000926001600160a01b0390921691636221a54b9160048083019260209291908290030181865afa158015612688573d6000803e3d6000fd5b505050506040513d601f19601f820116820180604052508101906126ac9190613e27565b9050838110156126b95750825b60006126c58242613bdf565b600084815260028601602052604090819020829055519091507f8c02104dfc280f713854f25297de671710c544c58de69dbde8fb66974ce1ab9e90612711908990899087908690613e40565b60405180910390a150505050505050565b61272a61174a565b6001600160a01b0316336001600160a01b03161461275b576040516354348f0360e01b815260040160405180910390fd5b565b60005b825181101561116057600083828151811061277d5761277d613bc9565b6020026020010151905060016000826001600160a01b03166001600160a01b03168152602001908152602001600020546000036127cd57604051635894060560e01b815260040160405180910390fd5b6127d78184612d63565b5050600101612760565b60006122b1836001600160a01b038416612da7565b3d604051818101604052816000823e821561280f578181f35b8181fd5b6001600160a01b038116600090815260018301602052604081205415156122b1565b6040516001600160a01b038216602482015261116090849084906044016125d4565b6000600080516020613eb7833981519152611839565b7f4910fdfa16fed3260ed0e7147f7cc6da11a60208b5b9406d12a635614ffd91435460ff16156128a05761116083612e9a565b826001600160a01b03166352d1902d6040518163ffffffff1660e01b8152600401602060405180830381865afa9250505080156128fa575060408051601f3d908101601f191682019092526128f791810190613e27565b60015b61295d5760405162461bcd60e51b815260206004820152602e60248201527f45524331393637557067726164653a206e657720696d706c656d656e7461746960448201526d6f6e206973206e6f74205555505360901b6064820152608401611479565b600080516020613eb783398151915281146129cc5760405162461bcd60e51b815260206004820152602960248201527f45524331393637557067726164653a20756e737570706f727465642070726f786044820152681a58589b195555525160ba1b6064820152608401611479565b50611160838383612f36565b600080826040516020016129ec9190613e67565b6040516020818303038152906040528051906020012090506000805b8651811015612a5a57868181518110612a2357612a23613bc9565b60200260200101518303612a5257858181518110612a4357612a43613bc9565b60200260200101519150612a5a565b600101612a08565b506001600160a01b038116612a825760405163e6ee175560e01b815260040160405180910390fd5b95945050505050565b6000612abe83836040518060400160405280600e81526020016d20b2323932b9b9aab83230ba32b960911b8152506129d8565b90506000612afb84846040518060400160405280601681526020017520b9b9b2ba26b0b730b3b2b921b7b73a3937b63632b960511b8152506129d8565b90506000612b2685856040518060400160405280600481526020016315d3985d60e21b8152506129d8565b9050611b9b6002805480602002602001604051908101604052809291908181526020018280548015612b8157602002820191906000526020600020905b81546001600160a01b03168152600190910190602001808311612b63575b5050505050848484612ca0565b600080516020613efe8339815191528054600160a01b900460ff1615612bc75760405163b2f0162160e01b815260040160405180910390fd5b6001600160a01b038316612bee576040516334ab92fb60e11b815260040160405180910390fd5b6001600160a01b038216612c15576040516334ab92fb60e11b815260040160405180910390fd5b80546001600160a01b038481166001600160a81b031990921691909117600160a01b1782556001820180549184166001600160a01b0319909216821790556040519081527f9789733827840833afc031fb2ef9ab6894271f77bad2085687cf4ae5c7bee4db9060200160405180910390a1505050565b60006122b1836001600160a01b038416612f5b565b600080516020613e97833981519152546001600160a01b0316836001600160a01b031614612cde57612cde83600080516020613e9783398151915255565b6040516001600160a01b03808416602483015282166044820152612d3090859060640160408051601f198184030181529190526020810180516001600160e01b0316636075765d60e01b17905261275d565b6001600160a01b038216301461140657600080546001600160a01b0384166001600160a01b031990911617905550505050565b60606122b1838360006040518060400160405280601e81526020017f416464726573733a206c6f772d6c6576656c2063616c6c206661696c65640000815250612faa565b60008181526001830160205260408120548015612e90576000612dcb600183613bb6565b8554909150600090612ddf90600190613bb6565b9050818114612e44576000866000018281548110612dff57612dff613bc9565b9060005260206000200154905080876000018481548110612e2257612e22613bc9565b6000918252602080832090910192909255918252600188019052604090208390555b8554869080612e5557612e55613bf2565b600190038181906000526020600020016000905590558560010160008681526020019081526020016000206000905560019350505050610dc7565b6000915050610dc7565b6001600160a01b0381163b612f075760405162461bcd60e51b815260206004820152602d60248201527f455243313936373a206e657720696d706c656d656e746174696f6e206973206e60448201526c1bdd08184818dbdb9d1c9858dd609a1b6064820152608401611479565b600080516020613eb783398151915280546001600160a01b0319166001600160a01b0392909216919091179055565b612f3f83613087565b600082511180612f4c5750805b156111605761140683836130c7565b6000818152600183016020526040812054612fa257508154600181810184556000848152602080822090930184905584548482528286019093526040902091909155610dc7565b506000610dc7565b60608247101561300b5760405162461bcd60e51b815260206004820152602660248201527f416464726573733a20696e73756666696369656e742062616c616e636520666f6044820152651c8818d85b1b60d21b6064820152608401611479565b600080866001600160a01b031685876040516130279190613e7a565b60006040518083038185875af1925050503d8060008114613064576040519150601f19603f3d011682016040523d82523d6000602084013e613069565b606091505b509150915061307a878383876130ec565b925050505b949350505050565b61309081612e9a565b6040516001600160a01b038216907fbc7cd75a20ee27fd9adebab32041f755214dbc6bffa90cc0225b39da2e5c2d3b90600090a250565b60606122b18383604051806060016040528060278152602001613ed760279139613165565b6060831561315b578251600003613154576001600160a01b0385163b6131545760405162461bcd60e51b815260206004820152601d60248201527f416464726573733a2063616c6c20746f206e6f6e2d636f6e74726163740000006044820152606401611479565b508161307f565b61307f83836131dd565b6060600080856001600160a01b0316856040516131829190613e7a565b600060405180830381855af49150503d80600081146131bd576040519150601f19603f3d011682016040523d82523d6000602084013e6131c2565b606091505b50915091506131d3868383876130ec565b9695505050505050565b8151156131ed5781518083602001fd5b8060405162461bcd60e51b81526004016114799190613e67565b634e487b7160e01b600052604160045260246000fd5b604051601f8201601f191681016001600160401b038111828210171561324557613245613207565b604052919050565b60006001600160401b0382111561326657613266613207565b5060051b60200190565b6001600160a01b038116811461141957600080fd5b600082601f83011261329657600080fd5b81356132a96132a48261324d565b61321d565b8082825260208201915060208360051b8601019250858311156132cb57600080fd5b602085015b838110156132f15780356132e381613270565b8352602092830192016132d0565b5095945050505050565b6000806040838503121561330e57600080fd5b82356001600160401b0381111561332457600080fd5b61333085828601613285565b95602094909401359450505050565b60006020828403121561335157600080fd5b81356001600160e01b0319811681146122b157600080fd5b6000806040838503121561337c57600080fd5b82356001600160401b0381111561339257600080fd5b61339e85828601613285565b92505060208301356001600160401b038111156133ba57600080fd5b830161014081860312156133cd57600080fd5b809150509250929050565b600080602083850312156133eb57600080fd5b82356001600160401b0381111561340157600080fd5b8301601f8101851361341257600080fd5b80356001600160401b0381111561342857600080fd5b85602082840101111561343a57600080fd5b6020919091019590945092505050565b60006020828403121561345c57600080fd5b81356122b181613270565b6000806040838503121561347a57600080fd5b82356001600160401b0381111561349057600080fd5b61349c85828601613285565b92505060208301356133cd81613270565b6000806000606084860312156134c257600080fd5b83356001600160401b038111156134d857600080fd5b6134e486828701613285565b9660208601359650604090950135949350505050565b600082601f83011261350b57600080fd5b81356001600160401b0381111561352457613524613207565b613537601f8201601f191660200161321d565b81815284602083860101111561354c57600080fd5b816020850160208301376000918101602001919091529392505050565b6000806040838503121561357c57600080fd5b823561358781613270565b915060208301356001600160401b038111156135a257600080fd5b6135ae858286016134fa565b9150509250929050565b600080602083850312156135cb57600080fd5b82356001600160401b038111156135e157600080fd5b8301601f810185136135f257600080fd5b80356001600160401b0381111561360857600080fd5b8560208260051b840101111561343a57600080fd5b600082601f83011261362e57600080fd5b813561363c6132a48261324d565b8082825260208201915060208360051b86010192508583111561365e57600080fd5b602085015b838110156132f1578035835260209283019201613663565b60008060006060848603121561369057600080fd5b83356001600160401b038111156136a657600080fd5b6136b286828701613285565b93505060208401356001600160401b038111156136ce57600080fd5b6136da8682870161361d565b92505060408401356001600160401b038111156136f657600080fd5b6137028682870161361d565b9150509250925092565b80356003811061371b57600080fd5b919050565b803561371b81613270565b60008060008060008060c0878903121561374457600080fd5b86356001600160401b0381111561375a57600080fd5b61376689828a01613285565b9650506137756020880161370c565b9450604087013561378581613270565b959894975094956060810135955060808101359460a0909101359350915050565b600080604083850312156137b957600080fd5b82356001600160401b038111156137cf57600080fd5b8301601f810185136137e057600080fd5b80356137ee6132a48261324d565b8082825260208201915060208360051b85010192508783111561381057600080fd5b6020840193505b82841015613832578335825260209384019390910190613817565b945050505060208301356001600160401b0381111561385057600080fd5b6135ae85828601613285565b6000806000806080858703121561387257600080fd5b84356001600160401b0381111561388857600080fd5b61389487828801613285565b9450506138a36020860161370c565b925060408501356138b381613270565b9396929550929360600135925050565b602080825282518282018190526000918401906040840190835b818110156139045783516001600160a01b03168352602093840193909201916001016138dd565b509095945050505050565b60008060006060848603121561392457600080fd5b833561392f81613270565b9250602084013561393f81613270565b9150604084013561394f81613270565b809150509250925092565b60006020828403121561396c57600080fd5b81356001600160401b0381111561398257600080fd5b61307f84828501613285565b6000806000606084860312156139a357600080fd5b83356001600160401b038111156139b957600080fd5b6139c586828701613285565b93505060208401356139d681613270565b915060408401356001600160401b038111156139f157600080fd5b613702868287016134fa565b60038110613a1b57634e487b7160e01b600052602160045260246000fd5b9052565b801515811461141957600080fd5b803561371b81613a1f565b6000808335601e19843603018112613a4f57600080fd5b83016020810192503590506001600160401b03811115613a6e57600080fd5b803603821315613a7d57600080fd5b9250929050565b81835281816020850137506000828201602090810191909152601f909101601f19169091010190565b60208152613ac660208201613ac18461370c565b6139fd565b6000613ad460208401613720565b6001600160a01b0381166040840152506040830135606083810191909152830135608080840191909152613b09908401613a2d565b80151560a084015250613b1f60a0840184613a38565b61014060c0850152613b3661016085018284613a84565b915050613b4660c0850185613a38565b848303601f190160e0860152613b5d838284613a84565b60e08701356101008781019190915287013561012080880191909152909601356101409095019490945250929392505050565b8183823760009101908152919050565b634e487b7160e01b600052601160045260246000fd5b81810381811115610dc757610dc7613ba0565b634e487b7160e01b600052603260045260246000fd5b80820180821115610dc757610dc7613ba0565b634e487b7160e01b600052603160045260246000fd5b600060208284031215613c1a57600080fd5b81516122b181613270565b6020808252602c908201527f46756e6374696f6e206d7573742062652063616c6c6564207468726f7567682060408201526b19195b1959d85d1958d85b1b60a21b606082015260800190565b6020808252602c908201527f46756e6374696f6e206d7573742062652063616c6c6564207468726f7567682060408201526b6163746976652070726f787960a01b606082015260800190565b600081518084526020840193506020830160005b82811015613cef578151865260209586019590910190600101613cd1565b5093949350505050565b604081526000613d0c6040830185613cbd565b8281036020840152612a828185613cbd565b60a08101613d2c82886139fd565b6001600160a01b0395909516602082015260408101939093526060830191909152608090910152919050565b60608101613d6682866139fd565b6001600160a01b0393909316602082015260400152919050565b600060208284031215613d9257600080fd5b81516122b181613a1f565b60005b83811015613db8578181015183820152602001613da0565b50506000910152565b60008151808452613dd9816020860160208601613d9d565b601f01601f19169290920160200192915050565b6001600160a01b038316815260406020820181905260009061307f90830184613dc1565b634e487b7160e01b600052600160045260246000fd5b600060208284031215613e3957600080fd5b5051919050565b606081526000613e54606083018688613a84565b6020830194909452506040015292915050565b6020815260006122b16020830184613dc1565b60008251613e8c818460208701613d9d565b919091019291505056fe714f205b2abd25bef1d06a1af944e38c113fe6160375c4e1d6d5cf28848e7719360894a13ba1a3210667c828492db98dca3e2076cc3735a920a3ca505d382bbc416464726573733a206c6f772d6c6576656c2064656c65676174652063616c6c206661696c65642aa47ee5db910f3b2a06970c443249cc77dbd9f96100cfebc1775ab7fb1d1824a2646970667358221220d25791439e6f6ff75ad8eacbaf49b08ccfb89f291dc0aa1d9702f09d8e17a65564736f6c634300081b0033",
  "linkReferences": {},
  "deployedLinkReferences": {}
}