{
  "_format": "hh-sol-artifact-1",
  "contractName": "AgentVaultAndPoolSupportFacet",
  "sourceName": "contracts/assetManager/facets/AgentVaultAndPoolSupportFacet.sol",
  "abi": [
    {
      "inputs": [],
      "name": "assetPriceNatWei",
      "outputs": [
        {
          "internalType": "uint256",
          "name": "_multiplier",
          "type": "uint256"
        },
        {
          "internalType": "uint256",
          "name": "_divisor",
          "type": "uint256"
        }
      ],
      "stateMutability": "view",
      "type": "function"
    },
    {
      "inputs": [
        {
          "internalType": "address",
          "name": "_agentVault",
          "type": "address"
        }
      ],
      "name": "getFAssetsBackedByPool",
      "outputs": [
        {
          "internalType": "uint256",
          "name": "",
          "type": "uint256"
        }
      ],
      "stateMutability": "view",
      "type": "function"
    },
    {
      "inputs": [],
      "name": "getWNat",
      "outputs": [
        {
          "internalType": "contract IWNat",
          "name": "",
          "type": "address"
        }
      ],
      "stateMutability": "view",
      "type": "function"
    },
    {
      "inputs": [
        {
          "internalType": "address",
          "name": "_managementAddress",
          "type": "address"
        }
      ],
      "name": "getWorkAddress",
      "outputs": [
        {
          "internalType": "address",
          "name": "",
          "type": "address"
        }
      ],
      "stateMutability": "view",
      "type": "function"
    },
    {
      "inputs": [
        {
          "internalType": "address",
          "name": "_agentVault",
          "type": "address"
        },
        {
          "internalType": "address",
          "name": "_address",
          "type": "address"
        }
      ],
      "name": "isAgentVaultOwner",
      "outputs": [
        {
          "internalType": "bool",
          "name": "",
          "type": "bool"
        }
      ],
      "stateMutability": "view",
      "type": "function"
    },
    {
      "inputs": [
        {
          "internalType": "address",
          "name": "_agentVault",
          "type": "address"
        },
        {
          "internalType": "contract IERC20",
          "name": "_token",
          "type": "address"
        }
      ],
      "name": "isLockedVaultToken",
      "outputs": [
        {
          "internalType": "bool",
          "name": "",
          "type": "bool"
        }
      ],
      "stateMutability": "view",
      "type": "function"
    }
  ],
  "bytecode": "0x6080604052348015600f57600080fd5b50610e2f8061001f6000396000f3fe608060405234801561001057600080fd5b50600436106100625760003560e01c806302312aec14610067578063700104f714610089578063b5a488a6146100ac578063d6b93a9f146100cc578063ed3762aa146100df578063fc31a2e814610100575b600080fd5b61006f610113565b604080519283526020830191909152015b60405180910390f35b61009c610097366004610ad0565b61016b565b6040519015158152602001610080565b6100b4610228565b6040516001600160a01b039091168152602001610080565b61009c6100da366004610ad0565b610237565b6100f26100ed366004610b09565b610252565b604051908152602001610080565b6100b461010e366004610b09565b6102a5565b600080600080516020610dda833981519152610135610130610345565b6103b8565b600c820154909350600160901b900467ffffffffffffffff1661015a6009600a610c23565b6101649190610c2f565b9150509091565b600080610177846103ce565b90506101828161047a565b6001600160a01b0316836001600160a01b0316148061021e57508054604080516332f7ce0b60e21b815290516001600160a01b039092169163cbdf382c916004808201926020929091908290030181865afa1580156101e5573d6000803e3d6000fd5b505050506040513d601f19601f820116820180604052508101906102099190610c46565b6001600160a01b0316836001600160a01b0316145b9150505b92915050565b60006102326104e4565b905090565b600061024b610245846103ce565b83610563565b9392505050565b60008061025e836103ce565b600581015490915061024b9067ffffffffffffffff600160c01b82048116916102969168010000000000000000820481169116610c63565b6102a09190610c63565b6105a4565b60006102d87f4f24f5c433db0962dac0d2c8b84197a6e6c7cc4e5d9ebe1916a1b6193da2f341546001600160a01b031690565b604051631f86345d60e31b81526001600160a01b038481166004830152919091169063fc31a2e8906024015b602060405180830381865afa158015610321573d6000803e3d6000fd5b505050506040513d601f19601f820116820180604052508101906102229190610c46565b7fec7e8c1c441439dd40959777f4c577ea0cd42fcc1dbe59d2bd0f5d9c55df8dc5547fec7e8c1c441439dd40959777f4c577ea0cd42fcc1dbe59d2bd0f5d9c55df8db68054600092829161ffff9091169081106103a4576103a4610c83565b906000526020600020906004020191505090565b60006103c58260006105f8565b50909392505050565b7f5bebac0595fee029d42bb673937f5f1cb81cf8641382bc17774635de9b7d796568010000000000000000600160e01b03604083901b161880600060048084015460ff169081111561042257610422610c99565b036104745760405162461bcd60e51b815260206004820152601b60248201527f696e76616c6964206167656e74207661756c742061646472657373000000000060448201526064015b60405180910390fd5b50919050565b6000807fec7e8c1c441439dd40959777f4c577ea0cd42fcc1dbe59d2bd0f5d9c55df8db660048401548154919250829161010090910461ffff169081106104c3576104c3610c83565b60009182526020909120600490910201546001600160a01b03169392505050565b7fec7e8c1c441439dd40959777f4c577ea0cd42fcc1dbe59d2bd0f5d9c55df8dc5547fec7e8c1c441439dd40959777f4c577ea0cd42fcc1dbe59d2bd0f5d9c55df8db68054600092829161ffff90911690811061054357610543610c83565b60009182526020909120600490910201546001600160a01b031692915050565b60018201546000906001600160a01b038381169116148061024b5750610588836107b7565b6001600160a01b0316826001600160a01b031614905092915050565b7f4f24f5c433db0962dac0d2c8b84197a6e6c7cc4e5d9ebe1916a1b6193da2f34654600090600080516020610dda8339815191529061024b90600160901b900467ffffffffffffffff908116908516610c2f565b60008060008060008061069788600101805461061390610caf565b80601f016020809104026020016040519081016040528092919081815260200182805461063f90610caf565b801561068c5780601f106106615761010080835404028352916020019161068c565b820191906000526020600020905b81548152906001019060200180831161066f57829003601f168201915b50505050508861081d565b8a549295509093509150600160f01b900460ff16156106de5787546000906106cd90600160a81b900460ff16600183878661090b565b96509194508493506107b092505050565b60008060006107798b60020180546106f590610caf565b80601f016020809104026020016040519081016040528092919081815260200182805461072190610caf565b801561076e5780601f106107435761010080835404028352916020019161076e565b820191906000526020600020905b81548152906001019060200180831161075157829003601f168201915b50505050508b61081d565b8d54929550909350915060009061079d90600160a81b900460ff1685848a8961090b565b99509497509095506107b0945050505050565b9250925092565b60006107ea7f4f24f5c433db0962dac0d2c8b84197a6e6c7cc4e5d9ebe1916a1b6193da2f341546001600160a01b031690565b6001830154604051631f86345d60e31b81526001600160a01b03918216600482015291169063fc31a2e890602401610304565b7f4f24f5c433db0962dac0d2c8b84197a6e6c7cc4e5d9ebe1916a1b6193da2f3445460009081908190600080516020610dda833981519152906001600160a01b031685156108df5760405163e4a0a55b60e01b81526001600160a01b0382169063e4a0a55b90610891908a90600401610ce3565b606060405180830381865afa1580156108ae573d6000803e3d6000fd5b505050506040513d601f19601f820116820180604052508101906108d29190610d31565b94509450945050506107b0565b60405163524f388960e01b81526001600160a01b0382169063524f388990610891908a90600401610ce3565b6000600080516020610dda833981519152816009610929878a610d5f565b6109339190610d5f565b600a830154909150600090610953908690600160a81b900460ff16610d5f565b90508082101561096557610965610d72565b6109856109728284610d88565b61097d90600a610c23565b87908a610992565b9998505050505050505050565b60008082116109d65760405162461bcd60e51b815260206004820152601060248201526f4469766973696f6e206279207a65726f60801b604482015260640161046b565b836000036109e65750600061024b565b838302838582816109f9576109f9610d9b565b0403610a1757828181610a0e57610a0e610d9b565b0491505061024b565b506000610a248386610db1565b90506000610a328487610dc5565b90506000610a408587610db1565b90506000610a4e8688610dc5565b905085610a5b8285610c2f565b610a659190610db1565b610a6f8385610c2f565b610a798387610c2f565b88610a848689610c2f565b610a8e9190610c2f565b610a989190610d5f565b610aa29190610d5f565b610aac9190610d5f565b98975050505050505050565b6001600160a01b0381168114610acd57600080fd5b50565b60008060408385031215610ae357600080fd5b8235610aee81610ab8565b91506020830135610afe81610ab8565b809150509250929050565b600060208284031215610b1b57600080fd5b813561024b81610ab8565b634e487b7160e01b600052601160045260246000fd5b6001815b6001841115610b7757808504811115610b5b57610b5b610b26565b6001841615610b6957908102905b60019390931c928002610b40565b935093915050565b600082610b8e57506001610222565b81610b9b57506000610222565b8160018114610bb15760028114610bbb57610bd7565b6001915050610222565b60ff841115610bcc57610bcc610b26565b50506001821b610222565b5060208310610133831016604e8410600b8410161715610bfa575081810a610222565b610c076000198484610b3c565b8060001904821115610c1b57610c1b610b26565b029392505050565b600061024b8383610b7f565b808202811582820484141761022257610222610b26565b600060208284031215610c5857600080fd5b815161024b81610ab8565b67ffffffffffffffff818116838216019081111561022257610222610b26565b634e487b7160e01b600052603260045260246000fd5b634e487b7160e01b600052602160045260246000fd5b600181811c90821680610cc357607f821691505b60208210810361047457634e487b7160e01b600052602260045260246000fd5b602081526000825180602084015260005b81811015610d115760208186018101516040868401015201610cf4565b506000604082850101526040601f19601f83011684010191505092915050565b600080600060608486031215610d4657600080fd5b5050815160208301516040909301519094929350919050565b8082018082111561022257610222610b26565b634e487b7160e01b600052600160045260246000fd5b8181038181111561022257610222610b26565b634e487b7160e01b600052601260045260246000fd5b600082610dc057610dc0610d9b565b500490565b600082610dd457610dd4610d9b565b50069056fe4f24f5c433db0962dac0d2c8b84197a6e6c7cc4e5d9ebe1916a1b6193da2f33aa26469706673582212206105b2a7b2876821c7b7d18fb6ad2a015053fb02ee8221e6eda3fd48fb8e16d164736f6c634300081b0033",
  "linkReferences": {},
  "deployedLinkReferences": {}
}