{
  "_format": "hh-sol-artifact-1",
  "contractName": "AgentVaultAndPoolSupportFacet",
  "sourceName": "contracts/assetManager/facets/AgentVaultAndPoolSupportFacet.sol",
  "abi": [
    {
      "inputs": [],
      "name": "DivisionByZero",
      "type": "error"
    },
    {
      "inputs": [],
      "name": "EmergencyPauseActive",
      "type": "error"
    },
    {
      "inputs": [],
      "name": "InvalidAgentVaultAddress",
      "type": "error"
    },
    {
      "inputs": [],
      "name": "NotAttached",
      "type": "error"
    },
    {
      "inputs": [],
      "name": "NotWhitelisted",
      "type": "error"
    },
    {
      "inputs": [],
      "name": "OnlyAssetManagerController",
      "type": "error"
    },
    {
      "inputs": [],
      "name": "assetPriceNatWei",
      "outputs": [
        {
          "internalType": "uint256",
          "name": "_multiplier",
          "type": "uint256"
        },
        {
          "internalType": "uint256",
          "name": "_divisor",
          "type": "uint256"
        }
      ],
      "stateMutability": "view",
      "type": "function"
    },
    {
      "inputs": [
        {
          "internalType": "address",
          "name": "_agentVault",
          "type": "address"
        }
      ],
      "name": "getFAssetsBackedByPool",
      "outputs": [
        {
          "internalType": "uint256",
          "name": "",
          "type": "uint256"
        }
      ],
      "stateMutability": "view",
      "type": "function"
    },
    {
      "inputs": [],
      "name": "getWNat",
      "outputs": [
        {
          "internalType": "contract IWNat",
          "name": "",
          "type": "address"
        }
      ],
      "stateMutability": "view",
      "type": "function"
    },
    {
      "inputs": [
        {
          "internalType": "address",
          "name": "_managementAddress",
          "type": "address"
        }
      ],
      "name": "getWorkAddress",
      "outputs": [
        {
          "internalType": "address",
          "name": "",
          "type": "address"
        }
      ],
      "stateMutability": "view",
      "type": "function"
    },
    {
      "inputs": [
        {
          "internalType": "address",
          "name": "_agentVault",
          "type": "address"
        },
        {
          "internalType": "address",
          "name": "_address",
          "type": "address"
        }
      ],
      "name": "isAgentVaultOwner",
      "outputs": [
        {
          "internalType": "bool",
          "name": "",
          "type": "bool"
        }
      ],
      "stateMutability": "view",
      "type": "function"
    },
    {
      "inputs": [
        {
          "internalType": "address",
          "name": "_agentVault",
          "type": "address"
        },
        {
          "internalType": "contract IERC20",
          "name": "_token",
          "type": "address"
        }
      ],
      "name": "isLockedVaultToken",
      "outputs": [
        {
          "internalType": "bool",
          "name": "",
          "type": "bool"
        }
      ],
      "stateMutability": "view",
      "type": "function"
    }
  ],
  "bytecode": "0x6080604052348015600f57600080fd5b50610e598061001f6000396000f3fe608060405234801561001057600080fd5b50600436106100625760003560e01c806302312aec14610067578063700104f714610089578063b5a488a6146100ac578063d6b93a9f146100cc578063ed3762aa146100df578063fc31a2e814610100575b600080fd5b61006f610113565b604080519283526020830191909152015b60405180910390f35b61009c610097366004610af4565b61016b565b6040519015158152602001610080565b6100b4610228565b6040516001600160a01b039091168152602001610080565b61009c6100da366004610af4565b610237565b6100f26100ed366004610b2d565b61024f565b604051908152602001610080565b6100b461010e366004610b2d565b6102a9565b600080600080516020610e04833981519152610135610130610349565b6103bc565b600c820154909350600160901b900467ffffffffffffffff1661015a6009600a610c47565b6101649190610c53565b9150509091565b600080610177846103d2565b905061018281610441565b6001600160a01b0316836001600160a01b0316148061021e57508054604080516332f7ce0b60e21b815290516001600160a01b039092169163cbdf382c916004808201926020929091908290030181865afa1580156101e5573d6000803e3d6000fd5b505050506040513d601f19601f820116820180604052508101906102099190610c6a565b6001600160a01b0316836001600160a01b0316145b9150505b92915050565b60006102326104ab565b905090565b6000806102438461052a565b905061021e8184610571565b60008061025b836103d2565b60058101549091506102a29067ffffffffffffffff600160c01b82048116916102939168010000000000000000820481169116610c87565b61029d9190610c87565b6105b1565b9392505050565b60006102dc7f4f24f5c433db0962dac0d2c8b84197a6e6c7cc4e5d9ebe1916a1b6193da2f341546001600160a01b031690565b604051631f86345d60e31b81526001600160a01b038481166004830152919091169063fc31a2e8906024015b602060405180830381865afa158015610325573d6000803e3d6000fd5b505050506040513d601f19601f820116820180604052508101906102229190610c6a565b7fec7e8c1c441439dd40959777f4c577ea0cd42fcc1dbe59d2bd0f5d9c55df8dc5547fec7e8c1c441439dd40959777f4c577ea0cd42fcc1dbe59d2bd0f5d9c55df8db68054600092829161ffff9091169081106103a8576103a8610ca7565b906000526020600020906004020191505090565b60006103c9826000610605565b50909392505050565b6000806103de836107c4565b600481015490915060ff1660008160058111156103fd576103fd610cbd565b1415801561041d5750600581600581111561041a5761041a610cbd565b14155b61043a5760405163d68a46c560e01b815260040160405180910390fd5b5092915050565b6000807fec7e8c1c441439dd40959777f4c577ea0cd42fcc1dbe59d2bd0f5d9c55df8db660048401548154919250829161010090910461ffff1690811061048a5761048a610ca7565b60009182526020909120600490910201546001600160a01b03169392505050565b7fec7e8c1c441439dd40959777f4c577ea0cd42fcc1dbe59d2bd0f5d9c55df8dc5547fec7e8c1c441439dd40959777f4c577ea0cd42fcc1dbe59d2bd0f5d9c55df8db68054600092829161ffff90911690811061050a5761050a610ca7565b60009182526020909120600490910201546001600160a01b031692915050565b600080610536836107c4565b90506000600482015460ff16600581111561055357610553610cbd565b036102225760405163d68a46c560e01b815260040160405180910390fd5b60018201546000906001600160a01b03838116911614806102a25750610596836107fd565b6001600160a01b0316826001600160a01b0316149392505050565b7f4f24f5c433db0962dac0d2c8b84197a6e6c7cc4e5d9ebe1916a1b6193da2f34654600090600080516020610e04833981519152906102a290600160901b900467ffffffffffffffff908116908516610c53565b6000806000806000806106a488600101805461062090610cd3565b80601f016020809104026020016040519081016040528092919081815260200182805461064c90610cd3565b80156106995780601f1061066e57610100808354040283529160200191610699565b820191906000526020600020905b81548152906001019060200180831161067c57829003601f168201915b505050505088610863565b8a549295509093509150600160f01b900460ff16156106eb5787546000906106da90600160a81b900460ff166001838786610951565b96509194508493506107bd92505050565b60008060006107868b600201805461070290610cd3565b80601f016020809104026020016040519081016040528092919081815260200182805461072e90610cd3565b801561077b5780601f106107505761010080835404028352916020019161077b565b820191906000526020600020905b81548152906001019060200180831161075e57829003601f168201915b50505050508b610863565b8d5492955090935091506000906107aa90600160a81b900460ff1685848a89610951565b99509497509095506107bd945050505050565b9250925092565b60401b68010000000000000000600160e01b03167f5bebac0595fee029d42bb673937f5f1cb81cf8641382bc17774635de9b7d79651890565b60006108307f4f24f5c433db0962dac0d2c8b84197a6e6c7cc4e5d9ebe1916a1b6193da2f341546001600160a01b031690565b6001830154604051631f86345d60e31b81526001600160a01b03918216600482015291169063fc31a2e890602401610308565b7f4f24f5c433db0962dac0d2c8b84197a6e6c7cc4e5d9ebe1916a1b6193da2f3445460009081908190600080516020610e04833981519152906001600160a01b031685156109255760405163e4a0a55b60e01b81526001600160a01b0382169063e4a0a55b906108d7908a90600401610d0d565b606060405180830381865afa1580156108f4573d6000803e3d6000fd5b505050506040513d601f19601f820116820180604052508101906109189190610d5b565b94509450945050506107bd565b60405163524f388960e01b81526001600160a01b0382169063524f3889906108d7908a90600401610d0d565b6000600080516020610e0483398151915281600961096f878a610d89565b6109799190610d89565b600a830154909150600090610999908690600160a81b900460ff16610d89565b9050808210156109ab576109ab610d9c565b6109cb6109b88284610db2565b6109c390600a610c47565b87908a6109d8565b9998505050505050505050565b60008082116109fa576040516323d359a360e01b815260040160405180910390fd5b83600003610a0a575060006102a2565b83830283858281610a1d57610a1d610dc5565b0403610a3b57828181610a3257610a32610dc5565b049150506102a2565b506000610a488386610ddb565b90506000610a568487610def565b90506000610a648587610ddb565b90506000610a728688610def565b905085610a7f8285610c53565b610a899190610ddb565b610a938385610c53565b610a9d8387610c53565b88610aa88689610c53565b610ab29190610c53565b610abc9190610d89565b610ac69190610d89565b610ad09190610d89565b98975050505050505050565b6001600160a01b0381168114610af157600080fd5b50565b60008060408385031215610b0757600080fd5b8235610b1281610adc565b91506020830135610b2281610adc565b809150509250929050565b600060208284031215610b3f57600080fd5b81356102a281610adc565b634e487b7160e01b600052601160045260246000fd5b6001815b6001841115610b9b57808504811115610b7f57610b7f610b4a565b6001841615610b8d57908102905b60019390931c928002610b64565b935093915050565b600082610bb257506001610222565b81610bbf57506000610222565b8160018114610bd55760028114610bdf57610bfb565b6001915050610222565b60ff841115610bf057610bf0610b4a565b50506001821b610222565b5060208310610133831016604e8410600b8410161715610c1e575081810a610222565b610c2b6000198484610b60565b8060001904821115610c3f57610c3f610b4a565b029392505050565b60006102a28383610ba3565b808202811582820484141761022257610222610b4a565b600060208284031215610c7c57600080fd5b81516102a281610adc565b67ffffffffffffffff818116838216019081111561022257610222610b4a565b634e487b7160e01b600052603260045260246000fd5b634e487b7160e01b600052602160045260246000fd5b600181811c90821680610ce757607f821691505b602082108103610d0757634e487b7160e01b600052602260045260246000fd5b50919050565b602081526000825180602084015260005b81811015610d3b5760208186018101516040868401015201610d1e565b506000604082850101526040601f19601f83011684010191505092915050565b600080600060608486031215610d7057600080fd5b5050815160208301516040909301519094929350919050565b8082018082111561022257610222610b4a565b634e487b7160e01b600052600160045260246000fd5b8181038181111561022257610222610b4a565b634e487b7160e01b600052601260045260246000fd5b600082610dea57610dea610dc5565b500490565b600082610dfe57610dfe610dc5565b50069056fe4f24f5c433db0962dac0d2c8b84197a6e6c7cc4e5d9ebe1916a1b6193da2f33aa2646970667358221220843bf0a01bdca0474db752b86e04948d526c8248e64955a1f525956ca541e15c64736f6c634300081b0033",
  "linkReferences": {},
  "deployedLinkReferences": {}
}