{
  "_format": "hh-sol-artifact-1",
  "contractName": "AgentVaultAndPoolSupportFacet",
  "sourceName": "contracts/assetManager/facets/AgentVaultAndPoolSupportFacet.sol",
  "abi": [
    {
      "inputs": [],
      "name": "DivisionByZero",
      "type": "error"
    },
    {
      "inputs": [],
      "name": "EmergencyPauseActive",
      "type": "error"
    },
    {
      "inputs": [],
      "name": "InvalidAgentVaultAddress",
      "type": "error"
    },
    {
      "inputs": [],
      "name": "NotAttached",
      "type": "error"
    },
    {
      "inputs": [],
      "name": "NotWhitelisted",
      "type": "error"
    },
    {
      "inputs": [],
      "name": "OnlyAssetManagerController",
      "type": "error"
    },
    {
      "inputs": [],
      "name": "assetPriceNatWei",
      "outputs": [
        {
          "internalType": "uint256",
          "name": "_multiplier",
          "type": "uint256"
        },
        {
          "internalType": "uint256",
          "name": "_divisor",
          "type": "uint256"
        }
      ],
      "stateMutability": "view",
      "type": "function"
    },
    {
      "inputs": [
        {
          "internalType": "address",
          "name": "_agentVault",
          "type": "address"
        }
      ],
      "name": "getFAssetsBackedByPool",
      "outputs": [
        {
          "internalType": "uint256",
          "name": "",
          "type": "uint256"
        }
      ],
      "stateMutability": "view",
      "type": "function"
    },
    {
      "inputs": [],
      "name": "getWNat",
      "outputs": [
        {
          "internalType": "contract IWNat",
          "name": "",
          "type": "address"
        }
      ],
      "stateMutability": "view",
      "type": "function"
    },
    {
      "inputs": [
        {
          "internalType": "address",
          "name": "_managementAddress",
          "type": "address"
        }
      ],
      "name": "getWorkAddress",
      "outputs": [
        {
          "internalType": "address",
          "name": "",
          "type": "address"
        }
      ],
      "stateMutability": "view",
      "type": "function"
    },
    {
      "inputs": [
        {
          "internalType": "address",
          "name": "_agentVault",
          "type": "address"
        },
        {
          "internalType": "address",
          "name": "_address",
          "type": "address"
        }
      ],
      "name": "isAgentVaultOwner",
      "outputs": [
        {
          "internalType": "bool",
          "name": "",
          "type": "bool"
        }
      ],
      "stateMutability": "view",
      "type": "function"
    },
    {
      "inputs": [
        {
          "internalType": "address",
          "name": "_agentVault",
          "type": "address"
        },
        {
          "internalType": "contract IERC20",
          "name": "_token",
          "type": "address"
        }
      ],
      "name": "isLockedVaultToken",
      "outputs": [
        {
          "internalType": "bool",
          "name": "",
          "type": "bool"
        }
      ],
      "stateMutability": "view",
      "type": "function"
    },
    {
      "inputs": [
        {
          "internalType": "contract IERC20",
          "name": "_token",
          "type": "address"
        }
      ],
      "name": "isVaultCollateralToken",
      "outputs": [
        {
          "internalType": "bool",
          "name": "",
          "type": "bool"
        }
      ],
      "stateMutability": "view",
      "type": "function"
    }
  ],
  "bytecode": "0x6080604052348015600f57600080fd5b50610f068061001f6000396000f3fe608060405234801561001057600080fd5b506004361061007d5760003560e01c8063b5a488a61161005b578063b5a488a6146100da578063d6b93a9f146100fa578063ed3762aa1461010d578063fc31a2e81461012e57600080fd5b806302312aec1461008257806339c045df146100a4578063700104f7146100c7575b600080fd5b61008a610141565b604080519283526020830191909152015b60405180910390f35b6100b76100b2366004610b81565b610199565b604051901515815260200161009b565b6100b76100d5366004610b9e565b6101ac565b6100e2610267565b6040516001600160a01b03909116815260200161009b565b6100b7610108366004610b9e565b610276565b61012061011b366004610b81565b61028e565b60405190815260200161009b565b6100e261013c366004610b81565b6102e8565b600080600080516020610e9183398151915261016361015e610388565b6103e9565b600c820154909350600160901b900467ffffffffffffffff166101886009600a610cd4565b6101929190610ce0565b9150509091565b60006101a66002836103ff565b92915050565b6000806101b884610459565b90506101c3816104c8565b6001600160a01b0316836001600160a01b0316148061025f57508054604080516332f7ce0b60e21b815290516001600160a01b039092169163cbdf382c916004808201926020929091908290030181865afa158015610226573d6000803e3d6000fd5b505050506040513d601f19601f8201168201806040525081019061024a9190610cf7565b6001600160a01b0316836001600160a01b0316145b949350505050565b6000610271610520565b905090565b6000806102828461058d565b905061025f81846105d4565b60008061029a83610459565b60058101549091506102e19067ffffffffffffffff600160c01b82048116916102d29168010000000000000000820481169116610d14565b6102dc9190610d14565b610614565b9392505050565b600061031b7f4f24f5c433db0962dac0d2c8b84197a6e6c7cc4e5d9ebe1916a1b6193da2f341546001600160a01b031690565b604051631f86345d60e31b81526001600160a01b038481166004830152919091169063fc31a2e8906024015b602060405180830381865afa158015610364573d6000803e3d6000fd5b505050506040513d601f19601f820116820180604052508101906101a69190610cf7565b7fec7e8c1c441439dd40959777f4c577ea0cd42fcc1dbe59d2bd0f5d9c55df8dc554600080516020610eb18339815191528054600092829161ffff9091169081106103d5576103d5610d34565b906000526020600020906004020191505090565b60006103f6826000610668565b50909392505050565b6000600080516020610eb1833981519152817fec7e8c1c441439dd40959777f4c577ea0cd42fcc1dbe59d2bd0f5d9c55df8db78161043d8787610827565b8152602081019190915260400160002054151595945050505050565b60008061046583610851565b600481015490915060ff16600081600581111561048457610484610d4a565b141580156104a4575060058160058111156104a1576104a1610d4a565b14155b6104c15760405163d68a46c560e01b815260040160405180910390fd5b5092915050565b600080600080516020610eb183398151915260048401548154919250829161010090910461ffff169081106104ff576104ff610d34565b60009182526020909120600490910201546001600160a01b03169392505050565b7fec7e8c1c441439dd40959777f4c577ea0cd42fcc1dbe59d2bd0f5d9c55df8dc554600080516020610eb18339815191528054600092829161ffff90911690811061056d5761056d610d34565b60009182526020909120600490910201546001600160a01b031692915050565b60008061059983610851565b90506000600482015460ff1660058111156105b6576105b6610d4a565b036101a65760405163d68a46c560e01b815260040160405180910390fd5b60018201546000906001600160a01b03838116911614806102e157506105f98361088a565b6001600160a01b0316826001600160a01b0316149392505050565b7f4f24f5c433db0962dac0d2c8b84197a6e6c7cc4e5d9ebe1916a1b6193da2f34654600090600080516020610e91833981519152906102e190600160901b900467ffffffffffffffff908116908516610ce0565b60008060008060008061070788600101805461068390610d60565b80601f01602080910402602001604051908101604052809291908181526020018280546106af90610d60565b80156106fc5780601f106106d1576101008083540402835291602001916106fc565b820191906000526020600020905b8154815290600101906020018083116106df57829003601f168201915b5050505050886108f0565b8a549295509093509150600160f01b900460ff161561074e57875460009061073d90600160a81b900460ff1660018387866109de565b965091945084935061082092505050565b60008060006107e98b600201805461076590610d60565b80601f016020809104026020016040519081016040528092919081815260200182805461079190610d60565b80156107de5780601f106107b3576101008083540402835291602001916107de565b820191906000526020600020905b8154815290600101906020018083116107c157829003601f168201915b50505050508b6108f0565b8d54929550909350915060009061080d90600160a81b900460ff1685848a896109de565b9950949750909550610820945050505050565b9250925092565b6000816001600160a01b031660a084600281111561084757610847610d4a565b901b179392505050565b60401b68010000000000000000600160e01b03167f5bebac0595fee029d42bb673937f5f1cb81cf8641382bc17774635de9b7d79651890565b60006108bd7f4f24f5c433db0962dac0d2c8b84197a6e6c7cc4e5d9ebe1916a1b6193da2f341546001600160a01b031690565b6001830154604051631f86345d60e31b81526001600160a01b03918216600482015291169063fc31a2e890602401610347565b7f4f24f5c433db0962dac0d2c8b84197a6e6c7cc4e5d9ebe1916a1b6193da2f3445460009081908190600080516020610e91833981519152906001600160a01b031685156109b25760405163e4a0a55b60e01b81526001600160a01b0382169063e4a0a55b90610964908a90600401610d9a565b606060405180830381865afa158015610981573d6000803e3d6000fd5b505050506040513d601f19601f820116820180604052508101906109a59190610de8565b9450945094505050610820565b60405163524f388960e01b81526001600160a01b0382169063524f388990610964908a90600401610d9a565b6000600080516020610e918339815191528160096109fc878a610e16565b610a069190610e16565b600a830154909150600090610a26908690600160a81b900460ff16610e16565b905080821015610a3857610a38610e29565b610a58610a458284610e3f565b610a5090600a610cd4565b87908a610a65565b9998505050505050505050565b6000808211610a87576040516323d359a360e01b815260040160405180910390fd5b83600003610a97575060006102e1565b83830283858281610aaa57610aaa610e52565b0403610ac857828181610abf57610abf610e52565b049150506102e1565b506000610ad58386610e68565b90506000610ae38487610e7c565b90506000610af18587610e68565b90506000610aff8688610e7c565b905085610b0c8285610ce0565b610b169190610e68565b610b208385610ce0565b610b2a8387610ce0565b88610b358689610ce0565b610b3f9190610ce0565b610b499190610e16565b610b539190610e16565b610b5d9190610e16565b98975050505050505050565b6001600160a01b0381168114610b7e57600080fd5b50565b600060208284031215610b9357600080fd5b81356102e181610b69565b60008060408385031215610bb157600080fd5b8235610bbc81610b69565b91506020830135610bcc81610b69565b809150509250929050565b634e487b7160e01b600052601160045260246000fd5b6001815b6001841115610c2857808504811115610c0c57610c0c610bd7565b6001841615610c1a57908102905b60019390931c928002610bf1565b935093915050565b600082610c3f575060016101a6565b81610c4c575060006101a6565b8160018114610c625760028114610c6c57610c88565b60019150506101a6565b60ff841115610c7d57610c7d610bd7565b50506001821b6101a6565b5060208310610133831016604e8410600b8410161715610cab575081810a6101a6565b610cb86000198484610bed565b8060001904821115610ccc57610ccc610bd7565b029392505050565b60006102e18383610c30565b80820281158282048414176101a6576101a6610bd7565b600060208284031215610d0957600080fd5b81516102e181610b69565b67ffffffffffffffff81811683821601908111156101a6576101a6610bd7565b634e487b7160e01b600052603260045260246000fd5b634e487b7160e01b600052602160045260246000fd5b600181811c90821680610d7457607f821691505b602082108103610d9457634e487b7160e01b600052602260045260246000fd5b50919050565b602081526000825180602084015260005b81811015610dc85760208186018101516040868401015201610dab565b506000604082850101526040601f19601f83011684010191505092915050565b600080600060608486031215610dfd57600080fd5b5050815160208301516040909301519094929350919050565b808201808211156101a6576101a6610bd7565b634e487b7160e01b600052600160045260246000fd5b818103818111156101a6576101a6610bd7565b634e487b7160e01b600052601260045260246000fd5b600082610e7757610e77610e52565b500490565b600082610e8b57610e8b610e52565b50069056fe4f24f5c433db0962dac0d2c8b84197a6e6c7cc4e5d9ebe1916a1b6193da2f33aec7e8c1c441439dd40959777f4c577ea0cd42fcc1dbe59d2bd0f5d9c55df8db6a26469706673582212204635e953b2d271b021056978bac6ae17f26d4859e5ee83f45be6e52775b8646764736f6c634300081b0033",
  "linkReferences": {},
  "deployedLinkReferences": {}
}