{
  "_format": "hh-sol-artifact-1",
  "contractName": "AddressUpdatableMock",
  "sourceName": "contracts/flareSmartContracts/mock/AddressUpdatableMock.sol",
  "abi": [
    {
      "inputs": [
        {
          "internalType": "address",
          "name": "_addressUpdater",
          "type": "address"
        }
      ],
      "stateMutability": "nonpayable",
      "type": "constructor"
    },
    {
      "inputs": [],
      "name": "AUAddressZero",
      "type": "error"
    },
    {
      "inputs": [],
      "name": "OnlyAddressUpdater",
      "type": "error"
    },
    {
      "inputs": [
        {
          "internalType": "uint256",
          "name": "",
          "type": "uint256"
        }
      ],
      "name": "contractAddresses",
      "outputs": [
        {
          "internalType": "address",
          "name": "",
          "type": "address"
        }
      ],
      "stateMutability": "view",
      "type": "function"
    },
    {
      "inputs": [
        {
          "internalType": "uint256",
          "name": "",
          "type": "uint256"
        }
      ],
      "name": "contractNameHashes",
      "outputs": [
        {
          "internalType": "bytes32",
          "name": "",
          "type": "bytes32"
        }
      ],
      "stateMutability": "view",
      "type": "function"
    },
    {
      "inputs": [],
      "name": "getAddressUpdater",
      "outputs": [
        {
          "internalType": "address",
          "name": "_addressUpdater",
          "type": "address"
        }
      ],
      "stateMutability": "view",
      "type": "function"
    },
    {
      "inputs": [],
      "name": "getContractNameHashesAndAddresses",
      "outputs": [
        {
          "internalType": "bytes32[]",
          "name": "_contractNameHashes",
          "type": "bytes32[]"
        },
        {
          "internalType": "address[]",
          "name": "_contractAddresses",
          "type": "address[]"
        }
      ],
      "stateMutability": "view",
      "type": "function"
    },
    {
      "inputs": [
        {
          "internalType": "bytes32[]",
          "name": "_contractNameHashes",
          "type": "bytes32[]"
        },
        {
          "internalType": "address[]",
          "name": "_contractAddresses",
          "type": "address[]"
        }
      ],
      "name": "updateContractAddresses",
      "outputs": [],
      "stateMutability": "nonpayable",
      "type": "function"
    }
  ],
  "bytecode": "0x6080604052348015600f57600080fd5b506040516107dc3803806107dc833981016040819052602c91605a565b806054817f714f205b2abd25bef1d06a1af944e38c113fe6160375c4e1d6d5cf28848e771955565b50506088565b600060208284031215606b57600080fd5b81516001600160a01b0381168114608157600080fd5b9392505050565b610745806100976000396000f3fe608060405234801561001057600080fd5b50600436106100575760003560e01c806323ccdd221461005c5780633263b5451461007b578063426c3c2d146100a65780635267a15d146100c7578063b00c0b76146100ee575b600080fd5b610064610103565b604051610072929190610458565b60405180910390f35b61008e6100893660046104e3565b6101c0565b6040516001600160a01b039091168152602001610072565b6100b96100b43660046104e3565b6101ea565b604051908152602001610072565b7f714f205b2abd25bef1d06a1af944e38c113fe6160375c4e1d6d5cf28848e77195461008e565b6101016100fc3660046105e9565b61020b565b005b606080600060018180548060200260200160405190810160405280929190818152602001828054801561015557602002820191906000526020600020905b815481526020019060010190808311610141575b50505050509150808054806020026020016040519081016040528092919081815260200182805480156101b157602002820191906000526020600020905b81546001600160a01b03168152600190910190602001808311610193575b50505050509050915091509091565b600181815481106101d057600080fd5b6000918252602090912001546001600160a01b0316905081565b600081815481106101fa57600080fd5b600091825260209091200154905081565b7f714f205b2abd25bef1d06a1af944e38c113fe6160375c4e1d6d5cf28848e7719546001600160a01b0316336001600160a01b03161461025e57604051633d8aad3760e11b815260040160405180910390fd5b6102b661029283836040518060400160405280600e81526020016d20b2323932b9b9aab83230ba32b960911b8152506102c4565b7f714f205b2abd25bef1d06a1af944e38c113fe6160375c4e1d6d5cf28848e771955565b6102c08282610377565b5050565b600080826040516020016102d891906106ab565b6040516020818303038152906040528051906020012090506000805b86518110156103465786818151811061030f5761030f6106f9565b6020026020010151830361033e5785818151811061032f5761032f6106f9565b60200260200101519150610346565b6001016102f4565b506001600160a01b03811661036e5760405163e6ee175560e01b815260040160405180910390fd5b95945050505050565b815161038a9060009060208501906103a3565b50805161039e9060019060208401906103ee565b505050565b8280548282559060005260206000209081019282156103de579160200282015b828111156103de5782518255916020019190600101906103c3565b506103ea929150610443565b5090565b8280548282559060005260206000209081019282156103de579160200282015b828111156103de57825182546001600160a01b0319166001600160a01b0390911617825560209092019160019091019061040e565b5b808211156103ea5760008155600101610444565b6040808252835190820181905260009060208501906060840190835b81811015610492578351835260209384019390920191600101610474565b50508381036020808601919091528551808352918101925085019060005b818110156104d75782516001600160a01b03168452602093840193909201916001016104b0565b50919695505050505050565b6000602082840312156104f557600080fd5b5035919050565b634e487b7160e01b600052604160045260246000fd5b604051601f8201601f1916810167ffffffffffffffff8111828210171561053b5761053b6104fc565b604052919050565b600067ffffffffffffffff82111561055d5761055d6104fc565b5060051b60200190565b600082601f83011261057857600080fd5b813561058b61058682610543565b610512565b8082825260208201915060208360051b8601019250858311156105ad57600080fd5b602085015b838110156105df5780356001600160a01b03811681146105d157600080fd5b8352602092830192016105b2565b5095945050505050565b600080604083850312156105fc57600080fd5b823567ffffffffffffffff81111561061357600080fd5b8301601f8101851361062457600080fd5b803561063261058682610543565b8082825260208201915060208360051b85010192508783111561065457600080fd5b6020840193505b8284101561067657833582526020938401939091019061065b565b9450505050602083013567ffffffffffffffff81111561069557600080fd5b6106a185828601610567565b9150509250929050565b602081526000825180602084015260005b818110156106d957602081860181015160408684010152016106bc565b506000604082850101526040601f19601f83011684010191505092915050565b634e487b7160e01b600052603260045260246000fdfea2646970667358221220da1b5db726d791c1fdee175cb791e48996df2104ca3a984ec029be015106aed264736f6c634300081b0033",
  "linkReferences": {},
  "deployedLinkReferences": {}
}