{
  "_format": "hh-sol-artifact-1",
  "contractName": "AddressUpdatableMock",
  "sourceName": "contracts/flareSmartContracts/mock/AddressUpdatableMock.sol",
  "abi": [
    {
      "inputs": [
        {
          "internalType": "address",
          "name": "_addressUpdater",
          "type": "address"
        }
      ],
      "stateMutability": "nonpayable",
      "type": "constructor"
    },
    {
      "inputs": [
        {
          "internalType": "uint256",
          "name": "",
          "type": "uint256"
        }
      ],
      "name": "contractAddresses",
      "outputs": [
        {
          "internalType": "address",
          "name": "",
          "type": "address"
        }
      ],
      "stateMutability": "view",
      "type": "function"
    },
    {
      "inputs": [
        {
          "internalType": "uint256",
          "name": "",
          "type": "uint256"
        }
      ],
      "name": "contractNameHashes",
      "outputs": [
        {
          "internalType": "bytes32",
          "name": "",
          "type": "bytes32"
        }
      ],
      "stateMutability": "view",
      "type": "function"
    },
    {
      "inputs": [],
      "name": "getAddressUpdater",
      "outputs": [
        {
          "internalType": "address",
          "name": "_addressUpdater",
          "type": "address"
        }
      ],
      "stateMutability": "view",
      "type": "function"
    },
    {
      "inputs": [],
      "name": "getContractNameHashesAndAddresses",
      "outputs": [
        {
          "internalType": "bytes32[]",
          "name": "_contractNameHashes",
          "type": "bytes32[]"
        },
        {
          "internalType": "address[]",
          "name": "_contractAddresses",
          "type": "address[]"
        }
      ],
      "stateMutability": "view",
      "type": "function"
    },
    {
      "inputs": [
        {
          "internalType": "bytes32[]",
          "name": "_contractNameHashes",
          "type": "bytes32[]"
        },
        {
          "internalType": "address[]",
          "name": "_contractAddresses",
          "type": "address[]"
        }
      ],
      "name": "updateContractAddresses",
      "outputs": [],
      "stateMutability": "nonpayable",
      "type": "function"
    }
  ],
  "bytecode": "0x6080604052348015600f57600080fd5b50604051610825380380610825833981016040819052602c91605a565b806054817f714f205b2abd25bef1d06a1af944e38c113fe6160375c4e1d6d5cf28848e771955565b50506088565b600060208284031215606b57600080fd5b81516001600160a01b0381168114608157600080fd5b9392505050565b61078e806100976000396000f3fe608060405234801561001057600080fd5b50600436106100575760003560e01c806323ccdd221461005c5780633263b5451461007b578063426c3c2d146100a65780635267a15d146100c7578063b00c0b76146100ee575b600080fd5b610064610103565b6040516100729291906104a1565b60405180910390f35b61008e61008936600461052c565b6101c0565b6040516001600160a01b039091168152602001610072565b6100b96100b436600461052c565b6101ea565b604051908152602001610072565b7f714f205b2abd25bef1d06a1af944e38c113fe6160375c4e1d6d5cf28848e77195461008e565b6101016100fc366004610632565b61020b565b005b606080600060018180548060200260200160405190810160405280929190818152602001828054801561015557602002820191906000526020600020905b815481526020019060010190808311610141575b50505050509150808054806020026020016040519081016040528092919081815260200182805480156101b157602002820191906000526020600020905b81546001600160a01b03168152600190910190602001808311610193575b50505050509050915091509091565b600181815481106101d057600080fd5b6000918252602090912001546001600160a01b0316905081565b600081815481106101fa57600080fd5b600091825260209091200154905081565b7f714f205b2abd25bef1d06a1af944e38c113fe6160375c4e1d6d5cf28848e7719546001600160a01b0316336001600160a01b0316146102895760405162461bcd60e51b815260206004820152601460248201527337b7363c9030b2323932b9b9903ab83230ba32b960611b60448201526064015b60405180910390fd5b6102e16102bd83836040518060400160405280600e81526020016d20b2323932b9b9aab83230ba32b960911b8152506102ef565b7f714f205b2abd25bef1d06a1af944e38c113fe6160375c4e1d6d5cf28848e771955565b6102eb82826103c0565b5050565b6000808260405160200161030391906106f4565b6040516020818303038152906040528051906020012090506000805b86518110156103715786818151811061033a5761033a610742565b602002602001015183036103695785818151811061035a5761035a610742565b60200260200101519150610371565b60010161031f565b506001600160a01b0381166103b75760405162461bcd60e51b815260206004820152600c60248201526b61646472657373207a65726f60a01b6044820152606401610280565b95945050505050565b81516103d39060009060208501906103ec565b5080516103e7906001906020840190610437565b505050565b828054828255906000526020600020908101928215610427579160200282015b8281111561042757825182559160200191906001019061040c565b5061043392915061048c565b5090565b828054828255906000526020600020908101928215610427579160200282015b8281111561042757825182546001600160a01b0319166001600160a01b03909116178255602090920191600190910190610457565b5b80821115610433576000815560010161048d565b6040808252835190820181905260009060208501906060840190835b818110156104db5783518352602093840193909201916001016104bd565b50508381036020808601919091528551808352918101925085019060005b818110156105205782516001600160a01b03168452602093840193909201916001016104f9565b50919695505050505050565b60006020828403121561053e57600080fd5b5035919050565b634e487b7160e01b600052604160045260246000fd5b604051601f8201601f1916810167ffffffffffffffff8111828210171561058457610584610545565b604052919050565b600067ffffffffffffffff8211156105a6576105a6610545565b5060051b60200190565b600082601f8301126105c157600080fd5b81356105d46105cf8261058c565b61055b565b8082825260208201915060208360051b8601019250858311156105f657600080fd5b602085015b838110156106285780356001600160a01b038116811461061a57600080fd5b8352602092830192016105fb565b5095945050505050565b6000806040838503121561064557600080fd5b823567ffffffffffffffff81111561065c57600080fd5b8301601f8101851361066d57600080fd5b803561067b6105cf8261058c565b8082825260208201915060208360051b85010192508783111561069d57600080fd5b6020840193505b828410156106bf5783358252602093840193909101906106a4565b9450505050602083013567ffffffffffffffff8111156106de57600080fd5b6106ea858286016105b0565b9150509250929050565b602081526000825180602084015260005b818110156107225760208186018101516040868401015201610705565b506000604082850101526040601f19601f83011684010191505092915050565b634e487b7160e01b600052603260045260246000fdfea2646970667358221220302207a75321612a2ec5188a75deb602d938ec2c0d278bb9f96b6dbc238fdab664736f6c634300081b0033",
  "linkReferences": {},
  "deployedLinkReferences": {}
}