{
  "_format": "hh-sol-artifact-1",
  "contractName": "CheckPointableMock",
  "sourceName": "contracts/fassetToken/mock/CheckPointableMock.sol",
  "abi": [
    {
      "inputs": [],
      "name": "CheckPointHistoryReadingFromCleanedupBlock",
      "type": "error"
    },
    {
      "inputs": [],
      "name": "CheckPointableReadingFromCleanedupBlock",
      "type": "error"
    },
    {
      "inputs": [],
      "name": "CleanupBlockMustBeInThePast",
      "type": "error"
    },
    {
      "inputs": [],
      "name": "CleanupBlockNumberMustNeverDecrease",
      "type": "error"
    },
    {
      "inputs": [],
      "name": "OnlyCleanerContract",
      "type": "error"
    },
    {
      "inputs": [],
      "name": "ValueDoesNotFitInOneNineTwoBits",
      "type": "error"
    },
    {
      "anonymous": false,
      "inputs": [
        {
          "indexed": false,
          "internalType": "uint256",
          "name": "_blockNumber",
          "type": "uint256"
        }
      ],
      "name": "CreatedTotalSupplyCache",
      "type": "event"
    },
    {
      "inputs": [
        {
          "internalType": "address",
          "name": "_owner",
          "type": "address"
        },
        {
          "internalType": "uint256",
          "name": "_count",
          "type": "uint256"
        }
      ],
      "name": "balanceHistoryCleanup",
      "outputs": [
        {
          "internalType": "uint256",
          "name": "",
          "type": "uint256"
        }
      ],
      "stateMutability": "nonpayable",
      "type": "function"
    },
    {
      "inputs": [
        {
          "internalType": "address",
          "name": "_owner",
          "type": "address"
        },
        {
          "internalType": "uint256",
          "name": "_blockNumber",
          "type": "uint256"
        }
      ],
      "name": "balanceOfAt",
      "outputs": [
        {
          "internalType": "uint256",
          "name": "_balance",
          "type": "uint256"
        }
      ],
      "stateMutability": "view",
      "type": "function"
    },
    {
      "inputs": [
        {
          "internalType": "address",
          "name": "_owner",
          "type": "address"
        },
        {
          "internalType": "uint256",
          "name": "_amount",
          "type": "uint256"
        }
      ],
      "name": "burnForAtNow",
      "outputs": [],
      "stateMutability": "nonpayable",
      "type": "function"
    },
    {
      "inputs": [],
      "name": "cleanerContract",
      "outputs": [
        {
          "internalType": "address",
          "name": "",
          "type": "address"
        }
      ],
      "stateMutability": "view",
      "type": "function"
    },
    {
      "inputs": [],
      "name": "getCleanupBlockNumber",
      "outputs": [
        {
          "internalType": "uint256",
          "name": "",
          "type": "uint256"
        }
      ],
      "stateMutability": "view",
      "type": "function"
    },
    {
      "inputs": [
        {
          "internalType": "address",
          "name": "_owner",
          "type": "address"
        },
        {
          "internalType": "uint256",
          "name": "_amount",
          "type": "uint256"
        }
      ],
      "name": "mintForAtNow",
      "outputs": [],
      "stateMutability": "nonpayable",
      "type": "function"
    },
    {
      "inputs": [
        {
          "internalType": "uint256",
          "name": "_blockNumber",
          "type": "uint256"
        }
      ],
      "name": "setCleanupBlockNumber",
      "outputs": [],
      "stateMutability": "nonpayable",
      "type": "function"
    },
    {
      "inputs": [
        {
          "internalType": "uint256",
          "name": "_blockNumber",
          "type": "uint256"
        }
      ],
      "name": "totalSupplyAt",
      "outputs": [
        {
          "internalType": "uint256",
          "name": "_totalSupply",
          "type": "uint256"
        }
      ],
      "stateMutability": "view",
      "type": "function"
    },
    {
      "inputs": [
        {
          "internalType": "uint256",
          "name": "_count",
          "type": "uint256"
        }
      ],
      "name": "totalSupplyHistoryCleanup",
      "outputs": [
        {
          "internalType": "uint256",
          "name": "",
          "type": "uint256"
        }
      ],
      "stateMutability": "nonpayable",
      "type": "function"
    },
    {
      "inputs": [
        {
          "internalType": "address",
          "name": "from",
          "type": "address"
        },
        {
          "internalType": "address",
          "name": "to",
          "type": "address"
        },
        {
          "internalType": "uint256",
          "name": "_amount",
          "type": "uint256"
        }
      ],
      "name": "transmitAtNow",
      "outputs": [],
      "stateMutability": "nonpayable",
      "type": "function"
    }
  ],
  "bytecode": "0x6080604052348015600f57600080fd5b50610c548061001f6000396000f3fe608060405234801561001057600080fd5b506004361061009e5760003560e01c8063981b24d011610066578063981b24d0146101175780639ca20e4e1461012a578063a72ec4b614610155578063f0e292c91461015d578063f62f8f3a1461017057600080fd5b806313de97f5146100a35780631c6fcbbf146100b85780633d5b763a146100cb578063480832ac146100de5780634ee2cd7e146100f1575b600080fd5b6100b66100b1366004610afa565b610183565b005b6100b66100c6366004610b2a565b61018f565b6100b66100d9366004610b54565b61019d565b6100b66100ec366004610b2a565b6101ad565b6101046100ff366004610b2a565b6101b7565b6040519081526020015b60405180910390f35b610104610125366004610afa565b6101f1565b60045461013d906001600160a01b031681565b6040516001600160a01b03909116815260200161010e565b610104610229565b61010461016b366004610b2a565b610239565b61010461017e366004610afa565b610283565b61018c816102ca565b50565b6101998282610312565b5050565b6101a8838383610383565b505050565b61019982826103b9565b6000816003548110156101dd5760405163081ec76d60e01b815260040160405180910390fd5b6101e96000858561040a565b949350505050565b6000816003548110156102175760405163081ec76d60e01b815260040160405180910390fd5b610222600184610435565b9392505050565b600061023460035490565b905090565b6004546000906001600160a01b031633146102675760405163ad09c9b560e01b815260040160405180910390fd5b60035461027a9060009085908590610575565b90505b92915050565b6004546000906001600160a01b031633146102b15760405163ad09c9b560e01b815260040160405180910390fd5b6003546102c29060019084906105bb565b90505b919050565b6003548110156102ed5760405163638bc35d60e11b815260040160405180910390fd5b43811061030d57604051630994839760e21b815260040160405180910390fd5b600355565b60008161031f84436101b7565b6103299190610ba7565b9050610337600084836106d4565b60035461034b906000908590600290610575565b5061036b82610359436101f1565b6103639190610ba7565b6001906106f2565b60035461037d906001906002906105bb565b50505050565b61039060008484846108b7565b6003546103a4906000908590600290610575565b5060035461037d906000908490600290610575565b6000816103c684436101b7565b6103d09190610bba565b90506103de600084836106d4565b6003546103f2906000908590600290610575565b5061036b82610400436101f1565b6103639190610bba565b6001600160a01b038216600090815260208490526040812061042c8184610435565b95945050505050565b6001820154600090600160401b90046001600160401b031680820361045e57600091505061027d565b438310158061049b5750836000610476600184610bba565b8152602081019190915260400160002054600160c01b90046001600160401b03168310155b156104d1578360006104ae600184610bba565b81526020810191909152604001600020546001600160c01b0316915061027d9050565b60018401546001600160401b039081166000818152602087905260409020549091600160c01b9091041684101561052c57801561052157604051630375190f60e31b815260040160405180910390fd5b60009250505061027d565b60018501546000906105529087908490600160401b90046001600160401b031688610950565b6000908152602087905260409020546001600160c01b0316935050505092915050565b60006001600160a01b038416156105b0576001600160a01b03841660009081526020869052604090206105a99084846105bb565b90506101e9565b506000949350505050565b6000816000036105cd57506000610222565b6001840154600160401b90046001600160401b031660008190036105f5576000915050610222565b60018501546001600160401b031660006106226106128784610ba7565b61061d600186610bba565b6109db565b9050815b818110801561066357508588600061063f846001610ba7565b8152602081019190915260400160002054600160c01b90046001600160401b031611155b15610689576000818152602089905260408120558061068181610bcd565b915050610626565b828111156106be5761069a816109f1565b60018901805467ffffffffffffffff19166001600160401b03929092169190911790555b6106c88382610bba565b98975050505050505050565b6001600160a01b038216600090815260208490526040902061037d81835b6001820154600160401b90046001600160401b0316600081900361079f57604051806040016040528061072484610a61565b6001600160c01b0316815260200161073b436109f1565b6001600160401b0390811690915260008080526020868152604090912083519390910151909116600160c01b026001600160c01b039092169190911790556001830180546fffffffffffffffff00000000000000001916600160401b179055505050565b600083816107ae600185610bba565b815260208101919091526040016000208054909150600160c01b90046001600160401b031643819003610804576107e484610a61565b82546001600160c01b0319166001600160c01b03919091161782556108b0565b80431161081357610813610be6565b604051806040016040528061082786610a61565b6001600160c01b0316815260200161083e436109f1565b6001600160401b0390811690915260008581526020888152604090912083519390910151909116600160c01b026001600160c01b03909216919091179055610887836001610ba7565b8560010160086101000a8154816001600160401b0302191690836001600160401b031602179055505b5050505050565b801561037d576001600160a01b0383161580156108db57506001600160a01b038216155b156108e8576108e8610be6565b6001600160a01b0383161561091d576000816109048686610a87565b61090e9190610bba565b905061091b8585836106d4565b505b6001600160a01b0382161561037d576000816109398685610a87565b6109439190610ba7565b90506108b08584836106d4565b6000838161095f600186610bba565b90505b818111156109d157600060026109788484610ba7565b610983906001610ba7565b61098d9190610bfc565b600081815260208a90526040902054909150600160c01b90046001600160401b031685106109bd578092506109cb565b6109c8600182610bba565b91505b50610962565b5095945050505050565b60008183106109ea578161027a565b5090919050565b60006001600160401b03821115610a5d5760405162461bcd60e51b815260206004820152602660248201527f53616665436173743a2076616c756520646f65736e27742066697420696e203660448201526534206269747360d01b606482015260840160405180910390fd5b5090565b6000600160c01b8210610a5d5760405163029653c360e01b815260040160405180910390fd5b6001600160a01b03811660009081526020839052604081206101e9816001810154600090600160401b90046001600160401b0316808203610acb5750600092915050565b826000610ad9600184610bba565b81526020810191909152604001600020546001600160c01b03169392505050565b600060208284031215610b0c57600080fd5b5035919050565b80356001600160a01b03811681146102c557600080fd5b60008060408385031215610b3d57600080fd5b610b4683610b13565b946020939093013593505050565b600080600060608486031215610b6957600080fd5b610b7284610b13565b9250610b8060208501610b13565b929592945050506040919091013590565b634e487b7160e01b600052601160045260246000fd5b8082018082111561027d5761027d610b91565b8181038181111561027d5761027d610b91565b600060018201610bdf57610bdf610b91565b5060010190565b634e487b7160e01b600052600160045260246000fd5b600082610c1957634e487b7160e01b600052601260045260246000fd5b50049056fea264697066735822122010f9e357e8ec53861c505c603572538b471ae449cdee1406b1dbc41c8915b69064736f6c634300081b0033",
  "linkReferences": {},
  "deployedLinkReferences": {}
}