{
  "_format": "hh-sol-artifact-1",
  "contractName": "GovernedWithTimelockMock",
  "sourceName": "contracts/governance/mock/GovernedWithTimelockMock.sol",
  "abi": [
    {
      "inputs": [
        {
          "internalType": "contract IGovernanceSettings",
          "name": "_governanceSettings",
          "type": "address"
        },
        {
          "internalType": "address",
          "name": "_initialGovernance",
          "type": "address"
        }
      ],
      "stateMutability": "nonpayable",
      "type": "constructor"
    },
    {
      "anonymous": false,
      "inputs": [
        {
          "indexed": false,
          "internalType": "bytes",
          "name": "encodedCall",
          "type": "bytes"
        },
        {
          "indexed": false,
          "internalType": "bytes32",
          "name": "encodedCallHash",
          "type": "bytes32"
        },
        {
          "indexed": false,
          "internalType": "uint256",
          "name": "allowedAfterTimestamp",
          "type": "uint256"
        }
      ],
      "name": "GovernanceCallTimelocked",
      "type": "event"
    },
    {
      "anonymous": false,
      "inputs": [
        {
          "indexed": false,
          "internalType": "address",
          "name": "initialGovernance",
          "type": "address"
        }
      ],
      "name": "GovernanceInitialised",
      "type": "event"
    },
    {
      "anonymous": false,
      "inputs": [
        {
          "indexed": false,
          "internalType": "address",
          "name": "governanceSettings",
          "type": "address"
        }
      ],
      "name": "GovernedProductionModeEntered",
      "type": "event"
    },
    {
      "anonymous": false,
      "inputs": [
        {
          "indexed": false,
          "internalType": "bytes32",
          "name": "encodedCallHash",
          "type": "bytes32"
        }
      ],
      "name": "TimelockedGovernanceCallCanceled",
      "type": "event"
    },
    {
      "anonymous": false,
      "inputs": [
        {
          "indexed": false,
          "internalType": "bytes32",
          "name": "encodedCallHash",
          "type": "bytes32"
        }
      ],
      "name": "TimelockedGovernanceCallExecuted",
      "type": "event"
    },
    {
      "inputs": [],
      "name": "a",
      "outputs": [
        {
          "internalType": "uint256",
          "name": "",
          "type": "uint256"
        }
      ],
      "stateMutability": "view",
      "type": "function"
    },
    {
      "inputs": [],
      "name": "b",
      "outputs": [
        {
          "internalType": "uint256",
          "name": "",
          "type": "uint256"
        }
      ],
      "stateMutability": "view",
      "type": "function"
    },
    {
      "inputs": [
        {
          "internalType": "bytes",
          "name": "_encodedCall",
          "type": "bytes"
        }
      ],
      "name": "cancelGovernanceCall",
      "outputs": [],
      "stateMutability": "nonpayable",
      "type": "function"
    },
    {
      "inputs": [
        {
          "internalType": "uint256",
          "name": "_value",
          "type": "uint256"
        }
      ],
      "name": "changeA",
      "outputs": [],
      "stateMutability": "nonpayable",
      "type": "function"
    },
    {
      "inputs": [
        {
          "internalType": "uint256",
          "name": "_value",
          "type": "uint256"
        }
      ],
      "name": "changeB",
      "outputs": [],
      "stateMutability": "nonpayable",
      "type": "function"
    },
    {
      "inputs": [
        {
          "internalType": "uint256",
          "name": "_value",
          "type": "uint256"
        }
      ],
      "name": "changeWithRevert",
      "outputs": [],
      "stateMutability": "nonpayable",
      "type": "function"
    },
    {
      "inputs": [
        {
          "internalType": "bytes",
          "name": "_encodedCall",
          "type": "bytes"
        }
      ],
      "name": "executeGovernanceCall",
      "outputs": [],
      "stateMutability": "nonpayable",
      "type": "function"
    },
    {
      "inputs": [],
      "name": "governance",
      "outputs": [
        {
          "internalType": "address",
          "name": "",
          "type": "address"
        }
      ],
      "stateMutability": "view",
      "type": "function"
    },
    {
      "inputs": [],
      "name": "governanceSettings",
      "outputs": [
        {
          "internalType": "contract IGovernanceSettings",
          "name": "",
          "type": "address"
        }
      ],
      "stateMutability": "view",
      "type": "function"
    },
    {
      "inputs": [
        {
          "internalType": "uint256",
          "name": "_increment",
          "type": "uint256"
        }
      ],
      "name": "increaseA",
      "outputs": [],
      "stateMutability": "nonpayable",
      "type": "function"
    },
    {
      "inputs": [
        {
          "internalType": "address",
          "name": "_address",
          "type": "address"
        }
      ],
      "name": "isExecutor",
      "outputs": [
        {
          "internalType": "bool",
          "name": "",
          "type": "bool"
        }
      ],
      "stateMutability": "view",
      "type": "function"
    },
    {
      "inputs": [],
      "name": "productionMode",
      "outputs": [
        {
          "internalType": "bool",
          "name": "",
          "type": "bool"
        }
      ],
      "stateMutability": "view",
      "type": "function"
    },
    {
      "inputs": [],
      "name": "switchToProductionMode",
      "outputs": [],
      "stateMutability": "nonpayable",
      "type": "function"
    }
  ],
  "bytecode": "0x608060405234801561001057600080fd5b50604051610dd9380380610dd983398101604081905261002f916101f0565b818161003b8282610044565b5050505061022a565b7f2aa47ee5db910f3b2a06970c443249cc77dbd9f96100cfebc1775ab7fb1d18248054600160a01b900460ff16156100c35760405162461bcd60e51b815260206004820152601460248201527f696e697469616c6973656420213d2066616c736500000000000000000000000060448201526064015b60405180910390fd5b6001600160a01b0383166101195760405162461bcd60e51b815260206004820152601860248201527f676f7665726e616e63652073657474696e6773207a65726f000000000000000060448201526064016100ba565b6001600160a01b0382166101625760405162461bcd60e51b815260206004820152601060248201526f5f676f7665726e616e6365207a65726f60801b60448201526064016100ba565b80546001600160a01b038481166001600160a81b031990921691909117600160a01b1782556001820180549184166001600160a01b0319909216821790556040519081527f9789733827840833afc031fb2ef9ab6894271f77bad2085687cf4ae5c7bee4db9060200160405180910390a1505050565b6001600160a01b03811681146101ed57600080fd5b50565b6000806040838503121561020357600080fd5b825161020e816101d8565b602084015190925061021f816101d8565b809150509250929050565b610ba0806102396000396000f3fe608060405234801561001057600080fd5b50600436106100cf5760003560e01c806366ff86bd1161008c578063debfda3011610066578063debfda3014610198578063e17f212e146101bb578063f5a98383146101da578063fcbfcc71146101e257600080fd5b806366ff86bd1461015f578063aa4f49ce14610172578063d17961911461018557600080fd5b80630dbe671f146100d457806316fc2f6d146100f057806320c5f99d146101055780634df7e3d0146101185780635aa6e6751461012157806362354e0314610141575b600080fd5b6100dd60005481565b6040519081526020015b60405180910390f35b6101036100fe3660046109a8565b6101f5565b005b6101036101133660046109a8565b6102dd565b6100dd60015481565b6101296104cc565b6040516001600160a01b0390911681526020016100e7565b600080516020610b4b833981519152546001600160a01b0316610129565b61010361016d366004610a1a565b610575565b610103610180366004610a1a565b610582565b610103610193366004610a1a565b6105c3565b6101ab6101a6366004610a48565b610616565b60405190151581526020016100e7565b600080516020610b4b83398151915254600160a81b900460ff166101ab565b6101036106b0565b6101036101f0366004610a1a565b610784565b6101fd61079e565b604051600080516020610b4b833981519152906000906102209085908590610a65565b60405180910390209050816002016000828152602001908152602001600020546000036102945760405162461bcd60e51b815260206004820152601a60248201527f74696d656c6f636b3a20696e76616c69642073656c6563746f7200000000000060448201526064015b60405180910390fd5b6040518181527f69b058d6225c01c1f2a25801ca5b05705fa2e9118e93d518390ba804398c87b19060200160405180910390a16000908152600290910160205260408120555050565b600080516020610b4b8339815191526102f533610616565b6103315760405162461bcd60e51b815260206004820152600d60248201526c37b7363c9032bc32b1baba37b960991b604482015260640161028b565b60008383604051610343929190610a65565b604080519182900390912060008181526002850160205291822054909250908190036103b15760405162461bcd60e51b815260206004820152601a60248201527f74696d656c6f636b3a20696e76616c69642073656c6563746f72000000000000604482015260640161028b565b804210156104015760405162461bcd60e51b815260206004820152601960248201527f74696d656c6f636b3a206e6f7420616c6c6f7765642079657400000000000000604482015260640161028b565b6000828152600284016020526040808220829055845460ff60b01b1916600160b01b1785555130906104369088908890610a65565b6000604051808303816000865af19150503d8060008114610473576040519150601f19603f3d011682016040523d82523d6000602084013e610478565b606091505b5050845460ff60b01b191685556040518481529091507fec1225e5a8a8acb91e03ce648c683c74f5d152a775b9715980999441d714c44f9060200160405180910390a16104c4816107fa565b505050505050565b600080516020610b4b833981519152805460009190600160a81b900460ff166105025760018101546001600160a01b031661056f565b805460408051631cc9492560e21b815290516001600160a01b03909216916373252494916004808201926020929091908290030181865afa15801561054b573d6000803e3d6000fd5b505050506040513d601f19601f8201168201806040525081019061056f9190610a75565b91505090565b61057d61079e565b600155565b61058a610817565b156105b35761059761084d565b806000808282546105a89190610a92565b909155506105c09050565b6105c06000366000610891565b50565b6105cb610817565b156105b3576105d861084d565b600081905560405162461bcd60e51b815260206004820152600e60248201526d1d1a1a5cc81a5cc81c995d995c9d60921b604482015260640161028b565b600080516020610b4b833981519152805460009190600160a01b900460ff1680156106a957508054604051630debfda360e41b81526001600160a01b0385811660048301529091169063debfda3090602401602060405180830381865afa158015610685573d6000803e3d6000fd5b505050506040513d601f19601f820116820180604052508101906106a99190610ab9565b9392505050565b6106b861079e565b600080516020610b4b8339815191528054600160a81b900460ff16156107205760405162461bcd60e51b815260206004820152601a60248201527f616c726561647920696e2070726f64756374696f6e206d6f6465000000000000604482015260640161028b565b6001810180546001600160a01b03191690558054600160a81b60ff60a81b1982161782556040516001600160a01b0390911681527f83af113638b5422f9e977cebc0aaf0eaf2188eb9a8baae7f9d46c42b33a1560c9060200160405180910390a150565b61078c610817565b156105b35761079961084d565b600055565b6107a66104cc565b6001600160a01b0316336001600160a01b0316146107f85760405162461bcd60e51b815260206004820152600f60248201526e6f6e6c7920676f7665726e616e636560881b604482015260640161028b565b565b3d604051818101604052816000823e8215610813578181f35b8181fd5b600080516020610b4b833981519152805460009190600160b01b900460ff168061056f575054600160a81b900460ff1615919050565b600080516020610b4b8339815191528054600160b01b900460ff16156108895733301461087c5761087c610adb565b805460ff60b01b19169055565b6105c061079e565b600080516020610b4b8339815191526108a861079e565b600084846040516108ba929190610a65565b604080519182900382208454636221a54b60e01b845291519093506000926001600160a01b0390921691636221a54b9160048083019260209291908290030181865afa15801561090e573d6000803e3d6000fd5b505050506040513d601f19601f820116820180604052508101906109329190610af1565b90508381101561093f5750825b600061094b8242610a92565b600084815260028601602052604090819020829055519091507f8c02104dfc280f713854f25297de671710c544c58de69dbde8fb66974ce1ab9e90610997908990899087908690610b0a565b60405180910390a150505050505050565b600080602083850312156109bb57600080fd5b823567ffffffffffffffff808211156109d357600080fd5b818501915085601f8301126109e757600080fd5b8135818111156109f657600080fd5b866020828501011115610a0857600080fd5b60209290920196919550909350505050565b600060208284031215610a2c57600080fd5b5035919050565b6001600160a01b03811681146105c057600080fd5b600060208284031215610a5a57600080fd5b81356106a981610a33565b8183823760009101908152919050565b600060208284031215610a8757600080fd5b81516106a981610a33565b80820180821115610ab357634e487b7160e01b600052601160045260246000fd5b92915050565b600060208284031215610acb57600080fd5b815180151581146106a957600080fd5b634e487b7160e01b600052600160045260246000fd5b600060208284031215610b0357600080fd5b5051919050565b606081528360608201528385608083013760006080858301015260006080601f19601f87011683010190508360208301528260408301529594505050505056fe2aa47ee5db910f3b2a06970c443249cc77dbd9f96100cfebc1775ab7fb1d1824a2646970667358221220931f9be751f6d038b1f9c924822fc936e7118f7397b526097f7e0e7b3de4b11e64736f6c63430008170033",
  "linkReferences": {},
  "deployedLinkReferences": {}
}