{
  "_format": "hh-sol-artifact-1",
  "contractName": "GovernedWithTimelockMock",
  "sourceName": "contracts/governance/mock/GovernedWithTimelockMock.sol",
  "abi": [
    {
      "inputs": [
        {
          "internalType": "contract IGovernanceSettings",
          "name": "_governanceSettings",
          "type": "address"
        },
        {
          "internalType": "address",
          "name": "_initialGovernance",
          "type": "address"
        }
      ],
      "stateMutability": "nonpayable",
      "type": "constructor"
    },
    {
      "inputs": [],
      "name": "AlreadyInProductionMode",
      "type": "error"
    },
    {
      "inputs": [],
      "name": "GovernedAddressZero",
      "type": "error"
    },
    {
      "inputs": [],
      "name": "GovernedAlreadyInitialized",
      "type": "error"
    },
    {
      "inputs": [],
      "name": "OnlyExecutor",
      "type": "error"
    },
    {
      "inputs": [],
      "name": "OnlyGovernance",
      "type": "error"
    },
    {
      "inputs": [],
      "name": "TimelockInvalidSelector",
      "type": "error"
    },
    {
      "inputs": [],
      "name": "TimelockNotAllowedYet",
      "type": "error"
    },
    {
      "anonymous": false,
      "inputs": [
        {
          "indexed": false,
          "internalType": "bytes",
          "name": "encodedCall",
          "type": "bytes"
        },
        {
          "indexed": false,
          "internalType": "bytes32",
          "name": "encodedCallHash",
          "type": "bytes32"
        },
        {
          "indexed": false,
          "internalType": "uint256",
          "name": "allowedAfterTimestamp",
          "type": "uint256"
        }
      ],
      "name": "GovernanceCallTimelocked",
      "type": "event"
    },
    {
      "anonymous": false,
      "inputs": [
        {
          "indexed": false,
          "internalType": "address",
          "name": "initialGovernance",
          "type": "address"
        }
      ],
      "name": "GovernanceInitialised",
      "type": "event"
    },
    {
      "anonymous": false,
      "inputs": [
        {
          "indexed": false,
          "internalType": "address",
          "name": "governanceSettings",
          "type": "address"
        }
      ],
      "name": "GovernedProductionModeEntered",
      "type": "event"
    },
    {
      "anonymous": false,
      "inputs": [
        {
          "indexed": false,
          "internalType": "bytes32",
          "name": "encodedCallHash",
          "type": "bytes32"
        }
      ],
      "name": "TimelockedGovernanceCallCanceled",
      "type": "event"
    },
    {
      "anonymous": false,
      "inputs": [
        {
          "indexed": false,
          "internalType": "bytes32",
          "name": "encodedCallHash",
          "type": "bytes32"
        }
      ],
      "name": "TimelockedGovernanceCallExecuted",
      "type": "event"
    },
    {
      "inputs": [],
      "name": "a",
      "outputs": [
        {
          "internalType": "uint256",
          "name": "",
          "type": "uint256"
        }
      ],
      "stateMutability": "view",
      "type": "function"
    },
    {
      "inputs": [],
      "name": "b",
      "outputs": [
        {
          "internalType": "uint256",
          "name": "",
          "type": "uint256"
        }
      ],
      "stateMutability": "view",
      "type": "function"
    },
    {
      "inputs": [
        {
          "internalType": "bytes",
          "name": "_encodedCall",
          "type": "bytes"
        }
      ],
      "name": "cancelGovernanceCall",
      "outputs": [],
      "stateMutability": "nonpayable",
      "type": "function"
    },
    {
      "inputs": [
        {
          "internalType": "uint256",
          "name": "_value",
          "type": "uint256"
        }
      ],
      "name": "changeA",
      "outputs": [],
      "stateMutability": "nonpayable",
      "type": "function"
    },
    {
      "inputs": [
        {
          "internalType": "uint256",
          "name": "_value",
          "type": "uint256"
        }
      ],
      "name": "changeB",
      "outputs": [],
      "stateMutability": "nonpayable",
      "type": "function"
    },
    {
      "inputs": [
        {
          "internalType": "uint256",
          "name": "_value",
          "type": "uint256"
        }
      ],
      "name": "changeWithRevert",
      "outputs": [],
      "stateMutability": "nonpayable",
      "type": "function"
    },
    {
      "inputs": [
        {
          "internalType": "bytes",
          "name": "_encodedCall",
          "type": "bytes"
        }
      ],
      "name": "executeGovernanceCall",
      "outputs": [],
      "stateMutability": "nonpayable",
      "type": "function"
    },
    {
      "inputs": [],
      "name": "governance",
      "outputs": [
        {
          "internalType": "address",
          "name": "",
          "type": "address"
        }
      ],
      "stateMutability": "view",
      "type": "function"
    },
    {
      "inputs": [],
      "name": "governanceSettings",
      "outputs": [
        {
          "internalType": "contract IGovernanceSettings",
          "name": "",
          "type": "address"
        }
      ],
      "stateMutability": "view",
      "type": "function"
    },
    {
      "inputs": [
        {
          "internalType": "uint256",
          "name": "_increment",
          "type": "uint256"
        }
      ],
      "name": "increaseA",
      "outputs": [],
      "stateMutability": "nonpayable",
      "type": "function"
    },
    {
      "inputs": [
        {
          "internalType": "address",
          "name": "_address",
          "type": "address"
        }
      ],
      "name": "isExecutor",
      "outputs": [
        {
          "internalType": "bool",
          "name": "",
          "type": "bool"
        }
      ],
      "stateMutability": "view",
      "type": "function"
    },
    {
      "inputs": [],
      "name": "productionMode",
      "outputs": [
        {
          "internalType": "bool",
          "name": "",
          "type": "bool"
        }
      ],
      "stateMutability": "view",
      "type": "function"
    },
    {
      "inputs": [],
      "name": "switchToProductionMode",
      "outputs": [],
      "stateMutability": "nonpayable",
      "type": "function"
    }
  ],
  "bytecode": "0x608060405234801561001057600080fd5b50604051610c59380380610c5983398101604081905261002f9161016b565b818161003b8282610044565b505050506101a5565b7f2aa47ee5db910f3b2a06970c443249cc77dbd9f96100cfebc1775ab7fb1d18248054600160a01b900460ff161561008f5760405163b2f0162160e01b815260040160405180910390fd5b6001600160a01b0383166100b6576040516334ab92fb60e11b815260040160405180910390fd5b6001600160a01b0382166100dd576040516334ab92fb60e11b815260040160405180910390fd5b80546001600160a01b038481166001600160a81b031990921691909117600160a01b1782556001820180549184166001600160a01b0319909216821790556040519081527f9789733827840833afc031fb2ef9ab6894271f77bad2085687cf4ae5c7bee4db9060200160405180910390a1505050565b6001600160a01b038116811461016857600080fd5b50565b6000806040838503121561017e57600080fd5b825161018981610153565b602084015190925061019a81610153565b809150509250929050565b610aa5806101b46000396000f3fe608060405234801561001057600080fd5b50600436106100cf5760003560e01c806366ff86bd1161008c578063debfda3011610066578063debfda3014610198578063e17f212e146101bb578063f5a98383146101da578063fcbfcc71146101e257600080fd5b806366ff86bd1461015f578063aa4f49ce14610172578063d17961911461018557600080fd5b80630dbe671f146100d457806316fc2f6d146100f057806320c5f99d146101055780634df7e3d0146101185780635aa6e6751461012157806362354e0314610141575b600080fd5b6100dd60005481565b6040519081526020015b60405180910390f35b6101036100fe3660046108ab565b6101f5565b005b6101036101133660046108ab565b6102a9565b6100dd60015481565b61012961041b565b6040516001600160a01b0390911681526020016100e7565b600080516020610a50833981519152546001600160a01b0316610129565b61010361016d36600461091f565b6104c4565b61010361018036600461091f565b6104d1565b61010361019336600461091f565b610512565b6101ab6101a636600461094d565b610569565b60405190151581526020016100e7565b600080516020610a5083398151915254600160a81b900460ff166101ab565b610103610603565b6101036101f036600461091f565b6106a8565b6101fd6106c2565b604051600080516020610a5083398151915290600090610220908590859061096a565b60405180910390209050816002016000828152602001908152602001600020546000036102605760405163023679b760e21b815260040160405180910390fd5b6040518181527f69b058d6225c01c1f2a25801ca5b05705fa2e9118e93d518390ba804398c87b19060200160405180910390a16000908152600290910160205260408120555050565b600080516020610a508339815191526102c133610569565b6102de57604051633fdb5f0160e11b815260040160405180910390fd5b600083836040516102f092919061096a565b6040805191829003909120600081815260028501602052918220549092509081900361032f5760405163023679b760e21b815260040160405180910390fd5b804210156103505760405163309272e160e11b815260040160405180910390fd5b6000828152600284016020526040808220829055845460ff60b01b1916600160b01b178555513090610385908890889061096a565b6000604051808303816000865af19150503d80600081146103c2576040519150601f19603f3d011682016040523d82523d6000602084013e6103c7565b606091505b5050845460ff60b01b191685556040518481529091507fec1225e5a8a8acb91e03ce648c683c74f5d152a775b9715980999441d714c44f9060200160405180910390a1610413816106fd565b505050505050565b600080516020610a50833981519152805460009190600160a81b900460ff166104515760018101546001600160a01b03166104be565b805460408051631cc9492560e21b815290516001600160a01b03909216916373252494916004808201926020929091908290030181865afa15801561049a573d6000803e3d6000fd5b505050506040513d601f19601f820116820180604052508101906104be919061097a565b91505090565b6104cc6106c2565b600155565b6104d961071a565b15610502576104e6610750565b806000808282546104f79190610997565b9091555061050f9050565b61050f6000366000610794565b50565b61051a61071a565b1561050257610527610750565b600081905560405162461bcd60e51b815260206004820152600e60248201526d1d1a1a5cc81a5cc81c995d995c9d60921b604482015260640160405180910390fd5b600080516020610a50833981519152805460009190600160a01b900460ff1680156105fc57508054604051630debfda360e41b81526001600160a01b0385811660048301529091169063debfda3090602401602060405180830381865afa1580156105d8573d6000803e3d6000fd5b505050506040513d601f19601f820116820180604052508101906105fc91906109be565b9392505050565b61060b6106c2565b600080516020610a508339815191528054600160a81b900460ff1615610644576040516339511f6160e11b815260040160405180910390fd5b6001810180546001600160a01b03191690558054600160a81b60ff60a81b1982161782556040516001600160a01b0390911681527f83af113638b5422f9e977cebc0aaf0eaf2188eb9a8baae7f9d46c42b33a1560c9060200160405180910390a150565b6106b061071a565b15610502576106bd610750565b600055565b6106ca61041b565b6001600160a01b0316336001600160a01b0316146106fb576040516354348f0360e01b815260040160405180910390fd5b565b3d604051818101604052816000823e8215610716578181f35b8181fd5b600080516020610a50833981519152805460009190600160b01b900460ff16806104be575054600160a81b900460ff1615919050565b600080516020610a508339815191528054600160b01b900460ff161561078c5733301461077f5761077f6109e0565b805460ff60b01b19169055565b61050f6106c2565b600080516020610a508339815191526107ab6106c2565b600084846040516107bd92919061096a565b604080519182900382208454636221a54b60e01b845291519093506000926001600160a01b0390921691636221a54b9160048083019260209291908290030181865afa158015610811573d6000803e3d6000fd5b505050506040513d601f19601f8201168201806040525081019061083591906109f6565b9050838110156108425750825b600061084e8242610997565b600084815260028601602052604090819020829055519091507f8c02104dfc280f713854f25297de671710c544c58de69dbde8fb66974ce1ab9e9061089a908990899087908690610a0f565b60405180910390a150505050505050565b600080602083850312156108be57600080fd5b823567ffffffffffffffff8111156108d557600080fd5b8301601f810185136108e657600080fd5b803567ffffffffffffffff8111156108fd57600080fd5b85602082840101111561090f57600080fd5b6020919091019590945092505050565b60006020828403121561093157600080fd5b5035919050565b6001600160a01b038116811461050f57600080fd5b60006020828403121561095f57600080fd5b81356105fc81610938565b8183823760009101908152919050565b60006020828403121561098c57600080fd5b81516105fc81610938565b808201808211156109b857634e487b7160e01b600052601160045260246000fd5b92915050565b6000602082840312156109d057600080fd5b815180151581146105fc57600080fd5b634e487b7160e01b600052600160045260246000fd5b600060208284031215610a0857600080fd5b5051919050565b606081528360608201528385608083013760006080858301015260006080601f19601f87011683010190508360208301528260408301529594505050505056fe2aa47ee5db910f3b2a06970c443249cc77dbd9f96100cfebc1775ab7fb1d1824a26469706673582212201151fef11acb25278753ec9fa4367d8576948dc2e502c8a46c07601f2d23e27c64736f6c634300081b0033",
  "linkReferences": {},
  "deployedLinkReferences": {}
}