{
  "_format": "hh-sol-artifact-1",
  "contractName": "CheckPointsByAddressMock",
  "sourceName": "contracts/fassetToken/mock/CheckPointsByAddressMock.sol",
  "abi": [
    {
      "inputs": [],
      "name": "CheckPointHistoryReadingFromCleanedupBlock",
      "type": "error"
    },
    {
      "inputs": [],
      "name": "ValueDoesNotFitInOneNineTwoBits",
      "type": "error"
    },
    {
      "inputs": [
        {
          "internalType": "address",
          "name": "_owner",
          "type": "address"
        },
        {
          "internalType": "uint256",
          "name": "_count",
          "type": "uint256"
        },
        {
          "internalType": "uint256",
          "name": "_cleanupBlockNumber",
          "type": "uint256"
        }
      ],
      "name": "cleanupOldCheckpoints",
      "outputs": [],
      "stateMutability": "nonpayable",
      "type": "function"
    },
    {
      "inputs": [
        {
          "internalType": "address",
          "name": "_from",
          "type": "address"
        },
        {
          "internalType": "address",
          "name": "_to",
          "type": "address"
        },
        {
          "internalType": "uint256",
          "name": "_amount",
          "type": "uint256"
        }
      ],
      "name": "transmit",
      "outputs": [],
      "stateMutability": "nonpayable",
      "type": "function"
    },
    {
      "inputs": [
        {
          "internalType": "address",
          "name": "_owner",
          "type": "address"
        },
        {
          "internalType": "uint256",
          "name": "_blockNumber",
          "type": "uint256"
        }
      ],
      "name": "valueOfAt",
      "outputs": [
        {
          "internalType": "uint256",
          "name": "",
          "type": "uint256"
        }
      ],
      "stateMutability": "view",
      "type": "function"
    },
    {
      "inputs": [
        {
          "internalType": "address",
          "name": "_owner",
          "type": "address"
        }
      ],
      "name": "valueOfAtNow",
      "outputs": [
        {
          "internalType": "uint256",
          "name": "",
          "type": "uint256"
        }
      ],
      "stateMutability": "view",
      "type": "function"
    },
    {
      "inputs": [
        {
          "internalType": "address",
          "name": "_owner",
          "type": "address"
        },
        {
          "internalType": "uint256",
          "name": "_value",
          "type": "uint256"
        }
      ],
      "name": "writeValue",
      "outputs": [],
      "stateMutability": "nonpayable",
      "type": "function"
    }
  ],
  "bytecode": "0x6080604052348015600f57600080fd5b506109c58061001f6000396000f3fe608060405234801561001057600080fd5b50600436106100575760003560e01c806336f758da1461005c5780636ad38e611461008157806398eb07f414610096578063dbd61627146100a9578063dd54a82a146100bc575b600080fd5b61006f61006a36600461084d565b6100cf565b60405190815260200160405180910390f35b61009461008f366004610868565b6100e1565b005b6100946100a43660046108a5565b6100f3565b61006f6100b73660046108a5565b610103565b6100946100ca3660046108cf565b610117565b60006100db818361012a565b92915050565b6100ee6000848484610153565b505050565b6100ff600083836101f3565b5050565b6000610110818484610215565b9392505050565b6101246000848484610240565b50505050565b6001600160a01b038116600090815260208390526040812061014b81610286565b949350505050565b8015610124576001600160a01b03831615801561017757506001600160a01b038216155b1561018457610184610902565b6001600160a01b038316156101b9576000816101a0868661012a565b6101aa919061092e565b90506101b78585836101f3565b505b6001600160a01b03821615610124576000816101d5868561012a565b6101df9190610941565b90506101ec8584836101f3565b5050505050565b6001600160a01b038216600090815260208490526040902061012481836102dd565b6001600160a01b038216600090815260208490526040812061023781846104a1565b95945050505050565b60006001600160a01b0384161561027b576001600160a01b03841660009081526020869052604090206102749084846105e1565b905061014b565b506000949350505050565b6001810154600090600160401b90046001600160401b03168082036102ae5750600092915050565b8260006102bc60018461092e565b81526020810191909152604001600020546001600160c01b03169392505050565b6001820154600160401b90046001600160401b0316600081900361038a57604051806040016040528061030f846106fa565b6001600160c01b0316815260200161032643610724565b6001600160401b0390811690915260008080526020868152604090912083519390910151909116600160c01b026001600160c01b039092169190911790556001830180546fffffffffffffffff00000000000000001916600160401b179055505050565b6000838161039960018561092e565b815260208101919091526040016000208054909150600160c01b90046001600160401b0316438190036103ef576103cf846106fa565b82546001600160c01b0319166001600160c01b03919091161782556101ec565b8043116103fe576103fe610902565b6040518060400160405280610412866106fa565b6001600160c01b0316815260200161042943610724565b6001600160401b0390811690915260008581526020888152604090912083519390910151909116600160c01b026001600160c01b03909216919091179055610472836001610941565b8560010160086101000a8154816001600160401b0302191690836001600160401b031602179055505050505050565b6001820154600090600160401b90046001600160401b03168082036104ca5760009150506100db565b438310158061050757508360006104e260018461092e565b8152602081019190915260400160002054600160c01b90046001600160401b03168310155b1561053d5783600061051a60018461092e565b81526020810191909152604001600020546001600160c01b031691506100db9050565b60018401546001600160401b039081166000818152602087905260409020549091600160c01b9091041684101561059857801561058d57604051630375190f60e31b815260040160405180910390fd5b6000925050506100db565b60018501546000906105be9087908490600160401b90046001600160401b031688610790565b6000908152602087905260409020546001600160c01b0316935050505092915050565b6000816000036105f357506000610110565b6001840154600160401b90046001600160401b0316600081900361061b576000915050610110565b60018501546001600160401b031660006106486106388784610941565b61064360018661092e565b61081b565b9050815b8181108015610689575085886000610665846001610941565b8152602081019190915260400160002054600160c01b90046001600160401b031611155b156106af57600081815260208990526040812055806106a781610954565b91505061064c565b828111156106e4576106c081610724565b60018901805467ffffffffffffffff19166001600160401b03929092169190911790555b6106ee838261092e565b98975050505050505050565b6000600160c01b82106107205760405163029653c360e01b815260040160405180910390fd5b5090565b60006001600160401b038211156107205760405162461bcd60e51b815260206004820152602660248201527f53616665436173743a2076616c756520646f65736e27742066697420696e203660448201526534206269747360d01b606482015260840160405180910390fd5b6000838161079f60018661092e565b90505b8181111561081157600060026107b88484610941565b6107c3906001610941565b6107cd919061096d565b600081815260208a90526040902054909150600160c01b90046001600160401b031685106107fd5780925061080b565b61080860018261092e565b91505b506107a2565b5095945050505050565b600081831061082a5781610110565b5090919050565b80356001600160a01b038116811461084857600080fd5b919050565b60006020828403121561085f57600080fd5b61011082610831565b60008060006060848603121561087d57600080fd5b61088684610831565b925061089460208501610831565b929592945050506040919091013590565b600080604083850312156108b857600080fd5b6108c183610831565b946020939093013593505050565b6000806000606084860312156108e457600080fd5b6108ed84610831565b95602085013595506040909401359392505050565b634e487b7160e01b600052600160045260246000fd5b634e487b7160e01b600052601160045260246000fd5b818103818111156100db576100db610918565b808201808211156100db576100db610918565b60006001820161096657610966610918565b5060010190565b60008261098a57634e487b7160e01b600052601260045260246000fd5b50049056fea264697066735822122087e78d9a3ced10f4a6d5c8f1e60a578c7e3519813f88a09ce5260674506f3b1f64736f6c634300081b0033",
  "linkReferences": {},
  "deployedLinkReferences": {}
}