{
  "_format": "hh-sol-artifact-1",
  "contractName": "FakeERC20",
  "sourceName": "contracts/assetManager/mock/FakeERC20.sol",
  "abi": [
    {
      "inputs": [
        {
          "internalType": "contract IGovernanceSettings",
          "name": "_governanceSettings",
          "type": "address"
        },
        {
          "internalType": "address",
          "name": "_initialGovernance",
          "type": "address"
        },
        {
          "internalType": "string",
          "name": "_name",
          "type": "string"
        },
        {
          "internalType": "string",
          "name": "_symbol",
          "type": "string"
        },
        {
          "internalType": "uint8",
          "name": "_decimals",
          "type": "uint8"
        }
      ],
      "stateMutability": "nonpayable",
      "type": "constructor"
    },
    {
      "anonymous": false,
      "inputs": [
        {
          "indexed": true,
          "internalType": "address",
          "name": "owner",
          "type": "address"
        },
        {
          "indexed": true,
          "internalType": "address",
          "name": "spender",
          "type": "address"
        },
        {
          "indexed": false,
          "internalType": "uint256",
          "name": "value",
          "type": "uint256"
        }
      ],
      "name": "Approval",
      "type": "event"
    },
    {
      "anonymous": false,
      "inputs": [
        {
          "indexed": false,
          "internalType": "bytes",
          "name": "encodedCall",
          "type": "bytes"
        },
        {
          "indexed": false,
          "internalType": "bytes32",
          "name": "encodedCallHash",
          "type": "bytes32"
        },
        {
          "indexed": false,
          "internalType": "uint256",
          "name": "allowedAfterTimestamp",
          "type": "uint256"
        }
      ],
      "name": "GovernanceCallTimelocked",
      "type": "event"
    },
    {
      "anonymous": false,
      "inputs": [
        {
          "indexed": false,
          "internalType": "address",
          "name": "initialGovernance",
          "type": "address"
        }
      ],
      "name": "GovernanceInitialised",
      "type": "event"
    },
    {
      "anonymous": false,
      "inputs": [
        {
          "indexed": false,
          "internalType": "address",
          "name": "governanceSettings",
          "type": "address"
        }
      ],
      "name": "GovernedProductionModeEntered",
      "type": "event"
    },
    {
      "anonymous": false,
      "inputs": [
        {
          "indexed": false,
          "internalType": "bytes32",
          "name": "encodedCallHash",
          "type": "bytes32"
        }
      ],
      "name": "TimelockedGovernanceCallCanceled",
      "type": "event"
    },
    {
      "anonymous": false,
      "inputs": [
        {
          "indexed": false,
          "internalType": "bytes32",
          "name": "encodedCallHash",
          "type": "bytes32"
        }
      ],
      "name": "TimelockedGovernanceCallExecuted",
      "type": "event"
    },
    {
      "anonymous": false,
      "inputs": [
        {
          "indexed": true,
          "internalType": "address",
          "name": "from",
          "type": "address"
        },
        {
          "indexed": true,
          "internalType": "address",
          "name": "to",
          "type": "address"
        },
        {
          "indexed": false,
          "internalType": "uint256",
          "name": "value",
          "type": "uint256"
        }
      ],
      "name": "Transfer",
      "type": "event"
    },
    {
      "inputs": [
        {
          "internalType": "address",
          "name": "owner",
          "type": "address"
        },
        {
          "internalType": "address",
          "name": "spender",
          "type": "address"
        }
      ],
      "name": "allowance",
      "outputs": [
        {
          "internalType": "uint256",
          "name": "",
          "type": "uint256"
        }
      ],
      "stateMutability": "view",
      "type": "function"
    },
    {
      "inputs": [
        {
          "internalType": "address",
          "name": "spender",
          "type": "address"
        },
        {
          "internalType": "uint256",
          "name": "amount",
          "type": "uint256"
        }
      ],
      "name": "approve",
      "outputs": [
        {
          "internalType": "bool",
          "name": "",
          "type": "bool"
        }
      ],
      "stateMutability": "nonpayable",
      "type": "function"
    },
    {
      "inputs": [
        {
          "internalType": "address",
          "name": "account",
          "type": "address"
        }
      ],
      "name": "balanceOf",
      "outputs": [
        {
          "internalType": "uint256",
          "name": "",
          "type": "uint256"
        }
      ],
      "stateMutability": "view",
      "type": "function"
    },
    {
      "inputs": [
        {
          "internalType": "uint256",
          "name": "_amount",
          "type": "uint256"
        }
      ],
      "name": "burnAmount",
      "outputs": [],
      "stateMutability": "nonpayable",
      "type": "function"
    },
    {
      "inputs": [
        {
          "internalType": "bytes",
          "name": "_encodedCall",
          "type": "bytes"
        }
      ],
      "name": "cancelGovernanceCall",
      "outputs": [],
      "stateMutability": "nonpayable",
      "type": "function"
    },
    {
      "inputs": [],
      "name": "decimals",
      "outputs": [
        {
          "internalType": "uint8",
          "name": "",
          "type": "uint8"
        }
      ],
      "stateMutability": "view",
      "type": "function"
    },
    {
      "inputs": [
        {
          "internalType": "address",
          "name": "spender",
          "type": "address"
        },
        {
          "internalType": "uint256",
          "name": "subtractedValue",
          "type": "uint256"
        }
      ],
      "name": "decreaseAllowance",
      "outputs": [
        {
          "internalType": "bool",
          "name": "",
          "type": "bool"
        }
      ],
      "stateMutability": "nonpayable",
      "type": "function"
    },
    {
      "inputs": [
        {
          "internalType": "bytes",
          "name": "_encodedCall",
          "type": "bytes"
        }
      ],
      "name": "executeGovernanceCall",
      "outputs": [],
      "stateMutability": "nonpayable",
      "type": "function"
    },
    {
      "inputs": [],
      "name": "governance",
      "outputs": [
        {
          "internalType": "address",
          "name": "",
          "type": "address"
        }
      ],
      "stateMutability": "view",
      "type": "function"
    },
    {
      "inputs": [],
      "name": "governanceSettings",
      "outputs": [
        {
          "internalType": "contract IGovernanceSettings",
          "name": "",
          "type": "address"
        }
      ],
      "stateMutability": "view",
      "type": "function"
    },
    {
      "inputs": [
        {
          "internalType": "address",
          "name": "spender",
          "type": "address"
        },
        {
          "internalType": "uint256",
          "name": "addedValue",
          "type": "uint256"
        }
      ],
      "name": "increaseAllowance",
      "outputs": [
        {
          "internalType": "bool",
          "name": "",
          "type": "bool"
        }
      ],
      "stateMutability": "nonpayable",
      "type": "function"
    },
    {
      "inputs": [
        {
          "internalType": "address",
          "name": "_address",
          "type": "address"
        }
      ],
      "name": "isExecutor",
      "outputs": [
        {
          "internalType": "bool",
          "name": "",
          "type": "bool"
        }
      ],
      "stateMutability": "view",
      "type": "function"
    },
    {
      "inputs": [
        {
          "internalType": "address",
          "name": "_target",
          "type": "address"
        },
        {
          "internalType": "uint256",
          "name": "amount",
          "type": "uint256"
        }
      ],
      "name": "mintAmount",
      "outputs": [],
      "stateMutability": "nonpayable",
      "type": "function"
    },
    {
      "inputs": [],
      "name": "name",
      "outputs": [
        {
          "internalType": "string",
          "name": "",
          "type": "string"
        }
      ],
      "stateMutability": "view",
      "type": "function"
    },
    {
      "inputs": [],
      "name": "productionMode",
      "outputs": [
        {
          "internalType": "bool",
          "name": "",
          "type": "bool"
        }
      ],
      "stateMutability": "view",
      "type": "function"
    },
    {
      "inputs": [
        {
          "internalType": "bytes4",
          "name": "_interfaceId",
          "type": "bytes4"
        }
      ],
      "name": "supportsInterface",
      "outputs": [
        {
          "internalType": "bool",
          "name": "",
          "type": "bool"
        }
      ],
      "stateMutability": "pure",
      "type": "function"
    },
    {
      "inputs": [],
      "name": "switchToProductionMode",
      "outputs": [],
      "stateMutability": "nonpayable",
      "type": "function"
    },
    {
      "inputs": [],
      "name": "symbol",
      "outputs": [
        {
          "internalType": "string",
          "name": "",
          "type": "string"
        }
      ],
      "stateMutability": "view",
      "type": "function"
    },
    {
      "inputs": [],
      "name": "totalSupply",
      "outputs": [
        {
          "internalType": "uint256",
          "name": "",
          "type": "uint256"
        }
      ],
      "stateMutability": "view",
      "type": "function"
    },
    {
      "inputs": [
        {
          "internalType": "address",
          "name": "to",
          "type": "address"
        },
        {
          "internalType": "uint256",
          "name": "amount",
          "type": "uint256"
        }
      ],
      "name": "transfer",
      "outputs": [
        {
          "internalType": "bool",
          "name": "",
          "type": "bool"
        }
      ],
      "stateMutability": "nonpayable",
      "type": "function"
    },
    {
      "inputs": [
        {
          "internalType": "address",
          "name": "from",
          "type": "address"
        },
        {
          "internalType": "address",
          "name": "to",
          "type": "address"
        },
        {
          "internalType": "uint256",
          "name": "amount",
          "type": "uint256"
        }
      ],
      "name": "transferFrom",
      "outputs": [
        {
          "internalType": "bool",
          "name": "",
          "type": "bool"
        }
      ],
      "stateMutability": "nonpayable",
      "type": "function"
    }
  ],
  "bytecode": "0x60a06040523480156200001157600080fd5b50604051620019f7380380620019f78339810160408190526200003491620002f7565b84848484600362000046838262000439565b50600462000055828262000439565b5050506200006a82826200007d60201b60201c565b505060ff16608052506200050592505050565b7f2aa47ee5db910f3b2a06970c443249cc77dbd9f96100cfebc1775ab7fb1d18248054600160a01b900460ff1615620000fd5760405162461bcd60e51b815260206004820152601460248201527f696e697469616c6973656420213d2066616c736500000000000000000000000060448201526064015b60405180910390fd5b6001600160a01b038316620001555760405162461bcd60e51b815260206004820152601860248201527f676f7665726e616e63652073657474696e6773207a65726f00000000000000006044820152606401620000f4565b6001600160a01b038216620001a05760405162461bcd60e51b815260206004820152601060248201526f5f676f7665726e616e6365207a65726f60801b6044820152606401620000f4565b80546001600160a01b038481166001600160a81b031990921691909117600160a01b1782556001820180549184166001600160a01b0319909216821790556040519081527f9789733827840833afc031fb2ef9ab6894271f77bad2085687cf4ae5c7bee4db9060200160405180910390a1505050565b6001600160a01b03811681146200022c57600080fd5b50565b634e487b7160e01b600052604160045260246000fd5b600082601f8301126200025757600080fd5b81516001600160401b03808211156200027457620002746200022f565b604051601f8301601f19908116603f011681019082821181831017156200029f576200029f6200022f565b8160405283815260209250866020858801011115620002bd57600080fd5b600091505b83821015620002e15785820183015181830184015290820190620002c2565b6000602085830101528094505050505092915050565b600080600080600060a086880312156200031057600080fd5b85516200031d8162000216565b6020870151909550620003308162000216565b60408701519094506001600160401b03808211156200034e57600080fd5b6200035c89838a0162000245565b945060608801519150808211156200037357600080fd5b50620003828882890162000245565b925050608086015160ff811681146200039a57600080fd5b809150509295509295909350565b600181811c90821680620003bd57607f821691505b602082108103620003de57634e487b7160e01b600052602260045260246000fd5b50919050565b601f82111562000434576000816000526020600020601f850160051c810160208610156200040f5750805b601f850160051c820191505b8181101562000430578281556001016200041b565b5050505b505050565b81516001600160401b038111156200045557620004556200022f565b6200046d81620004668454620003a8565b84620003e4565b602080601f831160018114620004a557600084156200048c5750858301515b600019600386901b1c1916600185901b17855562000430565b600085815260208120601f198616915b82811015620004d657888601518255948401946001909101908401620004b5565b5085821015620004f55787850151600019600388901b60f8161c191681555b5050505050600190811b01905550565b6080516114d66200052160003960006101f301526114d66000f3fe608060405234801561001057600080fd5b50600436106101375760003560e01c80635aa6e675116100b8578063a457c2d71161007c578063a457c2d7146102b2578063a9059cbb146102c5578063dd62ed3e146102d8578063debfda30146102eb578063e17f212e146102fe578063f5a983831461031d57600080fd5b80635aa6e6751461023057806362354e03146102505780636fafdf831461026e57806370a082311461028157806395d89b41146102aa57600080fd5b806318160ddd116100ff57806318160ddd146101b457806320c5f99d146101c657806323b872dd146101d9578063313ce567146101ec578063395093511461021d57600080fd5b806301ffc9a71461013c57806306fdde0314610164578063095ea7b3146101795780630e583dd21461018c57806316fc2f6d146101a1575b600080fd5b61014f61014a36600461118b565b610325565b60405190151581526020015b60405180910390f35b61016c610377565b60405161015b91906111b5565b61014f610187366004611219565b610409565b61019f61019a366004611219565b610421565b005b61019f6101af366004611245565b610451565b6002545b60405190815260200161015b565b61019f6101d4366004611245565b610539565b61014f6101e73660046112b7565b610728565b60405160ff7f000000000000000000000000000000000000000000000000000000000000000016815260200161015b565b61014f61022b366004611219565b61074c565b61023861076e565b6040516001600160a01b03909116815260200161015b565b600080516020611481833981519152546001600160a01b0316610238565b61019f61027c3660046112f8565b610817565b6101b861028f366004611311565b6001600160a01b031660009081526020819052604090205490565b61016c610824565b61014f6102c0366004611219565b610833565b61014f6102d3366004611219565b6108ae565b6101b86102e636600461132e565b6108bc565b61014f6102f9366004611311565b6108e7565b60008051602061148183398151915254600160a81b900460ff1661014f565b61019f610981565b60006001600160e01b031982166301ffc9a760e01b148061035657506001600160e01b031982166336372b0760e01b145b8061037157506001600160e01b0319821663a219a02560e01b145b92915050565b60606003805461038690611367565b80601f01602080910402602001604051908101604052809291908181526020018280546103b290611367565b80156103ff5780601f106103d4576101008083540402835291602001916103ff565b820191906000526020600020905b8154815290600101906020018083116103e257829003601f168201915b5050505050905090565b600033610417818585610a55565b5060019392505050565b610429610b7a565b1561044457610436610bb0565b6104408282610bf4565b5050565b6104406000366000610cb3565b610459610dca565b6040516000805160206114818339815191529060009061047c90859085906113a1565b60405180910390209050816002016000828152602001908152602001600020546000036104f05760405162461bcd60e51b815260206004820152601a60248201527f74696d656c6f636b3a20696e76616c69642073656c6563746f7200000000000060448201526064015b60405180910390fd5b6040518181527f69b058d6225c01c1f2a25801ca5b05705fa2e9118e93d518390ba804398c87b19060200160405180910390a16000908152600290910160205260408120555050565b600080516020611481833981519152610551336108e7565b61058d5760405162461bcd60e51b815260206004820152600d60248201526c37b7363c9032bc32b1baba37b960991b60448201526064016104e7565b6000838360405161059f9291906113a1565b6040805191829003909120600081815260028501602052918220549092509081900361060d5760405162461bcd60e51b815260206004820152601a60248201527f74696d656c6f636b3a20696e76616c69642073656c6563746f7200000000000060448201526064016104e7565b8042101561065d5760405162461bcd60e51b815260206004820152601960248201527f74696d656c6f636b3a206e6f7420616c6c6f776564207965740000000000000060448201526064016104e7565b6000828152600284016020526040808220829055845460ff60b01b1916600160b01b17855551309061069290889088906113a1565b6000604051808303816000865af19150503d80600081146106cf576040519150601f19603f3d011682016040523d82523d6000602084013e6106d4565b606091505b5050845460ff60b01b191685556040518481529091507fec1225e5a8a8acb91e03ce648c683c74f5d152a775b9715980999441d714c44f9060200160405180910390a161072081610e26565b505050505050565b600033610736858285610e43565b610741858585610ebd565b506001949350505050565b60003361041781858561075f83836108bc565b61076991906113b1565b610a55565b600080516020611481833981519152805460009190600160a81b900460ff166107a45760018101546001600160a01b0316610811565b805460408051631cc9492560e21b815290516001600160a01b03909216916373252494916004808201926020929091908290030181865afa1580156107ed573d6000803e3d6000fd5b505050506040513d601f19601f8201168201806040525081019061081191906113d2565b91505090565b6108213382611061565b50565b60606004805461038690611367565b6000338161084182866108bc565b9050838110156108a15760405162461bcd60e51b815260206004820152602560248201527f45524332303a2064656372656173656420616c6c6f77616e63652062656c6f77604482015264207a65726f60d81b60648201526084016104e7565b6107418286868403610a55565b600033610417818585610ebd565b6001600160a01b03918216600090815260016020908152604080832093909416825291909152205490565b600080516020611481833981519152805460009190600160a01b900460ff16801561097a57508054604051630debfda360e41b81526001600160a01b0385811660048301529091169063debfda3090602401602060405180830381865afa158015610956573d6000803e3d6000fd5b505050506040513d601f19601f8201168201806040525081019061097a91906113ef565b9392505050565b610989610dca565b6000805160206114818339815191528054600160a81b900460ff16156109f15760405162461bcd60e51b815260206004820152601a60248201527f616c726561647920696e2070726f64756374696f6e206d6f646500000000000060448201526064016104e7565b6001810180546001600160a01b03191690558054600160a81b60ff60a81b1982161782556040516001600160a01b0390911681527f83af113638b5422f9e977cebc0aaf0eaf2188eb9a8baae7f9d46c42b33a1560c9060200160405180910390a150565b6001600160a01b038316610ab75760405162461bcd60e51b8152602060048201526024808201527f45524332303a20617070726f76652066726f6d20746865207a65726f206164646044820152637265737360e01b60648201526084016104e7565b6001600160a01b038216610b185760405162461bcd60e51b815260206004820152602260248201527f45524332303a20617070726f766520746f20746865207a65726f206164647265604482015261737360f01b60648201526084016104e7565b6001600160a01b0383811660008181526001602090815260408083209487168084529482529182902085905590518481527f8c5be1e5ebec7d5bd14f71427d1e84f3dd0314c0f7b2291e5b200ac8c7c3b92591015b60405180910390a3505050565b600080516020611481833981519152805460009190600160b01b900460ff1680610811575054600160a81b900460ff1615919050565b6000805160206114818339815191528054600160b01b900460ff1615610bec57333014610bdf57610bdf611411565b805460ff60b01b19169055565b610821610dca565b6001600160a01b038216610c4a5760405162461bcd60e51b815260206004820152601f60248201527f45524332303a206d696e7420746f20746865207a65726f20616464726573730060448201526064016104e7565b8060026000828254610c5c91906113b1565b90915550506001600160a01b038216600081815260208181526040808320805486019055518481527fddf252ad1be2c89b69c2b068fc378daa952ba7f163c4a11628f55a4df523b3ef910160405180910390a35050565b600080516020611481833981519152610cca610dca565b60008484604051610cdc9291906113a1565b604080519182900382208454636221a54b60e01b845291519093506000926001600160a01b0390921691636221a54b9160048083019260209291908290030181865afa158015610d30573d6000803e3d6000fd5b505050506040513d601f19601f82011682018060405250810190610d549190611427565b905083811015610d615750825b6000610d6d82426113b1565b600084815260028601602052604090819020829055519091507f8c02104dfc280f713854f25297de671710c544c58de69dbde8fb66974ce1ab9e90610db9908990899087908690611440565b60405180910390a150505050505050565b610dd261076e565b6001600160a01b0316336001600160a01b031614610e245760405162461bcd60e51b815260206004820152600f60248201526e6f6e6c7920676f7665726e616e636560881b60448201526064016104e7565b565b3d604051818101604052816000823e8215610e3f578181f35b8181fd5b6000610e4f84846108bc565b90506000198114610eb75781811015610eaa5760405162461bcd60e51b815260206004820152601d60248201527f45524332303a20696e73756666696369656e7420616c6c6f77616e636500000060448201526064016104e7565b610eb78484848403610a55565b50505050565b6001600160a01b038316610f215760405162461bcd60e51b815260206004820152602560248201527f45524332303a207472616e736665722066726f6d20746865207a65726f206164604482015264647265737360d81b60648201526084016104e7565b6001600160a01b038216610f835760405162461bcd60e51b815260206004820152602360248201527f45524332303a207472616e7366657220746f20746865207a65726f206164647260448201526265737360e81b60648201526084016104e7565b6001600160a01b03831660009081526020819052604090205481811015610ffb5760405162461bcd60e51b815260206004820152602660248201527f45524332303a207472616e7366657220616d6f756e7420657863656564732062604482015265616c616e636560d01b60648201526084016104e7565b6001600160a01b03848116600081815260208181526040808320878703905593871680835291849020805487019055925185815290927fddf252ad1be2c89b69c2b068fc378daa952ba7f163c4a11628f55a4df523b3ef910160405180910390a3610eb7565b6001600160a01b0382166110c15760405162461bcd60e51b815260206004820152602160248201527f45524332303a206275726e2066726f6d20746865207a65726f206164647265736044820152607360f81b60648201526084016104e7565b6001600160a01b038216600090815260208190526040902054818110156111355760405162461bcd60e51b815260206004820152602260248201527f45524332303a206275726e20616d6f756e7420657863656564732062616c616e604482015261636560f01b60648201526084016104e7565b6001600160a01b0383166000818152602081815260408083208686039055600280548790039055518581529192917fddf252ad1be2c89b69c2b068fc378daa952ba7f163c4a11628f55a4df523b3ef9101610b6d565b60006020828403121561119d57600080fd5b81356001600160e01b03198116811461097a57600080fd5b60006020808352835180602085015260005b818110156111e3578581018301518582016040015282016111c7565b506000604082860101526040601f19601f8301168501019250505092915050565b6001600160a01b038116811461082157600080fd5b6000806040838503121561122c57600080fd5b823561123781611204565b946020939093013593505050565b6000806020838503121561125857600080fd5b823567ffffffffffffffff8082111561127057600080fd5b818501915085601f83011261128457600080fd5b81358181111561129357600080fd5b8660208285010111156112a557600080fd5b60209290920196919550909350505050565b6000806000606084860312156112cc57600080fd5b83356112d781611204565b925060208401356112e781611204565b929592945050506040919091013590565b60006020828403121561130a57600080fd5b5035919050565b60006020828403121561132357600080fd5b813561097a81611204565b6000806040838503121561134157600080fd5b823561134c81611204565b9150602083013561135c81611204565b809150509250929050565b600181811c9082168061137b57607f821691505b60208210810361139b57634e487b7160e01b600052602260045260246000fd5b50919050565b8183823760009101908152919050565b8082018082111561037157634e487b7160e01b600052601160045260246000fd5b6000602082840312156113e457600080fd5b815161097a81611204565b60006020828403121561140157600080fd5b8151801515811461097a57600080fd5b634e487b7160e01b600052600160045260246000fd5b60006020828403121561143957600080fd5b5051919050565b606081528360608201528385608083013760006080858301015260006080601f19601f87011683010190508360208301528260408301529594505050505056fe2aa47ee5db910f3b2a06970c443249cc77dbd9f96100cfebc1775ab7fb1d1824a264697066735822122079140533037e73a0b0ff0a87e7b934dd258c1f7b0bbc02086bf365892258f4b064736f6c63430008170033",
  "linkReferences": {},
  "deployedLinkReferences": {}
}