{
  "_format": "hh-sol-artifact-1",
  "contractName": "MockProxyFactory",
  "sourceName": "contracts/utils/mock/MockProxyFactory.sol",
  "abi": [
    {
      "inputs": [
        {
          "internalType": "address",
          "name": "_implementation",
          "type": "address"
        }
      ],
      "stateMutability": "nonpayable",
      "type": "constructor"
    },
    {
      "inputs": [],
      "name": "implementation",
      "outputs": [
        {
          "internalType": "address",
          "name": "",
          "type": "address"
        }
      ],
      "stateMutability": "view",
      "type": "function"
    },
    {
      "inputs": [
        {
          "internalType": "address",
          "name": "",
          "type": "address"
        }
      ],
      "name": "upgradeInitCall",
      "outputs": [
        {
          "internalType": "bytes",
          "name": "",
          "type": "bytes"
        }
      ],
      "stateMutability": "pure",
      "type": "function"
    }
  ],
  "bytecode": "0x6080604052348015600f57600080fd5b5060405161022b38038061022b833981016040819052602c916050565b600080546001600160a01b0319166001600160a01b0392909216919091179055607e565b600060208284031215606157600080fd5b81516001600160a01b0381168114607757600080fd5b9392505050565b61019e8061008d6000396000f3fe608060405234801561001057600080fd5b50600436106100365760003560e01c806308456fd21461003b5780635c60da1b146100bf575b600080fd5b6100a96100493660046100ea565b60405160206024820152601060448201526f736f6d65207465737420737472696e6760801b606482015260609060840160408051601f198184030181529190526020810180516001600160e01b0316631ec5a31160e31b17905292915050565b6040516100b6919061011a565b60405180910390f35b6000546100d2906001600160a01b031681565b6040516001600160a01b0390911681526020016100b6565b6000602082840312156100fc57600080fd5b81356001600160a01b038116811461011357600080fd5b9392505050565b602081526000825180602084015260005b81811015610148576020818601810151604086840101520161012b565b506000604082850101526040601f19601f8301168401019150509291505056fea26469706673582212209e7d4c1d01dad2a7b15031d57812837db0bc67ffcd7404d6445da329c1d791eb64736f6c634300081b0033",
  "linkReferences": {},
  "deployedLinkReferences": {}
}