{
  "_format": "hh-sol-artifact-1",
  "contractName": "AssetManagerMock",
  "sourceName": "contracts/assetManager/mock/AssetManagerMock.sol",
  "abi": [
    {
      "inputs": [
        {
          "internalType": "contract IWNat",
          "name": "_wNat",
          "type": "address"
        }
      ],
      "stateMutability": "nonpayable",
      "type": "constructor"
    },
    {
      "inputs": [],
      "name": "CannotDestroyPoolWithIssuedTokens",
      "type": "error"
    },
    {
      "inputs": [],
      "name": "InvalidAgentVaultAddress",
      "type": "error"
    },
    {
      "inputs": [],
      "name": "PoolTokenAlreadySet",
      "type": "error"
    },
    {
      "anonymous": false,
      "inputs": [
        {
          "indexed": false,
          "internalType": "address",
          "name": "_recipient",
          "type": "address"
        },
        {
          "indexed": false,
          "internalType": "string",
          "name": "_underlying",
          "type": "string"
        },
        {
          "indexed": false,
          "internalType": "uint256",
          "name": "_amountUBA",
          "type": "uint256"
        },
        {
          "indexed": false,
          "internalType": "address payable",
          "name": "_executor",
          "type": "address"
        }
      ],
      "name": "AgentRedemption",
      "type": "event"
    },
    {
      "anonymous": false,
      "inputs": [
        {
          "indexed": false,
          "internalType": "address",
          "name": "_recipient",
          "type": "address"
        },
        {
          "indexed": false,
          "internalType": "uint256",
          "name": "_amountUBA",
          "type": "uint256"
        }
      ],
      "name": "AgentRedemptionInCollateral",
      "type": "event"
    },
    {
      "anonymous": false,
      "inputs": [
        {
          "indexed": false,
          "internalType": "address",
          "name": "agentVault",
          "type": "address"
        },
        {
          "indexed": false,
          "internalType": "address",
          "name": "token",
          "type": "address"
        }
      ],
      "name": "CollateralUpdated",
      "type": "event"
    },
    {
      "inputs": [],
      "name": "assetMintingGranularityUBA",
      "outputs": [
        {
          "internalType": "uint256",
          "name": "",
          "type": "uint256"
        }
      ],
      "stateMutability": "view",
      "type": "function"
    },
    {
      "inputs": [],
      "name": "assetPriceDiv",
      "outputs": [
        {
          "internalType": "uint256",
          "name": "",
          "type": "uint256"
        }
      ],
      "stateMutability": "view",
      "type": "function"
    },
    {
      "inputs": [],
      "name": "assetPriceMul",
      "outputs": [
        {
          "internalType": "uint256",
          "name": "",
          "type": "uint256"
        }
      ],
      "stateMutability": "view",
      "type": "function"
    },
    {
      "inputs": [],
      "name": "assetPriceNatWei",
      "outputs": [
        {
          "internalType": "uint256",
          "name": "",
          "type": "uint256"
        },
        {
          "internalType": "uint256",
          "name": "",
          "type": "uint256"
        }
      ],
      "stateMutability": "view",
      "type": "function"
    },
    {
      "inputs": [
        {
          "internalType": "address",
          "name": "_contract",
          "type": "address"
        },
        {
          "internalType": "bytes",
          "name": "_payload",
          "type": "bytes"
        }
      ],
      "name": "callFunctionAt",
      "outputs": [],
      "stateMutability": "nonpayable",
      "type": "function"
    },
    {
      "inputs": [],
      "name": "fAsset",
      "outputs": [
        {
          "internalType": "contract IIFAsset",
          "name": "",
          "type": "address"
        }
      ],
      "stateMutability": "view",
      "type": "function"
    },
    {
      "inputs": [],
      "name": "fasset",
      "outputs": [
        {
          "internalType": "contract IIFAsset",
          "name": "",
          "type": "address"
        }
      ],
      "stateMutability": "view",
      "type": "function"
    },
    {
      "inputs": [
        {
          "internalType": "address",
          "name": "",
          "type": "address"
        }
      ],
      "name": "getAgentMinPoolCollateralRatioBIPS",
      "outputs": [
        {
          "internalType": "uint256",
          "name": "",
          "type": "uint256"
        }
      ],
      "stateMutability": "view",
      "type": "function"
    },
    {
      "inputs": [
        {
          "internalType": "address",
          "name": "",
          "type": "address"
        }
      ],
      "name": "getAgentVaultOwner",
      "outputs": [
        {
          "internalType": "address",
          "name": "_ownerManagementAddress",
          "type": "address"
        }
      ],
      "stateMutability": "view",
      "type": "function"
    },
    {
      "inputs": [
        {
          "internalType": "address",
          "name": "",
          "type": "address"
        }
      ],
      "name": "getCollateralPool",
      "outputs": [
        {
          "internalType": "address",
          "name": "",
          "type": "address"
        }
      ],
      "stateMutability": "view",
      "type": "function"
    },
    {
      "inputs": [],
      "name": "getCollateralPoolTokenTimelockSeconds",
      "outputs": [
        {
          "internalType": "uint256",
          "name": "",
          "type": "uint256"
        }
      ],
      "stateMutability": "view",
      "type": "function"
    },
    {
      "inputs": [
        {
          "internalType": "address",
          "name": "",
          "type": "address"
        }
      ],
      "name": "getFAssetsBackedByPool",
      "outputs": [
        {
          "internalType": "uint256",
          "name": "",
          "type": "uint256"
        }
      ],
      "stateMutability": "view",
      "type": "function"
    },
    {
      "inputs": [],
      "name": "getWNat",
      "outputs": [
        {
          "internalType": "contract IWNat",
          "name": "",
          "type": "address"
        }
      ],
      "stateMutability": "view",
      "type": "function"
    },
    {
      "inputs": [
        {
          "internalType": "address",
          "name": "",
          "type": "address"
        },
        {
          "internalType": "address",
          "name": "_address",
          "type": "address"
        }
      ],
      "name": "isAgentVaultOwner",
      "outputs": [
        {
          "internalType": "bool",
          "name": "",
          "type": "bool"
        }
      ],
      "stateMutability": "view",
      "type": "function"
    },
    {
      "inputs": [
        {
          "internalType": "contract IERC20",
          "name": "",
          "type": "address"
        }
      ],
      "name": "isVaultCollateralToken",
      "outputs": [
        {
          "internalType": "bool",
          "name": "",
          "type": "bool"
        }
      ],
      "stateMutability": "pure",
      "type": "function"
    },
    {
      "inputs": [],
      "name": "lotSize",
      "outputs": [
        {
          "internalType": "uint256",
          "name": "",
          "type": "uint256"
        }
      ],
      "stateMutability": "view",
      "type": "function"
    },
    {
      "inputs": [
        {
          "internalType": "address",
          "name": "",
          "type": "address"
        }
      ],
      "name": "maxRedemptionFromAgent",
      "outputs": [
        {
          "internalType": "uint256",
          "name": "",
          "type": "uint256"
        }
      ],
      "stateMutability": "view",
      "type": "function"
    },
    {
      "inputs": [],
      "name": "minPoolCollateralRatioBIPS",
      "outputs": [
        {
          "internalType": "uint256",
          "name": "",
          "type": "uint256"
        }
      ],
      "stateMutability": "view",
      "type": "function"
    },
    {
      "inputs": [
        {
          "internalType": "address",
          "name": "",
          "type": "address"
        },
        {
          "internalType": "address",
          "name": "_redeemer",
          "type": "address"
        },
        {
          "internalType": "uint256",
          "name": "_amountUBA",
          "type": "uint256"
        },
        {
          "internalType": "string",
          "name": "_receiverUnderlyingAddress",
          "type": "string"
        },
        {
          "internalType": "address payable",
          "name": "_executor",
          "type": "address"
        }
      ],
      "name": "redeemFromAgent",
      "outputs": [],
      "stateMutability": "payable",
      "type": "function"
    },
    {
      "inputs": [
        {
          "internalType": "address",
          "name": "",
          "type": "address"
        },
        {
          "internalType": "address",
          "name": "_redeemer",
          "type": "address"
        },
        {
          "internalType": "uint256",
          "name": "_amountUBA",
          "type": "uint256"
        }
      ],
      "name": "redeemFromAgentInCollateral",
      "outputs": [],
      "stateMutability": "nonpayable",
      "type": "function"
    },
    {
      "inputs": [
        {
          "internalType": "contract IIFAsset",
          "name": "_fasset",
          "type": "address"
        }
      ],
      "name": "registerFAssetForCollateralPool",
      "outputs": [],
      "stateMutability": "nonpayable",
      "type": "function"
    },
    {
      "inputs": [
        {
          "internalType": "uint256",
          "name": "_mul",
          "type": "uint256"
        },
        {
          "internalType": "uint256",
          "name": "_div",
          "type": "uint256"
        }
      ],
      "name": "setAssetPriceNatWei",
      "outputs": [],
      "stateMutability": "nonpayable",
      "type": "function"
    },
    {
      "inputs": [
        {
          "internalType": "bool",
          "name": "_check",
          "type": "bool"
        }
      ],
      "name": "setCheckForValidAgentVaultAddress",
      "outputs": [],
      "stateMutability": "nonpayable",
      "type": "function"
    },
    {
      "inputs": [
        {
          "internalType": "address",
          "name": "pool",
          "type": "address"
        }
      ],
      "name": "setCollateralPool",
      "outputs": [],
      "stateMutability": "nonpayable",
      "type": "function"
    },
    {
      "inputs": [
        {
          "internalType": "address",
          "name": "_owner",
          "type": "address"
        }
      ],
      "name": "setCommonOwner",
      "outputs": [],
      "stateMutability": "nonpayable",
      "type": "function"
    },
    {
      "inputs": [
        {
          "internalType": "uint256",
          "name": "_fassetsBackedByPool",
          "type": "uint256"
        }
      ],
      "name": "setFAssetsBackedByPool",
      "outputs": [],
      "stateMutability": "nonpayable",
      "type": "function"
    },
    {
      "inputs": [
        {
          "internalType": "uint256",
          "name": "_lotSize",
          "type": "uint256"
        }
      ],
      "name": "setLotSize",
      "outputs": [],
      "stateMutability": "nonpayable",
      "type": "function"
    },
    {
      "inputs": [
        {
          "internalType": "uint256",
          "name": "_maxRedemption",
          "type": "uint256"
        }
      ],
      "name": "setMaxRedemptionFromAgent",
      "outputs": [],
      "stateMutability": "nonpayable",
      "type": "function"
    },
    {
      "inputs": [
        {
          "internalType": "uint256",
          "name": "_minPoolCollateralRatioBIPS",
          "type": "uint256"
        }
      ],
      "name": "setMinPoolCollateralRatioBIPS",
      "outputs": [],
      "stateMutability": "nonpayable",
      "type": "function"
    },
    {
      "inputs": [
        {
          "internalType": "uint256",
          "name": "_timelockDuration",
          "type": "uint256"
        }
      ],
      "name": "setTimelockDuration",
      "outputs": [],
      "stateMutability": "nonpayable",
      "type": "function"
    },
    {
      "inputs": [],
      "name": "transfersEmergencyPaused",
      "outputs": [
        {
          "internalType": "bool",
          "name": "",
          "type": "bool"
        }
      ],
      "stateMutability": "pure",
      "type": "function"
    },
    {
      "inputs": [
        {
          "internalType": "address",
          "name": "_agentVault",
          "type": "address"
        },
        {
          "internalType": "contract IERC20",
          "name": "_token",
          "type": "address"
        }
      ],
      "name": "updateCollateral",
      "outputs": [],
      "stateMutability": "nonpayable",
      "type": "function"
    }
  ],
  "bytecode": "0x60806040526002805460ff60a01b1916600160a01b17815560001960048190556005556000600681905560016007819055600892909255600991909155600a55633b9aca00600b55348015605257600080fd5b50604051610db2380380610db2833981016040819052606f916093565b600080546001600160a01b0319166001600160a01b039290921691909117905560c1565b60006020828403121560a457600080fd5b81516001600160a01b038116811460ba57600080fd5b9392505050565b610ce2806100d06000396000f3fe6080604052600436106101e35760003560e01c8063716a5eb411610102578063bd5ebe6611610095578063d6b93a9f11610064578063d6b93a9f146105e0578063d993f3b514610611578063ed000b3014610631578063ed3762aa1461065157600080fd5b8063bd5ebe6614610562578063cd71593514610578578063cfe65f241461059a578063d13e4f25146105ba57600080fd5b80639193e95a116100d15780639193e95a146104f1578063997be0f414610511578063a5b0baac14610524578063b5a488a61461054457600080fd5b8063716a5eb41461044757806373461c311461048457806374baf3b3146104bd5780637c7db1a5146104d357600080fd5b806337bf13ad1161017a578063531090f311610149578063531090f3146103dc5780635b3bc189146103f25780636e61164f14610408578063716676731461043357600080fd5b806337bf13ad1461031557806339c045df146103525780634942f65f146103835780635252f3a21461039957600080fd5b80631ba28878116101b65780631ba28878146102765780631e8bee01146102b357806329ff1308146102d557806334591a3e146102f557600080fd5b806302312aec146101e85780630dabe44914610215578063150fea0914610237578063177d030714610257575b600080fd5b3480156101f457600080fd5b50600754600854604080519283526020830191909152015b60405180910390f35b34801561022157600080fd5b50610235610230366004610964565b600455565b005b34801561024357600080fd5b50610235610252366004610964565b600655565b34801561026357600080fd5b506006545b60405190815260200161020c565b34801561028257600080fd5b50610235610291366004610995565b600380546001600160a01b0319166001600160a01b0392909216919091179055565b3480156102bf57600080fd5b506102686102ce366004610995565b5060045490565b3480156102e157600080fd5b506102356102f03660046109b2565b610671565b34801561030157600080fd5b50610235610310366004610964565b600955565b34801561032157600080fd5b50610235610330366004610995565b600180546001600160a01b0319166001600160a01b0392909216919091179055565b34801561035e57600080fd5b5061037361036d366004610995565b50600190565b604051901515815260200161020c565b34801561038f57600080fd5b5061026860095481565b3480156103a557600080fd5b506103c46103b4366004610995565b506003546001600160a01b031690565b6040516001600160a01b03909116815260200161020c565b3480156103e857600080fd5b50610268600b5481565b3480156103fe57600080fd5b5061026860075481565b34801561041457600080fd5b506103c4610423366004610995565b506002546001600160a01b031690565b34801561043f57600080fd5b506000610373565b34801561045357600080fd5b50610235610462366004610995565b600280546001600160a01b0319166001600160a01b0392909216919091179055565b34801561049057600080fd5b5061023561049f3660046109eb565b60028054911515600160a01b0260ff60a01b19909216919091179055565b3480156104c957600080fd5b50610268600a5481565b3480156104df57600080fd5b506001546001600160a01b03166103c4565b3480156104fd57600080fd5b5061023561050c366004610a9d565b6106e3565b61023561051f366004610b01565b610751565b34801561053057600080fd5b506001546103c4906001600160a01b031681565b34801561055057600080fd5b506000546001600160a01b03166103c4565b34801561056e57600080fd5b5061026860085481565b34801561058457600080fd5b50610268610593366004610995565b50600a5490565b3480156105a657600080fd5b506102356105b5366004610964565b600a55565b3480156105c657600080fd5b506102356105d5366004610b96565b600791909155600855565b3480156105ec57600080fd5b506103736105fb3660046109b2565b6002546001600160a01b03908116911614919050565b34801561061d57600080fd5b5061023561062c366004610964565b600555565b34801561063d57600080fd5b5061023561064c366004610bb8565b6107f9565b34801561065d57600080fd5b5061026861066c366004610995565b6108a5565b600254600160a01b900460ff161561069c5760405163d68a46c560e01b815260040160405180910390fd5b604080516001600160a01b038085168252831660208201527fb77174b552e29f8b4977a7ef30733f84b5d2cd3332382dacfacf1894ffb1eafb910160405180910390a15050565b6000826001600160a01b0316826040516106fd9190610c1d565b6000604051808303816000865af19150503d806000811461073a576040519150601f19603f3d011682016040523d82523d6000602084013e61073f565b606091505b5050905061074c8161092f565b505050565b600154604051632770a7eb60e21b8152336004820152602481018590526001600160a01b0390911690639dc29fac90604401600060405180830381600087803b15801561079d57600080fd5b505af11580156107b1573d6000803e3d6000fd5b505050507f8a87668a7b80e194d7ce2f3091108a6155595fe94177b3ee6eaa6162ac92b8fe848385846040516107ea9493929190610c39565b60405180910390a15050505050565b600154604051632770a7eb60e21b8152336004820152602481018390526001600160a01b0390911690639dc29fac90604401600060405180830381600087803b15801561084557600080fd5b505af1158015610859573d6000803e3d6000fd5b5050604080516001600160a01b0386168152602081018590527f1dc85c87d1cae3edc965c14f2b1a1f0ae29dd909089061d698e5e1019cb6585d935001905060405180910390a1505050565b6000610929600554600160009054906101000a90046001600160a01b03166001600160a01b03166318160ddd6040518163ffffffff1660e01b8152600401602060405180830381865afa158015610900573d6000803e3d6000fd5b505050506040513d601f19601f820116820180604052508101906109249190610c93565b61094c565b92915050565b3d604051818101604052816000823e8215610948578181f35b8181fd5b600081831061095b578161095d565b825b9392505050565b60006020828403121561097657600080fd5b5035919050565b6001600160a01b038116811461099257600080fd5b50565b6000602082840312156109a757600080fd5b813561095d8161097d565b600080604083850312156109c557600080fd5b82356109d08161097d565b915060208301356109e08161097d565b809150509250929050565b6000602082840312156109fd57600080fd5b8135801515811461095d57600080fd5b634e487b7160e01b600052604160045260246000fd5b60008067ffffffffffffffff841115610a3e57610a3e610a0d565b50604051601f19601f85018116603f0116810181811067ffffffffffffffff82111715610a6d57610a6d610a0d565b604052838152905080828401851015610a8557600080fd5b83836020830137600060208583010152509392505050565b60008060408385031215610ab057600080fd5b8235610abb8161097d565b9150602083013567ffffffffffffffff811115610ad757600080fd5b8301601f81018513610ae857600080fd5b610af785823560208401610a23565b9150509250929050565b600080600080600060a08688031215610b1957600080fd5b8535610b248161097d565b94506020860135610b348161097d565b935060408601359250606086013567ffffffffffffffff811115610b5757600080fd5b8601601f81018813610b6857600080fd5b610b7788823560208401610a23565b9250506080860135610b888161097d565b809150509295509295909350565b60008060408385031215610ba957600080fd5b50508035926020909101359150565b600080600060608486031215610bcd57600080fd5b8335610bd88161097d565b92506020840135610be88161097d565b929592945050506040919091013590565b60005b83811015610c14578181015183820152602001610bfc565b50506000910152565b60008251610c2f818460208701610bf9565b9190910192915050565b60018060a01b03851681526080602082015260008451806080840152610c668160a0850160208901610bf9565b6040830194909452506001600160a01b0391909116606082015260a0601f909201601f1916010192915050565b600060208284031215610ca557600080fd5b505191905056fea264697066735822122086e8d2418b609311c9ff1a4207db8d1c7f7eff4d87889e3c10bf01fddb55bb6c64736f6c634300081b0033",
  "linkReferences": {},
  "deployedLinkReferences": {}
}