{
  "_format": "hh-sol-artifact-1",
  "contractName": "AssetManagerMock",
  "sourceName": "contracts/assetManager/mock/AssetManagerMock.sol",
  "abi": [
    {
      "inputs": [
        {
          "internalType": "contract IWNat",
          "name": "_wNat",
          "type": "address"
        }
      ],
      "stateMutability": "nonpayable",
      "type": "constructor"
    },
    {
      "inputs": [],
      "name": "CannotDestroyPoolWithIssuedTokens",
      "type": "error"
    },
    {
      "inputs": [],
      "name": "InvalidAgentVaultAddress",
      "type": "error"
    },
    {
      "inputs": [],
      "name": "PoolTokenAlreadySet",
      "type": "error"
    },
    {
      "anonymous": false,
      "inputs": [
        {
          "indexed": false,
          "internalType": "address",
          "name": "_recipient",
          "type": "address"
        },
        {
          "indexed": false,
          "internalType": "string",
          "name": "_underlying",
          "type": "string"
        },
        {
          "indexed": false,
          "internalType": "uint256",
          "name": "_amountUBA",
          "type": "uint256"
        },
        {
          "indexed": false,
          "internalType": "address payable",
          "name": "_executor",
          "type": "address"
        }
      ],
      "name": "AgentRedemption",
      "type": "event"
    },
    {
      "anonymous": false,
      "inputs": [
        {
          "indexed": false,
          "internalType": "address",
          "name": "_recipient",
          "type": "address"
        },
        {
          "indexed": false,
          "internalType": "uint256",
          "name": "_amountUBA",
          "type": "uint256"
        }
      ],
      "name": "AgentRedemptionInCollateral",
      "type": "event"
    },
    {
      "inputs": [],
      "name": "assetPriceDiv",
      "outputs": [
        {
          "internalType": "uint256",
          "name": "",
          "type": "uint256"
        }
      ],
      "stateMutability": "view",
      "type": "function"
    },
    {
      "inputs": [],
      "name": "assetPriceMul",
      "outputs": [
        {
          "internalType": "uint256",
          "name": "",
          "type": "uint256"
        }
      ],
      "stateMutability": "view",
      "type": "function"
    },
    {
      "inputs": [],
      "name": "assetPriceNatWei",
      "outputs": [
        {
          "internalType": "uint256",
          "name": "",
          "type": "uint256"
        },
        {
          "internalType": "uint256",
          "name": "",
          "type": "uint256"
        }
      ],
      "stateMutability": "view",
      "type": "function"
    },
    {
      "inputs": [
        {
          "internalType": "address",
          "name": "_contract",
          "type": "address"
        },
        {
          "internalType": "bytes",
          "name": "_payload",
          "type": "bytes"
        }
      ],
      "name": "callFunctionAt",
      "outputs": [],
      "stateMutability": "nonpayable",
      "type": "function"
    },
    {
      "inputs": [],
      "name": "fAsset",
      "outputs": [
        {
          "internalType": "contract IIFAsset",
          "name": "",
          "type": "address"
        }
      ],
      "stateMutability": "view",
      "type": "function"
    },
    {
      "inputs": [],
      "name": "fasset",
      "outputs": [
        {
          "internalType": "contract IIFAsset",
          "name": "",
          "type": "address"
        }
      ],
      "stateMutability": "view",
      "type": "function"
    },
    {
      "inputs": [
        {
          "internalType": "address",
          "name": "",
          "type": "address"
        }
      ],
      "name": "getAgentMinPoolCollateralRatioBIPS",
      "outputs": [
        {
          "internalType": "uint256",
          "name": "",
          "type": "uint256"
        }
      ],
      "stateMutability": "view",
      "type": "function"
    },
    {
      "inputs": [
        {
          "internalType": "address",
          "name": "",
          "type": "address"
        }
      ],
      "name": "getAgentVaultOwner",
      "outputs": [
        {
          "internalType": "address",
          "name": "_ownerManagementAddress",
          "type": "address"
        }
      ],
      "stateMutability": "view",
      "type": "function"
    },
    {
      "inputs": [
        {
          "internalType": "address",
          "name": "",
          "type": "address"
        }
      ],
      "name": "getCollateralPool",
      "outputs": [
        {
          "internalType": "address",
          "name": "",
          "type": "address"
        }
      ],
      "stateMutability": "view",
      "type": "function"
    },
    {
      "inputs": [],
      "name": "getCollateralPoolTokenTimelockSeconds",
      "outputs": [
        {
          "internalType": "uint256",
          "name": "",
          "type": "uint256"
        }
      ],
      "stateMutability": "view",
      "type": "function"
    },
    {
      "inputs": [
        {
          "internalType": "address",
          "name": "",
          "type": "address"
        }
      ],
      "name": "getFAssetsBackedByPool",
      "outputs": [
        {
          "internalType": "uint256",
          "name": "",
          "type": "uint256"
        }
      ],
      "stateMutability": "view",
      "type": "function"
    },
    {
      "inputs": [],
      "name": "getWNat",
      "outputs": [
        {
          "internalType": "contract IWNat",
          "name": "",
          "type": "address"
        }
      ],
      "stateMutability": "view",
      "type": "function"
    },
    {
      "inputs": [
        {
          "internalType": "address",
          "name": "",
          "type": "address"
        },
        {
          "internalType": "address",
          "name": "_address",
          "type": "address"
        }
      ],
      "name": "isAgentVaultOwner",
      "outputs": [
        {
          "internalType": "bool",
          "name": "",
          "type": "bool"
        }
      ],
      "stateMutability": "view",
      "type": "function"
    },
    {
      "inputs": [],
      "name": "lotSize",
      "outputs": [
        {
          "internalType": "uint256",
          "name": "",
          "type": "uint256"
        }
      ],
      "stateMutability": "view",
      "type": "function"
    },
    {
      "inputs": [
        {
          "internalType": "address",
          "name": "",
          "type": "address"
        }
      ],
      "name": "maxRedemptionFromAgent",
      "outputs": [
        {
          "internalType": "uint256",
          "name": "",
          "type": "uint256"
        }
      ],
      "stateMutability": "view",
      "type": "function"
    },
    {
      "inputs": [],
      "name": "minPoolCollateralRatioBIPS",
      "outputs": [
        {
          "internalType": "uint256",
          "name": "",
          "type": "uint256"
        }
      ],
      "stateMutability": "view",
      "type": "function"
    },
    {
      "inputs": [
        {
          "internalType": "address",
          "name": "",
          "type": "address"
        },
        {
          "internalType": "address",
          "name": "_redeemer",
          "type": "address"
        },
        {
          "internalType": "uint256",
          "name": "_amountUBA",
          "type": "uint256"
        },
        {
          "internalType": "string",
          "name": "_receiverUnderlyingAddress",
          "type": "string"
        },
        {
          "internalType": "address payable",
          "name": "_executor",
          "type": "address"
        }
      ],
      "name": "redeemFromAgent",
      "outputs": [],
      "stateMutability": "payable",
      "type": "function"
    },
    {
      "inputs": [
        {
          "internalType": "address",
          "name": "",
          "type": "address"
        },
        {
          "internalType": "address",
          "name": "_redeemer",
          "type": "address"
        },
        {
          "internalType": "uint256",
          "name": "_amountUBA",
          "type": "uint256"
        }
      ],
      "name": "redeemFromAgentInCollateral",
      "outputs": [],
      "stateMutability": "nonpayable",
      "type": "function"
    },
    {
      "inputs": [
        {
          "internalType": "contract IIFAsset",
          "name": "_fasset",
          "type": "address"
        }
      ],
      "name": "registerFAssetForCollateralPool",
      "outputs": [],
      "stateMutability": "nonpayable",
      "type": "function"
    },
    {
      "inputs": [
        {
          "internalType": "uint256",
          "name": "_mul",
          "type": "uint256"
        },
        {
          "internalType": "uint256",
          "name": "_div",
          "type": "uint256"
        }
      ],
      "name": "setAssetPriceNatWei",
      "outputs": [],
      "stateMutability": "nonpayable",
      "type": "function"
    },
    {
      "inputs": [
        {
          "internalType": "bool",
          "name": "_check",
          "type": "bool"
        }
      ],
      "name": "setCheckForValidAgentVaultAddress",
      "outputs": [],
      "stateMutability": "nonpayable",
      "type": "function"
    },
    {
      "inputs": [
        {
          "internalType": "address",
          "name": "pool",
          "type": "address"
        }
      ],
      "name": "setCollateralPool",
      "outputs": [],
      "stateMutability": "nonpayable",
      "type": "function"
    },
    {
      "inputs": [
        {
          "internalType": "address",
          "name": "_owner",
          "type": "address"
        }
      ],
      "name": "setCommonOwner",
      "outputs": [],
      "stateMutability": "nonpayable",
      "type": "function"
    },
    {
      "inputs": [
        {
          "internalType": "uint256",
          "name": "_lotSize",
          "type": "uint256"
        }
      ],
      "name": "setLotSize",
      "outputs": [],
      "stateMutability": "nonpayable",
      "type": "function"
    },
    {
      "inputs": [
        {
          "internalType": "uint256",
          "name": "_maxRedemption",
          "type": "uint256"
        }
      ],
      "name": "setMaxRedemptionFromAgent",
      "outputs": [],
      "stateMutability": "nonpayable",
      "type": "function"
    },
    {
      "inputs": [
        {
          "internalType": "uint256",
          "name": "_minPoolCollateralRatioBIPS",
          "type": "uint256"
        }
      ],
      "name": "setMinPoolCollateralRatioBIPS",
      "outputs": [],
      "stateMutability": "nonpayable",
      "type": "function"
    },
    {
      "inputs": [
        {
          "internalType": "uint256",
          "name": "_timelockDuration",
          "type": "uint256"
        }
      ],
      "name": "setTimelockDuration",
      "outputs": [],
      "stateMutability": "nonpayable",
      "type": "function"
    },
    {
      "inputs": [],
      "name": "transfersEmergencyPaused",
      "outputs": [
        {
          "internalType": "bool",
          "name": "",
          "type": "bool"
        }
      ],
      "stateMutability": "pure",
      "type": "function"
    },
    {
      "inputs": [
        {
          "internalType": "address",
          "name": "",
          "type": "address"
        },
        {
          "internalType": "contract IIFAsset",
          "name": "",
          "type": "address"
        }
      ],
      "name": "updateCollateral",
      "outputs": [],
      "stateMutability": "nonpayable",
      "type": "function"
    }
  ],
  "bytecode": "0x60806040526002805460ff60a01b1916600160a01b1781556000196004556000600581905560016006819055600792909255600891909155600955348015604557600080fd5b50604051610cdb380380610cdb8339810160408190526062916086565b600080546001600160a01b0319166001600160a01b039290921691909117905560b4565b600060208284031215609757600080fd5b81516001600160a01b038116811460ad57600080fd5b9392505050565b610c18806100c36000396000f3fe6080604052600436106101c25760003560e01c8063716a5eb4116100f7578063b5a488a611610095578063d13e4f2511610064578063d13e4f251461055e578063d6b93a9f14610584578063ed000b30146105b5578063ed3762aa146105d557600080fd5b8063b5a488a6146104e8578063bd5ebe6614610506578063cd7159351461051c578063cfe65f241461053e57600080fd5b80637c7db1a5116100d15780637c7db1a5146104775780639193e95a14610495578063997be0f4146104b5578063a5b0baac146104c857600080fd5b8063716a5eb4146103eb57806373461c311461042857806374baf3b31461046157600080fd5b806334591a3e116101645780635252f3a21161013e5780635252f3a2146103475780635b3bc1891461038a5780636e61164f146103a057806371667673146103cb57600080fd5b806334591a3e146102d457806337bf13ad146102f45780634942f65f1461033157600080fd5b8063177d0307116101a0578063177d0307146102365780631ba28878146102555780631e8bee011461029257806329ff1308146102b457600080fd5b806302312aec146101c75780630dabe449146101f4578063150fea0914610216575b600080fd5b3480156101d357600080fd5b50600654600754604080519283526020830191909152015b60405180910390f35b34801561020057600080fd5b5061021461020f366004610893565b600455565b005b34801561022257600080fd5b50610214610231366004610893565b600555565b34801561024257600080fd5b506005545b6040519081526020016101eb565b34801561026157600080fd5b506102146102703660046108c4565b600380546001600160a01b0319166001600160a01b0392909216919091179055565b34801561029e57600080fd5b506102476102ad3660046108c4565b5060045490565b3480156102c057600080fd5b506102146102cf3660046108e8565b6105f5565b3480156102e057600080fd5b506102146102ef366004610893565b600855565b34801561030057600080fd5b5061021461030f3660046108c4565b600180546001600160a01b0319166001600160a01b0392909216919091179055565b34801561033d57600080fd5b5061024760085481565b34801561035357600080fd5b506103726103623660046108c4565b506003546001600160a01b031690565b6040516001600160a01b0390911681526020016101eb565b34801561039657600080fd5b5061024760065481565b3480156103ac57600080fd5b506103726103bb3660046108c4565b506002546001600160a01b031690565b3480156103d757600080fd5b5060005b60405190151581526020016101eb565b3480156103f757600080fd5b506102146104063660046108c4565b600280546001600160a01b0319166001600160a01b0392909216919091179055565b34801561043457600080fd5b50610214610443366004610921565b60028054911515600160a01b0260ff60a01b19909216919091179055565b34801561046d57600080fd5b5061024760095481565b34801561048357600080fd5b506001546001600160a01b0316610372565b3480156104a157600080fd5b506102146104b03660046109d3565b610640565b6102146104c3366004610a37565b6106ae565b3480156104d457600080fd5b50600154610372906001600160a01b031681565b3480156104f457600080fd5b506000546001600160a01b0316610372565b34801561051257600080fd5b5061024760075481565b34801561052857600080fd5b506102476105373660046108c4565b5060095490565b34801561054a57600080fd5b50610214610559366004610893565b600955565b34801561056a57600080fd5b50610214610579366004610acc565b600691909155600755565b34801561059057600080fd5b506103db61059f3660046108e8565b6002546001600160a01b03908116911614919050565b3480156105c157600080fd5b506102146105d0366004610aee565b610756565b3480156105e157600080fd5b506102476105f03660046108c4565b610802565b600280546001600160a01b0381166001600160a01b03199091161790819055600160a01b900460ff161561063c5760405163d68a46c560e01b815260040160405180910390fd5b5050565b6000826001600160a01b03168260405161065a9190610b53565b6000604051808303816000865af19150503d8060008114610697576040519150601f19603f3d011682016040523d82523d6000602084013e61069c565b606091505b505090506106a981610876565b505050565b600154604051632770a7eb60e21b8152336004820152602481018590526001600160a01b0390911690639dc29fac90604401600060405180830381600087803b1580156106fa57600080fd5b505af115801561070e573d6000803e3d6000fd5b505050507f8a87668a7b80e194d7ce2f3091108a6155595fe94177b3ee6eaa6162ac92b8fe848385846040516107479493929190610b6f565b60405180910390a15050505050565b600154604051632770a7eb60e21b8152336004820152602481018390526001600160a01b0390911690639dc29fac90604401600060405180830381600087803b1580156107a257600080fd5b505af11580156107b6573d6000803e3d6000fd5b5050604080516001600160a01b0386168152602081018590527f1dc85c87d1cae3edc965c14f2b1a1f0ae29dd909089061d698e5e1019cb6585d935001905060405180910390a1505050565b600154604080516318160ddd60e01b815290516000926001600160a01b0316916318160ddd9160048083019260209291908290030181865afa15801561084c573d6000803e3d6000fd5b505050506040513d601f19601f820116820180604052508101906108709190610bc9565b92915050565b3d604051818101604052816000823e821561088f578181f35b8181fd5b6000602082840312156108a557600080fd5b5035919050565b6001600160a01b03811681146108c157600080fd5b50565b6000602082840312156108d657600080fd5b81356108e1816108ac565b9392505050565b600080604083850312156108fb57600080fd5b8235610906816108ac565b91506020830135610916816108ac565b809150509250929050565b60006020828403121561093357600080fd5b813580151581146108e157600080fd5b634e487b7160e01b600052604160045260246000fd5b60008067ffffffffffffffff84111561097457610974610943565b50604051601f19601f85018116603f0116810181811067ffffffffffffffff821117156109a3576109a3610943565b6040528381529050808284018510156109bb57600080fd5b83836020830137600060208583010152509392505050565b600080604083850312156109e657600080fd5b82356109f1816108ac565b9150602083013567ffffffffffffffff811115610a0d57600080fd5b8301601f81018513610a1e57600080fd5b610a2d85823560208401610959565b9150509250929050565b600080600080600060a08688031215610a4f57600080fd5b8535610a5a816108ac565b94506020860135610a6a816108ac565b935060408601359250606086013567ffffffffffffffff811115610a8d57600080fd5b8601601f81018813610a9e57600080fd5b610aad88823560208401610959565b9250506080860135610abe816108ac565b809150509295509295909350565b60008060408385031215610adf57600080fd5b50508035926020909101359150565b600080600060608486031215610b0357600080fd5b8335610b0e816108ac565b92506020840135610b1e816108ac565b929592945050506040919091013590565b60005b83811015610b4a578181015183820152602001610b32565b50506000910152565b60008251610b65818460208701610b2f565b9190910192915050565b60018060a01b03851681526080602082015260008451806080840152610b9c8160a0850160208901610b2f565b6040830194909452506001600160a01b0391909116606082015260a0601f909201601f1916010192915050565b600060208284031215610bdb57600080fd5b505191905056fea2646970667358221220c21228cc9053038573d608287c6278999f69a38e691745d5f1054f0a4598506f64736f6c634300081b0033",
  "linkReferences": {},
  "deployedLinkReferences": {}
}