{
  "_format": "hh-sol-artifact-1",
  "contractName": "AssetManagerMock",
  "sourceName": "contracts/assetManager/mock/AssetManagerMock.sol",
  "abi": [
    {
      "inputs": [
        {
          "internalType": "contract IWNat",
          "name": "_wNat",
          "type": "address"
        }
      ],
      "stateMutability": "nonpayable",
      "type": "constructor"
    },
    {
      "inputs": [],
      "name": "CannotDestroyPoolWithIssuedTokens",
      "type": "error"
    },
    {
      "inputs": [],
      "name": "InvalidAgentVaultAddress",
      "type": "error"
    },
    {
      "inputs": [],
      "name": "PoolTokenAlreadySet",
      "type": "error"
    },
    {
      "anonymous": false,
      "inputs": [
        {
          "indexed": false,
          "internalType": "address",
          "name": "_recipient",
          "type": "address"
        },
        {
          "indexed": false,
          "internalType": "string",
          "name": "_underlying",
          "type": "string"
        },
        {
          "indexed": false,
          "internalType": "uint256",
          "name": "_amountUBA",
          "type": "uint256"
        },
        {
          "indexed": false,
          "internalType": "address payable",
          "name": "_executor",
          "type": "address"
        }
      ],
      "name": "AgentRedemption",
      "type": "event"
    },
    {
      "anonymous": false,
      "inputs": [
        {
          "indexed": false,
          "internalType": "address",
          "name": "_recipient",
          "type": "address"
        },
        {
          "indexed": false,
          "internalType": "uint256",
          "name": "_amountUBA",
          "type": "uint256"
        }
      ],
      "name": "AgentRedemptionInCollateral",
      "type": "event"
    },
    {
      "anonymous": false,
      "inputs": [
        {
          "indexed": false,
          "internalType": "address",
          "name": "agentVault",
          "type": "address"
        },
        {
          "indexed": false,
          "internalType": "address",
          "name": "token",
          "type": "address"
        }
      ],
      "name": "CollateralUpdated",
      "type": "event"
    },
    {
      "inputs": [],
      "name": "assetMintingGranularityUBA",
      "outputs": [
        {
          "internalType": "uint256",
          "name": "",
          "type": "uint256"
        }
      ],
      "stateMutability": "view",
      "type": "function"
    },
    {
      "inputs": [],
      "name": "assetPriceDiv",
      "outputs": [
        {
          "internalType": "uint256",
          "name": "",
          "type": "uint256"
        }
      ],
      "stateMutability": "view",
      "type": "function"
    },
    {
      "inputs": [],
      "name": "assetPriceMul",
      "outputs": [
        {
          "internalType": "uint256",
          "name": "",
          "type": "uint256"
        }
      ],
      "stateMutability": "view",
      "type": "function"
    },
    {
      "inputs": [],
      "name": "assetPriceNatWei",
      "outputs": [
        {
          "internalType": "uint256",
          "name": "",
          "type": "uint256"
        },
        {
          "internalType": "uint256",
          "name": "",
          "type": "uint256"
        }
      ],
      "stateMutability": "view",
      "type": "function"
    },
    {
      "inputs": [
        {
          "internalType": "address",
          "name": "_contract",
          "type": "address"
        },
        {
          "internalType": "bytes",
          "name": "_payload",
          "type": "bytes"
        }
      ],
      "name": "callFunctionAt",
      "outputs": [],
      "stateMutability": "nonpayable",
      "type": "function"
    },
    {
      "inputs": [],
      "name": "emergencyPauseLevel",
      "outputs": [
        {
          "internalType": "enum EmergencyPause.Level",
          "name": "",
          "type": "uint8"
        }
      ],
      "stateMutability": "pure",
      "type": "function"
    },
    {
      "inputs": [],
      "name": "emergencyPaused",
      "outputs": [
        {
          "internalType": "bool",
          "name": "",
          "type": "bool"
        }
      ],
      "stateMutability": "pure",
      "type": "function"
    },
    {
      "inputs": [],
      "name": "fAsset",
      "outputs": [
        {
          "internalType": "contract IIFAsset",
          "name": "",
          "type": "address"
        }
      ],
      "stateMutability": "view",
      "type": "function"
    },
    {
      "inputs": [],
      "name": "fasset",
      "outputs": [
        {
          "internalType": "contract IIFAsset",
          "name": "",
          "type": "address"
        }
      ],
      "stateMutability": "view",
      "type": "function"
    },
    {
      "inputs": [
        {
          "internalType": "address",
          "name": "",
          "type": "address"
        }
      ],
      "name": "getAgentMinPoolCollateralRatioBIPS",
      "outputs": [
        {
          "internalType": "uint256",
          "name": "",
          "type": "uint256"
        }
      ],
      "stateMutability": "view",
      "type": "function"
    },
    {
      "inputs": [
        {
          "internalType": "address",
          "name": "",
          "type": "address"
        }
      ],
      "name": "getAgentVaultOwner",
      "outputs": [
        {
          "internalType": "address",
          "name": "_ownerManagementAddress",
          "type": "address"
        }
      ],
      "stateMutability": "view",
      "type": "function"
    },
    {
      "inputs": [
        {
          "internalType": "address",
          "name": "",
          "type": "address"
        }
      ],
      "name": "getCollateralPool",
      "outputs": [
        {
          "internalType": "address",
          "name": "",
          "type": "address"
        }
      ],
      "stateMutability": "view",
      "type": "function"
    },
    {
      "inputs": [],
      "name": "getCollateralPoolTokenTimelockSeconds",
      "outputs": [
        {
          "internalType": "uint256",
          "name": "",
          "type": "uint256"
        }
      ],
      "stateMutability": "view",
      "type": "function"
    },
    {
      "inputs": [
        {
          "internalType": "address",
          "name": "",
          "type": "address"
        }
      ],
      "name": "getFAssetsBackedByPool",
      "outputs": [
        {
          "internalType": "uint256",
          "name": "",
          "type": "uint256"
        }
      ],
      "stateMutability": "view",
      "type": "function"
    },
    {
      "inputs": [],
      "name": "getWNat",
      "outputs": [
        {
          "internalType": "contract IWNat",
          "name": "",
          "type": "address"
        }
      ],
      "stateMutability": "view",
      "type": "function"
    },
    {
      "inputs": [
        {
          "internalType": "address",
          "name": "",
          "type": "address"
        },
        {
          "internalType": "address",
          "name": "_address",
          "type": "address"
        }
      ],
      "name": "isAgentVaultOwner",
      "outputs": [
        {
          "internalType": "bool",
          "name": "",
          "type": "bool"
        }
      ],
      "stateMutability": "view",
      "type": "function"
    },
    {
      "inputs": [
        {
          "internalType": "contract IERC20",
          "name": "",
          "type": "address"
        }
      ],
      "name": "isVaultCollateralToken",
      "outputs": [
        {
          "internalType": "bool",
          "name": "",
          "type": "bool"
        }
      ],
      "stateMutability": "pure",
      "type": "function"
    },
    {
      "inputs": [],
      "name": "lotSize",
      "outputs": [
        {
          "internalType": "uint256",
          "name": "",
          "type": "uint256"
        }
      ],
      "stateMutability": "view",
      "type": "function"
    },
    {
      "inputs": [
        {
          "internalType": "address",
          "name": "",
          "type": "address"
        }
      ],
      "name": "maxRedemptionFromAgent",
      "outputs": [
        {
          "internalType": "uint256",
          "name": "",
          "type": "uint256"
        }
      ],
      "stateMutability": "view",
      "type": "function"
    },
    {
      "inputs": [],
      "name": "minPoolCollateralRatioBIPS",
      "outputs": [
        {
          "internalType": "uint256",
          "name": "",
          "type": "uint256"
        }
      ],
      "stateMutability": "view",
      "type": "function"
    },
    {
      "inputs": [
        {
          "internalType": "address",
          "name": "",
          "type": "address"
        },
        {
          "internalType": "address",
          "name": "_redeemer",
          "type": "address"
        },
        {
          "internalType": "uint256",
          "name": "_amountUBA",
          "type": "uint256"
        },
        {
          "internalType": "string",
          "name": "_receiverUnderlyingAddress",
          "type": "string"
        },
        {
          "internalType": "address payable",
          "name": "_executor",
          "type": "address"
        }
      ],
      "name": "redeemFromAgent",
      "outputs": [],
      "stateMutability": "payable",
      "type": "function"
    },
    {
      "inputs": [
        {
          "internalType": "address",
          "name": "",
          "type": "address"
        },
        {
          "internalType": "address",
          "name": "_redeemer",
          "type": "address"
        },
        {
          "internalType": "uint256",
          "name": "_amountUBA",
          "type": "uint256"
        }
      ],
      "name": "redeemFromAgentInCollateral",
      "outputs": [],
      "stateMutability": "nonpayable",
      "type": "function"
    },
    {
      "inputs": [
        {
          "internalType": "contract IIFAsset",
          "name": "_fasset",
          "type": "address"
        }
      ],
      "name": "registerFAssetForCollateralPool",
      "outputs": [],
      "stateMutability": "nonpayable",
      "type": "function"
    },
    {
      "inputs": [
        {
          "internalType": "uint256",
          "name": "_mul",
          "type": "uint256"
        },
        {
          "internalType": "uint256",
          "name": "_div",
          "type": "uint256"
        }
      ],
      "name": "setAssetPriceNatWei",
      "outputs": [],
      "stateMutability": "nonpayable",
      "type": "function"
    },
    {
      "inputs": [
        {
          "internalType": "bool",
          "name": "_check",
          "type": "bool"
        }
      ],
      "name": "setCheckForValidAgentVaultAddress",
      "outputs": [],
      "stateMutability": "nonpayable",
      "type": "function"
    },
    {
      "inputs": [
        {
          "internalType": "address",
          "name": "pool",
          "type": "address"
        }
      ],
      "name": "setCollateralPool",
      "outputs": [],
      "stateMutability": "nonpayable",
      "type": "function"
    },
    {
      "inputs": [
        {
          "internalType": "address",
          "name": "_owner",
          "type": "address"
        }
      ],
      "name": "setCommonOwner",
      "outputs": [],
      "stateMutability": "nonpayable",
      "type": "function"
    },
    {
      "inputs": [
        {
          "internalType": "uint256",
          "name": "_fassetsBackedByPool",
          "type": "uint256"
        }
      ],
      "name": "setFAssetsBackedByPool",
      "outputs": [],
      "stateMutability": "nonpayable",
      "type": "function"
    },
    {
      "inputs": [
        {
          "internalType": "uint256",
          "name": "_lotSize",
          "type": "uint256"
        }
      ],
      "name": "setLotSize",
      "outputs": [],
      "stateMutability": "nonpayable",
      "type": "function"
    },
    {
      "inputs": [
        {
          "internalType": "uint256",
          "name": "_maxRedemption",
          "type": "uint256"
        }
      ],
      "name": "setMaxRedemptionFromAgent",
      "outputs": [],
      "stateMutability": "nonpayable",
      "type": "function"
    },
    {
      "inputs": [
        {
          "internalType": "uint256",
          "name": "_minPoolCollateralRatioBIPS",
          "type": "uint256"
        }
      ],
      "name": "setMinPoolCollateralRatioBIPS",
      "outputs": [],
      "stateMutability": "nonpayable",
      "type": "function"
    },
    {
      "inputs": [
        {
          "internalType": "uint256",
          "name": "_timelockDuration",
          "type": "uint256"
        }
      ],
      "name": "setTimelockDuration",
      "outputs": [],
      "stateMutability": "nonpayable",
      "type": "function"
    },
    {
      "inputs": [
        {
          "internalType": "address",
          "name": "_agentVault",
          "type": "address"
        },
        {
          "internalType": "contract IERC20",
          "name": "_token",
          "type": "address"
        }
      ],
      "name": "updateCollateral",
      "outputs": [],
      "stateMutability": "nonpayable",
      "type": "function"
    }
  ],
  "bytecode": "0x60806040526002805460ff60a01b1916600160a01b17815560001960048190556005556000600681905560016007819055600892909255600991909155600a55633b9aca00600b55348015605257600080fd5b50604051610dfd380380610dfd833981016040819052606f916093565b600080546001600160a01b0319166001600160a01b039290921691909117905560c1565b60006020828403121560a457600080fd5b81516001600160a01b038116811460ba57600080fd5b9392505050565b610d2d806100d06000396000f3fe6080604052600436106101ee5760003560e01c8063716a5eb41161010d578063bd5ebe66116100a0578063d13e4f251161006f578063d13e4f25146105dd578063d6b93a9f14610603578063d993f3b514610634578063ed000b3014610654578063ed3762aa1461067457600080fd5b8063bd5ebe6614610569578063c7cc5bb61461057f578063cd7159351461059b578063cfe65f24146105bd57600080fd5b80639193e95a116100dc5780639193e95a146104f8578063997be0f414610518578063a5b0baac1461052b578063b5a488a61461054b57600080fd5b8063716a5eb41461044e57806373461c311461048b57806374baf3b3146104c45780637c7db1a5146104da57600080fd5b806334591a3e116101855780635252f3a2116101545780635252f3a2146103b4578063531090f3146103f75780635b3bc1891461040d5780636e61164f1461042357600080fd5b806334591a3e1461032057806337bf13ad1461034057806339c045df1461037d5780634942f65f1461039e57600080fd5b80631ba28878116101c15780631ba28878146102815780631e8bee01146102be57806327c830a9146102e057806329ff13081461030057600080fd5b806302312aec146101f35780630dabe44914610220578063150fea0914610242578063177d030714610262575b600080fd5b3480156101ff57600080fd5b50600754600854604080519283526020830191909152015b60405180910390f35b34801561022c57600080fd5b5061024061023b366004610987565b600455565b005b34801561024e57600080fd5b5061024061025d366004610987565b600655565b34801561026e57600080fd5b506006545b604051908152602001610217565b34801561028d57600080fd5b5061024061029c3660046109b8565b600380546001600160a01b0319166001600160a01b0392909216919091179055565b3480156102ca57600080fd5b506102736102d93660046109b8565b5060045490565b3480156102ec57600080fd5b5060005b6040519015158152602001610217565b34801561030c57600080fd5b5061024061031b3660046109d5565b610694565b34801561032c57600080fd5b5061024061033b366004610987565b600955565b34801561034c57600080fd5b5061024061035b3660046109b8565b600180546001600160a01b0319166001600160a01b0392909216919091179055565b34801561038957600080fd5b506102f06103983660046109b8565b50600190565b3480156103aa57600080fd5b5061027360095481565b3480156103c057600080fd5b506103df6103cf3660046109b8565b506003546001600160a01b031690565b6040516001600160a01b039091168152602001610217565b34801561040357600080fd5b50610273600b5481565b34801561041957600080fd5b5061027360075481565b34801561042f57600080fd5b506103df61043e3660046109b8565b506002546001600160a01b031690565b34801561045a57600080fd5b506102406104693660046109b8565b600280546001600160a01b0319166001600160a01b0392909216919091179055565b34801561049757600080fd5b506102406104a6366004610a0e565b60028054911515600160a01b0260ff60a01b19909216919091179055565b3480156104d057600080fd5b50610273600a5481565b3480156104e657600080fd5b506001546001600160a01b03166103df565b34801561050457600080fd5b50610240610513366004610ac0565b610706565b610240610526366004610b24565b610774565b34801561053757600080fd5b506001546103df906001600160a01b031681565b34801561055757600080fd5b506000546001600160a01b03166103df565b34801561057557600080fd5b5061027360085481565b34801561058b57600080fd5b5060006040516102179190610bb9565b3480156105a757600080fd5b506102736105b63660046109b8565b50600a5490565b3480156105c957600080fd5b506102406105d8366004610987565b600a55565b3480156105e957600080fd5b506102406105f8366004610be1565b600791909155600855565b34801561060f57600080fd5b506102f061061e3660046109d5565b6002546001600160a01b03908116911614919050565b34801561064057600080fd5b5061024061064f366004610987565b600555565b34801561066057600080fd5b5061024061066f366004610c03565b61081c565b34801561068057600080fd5b5061027361068f3660046109b8565b6108c8565b600254600160a01b900460ff16156106bf5760405163d68a46c560e01b815260040160405180910390fd5b604080516001600160a01b038085168252831660208201527fb77174b552e29f8b4977a7ef30733f84b5d2cd3332382dacfacf1894ffb1eafb910160405180910390a15050565b6000826001600160a01b0316826040516107209190610c68565b6000604051808303816000865af19150503d806000811461075d576040519150601f19603f3d011682016040523d82523d6000602084013e610762565b606091505b5050905061076f81610952565b505050565b600154604051632770a7eb60e21b8152336004820152602481018590526001600160a01b0390911690639dc29fac90604401600060405180830381600087803b1580156107c057600080fd5b505af11580156107d4573d6000803e3d6000fd5b505050507f8a87668a7b80e194d7ce2f3091108a6155595fe94177b3ee6eaa6162ac92b8fe8483858460405161080d9493929190610c84565b60405180910390a15050505050565b600154604051632770a7eb60e21b8152336004820152602481018390526001600160a01b0390911690639dc29fac90604401600060405180830381600087803b15801561086857600080fd5b505af115801561087c573d6000803e3d6000fd5b5050604080516001600160a01b0386168152602081018590527f1dc85c87d1cae3edc965c14f2b1a1f0ae29dd909089061d698e5e1019cb6585d935001905060405180910390a1505050565b600061094c600554600160009054906101000a90046001600160a01b03166001600160a01b03166318160ddd6040518163ffffffff1660e01b8152600401602060405180830381865afa158015610923573d6000803e3d6000fd5b505050506040513d601f19601f820116820180604052508101906109479190610cde565b61096f565b92915050565b3d604051818101604052816000823e821561096b578181f35b8181fd5b600081831061097e5781610980565b825b9392505050565b60006020828403121561099957600080fd5b5035919050565b6001600160a01b03811681146109b557600080fd5b50565b6000602082840312156109ca57600080fd5b8135610980816109a0565b600080604083850312156109e857600080fd5b82356109f3816109a0565b91506020830135610a03816109a0565b809150509250929050565b600060208284031215610a2057600080fd5b8135801515811461098057600080fd5b634e487b7160e01b600052604160045260246000fd5b60008067ffffffffffffffff841115610a6157610a61610a30565b50604051601f19601f85018116603f0116810181811067ffffffffffffffff82111715610a9057610a90610a30565b604052838152905080828401851015610aa857600080fd5b83836020830137600060208583010152509392505050565b60008060408385031215610ad357600080fd5b8235610ade816109a0565b9150602083013567ffffffffffffffff811115610afa57600080fd5b8301601f81018513610b0b57600080fd5b610b1a85823560208401610a46565b9150509250929050565b600080600080600060a08688031215610b3c57600080fd5b8535610b47816109a0565b94506020860135610b57816109a0565b935060408601359250606086013567ffffffffffffffff811115610b7a57600080fd5b8601601f81018813610b8b57600080fd5b610b9a88823560208401610a46565b9250506080860135610bab816109a0565b809150509295509295909350565b6020810160048310610bdb57634e487b7160e01b600052602160045260246000fd5b91905290565b60008060408385031215610bf457600080fd5b50508035926020909101359150565b600080600060608486031215610c1857600080fd5b8335610c23816109a0565b92506020840135610c33816109a0565b929592945050506040919091013590565b60005b83811015610c5f578181015183820152602001610c47565b50506000910152565b60008251610c7a818460208701610c44565b9190910192915050565b60018060a01b03851681526080602082015260008451806080840152610cb18160a0850160208901610c44565b6040830194909452506001600160a01b0391909116606082015260a0601f909201601f1916010192915050565b600060208284031215610cf057600080fd5b505191905056fea2646970667358221220bcbfa82be6c310bf74240daa41b3ef4261e2f2bceb9def93fba4af06c4d9334c64736f6c634300081b0033",
  "linkReferences": {},
  "deployedLinkReferences": {}
}