{
  "_format": "hh-sol-artifact-1",
  "contractName": "SettingsReaderFacet",
  "sourceName": "contracts/assetManager/facets/SettingsReaderFacet.sol",
  "abi": [
    {
      "inputs": [],
      "name": "assetManagerController",
      "outputs": [
        {
          "internalType": "address",
          "name": "",
          "type": "address"
        }
      ],
      "stateMutability": "view",
      "type": "function"
    },
    {
      "inputs": [],
      "name": "assetMintingDecimals",
      "outputs": [
        {
          "internalType": "uint256",
          "name": "",
          "type": "uint256"
        }
      ],
      "stateMutability": "view",
      "type": "function"
    },
    {
      "inputs": [],
      "name": "assetMintingGranularityUBA",
      "outputs": [
        {
          "internalType": "uint256",
          "name": "",
          "type": "uint256"
        }
      ],
      "stateMutability": "view",
      "type": "function"
    },
    {
      "inputs": [],
      "name": "fAsset",
      "outputs": [
        {
          "internalType": "contract IERC20",
          "name": "",
          "type": "address"
        }
      ],
      "stateMutability": "view",
      "type": "function"
    },
    {
      "inputs": [],
      "name": "getCollateralPoolTokenTimelockSeconds",
      "outputs": [
        {
          "internalType": "uint256",
          "name": "",
          "type": "uint256"
        }
      ],
      "stateMutability": "view",
      "type": "function"
    },
    {
      "inputs": [],
      "name": "getSettings",
      "outputs": [
        {
          "components": [
            {
              "internalType": "address",
              "name": "assetManagerController",
              "type": "address"
            },
            {
              "internalType": "address",
              "name": "fAsset",
              "type": "address"
            },
            {
              "internalType": "address",
              "name": "agentVaultFactory",
              "type": "address"
            },
            {
              "internalType": "address",
              "name": "collateralPoolFactory",
              "type": "address"
            },
            {
              "internalType": "address",
              "name": "collateralPoolTokenFactory",
              "type": "address"
            },
            {
              "internalType": "string",
              "name": "poolTokenSuffix",
              "type": "string"
            },
            {
              "internalType": "address",
              "name": "whitelist",
              "type": "address"
            },
            {
              "internalType": "address",
              "name": "agentOwnerRegistry",
              "type": "address"
            },
            {
              "internalType": "address",
              "name": "fdcVerification",
              "type": "address"
            },
            {
              "internalType": "address payable",
              "name": "burnAddress",
              "type": "address"
            },
            {
              "internalType": "address",
              "name": "priceReader",
              "type": "address"
            },
            {
              "internalType": "uint8",
              "name": "assetDecimals",
              "type": "uint8"
            },
            {
              "internalType": "uint8",
              "name": "assetMintingDecimals",
              "type": "uint8"
            },
            {
              "internalType": "bytes32",
              "name": "chainId",
              "type": "bytes32"
            },
            {
              "internalType": "uint32",
              "name": "averageBlockTimeMS",
              "type": "uint32"
            },
            {
              "internalType": "uint32",
              "name": "mintingPoolHoldingsRequiredBIPS",
              "type": "uint32"
            },
            {
              "internalType": "uint16",
              "name": "collateralReservationFeeBIPS",
              "type": "uint16"
            },
            {
              "internalType": "uint64",
              "name": "assetUnitUBA",
              "type": "uint64"
            },
            {
              "internalType": "uint64",
              "name": "assetMintingGranularityUBA",
              "type": "uint64"
            },
            {
              "internalType": "uint64",
              "name": "lotSizeAMG",
              "type": "uint64"
            },
            {
              "internalType": "uint16",
              "name": "__minUnderlyingBackingBIPS",
              "type": "uint16"
            },
            {
              "internalType": "bool",
              "name": "requireEOAAddressProof",
              "type": "bool"
            },
            {
              "internalType": "uint64",
              "name": "mintingCapAMG",
              "type": "uint64"
            },
            {
              "internalType": "uint64",
              "name": "underlyingBlocksForPayment",
              "type": "uint64"
            },
            {
              "internalType": "uint64",
              "name": "underlyingSecondsForPayment",
              "type": "uint64"
            },
            {
              "internalType": "uint16",
              "name": "redemptionFeeBIPS",
              "type": "uint16"
            },
            {
              "internalType": "uint32",
              "name": "redemptionDefaultFactorVaultCollateralBIPS",
              "type": "uint32"
            },
            {
              "internalType": "uint32",
              "name": "__redemptionDefaultFactorPoolBIPS",
              "type": "uint32"
            },
            {
              "internalType": "uint64",
              "name": "confirmationByOthersAfterSeconds",
              "type": "uint64"
            },
            {
              "internalType": "uint128",
              "name": "confirmationByOthersRewardUSD5",
              "type": "uint128"
            },
            {
              "internalType": "uint16",
              "name": "maxRedeemedTickets",
              "type": "uint16"
            },
            {
              "internalType": "uint16",
              "name": "paymentChallengeRewardBIPS",
              "type": "uint16"
            },
            {
              "internalType": "uint128",
              "name": "paymentChallengeRewardUSD5",
              "type": "uint128"
            },
            {
              "internalType": "uint64",
              "name": "withdrawalWaitMinSeconds",
              "type": "uint64"
            },
            {
              "internalType": "uint64",
              "name": "maxTrustedPriceAgeSeconds",
              "type": "uint64"
            },
            {
              "internalType": "uint64",
              "name": "ccbTimeSeconds",
              "type": "uint64"
            },
            {
              "internalType": "uint64",
              "name": "attestationWindowSeconds",
              "type": "uint64"
            },
            {
              "internalType": "uint64",
              "name": "minUpdateRepeatTimeSeconds",
              "type": "uint64"
            },
            {
              "internalType": "uint64",
              "name": "__buybackCollateralFactorBIPS",
              "type": "uint64"
            },
            {
              "internalType": "uint64",
              "name": "announcedUnderlyingConfirmationMinSeconds",
              "type": "uint64"
            },
            {
              "internalType": "uint64",
              "name": "tokenInvalidationTimeMinSeconds",
              "type": "uint64"
            },
            {
              "internalType": "uint32",
              "name": "vaultCollateralBuyForFlareFactorBIPS",
              "type": "uint32"
            },
            {
              "internalType": "uint64",
              "name": "agentExitAvailableTimelockSeconds",
              "type": "uint64"
            },
            {
              "internalType": "uint64",
              "name": "agentFeeChangeTimelockSeconds",
              "type": "uint64"
            },
            {
              "internalType": "uint64",
              "name": "agentMintingCRChangeTimelockSeconds",
              "type": "uint64"
            },
            {
              "internalType": "uint64",
              "name": "poolExitCRChangeTimelockSeconds",
              "type": "uint64"
            },
            {
              "internalType": "uint64",
              "name": "agentTimelockedOperationWindowSeconds",
              "type": "uint64"
            },
            {
              "internalType": "uint32",
              "name": "collateralPoolTokenTimelockSeconds",
              "type": "uint32"
            },
            {
              "internalType": "uint64",
              "name": "liquidationStepSeconds",
              "type": "uint64"
            },
            {
              "internalType": "uint256[]",
              "name": "liquidationCollateralFactorBIPS",
              "type": "uint256[]"
            },
            {
              "internalType": "uint256[]",
              "name": "liquidationFactorVaultCollateralBIPS",
              "type": "uint256[]"
            },
            {
              "internalType": "uint64",
              "name": "diamondCutMinTimelockSeconds",
              "type": "uint64"
            },
            {
              "internalType": "uint64",
              "name": "maxEmergencyPauseDurationSeconds",
              "type": "uint64"
            },
            {
              "internalType": "uint64",
              "name": "emergencyPauseDurationResetAfterSeconds",
              "type": "uint64"
            },
            {
              "internalType": "uint64",
              "name": "__cancelCollateralReservationAfterSeconds",
              "type": "uint64"
            },
            {
              "internalType": "uint16",
              "name": "__rejectOrCancelCollateralReservationReturnFactorBIPS",
              "type": "uint16"
            },
            {
              "internalType": "uint64",
              "name": "__rejectRedemptionRequestWindowSeconds",
              "type": "uint64"
            },
            {
              "internalType": "uint64",
              "name": "__takeOverRedemptionRequestWindowSeconds",
              "type": "uint64"
            },
            {
              "internalType": "uint32",
              "name": "__rejectedRedemptionDefaultFactorVaultCollateralBIPS",
              "type": "uint32"
            },
            {
              "internalType": "uint32",
              "name": "__rejectedRedemptionDefaultFactorPoolBIPS",
              "type": "uint32"
            }
          ],
          "internalType": "struct AssetManagerSettings.Data",
          "name": "",
          "type": "tuple"
        }
      ],
      "stateMutability": "pure",
      "type": "function"
    },
    {
      "inputs": [],
      "name": "lotSize",
      "outputs": [
        {
          "internalType": "uint256",
          "name": "_lotSizeUBA",
          "type": "uint256"
        }
      ],
      "stateMutability": "view",
      "type": "function"
    },
    {
      "inputs": [],
      "name": "priceReader",
      "outputs": [
        {
          "internalType": "address",
          "name": "",
          "type": "address"
        }
      ],
      "stateMutability": "view",
      "type": "function"
    }
  ],
  "bytecode": "0x6080604052348015600f57600080fd5b50610f7b8061001f6000396000f3fe608060405234801561001057600080fd5b50600436106100885760003560e01c8063531090f31161005b578063531090f3146101465780637c7db1a51461017d57806385b4bb5314610185578063f0c0b7251461019a57600080fd5b8063177d03071461008d578063410418f1146100c95780634942f65f146100fa57806349b5fdb414610102575b600080fd5b7f4f24f5c433db0962dac0d2c8b84197a6e6c7cc4e5d9ebe1916a1b6193da2f34e5463ffffffff165b6040519081526020015b60405180910390f35b7f4f24f5c433db0962dac0d2c8b84197a6e6c7cc4e5d9ebe1916a1b6193da2f34454600160a81b900460ff166100b6565b6100b66101ca565b7f4f24f5c433db0962dac0d2c8b84197a6e6c7cc4e5d9ebe1916a1b6193da2f344546001600160a01b03165b6040516001600160a01b0390911681526020016100c0565b7f4f24f5c433db0962dac0d2c8b84197a6e6c7cc4e5d9ebe1916a1b6193da2f34654600160901b90046001600160401b03166100b6565b61012e610256565b61018d61028e565b6040516100c0919061099f565b7f4f24f5c433db0962dac0d2c8b84197a6e6c7cc4e5d9ebe1916a1b6193da2f33a546001600160a01b031661012e565b7f4f24f5c433db0962dac0d2c8b84197a6e6c7cc4e5d9ebe1916a1b6193da2f346547f4f24f5c433db0962dac0d2c8b84197a6e6c7cc4e5d9ebe1916a1b6193da2f347546000917f4f24f5c433db0962dac0d2c8b84197a6e6c7cc4e5d9ebe1916a1b6193da2f33a9161025091600160901b90046001600160401b039081169116610ee0565b91505090565b60006102897f4f24f5c433db0962dac0d2c8b84197a6e6c7cc4e5d9ebe1916a1b6193da2f33b546001600160a01b031690565b905090565b604080516107808101825260008082526020820181905291810182905260608082018390526080820183905260a0820181905260c0820183905260e08201839052610100820183905261012082018390526101408201839052610160820183905261018082018390526101a082018390526101c082018390526101e08201839052610200820183905261022082018390526102408201839052610260820183905261028082018390526102a082018390526102c082018390526102e08201839052610300820183905261032082018390526103408201839052610360820183905261038082018390526103a082018390526103c082018390526103e08201839052610400820183905261042082018390526104408201839052610460820183905261048082018390526104a082018390526104c082018390526104e08201839052610500820183905261052082018390526105408201839052610560820183905261058082018390526105a082018390526105c082018390526105e0820183905261060082018390526106208201819052610640820152610660810182905261068081018290526106a081018290526106c081018290526106e081018290526107008101829052610720810182905261074081018290526107608101919091527f4f24f5c433db0962dac0d2c8b84197a6e6c7cc4e5d9ebe1916a1b6193da2f33a604080516107808101825282546001600160a01b03908116825260018401548116602083015260028401548116928201929092526003830154821660608201526004830154909116608082015260058201805491929160a0840191906104f490610f0b565b80601f016020809104026020016040519081016040528092919081815260200182805461052090610f0b565b801561056d5780601f106105425761010080835404028352916020019161056d565b820191906000526020600020905b81548152906001019060200180831161055057829003601f168201915b505050918352505060068201546001600160a01b0390811660208084019190915260078401548216604080850191909152600885015483166060850152600985015483166080850152600a85015492831660a085015260ff600160a01b808504821660c0870152600160a81b909404811660e0860152600b860154610100860152600c86015463ffffffff808216610120880152640100000000808304821661014089015261ffff600160401b80850482166101608b01526001600160401b03600160501b80870482166101808d0152600160901b9687900482166101a08d0152600d8d01548083166101c08e015283810485166101e08e015281810490981615156102008d0152600160581b880482166102208d0152600160981b90970481166102408c0152600e8c01548082166102608d015282810484166102808d015296870485166102a08c0152600160701b870485166102c08c01529585900486166102e08b0152600f8b01546001600160801b038082166103008d0152600160801b80830485166103208e0152969091049092166103408b015260108b01549182166103608b015284820486166103808b0152600160c01b9182900486166103a08b015260118b01548087166103c08c015281810487166103e08c015285810487166104008c015282900486166104208b015260128b01548087166104408c015281810487166104608c015285810485166104808c01529890980485166104a08a015260138a01548086166104c08b015297880485166104e08a01529287048416610500890152919095048216610520870152601487015494851661054087015290930490921661056084015260158401805483518184028101840190945280845261058090940193909183018282801561082657602002820191906000526020600020905b815481526020019060010190808311610812575b505050505081526020016016820180548060200260200160405190810160405280929190818152602001828054801561087e57602002820191906000526020600020905b81548152602001906001019080831161086a575b505050918352505060178201546001600160401b038082166020840152600160401b820481166040840152600160801b820481166060840152600160c01b9091048116608083015260189092015461ffff811660a0830152620100008104831660c0830152600160501b810490921660e082015263ffffffff600160901b83048116610100830152600160b01b90920490911661012090910152919050565b6000815180845260005b8181101561094357602081850181015186830182015201610927565b506000602082860101526020601f19601f83011685010191505092915050565b600081518084526020840193506020830160005b82811015610995578151865260209586019590910190600101610977565b5093949350505050565b602081526109b96020820183516001600160a01b03169052565b600060208301516109d560408401826001600160a01b03169052565b5060408301516001600160a01b03811660608401525060608301516001600160a01b03811660808401525060808301516001600160a01b03811660a08401525060a083015161078060c0840152610a306107a084018261091d565b905060c0840151610a4c60e08501826001600160a01b03169052565b5060e08401516001600160a01b038116610100850152506101008401516001600160a01b038116610120850152506101208401516001600160a01b038116610140850152506101408401516001600160a01b0381166101608501525061016084015160ff81166101808501525061018084015160ff81166101a0850152506101a08401516101c08401526101c0840151610aef6101e085018263ffffffff169052565b506101e084015163ffffffff81166102008501525061020084015161ffff8116610220850152506102208401516001600160401b038116610240850152506102408401516001600160401b038116610260850152506102608401516001600160401b0381166102808501525061028084015161ffff81166102a0850152506102a08401518015156102c0850152506102c08401516001600160401b0381166102e0850152506102e08401516001600160401b038116610300850152506103008401516001600160401b0381166103208501525061032084015161ffff81166103408501525061034084015163ffffffff81166103608501525061036084015163ffffffff8116610380850152506103808401516001600160401b0381166103a0850152506103a08401516001600160801b0381166103c0850152506103c084015161ffff81166103e0850152506103e084015161ffff8116610400850152506104008401516001600160801b038116610420850152506104208401516001600160401b038116610440850152506104408401516001600160401b038116610460850152506104608401516001600160401b038116610480850152506104808401516001600160401b0381166104a0850152506104a08401516001600160401b0381166104c0850152506104c08401516001600160401b0381166104e0850152506104e08401516001600160401b038116610500850152506105008401516001600160401b0381166105208501525061052084015163ffffffff8116610540850152506105408401516001600160401b038116610560850152506105608401516001600160401b038116610580850152506105808401516001600160401b0381166105a0850152506105a08401516001600160401b0381166105c0850152506105c08401516001600160401b0381166105e0850152506105e084015163ffffffff8116610600850152506106008401516001600160401b03811661062085015250610620840151838203601f1901610640850152610dec8282610963565b915050610640840151601f1984830301610660850152610e0c8282610963565b915050610660840151610e2b6106808501826001600160401b03169052565b506106808401516001600160401b0381166106a0850152506106a08401516001600160401b0381166106c0850152506106c08401516001600160401b0381166106e0850152506106e084015161ffff8116610700850152506107008401516001600160401b038116610720850152506107208401516001600160401b0381166107408501525061074084015163ffffffff81166107608501525061076084015163ffffffff8116610780850152509392505050565b8082028115828204841417610f0557634e487b7160e01b600052601160045260246000fd5b92915050565b600181811c90821680610f1f57607f821691505b602082108103610f3f57634e487b7160e01b600052602260045260246000fd5b5091905056fea26469706673582212201cc5a05816e868546e0d34762862c5d6278da840be36196c1aa88bae9b426bcf64736f6c634300081b0033",
  "linkReferences": {},
  "deployedLinkReferences": {}
}