{
  "_format": "hh-sol-artifact-1",
  "contractName": "CollateralPoolToken",
  "sourceName": "contracts/collateralPool/implementation/CollateralPoolToken.sol",
  "abi": [
    {
      "inputs": [
        {
          "internalType": "address",
          "name": "_collateralPool",
          "type": "address"
        },
        {
          "internalType": "string",
          "name": "_tokenName",
          "type": "string"
        },
        {
          "internalType": "string",
          "name": "_tokenSymbol",
          "type": "string"
        }
      ],
      "stateMutability": "nonpayable",
      "type": "constructor"
    },
    {
      "anonymous": false,
      "inputs": [
        {
          "indexed": false,
          "internalType": "address",
          "name": "previousAdmin",
          "type": "address"
        },
        {
          "indexed": false,
          "internalType": "address",
          "name": "newAdmin",
          "type": "address"
        }
      ],
      "name": "AdminChanged",
      "type": "event"
    },
    {
      "anonymous": false,
      "inputs": [
        {
          "indexed": true,
          "internalType": "address",
          "name": "owner",
          "type": "address"
        },
        {
          "indexed": true,
          "internalType": "address",
          "name": "spender",
          "type": "address"
        },
        {
          "indexed": false,
          "internalType": "uint256",
          "name": "value",
          "type": "uint256"
        }
      ],
      "name": "Approval",
      "type": "event"
    },
    {
      "anonymous": false,
      "inputs": [
        {
          "indexed": true,
          "internalType": "address",
          "name": "beacon",
          "type": "address"
        }
      ],
      "name": "BeaconUpgraded",
      "type": "event"
    },
    {
      "anonymous": false,
      "inputs": [
        {
          "indexed": true,
          "internalType": "address",
          "name": "from",
          "type": "address"
        },
        {
          "indexed": true,
          "internalType": "address",
          "name": "to",
          "type": "address"
        },
        {
          "indexed": false,
          "internalType": "uint256",
          "name": "value",
          "type": "uint256"
        }
      ],
      "name": "Transfer",
      "type": "event"
    },
    {
      "anonymous": false,
      "inputs": [
        {
          "indexed": true,
          "internalType": "address",
          "name": "implementation",
          "type": "address"
        }
      ],
      "name": "Upgraded",
      "type": "event"
    },
    {
      "inputs": [
        {
          "internalType": "address",
          "name": "owner",
          "type": "address"
        },
        {
          "internalType": "address",
          "name": "spender",
          "type": "address"
        }
      ],
      "name": "allowance",
      "outputs": [
        {
          "internalType": "uint256",
          "name": "",
          "type": "uint256"
        }
      ],
      "stateMutability": "view",
      "type": "function"
    },
    {
      "inputs": [
        {
          "internalType": "address",
          "name": "spender",
          "type": "address"
        },
        {
          "internalType": "uint256",
          "name": "amount",
          "type": "uint256"
        }
      ],
      "name": "approve",
      "outputs": [
        {
          "internalType": "bool",
          "name": "",
          "type": "bool"
        }
      ],
      "stateMutability": "nonpayable",
      "type": "function"
    },
    {
      "inputs": [
        {
          "internalType": "address",
          "name": "account",
          "type": "address"
        }
      ],
      "name": "balanceOf",
      "outputs": [
        {
          "internalType": "uint256",
          "name": "",
          "type": "uint256"
        }
      ],
      "stateMutability": "view",
      "type": "function"
    },
    {
      "inputs": [
        {
          "internalType": "address",
          "name": "_account",
          "type": "address"
        },
        {
          "internalType": "uint256",
          "name": "_amount",
          "type": "uint256"
        },
        {
          "internalType": "bool",
          "name": "_ignoreTimelocked",
          "type": "bool"
        }
      ],
      "name": "burn",
      "outputs": [],
      "stateMutability": "nonpayable",
      "type": "function"
    },
    {
      "inputs": [
        {
          "internalType": "address",
          "name": "_account",
          "type": "address"
        },
        {
          "internalType": "uint256",
          "name": "_maxTimelockedEntries",
          "type": "uint256"
        }
      ],
      "name": "cleanupExpiredTimelocks",
      "outputs": [
        {
          "internalType": "bool",
          "name": "_cleanedAllExpired",
          "type": "bool"
        }
      ],
      "stateMutability": "nonpayable",
      "type": "function"
    },
    {
      "inputs": [],
      "name": "collateralPool",
      "outputs": [
        {
          "internalType": "address",
          "name": "",
          "type": "address"
        }
      ],
      "stateMutability": "view",
      "type": "function"
    },
    {
      "inputs": [
        {
          "internalType": "address",
          "name": "_account",
          "type": "address"
        }
      ],
      "name": "debtFreeBalanceOf",
      "outputs": [
        {
          "internalType": "uint256",
          "name": "",
          "type": "uint256"
        }
      ],
      "stateMutability": "view",
      "type": "function"
    },
    {
      "inputs": [
        {
          "internalType": "address",
          "name": "_account",
          "type": "address"
        }
      ],
      "name": "debtLockedBalanceOf",
      "outputs": [
        {
          "internalType": "uint256",
          "name": "",
          "type": "uint256"
        }
      ],
      "stateMutability": "view",
      "type": "function"
    },
    {
      "inputs": [],
      "name": "decimals",
      "outputs": [
        {
          "internalType": "uint8",
          "name": "",
          "type": "uint8"
        }
      ],
      "stateMutability": "view",
      "type": "function"
    },
    {
      "inputs": [
        {
          "internalType": "address",
          "name": "spender",
          "type": "address"
        },
        {
          "internalType": "uint256",
          "name": "subtractedValue",
          "type": "uint256"
        }
      ],
      "name": "decreaseAllowance",
      "outputs": [
        {
          "internalType": "bool",
          "name": "",
          "type": "bool"
        }
      ],
      "stateMutability": "nonpayable",
      "type": "function"
    },
    {
      "inputs": [
        {
          "internalType": "address payable",
          "name": "_recipient",
          "type": "address"
        }
      ],
      "name": "destroy",
      "outputs": [],
      "stateMutability": "nonpayable",
      "type": "function"
    },
    {
      "inputs": [],
      "name": "implementation",
      "outputs": [
        {
          "internalType": "address",
          "name": "",
          "type": "address"
        }
      ],
      "stateMutability": "view",
      "type": "function"
    },
    {
      "inputs": [
        {
          "internalType": "address",
          "name": "spender",
          "type": "address"
        },
        {
          "internalType": "uint256",
          "name": "addedValue",
          "type": "uint256"
        }
      ],
      "name": "increaseAllowance",
      "outputs": [
        {
          "internalType": "bool",
          "name": "",
          "type": "bool"
        }
      ],
      "stateMutability": "nonpayable",
      "type": "function"
    },
    {
      "inputs": [
        {
          "internalType": "address",
          "name": "_collateralPool",
          "type": "address"
        },
        {
          "internalType": "string",
          "name": "_tokenName",
          "type": "string"
        },
        {
          "internalType": "string",
          "name": "_tokenSymbol",
          "type": "string"
        }
      ],
      "name": "initialize",
      "outputs": [],
      "stateMutability": "nonpayable",
      "type": "function"
    },
    {
      "inputs": [
        {
          "internalType": "address",
          "name": "_account",
          "type": "address"
        }
      ],
      "name": "lockedBalanceOf",
      "outputs": [
        {
          "internalType": "uint256",
          "name": "",
          "type": "uint256"
        }
      ],
      "stateMutability": "view",
      "type": "function"
    },
    {
      "inputs": [
        {
          "internalType": "address",
          "name": "_account",
          "type": "address"
        },
        {
          "internalType": "uint256",
          "name": "_amount",
          "type": "uint256"
        }
      ],
      "name": "mint",
      "outputs": [
        {
          "internalType": "uint256",
          "name": "_timelockExpiresAt",
          "type": "uint256"
        }
      ],
      "stateMutability": "nonpayable",
      "type": "function"
    },
    {
      "inputs": [],
      "name": "name",
      "outputs": [
        {
          "internalType": "string",
          "name": "",
          "type": "string"
        }
      ],
      "stateMutability": "view",
      "type": "function"
    },
    {
      "inputs": [
        {
          "internalType": "address",
          "name": "_account",
          "type": "address"
        }
      ],
      "name": "nonTimelockedBalanceOf",
      "outputs": [
        {
          "internalType": "uint256",
          "name": "",
          "type": "uint256"
        }
      ],
      "stateMutability": "view",
      "type": "function"
    },
    {
      "inputs": [],
      "name": "proxiableUUID",
      "outputs": [
        {
          "internalType": "bytes32",
          "name": "",
          "type": "bytes32"
        }
      ],
      "stateMutability": "view",
      "type": "function"
    },
    {
      "inputs": [
        {
          "internalType": "bytes4",
          "name": "_interfaceId",
          "type": "bytes4"
        }
      ],
      "name": "supportsInterface",
      "outputs": [
        {
          "internalType": "bool",
          "name": "",
          "type": "bool"
        }
      ],
      "stateMutability": "pure",
      "type": "function"
    },
    {
      "inputs": [],
      "name": "symbol",
      "outputs": [
        {
          "internalType": "string",
          "name": "",
          "type": "string"
        }
      ],
      "stateMutability": "view",
      "type": "function"
    },
    {
      "inputs": [
        {
          "internalType": "address",
          "name": "_account",
          "type": "address"
        }
      ],
      "name": "timelockedBalanceOf",
      "outputs": [
        {
          "internalType": "uint256",
          "name": "_timelocked",
          "type": "uint256"
        }
      ],
      "stateMutability": "view",
      "type": "function"
    },
    {
      "inputs": [],
      "name": "totalSupply",
      "outputs": [
        {
          "internalType": "uint256",
          "name": "",
          "type": "uint256"
        }
      ],
      "stateMutability": "view",
      "type": "function"
    },
    {
      "inputs": [
        {
          "internalType": "address",
          "name": "to",
          "type": "address"
        },
        {
          "internalType": "uint256",
          "name": "amount",
          "type": "uint256"
        }
      ],
      "name": "transfer",
      "outputs": [
        {
          "internalType": "bool",
          "name": "",
          "type": "bool"
        }
      ],
      "stateMutability": "nonpayable",
      "type": "function"
    },
    {
      "inputs": [
        {
          "internalType": "address",
          "name": "from",
          "type": "address"
        },
        {
          "internalType": "address",
          "name": "to",
          "type": "address"
        },
        {
          "internalType": "uint256",
          "name": "amount",
          "type": "uint256"
        }
      ],
      "name": "transferFrom",
      "outputs": [
        {
          "internalType": "bool",
          "name": "",
          "type": "bool"
        }
      ],
      "stateMutability": "nonpayable",
      "type": "function"
    },
    {
      "inputs": [
        {
          "internalType": "address",
          "name": "_account",
          "type": "address"
        }
      ],
      "name": "transferableBalanceOf",
      "outputs": [
        {
          "internalType": "uint256",
          "name": "",
          "type": "uint256"
        }
      ],
      "stateMutability": "view",
      "type": "function"
    },
    {
      "inputs": [
        {
          "internalType": "address",
          "name": "newImplementation",
          "type": "address"
        }
      ],
      "name": "upgradeTo",
      "outputs": [],
      "stateMutability": "nonpayable",
      "type": "function"
    },
    {
      "inputs": [
        {
          "internalType": "address",
          "name": "newImplementation",
          "type": "address"
        },
        {
          "internalType": "bytes",
          "name": "data",
          "type": "bytes"
        }
      ],
      "name": "upgradeToAndCall",
      "outputs": [],
      "stateMutability": "payable",
      "type": "function"
    }
  ],
  "bytecode": "0x60a06040523060805234801561001457600080fd5b50604051612608380380612608833981016040819052610033916101ca565b8181600361004183826102db565b50600461004e82826102db565b50505061006283838361006a60201b60201c565b505050610399565b600954610100900460ff16156100c65760405162461bcd60e51b815260206004820152601360248201527f616c726561647920696e697469616c697a656400000000000000000000000000604482015260640160405180910390fd5b6009805461ff001916610100179055600580546001600160a01b0385166001600160a01b031990911617905560066100fe83826102db565b50600761010b82826102db565b50505050565b634e487b7160e01b600052604160045260246000fd5b600082601f83011261013857600080fd5b81516001600160401b0381111561015157610151610111565b604051601f8201601f19908116603f011681016001600160401b038111828210171561017f5761017f610111565b60405281815283820160200185101561019757600080fd5b60005b828110156101b65760208186018101518383018201520161019a565b506000918101602001919091529392505050565b6000806000606084860312156101df57600080fd5b83516001600160a01b03811681146101f657600080fd5b60208501519093506001600160401b0381111561021257600080fd5b61021e86828701610127565b604086015190935090506001600160401b0381111561023c57600080fd5b61024886828701610127565b9150509250925092565b600181811c9082168061026657607f821691505b60208210810361028657634e487b7160e01b600052602260045260246000fd5b50919050565b601f8211156102d657806000526020600020601f840160051c810160208510156102b35750805b601f840160051c820191505b818110156102d357600081556001016102bf565b50505b505050565b81516001600160401b038111156102f4576102f4610111565b610308816103028454610252565b8461028c565b6020601f82116001811461033c57600083156103245750848201515b600019600385901b1c1916600184901b1784556102d3565b600084815260208120601f198516915b8281101561036c578785015182556020948501946001909201910161034c565b508482101561038a5786840151600019600387901b60f8161c191681555b50505050600190811b01905550565b6080516122386103d0600039600081816106af015281816106ef015281816108e50152818161092501526109a101526122386000f3fe6080604052600436106101b65760003560e01c806370a08231116100ec578063a9059cbb1161008a578063d103be9911610064578063d103be99146104cf578063dd62ed3e146104ef578063e5f71bda1461050f578063ff0eccf61461052f57600080fd5b8063a9059cbb1461046f578063c3bb25a01461048f578063c7d9f4d1146104af57600080fd5b806388b58c72116100c657806388b58c72146103fa578063906571471461041a57806395d89b411461043a578063a457c2d71461044f57600080fd5b806370a082311461038457806376fd4fdf146103ba5780637ee68fc4146103da57600080fd5b80633659cfe6116101595780634f1ef286116101335780634f1ef2861461030f57806352d1902d1461032257806359355736146103375780635c60da1b1461035757600080fd5b80633659cfe6146102af57806339509351146102cf57806340c10f19146102ef57600080fd5b8063095ea7b311610195578063095ea7b31461023457806318160ddd1461025457806323b872dd14610273578063313ce5671461029357600080fd5b8062f55d9d146101bb57806301ffc9a7146101dd57806306fdde0314610212575b600080fd5b3480156101c757600080fd5b506101db6101d6366004611bc2565b61054f565b005b3480156101e957600080fd5b506101fd6101f8366004611bdf565b610585565b60405190151581526020015b60405180910390f35b34801561021e57600080fd5b506102276105d7565b6040516102099190611c2d565b34801561024057600080fd5b506101fd61024f366004611c60565b610669565b34801561026057600080fd5b506002545b604051908152602001610209565b34801561027f57600080fd5b506101fd61028e366004611c8c565b610681565b34801561029f57600080fd5b5060405160128152602001610209565b3480156102bb57600080fd5b506101db6102ca366004611bc2565b6106a5565b3480156102db57600080fd5b506101fd6102ea366004611c60565b61076a565b3480156102fb57600080fd5b5061026561030a366004611c60565b61078c565b6101db61031d366004611d5d565b6108db565b34801561032e57600080fd5b50610265610994565b34801561034357600080fd5b50610265610352366004611bc2565b610a47565b34801561036357600080fd5b5061036c610a79565b6040516001600160a01b039091168152602001610209565b34801561039057600080fd5b5061026561039f366004611bc2565b6001600160a01b031660009081526020819052604090205490565b3480156103c657600080fd5b506101db6103d5366004611dc1565b610a88565b3480156103e657600080fd5b506102656103f5366004611bc2565b610ae6565b34801561040657600080fd5b50610265610415366004611bc2565b610b56565b34801561042657600080fd5b506101db610435366004611e28565b610b89565b34801561044657600080fd5b50610227610c22565b34801561045b57600080fd5b506101fd61046a366004611c60565b610c31565b34801561047b57600080fd5b506101fd61048a366004611c60565b610cac565b34801561049b57600080fd5b506102656104aa366004611bc2565b610cba565b3480156104bb57600080fd5b506102656104ca366004611bc2565b610ce8565b3480156104db57600080fd5b506102656104ea366004611bc2565b610d10565b3480156104fb57600080fd5b5061026561050a366004611ea3565b610dc5565b34801561051b57600080fd5b506101fd61052a366004611c60565b610df0565b34801561053b57600080fd5b5060055461036c906001600160a01b031681565b6005546001600160a01b031633146105825760405162461bcd60e51b815260040161057990611edc565b60405180910390fd5b50565b60006001600160e01b031982166301ffc9a760e01b14806105b657506001600160e01b031982166336372b0760e01b145b806105d157506001600160e01b03198216634284fbcf60e11b145b92915050565b6060600680546105e690611f0a565b80601f016020809104026020016040519081016040528092919081815260200182805461061290611f0a565b801561065f5780601f106106345761010080835404028352916020019161065f565b820191906000526020600020905b81548152906001019060200180831161064257829003601f168201915b5050505050905090565b600033610677818585610f0c565b5060019392505050565b60003361068f858285611030565b61069a8585856110a4565b506001949350505050565b6001600160a01b037f00000000000000000000000000000000000000000000000000000000000000001630036106ed5760405162461bcd60e51b815260040161057990611f44565b7f00000000000000000000000000000000000000000000000000000000000000006001600160a01b031661071f611253565b6001600160a01b0316146107455760405162461bcd60e51b815260040161057990611f90565b61074e8161126f565b604080516000808252602082019092526105829183919061132c565b60003361067781858561077d8383610dc5565b6107879190611ff2565b610f0c565b6005546000906001600160a01b031633146107b95760405162461bcd60e51b815260040161057990611edc565b6107c38383611497565b60006107cd611562565b90506107d98142611ff2565b91506000811180156107eb5750600083115b156108d4576001600160a01b038416600090815260086020526040908190208151808301909252908061081d86611646565b6001600160801b03168152602001610834856116b3565b67ffffffffffffffff1690526001820180548391600091600160801b90046001600160801b031690601061086783612005565b82546101009290920a6001600160801b0381810219909316918316021790915590811682526020808301939093526040909101600020835181549490930151929091166001600160c01b031990931692909217600160801b67ffffffffffffffff90921691909102179055505b5092915050565b6001600160a01b037f00000000000000000000000000000000000000000000000000000000000000001630036109235760405162461bcd60e51b815260040161057990611f44565b7f00000000000000000000000000000000000000000000000000000000000000006001600160a01b0316610955611253565b6001600160a01b03161461097b5760405162461bcd60e51b815260040161057990611f90565b6109848261126f565b6109908282600161132c565b5050565b6000306001600160a01b037f00000000000000000000000000000000000000000000000000000000000000001614610a345760405162461bcd60e51b815260206004820152603860248201527f555550535570677261646561626c653a206d757374206e6f742062652063616c60448201527f6c6564207468726f7567682064656c656761746563616c6c00000000000000006064820152608401610579565b506000805160206121bc83398151915290565b600080610a5383610b56565b90506000610a6084610d10565b9050808211610a6f5780610a71565b815b949350505050565b6000610a83611253565b905090565b6005546001600160a01b03163314610ab25760405162461bcd60e51b815260040161057990611edc565b8015610ac6576009805460ff191660011790555b610ad0838361171c565b8015610ae1576009805460ff191690555b505050565b60055460405163c79d245d60e01b81526001600160a01b038381166004830152600092169063c79d245d906024015b602060405180830381865afa158015610b32573d6000803e3d6000fd5b505050506040513d601f19601f820116820180604052508101906105d19190612030565b600554604051630af15fdd60e11b81526001600160a01b03838116600483015260009216906315e2bfba90602401610b15565b600954610100900460ff1615610bd75760405162461bcd60e51b8152602060048201526013602482015272185b1c9958591e481a5b9a5d1a585b1a5e9959606a1b6044820152606401610579565b6009805461ff001916610100179055600580546001600160a01b0385166001600160a01b03199091161790556006610c0f8382612097565b506007610c1c8282612097565b50505050565b6060600780546105e690611f0a565b60003381610c3f8286610dc5565b905083811015610c9f5760405162461bcd60e51b815260206004820152602560248201527f45524332303a2064656372656173656420616c6c6f77616e63652062656c6f77604482015264207a65726f60d81b6064820152608401610579565b61069a8286868403610f0c565b6000336106778185856110a4565b6000610cc582610d10565b6001600160a01b0383166000908152602081905260409020546105d19190612156565b600080610cf483610ae6565b90506000610d0184610cba565b9050808210610a6f5780610a71565b6001600160a01b038116600090815260086020526040812060018101546001600160801b03600160801b8204811691165b81811015610d93576000818152602084905260409020805442600160801b90910467ffffffffffffffff161115610d8a578054610d87906001600160801b031686611ff2565b94505b50600101610d41565b506001600160a01b038416600090815260208190526040902054808410610dba5780610dbc565b835b95945050505050565b6001600160a01b03918216600090815260016020908152604080832093909416825291909152205490565b6001600160a01b038216600090815260086020526040812060018101546001600160801b0316825b84811015610e9c576001830154600160801b90046001600160801b031682101580610e62575060008281526020849052604090205442600160801b90910467ffffffffffffffff16115b610e9c5782600083610e7381612169565b908252602082019290925260400160002080546001600160c01b03191690559150600101610e18565b50610ea681611646565b6001830180546fffffffffffffffffffffffffffffffff19166001600160801b039283161790819055600160801b90041681101580610dbc575060008181526020839052604090205442600160801b90910467ffffffffffffffff161195945050505050565b6001600160a01b038316610f6e5760405162461bcd60e51b8152602060048201526024808201527f45524332303a20617070726f76652066726f6d20746865207a65726f206164646044820152637265737360e01b6064820152608401610579565b6001600160a01b038216610fcf5760405162461bcd60e51b815260206004820152602260248201527f45524332303a20617070726f766520746f20746865207a65726f206164647265604482015261737360f01b6064820152608401610579565b6001600160a01b0383811660008181526001602090815260408083209487168084529482529182902085905590518481527f8c5be1e5ebec7d5bd14f71427d1e84f3dd0314c0f7b2291e5b200ac8c7c3b925910160405180910390a3505050565b600061103c8484610dc5565b90506000198114610c1c57818110156110975760405162461bcd60e51b815260206004820152601d60248201527f45524332303a20696e73756666696369656e7420616c6c6f77616e63650000006044820152606401610579565b610c1c8484848403610f0c565b6001600160a01b0383166111085760405162461bcd60e51b815260206004820152602560248201527f45524332303a207472616e736665722066726f6d20746865207a65726f206164604482015264647265737360d81b6064820152608401610579565b6001600160a01b03821661116a5760405162461bcd60e51b815260206004820152602360248201527f45524332303a207472616e7366657220746f20746865207a65726f206164647260448201526265737360e81b6064820152608401610579565b61117583838361185a565b6001600160a01b038316600090815260208190526040902054818110156111ed5760405162461bcd60e51b815260206004820152602660248201527f45524332303a207472616e7366657220616d6f756e7420657863656564732062604482015265616c616e636560d01b6064820152608401610579565b6001600160a01b03848116600081815260208181526040808320878703905593871680835291849020805487019055925185815290927fddf252ad1be2c89b69c2b068fc378daa952ba7f163c4a11628f55a4df523b3ef910160405180910390a3610c1c565b6000805160206121bc833981519152546001600160a01b031690565b600554604080516394217ad160e01b815290516000926001600160a01b0316916394217ad19160048083019260209291908290030181865afa1580156112b9573d6000803e3d6000fd5b505050506040513d601f19601f820116820180604052508101906112dd9190612182565b9050336001600160a01b038216146109905760405162461bcd60e51b815260206004820152601260248201527137b7363c9030b9b9b2ba1036b0b730b3b2b960711b6044820152606401610579565b7f4910fdfa16fed3260ed0e7147f7cc6da11a60208b5b9406d12a635614ffd91435460ff161561135f57610ae18361196a565b826001600160a01b03166352d1902d6040518163ffffffff1660e01b8152600401602060405180830381865afa9250505080156113b9575060408051601f3d908101601f191682019092526113b691810190612030565b60015b61141c5760405162461bcd60e51b815260206004820152602e60248201527f45524331393637557067726164653a206e657720696d706c656d656e7461746960448201526d6f6e206973206e6f74205555505360901b6064820152608401610579565b6000805160206121bc833981519152811461148b5760405162461bcd60e51b815260206004820152602960248201527f45524331393637557067726164653a20756e737570706f727465642070726f786044820152681a58589b195555525160ba1b6064820152608401610579565b50610ae1838383611a06565b6001600160a01b0382166114ed5760405162461bcd60e51b815260206004820152601f60248201527f45524332303a206d696e7420746f20746865207a65726f2061646472657373006044820152606401610579565b6114f96000838361185a565b806002600082825461150b9190611ff2565b90915550506001600160a01b038216600081815260208181526040808320805486019055518481527fddf252ad1be2c89b69c2b068fc378daa952ba7f163c4a11628f55a4df523b3ef910160405180910390a35050565b600080600560009054906101000a90046001600160a01b03166001600160a01b03166394217ad16040518163ffffffff1660e01b8152600401602060405180830381865afa1580156115b8573d6000803e3d6000fd5b505050506040513d601f19601f820116820180604052508101906115dc9190612182565b9050806001600160a01b031663177d03076040518163ffffffff1660e01b8152600401602060405180830381865afa15801561161c573d6000803e3d6000fd5b505050506040513d601f19601f820116820180604052508101906116409190612030565b91505090565b60006001600160801b038211156116af5760405162461bcd60e51b815260206004820152602760248201527f53616665436173743a2076616c756520646f65736e27742066697420696e20316044820152663238206269747360c81b6064820152608401610579565b5090565b600067ffffffffffffffff8211156116af5760405162461bcd60e51b815260206004820152602660248201527f53616665436173743a2076616c756520646f65736e27742066697420696e203660448201526534206269747360d01b6064820152608401610579565b6001600160a01b03821661177c5760405162461bcd60e51b815260206004820152602160248201527f45524332303a206275726e2066726f6d20746865207a65726f206164647265736044820152607360f81b6064820152608401610579565b6117888260008361185a565b6001600160a01b038216600090815260208190526040902054818110156117fc5760405162461bcd60e51b815260206004820152602260248201527f45524332303a206275726e20616d6f756e7420657863656564732062616c616e604482015261636560f01b6064820152608401610579565b6001600160a01b0383166000818152602081815260408083208686039055600280548790039055518581529192917fddf252ad1be2c89b69c2b068fc378daa952ba7f163c4a11628f55a4df523b3ef910160405180910390a3505050565b6005546001600160a01b031633146118d557600061187784610ae6565b9050808211156118d35760405162461bcd60e51b815260206004820152602160248201527f696e73756666696369656e74207472616e7366657261626c652062616c616e636044820152606560f81b6064820152608401610579565b505b60095460ff161580156118f057506001600160a01b03831615155b15610ae15761190083600a610df0565b50600061190c84610cba565b905080821115610c1c5760405162461bcd60e51b815260206004820152602360248201527f696e73756666696369656e74206e6f6e2d74696d656c6f636b65642062616c616044820152626e636560e81b6064820152608401610579565b6001600160a01b0381163b6119d75760405162461bcd60e51b815260206004820152602d60248201527f455243313936373a206e657720696d706c656d656e746174696f6e206973206e60448201526c1bdd08184818dbdb9d1c9858dd609a1b6064820152608401610579565b6000805160206121bc83398151915280546001600160a01b0319166001600160a01b0392909216919091179055565b611a0f83611a2b565b600082511180611a1c5750805b15610ae157610c1c8383611a6b565b611a348161196a565b6040516001600160a01b038216907fbc7cd75a20ee27fd9adebab32041f755214dbc6bffa90cc0225b39da2e5c2d3b90600090a250565b6060611a9083836040518060600160405280602781526020016121dc60279139611a97565b9392505050565b6060600080856001600160a01b031685604051611ab4919061219f565b600060405180830381855af49150503d8060008114611aef576040519150601f19603f3d011682016040523d82523d6000602084013e611af4565b606091505b5091509150611b0586838387611b0f565b9695505050505050565b60608315611b7e578251600003611b77576001600160a01b0385163b611b775760405162461bcd60e51b815260206004820152601d60248201527f416464726573733a2063616c6c20746f206e6f6e2d636f6e74726163740000006044820152606401610579565b5081610a71565b610a718383815115611b935781518083602001fd5b8060405162461bcd60e51b81526004016105799190611c2d565b6001600160a01b038116811461058257600080fd5b600060208284031215611bd457600080fd5b8135611a9081611bad565b600060208284031215611bf157600080fd5b81356001600160e01b031981168114611a9057600080fd5b60005b83811015611c24578181015183820152602001611c0c565b50506000910152565b6020815260008251806020840152611c4c816040850160208701611c09565b601f01601f19169190910160400192915050565b60008060408385031215611c7357600080fd5b8235611c7e81611bad565b946020939093013593505050565b600080600060608486031215611ca157600080fd5b8335611cac81611bad565b92506020840135611cbc81611bad565b929592945050506040919091013590565b634e487b7160e01b600052604160045260246000fd5b60008067ffffffffffffffff841115611cfe57611cfe611ccd565b50604051601f19601f85018116603f0116810181811067ffffffffffffffff82111715611d2d57611d2d611ccd565b604052838152905080828401851015611d4557600080fd5b83836020830137600060208583010152509392505050565b60008060408385031215611d7057600080fd5b8235611d7b81611bad565b9150602083013567ffffffffffffffff811115611d9757600080fd5b8301601f81018513611da857600080fd5b611db785823560208401611ce3565b9150509250929050565b600080600060608486031215611dd657600080fd5b8335611de181611bad565b92506020840135915060408401358015158114611dfd57600080fd5b809150509250925092565b600082601f830112611e1957600080fd5b611a9083833560208501611ce3565b600080600060608486031215611e3d57600080fd5b8335611e4881611bad565b9250602084013567ffffffffffffffff811115611e6457600080fd5b611e7086828701611e08565b925050604084013567ffffffffffffffff811115611e8d57600080fd5b611e9986828701611e08565b9150509250925092565b60008060408385031215611eb657600080fd5b8235611ec181611bad565b91506020830135611ed181611bad565b809150509250929050565b6020808252601490820152731bdb9b1e4818dbdb1b185d195c985b081c1bdbdb60621b604082015260600190565b600181811c90821680611f1e57607f821691505b602082108103611f3e57634e487b7160e01b600052602260045260246000fd5b50919050565b6020808252602c908201527f46756e6374696f6e206d7573742062652063616c6c6564207468726f7567682060408201526b19195b1959d85d1958d85b1b60a21b606082015260800190565b6020808252602c908201527f46756e6374696f6e206d7573742062652063616c6c6564207468726f7567682060408201526b6163746976652070726f787960a01b606082015260800190565b634e487b7160e01b600052601160045260246000fd5b808201808211156105d1576105d1611fdc565b60006001600160801b0382166001600160801b03810361202757612027611fdc565b60010192915050565b60006020828403121561204257600080fd5b5051919050565b601f821115610ae157806000526020600020601f840160051c810160208510156120705750805b601f840160051c820191505b81811015612090576000815560010161207c565b5050505050565b815167ffffffffffffffff8111156120b1576120b1611ccd565b6120c5816120bf8454611f0a565b84612049565b6020601f8211600181146120f957600083156120e15750848201515b600019600385901b1c1916600184901b178455612090565b600084815260208120601f198516915b828110156121295787850151825560209485019460019092019101612109565b50848210156121475786840151600019600387901b60f8161c191681555b50505050600190811b01905550565b818103818111156105d1576105d1611fdc565b60006001820161217b5761217b611fdc565b5060010190565b60006020828403121561219457600080fd5b8151611a9081611bad565b600082516121b1818460208701611c09565b919091019291505056fe360894a13ba1a3210667c828492db98dca3e2076cc3735a920a3ca505d382bbc416464726573733a206c6f772d6c6576656c2064656c65676174652063616c6c206661696c6564a264697066735822122077f06d990447657fef61c7922126c355a6406c7d8509ce0528fa84f15d5cef7564736f6c634300081b0033",
  "linkReferences": {},
  "deployedLinkReferences": {}
}