{
  "_format": "hh-sol-artifact-1",
  "contractName": "MaliciousDistributionToDelegators",
  "sourceName": "contracts/assetManager/mock/MaliciousDistributionToDelegators.sol",
  "abi": [
    {
      "inputs": [
        {
          "internalType": "uint256",
          "name": "_claim",
          "type": "uint256"
        }
      ],
      "stateMutability": "nonpayable",
      "type": "constructor"
    },
    {
      "inputs": [],
      "name": "amount",
      "outputs": [
        {
          "internalType": "uint256",
          "name": "",
          "type": "uint256"
        }
      ],
      "stateMutability": "view",
      "type": "function"
    },
    {
      "inputs": [
        {
          "internalType": "address",
          "name": "",
          "type": "address"
        },
        {
          "internalType": "address",
          "name": "",
          "type": "address"
        },
        {
          "internalType": "uint256",
          "name": "",
          "type": "uint256"
        },
        {
          "internalType": "bool",
          "name": "",
          "type": "bool"
        }
      ],
      "name": "claim",
      "outputs": [
        {
          "internalType": "uint256",
          "name": "_rewardAmount",
          "type": "uint256"
        }
      ],
      "stateMutability": "nonpayable",
      "type": "function"
    }
  ],
  "bytecode": "0x608060405260008055348015601357600080fd5b506040516101643803806101648339810160408190526030916037565b600055604f565b600060208284031215604857600080fd5b5051919050565b6101068061005e6000396000f3fe6080604052348015600f57600080fd5b506004361060325760003560e01c8063aa8c217c146037578063b2c12192146051575b600080fd5b603f60005481565b60405190815260200160405180910390f35b603f605c3660046082565b600054949350505050565b80356001600160a01b0381168114607d57600080fd5b919050565b60008060008060808587031215609757600080fd5b609e856067565b935060aa602086016067565b9250604085013591506060850135801515811460c557600080fd5b93969295509093505056fea2646970667358221220f88c9842f56bdcfab3586dc48f2eff2259d9b98ed08f116d45ce5af45adcdf8c64736f6c634300081b0033",
  "linkReferences": {},
  "deployedLinkReferences": {}
}