{
  "_format": "hh-sol-artifact-1",
  "contractName": "MaliciousDistributionToDelegators",
  "sourceName": "contracts/assetManager/mock/MaliciousDistributionToDelegators.sol",
  "abi": [
    {
      "inputs": [
        {
          "internalType": "uint256",
          "name": "_claim",
          "type": "uint256"
        }
      ],
      "stateMutability": "nonpayable",
      "type": "constructor"
    },
    {
      "inputs": [],
      "name": "amount",
      "outputs": [
        {
          "internalType": "uint256",
          "name": "",
          "type": "uint256"
        }
      ],
      "stateMutability": "view",
      "type": "function"
    },
    {
      "inputs": [
        {
          "internalType": "address",
          "name": "",
          "type": "address"
        },
        {
          "internalType": "address",
          "name": "",
          "type": "address"
        },
        {
          "internalType": "uint256",
          "name": "",
          "type": "uint256"
        },
        {
          "internalType": "bool",
          "name": "",
          "type": "bool"
        }
      ],
      "name": "claim",
      "outputs": [
        {
          "internalType": "uint256",
          "name": "_rewardAmount",
          "type": "uint256"
        }
      ],
      "stateMutability": "nonpayable",
      "type": "function"
    }
  ],
  "bytecode": "0x60806040526000805534801561001457600080fd5b506040516101693803806101698339810160408190526100339161003b565b600055610054565b60006020828403121561004d57600080fd5b5051919050565b610106806100636000396000f3fe6080604052348015600f57600080fd5b506004361060325760003560e01c8063aa8c217c146037578063b2c12192146051575b600080fd5b603f60005481565b60405190815260200160405180910390f35b603f605c3660046082565b600054949350505050565b80356001600160a01b0381168114607d57600080fd5b919050565b60008060008060808587031215609757600080fd5b609e856067565b935060aa602086016067565b9250604085013591506060850135801515811460c557600080fd5b93969295509093505056fea264697066735822122082cc05e96330c9b407d4fc22bbe20e65deea29a537efe224f2b83c27771a046364736f6c63430008170033",
  "linkReferences": {},
  "deployedLinkReferences": {}
}