{
  "_format": "hh-sol-artifact-1",
  "contractName": "AgentOwnerRegistry",
  "sourceName": "contracts/assetManager/implementation/AgentOwnerRegistry.sol",
  "abi": [
    {
      "inputs": [
        {
          "internalType": "contract IGovernanceSettings",
          "name": "_governanceSettings",
          "type": "address"
        },
        {
          "internalType": "address",
          "name": "_initialGovernance",
          "type": "address"
        },
        {
          "internalType": "bool",
          "name": "_supportRevoke",
          "type": "bool"
        }
      ],
      "stateMutability": "nonpayable",
      "type": "constructor"
    },
    {
      "anonymous": false,
      "inputs": [
        {
          "indexed": true,
          "internalType": "address",
          "name": "managementAddress",
          "type": "address"
        },
        {
          "indexed": false,
          "internalType": "string",
          "name": "name",
          "type": "string"
        },
        {
          "indexed": false,
          "internalType": "string",
          "name": "description",
          "type": "string"
        },
        {
          "indexed": false,
          "internalType": "string",
          "name": "iconUrl",
          "type": "string"
        },
        {
          "indexed": false,
          "internalType": "string",
          "name": "termsOfUseUrl",
          "type": "string"
        }
      ],
      "name": "AgentDataChanged",
      "type": "event"
    },
    {
      "anonymous": false,
      "inputs": [
        {
          "indexed": false,
          "internalType": "bytes",
          "name": "encodedCall",
          "type": "bytes"
        },
        {
          "indexed": false,
          "internalType": "bytes32",
          "name": "encodedCallHash",
          "type": "bytes32"
        },
        {
          "indexed": false,
          "internalType": "uint256",
          "name": "allowedAfterTimestamp",
          "type": "uint256"
        }
      ],
      "name": "GovernanceCallTimelocked",
      "type": "event"
    },
    {
      "anonymous": false,
      "inputs": [
        {
          "indexed": false,
          "internalType": "address",
          "name": "initialGovernance",
          "type": "address"
        }
      ],
      "name": "GovernanceInitialised",
      "type": "event"
    },
    {
      "anonymous": false,
      "inputs": [
        {
          "indexed": false,
          "internalType": "address",
          "name": "governanceSettings",
          "type": "address"
        }
      ],
      "name": "GovernedProductionModeEntered",
      "type": "event"
    },
    {
      "anonymous": false,
      "inputs": [
        {
          "indexed": false,
          "internalType": "address",
          "name": "manager",
          "type": "address"
        }
      ],
      "name": "ManagerChanged",
      "type": "event"
    },
    {
      "anonymous": false,
      "inputs": [
        {
          "indexed": false,
          "internalType": "bytes32",
          "name": "encodedCallHash",
          "type": "bytes32"
        }
      ],
      "name": "TimelockedGovernanceCallCanceled",
      "type": "event"
    },
    {
      "anonymous": false,
      "inputs": [
        {
          "indexed": false,
          "internalType": "bytes32",
          "name": "encodedCallHash",
          "type": "bytes32"
        }
      ],
      "name": "TimelockedGovernanceCallExecuted",
      "type": "event"
    },
    {
      "anonymous": false,
      "inputs": [
        {
          "indexed": false,
          "internalType": "address",
          "name": "value",
          "type": "address"
        }
      ],
      "name": "Whitelisted",
      "type": "event"
    },
    {
      "anonymous": false,
      "inputs": [
        {
          "indexed": false,
          "internalType": "address",
          "name": "value",
          "type": "address"
        }
      ],
      "name": "WhitelistingRevoked",
      "type": "event"
    },
    {
      "anonymous": false,
      "inputs": [
        {
          "indexed": true,
          "internalType": "address",
          "name": "managementAddress",
          "type": "address"
        },
        {
          "indexed": false,
          "internalType": "address",
          "name": "prevWorkAddress",
          "type": "address"
        },
        {
          "indexed": false,
          "internalType": "address",
          "name": "workAddress",
          "type": "address"
        }
      ],
      "name": "WorkAddressChanged",
      "type": "event"
    },
    {
      "inputs": [
        {
          "internalType": "address",
          "name": "_address",
          "type": "address"
        }
      ],
      "name": "addAddressToWhitelist",
      "outputs": [],
      "stateMutability": "nonpayable",
      "type": "function"
    },
    {
      "inputs": [
        {
          "internalType": "address[]",
          "name": "_addresses",
          "type": "address[]"
        }
      ],
      "name": "addAddressesToWhitelist",
      "outputs": [],
      "stateMutability": "nonpayable",
      "type": "function"
    },
    {
      "inputs": [],
      "name": "allowAll",
      "outputs": [
        {
          "internalType": "bool",
          "name": "",
          "type": "bool"
        }
      ],
      "stateMutability": "view",
      "type": "function"
    },
    {
      "inputs": [
        {
          "internalType": "bytes",
          "name": "_encodedCall",
          "type": "bytes"
        }
      ],
      "name": "cancelGovernanceCall",
      "outputs": [],
      "stateMutability": "nonpayable",
      "type": "function"
    },
    {
      "inputs": [
        {
          "internalType": "bytes",
          "name": "_encodedCall",
          "type": "bytes"
        }
      ],
      "name": "executeGovernanceCall",
      "outputs": [],
      "stateMutability": "nonpayable",
      "type": "function"
    },
    {
      "inputs": [
        {
          "internalType": "address",
          "name": "_managementAddress",
          "type": "address"
        }
      ],
      "name": "getAgentDescription",
      "outputs": [
        {
          "internalType": "string",
          "name": "",
          "type": "string"
        }
      ],
      "stateMutability": "view",
      "type": "function"
    },
    {
      "inputs": [
        {
          "internalType": "address",
          "name": "_managementAddress",
          "type": "address"
        }
      ],
      "name": "getAgentIconUrl",
      "outputs": [
        {
          "internalType": "string",
          "name": "",
          "type": "string"
        }
      ],
      "stateMutability": "view",
      "type": "function"
    },
    {
      "inputs": [
        {
          "internalType": "address",
          "name": "_managementAddress",
          "type": "address"
        }
      ],
      "name": "getAgentName",
      "outputs": [
        {
          "internalType": "string",
          "name": "",
          "type": "string"
        }
      ],
      "stateMutability": "view",
      "type": "function"
    },
    {
      "inputs": [
        {
          "internalType": "address",
          "name": "_managementAddress",
          "type": "address"
        }
      ],
      "name": "getAgentTermsOfUseUrl",
      "outputs": [
        {
          "internalType": "string",
          "name": "",
          "type": "string"
        }
      ],
      "stateMutability": "view",
      "type": "function"
    },
    {
      "inputs": [
        {
          "internalType": "address",
          "name": "_workAddress",
          "type": "address"
        }
      ],
      "name": "getManagementAddress",
      "outputs": [
        {
          "internalType": "address",
          "name": "",
          "type": "address"
        }
      ],
      "stateMutability": "view",
      "type": "function"
    },
    {
      "inputs": [
        {
          "internalType": "address",
          "name": "_managementAddress",
          "type": "address"
        }
      ],
      "name": "getWorkAddress",
      "outputs": [
        {
          "internalType": "address",
          "name": "",
          "type": "address"
        }
      ],
      "stateMutability": "view",
      "type": "function"
    },
    {
      "inputs": [],
      "name": "governance",
      "outputs": [
        {
          "internalType": "address",
          "name": "",
          "type": "address"
        }
      ],
      "stateMutability": "view",
      "type": "function"
    },
    {
      "inputs": [],
      "name": "governanceSettings",
      "outputs": [
        {
          "internalType": "contract IGovernanceSettings",
          "name": "",
          "type": "address"
        }
      ],
      "stateMutability": "view",
      "type": "function"
    },
    {
      "inputs": [
        {
          "internalType": "address",
          "name": "_address",
          "type": "address"
        }
      ],
      "name": "isExecutor",
      "outputs": [
        {
          "internalType": "bool",
          "name": "",
          "type": "bool"
        }
      ],
      "stateMutability": "view",
      "type": "function"
    },
    {
      "inputs": [
        {
          "internalType": "address",
          "name": "_address",
          "type": "address"
        }
      ],
      "name": "isWhitelisted",
      "outputs": [
        {
          "internalType": "bool",
          "name": "",
          "type": "bool"
        }
      ],
      "stateMutability": "view",
      "type": "function"
    },
    {
      "inputs": [],
      "name": "manager",
      "outputs": [
        {
          "internalType": "address",
          "name": "",
          "type": "address"
        }
      ],
      "stateMutability": "view",
      "type": "function"
    },
    {
      "inputs": [],
      "name": "productionMode",
      "outputs": [
        {
          "internalType": "bool",
          "name": "",
          "type": "bool"
        }
      ],
      "stateMutability": "view",
      "type": "function"
    },
    {
      "inputs": [
        {
          "internalType": "address",
          "name": "_address",
          "type": "address"
        }
      ],
      "name": "revokeAddress",
      "outputs": [],
      "stateMutability": "nonpayable",
      "type": "function"
    },
    {
      "inputs": [
        {
          "internalType": "address",
          "name": "_managementAddress",
          "type": "address"
        },
        {
          "internalType": "string",
          "name": "_description",
          "type": "string"
        }
      ],
      "name": "setAgentDescription",
      "outputs": [],
      "stateMutability": "nonpayable",
      "type": "function"
    },
    {
      "inputs": [
        {
          "internalType": "address",
          "name": "_managementAddress",
          "type": "address"
        },
        {
          "internalType": "string",
          "name": "_iconUrl",
          "type": "string"
        }
      ],
      "name": "setAgentIconUrl",
      "outputs": [],
      "stateMutability": "nonpayable",
      "type": "function"
    },
    {
      "inputs": [
        {
          "internalType": "address",
          "name": "_managementAddress",
          "type": "address"
        },
        {
          "internalType": "string",
          "name": "_name",
          "type": "string"
        }
      ],
      "name": "setAgentName",
      "outputs": [],
      "stateMutability": "nonpayable",
      "type": "function"
    },
    {
      "inputs": [
        {
          "internalType": "address",
          "name": "_managementAddress",
          "type": "address"
        },
        {
          "internalType": "string",
          "name": "_touUrl",
          "type": "string"
        }
      ],
      "name": "setAgentTermsOfUseUrl",
      "outputs": [],
      "stateMutability": "nonpayable",
      "type": "function"
    },
    {
      "inputs": [
        {
          "internalType": "bool",
          "name": "_allowAll",
          "type": "bool"
        }
      ],
      "name": "setAllowAll",
      "outputs": [],
      "stateMutability": "nonpayable",
      "type": "function"
    },
    {
      "inputs": [
        {
          "internalType": "address",
          "name": "_manager",
          "type": "address"
        }
      ],
      "name": "setManager",
      "outputs": [],
      "stateMutability": "nonpayable",
      "type": "function"
    },
    {
      "inputs": [
        {
          "internalType": "address",
          "name": "_ownerWorkAddress",
          "type": "address"
        }
      ],
      "name": "setWorkAddress",
      "outputs": [],
      "stateMutability": "nonpayable",
      "type": "function"
    },
    {
      "inputs": [
        {
          "internalType": "bytes4",
          "name": "_interfaceId",
          "type": "bytes4"
        }
      ],
      "name": "supportsInterface",
      "outputs": [
        {
          "internalType": "bool",
          "name": "",
          "type": "bool"
        }
      ],
      "stateMutability": "pure",
      "type": "function"
    },
    {
      "inputs": [],
      "name": "supportsRevoke",
      "outputs": [
        {
          "internalType": "bool",
          "name": "",
          "type": "bool"
        }
      ],
      "stateMutability": "view",
      "type": "function"
    },
    {
      "inputs": [],
      "name": "switchToProductionMode",
      "outputs": [],
      "stateMutability": "nonpayable",
      "type": "function"
    },
    {
      "inputs": [
        {
          "internalType": "address",
          "name": "_managementAddress",
          "type": "address"
        },
        {
          "internalType": "string",
          "name": "_name",
          "type": "string"
        },
        {
          "internalType": "string",
          "name": "_description",
          "type": "string"
        },
        {
          "internalType": "string",
          "name": "_iconUrl",
          "type": "string"
        },
        {
          "internalType": "string",
          "name": "_touUrl",
          "type": "string"
        }
      ],
      "name": "whitelistAndDescribeAgent",
      "outputs": [],
      "stateMutability": "nonpayable",
      "type": "function"
    }
  ],
  "bytecode": "0x60a06040523480156200001157600080fd5b506040516200201938038062002019833981016040819052620000349162000214565b828282828262000045828262000062565b5050151560805250506000805460ff19169055506200026c915050565b7f2aa47ee5db910f3b2a06970c443249cc77dbd9f96100cfebc1775ab7fb1d18248054600160a01b900460ff1615620000e25760405162461bcd60e51b815260206004820152601460248201527f696e697469616c6973656420213d2066616c736500000000000000000000000060448201526064015b60405180910390fd5b6001600160a01b0383166200013a5760405162461bcd60e51b815260206004820152601860248201527f676f7665726e616e63652073657474696e6773207a65726f00000000000000006044820152606401620000d9565b6001600160a01b038216620001855760405162461bcd60e51b815260206004820152601060248201526f5f676f7665726e616e6365207a65726f60801b6044820152606401620000d9565b80546001600160a01b038481166001600160a81b031990921691909117600160a01b1782556001820180549184166001600160a01b0319909216821790556040519081527f9789733827840833afc031fb2ef9ab6894271f77bad2085687cf4ae5c7bee4db9060200160405180910390a1505050565b6001600160a01b03811681146200021157600080fd5b50565b6000806000606084860312156200022a57600080fd5b83516200023781620001fb565b60208501519093506200024a81620001fb565b604085015190925080151581146200026157600080fd5b809150509250925092565b608051611d8a6200028f6000396000818161026d01526107d40152611d8a6000f3fe608060405234801561001057600080fd5b50600436106101cf5760003560e01c806378d2ac2911610104578063d0ebdbe7116100a2578063ec8fbdb011610071578063ec8fbdb014610423578063f5a9838314610436578063f72eaade1461043e578063fc31a2e81461045157600080fd5b8063d0ebdbe7146103cb578063debfda30146103de578063e17f212e146103f1578063e2ec6ec31461041057600080fd5b80638c30defc116100de5780638c30defc1461037f5780638d28b5e914610392578063baddba2c146103a5578063c6062392146103b857600080fd5b806378d2ac29146103465780637b9417c8146103595780637f32be9e1461036c57600080fd5b8063481c6a75116101715780635553b1fd1161014b5780635553b1fd146102ed5780635aa6e6751461030d57806362354e0314610315578063689baff01461033357600080fd5b8063481c6a75146102b55780634d7d9c01146102cd5780634ee643a5146102e057600080fd5b806320c5f99d116101ad57806320c5f99d146102555780632583e7f714610268578063317a7aec1461028f5780633af32abf146102a257600080fd5b806301ffc9a7146101d4578063073e824e146101fc57806316fc2f6d14610240575b600080fd5b6101e76101e23660046115d9565b61047d565b60405190151581526020015b60405180910390f35b61022861020a366004611618565b6001600160a01b039081166000908152600260205260409020541690565b6040516001600160a01b0390911681526020016101f3565b61025361024e366004611635565b6104a9565b005b610253610263366004611635565b610591565b6101e77f000000000000000000000000000000000000000000000000000000000000000081565b61025361029d366004611618565b610780565b6101e76102b0366004611618565b610842565b6000546102289061010090046001600160a01b031681565b6102536102db3660046116b5565b610870565b6000546101e79060ff1681565b6103006102fb366004611618565b6108a5565b6040516101f39190611718565b610228610951565b600080516020611d35833981519152546001600160a01b0316610228565b610253610341366004611618565b6109fa565b610300610354366004611618565b610b9f565b610253610367366004611618565b610bc6565b61025361037a3660046117e2565b610c21565b61025361038d3660046118a2565b610c90565b6103006103a0366004611618565b610d12565b6102536103b33660046118a2565b610d39565b6103006103c6366004611618565b610dad565b6102536103d9366004611618565b610dd4565b6101e76103ec366004611618565b610e46565b600080516020611d3583398151915254600160a81b900460ff166101e7565b61025361041e3660046118f2565b610ee0565b6102536104313660046118a2565b610f68565b610253610fdc565b61025361044c3660046118a2565b6110aa565b61022861045f366004611618565b6001600160a01b039081166000908152600360205260409020541690565b60006104888261111e565b806104a357506001600160e01b03198216639da0ab0960e01b145b92915050565b6104b1611154565b604051600080516020611d35833981519152906000906104d490859085906119a4565b60405180910390209050816002016000828152602001908152602001600020546000036105485760405162461bcd60e51b815260206004820152601a60248201527f74696d656c6f636b3a20696e76616c69642073656c6563746f7200000000000060448201526064015b60405180910390fd5b6040518181527f69b058d6225c01c1f2a25801ca5b05705fa2e9118e93d518390ba804398c87b19060200160405180910390a16000908152600290910160205260408120555050565b600080516020611d358339815191526105a933610e46565b6105e55760405162461bcd60e51b815260206004820152600d60248201526c37b7363c9032bc32b1baba37b960991b604482015260640161053f565b600083836040516105f79291906119a4565b604080519182900390912060008181526002850160205291822054909250908190036106655760405162461bcd60e51b815260206004820152601a60248201527f74696d656c6f636b3a20696e76616c69642073656c6563746f72000000000000604482015260640161053f565b804210156106b55760405162461bcd60e51b815260206004820152601960248201527f74696d656c6f636b3a206e6f7420616c6c6f7765642079657400000000000000604482015260640161053f565b6000828152600284016020526040808220829055845460ff60b01b1916600160b01b1785555130906106ea90889088906119a4565b6000604051808303816000865af19150503d8060008114610727576040519150601f19603f3d011682016040523d82523d6000602084013e61072c565b606091505b5050845460ff60b01b191685556040518481529091507fec1225e5a8a8acb91e03ce648c683c74f5d152a775b9715980999441d714c44f9060200160405180910390a1610778816111b0565b505050505050565b60005461010090046001600160a01b03163314806107b657506107a1610951565b6001600160a01b0316336001600160a01b0316145b6107d25760405162461bcd60e51b815260040161053f906119b4565b7f00000000000000000000000000000000000000000000000000000000000000006108365760405162461bcd60e51b81526020600482015260146024820152731c995d9bdad9481b9bdd081cdd5c1c1bdc9d195960621b604482015260640161053f565b61083f816111cd565b50565b6001600160a01b03811660009081526001602052604081205460ff16806104a3575060005460ff1692915050565b610878611241565b1561089857610885611277565b6000805482151560ff1990911617905550565b61083f60003660006112bb565b6001600160a01b03811660009081526007602052604090208054606091906108cc906119eb565b80601f01602080910402602001604051908101604052809291908181526020018280546108f8906119eb565b80156109455780601f1061091a57610100808354040283529160200191610945565b820191906000526020600020905b81548152906001019060200180831161092857829003601f168201915b50505050509050919050565b600080516020611d35833981519152805460009190600160a81b900460ff166109875760018101546001600160a01b03166109f4565b805460408051631cc9492560e21b815290516001600160a01b03909216916373252494916004808201926020929091908290030181865afa1580156109d0573d6000803e3d6000fd5b505050506040513d601f19601f820116820180604052508101906109f49190611a25565b91505090565b610a0333610842565b610a475760405162461bcd60e51b81526020600482015260156024820152741859d95b9d081b9bdd081dda1a5d195b1a5cdd1959605a1b604482015260640161053f565b6001600160a01b0381161580610a7557506001600160a01b0381811660009081526002602052604090205416155b610ab75760405162461bcd60e51b8152602060048201526013602482015272776f726b206164647265737320696e2075736560681b604482015260640161053f565b336000908152600360205260409020546001600160a01b03168015610afd576001600160a01b038116600090815260026020526040902080546001600160a01b03191690555b33600090815260036020526040902080546001600160a01b0319166001600160a01b03841690811790915515610b56576001600160a01b038216600090815260026020526040902080546001600160a01b031916331790555b604080516001600160a01b0383811682528416602082015233917f174ce844d7e28d695e043ecb1f4f404b2b32b9d554236756bbbf09c730cfaf20910160405180910390a25050565b6001600160a01b03811660009081526005602052604090208054606091906108cc906119eb565b60005461010090046001600160a01b0316331480610bfc5750610be7610951565b6001600160a01b0316336001600160a01b0316145b610c185760405162461bcd60e51b815260040161053f906119b4565b61083f816113d2565b60005461010090046001600160a01b0316331480610c575750610c42610951565b6001600160a01b0316336001600160a01b0316145b610c735760405162461bcd60e51b815260040161053f906119b4565b610c7c856113d2565b610c898585858585611490565b5050505050565b60005461010090046001600160a01b0316331480610cc65750610cb1610951565b6001600160a01b0316336001600160a01b0316145b610ce25760405162461bcd60e51b815260040161053f906119b4565b6001600160a01b0382166000908152600560205260409020610d048282611a8f565b50610d0e8261156a565b5050565b6001600160a01b03811660009081526006602052604090208054606091906108cc906119eb565b60005461010090046001600160a01b0316331480610d6f5750610d5a610951565b6001600160a01b0316336001600160a01b0316145b610d8b5760405162461bcd60e51b815260040161053f906119b4565b6001600160a01b0382166000908152600660205260409020610d048282611a8f565b6001600160a01b03811660009081526004602052604090208054606091906108cc906119eb565b610ddc611241565b1561089857610de9611277565b60008054610100600160a81b0319166101006001600160a01b038416908102919091179091556040519081527f198db6e425fb8aafd1823c6ca50be2d51e5764571a5ae0f0f21c6812e45def0b906020015b60405180910390a150565b600080516020611d35833981519152805460009190600160a01b900460ff168015610ed957508054604051630debfda360e41b81526001600160a01b0385811660048301529091169063debfda3090602401602060405180830381865afa158015610eb5573d6000803e3d6000fd5b505050506040513d601f19601f82011682018060405250810190610ed99190611b4f565b9392505050565b60005461010090046001600160a01b0316331480610f165750610f01610951565b6001600160a01b0316336001600160a01b0316145b610f325760405162461bcd60e51b815260040161053f906119b4565b60005b8151811015610d0e57610f60828281518110610f5357610f53611b6c565b60200260200101516113d2565b600101610f35565b60005461010090046001600160a01b0316331480610f9e5750610f89610951565b6001600160a01b0316336001600160a01b0316145b610fba5760405162461bcd60e51b815260040161053f906119b4565b6001600160a01b0382166000908152600760205260409020610d048282611a8f565b610fe4611154565b600080516020611d358339815191528054600160a81b900460ff161561104c5760405162461bcd60e51b815260206004820152601a60248201527f616c726561647920696e2070726f64756374696f6e206d6f6465000000000000604482015260640161053f565b6001810180546001600160a01b03191690558054600160a81b60ff60a81b1982161782556040516001600160a01b0390911681527f83af113638b5422f9e977cebc0aaf0eaf2188eb9a8baae7f9d46c42b33a1560c90602001610e3b565b60005461010090046001600160a01b03163314806110e057506110cb610951565b6001600160a01b0316336001600160a01b0316145b6110fc5760405162461bcd60e51b815260040161053f906119b4565b6001600160a01b0382166000908152600460205260409020610d048282611a8f565b60006001600160e01b031982166301ffc9a760e01b14806104a357506001600160e01b03198216633af32abf60e01b1492915050565b61115c610951565b6001600160a01b0316336001600160a01b0316146111ae5760405162461bcd60e51b815260206004820152600f60248201526e6f6e6c7920676f7665726e616e636560881b604482015260640161053f565b565b3d604051818101604052816000823e82156111c9578181f35b8181fd5b6001600160a01b03811660009081526001602052604090205460ff166111f05750565b6001600160a01b038116600081815260016020908152604091829020805460ff1916905590519182527fe01091cddc91f5497c62b6d5b4ae6514036739c2528f0463485236065e1eba4a9101610e3b565b600080516020611d35833981519152805460009190600160b01b900460ff16806109f4575054600160a81b900460ff1615919050565b600080516020611d358339815191528054600160b01b900460ff16156112b3573330146112a6576112a6611b82565b805460ff60b01b19169055565b61083f611154565b600080516020611d358339815191526112d2611154565b600084846040516112e49291906119a4565b604080519182900382208454636221a54b60e01b845291519093506000926001600160a01b0390921691636221a54b9160048083019260209291908290030181865afa158015611338573d6000803e3d6000fd5b505050506040513d601f19601f8201168201806040525081019061135c9190611b98565b9050838110156113695750825b60006113758242611bb1565b600084815260028601602052604090819020829055519091507f8c02104dfc280f713854f25297de671710c544c58de69dbde8fb66974ce1ab9e906113c1908990899087908690611bd2565b60405180910390a150505050505050565b6001600160a01b0381166114175760405162461bcd60e51b815260206004820152600c60248201526b61646472657373207a65726f60a01b604482015260640161053f565b6001600160a01b03811660009081526001602052604090205460ff161561143b5750565b6001600160a01b038116600081815260016020818152604092839020805460ff191690921790915590519182527faab7954e9d246b167ef88aeddad35209ca2489d95a8aeb59e288d9b19fae5a549101610e3b565b6001600160a01b03851660009081526004602052604090206114b28582611a8f565b506001600160a01b03851660009081526005602052604090206114d58482611a8f565b506001600160a01b03851660009081526006602052604090206114f88382611a8f565b506001600160a01b038516600090815260076020526040902061151b8282611a8f565b50846001600160a01b03167f37ba00dd71bd9df021c3096e44f644e4ab3fa32ac083e02e28ba21d3ec159fe18585858560405161155b9493929190611c12565b60405180910390a25050505050565b6001600160a01b0381166000818152600460209081526040808320600583528184206006845282852060079094529382902091517f37ba00dd71bd9df021c3096e44f644e4ab3fa32ac083e02e28ba21d3ec159fe1946115ce949293909291611ce7565b60405180910390a250565b6000602082840312156115eb57600080fd5b81356001600160e01b031981168114610ed957600080fd5b6001600160a01b038116811461083f57600080fd5b60006020828403121561162a57600080fd5b8135610ed981611603565b6000806020838503121561164857600080fd5b823567ffffffffffffffff8082111561166057600080fd5b818501915085601f83011261167457600080fd5b81358181111561168357600080fd5b86602082850101111561169557600080fd5b60209290920196919550909350505050565b801515811461083f57600080fd5b6000602082840312156116c757600080fd5b8135610ed9816116a7565b6000815180845260005b818110156116f8576020818501810151868301820152016116dc565b506000602082860101526020601f19601f83011685010191505092915050565b602081526000610ed960208301846116d2565b634e487b7160e01b600052604160045260246000fd5b604051601f8201601f1916810167ffffffffffffffff8111828210171561176a5761176a61172b565b604052919050565b600082601f83011261178357600080fd5b813567ffffffffffffffff81111561179d5761179d61172b565b6117b0601f8201601f1916602001611741565b8181528460208386010111156117c557600080fd5b816020850160208301376000918101602001919091529392505050565b600080600080600060a086880312156117fa57600080fd5b853561180581611603565b9450602086013567ffffffffffffffff8082111561182257600080fd5b61182e89838a01611772565b9550604088013591508082111561184457600080fd5b61185089838a01611772565b9450606088013591508082111561186657600080fd5b61187289838a01611772565b9350608088013591508082111561188857600080fd5b5061189588828901611772565b9150509295509295909350565b600080604083850312156118b557600080fd5b82356118c081611603565b9150602083013567ffffffffffffffff8111156118dc57600080fd5b6118e885828601611772565b9150509250929050565b6000602080838503121561190557600080fd5b823567ffffffffffffffff8082111561191d57600080fd5b818501915085601f83011261193157600080fd5b8135818111156119435761194361172b565b8060051b9150611954848301611741565b818152918301840191848101908884111561196e57600080fd5b938501935b83851015611998578435925061198883611603565b8282529385019390850190611973565b98975050505050505050565b8183823760009101908152919050565b6020808252601a908201527f6f6e6c7920676f7665726e616e6365206f72206d616e61676572000000000000604082015260600190565b600181811c908216806119ff57607f821691505b602082108103611a1f57634e487b7160e01b600052602260045260246000fd5b50919050565b600060208284031215611a3757600080fd5b8151610ed981611603565b601f821115611a8a576000816000526020600020601f850160051c81016020861015611a6b5750805b601f850160051c820191505b8181101561077857828155600101611a77565b505050565b815167ffffffffffffffff811115611aa957611aa961172b565b611abd81611ab784546119eb565b84611a42565b602080601f831160018114611af25760008415611ada5750858301515b600019600386901b1c1916600185901b178555610778565b600085815260208120601f198616915b82811015611b2157888601518255948401946001909101908401611b02565b5085821015611b3f5787850151600019600388901b60f8161c191681555b5050505050600190811b01905550565b600060208284031215611b6157600080fd5b8151610ed9816116a7565b634e487b7160e01b600052603260045260246000fd5b634e487b7160e01b600052600160045260246000fd5b600060208284031215611baa57600080fd5b5051919050565b808201808211156104a357634e487b7160e01b600052601160045260246000fd5b606081528360608201528385608083013760006080858301015260006080601f19601f870116830101905083602083015282604083015295945050505050565b608081526000611c2560808301876116d2565b8281036020840152611c3781876116d2565b90508281036040840152611c4b81866116d2565b90508281036060840152611c5f81856116d2565b979650505050505050565b60008154611c77816119eb565b808552602060018381168015611c945760018114611cae57611cdc565b60ff1985168884015283151560051b880183019550611cdc565b866000528260002060005b85811015611cd45781548a8201860152908301908401611cb9565b890184019650505b505050505092915050565b608081526000611cfa6080830187611c6a565b8281036020840152611d0c8187611c6a565b90508281036040840152611d208186611c6a565b90508281036060840152611c5f8185611c6a56fe2aa47ee5db910f3b2a06970c443249cc77dbd9f96100cfebc1775ab7fb1d1824a2646970667358221220cb5b622288ec5a36322be6052a4c1bcf20e41cf67a3c0b101038f409ac71ea4464736f6c63430008170033",
  "linkReferences": {},
  "deployedLinkReferences": {}
}