{
  "_format": "hh-sol-artifact-1",
  "contractName": "AgentSettingsFacet",
  "sourceName": "contracts/assetManager/facets/AgentSettingsFacet.sol",
  "abi": [
    {
      "anonymous": false,
      "inputs": [
        {
          "indexed": true,
          "internalType": "address",
          "name": "agentVault",
          "type": "address"
        },
        {
          "indexed": false,
          "internalType": "string",
          "name": "name",
          "type": "string"
        },
        {
          "indexed": false,
          "internalType": "uint256",
          "name": "value",
          "type": "uint256"
        },
        {
          "indexed": false,
          "internalType": "uint256",
          "name": "validAt",
          "type": "uint256"
        }
      ],
      "name": "AgentSettingChangeAnnounced",
      "type": "event"
    },
    {
      "anonymous": false,
      "inputs": [
        {
          "indexed": true,
          "internalType": "address",
          "name": "agentVault",
          "type": "address"
        },
        {
          "indexed": false,
          "internalType": "string",
          "name": "name",
          "type": "string"
        },
        {
          "indexed": false,
          "internalType": "uint256",
          "name": "value",
          "type": "uint256"
        }
      ],
      "name": "AgentSettingChanged",
      "type": "event"
    },
    {
      "inputs": [
        {
          "internalType": "address",
          "name": "_agentVault",
          "type": "address"
        },
        {
          "internalType": "string",
          "name": "_name",
          "type": "string"
        },
        {
          "internalType": "uint256",
          "name": "_value",
          "type": "uint256"
        }
      ],
      "name": "announceAgentSettingUpdate",
      "outputs": [
        {
          "internalType": "uint256",
          "name": "_updateAllowedAt",
          "type": "uint256"
        }
      ],
      "stateMutability": "nonpayable",
      "type": "function"
    },
    {
      "inputs": [
        {
          "internalType": "address",
          "name": "_agentVault",
          "type": "address"
        },
        {
          "internalType": "string",
          "name": "_name",
          "type": "string"
        }
      ],
      "name": "executeAgentSettingUpdate",
      "outputs": [],
      "stateMutability": "nonpayable",
      "type": "function"
    },
    {
      "inputs": [
        {
          "internalType": "address",
          "name": "_agentVault",
          "type": "address"
        },
        {
          "internalType": "string",
          "name": "_name",
          "type": "string"
        }
      ],
      "name": "getAgentSetting",
      "outputs": [
        {
          "internalType": "uint256",
          "name": "_value",
          "type": "uint256"
        }
      ],
      "stateMutability": "view",
      "type": "function"
    }
  ],
  "bytecode": "0x6080604052348015600f57600080fd5b506115718061001f6000396000f3fe608060405234801561001057600080fd5b50600436106100415760003560e01c80630ffb0e8614610046578063b74cb9231461006b578063e7732f911461007e575b600080fd5b610059610054366004611210565b610093565b60405190815260200160405180910390f35b610059610079366004611268565b6101a3565b61009161008c366004611268565b610384565b005b60008361009f816105be565b60006100aa86610618565b905060006100b7866106bf565b90506100c2816107ca565b6100d5906001600160401b0316426112cd565b935060405180604001604052806100eb876108c5565b6001600160801b0316815260200161010286610932565b6001600160401b039081169091526000838152600b85016020908152604091829020845181549590920151909316600160801b026001600160c01b03199094166001600160801b0390911617929092179055516001600160a01b038816907f4d36a05405b72bb52f213501e39c8a9900eb28710aaa0b6e53e88ab243ca29659061019190899089908990611326565b60405180910390a25050509392505050565b6000806101af84610618565b905060006101bc846106bf565b905060008051602061149c83398151915281036101f05750600401546901000000000000000000900461ffff16905061037e565b60008051602061147c833981519152810361021c575060040154600160581b900461ffff16905061037e565b6000805160206114dc83398151915281036102485750600c0154600160e01b900461ffff16905061037e565b6000805160206114fc8339815191528103610276575060040154600160681b900463ffffffff16905061037e565b6000805160206114bc83398151915281036102a4575060040154600160881b900463ffffffff16905061037e565b60008051602061151c83398151915281036102d05750600a0154600160801b900461ffff16905061037e565b7f50c491cb85c5de272af4bdee937deba8bfb8efc757876ce0671faf286198be95810361037357815460408051633cfc747d60e01b815290516001600160a01b0390921691633cfc747d916004808201926020929091908290030181865afa158015610340573d6000803e3d6000fd5b505050506040513d601f19601f82011682018060405250810190610364919061134b565b63ffffffff169250505061037e565b61037b611371565b50505b92915050565b8161038e816105be565b600061039984610618565b905060006103a6846106bf565b6000818152600b840160205260408120805492935091600160801b90046001600160401b031690036104135760405162461bcd60e51b81526020600482015260116024820152706e6f2070656e64696e672075706461746560781b60448201526064015b60405180910390fd5b805442600160801b9091046001600160401b0316111561046c5760405162461bcd60e51b81526020600482015260146024820152731d5c19185d19481b9bdd081d985b1a59081e595d60621b604482015260640161040a565b7f4f24f5c433db0962dac0d2c8b84197a6e6c7cc4e5d9ebe1916a1b6193da2f34d5481547f4f24f5c433db0962dac0d2c8b84197a6e6c7cc4e5d9ebe1916a1b6193da2f33a9142916104d891600160c01b90046001600160401b0390811691600160801b900416611387565b6001600160401b0316101561052f5760405162461bcd60e51b815260206004820152601860248201527f757064617465206e6f742076616c696420616e796d6f72650000000000000000604482015260640161040a565b815461054790859085906001600160801b031661099a565b81546040516001600160a01b038916917f0c8289ce774814e3ace93acb646f85019ee4146198ebb4bdc93bcdbe6465b88091610590918a916001600160801b03909116906113a6565b60405180910390a250506000908152600b9091016020526040902080546001600160c01b0319169055505050565b6105d06105ca82610618565b33610a92565b6106155760405162461bcd60e51b815260206004820152601660248201527537b7363c9030b3b2b73a103b30bab63a1037bbb732b960511b604482015260640161040a565b50565b7f5bebac0595fee029d42bb673937f5f1cb81cf8641382bc17774635de9b7d796568010000000000000000600160e01b03604083901b161880600060048084015460ff169081111561066c5761066c6113d1565b036106b95760405162461bcd60e51b815260206004820152601b60248201527f696e76616c6964206167656e74207661756c7420616464726573730000000000604482015260640161040a565b50919050565b805160208201206000908160008051602061149c8339815191528214806106f3575060008051602061147c83398151915282145b8061070b57506000805160206114dc83398151915282145b8061072357506000805160206114fc83398151915282145b8061073b57506000805160206114bc83398151915282145b80610753575060008051602061151c83398151915282145b8061077d57507f50c491cb85c5de272af4bdee937deba8bfb8efc757876ce0671faf286198be9582145b9050806107c35760405162461bcd60e51b8152602060048201526014602482015273696e76616c69642073657474696e67206e616d6560601b604482015260640161040a565b5092915050565b60007f4f24f5c433db0962dac0d2c8b84197a6e6c7cc4e5d9ebe1916a1b6193da2f33a60008051602061149c833981519152831480610816575060008051602061147c83398151915283145b8061082e57506000805160206114dc83398151915283145b80610846575060008051602061151c83398151915283145b1561085e57601301546001600160401b031692915050565b6000805160206114fc83398151915283148061088757506000805160206114bc83398151915283145b156108ab57601301546801000000000000000090046001600160401b031692915050565b60130154600160801b90046001600160401b031692915050565b60006001600160801b0382111561092e5760405162461bcd60e51b815260206004820152602760248201527f53616665436173743a2076616c756520646f65736e27742066697420696e20316044820152663238206269747360c81b606482015260840161040a565b5090565b60006001600160401b0382111561092e5760405162461bcd60e51b815260206004820152602660248201527f53616665436173743a2076616c756520646f65736e27742066697420696e203660448201526534206269747360d01b606482015260840161040a565b60008051602061149c83398151915282036109be576109b98382610ad3565b505050565b60008051602061147c83398151915282036109dd576109b98382610b3f565b6000805160206114dc83398151915282036109fc576109b98382610b8c565b6000805160206114fc8339815191528203610a1b576109b98382610bd9565b6000805160206114bc8339815191528203610a3a576109b98382610c71565b60008051602061151c8339815191528203610a59576109b98382610d09565b7f50c491cb85c5de272af4bdee937deba8bfb8efc757876ce0671faf286198be958203610a8a576109b98382610d98565b6109b9611371565b60018201546000906001600160a01b0383811691161480610acc5750610ab783610f44565b6001600160a01b0316826001600160a01b0316145b9392505050565b612710811115610b145760405162461bcd60e51b815260206004820152600c60248201526b0cccaca40e8dede40d0d2ced60a31b604482015260640161040a565b610b1d81610fe6565b8260040160096101000a81548161ffff021916908361ffff1602179055505050565b612710811115610b615760405162461bcd60e51b815260040161040a906113e7565b610b6a81610fe6565b82600401600b6101000a81548161ffff021916908361ffff1602179055505050565b612710811115610bae5760405162461bcd60e51b815260040161040a906113e7565b610bb781610fe6565b82600c01601c6101000a81548161ffff021916908361ffff1602179055505050565b6000610be483611049565b600381015490915063ffffffff16821015610c415760405162461bcd60e51b815260206004820152601a60248201527f636f6c6c61746572616c20726174696f20746f6f20736d616c6c000000000000604482015260640161040a565b610c4a826110a8565b83600401600d6101000a81548163ffffffff021916908363ffffffff160217905550505050565b6000610c7c8361110d565b600381015490915063ffffffff16821015610cd95760405162461bcd60e51b815260206004820152601a60248201527f636f6c6c61746572616c20726174696f20746f6f20736d616c6c000000000000604482015260640161040a565b610ce2826110a8565b8360040160116101000a81548163ffffffff021916908363ffffffff160217905550505050565b612710811115610d2b5760405162461bcd60e51b815260040161040a906113e7565b612328811015610d6d5760405162461bcd60e51b815260206004820152600d60248201526c76616c756520746f6f206c6f7760981b604482015260640161040a565b610d7681610fe6565b82600a0160106101000a81548161ffff021916908361ffff1602179055505050565b6000610da38361110d565b600381015490915063ffffffff1680831015610df15760405162461bcd60e51b815260206004820152600d60248201526c76616c756520746f6f206c6f7760981b604482015260640161040a565b835460408051633cfc747d60e01b815290516000926001600160a01b031691633cfc747d9160048083019260209291908290030181865afa158015610e3a573d6000803e3d6000fd5b505050506040513d601f19601f82011682018060405250810190610e5e919061134b565b63ffffffff1690506002610e7382600361140f565b610e7d9190611426565b84111580610ea15750600a610e9383600c61140f565b610e9d9190611426565b8411155b610ee05760405162461bcd60e51b815260206004820152601060248201526f696e63726561736520746f6f2062696760801b604482015260640161040a565b8454604051630f0f739560e31b8152600481018690526001600160a01b039091169063787b9ca890602401600060405180830381600087803b158015610f2557600080fd5b505af1158015610f39573d6000803e3d6000fd5b505050505050505050565b6000610f777f4f24f5c433db0962dac0d2c8b84197a6e6c7cc4e5d9ebe1916a1b6193da2f341546001600160a01b031690565b6001830154604051631f86345d60e31b81526001600160a01b03918216600482015291169063fc31a2e890602401602060405180830381865afa158015610fc2573d6000803e3d6000fd5b505050506040513d601f19601f8201168201806040525081019061037e9190611448565b600061ffff82111561092e5760405162461bcd60e51b815260206004820152602660248201527f53616665436173743a2076616c756520646f65736e27742066697420696e203160448201526536206269747360d01b606482015260840161040a565b6000807fec7e8c1c441439dd40959777f4c577ea0cd42fcc1dbe59d2bd0f5d9c55df8db660048401548154919250829161010090910461ffff1690811061109257611092611465565b9060005260206000209060040201915050919050565b600063ffffffff82111561092e5760405162461bcd60e51b815260206004820152602660248201527f53616665436173743a2076616c756520646f65736e27742066697420696e203360448201526532206269747360d01b606482015260840161040a565b6000807fec7e8c1c441439dd40959777f4c577ea0cd42fcc1dbe59d2bd0f5d9c55df8db6600484015481549192508291630100000090910461ffff1690811061109257611092611465565b6001600160a01b038116811461061557600080fd5b634e487b7160e01b600052604160045260246000fd5b600082601f83011261119457600080fd5b81356001600160401b038111156111ad576111ad61116d565b604051601f8201601f19908116603f011681016001600160401b03811182821017156111db576111db61116d565b6040528181528382016020018510156111f357600080fd5b816020850160208301376000918101602001919091529392505050565b60008060006060848603121561122557600080fd5b833561123081611158565b925060208401356001600160401b0381111561124b57600080fd5b61125786828701611183565b925050604084013590509250925092565b6000806040838503121561127b57600080fd5b823561128681611158565b915060208301356001600160401b038111156112a157600080fd5b6112ad85828601611183565b9150509250929050565b634e487b7160e01b600052601160045260246000fd5b8082018082111561037e5761037e6112b7565b6000815180845260005b81811015611306576020818501810151868301820152016112ea565b506000602082860101526020601f19601f83011685010191505092915050565b60608152600061133960608301866112e0565b60208301949094525060400152919050565b60006020828403121561135d57600080fd5b815163ffffffff81168114610acc57600080fd5b634e487b7160e01b600052600160045260246000fd5b6001600160401b03818116838216019081111561037e5761037e6112b7565b6040815260006113b960408301856112e0565b90506001600160801b03831660208301529392505050565b634e487b7160e01b600052602160045260246000fd5b6020808252600e908201526d0ecc2d8eaca40e8dede40d0d2ced60931b604082015260600190565b808202811582820484141761037e5761037e6112b7565b60008261144357634e487b7160e01b600052601260045260246000fd5b500490565b60006020828403121561145a57600080fd5b8151610acc81611158565b634e487b7160e01b600052603260045260246000fdfee0243e58c76a12071b4a375d5f283eaf01d6025bbabcdabd4ca2d0d3f67c5e3287971da2ffd60f015ef85ead0fa62169ee9c342d8f1db03babee919d33ccf819061115fe294a09236be45875a15a7800403f95fde525547c9662b92a6359932e1eb84f0e555ab7d88fd7243f3853898f7c3c98ed4c0285667956c327a2f2d170381f724f6ecd2a24d4a619016614db98defae86152186d60beff19b685ea2b5a9aea190d2b3dd7d1d8e8d055952c2e9923c067928667db7f47b1f818b830cba4a2646970667358221220499b904cab76cf5748077f2a83aeaa3819eadd9ebaa67c3ccc0130de28fab22664736f6c634300081b0033",
  "linkReferences": {},
  "deployedLinkReferences": {}
}