{
  "_format": "hh-sol-artifact-1",
  "contractName": "FakeERC20",
  "sourceName": "contracts/utils/mock/FakeERC20.sol",
  "abi": [
    {
      "inputs": [
        {
          "internalType": "contract IGovernanceSettings",
          "name": "_governanceSettings",
          "type": "address"
        },
        {
          "internalType": "address",
          "name": "_initialGovernance",
          "type": "address"
        },
        {
          "internalType": "string",
          "name": "_name",
          "type": "string"
        },
        {
          "internalType": "string",
          "name": "_symbol",
          "type": "string"
        },
        {
          "internalType": "uint8",
          "name": "_decimals",
          "type": "uint8"
        }
      ],
      "stateMutability": "nonpayable",
      "type": "constructor"
    },
    {
      "inputs": [],
      "name": "AlreadyInProductionMode",
      "type": "error"
    },
    {
      "inputs": [],
      "name": "GovernedAddressZero",
      "type": "error"
    },
    {
      "inputs": [],
      "name": "GovernedAlreadyInitialized",
      "type": "error"
    },
    {
      "inputs": [],
      "name": "OnlyExecutor",
      "type": "error"
    },
    {
      "inputs": [],
      "name": "OnlyGovernance",
      "type": "error"
    },
    {
      "inputs": [],
      "name": "TimelockInvalidSelector",
      "type": "error"
    },
    {
      "inputs": [],
      "name": "TimelockNotAllowedYet",
      "type": "error"
    },
    {
      "anonymous": false,
      "inputs": [
        {
          "indexed": true,
          "internalType": "address",
          "name": "owner",
          "type": "address"
        },
        {
          "indexed": true,
          "internalType": "address",
          "name": "spender",
          "type": "address"
        },
        {
          "indexed": false,
          "internalType": "uint256",
          "name": "value",
          "type": "uint256"
        }
      ],
      "name": "Approval",
      "type": "event"
    },
    {
      "anonymous": false,
      "inputs": [
        {
          "indexed": false,
          "internalType": "bytes",
          "name": "encodedCall",
          "type": "bytes"
        },
        {
          "indexed": false,
          "internalType": "bytes32",
          "name": "encodedCallHash",
          "type": "bytes32"
        },
        {
          "indexed": false,
          "internalType": "uint256",
          "name": "allowedAfterTimestamp",
          "type": "uint256"
        }
      ],
      "name": "GovernanceCallTimelocked",
      "type": "event"
    },
    {
      "anonymous": false,
      "inputs": [
        {
          "indexed": false,
          "internalType": "address",
          "name": "initialGovernance",
          "type": "address"
        }
      ],
      "name": "GovernanceInitialised",
      "type": "event"
    },
    {
      "anonymous": false,
      "inputs": [
        {
          "indexed": false,
          "internalType": "address",
          "name": "governanceSettings",
          "type": "address"
        }
      ],
      "name": "GovernedProductionModeEntered",
      "type": "event"
    },
    {
      "anonymous": false,
      "inputs": [
        {
          "indexed": false,
          "internalType": "bytes32",
          "name": "encodedCallHash",
          "type": "bytes32"
        }
      ],
      "name": "TimelockedGovernanceCallCanceled",
      "type": "event"
    },
    {
      "anonymous": false,
      "inputs": [
        {
          "indexed": false,
          "internalType": "bytes32",
          "name": "encodedCallHash",
          "type": "bytes32"
        }
      ],
      "name": "TimelockedGovernanceCallExecuted",
      "type": "event"
    },
    {
      "anonymous": false,
      "inputs": [
        {
          "indexed": true,
          "internalType": "address",
          "name": "from",
          "type": "address"
        },
        {
          "indexed": true,
          "internalType": "address",
          "name": "to",
          "type": "address"
        },
        {
          "indexed": false,
          "internalType": "uint256",
          "name": "value",
          "type": "uint256"
        }
      ],
      "name": "Transfer",
      "type": "event"
    },
    {
      "inputs": [
        {
          "internalType": "address",
          "name": "owner",
          "type": "address"
        },
        {
          "internalType": "address",
          "name": "spender",
          "type": "address"
        }
      ],
      "name": "allowance",
      "outputs": [
        {
          "internalType": "uint256",
          "name": "",
          "type": "uint256"
        }
      ],
      "stateMutability": "view",
      "type": "function"
    },
    {
      "inputs": [
        {
          "internalType": "address",
          "name": "spender",
          "type": "address"
        },
        {
          "internalType": "uint256",
          "name": "amount",
          "type": "uint256"
        }
      ],
      "name": "approve",
      "outputs": [
        {
          "internalType": "bool",
          "name": "",
          "type": "bool"
        }
      ],
      "stateMutability": "nonpayable",
      "type": "function"
    },
    {
      "inputs": [
        {
          "internalType": "address",
          "name": "account",
          "type": "address"
        }
      ],
      "name": "balanceOf",
      "outputs": [
        {
          "internalType": "uint256",
          "name": "",
          "type": "uint256"
        }
      ],
      "stateMutability": "view",
      "type": "function"
    },
    {
      "inputs": [
        {
          "internalType": "uint256",
          "name": "_amount",
          "type": "uint256"
        }
      ],
      "name": "burnAmount",
      "outputs": [],
      "stateMutability": "nonpayable",
      "type": "function"
    },
    {
      "inputs": [
        {
          "internalType": "bytes",
          "name": "_encodedCall",
          "type": "bytes"
        }
      ],
      "name": "cancelGovernanceCall",
      "outputs": [],
      "stateMutability": "nonpayable",
      "type": "function"
    },
    {
      "inputs": [],
      "name": "decimals",
      "outputs": [
        {
          "internalType": "uint8",
          "name": "",
          "type": "uint8"
        }
      ],
      "stateMutability": "view",
      "type": "function"
    },
    {
      "inputs": [
        {
          "internalType": "address",
          "name": "spender",
          "type": "address"
        },
        {
          "internalType": "uint256",
          "name": "subtractedValue",
          "type": "uint256"
        }
      ],
      "name": "decreaseAllowance",
      "outputs": [
        {
          "internalType": "bool",
          "name": "",
          "type": "bool"
        }
      ],
      "stateMutability": "nonpayable",
      "type": "function"
    },
    {
      "inputs": [
        {
          "internalType": "bytes",
          "name": "_encodedCall",
          "type": "bytes"
        }
      ],
      "name": "executeGovernanceCall",
      "outputs": [],
      "stateMutability": "nonpayable",
      "type": "function"
    },
    {
      "inputs": [],
      "name": "governance",
      "outputs": [
        {
          "internalType": "address",
          "name": "",
          "type": "address"
        }
      ],
      "stateMutability": "view",
      "type": "function"
    },
    {
      "inputs": [],
      "name": "governanceSettings",
      "outputs": [
        {
          "internalType": "contract IGovernanceSettings",
          "name": "",
          "type": "address"
        }
      ],
      "stateMutability": "view",
      "type": "function"
    },
    {
      "inputs": [
        {
          "internalType": "address",
          "name": "spender",
          "type": "address"
        },
        {
          "internalType": "uint256",
          "name": "addedValue",
          "type": "uint256"
        }
      ],
      "name": "increaseAllowance",
      "outputs": [
        {
          "internalType": "bool",
          "name": "",
          "type": "bool"
        }
      ],
      "stateMutability": "nonpayable",
      "type": "function"
    },
    {
      "inputs": [
        {
          "internalType": "address",
          "name": "_address",
          "type": "address"
        }
      ],
      "name": "isExecutor",
      "outputs": [
        {
          "internalType": "bool",
          "name": "",
          "type": "bool"
        }
      ],
      "stateMutability": "view",
      "type": "function"
    },
    {
      "inputs": [
        {
          "internalType": "address",
          "name": "_target",
          "type": "address"
        },
        {
          "internalType": "uint256",
          "name": "amount",
          "type": "uint256"
        }
      ],
      "name": "mintAmount",
      "outputs": [],
      "stateMutability": "nonpayable",
      "type": "function"
    },
    {
      "inputs": [],
      "name": "name",
      "outputs": [
        {
          "internalType": "string",
          "name": "",
          "type": "string"
        }
      ],
      "stateMutability": "view",
      "type": "function"
    },
    {
      "inputs": [],
      "name": "productionMode",
      "outputs": [
        {
          "internalType": "bool",
          "name": "",
          "type": "bool"
        }
      ],
      "stateMutability": "view",
      "type": "function"
    },
    {
      "inputs": [
        {
          "internalType": "bytes4",
          "name": "_interfaceId",
          "type": "bytes4"
        }
      ],
      "name": "supportsInterface",
      "outputs": [
        {
          "internalType": "bool",
          "name": "",
          "type": "bool"
        }
      ],
      "stateMutability": "pure",
      "type": "function"
    },
    {
      "inputs": [],
      "name": "switchToProductionMode",
      "outputs": [],
      "stateMutability": "nonpayable",
      "type": "function"
    },
    {
      "inputs": [],
      "name": "symbol",
      "outputs": [
        {
          "internalType": "string",
          "name": "",
          "type": "string"
        }
      ],
      "stateMutability": "view",
      "type": "function"
    },
    {
      "inputs": [],
      "name": "totalSupply",
      "outputs": [
        {
          "internalType": "uint256",
          "name": "",
          "type": "uint256"
        }
      ],
      "stateMutability": "view",
      "type": "function"
    },
    {
      "inputs": [
        {
          "internalType": "address",
          "name": "to",
          "type": "address"
        },
        {
          "internalType": "uint256",
          "name": "amount",
          "type": "uint256"
        }
      ],
      "name": "transfer",
      "outputs": [
        {
          "internalType": "bool",
          "name": "",
          "type": "bool"
        }
      ],
      "stateMutability": "nonpayable",
      "type": "function"
    },
    {
      "inputs": [
        {
          "internalType": "address",
          "name": "from",
          "type": "address"
        },
        {
          "internalType": "address",
          "name": "to",
          "type": "address"
        },
        {
          "internalType": "uint256",
          "name": "amount",
          "type": "uint256"
        }
      ],
      "name": "transferFrom",
      "outputs": [
        {
          "internalType": "bool",
          "name": "",
          "type": "bool"
        }
      ],
      "stateMutability": "nonpayable",
      "type": "function"
    }
  ],
  "bytecode": "0x60a060405234801561001057600080fd5b5060405161183938038061183983398101604081905261002f91610251565b84848484600361003f8382610385565b50600461004c8282610385565b50505061005f828261007160201b60201c565b505060ff166080525061044392505050565b7f2aa47ee5db910f3b2a06970c443249cc77dbd9f96100cfebc1775ab7fb1d18248054600160a01b900460ff16156100bc5760405163b2f0162160e01b815260040160405180910390fd5b6001600160a01b0383166100e3576040516334ab92fb60e11b815260040160405180910390fd5b6001600160a01b03821661010a576040516334ab92fb60e11b815260040160405180910390fd5b80546001600160a01b038481166001600160a81b031990921691909117600160a01b1782556001820180549184166001600160a01b0319909216821790556040519081527f9789733827840833afc031fb2ef9ab6894271f77bad2085687cf4ae5c7bee4db9060200160405180910390a1505050565b6001600160a01b038116811461019557600080fd5b50565b634e487b7160e01b600052604160045260246000fd5b600082601f8301126101bf57600080fd5b81516001600160401b038111156101d8576101d8610198565b604051601f8201601f19908116603f011681016001600160401b038111828210171561020657610206610198565b60405281815283820160200185101561021e57600080fd5b60005b8281101561023d57602081860181015183830182015201610221565b506000918101602001919091529392505050565b600080600080600060a0868803121561026957600080fd5b855161027481610180565b602087015190955061028581610180565b60408701519094506001600160401b038111156102a157600080fd5b6102ad888289016101ae565b606088015190945090506001600160401b038111156102cb57600080fd5b6102d7888289016101ae565b925050608086015160ff811681146102ee57600080fd5b809150509295509295909350565b600181811c9082168061031057607f821691505b60208210810361033057634e487b7160e01b600052602260045260246000fd5b50919050565b601f82111561038057806000526020600020601f840160051c8101602085101561035d5750805b601f840160051c820191505b8181101561037d5760008155600101610369565b50505b505050565b81516001600160401b0381111561039e5761039e610198565b6103b2816103ac84546102fc565b84610336565b6020601f8211600181146103e657600083156103ce5750848201515b600019600385901b1c1916600184901b17845561037d565b600084815260208120601f198516915b8281101561041657878501518255602094850194600190920191016103f6565b50848210156104345786840151600019600387901b60f8161c191681555b50505050600190811b01905550565b6080516113db61045e60003960006101f301526113db6000f3fe608060405234801561001057600080fd5b50600436106101375760003560e01c80635aa6e675116100b8578063a457c2d71161007c578063a457c2d7146102b2578063a9059cbb146102c5578063dd62ed3e146102d8578063debfda30146102eb578063e17f212e146102fe578063f5a983831461031d57600080fd5b80635aa6e6751461023057806362354e03146102505780636fafdf831461026e57806370a082311461028157806395d89b41146102aa57600080fd5b806318160ddd116100ff57806318160ddd146101b457806320c5f99d146101c657806323b872dd146101d9578063313ce567146101ec578063395093511461021d57600080fd5b806301ffc9a71461013c57806306fdde0314610164578063095ea7b3146101795780630e583dd21461018c57806316fc2f6d146101a1575b600080fd5b61014f61014a36600461108f565b610325565b60405190151581526020015b60405180910390f35b61016c610377565b60405161015b91906110b9565b61014f61018736600461111c565b610409565b61019f61019a36600461111c565b610421565b005b61019f6101af366004611148565b610451565b6002545b60405190815260200161015b565b61019f6101d4366004611148565b610505565b61014f6101e73660046111bc565b610677565b60405160ff7f000000000000000000000000000000000000000000000000000000000000000016815260200161015b565b61014f61022b36600461111c565b61069b565b6102386106bd565b6040516001600160a01b03909116815260200161015b565b600080516020611386833981519152546001600160a01b0316610238565b61019f61027c3660046111fd565b610766565b6101b861028f366004611216565b6001600160a01b031660009081526020819052604090205490565b61016c610773565b61014f6102c036600461111c565b610782565b61014f6102d336600461111c565b610802565b6101b86102e6366004611233565b610810565b61014f6102f9366004611216565b61083b565b60008051602061138683398151915254600160a81b900460ff1661014f565b61019f6108d5565b60006001600160e01b031982166301ffc9a760e01b148061035657506001600160e01b031982166336372b0760e01b145b8061037157506001600160e01b0319821663a219a02560e01b145b92915050565b6060600380546103869061126c565b80601f01602080910402602001604051908101604052809291908181526020018280546103b29061126c565b80156103ff5780601f106103d4576101008083540402835291602001916103ff565b820191906000526020600020905b8154815290600101906020018083116103e257829003601f168201915b5050505050905090565b60003361041781858561097a565b5060019392505050565b610429610a9f565b1561044457610436610ad5565b6104408282610b19565b5050565b6104406000366000610bd8565b610459610cef565b6040516000805160206113868339815191529060009061047c90859085906112a6565b60405180910390209050816002016000828152602001908152602001600020546000036104bc5760405163023679b760e21b815260040160405180910390fd5b6040518181527f69b058d6225c01c1f2a25801ca5b05705fa2e9118e93d518390ba804398c87b19060200160405180910390a16000908152600290910160205260408120555050565b60008051602061138683398151915261051d3361083b565b61053a57604051633fdb5f0160e11b815260040160405180910390fd5b6000838360405161054c9291906112a6565b6040805191829003909120600081815260028501602052918220549092509081900361058b5760405163023679b760e21b815260040160405180910390fd5b804210156105ac5760405163309272e160e11b815260040160405180910390fd5b6000828152600284016020526040808220829055845460ff60b01b1916600160b01b1785555130906105e190889088906112a6565b6000604051808303816000865af19150503d806000811461061e576040519150601f19603f3d011682016040523d82523d6000602084013e610623565b606091505b5050845460ff60b01b191685556040518481529091507fec1225e5a8a8acb91e03ce648c683c74f5d152a775b9715980999441d714c44f9060200160405180910390a161066f81610d2a565b505050505050565b600033610685858285610d47565b610690858585610dc1565b506001949350505050565b6000336104178185856106ae8383610810565b6106b891906112b6565b61097a565b600080516020611386833981519152805460009190600160a81b900460ff166106f35760018101546001600160a01b0316610760565b805460408051631cc9492560e21b815290516001600160a01b03909216916373252494916004808201926020929091908290030181865afa15801561073c573d6000803e3d6000fd5b505050506040513d601f19601f8201168201806040525081019061076091906112d7565b91505090565b6107703382610f65565b50565b6060600480546103869061126c565b600033816107908286610810565b9050838110156107f55760405162461bcd60e51b815260206004820152602560248201527f45524332303a2064656372656173656420616c6c6f77616e63652062656c6f77604482015264207a65726f60d81b60648201526084015b60405180910390fd5b610690828686840361097a565b600033610417818585610dc1565b6001600160a01b03918216600090815260016020908152604080832093909416825291909152205490565b600080516020611386833981519152805460009190600160a01b900460ff1680156108ce57508054604051630debfda360e41b81526001600160a01b0385811660048301529091169063debfda3090602401602060405180830381865afa1580156108aa573d6000803e3d6000fd5b505050506040513d601f19601f820116820180604052508101906108ce91906112f4565b9392505050565b6108dd610cef565b6000805160206113868339815191528054600160a81b900460ff1615610916576040516339511f6160e11b815260040160405180910390fd5b6001810180546001600160a01b03191690558054600160a81b60ff60a81b1982161782556040516001600160a01b0390911681527f83af113638b5422f9e977cebc0aaf0eaf2188eb9a8baae7f9d46c42b33a1560c9060200160405180910390a150565b6001600160a01b0383166109dc5760405162461bcd60e51b8152602060048201526024808201527f45524332303a20617070726f76652066726f6d20746865207a65726f206164646044820152637265737360e01b60648201526084016107ec565b6001600160a01b038216610a3d5760405162461bcd60e51b815260206004820152602260248201527f45524332303a20617070726f766520746f20746865207a65726f206164647265604482015261737360f01b60648201526084016107ec565b6001600160a01b0383811660008181526001602090815260408083209487168084529482529182902085905590518481527f8c5be1e5ebec7d5bd14f71427d1e84f3dd0314c0f7b2291e5b200ac8c7c3b92591015b60405180910390a3505050565b600080516020611386833981519152805460009190600160b01b900460ff1680610760575054600160a81b900460ff1615919050565b6000805160206113868339815191528054600160b01b900460ff1615610b1157333014610b0457610b04611316565b805460ff60b01b19169055565b610770610cef565b6001600160a01b038216610b6f5760405162461bcd60e51b815260206004820152601f60248201527f45524332303a206d696e7420746f20746865207a65726f20616464726573730060448201526064016107ec565b8060026000828254610b8191906112b6565b90915550506001600160a01b038216600081815260208181526040808320805486019055518481527fddf252ad1be2c89b69c2b068fc378daa952ba7f163c4a11628f55a4df523b3ef910160405180910390a35050565b600080516020611386833981519152610bef610cef565b60008484604051610c019291906112a6565b604080519182900382208454636221a54b60e01b845291519093506000926001600160a01b0390921691636221a54b9160048083019260209291908290030181865afa158015610c55573d6000803e3d6000fd5b505050506040513d601f19601f82011682018060405250810190610c79919061132c565b905083811015610c865750825b6000610c9282426112b6565b600084815260028601602052604090819020829055519091507f8c02104dfc280f713854f25297de671710c544c58de69dbde8fb66974ce1ab9e90610cde908990899087908690611345565b60405180910390a150505050505050565b610cf76106bd565b6001600160a01b0316336001600160a01b031614610d28576040516354348f0360e01b815260040160405180910390fd5b565b3d604051818101604052816000823e8215610d43578181f35b8181fd5b6000610d538484610810565b90506000198114610dbb5781811015610dae5760405162461bcd60e51b815260206004820152601d60248201527f45524332303a20696e73756666696369656e7420616c6c6f77616e636500000060448201526064016107ec565b610dbb848484840361097a565b50505050565b6001600160a01b038316610e255760405162461bcd60e51b815260206004820152602560248201527f45524332303a207472616e736665722066726f6d20746865207a65726f206164604482015264647265737360d81b60648201526084016107ec565b6001600160a01b038216610e875760405162461bcd60e51b815260206004820152602360248201527f45524332303a207472616e7366657220746f20746865207a65726f206164647260448201526265737360e81b60648201526084016107ec565b6001600160a01b03831660009081526020819052604090205481811015610eff5760405162461bcd60e51b815260206004820152602660248201527f45524332303a207472616e7366657220616d6f756e7420657863656564732062604482015265616c616e636560d01b60648201526084016107ec565b6001600160a01b03848116600081815260208181526040808320878703905593871680835291849020805487019055925185815290927fddf252ad1be2c89b69c2b068fc378daa952ba7f163c4a11628f55a4df523b3ef910160405180910390a3610dbb565b6001600160a01b038216610fc55760405162461bcd60e51b815260206004820152602160248201527f45524332303a206275726e2066726f6d20746865207a65726f206164647265736044820152607360f81b60648201526084016107ec565b6001600160a01b038216600090815260208190526040902054818110156110395760405162461bcd60e51b815260206004820152602260248201527f45524332303a206275726e20616d6f756e7420657863656564732062616c616e604482015261636560f01b60648201526084016107ec565b6001600160a01b0383166000818152602081815260408083208686039055600280548790039055518581529192917fddf252ad1be2c89b69c2b068fc378daa952ba7f163c4a11628f55a4df523b3ef9101610a92565b6000602082840312156110a157600080fd5b81356001600160e01b0319811681146108ce57600080fd5b602081526000825180602084015260005b818110156110e757602081860181015160408684010152016110ca565b506000604082850101526040601f19601f83011684010191505092915050565b6001600160a01b038116811461077057600080fd5b6000806040838503121561112f57600080fd5b823561113a81611107565b946020939093013593505050565b6000806020838503121561115b57600080fd5b823567ffffffffffffffff81111561117257600080fd5b8301601f8101851361118357600080fd5b803567ffffffffffffffff81111561119a57600080fd5b8560208284010111156111ac57600080fd5b6020919091019590945092505050565b6000806000606084860312156111d157600080fd5b83356111dc81611107565b925060208401356111ec81611107565b929592945050506040919091013590565b60006020828403121561120f57600080fd5b5035919050565b60006020828403121561122857600080fd5b81356108ce81611107565b6000806040838503121561124657600080fd5b823561125181611107565b9150602083013561126181611107565b809150509250929050565b600181811c9082168061128057607f821691505b6020821081036112a057634e487b7160e01b600052602260045260246000fd5b50919050565b8183823760009101908152919050565b8082018082111561037157634e487b7160e01b600052601160045260246000fd5b6000602082840312156112e957600080fd5b81516108ce81611107565b60006020828403121561130657600080fd5b815180151581146108ce57600080fd5b634e487b7160e01b600052600160045260246000fd5b60006020828403121561133e57600080fd5b5051919050565b606081528360608201528385608083013760006080858301015260006080601f19601f87011683010190508360208301528260408301529594505050505056fe2aa47ee5db910f3b2a06970c443249cc77dbd9f96100cfebc1775ab7fb1d1824a2646970667358221220c687ee6a81609966c1a7e0b4984656e8529117a944b26a5c9c8e0674f914652464736f6c634300081b0033",
  "linkReferences": {},
  "deployedLinkReferences": {}
}