{
  "_format": "hh-sol-artifact-1",
  "contractName": "CustomErrorMock",
  "sourceName": "contracts/utils/mock/CustomErrorMock.sol",
  "abi": [
    {
      "inputs": [
        {
          "internalType": "uint256",
          "name": "value",
          "type": "uint256"
        },
        {
          "internalType": "string",
          "name": "text",
          "type": "string"
        }
      ],
      "name": "ErrorWithArgs",
      "type": "error"
    },
    {
      "inputs": [],
      "name": "ErrorWithoutArgs",
      "type": "error"
    },
    {
      "inputs": [
        {
          "internalType": "uint256",
          "name": "value",
          "type": "uint256"
        },
        {
          "internalType": "string",
          "name": "text",
          "type": "string"
        }
      ],
      "name": "emitErrorWithArgs",
      "outputs": [],
      "stateMutability": "nonpayable",
      "type": "function"
    },
    {
      "inputs": [],
      "name": "emitErrorWithString",
      "outputs": [],
      "stateMutability": "nonpayable",
      "type": "function"
    },
    {
      "inputs": [],
      "name": "emitErrorWithoutArgs",
      "outputs": [],
      "stateMutability": "nonpayable",
      "type": "function"
    }
  ],
  "bytecode": "0x6080604052348015600f57600080fd5b506102468061001f6000396000f3fe608060405234801561001057600080fd5b50600436106100415760003560e01c806380207eb81461004657806390c3c18914610050578063a6bc502414610063575b600080fd5b61004e61006b565b005b61004e61005e3660046100f8565b6100ac565b61004e6100c9565b60405162461bcd60e51b815260206004820152601160248201527039ba3934b733903a3cb8329032b93937b960791b60448201526064015b60405180910390fd5b818160405163df47c1f360e01b81526004016100a39291906101bb565b60405163037c974760e31b815260040160405180910390fd5b634e487b7160e01b600052604160045260246000fd5b6000806040838503121561010b57600080fd5b82359150602083013567ffffffffffffffff81111561012957600080fd5b8301601f8101851361013a57600080fd5b803567ffffffffffffffff811115610154576101546100e2565b604051601f8201601f19908116603f0116810167ffffffffffffffff81118282101715610183576101836100e2565b60405281815282820160200187101561019b57600080fd5b816020840160208301376000602083830101528093505050509250929050565b828152604060208201526000825180604084015260005b818110156101ef57602081860181015160608684010152016101d2565b506000606082850101526060601f19601f830116840101915050939250505056fea264697066735822122033ae38ac662891717f71e670ab2fb00d1571f893f4556a5905b6e10c7b1c1c5a64736f6c634300081b0033",
  "linkReferences": {},
  "deployedLinkReferences": {}
}