{
  "_format": "hh-sol-artifact-1",
  "contractName": "CustomErrorMock",
  "sourceName": "contracts/utils/mock/CustomErrorMock.sol",
  "abi": [
    {
      "inputs": [
        {
          "internalType": "uint256",
          "name": "value",
          "type": "uint256"
        },
        {
          "internalType": "string",
          "name": "text",
          "type": "string"
        }
      ],
      "name": "ErrorWithArgs",
      "type": "error"
    },
    {
      "inputs": [],
      "name": "ErrorWithoutArgs",
      "type": "error"
    },
    {
      "inputs": [
        {
          "internalType": "uint256",
          "name": "value",
          "type": "uint256"
        },
        {
          "internalType": "string",
          "name": "text",
          "type": "string"
        }
      ],
      "name": "emitErrorWithArgs",
      "outputs": [],
      "stateMutability": "nonpayable",
      "type": "function"
    },
    {
      "inputs": [],
      "name": "emitErrorWithString",
      "outputs": [],
      "stateMutability": "nonpayable",
      "type": "function"
    },
    {
      "inputs": [],
      "name": "emitErrorWithoutArgs",
      "outputs": [],
      "stateMutability": "nonpayable",
      "type": "function"
    }
  ],
  "bytecode": "0x608060405234801561001057600080fd5b50610240806100206000396000f3fe608060405234801561001057600080fd5b50600436106100415760003560e01c806380207eb81461004657806390c3c18914610050578063a6bc502414610063575b600080fd5b61004e61006b565b005b61004e61005e3660046100f8565b6100ac565b61004e6100c9565b60405162461bcd60e51b815260206004820152601160248201527039ba3934b733903a3cb8329032b93937b960791b60448201526064015b60405180910390fd5b818160405163df47c1f360e01b81526004016100a39291906101b3565b60405163037c974760e31b815260040160405180910390fd5b634e487b7160e01b600052604160045260246000fd5b6000806040838503121561010b57600080fd5b82359150602083013567ffffffffffffffff8082111561012a57600080fd5b818501915085601f83011261013e57600080fd5b813581811115610150576101506100e2565b604051601f8201601f19908116603f01168101908382118183101715610178576101786100e2565b8160405282815288602084870101111561019157600080fd5b8260208601602083013760006020848301015280955050505050509250929050565b8281526000602060406020840152835180604085015260005b818110156101e8578581018301518582016060015282016101cc565b506000606082860101526060601f19601f83011685010192505050939250505056fea264697066735822122084470953ff5293627b0a4021a804c3fa419ca364b0a98ff88b87740ba31a3e7e64736f6c63430008170033",
  "linkReferences": {},
  "deployedLinkReferences": {}
}