{
  "_format": "hh-sol-artifact-1",
  "contractName": "ERC20UpgradableTokenMock",
  "sourceName": "contracts/openzeppelin/mock/ERC20UpgradableTokenMock.sol",
  "abi": [
    {
      "inputs": [
        {
          "internalType": "string",
          "name": "name_",
          "type": "string"
        },
        {
          "internalType": "string",
          "name": "symbol_",
          "type": "string"
        }
      ],
      "stateMutability": "nonpayable",
      "type": "constructor"
    },
    {
      "anonymous": false,
      "inputs": [
        {
          "indexed": false,
          "internalType": "address",
          "name": "previousAdmin",
          "type": "address"
        },
        {
          "indexed": false,
          "internalType": "address",
          "name": "newAdmin",
          "type": "address"
        }
      ],
      "name": "AdminChanged",
      "type": "event"
    },
    {
      "anonymous": false,
      "inputs": [
        {
          "indexed": true,
          "internalType": "address",
          "name": "owner",
          "type": "address"
        },
        {
          "indexed": true,
          "internalType": "address",
          "name": "spender",
          "type": "address"
        },
        {
          "indexed": false,
          "internalType": "uint256",
          "name": "value",
          "type": "uint256"
        }
      ],
      "name": "Approval",
      "type": "event"
    },
    {
      "anonymous": false,
      "inputs": [
        {
          "indexed": true,
          "internalType": "address",
          "name": "beacon",
          "type": "address"
        }
      ],
      "name": "BeaconUpgraded",
      "type": "event"
    },
    {
      "anonymous": false,
      "inputs": [
        {
          "indexed": true,
          "internalType": "address",
          "name": "from",
          "type": "address"
        },
        {
          "indexed": true,
          "internalType": "address",
          "name": "to",
          "type": "address"
        },
        {
          "indexed": false,
          "internalType": "uint256",
          "name": "value",
          "type": "uint256"
        }
      ],
      "name": "Transfer",
      "type": "event"
    },
    {
      "anonymous": false,
      "inputs": [
        {
          "indexed": true,
          "internalType": "address",
          "name": "implementation",
          "type": "address"
        }
      ],
      "name": "Upgraded",
      "type": "event"
    },
    {
      "inputs": [
        {
          "internalType": "address",
          "name": "owner",
          "type": "address"
        },
        {
          "internalType": "address",
          "name": "spender",
          "type": "address"
        }
      ],
      "name": "allowance",
      "outputs": [
        {
          "internalType": "uint256",
          "name": "",
          "type": "uint256"
        }
      ],
      "stateMutability": "view",
      "type": "function"
    },
    {
      "inputs": [
        {
          "internalType": "address",
          "name": "spender",
          "type": "address"
        },
        {
          "internalType": "uint256",
          "name": "amount",
          "type": "uint256"
        }
      ],
      "name": "approve",
      "outputs": [
        {
          "internalType": "bool",
          "name": "",
          "type": "bool"
        }
      ],
      "stateMutability": "nonpayable",
      "type": "function"
    },
    {
      "inputs": [
        {
          "internalType": "address",
          "name": "account",
          "type": "address"
        }
      ],
      "name": "balanceOf",
      "outputs": [
        {
          "internalType": "uint256",
          "name": "",
          "type": "uint256"
        }
      ],
      "stateMutability": "view",
      "type": "function"
    },
    {
      "inputs": [],
      "name": "decimals",
      "outputs": [
        {
          "internalType": "uint8",
          "name": "",
          "type": "uint8"
        }
      ],
      "stateMutability": "view",
      "type": "function"
    },
    {
      "inputs": [
        {
          "internalType": "address",
          "name": "spender",
          "type": "address"
        },
        {
          "internalType": "uint256",
          "name": "subtractedValue",
          "type": "uint256"
        }
      ],
      "name": "decreaseAllowance",
      "outputs": [
        {
          "internalType": "bool",
          "name": "",
          "type": "bool"
        }
      ],
      "stateMutability": "nonpayable",
      "type": "function"
    },
    {
      "inputs": [
        {
          "internalType": "address",
          "name": "spender",
          "type": "address"
        },
        {
          "internalType": "uint256",
          "name": "addedValue",
          "type": "uint256"
        }
      ],
      "name": "increaseAllowance",
      "outputs": [
        {
          "internalType": "bool",
          "name": "",
          "type": "bool"
        }
      ],
      "stateMutability": "nonpayable",
      "type": "function"
    },
    {
      "inputs": [
        {
          "internalType": "string",
          "name": "name_",
          "type": "string"
        },
        {
          "internalType": "string",
          "name": "symbol_",
          "type": "string"
        }
      ],
      "name": "initialize",
      "outputs": [],
      "stateMutability": "nonpayable",
      "type": "function"
    },
    {
      "inputs": [
        {
          "internalType": "address",
          "name": "account",
          "type": "address"
        },
        {
          "internalType": "uint256",
          "name": "amount",
          "type": "uint256"
        }
      ],
      "name": "mint",
      "outputs": [],
      "stateMutability": "nonpayable",
      "type": "function"
    },
    {
      "inputs": [],
      "name": "name",
      "outputs": [
        {
          "internalType": "string",
          "name": "",
          "type": "string"
        }
      ],
      "stateMutability": "view",
      "type": "function"
    },
    {
      "inputs": [],
      "name": "proxiableUUID",
      "outputs": [
        {
          "internalType": "bytes32",
          "name": "",
          "type": "bytes32"
        }
      ],
      "stateMutability": "view",
      "type": "function"
    },
    {
      "inputs": [],
      "name": "symbol",
      "outputs": [
        {
          "internalType": "string",
          "name": "",
          "type": "string"
        }
      ],
      "stateMutability": "view",
      "type": "function"
    },
    {
      "inputs": [],
      "name": "totalSupply",
      "outputs": [
        {
          "internalType": "uint256",
          "name": "",
          "type": "uint256"
        }
      ],
      "stateMutability": "view",
      "type": "function"
    },
    {
      "inputs": [
        {
          "internalType": "address",
          "name": "to",
          "type": "address"
        },
        {
          "internalType": "uint256",
          "name": "amount",
          "type": "uint256"
        }
      ],
      "name": "transfer",
      "outputs": [
        {
          "internalType": "bool",
          "name": "",
          "type": "bool"
        }
      ],
      "stateMutability": "nonpayable",
      "type": "function"
    },
    {
      "inputs": [
        {
          "internalType": "address",
          "name": "from",
          "type": "address"
        },
        {
          "internalType": "address",
          "name": "to",
          "type": "address"
        },
        {
          "internalType": "uint256",
          "name": "amount",
          "type": "uint256"
        }
      ],
      "name": "transferFrom",
      "outputs": [
        {
          "internalType": "bool",
          "name": "",
          "type": "bool"
        }
      ],
      "stateMutability": "nonpayable",
      "type": "function"
    },
    {
      "inputs": [
        {
          "internalType": "address",
          "name": "newImplementation",
          "type": "address"
        }
      ],
      "name": "upgradeTo",
      "outputs": [],
      "stateMutability": "nonpayable",
      "type": "function"
    },
    {
      "inputs": [
        {
          "internalType": "address",
          "name": "newImplementation",
          "type": "address"
        },
        {
          "internalType": "bytes",
          "name": "data",
          "type": "bytes"
        }
      ],
      "name": "upgradeToAndCall",
      "outputs": [],
      "stateMutability": "payable",
      "type": "function"
    }
  ],
  "bytecode": "0x60a06040523060805234801561001457600080fd5b50604051611839380380611839833981016040819052610033916101bd565b60408051602080820183526000808352835191820190935291825290600361005b83826102ae565b50600461006882826102ae565b50505061007b828261008260201b60201c565b505061036c565b60075460ff16156100d95760405162461bcd60e51b815260206004820152601360248201527f616c726561647920696e697469616c697a656400000000000000000000000000604482015260640160405180910390fd5b6007805460ff1916600117905560056100f283826102ae565b5060066100ff82826102ae565b505050565b634e487b7160e01b600052604160045260246000fd5b600082601f83011261012b57600080fd5b81516001600160401b0381111561014457610144610104565b604051601f8201601f19908116603f011681016001600160401b038111828210171561017257610172610104565b60405281815283820160200185101561018a57600080fd5b60005b828110156101a95760208186018101518383018201520161018d565b506000918101602001919091529392505050565b600080604083850312156101d057600080fd5b82516001600160401b038111156101e657600080fd5b6101f28582860161011a565b602085015190935090506001600160401b0381111561021057600080fd5b61021c8582860161011a565b9150509250929050565b600181811c9082168061023a57607f821691505b60208210810361025a57634e487b7160e01b600052602260045260246000fd5b50919050565b601f8211156100ff57806000526020600020601f840160051c810160208510156102875750805b601f840160051c820191505b818110156102a75760008155600101610293565b5050505050565b81516001600160401b038111156102c7576102c7610104565b6102db816102d58454610226565b84610260565b6020601f82116001811461030f57600083156102f75750848201515b600019600385901b1c1916600184901b1784556102a7565b600084815260208120601f198516915b8281101561033f578785015182556020948501946001909201910161031f565b508482101561035d5786840151600019600387901b60f8161c191681555b50505050600190811b01905550565b6080516114966103a3600039600081816103dd0152818161042601528181610560015281816105a0015261062601526114966000f3fe6080604052600436106100f35760003560e01c80634cd88b761161008a57806395d89b411161005957806395d89b411461028e578063a457c2d7146102a3578063a9059cbb146102c3578063dd62ed3e146102e357600080fd5b80634cd88b76146102105780634f1ef2861461023057806352d1902d1461024357806370a082311461025857600080fd5b8063313ce567116100c6578063313ce567146101925780633659cfe6146101ae57806339509351146101d057806340c10f19146101f057600080fd5b806306fdde03146100f8578063095ea7b31461012357806318160ddd1461015357806323b872dd14610172575b600080fd5b34801561010457600080fd5b5061010d610303565b60405161011a9190610f6f565b60405180910390f35b34801561012f57600080fd5b5061014361013e366004610fbe565b610395565b604051901515815260200161011a565b34801561015f57600080fd5b506002545b60405190815260200161011a565b34801561017e57600080fd5b5061014361018d366004610fe8565b6103af565b34801561019e57600080fd5b506040516012815260200161011a565b3480156101ba57600080fd5b506101ce6101c9366004611025565b6103d3565b005b3480156101dc57600080fd5b506101436101eb366004610fbe565b6104b2565b3480156101fc57600080fd5b506101ce61020b366004610fbe565b6104d4565b34801561021c57600080fd5b506101ce61022b3660046110f0565b6104e2565b6101ce61023e366004611159565b610556565b34801561024f57600080fd5b50610164610619565b34801561026457600080fd5b50610164610273366004611025565b6001600160a01b031660009081526020819052604090205490565b34801561029a57600080fd5b5061010d6106cc565b3480156102af57600080fd5b506101436102be366004610fbe565b6106db565b3480156102cf57600080fd5b506101436102de366004610fbe565b610756565b3480156102ef57600080fd5b506101646102fe3660046111b1565b610764565b606060058054610312906111e4565b80601f016020809104026020016040519081016040528092919081815260200182805461033e906111e4565b801561038b5780601f106103605761010080835404028352916020019161038b565b820191906000526020600020905b81548152906001019060200180831161036e57829003601f168201915b5050505050905090565b6000336103a381858561078f565b60019150505b92915050565b6000336103bd8582856108b3565b6103c885858561092d565b506001949350505050565b6001600160a01b037f00000000000000000000000000000000000000000000000000000000000000001630036104245760405162461bcd60e51b815260040161041b9061121e565b60405180910390fd5b7f00000000000000000000000000000000000000000000000000000000000000006001600160a01b031661046d60008051602061141a833981519152546001600160a01b031690565b6001600160a01b0316146104935760405162461bcd60e51b815260040161041b9061126a565b604080516000808252602082019092526104af91839190610ad1565b50565b6000336103a38185856104c58383610764565b6104cf91906112b6565b61078f565b6104de8282610c3c565b5050565b60075460ff161561052b5760405162461bcd60e51b8152602060048201526013602482015272185b1c9958591e481a5b9a5d1a585b1a5e9959606a1b604482015260640161041b565b6007805460ff1916600117905560056105448382611325565b5060066105518282611325565b505050565b6001600160a01b037f000000000000000000000000000000000000000000000000000000000000000016300361059e5760405162461bcd60e51b815260040161041b9061121e565b7f00000000000000000000000000000000000000000000000000000000000000006001600160a01b03166105e760008051602061141a833981519152546001600160a01b031690565b6001600160a01b03161461060d5760405162461bcd60e51b815260040161041b9061126a565b6104de82826001610ad1565b6000306001600160a01b037f000000000000000000000000000000000000000000000000000000000000000016146106b95760405162461bcd60e51b815260206004820152603860248201527f555550535570677261646561626c653a206d757374206e6f742062652063616c60448201527f6c6564207468726f7567682064656c656761746563616c6c0000000000000000606482015260840161041b565b5060008051602061141a83398151915290565b606060068054610312906111e4565b600033816106e98286610764565b9050838110156107495760405162461bcd60e51b815260206004820152602560248201527f45524332303a2064656372656173656420616c6c6f77616e63652062656c6f77604482015264207a65726f60d81b606482015260840161041b565b6103c8828686840361078f565b6000336103a381858561092d565b6001600160a01b03918216600090815260016020908152604080832093909416825291909152205490565b6001600160a01b0383166107f15760405162461bcd60e51b8152602060048201526024808201527f45524332303a20617070726f76652066726f6d20746865207a65726f206164646044820152637265737360e01b606482015260840161041b565b6001600160a01b0382166108525760405162461bcd60e51b815260206004820152602260248201527f45524332303a20617070726f766520746f20746865207a65726f206164647265604482015261737360f01b606482015260840161041b565b6001600160a01b0383811660008181526001602090815260408083209487168084529482529182902085905590518481527f8c5be1e5ebec7d5bd14f71427d1e84f3dd0314c0f7b2291e5b200ac8c7c3b925910160405180910390a3505050565b60006108bf8484610764565b90506000198114610927578181101561091a5760405162461bcd60e51b815260206004820152601d60248201527f45524332303a20696e73756666696369656e7420616c6c6f77616e6365000000604482015260640161041b565b610927848484840361078f565b50505050565b6001600160a01b0383166109915760405162461bcd60e51b815260206004820152602560248201527f45524332303a207472616e736665722066726f6d20746865207a65726f206164604482015264647265737360d81b606482015260840161041b565b6001600160a01b0382166109f35760405162461bcd60e51b815260206004820152602360248201527f45524332303a207472616e7366657220746f20746865207a65726f206164647260448201526265737360e81b606482015260840161041b565b6001600160a01b03831660009081526020819052604090205481811015610a6b5760405162461bcd60e51b815260206004820152602660248201527f45524332303a207472616e7366657220616d6f756e7420657863656564732062604482015265616c616e636560d01b606482015260840161041b565b6001600160a01b03848116600081815260208181526040808320878703905593871680835291849020805487019055925185815290927fddf252ad1be2c89b69c2b068fc378daa952ba7f163c4a11628f55a4df523b3ef910160405180910390a3610927565b7f4910fdfa16fed3260ed0e7147f7cc6da11a60208b5b9406d12a635614ffd91435460ff1615610b045761055183610cfb565b826001600160a01b03166352d1902d6040518163ffffffff1660e01b8152600401602060405180830381865afa925050508015610b5e575060408051601f3d908101601f19168201909252610b5b918101906113e4565b60015b610bc15760405162461bcd60e51b815260206004820152602e60248201527f45524331393637557067726164653a206e657720696d706c656d656e7461746960448201526d6f6e206973206e6f74205555505360901b606482015260840161041b565b60008051602061141a8339815191528114610c305760405162461bcd60e51b815260206004820152602960248201527f45524331393637557067726164653a20756e737570706f727465642070726f786044820152681a58589b195555525160ba1b606482015260840161041b565b50610551838383610d97565b6001600160a01b038216610c925760405162461bcd60e51b815260206004820152601f60248201527f45524332303a206d696e7420746f20746865207a65726f206164647265737300604482015260640161041b565b8060026000828254610ca491906112b6565b90915550506001600160a01b038216600081815260208181526040808320805486019055518481527fddf252ad1be2c89b69c2b068fc378daa952ba7f163c4a11628f55a4df523b3ef910160405180910390a35050565b6001600160a01b0381163b610d685760405162461bcd60e51b815260206004820152602d60248201527f455243313936373a206e657720696d706c656d656e746174696f6e206973206e60448201526c1bdd08184818dbdb9d1c9858dd609a1b606482015260840161041b565b60008051602061141a83398151915280546001600160a01b0319166001600160a01b0392909216919091179055565b610da083610dbc565b600082511180610dad5750805b15610551576109278383610dfc565b610dc581610cfb565b6040516001600160a01b038216907fbc7cd75a20ee27fd9adebab32041f755214dbc6bffa90cc0225b39da2e5c2d3b90600090a250565b6060610e21838360405180606001604052806027815260200161143a60279139610e28565b9392505050565b6060600080856001600160a01b031685604051610e4591906113fd565b600060405180830381855af49150503d8060008114610e80576040519150601f19603f3d011682016040523d82523d6000602084013e610e85565b606091505b5091509150610e9686838387610ea0565b9695505050505050565b60608315610f0f578251600003610f08576001600160a01b0385163b610f085760405162461bcd60e51b815260206004820152601d60248201527f416464726573733a2063616c6c20746f206e6f6e2d636f6e7472616374000000604482015260640161041b565b5081610f19565b610f198383610f21565b949350505050565b815115610f315781518083602001fd5b8060405162461bcd60e51b815260040161041b9190610f6f565b60005b83811015610f66578181015183820152602001610f4e565b50506000910152565b6020815260008251806020840152610f8e816040850160208701610f4b565b601f01601f19169190910160400192915050565b80356001600160a01b0381168114610fb957600080fd5b919050565b60008060408385031215610fd157600080fd5b610fda83610fa2565b946020939093013593505050565b600080600060608486031215610ffd57600080fd5b61100684610fa2565b925061101460208501610fa2565b929592945050506040919091013590565b60006020828403121561103757600080fd5b610e2182610fa2565b634e487b7160e01b600052604160045260246000fd5b60008067ffffffffffffffff84111561107157611071611040565b50604051601f19601f85018116603f0116810181811067ffffffffffffffff821117156110a0576110a0611040565b6040528381529050808284018510156110b857600080fd5b83836020830137600060208583010152509392505050565b600082601f8301126110e157600080fd5b610e2183833560208501611056565b6000806040838503121561110357600080fd5b823567ffffffffffffffff81111561111a57600080fd5b611126858286016110d0565b925050602083013567ffffffffffffffff81111561114357600080fd5b61114f858286016110d0565b9150509250929050565b6000806040838503121561116c57600080fd5b61117583610fa2565b9150602083013567ffffffffffffffff81111561119157600080fd5b8301601f810185136111a257600080fd5b61114f85823560208401611056565b600080604083850312156111c457600080fd5b6111cd83610fa2565b91506111db60208401610fa2565b90509250929050565b600181811c908216806111f857607f821691505b60208210810361121857634e487b7160e01b600052602260045260246000fd5b50919050565b6020808252602c908201527f46756e6374696f6e206d7573742062652063616c6c6564207468726f7567682060408201526b19195b1959d85d1958d85b1b60a21b606082015260800190565b6020808252602c908201527f46756e6374696f6e206d7573742062652063616c6c6564207468726f7567682060408201526b6163746976652070726f787960a01b606082015260800190565b808201808211156103a957634e487b7160e01b600052601160045260246000fd5b601f82111561055157806000526020600020601f840160051c810160208510156112fe5750805b601f840160051c820191505b8181101561131e576000815560010161130a565b5050505050565b815167ffffffffffffffff81111561133f5761133f611040565b6113538161134d84546111e4565b846112d7565b6020601f821160018114611387576000831561136f5750848201515b600019600385901b1c1916600184901b17845561131e565b600084815260208120601f198516915b828110156113b75787850151825560209485019460019092019101611397565b50848210156113d55786840151600019600387901b60f8161c191681555b50505050600190811b01905550565b6000602082840312156113f657600080fd5b5051919050565b6000825161140f818460208701610f4b565b919091019291505056fe360894a13ba1a3210667c828492db98dca3e2076cc3735a920a3ca505d382bbc416464726573733a206c6f772d6c6576656c2064656c65676174652063616c6c206661696c6564a2646970667358221220baa78d08d08684dd12e3526d18a771d52652bf7909f613ffce4d78562b156c6a64736f6c634300081b0033",
  "linkReferences": {},
  "deployedLinkReferences": {}
}