{
  "_format": "hh-sol-artifact-1",
  "contractName": "FtsoV2PriceStore",
  "sourceName": "contracts/ftso/implementation/FtsoV2PriceStore.sol",
  "abi": [
    {
      "inputs": [
        {
          "internalType": "contract IGovernanceSettings",
          "name": "_governanceSettings",
          "type": "address"
        },
        {
          "internalType": "address",
          "name": "_initialGovernance",
          "type": "address"
        },
        {
          "internalType": "address",
          "name": "_addressUpdater",
          "type": "address"
        },
        {
          "internalType": "uint64",
          "name": "_firstVotingRoundStartTs",
          "type": "uint64"
        },
        {
          "internalType": "uint8",
          "name": "_votingEpochDurationSeconds",
          "type": "uint8"
        },
        {
          "internalType": "uint8",
          "name": "_ftsoProtocolId",
          "type": "uint8"
        }
      ],
      "stateMutability": "nonpayable",
      "type": "constructor"
    },
    {
      "anonymous": false,
      "inputs": [
        {
          "indexed": false,
          "internalType": "bytes",
          "name": "encodedCall",
          "type": "bytes"
        },
        {
          "indexed": false,
          "internalType": "bytes32",
          "name": "encodedCallHash",
          "type": "bytes32"
        },
        {
          "indexed": false,
          "internalType": "uint256",
          "name": "allowedAfterTimestamp",
          "type": "uint256"
        }
      ],
      "name": "GovernanceCallTimelocked",
      "type": "event"
    },
    {
      "anonymous": false,
      "inputs": [
        {
          "indexed": false,
          "internalType": "address",
          "name": "initialGovernance",
          "type": "address"
        }
      ],
      "name": "GovernanceInitialised",
      "type": "event"
    },
    {
      "anonymous": false,
      "inputs": [
        {
          "indexed": false,
          "internalType": "address",
          "name": "governanceSettings",
          "type": "address"
        }
      ],
      "name": "GovernedProductionModeEntered",
      "type": "event"
    },
    {
      "anonymous": false,
      "inputs": [
        {
          "indexed": true,
          "internalType": "uint32",
          "name": "votingRoundId",
          "type": "uint32"
        }
      ],
      "name": "PricesPublished",
      "type": "event"
    },
    {
      "anonymous": false,
      "inputs": [
        {
          "indexed": false,
          "internalType": "bytes32",
          "name": "encodedCallHash",
          "type": "bytes32"
        }
      ],
      "name": "TimelockedGovernanceCallCanceled",
      "type": "event"
    },
    {
      "anonymous": false,
      "inputs": [
        {
          "indexed": false,
          "internalType": "bytes32",
          "name": "encodedCallHash",
          "type": "bytes32"
        }
      ],
      "name": "TimelockedGovernanceCallExecuted",
      "type": "event"
    },
    {
      "inputs": [
        {
          "internalType": "bytes",
          "name": "_encodedCall",
          "type": "bytes"
        }
      ],
      "name": "cancelGovernanceCall",
      "outputs": [],
      "stateMutability": "nonpayable",
      "type": "function"
    },
    {
      "inputs": [
        {
          "internalType": "bytes",
          "name": "_encodedCall",
          "type": "bytes"
        }
      ],
      "name": "executeGovernanceCall",
      "outputs": [],
      "stateMutability": "nonpayable",
      "type": "function"
    },
    {
      "inputs": [],
      "name": "firstVotingRoundStartTs",
      "outputs": [
        {
          "internalType": "uint64",
          "name": "",
          "type": "uint64"
        }
      ],
      "stateMutability": "view",
      "type": "function"
    },
    {
      "inputs": [],
      "name": "ftsoProtocolId",
      "outputs": [
        {
          "internalType": "uint8",
          "name": "",
          "type": "uint8"
        }
      ],
      "stateMutability": "view",
      "type": "function"
    },
    {
      "inputs": [],
      "name": "getAddressUpdater",
      "outputs": [
        {
          "internalType": "address",
          "name": "_addressUpdater",
          "type": "address"
        }
      ],
      "stateMutability": "view",
      "type": "function"
    },
    {
      "inputs": [
        {
          "internalType": "string",
          "name": "_symbol",
          "type": "string"
        }
      ],
      "name": "getFeedId",
      "outputs": [
        {
          "internalType": "bytes21",
          "name": "",
          "type": "bytes21"
        }
      ],
      "stateMutability": "view",
      "type": "function"
    },
    {
      "inputs": [],
      "name": "getFeedIds",
      "outputs": [
        {
          "internalType": "bytes21[]",
          "name": "",
          "type": "bytes21[]"
        }
      ],
      "stateMutability": "view",
      "type": "function"
    },
    {
      "inputs": [],
      "name": "getFeedIdsWithDecimals",
      "outputs": [
        {
          "internalType": "bytes21[]",
          "name": "_feedIds",
          "type": "bytes21[]"
        },
        {
          "internalType": "int8[]",
          "name": "_decimals",
          "type": "int8[]"
        }
      ],
      "stateMutability": "view",
      "type": "function"
    },
    {
      "inputs": [
        {
          "internalType": "string",
          "name": "_symbol",
          "type": "string"
        }
      ],
      "name": "getPrice",
      "outputs": [
        {
          "internalType": "uint256",
          "name": "_price",
          "type": "uint256"
        },
        {
          "internalType": "uint256",
          "name": "_timestamp",
          "type": "uint256"
        },
        {
          "internalType": "uint256",
          "name": "_priceDecimals",
          "type": "uint256"
        }
      ],
      "stateMutability": "view",
      "type": "function"
    },
    {
      "inputs": [
        {
          "internalType": "string",
          "name": "_symbol",
          "type": "string"
        }
      ],
      "name": "getPriceFromTrustedProviders",
      "outputs": [
        {
          "internalType": "uint256",
          "name": "_price",
          "type": "uint256"
        },
        {
          "internalType": "uint256",
          "name": "_timestamp",
          "type": "uint256"
        },
        {
          "internalType": "uint256",
          "name": "_priceDecimals",
          "type": "uint256"
        }
      ],
      "stateMutability": "view",
      "type": "function"
    },
    {
      "inputs": [
        {
          "internalType": "string",
          "name": "_symbol",
          "type": "string"
        }
      ],
      "name": "getPriceFromTrustedProvidersWithQuality",
      "outputs": [
        {
          "internalType": "uint256",
          "name": "_price",
          "type": "uint256"
        },
        {
          "internalType": "uint256",
          "name": "_timestamp",
          "type": "uint256"
        },
        {
          "internalType": "uint256",
          "name": "_priceDecimals",
          "type": "uint256"
        },
        {
          "internalType": "uint8",
          "name": "_numberOfSubmits",
          "type": "uint8"
        }
      ],
      "stateMutability": "view",
      "type": "function"
    },
    {
      "inputs": [],
      "name": "getSymbols",
      "outputs": [
        {
          "internalType": "string[]",
          "name": "_symbols",
          "type": "string[]"
        }
      ],
      "stateMutability": "view",
      "type": "function"
    },
    {
      "inputs": [],
      "name": "getTrustedProviders",
      "outputs": [
        {
          "internalType": "address[]",
          "name": "",
          "type": "address[]"
        }
      ],
      "stateMutability": "view",
      "type": "function"
    },
    {
      "inputs": [],
      "name": "governance",
      "outputs": [
        {
          "internalType": "address",
          "name": "",
          "type": "address"
        }
      ],
      "stateMutability": "view",
      "type": "function"
    },
    {
      "inputs": [],
      "name": "governanceSettings",
      "outputs": [
        {
          "internalType": "contract IGovernanceSettings",
          "name": "",
          "type": "address"
        }
      ],
      "stateMutability": "view",
      "type": "function"
    },
    {
      "inputs": [
        {
          "internalType": "address",
          "name": "_address",
          "type": "address"
        }
      ],
      "name": "isExecutor",
      "outputs": [
        {
          "internalType": "bool",
          "name": "",
          "type": "bool"
        }
      ],
      "stateMutability": "view",
      "type": "function"
    },
    {
      "inputs": [],
      "name": "lastPublishedVotingRoundId",
      "outputs": [
        {
          "internalType": "uint32",
          "name": "",
          "type": "uint32"
        }
      ],
      "stateMutability": "view",
      "type": "function"
    },
    {
      "inputs": [],
      "name": "maxSpreadBIPS",
      "outputs": [
        {
          "internalType": "uint16",
          "name": "",
          "type": "uint16"
        }
      ],
      "stateMutability": "view",
      "type": "function"
    },
    {
      "inputs": [],
      "name": "productionMode",
      "outputs": [
        {
          "internalType": "bool",
          "name": "",
          "type": "bool"
        }
      ],
      "stateMutability": "view",
      "type": "function"
    },
    {
      "inputs": [
        {
          "components": [
            {
              "internalType": "bytes32[]",
              "name": "proof",
              "type": "bytes32[]"
            },
            {
              "components": [
                {
                  "internalType": "uint32",
                  "name": "votingRoundId",
                  "type": "uint32"
                },
                {
                  "internalType": "bytes21",
                  "name": "id",
                  "type": "bytes21"
                },
                {
                  "internalType": "int32",
                  "name": "value",
                  "type": "int32"
                },
                {
                  "internalType": "uint16",
                  "name": "turnoutBIPS",
                  "type": "uint16"
                },
                {
                  "internalType": "int8",
                  "name": "decimals",
                  "type": "int8"
                }
              ],
              "internalType": "struct IPricePublisher.Feed",
              "name": "body",
              "type": "tuple"
            }
          ],
          "internalType": "struct IPricePublisher.FeedWithProof[]",
          "name": "_proofs",
          "type": "tuple[]"
        }
      ],
      "name": "publishPrices",
      "outputs": [],
      "stateMutability": "nonpayable",
      "type": "function"
    },
    {
      "inputs": [],
      "name": "relay",
      "outputs": [
        {
          "internalType": "contract IRelay",
          "name": "",
          "type": "address"
        }
      ],
      "stateMutability": "view",
      "type": "function"
    },
    {
      "inputs": [
        {
          "internalType": "address[]",
          "name": "_trustedProviders",
          "type": "address[]"
        },
        {
          "internalType": "uint8",
          "name": "_trustedProvidersThreshold",
          "type": "uint8"
        }
      ],
      "name": "setTrustedProviders",
      "outputs": [],
      "stateMutability": "nonpayable",
      "type": "function"
    },
    {
      "inputs": [
        {
          "internalType": "uint32",
          "name": "_votingRoundId",
          "type": "uint32"
        },
        {
          "components": [
            {
              "internalType": "bytes21",
              "name": "id",
              "type": "bytes21"
            },
            {
              "internalType": "uint32",
              "name": "value",
              "type": "uint32"
            },
            {
              "internalType": "int8",
              "name": "decimals",
              "type": "int8"
            }
          ],
          "internalType": "struct IPricePublisher.TrustedProviderFeed[]",
          "name": "_feeds",
          "type": "tuple[]"
        }
      ],
      "name": "submitTrustedPrices",
      "outputs": [],
      "stateMutability": "nonpayable",
      "type": "function"
    },
    {
      "inputs": [],
      "name": "submitTrustedPricesWindowSeconds",
      "outputs": [
        {
          "internalType": "uint64",
          "name": "",
          "type": "uint64"
        }
      ],
      "stateMutability": "view",
      "type": "function"
    },
    {
      "inputs": [
        {
          "internalType": "bytes4",
          "name": "_interfaceId",
          "type": "bytes4"
        }
      ],
      "name": "supportsInterface",
      "outputs": [
        {
          "internalType": "bool",
          "name": "",
          "type": "bool"
        }
      ],
      "stateMutability": "pure",
      "type": "function"
    },
    {
      "inputs": [],
      "name": "switchToProductionMode",
      "outputs": [],
      "stateMutability": "nonpayable",
      "type": "function"
    },
    {
      "inputs": [],
      "name": "trustedProvidersThreshold",
      "outputs": [
        {
          "internalType": "uint8",
          "name": "",
          "type": "uint8"
        }
      ],
      "stateMutability": "view",
      "type": "function"
    },
    {
      "inputs": [
        {
          "internalType": "bytes32[]",
          "name": "_contractNameHashes",
          "type": "bytes32[]"
        },
        {
          "internalType": "address[]",
          "name": "_contractAddresses",
          "type": "address[]"
        }
      ],
      "name": "updateContractAddresses",
      "outputs": [],
      "stateMutability": "nonpayable",
      "type": "function"
    },
    {
      "inputs": [
        {
          "internalType": "bytes21[]",
          "name": "_feedIds",
          "type": "bytes21[]"
        },
        {
          "internalType": "string[]",
          "name": "_symbols",
          "type": "string[]"
        },
        {
          "internalType": "int8[]",
          "name": "_trustedDecimals",
          "type": "int8[]"
        },
        {
          "internalType": "uint16",
          "name": "_maxSpreadBIPS",
          "type": "uint16"
        }
      ],
      "name": "updateSettings",
      "outputs": [],
      "stateMutability": "nonpayable",
      "type": "function"
    },
    {
      "inputs": [],
      "name": "votingEpochDurationSeconds",
      "outputs": [
        {
          "internalType": "uint64",
          "name": "",
          "type": "uint64"
        }
      ],
      "stateMutability": "view",
      "type": "function"
    }
  ],
  "bytecode": "0x61010060405234801561001157600080fd5b50604051613e63380380613e6383398101604081905261003091610377565b83868661003d828261017a565b506100689050817f714f205b2abd25bef1d06a1af944e38c113fe6160375c4e1d6d5cf28848e771955565b504261007760ff841685610418565b6001600160401b031611156100c85760405162461bcd60e51b8152602060048201526012602482015271696e76616c69642073746172742074696d6560701b60448201526064015b60405180910390fd5b60018260ff161161011b5760405162461bcd60e51b815260206004820152601f60248201527f766f74696e672065706f6368206475726174696f6e20746f6f2073686f72740060448201526064016100bf565b6001600160401b03831660805260ff821660a05261013a600283610453565b60ff90811660c052811660e05261014f610309565b600860176101000a81548163ffffffff021916908363ffffffff1602179055505050505050506104b8565b7f2aa47ee5db910f3b2a06970c443249cc77dbd9f96100cfebc1775ab7fb1d18248054600160a01b900460ff16156101f45760405162461bcd60e51b815260206004820152601460248201527f696e697469616c6973656420213d2066616c736500000000000000000000000060448201526064016100bf565b6001600160a01b03831661024a5760405162461bcd60e51b815260206004820152601860248201527f676f7665726e616e63652073657474696e6773207a65726f000000000000000060448201526064016100bf565b6001600160a01b0382166102935760405162461bcd60e51b815260206004820152601060248201526f5f676f7665726e616e6365207a65726f60801b60448201526064016100bf565b80546001600160a01b038481166001600160a81b031990921691909117600160a01b1782556001820180549184166001600160a01b0319909216821790556040519081527f9789733827840833afc031fb2ef9ab6894271f77bad2085687cf4ae5c7bee4db9060200160405180910390a1505050565b6000600160a0516001600160401b03166080516001600160401b0316426103309190610475565b61033a9190610488565b610344919061049c565b905090565b6001600160a01b038116811461035e57600080fd5b50565b805160ff8116811461037257600080fd5b919050565b60008060008060008060c0878903121561039057600080fd5b865161039b81610349565b60208801519096506103ac81610349565b60408801519095506103bd81610349565b60608801519094506001600160401b03811681146103da57600080fd5b92506103e860808801610361565b91506103f660a08801610361565b90509295509295509295565b634e487b7160e01b600052601160045260246000fd5b6001600160401b03818116838216019081111561043757610437610402565b92915050565b634e487b7160e01b600052601260045260246000fd5b600060ff8316806104665761046661043d565b8060ff84160491505092915050565b8181038181111561043757610437610402565b6000826104975761049761043d565b500490565b63ffffffff828116828216039081111561043757610437610402565b60805160a05160c05160e051613941610522600039600081816103bf015261153f015260008181610398015281816112d10152611b890152600081816103070152818161223f01526122ad0152600081816105360152818161228201526122d701526139416000f3fe608060405234801561001057600080fd5b50600436106101da5760003560e01c8063a036aa4711610104578063debfda30116100a2578063e4a0a55b11610071578063e4a0a55b146104e8578063e731a1bc146104fb578063e8d0e70a14610531578063f5a983831461055857600080fd5b8063debfda301461048e578063df7f710e146104a1578063e05372ff146104b6578063e17f212e146104c957600080fd5b8063b44cd1ba116100de578063b44cd1ba14610426578063b59589d11461044c578063c88987dc14610466578063cea648a51461047b57600080fd5b8063a036aa47146103f3578063a83bf08d14610400578063b00c0b761461041357600080fd5b80635267a15d1161017c57806362354e031161014b57806362354e03146103495780636512bf1d1461036757806367776a2b146103935780636c2b111f146103ba57600080fd5b80635267a15d1461029b5780635a07ad13146102d65780635a832088146103025780635aa6e6751461034157600080fd5b806319f6e807116101b857806319f6e8071461023157806320c5f99d1461024757806337e4bfc31461025a578063524f38891461026d57600080fd5b806301ffc9a7146101df5780630c518dce1461020757806316fc2f6d1461021c575b600080fd5b6101f26101ed3660046129f1565b610560565b60405190151581526020015b60405180910390f35b61020f6105b2565b6040516101fe9190612a61565b61022f61022a366004612a74565b610618565b005b610239610700565b6040516101fe929190612ae6565b61022f610255366004612a74565b610840565b61022f610268366004612b8e565b610a2f565b61028061027b366004612c30565b610bdc565b604080519384526020840192909252908201526060016101fe565b7f714f205b2abd25bef1d06a1af944e38c113fe6160375c4e1d6d5cf28848e7719545b6040516001600160a01b0390911681526020016101fe565b6008546102ed90600160b81b900463ffffffff1681565b60405163ffffffff90911681526020016101fe565b6103297f000000000000000000000000000000000000000000000000000000000000000081565b6040516001600160401b0390911681526020016101fe565b6102be610cb4565b6000805160206138ec833981519152546001600160a01b03166102be565b61037a610375366004612c30565b610d5d565b6040516001600160581b031990911681526020016101fe565b6103297f000000000000000000000000000000000000000000000000000000000000000081565b6103e17f000000000000000000000000000000000000000000000000000000000000000081565b60405160ff90911681526020016101fe565b6008546103e19060ff1681565b61022f61040e366004612cdf565b610d88565b61022f610421366004612e41565b611092565b60085461043990610100900461ffff1681565b60405161ffff90911681526020016101fe565b6008546102be90630100000090046001600160a01b031681565b61046e611171565b6040516101fe9190612f01565b61022f610489366004612f4d565b6111d2565b6101f261049c366004612f8e565b611872565b6104a961190c565b6040516101fe9190612ffb565b61022f6104c4366004613074565b611a5d565b6000805160206138ec83398151915254600160a81b900460ff166101f2565b6102806104f6366004612c30565b611e3d565b61050e610509366004612c30565b611ec0565b6040805194855260208501939093529183015260ff1660608201526080016101fe565b6103297f000000000000000000000000000000000000000000000000000000000000000081565b61022f611f52565b60006001600160e01b031982166301ffc9a760e01b148061059157506001600160e01b031982166328ef1e3760e11b145b806105ac57506001600160e01b0319821663126d859760e21b145b92915050565b6060600080548060200260200160405190810160405280929190818152602001828054801561060e57602002820191906000526020600020905b815460581b6001600160581b03191681526001909101906020018083116105ec575b5050505050905090565b610620612026565b6040516000805160206138ec8339815191529060009061064390859085906130fa565b60405180910390209050816002016000828152602001908152602001600020546000036106b75760405162461bcd60e51b815260206004820152601a60248201527f74696d656c6f636b3a20696e76616c69642073656c6563746f7200000000000060448201526064015b60405180910390fd5b6040518181527f69b058d6225c01c1f2a25801ca5b05705fa2e9118e93d518390ba804398c87b19060200160405180910390a16000908152600290910160205260408120555050565b606080600080548060200260200160405190810160405280929190818152602001828054801561075d57602002820191906000526020600020905b815460581b6001600160581b031916815260019091019060200180831161073b575b5050505050915081516001600160401b0381111561077d5761077d612bea565b6040519080825280602002602001820160405280156107a6578160200160208202803683370190505b50905060005b825181101561083b57600360008483815181106107cb576107cb61310a565b60200260200101516affffffffffffffffffffff19166affffffffffffffffffffff1916815260200190815260200160002060000160119054906101000a900460000b8282815181106108205761082061310a565b60009290920b602092830291909101909101526001016107ac565b509091565b6000805160206138ec83398151915261085833611872565b6108945760405162461bcd60e51b815260206004820152600d60248201526c37b7363c9032bc32b1baba37b960991b60448201526064016106ae565b600083836040516108a69291906130fa565b604080519182900390912060008181526002850160205291822054909250908190036109145760405162461bcd60e51b815260206004820152601a60248201527f74696d656c6f636b3a20696e76616c69642073656c6563746f7200000000000060448201526064016106ae565b804210156109645760405162461bcd60e51b815260206004820152601960248201527f74696d656c6f636b3a206e6f7420616c6c6f776564207965740000000000000060448201526064016106ae565b6000828152600284016020526040808220829055845460ff60b01b1916600160b01b17855551309061099990889088906130fa565b6000604051808303816000865af19150503d80600081146109d6576040519150601f19603f3d011682016040523d82523d6000602084013e6109db565b606091505b5050845460ff60b01b191685556040518481529091507fec1225e5a8a8acb91e03ce648c683c74f5d152a775b9715980999441d714c44f9060200160405180910390a1610a2781612082565b505050505050565b610a3761209f565b15610bca57610a446120d5565b6101008210610a955760405162461bcd60e51b815260206004820152601a60248201527f746f6f206d616e7920747275737465642070726f76696465727300000000000060448201526064016106ae565b60ff8116821015610add5760405162461bcd60e51b81526020600482015260126024820152710e8d0e4cae6d0ded8c840e8dede40d0d2ced60731b60448201526064016106ae565b6008805460ff191660ff831617905560005b600654811015610b4e5760006007600060068481548110610b1257610b1261310a565b6000918252602080832091909101546001600160a01b031683528201929092526040019020805460ff1916911515919091179055600101610aef565b50610b5b600684846128fa565b5060005b82811015610bc457600160076000868685818110610b7f57610b7f61310a565b9050602002016020810190610b949190612f8e565b6001600160a01b031681526020810191909152604001600020805460ff1916911515919091179055600101610b5f565b50505050565b610bd7600036600061211c565b505050565b600080600080600185604051610bf29190613120565b9081526040519081900360200190205460581b90506001600160581b03198116610c2e5760405162461bcd60e51b81526004016106ae9061313c565b6001600160581b031981166000908152600360205260409020805463ffffffff640100000000820481169650610c649116612233565b8154909450600160401b9004600090810b90811215610ca65760009350610c8a81613180565b610c9590600a613283565b610c9f908761328f565b9550610caa565b8093505b5050509193909250565b6000805160206138ec833981519152805460009190600160a81b900460ff16610cea5760018101546001600160a01b0316610d57565b805460408051631cc9492560e21b815290516001600160a01b03909216916373252494916004808201926020929091908290030181865afa158015610d33573d6000803e3d6000fd5b505050506040513d601f19601f82011682018060405250810190610d5791906132a6565b91505090565b6000600182604051610d6f9190613120565b9081526040519081900360200190205460581b92915050565b610d9061209f565b1561107c57610d9d6120d5565b8584148015610dab57508582145b610de95760405162461bcd60e51b815260206004820152600f60248201526e0d8cadccee8d040dad2e6dac2e8c6d608b1b60448201526064016106ae565b6127108161ffff161115610e345760405162461bcd60e51b81526020600482015260126024820152716d61782073707265616420746f6f2062696760701b60448201526064016106ae565b6008805462ffff00191661010061ffff841602179055610e5660008888612959565b5060005b86811015611076576000888883818110610e7657610e7661310a565b9050602002016020810190610e8b91906132db565b9050806001888885818110610ea257610ea261310a565b9050602002810190610eb491906132f6565b604051610ec29291906130fa565b908152604051908190036020019020805460589290921c6001600160a81b0319909216919091179055868683818110610efd57610efd61310a565b9050602002810190610f0f91906132f6565b6001600160581b03198316600090815260026020526040902091610f349190836133c4565b506001600160581b031981166000908152600360205260409020858584818110610f6057610f6061310a565b9050602002016020810190610f759190613495565b8154600160881b9004600090810b91900b1461106c57858584818110610f9d57610f9d61310a565b9050602002016020810190610fb29190613495565b815471ffffffffffffffffff0000000000000000001916600160881b60ff929092169190910267ffffffffffffffff60481b19161781556008546000906110089063ffffffff600160b81b9091041660016134b0565b90505b6110136122a7565b63ffffffff168163ffffffff161161106a576001600160581b03198316600090815260046020908152604080832063ffffffff851684529091528120611058916129a6565b80611062816134cc565b91505061100b565b505b5050600101610e5a565b50611089565b611089600036600061211c565b50505050505050565b7f714f205b2abd25bef1d06a1af944e38c113fe6160375c4e1d6d5cf28848e7719546001600160a01b0316336001600160a01b03161461110b5760405162461bcd60e51b815260206004820152601460248201527337b7363c9030b2323932b9b9903ab83230ba32b960611b60448201526064016106ae565b61116361113f83836040518060400160405280600e81526020016d20b2323932b9b9aab83230ba32b960911b815250612323565b7f714f205b2abd25bef1d06a1af944e38c113fe6160375c4e1d6d5cf28848e771955565b61116d82826123f4565b5050565b6060600680548060200260200160405190810160405280929190818152602001828054801561060e57602002820191906000526020600020905b81546001600160a01b031681526001909101906020018083116111ab575050505050905090565b60008054821461121d5760405162461bcd60e51b815260206004820152601660248201527577726f6e67206e756d626572206f662070726f6f667360501b60448201526064016106ae565b60005b82811015610bc4573684848381811061123b5761123b61310a565b905060200281019061124d91906134f1565b90506020810160008390036113b2576112696020820182613507565b60085490945063ffffffff600160b81b9091048116908516116112ce5760405162461bcd60e51b815260206004820181905260248201527f286e65776572292070726963657320616c7265616479207075626c697368656460448201526064016106ae565b427f00000000000000000000000000000000000000000000000000000000000000006001600160401b03166113088663ffffffff16612233565b6113129190613522565b11156113605760405162461bcd60e51b815260206004820181905260248201527f7375626d697373696f6e2077696e646f77206e6f7420636c6f7365642079657460448201526064016106ae565b6008805463ffffffff60b81b1916600160b81b63ffffffff8716908102919091179091556040517f46e3fc5e4e4ccb87b783c134ecaf8dc9e6207f10034ec05f74c24007fcc2e2d190600090a2611414565b63ffffffff84166113c66020830183613507565b63ffffffff16146114145760405162461bcd60e51b81526020600482015260186024820152770ecdee8d2dcce40e4deeadcc840d2c840dad2e6dac2e8c6d60431b60448201526064016106ae565b60008084815481106114285761142861310a565b6000918252602091829020015460581b91506001600160581b031982169061145690604085019085016132db565b6001600160581b031916146114a05760405162461bcd60e51b815260206004820152601060248201526f0cccacac840d2c840dad2e6dac2e8c6d60831b60448201526064016106ae565b60006114b26060840160408501613547565b60030b12156115035760405162461bcd60e51b815260206004820152601a60248201527f76616c7565206d757374206265206e6f6e2d6e6567617469766500000000000060448201526064016106ae565b6000826040516020016115169190613562565b60408051808303601f190181529082905280516020909101206008546239436b60e81b835260ff7f000000000000000000000000000000000000000000000000000000000000000016600484015263ffffffff8916602484015290925060009163010000009091046001600160a01b0316906339436b0090604401602060405180830381865afa1580156115ae573d6000803e3d6000fd5b505050506040513d601f19601f820116820180604052508101906115d291906135d5565b90506115ec81836115e388806135ee565b90929091612446565b61162f5760405162461bcd60e51b81526020600482015260146024820152731b595c9adb19481c1c9bdbd9881a5b9d985b1a5960621b60448201526064016106ae565b6001600160581b0319831660009081526003602090815260409091209061165890860186613507565b815463ffffffff191663ffffffff9190911617815561167d6060860160408701613547565b815463ffffffff919091166401000000000267ffffffff00000000199091161781556116af60a0860160808701613495565b815460ff91909116600160401b0268ff0000000000000000199091161781556001600160581b03198416600090815260046020908152604080832063ffffffff8c168452909152812080546117039061333c565b80601f016020809104026020016040519081016040528092919081815260200182805461172f9061333c565b801561177c5780601f106117515761010080835404028352916020019161177c565b820191906000526020600020905b81548152906001019060200180831161175f57829003601f168201915b50505050509050600081511180156117a857506008546117a09060ff166004613637565b60ff16815110155b1561185f576000806117b98361245e565b91509150801561182957835463ffffffff838116600160681b0263ffffffff60681b19918e16600160481b029190911667ffffffffffffffff60481b1990921691909117178455825161180e90600490613670565b845460ff91909116600160901b0260ff60901b199091161784555b6001600160581b03198716600090815260046020908152604080832063ffffffff8f168452909152812061185c916129a6565b50505b5050600190950194506112209350505050565b6000805160206138ec833981519152805460009190600160a01b900460ff16801561190557508054604051630debfda360e41b81526001600160a01b0385811660048301529091169063debfda3090602401602060405180830381865afa1580156118e1573d6000803e3d6000fd5b505050506040513d601f19601f820116820180604052508101906119059190613684565b9392505050565b6000546060906001600160401b0381111561192957611929612bea565b60405190808252806020026020018201604052801561195c57816020015b60608152602001906001900390816119475790505b50905060005b600054811015611a5957600260008083815481106119825761198261310a565b60009182526020808320919091015460581b6001600160581b0319168352820192909252604001902080546119b69061333c565b80601f01602080910402602001604051908101604052809291908181526020018280546119e29061333c565b8015611a2f5780601f10611a0457610100808354040283529160200191611a2f565b820191906000526020600020905b815481529060010190602001808311611a1257829003601f168201915b5050505050828281518110611a4657611a4661310a565b6020908102919091010152600101611962565b5090565b3360009081526007602052604090205460ff16611ab45760405162461bcd60e51b815260206004820152601560248201527437b7363c903a393ab9ba32b210383937bb34b232b960591b60448201526064016106ae565b6000548114611b055760405162461bcd60e51b815260206004820152601b60248201527f616c6c20707269636573206d7573742062652070726f7669646564000000000060448201526064016106ae565b6000611b0f6122a7565b90508063ffffffff168463ffffffff1614611b675760405162461bcd60e51b81526020600482015260186024820152770ecdee8d2dcce40e4deeadcc840d2c840dad2e6dac2e8c6d60431b60448201526064016106ae565b6000611b788263ffffffff16612233565b90506000611baf6001600160401b037f00000000000000000000000000000000000000000000000000000000000000001683613522565b9050814210158015611bc057508042105b611c0c5760405162461bcd60e51b815260206004820152601860248201527f7375626d697373696f6e2077696e646f7720636c6f736564000000000000000060448201526064016106ae565b3360009081526005602052604090205463ffffffff841611611c645760405162461bcd60e51b8152602060048201526011602482015270185b1c9958591e481cdd589b5a5d1d1959607a1b60448201526064016106ae565b33600090815260056020526040812063ffffffff851690555b848110156110895736868683818110611c9857611c9861310a565b90506060020190506000808381548110611cb457611cb461310a565b6000918252602091829020015460581b91506001600160581b0319821690611cde908401846132db565b6001600160581b03191614611d285760405162461bcd60e51b815260206004820152601060248201526f0cccacac840d2c840dad2e6dac2e8c6d60831b60448201526064016106ae565b6001600160581b0319811660009081526003602052604080822054600160881b900490910b90611d5e9060608501908501613495565b60000b14611da25760405162461bcd60e51b81526020600482015260116024820152700c8cac6d2dac2d8e640dad2e6dac2e8c6d607b1b60448201526064016106ae565b6001600160581b03198116600090815260046020908152604080832063ffffffff8a16845282529182902091611ddd91908501908501613507565b60e01b604051602001611df19291906136a6565b60408051601f198184030181529181526001600160581b0319831660009081526004602090815282822063ffffffff8b16835290522090611e32908261372c565b505050600101611c7d565b600080600080600185604051611e539190613120565b9081526040519081900360200190205460581b90506001600160581b03198116611e8f5760405162461bcd60e51b81526004016106ae9061313c565b6001600160581b031981166000908152600360205260409020611eb181612816565b91989097509095509350505050565b6000806000806000600186604051611ed89190613120565b9081526040519081900360200190205460581b90506001600160581b03198116611f145760405162461bcd60e51b81526004016106ae9061313c565b6001600160581b031981166000908152600360205260409020611f3681612816565b92549199909850919650600160901b900460ff16945092505050565b611f5a612026565b6000805160206138ec8339815191528054600160a81b900460ff1615611fc25760405162461bcd60e51b815260206004820152601a60248201527f616c726561647920696e2070726f64756374696f6e206d6f646500000000000060448201526064016106ae565b6001810180546001600160a01b03191690558054600160a81b60ff60a81b1982161782556040516001600160a01b0390911681527f83af113638b5422f9e977cebc0aaf0eaf2188eb9a8baae7f9d46c42b33a1560c9060200160405180910390a150565b61202e610cb4565b6001600160a01b0316336001600160a01b0316146120805760405162461bcd60e51b815260206004820152600f60248201526e6f6e6c7920676f7665726e616e636560881b60448201526064016106ae565b565b3d604051818101604052816000823e821561209b578181f35b8181fd5b6000805160206138ec833981519152805460009190600160b01b900460ff1680610d57575054600160a81b900460ff1615919050565b6000805160206138ec8339815191528054600160b01b900460ff161561211157333014612104576121046137ea565b805460ff60b01b19169055565b612119612026565b50565b6000805160206138ec833981519152612133612026565b600084846040516121459291906130fa565b604080519182900382208454636221a54b60e01b845291519093506000926001600160a01b0390921691636221a54b9160048083019260209291908290030181865afa158015612199573d6000803e3d6000fd5b505050506040513d601f19601f820116820180604052508101906121bd91906135d5565b9050838110156121ca5750825b60006121d68242613522565b600084815260028601602052604090819020829055519091507f8c02104dfc280f713854f25297de671710c544c58de69dbde8fb66974ce1ab9e90612222908990899087908690613800565b60405180910390a150505050505050565b60006001600160401b037f00000000000000000000000000000000000000000000000000000000000000001661226a836001613522565b612274919061328f565b6105ac906001600160401b037f000000000000000000000000000000000000000000000000000000000000000016613522565b600060017f00000000000000000000000000000000000000000000000000000000000000006001600160401b03167f00000000000000000000000000000000000000000000000000000000000000006001600160401b03164261230a9190613840565b6123149190613670565b61231e9190613853565b905090565b60008082604051602001612337919061386f565b6040516020818303038152906040528051906020012090506000805b86518110156123a55786818151811061236e5761236e61310a565b6020026020010151830361239d5785818151811061238e5761238e61310a565b602002602001015191506123a5565b600101612353565b506001600160a01b0381166123eb5760405162461bcd60e51b815260206004820152600c60248201526b61646472657373207a65726f60a01b60448201526064016106ae565b95945050505050565b61241c82826040518060400160405280600581526020016452656c617960d81b815250612323565b600860036101000a8154816001600160a01b0302191690836001600160a01b031602179055505050565b60008261245486868561288c565b1495945050505050565b80516000908190801580159061247c575061247a600482613882565b155b612488576124886137ea565b612493600482613670565b90506000816001600160401b038111156124af576124af612bea565b6040519080825280602002602001820160405280156124d8578160200160208202803683370190505b50905060005b828110156125af5760408051600480825281830190925260009160208201818036833701905050905060005b600481101561257657878161252085600461328f565b61252a9190613522565b8151811061253a5761253a61310a565b602001015160f81c60f81b8282815181106125575761255761310a565b60200101906001600160f81b031916908160001a90535060010161250a565b5061258081613896565b60e01c63ffffffff1683838151811061259b5761259b61310a565b6020908102919091010152506001016124de565b5060015b828110156126915760008282815181106125cf576125cf61310a565b6020026020010151905060008290505b600081118015612611575081846125f7600184613840565b815181106126075761260761310a565b6020026020010151115b156126695783612622600183613840565b815181106126325761263261310a565b602002602001015184828151811061264c5761264c61310a565b602090810291909101015280612661816138d4565b9150506125df565b8184828151811061267c5761267c61310a565b602090810291909101015250506001016125b3565b506000806126a0600285613670565b90506126ad600285613882565b600103612740578281815181106126c6576126c661310a565b602002602001015195506003841061273b576002836126e6600184613840565b815181106126f6576126f661310a565b60200260200101518483600161270c9190613522565b8151811061271c5761271c61310a565b602002602001015161272e9190613840565b6127389190613670565b91505b6127e3565b60028382815181106127545761275461310a565b60200260200101518460018461276a9190613840565b8151811061277a5761277a61310a565b602002602001015161278c9190613522565b6127969190613670565b9550826127a4600183613840565b815181106127b4576127b461310a565b60200260200101518382815181106127ce576127ce61310a565b60200260200101516127e09190613840565b91505b600854612710906127fe908890610100900461ffff1661328f565b6128089190613670565b821115945050505050915091565b805463ffffffff600160681b8204811691600091829161283e91600160481b90910416612233565b8454909250600160881b9004600090810b90811215612880576000915061286481613180565b61286f90600a613283565b612879908561328f565b9350612884565b8091505b509193909250565b600081815b848110156128c5576128bb828787848181106128af576128af61310a565b905060200201356128ce565b9150600101612891565b50949350505050565b60008183106128ea576000828152602084905260409020611905565b5060009182526020526040902090565b82805482825590600052602060002090810192821561294d579160200282015b8281111561294d5781546001600160a01b0319166001600160a01b0384351617825560209092019160019091019061291a565b50611a599291506129dc565b82805482825590600052602060002090810192821561294d579160200282015b8281111561294d5781546001600160a81b031916833560581c178255602090920191600190910190612979565b5080546129b29061333c565b6000825580601f106129c2575050565b601f01602090049060005260206000209081019061211991905b5b80821115611a5957600081556001016129dd565b600060208284031215612a0357600080fd5b81356001600160e01b03198116811461190557600080fd5b600081518084526020840193506020830160005b82811015612a575781516001600160581b031916865260209586019590910190600101612a2f565b5093949350505050565b6020815260006119056020830184612a1b565b60008060208385031215612a8757600080fd5b82356001600160401b03811115612a9d57600080fd5b8301601f81018513612aae57600080fd5b80356001600160401b03811115612ac457600080fd5b856020828401011115612ad657600080fd5b6020919091019590945092505050565b604081526000612af96040830185612a1b565b828103602084015280845180835260208301915060208601925060005b81811015612b3757835160000b835260209384019390920191600101612b16565b50909695505050505050565b60008083601f840112612b5557600080fd5b5081356001600160401b03811115612b6c57600080fd5b6020830191508360208260051b8501011115612b8757600080fd5b9250929050565b600080600060408486031215612ba357600080fd5b83356001600160401b03811115612bb957600080fd5b612bc586828701612b43565b909450925050602084013560ff81168114612bdf57600080fd5b809150509250925092565b634e487b7160e01b600052604160045260246000fd5b604051601f8201601f191681016001600160401b0381118282101715612c2857612c28612bea565b604052919050565b600060208284031215612c4257600080fd5b81356001600160401b03811115612c5857600080fd5b8201601f81018413612c6957600080fd5b80356001600160401b03811115612c8257612c82612bea565b612c95601f8201601f1916602001612c00565b818152856020838501011115612caa57600080fd5b81602084016020830137600091810160200191909152949350505050565b803561ffff81168114612cda57600080fd5b919050565b60008060008060008060006080888a031215612cfa57600080fd5b87356001600160401b03811115612d1057600080fd5b612d1c8a828b01612b43565b90985096505060208801356001600160401b03811115612d3b57600080fd5b612d478a828b01612b43565b90965094505060408801356001600160401b03811115612d6657600080fd5b612d728a828b01612b43565b9094509250612d85905060608901612cc8565b905092959891949750929550565b60006001600160401b03821115612dac57612dac612bea565b5060051b60200190565b6001600160a01b038116811461211957600080fd5b600082601f830112612ddc57600080fd5b8135612def612dea82612d93565b612c00565b8082825260208201915060208360051b860101925085831115612e1157600080fd5b602085015b83811015612e37578035612e2981612db6565b835260209283019201612e16565b5095945050505050565b60008060408385031215612e5457600080fd5b82356001600160401b03811115612e6a57600080fd5b8301601f81018513612e7b57600080fd5b8035612e89612dea82612d93565b8082825260208201915060208360051b850101925087831115612eab57600080fd5b6020840193505b82841015612ecd578335825260209384019390910190612eb2565b945050505060208301356001600160401b03811115612eeb57600080fd5b612ef785828601612dcb565b9150509250929050565b602080825282518282018190526000918401906040840190835b81811015612f425783516001600160a01b0316835260209384019390920191600101612f1b565b509095945050505050565b60008060208385031215612f6057600080fd5b82356001600160401b03811115612f7657600080fd5b612f8285828601612b43565b90969095509350505050565b600060208284031215612fa057600080fd5b813561190581612db6565b60005b83811015612fc6578181015183820152602001612fae565b50506000910152565b60008151808452612fe7816020860160208601612fab565b601f01601f19169290920160200192915050565b6000602082016020835280845180835260408501915060408160051b86010192506020860160005b8281101561305457603f1987860301845261303f858351612fcf565b94506020938401939190910190600101613023565b50929695505050505050565b803563ffffffff81168114612cda57600080fd5b60008060006040848603121561308957600080fd5b61309284613060565b925060208401356001600160401b038111156130ad57600080fd5b8401601f810186136130be57600080fd5b80356001600160401b038111156130d457600080fd5b8660206060830284010111156130e957600080fd5b939660209190910195509293505050565b8183823760009101908152919050565b634e487b7160e01b600052603260045260246000fd5b60008251613132818460208701612fab565b9190910192915050565b6020808252601490820152731cde5b589bdb081b9bdd081cdd5c1c1bdc9d195960621b604082015260600190565b634e487b7160e01b600052601160045260246000fd5b6000600160ff1b82016131955761319561316a565b5060000390565b6001815b60018411156131d7578085048111156131bb576131bb61316a565b60018416156131c957908102905b60019390931c9280026131a0565b935093915050565b6000826131ee575060016105ac565b816131fb575060006105ac565b8160018114613211576002811461321b57613237565b60019150506105ac565b60ff84111561322c5761322c61316a565b50506001821b6105ac565b5060208310610133831016604e8410600b841016171561325a575081810a6105ac565b613267600019848461319c565b806000190482111561327b5761327b61316a565b029392505050565b600061190583836131df565b80820281158282048414176105ac576105ac61316a565b6000602082840312156132b857600080fd5b815161190581612db6565b80356001600160581b031981168114612cda57600080fd5b6000602082840312156132ed57600080fd5b611905826132c3565b6000808335601e1984360301811261330d57600080fd5b8301803591506001600160401b0382111561332757600080fd5b602001915036819003821315612b8757600080fd5b600181811c9082168061335057607f821691505b60208210810361337057634e487b7160e01b600052602260045260246000fd5b50919050565b601f821115610bd757806000526020600020601f840160051c8101602085101561339d5750805b601f840160051c820191505b818110156133bd57600081556001016133a9565b5050505050565b6001600160401b038311156133db576133db612bea565b6133ef836133e9835461333c565b83613376565b6000601f841160018114613423576000851561340b5750838201355b600019600387901b1c1916600186901b1783556133bd565b600083815260209020601f19861690835b828110156134545786850135825560209485019460019092019101613434565b50868210156134715760001960f88860031b161c19848701351681555b505060018560011b0183555050505050565b8035600081900b8114612cda57600080fd5b6000602082840312156134a757600080fd5b61190582613483565b63ffffffff81811683821601908111156105ac576105ac61316a565b600063ffffffff821663ffffffff81036134e8576134e861316a565b60010192915050565b6000823560be1983360301811261313257600080fd5b60006020828403121561351957600080fd5b61190582613060565b808201808211156105ac576105ac61316a565b8035600381900b8114612cda57600080fd5b60006020828403121561355957600080fd5b61190582613535565b60a0810163ffffffff61357484613060565b1682526001600160581b031961358c602085016132c3565b16602083015261359e60408401613535565b60030b604083015261ffff6135b560608501612cc8565b1660608301526135c760808401613483565b60000b608083015292915050565b6000602082840312156135e757600080fd5b5051919050565b6000808335601e1984360301811261360557600080fd5b8301803591506001600160401b0382111561361f57600080fd5b6020019150600581901b3603821315612b8757600080fd5b60ff81811683821602908116908181146136535761365361316a565b5092915050565b634e487b7160e01b600052601260045260246000fd5b60008261367f5761367f61365a565b500490565b60006020828403121561369657600080fd5b8151801515811461190557600080fd5b60008084546136b48161333c565b6001821680156136cb57600181146136e057613710565b60ff1983168652811515820286019350613710565b87600052602060002060005b83811015613708578154888201526001909101906020016136ec565b505081860193505b5050506001600160e01b03199390931683525050600401919050565b81516001600160401b0381111561374557613745612bea565b61375981613753845461333c565b84613376565b6020601f82116001811461378d57600083156137755750848201515b600019600385901b1c1916600184901b1784556133bd565b600084815260208120601f198516915b828110156137bd578785015182556020948501946001909201910161379d565b50848210156137db5786840151600019600387901b60f8161c191681555b50505050600190811b01905550565b634e487b7160e01b600052600160045260246000fd5b606081528360608201528385608083013760006080858301015260006080601f19601f870116830101905083602083015282604083015295945050505050565b818103818111156105ac576105ac61316a565b63ffffffff82811682821603908111156105ac576105ac61316a565b6020815260006119056020830184612fcf565b6000826138915761389161365a565b500690565b805160208201516001600160e01b03198116919060048210156138cd576001600160e01b0319600483900360031b81901b82161692505b5050919050565b6000816138e3576138e361316a565b50600019019056fe2aa47ee5db910f3b2a06970c443249cc77dbd9f96100cfebc1775ab7fb1d1824a2646970667358221220b2079a2afa209139982019f0f624a607d25a9fdde7d0f8b4b426f8d52ceab4ec64736f6c634300081b0033",
  "linkReferences": {},
  "deployedLinkReferences": {}
}