{
  "_format": "hh-sol-artifact-1",
  "contractName": "FtsoV2PriceStore",
  "sourceName": "contracts/ftso/implementation/FtsoV2PriceStore.sol",
  "abi": [
    {
      "inputs": [
        {
          "internalType": "contract IGovernanceSettings",
          "name": "_governanceSettings",
          "type": "address"
        },
        {
          "internalType": "address",
          "name": "_initialGovernance",
          "type": "address"
        },
        {
          "internalType": "address",
          "name": "_addressUpdater",
          "type": "address"
        },
        {
          "internalType": "uint64",
          "name": "_firstVotingRoundStartTs",
          "type": "uint64"
        },
        {
          "internalType": "uint8",
          "name": "_votingEpochDurationSeconds",
          "type": "uint8"
        },
        {
          "internalType": "uint8",
          "name": "_ftsoProtocolId",
          "type": "uint8"
        }
      ],
      "stateMutability": "nonpayable",
      "type": "constructor"
    },
    {
      "inputs": [],
      "name": "AUAddressZero",
      "type": "error"
    },
    {
      "inputs": [],
      "name": "AllPricesMustBeProvided",
      "type": "error"
    },
    {
      "inputs": [],
      "name": "AlreadyInProductionMode",
      "type": "error"
    },
    {
      "inputs": [],
      "name": "AlreadySubmitted",
      "type": "error"
    },
    {
      "inputs": [],
      "name": "DecimalsMismatch",
      "type": "error"
    },
    {
      "inputs": [],
      "name": "FeedIdMismatch",
      "type": "error"
    },
    {
      "inputs": [],
      "name": "GovernedAddressZero",
      "type": "error"
    },
    {
      "inputs": [],
      "name": "GovernedAlreadyInitialized",
      "type": "error"
    },
    {
      "inputs": [],
      "name": "InvalidStartTime",
      "type": "error"
    },
    {
      "inputs": [],
      "name": "LengthMismatch",
      "type": "error"
    },
    {
      "inputs": [],
      "name": "MaxSpreadTooBig",
      "type": "error"
    },
    {
      "inputs": [],
      "name": "MerkleProofInvalid",
      "type": "error"
    },
    {
      "inputs": [],
      "name": "OnlyAddressUpdater",
      "type": "error"
    },
    {
      "inputs": [],
      "name": "OnlyExecutor",
      "type": "error"
    },
    {
      "inputs": [],
      "name": "OnlyGovernance",
      "type": "error"
    },
    {
      "inputs": [],
      "name": "OnlyTrustedProvider",
      "type": "error"
    },
    {
      "inputs": [],
      "name": "PricesAlreadyPublished",
      "type": "error"
    },
    {
      "inputs": [],
      "name": "SubmissionWindowClosed",
      "type": "error"
    },
    {
      "inputs": [],
      "name": "SubmissionWindowNotClosed",
      "type": "error"
    },
    {
      "inputs": [],
      "name": "SymbolNotSupported",
      "type": "error"
    },
    {
      "inputs": [],
      "name": "ThresholdTooHigh",
      "type": "error"
    },
    {
      "inputs": [],
      "name": "TimelockInvalidSelector",
      "type": "error"
    },
    {
      "inputs": [],
      "name": "TimelockNotAllowedYet",
      "type": "error"
    },
    {
      "inputs": [],
      "name": "TooManyTrustedProviders",
      "type": "error"
    },
    {
      "inputs": [],
      "name": "ValueMustBeNonNegative",
      "type": "error"
    },
    {
      "inputs": [],
      "name": "VotingEpochDurationTooShort",
      "type": "error"
    },
    {
      "inputs": [],
      "name": "VotingRoundIdMismatch",
      "type": "error"
    },
    {
      "inputs": [],
      "name": "WrongNumberOfProofs",
      "type": "error"
    },
    {
      "anonymous": false,
      "inputs": [
        {
          "indexed": false,
          "internalType": "bytes",
          "name": "encodedCall",
          "type": "bytes"
        },
        {
          "indexed": false,
          "internalType": "bytes32",
          "name": "encodedCallHash",
          "type": "bytes32"
        },
        {
          "indexed": false,
          "internalType": "uint256",
          "name": "allowedAfterTimestamp",
          "type": "uint256"
        }
      ],
      "name": "GovernanceCallTimelocked",
      "type": "event"
    },
    {
      "anonymous": false,
      "inputs": [
        {
          "indexed": false,
          "internalType": "address",
          "name": "initialGovernance",
          "type": "address"
        }
      ],
      "name": "GovernanceInitialised",
      "type": "event"
    },
    {
      "anonymous": false,
      "inputs": [
        {
          "indexed": false,
          "internalType": "address",
          "name": "governanceSettings",
          "type": "address"
        }
      ],
      "name": "GovernedProductionModeEntered",
      "type": "event"
    },
    {
      "anonymous": false,
      "inputs": [
        {
          "indexed": true,
          "internalType": "uint32",
          "name": "votingRoundId",
          "type": "uint32"
        }
      ],
      "name": "PricesPublished",
      "type": "event"
    },
    {
      "anonymous": false,
      "inputs": [
        {
          "indexed": false,
          "internalType": "bytes32",
          "name": "encodedCallHash",
          "type": "bytes32"
        }
      ],
      "name": "TimelockedGovernanceCallCanceled",
      "type": "event"
    },
    {
      "anonymous": false,
      "inputs": [
        {
          "indexed": false,
          "internalType": "bytes32",
          "name": "encodedCallHash",
          "type": "bytes32"
        }
      ],
      "name": "TimelockedGovernanceCallExecuted",
      "type": "event"
    },
    {
      "inputs": [
        {
          "internalType": "bytes",
          "name": "_encodedCall",
          "type": "bytes"
        }
      ],
      "name": "cancelGovernanceCall",
      "outputs": [],
      "stateMutability": "nonpayable",
      "type": "function"
    },
    {
      "inputs": [
        {
          "internalType": "bytes",
          "name": "_encodedCall",
          "type": "bytes"
        }
      ],
      "name": "executeGovernanceCall",
      "outputs": [],
      "stateMutability": "nonpayable",
      "type": "function"
    },
    {
      "inputs": [],
      "name": "firstVotingRoundStartTs",
      "outputs": [
        {
          "internalType": "uint64",
          "name": "",
          "type": "uint64"
        }
      ],
      "stateMutability": "view",
      "type": "function"
    },
    {
      "inputs": [],
      "name": "ftsoProtocolId",
      "outputs": [
        {
          "internalType": "uint8",
          "name": "",
          "type": "uint8"
        }
      ],
      "stateMutability": "view",
      "type": "function"
    },
    {
      "inputs": [],
      "name": "getAddressUpdater",
      "outputs": [
        {
          "internalType": "address",
          "name": "_addressUpdater",
          "type": "address"
        }
      ],
      "stateMutability": "view",
      "type": "function"
    },
    {
      "inputs": [
        {
          "internalType": "string",
          "name": "_symbol",
          "type": "string"
        }
      ],
      "name": "getFeedId",
      "outputs": [
        {
          "internalType": "bytes21",
          "name": "",
          "type": "bytes21"
        }
      ],
      "stateMutability": "view",
      "type": "function"
    },
    {
      "inputs": [],
      "name": "getFeedIds",
      "outputs": [
        {
          "internalType": "bytes21[]",
          "name": "",
          "type": "bytes21[]"
        }
      ],
      "stateMutability": "view",
      "type": "function"
    },
    {
      "inputs": [],
      "name": "getFeedIdsWithDecimals",
      "outputs": [
        {
          "internalType": "bytes21[]",
          "name": "_feedIds",
          "type": "bytes21[]"
        },
        {
          "internalType": "int8[]",
          "name": "_decimals",
          "type": "int8[]"
        }
      ],
      "stateMutability": "view",
      "type": "function"
    },
    {
      "inputs": [
        {
          "internalType": "string",
          "name": "_symbol",
          "type": "string"
        }
      ],
      "name": "getPrice",
      "outputs": [
        {
          "internalType": "uint256",
          "name": "_price",
          "type": "uint256"
        },
        {
          "internalType": "uint256",
          "name": "_timestamp",
          "type": "uint256"
        },
        {
          "internalType": "uint256",
          "name": "_priceDecimals",
          "type": "uint256"
        }
      ],
      "stateMutability": "view",
      "type": "function"
    },
    {
      "inputs": [
        {
          "internalType": "string",
          "name": "_symbol",
          "type": "string"
        }
      ],
      "name": "getPriceFromTrustedProviders",
      "outputs": [
        {
          "internalType": "uint256",
          "name": "_price",
          "type": "uint256"
        },
        {
          "internalType": "uint256",
          "name": "_timestamp",
          "type": "uint256"
        },
        {
          "internalType": "uint256",
          "name": "_priceDecimals",
          "type": "uint256"
        }
      ],
      "stateMutability": "view",
      "type": "function"
    },
    {
      "inputs": [
        {
          "internalType": "string",
          "name": "_symbol",
          "type": "string"
        }
      ],
      "name": "getPriceFromTrustedProvidersWithQuality",
      "outputs": [
        {
          "internalType": "uint256",
          "name": "_price",
          "type": "uint256"
        },
        {
          "internalType": "uint256",
          "name": "_timestamp",
          "type": "uint256"
        },
        {
          "internalType": "uint256",
          "name": "_priceDecimals",
          "type": "uint256"
        },
        {
          "internalType": "uint8",
          "name": "_numberOfSubmits",
          "type": "uint8"
        }
      ],
      "stateMutability": "view",
      "type": "function"
    },
    {
      "inputs": [],
      "name": "getSymbols",
      "outputs": [
        {
          "internalType": "string[]",
          "name": "_symbols",
          "type": "string[]"
        }
      ],
      "stateMutability": "view",
      "type": "function"
    },
    {
      "inputs": [],
      "name": "getTrustedProviders",
      "outputs": [
        {
          "internalType": "address[]",
          "name": "",
          "type": "address[]"
        }
      ],
      "stateMutability": "view",
      "type": "function"
    },
    {
      "inputs": [],
      "name": "governance",
      "outputs": [
        {
          "internalType": "address",
          "name": "",
          "type": "address"
        }
      ],
      "stateMutability": "view",
      "type": "function"
    },
    {
      "inputs": [],
      "name": "governanceSettings",
      "outputs": [
        {
          "internalType": "contract IGovernanceSettings",
          "name": "",
          "type": "address"
        }
      ],
      "stateMutability": "view",
      "type": "function"
    },
    {
      "inputs": [
        {
          "internalType": "address",
          "name": "_address",
          "type": "address"
        }
      ],
      "name": "isExecutor",
      "outputs": [
        {
          "internalType": "bool",
          "name": "",
          "type": "bool"
        }
      ],
      "stateMutability": "view",
      "type": "function"
    },
    {
      "inputs": [],
      "name": "lastPublishedVotingRoundId",
      "outputs": [
        {
          "internalType": "uint32",
          "name": "",
          "type": "uint32"
        }
      ],
      "stateMutability": "view",
      "type": "function"
    },
    {
      "inputs": [],
      "name": "maxSpreadBIPS",
      "outputs": [
        {
          "internalType": "uint16",
          "name": "",
          "type": "uint16"
        }
      ],
      "stateMutability": "view",
      "type": "function"
    },
    {
      "inputs": [],
      "name": "productionMode",
      "outputs": [
        {
          "internalType": "bool",
          "name": "",
          "type": "bool"
        }
      ],
      "stateMutability": "view",
      "type": "function"
    },
    {
      "inputs": [
        {
          "components": [
            {
              "internalType": "bytes32[]",
              "name": "proof",
              "type": "bytes32[]"
            },
            {
              "components": [
                {
                  "internalType": "uint32",
                  "name": "votingRoundId",
                  "type": "uint32"
                },
                {
                  "internalType": "bytes21",
                  "name": "id",
                  "type": "bytes21"
                },
                {
                  "internalType": "int32",
                  "name": "value",
                  "type": "int32"
                },
                {
                  "internalType": "uint16",
                  "name": "turnoutBIPS",
                  "type": "uint16"
                },
                {
                  "internalType": "int8",
                  "name": "decimals",
                  "type": "int8"
                }
              ],
              "internalType": "struct IPricePublisher.Feed",
              "name": "body",
              "type": "tuple"
            }
          ],
          "internalType": "struct IPricePublisher.FeedWithProof[]",
          "name": "_proofs",
          "type": "tuple[]"
        }
      ],
      "name": "publishPrices",
      "outputs": [],
      "stateMutability": "nonpayable",
      "type": "function"
    },
    {
      "inputs": [],
      "name": "relay",
      "outputs": [
        {
          "internalType": "contract IRelay",
          "name": "",
          "type": "address"
        }
      ],
      "stateMutability": "view",
      "type": "function"
    },
    {
      "inputs": [
        {
          "internalType": "address[]",
          "name": "_trustedProviders",
          "type": "address[]"
        },
        {
          "internalType": "uint8",
          "name": "_trustedProvidersThreshold",
          "type": "uint8"
        }
      ],
      "name": "setTrustedProviders",
      "outputs": [],
      "stateMutability": "nonpayable",
      "type": "function"
    },
    {
      "inputs": [
        {
          "internalType": "uint32",
          "name": "_votingRoundId",
          "type": "uint32"
        },
        {
          "components": [
            {
              "internalType": "bytes21",
              "name": "id",
              "type": "bytes21"
            },
            {
              "internalType": "uint32",
              "name": "value",
              "type": "uint32"
            },
            {
              "internalType": "int8",
              "name": "decimals",
              "type": "int8"
            }
          ],
          "internalType": "struct IPricePublisher.TrustedProviderFeed[]",
          "name": "_feeds",
          "type": "tuple[]"
        }
      ],
      "name": "submitTrustedPrices",
      "outputs": [],
      "stateMutability": "nonpayable",
      "type": "function"
    },
    {
      "inputs": [],
      "name": "submitTrustedPricesWindowSeconds",
      "outputs": [
        {
          "internalType": "uint64",
          "name": "",
          "type": "uint64"
        }
      ],
      "stateMutability": "view",
      "type": "function"
    },
    {
      "inputs": [
        {
          "internalType": "bytes4",
          "name": "_interfaceId",
          "type": "bytes4"
        }
      ],
      "name": "supportsInterface",
      "outputs": [
        {
          "internalType": "bool",
          "name": "",
          "type": "bool"
        }
      ],
      "stateMutability": "pure",
      "type": "function"
    },
    {
      "inputs": [],
      "name": "switchToProductionMode",
      "outputs": [],
      "stateMutability": "nonpayable",
      "type": "function"
    },
    {
      "inputs": [],
      "name": "trustedProvidersThreshold",
      "outputs": [
        {
          "internalType": "uint8",
          "name": "",
          "type": "uint8"
        }
      ],
      "stateMutability": "view",
      "type": "function"
    },
    {
      "inputs": [
        {
          "internalType": "bytes32[]",
          "name": "_contractNameHashes",
          "type": "bytes32[]"
        },
        {
          "internalType": "address[]",
          "name": "_contractAddresses",
          "type": "address[]"
        }
      ],
      "name": "updateContractAddresses",
      "outputs": [],
      "stateMutability": "nonpayable",
      "type": "function"
    },
    {
      "inputs": [
        {
          "internalType": "bytes21[]",
          "name": "_feedIds",
          "type": "bytes21[]"
        },
        {
          "internalType": "string[]",
          "name": "_symbols",
          "type": "string[]"
        },
        {
          "internalType": "int8[]",
          "name": "_trustedDecimals",
          "type": "int8[]"
        },
        {
          "internalType": "uint16",
          "name": "_maxSpreadBIPS",
          "type": "uint16"
        }
      ],
      "name": "updateSettings",
      "outputs": [],
      "stateMutability": "nonpayable",
      "type": "function"
    },
    {
      "inputs": [],
      "name": "votingEpochDurationSeconds",
      "outputs": [
        {
          "internalType": "uint64",
          "name": "",
          "type": "uint64"
        }
      ],
      "stateMutability": "view",
      "type": "function"
    }
  ],
  "bytecode": "0x61010060405234801561001157600080fd5b506040516139473803806139478339810160408190526100309161029f565b83868661003d8282610122565b506100689050817f714f205b2abd25bef1d06a1af944e38c113fe6160375c4e1d6d5cf28848e771955565b504261007760ff841685610340565b6001600160401b0316111561009f57604051632ca4094f60e21b815260040160405180910390fd5b60018260ff16116100c357604051633204efdd60e11b815260040160405180910390fd5b6001600160401b03831660805260ff821660a0526100e260028361037b565b60ff90811660c052811660e0526100f7610231565b600860176101000a81548163ffffffff021916908363ffffffff1602179055505050505050506103e0565b7f2aa47ee5db910f3b2a06970c443249cc77dbd9f96100cfebc1775ab7fb1d18248054600160a01b900460ff161561016d5760405163b2f0162160e01b815260040160405180910390fd5b6001600160a01b038316610194576040516334ab92fb60e11b815260040160405180910390fd5b6001600160a01b0382166101bb576040516334ab92fb60e11b815260040160405180910390fd5b80546001600160a01b038481166001600160a81b031990921691909117600160a01b1782556001820180549184166001600160a01b0319909216821790556040519081527f9789733827840833afc031fb2ef9ab6894271f77bad2085687cf4ae5c7bee4db9060200160405180910390a1505050565b6000600160a0516001600160401b03166080516001600160401b031642610258919061039d565b61026291906103b0565b61026c91906103c4565b905090565b6001600160a01b038116811461028657600080fd5b50565b805160ff8116811461029a57600080fd5b919050565b60008060008060008060c087890312156102b857600080fd5b86516102c381610271565b60208801519096506102d481610271565b60408801519095506102e581610271565b60608801519094506001600160401b038116811461030257600080fd5b925061031060808801610289565b915061031e60a08801610289565b90509295509295509295565b634e487b7160e01b600052601160045260246000fd5b6001600160401b03818116838216019081111561035f5761035f61032a565b92915050565b634e487b7160e01b600052601260045260246000fd5b600060ff83168061038e5761038e610365565b8060ff84160491505092915050565b8181038181111561035f5761035f61032a565b6000826103bf576103bf610365565b500490565b63ffffffff828116828216039081111561035f5761035f61032a565b60805160a05160c05160e0516134fd61044a600039600081816103bf01526112d30152600081816103980152818161110f015261187601526000818161030701528181611e470152611eb501526000818161053601528181611e8a0152611edf01526134fd6000f3fe608060405234801561001057600080fd5b50600436106101da5760003560e01c8063a036aa4711610104578063debfda30116100a2578063e4a0a55b11610071578063e4a0a55b146104e8578063e731a1bc146104fb578063e8d0e70a14610531578063f5a983831461055857600080fd5b8063debfda301461048e578063df7f710e146104a1578063e05372ff146104b6578063e17f212e146104c957600080fd5b8063b44cd1ba116100de578063b44cd1ba14610426578063b59589d11461044c578063c88987dc14610466578063cea648a51461047b57600080fd5b8063a036aa47146103f3578063a83bf08d14610400578063b00c0b761461041357600080fd5b80635267a15d1161017c57806362354e031161014b57806362354e03146103495780636512bf1d1461036757806367776a2b146103935780636c2b111f146103ba57600080fd5b80635267a15d1461029b5780635a07ad13146102d65780635a832088146103025780635aa6e6751461034157600080fd5b806319f6e807116101b857806319f6e8071461023157806320c5f99d1461024757806337e4bfc31461025a578063524f38891461026d57600080fd5b806301ffc9a7146101df5780630c518dce1461020757806316fc2f6d1461021c575b600080fd5b6101f26101ed3660046125db565b610560565b60405190151581526020015b60405180910390f35b61020f6105b2565b6040516101fe919061264b565b61022f61022a36600461265e565b610618565b005b6102396106cc565b6040516101fe9291906126d0565b61022f61025536600461265e565b61080c565b61022f610268366004612778565b61097e565b61028061027b36600461281a565b610ad8565b604080519384526020840192909252908201526060016101fe565b7f714f205b2abd25bef1d06a1af944e38c113fe6160375c4e1d6d5cf28848e7719545b6040516001600160a01b0390911681526020016101fe565b6008546102ed90600160b81b900463ffffffff1681565b60405163ffffffff90911681526020016101fe565b6103297f000000000000000000000000000000000000000000000000000000000000000081565b6040516001600160401b0390911681526020016101fe565b6102be610bb1565b6000805160206134a8833981519152546001600160a01b03166102be565b61037a61037536600461281a565b610c5a565b6040516001600160581b031990911681526020016101fe565b6103297f000000000000000000000000000000000000000000000000000000000000000081565b6103e17f000000000000000000000000000000000000000000000000000000000000000081565b60405160ff90911681526020016101fe565b6008546103e19060ff1681565b61022f61040e3660046128c9565b610c85565b61022f610421366004612a2b565b610f4d565b60085461043990610100900461ffff1681565b60405161ffff90911681526020016101fe565b6008546102be90630100000090046001600160a01b031681565b61046e611006565b6040516101fe9190612aeb565b61022f610489366004612b37565b611067565b6101f261049c366004612b78565b6115e0565b6104a961167a565b6040516101fe9190612be5565b61022f6104c4366004612c5e565b6117cb565b6000805160206134a883398151915254600160a81b900460ff166101f2565b6102806104f636600461281a565b611a93565b61050e61050936600461281a565b611b17565b6040805194855260208501939093529183015260ff1660608201526080016101fe565b6103297f000000000000000000000000000000000000000000000000000000000000000081565b61022f611baa565b60006001600160e01b031982166301ffc9a760e01b148061059157506001600160e01b031982166328ef1e3760e11b145b806105ac57506001600160e01b0319821663126d859760e21b145b92915050565b6060600080548060200260200160405190810160405280929190818152602001828054801561060e57602002820191906000526020600020905b815460581b6001600160581b03191681526001909101906020018083116105ec575b5050505050905090565b610620611c4f565b6040516000805160206134a8833981519152906000906106439085908590612ce4565b60405180910390209050816002016000828152602001908152602001600020546000036106835760405163023679b760e21b815260040160405180910390fd5b6040518181527f69b058d6225c01c1f2a25801ca5b05705fa2e9118e93d518390ba804398c87b19060200160405180910390a16000908152600290910160205260408120555050565b606080600080548060200260200160405190810160405280929190818152602001828054801561072957602002820191906000526020600020905b815460581b6001600160581b0319168152600190910190602001808311610707575b5050505050915081516001600160401b03811115610749576107496127d4565b604051908082528060200260200182016040528015610772578160200160208202803683370190505b50905060005b8251811015610807576003600084838151811061079757610797612cf4565b60200260200101516affffffffffffffffffffff19166affffffffffffffffffffff1916815260200190815260200160002060000160119054906101000a900460000b8282815181106107ec576107ec612cf4565b60009290920b60209283029190910190910152600101610778565b509091565b6000805160206134a8833981519152610824336115e0565b61084157604051633fdb5f0160e11b815260040160405180910390fd5b60008383604051610853929190612ce4565b604080519182900390912060008181526002850160205291822054909250908190036108925760405163023679b760e21b815260040160405180910390fd5b804210156108b35760405163309272e160e11b815260040160405180910390fd5b6000828152600284016020526040808220829055845460ff60b01b1916600160b01b1785555130906108e89088908890612ce4565b6000604051808303816000865af19150503d8060008114610925576040519150601f19603f3d011682016040523d82523d6000602084013e61092a565b606091505b5050845460ff60b01b191685556040518481529091507fec1225e5a8a8acb91e03ce648c683c74f5d152a775b9715980999441d714c44f9060200160405180910390a161097681611c8a565b505050505050565b610986611ca7565b15610ac657610993611cdd565b61010082106109b557604051630cabfead60e21b815260040160405180910390fd5b60ff81168210156109d95760405163e56d58cf60e01b815260040160405180910390fd5b6008805460ff191660ff831617905560005b600654811015610a4a5760006007600060068481548110610a0e57610a0e612cf4565b6000918252602080832091909101546001600160a01b031683528201929092526040019020805460ff19169115159190911790556001016109eb565b50610a57600684846124e4565b5060005b82811015610ac057600160076000868685818110610a7b57610a7b612cf4565b9050602002016020810190610a909190612b78565b6001600160a01b031681526020810191909152604001600020805460ff1916911515919091179055600101610a5b565b50505050565b610ad36000366000611d24565b505050565b600080600080600185604051610aee9190612d0a565b9081526040519081900360200190205460581b90506001600160581b03198116610b2b57604051633b7ea93160e01b815260040160405180910390fd5b6001600160581b031981166000908152600360205260409020805463ffffffff640100000000820481169650610b619116611e3b565b8154909450600160401b9004600090810b90811215610ba35760009350610b8781612d3c565b610b9290600a612e3f565b610b9c9087612e4b565b9550610ba7565b8093505b5050509193909250565b6000805160206134a8833981519152805460009190600160a81b900460ff16610be75760018101546001600160a01b0316610c54565b805460408051631cc9492560e21b815290516001600160a01b03909216916373252494916004808201926020929091908290030181865afa158015610c30573d6000803e3d6000fd5b505050506040513d601f19601f82011682018060405250810190610c549190612e62565b91505090565b6000600182604051610c6c9190612d0a565b9081526040519081900360200190205460581b92915050565b610c8d611ca7565b15610f3757610c9a611cdd565b8584148015610ca857508582145b610cc8576040516001621398b960e31b0319815260040160405180910390fd5b6127108161ffff161115610cef5760405163ab0a294360e01b815260040160405180910390fd5b6008805462ffff00191661010061ffff841602179055610d1160008888612543565b5060005b86811015610f31576000888883818110610d3157610d31612cf4565b9050602002016020810190610d469190612e97565b9050806001888885818110610d5d57610d5d612cf4565b9050602002810190610d6f9190612eb2565b604051610d7d929190612ce4565b908152604051908190036020019020805460589290921c6001600160a81b0319909216919091179055868683818110610db857610db8612cf4565b9050602002810190610dca9190612eb2565b6001600160581b03198316600090815260026020526040902091610def919083612f80565b506001600160581b031981166000908152600360205260409020858584818110610e1b57610e1b612cf4565b9050602002016020810190610e309190613051565b8154600160881b9004600090810b91900b14610f2757858584818110610e5857610e58612cf4565b9050602002016020810190610e6d9190613051565b815471ffffffffffffffffff0000000000000000001916600160881b60ff929092169190910267ffffffffffffffff60481b1916178155600854600090610ec39063ffffffff600160b81b90910416600161306c565b90505b610ece611eaf565b63ffffffff168163ffffffff1611610f25576001600160581b03198316600090815260046020908152604080832063ffffffff851684529091528120610f1391612590565b80610f1d81613088565b915050610ec6565b505b5050600101610d15565b50610f44565b610f446000366000611d24565b50505050505050565b7f714f205b2abd25bef1d06a1af944e38c113fe6160375c4e1d6d5cf28848e7719546001600160a01b0316336001600160a01b031614610fa057604051633d8aad3760e11b815260040160405180910390fd5b610ff8610fd483836040518060400160405280600e81526020016d20b2323932b9b9aab83230ba32b960911b815250611f2b565b7f714f205b2abd25bef1d06a1af944e38c113fe6160375c4e1d6d5cf28848e771955565b6110028282611fde565b5050565b6060600680548060200260200160405190810160405280929190818152602001828054801561060e57602002820191906000526020600020905b81546001600160a01b03168152600190910190602001808311611040575050505050905090565b60008054821461108a576040516315e621ab60e11b815260040160405180910390fd5b60005b82811015610ac057368484838181106110a8576110a8612cf4565b90506020028101906110ba91906130ad565b90506020810160008390036111c1576110d660208201826130c3565b60085490945063ffffffff600160b81b90910481169085161161110c57604051639a0ce6d160e01b815260040160405180910390fd5b427f00000000000000000000000000000000000000000000000000000000000000006001600160401b03166111468663ffffffff16611e3b565b61115091906130de565b111561116f57604051632f021e8d60e11b815260040160405180910390fd5b6008805463ffffffff60b81b1916600160b81b63ffffffff8716908102919091179091556040517f46e3fc5e4e4ccb87b783c134ecaf8dc9e6207f10034ec05f74c24007fcc2e2d190600090a26111f9565b63ffffffff84166111d560208301836130c3565b63ffffffff16146111f9576040516304ea38db60e51b815260040160405180910390fd5b600080848154811061120d5761120d612cf4565b6000918252602091829020015460581b91506001600160581b031982169061123b9060408501908501612e97565b6001600160581b031916146112635760405163c2a25c1b60e01b815260040160405180910390fd5b60006112756060840160408501613103565b60030b121561129757604051630781cbdb60e31b815260040160405180910390fd5b6000826040516020016112aa919061311e565b60408051808303601f190181529082905280516020909101206008546239436b60e81b835260ff7f000000000000000000000000000000000000000000000000000000000000000016600484015263ffffffff8916602484015290925060009163010000009091046001600160a01b0316906339436b0090604401602060405180830381865afa158015611342573d6000803e3d6000fd5b505050506040513d601f19601f820116820180604052508101906113669190613191565b9050611380818361137788806131aa565b90929091612030565b61139d5760405163c8ac23c360e01b815260040160405180910390fd5b6001600160581b031983166000908152600360209081526040909120906113c6908601866130c3565b815463ffffffff191663ffffffff919091161781556113eb6060860160408701613103565b815463ffffffff919091166401000000000267ffffffff000000001990911617815561141d60a0860160808701613051565b815460ff91909116600160401b0268ff0000000000000000199091161781556001600160581b03198416600090815260046020908152604080832063ffffffff8c1684529091528120805461147190612ef8565b80601f016020809104026020016040519081016040528092919081815260200182805461149d90612ef8565b80156114ea5780601f106114bf576101008083540402835291602001916114ea565b820191906000526020600020905b8154815290600101906020018083116114cd57829003601f168201915b5050505050905060008151118015611516575060085461150e9060ff1660046131f3565b60ff16815110155b156115cd5760008061152783612048565b91509150801561159757835463ffffffff838116600160681b0263ffffffff60681b19918e16600160481b029190911667ffffffffffffffff60481b1990921691909117178455825161157c9060049061322c565b845460ff91909116600160901b0260ff60901b199091161784555b6001600160581b03198716600090815260046020908152604080832063ffffffff8f16845290915281206115ca91612590565b50505b50506001909501945061108d9350505050565b6000805160206134a8833981519152805460009190600160a01b900460ff16801561167357508054604051630debfda360e41b81526001600160a01b0385811660048301529091169063debfda3090602401602060405180830381865afa15801561164f573d6000803e3d6000fd5b505050506040513d601f19601f820116820180604052508101906116739190613240565b9392505050565b6000546060906001600160401b03811115611697576116976127d4565b6040519080825280602002602001820160405280156116ca57816020015b60608152602001906001900390816116b55790505b50905060005b6000548110156117c757600260008083815481106116f0576116f0612cf4565b60009182526020808320919091015460581b6001600160581b03191683528201929092526040019020805461172490612ef8565b80601f016020809104026020016040519081016040528092919081815260200182805461175090612ef8565b801561179d5780601f106117725761010080835404028352916020019161179d565b820191906000526020600020905b81548152906001019060200180831161178057829003601f168201915b50505050508282815181106117b4576117b4612cf4565b60209081029190910101526001016116d0565b5090565b3360009081526007602052604090205460ff166117fb5760405163038c0c6d60e41b815260040160405180910390fd5b600054811461181c57604051628125db60e21b815260040160405180910390fd5b6000611826611eaf565b90508063ffffffff168463ffffffff1614611854576040516304ea38db60e51b815260040160405180910390fd5b60006118658263ffffffff16611e3b565b9050600061189c6001600160401b037f000000000000000000000000000000000000000000000000000000000000000016836130de565b90508142101580156118ad57508042105b6118ca576040516332999ab560e11b815260040160405180910390fd5b3360009081526005602052604090205463ffffffff8416116118ff57604051639fbfc58960e01b815260040160405180910390fd5b33600090815260056020526040812063ffffffff851690555b84811015610f44573686868381811061193357611933612cf4565b9050606002019050600080838154811061194f5761194f612cf4565b6000918252602091829020015460581b91506001600160581b031982169061197990840184612e97565b6001600160581b031916146119a15760405163c2a25c1b60e01b815260040160405180910390fd5b6001600160581b0319811660009081526003602052604080822054600160881b900490910b906119d79060608501908501613051565b60000b146119f857604051635a8dbaed60e01b815260040160405180910390fd5b6001600160581b03198116600090815260046020908152604080832063ffffffff8a16845282529182902091611a33919085019085016130c3565b60e01b604051602001611a47929190613262565b60408051601f198184030181529181526001600160581b0319831660009081526004602090815282822063ffffffff8b16835290522090611a8890826132e8565b505050600101611918565b600080600080600185604051611aa99190612d0a565b9081526040519081900360200190205460581b90506001600160581b03198116611ae657604051633b7ea93160e01b815260040160405180910390fd5b6001600160581b031981166000908152600360205260409020611b0881612400565b91989097509095509350505050565b6000806000806000600186604051611b2f9190612d0a565b9081526040519081900360200190205460581b90506001600160581b03198116611b6c57604051633b7ea93160e01b815260040160405180910390fd5b6001600160581b031981166000908152600360205260409020611b8e81612400565b92549199909850919650600160901b900460ff16945092505050565b611bb2611c4f565b6000805160206134a88339815191528054600160a81b900460ff1615611beb576040516339511f6160e11b815260040160405180910390fd5b6001810180546001600160a01b03191690558054600160a81b60ff60a81b1982161782556040516001600160a01b0390911681527f83af113638b5422f9e977cebc0aaf0eaf2188eb9a8baae7f9d46c42b33a1560c9060200160405180910390a150565b611c57610bb1565b6001600160a01b0316336001600160a01b031614611c88576040516354348f0360e01b815260040160405180910390fd5b565b3d604051818101604052816000823e8215611ca3578181f35b8181fd5b6000805160206134a8833981519152805460009190600160b01b900460ff1680610c54575054600160a81b900460ff1615919050565b6000805160206134a88339815191528054600160b01b900460ff1615611d1957333014611d0c57611d0c6133a6565b805460ff60b01b19169055565b611d21611c4f565b50565b6000805160206134a8833981519152611d3b611c4f565b60008484604051611d4d929190612ce4565b604080519182900382208454636221a54b60e01b845291519093506000926001600160a01b0390921691636221a54b9160048083019260209291908290030181865afa158015611da1573d6000803e3d6000fd5b505050506040513d601f19601f82011682018060405250810190611dc59190613191565b905083811015611dd25750825b6000611dde82426130de565b600084815260028601602052604090819020829055519091507f8c02104dfc280f713854f25297de671710c544c58de69dbde8fb66974ce1ab9e90611e2a9089908990879086906133bc565b60405180910390a150505050505050565b60006001600160401b037f000000000000000000000000000000000000000000000000000000000000000016611e728360016130de565b611e7c9190612e4b565b6105ac906001600160401b037f0000000000000000000000000000000000000000000000000000000000000000166130de565b600060017f00000000000000000000000000000000000000000000000000000000000000006001600160401b03167f00000000000000000000000000000000000000000000000000000000000000006001600160401b031642611f1291906133fc565b611f1c919061322c565b611f26919061340f565b905090565b60008082604051602001611f3f919061342b565b6040516020818303038152906040528051906020012090506000805b8651811015611fad57868181518110611f7657611f76612cf4565b60200260200101518303611fa557858181518110611f9657611f96612cf4565b60200260200101519150611fad565b600101611f5b565b506001600160a01b038116611fd55760405163e6ee175560e01b815260040160405180910390fd5b95945050505050565b61200682826040518060400160405280600581526020016452656c617960d81b815250611f2b565b600860036101000a8154816001600160a01b0302191690836001600160a01b031602179055505050565b60008261203e868685612476565b1495945050505050565b805160009081908015801590612066575061206460048261343e565b155b612072576120726133a6565b61207d60048261322c565b90506000816001600160401b03811115612099576120996127d4565b6040519080825280602002602001820160405280156120c2578160200160208202803683370190505b50905060005b828110156121995760408051600480825281830190925260009160208201818036833701905050905060005b600481101561216057878161210a856004612e4b565b61211491906130de565b8151811061212457612124612cf4565b602001015160f81c60f81b82828151811061214157612141612cf4565b60200101906001600160f81b031916908160001a9053506001016120f4565b5061216a81613452565b60e01c63ffffffff1683838151811061218557612185612cf4565b6020908102919091010152506001016120c8565b5060015b8281101561227b5760008282815181106121b9576121b9612cf4565b6020026020010151905060008290505b6000811180156121fb575081846121e16001846133fc565b815181106121f1576121f1612cf4565b6020026020010151115b15612253578361220c6001836133fc565b8151811061221c5761221c612cf4565b602002602001015184828151811061223657612236612cf4565b60209081029190910101528061224b81613490565b9150506121c9565b8184828151811061226657612266612cf4565b6020908102919091010152505060010161219d565b5060008061228a60028561322c565b905061229760028561343e565b60010361232a578281815181106122b0576122b0612cf4565b6020026020010151955060038410612325576002836122d06001846133fc565b815181106122e0576122e0612cf4565b6020026020010151848360016122f691906130de565b8151811061230657612306612cf4565b602002602001015161231891906133fc565b612322919061322c565b91505b6123cd565b600283828151811061233e5761233e612cf4565b60200260200101518460018461235491906133fc565b8151811061236457612364612cf4565b602002602001015161237691906130de565b612380919061322c565b95508261238e6001836133fc565b8151811061239e5761239e612cf4565b60200260200101518382815181106123b8576123b8612cf4565b60200260200101516123ca91906133fc565b91505b600854612710906123e8908890610100900461ffff16612e4b565b6123f2919061322c565b821115945050505050915091565b805463ffffffff600160681b8204811691600091829161242891600160481b90910416611e3b565b8454909250600160881b9004600090810b9081121561246a576000915061244e81612d3c565b61245990600a612e3f565b6124639085612e4b565b935061246e565b8091505b509193909250565b600081815b848110156124af576124a58287878481811061249957612499612cf4565b905060200201356124b8565b915060010161247b565b50949350505050565b60008183106124d4576000828152602084905260409020611673565b5060009182526020526040902090565b828054828255906000526020600020908101928215612537579160200282015b828111156125375781546001600160a01b0319166001600160a01b03843516178255602090920191600190910190612504565b506117c79291506125c6565b828054828255906000526020600020908101928215612537579160200282015b828111156125375781546001600160a81b031916833560581c178255602090920191600190910190612563565b50805461259c90612ef8565b6000825580601f106125ac575050565b601f016020900490600052602060002090810190611d2191905b5b808211156117c757600081556001016125c7565b6000602082840312156125ed57600080fd5b81356001600160e01b03198116811461167357600080fd5b600081518084526020840193506020830160005b828110156126415781516001600160581b031916865260209586019590910190600101612619565b5093949350505050565b6020815260006116736020830184612605565b6000806020838503121561267157600080fd5b82356001600160401b0381111561268757600080fd5b8301601f8101851361269857600080fd5b80356001600160401b038111156126ae57600080fd5b8560208284010111156126c057600080fd5b6020919091019590945092505050565b6040815260006126e36040830185612605565b828103602084015280845180835260208301915060208601925060005b8181101561272157835160000b835260209384019390920191600101612700565b50909695505050505050565b60008083601f84011261273f57600080fd5b5081356001600160401b0381111561275657600080fd5b6020830191508360208260051b850101111561277157600080fd5b9250929050565b60008060006040848603121561278d57600080fd5b83356001600160401b038111156127a357600080fd5b6127af8682870161272d565b909450925050602084013560ff811681146127c957600080fd5b809150509250925092565b634e487b7160e01b600052604160045260246000fd5b604051601f8201601f191681016001600160401b0381118282101715612812576128126127d4565b604052919050565b60006020828403121561282c57600080fd5b81356001600160401b0381111561284257600080fd5b8201601f8101841361285357600080fd5b80356001600160401b0381111561286c5761286c6127d4565b61287f601f8201601f19166020016127ea565b81815285602083850101111561289457600080fd5b81602084016020830137600091810160200191909152949350505050565b803561ffff811681146128c457600080fd5b919050565b60008060008060008060006080888a0312156128e457600080fd5b87356001600160401b038111156128fa57600080fd5b6129068a828b0161272d565b90985096505060208801356001600160401b0381111561292557600080fd5b6129318a828b0161272d565b90965094505060408801356001600160401b0381111561295057600080fd5b61295c8a828b0161272d565b909450925061296f9050606089016128b2565b905092959891949750929550565b60006001600160401b03821115612996576129966127d4565b5060051b60200190565b6001600160a01b0381168114611d2157600080fd5b600082601f8301126129c657600080fd5b81356129d96129d48261297d565b6127ea565b8082825260208201915060208360051b8601019250858311156129fb57600080fd5b602085015b83811015612a21578035612a13816129a0565b835260209283019201612a00565b5095945050505050565b60008060408385031215612a3e57600080fd5b82356001600160401b03811115612a5457600080fd5b8301601f81018513612a6557600080fd5b8035612a736129d48261297d565b8082825260208201915060208360051b850101925087831115612a9557600080fd5b6020840193505b82841015612ab7578335825260209384019390910190612a9c565b945050505060208301356001600160401b03811115612ad557600080fd5b612ae1858286016129b5565b9150509250929050565b602080825282518282018190526000918401906040840190835b81811015612b2c5783516001600160a01b0316835260209384019390920191600101612b05565b509095945050505050565b60008060208385031215612b4a57600080fd5b82356001600160401b03811115612b6057600080fd5b612b6c8582860161272d565b90969095509350505050565b600060208284031215612b8a57600080fd5b8135611673816129a0565b60005b83811015612bb0578181015183820152602001612b98565b50506000910152565b60008151808452612bd1816020860160208601612b95565b601f01601f19169290920160200192915050565b6000602082016020835280845180835260408501915060408160051b86010192506020860160005b82811015612c3e57603f19878603018452612c29858351612bb9565b94506020938401939190910190600101612c0d565b50929695505050505050565b803563ffffffff811681146128c457600080fd5b600080600060408486031215612c7357600080fd5b612c7c84612c4a565b925060208401356001600160401b03811115612c9757600080fd5b8401601f81018613612ca857600080fd5b80356001600160401b03811115612cbe57600080fd5b866020606083028401011115612cd357600080fd5b939660209190910195509293505050565b8183823760009101908152919050565b634e487b7160e01b600052603260045260246000fd5b60008251612d1c818460208701612b95565b9190910192915050565b634e487b7160e01b600052601160045260246000fd5b6000600160ff1b8201612d5157612d51612d26565b5060000390565b6001815b6001841115612d9357808504811115612d7757612d77612d26565b6001841615612d8557908102905b60019390931c928002612d5c565b935093915050565b600082612daa575060016105ac565b81612db7575060006105ac565b8160018114612dcd5760028114612dd757612df3565b60019150506105ac565b60ff841115612de857612de8612d26565b50506001821b6105ac565b5060208310610133831016604e8410600b8410161715612e16575081810a6105ac565b612e236000198484612d58565b8060001904821115612e3757612e37612d26565b029392505050565b60006116738383612d9b565b80820281158282048414176105ac576105ac612d26565b600060208284031215612e7457600080fd5b8151611673816129a0565b80356001600160581b0319811681146128c457600080fd5b600060208284031215612ea957600080fd5b61167382612e7f565b6000808335601e19843603018112612ec957600080fd5b8301803591506001600160401b03821115612ee357600080fd5b60200191503681900382131561277157600080fd5b600181811c90821680612f0c57607f821691505b602082108103612f2c57634e487b7160e01b600052602260045260246000fd5b50919050565b601f821115610ad357806000526020600020601f840160051c81016020851015612f595750805b601f840160051c820191505b81811015612f795760008155600101612f65565b5050505050565b6001600160401b03831115612f9757612f976127d4565b612fab83612fa58354612ef8565b83612f32565b6000601f841160018114612fdf5760008515612fc75750838201355b600019600387901b1c1916600186901b178355612f79565b600083815260209020601f19861690835b828110156130105786850135825560209485019460019092019101612ff0565b508682101561302d5760001960f88860031b161c19848701351681555b505060018560011b0183555050505050565b8035600081900b81146128c457600080fd5b60006020828403121561306357600080fd5b6116738261303f565b63ffffffff81811683821601908111156105ac576105ac612d26565b600063ffffffff821663ffffffff81036130a4576130a4612d26565b60010192915050565b6000823560be19833603018112612d1c57600080fd5b6000602082840312156130d557600080fd5b61167382612c4a565b808201808211156105ac576105ac612d26565b8035600381900b81146128c457600080fd5b60006020828403121561311557600080fd5b611673826130f1565b60a0810163ffffffff61313084612c4a565b1682526001600160581b031961314860208501612e7f565b16602083015261315a604084016130f1565b60030b604083015261ffff613171606085016128b2565b1660608301526131836080840161303f565b60000b608083015292915050565b6000602082840312156131a357600080fd5b5051919050565b6000808335601e198436030181126131c157600080fd5b8301803591506001600160401b038211156131db57600080fd5b6020019150600581901b360382131561277157600080fd5b60ff818116838216029081169081811461320f5761320f612d26565b5092915050565b634e487b7160e01b600052601260045260246000fd5b60008261323b5761323b613216565b500490565b60006020828403121561325257600080fd5b8151801515811461167357600080fd5b600080845461327081612ef8565b600182168015613287576001811461329c576132cc565b60ff19831686528115158202860193506132cc565b87600052602060002060005b838110156132c4578154888201526001909101906020016132a8565b505081860193505b5050506001600160e01b03199390931683525050600401919050565b81516001600160401b03811115613301576133016127d4565b6133158161330f8454612ef8565b84612f32565b6020601f82116001811461334957600083156133315750848201515b600019600385901b1c1916600184901b178455612f79565b600084815260208120601f198516915b828110156133795787850151825560209485019460019092019101613359565b50848210156133975786840151600019600387901b60f8161c191681555b50505050600190811b01905550565b634e487b7160e01b600052600160045260246000fd5b606081528360608201528385608083013760006080858301015260006080601f19601f870116830101905083602083015282604083015295945050505050565b818103818111156105ac576105ac612d26565b63ffffffff82811682821603908111156105ac576105ac612d26565b6020815260006116736020830184612bb9565b60008261344d5761344d613216565b500690565b805160208201516001600160e01b0319811691906004821015613489576001600160e01b0319600483900360031b81901b82161692505b5050919050565b60008161349f5761349f612d26565b50600019019056fe2aa47ee5db910f3b2a06970c443249cc77dbd9f96100cfebc1775ab7fb1d1824a26469706673582212207927168608aa56d0535f31f7afcbf8c46f47b5d97a461643461cd731d441d22564736f6c634300081b0033",
  "linkReferences": {},
  "deployedLinkReferences": {}
}