{
  "_format": "hh-sol-artifact-1",
  "contractName": "MerkleTreeMock",
  "sourceName": "contracts/utils/mock/MerkleTreeMock.sol",
  "abi": [
    {
      "inputs": [],
      "name": "NoLeaves",
      "type": "error"
    },
    {
      "inputs": [
        {
          "internalType": "bytes32[]",
          "name": "_leaves",
          "type": "bytes32[]"
        }
      ],
      "name": "calculateMerkleRoot",
      "outputs": [
        {
          "internalType": "bytes32",
          "name": "",
          "type": "bytes32"
        }
      ],
      "stateMutability": "pure",
      "type": "function"
    },
    {
      "inputs": [
        {
          "internalType": "string",
          "name": "_str",
          "type": "string"
        }
      ],
      "name": "doubleHash",
      "outputs": [
        {
          "internalType": "bytes32",
          "name": "",
          "type": "bytes32"
        }
      ],
      "stateMutability": "pure",
      "type": "function"
    }
  ],
  "bytecode": "0x6080604052348015600f57600080fd5b506107d18061001f6000396000f3fe608060405234801561001057600080fd5b50600436106100365760003560e01c806335e29c881461003b57806338add1d314610060575b600080fd5b61004e61004936600461057e565b610073565b60405190815260200160405180910390f35b61004e61006e36600461062b565b610084565b600061007e826100bd565b92915050565b600081805190602001206040516020016100a091815260200190565b604051602081830303815290604052805190602001209050919050565b6000808251116100e057604051635d761ecd60e11b815260040160405180910390fd5b815160010361010b57816000815181106100fc576100fc6106c5565b60200260200101519050919050565b6040805180820190915260008082526020820152825181525b80516001101561015b576020810180519061013e826106f1565b90525080516002908290610153908390610720565b905250610124565b825181526020810151600090610172906001610734565b67ffffffffffffffff81111561018a5761018a610537565b6040519080825280602002602001820160405280156101b3578160200160208202803683370190505b5090506000826020015160016101c99190610734565b67ffffffffffffffff8111156101e1576101e1610537565b60405190808252806020026020018201604052801561020a578160200160208202803683370190505b509050600083602001516001901b84600001516102279190610747565b84602001516001901b61023a919061075b565b90506000805b60028110156104ff576000808260000361025e575050875183610265565b5083905060005b818110806102c557506001841180156102c557508561028560028661075b565b81518110610295576102956106c5565b6020026020010151866001866102ab919061075b565b815181106102bb576102bb6106c5565b6020026020010151145b156104f5576001841180156103215750856102e160028661075b565b815181106102f1576102f16106c5565b602002602001015186600186610307919061075b565b81518110610317576103176106c5565b6020026020010151145b1561046a578661033260028661075b565b81518110610342576103426106c5565b602002602001015187600186610358919061075b565b81518110610368576103686106c5565b60200260200101511015610413578661038260028661075b565b81518110610392576103926106c5565b6020026020010151876001866103a8919061075b565b815181106103b8576103b86106c5565b6020026020010151886001876103ce919061075b565b815181106103de576103de6106c5565b60200260200101896002886103f3919061075b565b81518110610403576104036106c5565b6020908102919091010191909152525b60406000198501602002880190812090528561043060028661075b565b81518110610440576104406106c5565b602002602001018051809190610455906106f1565b905250836104628161076e565b945050610265565b818110156104e857898181518110610484576104846106c5565b602002602001015187858151811061049e5761049e6106c5565b602002602001018181525050828685815181106104bd576104bd6106c5565b6020908102919091010152836104d2816106f1565b94505080806104e0906106f1565b915050610265565b6104f0610785565b610265565b5050600101610240565b508060011461051057610510610785565b83600081518110610523576105236106c5565b602002602001015195505050505050919050565b634e487b7160e01b600052604160045260246000fd5b604051601f8201601f1916810167ffffffffffffffff8111828210171561057657610576610537565b604052919050565b60006020828403121561059057600080fd5b813567ffffffffffffffff8111156105a757600080fd5b8201601f810184136105b857600080fd5b803567ffffffffffffffff8111156105d2576105d2610537565b8060051b6105e26020820161054d565b918252602081840181019290810190878411156105fe57600080fd5b6020850194505b83851015610620578435825260209485019490910190610605565b979650505050505050565b60006020828403121561063d57600080fd5b813567ffffffffffffffff81111561065457600080fd5b8201601f8101841361066557600080fd5b803567ffffffffffffffff81111561067f5761067f610537565b610692601f8201601f191660200161054d565b8181528560208385010111156106a757600080fd5b81602084016020830137600091810160200191909152949350505050565b634e487b7160e01b600052603260045260246000fd5b634e487b7160e01b600052601160045260246000fd5b600060018201610703576107036106db565b5060010190565b634e487b7160e01b600052601260045260246000fd5b60008261072f5761072f61070a565b500490565b8082018082111561007e5761007e6106db565b6000826107565761075661070a565b500690565b8181038181111561007e5761007e6106db565b60008161077d5761077d6106db565b506000190190565b634e487b7160e01b600052600160045260246000fdfea2646970667358221220cf01a14375d3683292af90b764ce304cc0da1b5243fcc89fe505f46e12d3310164736f6c634300081b0033",
  "linkReferences": {},
  "deployedLinkReferences": {}
}