{
  "_format": "hh-sol-artifact-1",
  "contractName": "MerkleTreeMock",
  "sourceName": "contracts/utils/mock/MerkleTreeMock.sol",
  "abi": [
    {
      "inputs": [
        {
          "internalType": "bytes32[]",
          "name": "_leaves",
          "type": "bytes32[]"
        }
      ],
      "name": "calculateMerkleRoot",
      "outputs": [
        {
          "internalType": "bytes32",
          "name": "",
          "type": "bytes32"
        }
      ],
      "stateMutability": "pure",
      "type": "function"
    },
    {
      "inputs": [
        {
          "internalType": "string",
          "name": "_str",
          "type": "string"
        }
      ],
      "name": "doubleHash",
      "outputs": [
        {
          "internalType": "bytes32",
          "name": "",
          "type": "bytes32"
        }
      ],
      "stateMutability": "pure",
      "type": "function"
    }
  ],
  "bytecode": "0x6080604052348015600f57600080fd5b506108048061001f6000396000f3fe608060405234801561001057600080fd5b50600436106100365760003560e01c806335e29c881461003b57806338add1d314610060575b600080fd5b61004e6100493660046105b1565b610073565b60405190815260200160405180910390f35b61004e61006e36600461065e565b610084565b600061007e826100bd565b92915050565b600081805190602001206040516020016100a091815260200190565b604051602081830303815290604052805190602001209050919050565b6000808251116101135760405162461bcd60e51b815260206004820152601b60248201527f4d7573742068617665206174206c65617374206f6e65206c6561660000000000604482015260640160405180910390fd5b815160010361013e578160008151811061012f5761012f6106f8565b60200260200101519050919050565b6040805180820190915260008082526020820152825181525b80516001101561018e576020810180519061017182610724565b90525080516002908290610186908390610753565b905250610157565b8251815260208101516000906101a5906001610767565b67ffffffffffffffff8111156101bd576101bd61056a565b6040519080825280602002602001820160405280156101e6578160200160208202803683370190505b5090506000826020015160016101fc9190610767565b67ffffffffffffffff8111156102145761021461056a565b60405190808252806020026020018201604052801561023d578160200160208202803683370190505b509050600083602001516001901b846000015161025a919061077a565b84602001516001901b61026d919061078e565b90506000805b60028110156105325760008082600003610291575050875183610298565b5083905060005b818110806102f857506001841180156102f85750856102b860028661078e565b815181106102c8576102c86106f8565b6020026020010151866001866102de919061078e565b815181106102ee576102ee6106f8565b6020026020010151145b156105285760018411801561035457508561031460028661078e565b81518110610324576103246106f8565b60200260200101518660018661033a919061078e565b8151811061034a5761034a6106f8565b6020026020010151145b1561049d578661036560028661078e565b81518110610375576103756106f8565b60200260200101518760018661038b919061078e565b8151811061039b5761039b6106f8565b6020026020010151101561044657866103b560028661078e565b815181106103c5576103c56106f8565b6020026020010151876001866103db919061078e565b815181106103eb576103eb6106f8565b602002602001015188600187610401919061078e565b81518110610411576104116106f8565b6020026020010189600288610426919061078e565b81518110610436576104366106f8565b6020908102919091010191909152525b60406000198501602002880190812090528561046360028661078e565b81518110610473576104736106f8565b60200260200101805180919061048890610724565b90525083610495816107a1565b945050610298565b8181101561051b578981815181106104b7576104b76106f8565b60200260200101518785815181106104d1576104d16106f8565b602002602001018181525050828685815181106104f0576104f06106f8565b60209081029190910101528361050581610724565b945050808061051390610724565b915050610298565b6105236107b8565b610298565b5050600101610273565b5080600114610543576105436107b8565b83600081518110610556576105566106f8565b602002602001015195505050505050919050565b634e487b7160e01b600052604160045260246000fd5b604051601f8201601f1916810167ffffffffffffffff811182821017156105a9576105a961056a565b604052919050565b6000602082840312156105c357600080fd5b813567ffffffffffffffff8111156105da57600080fd5b8201601f810184136105eb57600080fd5b803567ffffffffffffffff8111156106055761060561056a565b8060051b61061560208201610580565b9182526020818401810192908101908784111561063157600080fd5b6020850194505b83851015610653578435825260209485019490910190610638565b979650505050505050565b60006020828403121561067057600080fd5b813567ffffffffffffffff81111561068757600080fd5b8201601f8101841361069857600080fd5b803567ffffffffffffffff8111156106b2576106b261056a565b6106c5601f8201601f1916602001610580565b8181528560208385010111156106da57600080fd5b81602084016020830137600091810160200191909152949350505050565b634e487b7160e01b600052603260045260246000fd5b634e487b7160e01b600052601160045260246000fd5b6000600182016107365761073661070e565b5060010190565b634e487b7160e01b600052601260045260246000fd5b6000826107625761076261073d565b500490565b8082018082111561007e5761007e61070e565b6000826107895761078961073d565b500690565b8181038181111561007e5761007e61070e565b6000816107b0576107b061070e565b506000190190565b634e487b7160e01b600052600160045260246000fdfea26469706673582212200e4ca63ed549a9434d340d5bc22fe27af35fd626649c5a5d5e922f4ba985d2ba64736f6c634300081b0033",
  "linkReferences": {},
  "deployedLinkReferences": {}
}