{
  "_format": "hh-sol-artifact-1",
  "contractName": "FAsset",
  "sourceName": "contracts/fassetToken/implementation/FAsset.sol",
  "abi": [
    {
      "inputs": [],
      "stateMutability": "nonpayable",
      "type": "constructor"
    },
    {
      "inputs": [],
      "name": "AlreadyInitialized",
      "type": "error"
    },
    {
      "inputs": [],
      "name": "AlreadyUpgraded",
      "type": "error"
    },
    {
      "inputs": [],
      "name": "CannotReplaceAssetManager",
      "type": "error"
    },
    {
      "inputs": [],
      "name": "CannotTransferToSelf",
      "type": "error"
    },
    {
      "inputs": [],
      "name": "CheckPointHistoryReadingFromCleanedupBlock",
      "type": "error"
    },
    {
      "inputs": [],
      "name": "CheckPointableReadingFromCleanedupBlock",
      "type": "error"
    },
    {
      "inputs": [],
      "name": "CleanupBlockMustBeInThePast",
      "type": "error"
    },
    {
      "inputs": [],
      "name": "CleanupBlockNumberMustNeverDecrease",
      "type": "error"
    },
    {
      "inputs": [],
      "name": "ERC20PermitExpiredDeadline",
      "type": "error"
    },
    {
      "inputs": [],
      "name": "ERC20PermitInvalidSignature",
      "type": "error"
    },
    {
      "inputs": [],
      "name": "EmergencyPauseOfTransfersActive",
      "type": "error"
    },
    {
      "inputs": [],
      "name": "FAssetBalanceTooLow",
      "type": "error"
    },
    {
      "inputs": [],
      "name": "FAssetTerminated",
      "type": "error"
    },
    {
      "inputs": [],
      "name": "OnlyAssetManager",
      "type": "error"
    },
    {
      "inputs": [],
      "name": "OnlyCleanerContract",
      "type": "error"
    },
    {
      "inputs": [],
      "name": "OnlyCleanupBlockManager",
      "type": "error"
    },
    {
      "inputs": [],
      "name": "OnlyDeployer",
      "type": "error"
    },
    {
      "inputs": [],
      "name": "ValueDoesNotFitInOneNineTwoBits",
      "type": "error"
    },
    {
      "inputs": [],
      "name": "ZeroAssetManager",
      "type": "error"
    },
    {
      "anonymous": false,
      "inputs": [
        {
          "indexed": false,
          "internalType": "address",
          "name": "previousAdmin",
          "type": "address"
        },
        {
          "indexed": false,
          "internalType": "address",
          "name": "newAdmin",
          "type": "address"
        }
      ],
      "name": "AdminChanged",
      "type": "event"
    },
    {
      "anonymous": false,
      "inputs": [
        {
          "indexed": true,
          "internalType": "address",
          "name": "owner",
          "type": "address"
        },
        {
          "indexed": true,
          "internalType": "address",
          "name": "spender",
          "type": "address"
        },
        {
          "indexed": false,
          "internalType": "uint256",
          "name": "value",
          "type": "uint256"
        }
      ],
      "name": "Approval",
      "type": "event"
    },
    {
      "anonymous": false,
      "inputs": [
        {
          "indexed": true,
          "internalType": "address",
          "name": "beacon",
          "type": "address"
        }
      ],
      "name": "BeaconUpgraded",
      "type": "event"
    },
    {
      "anonymous": false,
      "inputs": [
        {
          "indexed": false,
          "internalType": "uint256",
          "name": "_blockNumber",
          "type": "uint256"
        }
      ],
      "name": "CreatedTotalSupplyCache",
      "type": "event"
    },
    {
      "anonymous": false,
      "inputs": [],
      "name": "EIP712DomainChanged",
      "type": "event"
    },
    {
      "anonymous": false,
      "inputs": [
        {
          "indexed": true,
          "internalType": "address",
          "name": "from",
          "type": "address"
        },
        {
          "indexed": true,
          "internalType": "address",
          "name": "to",
          "type": "address"
        },
        {
          "indexed": false,
          "internalType": "uint256",
          "name": "value",
          "type": "uint256"
        }
      ],
      "name": "Transfer",
      "type": "event"
    },
    {
      "anonymous": false,
      "inputs": [
        {
          "indexed": true,
          "internalType": "address",
          "name": "implementation",
          "type": "address"
        }
      ],
      "name": "Upgraded",
      "type": "event"
    },
    {
      "inputs": [],
      "name": "DOMAIN_SEPARATOR",
      "outputs": [
        {
          "internalType": "bytes32",
          "name": "",
          "type": "bytes32"
        }
      ],
      "stateMutability": "view",
      "type": "function"
    },
    {
      "inputs": [
        {
          "internalType": "address",
          "name": "owner",
          "type": "address"
        },
        {
          "internalType": "address",
          "name": "spender",
          "type": "address"
        }
      ],
      "name": "allowance",
      "outputs": [
        {
          "internalType": "uint256",
          "name": "",
          "type": "uint256"
        }
      ],
      "stateMutability": "view",
      "type": "function"
    },
    {
      "inputs": [
        {
          "internalType": "address",
          "name": "spender",
          "type": "address"
        },
        {
          "internalType": "uint256",
          "name": "amount",
          "type": "uint256"
        }
      ],
      "name": "approve",
      "outputs": [
        {
          "internalType": "bool",
          "name": "",
          "type": "bool"
        }
      ],
      "stateMutability": "nonpayable",
      "type": "function"
    },
    {
      "inputs": [],
      "name": "assetManager",
      "outputs": [
        {
          "internalType": "address",
          "name": "",
          "type": "address"
        }
      ],
      "stateMutability": "view",
      "type": "function"
    },
    {
      "inputs": [],
      "name": "assetName",
      "outputs": [
        {
          "internalType": "string",
          "name": "",
          "type": "string"
        }
      ],
      "stateMutability": "view",
      "type": "function"
    },
    {
      "inputs": [],
      "name": "assetSymbol",
      "outputs": [
        {
          "internalType": "string",
          "name": "",
          "type": "string"
        }
      ],
      "stateMutability": "view",
      "type": "function"
    },
    {
      "inputs": [
        {
          "internalType": "address",
          "name": "_owner",
          "type": "address"
        },
        {
          "internalType": "uint256",
          "name": "_count",
          "type": "uint256"
        }
      ],
      "name": "balanceHistoryCleanup",
      "outputs": [
        {
          "internalType": "uint256",
          "name": "",
          "type": "uint256"
        }
      ],
      "stateMutability": "nonpayable",
      "type": "function"
    },
    {
      "inputs": [
        {
          "internalType": "address",
          "name": "account",
          "type": "address"
        }
      ],
      "name": "balanceOf",
      "outputs": [
        {
          "internalType": "uint256",
          "name": "",
          "type": "uint256"
        }
      ],
      "stateMutability": "view",
      "type": "function"
    },
    {
      "inputs": [
        {
          "internalType": "address",
          "name": "_owner",
          "type": "address"
        },
        {
          "internalType": "uint256",
          "name": "_blockNumber",
          "type": "uint256"
        }
      ],
      "name": "balanceOfAt",
      "outputs": [
        {
          "internalType": "uint256",
          "name": "_balance",
          "type": "uint256"
        }
      ],
      "stateMutability": "view",
      "type": "function"
    },
    {
      "inputs": [
        {
          "internalType": "address",
          "name": "_owner",
          "type": "address"
        },
        {
          "internalType": "uint256",
          "name": "_amount",
          "type": "uint256"
        }
      ],
      "name": "burn",
      "outputs": [],
      "stateMutability": "nonpayable",
      "type": "function"
    },
    {
      "inputs": [],
      "name": "cleanerContract",
      "outputs": [
        {
          "internalType": "address",
          "name": "",
          "type": "address"
        }
      ],
      "stateMutability": "view",
      "type": "function"
    },
    {
      "inputs": [],
      "name": "cleanupBlockNumber",
      "outputs": [
        {
          "internalType": "uint256",
          "name": "",
          "type": "uint256"
        }
      ],
      "stateMutability": "view",
      "type": "function"
    },
    {
      "inputs": [],
      "name": "cleanupBlockNumberManager",
      "outputs": [
        {
          "internalType": "address",
          "name": "",
          "type": "address"
        }
      ],
      "stateMutability": "view",
      "type": "function"
    },
    {
      "inputs": [],
      "name": "decimals",
      "outputs": [
        {
          "internalType": "uint8",
          "name": "",
          "type": "uint8"
        }
      ],
      "stateMutability": "view",
      "type": "function"
    },
    {
      "inputs": [
        {
          "internalType": "address",
          "name": "spender",
          "type": "address"
        },
        {
          "internalType": "uint256",
          "name": "subtractedValue",
          "type": "uint256"
        }
      ],
      "name": "decreaseAllowance",
      "outputs": [
        {
          "internalType": "bool",
          "name": "",
          "type": "bool"
        }
      ],
      "stateMutability": "nonpayable",
      "type": "function"
    },
    {
      "inputs": [],
      "name": "eip712Domain",
      "outputs": [
        {
          "internalType": "bytes1",
          "name": "fields",
          "type": "bytes1"
        },
        {
          "internalType": "string",
          "name": "name",
          "type": "string"
        },
        {
          "internalType": "string",
          "name": "version",
          "type": "string"
        },
        {
          "internalType": "uint256",
          "name": "chainId",
          "type": "uint256"
        },
        {
          "internalType": "address",
          "name": "verifyingContract",
          "type": "address"
        },
        {
          "internalType": "bytes32",
          "name": "salt",
          "type": "bytes32"
        },
        {
          "internalType": "uint256[]",
          "name": "extensions",
          "type": "uint256[]"
        }
      ],
      "stateMutability": "view",
      "type": "function"
    },
    {
      "inputs": [],
      "name": "implementation",
      "outputs": [
        {
          "internalType": "address",
          "name": "",
          "type": "address"
        }
      ],
      "stateMutability": "view",
      "type": "function"
    },
    {
      "inputs": [
        {
          "internalType": "address",
          "name": "spender",
          "type": "address"
        },
        {
          "internalType": "uint256",
          "name": "addedValue",
          "type": "uint256"
        }
      ],
      "name": "increaseAllowance",
      "outputs": [
        {
          "internalType": "bool",
          "name": "",
          "type": "bool"
        }
      ],
      "stateMutability": "nonpayable",
      "type": "function"
    },
    {
      "inputs": [
        {
          "internalType": "string",
          "name": "name_",
          "type": "string"
        },
        {
          "internalType": "string",
          "name": "symbol_",
          "type": "string"
        },
        {
          "internalType": "string",
          "name": "assetName_",
          "type": "string"
        },
        {
          "internalType": "string",
          "name": "assetSymbol_",
          "type": "string"
        },
        {
          "internalType": "uint8",
          "name": "decimals_",
          "type": "uint8"
        }
      ],
      "name": "initialize",
      "outputs": [],
      "stateMutability": "nonpayable",
      "type": "function"
    },
    {
      "inputs": [],
      "name": "initializeV1r1",
      "outputs": [],
      "stateMutability": "nonpayable",
      "type": "function"
    },
    {
      "inputs": [
        {
          "internalType": "address",
          "name": "_owner",
          "type": "address"
        },
        {
          "internalType": "uint256",
          "name": "_amount",
          "type": "uint256"
        }
      ],
      "name": "mint",
      "outputs": [],
      "stateMutability": "nonpayable",
      "type": "function"
    },
    {
      "inputs": [],
      "name": "name",
      "outputs": [
        {
          "internalType": "string",
          "name": "",
          "type": "string"
        }
      ],
      "stateMutability": "view",
      "type": "function"
    },
    {
      "inputs": [
        {
          "internalType": "address",
          "name": "owner",
          "type": "address"
        }
      ],
      "name": "nonces",
      "outputs": [
        {
          "internalType": "uint256",
          "name": "",
          "type": "uint256"
        }
      ],
      "stateMutability": "view",
      "type": "function"
    },
    {
      "inputs": [
        {
          "internalType": "address",
          "name": "owner",
          "type": "address"
        },
        {
          "internalType": "address",
          "name": "spender",
          "type": "address"
        },
        {
          "internalType": "uint256",
          "name": "value",
          "type": "uint256"
        },
        {
          "internalType": "uint256",
          "name": "deadline",
          "type": "uint256"
        },
        {
          "internalType": "uint8",
          "name": "v",
          "type": "uint8"
        },
        {
          "internalType": "bytes32",
          "name": "r",
          "type": "bytes32"
        },
        {
          "internalType": "bytes32",
          "name": "s",
          "type": "bytes32"
        }
      ],
      "name": "permit",
      "outputs": [],
      "stateMutability": "nonpayable",
      "type": "function"
    },
    {
      "inputs": [],
      "name": "proxiableUUID",
      "outputs": [
        {
          "internalType": "bytes32",
          "name": "",
          "type": "bytes32"
        }
      ],
      "stateMutability": "view",
      "type": "function"
    },
    {
      "inputs": [
        {
          "internalType": "address",
          "name": "_assetManager",
          "type": "address"
        }
      ],
      "name": "setAssetManager",
      "outputs": [],
      "stateMutability": "nonpayable",
      "type": "function"
    },
    {
      "inputs": [
        {
          "internalType": "address",
          "name": "_cleanerContract",
          "type": "address"
        }
      ],
      "name": "setCleanerContract",
      "outputs": [],
      "stateMutability": "nonpayable",
      "type": "function"
    },
    {
      "inputs": [
        {
          "internalType": "uint256",
          "name": "_blockNumber",
          "type": "uint256"
        }
      ],
      "name": "setCleanupBlockNumber",
      "outputs": [],
      "stateMutability": "nonpayable",
      "type": "function"
    },
    {
      "inputs": [
        {
          "internalType": "address",
          "name": "_cleanupBlockNumberManager",
          "type": "address"
        }
      ],
      "name": "setCleanupBlockNumberManager",
      "outputs": [],
      "stateMutability": "nonpayable",
      "type": "function"
    },
    {
      "inputs": [
        {
          "internalType": "bytes4",
          "name": "_interfaceId",
          "type": "bytes4"
        }
      ],
      "name": "supportsInterface",
      "outputs": [
        {
          "internalType": "bool",
          "name": "",
          "type": "bool"
        }
      ],
      "stateMutability": "pure",
      "type": "function"
    },
    {
      "inputs": [],
      "name": "symbol",
      "outputs": [
        {
          "internalType": "string",
          "name": "",
          "type": "string"
        }
      ],
      "stateMutability": "view",
      "type": "function"
    },
    {
      "inputs": [],
      "name": "totalSupply",
      "outputs": [
        {
          "internalType": "uint256",
          "name": "",
          "type": "uint256"
        }
      ],
      "stateMutability": "view",
      "type": "function"
    },
    {
      "inputs": [
        {
          "internalType": "uint256",
          "name": "_blockNumber",
          "type": "uint256"
        }
      ],
      "name": "totalSupplyAt",
      "outputs": [
        {
          "internalType": "uint256",
          "name": "_totalSupply",
          "type": "uint256"
        }
      ],
      "stateMutability": "view",
      "type": "function"
    },
    {
      "inputs": [
        {
          "internalType": "uint256",
          "name": "_count",
          "type": "uint256"
        }
      ],
      "name": "totalSupplyHistoryCleanup",
      "outputs": [
        {
          "internalType": "uint256",
          "name": "",
          "type": "uint256"
        }
      ],
      "stateMutability": "nonpayable",
      "type": "function"
    },
    {
      "inputs": [
        {
          "internalType": "address",
          "name": "to",
          "type": "address"
        },
        {
          "internalType": "uint256",
          "name": "amount",
          "type": "uint256"
        }
      ],
      "name": "transfer",
      "outputs": [
        {
          "internalType": "bool",
          "name": "",
          "type": "bool"
        }
      ],
      "stateMutability": "nonpayable",
      "type": "function"
    },
    {
      "inputs": [
        {
          "internalType": "address",
          "name": "from",
          "type": "address"
        },
        {
          "internalType": "address",
          "name": "to",
          "type": "address"
        },
        {
          "internalType": "uint256",
          "name": "amount",
          "type": "uint256"
        }
      ],
      "name": "transferFrom",
      "outputs": [
        {
          "internalType": "bool",
          "name": "",
          "type": "bool"
        }
      ],
      "stateMutability": "nonpayable",
      "type": "function"
    },
    {
      "inputs": [
        {
          "internalType": "address",
          "name": "newImplementation",
          "type": "address"
        }
      ],
      "name": "upgradeTo",
      "outputs": [],
      "stateMutability": "nonpayable",
      "type": "function"
    },
    {
      "inputs": [
        {
          "internalType": "address",
          "name": "newImplementation",
          "type": "address"
        },
        {
          "internalType": "bytes",
          "name": "data",
          "type": "bytes"
        }
      ],
      "name": "upgradeToAndCall",
      "outputs": [],
      "stateMutability": "payable",
      "type": "function"
    }
  ],
  "bytecode": "0x60a06040523060805234801561001457600080fd5b5060408051602080820183526000808352835191820190935291825290600361003d8382610108565b50600461004a8282610108565b50506010805462ffffff60a81b19166203e80160a81b179055506101c6565b634e487b7160e01b600052604160045260246000fd5b600181811c9082168061009357607f821691505b6020821081036100b357634e487b7160e01b600052602260045260246000fd5b50919050565b601f82111561010357806000526020600020601f840160051c810160208510156100e05750805b601f840160051c820191505b8181101561010057600081556001016100ec565b50505b505050565b81516001600160401b0381111561012157610121610069565b6101358161012f845461007f565b846100b9565b6020601f82116001811461016957600083156101515750848201515b600019600385901b1c1916600184901b178455610100565b600084815260208120601f198516915b828110156101995787850151825560209485019460019092019101610179565b50848210156101b75786840151600019600387901b60f8161c191681555b50505050600190811b01905550565b6080516132196101fd60003960008181610977015281816109c001528181610b7d01528181610bbd0152610c3501526132196000f3fe6080604052600436106102255760003560e01c806370a08231116101235780639dc29fac116100ab578063dd62ed3e1161006f578063dd62ed3e14610640578063deea13e714610660578063f0e292c914610675578063f62f8f3a14610695578063f6a494af146106b557600080fd5b80639dc29fac146105ab578063a457c2d7146105cb578063a9059cbb146105eb578063c9230c5d1461060b578063d505accf1461062057600080fd5b806384b0196e116100f257806384b0196e1461050e57806394217ad11461053657806395d89b4114610556578063981b24d01461056b5780639ca20e4e1461058b57600080fd5b806370a08231146104785780637cfc672b146104ae5780637ecebe00146104ce5780637f4fcaa9146104ee57600080fd5b80633659cfe6116101b15780634ee2cd7e116101755780634ee2cd7e146104065780634f1ef2861461042657806352d1902d146104395780635c60da1b1461044e5780636ea121501461046357600080fd5b80633659cfe61461034e578063395093511461036e57806340c10f191461038e57806343060237146103ae5780634eac870f146103ce57600080fd5b8063176de7a8116101f8578063176de7a8146102c357806318160ddd146102d857806323b872dd146102f7578063313ce567146103175780633644e5151461033957600080fd5b806301ffc9a71461022a57806306fdde031461025f578063095ea7b31461028157806313de97f5146102a1575b600080fd5b34801561023657600080fd5b5061024a610245366004612a6f565b6106d5565b60405190151581526020015b60405180910390f35b34801561026b57600080fd5b506102746107c9565b6040516102569190612ae9565b34801561028d57600080fd5b5061024a61029c366004612b13565b61085b565b3480156102ad57600080fd5b506102c16102bc366004612b3d565b610873565b005b3480156102cf57600080fd5b506102746108aa565b3480156102e457600080fd5b506002545b604051908152602001610256565b34801561030357600080fd5b5061024a610312366004612b56565b610938565b34801561032357600080fd5b5060105460405160ff9091168152602001610256565b34801561034557600080fd5b506102e961095e565b34801561035a57600080fd5b506102c1610369366004612b93565b61096d565b34801561037a57600080fd5b5061024a610389366004612b13565b610a3b565b34801561039a57600080fd5b506102c16103a9366004612b13565b610a5d565b3480156103ba57600080fd5b506102c16103c9366004612b93565b610a96565b3480156103da57600080fd5b50600c546103ee906001600160a01b031681565b6040516001600160a01b039091168152602001610256565b34801561041257600080fd5b506102e9610421366004612b13565b610b39565b6102c1610434366004612c3c565b610b73565b34801561044557600080fd5b506102e9610c28565b34801561045a57600080fd5b506103ee610cdb565b34801561046f57600080fd5b506102c1610ce5565b34801561048457600080fd5b506102e9610493366004612b93565b6001600160a01b031660009081526020819052604090205490565b3480156104ba57600080fd5b506102c16104c9366004612cce565b610dd6565b3480156104da57600080fd5b506102e96104e9366004612b93565b610e71565b3480156104fa57600080fd5b506102c1610509366004612b93565b610eae565b34801561051a57600080fd5b50610523610efb565b6040516102569796959493929190612d9b565b34801561054257600080fd5b50600d546103ee906001600160a01b031681565b34801561056257600080fd5b5061027461109a565b34801561057757600080fd5b506102e9610586366004612b3d565b6110a9565b34801561059757600080fd5b506009546103ee906001600160a01b031681565b3480156105b757600080fd5b506102c16105c6366004612b13565b6110e3565b3480156105d757600080fd5b5061024a6105e6366004612b13565b611118565b3480156105f757600080fd5b5061024a610606366004612b13565b61119e565b34801561061757600080fd5b506102746111ac565b34801561062c57600080fd5b506102c161063b366004612e33565b6111b9565b34801561064c57600080fd5b506102e961065b366004612e9e565b6112bf565b34801561066c57600080fd5b506102e96112ea565b34801561068157600080fd5b506102e9610690366004612b13565b6112f5565b3480156106a157600080fd5b506102e96106b0366004612b3d565b611336565b3480156106c157600080fd5b506102c16106d0366004612b93565b61137a565b60006001600160e01b031982166301ffc9a760e01b148061070657506001600160e01b031982166336372b0760e01b145b8061072157506001600160e01b0319821663a219a02560e01b145b8061073c57506001600160e01b031982166342580cb760e11b145b8061075757506001600160e01b03198216634ec7fbed60e11b145b8061077257506001600160e01b03198216636b7cf4d760e11b145b8061078d57506001600160e01b0319821663129be44960e21b145b806107a857506001600160e01b0319821663ece0dd1360e01b145b806107c357506001600160e01b03198216633b9010bd60e01b145b92915050565b6060600e80546107d890612ed1565b80601f016020809104026020016040519081016040528092919081815260200182805461080490612ed1565b80156108515780601f1061082657610100808354040283529160200191610851565b820191906000526020600020905b81548152906001019060200180831161083457829003601f168201915b5050505050905090565b6000336108698185856113c3565b5060019392505050565b600c546001600160a01b0316331461089e57604051632f6902e160e11b815260040160405180910390fd5b6108a7816113d3565b50565b600b80546108b790612ed1565b80601f01602080910402602001604051908101604052809291908181526020018280546108e390612ed1565b80156109305780601f1061090557610100808354040283529160200191610930565b820191906000526020600020905b81548152906001019060200180831161091357829003601f168201915b505050505081565b60003361094685828561141b565b610951858585611495565b60019150505b9392505050565b6000610968611644565b905090565b6001600160a01b037f00000000000000000000000000000000000000000000000000000000000000001630036109be5760405162461bcd60e51b81526004016109b590612f05565b60405180910390fd5b7f00000000000000000000000000000000000000000000000000000000000000006001600160a01b03166109f06116d8565b6001600160a01b031614610a165760405162461bcd60e51b81526004016109b590612f51565b610a1f816116f4565b604080516000808252602082019092526108a79183919061171f565b600033610869818585610a4e83836112bf565b610a589190612fb3565b6113c3565b600d546001600160a01b03163314610a8857604051636d5ab9d360e01b815260040160405180910390fd5b610a92828261188a565b5050565b60105461010090046001600160a01b03163314610ac65760405163618bbdd560e01b815260040160405180910390fd5b6001600160a01b038116610aed5760405163329dc1cd60e11b815260040160405180910390fd5b600d546001600160a01b031615610b1757604051633d2846d760e21b815260040160405180910390fd5b600d80546001600160a01b0319166001600160a01b0392909216919091179055565b600081600854811015610b5f5760405163081ec76d60e01b815260040160405180910390fd5b610b6b60058585611955565b949350505050565b6001600160a01b037f0000000000000000000000000000000000000000000000000000000000000000163003610bbb5760405162461bcd60e51b81526004016109b590612f05565b7f00000000000000000000000000000000000000000000000000000000000000006001600160a01b0316610bed6116d8565b6001600160a01b031614610c135760405162461bcd60e51b81526004016109b590612f51565b610c1c826116f4565b610a928282600161171f565b6000306001600160a01b037f00000000000000000000000000000000000000000000000000000000000000001614610cc85760405162461bcd60e51b815260206004820152603860248201527f555550535570677261646561626c653a206d757374206e6f742062652063616c60448201527f6c6564207468726f7567682064656c656761746563616c6c000000000000000060648201526084016109b5565b5060008051602061319d83398151915290565b60006109686116d8565b601054600160b01b900461ffff1615610d115760405163108223e160e21b815260040160405180910390fd5b6010805461ffff60b01b1916600160b01b179055600e8054610dd49190610d3790612ed1565b80601f0160208091040260200160405190810160405280929190818152602001828054610d6390612ed1565b8015610db05780601f10610d8557610100808354040283529160200191610db0565b820191906000526020600020905b815481529060010190602001808311610d9357829003601f168201915b5050505050604051806040016040528060018152602001603160f81b815250611980565b565b601054600160a81b900460ff1615610e005760405162dc149f60e41b815260040160405180910390fd5b601080543361010002610100600160b01b031990911617600160a81b179055600e610e2b868261300d565b50600f610e38858261300d565b506010805460ff191660ff8316179055600a610e54848261300d565b50600b610e61838261300d565b50610e6a610ce5565b5050505050565b6001600160a01b03811660009081527f361beb44631d074062265988ad0b416453c05cfc27148633e5eff4da54187b0060205260408120546107c3565b600d546001600160a01b03163314610ed957604051636d5ab9d360e01b815260040160405180910390fd5b600c80546001600160a01b0319166001600160a01b0392909216919091179055565b600060608082808083817f4433daa742dbf1d9ef1ca283831944614879e423be777b51d57c60ed18a72100905060028101600382014630600080604051908082528060200260200182016040528015610f5e578160200160208202803683370190505b50600f60f81b959493929190858054610f7690612ed1565b80601f0160208091040260200160405190810160405280929190818152602001828054610fa290612ed1565b8015610fef5780601f10610fc457610100808354040283529160200191610fef565b820191906000526020600020905b815481529060010190602001808311610fd257829003601f168201915b5050505050955084805461100290612ed1565b80601f016020809104026020016040519081016040528092919081815260200182805461102e90612ed1565b801561107b5780601f106110505761010080835404028352916020019161107b565b820191906000526020600020905b81548152906001019060200180831161105e57829003601f168201915b5050505050945097509750975097509750975097505090919293949596565b6060600f80546107d890612ed1565b6000816008548110156110cf5760405163081ec76d60e01b815260040160405180910390fd5b6110da6006846119f5565b91505b50919050565b600d546001600160a01b0316331461110e57604051636d5ab9d360e01b815260040160405180910390fd5b610a928282611b35565b6000338161112682866112bf565b9050838110156111865760405162461bcd60e51b815260206004820152602560248201527f45524332303a2064656372656173656420616c6c6f77616e63652062656c6f77604482015264207a65726f60d81b60648201526084016109b5565b61119382868684036113c3565b506001949350505050565b600033610869818585611495565b600a80546108b790612ed1565b834211156111da576040516396ff523f60e01b815260040160405180910390fd5b60007f6e71edae12b1b97f4d1f60370fef10105fa2faae0126114a169c64845d6126c98888886112098c611c73565b6040805160208101969096526001600160a01b0394851690860152929091166060840152608083015260a082015260c0810186905260e001604051602081830303815290604052805190602001209050600061126482611cb8565b9050600061127482878787611ce5565b9050896001600160a01b0316816001600160a01b0316146112a8576040516310454c9960e31b815260040160405180910390fd5b6112b38a8a8a6113c3565b50505050505050505050565b6001600160a01b03918216600090815260016020908152604080832093909416825291909152205490565b600061096860085490565b6009546000906001600160a01b031633146113235760405163ad09c9b560e01b815260040160405180910390fd5b6008546109579060059085908590611d0d565b6009546000906001600160a01b031633146113645760405163ad09c9b560e01b815260040160405180910390fd5b6008546107c3906006908490611d53565b919050565b600d546001600160a01b031633146113a557604051636d5ab9d360e01b815260040160405180910390fd5b600980546001600160a01b0319166001600160a01b03831617905550565b6113ce838383611e6c565b505050565b6008548110156113f65760405163638bc35d60e11b815260040160405180910390fd5b43811061141657604051630994839760e21b815260040160405180910390fd5b600855565b600061142784846112bf565b9050600019811461148f57818110156114825760405162461bcd60e51b815260206004820152601d60248201527f45524332303a20696e73756666696369656e7420616c6c6f77616e636500000060448201526064016109b5565b61148f84848484036113c3565b50505050565b6001600160a01b0383166114f95760405162461bcd60e51b815260206004820152602560248201527f45524332303a207472616e736665722066726f6d20746865207a65726f206164604482015264647265737360d81b60648201526084016109b5565b6001600160a01b03821661155b5760405162461bcd60e51b815260206004820152602360248201527f45524332303a207472616e7366657220746f20746865207a65726f206164647260448201526265737360e81b60648201526084016109b5565b611566838383611f90565b6001600160a01b038316600090815260208190526040902054818110156115de5760405162461bcd60e51b815260206004820152602660248201527f45524332303a207472616e7366657220616d6f756e7420657863656564732062604482015265616c616e636560d01b60648201526084016109b5565b6001600160a01b03848116600081815260208181526040808320878703905593871680835291849020805487019055925185815290927fddf252ad1be2c89b69c2b068fc378daa952ba7f163c4a11628f55a4df523b3ef910160405180910390a361148f565b60006109686000807f4433daa742dbf1d9ef1ca283831944614879e423be777b51d57c60ed18a7210080546001820154604080517f8b73c3c69bb8fe3d512ecc4cf759cc79239f7b179b0ffacaa9a75d522b39400f60208201529081019290925260608201524660808201523060a082015290915060c0016040516020818303038152906040528051906020012091505090565b60008051602061319d833981519152546001600160a01b031690565b600d546001600160a01b031633146108a757604051636d5ab9d360e01b815260040160405180910390fd5b7f4910fdfa16fed3260ed0e7147f7cc6da11a60208b5b9406d12a635614ffd91435460ff1615611752576113ce836120d7565b826001600160a01b03166352d1902d6040518163ffffffff1660e01b8152600401602060405180830381865afa9250505080156117ac575060408051601f3d908101601f191682019092526117a9918101906130cb565b60015b61180f5760405162461bcd60e51b815260206004820152602e60248201527f45524331393637557067726164653a206e657720696d706c656d656e7461746960448201526d6f6e206973206e6f74205555505360901b60648201526084016109b5565b60008051602061319d833981519152811461187e5760405162461bcd60e51b815260206004820152602960248201527f45524331393637557067726164653a20756e737570706f727465642070726f786044820152681a58589b195555525160ba1b60648201526084016109b5565b506113ce838383612173565b6001600160a01b0382166118e05760405162461bcd60e51b815260206004820152601f60248201527f45524332303a206d696e7420746f20746865207a65726f20616464726573730060448201526064016109b5565b6118ec60008383611f90565b80600260008282546118fe9190612fb3565b90915550506001600160a01b038216600081815260208181526040808320805486019055518481527fddf252ad1be2c89b69c2b068fc378daa952ba7f163c4a11628f55a4df523b3ef910160405180910390a35050565b6001600160a01b038216600090815260208490526040812061197781846119f5565b95945050505050565b7f4433daa742dbf1d9ef1ca283831944614879e423be777b51d57c60ed18a721007f4433daa742dbf1d9ef1ca283831944614879e423be777b51d57c60ed18a721026119cc848261300d565b50600381016119db838261300d565b508251602093840120815581519190920120600190910155565b6001820154600090600160401b90046001600160401b0316808203611a1e5760009150506107c3565b4383101580611a5b5750836000611a366001846130e4565b8152602081019190915260400160002054600160c01b90046001600160401b03168310155b15611a9157836000611a6e6001846130e4565b81526020810191909152604001600020546001600160c01b031691506107c39050565b60018401546001600160401b039081166000818152602087905260409020549091600160c01b90910416841015611aec578015611ae157604051630375190f60e31b815260040160405180910390fd5b6000925050506107c3565b6001850154600090611b129087908490600160401b90046001600160401b031688612198565b6000908152602087905260409020546001600160c01b0316935050505092915050565b6001600160a01b038216611b955760405162461bcd60e51b815260206004820152602160248201527f45524332303a206275726e2066726f6d20746865207a65726f206164647265736044820152607360f81b60648201526084016109b5565b611ba182600083611f90565b6001600160a01b03821660009081526020819052604090205481811015611c155760405162461bcd60e51b815260206004820152602260248201527f45524332303a206275726e20616d6f756e7420657863656564732062616c616e604482015261636560f01b60648201526084016109b5565b6001600160a01b0383166000818152602081815260408083208686039055600280548790039055518581529192917fddf252ad1be2c89b69c2b068fc378daa952ba7f163c4a11628f55a4df523b3ef910160405180910390a3505050565b6001600160a01b03811660009081527f361beb44631d074062265988ad0b416453c05cfc27148633e5eff4da54187b00602052604090208054600181018255906110dd565b60006107c3611cc5611644565b8360405161190160f01b8152600281019290925260228201526042902090565b6000806000611cf687878787612219565b91509150611d03816122dd565b5095945050505050565b60006001600160a01b03841615611d48576001600160a01b0384166000908152602086905260409020611d41908484611d53565b9050610b6b565b506000949350505050565b600081600003611d6557506000610957565b6001840154600160401b90046001600160401b03166000819003611d8d576000915050610957565b60018501546001600160401b03166000611dba611daa8784612fb3565b611db56001866130e4565b612427565b9050815b8181108015611dfb575085886000611dd7846001612fb3565b8152602081019190915260400160002054600160c01b90046001600160401b031611155b15611e215760008181526020899052604081205580611e19816130f7565b915050611dbe565b82811115611e5657611e328161243d565b60018901805467ffffffffffffffff19166001600160401b03929092169190911790555b611e6083826130e4565b98975050505050505050565b6001600160a01b038316611ece5760405162461bcd60e51b8152602060048201526024808201527f45524332303a20617070726f76652066726f6d20746865207a65726f206164646044820152637265737360e01b60648201526084016109b5565b6001600160a01b038216611f2f5760405162461bcd60e51b815260206004820152602260248201527f45524332303a20617070726f766520746f20746865207a65726f206164647265604482015261737360f01b60648201526084016109b5565b6001600160a01b0383811660008181526001602090815260408083209487168084529482529182902085905590518481527f8c5be1e5ebec7d5bd14f71427d1e84f3dd0314c0f7b2291e5b200ac8c7c3b925910160405180910390a3505050565b6001600160a01b0383161580611fc4575080611fc1846001600160a01b031660009081526020819052604090205490565b10155b611fe15760405163db7b48e360e01b815260040160405180910390fd5b816001600160a01b0316836001600160a01b03160361201357604051636d6c4ee560e11b815260040160405180910390fd5b6001600160a01b038316158061203057506001600160a01b038216155b806120af5750600d60009054906101000a90046001600160a01b03166001600160a01b031663716676736040518163ffffffff1660e01b8152600401602060405180830381865afa158015612089573d6000803e3d6000fd5b505050506040513d601f19601f820116820180604052508101906120ad9190613110565b155b6120cc57604051636297b90d60e01b815260040160405180910390fd5b6113ce8383836124a9565b6001600160a01b0381163b6121445760405162461bcd60e51b815260206004820152602d60248201527f455243313936373a206e657720696d706c656d656e746174696f6e206973206e60448201526c1bdd08184818dbdb9d1c9858dd609a1b60648201526084016109b5565b60008051602061319d83398151915280546001600160a01b0319166001600160a01b0392909216919091179055565b61217c836124e4565b6000825111806121895750805b156113ce5761148f8383612524565b600083816121a76001866130e4565b90505b81811115611d0357600060026121c08484612fb3565b6121cb906001612fb3565b6121d59190613132565b600081815260208a90526040902054909150600160c01b90046001600160401b0316851061220557809250612213565b6122106001826130e4565b91505b506121aa565b6000807f7fffffffffffffffffffffffffffffff5d576e7357a4501ddfe92f46681b20a083111561225057506000905060036122d4565b6040805160008082526020820180845289905260ff881692820192909252606081018690526080810185905260019060a0016020604051602081039080840390855afa1580156122a4573d6000803e3d6000fd5b5050604051601f1901519150506001600160a01b0381166122cd576000600192509250506122d4565b9150600090505b94509492505050565b60008160048111156122f1576122f1613154565b036122f95750565b600181600481111561230d5761230d613154565b0361235a5760405162461bcd60e51b815260206004820152601860248201527f45434453413a20696e76616c6964207369676e6174757265000000000000000060448201526064016109b5565b600281600481111561236e5761236e613154565b036123bb5760405162461bcd60e51b815260206004820152601f60248201527f45434453413a20696e76616c6964207369676e6174757265206c656e6774680060448201526064016109b5565b60038160048111156123cf576123cf613154565b036108a75760405162461bcd60e51b815260206004820152602260248201527f45434453413a20696e76616c6964207369676e6174757265202773272076616c604482015261756560f01b60648201526084016109b5565b60008183106124365781610957565b5090919050565b60006001600160401b038211156124a55760405162461bcd60e51b815260206004820152602660248201527f53616665436173743a2076616c756520646f65736e27742066697420696e203660448201526534206269747360d01b60648201526084016109b5565b5090565b6001600160a01b0383166124c1576113ce8282612549565b6001600160a01b0382166124d9576113ce83826125b4565b6113ce838383612605565b6124ed816120d7565b6040516001600160a01b038216907fbc7cd75a20ee27fd9adebab32041f755214dbc6bffa90cc0225b39da2e5c2d3b90600090a250565b606061095783836040518060600160405280602781526020016131bd6027913961263b565b6000816125568443610b39565b6125609190612fb3565b905061256e600584836126b3565b600854612582906005908590600290611d0d565b506125a282612590436110a9565b61259a9190612fb3565b6006906126d1565b60085461148f90600690600290611d53565b6000816125c18443610b39565b6125cb91906130e4565b90506125d9600584836126b3565b6008546125ed906005908590600290611d0d565b506125a2826125fb436110a9565b61259a91906130e4565b6126126005848484612895565b600854612626906005908590600290611d0d565b5060085461148f906005908490600290611d0d565b6060600080856001600160a01b031685604051612658919061316a565b600060405180830381855af49150503d8060008114612693576040519150601f19603f3d011682016040523d82523d6000602084013e612698565b606091505b50915091506126a98683838761292e565b9695505050505050565b6001600160a01b038216600090815260208490526040902061148f81835b6001820154600160401b90046001600160401b0316600081900361277e576040518060400160405280612703846129a7565b6001600160c01b0316815260200161271a4361243d565b6001600160401b0390811690915260008080526020868152604090912083519390910151909116600160c01b026001600160c01b039092169190911790556001830180546fffffffffffffffff00000000000000001916600160401b179055505050565b6000838161278d6001856130e4565b815260208101919091526040016000208054909150600160c01b90046001600160401b0316438190036127e3576127c3846129a7565b82546001600160c01b0319166001600160c01b0391909116178255610e6a565b8043116127f2576127f2613186565b6040518060400160405280612806866129a7565b6001600160c01b0316815260200161281d4361243d565b6001600160401b0390811690915260008581526020888152604090912083519390910151909116600160c01b026001600160c01b03909216919091179055612866836001612fb3565b8560010160086101000a8154816001600160401b0302191690836001600160401b031602179055505050505050565b801561148f576001600160a01b0383161580156128b957506001600160a01b038216155b156128c6576128c6613186565b6001600160a01b038316156128fb576000816128e286866129cd565b6128ec91906130e4565b90506128f98585836126b3565b505b6001600160a01b0382161561148f5760008161291786856129cd565b6129219190612fb3565b9050610e6a8584836126b3565b6060831561299d578251600003612996576001600160a01b0385163b6129965760405162461bcd60e51b815260206004820152601d60248201527f416464726573733a2063616c6c20746f206e6f6e2d636f6e747261637400000060448201526064016109b5565b5081610b6b565b610b6b83836129ee565b6000600160c01b82106124a55760405163029653c360e01b815260040160405180910390fd5b6001600160a01b0381166000908152602083905260408120610b6b81612a18565b8151156129fe5781518083602001fd5b8060405162461bcd60e51b81526004016109b59190612ae9565b6001810154600090600160401b90046001600160401b0316808203612a405750600092915050565b826000612a4e6001846130e4565b81526020810191909152604001600020546001600160c01b03169392505050565b600060208284031215612a8157600080fd5b81356001600160e01b03198116811461095757600080fd5b60005b83811015612ab4578181015183820152602001612a9c565b50506000910152565b60008151808452612ad5816020860160208601612a99565b601f01601f19169290920160200192915050565b6020815260006109576020830184612abd565b80356001600160a01b038116811461137557600080fd5b60008060408385031215612b2657600080fd5b612b2f83612afc565b946020939093013593505050565b600060208284031215612b4f57600080fd5b5035919050565b600080600060608486031215612b6b57600080fd5b612b7484612afc565b9250612b8260208501612afc565b929592945050506040919091013590565b600060208284031215612ba557600080fd5b61095782612afc565b634e487b7160e01b600052604160045260246000fd5b6000806001600160401b03841115612bde57612bde612bae565b50604051601f19601f85018116603f011681018181106001600160401b0382111715612c0c57612c0c612bae565b604052838152905080828401851015612c2457600080fd5b83836020830137600060208583010152509392505050565b60008060408385031215612c4f57600080fd5b612c5883612afc565b915060208301356001600160401b03811115612c7357600080fd5b8301601f81018513612c8457600080fd5b612c9385823560208401612bc4565b9150509250929050565b600082601f830112612cae57600080fd5b61095783833560208501612bc4565b803560ff8116811461137557600080fd5b600080600080600060a08688031215612ce657600080fd5b85356001600160401b03811115612cfc57600080fd5b612d0888828901612c9d565b95505060208601356001600160401b03811115612d2457600080fd5b612d3088828901612c9d565b94505060408601356001600160401b03811115612d4c57600080fd5b612d5888828901612c9d565b93505060608601356001600160401b03811115612d7457600080fd5b612d8088828901612c9d565b925050612d8f60808701612cbd565b90509295509295909350565b60ff60f81b8816815260e060208201526000612dba60e0830189612abd565b8281036040840152612dcc8189612abd565b606084018890526001600160a01b038716608085015260a0840186905283810360c08501528451808252602080870193509091019060005b81811015612e22578351835260209384019390920191600101612e04565b50909b9a5050505050505050505050565b600080600080600080600060e0888a031215612e4e57600080fd5b612e5788612afc565b9650612e6560208901612afc565b95506040880135945060608801359350612e8160808901612cbd565b9699959850939692959460a0840135945060c09093013592915050565b60008060408385031215612eb157600080fd5b612eba83612afc565b9150612ec860208401612afc565b90509250929050565b600181811c90821680612ee557607f821691505b6020821081036110dd57634e487b7160e01b600052602260045260246000fd5b6020808252602c908201527f46756e6374696f6e206d7573742062652063616c6c6564207468726f7567682060408201526b19195b1959d85d1958d85b1b60a21b606082015260800190565b6020808252602c908201527f46756e6374696f6e206d7573742062652063616c6c6564207468726f7567682060408201526b6163746976652070726f787960a01b606082015260800190565b634e487b7160e01b600052601160045260246000fd5b808201808211156107c3576107c3612f9d565b601f8211156113ce57806000526020600020601f840160051c81016020851015612fed5750805b601f840160051c820191505b81811015610e6a5760008155600101612ff9565b81516001600160401b0381111561302657613026612bae565b61303a816130348454612ed1565b84612fc6565b6020601f82116001811461306e57600083156130565750848201515b600019600385901b1c1916600184901b178455610e6a565b600084815260208120601f198516915b8281101561309e578785015182556020948501946001909201910161307e565b50848210156130bc5786840151600019600387901b60f8161c191681555b50505050600190811b01905550565b6000602082840312156130dd57600080fd5b5051919050565b818103818111156107c3576107c3612f9d565b60006001820161310957613109612f9d565b5060010190565b60006020828403121561312257600080fd5b8151801515811461095757600080fd5b60008261314f57634e487b7160e01b600052601260045260246000fd5b500490565b634e487b7160e01b600052602160045260246000fd5b6000825161317c818460208701612a99565b9190910192915050565b634e487b7160e01b600052600160045260246000fdfe360894a13ba1a3210667c828492db98dca3e2076cc3735a920a3ca505d382bbc416464726573733a206c6f772d6c6576656c2064656c65676174652063616c6c206661696c6564a2646970667358221220d51b9a51134af71803e35b62103adfc595c63a1d621fd0fc07d2f9eb9286971464736f6c634300081b0033",
  "linkReferences": {},
  "deployedLinkReferences": {}
}