{
  "_format": "hh-sol-artifact-1",
  "contractName": "FAsset",
  "sourceName": "contracts/fassetToken/implementation/FAsset.sol",
  "abi": [
    {
      "inputs": [],
      "stateMutability": "nonpayable",
      "type": "constructor"
    },
    {
      "anonymous": false,
      "inputs": [
        {
          "indexed": false,
          "internalType": "address",
          "name": "previousAdmin",
          "type": "address"
        },
        {
          "indexed": false,
          "internalType": "address",
          "name": "newAdmin",
          "type": "address"
        }
      ],
      "name": "AdminChanged",
      "type": "event"
    },
    {
      "anonymous": false,
      "inputs": [
        {
          "indexed": true,
          "internalType": "address",
          "name": "owner",
          "type": "address"
        },
        {
          "indexed": true,
          "internalType": "address",
          "name": "spender",
          "type": "address"
        },
        {
          "indexed": false,
          "internalType": "uint256",
          "name": "value",
          "type": "uint256"
        }
      ],
      "name": "Approval",
      "type": "event"
    },
    {
      "anonymous": false,
      "inputs": [
        {
          "indexed": true,
          "internalType": "address",
          "name": "beacon",
          "type": "address"
        }
      ],
      "name": "BeaconUpgraded",
      "type": "event"
    },
    {
      "anonymous": false,
      "inputs": [
        {
          "indexed": false,
          "internalType": "uint256",
          "name": "_blockNumber",
          "type": "uint256"
        }
      ],
      "name": "CreatedTotalSupplyCache",
      "type": "event"
    },
    {
      "anonymous": false,
      "inputs": [],
      "name": "EIP712DomainChanged",
      "type": "event"
    },
    {
      "anonymous": false,
      "inputs": [
        {
          "indexed": true,
          "internalType": "address",
          "name": "from",
          "type": "address"
        },
        {
          "indexed": true,
          "internalType": "address",
          "name": "to",
          "type": "address"
        },
        {
          "indexed": false,
          "internalType": "uint256",
          "name": "value",
          "type": "uint256"
        }
      ],
      "name": "Transfer",
      "type": "event"
    },
    {
      "anonymous": false,
      "inputs": [
        {
          "indexed": true,
          "internalType": "address",
          "name": "implementation",
          "type": "address"
        }
      ],
      "name": "Upgraded",
      "type": "event"
    },
    {
      "inputs": [],
      "name": "DOMAIN_SEPARATOR",
      "outputs": [
        {
          "internalType": "bytes32",
          "name": "",
          "type": "bytes32"
        }
      ],
      "stateMutability": "view",
      "type": "function"
    },
    {
      "inputs": [
        {
          "internalType": "address",
          "name": "owner",
          "type": "address"
        },
        {
          "internalType": "address",
          "name": "spender",
          "type": "address"
        }
      ],
      "name": "allowance",
      "outputs": [
        {
          "internalType": "uint256",
          "name": "",
          "type": "uint256"
        }
      ],
      "stateMutability": "view",
      "type": "function"
    },
    {
      "inputs": [
        {
          "internalType": "address",
          "name": "spender",
          "type": "address"
        },
        {
          "internalType": "uint256",
          "name": "amount",
          "type": "uint256"
        }
      ],
      "name": "approve",
      "outputs": [
        {
          "internalType": "bool",
          "name": "",
          "type": "bool"
        }
      ],
      "stateMutability": "nonpayable",
      "type": "function"
    },
    {
      "inputs": [],
      "name": "assetManager",
      "outputs": [
        {
          "internalType": "address",
          "name": "",
          "type": "address"
        }
      ],
      "stateMutability": "view",
      "type": "function"
    },
    {
      "inputs": [],
      "name": "assetName",
      "outputs": [
        {
          "internalType": "string",
          "name": "",
          "type": "string"
        }
      ],
      "stateMutability": "view",
      "type": "function"
    },
    {
      "inputs": [],
      "name": "assetSymbol",
      "outputs": [
        {
          "internalType": "string",
          "name": "",
          "type": "string"
        }
      ],
      "stateMutability": "view",
      "type": "function"
    },
    {
      "inputs": [
        {
          "internalType": "address",
          "name": "_owner",
          "type": "address"
        },
        {
          "internalType": "uint256",
          "name": "_count",
          "type": "uint256"
        }
      ],
      "name": "balanceHistoryCleanup",
      "outputs": [
        {
          "internalType": "uint256",
          "name": "",
          "type": "uint256"
        }
      ],
      "stateMutability": "nonpayable",
      "type": "function"
    },
    {
      "inputs": [
        {
          "internalType": "address",
          "name": "account",
          "type": "address"
        }
      ],
      "name": "balanceOf",
      "outputs": [
        {
          "internalType": "uint256",
          "name": "",
          "type": "uint256"
        }
      ],
      "stateMutability": "view",
      "type": "function"
    },
    {
      "inputs": [
        {
          "internalType": "address",
          "name": "_owner",
          "type": "address"
        },
        {
          "internalType": "uint256",
          "name": "_blockNumber",
          "type": "uint256"
        }
      ],
      "name": "balanceOfAt",
      "outputs": [
        {
          "internalType": "uint256",
          "name": "_balance",
          "type": "uint256"
        }
      ],
      "stateMutability": "view",
      "type": "function"
    },
    {
      "inputs": [
        {
          "internalType": "address",
          "name": "_owner",
          "type": "address"
        },
        {
          "internalType": "uint256",
          "name": "_amount",
          "type": "uint256"
        }
      ],
      "name": "burn",
      "outputs": [],
      "stateMutability": "nonpayable",
      "type": "function"
    },
    {
      "inputs": [],
      "name": "cleanerContract",
      "outputs": [
        {
          "internalType": "address",
          "name": "",
          "type": "address"
        }
      ],
      "stateMutability": "view",
      "type": "function"
    },
    {
      "inputs": [],
      "name": "cleanupBlockNumber",
      "outputs": [
        {
          "internalType": "uint256",
          "name": "",
          "type": "uint256"
        }
      ],
      "stateMutability": "view",
      "type": "function"
    },
    {
      "inputs": [],
      "name": "cleanupBlockNumberManager",
      "outputs": [
        {
          "internalType": "address",
          "name": "",
          "type": "address"
        }
      ],
      "stateMutability": "view",
      "type": "function"
    },
    {
      "inputs": [],
      "name": "decimals",
      "outputs": [
        {
          "internalType": "uint8",
          "name": "",
          "type": "uint8"
        }
      ],
      "stateMutability": "view",
      "type": "function"
    },
    {
      "inputs": [
        {
          "internalType": "address",
          "name": "spender",
          "type": "address"
        },
        {
          "internalType": "uint256",
          "name": "subtractedValue",
          "type": "uint256"
        }
      ],
      "name": "decreaseAllowance",
      "outputs": [
        {
          "internalType": "bool",
          "name": "",
          "type": "bool"
        }
      ],
      "stateMutability": "nonpayable",
      "type": "function"
    },
    {
      "inputs": [],
      "name": "eip712Domain",
      "outputs": [
        {
          "internalType": "bytes1",
          "name": "fields",
          "type": "bytes1"
        },
        {
          "internalType": "string",
          "name": "name",
          "type": "string"
        },
        {
          "internalType": "string",
          "name": "version",
          "type": "string"
        },
        {
          "internalType": "uint256",
          "name": "chainId",
          "type": "uint256"
        },
        {
          "internalType": "address",
          "name": "verifyingContract",
          "type": "address"
        },
        {
          "internalType": "bytes32",
          "name": "salt",
          "type": "bytes32"
        },
        {
          "internalType": "uint256[]",
          "name": "extensions",
          "type": "uint256[]"
        }
      ],
      "stateMutability": "view",
      "type": "function"
    },
    {
      "inputs": [],
      "name": "implementation",
      "outputs": [
        {
          "internalType": "address",
          "name": "",
          "type": "address"
        }
      ],
      "stateMutability": "view",
      "type": "function"
    },
    {
      "inputs": [
        {
          "internalType": "address",
          "name": "spender",
          "type": "address"
        },
        {
          "internalType": "uint256",
          "name": "addedValue",
          "type": "uint256"
        }
      ],
      "name": "increaseAllowance",
      "outputs": [
        {
          "internalType": "bool",
          "name": "",
          "type": "bool"
        }
      ],
      "stateMutability": "nonpayable",
      "type": "function"
    },
    {
      "inputs": [
        {
          "internalType": "string",
          "name": "name_",
          "type": "string"
        },
        {
          "internalType": "string",
          "name": "symbol_",
          "type": "string"
        },
        {
          "internalType": "string",
          "name": "assetName_",
          "type": "string"
        },
        {
          "internalType": "string",
          "name": "assetSymbol_",
          "type": "string"
        },
        {
          "internalType": "uint8",
          "name": "decimals_",
          "type": "uint8"
        }
      ],
      "name": "initialize",
      "outputs": [],
      "stateMutability": "nonpayable",
      "type": "function"
    },
    {
      "inputs": [],
      "name": "initializeV1r1",
      "outputs": [],
      "stateMutability": "nonpayable",
      "type": "function"
    },
    {
      "inputs": [
        {
          "internalType": "address",
          "name": "_owner",
          "type": "address"
        },
        {
          "internalType": "uint256",
          "name": "_amount",
          "type": "uint256"
        }
      ],
      "name": "mint",
      "outputs": [],
      "stateMutability": "nonpayable",
      "type": "function"
    },
    {
      "inputs": [],
      "name": "name",
      "outputs": [
        {
          "internalType": "string",
          "name": "",
          "type": "string"
        }
      ],
      "stateMutability": "view",
      "type": "function"
    },
    {
      "inputs": [
        {
          "internalType": "address",
          "name": "owner",
          "type": "address"
        }
      ],
      "name": "nonces",
      "outputs": [
        {
          "internalType": "uint256",
          "name": "",
          "type": "uint256"
        }
      ],
      "stateMutability": "view",
      "type": "function"
    },
    {
      "inputs": [
        {
          "internalType": "address",
          "name": "owner",
          "type": "address"
        },
        {
          "internalType": "address",
          "name": "spender",
          "type": "address"
        },
        {
          "internalType": "uint256",
          "name": "value",
          "type": "uint256"
        },
        {
          "internalType": "uint256",
          "name": "deadline",
          "type": "uint256"
        },
        {
          "internalType": "uint8",
          "name": "v",
          "type": "uint8"
        },
        {
          "internalType": "bytes32",
          "name": "r",
          "type": "bytes32"
        },
        {
          "internalType": "bytes32",
          "name": "s",
          "type": "bytes32"
        }
      ],
      "name": "permit",
      "outputs": [],
      "stateMutability": "nonpayable",
      "type": "function"
    },
    {
      "inputs": [],
      "name": "proxiableUUID",
      "outputs": [
        {
          "internalType": "bytes32",
          "name": "",
          "type": "bytes32"
        }
      ],
      "stateMutability": "view",
      "type": "function"
    },
    {
      "inputs": [
        {
          "internalType": "address",
          "name": "_assetManager",
          "type": "address"
        }
      ],
      "name": "setAssetManager",
      "outputs": [],
      "stateMutability": "nonpayable",
      "type": "function"
    },
    {
      "inputs": [
        {
          "internalType": "address",
          "name": "_cleanerContract",
          "type": "address"
        }
      ],
      "name": "setCleanerContract",
      "outputs": [],
      "stateMutability": "nonpayable",
      "type": "function"
    },
    {
      "inputs": [
        {
          "internalType": "uint256",
          "name": "_blockNumber",
          "type": "uint256"
        }
      ],
      "name": "setCleanupBlockNumber",
      "outputs": [],
      "stateMutability": "nonpayable",
      "type": "function"
    },
    {
      "inputs": [
        {
          "internalType": "address",
          "name": "_cleanupBlockNumberManager",
          "type": "address"
        }
      ],
      "name": "setCleanupBlockNumberManager",
      "outputs": [],
      "stateMutability": "nonpayable",
      "type": "function"
    },
    {
      "inputs": [
        {
          "internalType": "bytes4",
          "name": "_interfaceId",
          "type": "bytes4"
        }
      ],
      "name": "supportsInterface",
      "outputs": [
        {
          "internalType": "bool",
          "name": "",
          "type": "bool"
        }
      ],
      "stateMutability": "pure",
      "type": "function"
    },
    {
      "inputs": [],
      "name": "symbol",
      "outputs": [
        {
          "internalType": "string",
          "name": "",
          "type": "string"
        }
      ],
      "stateMutability": "view",
      "type": "function"
    },
    {
      "inputs": [],
      "name": "totalSupply",
      "outputs": [
        {
          "internalType": "uint256",
          "name": "",
          "type": "uint256"
        }
      ],
      "stateMutability": "view",
      "type": "function"
    },
    {
      "inputs": [
        {
          "internalType": "uint256",
          "name": "_blockNumber",
          "type": "uint256"
        }
      ],
      "name": "totalSupplyAt",
      "outputs": [
        {
          "internalType": "uint256",
          "name": "_totalSupply",
          "type": "uint256"
        }
      ],
      "stateMutability": "view",
      "type": "function"
    },
    {
      "inputs": [
        {
          "internalType": "uint256",
          "name": "_count",
          "type": "uint256"
        }
      ],
      "name": "totalSupplyHistoryCleanup",
      "outputs": [
        {
          "internalType": "uint256",
          "name": "",
          "type": "uint256"
        }
      ],
      "stateMutability": "nonpayable",
      "type": "function"
    },
    {
      "inputs": [
        {
          "internalType": "address",
          "name": "to",
          "type": "address"
        },
        {
          "internalType": "uint256",
          "name": "amount",
          "type": "uint256"
        }
      ],
      "name": "transfer",
      "outputs": [
        {
          "internalType": "bool",
          "name": "",
          "type": "bool"
        }
      ],
      "stateMutability": "nonpayable",
      "type": "function"
    },
    {
      "inputs": [
        {
          "internalType": "address",
          "name": "from",
          "type": "address"
        },
        {
          "internalType": "address",
          "name": "to",
          "type": "address"
        },
        {
          "internalType": "uint256",
          "name": "amount",
          "type": "uint256"
        }
      ],
      "name": "transferFrom",
      "outputs": [
        {
          "internalType": "bool",
          "name": "",
          "type": "bool"
        }
      ],
      "stateMutability": "nonpayable",
      "type": "function"
    },
    {
      "inputs": [
        {
          "internalType": "address",
          "name": "newImplementation",
          "type": "address"
        }
      ],
      "name": "upgradeTo",
      "outputs": [],
      "stateMutability": "nonpayable",
      "type": "function"
    },
    {
      "inputs": [
        {
          "internalType": "address",
          "name": "newImplementation",
          "type": "address"
        },
        {
          "internalType": "bytes",
          "name": "data",
          "type": "bytes"
        }
      ],
      "name": "upgradeToAndCall",
      "outputs": [],
      "stateMutability": "payable",
      "type": "function"
    }
  ],
  "bytecode": "0x60a06040523060805234801561001457600080fd5b5060408051602080820183526000808352835191820190935291825290600361003d8382610108565b50600461004a8282610108565b50506010805462ffffff60a81b19166203e80160a81b179055506101c6565b634e487b7160e01b600052604160045260246000fd5b600181811c9082168061009357607f821691505b6020821081036100b357634e487b7160e01b600052602260045260246000fd5b50919050565b601f82111561010357806000526020600020601f840160051c810160208510156100e05750805b601f840160051c820191505b8181101561010057600081556001016100ec565b50505b505050565b81516001600160401b0381111561012157610121610069565b6101358161012f845461007f565b846100b9565b6020601f82116001811461016957600083156101515750848201515b600019600385901b1c1916600184901b178455610100565b600084815260208120601f198516915b828110156101995787850151825560209485019460019092019101610179565b50848210156101b75786840151600019600387901b60f8161c191681555b50505050600190811b01905550565b60805161363c6101fd600039600081816109ab015281816109eb01528181610c1801528181610c580152610cd0015261363c6000f3fe6080604052600436106102255760003560e01c806370a08231116101235780639dc29fac116100ab578063dd62ed3e1161006f578063dd62ed3e14610640578063deea13e714610660578063f0e292c914610675578063f62f8f3a14610695578063f6a494af146106b557600080fd5b80639dc29fac146105ab578063a457c2d7146105cb578063a9059cbb146105eb578063c9230c5d1461060b578063d505accf1461062057600080fd5b806384b0196e116100f257806384b0196e1461050e57806394217ad11461053657806395d89b4114610556578063981b24d01461056b5780639ca20e4e1461058b57600080fd5b806370a08231146104785780637cfc672b146104ae5780637ecebe00146104ce5780637f4fcaa9146104ee57600080fd5b80633659cfe6116101b15780634ee2cd7e116101755780634ee2cd7e146104065780634f1ef2861461042657806352d1902d146104395780635c60da1b1461044e5780636ea121501461046357600080fd5b80633659cfe61461034e578063395093511461036e57806340c10f191461038e57806343060237146103ae5780634eac870f146103ce57600080fd5b8063176de7a8116101f8578063176de7a8146102c357806318160ddd146102d857806323b872dd146102f7578063313ce567146103175780633644e5151461033957600080fd5b806301ffc9a71461022a57806306fdde031461025f578063095ea7b31461028157806313de97f5146102a1575b600080fd5b34801561023657600080fd5b5061024a610245366004612e19565b6106d5565b60405190151581526020015b60405180910390f35b34801561026b57600080fd5b506102746107c9565b6040516102569190612e93565b34801561028d57600080fd5b5061024a61029c366004612ebd565b61085b565b3480156102ad57600080fd5b506102c16102bc366004612ee7565b610873565b005b3480156102cf57600080fd5b506102746108de565b3480156102e457600080fd5b506002545b604051908152602001610256565b34801561030357600080fd5b5061024a610312366004612f00565b61096c565b34801561032357600080fd5b5060105460405160ff9091168152602001610256565b34801561034557600080fd5b506102e9610992565b34801561035a57600080fd5b506102c1610369366004612f3d565b6109a1565b34801561037a57600080fd5b5061024a610389366004612ebd565b610a66565b34801561039a57600080fd5b506102c16103a9366004612ebd565b610a88565b3480156103ba57600080fd5b506102c16103c9366004612f3d565b610ac0565b3480156103da57600080fd5b50600c546103ee906001600160a01b031681565b6040516001600160a01b039091168152602001610256565b34801561041257600080fd5b506102e9610421366004612ebd565b610bd5565b6102c1610434366004612fe6565b610c0e565b34801561044557600080fd5b506102e9610cc3565b34801561045a57600080fd5b506103ee610d76565b34801561046f57600080fd5b506102c1610d80565b34801561048457600080fd5b506102e9610493366004612f3d565b6001600160a01b031660009081526020819052604090205490565b3480156104ba57600080fd5b506102c16104c9366004613078565b610e93565b3480156104da57600080fd5b506102e96104e9366004612f3d565b610f54565b3480156104fa57600080fd5b506102c1610509366004612f3d565b610f91565b34801561051a57600080fd5b50610523610fdd565b6040516102569796959493929190613145565b34801561054257600080fd5b50600d546103ee906001600160a01b031681565b34801561056257600080fd5b5061027461117c565b34801561057757600080fd5b506102e9610586366004612ee7565b61118b565b34801561059757600080fd5b506009546103ee906001600160a01b031681565b3480156105b757600080fd5b506102c16105c6366004612ebd565b6111c4565b3480156105d757600080fd5b5061024a6105e6366004612ebd565b6111f8565b3480156105f757600080fd5b5061024a610606366004612ebd565b61127e565b34801561061757600080fd5b5061027461128c565b34801561062c57600080fd5b506102c161063b3660046131dd565b611299565b34801561064c57600080fd5b506102e961065b366004613248565b6113fd565b34801561066c57600080fd5b506102e9611428565b34801561068157600080fd5b506102e9610690366004612ebd565b611433565b3480156106a157600080fd5b506102e96106b0366004612ee7565b61149b565b3480156106c157600080fd5b506102c16106d0366004612f3d565b611506565b60006001600160e01b031982166301ffc9a760e01b148061070657506001600160e01b031982166336372b0760e01b145b8061072157506001600160e01b0319821663a219a02560e01b145b8061073c57506001600160e01b031982166342580cb760e11b145b8061075757506001600160e01b03198216634ec7fbed60e11b145b8061077257506001600160e01b03198216636b7cf4d760e11b145b8061078d57506001600160e01b0319821663129be44960e21b145b806107a857506001600160e01b0319821663ece0dd1360e01b145b806107c357506001600160e01b03198216633b9010bd60e01b145b92915050565b6060600e80546107d89061327b565b80601f01602080910402602001604051908101604052809291908181526020018280546108049061327b565b80156108515780601f1061082657610100808354040283529160200191610851565b820191906000526020600020905b81548152906001019060200180831161083457829003601f168201915b5050505050905090565b60003361086981858561154e565b5060019392505050565b600c546001600160a01b031633146108d25760405162461bcd60e51b815260206004820152601a60248201527f6f6e6c7920636c65616e757020626c6f636b206d616e6167657200000000000060448201526064015b60405180910390fd5b6108db8161155e565b50565b600b80546108eb9061327b565b80601f01602080910402602001604051908101604052809291908181526020018280546109179061327b565b80156109645780601f1061093957610100808354040283529160200191610964565b820191906000526020600020905b81548152906001019060200180831161094757829003601f168201915b505050505081565b60003361097a85828561161f565b610985858585611699565b60019150505b9392505050565b600061099c611848565b905090565b6001600160a01b037f00000000000000000000000000000000000000000000000000000000000000001630036109e95760405162461bcd60e51b81526004016108c9906132af565b7f00000000000000000000000000000000000000000000000000000000000000006001600160a01b0316610a1b6118dc565b6001600160a01b031614610a415760405162461bcd60e51b81526004016108c9906132fb565b610a4a816118f8565b604080516000808252602082019092526108db91839190611922565b600033610869818585610a7983836113fd565b610a83919061335d565b61154e565b600d546001600160a01b03163314610ab25760405162461bcd60e51b81526004016108c990613370565b610abc8282611a8d565b5050565b60105461010090046001600160a01b03163314610b0f5760405162461bcd60e51b815260206004820152600d60248201526c37b7363c903232b83637bcb2b960991b60448201526064016108c9565b6001600160a01b038116610b5a5760405162461bcd60e51b81526020600482015260126024820152713d32b9379030b9b9b2ba1036b0b730b3b2b960711b60448201526064016108c9565b600d546001600160a01b031615610bb35760405162461bcd60e51b815260206004820152601c60248201527f63616e6e6f74207265706c616365206173736574206d616e616765720000000060448201526064016108c9565b600d80546001600160a01b0319166001600160a01b0392909216919091179055565b600081600854811015610bfa5760405162461bcd60e51b81526004016108c99061339c565b610c0660058585611b58565b949350505050565b6001600160a01b037f0000000000000000000000000000000000000000000000000000000000000000163003610c565760405162461bcd60e51b81526004016108c9906132af565b7f00000000000000000000000000000000000000000000000000000000000000006001600160a01b0316610c886118dc565b6001600160a01b031614610cae5760405162461bcd60e51b81526004016108c9906132fb565b610cb7826118f8565b610abc82826001611922565b6000306001600160a01b037f00000000000000000000000000000000000000000000000000000000000000001614610d635760405162461bcd60e51b815260206004820152603860248201527f555550535570677261646561626c653a206d757374206e6f742062652063616c60448201527f6c6564207468726f7567682064656c656761746563616c6c000000000000000060648201526084016108c9565b506000805160206135c083398151915290565b600061099c6118dc565b601054600160b01b900461ffff1615610dce5760405162461bcd60e51b815260206004820152601060248201526f185b1c9958591e481d5c19dc9859195960821b60448201526064016108c9565b6010805461ffff60b01b1916600160b01b179055600e8054610e919190610df49061327b565b80601f0160208091040260200160405190810160405280929190818152602001828054610e209061327b565b8015610e6d5780601f10610e4257610100808354040283529160200191610e6d565b820191906000526020600020905b815481529060010190602001808311610e5057829003601f168201915b5050505050604051806040016040528060018152602001603160f81b815250611b83565b565b601054600160a81b900460ff1615610ee35760405162461bcd60e51b8152602060048201526013602482015272185b1c9958591e481a5b9a5d1a585b1a5e9959606a1b60448201526064016108c9565b601080543361010002610100600160b01b031990911617600160a81b179055600e610f0e8682613430565b50600f610f1b8582613430565b506010805460ff191660ff8316179055600a610f378482613430565b50600b610f448382613430565b50610f4d610d80565b5050505050565b6001600160a01b03811660009081527f361beb44631d074062265988ad0b416453c05cfc27148633e5eff4da54187b0060205260408120546107c3565b600d546001600160a01b03163314610fbb5760405162461bcd60e51b81526004016108c990613370565b600c80546001600160a01b0319166001600160a01b0392909216919091179055565b600060608082808083817f4433daa742dbf1d9ef1ca283831944614879e423be777b51d57c60ed18a72100905060028101600382014630600080604051908082528060200260200182016040528015611040578160200160208202803683370190505b50600f60f81b9594939291908580546110589061327b565b80601f01602080910402602001604051908101604052809291908181526020018280546110849061327b565b80156110d15780601f106110a6576101008083540402835291602001916110d1565b820191906000526020600020905b8154815290600101906020018083116110b457829003601f168201915b505050505095508480546110e49061327b565b80601f01602080910402602001604051908101604052809291908181526020018280546111109061327b565b801561115d5780601f106111325761010080835404028352916020019161115d565b820191906000526020600020905b81548152906001019060200180831161114057829003601f168201915b5050505050945097509750975097509750975097505090919293949596565b6060600f80546107d89061327b565b6000816008548110156111b05760405162461bcd60e51b81526004016108c99061339c565b6111bb600684611bf8565b91505b50919050565b600d546001600160a01b031633146111ee5760405162461bcd60e51b81526004016108c990613370565b610abc8282611d80565b6000338161120682866113fd565b9050838110156112665760405162461bcd60e51b815260206004820152602560248201527f45524332303a2064656372656173656420616c6c6f77616e63652062656c6f77604482015264207a65726f60d81b60648201526084016108c9565b611273828686840361154e565b506001949350505050565b600033610869818585611699565b600a80546108eb9061327b565b834211156112e95760405162461bcd60e51b815260206004820152601d60248201527f45524332305065726d69743a206578706972656420646561646c696e6500000060448201526064016108c9565b60007f6e71edae12b1b97f4d1f60370fef10105fa2faae0126114a169c64845d6126c98888886113188c611ebe565b6040805160208101969096526001600160a01b0394851690860152929091166060840152608083015260a082015260c0810186905260e001604051602081830303815290604052805190602001209050600061137382611f03565b9050600061138382878787611f30565b9050896001600160a01b0316816001600160a01b0316146113e65760405162461bcd60e51b815260206004820152601e60248201527f45524332305065726d69743a20696e76616c6964207369676e6174757265000060448201526064016108c9565b6113f18a8a8a61154e565b50505050505050505050565b6001600160a01b03918216600090815260016020908152604080832093909416825291909152205490565b600061099c60085490565b6009546000906001600160a01b031633146114885760405162461bcd60e51b815260206004820152601560248201527413db9b1e4818db19585b995c8818dbdb9d1c9858dd605a1b60448201526064016108c9565b60085461098b9060059085908590611f58565b6009546000906001600160a01b031633146114f05760405162461bcd60e51b815260206004820152601560248201527413db9b1e4818db19585b995c8818dbdb9d1c9858dd605a1b60448201526064016108c9565b6008546107c3906006908490611f9e565b919050565b600d546001600160a01b031633146115305760405162461bcd60e51b81526004016108c990613370565b600980546001600160a01b0319166001600160a01b03831617905550565b6115598383836120b7565b505050565b6008548110156115c15760405162461bcd60e51b815260206004820152602860248201527f436c65616e757020626c6f636b206e756d626572206d757374206e6576657220604482015267646563726561736560c01b60648201526084016108c9565b43811061161a5760405162461bcd60e51b815260206004820152602160248201527f436c65616e757020626c6f636b206d75737420626520696e20746865207061736044820152601d60fa1b60648201526084016108c9565b600855565b600061162b84846113fd565b9050600019811461169357818110156116865760405162461bcd60e51b815260206004820152601d60248201527f45524332303a20696e73756666696369656e7420616c6c6f77616e636500000060448201526064016108c9565b611693848484840361154e565b50505050565b6001600160a01b0383166116fd5760405162461bcd60e51b815260206004820152602560248201527f45524332303a207472616e736665722066726f6d20746865207a65726f206164604482015264647265737360d81b60648201526084016108c9565b6001600160a01b03821661175f5760405162461bcd60e51b815260206004820152602360248201527f45524332303a207472616e7366657220746f20746865207a65726f206164647260448201526265737360e81b60648201526084016108c9565b61176a8383836121db565b6001600160a01b038316600090815260208190526040902054818110156117e25760405162461bcd60e51b815260206004820152602660248201527f45524332303a207472616e7366657220616d6f756e7420657863656564732062604482015265616c616e636560d01b60648201526084016108c9565b6001600160a01b03848116600081815260208181526040808320878703905593871680835291849020805487019055925185815290927fddf252ad1be2c89b69c2b068fc378daa952ba7f163c4a11628f55a4df523b3ef910160405180910390a3611693565b600061099c6000807f4433daa742dbf1d9ef1ca283831944614879e423be777b51d57c60ed18a7210080546001820154604080517f8b73c3c69bb8fe3d512ecc4cf759cc79239f7b179b0ffacaa9a75d522b39400f60208201529081019290925260608201524660808201523060a082015290915060c0016040516020818303038152906040528051906020012091505090565b6000805160206135c0833981519152546001600160a01b031690565b600d546001600160a01b031633146108db5760405162461bcd60e51b81526004016108c990613370565b7f4910fdfa16fed3260ed0e7147f7cc6da11a60208b5b9406d12a635614ffd91435460ff161561195557611559836123bb565b826001600160a01b03166352d1902d6040518163ffffffff1660e01b8152600401602060405180830381865afa9250505080156119af575060408051601f3d908101601f191682019092526119ac918101906134ee565b60015b611a125760405162461bcd60e51b815260206004820152602e60248201527f45524331393637557067726164653a206e657720696d706c656d656e7461746960448201526d6f6e206973206e6f74205555505360901b60648201526084016108c9565b6000805160206135c08339815191528114611a815760405162461bcd60e51b815260206004820152602960248201527f45524331393637557067726164653a20756e737570706f727465642070726f786044820152681a58589b195555525160ba1b60648201526084016108c9565b50611559838383612457565b6001600160a01b038216611ae35760405162461bcd60e51b815260206004820152601f60248201527f45524332303a206d696e7420746f20746865207a65726f20616464726573730060448201526064016108c9565b611aef600083836121db565b8060026000828254611b01919061335d565b90915550506001600160a01b038216600081815260208181526040808320805486019055518481527fddf252ad1be2c89b69c2b068fc378daa952ba7f163c4a11628f55a4df523b3ef910160405180910390a35050565b6001600160a01b0382166000908152602084905260408120611b7a8184611bf8565b95945050505050565b7f4433daa742dbf1d9ef1ca283831944614879e423be777b51d57c60ed18a721007f4433daa742dbf1d9ef1ca283831944614879e423be777b51d57c60ed18a72102611bcf8482613430565b5060038101611bde8382613430565b508251602093840120815581519190920120600190910155565b6001820154600090600160401b90046001600160401b0316808203611c215760009150506107c3565b4383101580611c5e5750836000611c39600184613507565b8152602081019190915260400160002054600160c01b90046001600160401b03168310155b15611c9457836000611c71600184613507565b81526020810191909152604001600020546001600160c01b031691506107c39050565b60018401546001600160401b039081166000818152602087905260409020549091600160c01b90910416841015611d37578015611d2c5760405162461bcd60e51b815260206004820152603060248201527f436865636b506f696e74486973746f72793a2072656164696e672066726f6d2060448201526f636c65616e65642d757020626c6f636b60801b60648201526084016108c9565b6000925050506107c3565b6001850154600090611d5d9087908490600160401b90046001600160401b03168861247c565b6000908152602087905260409020546001600160c01b0316935050505092915050565b6001600160a01b038216611de05760405162461bcd60e51b815260206004820152602160248201527f45524332303a206275726e2066726f6d20746865207a65726f206164647265736044820152607360f81b60648201526084016108c9565b611dec826000836121db565b6001600160a01b03821660009081526020819052604090205481811015611e605760405162461bcd60e51b815260206004820152602260248201527f45524332303a206275726e20616d6f756e7420657863656564732062616c616e604482015261636560f01b60648201526084016108c9565b6001600160a01b0383166000818152602081815260408083208686039055600280548790039055518581529192917fddf252ad1be2c89b69c2b068fc378daa952ba7f163c4a11628f55a4df523b3ef910160405180910390a3505050565b6001600160a01b03811660009081527f361beb44631d074062265988ad0b416453c05cfc27148633e5eff4da54187b00602052604090208054600181018255906111be565b60006107c3611f10611848565b8360405161190160f01b8152600281019290925260228201526042902090565b6000806000611f41878787876124fc565b91509150611f4e816125c0565b5095945050505050565b60006001600160a01b03841615611f93576001600160a01b0384166000908152602086905260409020611f8c908484611f9e565b9050610c06565b506000949350505050565b600081600003611fb05750600061098b565b6001840154600160401b90046001600160401b03166000819003611fd857600091505061098b565b60018501546001600160401b03166000612005611ff5838861270a565b612000600186613507565b612716565b9050815b818110801561204657508588600061202284600161335d565b8152602081019190915260400160002054600160c01b90046001600160401b031611155b1561206c57600081815260208990526040812055806120648161351a565b915050612009565b828111156120a15761207d8161272c565b60018901805467ffffffffffffffff19166001600160401b03929092169190911790555b6120ab8382613507565b98975050505050505050565b6001600160a01b0383166121195760405162461bcd60e51b8152602060048201526024808201527f45524332303a20617070726f76652066726f6d20746865207a65726f206164646044820152637265737360e01b60648201526084016108c9565b6001600160a01b03821661217a5760405162461bcd60e51b815260206004820152602260248201527f45524332303a20617070726f766520746f20746865207a65726f206164647265604482015261737360f01b60648201526084016108c9565b6001600160a01b0383811660008181526001602090815260408083209487168084529482529182902085905590518481527f8c5be1e5ebec7d5bd14f71427d1e84f3dd0314c0f7b2291e5b200ac8c7c3b925910160405180910390a3505050565b6001600160a01b038316158061220f57508061220c846001600160a01b031660009081526020819052604090205490565b10155b61225b5760405162461bcd60e51b815260206004820152601760248201527f662d61737365742062616c616e636520746f6f206c6f7700000000000000000060448201526064016108c9565b816001600160a01b0316836001600160a01b0316036122bc5760405162461bcd60e51b815260206004820152601760248201527f43616e6e6f74207472616e7366657220746f2073656c6600000000000000000060448201526064016108c9565b6001600160a01b03831615806122d957506001600160a01b038216155b806123585750600d60009054906101000a90046001600160a01b03166001600160a01b031663716676736040518163ffffffff1660e01b8152600401602060405180830381865afa158015612332573d6000803e3d6000fd5b505050506040513d601f19601f820116820180604052508101906123569190613533565b155b6123b05760405162461bcd60e51b815260206004820152602360248201527f656d657267656e6379207061757365206f66207472616e73666572732061637460448201526269766560e81b60648201526084016108c9565b611559838383612798565b6001600160a01b0381163b6124285760405162461bcd60e51b815260206004820152602d60248201527f455243313936373a206e657720696d706c656d656e746174696f6e206973206e60448201526c1bdd08184818dbdb9d1c9858dd609a1b60648201526084016108c9565b6000805160206135c083398151915280546001600160a01b0319166001600160a01b0392909216919091179055565b612460836127d3565b60008251118061246d5750805b15611559576116938383612813565b6000838161248b856001612838565b90505b81811115611f4e5760006124b860026124b260016124ac868861270a565b9061270a565b90612844565b600081815260208a90526040902054909150600160c01b90046001600160401b031685106124e8578092506124f6565b6124f3816001612838565b91505b5061248e565b6000807f7fffffffffffffffffffffffffffffff5d576e7357a4501ddfe92f46681b20a083111561253357506000905060036125b7565b6040805160008082526020820180845289905260ff881692820192909252606081018690526080810185905260019060a0016020604051602081039080840390855afa158015612587573d6000803e3d6000fd5b5050604051601f1901519150506001600160a01b0381166125b0576000600192509250506125b7565b9150600090505b94509492505050565b60008160048111156125d4576125d4613555565b036125dc5750565b60018160048111156125f0576125f0613555565b0361263d5760405162461bcd60e51b815260206004820152601860248201527f45434453413a20696e76616c6964207369676e6174757265000000000000000060448201526064016108c9565b600281600481111561265157612651613555565b0361269e5760405162461bcd60e51b815260206004820152601f60248201527f45434453413a20696e76616c6964207369676e6174757265206c656e6774680060448201526064016108c9565b60038160048111156126b2576126b2613555565b036108db5760405162461bcd60e51b815260206004820152602260248201527f45434453413a20696e76616c6964207369676e6174757265202773272076616c604482015261756560f01b60648201526084016108c9565b600061098b828461335d565b6000818310612725578161098b565b5090919050565b60006001600160401b038211156127945760405162461bcd60e51b815260206004820152602660248201527f53616665436173743a2076616c756520646f65736e27742066697420696e203660448201526534206269747360d01b60648201526084016108c9565b5090565b6001600160a01b0383166127b0576115598282612850565b6001600160a01b0382166127c85761155983826128ad565b61155983838361295c565b6127dc816123bb565b6040516001600160a01b038216907fbc7cd75a20ee27fd9adebab32041f755214dbc6bffa90cc0225b39da2e5c2d3b90600090a250565b606061098b83836040518060600160405280602781526020016135e060279139612992565b600061098b8284613507565b600061098b828461356b565b6000612860826124ac8543610bd5565b905061286e60058483612a0a565b600854612882906005908590600290611f58565b5061289b612893836124ac4361118b565b600690612a28565b60085461169390600690600290611f9e565b60006128f38260405180604001604052806016815260200175213ab937103a37b7903134b3903337b91037bbb732b960511b8152506128ec8643610bd5565b9190612bec565b905061290160058483612a0a565b600854612915906005908590600290611f58565b5061289b612893836040518060400160405280601d81526020017f4275726e20746f6f2062696720666f7220746f74616c20737570706c790000008152506128ec4361118b565b6129696005848484612c18565b60085461297d906005908590600290611f58565b50600854611693906005908490600290611f58565b6060600080856001600160a01b0316856040516129af919061358d565b600060405180830381855af49150503d80600081146129ea576040519150601f19603f3d011682016040523d82523d6000602084013e6129ef565b606091505b5091509150612a0086838387612ca9565b9695505050505050565b6001600160a01b038216600090815260208490526040902061169381835b6001820154600160401b90046001600160401b03166000819003612ad5576040518060400160405280612a5a84612d22565b6001600160c01b03168152602001612a714361272c565b6001600160401b0390811690915260008080526020868152604090912083519390910151909116600160c01b026001600160c01b039092169190911790556001830180546fffffffffffffffff00000000000000001916600160401b179055505050565b60008381612ae4600185613507565b815260208101919091526040016000208054909150600160c01b90046001600160401b031643819003612b3a57612b1a84612d22565b82546001600160c01b0319166001600160c01b0391909116178255610f4d565b804311612b4957612b496135a9565b6040518060400160405280612b5d86612d22565b6001600160c01b03168152602001612b744361272c565b6001600160401b0390811690915260008581526020888152604090912083519390910151909116600160c01b026001600160c01b03909216919091179055612bbd83600161335d565b8560010160086101000a8154816001600160401b0302191690836001600160401b031602179055505050505050565b60008184841115612c105760405162461bcd60e51b81526004016108c99190612e93565b505050900390565b8015611693576001600160a01b038316158015612c3c57506001600160a01b038216155b15612c4957612c496135a9565b6001600160a01b03831615612c7d576000612c6e82612c688787612d77565b90612838565b9050612c7b858583612a0a565b505b6001600160a01b03821615611693576000612c9c826124ac8786612d77565b9050610f4d858483612a0a565b60608315612d18578251600003612d11576001600160a01b0385163b612d115760405162461bcd60e51b815260206004820152601d60248201527f416464726573733a2063616c6c20746f206e6f6e2d636f6e747261637400000060448201526064016108c9565b5081610c06565b610c068383612d98565b6000600160c01b82106127945760405162461bcd60e51b815260206004820152601d60248201527f76616c756520646f65736e27742066697420696e20313932206269747300000060448201526064016108c9565b6001600160a01b0381166000908152602083905260408120610c0681612dc2565b815115612da85781518083602001fd5b8060405162461bcd60e51b81526004016108c99190612e93565b6001810154600090600160401b90046001600160401b0316808203612dea5750600092915050565b826000612df8600184613507565b81526020810191909152604001600020546001600160c01b03169392505050565b600060208284031215612e2b57600080fd5b81356001600160e01b03198116811461098b57600080fd5b60005b83811015612e5e578181015183820152602001612e46565b50506000910152565b60008151808452612e7f816020860160208601612e43565b601f01601f19169290920160200192915050565b60208152600061098b6020830184612e67565b80356001600160a01b038116811461150157600080fd5b60008060408385031215612ed057600080fd5b612ed983612ea6565b946020939093013593505050565b600060208284031215612ef957600080fd5b5035919050565b600080600060608486031215612f1557600080fd5b612f1e84612ea6565b9250612f2c60208501612ea6565b929592945050506040919091013590565b600060208284031215612f4f57600080fd5b61098b82612ea6565b634e487b7160e01b600052604160045260246000fd5b6000806001600160401b03841115612f8857612f88612f58565b50604051601f19601f85018116603f011681018181106001600160401b0382111715612fb657612fb6612f58565b604052838152905080828401851015612fce57600080fd5b83836020830137600060208583010152509392505050565b60008060408385031215612ff957600080fd5b61300283612ea6565b915060208301356001600160401b0381111561301d57600080fd5b8301601f8101851361302e57600080fd5b61303d85823560208401612f6e565b9150509250929050565b600082601f83011261305857600080fd5b61098b83833560208501612f6e565b803560ff8116811461150157600080fd5b600080600080600060a0868803121561309057600080fd5b85356001600160401b038111156130a657600080fd5b6130b288828901613047565b95505060208601356001600160401b038111156130ce57600080fd5b6130da88828901613047565b94505060408601356001600160401b038111156130f657600080fd5b61310288828901613047565b93505060608601356001600160401b0381111561311e57600080fd5b61312a88828901613047565b92505061313960808701613067565b90509295509295909350565b60ff60f81b8816815260e06020820152600061316460e0830189612e67565b82810360408401526131768189612e67565b606084018890526001600160a01b038716608085015260a0840186905283810360c08501528451808252602080870193509091019060005b818110156131cc5783518352602093840193909201916001016131ae565b50909b9a5050505050505050505050565b600080600080600080600060e0888a0312156131f857600080fd5b61320188612ea6565b965061320f60208901612ea6565b9550604088013594506060880135935061322b60808901613067565b9699959850939692959460a0840135945060c09093013592915050565b6000806040838503121561325b57600080fd5b61326483612ea6565b915061327260208401612ea6565b90509250929050565b600181811c9082168061328f57607f821691505b6020821081036111be57634e487b7160e01b600052602260045260246000fd5b6020808252602c908201527f46756e6374696f6e206d7573742062652063616c6c6564207468726f7567682060408201526b19195b1959d85d1958d85b1b60a21b606082015260800190565b6020808252602c908201527f46756e6374696f6e206d7573742062652063616c6c6564207468726f7567682060408201526b6163746976652070726f787960a01b606082015260800190565b634e487b7160e01b600052601160045260246000fd5b808201808211156107c3576107c3613347565b60208082526012908201527137b7363c9030b9b9b2ba1036b0b730b3b2b960711b604082015260600190565b6020808252602d908201527f436865636b506f696e7461626c653a2072656164696e672066726f6d20636c6560408201526c616e65642d757020626c6f636b60981b606082015260800190565b601f82111561155957806000526020600020601f840160051c810160208510156134105750805b601f840160051c820191505b81811015610f4d576000815560010161341c565b81516001600160401b0381111561344957613449612f58565b61345d81613457845461327b565b846133e9565b6020601f82116001811461349157600083156134795750848201515b600019600385901b1c1916600184901b178455610f4d565b600084815260208120601f198516915b828110156134c157878501518255602094850194600190920191016134a1565b50848210156134df5786840151600019600387901b60f8161c191681555b50505050600190811b01905550565b60006020828403121561350057600080fd5b5051919050565b818103818111156107c3576107c3613347565b60006001820161352c5761352c613347565b5060010190565b60006020828403121561354557600080fd5b8151801515811461098b57600080fd5b634e487b7160e01b600052602160045260246000fd5b60008261358857634e487b7160e01b600052601260045260246000fd5b500490565b6000825161359f818460208701612e43565b9190910192915050565b634e487b7160e01b600052600160045260246000fdfe360894a13ba1a3210667c828492db98dca3e2076cc3735a920a3ca505d382bbc416464726573733a206c6f772d6c6576656c2064656c65676174652063616c6c206661696c6564a2646970667358221220cfb69c556271fe23424ef4dde3214bb3fda97d0c8bc412bcabd4f7a483a1b8a864736f6c634300081b0033",
  "linkReferences": {},
  "deployedLinkReferences": {}
}