{
  "_format": "hh-sol-artifact-1",
  "contractName": "SafePctMock",
  "sourceName": "contracts/utils/mock/SafePctMock.sol",
  "abi": [
    {
      "inputs": [],
      "name": "DivisionByZero",
      "type": "error"
    },
    {
      "inputs": [
        {
          "internalType": "uint256",
          "name": "x",
          "type": "uint256"
        },
        {
          "internalType": "uint256",
          "name": "y",
          "type": "uint256"
        },
        {
          "internalType": "uint256",
          "name": "z",
          "type": "uint256"
        }
      ],
      "name": "mulDiv",
      "outputs": [
        {
          "internalType": "uint256",
          "name": "",
          "type": "uint256"
        }
      ],
      "stateMutability": "pure",
      "type": "function"
    }
  ],
  "bytecode": "0x6080604052348015600f57600080fd5b506102568061001f6000396000f3fe608060405234801561001057600080fd5b506004361061002b5760003560e01c8063aa9a091214610030575b600080fd5b61004361003e366004610170565b610055565b60405190815260200160405180910390f35b600061006284848461006c565b90505b9392505050565b600080821161008e576040516323d359a360e01b815260040160405180910390fd5b8360000361009e57506000610065565b838302838582816100b1576100b161019c565b04036100cf578281816100c6576100c661019c565b04915050610065565b5060006100dc83866101c8565b905060006100ea84876101dc565b905060006100f885876101c8565b9050600061010686886101dc565b90508561011382856101f0565b61011d91906101c8565b61012783856101f0565b61013183876101f0565b8861013c86896101f0565b61014691906101f0565b610150919061020d565b61015a919061020d565b610164919061020d565b98975050505050505050565b60008060006060848603121561018557600080fd5b505081359360208301359350604090920135919050565b634e487b7160e01b600052601260045260246000fd5b634e487b7160e01b600052601160045260246000fd5b6000826101d7576101d761019c565b500490565b6000826101eb576101eb61019c565b500690565b8082028115828204841417610207576102076101b2565b92915050565b80820180821115610207576102076101b256fea26469706673582212203f2fdbe6d84c902fc41ed51ea36b14d8915de785932d406dbc360aca6c1d889f64736f6c634300081b0033",
  "linkReferences": {},
  "deployedLinkReferences": {}
}