{
  "_format": "hh-sol-artifact-1",
  "contractName": "LiquidationFacet",
  "sourceName": "contracts/assetManager/facets/LiquidationFacet.sol",
  "abi": [
    {
      "inputs": [],
      "name": "CannotStopLiquidation",
      "type": "error"
    },
    {
      "inputs": [],
      "name": "DivisionByZero",
      "type": "error"
    },
    {
      "inputs": [],
      "name": "EmergencyPauseActive",
      "type": "error"
    },
    {
      "inputs": [],
      "name": "InvalidAgentVaultAddress",
      "type": "error"
    },
    {
      "inputs": [
        {
          "internalType": "enum AgentInfo.Status",
          "name": "status",
          "type": "uint8"
        }
      ],
      "name": "LiquidationNotPossible",
      "type": "error"
    },
    {
      "inputs": [],
      "name": "LiquidationNotStarted",
      "type": "error"
    },
    {
      "inputs": [],
      "name": "NotAttached",
      "type": "error"
    },
    {
      "inputs": [],
      "name": "NotInLiquidation",
      "type": "error"
    },
    {
      "inputs": [],
      "name": "NotWhitelisted",
      "type": "error"
    },
    {
      "inputs": [],
      "name": "OnlyAssetManagerController",
      "type": "error"
    },
    {
      "inputs": [],
      "name": "ReentrancyGuardReentrantCall",
      "type": "error"
    },
    {
      "anonymous": false,
      "inputs": [
        {
          "indexed": true,
          "internalType": "address",
          "name": "agentVault",
          "type": "address"
        },
        {
          "indexed": false,
          "internalType": "uint256",
          "name": "dustUBA",
          "type": "uint256"
        }
      ],
      "name": "DustChanged",
      "type": "event"
    },
    {
      "anonymous": false,
      "inputs": [
        {
          "indexed": true,
          "internalType": "address",
          "name": "agentVault",
          "type": "address"
        }
      ],
      "name": "LiquidationEnded",
      "type": "event"
    },
    {
      "anonymous": false,
      "inputs": [
        {
          "indexed": true,
          "internalType": "address",
          "name": "agentVault",
          "type": "address"
        },
        {
          "indexed": true,
          "internalType": "address",
          "name": "liquidator",
          "type": "address"
        },
        {
          "indexed": false,
          "internalType": "uint256",
          "name": "valueUBA",
          "type": "uint256"
        },
        {
          "indexed": false,
          "internalType": "uint256",
          "name": "paidVaultCollateralWei",
          "type": "uint256"
        },
        {
          "indexed": false,
          "internalType": "uint256",
          "name": "paidPoolCollateralWei",
          "type": "uint256"
        }
      ],
      "name": "LiquidationPerformed",
      "type": "event"
    },
    {
      "anonymous": false,
      "inputs": [
        {
          "indexed": true,
          "internalType": "address",
          "name": "agentVault",
          "type": "address"
        },
        {
          "indexed": false,
          "internalType": "uint256",
          "name": "timestamp",
          "type": "uint256"
        }
      ],
      "name": "LiquidationStarted",
      "type": "event"
    },
    {
      "anonymous": false,
      "inputs": [
        {
          "indexed": true,
          "internalType": "address",
          "name": "agentVault",
          "type": "address"
        },
        {
          "indexed": true,
          "internalType": "uint256",
          "name": "redemptionTicketId",
          "type": "uint256"
        }
      ],
      "name": "RedemptionTicketDeleted",
      "type": "event"
    },
    {
      "anonymous": false,
      "inputs": [
        {
          "indexed": true,
          "internalType": "address",
          "name": "agentVault",
          "type": "address"
        },
        {
          "indexed": true,
          "internalType": "uint256",
          "name": "redemptionTicketId",
          "type": "uint256"
        },
        {
          "indexed": false,
          "internalType": "uint256",
          "name": "ticketValueUBA",
          "type": "uint256"
        }
      ],
      "name": "RedemptionTicketUpdated",
      "type": "event"
    },
    {
      "inputs": [
        {
          "internalType": "address",
          "name": "_agentVault",
          "type": "address"
        }
      ],
      "name": "endLiquidation",
      "outputs": [],
      "stateMutability": "nonpayable",
      "type": "function"
    },
    {
      "inputs": [
        {
          "internalType": "address",
          "name": "_agentVault",
          "type": "address"
        },
        {
          "internalType": "uint256",
          "name": "_amountUBA",
          "type": "uint256"
        }
      ],
      "name": "liquidate",
      "outputs": [
        {
          "internalType": "uint256",
          "name": "_liquidatedAmountUBA",
          "type": "uint256"
        },
        {
          "internalType": "uint256",
          "name": "_amountPaidVault",
          "type": "uint256"
        },
        {
          "internalType": "uint256",
          "name": "_amountPaidPool",
          "type": "uint256"
        }
      ],
      "stateMutability": "nonpayable",
      "type": "function"
    },
    {
      "inputs": [
        {
          "internalType": "address",
          "name": "_agentVault",
          "type": "address"
        }
      ],
      "name": "startLiquidation",
      "outputs": [
        {
          "internalType": "uint256",
          "name": "_liquidationStartTs",
          "type": "uint256"
        }
      ],
      "stateMutability": "nonpayable",
      "type": "function"
    }
  ],
  "bytecode": "0x6080604052348015600f57600080fd5b506127cc8061001f6000396000f3fe608060405234801561001057600080fd5b50600436106100415760003560e01c8063b7f658ab14610046578063bcbaf4871461005b578063e1c501001461008e575b600080fd5b6100596100543660046123b5565b6100af565b005b61006e6100693660046123d0565b61012b565b604080519384526020840192909252908201526060015b60405180910390f35b6100a161009c3660046123b5565b610275565b604051908152602001610085565b6100b96002610303565b6100c1610356565b60006100cc8261038e565b90506100d781610429565b6001600482015460ff1660058111156100f2576100f26123fa565b146101105760405163560aa5bb60e11b815260040160405180910390fd5b50610128600160008051602061277783398151915255565b50565b600080600061013a6001610303565b610142610356565b600061014d8661038e565b9050600061015a82610506565b90506000610168838361057a565b9050806101885760405163e1fa098d60e01b815260040160405180910390fd5b60008060006101a0868661019b8d61074e565b6107ad565b9250925092506101af83610874565b985081156101c5576101c28633846108c7565b97505b80156101e95760006101d787836109d1565b90506101e587338484610a48565b9750505b8815610248576101f9338a610b53565b604080518a8152602081018a905290810188905233906001600160a01b038d16907f4427e2d198cce01c31bf025614c1ba605936f2198edb532627be228afedb19f79060600160405180910390a35b61025186610429565b50505050505061026e600160008051602061277783398151915255565b9250925092565b60006102816001610303565b610289610356565b60006102948361038e565b905060006102a182610506565b905060006102af838361057a565b9050806102cf576040516330e2d39160e21b815260040160405180910390fd5b505060040154600160a81b90046001600160401b031690506102fe600160008051602061277783398151915255565b919050565b6000816003811115610317576103176123fa565b61031f610be6565b6003811115610330576103306123fa565b10801591506103525760405163909b191760e01b815260040160405180910390fd5b5050565b60008051602061277783398151915280546001190161038857604051633ee5aeb560e01b815260040160405180910390fd5b60029055565b604081901b68010000000000000000600160e01b03167f5bebac0595fee029d42bb673937f5f1cb81cf8641382bc17774635de9b7d79651860048101546000919060ff16828160058111156103e5576103e56123fa565b1415801561040557506005816005811115610402576104026123fa565b14155b6104225760405163d68a46c560e01b815260040160405180910390fd5b5092915050565b6002600482015460ff166005811115610444576104446123fa565b1461044c5750565b600061045782610506565b90506000610466836000610c37565b90506000610475846001610c37565b90508183600001511015801561048f575080836020015110155b15610500576004840180547fff00ff0000000000000000ffffffffffffffffffffffffffffffffffffffff001660011790556104ca84610c7d565b6001600160a01b03167fe513b42585b0ceec0d56d56fe3a23861c15a2f74eb4c32c94334d63d68ff4dcf60405160405180910390a25b50505050565b6105316040518060800160405280600081526020016000815260200160008152602001600081525090565b60008061053f846000610ca5565b91509150600080610551866001610ca5565b604080516080810182529687526020870192909252908501939093525050606082015292915050565b600482015460009060ff166002816005811115610599576105996123fa565b14806105b6575060038160058111156105b4576105b46123fa565b145b156105c45760019150610609565b60018160058111156105d8576105d86123fa565b14610609576105e684610d00565b60405163302036e560e21b81526004016106009190612410565b60405180910390fd5b8251600485015460009161062591610100900461ffff16610dc3565b905080156106515760048501805460ff60f01b1981166001600160f01b9283900460ff16179091021790555b60208401516004860154600091610672916301000000900461ffff16610dc3565b9050801561069e5760048601805460ff60f01b1981166002600160f01b9283900460ff16179091021790555b831580156106b0575081806106b05750805b156107455760048601805460ff19166002179055600193506106d142610e13565b8660040160156101000a8154816001600160401b0302191690836001600160401b0316021790555061070286610c7d565b6001600160a01b03167fee549a858daf6f6ccedae61597c3ece62a808677387a36146cf61363507679754260405161073c91815260200190565b60405180910390a25b50505092915050565b7f4f24f5c433db0962dac0d2c8b84197a6e6c7cc4e5d9ebe1916a1b6193da2f34654600090600080516020612737833981519152906107a6906107a190600160901b90046001600160401b031685612464565b610e13565b9392505050565b60008060008060006107c88888600001518960200151610e7f565b9150915060006107f86107e28a8a60000151866000610f30565b6107f38b8b60200151866001610f30565b611009565b905060006108126107a1838a6001600160401b031661101f565b90506108208a82600161102e565b5096506108436108396001600160401b0389168661120d565b8a6040015161121c565b955061086561085b6001600160401b0389168561120d565b8a6060015161121c565b94505050505093509350939050565b7f4f24f5c433db0962dac0d2c8b84197a6e6c7cc4e5d9ebe1916a1b6193da2f34654600090600080516020612737833981519152906107a690600160901b90046001600160401b03908116908516612478565b6000806108d385611236565b905060006108e086610c7d565b82546040516370a0823160e01b81526001600160a01b03808416600483015292935061095992879216906370a0823190602401602060405180830381865afa158015610930573d6000803e3d6000fd5b505050506040513d601f19601f82011682018060405250810190610954919061248f565b61101f565b825460405163083e007560e21b81526001600160a01b0391821660048201528782166024820152604481018390529194508216906320f801d490606401600060405180830381600087803b1580156109b057600080fd5b505af11580156109c4573d6000803e3d6000fd5b5050505050509392505050565b60006003600484015460ff1660058111156109ee576109ee6123fa565b1480610a0857506004830154600160f01b900460ff166001145b15610a14575080610a42565b6004830154600119600160f01b90910460ff1601610a3457506000610a42565b610a3f600283612464565b90505b92915050565b6000808560000160009054906101000a90046001600160a01b03166001600160a01b0316634ac8eb5f6040518163ffffffff1660e01b8152600401602060405180830381865afa158015610aa0573d6000803e3d6000fd5b505050506040513d601f19601f82011682018060405250810190610ac4919061248f565b9050610ad0848261101f565b9150610adc838361101f565b865460405163adf58c1560e01b81526001600160a01b038881166004830152602482018690526044820184905292955091169063adf58c1590606401600060405180830381600087803b158015610b3257600080fd5b505af1158015610b46573d6000803e3d6000fd5b5050505050949350505050565b7f4f24f5c433db0962dac0d2c8b84197a6e6c7cc4e5d9ebe1916a1b6193da2f33b546001600160a01b0316604051632770a7eb60e21b81526001600160a01b038481166004830152602482018490529190911690639dc29fac90604401600060405180830381600087803b158015610bca57600080fd5b505af1158015610bde573d6000803e3d6000fd5b505050505050565b600080610bf1611283565b90506000610bfd6112eb565b9050816003811115610c1157610c116123fa565b816003811115610c2357610c236123fa565b11610c2e5781610c30565b805b9250505090565b600080610c448484611353565b9050610c5084846113f8565b610c65576003015463ffffffff169050610a42565b60030154600160401b900463ffffffff169050610a42565b7f5bebac0595fee029d42bb673937f5f1cb81cf8641382bc17774635de9b7d79651860401c90565b600080600080610cb58686611461565b915091506000610cc5838861153f565b90506000610cd3838961153f565b9050610ce78460400151846040015161101f565b9450610cf38282611009565b9550505050509250929050565b600481015460009060ff166001816005811115610d1f57610d1f6123fa565b03610d2d5750600092915050565b6002816005811115610d4157610d416123fa565b03610d4f5750600192915050565b6003816005811115610d6357610d636123fa565b03610d715750600292915050565b6004816005811115610d8557610d856123fa565b03610d935750600392915050565b6005816005811115610da757610da76123fa565b14610db457610db46124a8565b50600492915050565b50919050565b60008060008051602061275783398151915290506000816000018481548110610dee57610dee6124be565b600091825260209091206004909102016003015463ffffffff16909410949350505050565b60006001600160401b03821115610e7b5760405162461bcd60e51b815260206004820152602660248201527f53616665436173743a2076616c756520646f65736e27742066697420696e203660448201526534206269747360d01b6064820152608401610600565b5090565b60008060008051602061273783398151915281610e9b87611596565b90506000826015018281548110610eb457610eb46124be565b90600052602060002001549050610eea836016018381548110610ed957610ed96124be565b90600052602060002001548261101f565b945086851115610ef8578694505b610f0285826124d4565b935085841115610f2557859350610f22610f1c85836124d4565b8861101f565b94505b505050935093915050565b60006003600486015460ff166005811115610f4d57610f4d6123fa565b03610f6d57506005840154600160401b90046001600160401b0316611001565b6000610f798684610c37565b9050848111610f8c576000915050611001565b838511610faf5750506005840154600160401b90046001600160401b0316611001565b6000610fd9610fbe87846124d4565b610fc887856124d4565b610fd28a8861161c565b919061169c565b6005880154909150610ffc908290600160401b90046001600160401b031661101f565b925050505b949350505050565b60008183116110185781610a3f565b5090919050565b60008183106110185781610a3f565b7f4f24f5c433db0962dac0d2c8b84197a6e6c7cc4e5d9ebe1916a1b6193da2f349547f4f24f5c433db0962dac0d2c8b84197a6e6c7cc4e5d9ebe1916a1b6193da2f34754600091829160008051602061275783398151915291600160801b900461ffff16906001600160401b0316835b82811080156110be5750876001600160401b0316866001600160401b0316105b1561119c57600060088501816110d38c610c7d565b6001600160a01b0316815260208101919091526040016000908120546001600160401b03169150819003611107575061119c565b6001600160401b038181166000908152600787016020526040812060068d0154815491936111409291811691600160a01b9004166124e7565b905061114c8582612506565b6111569082612534565b9050600061116d6111678b8e612534565b836116dc565b905061117984826116fe565b611183818b6124e7565b995050505050808061119490612553565b91505061109e565b5060006111bf6111ac878a612534565b60068b01546001600160401b03166116dc565b90506001600160401b038116156111e6576111da81876124e7565b95506111e689826118e9565b86156111f6576111f68987611916565b6111ff86610874565b945050505050935093915050565b6000610a3f8383612710611962565b6000610a3f8261122e6009600a612653565b859190611962565b60008060008051602061275783398151915260048401548154919250829161010090910461ffff1690811061126d5761126d6124be565b9060005260206000209060040201915050919050565b7fec7e8c1c441439dd40959777f4c577ea0cd42fcc1dbe59d2bd0f5d9c55df8dc6546000906000805160206127578339815191529042600160401b9091046001600160401b031611806112d7576000610c30565b5060110154600160901b900460ff16919050565b7fec7e8c1c441439dd40959777f4c577ea0cd42fcc1dbe59d2bd0f5d9c55df8dc7546000906000805160206127578339815191529042600160a01b9091046001600160401b0316118061133f576000610c30565b5060110154600160981b900460ff16919050565b60006002826002811115611369576113696123fa565b03611376576113766124a8565b6000805160206127578339815191526000836002811115611399576113996123fa565b036113d557600484015481548291610100900461ffff169081106113bf576113bf6124be565b9060005260206000209060040201915050610a42565b6004840154815482916301000000900461ffff169081106113bf576113bf6124be565b60008082600281111561140d5761140d6123fa565b0361142957506004820154600160f01b90046001161515610a42565b600182600281111561143d5761143d6123fa565b1461144a5761144a6124a8565b506004820154600160f01b90046002161515610a42565b6114866040805160608101909152806000815260200160008152602001600081525090565b6114ab6040805160608101909152806000815260200160008152602001600081525090565b60006114b78585611353565b905060006114c6868684611a66565b90506000806114d484611b52565b9150915060405180606001604052808860028111156114f5576114f56123fa565b81526020018481526020018381525095506040518060600160405280886002811115611523576115236123fa565b8152602001848152602001828152509450505050509250929050565b60008061155083856000015161161c565b9050600061156282866040015161121c565b90508060000361157b576402540be40092505050610a42565b602085015161158d9061271083611962565b95945050505050565b60048101547f4f24f5c433db0962dac0d2c8b84197a6e6c7cc4e5d9ebe1916a1b6193da2f34e54600091600080516020612737833981519152916001600160401b03600160a81b90920482169184916401000000009004166115f883426124d4565b6116029190612464565b905061158d816001856015018054905061095491906124d4565b6000806001836002811115611633576116336123fa565b14611652576005840154600160801b90046001600160401b0316611668565b6005840154600160c01b90046001600160401b03165b60058501546001600160401b03918216925082916116929180821691600160401b9091041661265f565b611001919061265f565b6000806116aa858585611962565b9050600083806116bc576116bc612438565b858709905080156116d057816001016116d2565b815b9695505050505050565b6000816001600160401b0316836001600160401b031611156110185781610a3f565b6001600160401b03821660009081527fec7e8c1c441439dd40959777f4c577ea0cd42fcc1dbe59d2bd0f5d9c55df8dbd60208190526040822080549192909161174f906001600160a01b031661038e565b7f4f24f5c433db0962dac0d2c8b84197a6e6c7cc4e5d9ebe1916a1b6193da2f34754600682015484549293506001600160401b039182169260009288926117a29290821691600160a01b909104166124e7565b6117ac9190612534565b905060006117ba8383612506565b905060006117c88284612534565b9050806001600160401b0316600003611832576117e5878a611c01565b886001600160401b03166117f886610c7d565b6001600160a01b03167fb7f65e70a51658e24800516a5dc90e2dd65176e18381adda77f58e2044482b1960405160405180910390a36118d4565b85546001600160401b03828116600160a01b90920416146118d457855467ffffffffffffffff60a01b1916600160a01b6001600160401b03831602178655600061187b82610874565b9050896001600160401b031661189087610c7d565b6001600160a01b03167f9d2e72c50be7927e999d37329649af37a863df77bcb25361699ce021d3d7475d836040516118ca91815260200190565b60405180910390a3505b6118de8583611fdb565b505050505050505050565b60068201546000906119059083906001600160401b0316612534565b90506119118382611fdb565b505050565b6005820154611936908290600160401b90046001600160401b0316612534565b8260050160086101000a8154816001600160401b0302191690836001600160401b031602179055505050565b6000808211611984576040516323d359a360e01b815260040160405180910390fd5b83600003611994575060006107a6565b838302838582816119a7576119a7612438565b04036119c5578281816119bc576119bc612438565b049150506107a6565b5060006119d28386612464565b905060006119e08487612672565b905060006119ee8587612464565b905060006119fc8688612672565b905085611a098285612478565b611a139190612464565b611a1d8385612478565b611a278387612478565b88611a328689612478565b611a3c9190612478565b611a46919061265f565b611a50919061265f565b611a5a919061265f565b98975050505050505050565b60006001836002811115611a7c57611a7c6123fa565b03611af557835460408051634ac8eb5f60e01b815290516001600160a01b0390921691634ac8eb5f916004808201926020929091908290030181865afa158015611aca573d6000803e3d6000fd5b505050506040513d601f19601f82011682018060405250810190611aee919061248f565b90506107a6565b81546001600160a01b03166370a08231611b0e86610c7d565b6040516001600160e01b031960e084901b1681526001600160a01b039091166004820152602401602060405180830381865afa158015611aca573d6000803e3d6000fd5b600080600080516020612737833981519152818080611b718782612071565b9250925092506000806000611b878a6001612071565b60108a015492955090935091506000908590611bb390600160c01b90046001600160401b03168461265f565b10158015611be0575060108801548690611bdd90600160c01b90046001600160401b03168561265f565b10155b905086995080611bf05786611bf2565b835b98505050505050505050915091565b6001600160401b038116600090815260208390526040902080546001600160a01b0316611c3057611c306124a8565b80546001600160a01b031660009081526001808501602052604082209083015490916001600160401b039091169003611cb65760028401546001600160401b03848116911614611c8257611c826124a8565b6001820154600285018054600160401b9092046001600160401b031667ffffffffffffffff19909216919091179055611d1e565b60028401546001600160401b0390811690841603611cd657611cd66124a8565b6001828101546001600160401b038082166000908152602088905260409020909201805467ffffffffffffffff60401b1916600160401b928390049093169091029190911790555b6001820154600160401b90046001600160401b0316600003611d955760028401546001600160401b03848116600160401b9092041614611d6057611d606124a8565b600182015460028501805467ffffffffffffffff60401b19166001600160401b03909216600160401b02919091179055611dfd565b60028401546001600160401b03600160401b909104811690841603611dbc57611dbc6124a8565b600180830154600160401b81046001600160401b039081166000908152602088905260409020909201805467ffffffffffffffff1916929091169190911790555b6001820154600160801b90046001600160401b0316600003611e625780546001600160401b03848116911614611e3557611e356124a8565b60018201548154600160c01b9091046001600160401b031667ffffffffffffffff19909116178155611ec8565b80546001600160401b0390811690841603611e7f57611e7f6124a8565b6001828101546001600160401b03600160801b82048116600090815260208890526040902090920180546001600160c01b0316600160c01b928390049093169091029190911790555b6001820154600160c01b90046001600160401b0316600003611f3b5780546001600160401b03848116600160401b9092041614611f0757611f076124a8565b6001820154815467ffffffffffffffff60401b1916600160801b9091046001600160401b0316600160401b02178155611fad565b80546001600160401b03600160401b909104811690841603611f5f57611f5f6124a8565b6001828101546001600160401b03600160c01b820481166000908152602088905260409020909201805467ffffffffffffffff60801b1916600160801b928390049093169091029190911790555b50506001600160401b031660009081526020919091526040812080546001600160e01b031916815560010155565b60068201546001600160401b03808316911603611ff6575050565b60068201805467ffffffffffffffff19166001600160401b038316179055600061201f82610874565b905061202a83610c7d565b6001600160a01b03167fa3db2bc927901a1d3ba09ad51d84609457b98443be9132a0a936a47c5a1081b58260405161206491815260200190565b60405180910390a2505050565b60008060008060008061211088600101805461208c90612686565b80601f01602080910402602001604051908101604052809291908181526020018280546120b890612686565b80156121055780601f106120da57610100808354040283529160200191612105565b820191906000526020600020905b8154815290600101906020018083116120e857829003601f168201915b505050505088612229565b8a549295509093509150600160f01b900460ff161561215757875460009061214690600160a81b900460ff166001838786612317565b965091945084935061026e92505050565b60008060006121f28b600201805461216e90612686565b80601f016020809104026020016040519081016040528092919081815260200182805461219a90612686565b80156121e75780601f106121bc576101008083540402835291602001916121e7565b820191906000526020600020905b8154815290600101906020018083116121ca57829003601f168201915b50505050508b612229565b8d54929550909350915060009061221690600160a81b900460ff1685848a89612317565b995094975090955061026e945050505050565b7f4f24f5c433db0962dac0d2c8b84197a6e6c7cc4e5d9ebe1916a1b6193da2f3445460009081908190600080516020612737833981519152906001600160a01b031685156122eb5760405163e4a0a55b60e01b81526001600160a01b0382169063e4a0a55b9061229d908a906004016126ba565b606060405180830381865afa1580156122ba573d6000803e3d6000fd5b505050506040513d601f19601f820116820180604052508101906122de9190612708565b945094509450505061026e565b60405163524f388960e01b81526001600160a01b0382169063524f38899061229d908a906004016126ba565b6000600080516020612737833981519152816009612335878a61265f565b61233f919061265f565b600a83015490915060009061235f908690600160a81b900460ff1661265f565b905080821015612371576123716124a8565b61239161237e82846124d4565b61238990600a612653565b87908a611962565b9998505050505050505050565b80356001600160a01b03811681146102fe57600080fd5b6000602082840312156123c757600080fd5b610a3f8261239e565b600080604083850312156123e357600080fd5b6123ec8361239e565b946020939093013593505050565b634e487b7160e01b600052602160045260246000fd5b602081016005831061243257634e487b7160e01b600052602160045260246000fd5b91905290565b634e487b7160e01b600052601260045260246000fd5b634e487b7160e01b600052601160045260246000fd5b60008261247357612473612438565b500490565b8082028115828204841417610a4257610a4261244e565b6000602082840312156124a157600080fd5b5051919050565b634e487b7160e01b600052600160045260246000fd5b634e487b7160e01b600052603260045260246000fd5b81810381811115610a4257610a4261244e565b6001600160401b038181168382160190811115610a4257610a4261244e565b60006001600160401b0383168061251f5761251f612438565b806001600160401b0384160691505092915050565b6001600160401b038281168282160390811115610a4257610a4261244e565b6000600182016125655761256561244e565b5060010190565b6001815b60018411156125a75780850481111561258b5761258b61244e565b600184161561259957908102905b60019390931c928002612570565b935093915050565b6000826125be57506001610a42565b816125cb57506000610a42565b81600181146125e157600281146125eb57612607565b6001915050610a42565b60ff8411156125fc576125fc61244e565b50506001821b610a42565b5060208310610133831016604e8410600b841016171561262a575081810a610a42565b612637600019848461256c565b806000190482111561264b5761264b61244e565b029392505050565b6000610a3f83836125af565b80820180821115610a4257610a4261244e565b60008261268157612681612438565b500690565b600181811c9082168061269a57607f821691505b602082108103610dbd57634e487b7160e01b600052602260045260246000fd5b602081526000825180602084015260005b818110156126e857602081860181015160408684010152016126cb565b506000604082850101526040601f19601f83011684010191505092915050565b60008060006060848603121561271d57600080fd5b505081516020830151604090930151909492935091905056fe4f24f5c433db0962dac0d2c8b84197a6e6c7cc4e5d9ebe1916a1b6193da2f33aec7e8c1c441439dd40959777f4c577ea0cd42fcc1dbe59d2bd0f5d9c55df8db60cd2207518cd3e5213e2c6dbe63d55b60aa893c194a427b7d7f1600408fd5bdea2646970667358221220ef130a9ece368f384145420a9223fd33eb3221ac5f4c52223b70405f1eb1d1bf64736f6c634300081b0033",
  "linkReferences": {},
  "deployedLinkReferences": {}
}