{
  "_format": "hh-sol-artifact-1",
  "contractName": "LiquidationFacet",
  "sourceName": "contracts/assetManager/facets/LiquidationFacet.sol",
  "abi": [
    {
      "inputs": [],
      "name": "CannotStopLiquidation",
      "type": "error"
    },
    {
      "inputs": [],
      "name": "DivisionByZero",
      "type": "error"
    },
    {
      "inputs": [],
      "name": "EmergencyPauseActive",
      "type": "error"
    },
    {
      "inputs": [],
      "name": "InvalidAgentVaultAddress",
      "type": "error"
    },
    {
      "inputs": [
        {
          "internalType": "enum AgentInfo.Status",
          "name": "status",
          "type": "uint8"
        }
      ],
      "name": "LiquidationNotPossible",
      "type": "error"
    },
    {
      "inputs": [],
      "name": "LiquidationNotStarted",
      "type": "error"
    },
    {
      "inputs": [],
      "name": "NotAttached",
      "type": "error"
    },
    {
      "inputs": [],
      "name": "NotInLiquidation",
      "type": "error"
    },
    {
      "inputs": [],
      "name": "NotWhitelisted",
      "type": "error"
    },
    {
      "inputs": [],
      "name": "OnlyAssetManagerController",
      "type": "error"
    },
    {
      "inputs": [],
      "name": "ReentrancyGuardReentrantCall",
      "type": "error"
    },
    {
      "anonymous": false,
      "inputs": [
        {
          "indexed": true,
          "internalType": "address",
          "name": "agentVault",
          "type": "address"
        },
        {
          "indexed": false,
          "internalType": "uint256",
          "name": "dustUBA",
          "type": "uint256"
        }
      ],
      "name": "DustChanged",
      "type": "event"
    },
    {
      "anonymous": false,
      "inputs": [
        {
          "indexed": true,
          "internalType": "address",
          "name": "agentVault",
          "type": "address"
        }
      ],
      "name": "LiquidationEnded",
      "type": "event"
    },
    {
      "anonymous": false,
      "inputs": [
        {
          "indexed": true,
          "internalType": "address",
          "name": "agentVault",
          "type": "address"
        },
        {
          "indexed": true,
          "internalType": "address",
          "name": "liquidator",
          "type": "address"
        },
        {
          "indexed": false,
          "internalType": "uint256",
          "name": "valueUBA",
          "type": "uint256"
        },
        {
          "indexed": false,
          "internalType": "uint256",
          "name": "paidVaultCollateralWei",
          "type": "uint256"
        },
        {
          "indexed": false,
          "internalType": "uint256",
          "name": "paidPoolCollateralWei",
          "type": "uint256"
        }
      ],
      "name": "LiquidationPerformed",
      "type": "event"
    },
    {
      "anonymous": false,
      "inputs": [
        {
          "indexed": true,
          "internalType": "address",
          "name": "agentVault",
          "type": "address"
        },
        {
          "indexed": false,
          "internalType": "uint256",
          "name": "timestamp",
          "type": "uint256"
        }
      ],
      "name": "LiquidationStarted",
      "type": "event"
    },
    {
      "anonymous": false,
      "inputs": [
        {
          "indexed": true,
          "internalType": "address",
          "name": "agentVault",
          "type": "address"
        },
        {
          "indexed": true,
          "internalType": "uint256",
          "name": "redemptionTicketId",
          "type": "uint256"
        }
      ],
      "name": "RedemptionTicketDeleted",
      "type": "event"
    },
    {
      "anonymous": false,
      "inputs": [
        {
          "indexed": true,
          "internalType": "address",
          "name": "agentVault",
          "type": "address"
        },
        {
          "indexed": true,
          "internalType": "uint256",
          "name": "redemptionTicketId",
          "type": "uint256"
        },
        {
          "indexed": false,
          "internalType": "uint256",
          "name": "ticketValueUBA",
          "type": "uint256"
        }
      ],
      "name": "RedemptionTicketUpdated",
      "type": "event"
    },
    {
      "inputs": [
        {
          "internalType": "address",
          "name": "_agentVault",
          "type": "address"
        }
      ],
      "name": "endLiquidation",
      "outputs": [],
      "stateMutability": "nonpayable",
      "type": "function"
    },
    {
      "inputs": [
        {
          "internalType": "address",
          "name": "_agentVault",
          "type": "address"
        },
        {
          "internalType": "uint256",
          "name": "_amountUBA",
          "type": "uint256"
        }
      ],
      "name": "liquidate",
      "outputs": [
        {
          "internalType": "uint256",
          "name": "_liquidatedAmountUBA",
          "type": "uint256"
        },
        {
          "internalType": "uint256",
          "name": "_amountPaidVault",
          "type": "uint256"
        },
        {
          "internalType": "uint256",
          "name": "_amountPaidPool",
          "type": "uint256"
        }
      ],
      "stateMutability": "nonpayable",
      "type": "function"
    },
    {
      "inputs": [
        {
          "internalType": "address",
          "name": "_agentVault",
          "type": "address"
        }
      ],
      "name": "startLiquidation",
      "outputs": [
        {
          "internalType": "uint256",
          "name": "_liquidationStartTs",
          "type": "uint256"
        }
      ],
      "stateMutability": "nonpayable",
      "type": "function"
    }
  ],
  "bytecode": "0x6080604052348015600f57600080fd5b5061281b8061001f6000396000f3fe608060405234801561001057600080fd5b50600436106100415760003560e01c8063b7f658ab14610046578063bcbaf4871461005b578063e1c501001461008e575b600080fd5b610059610054366004612404565b6100af565b005b61006e61006936600461241f565b610121565b604080519384526020840192909252908201526060015b60405180910390f35b6100a161009c366004612404565b610269565b604051908152602001610085565b6100b76102f5565b60006100c28261032d565b90506100cd816103c8565b6001600482015460ff1660058111156100e8576100e8612449565b146101065760405163560aa5bb60e11b815260040160405180910390fd5b5061011e60016000805160206127c683398151915255565b50565b600080600061012e6104a5565b6101366102f5565b60006101418661032d565b9050600061014e82610508565b9050600061015c838361057c565b90508061017c5760405163e1fa098d60e01b815260040160405180910390fd5b6000806000610194868661018f8d610750565b6107af565b9250925092506101a383610878565b985081156101b9576101b68633846108cb565b97505b80156101dd5760006101cb87836109d5565b90506101d987338484610a4c565b9750505b881561023c576101ed338a610b57565b604080518a8152602081018a905290810188905233906001600160a01b038d16907f4427e2d198cce01c31bf025614c1ba605936f2198edb532627be228afedb19f79060600160405180910390a35b610245866103c8565b50505050505061026260016000805160206127c683398151915255565b9250925092565b60006102736104a5565b61027b6102f5565b60006102868361032d565b9050600061029382610508565b905060006102a1838361057c565b9050806102c1576040516330e2d39160e21b815260040160405180910390fd5b505060040154600160a81b90046001600160401b031690506102f060016000805160206127c683398151915255565b919050565b6000805160206127c683398151915280546001190161032757604051633ee5aeb560e01b815260040160405180910390fd5b60029055565b604081901b68010000000000000000600160e01b03167f5bebac0595fee029d42bb673937f5f1cb81cf8641382bc17774635de9b7d79651860048101546000919060ff168281600581111561038457610384612449565b141580156103a4575060058160058111156103a1576103a1612449565b14155b6103c15760405163d68a46c560e01b815260040160405180910390fd5b5092915050565b6002600482015460ff1660058111156103e3576103e3612449565b146103eb5750565b60006103f682610508565b90506000610405836000610bea565b90506000610414846001610bea565b90508183600001511015801561042e575080836020015110155b1561049f576004840180547fff00ff0000000000000000ffffffffffffffffffffffffffffffffffffffff0016600117905561046984610c30565b6001600160a01b03167fe513b42585b0ceec0d56d56fe3a23861c15a2f74eb4c32c94334d63d68ff4dcf60405160405180910390a25b50505050565b7fec7e8c1c441439dd40959777f4c577ea0cd42fcc1dbe59d2bd0f5d9c55df8dc6546000805160206127a68339815191529042600160401b9091046001600160401b0316111561011e5760405163909b191760e01b815260040160405180910390fd5b6105336040518060800160405280600081526020016000815260200160008152602001600081525090565b600080610541846000610c58565b91509150600080610553866001610c58565b604080516080810182529687526020870192909252908501939093525050606082015292915050565b600482015460009060ff16600281600581111561059b5761059b612449565b14806105b8575060038160058111156105b6576105b6612449565b145b156105c6576001915061060b565b60018160058111156105da576105da612449565b1461060b576105e884610ca6565b60405163302036e560e21b8152600401610602919061245f565b60405180910390fd5b8251600485015460009161062791610100900461ffff16610d69565b905080156106535760048501805460ff60f01b1981166001600160f01b9283900460ff16179091021790555b60208401516004860154600091610674916301000000900461ffff16610d69565b905080156106a05760048601805460ff60f01b1981166002600160f01b9283900460ff16179091021790555b831580156106b2575081806106b25750805b156107475760048601805460ff19166002179055600193506106d342610db9565b8660040160156101000a8154816001600160401b0302191690836001600160401b0316021790555061070486610c30565b6001600160a01b03167fee549a858daf6f6ccedae61597c3ece62a808677387a36146cf61363507679754260405161073e91815260200190565b60405180910390a25b50505092915050565b7f4f24f5c433db0962dac0d2c8b84197a6e6c7cc4e5d9ebe1916a1b6193da2f34654600090600080516020612786833981519152906107a8906107a390600160901b90046001600160401b0316856124b3565b610db9565b9392505050565b60008060008060006107ca8888600001518960200151610e25565b9150915060006107fa6107e48a8a60000151866000610f3e565b6107f58b8b60200151866001610f3e565b611054565b905060006108146107a3838a6001600160401b031661106a565b90506108248a8260016000611079565b50965061084761083d6001600160401b03891686611276565b8a60400151611285565b955061086961085f6001600160401b03891685611276565b8a60600151611285565b94505050505093509350939050565b7f4f24f5c433db0962dac0d2c8b84197a6e6c7cc4e5d9ebe1916a1b6193da2f34654600090600080516020612786833981519152906107a890600160901b90046001600160401b039081169085166124c7565b6000806108d78561129f565b905060006108e486610c30565b82546040516370a0823160e01b81526001600160a01b03808416600483015292935061095d92879216906370a0823190602401602060405180830381865afa158015610934573d6000803e3d6000fd5b505050506040513d601f19601f8201168201806040525081019061095891906124de565b61106a565b825460405163083e007560e21b81526001600160a01b0391821660048201528782166024820152604481018390529194508216906320f801d490606401600060405180830381600087803b1580156109b457600080fd5b505af11580156109c8573d6000803e3d6000fd5b5050505050509392505050565b60006003600484015460ff1660058111156109f2576109f2612449565b1480610a0c57506004830154600160f01b900460ff166001145b15610a18575080610a46565b6004830154600119600160f01b90910460ff1601610a3857506000610a46565b610a436002836124b3565b90505b92915050565b6000808560000160009054906101000a90046001600160a01b03166001600160a01b0316634ac8eb5f6040518163ffffffff1660e01b8152600401602060405180830381865afa158015610aa4573d6000803e3d6000fd5b505050506040513d601f19601f82011682018060405250810190610ac891906124de565b9050610ad4848261106a565b9150610ae0838361106a565b865460405163adf58c1560e01b81526001600160a01b038881166004830152602482018690526044820184905292955091169063adf58c1590606401600060405180830381600087803b158015610b3657600080fd5b505af1158015610b4a573d6000803e3d6000fd5b5050505050949350505050565b7f4f24f5c433db0962dac0d2c8b84197a6e6c7cc4e5d9ebe1916a1b6193da2f33b546001600160a01b0316604051632770a7eb60e21b81526001600160a01b038481166004830152602482018490529190911690639dc29fac90604401600060405180830381600087803b158015610bce57600080fd5b505af1158015610be2573d6000803e3d6000fd5b505050505050565b600080610bf784846112ec565b9050610c038484611391565b610c18576003015463ffffffff169050610a46565b60030154600160401b900463ffffffff169050610a46565b7f5bebac0595fee029d42bb673937f5f1cb81cf8641382bc17774635de9b7d79651860401c90565b600080600080610c6886866113fa565b915091506000610c7883886114d8565b90506000610c8683896114d8565b905083604001519450610c998282611054565b9550505050509250929050565b600481015460009060ff166001816005811115610cc557610cc5612449565b03610cd35750600092915050565b6002816005811115610ce757610ce7612449565b03610cf55750600192915050565b6003816005811115610d0957610d09612449565b03610d175750600292915050565b6004816005811115610d2b57610d2b612449565b03610d395750600392915050565b6005816005811115610d4d57610d4d612449565b14610d5a57610d5a6124f7565b50600492915050565b50919050565b6000806000805160206127a683398151915290506000816000018481548110610d9457610d9461250d565b600091825260209091206004909102016003015463ffffffff16909410949350505050565b60006001600160401b03821115610e215760405162461bcd60e51b815260206004820152602660248201527f53616665436173743a2076616c756520646f65736e27742066697420696e203660448201526534206269747360d01b6064820152608401610602565b5090565b60008060008051602061278683398151915281610e41876115a3565b90506000826015018281548110610e5a57610e5a61250d565b90600052602060002001549050610e90836016018381548110610e7f57610e7f61250d565b90600052602060002001548261106a565b94506000610e9d8961129f565b90506000610eaa8a611632565b9050610eb58261166b565b158015610ec65750610ec68161166b565b15610ed45760009650610ef8565b610edd8261166b565b8015610eef5750610eed8161166b565b155b15610ef8578296505b88871115610f04578896505b610f0e8784612523565b955087861115610f3157879550610f2e610f288785612523565b8a61106a565b96505b5050505050935093915050565b60008060008051602061278683398151915290506003600487015460ff166005811115610f6d57610f6d612449565b03610f8e5750506005840154600160401b90046001600160401b031661104c565b6000610f9a8785610bea565b9050858111610fae5760009250505061104c565b848611610fd2575050506005840154600160401b90046001600160401b031661104c565b6000611007610fe18884612523565b610feb8885612523565b60058b0154600160401b90046001600160401b031691906116a2565b600d8401549091506110239082906001600160401b03166116df565b6005890154909150611046908290600160401b90046001600160401b031661106a565b93505050505b949350505050565b60008183116110635781610a43565b5090919050565b60008183106110635781610a43565b7f4f24f5c433db0962dac0d2c8b84197a6e6c7cc4e5d9ebe1916a1b6193da2f349547f4f24f5c433db0962dac0d2c8b84197a6e6c7cc4e5d9ebe1916a1b6193da2f3475460009182916000805160206127a683398151915291600160801b900461ffff16906001600160401b0316835b82811080156111095750886001600160401b0316866001600160401b0316105b156111e7576000600885018161111e8d610c30565b6001600160a01b0316815260208101919091526040016000908120546001600160401b0316915081900361115257506111e7565b6001600160401b038181166000908152600787016020526040812060068e01548154919361118b9291811691600160a01b900416612536565b90506111978582612555565b6111a19082612583565b905060006111b86111b28b8f612583565b83611716565b90506111c48482611738565b6111ce818b612536565b99505050505080806111df906125a2565b9150506110e9565b50600061120a6111f7878b612583565b60068c01546001600160401b0316611716565b905086156112295761121c8282612555565b6112269082612583565b90505b6001600160401b0381161561124e576112428187612536565b955061124e8a82611923565b871561125e5761125e8a87611950565b61126786610878565b94505050505094509492505050565b6000610a43838361271061199c565b6000610a43826112976009600a6126a2565b85919061199c565b6000806000805160206127a683398151915260048401548154919250829161010090910461ffff169081106112d6576112d661250d565b9060005260206000209060040201915050919050565b6000600282600281111561130257611302612449565b0361130f5761130f6124f7565b6000805160206127a6833981519152600083600281111561133257611332612449565b0361136e57600484015481548291610100900461ffff169081106113585761135861250d565b9060005260206000209060040201915050610a46565b6004840154815482916301000000900461ffff169081106113585761135861250d565b6000808260028111156113a6576113a6612449565b036113c257506004820154600160f01b90046001161515610a46565b60018260028111156113d6576113d6612449565b146113e3576113e36124f7565b506004820154600160f01b90046002161515610a46565b61141f6040805160608101909152806000815260200160008152602001600081525090565b6114446040805160608101909152806000815260200160008152602001600081525090565b600061145085856112ec565b9050600061145f868684611aa0565b905060008061146d84611ba1565b91509150604051806060016040528088600281111561148e5761148e612449565b815260200184815260200183815250955060405180606001604052808860028111156114bc576114bc612449565b8152602001848152602001828152509450505050509250929050565b6000806001845160028111156114f0576114f0612449565b1461150f576005830154600160801b90046001600160401b0316611525565b6005830154600160c01b90046001600160401b03165b60058401546001600160401b03918216925060009183916115519181811691600160401b9004166126ae565b61155b91906126ae565b9050600061156d828760400151611285565b905080600003611587576402540be4009350505050610a46565b6020860151611599906127108361199c565b9695505050505050565b60048101547f4f24f5c433db0962dac0d2c8b84197a6e6c7cc4e5d9ebe1916a1b6193da2f34e54600091600080516020612786833981519152916001600160401b03600160a81b90920482169184916401000000009004166116058342612523565b61160f91906124b3565b905061162981600185601501805490506109589190612523565b95945050505050565b6000806000805160206127a6833981519152600484015481549192508291630100000090910461ffff169081106112d6576112d661250d565b8054600090600160b01b90046001600160401b03161580610a465750815442600160b01b9091046001600160401b03161192915050565b6000806116b085858561199c565b9050600083806116c2576116c2612487565b858709905080156116d65781600101611599565b50949350505050565b6000806116ec83856126c1565b9050801561170e57826116ff8286612523565b61170991906126ae565b61104c565b509192915050565b6000816001600160401b0316836001600160401b031611156110635781610a43565b6001600160401b03821660009081527fec7e8c1c441439dd40959777f4c577ea0cd42fcc1dbe59d2bd0f5d9c55df8dbd602081905260408220805491929091611789906001600160a01b031661032d565b7f4f24f5c433db0962dac0d2c8b84197a6e6c7cc4e5d9ebe1916a1b6193da2f34754600682015484549293506001600160401b039182169260009288926117dc9290821691600160a01b90910416612536565b6117e69190612583565b905060006117f48383612555565b905060006118028284612583565b9050806001600160401b031660000361186c5761181f878a611c50565b886001600160401b031661183286610c30565b6001600160a01b03167fb7f65e70a51658e24800516a5dc90e2dd65176e18381adda77f58e2044482b1960405160405180910390a361190e565b85546001600160401b03828116600160a01b909204161461190e57855467ffffffffffffffff60a01b1916600160a01b6001600160401b0383160217865560006118b582610878565b9050896001600160401b03166118ca87610c30565b6001600160a01b03167f9d2e72c50be7927e999d37329649af37a863df77bcb25361699ce021d3d7475d8360405161190491815260200190565b60405180910390a3505b611918858361202a565b505050505050505050565b600682015460009061193f9083906001600160401b0316612583565b905061194b838261202a565b505050565b6005820154611970908290600160401b90046001600160401b0316612583565b8260050160086101000a8154816001600160401b0302191690836001600160401b031602179055505050565b60008082116119be576040516323d359a360e01b815260040160405180910390fd5b836000036119ce575060006107a8565b838302838582816119e1576119e1612487565b04036119ff578281816119f6576119f6612487565b049150506107a8565b506000611a0c83866124b3565b90506000611a1a84876126c1565b90506000611a2885876124b3565b90506000611a3686886126c1565b905085611a4382856124c7565b611a4d91906124b3565b611a5783856124c7565b611a6183876124c7565b88611a6c86896124c7565b611a7691906124c7565b611a8091906126ae565b611a8a91906126ae565b611a9491906126ae565b98975050505050505050565b6000611aab8261166b565b611ab7575060006107a8565b6001836002811115611acb57611acb612449565b03611b4457835460408051634ac8eb5f60e01b815290516001600160a01b0390921691634ac8eb5f916004808201926020929091908290030181865afa158015611b19573d6000803e3d6000fd5b505050506040513d601f19601f82011682018060405250810190611b3d91906124de565b90506107a8565b81546001600160a01b03166370a08231611b5d86610c30565b6040516001600160e01b031960e084901b1681526001600160a01b039091166004820152602401602060405180830381865afa158015611b19573d6000803e3d6000fd5b600080600080516020612786833981519152818080611bc087826120c0565b9250925092506000806000611bd68a60016120c0565b60108a015492955090935091506000908590611c0290600160c01b90046001600160401b0316846126ae565b10158015611c2f575060108801548690611c2c90600160c01b90046001600160401b0316856126ae565b10155b905086995080611c3f5786611c41565b835b98505050505050505050915091565b6001600160401b038116600090815260208390526040902080546001600160a01b0316611c7f57611c7f6124f7565b80546001600160a01b031660009081526001808501602052604082209083015490916001600160401b039091169003611d055760028401546001600160401b03848116911614611cd157611cd16124f7565b6001820154600285018054600160401b9092046001600160401b031667ffffffffffffffff19909216919091179055611d6d565b60028401546001600160401b0390811690841603611d2557611d256124f7565b6001828101546001600160401b038082166000908152602088905260409020909201805467ffffffffffffffff60401b1916600160401b928390049093169091029190911790555b6001820154600160401b90046001600160401b0316600003611de45760028401546001600160401b03848116600160401b9092041614611daf57611daf6124f7565b600182015460028501805467ffffffffffffffff60401b19166001600160401b03909216600160401b02919091179055611e4c565b60028401546001600160401b03600160401b909104811690841603611e0b57611e0b6124f7565b600180830154600160401b81046001600160401b039081166000908152602088905260409020909201805467ffffffffffffffff1916929091169190911790555b6001820154600160801b90046001600160401b0316600003611eb15780546001600160401b03848116911614611e8457611e846124f7565b60018201548154600160c01b9091046001600160401b031667ffffffffffffffff19909116178155611f17565b80546001600160401b0390811690841603611ece57611ece6124f7565b6001828101546001600160401b03600160801b82048116600090815260208890526040902090920180546001600160c01b0316600160c01b928390049093169091029190911790555b6001820154600160c01b90046001600160401b0316600003611f8a5780546001600160401b03848116600160401b9092041614611f5657611f566124f7565b6001820154815467ffffffffffffffff60401b1916600160801b9091046001600160401b0316600160401b02178155611ffc565b80546001600160401b03600160401b909104811690841603611fae57611fae6124f7565b6001828101546001600160401b03600160c01b820481166000908152602088905260409020909201805467ffffffffffffffff60801b1916600160801b928390049093169091029190911790555b50506001600160401b031660009081526020919091526040812080546001600160e01b031916815560010155565b60068201546001600160401b03808316911603612045575050565b60068201805467ffffffffffffffff19166001600160401b038316179055600061206e82610878565b905061207983610c30565b6001600160a01b03167fa3db2bc927901a1d3ba09ad51d84609457b98443be9132a0a936a47c5a1081b5826040516120b391815260200190565b60405180910390a2505050565b60008060008060008061215f8860010180546120db906126d5565b80601f0160208091040260200160405190810160405280929190818152602001828054612107906126d5565b80156121545780601f1061212957610100808354040283529160200191612154565b820191906000526020600020905b81548152906001019060200180831161213757829003601f168201915b505050505088612278565b8a549295509093509150600160f01b900460ff16156121a657875460009061219590600160a81b900460ff166001838786612366565b965091945084935061026292505050565b60008060006122418b60020180546121bd906126d5565b80601f01602080910402602001604051908101604052809291908181526020018280546121e9906126d5565b80156122365780601f1061220b57610100808354040283529160200191612236565b820191906000526020600020905b81548152906001019060200180831161221957829003601f168201915b50505050508b612278565b8d54929550909350915060009061226590600160a81b900460ff1685848a89612366565b9950949750909550610262945050505050565b7f4f24f5c433db0962dac0d2c8b84197a6e6c7cc4e5d9ebe1916a1b6193da2f3445460009081908190600080516020612786833981519152906001600160a01b0316851561233a5760405163e4a0a55b60e01b81526001600160a01b0382169063e4a0a55b906122ec908a90600401612709565b606060405180830381865afa158015612309573d6000803e3d6000fd5b505050506040513d601f19601f8201168201806040525081019061232d9190612757565b9450945094505050610262565b60405163524f388960e01b81526001600160a01b0382169063524f3889906122ec908a90600401612709565b6000600080516020612786833981519152816009612384878a6126ae565b61238e91906126ae565b600a8301549091506000906123ae908690600160a81b900460ff166126ae565b9050808210156123c0576123c06124f7565b6123e06123cd8284612523565b6123d890600a6126a2565b87908a61199c565b9998505050505050505050565b80356001600160a01b03811681146102f057600080fd5b60006020828403121561241657600080fd5b610a43826123ed565b6000806040838503121561243257600080fd5b61243b836123ed565b946020939093013593505050565b634e487b7160e01b600052602160045260246000fd5b602081016005831061248157634e487b7160e01b600052602160045260246000fd5b91905290565b634e487b7160e01b600052601260045260246000fd5b634e487b7160e01b600052601160045260246000fd5b6000826124c2576124c2612487565b500490565b8082028115828204841417610a4657610a4661249d565b6000602082840312156124f057600080fd5b5051919050565b634e487b7160e01b600052600160045260246000fd5b634e487b7160e01b600052603260045260246000fd5b81810381811115610a4657610a4661249d565b6001600160401b038181168382160190811115610a4657610a4661249d565b60006001600160401b0383168061256e5761256e612487565b806001600160401b0384160691505092915050565b6001600160401b038281168282160390811115610a4657610a4661249d565b6000600182016125b4576125b461249d565b5060010190565b6001815b60018411156125f6578085048111156125da576125da61249d565b60018416156125e857908102905b60019390931c9280026125bf565b935093915050565b60008261260d57506001610a46565b8161261a57506000610a46565b8160018114612630576002811461263a57612656565b6001915050610a46565b60ff84111561264b5761264b61249d565b50506001821b610a46565b5060208310610133831016604e8410600b8410161715612679575081810a610a46565b61268660001984846125bb565b806000190482111561269a5761269a61249d565b029392505050565b6000610a4383836125fe565b80820180821115610a4657610a4661249d565b6000826126d0576126d0612487565b500690565b600181811c908216806126e957607f821691505b602082108103610d6357634e487b7160e01b600052602260045260246000fd5b602081526000825180602084015260005b81811015612737576020818601810151604086840101520161271a565b506000604082850101526040601f19601f83011684010191505092915050565b60008060006060848603121561276c57600080fd5b505081516020830151604090930151909492935091905056fe4f24f5c433db0962dac0d2c8b84197a6e6c7cc4e5d9ebe1916a1b6193da2f33aec7e8c1c441439dd40959777f4c577ea0cd42fcc1dbe59d2bd0f5d9c55df8db60cd2207518cd3e5213e2c6dbe63d55b60aa893c194a427b7d7f1600408fd5bdea26469706673582212206e0ac8f125b7e2335894013986cfb8def9b1f9804b6cf3f54b32ce75d4c4595264736f6c634300081b0033",
  "linkReferences": {},
  "deployedLinkReferences": {}
}