{
  "_format": "hh-sol-artifact-1",
  "contractName": "CollateralPool",
  "sourceName": "contracts/collateralPool/implementation/CollateralPool.sol",
  "abi": [
    {
      "inputs": [
        {
          "internalType": "address",
          "name": "_agentVault",
          "type": "address"
        },
        {
          "internalType": "address",
          "name": "_assetManager",
          "type": "address"
        },
        {
          "internalType": "address",
          "name": "_fAsset",
          "type": "address"
        },
        {
          "internalType": "uint32",
          "name": "_exitCollateralRatioBIPS",
          "type": "uint32"
        }
      ],
      "stateMutability": "nonpayable",
      "type": "constructor"
    },
    {
      "inputs": [],
      "name": "AlreadyInitialized",
      "type": "error"
    },
    {
      "inputs": [],
      "name": "AmountOfCollateralTooLow",
      "type": "error"
    },
    {
      "inputs": [],
      "name": "AmountOfNatTooLow",
      "type": "error"
    },
    {
      "inputs": [],
      "name": "CannotDestroyPoolWithIssuedTokens",
      "type": "error"
    },
    {
      "inputs": [],
      "name": "CollateralAfterExitTooLow",
      "type": "error"
    },
    {
      "inputs": [],
      "name": "CollateralRatioFallsBelowExitCR",
      "type": "error"
    },
    {
      "inputs": [],
      "name": "DepositResultsInZeroTokens",
      "type": "error"
    },
    {
      "inputs": [],
      "name": "DivisionByZero",
      "type": "error"
    },
    {
      "inputs": [],
      "name": "FAssetAllowanceTooSmall",
      "type": "error"
    },
    {
      "inputs": [],
      "name": "FreeFAssetBalanceTooSmall",
      "type": "error"
    },
    {
      "inputs": [],
      "name": "InvalidRecipientAddress",
      "type": "error"
    },
    {
      "inputs": [],
      "name": "OnlyAgent",
      "type": "error"
    },
    {
      "inputs": [],
      "name": "OnlyAssetManager",
      "type": "error"
    },
    {
      "inputs": [],
      "name": "OnlyInternalUse",
      "type": "error"
    },
    {
      "inputs": [],
      "name": "PaymentLargerThanFeeDebt",
      "type": "error"
    },
    {
      "inputs": [],
      "name": "PoolTokenAlreadySet",
      "type": "error"
    },
    {
      "inputs": [],
      "name": "RedemptionRequiresClosingTooManyTickets",
      "type": "error"
    },
    {
      "inputs": [],
      "name": "ReentrancyGuardReentrantCall",
      "type": "error"
    },
    {
      "inputs": [],
      "name": "ReentrancyGuardRequired",
      "type": "error"
    },
    {
      "inputs": [],
      "name": "SentAmountTooLow",
      "type": "error"
    },
    {
      "inputs": [],
      "name": "TokenBalanceTooLow",
      "type": "error"
    },
    {
      "inputs": [],
      "name": "TokenShareIsZero",
      "type": "error"
    },
    {
      "inputs": [],
      "name": "TokenSupplyAfterExitTooLow",
      "type": "error"
    },
    {
      "inputs": [],
      "name": "TransferFailed",
      "type": "error"
    },
    {
      "inputs": [],
      "name": "WithdrawZeroFAsset",
      "type": "error"
    },
    {
      "inputs": [],
      "name": "ZeroFAssetDebtPayment",
      "type": "error"
    },
    {
      "anonymous": false,
      "inputs": [
        {
          "indexed": false,
          "internalType": "address",
          "name": "previousAdmin",
          "type": "address"
        },
        {
          "indexed": false,
          "internalType": "address",
          "name": "newAdmin",
          "type": "address"
        }
      ],
      "name": "AdminChanged",
      "type": "event"
    },
    {
      "anonymous": false,
      "inputs": [
        {
          "indexed": true,
          "internalType": "address",
          "name": "beacon",
          "type": "address"
        }
      ],
      "name": "BeaconUpgraded",
      "type": "event"
    },
    {
      "anonymous": false,
      "inputs": [
        {
          "indexed": false,
          "internalType": "uint256",
          "name": "amountNatWei",
          "type": "uint256"
        },
        {
          "indexed": false,
          "internalType": "uint8",
          "name": "rewardType",
          "type": "uint8"
        }
      ],
      "name": "CPClaimedReward",
      "type": "event"
    },
    {
      "anonymous": false,
      "inputs": [
        {
          "indexed": true,
          "internalType": "address",
          "name": "tokenHolder",
          "type": "address"
        },
        {
          "indexed": false,
          "internalType": "uint256",
          "name": "amountNatWei",
          "type": "uint256"
        },
        {
          "indexed": false,
          "internalType": "uint256",
          "name": "receivedTokensWei",
          "type": "uint256"
        },
        {
          "indexed": false,
          "internalType": "uint256",
          "name": "timelockExpiresAt",
          "type": "uint256"
        }
      ],
      "name": "CPEntered",
      "type": "event"
    },
    {
      "anonymous": false,
      "inputs": [
        {
          "indexed": true,
          "internalType": "address",
          "name": "tokenHolder",
          "type": "address"
        },
        {
          "indexed": false,
          "internalType": "uint256",
          "name": "burnedTokensWei",
          "type": "uint256"
        },
        {
          "indexed": false,
          "internalType": "uint256",
          "name": "receivedNatWei",
          "type": "uint256"
        }
      ],
      "name": "CPExited",
      "type": "event"
    },
    {
      "anonymous": false,
      "inputs": [
        {
          "indexed": true,
          "internalType": "address",
          "name": "tokenHolder",
          "type": "address"
        },
        {
          "indexed": false,
          "internalType": "int256",
          "name": "newFeeDebtUBA",
          "type": "int256"
        }
      ],
      "name": "CPFeeDebtChanged",
      "type": "event"
    },
    {
      "anonymous": false,
      "inputs": [
        {
          "indexed": true,
          "internalType": "address",
          "name": "tokenHolder",
          "type": "address"
        },
        {
          "indexed": false,
          "internalType": "uint256",
          "name": "paidFeesUBA",
          "type": "uint256"
        }
      ],
      "name": "CPFeeDebtPaid",
      "type": "event"
    },
    {
      "anonymous": false,
      "inputs": [
        {
          "indexed": true,
          "internalType": "address",
          "name": "tokenHolder",
          "type": "address"
        },
        {
          "indexed": false,
          "internalType": "uint256",
          "name": "withdrawnFeesUBA",
          "type": "uint256"
        }
      ],
      "name": "CPFeesWithdrawn",
      "type": "event"
    },
    {
      "anonymous": false,
      "inputs": [
        {
          "indexed": true,
          "internalType": "address",
          "name": "recipient",
          "type": "address"
        },
        {
          "indexed": false,
          "internalType": "uint256",
          "name": "paidNatWei",
          "type": "uint256"
        },
        {
          "indexed": false,
          "internalType": "uint256",
          "name": "burnedTokensWei",
          "type": "uint256"
        }
      ],
      "name": "CPPaidOut",
      "type": "event"
    },
    {
      "anonymous": false,
      "inputs": [
        {
          "indexed": true,
          "internalType": "address",
          "name": "tokenHolder",
          "type": "address"
        },
        {
          "indexed": false,
          "internalType": "uint256",
          "name": "burnedTokensWei",
          "type": "uint256"
        },
        {
          "indexed": false,
          "internalType": "uint256",
          "name": "receivedNatWei",
          "type": "uint256"
        },
        {
          "indexed": false,
          "internalType": "uint256",
          "name": "closedFAssetsUBA",
          "type": "uint256"
        }
      ],
      "name": "CPSelfCloseExited",
      "type": "event"
    },
    {
      "anonymous": false,
      "inputs": [
        {
          "indexed": true,
          "internalType": "address",
          "name": "implementation",
          "type": "address"
        }
      ],
      "name": "Upgraded",
      "type": "event"
    },
    {
      "inputs": [],
      "name": "MIN_NAT_BALANCE_AFTER_EXIT",
      "outputs": [
        {
          "internalType": "uint256",
          "name": "",
          "type": "uint256"
        }
      ],
      "stateMutability": "view",
      "type": "function"
    },
    {
      "inputs": [],
      "name": "MIN_NAT_TO_ENTER",
      "outputs": [
        {
          "internalType": "uint256",
          "name": "",
          "type": "uint256"
        }
      ],
      "stateMutability": "view",
      "type": "function"
    },
    {
      "inputs": [],
      "name": "MIN_TOKEN_SUPPLY_AFTER_EXIT",
      "outputs": [
        {
          "internalType": "uint256",
          "name": "",
          "type": "uint256"
        }
      ],
      "stateMutability": "view",
      "type": "function"
    },
    {
      "inputs": [],
      "name": "agentVault",
      "outputs": [
        {
          "internalType": "address",
          "name": "",
          "type": "address"
        }
      ],
      "stateMutability": "view",
      "type": "function"
    },
    {
      "inputs": [],
      "name": "assetManager",
      "outputs": [
        {
          "internalType": "contract IIAssetManager",
          "name": "",
          "type": "address"
        }
      ],
      "stateMutability": "view",
      "type": "function"
    },
    {
      "inputs": [
        {
          "internalType": "contract IDistributionToDelegators",
          "name": "_distribution",
          "type": "address"
        },
        {
          "internalType": "uint256",
          "name": "_month",
          "type": "uint256"
        }
      ],
      "name": "claimAirdropDistribution",
      "outputs": [
        {
          "internalType": "uint256",
          "name": "",
          "type": "uint256"
        }
      ],
      "stateMutability": "nonpayable",
      "type": "function"
    },
    {
      "inputs": [
        {
          "internalType": "contract IRewardManager",
          "name": "_rewardManager",
          "type": "address"
        },
        {
          "internalType": "uint24",
          "name": "_lastRewardEpoch",
          "type": "uint24"
        },
        {
          "components": [
            {
              "internalType": "bytes32[]",
              "name": "merkleProof",
              "type": "bytes32[]"
            },
            {
              "components": [
                {
                  "internalType": "uint24",
                  "name": "rewardEpochId",
                  "type": "uint24"
                },
                {
                  "internalType": "bytes20",
                  "name": "beneficiary",
                  "type": "bytes20"
                },
                {
                  "internalType": "uint120",
                  "name": "amount",
                  "type": "uint120"
                },
                {
                  "internalType": "enum RewardsV2Interface.ClaimType",
                  "name": "claimType",
                  "type": "uint8"
                }
              ],
              "internalType": "struct RewardsV2Interface.RewardClaim",
              "name": "body",
              "type": "tuple"
            }
          ],
          "internalType": "struct RewardsV2Interface.RewardClaimWithProof[]",
          "name": "_proofs",
          "type": "tuple[]"
        }
      ],
      "name": "claimDelegationRewards",
      "outputs": [
        {
          "internalType": "uint256",
          "name": "",
          "type": "uint256"
        }
      ],
      "stateMutability": "nonpayable",
      "type": "function"
    },
    {
      "inputs": [
        {
          "internalType": "address",
          "name": "_account",
          "type": "address"
        }
      ],
      "name": "debtFreeTokensOf",
      "outputs": [
        {
          "internalType": "uint256",
          "name": "",
          "type": "uint256"
        }
      ],
      "stateMutability": "view",
      "type": "function"
    },
    {
      "inputs": [
        {
          "internalType": "address",
          "name": "_account",
          "type": "address"
        }
      ],
      "name": "debtLockedTokensOf",
      "outputs": [
        {
          "internalType": "uint256",
          "name": "",
          "type": "uint256"
        }
      ],
      "stateMutability": "view",
      "type": "function"
    },
    {
      "inputs": [
        {
          "internalType": "address",
          "name": "_to",
          "type": "address"
        },
        {
          "internalType": "uint256",
          "name": "_bips",
          "type": "uint256"
        }
      ],
      "name": "delegate",
      "outputs": [],
      "stateMutability": "nonpayable",
      "type": "function"
    },
    {
      "inputs": [
        {
          "internalType": "address",
          "name": "_to",
          "type": "address"
        }
      ],
      "name": "delegateGovernance",
      "outputs": [],
      "stateMutability": "nonpayable",
      "type": "function"
    },
    {
      "inputs": [],
      "name": "depositNat",
      "outputs": [],
      "stateMutability": "payable",
      "type": "function"
    },
    {
      "inputs": [
        {
          "internalType": "address payable",
          "name": "_recipient",
          "type": "address"
        }
      ],
      "name": "destroy",
      "outputs": [],
      "stateMutability": "nonpayable",
      "type": "function"
    },
    {
      "inputs": [],
      "name": "enter",
      "outputs": [
        {
          "internalType": "uint256",
          "name": "",
          "type": "uint256"
        },
        {
          "internalType": "uint256",
          "name": "",
          "type": "uint256"
        }
      ],
      "stateMutability": "payable",
      "type": "function"
    },
    {
      "inputs": [
        {
          "internalType": "uint256",
          "name": "_tokenShare",
          "type": "uint256"
        }
      ],
      "name": "exit",
      "outputs": [
        {
          "internalType": "uint256",
          "name": "",
          "type": "uint256"
        }
      ],
      "stateMutability": "nonpayable",
      "type": "function"
    },
    {
      "inputs": [],
      "name": "exitCollateralRatioBIPS",
      "outputs": [
        {
          "internalType": "uint32",
          "name": "",
          "type": "uint32"
        }
      ],
      "stateMutability": "view",
      "type": "function"
    },
    {
      "inputs": [
        {
          "internalType": "uint256",
          "name": "_tokenShare",
          "type": "uint256"
        },
        {
          "internalType": "address payable",
          "name": "_recipient",
          "type": "address"
        }
      ],
      "name": "exitTo",
      "outputs": [
        {
          "internalType": "uint256",
          "name": "",
          "type": "uint256"
        }
      ],
      "stateMutability": "nonpayable",
      "type": "function"
    },
    {
      "inputs": [],
      "name": "fAsset",
      "outputs": [
        {
          "internalType": "contract IFAsset",
          "name": "",
          "type": "address"
        }
      ],
      "stateMutability": "view",
      "type": "function"
    },
    {
      "inputs": [
        {
          "internalType": "address",
          "name": "_account",
          "type": "address"
        }
      ],
      "name": "fAssetFeeDebtOf",
      "outputs": [
        {
          "internalType": "int256",
          "name": "",
          "type": "int256"
        }
      ],
      "stateMutability": "view",
      "type": "function"
    },
    {
      "inputs": [
        {
          "internalType": "uint256",
          "name": "_amount",
          "type": "uint256"
        }
      ],
      "name": "fAssetFeeDeposited",
      "outputs": [],
      "stateMutability": "nonpayable",
      "type": "function"
    },
    {
      "inputs": [
        {
          "internalType": "address",
          "name": "_account",
          "type": "address"
        }
      ],
      "name": "fAssetFeesOf",
      "outputs": [
        {
          "internalType": "uint256",
          "name": "",
          "type": "uint256"
        }
      ],
      "stateMutability": "view",
      "type": "function"
    },
    {
      "inputs": [
        {
          "internalType": "uint256",
          "name": "_tokenAmountWei",
          "type": "uint256"
        }
      ],
      "name": "fAssetRequiredForSelfCloseExit",
      "outputs": [
        {
          "internalType": "uint256",
          "name": "",
          "type": "uint256"
        }
      ],
      "stateMutability": "view",
      "type": "function"
    },
    {
      "inputs": [],
      "name": "implementation",
      "outputs": [
        {
          "internalType": "address",
          "name": "",
          "type": "address"
        }
      ],
      "stateMutability": "view",
      "type": "function"
    },
    {
      "inputs": [
        {
          "internalType": "address",
          "name": "_agentVault",
          "type": "address"
        },
        {
          "internalType": "address",
          "name": "_assetManager",
          "type": "address"
        },
        {
          "internalType": "address",
          "name": "_fAsset",
          "type": "address"
        },
        {
          "internalType": "uint32",
          "name": "_exitCollateralRatioBIPS",
          "type": "uint32"
        }
      ],
      "name": "initialize",
      "outputs": [],
      "stateMutability": "nonpayable",
      "type": "function"
    },
    {
      "inputs": [
        {
          "internalType": "contract IDistributionToDelegators",
          "name": "_distribution",
          "type": "address"
        }
      ],
      "name": "optOutOfAirdrop",
      "outputs": [],
      "stateMutability": "nonpayable",
      "type": "function"
    },
    {
      "inputs": [
        {
          "internalType": "uint256",
          "name": "_fAssets",
          "type": "uint256"
        }
      ],
      "name": "payFAssetFeeDebt",
      "outputs": [],
      "stateMutability": "nonpayable",
      "type": "function"
    },
    {
      "inputs": [
        {
          "internalType": "address",
          "name": "_recipient",
          "type": "address"
        },
        {
          "internalType": "uint256",
          "name": "_amount",
          "type": "uint256"
        },
        {
          "internalType": "uint256",
          "name": "_agentResponsibilityWei",
          "type": "uint256"
        }
      ],
      "name": "payout",
      "outputs": [],
      "stateMutability": "nonpayable",
      "type": "function"
    },
    {
      "inputs": [],
      "name": "poolToken",
      "outputs": [
        {
          "internalType": "contract ICollateralPoolToken",
          "name": "",
          "type": "address"
        }
      ],
      "stateMutability": "view",
      "type": "function"
    },
    {
      "inputs": [],
      "name": "proxiableUUID",
      "outputs": [
        {
          "internalType": "bytes32",
          "name": "",
          "type": "bytes32"
        }
      ],
      "stateMutability": "view",
      "type": "function"
    },
    {
      "inputs": [
        {
          "internalType": "uint256",
          "name": "_tokenShare",
          "type": "uint256"
        },
        {
          "internalType": "bool",
          "name": "_redeemToCollateral",
          "type": "bool"
        },
        {
          "internalType": "string",
          "name": "_redeemerUnderlyingAddress",
          "type": "string"
        },
        {
          "internalType": "address payable",
          "name": "_executor",
          "type": "address"
        }
      ],
      "name": "selfCloseExit",
      "outputs": [],
      "stateMutability": "payable",
      "type": "function"
    },
    {
      "inputs": [
        {
          "internalType": "uint256",
          "name": "_tokenShare",
          "type": "uint256"
        },
        {
          "internalType": "bool",
          "name": "_redeemToCollateral",
          "type": "bool"
        },
        {
          "internalType": "address payable",
          "name": "_recipient",
          "type": "address"
        },
        {
          "internalType": "string",
          "name": "_redeemerUnderlyingAddress",
          "type": "string"
        },
        {
          "internalType": "address payable",
          "name": "_executor",
          "type": "address"
        }
      ],
      "name": "selfCloseExitTo",
      "outputs": [],
      "stateMutability": "payable",
      "type": "function"
    },
    {
      "inputs": [
        {
          "internalType": "uint256",
          "name": "_exitCollateralRatioBIPS",
          "type": "uint256"
        }
      ],
      "name": "setExitCollateralRatioBIPS",
      "outputs": [],
      "stateMutability": "nonpayable",
      "type": "function"
    },
    {
      "inputs": [
        {
          "internalType": "address",
          "name": "_poolToken",
          "type": "address"
        }
      ],
      "name": "setPoolToken",
      "outputs": [],
      "stateMutability": "nonpayable",
      "type": "function"
    },
    {
      "inputs": [
        {
          "internalType": "bytes4",
          "name": "_interfaceId",
          "type": "bytes4"
        }
      ],
      "name": "supportsInterface",
      "outputs": [
        {
          "internalType": "bool",
          "name": "",
          "type": "bool"
        }
      ],
      "stateMutability": "pure",
      "type": "function"
    },
    {
      "inputs": [],
      "name": "token",
      "outputs": [
        {
          "internalType": "contract IICollateralPoolToken",
          "name": "",
          "type": "address"
        }
      ],
      "stateMutability": "view",
      "type": "function"
    },
    {
      "inputs": [],
      "name": "totalCollateral",
      "outputs": [
        {
          "internalType": "uint256",
          "name": "",
          "type": "uint256"
        }
      ],
      "stateMutability": "view",
      "type": "function"
    },
    {
      "inputs": [],
      "name": "totalFAssetFeeDebt",
      "outputs": [
        {
          "internalType": "int256",
          "name": "",
          "type": "int256"
        }
      ],
      "stateMutability": "view",
      "type": "function"
    },
    {
      "inputs": [],
      "name": "totalFAssetFees",
      "outputs": [
        {
          "internalType": "uint256",
          "name": "",
          "type": "uint256"
        }
      ],
      "stateMutability": "view",
      "type": "function"
    },
    {
      "inputs": [],
      "name": "undelegateAll",
      "outputs": [],
      "stateMutability": "nonpayable",
      "type": "function"
    },
    {
      "inputs": [],
      "name": "undelegateGovernance",
      "outputs": [],
      "stateMutability": "nonpayable",
      "type": "function"
    },
    {
      "inputs": [
        {
          "internalType": "address",
          "name": "newImplementation",
          "type": "address"
        }
      ],
      "name": "upgradeTo",
      "outputs": [],
      "stateMutability": "nonpayable",
      "type": "function"
    },
    {
      "inputs": [
        {
          "internalType": "address",
          "name": "newImplementation",
          "type": "address"
        },
        {
          "internalType": "bytes",
          "name": "data",
          "type": "bytes"
        }
      ],
      "name": "upgradeToAndCall",
      "outputs": [],
      "stateMutability": "payable",
      "type": "function"
    },
    {
      "inputs": [
        {
          "internalType": "contract IWNat",
          "name": "_newWNat",
          "type": "address"
        }
      ],
      "name": "upgradeWNatContract",
      "outputs": [],
      "stateMutability": "nonpayable",
      "type": "function"
    },
    {
      "inputs": [
        {
          "internalType": "address",
          "name": "_account",
          "type": "address"
        }
      ],
      "name": "virtualFAssetOf",
      "outputs": [
        {
          "internalType": "uint256",
          "name": "",
          "type": "uint256"
        }
      ],
      "stateMutability": "view",
      "type": "function"
    },
    {
      "inputs": [],
      "name": "wNat",
      "outputs": [
        {
          "internalType": "contract IWNat",
          "name": "",
          "type": "address"
        }
      ],
      "stateMutability": "view",
      "type": "function"
    },
    {
      "inputs": [
        {
          "internalType": "uint256",
          "name": "_fAssets",
          "type": "uint256"
        }
      ],
      "name": "withdrawFees",
      "outputs": [],
      "stateMutability": "nonpayable",
      "type": "function"
    },
    {
      "inputs": [
        {
          "internalType": "uint256",
          "name": "_fAssets",
          "type": "uint256"
        },
        {
          "internalType": "address",
          "name": "_recipient",
          "type": "address"
        }
      ],
      "name": "withdrawFeesTo",
      "outputs": [],
      "stateMutability": "nonpayable",
      "type": "function"
    },
    {
      "stateMutability": "payable",
      "type": "receive"
    }
  ],
  "bytecode": "0x60a06040523060805234801561001457600080fd5b5060405161495a38038061495a83398101604081905261003391610199565b61003f84848484610048565b50505050610225565b600454600160f81b900460ff16156100725760405162dc149f60e41b815260040160405180910390fd5b600480546001600160f81b0316600160f81b179055600080546001600160a01b038087166001600160a01b03199283161790925560018054868416908316811790915560028054938616939092169290921790556100d1576000610148565b600160009054906101000a90046001600160a01b03166001600160a01b031663b5a488a66040518163ffffffff1660e01b8152600401602060405180830381865afa158015610124573d6000803e3d6000fd5b505050506040513d601f19601f820116820180604052508101906101489190610201565b6004805463ffffffff909316600160a01b026001600160c01b03199093166001600160a01b039290921691909117919091179055505050565b6001600160a01b038116811461019657600080fd5b50565b600080600080608085870312156101af57600080fd5b84516101ba81610181565b60208601519094506101cb81610181565b60408601519093506101dc81610181565b606086015190925063ffffffff811681146101f657600080fd5b939692955090935050565b60006020828403121561021357600080fd5b815161021e81610181565b9392505050565b6080516146fe61025c60003960008181610cc601528181610d0f01528181610f9701528181610fd7015261105301526146fe6000f3fe60806040526004361061028b5760003560e01c8063868c3ba71161015a578063c79d245d116100c1578063e4df73f01161007a578063e4df73f014610789578063e97dcb621461079c578063ee781db0146107b9578063f4d000b2146107d9578063fc0c546a146107f9578063fd86d3ea1461081957600080fd5b8063c79d245d146106d7578063cb209413146106f7578063cbabdf391461072d578063cbdf382c14610743578063ce83b10c14610761578063d1b8890e1461078157600080fd5b80639edbf007116101135780639edbf00714610642578063a854a6a214610662578063adf58c1514610682578063b302f393146106a2578063b9e2648314610336578063c1b0bbf8146106b757600080fd5b8063868c3ba71461059757806386ac57a2146105b757806387a2a0dc146105d75780638e819e54146105ec578063923f89321461060c57806394217ad11461062257600080fd5b80634ac8eb5f116101fe578063787b9ca8116101b7578063787b9ca8146104e45780637a68a508146105045780637c7db1a5146105245780637f8661a11461054457806380f13ee914610564578063815ea9d61461057757600080fd5b80634ac8eb5f146104395780634f1ef2861461044f57806352d1902d1461046257806359c3d549146104775780635c60da1b146104975780635e318e07146104c457600080fd5b806315e2bfba1161025057806315e2bfba146103605780631b92d84a1461038057806333ce01fd146103a05780633659cfe6146103c05780633cfc747d146103e0578063406c70071461041957600080fd5b8062f55d9d146102c157806301ffc9a7146102e1578063026e402b146103165780630ac07344146103365780630dc1e5e11461033657600080fd5b366102bc57600454600160f01b900460ff166102ba57604051634c5eb24160e01b815260040160405180910390fd5b005b600080fd5b3480156102cd57600080fd5b506102ba6102dc366004613df3565b610839565b3480156102ed57600080fd5b506103016102fc366004613e10565b610a45565b60405190151581526020015b60405180910390f35b34801561032257600080fd5b506102ba610331366004613e3a565b610a97565b34801561034257600080fd5b50610352670de0b6b3a764000081565b60405190815260200161030d565b34801561036c57600080fd5b5061035261037b366004613df3565b610b29565b34801561038c57600080fd5b5061035261039b366004613e66565b610bab565b3480156103ac57600080fd5b506102ba6103bb366004613df3565b610c45565b3480156103cc57600080fd5b506102ba6103db366004613df3565b610cbc565b3480156103ec57600080fd5b5060045461040490600160a01b900463ffffffff1681565b60405163ffffffff909116815260200161030d565b34801561042557600080fd5b50610352610434366004613e3a565b610d8a565b34801561044557600080fd5b5061035260085481565b6102ba61045d366004613f0f565b610f8d565b34801561046e57600080fd5b50610352611046565b34801561048357600080fd5b50610352610492366004613f86565b6110f9565b3480156104a357600080fd5b506104ac6112ff565b6040516001600160a01b03909116815260200161030d565b3480156104d057600080fd5b506102ba6104df366004613e66565b61130e565b3480156104f057600080fd5b506102ba6104ff366004613e66565b611328565b34801561051057600080fd5b506102ba61051f366004613df3565b61137f565b34801561053057600080fd5b506002546104ac906001600160a01b031681565b34801561055057600080fd5b5061035261055f366004613e66565b611470565b6102ba61057236600461404a565b611493565b34801561058357600080fd5b506000546104ac906001600160a01b031681565b3480156105a357600080fd5b506102ba6105b23660046140cb565b611508565b3480156105c357600080fd5b506102ba6105d2366004613df3565b611522565b3480156105e357600080fd5b506102ba6115ab565b3480156105f857600080fd5b506102ba6106073660046140fb565b611690565b34801561061857600080fd5b5061035260065481565b34801561062e57600080fd5b506001546104ac906001600160a01b031681565b34801561064e57600080fd5b506004546104ac906001600160a01b031681565b34801561066e57600080fd5b506102ba61067d366004613e66565b6117c9565b34801561068e57600080fd5b506102ba61069d366004614160565b61180e565b3480156106ae57600080fd5b506102ba611a54565b3480156106c357600080fd5b506103526106d2366004613df3565b611abd565b3480156106e357600080fd5b506103526106f2366004613df3565b611ac8565b34801561070357600080fd5b50610352610712366004613df3565b6001600160a01b031660009081526005602052604090205490565b34801561073957600080fd5b5061035260075481565b34801561074f57600080fd5b506003546001600160a01b03166104ac565b34801561076d57600080fd5b5061035261077c3660046140cb565b611ad3565b6102ba611af1565b6102ba610797366004614195565b611b36565b6107a4611b53565b6040805192835260208301919091520161030d565b3480156107c557600080fd5b506102ba6107d4366004613e66565b611d95565b3480156107e557600080fd5b506102ba6107f4366004613df3565b611ed8565b34801561080557600080fd5b506003546104ac906001600160a01b031681565b34801561082557600080fd5b50610352610834366004613df3565b6120f9565b6001546001600160a01b0316331461086457604051636d5ab9d360e01b815260040160405180910390fd5b61086c612104565b600360009054906101000a90046001600160a01b03166001600160a01b03166318160ddd6040518163ffffffff1660e01b8152600401602060405180830381865afa1580156108bf573d6000803e3d6000fd5b505050506040513d601f19601f820116820180604052508101906108e391906141f6565b1561090157604051633645363160e11b815260040160405180910390fd5b600454610918906001600160a01b0316824761214e565b600480546040516370a0823160e01b815230928101929092526000916001600160a01b03909116906370a0823190602401602060405180830381865afa158015610966573d6000803e3d6000fd5b505050506040513d601f19601f8201168201806040525081019061098a91906141f6565b6002546040516370a0823160e01b81523060048201529192506000916001600160a01b03909116906370a0823190602401602060405180830381865afa1580156109d8573d6000803e3d6000fd5b505050506040513d601f19601f820116820180604052508101906109fc91906141f6565b90508115610a1b57600454610a1b906001600160a01b031684846121b6565b8015610a3857600254610a38906001600160a01b031684836121b6565b5050610a42612219565b50565b60006001600160e01b031982166301ffc9a760e01b1480610a7657506001600160e01b03198216630286f88760e51b145b80610a9157506001600160e01b03198216635986397960e11b145b92915050565b610aa03361223f565b610abd57604051637362044160e01b815260040160405180910390fd5b6004805460405163026e402b60e01b81526001600160a01b03858116938201939093526024810184905291169063026e402b90604401600060405180830381600087803b158015610b0d57600080fd5b505af1158015610b21573d6000803e3d6000fd5b505050505050565b6003546040516370a0823160e01b81526001600160a01b038381166004830152600092610a91929116906370a0823190602401602060405180830381865afa158015610b79573d6000803e3d6000fd5b505050506040513d601f19601f82011682018060405250810190610b9d91906141f6565b610ba6846122b9565b612406565b600080610c3383600360009054906101000a90046001600160a01b03166001600160a01b03166318160ddd6040518163ffffffff1660e01b8152600401602060405180830381865afa158015610c05573d6000803e3d6000fd5b505050506040513d601f19601f82011682018060405250810190610c2991906141f6565b6008549190612420565b9050610c3e81612524565b9392505050565b6001546001600160a01b03163314610c7057604051636d5ab9d360e01b815260040160405180910390fd5b6003546001600160a01b031615610c9a5760405163983d334d60e01b815260040160405180910390fd5b600380546001600160a01b0319166001600160a01b0392909216919091179055565b6001600160a01b037f0000000000000000000000000000000000000000000000000000000000000000163003610d0d5760405162461bcd60e51b8152600401610d049061420f565b60405180910390fd5b7f00000000000000000000000000000000000000000000000000000000000000006001600160a01b0316610d3f6125b4565b6001600160a01b031614610d655760405162461bcd60e51b8152600401610d049061425b565b610d6e816125d0565b60408051600080825260208201909252610a42918391906125fb565b6000610d953361223f565b610db257604051637362044160e01b815260040160405180910390fd5b610dba612104565b600480546040516370a0823160e01b815230928101929092526000916001600160a01b03909116906370a0823190602401602060405180830381865afa158015610e08573d6000803e3d6000fd5b505050506040513d601f19601f82011682018060405250810190610e2c91906141f6565b60405163596090c960e11b81523060048201819052602482015260448101859052600160648201529091506001600160a01b0385169063b2c12192906084016020604051808303816000875af1158015610e8a573d6000803e3d6000fd5b505050506040513d601f19601f82011682018060405250810190610eae91906141f6565b50600480546040516370a0823160e01b815230928101929092526000916001600160a01b03909116906370a0823190602401602060405180830381865afa158015610efd573d6000803e3d6000fd5b505050506040513d601f19601f82011682018060405250810190610f2191906141f6565b90506000610f2f83836142bd565b90508060086000828254610f4391906142d0565b909155505060408051828152600060208201527f955e716bbd4b5c26281476b84511cb2b515eca1ea095b1e18dd09afbeade5e60910160405180910390a192505050610a91612219565b6001600160a01b037f0000000000000000000000000000000000000000000000000000000000000000163003610fd55760405162461bcd60e51b8152600401610d049061420f565b7f00000000000000000000000000000000000000000000000000000000000000006001600160a01b03166110076125b4565b6001600160a01b03161461102d5760405162461bcd60e51b8152600401610d049061425b565b611036826125d0565b611042828260016125fb565b5050565b6000306001600160a01b037f000000000000000000000000000000000000000000000000000000000000000016146110e65760405162461bcd60e51b815260206004820152603860248201527f555550535570677261646561626c653a206d757374206e6f742062652063616c60448201527f6c6564207468726f7567682064656c656761746563616c6c00000000000000006064820152608401610d04565b5060008051602061468283398151915290565b60006111043361223f565b61112157604051637362044160e01b815260040160405180910390fd5b611129612104565b600480546040516370a0823160e01b815230928101929092526000916001600160a01b03909116906370a0823190602401602060405180830381865afa158015611177573d6000803e3d6000fd5b505050506040513d601f19601f8201168201806040525081019061119b91906141f6565b604051638e33aba560e01b81529091506001600160a01b03871690638e33aba5906111d590309081908a906001908b908b9060040161437e565b6020604051808303816000875af11580156111f4573d6000803e3d6000fd5b505050506040513d601f19601f8201168201806040525081019061121891906141f6565b50600480546040516370a0823160e01b815230928101929092526000916001600160a01b03909116906370a0823190602401602060405180830381865afa158015611267573d6000803e3d6000fd5b505050506040513d601f19601f8201168201806040525081019061128b91906141f6565b9050600061129983836142bd565b905080600860008282546112ad91906142d0565b909155505060408051828152600160208201527f955e716bbd4b5c26281476b84511cb2b515eca1ea095b1e18dd09afbeade5e60910160405180910390a1925050506112f7612219565b949350505050565b60006113096125b4565b905090565b611316612104565b6113208133612766565b610a42612219565b6001546001600160a01b0316331461135357604051636d5ab9d360e01b815260040160405180910390fd5b61135c81612804565b600460146101000a81548163ffffffff021916908363ffffffff16021790555050565b6113883361223f565b6113a557604051637362044160e01b815260040160405180910390fd5b6004805460408051638c2b8ae160e01b815290516001600160a01b0390921692638c2b8ae19282820192602092908290030181865afa1580156113ec573d6000803e3d6000fd5b505050506040513d601f19601f82011682018060405250810190611410919061449d565b6040516317066a5760e21b81526001600160a01b0383811660048301529190911690635c19a95c90602401600060405180830381600087803b15801561145557600080fd5b505af1158015611469573d6000803e3d6000fd5b5050505050565b600061147a612104565b611484823361286d565b905061148e612219565b919050565b61149b612104565b6001600160a01b038316158015906114bc57506001600160a01b0383163014155b80156114d657506000546001600160a01b03848116911614155b6114f35760405163226ccff560e11b815260040160405180910390fd5b6115008585858585612aa4565b611469612219565b611510612104565b61151a8282612766565b611042612219565b61152b3361223f565b61154857604051637362044160e01b815260040160405180910390fd5b611550612104565b806001600160a01b031663f2a1f7676040518163ffffffff1660e01b8152600401600060405180830381600087803b15801561158b57600080fd5b505af115801561159f573d6000803e3d6000fd5b50505050610a42612219565b6115b43361223f565b6115d157604051637362044160e01b815260040160405180910390fd5b6004805460408051638c2b8ae160e01b815290516001600160a01b0390921692638c2b8ae19282820192602092908290030181865afa158015611618573d6000803e3d6000fd5b505050506040513d601f19601f8201168201806040525081019061163c919061449d565b6001600160a01b03166392ab89bb6040518163ffffffff1660e01b8152600401600060405180830381600087803b15801561167657600080fd5b505af115801561168a573d6000803e3d6000fd5b50505050565b600454600160f81b900460ff16156116ba5760405162dc149f60e41b815260040160405180910390fd5b600480546001600160f81b0316600160f81b179055600080546001600160a01b038087166001600160a01b0319928316179092556001805486841690831681179091556002805493861693909216929092179055611719576000611790565b600160009054906101000a90046001600160a01b03166001600160a01b031663b5a488a66040518163ffffffff1660e01b8152600401602060405180830381865afa15801561176c573d6000803e3d6000fd5b505050506040513d601f19601f82011682018060405250810190611790919061449d565b6004805463ffffffff909316600160a01b026001600160c01b03199093166001600160a01b039290921691909117919091179055505050565b6001546001600160a01b031633146117f457604051636d5ab9d360e01b815260040160405180910390fd5b806007600082825461180691906142d0565b909155505050565b6001546001600160a01b0316331461183957604051636d5ab9d360e01b815260040160405180910390fd5b611841612104565b600354600080546040516370a0823160e01b81526001600160a01b039182166004820152919216906370a0823190602401602060405180830381865afa15801561188f573d6000803e3d6000fd5b505050506040513d601f19601f820116820180604052508101906118b391906141f6565b9050600080600854116118c6578161194b565b61194b83600854600360009054906101000a90046001600160a01b03166001600160a01b03166318160ddd6040518163ffffffff1660e01b8152600401602060405180830381865afa158015611920573d6000803e3d6000fd5b505050506040513d601f19601f8201168201806040525081019061194491906141f6565b9190612420565b905060006119598284612fad565b905080156119f657600061196c82612fc3565b600054909150611985906001600160a01b031682613062565b6003546000546040516376fd4fdf60e01b81526001600160a01b03918216600482015260248101859052600160448201529116906376fd4fdf90606401600060405180830381600087803b1580156119dc57600080fd5b505af11580156119f0573d6000803e3d6000fd5b50505050505b611a008686613102565b60408051868152602081018390526001600160a01b038816917ff08720419d127c00458ef379739e5e4fcd60f014849230afdeec2723a07e7c90910160405180910390a2505050611a4f612219565b505050565b611a5d3361223f565b611a7a57604051637362044160e01b815260040160405180910390fd5b600480546040805163b302f39360e01b815290516001600160a01b039092169263b302f39392828201926000929082900301818387803b15801561167657600080fd5b6000610a9182613136565b6000610a91826122b9565b6000611add612104565b611ae7838361286d565b9050610a91612219565b6001546001600160a01b03163314611b1c57604051636d5ab9d360e01b815260040160405180910390fd5b611b24612104565b611b2c613186565b611b34612219565b565b611b3e612104565b611b4b8484338585612aa4565b61168a612219565b600080611b5e612104565b670de0b6b3a7640000341015611b8757604051635ab0c99560e11b815260040160405180910390fd5b600354604080516318160ddd60e01b815290516000926001600160a01b0316916318160ddd9160048083019260209291908290030181865afa158015611bd1573d6000803e3d6000fd5b505050506040513d601f19601f82011682018060405250810190611bf591906141f6565b905080600003611c6657600854341015611c2257604051630dea97f560e41b815260040160405180910390fd5b6000611c2c613258565b80516020820151600754929350611c44929190612420565b341015611c6457604051630dea97f560e41b815260040160405180910390fd5b505b6000611c71346132f2565b905060008111611c945760405163083b70a960e01b815260040160405180910390fd5b6000808311611ca4576000611cb1565b611cb18284611944613399565b9050611cbd33826133c5565b611cc5613186565b6003546040516340c10f1960e01b8152336004820152602481018490526000916001600160a01b0316906340c10f19906044016020604051808303816000875af1158015611d17573d6000803e3d6000fd5b505050506040513d601f19601f82011682018060405250810190611d3b91906141f6565b604080513481526020810186905290810182905290915033907f94e36de6c4a79c706685c0b6373d9330bde74971b72f41b7bfdf2c79da2c76669060600160405180910390a29194509092505050611d91612219565b9091565b611d9d612104565b80600003611dbe57604051638b25b00760e01b815260040160405180910390fd5b33600090815260056020526040902054611dd782613416565b1315611df65760405163770876d360e11b815260040160405180910390fd5b600254604051636eb1769f60e11b815233600482015230602482015282916001600160a01b03169063dd62ed3e90604401602060405180830381865afa158015611e44573d6000803e3d6000fd5b505050506040513d601f19601f82011682018060405250810190611e6891906141f6565b1015611e875760405163f132b8f960e01b815260040160405180910390fd5b611e913382613062565b611e9b3382613480565b60405181815233907fbe49dd7715eca0763a1208aaaf1219ee7fb10485644b2484057bfc4a438326609060200160405180910390a2610a42612219565b6001546001600160a01b03163314611f0357604051636d5ab9d360e01b815260040160405180910390fd5b611f0b612104565b6004546001600160a01b0382811691161461132057600480546040516370a0823160e01b815230928101929092526000916001600160a01b03909116906370a0823190602401602060405180830381865afa158015611f6e573d6000803e3d6000fd5b505050506040513d601f19601f82011682018060405250810190611f9291906141f6565b6004805460ff60f01b198116600160f01b178255604051632e1a7d4d60e01b81529293506001600160a01b031691632e1a7d4d91611fd69185910190815260200190565b600060405180830381600087803b158015611ff057600080fd5b505af1158015612004573d6000803e3d6000fd5b50506004805460ff60f01b1916815560408051630d0e30db60e41b815290516001600160a01b038716945063d0e30db09350859282810192600092919082900301818588803b15801561205657600080fd5b505af115801561206a573d6000803e3d6000fd5b5050600480546001600160a01b0319166001600160a01b03878116918217835560015460005460405163053fe26160e31b81529083169481019490945260248401929092521693506329ff130892506044019050600060405180830381600087803b1580156120d857600080fd5b505af11580156120ec573d6000803e3d6000fd5b5050505050610a42612219565b6000610a91826134b5565b7f0cd2207518cd3e5213e2c6dbe63d55b60aa893c194a427b7d7f1600408fd5bde80546001190161214857604051633ee5aeb560e01b815260040160405180910390fd5b60029055565b8015611a4f5760405163b760faf960e01b81526001600160a01b03838116600483015284169063b760faf99083906024016000604051808303818588803b15801561219857600080fd5b505af11580156121ac573d6000803e3d6000fd5b5050505050505050565b6040516001600160a01b038316602482015260448101829052611a4f90849063a9059cbb60e01b906064015b60408051601f198184030181529190526020810180516001600160e01b03166001600160e01b031990931692909217909152613532565b60017f0cd2207518cd3e5213e2c6dbe63d55b60aa893c194a427b7d7f1600408fd5bde55565b6001546000805460405163d6b93a9f60e01b81526001600160a01b03918216600482015284821660248201529192169063d6b93a9f90604401602060405180830381865afa158015612295573d6000803e3d6000fd5b505050506040513d601f19601f82011682018060405250810190610a9191906144ba565b6001600160a01b038116600090815260056020526040812054818113612347576003546040516370a0823160e01b81526001600160a01b038581166004830152909116906370a0823190602401602060405180830381865afa158015612323573d6000803e3d6000fd5b505050506040513d601f19601f82011682018060405250810190610c3e91906141f6565b6000612352846134b5565b905061235c613399565b81111561236b5761236b6144d7565b60006123898361237a84613416565b61238491906144ed565b613607565b90508060000361239e57506000949350505050565b6123fd816123aa613399565b600360009054906101000a90046001600160a01b03166001600160a01b03166318160ddd6040518163ffffffff1660e01b8152600401602060405180830381865afa158015611920573d6000803e3d6000fd5b95945050505050565b6000818311612416576000610c3e565b610c3e82846142bd565b6000808211612442576040516323d359a360e01b815260040160405180910390fd5b8360000361245257506000610c3e565b8383028385828161246557612465614514565b04036124835782818161247a5761247a614514565b04915050610c3e565b506000612490838661452a565b9050600061249e848761453e565b905060006124ac858761452a565b905060006124ba868861453e565b9050856124c78285614552565b6124d1919061452a565b6124db8385614552565b6124e58387614552565b886124f08689614552565b6124fa9190614552565b61250491906142d0565b61250e91906142d0565b61251891906142d0565b98975050505050505050565b60008061252f613258565b9050600061253b613618565b905060006125476136ab565b905061255783826008548561371d565b156125a4576123fd818385600001516125709190614552565b6127108860085461258191906142bd565b87602001516125909190614552565b61259a9190614552565b610ba6919061452a565b6008546123fd9082908790612420565b600080516020614682833981519152546001600160a01b031690565b6001546001600160a01b03163314610a4257604051636d5ab9d360e01b815260040160405180910390fd5b7f4910fdfa16fed3260ed0e7147f7cc6da11a60208b5b9406d12a635614ffd91435460ff161561262e57611a4f83613753565b826001600160a01b03166352d1902d6040518163ffffffff1660e01b8152600401602060405180830381865afa925050508015612688575060408051601f3d908101601f19168201909252612685918101906141f6565b60015b6126eb5760405162461bcd60e51b815260206004820152602e60248201527f45524331393637557067726164653a206e657720696d706c656d656e7461746960448201526d6f6e206973206e6f74205555505360901b6064820152608401610d04565b600080516020614682833981519152811461275a5760405162461bcd60e51b815260206004820152602960248201527f45524331393637557067726164653a20756e737570706f727465642070726f786044820152681a58589b195555525160ba1b6064820152608401610d04565b50611a4f8383836137ef565b6000821161278757604051638ad31ccd60e01b815260040160405180910390fd5b600061279233613136565b9050808311156127b557604051630913cfff60e31b815260040160405180910390fd5b6127bf33846133c5565b6127c98284613814565b60405183815233907f978fa3ac63a72e6050ed3f73d10641e11ce35173622e3bc4c02bef262ce58a00906020015b60405180910390a2505050565b600063ffffffff8211156128695760405162461bcd60e51b815260206004820152602660248201527f53616665436173743a2076616c756520646f65736e27742066697420696e203360448201526532206269747360d01b6064820152608401610d04565b5090565b600080831161288f5760405163d9ebc7e560e01b815260040160405180910390fd5b6003546040516370a0823160e01b81523360048201526001600160a01b03909116906370a0823190602401602060405180830381865afa1580156128d7573d6000803e3d6000fd5b505050506040513d601f19601f820116820180604052508101906128fb91906141f6565b83111561291b57604051638cf2559760e01b815260040160405180910390fd5b61292483613848565b600061297d84600360009054906101000a90046001600160a01b03166001600160a01b03166318160ddd6040518163ffffffff1660e01b8152600401602060405180830381865afa158015610c05573d6000803e3d6000fd5b9050600081116129a057604051634e9d913960e01b815260040160405180910390fd5b6129a9816138f4565b6129b281613936565b6129cf576040516319bcc3f160e21b815260040160405180910390fd5b60006129da85612fc3565b905080156129ec576129ec3382613062565b6003546040516376fd4fdf60e01b815233600482015260248101879052600060448201526001600160a01b03909116906376fd4fdf90606401600060405180830381600087803b158015612a3f57600080fd5b505af1158015612a53573d6000803e3d6000fd5b50505050612a618483613966565b604080518681526020810184905233917f37d7eb0f99dccc66b2bf9cd0ae85d1e5c096cc027e5bf574e6df7e5a462661c8910160405180910390a2509392505050565b60008511612ac55760405163d9ebc7e560e01b815260040160405180910390fd5b6003546040516370a0823160e01b81523360048201526001600160a01b03909116906370a0823190602401602060405180830381865afa158015612b0d573d6000803e3d6000fd5b505050506040513d601f19601f82011682018060405250810190612b3191906141f6565b851115612b5157604051638cf2559760e01b815260040160405180910390fd5b612b5a85613848565b6000612bb386600360009054906101000a90046001600160a01b03166001600160a01b03166318160ddd6040518163ffffffff1660e01b8152600401602060405180830381865afa158015610c05573d6000803e3d6000fd5b905060008111612bd657604051634e9d913960e01b815260040160405180910390fd5b612bdf816138f4565b60015460008054604051631e8bee0160e01b81526001600160a01b03918216600482015291921690631e8bee0190602401602060405180830381865afa158015612c2d573d6000803e3d6000fd5b505050506040513d601f19601f82011682018060405250810190612c5191906141f6565b90506000612c5e83612524565b9050808211612c8057604051631d7154c160e01b815260040160405180910390fd5b6000612c8b89612fc3565b600254604051636eb1769f60e11b815233600482015230602482015291925083916001600160a01b039091169063dd62ed3e90604401602060405180830381865afa158015612cde573d6000803e3d6000fd5b505050506040513d601f19601f82011682018060405250810190612d0291906141f6565b1015612d215760405163f132b8f960e01b815260040160405180910390fd5b600254612d39906001600160a01b0316333085613a07565b60018215612ec957600160009054906101000a90046001600160a01b03166001600160a01b0316634942f65f6040518163ffffffff1660e01b8152600401602060405180830381865afa158015612d94573d6000803e3d6000fd5b505050506040513d601f19601f82011682018060405250810190612db891906141f6565b831080612dc25750885b15612e3c57600154600054604051630ed000b360e41b81526001600160a01b0391821660048201528a821660248201526044810186905291169063ed000b3090606401600060405180830381600087803b158015612e1f57600080fd5b505af1158015612e33573d6000803e3d6000fd5b50505050612ec9565b506001546001600160a01b0386811615911663997be0f482612e5e5734612e61565b60005b6000546040516001600160e01b031960e085901b168152612e96916001600160a01b0316908d9089908e908e906004016145b9565b6000604051808303818588803b158015612eaf57600080fd5b505af1158015612ec3573d6000803e3d6000fd5b50505050505b8115612ed957612ed93383613062565b6003546040516376fd4fdf60e01b8152336004820152602481018c9052600060448201526001600160a01b03909116906376fd4fdf90606401600060405180830381600087803b158015612f2c57600080fd5b505af1158015612f40573d6000803e3d6000fd5b50505050612f4e8886613966565b8015612f5e57612f5e8834613a3f565b604080518b81526020810187905290810184905233907f99dbaaeda09e94bf56b15a34cfa3e365ad448c713e353da71716912980431ae39060600160405180910390a250505050505050505050565b6000818310612fbc5781610c3e565b5090919050565b600081600003612fd557506000919050565b600354604080516318160ddd60e01b815290516000926001600160a01b0316916318160ddd9160048083019260209291908290030181865afa15801561301f573d6000803e3d6000fd5b505050506040513d601f19601f8201168201806040525081019061304391906141f6565b905080831115613055576130556144d7565b610c3e8382611944613399565b600061306d82613416565b6001600160a01b03841660009081526005602052604081208054929350839290919061309a9084906144ed565b9250508190555080600660008282546130b391906144ed565b90915550506001600160a01b0383166000818152600560209081526040918290205491519182527f401cde8821e5ecc004ba2668055ad85125097beeab812601b785ec90eb6a47a791016127f7565b801561104257806008600082825461311a91906142bd565b9091555050600454611042906001600160a01b031683836121b6565b60008061314a613145846134b5565b613416565b6001600160a01b03841660009081526005602052604081205491925061317082846144ed565b90506123fd61317e82613607565b600754612fad565b3415611b3457346008600082825461319e91906142d0565b90915550506004805460408051630d0e30db60e41b815290516001600160a01b039092169263d0e30db0923492808301926000929182900301818588803b1580156131e857600080fd5b505af11580156131fc573d6000803e3d6000fd5b50506001546000546004805460405163053fe26160e31b81526001600160a01b039384169281019290925282166024820152911693506329ff130892506044019050600060405180830381600087803b15801561167657600080fd5b604080518082019091526000808252602082015260015460408051628c4abb60e21b8152815160009384936001600160a01b03909116926302312aec92600480830193928290030181865afa1580156132b5573d6000803e3d6000fd5b505050506040513d601f19601f820116820180604052508101906132d99190614606565b6040805180820190915291825260208201529392505050565b600080600360009054906101000a90046001600160a01b03166001600160a01b03166318160ddd6040518163ffffffff1660e01b8152600401602060405180830381865afa158015613348573d6000803e3d6000fd5b505050506040513d601f19601f8201168201806040525081019061336c91906141f6565b90506008546000148061337d575080155b15613389575090919050565b600854610c3e9082908590612420565b6000806006546133aa600754613416565b6133b4919061462a565b90506133bf81613ac7565b91505090565b60006133d082613416565b6001600160a01b0384166000908152600560205260408120805492935083929091906133fd90849061462a565b9250508190555080600660008282546130b3919061462a565b60006001600160ff1b038211156128695760405162461bcd60e51b815260206004820152602860248201527f53616665436173743a2076616c756520646f65736e27742066697420696e2061604482015267371034b73a191a9b60c11b6064820152608401610d04565b801561104257806007600082825461349891906142d0565b9091555050600254611042906001600160a01b0316833084613a07565b6003546040516370a0823160e01b81526001600160a01b03838116600483015260009283929116906370a0823190602401602060405180830381865afa158015613503573d6000803e3d6000fd5b505050506040513d601f19601f8201168201806040525081019061352791906141f6565b9050610c3e81612fc3565b6000613587826040518060400160405280602081526020017f5361666545524332303a206c6f772d6c6576656c2063616c6c206661696c6564815250856001600160a01b0316613b199092919063ffffffff16565b90508051600014806135a85750808060200190518101906135a891906144ba565b611a4f5760405162461bcd60e51b815260206004820152602a60248201527f5361666545524332303a204552433230206f7065726174696f6e20646964206e6044820152691bdd081cdd58d8d9595960b21b6064820152608401610d04565b600080821215612869576000610a91565b6001546000805460405163cd71593560e01b81526001600160a01b0391821660048201529192839291169063cd71593590602401602060405180830381865afa158015613669573d6000803e3d6000fd5b505050506040513d601f19601f8201168201806040525081019061368d91906141f6565b6004549091506133bf908290600160a01b900463ffffffff16613b28565b6001546000805460405163769bb15560e11b81526001600160a01b0391821660048201529192169063ed3762aa90602401602060405180830381865afa1580156136f9573d6000803e3d6000fd5b505050506040513d601f19601f8201168201806040525081019061130991906141f6565b6000613739828660000151866137339190614552565b90613b37565b60208601516137489085614552565b101595945050505050565b6001600160a01b0381163b6137c05760405162461bcd60e51b815260206004820152602d60248201527f455243313936373a206e657720696d706c656d656e746174696f6e206973206e60448201526c1bdd08184818dbdb9d1c9858dd609a1b6064820152608401610d04565b60008051602061468283398151915280546001600160a01b0319166001600160a01b0392909216919091179055565b6137f883613b46565b6000825111806138055750805b15611a4f5761168a8383613b86565b801561104257806007600082825461382c91906142bd565b9091555050600254611042906001600160a01b031683836121b6565b600354604080516318160ddd60e01b815290516000926001600160a01b0316916318160ddd9160048083019260209291908290030181865afa158015613892573d6000803e3d6000fd5b505050506040513d601f19601f820116820180604052508101906138b691906141f6565b9050818114806138d75750670de0b6b3a76400006138d483836142bd565b10155b61104257604051633b9c256f60e01b815260040160405180910390fd5b8060085414806139195750670de0b6b3a76400008160085461391691906142bd565b10155b610a425760405163d4f24daf60e01b815260040160405180910390fd5b6000610a91613943613258565b61394b6136ab565b8460085461395991906142bd565b613961613618565b61371d565b801561104257806008600082825461397e91906142bd565b909155505060048054600160f01b60ff60f01b198216178255604051632e1a7d4d60e01b81529182018390526001600160a01b031690632e1a7d4d90602401600060405180830381600087803b1580156139d757600080fd5b505af11580156139eb573d6000803e3d6000fd5b50506004805460ff60f01b191690555061104290508282613a3f565b6040516001600160a01b038085166024830152831660448201526064810182905261168a9085906323b872dd60e01b906084016121e2565b613a47613bab565b8015611042576000826001600160a01b031682620186a090604051600060405180830381858888f193505050503d8060008114613aa0576040519150601f19603f3d011682016040523d82523d6000602084013e613aa5565b606091505b5050905080611a4f576040516312171d8360e31b815260040160405180910390fd5b6000808212156128695760405162461bcd60e51b815260206004820181905260248201527f53616665436173743a2076616c7565206d75737420626520706f7369746976656044820152606401610d04565b60606112f78484600085613bed565b6000818311612fbc5781610c3e565b6000610c3e8383612710612420565b613b4f81613753565b6040516001600160a01b038216907fbc7cd75a20ee27fd9adebab32041f755214dbc6bffa90cc0225b39da2e5c2d3b90600090a250565b6060610c3e83836040518060600160405280602781526020016146a260279139613cc8565b7f0cd2207518cd3e5213e2c6dbe63d55b60aa893c194a427b7d7f1600408fd5bde54600214611b3457604051635bff566960e01b815260040160405180910390fd5b606082471015613c4e5760405162461bcd60e51b815260206004820152602660248201527f416464726573733a20696e73756666696369656e742062616c616e636520666f6044820152651c8818d85b1b60d21b6064820152608401610d04565b600080866001600160a01b03168587604051613c6a9190614652565b60006040518083038185875af1925050503d8060008114613ca7576040519150601f19603f3d011682016040523d82523d6000602084013e613cac565b606091505b5091509150613cbd87838387613d40565b979650505050505050565b6060600080856001600160a01b031685604051613ce59190614652565b600060405180830381855af49150503d8060008114613d20576040519150601f19603f3d011682016040523d82523d6000602084013e613d25565b606091505b5091509150613d3686838387613d40565b9695505050505050565b60608315613daf578251600003613da8576001600160a01b0385163b613da85760405162461bcd60e51b815260206004820152601d60248201527f416464726573733a2063616c6c20746f206e6f6e2d636f6e74726163740000006044820152606401610d04565b50816112f7565b6112f78383815115613dc45781518083602001fd5b8060405162461bcd60e51b8152600401610d04919061466e565b6001600160a01b0381168114610a4257600080fd5b600060208284031215613e0557600080fd5b8135610c3e81613dde565b600060208284031215613e2257600080fd5b81356001600160e01b031981168114610c3e57600080fd5b60008060408385031215613e4d57600080fd5b8235613e5881613dde565b946020939093013593505050565b600060208284031215613e7857600080fd5b5035919050565b634e487b7160e01b600052604160045260246000fd5b60008067ffffffffffffffff841115613eb057613eb0613e7f565b50604051601f19601f85018116603f0116810181811067ffffffffffffffff82111715613edf57613edf613e7f565b604052838152905080828401851015613ef757600080fd5b83836020830137600060208583010152509392505050565b60008060408385031215613f2257600080fd5b8235613f2d81613dde565b9150602083013567ffffffffffffffff811115613f4957600080fd5b8301601f81018513613f5a57600080fd5b613f6985823560208401613e95565b9150509250929050565b803562ffffff8116811461148e57600080fd5b60008060008060608587031215613f9c57600080fd5b8435613fa781613dde565b9350613fb560208601613f73565b9250604085013567ffffffffffffffff811115613fd157600080fd5b8501601f81018713613fe257600080fd5b803567ffffffffffffffff811115613ff957600080fd5b8760208260051b840101111561400e57600080fd5b949793965060200194505050565b8015158114610a4257600080fd5b600082601f83011261403b57600080fd5b610c3e83833560208501613e95565b600080600080600060a0868803121561406257600080fd5b8535945060208601356140748161401c565b9350604086013561408481613dde565b9250606086013567ffffffffffffffff8111156140a057600080fd5b6140ac8882890161402a565b92505060808601356140bd81613dde565b809150509295509295909350565b600080604083850312156140de57600080fd5b8235915060208301356140f081613dde565b809150509250929050565b6000806000806080858703121561411157600080fd5b843561411c81613dde565b9350602085013561412c81613dde565b9250604085013561413c81613dde565b9150606085013563ffffffff8116811461415557600080fd5b939692955090935050565b60008060006060848603121561417557600080fd5b833561418081613dde565b95602085013595506040909401359392505050565b600080600080608085870312156141ab57600080fd5b8435935060208501356141bd8161401c565b9250604085013567ffffffffffffffff8111156141d957600080fd5b6141e58782880161402a565b925050606085013561415581613dde565b60006020828403121561420857600080fd5b5051919050565b6020808252602c908201527f46756e6374696f6e206d7573742062652063616c6c6564207468726f7567682060408201526b19195b1959d85d1958d85b1b60a21b606082015260800190565b6020808252602c908201527f46756e6374696f6e206d7573742062652063616c6c6564207468726f7567682060408201526b6163746976652070726f787960a01b606082015260800190565b634e487b7160e01b600052601160045260246000fd5b81810381811115610a9157610a916142a7565b80820180821115610a9157610a916142a7565b62ffffff6142f082613f73565b16825260208101356bffffffffffffffffffffffff19811680821461431457600080fd5b60208401525060408101356effffffffffffffffffffffffffffff811680821461433d57600080fd5b60408401525060608101356005811061435557600080fd5b6005811061437357634e487b7160e01b600052602160045260246000fd5b806060840152505050565b6001600160a01b0387811682528616602082015262ffffff85166040820152831515606082015260a0608082018190528101829052600060c0600584901b830181019083018583609e1936839003015b8782101561448c5786850360bf1901845282358181126143ed57600080fd5b8901803536829003601e1901811261440457600080fd5b810160208101903567ffffffffffffffff81111561442157600080fd5b8060051b80360383131561443457600080fd5b60a0808a5289018290526001600160fb1b0382111561445257600080fd5b808360c08b013761446960208a01602086016142e3565b60c0818a01019850505050506020830192506020840193506001820191506143ce565b50929b9a5050505050505050505050565b6000602082840312156144af57600080fd5b8151610c3e81613dde565b6000602082840312156144cc57600080fd5b8151610c3e8161401c565b634e487b7160e01b600052600160045260246000fd5b818103600083128015838313168383128216171561450d5761450d6142a7565b5092915050565b634e487b7160e01b600052601260045260246000fd5b60008261453957614539614514565b500490565b60008261454d5761454d614514565b500690565b8082028115828204841417610a9157610a916142a7565b60005b8381101561458457818101518382015260200161456c565b50506000910152565b600081518084526145a5816020860160208601614569565b601f01601f19169290920160200192915050565b6001600160a01b038681168252851660208201526040810184905260a0606082018190526000906145ec9083018561458d565b905060018060a01b03831660808301529695505050505050565b6000806040838503121561461957600080fd5b505080516020909101519092909150565b808201828112600083128015821682158216171561464a5761464a6142a7565b505092915050565b60008251614664818460208701614569565b9190910192915050565b602081526000610c3e602083018461458d56fe360894a13ba1a3210667c828492db98dca3e2076cc3735a920a3ca505d382bbc416464726573733a206c6f772d6c6576656c2064656c65676174652063616c6c206661696c6564a26469706673582212201f26ba40f8672d937001643b81387b0e122796f5ddc8a2d56d0ff9444865eccd64736f6c634300081b0033",
  "linkReferences": {},
  "deployedLinkReferences": {}
}