{
  "_format": "hh-sol-artifact-1",
  "contractName": "CollateralPool",
  "sourceName": "contracts/collateralPool/implementation/CollateralPool.sol",
  "abi": [
    {
      "inputs": [
        {
          "internalType": "address",
          "name": "_agentVault",
          "type": "address"
        },
        {
          "internalType": "address",
          "name": "_assetManager",
          "type": "address"
        },
        {
          "internalType": "address",
          "name": "_fAsset",
          "type": "address"
        },
        {
          "internalType": "uint32",
          "name": "_exitCollateralRatioBIPS",
          "type": "uint32"
        }
      ],
      "stateMutability": "nonpayable",
      "type": "constructor"
    },
    {
      "inputs": [],
      "name": "AlreadyInitialized",
      "type": "error"
    },
    {
      "inputs": [],
      "name": "AmountOfCollateralTooLow",
      "type": "error"
    },
    {
      "inputs": [],
      "name": "AmountOfNatTooLow",
      "type": "error"
    },
    {
      "inputs": [],
      "name": "CannotDestroyPoolWithIssuedTokens",
      "type": "error"
    },
    {
      "inputs": [],
      "name": "CollateralAfterExitTooLow",
      "type": "error"
    },
    {
      "inputs": [],
      "name": "CollateralRatioFallsBelowExitCR",
      "type": "error"
    },
    {
      "inputs": [],
      "name": "DepositResultsInZeroTokens",
      "type": "error"
    },
    {
      "inputs": [],
      "name": "DivisionByZero",
      "type": "error"
    },
    {
      "inputs": [],
      "name": "EmergencyPauseActive",
      "type": "error"
    },
    {
      "inputs": [],
      "name": "FAssetAllowanceTooSmall",
      "type": "error"
    },
    {
      "inputs": [],
      "name": "FreeFAssetBalanceTooSmall",
      "type": "error"
    },
    {
      "inputs": [],
      "name": "InvalidRecipientAddress",
      "type": "error"
    },
    {
      "inputs": [],
      "name": "OnlyAgent",
      "type": "error"
    },
    {
      "inputs": [],
      "name": "OnlyAssetManager",
      "type": "error"
    },
    {
      "inputs": [],
      "name": "OnlyInternalUse",
      "type": "error"
    },
    {
      "inputs": [],
      "name": "PaymentLargerThanFeeDebt",
      "type": "error"
    },
    {
      "inputs": [],
      "name": "PoolTokenAlreadySet",
      "type": "error"
    },
    {
      "inputs": [],
      "name": "RedemptionRequiresClosingTooManyTickets",
      "type": "error"
    },
    {
      "inputs": [],
      "name": "ReentrancyGuardReentrantCall",
      "type": "error"
    },
    {
      "inputs": [],
      "name": "ReentrancyGuardRequired",
      "type": "error"
    },
    {
      "inputs": [],
      "name": "SentAmountTooLow",
      "type": "error"
    },
    {
      "inputs": [],
      "name": "TokenBalanceTooLow",
      "type": "error"
    },
    {
      "inputs": [],
      "name": "TokenShareIsZero",
      "type": "error"
    },
    {
      "inputs": [],
      "name": "TokenSupplyAfterExitTooLow",
      "type": "error"
    },
    {
      "inputs": [],
      "name": "TransferFailed",
      "type": "error"
    },
    {
      "inputs": [],
      "name": "WithdrawZeroFAsset",
      "type": "error"
    },
    {
      "inputs": [],
      "name": "ZeroFAssetDebtPayment",
      "type": "error"
    },
    {
      "anonymous": false,
      "inputs": [
        {
          "indexed": false,
          "internalType": "address",
          "name": "previousAdmin",
          "type": "address"
        },
        {
          "indexed": false,
          "internalType": "address",
          "name": "newAdmin",
          "type": "address"
        }
      ],
      "name": "AdminChanged",
      "type": "event"
    },
    {
      "anonymous": false,
      "inputs": [
        {
          "indexed": true,
          "internalType": "address",
          "name": "beacon",
          "type": "address"
        }
      ],
      "name": "BeaconUpgraded",
      "type": "event"
    },
    {
      "anonymous": false,
      "inputs": [
        {
          "indexed": false,
          "internalType": "uint256",
          "name": "amountNatWei",
          "type": "uint256"
        },
        {
          "indexed": false,
          "internalType": "uint8",
          "name": "rewardType",
          "type": "uint8"
        }
      ],
      "name": "CPClaimedReward",
      "type": "event"
    },
    {
      "anonymous": false,
      "inputs": [
        {
          "indexed": true,
          "internalType": "address",
          "name": "tokenHolder",
          "type": "address"
        },
        {
          "indexed": false,
          "internalType": "uint256",
          "name": "amountNatWei",
          "type": "uint256"
        },
        {
          "indexed": false,
          "internalType": "uint256",
          "name": "receivedTokensWei",
          "type": "uint256"
        },
        {
          "indexed": false,
          "internalType": "uint256",
          "name": "timelockExpiresAt",
          "type": "uint256"
        }
      ],
      "name": "CPEntered",
      "type": "event"
    },
    {
      "anonymous": false,
      "inputs": [
        {
          "indexed": true,
          "internalType": "address",
          "name": "tokenHolder",
          "type": "address"
        },
        {
          "indexed": false,
          "internalType": "uint256",
          "name": "burnedTokensWei",
          "type": "uint256"
        },
        {
          "indexed": false,
          "internalType": "uint256",
          "name": "receivedNatWei",
          "type": "uint256"
        }
      ],
      "name": "CPExited",
      "type": "event"
    },
    {
      "anonymous": false,
      "inputs": [
        {
          "indexed": true,
          "internalType": "address",
          "name": "tokenHolder",
          "type": "address"
        },
        {
          "indexed": false,
          "internalType": "int256",
          "name": "newFeeDebtUBA",
          "type": "int256"
        }
      ],
      "name": "CPFeeDebtChanged",
      "type": "event"
    },
    {
      "anonymous": false,
      "inputs": [
        {
          "indexed": true,
          "internalType": "address",
          "name": "tokenHolder",
          "type": "address"
        },
        {
          "indexed": false,
          "internalType": "uint256",
          "name": "paidFeesUBA",
          "type": "uint256"
        }
      ],
      "name": "CPFeeDebtPaid",
      "type": "event"
    },
    {
      "anonymous": false,
      "inputs": [
        {
          "indexed": true,
          "internalType": "address",
          "name": "tokenHolder",
          "type": "address"
        },
        {
          "indexed": false,
          "internalType": "uint256",
          "name": "withdrawnFeesUBA",
          "type": "uint256"
        }
      ],
      "name": "CPFeesWithdrawn",
      "type": "event"
    },
    {
      "anonymous": false,
      "inputs": [
        {
          "indexed": true,
          "internalType": "address",
          "name": "recipient",
          "type": "address"
        },
        {
          "indexed": false,
          "internalType": "uint256",
          "name": "paidNatWei",
          "type": "uint256"
        },
        {
          "indexed": false,
          "internalType": "uint256",
          "name": "burnedTokensWei",
          "type": "uint256"
        }
      ],
      "name": "CPPaidOut",
      "type": "event"
    },
    {
      "anonymous": false,
      "inputs": [
        {
          "indexed": true,
          "internalType": "address",
          "name": "tokenHolder",
          "type": "address"
        },
        {
          "indexed": false,
          "internalType": "uint256",
          "name": "burnedTokensWei",
          "type": "uint256"
        },
        {
          "indexed": false,
          "internalType": "uint256",
          "name": "receivedNatWei",
          "type": "uint256"
        },
        {
          "indexed": false,
          "internalType": "uint256",
          "name": "closedFAssetsUBA",
          "type": "uint256"
        }
      ],
      "name": "CPSelfCloseExited",
      "type": "event"
    },
    {
      "anonymous": false,
      "inputs": [
        {
          "indexed": true,
          "internalType": "address",
          "name": "implementation",
          "type": "address"
        }
      ],
      "name": "Upgraded",
      "type": "event"
    },
    {
      "inputs": [],
      "name": "MIN_NAT_BALANCE_AFTER_EXIT",
      "outputs": [
        {
          "internalType": "uint256",
          "name": "",
          "type": "uint256"
        }
      ],
      "stateMutability": "view",
      "type": "function"
    },
    {
      "inputs": [],
      "name": "MIN_NAT_TO_ENTER",
      "outputs": [
        {
          "internalType": "uint256",
          "name": "",
          "type": "uint256"
        }
      ],
      "stateMutability": "view",
      "type": "function"
    },
    {
      "inputs": [],
      "name": "MIN_TOKEN_SUPPLY_AFTER_EXIT",
      "outputs": [
        {
          "internalType": "uint256",
          "name": "",
          "type": "uint256"
        }
      ],
      "stateMutability": "view",
      "type": "function"
    },
    {
      "inputs": [],
      "name": "agentVault",
      "outputs": [
        {
          "internalType": "address",
          "name": "",
          "type": "address"
        }
      ],
      "stateMutability": "view",
      "type": "function"
    },
    {
      "inputs": [],
      "name": "assetManager",
      "outputs": [
        {
          "internalType": "contract IIAssetManager",
          "name": "",
          "type": "address"
        }
      ],
      "stateMutability": "view",
      "type": "function"
    },
    {
      "inputs": [
        {
          "internalType": "contract IDistributionToDelegators",
          "name": "_distribution",
          "type": "address"
        },
        {
          "internalType": "uint256",
          "name": "_month",
          "type": "uint256"
        }
      ],
      "name": "claimAirdropDistribution",
      "outputs": [
        {
          "internalType": "uint256",
          "name": "",
          "type": "uint256"
        }
      ],
      "stateMutability": "nonpayable",
      "type": "function"
    },
    {
      "inputs": [
        {
          "internalType": "contract IRewardManager",
          "name": "_rewardManager",
          "type": "address"
        },
        {
          "internalType": "uint24",
          "name": "_lastRewardEpoch",
          "type": "uint24"
        },
        {
          "components": [
            {
              "internalType": "bytes32[]",
              "name": "merkleProof",
              "type": "bytes32[]"
            },
            {
              "components": [
                {
                  "internalType": "uint24",
                  "name": "rewardEpochId",
                  "type": "uint24"
                },
                {
                  "internalType": "bytes20",
                  "name": "beneficiary",
                  "type": "bytes20"
                },
                {
                  "internalType": "uint120",
                  "name": "amount",
                  "type": "uint120"
                },
                {
                  "internalType": "enum RewardsV2Interface.ClaimType",
                  "name": "claimType",
                  "type": "uint8"
                }
              ],
              "internalType": "struct RewardsV2Interface.RewardClaim",
              "name": "body",
              "type": "tuple"
            }
          ],
          "internalType": "struct RewardsV2Interface.RewardClaimWithProof[]",
          "name": "_proofs",
          "type": "tuple[]"
        }
      ],
      "name": "claimDelegationRewards",
      "outputs": [
        {
          "internalType": "uint256",
          "name": "",
          "type": "uint256"
        }
      ],
      "stateMutability": "nonpayable",
      "type": "function"
    },
    {
      "inputs": [
        {
          "internalType": "address",
          "name": "_account",
          "type": "address"
        }
      ],
      "name": "debtFreeTokensOf",
      "outputs": [
        {
          "internalType": "uint256",
          "name": "",
          "type": "uint256"
        }
      ],
      "stateMutability": "view",
      "type": "function"
    },
    {
      "inputs": [
        {
          "internalType": "address",
          "name": "_account",
          "type": "address"
        }
      ],
      "name": "debtLockedTokensOf",
      "outputs": [
        {
          "internalType": "uint256",
          "name": "",
          "type": "uint256"
        }
      ],
      "stateMutability": "view",
      "type": "function"
    },
    {
      "inputs": [
        {
          "internalType": "address",
          "name": "_to",
          "type": "address"
        },
        {
          "internalType": "uint256",
          "name": "_bips",
          "type": "uint256"
        }
      ],
      "name": "delegate",
      "outputs": [],
      "stateMutability": "nonpayable",
      "type": "function"
    },
    {
      "inputs": [
        {
          "internalType": "address",
          "name": "_to",
          "type": "address"
        }
      ],
      "name": "delegateGovernance",
      "outputs": [],
      "stateMutability": "nonpayable",
      "type": "function"
    },
    {
      "inputs": [],
      "name": "depositNat",
      "outputs": [],
      "stateMutability": "payable",
      "type": "function"
    },
    {
      "inputs": [
        {
          "internalType": "address payable",
          "name": "_recipient",
          "type": "address"
        }
      ],
      "name": "destroy",
      "outputs": [],
      "stateMutability": "nonpayable",
      "type": "function"
    },
    {
      "inputs": [],
      "name": "enter",
      "outputs": [
        {
          "internalType": "uint256",
          "name": "",
          "type": "uint256"
        },
        {
          "internalType": "uint256",
          "name": "",
          "type": "uint256"
        }
      ],
      "stateMutability": "payable",
      "type": "function"
    },
    {
      "inputs": [
        {
          "internalType": "uint256",
          "name": "_tokenShare",
          "type": "uint256"
        }
      ],
      "name": "exit",
      "outputs": [
        {
          "internalType": "uint256",
          "name": "",
          "type": "uint256"
        }
      ],
      "stateMutability": "nonpayable",
      "type": "function"
    },
    {
      "inputs": [],
      "name": "exitCollateralRatioBIPS",
      "outputs": [
        {
          "internalType": "uint32",
          "name": "",
          "type": "uint32"
        }
      ],
      "stateMutability": "view",
      "type": "function"
    },
    {
      "inputs": [
        {
          "internalType": "uint256",
          "name": "_tokenShare",
          "type": "uint256"
        },
        {
          "internalType": "address payable",
          "name": "_recipient",
          "type": "address"
        }
      ],
      "name": "exitTo",
      "outputs": [
        {
          "internalType": "uint256",
          "name": "",
          "type": "uint256"
        }
      ],
      "stateMutability": "nonpayable",
      "type": "function"
    },
    {
      "inputs": [],
      "name": "fAsset",
      "outputs": [
        {
          "internalType": "contract IFAsset",
          "name": "",
          "type": "address"
        }
      ],
      "stateMutability": "view",
      "type": "function"
    },
    {
      "inputs": [
        {
          "internalType": "address",
          "name": "_account",
          "type": "address"
        }
      ],
      "name": "fAssetFeeDebtOf",
      "outputs": [
        {
          "internalType": "int256",
          "name": "",
          "type": "int256"
        }
      ],
      "stateMutability": "view",
      "type": "function"
    },
    {
      "inputs": [
        {
          "internalType": "uint256",
          "name": "_amount",
          "type": "uint256"
        }
      ],
      "name": "fAssetFeeDeposited",
      "outputs": [],
      "stateMutability": "nonpayable",
      "type": "function"
    },
    {
      "inputs": [
        {
          "internalType": "address",
          "name": "_account",
          "type": "address"
        }
      ],
      "name": "fAssetFeesOf",
      "outputs": [
        {
          "internalType": "uint256",
          "name": "",
          "type": "uint256"
        }
      ],
      "stateMutability": "view",
      "type": "function"
    },
    {
      "inputs": [
        {
          "internalType": "uint256",
          "name": "_tokenAmountWei",
          "type": "uint256"
        }
      ],
      "name": "fAssetRequiredForSelfCloseExit",
      "outputs": [
        {
          "internalType": "uint256",
          "name": "",
          "type": "uint256"
        }
      ],
      "stateMutability": "view",
      "type": "function"
    },
    {
      "inputs": [],
      "name": "implementation",
      "outputs": [
        {
          "internalType": "address",
          "name": "",
          "type": "address"
        }
      ],
      "stateMutability": "view",
      "type": "function"
    },
    {
      "inputs": [
        {
          "internalType": "address",
          "name": "_agentVault",
          "type": "address"
        },
        {
          "internalType": "address",
          "name": "_assetManager",
          "type": "address"
        },
        {
          "internalType": "address",
          "name": "_fAsset",
          "type": "address"
        },
        {
          "internalType": "uint32",
          "name": "_exitCollateralRatioBIPS",
          "type": "uint32"
        }
      ],
      "name": "initialize",
      "outputs": [],
      "stateMutability": "nonpayable",
      "type": "function"
    },
    {
      "inputs": [
        {
          "internalType": "contract IDistributionToDelegators",
          "name": "_distribution",
          "type": "address"
        }
      ],
      "name": "optOutOfAirdrop",
      "outputs": [],
      "stateMutability": "nonpayable",
      "type": "function"
    },
    {
      "inputs": [
        {
          "internalType": "uint256",
          "name": "_fAssets",
          "type": "uint256"
        }
      ],
      "name": "payFAssetFeeDebt",
      "outputs": [],
      "stateMutability": "nonpayable",
      "type": "function"
    },
    {
      "inputs": [
        {
          "internalType": "address",
          "name": "_recipient",
          "type": "address"
        },
        {
          "internalType": "uint256",
          "name": "_amount",
          "type": "uint256"
        },
        {
          "internalType": "uint256",
          "name": "_agentResponsibilityWei",
          "type": "uint256"
        }
      ],
      "name": "payout",
      "outputs": [],
      "stateMutability": "nonpayable",
      "type": "function"
    },
    {
      "inputs": [],
      "name": "poolToken",
      "outputs": [
        {
          "internalType": "contract ICollateralPoolToken",
          "name": "",
          "type": "address"
        }
      ],
      "stateMutability": "view",
      "type": "function"
    },
    {
      "inputs": [],
      "name": "proxiableUUID",
      "outputs": [
        {
          "internalType": "bytes32",
          "name": "",
          "type": "bytes32"
        }
      ],
      "stateMutability": "view",
      "type": "function"
    },
    {
      "inputs": [
        {
          "internalType": "uint256",
          "name": "_tokenShare",
          "type": "uint256"
        },
        {
          "internalType": "bool",
          "name": "_redeemToCollateral",
          "type": "bool"
        },
        {
          "internalType": "string",
          "name": "_redeemerUnderlyingAddress",
          "type": "string"
        },
        {
          "internalType": "address payable",
          "name": "_executor",
          "type": "address"
        }
      ],
      "name": "selfCloseExit",
      "outputs": [],
      "stateMutability": "payable",
      "type": "function"
    },
    {
      "inputs": [
        {
          "internalType": "uint256",
          "name": "_tokenShare",
          "type": "uint256"
        },
        {
          "internalType": "bool",
          "name": "_redeemToCollateral",
          "type": "bool"
        },
        {
          "internalType": "address payable",
          "name": "_recipient",
          "type": "address"
        },
        {
          "internalType": "string",
          "name": "_redeemerUnderlyingAddress",
          "type": "string"
        },
        {
          "internalType": "address payable",
          "name": "_executor",
          "type": "address"
        }
      ],
      "name": "selfCloseExitTo",
      "outputs": [],
      "stateMutability": "payable",
      "type": "function"
    },
    {
      "inputs": [
        {
          "internalType": "uint256",
          "name": "_exitCollateralRatioBIPS",
          "type": "uint256"
        }
      ],
      "name": "setExitCollateralRatioBIPS",
      "outputs": [],
      "stateMutability": "nonpayable",
      "type": "function"
    },
    {
      "inputs": [
        {
          "internalType": "address",
          "name": "_poolToken",
          "type": "address"
        }
      ],
      "name": "setPoolToken",
      "outputs": [],
      "stateMutability": "nonpayable",
      "type": "function"
    },
    {
      "inputs": [
        {
          "internalType": "bytes4",
          "name": "_interfaceId",
          "type": "bytes4"
        }
      ],
      "name": "supportsInterface",
      "outputs": [
        {
          "internalType": "bool",
          "name": "",
          "type": "bool"
        }
      ],
      "stateMutability": "pure",
      "type": "function"
    },
    {
      "inputs": [],
      "name": "token",
      "outputs": [
        {
          "internalType": "contract IICollateralPoolToken",
          "name": "",
          "type": "address"
        }
      ],
      "stateMutability": "view",
      "type": "function"
    },
    {
      "inputs": [],
      "name": "totalCollateral",
      "outputs": [
        {
          "internalType": "uint256",
          "name": "",
          "type": "uint256"
        }
      ],
      "stateMutability": "view",
      "type": "function"
    },
    {
      "inputs": [],
      "name": "totalFAssetFeeDebt",
      "outputs": [
        {
          "internalType": "int256",
          "name": "",
          "type": "int256"
        }
      ],
      "stateMutability": "view",
      "type": "function"
    },
    {
      "inputs": [],
      "name": "totalFAssetFees",
      "outputs": [
        {
          "internalType": "uint256",
          "name": "",
          "type": "uint256"
        }
      ],
      "stateMutability": "view",
      "type": "function"
    },
    {
      "inputs": [],
      "name": "undelegateAll",
      "outputs": [],
      "stateMutability": "nonpayable",
      "type": "function"
    },
    {
      "inputs": [],
      "name": "undelegateGovernance",
      "outputs": [],
      "stateMutability": "nonpayable",
      "type": "function"
    },
    {
      "inputs": [
        {
          "internalType": "address",
          "name": "newImplementation",
          "type": "address"
        }
      ],
      "name": "upgradeTo",
      "outputs": [],
      "stateMutability": "nonpayable",
      "type": "function"
    },
    {
      "inputs": [
        {
          "internalType": "address",
          "name": "newImplementation",
          "type": "address"
        },
        {
          "internalType": "bytes",
          "name": "data",
          "type": "bytes"
        }
      ],
      "name": "upgradeToAndCall",
      "outputs": [],
      "stateMutability": "payable",
      "type": "function"
    },
    {
      "inputs": [
        {
          "internalType": "contract IWNat",
          "name": "_newWNat",
          "type": "address"
        }
      ],
      "name": "upgradeWNatContract",
      "outputs": [],
      "stateMutability": "nonpayable",
      "type": "function"
    },
    {
      "inputs": [
        {
          "internalType": "address",
          "name": "_account",
          "type": "address"
        }
      ],
      "name": "virtualFAssetOf",
      "outputs": [
        {
          "internalType": "uint256",
          "name": "",
          "type": "uint256"
        }
      ],
      "stateMutability": "view",
      "type": "function"
    },
    {
      "inputs": [],
      "name": "wNat",
      "outputs": [
        {
          "internalType": "contract IWNat",
          "name": "",
          "type": "address"
        }
      ],
      "stateMutability": "view",
      "type": "function"
    },
    {
      "inputs": [
        {
          "internalType": "uint256",
          "name": "_fAssets",
          "type": "uint256"
        }
      ],
      "name": "withdrawFees",
      "outputs": [],
      "stateMutability": "nonpayable",
      "type": "function"
    },
    {
      "inputs": [
        {
          "internalType": "uint256",
          "name": "_fAssets",
          "type": "uint256"
        },
        {
          "internalType": "address",
          "name": "_recipient",
          "type": "address"
        }
      ],
      "name": "withdrawFeesTo",
      "outputs": [],
      "stateMutability": "nonpayable",
      "type": "function"
    },
    {
      "stateMutability": "payable",
      "type": "receive"
    }
  ],
  "bytecode": "0x60a06040523060805234801561001457600080fd5b50604051614b4b380380614b4b833981016040819052610033916101c9565b61003f84848484610048565b50505050610255565b600454600160f81b900460ff16156100725760405162dc149f60e41b815260040160405180910390fd5b600480546001600160f81b0316600160f81b179055600080546001600160a01b038087166001600160a01b03199283161790925560018054868416908316811790915560028054938616939092169290921790556100d1576000610148565b600160009054906101000a90046001600160a01b03166001600160a01b031663b5a488a66040518163ffffffff1660e01b8152600401602060405180830381865afa158015610124573d6000803e3d6000fd5b505050506040513d601f19601f820116820180604052508101906101489190610231565b600480546001600160a01b03929092166001600160c01b031990921691909117600160a01b63ffffffff841602179055610180610186565b50505050565b6101af60017f0cd2207518cd3e5213e2c6dbe63d55b60aa893c194a427b7d7f1600408fd5bde55565b565b6001600160a01b03811681146101c657600080fd5b50565b600080600080608085870312156101df57600080fd5b84516101ea816101b1565b60208601519094506101fb816101b1565b604086015190935061020c816101b1565b606086015190925063ffffffff8116811461022657600080fd5b939692955090935050565b60006020828403121561024357600080fd5b815161024e816101b1565b9392505050565b6080516148bf61028c60003960008181610c6a01528181610cb301528181610f9401528181610fd4015261105001526148bf6000f3fe60806040526004361061028b5760003560e01c8063868c3ba71161015a578063c79d245d116100c1578063e4df73f01161007a578063e4df73f014610789578063e97dcb621461079c578063ee781db0146107b9578063f4d000b2146107d9578063fc0c546a146107f9578063fd86d3ea1461081957600080fd5b8063c79d245d146106d7578063cb209413146106f7578063cbabdf391461072d578063cbdf382c14610743578063ce83b10c14610761578063d1b8890e1461078157600080fd5b80639edbf007116101135780639edbf00714610642578063a854a6a214610662578063adf58c1514610682578063b302f393146106a2578063b9e2648314610336578063c1b0bbf8146106b757600080fd5b8063868c3ba71461059757806386ac57a2146105b757806387a2a0dc146105d75780638e819e54146105ec578063923f89321461060c57806394217ad11461062257600080fd5b80634ac8eb5f116101fe578063787b9ca8116101b7578063787b9ca8146104e45780637a68a508146105045780637c7db1a5146105245780637f8661a11461054457806380f13ee914610564578063815ea9d61461057757600080fd5b80634ac8eb5f146104395780634f1ef2861461044f57806352d1902d1461046257806359c3d549146104775780635c60da1b146104975780635e318e07146104c457600080fd5b806315e2bfba1161025057806315e2bfba146103605780631b92d84a1461038057806333ce01fd146103a05780633659cfe6146103c05780633cfc747d146103e0578063406c70071461041957600080fd5b8062f55d9d146102c157806301ffc9a7146102e1578063026e402b146103165780630ac07344146103365780630dc1e5e11461033657600080fd5b366102bc57600454600160f01b900460ff166102ba57604051634c5eb24160e01b815260040160405180910390fd5b005b600080fd5b3480156102cd57600080fd5b506102ba6102dc366004613f7d565b610839565b3480156102ed57600080fd5b506103016102fc366004613f9a565b610a22565b60405190151581526020015b60405180910390f35b34801561032257600080fd5b506102ba610331366004613fc4565b610a74565b34801561034257600080fd5b50610352670de0b6b3a764000081565b60405190815260200161030d565b34801561036c57600080fd5b5061035261037b366004613f7d565b610af0565b34801561038c57600080fd5b5061035261039b366004613ff0565b610b72565b3480156103ac57600080fd5b506102ba6103bb366004613f7d565b610c0c565b3480156103cc57600080fd5b506102ba6103db366004613f7d565b610c60565b3480156103ec57600080fd5b5060045461040490600160a01b900463ffffffff1681565b60405163ffffffff909116815260200161030d565b34801561042557600080fd5b50610352610434366004613fc4565b610d2e565b34801561044557600080fd5b5061035260085481565b6102ba61045d366004614099565b610f8a565b34801561046e57600080fd5b50610352611043565b34801561048357600080fd5b50610352610492366004614110565b6110f6565b3480156104a357600080fd5b506104ac611355565b6040516001600160a01b03909116815260200161030d565b3480156104d057600080fd5b506102ba6104df366004613ff0565b611364565b3480156104f057600080fd5b506102ba6104ff366004613ff0565b611386565b34801561051057600080fd5b506102ba61051f366004613f7d565b6113ba565b34801561053057600080fd5b506002546104ac906001600160a01b031681565b34801561055057600080fd5b5061035261055f366004613ff0565b611495565b6102ba6105723660046141d4565b6114c0565b34801561058357600080fd5b506000546104ac906001600160a01b031681565b3480156105a357600080fd5b506102ba6105b2366004614255565b61153d565b3480156105c357600080fd5b506102ba6105d2366004613f7d565b61155f565b3480156105e357600080fd5b506102ba6115d2565b3480156105f857600080fd5b506102ba610607366004614285565b6116a1565b34801561061857600080fd5b5061035260065481565b34801561062e57600080fd5b506001546104ac906001600160a01b031681565b34801561064e57600080fd5b506004546104ac906001600160a01b031681565b34801561066e57600080fd5b506102ba61067d366004613ff0565b6117d9565b34801561068e57600080fd5b506102ba61069d3660046142ea565b6117fb565b3480156106ae57600080fd5b506102ba611a1e565b3480156106c357600080fd5b506103526106d2366004613f7d565b611a71565b3480156106e357600080fd5b506103526106f2366004613f7d565b611a7c565b34801561070357600080fd5b50610352610712366004613f7d565b6001600160a01b031660009081526005602052604090205490565b34801561073957600080fd5b5061035260075481565b34801561074f57600080fd5b506003546001600160a01b03166104ac565b34801561076d57600080fd5b5061035261077c366004614255565b611a87565b6102ba611aad565b6102ba61079736600461431f565b611acf565b6107a4611af4565b6040805192835260208301919091520161030d565b3480156107c557600080fd5b506102ba6107d4366004613ff0565b611d45565b3480156107e557600080fd5b506102ba6107f4366004613f7d565b611e90565b34801561080557600080fd5b506003546104ac906001600160a01b031681565b34801561082557600080fd5b50610352610834366004613f7d565b61208e565b610841612099565b6108496120c4565b600360009054906101000a90046001600160a01b03166001600160a01b03166318160ddd6040518163ffffffff1660e01b8152600401602060405180830381865afa15801561089c573d6000803e3d6000fd5b505050506040513d601f19601f820116820180604052508101906108c09190614380565b156108de57604051633645363160e11b815260040160405180910390fd5b6004546108f5906001600160a01b0316824761210e565b600480546040516370a0823160e01b815230928101929092526000916001600160a01b03909116906370a0823190602401602060405180830381865afa158015610943573d6000803e3d6000fd5b505050506040513d601f19601f820116820180604052508101906109679190614380565b6002546040516370a0823160e01b81523060048201529192506000916001600160a01b03909116906370a0823190602401602060405180830381865afa1580156109b5573d6000803e3d6000fd5b505050506040513d601f19601f820116820180604052508101906109d99190614380565b905081156109f8576004546109f8906001600160a01b03168484612176565b8015610a1557600254610a15906001600160a01b03168483612176565b5050610a1f6121d9565b50565b60006001600160e01b031982166301ffc9a760e01b1480610a5357506001600160e01b03198216630286f88760e51b145b80610a6e57506001600160e01b03198216635986397960e11b145b92915050565b610a7c6121ff565b610a846122a6565b6004805460405163026e402b60e01b81526001600160a01b03858116938201939093526024810184905291169063026e402b90604401600060405180830381600087803b158015610ad457600080fd5b505af1158015610ae8573d6000803e3d6000fd5b505050505050565b6003546040516370a0823160e01b81526001600160a01b038381166004830152600092610a6e929116906370a0823190602401602060405180830381865afa158015610b40573d6000803e3d6000fd5b505050506040513d601f19601f82011682018060405250810190610b649190614380565b610b6d84612339565b6124aa565b600080610bfa83600360009054906101000a90046001600160a01b03166001600160a01b03166318160ddd6040518163ffffffff1660e01b8152600401602060405180830381865afa158015610bcc573d6000803e3d6000fd5b505050506040513d601f19601f82011682018060405250810190610bf09190614380565b60085491906124c4565b9050610c05816125c8565b9392505050565b610c14612099565b6003546001600160a01b031615610c3e5760405163983d334d60e01b815260040160405180910390fd5b600380546001600160a01b0319166001600160a01b0392909216919091179055565b6001600160a01b037f0000000000000000000000000000000000000000000000000000000000000000163003610cb15760405162461bcd60e51b8152600401610ca890614399565b60405180910390fd5b7f00000000000000000000000000000000000000000000000000000000000000006001600160a01b0316610ce36126ee565b6001600160a01b031614610d095760405162461bcd60e51b8152600401610ca8906143e5565b610d128161270a565b60408051600080825260208201909252610a1f91839190612712565b6000610d386121ff565b610d406122a6565b610d486120c4565b600480546040516370a0823160e01b815230928101929092526000916001600160a01b03909116906370a0823190602401602060405180830381865afa158015610d96573d6000803e3d6000fd5b505050506040513d601f19601f82011682018060405250810190610dba9190614380565b60405163596090c960e11b81523060048201819052602482015260448101859052600160648201529091506001600160a01b0385169063b2c12192906084016020604051808303816000875af1158015610e18573d6000803e3d6000fd5b505050506040513d601f19601f82011682018060405250810190610e3c9190614380565b50600480546040516370a0823160e01b815230928101929092526000916001600160a01b03909116906370a0823190602401602060405180830381865afa158015610e8b573d6000803e3d6000fd5b505050506040513d601f19601f82011682018060405250810190610eaf9190614380565b90506000610ebd8383614447565b90508060086000828254610ed1919061445a565b90915550506001546000546004805460405163053fe26160e31b81526001600160a01b0393841692810192909252821660248201529116906329ff130890604401600060405180830381600087803b158015610f2c57600080fd5b505af1158015610f40573d6000803e3d6000fd5b505060408051848152600060208201527f955e716bbd4b5c26281476b84511cb2b515eca1ea095b1e18dd09afbeade5e60935001905060405180910390a192505050610a6e6121d9565b6001600160a01b037f0000000000000000000000000000000000000000000000000000000000000000163003610fd25760405162461bcd60e51b8152600401610ca890614399565b7f00000000000000000000000000000000000000000000000000000000000000006001600160a01b03166110046126ee565b6001600160a01b03161461102a5760405162461bcd60e51b8152600401610ca8906143e5565b6110338261270a565b61103f82826001612712565b5050565b6000306001600160a01b037f000000000000000000000000000000000000000000000000000000000000000016146110e35760405162461bcd60e51b815260206004820152603860248201527f555550535570677261646561626c653a206d757374206e6f742062652063616c60448201527f6c6564207468726f7567682064656c656761746563616c6c00000000000000006064820152608401610ca8565b5060008051602061484383398151915290565b60006111006121ff565b6111086122a6565b6111106120c4565b600480546040516370a0823160e01b815230928101929092526000916001600160a01b03909116906370a0823190602401602060405180830381865afa15801561115e573d6000803e3d6000fd5b505050506040513d601f19601f820116820180604052508101906111829190614380565b604051638e33aba560e01b81529091506001600160a01b03871690638e33aba5906111bc90309081908a906001908b908b9060040161451e565b6020604051808303816000875af11580156111db573d6000803e3d6000fd5b505050506040513d601f19601f820116820180604052508101906111ff9190614380565b50600480546040516370a0823160e01b815230928101929092526000916001600160a01b03909116906370a0823190602401602060405180830381865afa15801561124e573d6000803e3d6000fd5b505050506040513d601f19601f820116820180604052508101906112729190614380565b905060006112808383614447565b90508060086000828254611294919061445a565b90915550506001546000546004805460405163053fe26160e31b81526001600160a01b0393841692810192909252821660248201529116906329ff130890604401600060405180830381600087803b1580156112ef57600080fd5b505af1158015611303573d6000803e3d6000fd5b505060408051848152600160208201527f955e716bbd4b5c26281476b84511cb2b515eca1ea095b1e18dd09afbeade5e60935001905060405180910390a19250505061134d6121d9565b949350505050565b600061135f6126ee565b905090565b61136c6121ff565b6113746120c4565b61137e813361287d565b610a1f6121d9565b61138e612099565b6113978161291b565b600460146101000a81548163ffffffff021916908363ffffffff16021790555050565b6113c26121ff565b6113ca6122a6565b6004805460408051638c2b8ae160e01b815290516001600160a01b0390921692638c2b8ae19282820192602092908290030181865afa158015611411573d6000803e3d6000fd5b505050506040513d601f19601f82011682018060405250810190611435919061463d565b6040516317066a5760e21b81526001600160a01b0383811660048301529190911690635c19a95c90602401600060405180830381600087803b15801561147a57600080fd5b505af115801561148e573d6000803e3d6000fd5b5050505050565b600061149f6121ff565b6114a76120c4565b6114b18233612984565b90506114bb6121d9565b919050565b6114c86121ff565b6114d06120c4565b6001600160a01b038316158015906114f157506001600160a01b0383163014155b801561150b57506000546001600160a01b03848116911614155b6115285760405163226ccff560e11b815260040160405180910390fd5b6115358585858585612bb5565b61148e6121d9565b6115456121ff565b61154d6120c4565b611557828261287d565b61103f6121d9565b6115676121ff565b61156f6122a6565b6115776120c4565b806001600160a01b031663f2a1f7676040518163ffffffff1660e01b8152600401600060405180830381600087803b1580156115b257600080fd5b505af11580156115c6573d6000803e3d6000fd5b50505050610a1f6121d9565b6115da6121ff565b6115e26122a6565b6004805460408051638c2b8ae160e01b815290516001600160a01b0390921692638c2b8ae19282820192602092908290030181865afa158015611629573d6000803e3d6000fd5b505050506040513d601f19601f8201168201806040525081019061164d919061463d565b6001600160a01b03166392ab89bb6040518163ffffffff1660e01b8152600401600060405180830381600087803b15801561168757600080fd5b505af115801561169b573d6000803e3d6000fd5b50505050565b600454600160f81b900460ff16156116cb5760405162dc149f60e41b815260040160405180910390fd5b600480546001600160f81b0316600160f81b179055600080546001600160a01b038087166001600160a01b031992831617909255600180548684169083168117909155600280549386169390921692909217905561172a5760006117a1565b600160009054906101000a90046001600160a01b03166001600160a01b031663b5a488a66040518163ffffffff1660e01b8152600401602060405180830381865afa15801561177d573d6000803e3d6000fd5b505050506040513d601f19601f820116820180604052508101906117a1919061463d565b600480546001600160a01b03929092166001600160c01b031990921691909117600160a01b63ffffffff84160217905561169b611ac5565b6117e1612099565b80600760008282546117f3919061445a565b909155505050565b611803612099565b61180b6120c4565b600354600080546040516370a0823160e01b81526001600160a01b039182166004820152919216906370a0823190602401602060405180830381865afa158015611859573d6000803e3d6000fd5b505050506040513d601f19601f8201168201806040525081019061187d9190614380565b9050600080600854116118905781611915565b61191583600854600360009054906101000a90046001600160a01b03166001600160a01b03166318160ddd6040518163ffffffff1660e01b8152600401602060405180830381865afa1580156118ea573d6000803e3d6000fd5b505050506040513d601f19601f8201168201806040525081019061190e9190614380565b91906130b9565b9050600061192382846130f6565b905080156119c05760006119368261310c565b60005490915061194f906001600160a01b0316826131ab565b6003546000546040516376fd4fdf60e01b81526001600160a01b03918216600482015260248101859052600160448201529116906376fd4fdf90606401600060405180830381600087803b1580156119a657600080fd5b505af11580156119ba573d6000803e3d6000fd5b50505050505b6119ca8686613257565b60408051868152602081018390526001600160a01b038816917ff08720419d127c00458ef379739e5e4fcd60f014849230afdeec2723a07e7c90910160405180910390a2505050611a196121d9565b505050565b611a266121ff565b611a2e6122a6565b600480546040805163b302f39360e01b815290516001600160a01b039092169263b302f39392828201926000929082900301818387803b15801561168757600080fd5b6000610a6e8261328b565b6000610a6e82612339565b6000611a916121ff565b611a996120c4565b611aa38383612984565b9050610a6e6121d9565b611ab5612099565b611abd6120c4565b611ac56132db565b611acd6121d9565b565b611ad76121ff565b611adf6120c4565b611aec8484338585612bb5565b61169b6121d9565b600080611aff6121ff565b611b076120c4565b670de0b6b3a7640000341015611b3057604051635ab0c99560e11b815260040160405180910390fd5b600354604080516318160ddd60e01b815290516000926001600160a01b0316916318160ddd9160048083019260209291908290030181865afa158015611b7a573d6000803e3d6000fd5b505050506040513d601f19601f82011682018060405250810190611b9e9190614380565b905080600003611c0f57600854341015611bcb57604051630dea97f560e41b815260040160405180910390fd5b6000611bd56133ad565b80516020820151600754929350611bed9291906124c4565b341015611c0d57604051630dea97f560e41b815260040160405180910390fd5b505b6000611c1a34613447565b905060008111611c3d5760405163083b70a960e01b815260040160405180910390fd5b6000808311611c4d576000611c61565b611c618284611c5a6134ee565b91906124c4565b9050611c6d338261351a565b611c756132db565b6003546040516340c10f1960e01b8152336004820152602481018490526000916001600160a01b0316906340c10f19906044016020604051808303816000875af1158015611cc7573d6000803e3d6000fd5b505050506040513d601f19601f82011682018060405250810190611ceb9190614380565b604080513481526020810186905290810182905290915033907f94e36de6c4a79c706685c0b6373d9330bde74971b72f41b7bfdf2c79da2c76669060600160405180910390a29194509092505050611d416121d9565b9091565b611d4d6121ff565b611d556120c4565b80600003611d7657604051638b25b00760e01b815260040160405180910390fd5b33600090815260056020526040902054611d8f82613577565b1315611dae5760405163770876d360e11b815260040160405180910390fd5b600254604051636eb1769f60e11b815233600482015230602482015282916001600160a01b03169063dd62ed3e90604401602060405180830381865afa158015611dfc573d6000803e3d6000fd5b505050506040513d601f19601f82011682018060405250810190611e209190614380565b1015611e3f5760405163f132b8f960e01b815260040160405180910390fd5b611e4933826131ab565b611e5333826135e1565b60405181815233907fbe49dd7715eca0763a1208aaaf1219ee7fb10485644b2484057bfc4a438326609060200160405180910390a2610a1f6121d9565b611e98612099565b611ea06120c4565b6004546001600160a01b0382811691161461137e57600480546040516370a0823160e01b815230928101929092526000916001600160a01b03909116906370a0823190602401602060405180830381865afa158015611f03573d6000803e3d6000fd5b505050506040513d601f19601f82011682018060405250810190611f279190614380565b6004805460ff60f01b198116600160f01b178255604051632e1a7d4d60e01b81529293506001600160a01b031691632e1a7d4d91611f6b9185910190815260200190565b600060405180830381600087803b158015611f8557600080fd5b505af1158015611f99573d6000803e3d6000fd5b50506004805460ff60f01b1916815560408051630d0e30db60e41b815290516001600160a01b038716945063d0e30db09350859282810192600092919082900301818588803b158015611feb57600080fd5b505af1158015611fff573d6000803e3d6000fd5b5050600480546001600160a01b0319166001600160a01b03878116918217835560015460005460405163053fe26160e31b81529083169481019490945260248401929092521693506329ff130892506044019050600060405180830381600087803b15801561206d57600080fd5b505af1158015612081573d6000803e3d6000fd5b5050505050610a1f6121d9565b6000610a6e82613616565b6001546001600160a01b03163314611acd57604051636d5ab9d360e01b815260040160405180910390fd5b7f0cd2207518cd3e5213e2c6dbe63d55b60aa893c194a427b7d7f1600408fd5bde80546001190161210857604051633ee5aeb560e01b815260040160405180910390fd5b60029055565b8015611a195760405163b760faf960e01b81526001600160a01b03838116600483015284169063b760faf99083906024016000604051808303818588803b15801561215857600080fd5b505af115801561216c573d6000803e3d6000fd5b5050505050505050565b6040516001600160a01b038316602482015260448101829052611a1990849063a9059cbb60e01b906064015b60408051601f198184030181529190526020810180516001600160e01b03166001600160e01b031990931692909217909152613693565b60017f0cd2207518cd3e5213e2c6dbe63d55b60aa893c194a427b7d7f1600408fd5bde55565b60018060009054906101000a90046001600160a01b03166001600160a01b031663c7cc5bb66040518163ffffffff1660e01b8152600401602060405180830381865afa158015612253573d6000803e3d6000fd5b505050506040513d601f19601f82011682018060405250810190612277919061465a565b60038111156122885761228861446d565b10611acd5760405163909b191760e01b815260040160405180910390fd5b60015460005460405163d6b93a9f60e01b81526001600160a01b03918216600482015233602482015291169063d6b93a9f90604401602060405180830381865afa1580156122f8573d6000803e3d6000fd5b505050506040513d601f19601f8201168201806040525081019061231c919061467b565b611acd57604051637362044160e01b815260040160405180910390fd5b6001600160a01b0381166000908152600560205260408120548181136123c7576003546040516370a0823160e01b81526001600160a01b038581166004830152909116906370a0823190602401602060405180830381865afa1580156123a3573d6000803e3d6000fd5b505050506040513d601f19601f82011682018060405250810190610c059190614380565b60006123d284613616565b90506123dc6134ee565b8111156123eb576123eb614698565b6000612409836123fa84613577565b61240491906146ae565b613768565b90508060000361241e57506000949350505050565b6124a18161242a6134ee565b600360009054906101000a90046001600160a01b03166001600160a01b03166318160ddd6040518163ffffffff1660e01b8152600401602060405180830381865afa15801561247d573d6000803e3d6000fd5b505050506040513d601f19601f82011682018060405250810190611c5a9190614380565b95945050505050565b60008183116124ba576000610c05565b610c058284614447565b60008082116124e6576040516323d359a360e01b815260040160405180910390fd5b836000036124f657506000610c05565b83830283858281612509576125096146d5565b04036125275782818161251e5761251e6146d5565b04915050610c05565b50600061253483866146eb565b9050600061254284876146ff565b9050600061255085876146eb565b9050600061255e86886146ff565b90508561256b8285614713565b61257591906146eb565b61257f8385614713565b6125898387614713565b886125948689614713565b61259e9190614713565b6125a8919061445a565b6125b2919061445a565b6125bc919061445a565b98975050505050505050565b6000806125d36133ad565b905060006125df613779565b905060006125eb61380c565b905060006125fd84836008548661387e565b156126515761264a828486600001516126169190614713565b612710896008546126279190614447565b88602001516126369190614713565b6126409190614713565b610b6d91906146eb565b9050612664565b60085461266190839088906130b9565b90505b6126e481600160009054906101000a90046001600160a01b03166001600160a01b031663531090f36040518163ffffffff1660e01b8152600401602060405180830381865afa1580156126bb573d6000803e3d6000fd5b505050506040513d601f19601f820116820180604052508101906126df9190614380565b6138b4565b9695505050505050565b600080516020614843833981519152546001600160a01b031690565b610a1f612099565b7f4910fdfa16fed3260ed0e7147f7cc6da11a60208b5b9406d12a635614ffd91435460ff161561274557611a19836138eb565b826001600160a01b03166352d1902d6040518163ffffffff1660e01b8152600401602060405180830381865afa92505050801561279f575060408051601f3d908101601f1916820190925261279c91810190614380565b60015b6128025760405162461bcd60e51b815260206004820152602e60248201527f45524331393637557067726164653a206e657720696d706c656d656e7461746960448201526d6f6e206973206e6f74205555505360901b6064820152608401610ca8565b60008051602061484383398151915281146128715760405162461bcd60e51b815260206004820152602960248201527f45524331393637557067726164653a20756e737570706f727465642070726f786044820152681a58589b195555525160ba1b6064820152608401610ca8565b50611a19838383613987565b6000821161289e57604051638ad31ccd60e01b815260040160405180910390fd5b60006128a93361328b565b9050808311156128cc57604051630913cfff60e31b815260040160405180910390fd5b6128d6338461351a565b6128e082846139ac565b60405183815233907f978fa3ac63a72e6050ed3f73d10641e11ce35173622e3bc4c02bef262ce58a00906020015b60405180910390a2505050565b600063ffffffff8211156129805760405162461bcd60e51b815260206004820152602660248201527f53616665436173743a2076616c756520646f65736e27742066697420696e203360448201526532206269747360d01b6064820152608401610ca8565b5090565b60008083116129a65760405163d9ebc7e560e01b815260040160405180910390fd5b6003546040516370a0823160e01b81523360048201526001600160a01b03909116906370a0823190602401602060405180830381865afa1580156129ee573d6000803e3d6000fd5b505050506040513d601f19601f82011682018060405250810190612a129190614380565b831115612a3257604051638cf2559760e01b815260040160405180910390fd5b612a3b836139e0565b6000612a9484600360009054906101000a90046001600160a01b03166001600160a01b03166318160ddd6040518163ffffffff1660e01b8152600401602060405180830381865afa158015610bcc573d6000803e3d6000fd5b905060008111612ab757604051634e9d913960e01b815260040160405180910390fd5b612ac081613a8c565b612ac981613ace565b612ae6576040516319bcc3f160e21b815260040160405180910390fd5b6000612af18561310c565b9050612afd33826131ab565b6003546040516376fd4fdf60e01b815233600482015260248101879052600060448201526001600160a01b03909116906376fd4fdf90606401600060405180830381600087803b158015612b5057600080fd5b505af1158015612b64573d6000803e3d6000fd5b50505050612b728483613afe565b604080518681526020810184905233917f37d7eb0f99dccc66b2bf9cd0ae85d1e5c096cc027e5bf574e6df7e5a462661c8910160405180910390a2509392505050565b60008511612bd65760405163d9ebc7e560e01b815260040160405180910390fd5b6003546040516370a0823160e01b81523360048201526001600160a01b03909116906370a0823190602401602060405180830381865afa158015612c1e573d6000803e3d6000fd5b505050506040513d601f19601f82011682018060405250810190612c429190614380565b851115612c6257604051638cf2559760e01b815260040160405180910390fd5b612c6b856139e0565b6000612cc486600360009054906101000a90046001600160a01b03166001600160a01b03166318160ddd6040518163ffffffff1660e01b8152600401602060405180830381865afa158015610bcc573d6000803e3d6000fd5b905060008111612ce757604051634e9d913960e01b815260040160405180910390fd5b612cf081613a8c565b60015460008054604051631e8bee0160e01b81526001600160a01b03918216600482015291921690631e8bee0190602401602060405180830381865afa158015612d3e573d6000803e3d6000fd5b505050506040513d601f19601f82011682018060405250810190612d629190614380565b90506000612d6f836125c8565b905080821015612d9257604051631d7154c160e01b815260040160405180910390fd5b6000612d9d8961310c565b600254604051636eb1769f60e11b815233600482015230602482015291925083916001600160a01b039091169063dd62ed3e90604401602060405180830381865afa158015612df0573d6000803e3d6000fd5b505050506040513d601f19601f82011682018060405250810190612e149190614380565b1015612e335760405163f132b8f960e01b815260040160405180910390fd5b600254612e4b906001600160a01b0316333085613b9f565b60018215612fdb57600160009054906101000a90046001600160a01b03166001600160a01b0316634942f65f6040518163ffffffff1660e01b8152600401602060405180830381865afa158015612ea6573d6000803e3d6000fd5b505050506040513d601f19601f82011682018060405250810190612eca9190614380565b831080612ed45750885b15612f4e57600154600054604051630ed000b360e41b81526001600160a01b0391821660048201528a821660248201526044810186905291169063ed000b3090606401600060405180830381600087803b158015612f3157600080fd5b505af1158015612f45573d6000803e3d6000fd5b50505050612fdb565b506001546001600160a01b0386811615911663997be0f482612f705734612f73565b60005b6000546040516001600160e01b031960e085901b168152612fa8916001600160a01b0316908d9089908e908e9060040161477a565b6000604051808303818588803b158015612fc157600080fd5b505af1158015612fd5573d6000803e3d6000fd5b50505050505b612fe533836131ab565b6003546040516376fd4fdf60e01b8152336004820152602481018c9052600060448201526001600160a01b03909116906376fd4fdf90606401600060405180830381600087803b15801561303857600080fd5b505af115801561304c573d6000803e3d6000fd5b5050505061305a8886613afe565b801561306a5761306a8834613bd7565b604080518b81526020810187905290810184905233907f99dbaaeda09e94bf56b15a34cfa3e365ad448c713e353da71716912980431ae39060600160405180910390a250505050505050505050565b6000806130c78585856124c4565b9050600083806130d9576130d96146d5565b858709905080156130ed57816001016126e4565b50949350505050565b60008183106131055781610c05565b5090919050565b60008160000361311e57506000919050565b600354604080516318160ddd60e01b815290516000926001600160a01b0316916318160ddd9160048083019260209291908290030181865afa158015613168573d6000803e3d6000fd5b505050506040513d601f19601f8201168201806040525081019061318c9190614380565b90508083111561319e5761319e614698565b610c058382611c5a6134ee565b806000036131b7575050565b60006131c282613577565b6001600160a01b0384166000908152600560205260408120805492935083929091906131ef9084906146ae565b92505081905550806006600082825461320891906146ae565b90915550506001600160a01b0383166000818152600560209081526040918290205491519182527f401cde8821e5ecc004ba2668055ad85125097beeab812601b785ec90eb6a47a7910161290e565b801561103f57806008600082825461326f9190614447565b909155505060045461103f906001600160a01b03168383612176565b60008061329f61329a84613616565b613577565b6001600160a01b0384166000908152600560205260408120549192506132c582846146ae565b90506124a16132d382613768565b6007546130f6565b3415611acd5734600860008282546132f3919061445a565b90915550506004805460408051630d0e30db60e41b815290516001600160a01b039092169263d0e30db0923492808301926000929182900301818588803b15801561333d57600080fd5b505af1158015613351573d6000803e3d6000fd5b50506001546000546004805460405163053fe26160e31b81526001600160a01b039384169281019290925282166024820152911693506329ff130892506044019050600060405180830381600087803b15801561168757600080fd5b604080518082019091526000808252602082015260015460408051628c4abb60e21b8152815160009384936001600160a01b03909116926302312aec92600480830193928290030181865afa15801561340a573d6000803e3d6000fd5b505050506040513d601f19601f8201168201806040525081019061342e91906147c7565b6040805180820190915291825260208201529392505050565b600080600360009054906101000a90046001600160a01b03166001600160a01b03166318160ddd6040518163ffffffff1660e01b8152600401602060405180830381865afa15801561349d573d6000803e3d6000fd5b505050506040513d601f19601f820116820180604052508101906134c19190614380565b9050600854600014806134d2575080155b156134de575090919050565b600854610c0590829085906124c4565b6000806006546134ff600754613577565b61350991906147eb565b905061351481613c5f565b91505090565b80600003613526575050565b600061353182613577565b6001600160a01b03841660009081526005602052604081208054929350839290919061355e9084906147eb565b92505081905550806006600082825461320891906147eb565b60006001600160ff1b038211156129805760405162461bcd60e51b815260206004820152602860248201527f53616665436173743a2076616c756520646f65736e27742066697420696e2061604482015267371034b73a191a9b60c11b6064820152608401610ca8565b801561103f5780600760008282546135f9919061445a565b909155505060025461103f906001600160a01b0316833084613b9f565b6003546040516370a0823160e01b81526001600160a01b03838116600483015260009283929116906370a0823190602401602060405180830381865afa158015613664573d6000803e3d6000fd5b505050506040513d601f19601f820116820180604052508101906136889190614380565b9050610c058161310c565b60006136e8826040518060400160405280602081526020017f5361666545524332303a206c6f772d6c6576656c2063616c6c206661696c6564815250856001600160a01b0316613cb19092919063ffffffff16565b9050805160001480613709575080806020019051810190613709919061467b565b611a195760405162461bcd60e51b815260206004820152602a60248201527f5361666545524332303a204552433230206f7065726174696f6e20646964206e6044820152691bdd081cdd58d8d9595960b21b6064820152608401610ca8565b600080821215612980576000610a6e565b6001546000805460405163cd71593560e01b81526001600160a01b0391821660048201529192839291169063cd71593590602401602060405180830381865afa1580156137ca573d6000803e3d6000fd5b505050506040513d601f19601f820116820180604052508101906137ee9190614380565b600454909150613514908290600160a01b900463ffffffff16613cc0565b6001546000805460405163769bb15560e11b81526001600160a01b0391821660048201529192169063ed3762aa90602401602060405180830381865afa15801561385a573d6000803e3d6000fd5b505050506040513d601f19601f8201168201806040525081019061135f9190614380565b600061389a828660000151866138949190614713565b90613ccf565b60208601516138a99085614713565b101595945050505050565b6000806138c183856146ff565b905080156138e357826138d48286614447565b6138de919061445a565b61134d565b509192915050565b6001600160a01b0381163b6139585760405162461bcd60e51b815260206004820152602d60248201527f455243313936373a206e657720696d706c656d656e746174696f6e206973206e60448201526c1bdd08184818dbdb9d1c9858dd609a1b6064820152608401610ca8565b60008051602061484383398151915280546001600160a01b0319166001600160a01b0392909216919091179055565b61399083613cde565b60008251118061399d5750805b15611a195761169b8383613d1e565b801561103f5780600760008282546139c49190614447565b909155505060025461103f906001600160a01b03168383612176565b600354604080516318160ddd60e01b815290516000926001600160a01b0316916318160ddd9160048083019260209291908290030181865afa158015613a2a573d6000803e3d6000fd5b505050506040513d601f19601f82011682018060405250810190613a4e9190614380565b905081811480613a6f5750670de0b6b3a7640000613a6c8383614447565b10155b61103f57604051633b9c256f60e01b815260040160405180910390fd5b806008541480613ab15750670de0b6b3a764000081600854613aae9190614447565b10155b610a1f5760405163d4f24daf60e01b815260040160405180910390fd5b6000610a6e613adb6133ad565b613ae361380c565b84600854613af19190614447565b613af9613779565b61387e565b801561103f578060086000828254613b169190614447565b909155505060048054600160f01b60ff60f01b198216178255604051632e1a7d4d60e01b81529182018390526001600160a01b031690632e1a7d4d90602401600060405180830381600087803b158015613b6f57600080fd5b505af1158015613b83573d6000803e3d6000fd5b50506004805460ff60f01b191690555061103f90508282613bd7565b6040516001600160a01b038085166024830152831660448201526064810182905261169b9085906323b872dd60e01b906084016121a2565b613bdf613d43565b801561103f576000826001600160a01b031682620186a090604051600060405180830381858888f193505050503d8060008114613c38576040519150601f19603f3d011682016040523d82523d6000602084013e613c3d565b606091505b5050905080611a19576040516312171d8360e31b815260040160405180910390fd5b6000808212156129805760405162461bcd60e51b815260206004820181905260248201527f53616665436173743a2076616c7565206d75737420626520706f7369746976656044820152606401610ca8565b606061134d8484600085613d85565b60008183116131055781610c05565b6000610c0583836127106124c4565b613ce7816138eb565b6040516001600160a01b038216907fbc7cd75a20ee27fd9adebab32041f755214dbc6bffa90cc0225b39da2e5c2d3b90600090a250565b6060610c05838360405180606001604052806027815260200161486360279139613e60565b7f0cd2207518cd3e5213e2c6dbe63d55b60aa893c194a427b7d7f1600408fd5bde54600214611acd57604051635bff566960e01b815260040160405180910390fd5b606082471015613de65760405162461bcd60e51b815260206004820152602660248201527f416464726573733a20696e73756666696369656e742062616c616e636520666f6044820152651c8818d85b1b60d21b6064820152608401610ca8565b600080866001600160a01b03168587604051613e029190614813565b60006040518083038185875af1925050503d8060008114613e3f576040519150601f19603f3d011682016040523d82523d6000602084013e613e44565b606091505b5091509150613e5587838387613eca565b979650505050505050565b6060600080856001600160a01b031685604051613e7d9190614813565b600060405180830381855af49150503d8060008114613eb8576040519150601f19603f3d011682016040523d82523d6000602084013e613ebd565b606091505b50915091506126e4868383875b60608315613f39578251600003613f32576001600160a01b0385163b613f325760405162461bcd60e51b815260206004820152601d60248201527f416464726573733a2063616c6c20746f206e6f6e2d636f6e74726163740000006044820152606401610ca8565b508161134d565b61134d8383815115613f4e5781518083602001fd5b8060405162461bcd60e51b8152600401610ca8919061482f565b6001600160a01b0381168114610a1f57600080fd5b600060208284031215613f8f57600080fd5b8135610c0581613f68565b600060208284031215613fac57600080fd5b81356001600160e01b031981168114610c0557600080fd5b60008060408385031215613fd757600080fd5b8235613fe281613f68565b946020939093013593505050565b60006020828403121561400257600080fd5b5035919050565b634e487b7160e01b600052604160045260246000fd5b60008067ffffffffffffffff84111561403a5761403a614009565b50604051601f19601f85018116603f0116810181811067ffffffffffffffff8211171561406957614069614009565b60405283815290508082840185101561408157600080fd5b83836020830137600060208583010152509392505050565b600080604083850312156140ac57600080fd5b82356140b781613f68565b9150602083013567ffffffffffffffff8111156140d357600080fd5b8301601f810185136140e457600080fd5b6140f38582356020840161401f565b9150509250929050565b803562ffffff811681146114bb57600080fd5b6000806000806060858703121561412657600080fd5b843561413181613f68565b935061413f602086016140fd565b9250604085013567ffffffffffffffff81111561415b57600080fd5b8501601f8101871361416c57600080fd5b803567ffffffffffffffff81111561418357600080fd5b8760208260051b840101111561419857600080fd5b949793965060200194505050565b8015158114610a1f57600080fd5b600082601f8301126141c557600080fd5b610c058383356020850161401f565b600080600080600060a086880312156141ec57600080fd5b8535945060208601356141fe816141a6565b9350604086013561420e81613f68565b9250606086013567ffffffffffffffff81111561422a57600080fd5b614236888289016141b4565b925050608086013561424781613f68565b809150509295509295909350565b6000806040838503121561426857600080fd5b82359150602083013561427a81613f68565b809150509250929050565b6000806000806080858703121561429b57600080fd5b84356142a681613f68565b935060208501356142b681613f68565b925060408501356142c681613f68565b9150606085013563ffffffff811681146142df57600080fd5b939692955090935050565b6000806000606084860312156142ff57600080fd5b833561430a81613f68565b95602085013595506040909401359392505050565b6000806000806080858703121561433557600080fd5b843593506020850135614347816141a6565b9250604085013567ffffffffffffffff81111561436357600080fd5b61436f878288016141b4565b92505060608501356142df81613f68565b60006020828403121561439257600080fd5b5051919050565b6020808252602c908201527f46756e6374696f6e206d7573742062652063616c6c6564207468726f7567682060408201526b19195b1959d85d1958d85b1b60a21b606082015260800190565b6020808252602c908201527f46756e6374696f6e206d7573742062652063616c6c6564207468726f7567682060408201526b6163746976652070726f787960a01b606082015260800190565b634e487b7160e01b600052601160045260246000fd5b81810381811115610a6e57610a6e614431565b80820180821115610a6e57610a6e614431565b634e487b7160e01b600052602160045260246000fd5b62ffffff614490826140fd565b16825260208101356bffffffffffffffffffffffff1981168082146144b457600080fd5b60208401525060408101356effffffffffffffffffffffffffffff81168082146144dd57600080fd5b6040840152506060810135600581106144f557600080fd5b6005811061451357634e487b7160e01b600052602160045260246000fd5b806060840152505050565b6001600160a01b0387811682528616602082015262ffffff85166040820152831515606082015260a0608082018190528101829052600060c0600584901b830181019083018583609e1936839003015b8782101561462c5786850360bf19018452823581811261458d57600080fd5b8901803536829003601e190181126145a457600080fd5b810160208101903567ffffffffffffffff8111156145c157600080fd5b8060051b8036038313156145d457600080fd5b60a0808a5289018290526001600160fb1b038211156145f257600080fd5b808360c08b013761460960208a0160208601614483565b60c0818a010198505050505060208301925060208401935060018201915061456e565b50929b9a5050505050505050505050565b60006020828403121561464f57600080fd5b8151610c0581613f68565b60006020828403121561466c57600080fd5b815160048110610c0557600080fd5b60006020828403121561468d57600080fd5b8151610c05816141a6565b634e487b7160e01b600052600160045260246000fd5b81810360008312801583831316838312821617156146ce576146ce614431565b5092915050565b634e487b7160e01b600052601260045260246000fd5b6000826146fa576146fa6146d5565b500490565b60008261470e5761470e6146d5565b500690565b8082028115828204841417610a6e57610a6e614431565b60005b8381101561474557818101518382015260200161472d565b50506000910152565b6000815180845261476681602086016020860161472a565b601f01601f19169290920160200192915050565b6001600160a01b038681168252851660208201526040810184905260a0606082018190526000906147ad9083018561474e565b905060018060a01b03831660808301529695505050505050565b600080604083850312156147da57600080fd5b505080516020909101519092909150565b808201828112600083128015821682158216171561480b5761480b614431565b505092915050565b6000825161482581846020870161472a565b9190910192915050565b602081526000610c05602083018461474e56fe360894a13ba1a3210667c828492db98dca3e2076cc3735a920a3ca505d382bbc416464726573733a206c6f772d6c6576656c2064656c65676174652063616c6c206661696c6564a264697066735822122012e83212187f01bf56a542bd48de5e3d13281dc38c490c2b8fb42987231e5cc964736f6c634300081b0033",
  "linkReferences": {},
  "deployedLinkReferences": {}
}