{
  "_format": "hh-sol-artifact-1",
  "contractName": "CollateralPool",
  "sourceName": "contracts/assetManager/implementation/CollateralPool.sol",
  "abi": [
    {
      "inputs": [
        {
          "internalType": "address",
          "name": "_agentVault",
          "type": "address"
        },
        {
          "internalType": "address",
          "name": "_assetManager",
          "type": "address"
        },
        {
          "internalType": "address",
          "name": "_fAsset",
          "type": "address"
        },
        {
          "internalType": "uint32",
          "name": "_exitCollateralRatioBIPS",
          "type": "uint32"
        },
        {
          "internalType": "uint32",
          "name": "_topupCollateralRatioBIPS",
          "type": "uint32"
        },
        {
          "internalType": "uint16",
          "name": "_topupTokenPriceFactorBIPS",
          "type": "uint16"
        }
      ],
      "stateMutability": "nonpayable",
      "type": "constructor"
    },
    {
      "anonymous": false,
      "inputs": [
        {
          "indexed": false,
          "internalType": "address",
          "name": "previousAdmin",
          "type": "address"
        },
        {
          "indexed": false,
          "internalType": "address",
          "name": "newAdmin",
          "type": "address"
        }
      ],
      "name": "AdminChanged",
      "type": "event"
    },
    {
      "anonymous": false,
      "inputs": [
        {
          "indexed": true,
          "internalType": "address",
          "name": "beacon",
          "type": "address"
        }
      ],
      "name": "BeaconUpgraded",
      "type": "event"
    },
    {
      "anonymous": false,
      "inputs": [
        {
          "indexed": false,
          "internalType": "uint256",
          "name": "amountNatWei",
          "type": "uint256"
        },
        {
          "indexed": false,
          "internalType": "uint8",
          "name": "rewardType",
          "type": "uint8"
        }
      ],
      "name": "ClaimedReward",
      "type": "event"
    },
    {
      "anonymous": false,
      "inputs": [
        {
          "indexed": true,
          "internalType": "address",
          "name": "donator",
          "type": "address"
        },
        {
          "indexed": false,
          "internalType": "uint256",
          "name": "amountNatWei",
          "type": "uint256"
        }
      ],
      "name": "Donated",
      "type": "event"
    },
    {
      "anonymous": false,
      "inputs": [
        {
          "indexed": true,
          "internalType": "address",
          "name": "tokenHolder",
          "type": "address"
        },
        {
          "indexed": false,
          "internalType": "uint256",
          "name": "amountNatWei",
          "type": "uint256"
        },
        {
          "indexed": false,
          "internalType": "uint256",
          "name": "receivedTokensWei",
          "type": "uint256"
        },
        {
          "indexed": false,
          "internalType": "uint256",
          "name": "addedFAssetFeesUBA",
          "type": "uint256"
        },
        {
          "indexed": false,
          "internalType": "uint256",
          "name": "newFAssetFeeDebt",
          "type": "uint256"
        },
        {
          "indexed": false,
          "internalType": "uint256",
          "name": "timelockExpiresAt",
          "type": "uint256"
        }
      ],
      "name": "Entered",
      "type": "event"
    },
    {
      "anonymous": false,
      "inputs": [
        {
          "indexed": true,
          "internalType": "address",
          "name": "tokenHolder",
          "type": "address"
        },
        {
          "indexed": false,
          "internalType": "uint256",
          "name": "burnedTokensWei",
          "type": "uint256"
        },
        {
          "indexed": false,
          "internalType": "uint256",
          "name": "receivedNatWei",
          "type": "uint256"
        },
        {
          "indexed": false,
          "internalType": "uint256",
          "name": "receviedFAssetFeesUBA",
          "type": "uint256"
        },
        {
          "indexed": false,
          "internalType": "uint256",
          "name": "closedFAssetsUBA",
          "type": "uint256"
        },
        {
          "indexed": false,
          "internalType": "uint256",
          "name": "newFAssetFeeDebt",
          "type": "uint256"
        }
      ],
      "name": "Exited",
      "type": "event"
    },
    {
      "anonymous": false,
      "inputs": [
        {
          "indexed": false,
          "internalType": "uint256",
          "name": "burnedTokensWei",
          "type": "uint256"
        },
        {
          "indexed": false,
          "internalType": "uint256",
          "name": "redeemedFAssetUBA",
          "type": "uint256"
        }
      ],
      "name": "IncompleteSelfCloseExit",
      "type": "event"
    },
    {
      "anonymous": false,
      "inputs": [
        {
          "indexed": true,
          "internalType": "address",
          "name": "recipient",
          "type": "address"
        },
        {
          "indexed": false,
          "internalType": "uint256",
          "name": "paidNatWei",
          "type": "uint256"
        },
        {
          "indexed": false,
          "internalType": "uint256",
          "name": "burnedTokensWei",
          "type": "uint256"
        }
      ],
      "name": "PaidOut",
      "type": "event"
    },
    {
      "anonymous": false,
      "inputs": [
        {
          "indexed": true,
          "internalType": "address",
          "name": "implementation",
          "type": "address"
        }
      ],
      "name": "Upgraded",
      "type": "event"
    },
    {
      "inputs": [],
      "name": "MIN_NAT_BALANCE_AFTER_EXIT",
      "outputs": [
        {
          "internalType": "uint256",
          "name": "",
          "type": "uint256"
        }
      ],
      "stateMutability": "view",
      "type": "function"
    },
    {
      "inputs": [],
      "name": "MIN_NAT_TO_ENTER",
      "outputs": [
        {
          "internalType": "uint256",
          "name": "",
          "type": "uint256"
        }
      ],
      "stateMutability": "view",
      "type": "function"
    },
    {
      "inputs": [],
      "name": "MIN_TOKEN_SUPPLY_AFTER_EXIT",
      "outputs": [
        {
          "internalType": "uint256",
          "name": "",
          "type": "uint256"
        }
      ],
      "stateMutability": "view",
      "type": "function"
    },
    {
      "inputs": [],
      "name": "agentVault",
      "outputs": [
        {
          "internalType": "address",
          "name": "",
          "type": "address"
        }
      ],
      "stateMutability": "view",
      "type": "function"
    },
    {
      "inputs": [],
      "name": "assetManager",
      "outputs": [
        {
          "internalType": "contract IIAssetManager",
          "name": "",
          "type": "address"
        }
      ],
      "stateMutability": "view",
      "type": "function"
    },
    {
      "inputs": [
        {
          "internalType": "contract IDistributionToDelegators",
          "name": "_distribution",
          "type": "address"
        },
        {
          "internalType": "uint256",
          "name": "_month",
          "type": "uint256"
        }
      ],
      "name": "claimAirdropDistribution",
      "outputs": [
        {
          "internalType": "uint256",
          "name": "",
          "type": "uint256"
        }
      ],
      "stateMutability": "nonpayable",
      "type": "function"
    },
    {
      "inputs": [
        {
          "internalType": "contract IRewardManager",
          "name": "_rewardManager",
          "type": "address"
        },
        {
          "internalType": "uint24",
          "name": "_lastRewardEpoch",
          "type": "uint24"
        },
        {
          "components": [
            {
              "internalType": "bytes32[]",
              "name": "merkleProof",
              "type": "bytes32[]"
            },
            {
              "components": [
                {
                  "internalType": "uint24",
                  "name": "rewardEpochId",
                  "type": "uint24"
                },
                {
                  "internalType": "bytes20",
                  "name": "beneficiary",
                  "type": "bytes20"
                },
                {
                  "internalType": "uint120",
                  "name": "amount",
                  "type": "uint120"
                },
                {
                  "internalType": "enum RewardsV2Interface.ClaimType",
                  "name": "claimType",
                  "type": "uint8"
                }
              ],
              "internalType": "struct RewardsV2Interface.RewardClaim",
              "name": "body",
              "type": "tuple"
            }
          ],
          "internalType": "struct RewardsV2Interface.RewardClaimWithProof[]",
          "name": "_proofs",
          "type": "tuple[]"
        }
      ],
      "name": "claimDelegationRewards",
      "outputs": [
        {
          "internalType": "uint256",
          "name": "",
          "type": "uint256"
        }
      ],
      "stateMutability": "nonpayable",
      "type": "function"
    },
    {
      "inputs": [
        {
          "internalType": "address",
          "name": "_account",
          "type": "address"
        }
      ],
      "name": "debtFreeTokensOf",
      "outputs": [
        {
          "internalType": "uint256",
          "name": "",
          "type": "uint256"
        }
      ],
      "stateMutability": "view",
      "type": "function"
    },
    {
      "inputs": [
        {
          "internalType": "address",
          "name": "_account",
          "type": "address"
        }
      ],
      "name": "debtLockedTokensOf",
      "outputs": [
        {
          "internalType": "uint256",
          "name": "",
          "type": "uint256"
        }
      ],
      "stateMutability": "view",
      "type": "function"
    },
    {
      "inputs": [
        {
          "internalType": "address",
          "name": "_to",
          "type": "address"
        },
        {
          "internalType": "uint256",
          "name": "_bips",
          "type": "uint256"
        }
      ],
      "name": "delegate",
      "outputs": [],
      "stateMutability": "nonpayable",
      "type": "function"
    },
    {
      "inputs": [
        {
          "internalType": "address",
          "name": "_to",
          "type": "address"
        }
      ],
      "name": "delegateGovernance",
      "outputs": [],
      "stateMutability": "nonpayable",
      "type": "function"
    },
    {
      "inputs": [],
      "name": "depositNat",
      "outputs": [],
      "stateMutability": "payable",
      "type": "function"
    },
    {
      "inputs": [
        {
          "internalType": "address payable",
          "name": "_recipient",
          "type": "address"
        }
      ],
      "name": "destroy",
      "outputs": [],
      "stateMutability": "nonpayable",
      "type": "function"
    },
    {
      "inputs": [],
      "name": "donateNat",
      "outputs": [],
      "stateMutability": "payable",
      "type": "function"
    },
    {
      "inputs": [
        {
          "internalType": "uint256",
          "name": "_fAssets",
          "type": "uint256"
        },
        {
          "internalType": "bool",
          "name": "_enterWithFullFAssets",
          "type": "bool"
        }
      ],
      "name": "enter",
      "outputs": [
        {
          "internalType": "uint256",
          "name": "",
          "type": "uint256"
        },
        {
          "internalType": "uint256",
          "name": "",
          "type": "uint256"
        }
      ],
      "stateMutability": "payable",
      "type": "function"
    },
    {
      "inputs": [
        {
          "internalType": "uint256",
          "name": "_tokenShare",
          "type": "uint256"
        },
        {
          "internalType": "enum ICollateralPool.TokenExitType",
          "name": "_exitType",
          "type": "uint8"
        }
      ],
      "name": "exit",
      "outputs": [
        {
          "internalType": "uint256",
          "name": "",
          "type": "uint256"
        },
        {
          "internalType": "uint256",
          "name": "",
          "type": "uint256"
        }
      ],
      "stateMutability": "nonpayable",
      "type": "function"
    },
    {
      "inputs": [],
      "name": "exitCollateralRatioBIPS",
      "outputs": [
        {
          "internalType": "uint32",
          "name": "",
          "type": "uint32"
        }
      ],
      "stateMutability": "view",
      "type": "function"
    },
    {
      "inputs": [
        {
          "internalType": "uint256",
          "name": "_tokenShare",
          "type": "uint256"
        },
        {
          "internalType": "address payable",
          "name": "_recipient",
          "type": "address"
        },
        {
          "internalType": "enum ICollateralPool.TokenExitType",
          "name": "_exitType",
          "type": "uint8"
        }
      ],
      "name": "exitTo",
      "outputs": [
        {
          "internalType": "uint256",
          "name": "",
          "type": "uint256"
        },
        {
          "internalType": "uint256",
          "name": "",
          "type": "uint256"
        }
      ],
      "stateMutability": "nonpayable",
      "type": "function"
    },
    {
      "inputs": [],
      "name": "fAsset",
      "outputs": [
        {
          "internalType": "contract IFAsset",
          "name": "",
          "type": "address"
        }
      ],
      "stateMutability": "view",
      "type": "function"
    },
    {
      "inputs": [
        {
          "internalType": "address",
          "name": "_account",
          "type": "address"
        }
      ],
      "name": "fAssetFeeDebtOf",
      "outputs": [
        {
          "internalType": "uint256",
          "name": "",
          "type": "uint256"
        }
      ],
      "stateMutability": "view",
      "type": "function"
    },
    {
      "inputs": [
        {
          "internalType": "uint256",
          "name": "_amount",
          "type": "uint256"
        }
      ],
      "name": "fAssetFeeDeposited",
      "outputs": [],
      "stateMutability": "nonpayable",
      "type": "function"
    },
    {
      "inputs": [
        {
          "internalType": "address",
          "name": "_account",
          "type": "address"
        }
      ],
      "name": "fAssetFeesOf",
      "outputs": [
        {
          "internalType": "uint256",
          "name": "",
          "type": "uint256"
        }
      ],
      "stateMutability": "view",
      "type": "function"
    },
    {
      "inputs": [
        {
          "internalType": "uint256",
          "name": "_tokenAmountWei",
          "type": "uint256"
        }
      ],
      "name": "fAssetRequiredForSelfCloseExit",
      "outputs": [
        {
          "internalType": "uint256",
          "name": "",
          "type": "uint256"
        }
      ],
      "stateMutability": "view",
      "type": "function"
    },
    {
      "inputs": [],
      "name": "implementation",
      "outputs": [
        {
          "internalType": "address",
          "name": "",
          "type": "address"
        }
      ],
      "stateMutability": "view",
      "type": "function"
    },
    {
      "inputs": [
        {
          "internalType": "address",
          "name": "_agentVault",
          "type": "address"
        },
        {
          "internalType": "address",
          "name": "_assetManager",
          "type": "address"
        },
        {
          "internalType": "address",
          "name": "_fAsset",
          "type": "address"
        },
        {
          "internalType": "uint32",
          "name": "_exitCollateralRatioBIPS",
          "type": "uint32"
        },
        {
          "internalType": "uint32",
          "name": "_topupCollateralRatioBIPS",
          "type": "uint32"
        },
        {
          "internalType": "uint16",
          "name": "_topupTokenPriceFactorBIPS",
          "type": "uint16"
        }
      ],
      "name": "initialize",
      "outputs": [],
      "stateMutability": "nonpayable",
      "type": "function"
    },
    {
      "inputs": [
        {
          "internalType": "contract IDistributionToDelegators",
          "name": "_distribution",
          "type": "address"
        }
      ],
      "name": "optOutOfAirdrop",
      "outputs": [],
      "stateMutability": "nonpayable",
      "type": "function"
    },
    {
      "inputs": [
        {
          "internalType": "uint256",
          "name": "_fAssets",
          "type": "uint256"
        }
      ],
      "name": "payFAssetFeeDebt",
      "outputs": [],
      "stateMutability": "nonpayable",
      "type": "function"
    },
    {
      "inputs": [
        {
          "internalType": "address",
          "name": "_recipient",
          "type": "address"
        },
        {
          "internalType": "uint256",
          "name": "_amount",
          "type": "uint256"
        },
        {
          "internalType": "uint256",
          "name": "_agentResponsibilityWei",
          "type": "uint256"
        }
      ],
      "name": "payout",
      "outputs": [],
      "stateMutability": "nonpayable",
      "type": "function"
    },
    {
      "inputs": [],
      "name": "poolToken",
      "outputs": [
        {
          "internalType": "contract ICollateralPoolToken",
          "name": "",
          "type": "address"
        }
      ],
      "stateMutability": "view",
      "type": "function"
    },
    {
      "inputs": [],
      "name": "proxiableUUID",
      "outputs": [
        {
          "internalType": "bytes32",
          "name": "",
          "type": "bytes32"
        }
      ],
      "stateMutability": "view",
      "type": "function"
    },
    {
      "inputs": [
        {
          "internalType": "address",
          "name": "_who",
          "type": "address"
        },
        {
          "internalType": "uint256",
          "name": "_blockNumber",
          "type": "uint256"
        }
      ],
      "name": "revokeDelegationAt",
      "outputs": [],
      "stateMutability": "nonpayable",
      "type": "function"
    },
    {
      "inputs": [
        {
          "internalType": "uint256",
          "name": "_tokenShare",
          "type": "uint256"
        },
        {
          "internalType": "bool",
          "name": "_redeemToCollateral",
          "type": "bool"
        },
        {
          "internalType": "string",
          "name": "_redeemerUnderlyingAddress",
          "type": "string"
        },
        {
          "internalType": "address payable",
          "name": "_executor",
          "type": "address"
        }
      ],
      "name": "selfCloseExit",
      "outputs": [],
      "stateMutability": "payable",
      "type": "function"
    },
    {
      "inputs": [
        {
          "internalType": "uint256",
          "name": "_tokenShare",
          "type": "uint256"
        },
        {
          "internalType": "bool",
          "name": "_redeemToCollateral",
          "type": "bool"
        },
        {
          "internalType": "address payable",
          "name": "_recipient",
          "type": "address"
        },
        {
          "internalType": "string",
          "name": "_redeemerUnderlyingAddress",
          "type": "string"
        },
        {
          "internalType": "address payable",
          "name": "_executor",
          "type": "address"
        }
      ],
      "name": "selfCloseExitTo",
      "outputs": [],
      "stateMutability": "payable",
      "type": "function"
    },
    {
      "inputs": [
        {
          "internalType": "uint256",
          "name": "_exitCollateralRatioBIPS",
          "type": "uint256"
        }
      ],
      "name": "setExitCollateralRatioBIPS",
      "outputs": [],
      "stateMutability": "nonpayable",
      "type": "function"
    },
    {
      "inputs": [
        {
          "internalType": "address",
          "name": "_poolToken",
          "type": "address"
        }
      ],
      "name": "setPoolToken",
      "outputs": [],
      "stateMutability": "nonpayable",
      "type": "function"
    },
    {
      "inputs": [
        {
          "internalType": "uint256",
          "name": "_topupCollateralRatioBIPS",
          "type": "uint256"
        }
      ],
      "name": "setTopupCollateralRatioBIPS",
      "outputs": [],
      "stateMutability": "nonpayable",
      "type": "function"
    },
    {
      "inputs": [
        {
          "internalType": "uint256",
          "name": "_topupTokenPriceFactorBIPS",
          "type": "uint256"
        }
      ],
      "name": "setTopupTokenPriceFactorBIPS",
      "outputs": [],
      "stateMutability": "nonpayable",
      "type": "function"
    },
    {
      "inputs": [
        {
          "internalType": "bytes4",
          "name": "_interfaceId",
          "type": "bytes4"
        }
      ],
      "name": "supportsInterface",
      "outputs": [
        {
          "internalType": "bool",
          "name": "",
          "type": "bool"
        }
      ],
      "stateMutability": "pure",
      "type": "function"
    },
    {
      "inputs": [],
      "name": "token",
      "outputs": [
        {
          "internalType": "contract IICollateralPoolToken",
          "name": "",
          "type": "address"
        }
      ],
      "stateMutability": "view",
      "type": "function"
    },
    {
      "inputs": [],
      "name": "topupCollateralRatioBIPS",
      "outputs": [
        {
          "internalType": "uint32",
          "name": "",
          "type": "uint32"
        }
      ],
      "stateMutability": "view",
      "type": "function"
    },
    {
      "inputs": [],
      "name": "topupTokenPriceFactorBIPS",
      "outputs": [
        {
          "internalType": "uint16",
          "name": "",
          "type": "uint16"
        }
      ],
      "stateMutability": "view",
      "type": "function"
    },
    {
      "inputs": [],
      "name": "totalCollateral",
      "outputs": [
        {
          "internalType": "uint256",
          "name": "",
          "type": "uint256"
        }
      ],
      "stateMutability": "view",
      "type": "function"
    },
    {
      "inputs": [],
      "name": "totalFAssetFeeDebt",
      "outputs": [
        {
          "internalType": "uint256",
          "name": "",
          "type": "uint256"
        }
      ],
      "stateMutability": "view",
      "type": "function"
    },
    {
      "inputs": [],
      "name": "totalFAssetFees",
      "outputs": [
        {
          "internalType": "uint256",
          "name": "",
          "type": "uint256"
        }
      ],
      "stateMutability": "view",
      "type": "function"
    },
    {
      "inputs": [],
      "name": "undelegateAll",
      "outputs": [],
      "stateMutability": "nonpayable",
      "type": "function"
    },
    {
      "inputs": [],
      "name": "undelegateGovernance",
      "outputs": [],
      "stateMutability": "nonpayable",
      "type": "function"
    },
    {
      "inputs": [
        {
          "internalType": "address",
          "name": "newImplementation",
          "type": "address"
        }
      ],
      "name": "upgradeTo",
      "outputs": [],
      "stateMutability": "nonpayable",
      "type": "function"
    },
    {
      "inputs": [
        {
          "internalType": "address",
          "name": "newImplementation",
          "type": "address"
        },
        {
          "internalType": "bytes",
          "name": "data",
          "type": "bytes"
        }
      ],
      "name": "upgradeToAndCall",
      "outputs": [],
      "stateMutability": "payable",
      "type": "function"
    },
    {
      "inputs": [
        {
          "internalType": "contract IWNat",
          "name": "_newWNat",
          "type": "address"
        }
      ],
      "name": "upgradeWNatContract",
      "outputs": [],
      "stateMutability": "nonpayable",
      "type": "function"
    },
    {
      "inputs": [
        {
          "internalType": "address",
          "name": "_account",
          "type": "address"
        }
      ],
      "name": "virtualFAssetOf",
      "outputs": [
        {
          "internalType": "uint256",
          "name": "",
          "type": "uint256"
        }
      ],
      "stateMutability": "view",
      "type": "function"
    },
    {
      "inputs": [],
      "name": "wNat",
      "outputs": [
        {
          "internalType": "contract IWNat",
          "name": "",
          "type": "address"
        }
      ],
      "stateMutability": "view",
      "type": "function"
    },
    {
      "inputs": [
        {
          "internalType": "uint256",
          "name": "_fAssets",
          "type": "uint256"
        }
      ],
      "name": "withdrawFees",
      "outputs": [],
      "stateMutability": "nonpayable",
      "type": "function"
    },
    {
      "inputs": [
        {
          "internalType": "uint256",
          "name": "_fAssets",
          "type": "uint256"
        },
        {
          "internalType": "address",
          "name": "_recipient",
          "type": "address"
        }
      ],
      "name": "withdrawFeesTo",
      "outputs": [],
      "stateMutability": "nonpayable",
      "type": "function"
    },
    {
      "stateMutability": "payable",
      "type": "receive"
    }
  ],
  "bytecode": "0x60a0604052306080523480156200001557600080fd5b5060405162005c6d38038062005c6d83398101604081905262000038916200022c565b6200004886868686868662000054565b505050505050620002e6565b600454600160f81b900460ff1615620000b35760405162461bcd60e51b815260206004820152601360248201527f616c726561647920696e697469616c697a656400000000000000000000000000604482015260640160405180910390fd5b600480546001600160f81b0316600160f81b179055600080546001600160a01b038089166001600160a01b0319928316179092556001805488841690831681179091556002805493881693909216929092179055620001145760006200018e565b600160009054906101000a90046001600160a01b03166001600160a01b031663b5a488a66040518163ffffffff1660e01b8152600401602060405180830381865afa15801562000168573d6000803e3d6000fd5b505050506040513d601f19601f820116820180604052508101906200018e9190620002bf565b6004805461ffff909316600160e01b0261ffff60e01b1963ffffffff958616600160c01b021665ffffffffffff60c01b1995909616600160a01b026001600160c01b03199094166001600160a01b039390931692909217929092179290921692909217179055505050565b6001600160a01b03811681146200020f57600080fd5b50565b805163ffffffff811681146200022757600080fd5b919050565b60008060008060008060c087890312156200024657600080fd5b86516200025381620001f9565b60208801519096506200026681620001f9565b60408801519095506200027981620001f9565b9350620002896060880162000212565b9250620002996080880162000212565b915060a087015161ffff81168114620002b157600080fd5b809150509295509295509295565b600060208284031215620002d257600080fd5b8151620002df81620001f9565b9392505050565b60805161594f6200031e60003960008181610f0301528181610f43015281816111ca0152818161120a0152611286015261594f6000f3fe60806040526004361061031d5760003560e01c806387a2a0dc116101ab578063c1b0bbf8116100f7578063e4df73f011610095578063ee781db01161006f578063ee781db01461093f578063f4d000b21461095f578063fc0c546a1461097f578063fd86d3ea1461099f57600080fd5b8063e4df73f0146108ec578063e6916906146108ff578063eaf413fd1461091f57600080fd5b8063cb209413116100d1578063cb2094131461087a578063cbabdf39146108b0578063cbdf382c146108c6578063d1b8890e146108e457600080fd5b8063c1b0bbf814610832578063c79d245d14610852578063c93e29d01461087257600080fd5b8063a854a6a211610164578063b302f3931161013e578063b302f393146107d9578063b337929b146107ee578063b9e26483146103f0578063bbd6fbf81461081257600080fd5b8063a854a6a214610786578063ac3736c1146107a6578063adf58c15146107b957600080fd5b806387a2a0dc146106db57806388985cd6146106f0578063923f89321461071057806394217ad1146107265780639a4247e6146107465780639edbf0071461076657600080fd5b80634ac8eb5f1161026a578063787b9ca81161022357806380f13ee9116101fd57806380f13ee914610668578063815ea9d61461067b578063868c3ba71461069b57806386ac57a2146106bb57600080fd5b8063787b9ca8146106085780637a68a508146106285780637c7db1a51461064857600080fd5b80634ac8eb5f1461055d5780634f1ef2861461057357806352d1902d1461058657806359c3d5491461059b5780635c60da1b146105bb5780635e318e07146105e857600080fd5b80631b92d84a116102d75780633659cfe6116102b15780633659cfe6146104af5780633cfc747d146104cf578063406c7007146105085780634a4ac2ef1461052857600080fd5b80631b92d84a1461043a5780632f35eac21461045a57806333ce01fd1461048f57600080fd5b8062f55d9d1461037b57806301ffc9a71461039b578063026e402b146103d05780630ac07344146103f05780630dc1e5e1146103f057806315e2bfba1461041a57600080fd5b3661037657600454600160f01b900460ff166103745760405162461bcd60e51b81526020600482015260116024820152706f6e6c7920696e7465726e616c2075736560781b60448201526064015b60405180910390fd5b005b600080fd5b34801561038757600080fd5b50610374610396366004614eb3565b6109bf565b3480156103a757600080fd5b506103bb6103b6366004614ed0565b610c5a565b60405190151581526020015b60405180910390f35b3480156103dc57600080fd5b506103746103eb366004614efa565b610cac565b3480156103fc57600080fd5b5061040c670de0b6b3a764000081565b6040519081526020016103c7565b34801561042657600080fd5b5061040c610435366004614eb3565b610d3e565b34801561044657600080fd5b5061040c610455366004614f26565b610dd4565b34801561046657600080fd5b5061047a610475366004614f53565b610e32565b604080519283526020830191909152016103c7565b34801561049b57600080fd5b506103746104aa366004614eb3565b610e5b565b3480156104bb57600080fd5b506103746104ca366004614eb3565b610ef9565b3480156104db57600080fd5b506004546104f390600160a01b900463ffffffff1681565b60405163ffffffff90911681526020016103c7565b34801561051457600080fd5b5061040c610523366004614efa565b610fbe565b34801561053457600080fd5b5060045461054a90600160e01b900461ffff1681565b60405161ffff90911681526020016103c7565b34801561056957600080fd5b5061040c60085481565b61037461058136600461500b565b6111c0565b34801561059257600080fd5b5061040c611279565b3480156105a757600080fd5b5061040c6105b6366004615082565b61132c565b3480156105c757600080fd5b506105d0611531565b6040516001600160a01b0390911681526020016103c7565b3480156105f457600080fd5b50610374610603366004614f26565b611540565b34801561061457600080fd5b50610374610623366004614f26565b61155a565b34801561063457600080fd5b50610374610643366004614eb3565b6115fe565b34801561065457600080fd5b506002546105d0906001600160a01b031681565b610374610676366004615143565b6116ee565b34801561068757600080fd5b506000546105d0906001600160a01b031681565b3480156106a757600080fd5b506103746106b63660046151c4565b611792565b3480156106c757600080fd5b506103746106d6366004614eb3565b6117ac565b3480156106e757600080fd5b50610374611834565b3480156106fc57600080fd5b5061037461070b366004614f26565b611918565b34801561071c57600080fd5b5061040c60065481565b34801561073257600080fd5b506001546105d0906001600160a01b031681565b34801561075257600080fd5b50610374610761366004614f26565b6119ff565b34801561077257600080fd5b506004546105d0906001600160a01b031681565b34801561079257600080fd5b506103746107a1366004614f26565b611ad6565b61047a6107b43660046151f4565b611b1a565b3480156107c557600080fd5b506103746107d4366004615219565b612040565b3480156107e557600080fd5b5061037461228b565b3480156107fa57600080fd5b506004546104f390600160c01b900463ffffffff1681565b34801561081e57600080fd5b5061037461082d366004614efa565b6122f3565b34801561083e57600080fd5b5061040c61084d366004614eb3565b612353565b34801561085e57600080fd5b5061040c61086d366004614eb3565b61236a565b610374612381565b34801561088657600080fd5b5061040c610895366004614eb3565b6001600160a01b031660009081526005602052604090205490565b3480156108bc57600080fd5b5061040c60075481565b3480156108d257600080fd5b506003546001600160a01b03166105d0565b610374612472565b6103746108fa36600461524e565b6124a4565b34801561090b57600080fd5b5061037461091a3660046152ce565b6124c1565b34801561092b57600080fd5b5061047a61093a366004615353565b612652565b34801561094b57600080fd5b5061037461095a366004614f26565b61267c565b34801561096b57600080fd5b5061037461097a366004614eb3565b6128c2565b34801561098b57600080fd5b506003546105d0906001600160a01b031681565b3480156109ab57600080fd5b5061040c6109ba366004614eb3565b612ae2565b6001546001600160a01b031633146109e95760405162461bcd60e51b815260040161036b90615391565b6109f1612af9565b600360009054906101000a90046001600160a01b03166001600160a01b03166318160ddd6040518163ffffffff1660e01b8152600401602060405180830381865afa158015610a44573d6000803e3d6000fd5b505050506040513d601f19601f82011682018060405250810190610a6891906153bd565b15610ac65760405162461bcd60e51b815260206004820152602860248201527f63616e6e6f742064657374726f79206120706f6f6c20776974682069737375656044820152676420746f6b656e7360c01b606482015260840161036b565b60035460405162f55d9d60e01b81526001600160a01b0383811660048301529091169062f55d9d90602401600060405180830381600087803b158015610b0b57600080fd5b505af1158015610b1f573d6000803e3d6000fd5b50505050610b2d8147612b72565b600480546040516370a0823160e01b815230928101929092526000916001600160a01b03909116906370a0823190602401602060405180830381865afa158015610b7b573d6000803e3d6000fd5b505050506040513d601f19601f82011682018060405250810190610b9f91906153bd565b6002546040516370a0823160e01b81523060048201529192506000916001600160a01b03909116906370a0823190602401602060405180830381865afa158015610bed573d6000803e3d6000fd5b505050506040513d601f19601f82011682018060405250810190610c1191906153bd565b90508115610c3057600454610c30906001600160a01b03168484612c1b565b8015610c4d57600254610c4d906001600160a01b03168483612c1b565b5050610c57612c6d565b50565b60006001600160e01b031982166301ffc9a760e01b1480610c8b57506001600160e01b0319821663982c94a560e01b145b80610ca657506001600160e01b031982166350eb34e160e11b145b92915050565b610cb533612c93565b610cd15760405162461bcd60e51b815260040161036b906153d6565b6004805460405163026e402b60e01b81526001600160a01b03858116938201939093526024810184905291169063026e402b906044015b600060405180830381600087803b158015610d2257600080fd5b505af1158015610d36573d6000803e3d6000fd5b505050505050565b600080610d49612d0d565b6003546040516370a0823160e01b81526001600160a01b038681166004830152929350610dcd92909116906370a0823190602401602060405180830381865afa158015610d9a573d6000803e3d6000fd5b505050506040513d601f19601f82011682018060405250810190610dbe91906153bd565b610dc88386612efd565b613003565b9392505050565b600080610ddf612d0d565b90506000610e00848360200151846060015161301d9092919063ffffffff16565b90506000610e0e8383613143565b90506000610e1c84336131c6565b9050610e288282613003565b9695505050505050565b600080610e3d612af9565b610e4884338561320f565b91509150610e54612c6d565b9250929050565b6001546001600160a01b03163314610e855760405162461bcd60e51b815260040161036b90615391565b6003546001600160a01b031615610ed75760405162461bcd60e51b81526020600482015260166024820152751c1bdbdb081d1bdad95b88185b1c9958591e481cd95d60521b604482015260640161036b565b600380546001600160a01b0319166001600160a01b0392909216919091179055565b6001600160a01b037f0000000000000000000000000000000000000000000000000000000000000000163003610f415760405162461bcd60e51b815260040161036b906153fa565b7f00000000000000000000000000000000000000000000000000000000000000006001600160a01b0316610f736135d1565b6001600160a01b031614610f995760405162461bcd60e51b815260040161036b90615446565b610fa2816135ed565b60408051600080825260208201909252610c5791839190613617565b6000610fc933612c93565b610fe55760405162461bcd60e51b815260040161036b906153d6565b610fed612af9565b600480546040516370a0823160e01b815230928101929092526000916001600160a01b03909116906370a0823190602401602060405180830381865afa15801561103b573d6000803e3d6000fd5b505050506040513d601f19601f8201168201806040525081019061105f91906153bd565b60405163596090c960e11b81523060048201819052602482015260448101859052600160648201529091506001600160a01b0385169063b2c12192906084016020604051808303816000875af11580156110bd573d6000803e3d6000fd5b505050506040513d601f19601f820116820180604052508101906110e191906153bd565b50600480546040516370a0823160e01b815230928101929092526000916001600160a01b03909116906370a0823190602401602060405180830381865afa158015611130573d6000803e3d6000fd5b505050506040513d601f19601f8201168201806040525081019061115491906153bd565b9050600061116283836154a8565b9050806008600082825461117691906154bb565b909155505060408051828152600060208201527f1a53692b4ecb924a87c6d9eae27be062cc1005b4c2d41cc35d8b59dbd6f4ba1b910160405180910390a192505050610ca6612c6d565b6001600160a01b037f00000000000000000000000000000000000000000000000000000000000000001630036112085760405162461bcd60e51b815260040161036b906153fa565b7f00000000000000000000000000000000000000000000000000000000000000006001600160a01b031661123a6135d1565b6001600160a01b0316146112605760405162461bcd60e51b815260040161036b90615446565b611269826135ed565b61127582826001613617565b5050565b6000306001600160a01b037f000000000000000000000000000000000000000000000000000000000000000016146113195760405162461bcd60e51b815260206004820152603860248201527f555550535570677261646561626c653a206d757374206e6f742062652063616c60448201527f6c6564207468726f7567682064656c656761746563616c6c0000000000000000606482015260840161036b565b506000805160206158b383398151915290565b600061133733612c93565b6113535760405162461bcd60e51b815260040161036b906153d6565b61135b612af9565b600480546040516370a0823160e01b815230928101929092526000916001600160a01b03909116906370a0823190602401602060405180830381865afa1580156113a9573d6000803e3d6000fd5b505050506040513d601f19601f820116820180604052508101906113cd91906153bd565b604051638e33aba560e01b81529091506001600160a01b03871690638e33aba59061140790309081908a906001908b908b90600401615561565b6020604051808303816000875af1158015611426573d6000803e3d6000fd5b505050506040513d601f19601f8201168201806040525081019061144a91906153bd565b50600480546040516370a0823160e01b815230928101929092526000916001600160a01b03909116906370a0823190602401602060405180830381865afa158015611499573d6000803e3d6000fd5b505050506040513d601f19601f820116820180604052508101906114bd91906153bd565b905060006114cb83836154a8565b905080600860008282546114df91906154bb565b909155505060408051828152600160208201527f1a53692b4ecb924a87c6d9eae27be062cc1005b4c2d41cc35d8b59dbd6f4ba1b910160405180910390a192505050611529612c6d565b949350505050565b600061153b6135d1565b905090565b611548612af9565b6115528133613782565b610c57612c6d565b6001546001600160a01b031633146115845760405162461bcd60e51b815260040161036b90615391565b600454600160c01b900463ffffffff1681116115d25760405162461bcd60e51b815260206004820152600d60248201526c76616c756520746f6f206c6f7760981b604482015260640161036b565b6115db816138a6565b600460146101000a81548163ffffffff021916908363ffffffff16021790555050565b61160733612c93565b6116235760405162461bcd60e51b815260040161036b906153d6565b6004805460408051638c2b8ae160e01b815290516001600160a01b0390921692638c2b8ae19282820192602092908290030181865afa15801561166a573d6000803e3d6000fd5b505050506040513d601f19601f8201168201806040525081019061168e919061567b565b6040516317066a5760e21b81526001600160a01b0383811660048301529190911690635c19a95c90602401600060405180830381600087803b1580156116d357600080fd5b505af11580156116e7573d6000803e3d6000fd5b5050505050565b6116f6612af9565b6001600160a01b0383161580159061171757506001600160a01b0383163014155b801561173157506000546001600160a01b03848116911614155b61177d5760405162461bcd60e51b815260206004820152601960248201527f696e76616c696420726563697069656e74206164647265737300000000000000604482015260640161036b565b61178a858585858561390f565b6116e7612c6d565b61179a612af9565b6117a48282613782565b611275612c6d565b6117b533612c93565b6117d15760405162461bcd60e51b815260040161036b906153d6565b6117d9612af9565b806001600160a01b031663f2a1f7676040518163ffffffff1660e01b8152600401600060405180830381600087803b15801561181457600080fd5b505af1158015611828573d6000803e3d6000fd5b50505050610c57612c6d565b61183d33612c93565b6118595760405162461bcd60e51b815260040161036b906153d6565b6004805460408051638c2b8ae160e01b815290516001600160a01b0390921692638c2b8ae19282820192602092908290030181865afa1580156118a0573d6000803e3d6000fd5b505050506040513d601f19601f820116820180604052508101906118c4919061567b565b6001600160a01b03166392ab89bb6040518163ffffffff1660e01b8152600401600060405180830381600087803b1580156118fe57600080fd5b505af1158015611912573d6000803e3d6000fd5b50505050565b6001546001600160a01b031633146119425760405162461bcd60e51b815260040161036b90615391565b600454600160a01b900463ffffffff1681106119915760405162461bcd60e51b815260206004820152600e60248201526d0ecc2d8eaca40e8dede40d0d2ced60931b604482015260640161036b565b600081116119d35760405162461bcd60e51b815260206004820152600f60248201526e6d757374206265206e6f6e7a65726f60881b604482015260640161036b565b6119dc816138a6565b600460186101000a81548163ffffffff021916908363ffffffff16021790555050565b6001546001600160a01b03163314611a295760405162461bcd60e51b815260040161036b90615391565b612710811115611a6c5760405162461bcd60e51b815260206004820152600e60248201526d0ecc2d8eaca40e8dede40d0d2ced60931b604482015260640161036b565b60008111611aae5760405162461bcd60e51b815260206004820152600f60248201526e6d757374206265206e6f6e7a65726f60881b604482015260640161036b565b611ab781614102565b6004601c6101000a81548161ffff021916908361ffff16021790555050565b6001546001600160a01b03163314611b005760405162461bcd60e51b815260040161036b90615391565b8060076000828254611b1291906154bb565b909155505050565b600080611b25612af9565b6000611b2f612d0d565b9050670de0b6b3a7640000341015611b895760405162461bcd60e51b815260206004820152601d60248201527f616d6f756e74206f66206e61742073656e7420697320746f6f206c6f77000000604482015260640161036b565b8060200151600003611cea578060600151341015611c355760405162461bcd60e51b815260206004820152606060248201527f696620706f6f6c20686173206e6f20746f6b656e732c2062757420686f6c647360448201527f20636f6c6c61746572616c2c20796f75206e65656420746f2073656e6420617460648201527f206c65617374207468617420616d6f756e74206f6620636f6c6c61746572616c608482015260a40161036b565b60c081015160e08201516080830151611c4f92909161301d565b341015611cea5760405162461bcd60e51b815260206004820152605f60248201527f496620706f6f6c20686173206e6f20746f6b656e732c2062757420686f6c647360448201527f20662d61737365742c20796f75206e65656420746f2073656e64206174206c6560648201527f61737420662d617373657420776f727468206f6620636f6c6c61746572616c00608482015260a40161036b565b6000611cf68234614165565b905060008111611d615760405162461bcd60e51b815260206004820152603060248201527f6465706f736974656420616d6f756e7420726573756c747320696e207a65726f60448201526f20726563656976656420746f6b656e7360801b606482015260840161036b565b600080836020015111611d75576000611d8a565b602083015160a0840151611d8a91849061301d565b9050600086611da257611d9d88836142b8565b611da4565b815b90508015611ecc576002546040516352adac0760e11b81526000916001600160a01b03169063a55b580e90611de190339030908790600401615698565b6040805180830381865afa158015611dfd573d6000803e3d6000fd5b505050506040513d601f19601f82011682018060405250810190611e2191906156bc565b9150611e2f905081836154bb565b600254604051636eb1769f60e11b81523360048201523060248201526001600160a01b039091169063dd62ed3e90604401602060405180830381865afa158015611e7d573d6000803e3d6000fd5b505050506040513d601f19601f82011682018060405250810190611ea191906153bd565b1015611ebf5760405162461bcd60e51b815260040161036b906156e0565b611eca3330846142ce565b505b611edf33611eda83856154a8565b6143ea565b611ee7614434565b6001546000546004805460405163053fe26160e31b81526001600160a01b0393841692810192909252821660248201529116906329ff130890604401600060405180830381600087803b158015611f3d57600080fd5b505af1158015611f51573d6000803e3d6000fd5b50506003546040516340c10f1960e01b815233600482015260248101879052600093506001600160a01b0390911691506340c10f19906044016020604051808303816000875af1158015611fa9573d6000803e3d6000fd5b505050506040513d601f19601f82011682018060405250810190611fcd91906153bd565b33600081815260056020908152604091829020548251348152918201899052818301879052606082015260808101849052905192935090917f8837aea61d24df2daef4ee681be933e5ea5c7ebe3cde964adef015dad51fe7859181900360a00190a2929550919350505050610e54612c6d565b6001546001600160a01b0316331461206a5760405162461bcd60e51b815260040161036b90615391565b612072612af9565b600061207c612d0d565b90506120888484614496565b600354600080546040516370a0823160e01b81526001600160a01b039182166004820152919216906370a0823190602401602060405180830381865afa1580156120d6573d6000803e3d6000fd5b505050506040513d601f19601f820116820180604052508101906120fa91906153bd565b905060008083606001511161210f5781612124565b6060830151602084015161212491869061301d565b9050600061213282846142b8565b9050801561223657600080546121559086906001600160a01b03168460026144ca565b5060005490915061216f906001600160a01b031682614652565b6003546000546040516376fd4fdf60e01b81526001600160a01b03928316926376fd4fdf926121a8929116908690600190600401615717565b600060405180830381600087803b1580156121c257600080fd5b505af11580156121d6573d6000803e3d6000fd5b5050600080546001600160a01b03168082526005602090815260408084205481518981529283018590529082018490526060820193909352608081019290925292506000805160206158d3833981519152915060a00160405180910390a2505b60408051878152602081018390526001600160a01b038916917f7ca7469714f3e1d8732b3a67b0599fba3be82b826137fcfa805c19afc2b20aeb910160405180910390a250505050612286612c6d565b505050565b61229433612c93565b6122b05760405162461bcd60e51b815260040161036b906153d6565b600480546040805163b302f39360e01b815290516001600160a01b039092169263b302f39392828201926000929082900301818387803b1580156118fe57600080fd5b6122fc33612c93565b6123185760405162461bcd60e51b815260040161036b906153d6565b6004805460405163177adf7f60e31b81526001600160a01b03858116938201939093526024810184905291169063bbd6fbf890604401610d08565b60008061235e612d0d565b9050610dcd81846131c6565b600080612375612d0d565b9050610dcd8184612efd565b612389612af9565b670de0b6b3a764000034101580156123ae575060646008546123ab9190615750565b34105b61242b5760405162461bcd60e51b815260206004820152604260248201527f646f6e6174696f6e206d757374206265206265747765656e2031204e4154206160448201527f6e64203125206f662074686520746f74616c20706f6f6c20636f6c6c61746572606482015261185b60f21b608482015260a40161036b565b612433614434565b60405134815233907f2a01595cddf097c90216094025db714da3f4e5bd8877b56ba86a24ecead8e5439060200160405180910390a2612470612c6d565b565b6001546001600160a01b0316331461249c5760405162461bcd60e51b815260040161036b90615391565b612470614434565b6124ac612af9565b6124b9848433858561390f565b611912612c6d565b600454600160f81b900460ff16156125115760405162461bcd60e51b8152602060048201526013602482015272185b1c9958591e481a5b9a5d1a585b1a5e9959606a1b604482015260640161036b565b600480546001600160f81b0316600160f81b179055600080546001600160a01b038089166001600160a01b03199283161790925560018054888416908316811790915560028054938816939092169290921790556125705760006125e7565b600160009054906101000a90046001600160a01b03166001600160a01b031663b5a488a66040518163ffffffff1660e01b8152600401602060405180830381865afa1580156125c3573d6000803e3d6000fd5b505050506040513d601f19601f820116820180604052508101906125e7919061567b565b6004805461ffff909316600160e01b0261ffff60e01b1963ffffffff958616600160c01b021665ffffffffffff60c01b1995909616600160a01b026001600160c01b03199094166001600160a01b039390931692909217929092179290921692909217179055505050565b60008061265d612af9565b61266885858561320f565b91509150612674612c6d565b935093915050565b612684612af9565b806000036126d45760405162461bcd60e51b815260206004820152601960248201527f7a65726f20662d61737365742064656274207061796d656e7400000000000000604482015260640161036b565b336000908152600560205260409020548111156127335760405162461bcd60e51b815260206004820152601e60248201527f6465627420662d61737365742062616c616e636520746f6f20736d616c6c0000604482015260640161036b565b6002546040516352adac0760e11b81526000916001600160a01b03169063a55b580e9061276890339030908790600401615698565b6040805180830381865afa158015612784573d6000803e3d6000fd5b505050506040513d601f19601f820116820180604052508101906127a891906156bc565b91506127b6905081836154bb565b600254604051636eb1769f60e11b81523360048201523060248201526001600160a01b039091169063dd62ed3e90604401602060405180830381865afa158015612804573d6000803e3d6000fd5b505050506040513d601f19601f8201168201806040525081019061282891906153bd565b10156128465760405162461bcd60e51b815260040161036b906156e0565b6128503383614652565b61285b3330846142ce565b336000818152600560209081526040808320548151848152928301849052908201869052606082015260808101919091527f8837aea61d24df2daef4ee681be933e5ea5c7ebe3cde964adef015dad51fe7859060a00160405180910390a250610c57612c6d565b6001546001600160a01b031633146128ec5760405162461bcd60e51b815260040161036b90615391565b6128f4612af9565b6004546001600160a01b0382811691161461155257600480546040516370a0823160e01b815230928101929092526000916001600160a01b03909116906370a0823190602401602060405180830381865afa158015612957573d6000803e3d6000fd5b505050506040513d601f19601f8201168201806040525081019061297b91906153bd565b6004805460ff60f01b198116600160f01b178255604051632e1a7d4d60e01b81529293506001600160a01b031691632e1a7d4d916129bf9185910190815260200190565b600060405180830381600087803b1580156129d957600080fd5b505af11580156129ed573d6000803e3d6000fd5b50506004805460ff60f01b1916815560408051630d0e30db60e41b815290516001600160a01b038716945063d0e30db09350859282810192600092919082900301818588803b158015612a3f57600080fd5b505af1158015612a53573d6000803e3d6000fd5b5050600480546001600160a01b0319166001600160a01b03878116918217835560015460005460405163053fe26160e31b81529083169481019490945260248401929092521693506329ff130892506044019050600060405180830381600087803b158015612ac157600080fd5b505af1158015612ad5573d6000803e3d6000fd5b5050505050610c57612c6d565b600080612aed612d0d565b9050610dcd8184614693565b7f0cd2207518cd3e5213e2c6dbe63d55b60aa893c194a427b7d7f1600408fd5bde805460011901612b6c5760405162461bcd60e51b815260206004820152601f60248201527f5265656e7472616e637947756172643a207265656e7472616e742063616c6c00604482015260640161036b565b60029055565b612b7a61472e565b8015611275576000826001600160a01b031682620186a090604051600060405180830381858888f193505050503d8060008114612bd3576040519150601f19603f3d011682016040523d82523d6000602084013e612bd8565b606091505b50509050806122865760405162461bcd60e51b815260206004820152600f60248201526e1d1c985b9cd9995c8819985a5b1959608a1b604482015260640161036b565b604080516001600160a01b038416602482015260448082018490528251808303909101815260649091019091526020810180516001600160e01b031663a9059cbb60e01b17905261228690849061479f565b60017f0cd2207518cd3e5213e2c6dbe63d55b60aa893c194a427b7d7f1600408fd5bde55565b6001546000805460405163d6b93a9f60e01b81526001600160a01b03918216600482015284821660248201529192169063d6b93a9f90604401602060405180830381865afa158015612ce9573d6000803e3d6000fd5b505050506040513d601f19601f82011682018060405250810190610ca69190615764565b612d5560405180610100016040528060008152602001600081526020016000815260200160008152602001600081526020016000815260200160008152602001600081525090565b60075460015460408051628c4abb60e21b8152815160009384936001600160a01b03909116926302312aec92600480830193928290030181865afa158015612da1573d6000803e3d6000fd5b505050506040513d601f19601f82011682018060405250810190612dc591906156bc565b91509150604051806101000160405280612ddd614874565b8152600354604080516318160ddd60e01b815290516020938401936001600160a01b03909316926318160ddd92600480820193918290030181865afa158015612e2a573d6000803e3d6000fd5b505050506040513d601f19601f82011682018060405250810190612e4e91906153bd565b815260015460005460405163769bb15560e11b81526001600160a01b03918216600482015260209093019291169063ed3762aa90602401602060405180830381865afa158015612ea2573d6000803e3d6000fd5b505050506040513d601f19601f82011682018060405250810190612ec691906153bd565b8152602001600854815260200184815260200160065485612ee791906154bb565b8152602081019390935260409092015292915050565b6003546040516370a0823160e01b81526001600160a01b03838116600483015260009283929116906370a0823190602401602060405180830381865afa158015612f4b573d6000803e3d6000fd5b505050506040513d601f19601f82011682018060405250810190612f6f91906153bd565b905080600003612f83576000915050610ca6565b6001600160a01b03831660009081526005602052604081205490819003612fac57509050610ca6565b6000612fcb8387602001518860a0015161301d9092919063ffffffff16565b90506000612fd98284613003565b9050612ff8818860a00151896020015161301d9092919063ffffffff16565b979650505050505050565b6000818311613013576000610dcd565b610dcd82846154a8565b60008082116130615760405162461bcd60e51b815260206004820152601060248201526f4469766973696f6e206279207a65726f60801b604482015260640161036b565b8360000361307157506000610dcd565b838302838582816130845761308461573a565b04036130a2578281816130995761309961573a565b04915050610dcd565b5060006130af8386615750565b905060006130bd8487615781565b905060006130cb8587615750565b905060006130d98688615781565b9050856130e68285615795565b6130f09190615750565b6130fa8385615795565b6131048387615795565b8861310f8689615795565b6131199190615795565b61312391906154bb565b61312d91906154bb565b61313791906154bb565b98975050505050505050565b6000613155836000856000015161490d565b156131b1576040830151835160c08501516131aa929161317491615795565b61271085876060015161318791906154a8565b8760e001516131969190615795565b6131a09190615795565b610dc89190615750565b9050610ca6565b606083015160408401516131aa91849061301d565b6000806131d38484614693565b6001600160a01b0384166000908152600560205260409020549091506132066131fc8383613003565b86608001516142b8565b95945050505050565b600080600085116132585760405162461bcd60e51b8152602060048201526013602482015272746f6b656e207368617265206973207a65726f60681b604482015260640161036b565b6003546040516370a0823160e01b81523360048201526001600160a01b03909116906370a0823190602401602060405180830381865afa1580156132a0573d6000803e3d6000fd5b505050506040513d601f19601f820116820180604052508101906132c491906153bd565b85111561330b5760405162461bcd60e51b8152602060048201526015602482015274746f6b656e2062616c616e636520746f6f206c6f7760581b604482015260640161036b565b6000613315612d0d565b90506133218187614950565b6000613340826060015183602001518961301d9092919063ffffffff16565b9050600081116133625760405162461bcd60e51b815260040161036b906157ac565b61336c82826149e2565b600260009054906101000a90046001600160a01b03166001600160a01b031663194307bf6040518163ffffffff1660e01b8152600401602060405180830381865afa1580156133bf573d6000803e3d6000fd5b505050506040513d601f19601f820116820180604052508101906133e39190615764565b15613466576003546040516376fd4fdf60e01b81526001600160a01b03909116906376fd4fdf9061341d9033908b90600190600401615717565b600060405180830381600087803b15801561343757600080fd5b505af115801561344b573d6000803e3d6000fd5b505050506134598682614a72565b9250600091506126749050565b6134758282846000015161490d565b6134cd5760405162461bcd60e51b815260206004820152602360248201527f636f6c6c61746572616c20726174696f2066616c6c732062656c6f77206578696044820152623a21a960e91b606482015260840161036b565b6000806134dc84338b8a6144ca565b909250905080156134f2576134f23089836142ce565b8115613502576135023383614652565b6003546040516376fd4fdf60e01b81526001600160a01b03909116906376fd4fdf906135379033908d90600090600401615717565b600060405180830381600087803b15801561355157600080fd5b505af1158015613565573d6000803e3d6000fd5b505050506135738884614a72565b3360008181526005602090815260408083205481518e8152928301889052908201859052606082019290925260808101919091526000805160206158d38339815191529060a00160405180910390a291989197509095505050505050565b6000805160206158b3833981519152546001600160a01b031690565b6001546001600160a01b03163314610c575760405162461bcd60e51b815260040161036b90615391565b7f4910fdfa16fed3260ed0e7147f7cc6da11a60208b5b9406d12a635614ffd91435460ff161561364a5761228683614b13565b826001600160a01b03166352d1902d6040518163ffffffff1660e01b8152600401602060405180830381865afa9250505080156136a4575060408051601f3d908101601f191682019092526136a1918101906153bd565b60015b6137075760405162461bcd60e51b815260206004820152602e60248201527f45524331393637557067726164653a206e657720696d706c656d656e7461746960448201526d6f6e206973206e6f74205555505360901b606482015260840161036b565b6000805160206158b383398151915281146137765760405162461bcd60e51b815260206004820152602960248201527f45524331393637557067726164653a20756e737570706f727465642070726f786044820152681a58589b195555525160ba1b606482015260840161036b565b50612286838383614baf565b600082116137d25760405162461bcd60e51b815260206004820181905260248201527f747279696e6720746f207769746864726177207a65726f20662d617373657473604482015260640161036b565b60006137dc612d0d565b905060006137ea82336131c6565b90508084111561383c5760405162461bcd60e51b815260206004820152601e60248201527f6672656520662d61737365742062616c616e636520746f6f20736d616c6c0000604482015260640161036b565b61384633856143ea565b6138513084866142ce565b336000818152600560209081526040808320548151848152928301849052908201889052606082019290925260808101919091526000805160206158d38339815191529060a00160405180910390a250505050565b600063ffffffff82111561390b5760405162461bcd60e51b815260206004820152602660248201527f53616665436173743a2076616c756520646f65736e27742066697420696e203360448201526532206269747360d01b606482015260840161036b565b5090565b600085116139555760405162461bcd60e51b8152602060048201526013602482015272746f6b656e207368617265206973207a65726f60681b604482015260640161036b565b6003546040516370a0823160e01b81523360048201526001600160a01b03909116906370a0823190602401602060405180830381865afa15801561399d573d6000803e3d6000fd5b505050506040513d601f19601f820116820180604052508101906139c191906153bd565b851115613a085760405162461bcd60e51b8152602060048201526015602482015274746f6b656e2062616c616e636520746f6f206c6f7760581b604482015260640161036b565b6000613a12612d0d565b90506000613a33878360200151846060015161301d9092919063ffffffff16565b905060008111613a555760405162461bcd60e51b815260040161036b906157ac565b60015460008054604051631e8bee0160e01b81526001600160a01b03918216600482015291921690631e8bee0190602401602060405180830381865afa158015613aa3573d6000803e3d6000fd5b505050506040513d601f19601f82011682018060405250810190613ac791906153bd565b90506000613ad58484613143565b905080821015613bc6575080613aeb8482614bd4565b925060008311613b745760405162461bcd60e51b815260206004820152604860248201527f616d6f756e74206f662073656e7420746f6b656e7320697320746f6f20736d6160448201527f6c6c206166746572206167656e74206d617820726564656d7074696f6e20636f606482015267393932b1ba34b7b760c11b608482015260a40161036b565b60608401516020850151613b8991859061301d565b6040805182815260208101849052919a507f7543f09ac709677c25f5aa8284e92f885eae7c7496789dd47cf87e28e5a1cf1c910160405180910390a15b613bd084846149e2565b613bda848a614950565b6000613be685336131c6565b9050600080613bf887338e60006144ca565b9150915083831015613ded576000613c1084866154a8565b6002546040516352adac0760e11b81529192506000916001600160a01b039091169063a55b580e90613c4a90339030908790600401615698565b6040805180830381865afa158015613c66573d6000803e3d6000fd5b505050506040513d601f19601f82011682018060405250810190613c8a91906156bc565b9150613c98905081836154bb565b600254604051636eb1769f60e11b81523360048201523060248201526001600160a01b039091169063dd62ed3e90604401602060405180830381865afa158015613ce6573d6000803e3d6000fd5b505050506040513d601f19601f82011682018060405250810190613d0a91906153bd565b1015613d285760405162461bcd60e51b815260040161036b906156e0565b600254604051634b9a2c3760e11b81526000916001600160a01b031690639734586e90613d5d90339030908890600401615698565b6020604051808303816000875af1158015613d7c573d6000803e3d6000fd5b505050506040513d601f19601f82011682018060405250810190613da09190615764565b905080613de95760405162461bcd60e51b8152602060048201526017602482015276198b585cdcd95d081d1c985b9cd9995c8819985a5b1959604a1b604482015260640161036b565b5050505b8315613f7857600160009054906101000a90046001600160a01b03166001600160a01b0316634942f65f6040518163ffffffff1660e01b8152600401602060405180830381865afa158015613e46573d6000803e3d6000fd5b505050506040513d601f19601f82011682018060405250810190613e6a91906153bd565b841080613e7457508a5b15613ee857600154600054604051630ed000b360e41b81526001600160a01b039283169263ed000b3092613eb1929116908e908990600401615698565b600060405180830381600087803b158015613ecb57600080fd5b505af1158015613edf573d6000803e3d6000fd5b50505050613f78565b600160009054906101000a90046001600160a01b03166001600160a01b031663997be0f43460008054906101000a90046001600160a01b03168d888e8e6040518763ffffffff1660e01b8152600401613f4595949392919061583e565b6000604051808303818588803b158015613f5e57600080fd5b505af1158015613f72573d6000803e3d6000fd5b50505050505b6000613f8485856142b8565b90508015613fd6578060076000828254613f9e91906154a8565b90915550613fae905033826143ea565b6000613fba82846142b8565b9050613fc681846154a8565b9250613fd281856154bb565b9350505b8115613fe757613fe7308c846142ce565b8215613ff757613ff73384614652565b600360009054906101000a90046001600160a01b03166001600160a01b03166376fd4fdf338f60006040518463ffffffff1660e01b815260040161403d93929190615717565b600060405180830381600087803b15801561405757600080fd5b505af115801561406b573d6000803e3d6000fd5b505050506140798b88614a72565b336001600160a01b03166000805160206158d38339815191528e89848960056000336001600160a01b03166001600160a01b03168152602001908152602001600020546040516140eb959493929190948552602085019390935260408401919091526060830152608082015260a00190565b60405180910390a250505050505050505050505050565b600061ffff82111561390b5760405162461bcd60e51b815260206004820152602660248201527f53616665436173743a2076616c756520646f65736e27742066697420696e203160448201526536206269747360d01b606482015260840161036b565b60008083606001516000148061417d57506020840151155b600454604086015160c08701519293506000926141b192600160c01b900463ffffffff16916141ab91615795565b90614c34565b905060008560e0015186606001516141c99190615795565b82116141d65760006141f4565b606086015160e08701516141ea9084615750565b6141f491906154a8565b9050600061420286836142b8565b905060006142108783613003565b60045490915060009061423390849061271090600160e01b900461ffff1661301d565b90506000866142565760608a015160208b015161425191849061301d565b614258565b815b90506000878015614267575081155b61429b5761429684868d6060015161427f91906154bb565b848e6020015161428f91906154bb565b919061301d565b61429d565b835b90506142a981836154bb565b9b9a5050505050505050505050565b60008183106142c75781610dcd565b5090919050565b801561228657306001600160a01b038416036143125780600760008282546142f691906154a8565b9091555050600254612286906001600160a01b03168383612c1b565b806007600082825461432491906154bb565b9091555050600254604051634b9a2c3760e11b81526000916001600160a01b031690639734586e9061435e90879087908790600401615698565b6020604051808303816000875af115801561437d573d6000803e3d6000fd5b505050506040513d601f19601f820116820180604052508101906143a19190615764565b9050806119125760405162461bcd60e51b8152602060048201526017602482015276198b585cdcd95d081d1c985b9cd9995c8819985a5b1959604a1b604482015260640161036b565b6001600160a01b038216600090815260056020526040812080548392906144129084906154bb565b92505081905550806006600082825461442b91906154bb565b90915550505050565b341561247057346008600082825461444c91906154bb565b90915550506004805460408051630d0e30db60e41b815290516001600160a01b039092169263d0e30db0923492808301926000929182900301818588803b1580156116d357600080fd5b80156112755780600860008282546144ae91906154a8565b9091555050600454611275906001600160a01b03168383612c1b565b60008060006144d98787614693565b6001600160a01b038781166000818152600560205260408082205460035491516370a0823160e01b81526004810194909452949550909216906370a0823190602401602060405180830381865afa158015614538573d6000803e3d6000fd5b505050506040513d601f19601f8201168201806040525081019061455c91906153bd565b9050806000036145755760008094509450505050614649565b600061458284898461301d565b90506000876002811115614598576145986154ce565b036145c95760006145a98585613003565b90506145b582826142b8565b95506145c186836154a8565b965050614628565b60018760028111156145dd576145dd6154ce565b036145ff576145ec81846142b8565b95506145f886826154a8565b9450614628565b6000841161460e576000614619565b61461983828661301d565b95506146258187613003565b94505b614634856007546142b8565b9450614642866006546142b8565b9550505050505b94509492505050565b6001600160a01b0382166000908152600560205260408120805483929061467a9084906154a8565b92505081905550806006600082825461442b91906154a8565b6003546040516370a0823160e01b81526001600160a01b03838116600483015260009283929116906370a0823190602401602060405180830381865afa1580156146e1573d6000803e3d6000fd5b505050506040513d601f19601f8201168201806040525081019061470591906153bd565b905080600003614719576000915050610ca6565b602084015160a085015161152991839061301d565b7f0cd2207518cd3e5213e2c6dbe63d55b60aa893c194a427b7d7f1600408fd5bde546002146124705760405162461bcd60e51b815260206004820152601f60248201527f5265656e7472616e637947756172643a20677561726420726571756972656400604482015260640161036b565b60006147f4826040518060400160405280602081526020017f5361666545524332303a206c6f772d6c6576656c2063616c6c206661696c6564815250856001600160a01b0316614c439092919063ffffffff16565b90508051600014806148155750808060200190518101906148159190615764565b6122865760405162461bcd60e51b815260206004820152602a60248201527f5361666545524332303a204552433230206f7065726174696f6e20646964206e6044820152691bdd081cdd58d8d9595960b21b606482015260840161036b565b6001546000805460405163cd71593560e01b81526001600160a01b0391821660048201529192839291169063cd71593590602401602060405180830381865afa1580156148c5573d6000803e3d6000fd5b505050506040513d601f19601f820116820180604052508101906148e991906153bd565b600454909150614907908290600160a01b900463ffffffff16614c52565b91505090565b6000614927828560c0015186604001516141ab9190615795565b8460e0015184866060015161493c91906154a8565b6149469190615795565b1015949350505050565b80826020015114806149795750670de0b6b3a764000081836020015161497691906154a8565b10155b6112755760405162461bcd60e51b815260206004820152603460248201527f746f6b656e20737570706c79206c656674206166746572206578697420697320604482015273746f6f206c6f7720616e64206e6f6e2d7a65726f60601b606482015260840161036b565b8082606001511480614a0b5750670de0b6b3a7640000818360600151614a0891906154a8565b10155b6112755760405162461bcd60e51b815260206004820152603260248201527f636f6c6c61746572616c206c656674206166746572206578697420697320746f6044820152716f206c6f7720616e64206e6f6e2d7a65726f60701b606482015260840161036b565b8015611275578060086000828254614a8a91906154a8565b909155505060048054600160f01b60ff60f01b198216178255604051632e1a7d4d60e01b81529182018390526001600160a01b031690632e1a7d4d90602401600060405180830381600087803b158015614ae357600080fd5b505af1158015614af7573d6000803e3d6000fd5b50506004805460ff60f01b191690555061127590508282612b72565b6001600160a01b0381163b614b805760405162461bcd60e51b815260206004820152602d60248201527f455243313936373a206e657720696d706c656d656e746174696f6e206973206e60448201526c1bdd08184818dbdb9d1c9858dd609a1b606482015260840161036b565b6000805160206158b383398151915280546001600160a01b0319166001600160a01b0392909216919091179055565b614bb883614c61565b600082511180614bc55750805b15612286576119128383614ca1565b6000614be6836000856000015161490d565b15614c1f576131aa83606001518460e001516131a08660000151868860400151614c1091906154a8565b8860c001516141ab9190615795565b604083015160608401516131aa91849061301d565b6000610dcd838361271061301d565b60606115298484600085614cc6565b60008183116142c75781610dcd565b614c6a81614b13565b6040516001600160a01b038216907fbc7cd75a20ee27fd9adebab32041f755214dbc6bffa90cc0225b39da2e5c2d3b90600090a250565b6060610dcd83836040518060600160405280602781526020016158f360279139614d96565b606082471015614d275760405162461bcd60e51b815260206004820152602660248201527f416464726573733a20696e73756666696369656e742062616c616e636520666f6044820152651c8818d85b1b60d21b606482015260840161036b565b600080866001600160a01b03168587604051614d439190615883565b60006040518083038185875af1925050503d8060008114614d80576040519150601f19603f3d011682016040523d82523d6000602084013e614d85565b606091505b5091509150612ff887838387614e00565b6060600080856001600160a01b031685604051614db39190615883565b600060405180830381855af49150503d8060008114614dee576040519150601f19603f3d011682016040523d82523d6000602084013e614df3565b606091505b5091509150610e28868383875b60608315614e6f578251600003614e68576001600160a01b0385163b614e685760405162461bcd60e51b815260206004820152601d60248201527f416464726573733a2063616c6c20746f206e6f6e2d636f6e7472616374000000604482015260640161036b565b5081611529565b6115298383815115614e845781518083602001fd5b8060405162461bcd60e51b815260040161036b919061589f565b6001600160a01b0381168114610c5757600080fd5b600060208284031215614ec557600080fd5b8135610dcd81614e9e565b600060208284031215614ee257600080fd5b81356001600160e01b031981168114610dcd57600080fd5b60008060408385031215614f0d57600080fd5b8235614f1881614e9e565b946020939093013593505050565b600060208284031215614f3857600080fd5b5035919050565b803560038110614f4e57600080fd5b919050565b60008060408385031215614f6657600080fd5b82359150614f7660208401614f3f565b90509250929050565b634e487b7160e01b600052604160045260246000fd5b600067ffffffffffffffff80841115614fb057614fb0614f7f565b604051601f8501601f19908116603f01168101908282118183101715614fd857614fd8614f7f565b81604052809350858152868686011115614ff157600080fd5b858560208301376000602087830101525050509392505050565b6000806040838503121561501e57600080fd5b823561502981614e9e565b9150602083013567ffffffffffffffff81111561504557600080fd5b8301601f8101851361505657600080fd5b61506585823560208401614f95565b9150509250929050565b803562ffffff81168114614f4e57600080fd5b6000806000806060858703121561509857600080fd5b84356150a381614e9e565b93506150b16020860161506f565b9250604085013567ffffffffffffffff808211156150ce57600080fd5b818701915087601f8301126150e257600080fd5b8135818111156150f157600080fd5b8860208260051b850101111561510657600080fd5b95989497505060200194505050565b8015158114610c5757600080fd5b600082601f83011261513457600080fd5b610dcd83833560208501614f95565b600080600080600060a0868803121561515b57600080fd5b85359450602086013561516d81615115565b9350604086013561517d81614e9e565b9250606086013567ffffffffffffffff81111561519957600080fd5b6151a588828901615123565b92505060808601356151b681614e9e565b809150509295509295909350565b600080604083850312156151d757600080fd5b8235915060208301356151e981614e9e565b809150509250929050565b6000806040838503121561520757600080fd5b8235915060208301356151e981615115565b60008060006060848603121561522e57600080fd5b833561523981614e9e565b95602085013595506040909401359392505050565b6000806000806080858703121561526457600080fd5b84359350602085013561527681615115565b9250604085013567ffffffffffffffff81111561529257600080fd5b61529e87828801615123565b92505060608501356152af81614e9e565b939692955090935050565b803563ffffffff81168114614f4e57600080fd5b60008060008060008060c087890312156152e757600080fd5b86356152f281614e9e565b9550602087013561530281614e9e565b9450604087013561531281614e9e565b9350615320606088016152ba565b925061532e608088016152ba565b915060a087013561ffff8116811461534557600080fd5b809150509295509295509295565b60008060006060848603121561536857600080fd5b83359250602084013561537a81614e9e565b915061538860408501614f3f565b90509250925092565b60208082526012908201527137b7363c9030b9b9b2ba1036b0b730b3b2b960711b604082015260600190565b6000602082840312156153cf57600080fd5b5051919050565b6020808252600a90820152691bdb9b1e481859d95b9d60b21b604082015260600190565b6020808252602c908201527f46756e6374696f6e206d7573742062652063616c6c6564207468726f7567682060408201526b19195b1959d85d1958d85b1b60a21b606082015260800190565b6020808252602c908201527f46756e6374696f6e206d7573742062652063616c6c6564207468726f7567682060408201526b6163746976652070726f787960a01b606082015260800190565b634e487b7160e01b600052601160045260246000fd5b81810381811115610ca657610ca6615492565b80820180821115610ca657610ca6615492565b634e487b7160e01b600052602160045260246000fd5b62ffffff6154f18261506f565b16825260208101356bffffffffffffffffffffffff19811680821461551557600080fd5b60208401525060408101356effffffffffffffffffffffffffffff811680821461553e57600080fd5b60408401525060608101356005811061555657600080fd5b806060840152505050565b6001600160a01b038781168252861660208083019190915262ffffff86166040830152841515606083015260a06080830181905282810184905260009160c09081850190600587811b8701840189875b8a8110156156675789830360bf190186528135368d9003609e190181126155d757600080fd5b8c01803536829003601e190181126155ee57600080fd5b8101868101903567ffffffffffffffff81111561560a57600080fd5b80871b80360383131561561c57600080fd5b8b8752868c018290526001600160fb1b0382111561563957600080fd5b80838c89013761564d8988018a86016154e4565b9888019895909501890194505050908401906001016155b1565b50909e9d5050505050505050505050505050565b60006020828403121561568d57600080fd5b8151610dcd81614e9e565b6001600160a01b039384168152919092166020820152604081019190915260600190565b600080604083850312156156cf57600080fd5b505080516020909101519092909150565b6020808252601b908201527f662d617373657420616c6c6f77616e636520746f6f20736d616c6c0000000000604082015260600190565b6001600160a01b0393909316835260208301919091521515604082015260600190565b634e487b7160e01b600052601260045260246000fd5b60008261575f5761575f61573a565b500490565b60006020828403121561577657600080fd5b8151610dcd81615115565b6000826157905761579061573a565b500690565b8082028115828204841417610ca657610ca6615492565b60208082526022908201527f616d6f756e74206f662073656e7420746f6b656e7320697320746f6f20736d616040820152611b1b60f21b606082015260800190565b60005b838110156158095781810151838201526020016157f1565b50506000910152565b6000815180845261582a8160208601602086016157ee565b601f01601f19169290920160200192915050565b600060018060a01b038088168352808716602084015285604084015260a0606084015261586e60a0840186615812565b91508084166080840152509695505050505050565b600082516158958184602087016157ee565b9190910192915050565b602081526000610dcd602083018461581256fe360894a13ba1a3210667c828492db98dca3e2076cc3735a920a3ca505d382bbc3cbd229dedaa8b29b8f29100166a217701549be8e58e781f204124f23fd0154e416464726573733a206c6f772d6c6576656c2064656c65676174652063616c6c206661696c6564a2646970667358221220cdd827b5a52861c012ab267720bf676277cbfa410f8bc7bfd2b6e9e16ae77a0e64736f6c63430008170033",
  "linkReferences": {},
  "deployedLinkReferences": {}
}