{
  "_format": "hh-sol-artifact-1",
  "contractName": "CollateralPool",
  "sourceName": "contracts/assetManager/implementation/CollateralPool.sol",
  "abi": [
    {
      "inputs": [
        {
          "internalType": "address",
          "name": "_agentVault",
          "type": "address"
        },
        {
          "internalType": "address",
          "name": "_assetManager",
          "type": "address"
        },
        {
          "internalType": "address",
          "name": "_fAsset",
          "type": "address"
        },
        {
          "internalType": "uint32",
          "name": "_exitCollateralRatioBIPS",
          "type": "uint32"
        },
        {
          "internalType": "uint32",
          "name": "_topupCollateralRatioBIPS",
          "type": "uint32"
        },
        {
          "internalType": "uint16",
          "name": "_topupTokenPriceFactorBIPS",
          "type": "uint16"
        }
      ],
      "stateMutability": "nonpayable",
      "type": "constructor"
    },
    {
      "anonymous": false,
      "inputs": [
        {
          "indexed": false,
          "internalType": "address",
          "name": "previousAdmin",
          "type": "address"
        },
        {
          "indexed": false,
          "internalType": "address",
          "name": "newAdmin",
          "type": "address"
        }
      ],
      "name": "AdminChanged",
      "type": "event"
    },
    {
      "anonymous": false,
      "inputs": [
        {
          "indexed": true,
          "internalType": "address",
          "name": "beacon",
          "type": "address"
        }
      ],
      "name": "BeaconUpgraded",
      "type": "event"
    },
    {
      "anonymous": false,
      "inputs": [
        {
          "indexed": false,
          "internalType": "uint256",
          "name": "amountNatWei",
          "type": "uint256"
        },
        {
          "indexed": false,
          "internalType": "uint8",
          "name": "rewardType",
          "type": "uint8"
        }
      ],
      "name": "ClaimedReward",
      "type": "event"
    },
    {
      "anonymous": false,
      "inputs": [
        {
          "indexed": true,
          "internalType": "address",
          "name": "donator",
          "type": "address"
        },
        {
          "indexed": false,
          "internalType": "uint256",
          "name": "amountNatWei",
          "type": "uint256"
        }
      ],
      "name": "Donated",
      "type": "event"
    },
    {
      "anonymous": false,
      "inputs": [
        {
          "indexed": true,
          "internalType": "address",
          "name": "tokenHolder",
          "type": "address"
        },
        {
          "indexed": false,
          "internalType": "uint256",
          "name": "amountNatWei",
          "type": "uint256"
        },
        {
          "indexed": false,
          "internalType": "uint256",
          "name": "receivedTokensWei",
          "type": "uint256"
        },
        {
          "indexed": false,
          "internalType": "uint256",
          "name": "addedFAssetFeesUBA",
          "type": "uint256"
        },
        {
          "indexed": false,
          "internalType": "uint256",
          "name": "newFAssetFeeDebt",
          "type": "uint256"
        },
        {
          "indexed": false,
          "internalType": "uint256",
          "name": "timelockExpiresAt",
          "type": "uint256"
        }
      ],
      "name": "Entered",
      "type": "event"
    },
    {
      "anonymous": false,
      "inputs": [
        {
          "indexed": true,
          "internalType": "address",
          "name": "tokenHolder",
          "type": "address"
        },
        {
          "indexed": false,
          "internalType": "uint256",
          "name": "burnedTokensWei",
          "type": "uint256"
        },
        {
          "indexed": false,
          "internalType": "uint256",
          "name": "receivedNatWei",
          "type": "uint256"
        },
        {
          "indexed": false,
          "internalType": "uint256",
          "name": "receviedFAssetFeesUBA",
          "type": "uint256"
        },
        {
          "indexed": false,
          "internalType": "uint256",
          "name": "closedFAssetsUBA",
          "type": "uint256"
        },
        {
          "indexed": false,
          "internalType": "uint256",
          "name": "newFAssetFeeDebt",
          "type": "uint256"
        }
      ],
      "name": "Exited",
      "type": "event"
    },
    {
      "anonymous": false,
      "inputs": [
        {
          "indexed": false,
          "internalType": "uint256",
          "name": "burnedTokensWei",
          "type": "uint256"
        },
        {
          "indexed": false,
          "internalType": "uint256",
          "name": "redeemedFAssetUBA",
          "type": "uint256"
        }
      ],
      "name": "IncompleteSelfCloseExit",
      "type": "event"
    },
    {
      "anonymous": false,
      "inputs": [
        {
          "indexed": true,
          "internalType": "address",
          "name": "recipient",
          "type": "address"
        },
        {
          "indexed": false,
          "internalType": "uint256",
          "name": "paidNatWei",
          "type": "uint256"
        },
        {
          "indexed": false,
          "internalType": "uint256",
          "name": "burnedTokensWei",
          "type": "uint256"
        }
      ],
      "name": "PaidOut",
      "type": "event"
    },
    {
      "anonymous": false,
      "inputs": [
        {
          "indexed": true,
          "internalType": "address",
          "name": "implementation",
          "type": "address"
        }
      ],
      "name": "Upgraded",
      "type": "event"
    },
    {
      "inputs": [],
      "name": "MIN_NAT_BALANCE_AFTER_EXIT",
      "outputs": [
        {
          "internalType": "uint256",
          "name": "",
          "type": "uint256"
        }
      ],
      "stateMutability": "view",
      "type": "function"
    },
    {
      "inputs": [],
      "name": "MIN_NAT_TO_ENTER",
      "outputs": [
        {
          "internalType": "uint256",
          "name": "",
          "type": "uint256"
        }
      ],
      "stateMutability": "view",
      "type": "function"
    },
    {
      "inputs": [],
      "name": "MIN_TOKEN_SUPPLY_AFTER_EXIT",
      "outputs": [
        {
          "internalType": "uint256",
          "name": "",
          "type": "uint256"
        }
      ],
      "stateMutability": "view",
      "type": "function"
    },
    {
      "inputs": [],
      "name": "agentVault",
      "outputs": [
        {
          "internalType": "address",
          "name": "",
          "type": "address"
        }
      ],
      "stateMutability": "view",
      "type": "function"
    },
    {
      "inputs": [],
      "name": "assetManager",
      "outputs": [
        {
          "internalType": "contract IIAssetManager",
          "name": "",
          "type": "address"
        }
      ],
      "stateMutability": "view",
      "type": "function"
    },
    {
      "inputs": [
        {
          "internalType": "contract IDistributionToDelegators",
          "name": "_distribution",
          "type": "address"
        },
        {
          "internalType": "uint256",
          "name": "_month",
          "type": "uint256"
        }
      ],
      "name": "claimAirdropDistribution",
      "outputs": [
        {
          "internalType": "uint256",
          "name": "",
          "type": "uint256"
        }
      ],
      "stateMutability": "nonpayable",
      "type": "function"
    },
    {
      "inputs": [
        {
          "internalType": "contract IRewardManager",
          "name": "_rewardManager",
          "type": "address"
        },
        {
          "internalType": "uint24",
          "name": "_lastRewardEpoch",
          "type": "uint24"
        },
        {
          "components": [
            {
              "internalType": "bytes32[]",
              "name": "merkleProof",
              "type": "bytes32[]"
            },
            {
              "components": [
                {
                  "internalType": "uint24",
                  "name": "rewardEpochId",
                  "type": "uint24"
                },
                {
                  "internalType": "bytes20",
                  "name": "beneficiary",
                  "type": "bytes20"
                },
                {
                  "internalType": "uint120",
                  "name": "amount",
                  "type": "uint120"
                },
                {
                  "internalType": "enum RewardsV2Interface.ClaimType",
                  "name": "claimType",
                  "type": "uint8"
                }
              ],
              "internalType": "struct RewardsV2Interface.RewardClaim",
              "name": "body",
              "type": "tuple"
            }
          ],
          "internalType": "struct RewardsV2Interface.RewardClaimWithProof[]",
          "name": "_proofs",
          "type": "tuple[]"
        }
      ],
      "name": "claimDelegationRewards",
      "outputs": [
        {
          "internalType": "uint256",
          "name": "",
          "type": "uint256"
        }
      ],
      "stateMutability": "nonpayable",
      "type": "function"
    },
    {
      "inputs": [
        {
          "internalType": "address",
          "name": "_account",
          "type": "address"
        }
      ],
      "name": "debtFreeTokensOf",
      "outputs": [
        {
          "internalType": "uint256",
          "name": "",
          "type": "uint256"
        }
      ],
      "stateMutability": "view",
      "type": "function"
    },
    {
      "inputs": [
        {
          "internalType": "address",
          "name": "_account",
          "type": "address"
        }
      ],
      "name": "debtLockedTokensOf",
      "outputs": [
        {
          "internalType": "uint256",
          "name": "",
          "type": "uint256"
        }
      ],
      "stateMutability": "view",
      "type": "function"
    },
    {
      "inputs": [
        {
          "internalType": "address",
          "name": "_to",
          "type": "address"
        },
        {
          "internalType": "uint256",
          "name": "_bips",
          "type": "uint256"
        }
      ],
      "name": "delegate",
      "outputs": [],
      "stateMutability": "nonpayable",
      "type": "function"
    },
    {
      "inputs": [
        {
          "internalType": "address",
          "name": "_to",
          "type": "address"
        }
      ],
      "name": "delegateGovernance",
      "outputs": [],
      "stateMutability": "nonpayable",
      "type": "function"
    },
    {
      "inputs": [],
      "name": "depositNat",
      "outputs": [],
      "stateMutability": "payable",
      "type": "function"
    },
    {
      "inputs": [
        {
          "internalType": "address payable",
          "name": "_recipient",
          "type": "address"
        }
      ],
      "name": "destroy",
      "outputs": [],
      "stateMutability": "nonpayable",
      "type": "function"
    },
    {
      "inputs": [],
      "name": "donateNat",
      "outputs": [],
      "stateMutability": "payable",
      "type": "function"
    },
    {
      "inputs": [
        {
          "internalType": "uint256",
          "name": "_fAssets",
          "type": "uint256"
        },
        {
          "internalType": "bool",
          "name": "_enterWithFullFAssets",
          "type": "bool"
        }
      ],
      "name": "enter",
      "outputs": [
        {
          "internalType": "uint256",
          "name": "",
          "type": "uint256"
        },
        {
          "internalType": "uint256",
          "name": "",
          "type": "uint256"
        }
      ],
      "stateMutability": "payable",
      "type": "function"
    },
    {
      "inputs": [
        {
          "internalType": "uint256",
          "name": "_tokenShare",
          "type": "uint256"
        },
        {
          "internalType": "enum ICollateralPool.TokenExitType",
          "name": "_exitType",
          "type": "uint8"
        }
      ],
      "name": "exit",
      "outputs": [
        {
          "internalType": "uint256",
          "name": "",
          "type": "uint256"
        },
        {
          "internalType": "uint256",
          "name": "",
          "type": "uint256"
        }
      ],
      "stateMutability": "nonpayable",
      "type": "function"
    },
    {
      "inputs": [],
      "name": "exitCollateralRatioBIPS",
      "outputs": [
        {
          "internalType": "uint32",
          "name": "",
          "type": "uint32"
        }
      ],
      "stateMutability": "view",
      "type": "function"
    },
    {
      "inputs": [
        {
          "internalType": "uint256",
          "name": "_tokenShare",
          "type": "uint256"
        },
        {
          "internalType": "address payable",
          "name": "_recipient",
          "type": "address"
        },
        {
          "internalType": "enum ICollateralPool.TokenExitType",
          "name": "_exitType",
          "type": "uint8"
        }
      ],
      "name": "exitTo",
      "outputs": [
        {
          "internalType": "uint256",
          "name": "",
          "type": "uint256"
        },
        {
          "internalType": "uint256",
          "name": "",
          "type": "uint256"
        }
      ],
      "stateMutability": "nonpayable",
      "type": "function"
    },
    {
      "inputs": [],
      "name": "fAsset",
      "outputs": [
        {
          "internalType": "contract IFAsset",
          "name": "",
          "type": "address"
        }
      ],
      "stateMutability": "view",
      "type": "function"
    },
    {
      "inputs": [
        {
          "internalType": "address",
          "name": "_account",
          "type": "address"
        }
      ],
      "name": "fAssetFeeDebtOf",
      "outputs": [
        {
          "internalType": "uint256",
          "name": "",
          "type": "uint256"
        }
      ],
      "stateMutability": "view",
      "type": "function"
    },
    {
      "inputs": [
        {
          "internalType": "uint256",
          "name": "_amount",
          "type": "uint256"
        }
      ],
      "name": "fAssetFeeDeposited",
      "outputs": [],
      "stateMutability": "nonpayable",
      "type": "function"
    },
    {
      "inputs": [
        {
          "internalType": "address",
          "name": "_account",
          "type": "address"
        }
      ],
      "name": "fAssetFeesOf",
      "outputs": [
        {
          "internalType": "uint256",
          "name": "",
          "type": "uint256"
        }
      ],
      "stateMutability": "view",
      "type": "function"
    },
    {
      "inputs": [
        {
          "internalType": "uint256",
          "name": "_tokenAmountWei",
          "type": "uint256"
        }
      ],
      "name": "fAssetRequiredForSelfCloseExit",
      "outputs": [
        {
          "internalType": "uint256",
          "name": "",
          "type": "uint256"
        }
      ],
      "stateMutability": "view",
      "type": "function"
    },
    {
      "inputs": [],
      "name": "implementation",
      "outputs": [
        {
          "internalType": "address",
          "name": "",
          "type": "address"
        }
      ],
      "stateMutability": "view",
      "type": "function"
    },
    {
      "inputs": [
        {
          "internalType": "address",
          "name": "_agentVault",
          "type": "address"
        },
        {
          "internalType": "address",
          "name": "_assetManager",
          "type": "address"
        },
        {
          "internalType": "address",
          "name": "_fAsset",
          "type": "address"
        },
        {
          "internalType": "uint32",
          "name": "_exitCollateralRatioBIPS",
          "type": "uint32"
        },
        {
          "internalType": "uint32",
          "name": "_topupCollateralRatioBIPS",
          "type": "uint32"
        },
        {
          "internalType": "uint16",
          "name": "_topupTokenPriceFactorBIPS",
          "type": "uint16"
        }
      ],
      "name": "initialize",
      "outputs": [],
      "stateMutability": "nonpayable",
      "type": "function"
    },
    {
      "inputs": [
        {
          "internalType": "contract IDistributionToDelegators",
          "name": "_distribution",
          "type": "address"
        }
      ],
      "name": "optOutOfAirdrop",
      "outputs": [],
      "stateMutability": "nonpayable",
      "type": "function"
    },
    {
      "inputs": [
        {
          "internalType": "uint256",
          "name": "_fAssets",
          "type": "uint256"
        }
      ],
      "name": "payFAssetFeeDebt",
      "outputs": [],
      "stateMutability": "nonpayable",
      "type": "function"
    },
    {
      "inputs": [
        {
          "internalType": "address",
          "name": "_recipient",
          "type": "address"
        },
        {
          "internalType": "uint256",
          "name": "_amount",
          "type": "uint256"
        },
        {
          "internalType": "uint256",
          "name": "_agentResponsibilityWei",
          "type": "uint256"
        }
      ],
      "name": "payout",
      "outputs": [],
      "stateMutability": "nonpayable",
      "type": "function"
    },
    {
      "inputs": [],
      "name": "poolToken",
      "outputs": [
        {
          "internalType": "contract ICollateralPoolToken",
          "name": "",
          "type": "address"
        }
      ],
      "stateMutability": "view",
      "type": "function"
    },
    {
      "inputs": [],
      "name": "proxiableUUID",
      "outputs": [
        {
          "internalType": "bytes32",
          "name": "",
          "type": "bytes32"
        }
      ],
      "stateMutability": "view",
      "type": "function"
    },
    {
      "inputs": [
        {
          "internalType": "address",
          "name": "_who",
          "type": "address"
        },
        {
          "internalType": "uint256",
          "name": "_blockNumber",
          "type": "uint256"
        }
      ],
      "name": "revokeDelegationAt",
      "outputs": [],
      "stateMutability": "nonpayable",
      "type": "function"
    },
    {
      "inputs": [
        {
          "internalType": "uint256",
          "name": "_tokenShare",
          "type": "uint256"
        },
        {
          "internalType": "bool",
          "name": "_redeemToCollateral",
          "type": "bool"
        },
        {
          "internalType": "string",
          "name": "_redeemerUnderlyingAddress",
          "type": "string"
        },
        {
          "internalType": "address payable",
          "name": "_executor",
          "type": "address"
        }
      ],
      "name": "selfCloseExit",
      "outputs": [],
      "stateMutability": "payable",
      "type": "function"
    },
    {
      "inputs": [
        {
          "internalType": "uint256",
          "name": "_tokenShare",
          "type": "uint256"
        },
        {
          "internalType": "bool",
          "name": "_redeemToCollateral",
          "type": "bool"
        },
        {
          "internalType": "address payable",
          "name": "_recipient",
          "type": "address"
        },
        {
          "internalType": "string",
          "name": "_redeemerUnderlyingAddress",
          "type": "string"
        },
        {
          "internalType": "address payable",
          "name": "_executor",
          "type": "address"
        }
      ],
      "name": "selfCloseExitTo",
      "outputs": [],
      "stateMutability": "payable",
      "type": "function"
    },
    {
      "inputs": [
        {
          "internalType": "uint256",
          "name": "_exitCollateralRatioBIPS",
          "type": "uint256"
        }
      ],
      "name": "setExitCollateralRatioBIPS",
      "outputs": [],
      "stateMutability": "nonpayable",
      "type": "function"
    },
    {
      "inputs": [
        {
          "internalType": "address",
          "name": "_poolToken",
          "type": "address"
        }
      ],
      "name": "setPoolToken",
      "outputs": [],
      "stateMutability": "nonpayable",
      "type": "function"
    },
    {
      "inputs": [
        {
          "internalType": "uint256",
          "name": "_topupCollateralRatioBIPS",
          "type": "uint256"
        }
      ],
      "name": "setTopupCollateralRatioBIPS",
      "outputs": [],
      "stateMutability": "nonpayable",
      "type": "function"
    },
    {
      "inputs": [
        {
          "internalType": "uint256",
          "name": "_topupTokenPriceFactorBIPS",
          "type": "uint256"
        }
      ],
      "name": "setTopupTokenPriceFactorBIPS",
      "outputs": [],
      "stateMutability": "nonpayable",
      "type": "function"
    },
    {
      "inputs": [
        {
          "internalType": "bytes4",
          "name": "_interfaceId",
          "type": "bytes4"
        }
      ],
      "name": "supportsInterface",
      "outputs": [
        {
          "internalType": "bool",
          "name": "",
          "type": "bool"
        }
      ],
      "stateMutability": "pure",
      "type": "function"
    },
    {
      "inputs": [],
      "name": "token",
      "outputs": [
        {
          "internalType": "contract IICollateralPoolToken",
          "name": "",
          "type": "address"
        }
      ],
      "stateMutability": "view",
      "type": "function"
    },
    {
      "inputs": [],
      "name": "topupCollateralRatioBIPS",
      "outputs": [
        {
          "internalType": "uint32",
          "name": "",
          "type": "uint32"
        }
      ],
      "stateMutability": "view",
      "type": "function"
    },
    {
      "inputs": [],
      "name": "topupTokenPriceFactorBIPS",
      "outputs": [
        {
          "internalType": "uint16",
          "name": "",
          "type": "uint16"
        }
      ],
      "stateMutability": "view",
      "type": "function"
    },
    {
      "inputs": [],
      "name": "totalCollateral",
      "outputs": [
        {
          "internalType": "uint256",
          "name": "",
          "type": "uint256"
        }
      ],
      "stateMutability": "view",
      "type": "function"
    },
    {
      "inputs": [],
      "name": "totalFAssetFeeDebt",
      "outputs": [
        {
          "internalType": "uint256",
          "name": "",
          "type": "uint256"
        }
      ],
      "stateMutability": "view",
      "type": "function"
    },
    {
      "inputs": [],
      "name": "totalFAssetFees",
      "outputs": [
        {
          "internalType": "uint256",
          "name": "",
          "type": "uint256"
        }
      ],
      "stateMutability": "view",
      "type": "function"
    },
    {
      "inputs": [],
      "name": "undelegateAll",
      "outputs": [],
      "stateMutability": "nonpayable",
      "type": "function"
    },
    {
      "inputs": [],
      "name": "undelegateGovernance",
      "outputs": [],
      "stateMutability": "nonpayable",
      "type": "function"
    },
    {
      "inputs": [
        {
          "internalType": "address",
          "name": "newImplementation",
          "type": "address"
        }
      ],
      "name": "upgradeTo",
      "outputs": [],
      "stateMutability": "nonpayable",
      "type": "function"
    },
    {
      "inputs": [
        {
          "internalType": "address",
          "name": "newImplementation",
          "type": "address"
        },
        {
          "internalType": "bytes",
          "name": "data",
          "type": "bytes"
        }
      ],
      "name": "upgradeToAndCall",
      "outputs": [],
      "stateMutability": "payable",
      "type": "function"
    },
    {
      "inputs": [
        {
          "internalType": "contract IWNat",
          "name": "_newWNat",
          "type": "address"
        }
      ],
      "name": "upgradeWNatContract",
      "outputs": [],
      "stateMutability": "nonpayable",
      "type": "function"
    },
    {
      "inputs": [
        {
          "internalType": "address",
          "name": "_account",
          "type": "address"
        }
      ],
      "name": "virtualFAssetOf",
      "outputs": [
        {
          "internalType": "uint256",
          "name": "",
          "type": "uint256"
        }
      ],
      "stateMutability": "view",
      "type": "function"
    },
    {
      "inputs": [],
      "name": "wNat",
      "outputs": [
        {
          "internalType": "contract IWNat",
          "name": "",
          "type": "address"
        }
      ],
      "stateMutability": "view",
      "type": "function"
    },
    {
      "inputs": [
        {
          "internalType": "uint256",
          "name": "_fAssets",
          "type": "uint256"
        }
      ],
      "name": "withdrawFees",
      "outputs": [],
      "stateMutability": "nonpayable",
      "type": "function"
    },
    {
      "inputs": [
        {
          "internalType": "uint256",
          "name": "_fAssets",
          "type": "uint256"
        },
        {
          "internalType": "address",
          "name": "_recipient",
          "type": "address"
        }
      ],
      "name": "withdrawFeesTo",
      "outputs": [],
      "stateMutability": "nonpayable",
      "type": "function"
    },
    {
      "stateMutability": "payable",
      "type": "receive"
    }
  ],
  "bytecode": "0x60a0604052306080523480156200001557600080fd5b5060405162005c0438038062005c0483398101604081905262000038916200022c565b6200004886868686868662000054565b505050505050620002e6565b600454600160f81b900460ff1615620000b35760405162461bcd60e51b815260206004820152601360248201527f616c726561647920696e697469616c697a656400000000000000000000000000604482015260640160405180910390fd5b600480546001600160f81b0316600160f81b179055600080546001600160a01b038089166001600160a01b0319928316179092556001805488841690831681179091556002805493881693909216929092179055620001145760006200018e565b600160009054906101000a90046001600160a01b03166001600160a01b031663b5a488a66040518163ffffffff1660e01b8152600401602060405180830381865afa15801562000168573d6000803e3d6000fd5b505050506040513d601f19601f820116820180604052508101906200018e9190620002bf565b6004805461ffff909316600160e01b0261ffff60e01b1963ffffffff958616600160c01b021665ffffffffffff60c01b1995909616600160a01b026001600160c01b03199094166001600160a01b039390931692909217929092179290921692909217179055505050565b6001600160a01b03811681146200020f57600080fd5b50565b805163ffffffff811681146200022757600080fd5b919050565b60008060008060008060c087890312156200024657600080fd5b86516200025381620001f9565b60208801519096506200026681620001f9565b60408801519095506200027981620001f9565b9350620002896060880162000212565b9250620002996080880162000212565b915060a087015161ffff81168114620002b157600080fd5b809150509295509295509295565b600060208284031215620002d257600080fd5b8151620002df81620001f9565b9392505050565b6080516158e66200031e60003960008181610f0301528181610f43015281816111ca0152818161120a015261128601526158e66000f3fe60806040526004361061031d5760003560e01c806387a2a0dc116101ab578063c1b0bbf8116100f7578063e4df73f011610095578063ee781db01161006f578063ee781db01461093f578063f4d000b21461095f578063fc0c546a1461097f578063fd86d3ea1461099f57600080fd5b8063e4df73f0146108ec578063e6916906146108ff578063eaf413fd1461091f57600080fd5b8063cb209413116100d1578063cb2094131461087a578063cbabdf39146108b0578063cbdf382c146108c6578063d1b8890e146108e457600080fd5b8063c1b0bbf814610832578063c79d245d14610852578063c93e29d01461087257600080fd5b8063a854a6a211610164578063b302f3931161013e578063b302f393146107d9578063b337929b146107ee578063b9e26483146103f0578063bbd6fbf81461081257600080fd5b8063a854a6a214610786578063ac3736c1146107a6578063adf58c15146107b957600080fd5b806387a2a0dc146106db57806388985cd6146106f0578063923f89321461071057806394217ad1146107265780639a4247e6146107465780639edbf0071461076657600080fd5b80634ac8eb5f1161026a578063787b9ca81161022357806380f13ee9116101fd57806380f13ee914610668578063815ea9d61461067b578063868c3ba71461069b57806386ac57a2146106bb57600080fd5b8063787b9ca8146106085780637a68a508146106285780637c7db1a51461064857600080fd5b80634ac8eb5f1461055d5780634f1ef2861461057357806352d1902d1461058657806359c3d5491461059b5780635c60da1b146105bb5780635e318e07146105e857600080fd5b80631b92d84a116102d75780633659cfe6116102b15780633659cfe6146104af5780633cfc747d146104cf578063406c7007146105085780634a4ac2ef1461052857600080fd5b80631b92d84a1461043a5780632f35eac21461045a57806333ce01fd1461048f57600080fd5b8062f55d9d1461037b57806301ffc9a71461039b578063026e402b146103d05780630ac07344146103f05780630dc1e5e1146103f057806315e2bfba1461041a57600080fd5b3661037657600454600160f01b900460ff166103745760405162461bcd60e51b81526020600482015260116024820152706f6e6c7920696e7465726e616c2075736560781b60448201526064015b60405180910390fd5b005b600080fd5b34801561038757600080fd5b50610374610396366004614e4a565b6109bf565b3480156103a757600080fd5b506103bb6103b6366004614e67565b610c5a565b60405190151581526020015b60405180910390f35b3480156103dc57600080fd5b506103746103eb366004614e91565b610cac565b3480156103fc57600080fd5b5061040c670de0b6b3a764000081565b6040519081526020016103c7565b34801561042657600080fd5b5061040c610435366004614e4a565b610d3e565b34801561044657600080fd5b5061040c610455366004614ebd565b610dd4565b34801561046657600080fd5b5061047a610475366004614eea565b610e32565b604080519283526020830191909152016103c7565b34801561049b57600080fd5b506103746104aa366004614e4a565b610e5b565b3480156104bb57600080fd5b506103746104ca366004614e4a565b610ef9565b3480156104db57600080fd5b506004546104f390600160a01b900463ffffffff1681565b60405163ffffffff90911681526020016103c7565b34801561051457600080fd5b5061040c610523366004614e91565b610fbe565b34801561053457600080fd5b5060045461054a90600160e01b900461ffff1681565b60405161ffff90911681526020016103c7565b34801561056957600080fd5b5061040c60085481565b610374610581366004614fa2565b6111c0565b34801561059257600080fd5b5061040c611279565b3480156105a757600080fd5b5061040c6105b6366004615019565b61132c565b3480156105c757600080fd5b506105d0611531565b6040516001600160a01b0390911681526020016103c7565b3480156105f457600080fd5b50610374610603366004614ebd565b611540565b34801561061457600080fd5b50610374610623366004614ebd565b61155a565b34801561063457600080fd5b50610374610643366004614e4a565b6115fe565b34801561065457600080fd5b506002546105d0906001600160a01b031681565b6103746106763660046150da565b6116ee565b34801561068757600080fd5b506000546105d0906001600160a01b031681565b3480156106a757600080fd5b506103746106b636600461515b565b611792565b3480156106c757600080fd5b506103746106d6366004614e4a565b6117ac565b3480156106e757600080fd5b50610374611834565b3480156106fc57600080fd5b5061037461070b366004614ebd565b611918565b34801561071c57600080fd5b5061040c60065481565b34801561073257600080fd5b506001546105d0906001600160a01b031681565b34801561075257600080fd5b50610374610761366004614ebd565b6119ff565b34801561077257600080fd5b506004546105d0906001600160a01b031681565b34801561079257600080fd5b506103746107a1366004614ebd565b611ad6565b61047a6107b436600461518b565b611b1a565b3480156107c557600080fd5b506103746107d43660046151b0565b611fd7565b3480156107e557600080fd5b50610374612222565b3480156107fa57600080fd5b506004546104f390600160c01b900463ffffffff1681565b34801561081e57600080fd5b5061037461082d366004614e91565b61228a565b34801561083e57600080fd5b5061040c61084d366004614e4a565b6122ea565b34801561085e57600080fd5b5061040c61086d366004614e4a565b612301565b610374612318565b34801561088657600080fd5b5061040c610895366004614e4a565b6001600160a01b031660009081526005602052604090205490565b3480156108bc57600080fd5b5061040c60075481565b3480156108d257600080fd5b506003546001600160a01b03166105d0565b610374612409565b6103746108fa3660046151e5565b61243b565b34801561090b57600080fd5b5061037461091a366004615265565b612458565b34801561092b57600080fd5b5061047a61093a3660046152ea565b6125e9565b34801561094b57600080fd5b5061037461095a366004614ebd565b612613565b34801561096b57600080fd5b5061037461097a366004614e4a565b612859565b34801561098b57600080fd5b506003546105d0906001600160a01b031681565b3480156109ab57600080fd5b5061040c6109ba366004614e4a565b612a79565b6001546001600160a01b031633146109e95760405162461bcd60e51b815260040161036b90615328565b6109f1612a90565b600360009054906101000a90046001600160a01b03166001600160a01b03166318160ddd6040518163ffffffff1660e01b8152600401602060405180830381865afa158015610a44573d6000803e3d6000fd5b505050506040513d601f19601f82011682018060405250810190610a689190615354565b15610ac65760405162461bcd60e51b815260206004820152602860248201527f63616e6e6f742064657374726f79206120706f6f6c20776974682069737375656044820152676420746f6b656e7360c01b606482015260840161036b565b60035460405162f55d9d60e01b81526001600160a01b0383811660048301529091169062f55d9d90602401600060405180830381600087803b158015610b0b57600080fd5b505af1158015610b1f573d6000803e3d6000fd5b50505050610b2d8147612b09565b600480546040516370a0823160e01b815230928101929092526000916001600160a01b03909116906370a0823190602401602060405180830381865afa158015610b7b573d6000803e3d6000fd5b505050506040513d601f19601f82011682018060405250810190610b9f9190615354565b6002546040516370a0823160e01b81523060048201529192506000916001600160a01b03909116906370a0823190602401602060405180830381865afa158015610bed573d6000803e3d6000fd5b505050506040513d601f19601f82011682018060405250810190610c119190615354565b90508115610c3057600454610c30906001600160a01b03168484612bb2565b8015610c4d57600254610c4d906001600160a01b03168483612bb2565b5050610c57612c04565b50565b60006001600160e01b031982166301ffc9a760e01b1480610c8b57506001600160e01b0319821663982c94a560e01b145b80610ca657506001600160e01b031982166350eb34e160e11b145b92915050565b610cb533612c2a565b610cd15760405162461bcd60e51b815260040161036b9061536d565b6004805460405163026e402b60e01b81526001600160a01b03858116938201939093526024810184905291169063026e402b906044015b600060405180830381600087803b158015610d2257600080fd5b505af1158015610d36573d6000803e3d6000fd5b505050505050565b600080610d49612ca4565b6003546040516370a0823160e01b81526001600160a01b038681166004830152929350610dcd92909116906370a0823190602401602060405180830381865afa158015610d9a573d6000803e3d6000fd5b505050506040513d601f19601f82011682018060405250810190610dbe9190615354565b610dc88386612e94565b612f9a565b9392505050565b600080610ddf612ca4565b90506000610e008483602001518460600151612fb49092919063ffffffff16565b90506000610e0e83836130da565b90506000610e1c843361315d565b9050610e288282612f9a565b9695505050505050565b600080610e3d612a90565b610e488433856131a6565b91509150610e54612c04565b9250929050565b6001546001600160a01b03163314610e855760405162461bcd60e51b815260040161036b90615328565b6003546001600160a01b031615610ed75760405162461bcd60e51b81526020600482015260166024820152751c1bdbdb081d1bdad95b88185b1c9958591e481cd95d60521b604482015260640161036b565b600380546001600160a01b0319166001600160a01b0392909216919091179055565b6001600160a01b037f0000000000000000000000000000000000000000000000000000000000000000163003610f415760405162461bcd60e51b815260040161036b90615391565b7f00000000000000000000000000000000000000000000000000000000000000006001600160a01b0316610f73613568565b6001600160a01b031614610f995760405162461bcd60e51b815260040161036b906153dd565b610fa281613584565b60408051600080825260208201909252610c57918391906135ae565b6000610fc933612c2a565b610fe55760405162461bcd60e51b815260040161036b9061536d565b610fed612a90565b600480546040516370a0823160e01b815230928101929092526000916001600160a01b03909116906370a0823190602401602060405180830381865afa15801561103b573d6000803e3d6000fd5b505050506040513d601f19601f8201168201806040525081019061105f9190615354565b60405163596090c960e11b81523060048201819052602482015260448101859052600160648201529091506001600160a01b0385169063b2c12192906084016020604051808303816000875af11580156110bd573d6000803e3d6000fd5b505050506040513d601f19601f820116820180604052508101906110e19190615354565b50600480546040516370a0823160e01b815230928101929092526000916001600160a01b03909116906370a0823190602401602060405180830381865afa158015611130573d6000803e3d6000fd5b505050506040513d601f19601f820116820180604052508101906111549190615354565b90506000611162838361543f565b905080600860008282546111769190615452565b909155505060408051828152600060208201527f1a53692b4ecb924a87c6d9eae27be062cc1005b4c2d41cc35d8b59dbd6f4ba1b910160405180910390a192505050610ca6612c04565b6001600160a01b037f00000000000000000000000000000000000000000000000000000000000000001630036112085760405162461bcd60e51b815260040161036b90615391565b7f00000000000000000000000000000000000000000000000000000000000000006001600160a01b031661123a613568565b6001600160a01b0316146112605760405162461bcd60e51b815260040161036b906153dd565b61126982613584565b611275828260016135ae565b5050565b6000306001600160a01b037f000000000000000000000000000000000000000000000000000000000000000016146113195760405162461bcd60e51b815260206004820152603860248201527f555550535570677261646561626c653a206d757374206e6f742062652063616c60448201527f6c6564207468726f7567682064656c656761746563616c6c0000000000000000606482015260840161036b565b5060008051602061584a83398151915290565b600061133733612c2a565b6113535760405162461bcd60e51b815260040161036b9061536d565b61135b612a90565b600480546040516370a0823160e01b815230928101929092526000916001600160a01b03909116906370a0823190602401602060405180830381865afa1580156113a9573d6000803e3d6000fd5b505050506040513d601f19601f820116820180604052508101906113cd9190615354565b604051638e33aba560e01b81529091506001600160a01b03871690638e33aba59061140790309081908a906001908b908b906004016154f8565b6020604051808303816000875af1158015611426573d6000803e3d6000fd5b505050506040513d601f19601f8201168201806040525081019061144a9190615354565b50600480546040516370a0823160e01b815230928101929092526000916001600160a01b03909116906370a0823190602401602060405180830381865afa158015611499573d6000803e3d6000fd5b505050506040513d601f19601f820116820180604052508101906114bd9190615354565b905060006114cb838361543f565b905080600860008282546114df9190615452565b909155505060408051828152600160208201527f1a53692b4ecb924a87c6d9eae27be062cc1005b4c2d41cc35d8b59dbd6f4ba1b910160405180910390a192505050611529612c04565b949350505050565b600061153b613568565b905090565b611548612a90565b6115528133613719565b610c57612c04565b6001546001600160a01b031633146115845760405162461bcd60e51b815260040161036b90615328565b600454600160c01b900463ffffffff1681116115d25760405162461bcd60e51b815260206004820152600d60248201526c76616c756520746f6f206c6f7760981b604482015260640161036b565b6115db8161383d565b600460146101000a81548163ffffffff021916908363ffffffff16021790555050565b61160733612c2a565b6116235760405162461bcd60e51b815260040161036b9061536d565b6004805460408051638c2b8ae160e01b815290516001600160a01b0390921692638c2b8ae19282820192602092908290030181865afa15801561166a573d6000803e3d6000fd5b505050506040513d601f19601f8201168201806040525081019061168e9190615612565b6040516317066a5760e21b81526001600160a01b0383811660048301529190911690635c19a95c90602401600060405180830381600087803b1580156116d357600080fd5b505af11580156116e7573d6000803e3d6000fd5b5050505050565b6116f6612a90565b6001600160a01b0383161580159061171757506001600160a01b0383163014155b801561173157506000546001600160a01b03848116911614155b61177d5760405162461bcd60e51b815260206004820152601960248201527f696e76616c696420726563697069656e74206164647265737300000000000000604482015260640161036b565b61178a85858585856138a6565b6116e7612c04565b61179a612a90565b6117a48282613719565b611275612c04565b6117b533612c2a565b6117d15760405162461bcd60e51b815260040161036b9061536d565b6117d9612a90565b806001600160a01b031663f2a1f7676040518163ffffffff1660e01b8152600401600060405180830381600087803b15801561181457600080fd5b505af1158015611828573d6000803e3d6000fd5b50505050610c57612c04565b61183d33612c2a565b6118595760405162461bcd60e51b815260040161036b9061536d565b6004805460408051638c2b8ae160e01b815290516001600160a01b0390921692638c2b8ae19282820192602092908290030181865afa1580156118a0573d6000803e3d6000fd5b505050506040513d601f19601f820116820180604052508101906118c49190615612565b6001600160a01b03166392ab89bb6040518163ffffffff1660e01b8152600401600060405180830381600087803b1580156118fe57600080fd5b505af1158015611912573d6000803e3d6000fd5b50505050565b6001546001600160a01b031633146119425760405162461bcd60e51b815260040161036b90615328565b600454600160a01b900463ffffffff1681106119915760405162461bcd60e51b815260206004820152600e60248201526d0ecc2d8eaca40e8dede40d0d2ced60931b604482015260640161036b565b600081116119d35760405162461bcd60e51b815260206004820152600f60248201526e6d757374206265206e6f6e7a65726f60881b604482015260640161036b565b6119dc8161383d565b600460186101000a81548163ffffffff021916908363ffffffff16021790555050565b6001546001600160a01b03163314611a295760405162461bcd60e51b815260040161036b90615328565b612710811115611a6c5760405162461bcd60e51b815260206004820152600e60248201526d0ecc2d8eaca40e8dede40d0d2ced60931b604482015260640161036b565b60008111611aae5760405162461bcd60e51b815260206004820152600f60248201526e6d757374206265206e6f6e7a65726f60881b604482015260640161036b565b611ab781614099565b6004601c6101000a81548161ffff021916908361ffff16021790555050565b6001546001600160a01b03163314611b005760405162461bcd60e51b815260040161036b90615328565b8060076000828254611b129190615452565b909155505050565b600080611b25612a90565b6000611b2f612ca4565b9050670de0b6b3a7640000341015611b895760405162461bcd60e51b815260206004820152601d60248201527f616d6f756e74206f66206e61742073656e7420697320746f6f206c6f77000000604482015260640161036b565b8060200151600003611cea578060600151341015611c355760405162461bcd60e51b815260206004820152606060248201527f696620706f6f6c20686173206e6f20746f6b656e732c2062757420686f6c647360448201527f20636f6c6c61746572616c2c20796f75206e65656420746f2073656e6420617460648201527f206c65617374207468617420616d6f756e74206f6620636f6c6c61746572616c608482015260a40161036b565b60c081015160e08201516080830151611c4f929091612fb4565b341015611cea5760405162461bcd60e51b815260206004820152605f60248201527f496620706f6f6c20686173206e6f20746f6b656e732c2062757420686f6c647360448201527f20662d61737365742c20796f75206e65656420746f2073656e64206174206c6560648201527f61737420662d617373657420776f727468206f6620636f6c6c61746572616c00608482015260a40161036b565b6000611cf682346140fc565b9050600080836020015111611d0c576000611d21565b602083015160a0840151611d21918490612fb4565b9050600086611d3957611d34888361424f565b611d3b565b815b90508015611e63576002546040516352adac0760e11b81526000916001600160a01b03169063a55b580e90611d789033903090879060040161562f565b6040805180830381865afa158015611d94573d6000803e3d6000fd5b505050506040513d601f19601f82011682018060405250810190611db89190615653565b9150611dc690508183615452565b600254604051636eb1769f60e11b81523360048201523060248201526001600160a01b039091169063dd62ed3e90604401602060405180830381865afa158015611e14573d6000803e3d6000fd5b505050506040513d601f19601f82011682018060405250810190611e389190615354565b1015611e565760405162461bcd60e51b815260040161036b90615677565b611e61333084614265565b505b611e7633611e71838561543f565b614381565b611e7e6143cb565b6001546000546004805460405163053fe26160e31b81526001600160a01b0393841692810192909252821660248201529116906329ff130890604401600060405180830381600087803b158015611ed457600080fd5b505af1158015611ee8573d6000803e3d6000fd5b50506003546040516340c10f1960e01b815233600482015260248101879052600093506001600160a01b0390911691506340c10f19906044016020604051808303816000875af1158015611f40573d6000803e3d6000fd5b505050506040513d601f19601f82011682018060405250810190611f649190615354565b33600081815260056020908152604091829020548251348152918201899052818301879052606082015260808101849052905192935090917f8837aea61d24df2daef4ee681be933e5ea5c7ebe3cde964adef015dad51fe7859181900360a00190a2929550919350505050610e54612c04565b6001546001600160a01b031633146120015760405162461bcd60e51b815260040161036b90615328565b612009612a90565b6000612013612ca4565b905061201f848461442d565b600354600080546040516370a0823160e01b81526001600160a01b039182166004820152919216906370a0823190602401602060405180830381865afa15801561206d573d6000803e3d6000fd5b505050506040513d601f19601f820116820180604052508101906120919190615354565b90506000808360600151116120a657816120bb565b606083015160208401516120bb918690612fb4565b905060006120c9828461424f565b905080156121cd57600080546120ec9086906001600160a01b0316846002614461565b50600054909150612106906001600160a01b0316826145e9565b6003546000546040516376fd4fdf60e01b81526001600160a01b03928316926376fd4fdf9261213f9291169086906001906004016156ae565b600060405180830381600087803b15801561215957600080fd5b505af115801561216d573d6000803e3d6000fd5b5050600080546001600160a01b031680825260056020908152604080842054815189815292830185905290820184905260608201939093526080810192909252925060008051602061586a833981519152915060a00160405180910390a2505b60408051878152602081018390526001600160a01b038916917f7ca7469714f3e1d8732b3a67b0599fba3be82b826137fcfa805c19afc2b20aeb910160405180910390a25050505061221d612c04565b505050565b61222b33612c2a565b6122475760405162461bcd60e51b815260040161036b9061536d565b600480546040805163b302f39360e01b815290516001600160a01b039092169263b302f39392828201926000929082900301818387803b1580156118fe57600080fd5b61229333612c2a565b6122af5760405162461bcd60e51b815260040161036b9061536d565b6004805460405163177adf7f60e31b81526001600160a01b03858116938201939093526024810184905291169063bbd6fbf890604401610d08565b6000806122f5612ca4565b9050610dcd818461315d565b60008061230c612ca4565b9050610dcd8184612e94565b612320612a90565b670de0b6b3a764000034101580156123455750606460085461234291906156e7565b34105b6123c25760405162461bcd60e51b815260206004820152604260248201527f646f6e6174696f6e206d757374206265206265747765656e2031204e4154206160448201527f6e64203125206f662074686520746f74616c20706f6f6c20636f6c6c61746572606482015261185b60f21b608482015260a40161036b565b6123ca6143cb565b60405134815233907f2a01595cddf097c90216094025db714da3f4e5bd8877b56ba86a24ecead8e5439060200160405180910390a2612407612c04565b565b6001546001600160a01b031633146124335760405162461bcd60e51b815260040161036b90615328565b6124076143cb565b612443612a90565b61245084843385856138a6565b611912612c04565b600454600160f81b900460ff16156124a85760405162461bcd60e51b8152602060048201526013602482015272185b1c9958591e481a5b9a5d1a585b1a5e9959606a1b604482015260640161036b565b600480546001600160f81b0316600160f81b179055600080546001600160a01b038089166001600160a01b031992831617909255600180548884169083168117909155600280549388169390921692909217905561250757600061257e565b600160009054906101000a90046001600160a01b03166001600160a01b031663b5a488a66040518163ffffffff1660e01b8152600401602060405180830381865afa15801561255a573d6000803e3d6000fd5b505050506040513d601f19601f8201168201806040525081019061257e9190615612565b6004805461ffff909316600160e01b0261ffff60e01b1963ffffffff958616600160c01b021665ffffffffffff60c01b1995909616600160a01b026001600160c01b03199094166001600160a01b039390931692909217929092179290921692909217179055505050565b6000806125f4612a90565b6125ff8585856131a6565b9150915061260b612c04565b935093915050565b61261b612a90565b8060000361266b5760405162461bcd60e51b815260206004820152601960248201527f7a65726f20662d61737365742064656274207061796d656e7400000000000000604482015260640161036b565b336000908152600560205260409020548111156126ca5760405162461bcd60e51b815260206004820152601e60248201527f6465627420662d61737365742062616c616e636520746f6f20736d616c6c0000604482015260640161036b565b6002546040516352adac0760e11b81526000916001600160a01b03169063a55b580e906126ff9033903090879060040161562f565b6040805180830381865afa15801561271b573d6000803e3d6000fd5b505050506040513d601f19601f8201168201806040525081019061273f9190615653565b915061274d90508183615452565b600254604051636eb1769f60e11b81523360048201523060248201526001600160a01b039091169063dd62ed3e90604401602060405180830381865afa15801561279b573d6000803e3d6000fd5b505050506040513d601f19601f820116820180604052508101906127bf9190615354565b10156127dd5760405162461bcd60e51b815260040161036b90615677565b6127e733836145e9565b6127f2333084614265565b336000818152600560209081526040808320548151848152928301849052908201869052606082015260808101919091527f8837aea61d24df2daef4ee681be933e5ea5c7ebe3cde964adef015dad51fe7859060a00160405180910390a250610c57612c04565b6001546001600160a01b031633146128835760405162461bcd60e51b815260040161036b90615328565b61288b612a90565b6004546001600160a01b0382811691161461155257600480546040516370a0823160e01b815230928101929092526000916001600160a01b03909116906370a0823190602401602060405180830381865afa1580156128ee573d6000803e3d6000fd5b505050506040513d601f19601f820116820180604052508101906129129190615354565b6004805460ff60f01b198116600160f01b178255604051632e1a7d4d60e01b81529293506001600160a01b031691632e1a7d4d916129569185910190815260200190565b600060405180830381600087803b15801561297057600080fd5b505af1158015612984573d6000803e3d6000fd5b50506004805460ff60f01b1916815560408051630d0e30db60e41b815290516001600160a01b038716945063d0e30db09350859282810192600092919082900301818588803b1580156129d657600080fd5b505af11580156129ea573d6000803e3d6000fd5b5050600480546001600160a01b0319166001600160a01b03878116918217835560015460005460405163053fe26160e31b81529083169481019490945260248401929092521693506329ff130892506044019050600060405180830381600087803b158015612a5857600080fd5b505af1158015612a6c573d6000803e3d6000fd5b5050505050610c57612c04565b600080612a84612ca4565b9050610dcd818461462a565b7f0cd2207518cd3e5213e2c6dbe63d55b60aa893c194a427b7d7f1600408fd5bde805460011901612b035760405162461bcd60e51b815260206004820152601f60248201527f5265656e7472616e637947756172643a207265656e7472616e742063616c6c00604482015260640161036b565b60029055565b612b116146c5565b8015611275576000826001600160a01b031682620186a090604051600060405180830381858888f193505050503d8060008114612b6a576040519150601f19603f3d011682016040523d82523d6000602084013e612b6f565b606091505b505090508061221d5760405162461bcd60e51b815260206004820152600f60248201526e1d1c985b9cd9995c8819985a5b1959608a1b604482015260640161036b565b604080516001600160a01b038416602482015260448082018490528251808303909101815260649091019091526020810180516001600160e01b031663a9059cbb60e01b17905261221d908490614736565b60017f0cd2207518cd3e5213e2c6dbe63d55b60aa893c194a427b7d7f1600408fd5bde55565b6001546000805460405163d6b93a9f60e01b81526001600160a01b03918216600482015284821660248201529192169063d6b93a9f90604401602060405180830381865afa158015612c80573d6000803e3d6000fd5b505050506040513d601f19601f82011682018060405250810190610ca691906156fb565b612cec60405180610100016040528060008152602001600081526020016000815260200160008152602001600081526020016000815260200160008152602001600081525090565b60075460015460408051628c4abb60e21b8152815160009384936001600160a01b03909116926302312aec92600480830193928290030181865afa158015612d38573d6000803e3d6000fd5b505050506040513d601f19601f82011682018060405250810190612d5c9190615653565b91509150604051806101000160405280612d7461480b565b8152600354604080516318160ddd60e01b815290516020938401936001600160a01b03909316926318160ddd92600480820193918290030181865afa158015612dc1573d6000803e3d6000fd5b505050506040513d601f19601f82011682018060405250810190612de59190615354565b815260015460005460405163769bb15560e11b81526001600160a01b03918216600482015260209093019291169063ed3762aa90602401602060405180830381865afa158015612e39573d6000803e3d6000fd5b505050506040513d601f19601f82011682018060405250810190612e5d9190615354565b8152602001600854815260200184815260200160065485612e7e9190615452565b8152602081019390935260409092015292915050565b6003546040516370a0823160e01b81526001600160a01b03838116600483015260009283929116906370a0823190602401602060405180830381865afa158015612ee2573d6000803e3d6000fd5b505050506040513d601f19601f82011682018060405250810190612f069190615354565b905080600003612f1a576000915050610ca6565b6001600160a01b03831660009081526005602052604081205490819003612f4357509050610ca6565b6000612f628387602001518860a00151612fb49092919063ffffffff16565b90506000612f708284612f9a565b9050612f8f818860a001518960200151612fb49092919063ffffffff16565b979650505050505050565b6000818311612faa576000610dcd565b610dcd828461543f565b6000808211612ff85760405162461bcd60e51b815260206004820152601060248201526f4469766973696f6e206279207a65726f60801b604482015260640161036b565b8360000361300857506000610dcd565b8383028385828161301b5761301b6156d1565b040361303957828181613030576130306156d1565b04915050610dcd565b50600061304683866156e7565b905060006130548487615718565b9050600061306285876156e7565b905060006130708688615718565b90508561307d828561572c565b61308791906156e7565b613091838561572c565b61309b838761572c565b886130a6868961572c565b6130b0919061572c565b6130ba9190615452565b6130c49190615452565b6130ce9190615452565b98975050505050505050565b60006130ec83600085600001516148a4565b15613148576040830151835160c0850151613141929161310b9161572c565b61271085876060015161311e919061543f565b8760e0015161312d919061572c565b613137919061572c565b610dc891906156e7565b9050610ca6565b60608301516040840151613141918490612fb4565b60008061316a848461462a565b6001600160a01b03841660009081526005602052604090205490915061319d6131938383612f9a565b866080015161424f565b95945050505050565b600080600085116131ef5760405162461bcd60e51b8152602060048201526013602482015272746f6b656e207368617265206973207a65726f60681b604482015260640161036b565b6003546040516370a0823160e01b81523360048201526001600160a01b03909116906370a0823190602401602060405180830381865afa158015613237573d6000803e3d6000fd5b505050506040513d601f19601f8201168201806040525081019061325b9190615354565b8511156132a25760405162461bcd60e51b8152602060048201526015602482015274746f6b656e2062616c616e636520746f6f206c6f7760581b604482015260640161036b565b60006132ac612ca4565b90506132b881876148e7565b60006132d78260600151836020015189612fb49092919063ffffffff16565b9050600081116132f95760405162461bcd60e51b815260040161036b90615743565b6133038282614979565b600260009054906101000a90046001600160a01b03166001600160a01b031663194307bf6040518163ffffffff1660e01b8152600401602060405180830381865afa158015613356573d6000803e3d6000fd5b505050506040513d601f19601f8201168201806040525081019061337a91906156fb565b156133fd576003546040516376fd4fdf60e01b81526001600160a01b03909116906376fd4fdf906133b49033908b906001906004016156ae565b600060405180830381600087803b1580156133ce57600080fd5b505af11580156133e2573d6000803e3d6000fd5b505050506133f08682614a09565b92506000915061260b9050565b61340c828284600001516148a4565b6134645760405162461bcd60e51b815260206004820152602360248201527f636f6c6c61746572616c20726174696f2066616c6c732062656c6f77206578696044820152623a21a960e91b606482015260840161036b565b60008061347384338b8a614461565b9092509050801561348957613489308983614265565b81156134995761349933836145e9565b6003546040516376fd4fdf60e01b81526001600160a01b03909116906376fd4fdf906134ce9033908d906000906004016156ae565b600060405180830381600087803b1580156134e857600080fd5b505af11580156134fc573d6000803e3d6000fd5b5050505061350a8884614a09565b3360008181526005602090815260408083205481518e81529283018890529082018590526060820192909252608081019190915260008051602061586a8339815191529060a00160405180910390a291989197509095505050505050565b60008051602061584a833981519152546001600160a01b031690565b6001546001600160a01b03163314610c575760405162461bcd60e51b815260040161036b90615328565b7f4910fdfa16fed3260ed0e7147f7cc6da11a60208b5b9406d12a635614ffd91435460ff16156135e15761221d83614aaa565b826001600160a01b03166352d1902d6040518163ffffffff1660e01b8152600401602060405180830381865afa92505050801561363b575060408051601f3d908101601f1916820190925261363891810190615354565b60015b61369e5760405162461bcd60e51b815260206004820152602e60248201527f45524331393637557067726164653a206e657720696d706c656d656e7461746960448201526d6f6e206973206e6f74205555505360901b606482015260840161036b565b60008051602061584a833981519152811461370d5760405162461bcd60e51b815260206004820152602960248201527f45524331393637557067726164653a20756e737570706f727465642070726f786044820152681a58589b195555525160ba1b606482015260840161036b565b5061221d838383614b46565b600082116137695760405162461bcd60e51b815260206004820181905260248201527f747279696e6720746f207769746864726177207a65726f20662d617373657473604482015260640161036b565b6000613773612ca4565b90506000613781823361315d565b9050808411156137d35760405162461bcd60e51b815260206004820152601e60248201527f6672656520662d61737365742062616c616e636520746f6f20736d616c6c0000604482015260640161036b565b6137dd3385614381565b6137e8308486614265565b3360008181526005602090815260408083205481518481529283018490529082018890526060820192909252608081019190915260008051602061586a8339815191529060a00160405180910390a250505050565b600063ffffffff8211156138a25760405162461bcd60e51b815260206004820152602660248201527f53616665436173743a2076616c756520646f65736e27742066697420696e203360448201526532206269747360d01b606482015260840161036b565b5090565b600085116138ec5760405162461bcd60e51b8152602060048201526013602482015272746f6b656e207368617265206973207a65726f60681b604482015260640161036b565b6003546040516370a0823160e01b81523360048201526001600160a01b03909116906370a0823190602401602060405180830381865afa158015613934573d6000803e3d6000fd5b505050506040513d601f19601f820116820180604052508101906139589190615354565b85111561399f5760405162461bcd60e51b8152602060048201526015602482015274746f6b656e2062616c616e636520746f6f206c6f7760581b604482015260640161036b565b60006139a9612ca4565b905060006139ca8783602001518460600151612fb49092919063ffffffff16565b9050600081116139ec5760405162461bcd60e51b815260040161036b90615743565b60015460008054604051631e8bee0160e01b81526001600160a01b03918216600482015291921690631e8bee0190602401602060405180830381865afa158015613a3a573d6000803e3d6000fd5b505050506040513d601f19601f82011682018060405250810190613a5e9190615354565b90506000613a6c84846130da565b905080821015613b5d575080613a828482614b6b565b925060008311613b0b5760405162461bcd60e51b815260206004820152604860248201527f616d6f756e74206f662073656e7420746f6b656e7320697320746f6f20736d6160448201527f6c6c206166746572206167656e74206d617820726564656d7074696f6e20636f606482015267393932b1ba34b7b760c11b608482015260a40161036b565b60608401516020850151613b20918590612fb4565b6040805182815260208101849052919a507f7543f09ac709677c25f5aa8284e92f885eae7c7496789dd47cf87e28e5a1cf1c910160405180910390a15b613b678484614979565b613b71848a6148e7565b6000613b7d853361315d565b9050600080613b8f87338e6000614461565b9150915083831015613d84576000613ba7848661543f565b6002546040516352adac0760e11b81529192506000916001600160a01b039091169063a55b580e90613be19033903090879060040161562f565b6040805180830381865afa158015613bfd573d6000803e3d6000fd5b505050506040513d601f19601f82011682018060405250810190613c219190615653565b9150613c2f90508183615452565b600254604051636eb1769f60e11b81523360048201523060248201526001600160a01b039091169063dd62ed3e90604401602060405180830381865afa158015613c7d573d6000803e3d6000fd5b505050506040513d601f19601f82011682018060405250810190613ca19190615354565b1015613cbf5760405162461bcd60e51b815260040161036b90615677565b600254604051634b9a2c3760e11b81526000916001600160a01b031690639734586e90613cf49033903090889060040161562f565b6020604051808303816000875af1158015613d13573d6000803e3d6000fd5b505050506040513d601f19601f82011682018060405250810190613d3791906156fb565b905080613d805760405162461bcd60e51b8152602060048201526017602482015276198b585cdcd95d081d1c985b9cd9995c8819985a5b1959604a1b604482015260640161036b565b5050505b8315613f0f57600160009054906101000a90046001600160a01b03166001600160a01b0316634942f65f6040518163ffffffff1660e01b8152600401602060405180830381865afa158015613ddd573d6000803e3d6000fd5b505050506040513d601f19601f82011682018060405250810190613e019190615354565b841080613e0b57508a5b15613e7f57600154600054604051630ed000b360e41b81526001600160a01b039283169263ed000b3092613e48929116908e90899060040161562f565b600060405180830381600087803b158015613e6257600080fd5b505af1158015613e76573d6000803e3d6000fd5b50505050613f0f565b600160009054906101000a90046001600160a01b03166001600160a01b031663997be0f43460008054906101000a90046001600160a01b03168d888e8e6040518763ffffffff1660e01b8152600401613edc9594939291906157d5565b6000604051808303818588803b158015613ef557600080fd5b505af1158015613f09573d6000803e3d6000fd5b50505050505b6000613f1b858561424f565b90508015613f6d578060076000828254613f35919061543f565b90915550613f4590503382614381565b6000613f51828461424f565b9050613f5d818461543f565b9250613f698185615452565b9350505b8115613f7e57613f7e308c84614265565b8215613f8e57613f8e33846145e9565b600360009054906101000a90046001600160a01b03166001600160a01b03166376fd4fdf338f60006040518463ffffffff1660e01b8152600401613fd4939291906156ae565b600060405180830381600087803b158015613fee57600080fd5b505af1158015614002573d6000803e3d6000fd5b505050506140108b88614a09565b336001600160a01b031660008051602061586a8339815191528e89848960056000336001600160a01b03166001600160a01b0316815260200190815260200160002054604051614082959493929190948552602085019390935260408401919091526060830152608082015260a00190565b60405180910390a250505050505050505050505050565b600061ffff8211156138a25760405162461bcd60e51b815260206004820152602660248201527f53616665436173743a2076616c756520646f65736e27742066697420696e203160448201526536206269747360d01b606482015260840161036b565b60008083606001516000148061411457506020840151155b600454604086015160c087015192935060009261414892600160c01b900463ffffffff16916141429161572c565b90614bcb565b905060008560e001518660600151614160919061572c565b821161416d57600061418b565b606086015160e087015161418190846156e7565b61418b919061543f565b90506000614199868361424f565b905060006141a78783612f9a565b6004549091506000906141ca90849061271090600160e01b900461ffff16612fb4565b90506000866141ed5760608a015160208b01516141e8918490612fb4565b6141ef565b815b905060008780156141fe575081155b6142325761422d84868d606001516142169190615452565b848e602001516142269190615452565b9190612fb4565b614234565b835b90506142408183615452565b9b9a5050505050505050505050565b600081831061425e5781610dcd565b5090919050565b801561221d57306001600160a01b038416036142a957806007600082825461428d919061543f565b909155505060025461221d906001600160a01b03168383612bb2565b80600760008282546142bb9190615452565b9091555050600254604051634b9a2c3760e11b81526000916001600160a01b031690639734586e906142f59087908790879060040161562f565b6020604051808303816000875af1158015614314573d6000803e3d6000fd5b505050506040513d601f19601f8201168201806040525081019061433891906156fb565b9050806119125760405162461bcd60e51b8152602060048201526017602482015276198b585cdcd95d081d1c985b9cd9995c8819985a5b1959604a1b604482015260640161036b565b6001600160a01b038216600090815260056020526040812080548392906143a9908490615452565b9250508190555080600660008282546143c29190615452565b90915550505050565b34156124075734600860008282546143e39190615452565b90915550506004805460408051630d0e30db60e41b815290516001600160a01b039092169263d0e30db0923492808301926000929182900301818588803b1580156116d357600080fd5b8015611275578060086000828254614445919061543f565b9091555050600454611275906001600160a01b03168383612bb2565b6000806000614470878761462a565b6001600160a01b038781166000818152600560205260408082205460035491516370a0823160e01b81526004810194909452949550909216906370a0823190602401602060405180830381865afa1580156144cf573d6000803e3d6000fd5b505050506040513d601f19601f820116820180604052508101906144f39190615354565b90508060000361450c57600080945094505050506145e0565b6000614519848984612fb4565b9050600087600281111561452f5761452f615465565b036145605760006145408585612f9a565b905061454c828261424f565b9550614558868361543f565b9650506145bf565b600187600281111561457457614574615465565b0361459657614583818461424f565b955061458f868261543f565b94506145bf565b600084116145a55760006145b0565b6145b0838286612fb4565b95506145bc8187612f9a565b94505b6145cb8560075461424f565b94506145d98660065461424f565b9550505050505b94509492505050565b6001600160a01b0382166000908152600560205260408120805483929061461190849061543f565b9250508190555080600660008282546143c2919061543f565b6003546040516370a0823160e01b81526001600160a01b03838116600483015260009283929116906370a0823190602401602060405180830381865afa158015614678573d6000803e3d6000fd5b505050506040513d601f19601f8201168201806040525081019061469c9190615354565b9050806000036146b0576000915050610ca6565b602084015160a0850151611529918390612fb4565b7f0cd2207518cd3e5213e2c6dbe63d55b60aa893c194a427b7d7f1600408fd5bde546002146124075760405162461bcd60e51b815260206004820152601f60248201527f5265656e7472616e637947756172643a20677561726420726571756972656400604482015260640161036b565b600061478b826040518060400160405280602081526020017f5361666545524332303a206c6f772d6c6576656c2063616c6c206661696c6564815250856001600160a01b0316614bda9092919063ffffffff16565b90508051600014806147ac5750808060200190518101906147ac91906156fb565b61221d5760405162461bcd60e51b815260206004820152602a60248201527f5361666545524332303a204552433230206f7065726174696f6e20646964206e6044820152691bdd081cdd58d8d9595960b21b606482015260840161036b565b6001546000805460405163cd71593560e01b81526001600160a01b0391821660048201529192839291169063cd71593590602401602060405180830381865afa15801561485c573d6000803e3d6000fd5b505050506040513d601f19601f820116820180604052508101906148809190615354565b60045490915061489e908290600160a01b900463ffffffff16614be9565b91505090565b60006148be828560c001518660400151614142919061572c565b8460e001518486606001516148d3919061543f565b6148dd919061572c565b1015949350505050565b80826020015114806149105750670de0b6b3a764000081836020015161490d919061543f565b10155b6112755760405162461bcd60e51b815260206004820152603460248201527f746f6b656e20737570706c79206c656674206166746572206578697420697320604482015273746f6f206c6f7720616e64206e6f6e2d7a65726f60601b606482015260840161036b565b80826060015114806149a25750670de0b6b3a764000081836060015161499f919061543f565b10155b6112755760405162461bcd60e51b815260206004820152603260248201527f636f6c6c61746572616c206c656674206166746572206578697420697320746f6044820152716f206c6f7720616e64206e6f6e2d7a65726f60701b606482015260840161036b565b8015611275578060086000828254614a21919061543f565b909155505060048054600160f01b60ff60f01b198216178255604051632e1a7d4d60e01b81529182018390526001600160a01b031690632e1a7d4d90602401600060405180830381600087803b158015614a7a57600080fd5b505af1158015614a8e573d6000803e3d6000fd5b50506004805460ff60f01b191690555061127590508282612b09565b6001600160a01b0381163b614b175760405162461bcd60e51b815260206004820152602d60248201527f455243313936373a206e657720696d706c656d656e746174696f6e206973206e60448201526c1bdd08184818dbdb9d1c9858dd609a1b606482015260840161036b565b60008051602061584a83398151915280546001600160a01b0319166001600160a01b0392909216919091179055565b614b4f83614bf8565b600082511180614b5c5750805b1561221d576119128383614c38565b6000614b7d83600085600001516148a4565b15614bb65761314183606001518460e001516131378660000151868860400151614ba7919061543f565b8860c00151614142919061572c565b60408301516060840151613141918490612fb4565b6000610dcd8383612710612fb4565b60606115298484600085614c5d565b600081831161425e5781610dcd565b614c0181614aaa565b6040516001600160a01b038216907fbc7cd75a20ee27fd9adebab32041f755214dbc6bffa90cc0225b39da2e5c2d3b90600090a250565b6060610dcd838360405180606001604052806027815260200161588a60279139614d2d565b606082471015614cbe5760405162461bcd60e51b815260206004820152602660248201527f416464726573733a20696e73756666696369656e742062616c616e636520666f6044820152651c8818d85b1b60d21b606482015260840161036b565b600080866001600160a01b03168587604051614cda919061581a565b60006040518083038185875af1925050503d8060008114614d17576040519150601f19603f3d011682016040523d82523d6000602084013e614d1c565b606091505b5091509150612f8f87838387614d97565b6060600080856001600160a01b031685604051614d4a919061581a565b600060405180830381855af49150503d8060008114614d85576040519150601f19603f3d011682016040523d82523d6000602084013e614d8a565b606091505b5091509150610e28868383875b60608315614e06578251600003614dff576001600160a01b0385163b614dff5760405162461bcd60e51b815260206004820152601d60248201527f416464726573733a2063616c6c20746f206e6f6e2d636f6e7472616374000000604482015260640161036b565b5081611529565b6115298383815115614e1b5781518083602001fd5b8060405162461bcd60e51b815260040161036b9190615836565b6001600160a01b0381168114610c5757600080fd5b600060208284031215614e5c57600080fd5b8135610dcd81614e35565b600060208284031215614e7957600080fd5b81356001600160e01b031981168114610dcd57600080fd5b60008060408385031215614ea457600080fd5b8235614eaf81614e35565b946020939093013593505050565b600060208284031215614ecf57600080fd5b5035919050565b803560038110614ee557600080fd5b919050565b60008060408385031215614efd57600080fd5b82359150614f0d60208401614ed6565b90509250929050565b634e487b7160e01b600052604160045260246000fd5b600067ffffffffffffffff80841115614f4757614f47614f16565b604051601f8501601f19908116603f01168101908282118183101715614f6f57614f6f614f16565b81604052809350858152868686011115614f8857600080fd5b858560208301376000602087830101525050509392505050565b60008060408385031215614fb557600080fd5b8235614fc081614e35565b9150602083013567ffffffffffffffff811115614fdc57600080fd5b8301601f81018513614fed57600080fd5b614ffc85823560208401614f2c565b9150509250929050565b803562ffffff81168114614ee557600080fd5b6000806000806060858703121561502f57600080fd5b843561503a81614e35565b935061504860208601615006565b9250604085013567ffffffffffffffff8082111561506557600080fd5b818701915087601f83011261507957600080fd5b81358181111561508857600080fd5b8860208260051b850101111561509d57600080fd5b95989497505060200194505050565b8015158114610c5757600080fd5b600082601f8301126150cb57600080fd5b610dcd83833560208501614f2c565b600080600080600060a086880312156150f257600080fd5b853594506020860135615104816150ac565b9350604086013561511481614e35565b9250606086013567ffffffffffffffff81111561513057600080fd5b61513c888289016150ba565b925050608086013561514d81614e35565b809150509295509295909350565b6000806040838503121561516e57600080fd5b82359150602083013561518081614e35565b809150509250929050565b6000806040838503121561519e57600080fd5b823591506020830135615180816150ac565b6000806000606084860312156151c557600080fd5b83356151d081614e35565b95602085013595506040909401359392505050565b600080600080608085870312156151fb57600080fd5b84359350602085013561520d816150ac565b9250604085013567ffffffffffffffff81111561522957600080fd5b615235878288016150ba565b925050606085013561524681614e35565b939692955090935050565b803563ffffffff81168114614ee557600080fd5b60008060008060008060c0878903121561527e57600080fd5b863561528981614e35565b9550602087013561529981614e35565b945060408701356152a981614e35565b93506152b760608801615251565b92506152c560808801615251565b915060a087013561ffff811681146152dc57600080fd5b809150509295509295509295565b6000806000606084860312156152ff57600080fd5b83359250602084013561531181614e35565b915061531f60408501614ed6565b90509250925092565b60208082526012908201527137b7363c9030b9b9b2ba1036b0b730b3b2b960711b604082015260600190565b60006020828403121561536657600080fd5b5051919050565b6020808252600a90820152691bdb9b1e481859d95b9d60b21b604082015260600190565b6020808252602c908201527f46756e6374696f6e206d7573742062652063616c6c6564207468726f7567682060408201526b19195b1959d85d1958d85b1b60a21b606082015260800190565b6020808252602c908201527f46756e6374696f6e206d7573742062652063616c6c6564207468726f7567682060408201526b6163746976652070726f787960a01b606082015260800190565b634e487b7160e01b600052601160045260246000fd5b81810381811115610ca657610ca6615429565b80820180821115610ca657610ca6615429565b634e487b7160e01b600052602160045260246000fd5b62ffffff61548882615006565b16825260208101356bffffffffffffffffffffffff1981168082146154ac57600080fd5b60208401525060408101356effffffffffffffffffffffffffffff81168082146154d557600080fd5b6040840152506060810135600581106154ed57600080fd5b806060840152505050565b6001600160a01b038781168252861660208083019190915262ffffff86166040830152841515606083015260a06080830181905282810184905260009160c09081850190600587811b8701840189875b8a8110156155fe5789830360bf190186528135368d9003609e1901811261556e57600080fd5b8c01803536829003601e1901811261558557600080fd5b8101868101903567ffffffffffffffff8111156155a157600080fd5b80871b8036038313156155b357600080fd5b8b8752868c018290526001600160fb1b038211156155d057600080fd5b80838c8901376155e48988018a860161547b565b988801989590950189019450505090840190600101615548565b50909e9d5050505050505050505050505050565b60006020828403121561562457600080fd5b8151610dcd81614e35565b6001600160a01b039384168152919092166020820152604081019190915260600190565b6000806040838503121561566657600080fd5b505080516020909101519092909150565b6020808252601b908201527f662d617373657420616c6c6f77616e636520746f6f20736d616c6c0000000000604082015260600190565b6001600160a01b0393909316835260208301919091521515604082015260600190565b634e487b7160e01b600052601260045260246000fd5b6000826156f6576156f66156d1565b500490565b60006020828403121561570d57600080fd5b8151610dcd816150ac565b600082615727576157276156d1565b500690565b8082028115828204841417610ca657610ca6615429565b60208082526022908201527f616d6f756e74206f662073656e7420746f6b656e7320697320746f6f20736d616040820152611b1b60f21b606082015260800190565b60005b838110156157a0578181015183820152602001615788565b50506000910152565b600081518084526157c1816020860160208601615785565b601f01601f19169290920160200192915050565b600060018060a01b038088168352808716602084015285604084015260a0606084015261580560a08401866157a9565b91508084166080840152509695505050505050565b6000825161582c818460208701615785565b9190910192915050565b602081526000610dcd60208301846157a956fe360894a13ba1a3210667c828492db98dca3e2076cc3735a920a3ca505d382bbc3cbd229dedaa8b29b8f29100166a217701549be8e58e781f204124f23fd0154e416464726573733a206c6f772d6c6576656c2064656c65676174652063616c6c206661696c6564a2646970667358221220912654f1e7ba2d3d21f6423014c3dad5160fd5204afb46f2a7b931758c7a317964736f6c63430008170033",
  "linkReferences": {},
  "deployedLinkReferences": {}
}