{
  "_format": "hh-sol-artifact-1",
  "contractName": "GovernanceSettingsMock",
  "sourceName": "contracts/flareSmartContracts/mock/GovernanceSettingsMock.sol",
  "abi": [
    {
      "anonymous": false,
      "inputs": [
        {
          "indexed": false,
          "internalType": "uint256",
          "name": "timestamp",
          "type": "uint256"
        },
        {
          "indexed": false,
          "internalType": "address",
          "name": "oldGovernanceAddress",
          "type": "address"
        },
        {
          "indexed": false,
          "internalType": "address",
          "name": "newGovernanceAddress",
          "type": "address"
        }
      ],
      "name": "GovernanceAddressUpdated",
      "type": "event"
    },
    {
      "anonymous": false,
      "inputs": [
        {
          "indexed": false,
          "internalType": "uint256",
          "name": "timestamp",
          "type": "uint256"
        },
        {
          "indexed": false,
          "internalType": "address[]",
          "name": "oldExecutors",
          "type": "address[]"
        },
        {
          "indexed": false,
          "internalType": "address[]",
          "name": "newExecutors",
          "type": "address[]"
        }
      ],
      "name": "GovernanceExecutorsUpdated",
      "type": "event"
    },
    {
      "anonymous": false,
      "inputs": [
        {
          "indexed": false,
          "internalType": "uint256",
          "name": "timestamp",
          "type": "uint256"
        },
        {
          "indexed": false,
          "internalType": "uint256",
          "name": "oldTimelock",
          "type": "uint256"
        },
        {
          "indexed": false,
          "internalType": "uint256",
          "name": "newTimelock",
          "type": "uint256"
        }
      ],
      "name": "GovernanceTimelockUpdated",
      "type": "event"
    },
    {
      "inputs": [],
      "name": "SIGNAL_COINBASE",
      "outputs": [
        {
          "internalType": "address",
          "name": "",
          "type": "address"
        }
      ],
      "stateMutability": "view",
      "type": "function"
    },
    {
      "inputs": [],
      "name": "getExecutors",
      "outputs": [
        {
          "internalType": "address[]",
          "name": "",
          "type": "address[]"
        }
      ],
      "stateMutability": "view",
      "type": "function"
    },
    {
      "inputs": [],
      "name": "getGovernanceAddress",
      "outputs": [
        {
          "internalType": "address",
          "name": "",
          "type": "address"
        }
      ],
      "stateMutability": "view",
      "type": "function"
    },
    {
      "inputs": [],
      "name": "getTimelock",
      "outputs": [
        {
          "internalType": "uint256",
          "name": "",
          "type": "uint256"
        }
      ],
      "stateMutability": "view",
      "type": "function"
    },
    {
      "inputs": [
        {
          "internalType": "address",
          "name": "_governanceAddress",
          "type": "address"
        },
        {
          "internalType": "uint256",
          "name": "_timelock",
          "type": "uint256"
        },
        {
          "internalType": "address[]",
          "name": "_executors",
          "type": "address[]"
        }
      ],
      "name": "initialise",
      "outputs": [],
      "stateMutability": "nonpayable",
      "type": "function"
    },
    {
      "inputs": [
        {
          "internalType": "address",
          "name": "_address",
          "type": "address"
        }
      ],
      "name": "isExecutor",
      "outputs": [
        {
          "internalType": "bool",
          "name": "",
          "type": "bool"
        }
      ],
      "stateMutability": "view",
      "type": "function"
    },
    {
      "inputs": [
        {
          "internalType": "address[]",
          "name": "_newExecutors",
          "type": "address[]"
        }
      ],
      "name": "setExecutors",
      "outputs": [],
      "stateMutability": "nonpayable",
      "type": "function"
    },
    {
      "inputs": [
        {
          "internalType": "address",
          "name": "_newGovernance",
          "type": "address"
        }
      ],
      "name": "setGovernanceAddress",
      "outputs": [],
      "stateMutability": "nonpayable",
      "type": "function"
    },
    {
      "inputs": [
        {
          "internalType": "uint256",
          "name": "_newTimelock",
          "type": "uint256"
        }
      ],
      "name": "setTimelock",
      "outputs": [],
      "stateMutability": "nonpayable",
      "type": "function"
    }
  ],
  "bytecode": "0x6080604052348015600f57600080fd5b50610a4d8061001f6000396000f3fe608060405234801561001057600080fd5b50600436106100935760003560e01c80637ff6faa6116100665780637ff6faa61461010c578063cf0ea26814610116578063cfc1625414610129578063debfda301461013c578063ef09e78f1461017857600080fd5b80631d452e46146100985780631e891c0a146100ad5780636221a54b146100c057806373252494146100e7575b600080fd5b6100ab6100a636600461082d565b61018d565b005b6100ab6100bb36600461086a565b6101ea565b600054600160a01b900467ffffffffffffffff166040519081526020015b60405180910390f35b6000546001600160a01b03165b6040516001600160a01b0390911681526020016100de565b6100f4620dead081565b6100ab610124366004610883565b610329565b6100ab6101373660046108da565b61047d565b61016861014a3660046108da565b6001600160a01b031660009081526002602052604090205460ff1690565b60405190151581526020016100de565b610180610568565b6040516100de9190610941565b6000546001600160a01b031633146101de5760405162461bcd60e51b815260206004820152600f60248201526e6f6e6c7920676f7665726e616e636560881b60448201526064015b60405180910390fd5b6101e7816105ca565b50565b600054600160a01b900467ffffffffffffffff1681900361024d5760405162461bcd60e51b815260206004820152601860248201527f74696d656c6f636b203d3d205f6e657754696d656c6f636b000000000000000060448201526064016101d5565b6301e1338081106102955760405162461bcd60e51b815260206004820152601260248201527174696d656c6f636b20746f6f206c6172676560701b60448201526064016101d5565b33411480156102a6575041620dead0145b156101e75760005460408051428152600160a01b90920467ffffffffffffffff16602083015281018290527feb86fa0729fdcf66bda3d834e93bf513d3740be7f7a4a6cab0dd318f1df8514f9060600160405180910390a16000805467ffffffffffffffff8316600160a01b0267ffffffffffffffff60a01b1990911617905550565b3373fffec6c83c8bf5c3f4ae0ccf8c45ce20e4560bd71461038c5760405162461bcd60e51b815260206004820152601760248201527f6f6e6c792067656e6573697320676f7665726e616e636500000000000000000060448201526064016101d5565b600054600160e01b900460ff16156103dc5760405162461bcd60e51b8152602060048201526013602482015272185b1c9958591e481a5b9a5d1a585b1a5cd959606a1b60448201526064016101d5565b6301e1338082106104245760405162461bcd60e51b815260206004820152601260248201527174696d656c6f636b20746f6f206c6172676560701b60448201526064016101d5565b60008054600160e01b600168ff000000000000000160a01b03199091166001600160a01b038616171767ffffffffffffffff60a01b1916600160a01b67ffffffffffffffff851602179055610478816105ca565b505050565b6000546001600160a01b038083169116036104e65760405162461bcd60e51b815260206004820152602360248201527f676f7665726e616e636541646472657373203d3d205f6e6577476f7665726e616044820152626e636560e81b60648201526084016101d5565b33411480156104f7575041620dead0145b156101e757600054604080514281526001600160a01b03928316602082015291831682820152517f7e1a30031de5a45b59b70d6a9f61956645cf3cf9468588f31f4217f7c770d7cc9181900360600190a1600080546001600160a01b0383166001600160a01b031990911617905550565b606060018054806020026020016040519081016040528092919081815260200182805480156105c057602002820191906000526020600020905b81546001600160a01b031681526001909101906020018083116105a2575b5050505050905090565b7fa2c44af5dca41c60e42e3fc93e9fc4dd6e5d2c14ededf08259d3372874ac0854426001836040516105fe93929190610954565b60405180910390a15b600154156106a357600060026000600180808054905061062791906109c4565b81548110610637576106376109eb565b6000918252602080832091909101546001600160a01b031683528201929092526040019020805460ff1916911515919091179055600180548061067c5761067c610a01565b600082815260209020810160001990810180546001600160a01b0319169055019055610607565b60005b81518110156107515760018282815181106106c3576106c36109eb565b60209081029190910181015182546001808201855560009485529284200180546001600160a01b0319166001600160a01b0390921691909117905583519091600291859085908110610717576107176109eb565b6020908102919091018101516001600160a01b03168252810191909152604001600020805460ff19169115159190911790556001016106a6565b5050565b634e487b7160e01b600052604160045260246000fd5b80356001600160a01b038116811461078257600080fd5b919050565b600082601f83011261079857600080fd5b813567ffffffffffffffff8111156107b2576107b2610755565b8060051b604051601f19603f830116810181811067ffffffffffffffff821117156107df576107df610755565b6040529182526020818501810192908101868411156107fd57600080fd5b6020860192505b83831015610823576108158361076b565b815260209283019201610804565b5095945050505050565b60006020828403121561083f57600080fd5b813567ffffffffffffffff81111561085657600080fd5b61086284828501610787565b949350505050565b60006020828403121561087c57600080fd5b5035919050565b60008060006060848603121561089857600080fd5b6108a18461076b565b925060208401359150604084013567ffffffffffffffff8111156108c457600080fd5b6108d086828701610787565b9150509250925092565b6000602082840312156108ec57600080fd5b6108f58261076b565b9392505050565b600081518084526020840193506020830160005b828110156109375781516001600160a01b0316865260209586019590910190600101610910565b5093949350505050565b6020815260006108f560208301846108fc565b60006060820185835260606020840152808554808352608085019150866000526020600020925060005b818110156109a55783546001600160a01b031683526001938401936020909301920161097e565b505083810360408501526109b981866108fc565b979650505050505050565b818103818111156109e557634e487b7160e01b600052601160045260246000fd5b92915050565b634e487b7160e01b600052603260045260246000fd5b634e487b7160e01b600052603160045260246000fdfea26469706673582212202cc46c9031a22b1cce15d709c5466d4565d1e6448f0875ec1aac76cfb92fe41864736f6c634300081b0033",
  "linkReferences": {},
  "deployedLinkReferences": {}
}