{
  "_format": "hh-sol-artifact-1",
  "contractName": "TransferFeeFacet",
  "sourceName": "contracts/assetManager/facets/TransferFeeFacet.sol",
  "abi": [
    {
      "inputs": [],
      "stateMutability": "nonpayable",
      "type": "constructor"
    },
    {
      "anonymous": false,
      "inputs": [
        {
          "indexed": true,
          "internalType": "address",
          "name": "agentVault",
          "type": "address"
        },
        {
          "indexed": false,
          "internalType": "uint256",
          "name": "feeBIPS",
          "type": "uint256"
        },
        {
          "indexed": false,
          "internalType": "uint256",
          "name": "mintingVaultCollateralRatioBIPS",
          "type": "uint256"
        },
        {
          "indexed": false,
          "internalType": "uint256",
          "name": "mintingPoolCollateralRatioBIPS",
          "type": "uint256"
        },
        {
          "indexed": false,
          "internalType": "uint256",
          "name": "freeCollateralLots",
          "type": "uint256"
        }
      ],
      "name": "AgentAvailable",
      "type": "event"
    },
    {
      "anonymous": false,
      "inputs": [
        {
          "indexed": true,
          "internalType": "address",
          "name": "agentVault",
          "type": "address"
        },
        {
          "indexed": false,
          "internalType": "uint8",
          "name": "collateralClass",
          "type": "uint8"
        },
        {
          "indexed": false,
          "internalType": "address",
          "name": "token",
          "type": "address"
        }
      ],
      "name": "AgentCollateralTypeChanged",
      "type": "event"
    },
    {
      "anonymous": false,
      "inputs": [
        {
          "indexed": true,
          "internalType": "address",
          "name": "agentVault",
          "type": "address"
        },
        {
          "indexed": false,
          "internalType": "uint256",
          "name": "destroyAllowedAt",
          "type": "uint256"
        }
      ],
      "name": "AgentDestroyAnnounced",
      "type": "event"
    },
    {
      "anonymous": false,
      "inputs": [
        {
          "indexed": true,
          "internalType": "address",
          "name": "agentVault",
          "type": "address"
        }
      ],
      "name": "AgentDestroyed",
      "type": "event"
    },
    {
      "anonymous": false,
      "inputs": [
        {
          "indexed": true,
          "internalType": "address",
          "name": "agentVault",
          "type": "address"
        },
        {
          "indexed": false,
          "internalType": "uint256",
          "name": "timestamp",
          "type": "uint256"
        }
      ],
      "name": "AgentInCCB",
      "type": "event"
    },
    {
      "anonymous": false,
      "inputs": [
        {
          "indexed": true,
          "internalType": "address",
          "name": "agentVault",
          "type": "address"
        },
        {
          "indexed": false,
          "internalType": "string",
          "name": "name",
          "type": "string"
        },
        {
          "indexed": false,
          "internalType": "uint256",
          "name": "value",
          "type": "uint256"
        },
        {
          "indexed": false,
          "internalType": "uint256",
          "name": "validAt",
          "type": "uint256"
        }
      ],
      "name": "AgentSettingChangeAnnounced",
      "type": "event"
    },
    {
      "anonymous": false,
      "inputs": [
        {
          "indexed": true,
          "internalType": "address",
          "name": "agentVault",
          "type": "address"
        },
        {
          "indexed": false,
          "internalType": "string",
          "name": "name",
          "type": "string"
        },
        {
          "indexed": false,
          "internalType": "uint256",
          "name": "value",
          "type": "uint256"
        }
      ],
      "name": "AgentSettingChanged",
      "type": "event"
    },
    {
      "anonymous": false,
      "inputs": [
        {
          "indexed": true,
          "internalType": "address",
          "name": "owner",
          "type": "address"
        },
        {
          "indexed": true,
          "internalType": "address",
          "name": "agentVault",
          "type": "address"
        },
        {
          "components": [
            {
              "internalType": "address",
              "name": "collateralPool",
              "type": "address"
            },
            {
              "internalType": "address",
              "name": "collateralPoolToken",
              "type": "address"
            },
            {
              "internalType": "string",
              "name": "underlyingAddress",
              "type": "string"
            },
            {
              "internalType": "address",
              "name": "vaultCollateralToken",
              "type": "address"
            },
            {
              "internalType": "address",
              "name": "poolWNatToken",
              "type": "address"
            },
            {
              "internalType": "uint256",
              "name": "feeBIPS",
              "type": "uint256"
            },
            {
              "internalType": "uint256",
              "name": "poolFeeShareBIPS",
              "type": "uint256"
            },
            {
              "internalType": "uint256",
              "name": "mintingVaultCollateralRatioBIPS",
              "type": "uint256"
            },
            {
              "internalType": "uint256",
              "name": "mintingPoolCollateralRatioBIPS",
              "type": "uint256"
            },
            {
              "internalType": "uint256",
              "name": "buyFAssetByAgentFactorBIPS",
              "type": "uint256"
            },
            {
              "internalType": "uint256",
              "name": "poolExitCollateralRatioBIPS",
              "type": "uint256"
            },
            {
              "internalType": "uint256",
              "name": "poolTopupCollateralRatioBIPS",
              "type": "uint256"
            },
            {
              "internalType": "uint256",
              "name": "poolTopupTokenPriceFactorBIPS",
              "type": "uint256"
            },
            {
              "internalType": "uint256",
              "name": "handshakeType",
              "type": "uint256"
            }
          ],
          "indexed": false,
          "internalType": "struct IAssetManagerEvents.AgentVaultCreationData",
          "name": "creationData",
          "type": "tuple"
        }
      ],
      "name": "AgentVaultCreated",
      "type": "event"
    },
    {
      "anonymous": false,
      "inputs": [
        {
          "indexed": true,
          "internalType": "address",
          "name": "agentVault",
          "type": "address"
        },
        {
          "indexed": false,
          "internalType": "uint256",
          "name": "exitAllowedAt",
          "type": "uint256"
        }
      ],
      "name": "AvailableAgentExitAnnounced",
      "type": "event"
    },
    {
      "anonymous": false,
      "inputs": [
        {
          "indexed": true,
          "internalType": "address",
          "name": "agentVault",
          "type": "address"
        }
      ],
      "name": "AvailableAgentExited",
      "type": "event"
    },
    {
      "anonymous": false,
      "inputs": [
        {
          "indexed": false,
          "internalType": "uint8",
          "name": "collateralClass",
          "type": "uint8"
        },
        {
          "indexed": false,
          "internalType": "address",
          "name": "collateralToken",
          "type": "address"
        },
        {
          "indexed": false,
          "internalType": "uint256",
          "name": "minCollateralRatioBIPS",
          "type": "uint256"
        },
        {
          "indexed": false,
          "internalType": "uint256",
          "name": "ccbMinCollateralRatioBIPS",
          "type": "uint256"
        },
        {
          "indexed": false,
          "internalType": "uint256",
          "name": "safetyMinCollateralRatioBIPS",
          "type": "uint256"
        }
      ],
      "name": "CollateralRatiosChanged",
      "type": "event"
    },
    {
      "anonymous": false,
      "inputs": [
        {
          "indexed": true,
          "internalType": "address",
          "name": "agentVault",
          "type": "address"
        },
        {
          "indexed": true,
          "internalType": "address",
          "name": "minter",
          "type": "address"
        },
        {
          "indexed": true,
          "internalType": "uint256",
          "name": "collateralReservationId",
          "type": "uint256"
        }
      ],
      "name": "CollateralReservationCancelled",
      "type": "event"
    },
    {
      "anonymous": false,
      "inputs": [
        {
          "indexed": true,
          "internalType": "address",
          "name": "agentVault",
          "type": "address"
        },
        {
          "indexed": true,
          "internalType": "address",
          "name": "minter",
          "type": "address"
        },
        {
          "indexed": true,
          "internalType": "uint256",
          "name": "collateralReservationId",
          "type": "uint256"
        },
        {
          "indexed": false,
          "internalType": "uint256",
          "name": "reservedAmountUBA",
          "type": "uint256"
        }
      ],
      "name": "CollateralReservationDeleted",
      "type": "event"
    },
    {
      "anonymous": false,
      "inputs": [
        {
          "indexed": true,
          "internalType": "address",
          "name": "agentVault",
          "type": "address"
        },
        {
          "indexed": true,
          "internalType": "address",
          "name": "minter",
          "type": "address"
        },
        {
          "indexed": true,
          "internalType": "uint256",
          "name": "collateralReservationId",
          "type": "uint256"
        }
      ],
      "name": "CollateralReservationRejected",
      "type": "event"
    },
    {
      "anonymous": false,
      "inputs": [
        {
          "indexed": true,
          "internalType": "address",
          "name": "agentVault",
          "type": "address"
        },
        {
          "indexed": true,
          "internalType": "address",
          "name": "minter",
          "type": "address"
        },
        {
          "indexed": true,
          "internalType": "uint256",
          "name": "collateralReservationId",
          "type": "uint256"
        },
        {
          "indexed": false,
          "internalType": "uint256",
          "name": "valueUBA",
          "type": "uint256"
        },
        {
          "indexed": false,
          "internalType": "uint256",
          "name": "feeUBA",
          "type": "uint256"
        },
        {
          "indexed": false,
          "internalType": "uint256",
          "name": "firstUnderlyingBlock",
          "type": "uint256"
        },
        {
          "indexed": false,
          "internalType": "uint256",
          "name": "lastUnderlyingBlock",
          "type": "uint256"
        },
        {
          "indexed": false,
          "internalType": "uint256",
          "name": "lastUnderlyingTimestamp",
          "type": "uint256"
        },
        {
          "indexed": false,
          "internalType": "string",
          "name": "paymentAddress",
          "type": "string"
        },
        {
          "indexed": false,
          "internalType": "bytes32",
          "name": "paymentReference",
          "type": "bytes32"
        },
        {
          "indexed": false,
          "internalType": "address",
          "name": "executor",
          "type": "address"
        },
        {
          "indexed": false,
          "internalType": "uint256",
          "name": "executorFeeNatWei",
          "type": "uint256"
        }
      ],
      "name": "CollateralReserved",
      "type": "event"
    },
    {
      "anonymous": false,
      "inputs": [
        {
          "indexed": false,
          "internalType": "uint8",
          "name": "collateralClass",
          "type": "uint8"
        },
        {
          "indexed": false,
          "internalType": "address",
          "name": "token",
          "type": "address"
        },
        {
          "indexed": false,
          "internalType": "uint256",
          "name": "decimals",
          "type": "uint256"
        },
        {
          "indexed": false,
          "internalType": "bool",
          "name": "directPricePair",
          "type": "bool"
        },
        {
          "indexed": false,
          "internalType": "string",
          "name": "assetFtsoSymbol",
          "type": "string"
        },
        {
          "indexed": false,
          "internalType": "string",
          "name": "tokenFtsoSymbol",
          "type": "string"
        },
        {
          "indexed": false,
          "internalType": "uint256",
          "name": "minCollateralRatioBIPS",
          "type": "uint256"
        },
        {
          "indexed": false,
          "internalType": "uint256",
          "name": "ccbMinCollateralRatioBIPS",
          "type": "uint256"
        },
        {
          "indexed": false,
          "internalType": "uint256",
          "name": "safetyMinCollateralRatioBIPS",
          "type": "uint256"
        }
      ],
      "name": "CollateralTypeAdded",
      "type": "event"
    },
    {
      "anonymous": false,
      "inputs": [
        {
          "indexed": false,
          "internalType": "uint8",
          "name": "collateralClass",
          "type": "uint8"
        },
        {
          "indexed": false,
          "internalType": "address",
          "name": "collateralToken",
          "type": "address"
        },
        {
          "indexed": false,
          "internalType": "uint256",
          "name": "validUntil",
          "type": "uint256"
        }
      ],
      "name": "CollateralTypeDeprecated",
      "type": "event"
    },
    {
      "anonymous": false,
      "inputs": [
        {
          "indexed": false,
          "internalType": "string",
          "name": "name",
          "type": "string"
        },
        {
          "indexed": false,
          "internalType": "address",
          "name": "value",
          "type": "address"
        }
      ],
      "name": "ContractChanged",
      "type": "event"
    },
    {
      "anonymous": false,
      "inputs": [
        {
          "indexed": false,
          "internalType": "uint256",
          "name": "underlyingBlockNumber",
          "type": "uint256"
        },
        {
          "indexed": false,
          "internalType": "uint256",
          "name": "underlyingBlockTimestamp",
          "type": "uint256"
        },
        {
          "indexed": false,
          "internalType": "uint256",
          "name": "updatedAt",
          "type": "uint256"
        }
      ],
      "name": "CurrentUnderlyingBlockUpdated",
      "type": "event"
    },
    {
      "anonymous": false,
      "inputs": [
        {
          "indexed": true,
          "internalType": "address",
          "name": "agentVault",
          "type": "address"
        },
        {
          "indexed": false,
          "internalType": "bytes32",
          "name": "transactionHash1",
          "type": "bytes32"
        },
        {
          "indexed": false,
          "internalType": "bytes32",
          "name": "transactionHash2",
          "type": "bytes32"
        }
      ],
      "name": "DuplicatePaymentConfirmed",
      "type": "event"
    },
    {
      "anonymous": false,
      "inputs": [
        {
          "indexed": true,
          "internalType": "address",
          "name": "agentVault",
          "type": "address"
        },
        {
          "indexed": false,
          "internalType": "uint256",
          "name": "dustUBA",
          "type": "uint256"
        }
      ],
      "name": "DustChanged",
      "type": "event"
    },
    {
      "anonymous": false,
      "inputs": [],
      "name": "EmergencyPauseCanceled",
      "type": "event"
    },
    {
      "anonymous": false,
      "inputs": [],
      "name": "EmergencyPauseTransfersCanceled",
      "type": "event"
    },
    {
      "anonymous": false,
      "inputs": [
        {
          "indexed": false,
          "internalType": "uint256",
          "name": "pausedUntil",
          "type": "uint256"
        }
      ],
      "name": "EmergencyPauseTransfersTriggered",
      "type": "event"
    },
    {
      "anonymous": false,
      "inputs": [
        {
          "indexed": false,
          "internalType": "uint256",
          "name": "pausedUntil",
          "type": "uint256"
        }
      ],
      "name": "EmergencyPauseTriggered",
      "type": "event"
    },
    {
      "anonymous": false,
      "inputs": [
        {
          "indexed": true,
          "internalType": "address",
          "name": "agentVault",
          "type": "address"
        },
        {
          "indexed": false,
          "internalType": "uint256",
          "name": "timestamp",
          "type": "uint256"
        }
      ],
      "name": "FullLiquidationStarted",
      "type": "event"
    },
    {
      "anonymous": false,
      "inputs": [
        {
          "indexed": true,
          "internalType": "address",
          "name": "agentVault",
          "type": "address"
        },
        {
          "indexed": true,
          "internalType": "address",
          "name": "minter",
          "type": "address"
        },
        {
          "indexed": true,
          "internalType": "uint256",
          "name": "collateralReservationId",
          "type": "uint256"
        },
        {
          "indexed": false,
          "internalType": "string[]",
          "name": "minterUnderlyingAddresses",
          "type": "string[]"
        },
        {
          "indexed": false,
          "internalType": "uint256",
          "name": "valueUBA",
          "type": "uint256"
        },
        {
          "indexed": false,
          "internalType": "uint256",
          "name": "feeUBA",
          "type": "uint256"
        }
      ],
      "name": "HandshakeRequired",
      "type": "event"
    },
    {
      "anonymous": false,
      "inputs": [
        {
          "indexed": true,
          "internalType": "address",
          "name": "agentVault",
          "type": "address"
        },
        {
          "indexed": false,
          "internalType": "bytes32",
          "name": "transactionHash",
          "type": "bytes32"
        }
      ],
      "name": "IllegalPaymentConfirmed",
      "type": "event"
    },
    {
      "anonymous": false,
      "inputs": [
        {
          "indexed": true,
          "internalType": "address",
          "name": "agentVault",
          "type": "address"
        }
      ],
      "name": "LiquidationEnded",
      "type": "event"
    },
    {
      "anonymous": false,
      "inputs": [
        {
          "indexed": true,
          "internalType": "address",
          "name": "agentVault",
          "type": "address"
        },
        {
          "indexed": true,
          "internalType": "address",
          "name": "liquidator",
          "type": "address"
        },
        {
          "indexed": false,
          "internalType": "uint256",
          "name": "valueUBA",
          "type": "uint256"
        },
        {
          "indexed": false,
          "internalType": "uint256",
          "name": "paidVaultCollateralWei",
          "type": "uint256"
        },
        {
          "indexed": false,
          "internalType": "uint256",
          "name": "paidPoolCollateralWei",
          "type": "uint256"
        }
      ],
      "name": "LiquidationPerformed",
      "type": "event"
    },
    {
      "anonymous": false,
      "inputs": [
        {
          "indexed": true,
          "internalType": "address",
          "name": "agentVault",
          "type": "address"
        },
        {
          "indexed": false,
          "internalType": "uint256",
          "name": "timestamp",
          "type": "uint256"
        }
      ],
      "name": "LiquidationStarted",
      "type": "event"
    },
    {
      "anonymous": false,
      "inputs": [
        {
          "indexed": true,
          "internalType": "address",
          "name": "agentVault",
          "type": "address"
        },
        {
          "indexed": true,
          "internalType": "uint256",
          "name": "collateralReservationId",
          "type": "uint256"
        },
        {
          "indexed": false,
          "internalType": "uint256",
          "name": "mintedAmountUBA",
          "type": "uint256"
        },
        {
          "indexed": false,
          "internalType": "uint256",
          "name": "agentFeeUBA",
          "type": "uint256"
        },
        {
          "indexed": false,
          "internalType": "uint256",
          "name": "poolFeeUBA",
          "type": "uint256"
        }
      ],
      "name": "MintingExecuted",
      "type": "event"
    },
    {
      "anonymous": false,
      "inputs": [
        {
          "indexed": true,
          "internalType": "address",
          "name": "agentVault",
          "type": "address"
        },
        {
          "indexed": true,
          "internalType": "address",
          "name": "minter",
          "type": "address"
        },
        {
          "indexed": true,
          "internalType": "uint256",
          "name": "collateralReservationId",
          "type": "uint256"
        },
        {
          "indexed": false,
          "internalType": "uint256",
          "name": "reservedAmountUBA",
          "type": "uint256"
        }
      ],
      "name": "MintingPaymentDefault",
      "type": "event"
    },
    {
      "anonymous": false,
      "inputs": [
        {
          "indexed": true,
          "internalType": "address",
          "name": "agentVault",
          "type": "address"
        },
        {
          "indexed": false,
          "internalType": "uint256",
          "name": "amountWei",
          "type": "uint256"
        },
        {
          "indexed": false,
          "internalType": "uint256",
          "name": "withdrawalAllowedAt",
          "type": "uint256"
        }
      ],
      "name": "PoolTokenRedemptionAnnounced",
      "type": "event"
    },
    {
      "anonymous": false,
      "inputs": [
        {
          "indexed": true,
          "internalType": "address",
          "name": "agentVault",
          "type": "address"
        },
        {
          "indexed": true,
          "internalType": "address",
          "name": "redeemer",
          "type": "address"
        },
        {
          "indexed": false,
          "internalType": "uint256",
          "name": "redemptionAmountUBA",
          "type": "uint256"
        },
        {
          "indexed": false,
          "internalType": "uint256",
          "name": "paidVaultCollateralWei",
          "type": "uint256"
        }
      ],
      "name": "RedeemedInCollateral",
      "type": "event"
    },
    {
      "anonymous": false,
      "inputs": [
        {
          "indexed": true,
          "internalType": "address",
          "name": "agentVault",
          "type": "address"
        },
        {
          "indexed": true,
          "internalType": "address",
          "name": "redeemer",
          "type": "address"
        },
        {
          "indexed": true,
          "internalType": "uint64",
          "name": "requestId",
          "type": "uint64"
        },
        {
          "indexed": false,
          "internalType": "uint256",
          "name": "redemptionAmountUBA",
          "type": "uint256"
        },
        {
          "indexed": false,
          "internalType": "uint256",
          "name": "redeemedVaultCollateralWei",
          "type": "uint256"
        },
        {
          "indexed": false,
          "internalType": "uint256",
          "name": "redeemedPoolCollateralWei",
          "type": "uint256"
        }
      ],
      "name": "RedemptionDefault",
      "type": "event"
    },
    {
      "anonymous": false,
      "inputs": [
        {
          "indexed": true,
          "internalType": "address",
          "name": "agentVault",
          "type": "address"
        },
        {
          "indexed": true,
          "internalType": "address",
          "name": "redeemer",
          "type": "address"
        },
        {
          "indexed": true,
          "internalType": "uint64",
          "name": "requestId",
          "type": "uint64"
        },
        {
          "indexed": false,
          "internalType": "bytes32",
          "name": "transactionHash",
          "type": "bytes32"
        },
        {
          "indexed": false,
          "internalType": "uint256",
          "name": "redemptionAmountUBA",
          "type": "uint256"
        },
        {
          "indexed": false,
          "internalType": "int256",
          "name": "spentUnderlyingUBA",
          "type": "int256"
        }
      ],
      "name": "RedemptionPaymentBlocked",
      "type": "event"
    },
    {
      "anonymous": false,
      "inputs": [
        {
          "indexed": true,
          "internalType": "address",
          "name": "agentVault",
          "type": "address"
        },
        {
          "indexed": true,
          "internalType": "address",
          "name": "redeemer",
          "type": "address"
        },
        {
          "indexed": true,
          "internalType": "uint64",
          "name": "requestId",
          "type": "uint64"
        },
        {
          "indexed": false,
          "internalType": "bytes32",
          "name": "transactionHash",
          "type": "bytes32"
        },
        {
          "indexed": false,
          "internalType": "int256",
          "name": "spentUnderlyingUBA",
          "type": "int256"
        },
        {
          "indexed": false,
          "internalType": "string",
          "name": "failureReason",
          "type": "string"
        }
      ],
      "name": "RedemptionPaymentFailed",
      "type": "event"
    },
    {
      "anonymous": false,
      "inputs": [
        {
          "indexed": true,
          "internalType": "address",
          "name": "agentVault",
          "type": "address"
        },
        {
          "indexed": true,
          "internalType": "address",
          "name": "redeemer",
          "type": "address"
        },
        {
          "indexed": true,
          "internalType": "uint64",
          "name": "requestId",
          "type": "uint64"
        },
        {
          "indexed": false,
          "internalType": "bytes32",
          "name": "transactionHash",
          "type": "bytes32"
        },
        {
          "indexed": false,
          "internalType": "uint256",
          "name": "redemptionAmountUBA",
          "type": "uint256"
        },
        {
          "indexed": false,
          "internalType": "int256",
          "name": "spentUnderlyingUBA",
          "type": "int256"
        }
      ],
      "name": "RedemptionPerformed",
      "type": "event"
    },
    {
      "anonymous": false,
      "inputs": [
        {
          "indexed": true,
          "internalType": "address",
          "name": "agentVault",
          "type": "address"
        },
        {
          "indexed": true,
          "internalType": "uint64",
          "name": "requestId",
          "type": "uint64"
        },
        {
          "indexed": false,
          "internalType": "uint256",
          "name": "poolFeeUBA",
          "type": "uint256"
        }
      ],
      "name": "RedemptionPoolFeeMinted",
      "type": "event"
    },
    {
      "anonymous": false,
      "inputs": [
        {
          "indexed": true,
          "internalType": "address",
          "name": "agentVault",
          "type": "address"
        },
        {
          "indexed": true,
          "internalType": "address",
          "name": "redeemer",
          "type": "address"
        },
        {
          "indexed": true,
          "internalType": "uint64",
          "name": "requestId",
          "type": "uint64"
        },
        {
          "indexed": false,
          "internalType": "uint256",
          "name": "redemptionAmountUBA",
          "type": "uint256"
        }
      ],
      "name": "RedemptionRejected",
      "type": "event"
    },
    {
      "anonymous": false,
      "inputs": [
        {
          "indexed": true,
          "internalType": "address",
          "name": "redeemer",
          "type": "address"
        },
        {
          "indexed": false,
          "internalType": "uint256",
          "name": "remainingLots",
          "type": "uint256"
        }
      ],
      "name": "RedemptionRequestIncomplete",
      "type": "event"
    },
    {
      "anonymous": false,
      "inputs": [
        {
          "indexed": true,
          "internalType": "address",
          "name": "agentVault",
          "type": "address"
        },
        {
          "indexed": true,
          "internalType": "address",
          "name": "redeemer",
          "type": "address"
        },
        {
          "indexed": true,
          "internalType": "uint64",
          "name": "requestId",
          "type": "uint64"
        },
        {
          "indexed": false,
          "internalType": "string",
          "name": "paymentAddress",
          "type": "string"
        },
        {
          "indexed": false,
          "internalType": "uint256",
          "name": "valueUBA",
          "type": "uint256"
        }
      ],
      "name": "RedemptionRequestRejected",
      "type": "event"
    },
    {
      "anonymous": false,
      "inputs": [
        {
          "indexed": true,
          "internalType": "address",
          "name": "agentVault",
          "type": "address"
        },
        {
          "indexed": true,
          "internalType": "address",
          "name": "redeemer",
          "type": "address"
        },
        {
          "indexed": true,
          "internalType": "uint64",
          "name": "requestId",
          "type": "uint64"
        },
        {
          "indexed": false,
          "internalType": "uint256",
          "name": "valueTakenOverUBA",
          "type": "uint256"
        },
        {
          "indexed": false,
          "internalType": "address",
          "name": "newAgentVault",
          "type": "address"
        },
        {
          "indexed": false,
          "internalType": "uint64",
          "name": "newRequestId",
          "type": "uint64"
        }
      ],
      "name": "RedemptionRequestTakenOver",
      "type": "event"
    },
    {
      "anonymous": false,
      "inputs": [
        {
          "indexed": true,
          "internalType": "address",
          "name": "agentVault",
          "type": "address"
        },
        {
          "indexed": true,
          "internalType": "address",
          "name": "redeemer",
          "type": "address"
        },
        {
          "indexed": true,
          "internalType": "uint256",
          "name": "requestId",
          "type": "uint256"
        },
        {
          "indexed": false,
          "internalType": "string",
          "name": "paymentAddress",
          "type": "string"
        },
        {
          "indexed": false,
          "internalType": "uint256",
          "name": "valueUBA",
          "type": "uint256"
        },
        {
          "indexed": false,
          "internalType": "uint256",
          "name": "feeUBA",
          "type": "uint256"
        },
        {
          "indexed": false,
          "internalType": "uint256",
          "name": "firstUnderlyingBlock",
          "type": "uint256"
        },
        {
          "indexed": false,
          "internalType": "uint256",
          "name": "lastUnderlyingBlock",
          "type": "uint256"
        },
        {
          "indexed": false,
          "internalType": "uint256",
          "name": "lastUnderlyingTimestamp",
          "type": "uint256"
        },
        {
          "indexed": false,
          "internalType": "bytes32",
          "name": "paymentReference",
          "type": "bytes32"
        },
        {
          "indexed": false,
          "internalType": "address",
          "name": "executor",
          "type": "address"
        },
        {
          "indexed": false,
          "internalType": "uint256",
          "name": "executorFeeNatWei",
          "type": "uint256"
        }
      ],
      "name": "RedemptionRequested",
      "type": "event"
    },
    {
      "anonymous": false,
      "inputs": [
        {
          "indexed": true,
          "internalType": "address",
          "name": "agentVault",
          "type": "address"
        },
        {
          "indexed": true,
          "internalType": "uint256",
          "name": "redemptionTicketId",
          "type": "uint256"
        },
        {
          "indexed": false,
          "internalType": "uint256",
          "name": "ticketValueUBA",
          "type": "uint256"
        }
      ],
      "name": "RedemptionTicketCreated",
      "type": "event"
    },
    {
      "anonymous": false,
      "inputs": [
        {
          "indexed": true,
          "internalType": "address",
          "name": "agentVault",
          "type": "address"
        },
        {
          "indexed": true,
          "internalType": "uint256",
          "name": "redemptionTicketId",
          "type": "uint256"
        }
      ],
      "name": "RedemptionTicketDeleted",
      "type": "event"
    },
    {
      "anonymous": false,
      "inputs": [
        {
          "indexed": true,
          "internalType": "address",
          "name": "agentVault",
          "type": "address"
        },
        {
          "indexed": true,
          "internalType": "uint256",
          "name": "redemptionTicketId",
          "type": "uint256"
        },
        {
          "indexed": false,
          "internalType": "uint256",
          "name": "ticketValueUBA",
          "type": "uint256"
        }
      ],
      "name": "RedemptionTicketUpdated",
      "type": "event"
    },
    {
      "anonymous": false,
      "inputs": [
        {
          "indexed": true,
          "internalType": "address",
          "name": "agentVault",
          "type": "address"
        },
        {
          "indexed": false,
          "internalType": "uint256",
          "name": "valueUBA",
          "type": "uint256"
        }
      ],
      "name": "SelfClose",
      "type": "event"
    },
    {
      "anonymous": false,
      "inputs": [
        {
          "indexed": true,
          "internalType": "address",
          "name": "agentVault",
          "type": "address"
        },
        {
          "indexed": false,
          "internalType": "bool",
          "name": "mintFromFreeUnderlying",
          "type": "bool"
        },
        {
          "indexed": false,
          "internalType": "uint256",
          "name": "mintedAmountUBA",
          "type": "uint256"
        },
        {
          "indexed": false,
          "internalType": "uint256",
          "name": "depositedAmountUBA",
          "type": "uint256"
        },
        {
          "indexed": false,
          "internalType": "uint256",
          "name": "poolFeeUBA",
          "type": "uint256"
        }
      ],
      "name": "SelfMint",
      "type": "event"
    },
    {
      "anonymous": false,
      "inputs": [
        {
          "indexed": false,
          "internalType": "string",
          "name": "name",
          "type": "string"
        },
        {
          "indexed": false,
          "internalType": "uint256[]",
          "name": "value",
          "type": "uint256[]"
        }
      ],
      "name": "SettingArrayChanged",
      "type": "event"
    },
    {
      "anonymous": false,
      "inputs": [
        {
          "indexed": false,
          "internalType": "string",
          "name": "name",
          "type": "string"
        },
        {
          "indexed": false,
          "internalType": "uint256",
          "name": "value",
          "type": "uint256"
        }
      ],
      "name": "SettingChanged",
      "type": "event"
    },
    {
      "anonymous": false,
      "inputs": [
        {
          "indexed": false,
          "internalType": "uint256",
          "name": "nextTransferFeeMillionths",
          "type": "uint256"
        },
        {
          "indexed": false,
          "internalType": "uint256",
          "name": "scheduledAt",
          "type": "uint256"
        }
      ],
      "name": "TransferFeeChangeScheduled",
      "type": "event"
    },
    {
      "anonymous": false,
      "inputs": [
        {
          "indexed": true,
          "internalType": "address",
          "name": "agentVault",
          "type": "address"
        },
        {
          "indexed": false,
          "internalType": "address",
          "name": "recipient",
          "type": "address"
        },
        {
          "indexed": false,
          "internalType": "uint256",
          "name": "agentClaimedUBA",
          "type": "uint256"
        },
        {
          "indexed": false,
          "internalType": "uint256",
          "name": "poolClaimedUBA",
          "type": "uint256"
        },
        {
          "indexed": false,
          "internalType": "uint256",
          "name": "remainingUnclaimedEpochs",
          "type": "uint256"
        }
      ],
      "name": "TransferFeesClaimed",
      "type": "event"
    },
    {
      "anonymous": false,
      "inputs": [
        {
          "indexed": true,
          "internalType": "address",
          "name": "agentVault",
          "type": "address"
        },
        {
          "indexed": false,
          "internalType": "int256",
          "name": "underlyingBalanceUBA",
          "type": "int256"
        }
      ],
      "name": "UnderlyingBalanceChanged",
      "type": "event"
    },
    {
      "anonymous": false,
      "inputs": [
        {
          "indexed": true,
          "internalType": "address",
          "name": "agentVault",
          "type": "address"
        },
        {
          "indexed": false,
          "internalType": "int256",
          "name": "balance",
          "type": "int256"
        },
        {
          "indexed": false,
          "internalType": "uint256",
          "name": "requiredBalance",
          "type": "uint256"
        }
      ],
      "name": "UnderlyingBalanceTooLow",
      "type": "event"
    },
    {
      "anonymous": false,
      "inputs": [
        {
          "indexed": true,
          "internalType": "address",
          "name": "agentVault",
          "type": "address"
        },
        {
          "indexed": false,
          "internalType": "bytes32",
          "name": "transactionHash",
          "type": "bytes32"
        },
        {
          "indexed": false,
          "internalType": "uint256",
          "name": "depositedUBA",
          "type": "uint256"
        }
      ],
      "name": "UnderlyingBalanceToppedUp",
      "type": "event"
    },
    {
      "anonymous": false,
      "inputs": [
        {
          "indexed": true,
          "internalType": "address",
          "name": "agentVault",
          "type": "address"
        },
        {
          "indexed": true,
          "internalType": "uint64",
          "name": "announcementId",
          "type": "uint64"
        },
        {
          "indexed": false,
          "internalType": "bytes32",
          "name": "paymentReference",
          "type": "bytes32"
        }
      ],
      "name": "UnderlyingWithdrawalAnnounced",
      "type": "event"
    },
    {
      "anonymous": false,
      "inputs": [
        {
          "indexed": true,
          "internalType": "address",
          "name": "agentVault",
          "type": "address"
        },
        {
          "indexed": true,
          "internalType": "uint64",
          "name": "announcementId",
          "type": "uint64"
        }
      ],
      "name": "UnderlyingWithdrawalCancelled",
      "type": "event"
    },
    {
      "anonymous": false,
      "inputs": [
        {
          "indexed": true,
          "internalType": "address",
          "name": "agentVault",
          "type": "address"
        },
        {
          "indexed": true,
          "internalType": "uint64",
          "name": "announcementId",
          "type": "uint64"
        },
        {
          "indexed": false,
          "internalType": "int256",
          "name": "spentUBA",
          "type": "int256"
        },
        {
          "indexed": false,
          "internalType": "bytes32",
          "name": "transactionHash",
          "type": "bytes32"
        }
      ],
      "name": "UnderlyingWithdrawalConfirmed",
      "type": "event"
    },
    {
      "anonymous": false,
      "inputs": [
        {
          "indexed": true,
          "internalType": "address",
          "name": "agentVault",
          "type": "address"
        },
        {
          "indexed": false,
          "internalType": "uint256",
          "name": "amountWei",
          "type": "uint256"
        },
        {
          "indexed": false,
          "internalType": "uint256",
          "name": "withdrawalAllowedAt",
          "type": "uint256"
        }
      ],
      "name": "VaultCollateralWithdrawalAnnounced",
      "type": "event"
    },
    {
      "inputs": [
        {
          "internalType": "address",
          "name": "_agentVault",
          "type": "address"
        },
        {
          "internalType": "uint256",
          "name": "_maxEpochsToClaim",
          "type": "uint256"
        }
      ],
      "name": "agentTransferFeeShare",
      "outputs": [
        {
          "internalType": "uint256",
          "name": "_feeShareUBA",
          "type": "uint256"
        }
      ],
      "stateMutability": "view",
      "type": "function"
    },
    {
      "inputs": [
        {
          "internalType": "address",
          "name": "_agentVault",
          "type": "address"
        },
        {
          "internalType": "uint256",
          "name": "_epoch",
          "type": "uint256"
        }
      ],
      "name": "agentTransferFeeShareForEpoch",
      "outputs": [
        {
          "internalType": "uint256",
          "name": "",
          "type": "uint256"
        }
      ],
      "stateMutability": "view",
      "type": "function"
    },
    {
      "inputs": [
        {
          "internalType": "address",
          "name": "_agentVault",
          "type": "address"
        }
      ],
      "name": "agentUnclaimedTransferFeeEpochs",
      "outputs": [
        {
          "internalType": "uint256",
          "name": "_first",
          "type": "uint256"
        },
        {
          "internalType": "uint256",
          "name": "_count",
          "type": "uint256"
        }
      ],
      "stateMutability": "view",
      "type": "function"
    },
    {
      "inputs": [
        {
          "internalType": "address",
          "name": "_agentVault",
          "type": "address"
        },
        {
          "internalType": "address",
          "name": "_recipient",
          "type": "address"
        },
        {
          "internalType": "uint256",
          "name": "_maxEpochsToClaim",
          "type": "uint256"
        }
      ],
      "name": "claimTransferFees",
      "outputs": [
        {
          "internalType": "uint256",
          "name": "_agentClaimedUBA",
          "type": "uint256"
        },
        {
          "internalType": "uint256",
          "name": "_poolClaimedUBA",
          "type": "uint256"
        },
        {
          "internalType": "uint256",
          "name": "_remainingUnclaimedEpochs",
          "type": "uint256"
        }
      ],
      "stateMutability": "nonpayable",
      "type": "function"
    },
    {
      "inputs": [],
      "name": "currentTransferFeeEpoch",
      "outputs": [
        {
          "internalType": "uint256",
          "name": "",
          "type": "uint256"
        }
      ],
      "stateMutability": "view",
      "type": "function"
    },
    {
      "inputs": [
        {
          "internalType": "uint256",
          "name": "_fee",
          "type": "uint256"
        }
      ],
      "name": "fassetTransferFeePaid",
      "outputs": [],
      "stateMutability": "nonpayable",
      "type": "function"
    },
    {
      "inputs": [],
      "name": "firstClaimableTransferFeeEpoch",
      "outputs": [
        {
          "internalType": "uint256",
          "name": "",
          "type": "uint256"
        }
      ],
      "stateMutability": "view",
      "type": "function"
    },
    {
      "inputs": [
        {
          "internalType": "address[]",
          "name": "_agentVaults",
          "type": "address[]"
        }
      ],
      "name": "initAgentsMintingHistory",
      "outputs": [],
      "stateMutability": "nonpayable",
      "type": "function"
    },
    {
      "inputs": [
        {
          "internalType": "uint256",
          "name": "_transferFeeMillionths",
          "type": "uint256"
        },
        {
          "internalType": "uint256",
          "name": "_firstEpochStartTs",
          "type": "uint256"
        },
        {
          "internalType": "uint256",
          "name": "_epochDuration",
          "type": "uint256"
        },
        {
          "internalType": "uint256",
          "name": "_maxUnexpiredEpochs",
          "type": "uint256"
        }
      ],
      "name": "initTransferFeeFacet",
      "outputs": [],
      "stateMutability": "nonpayable",
      "type": "function"
    },
    {
      "inputs": [
        {
          "internalType": "uint256",
          "name": "_value",
          "type": "uint256"
        },
        {
          "internalType": "uint256",
          "name": "_scheduledAt",
          "type": "uint256"
        }
      ],
      "name": "setTransferFeeMillionths",
      "outputs": [],
      "stateMutability": "nonpayable",
      "type": "function"
    },
    {
      "inputs": [
        {
          "internalType": "address",
          "name": "_agentVault",
          "type": "address"
        },
        {
          "internalType": "uint256",
          "name": "_epoch",
          "type": "uint256"
        }
      ],
      "name": "transferFeeCalculationDataForAgent",
      "outputs": [
        {
          "components": [
            {
              "internalType": "uint256",
              "name": "totalFees",
              "type": "uint256"
            },
            {
              "internalType": "uint256",
              "name": "cumulativeMinted",
              "type": "uint256"
            },
            {
              "internalType": "uint256",
              "name": "totalCumulativeMinted",
              "type": "uint256"
            },
            {
              "internalType": "bool",
              "name": "claimable",
              "type": "bool"
            },
            {
              "internalType": "bool",
              "name": "claimed",
              "type": "bool"
            }
          ],
          "internalType": "struct ITransferFees.TransferFeeCalculationDataForAgent",
          "name": "",
          "type": "tuple"
        }
      ],
      "stateMutability": "view",
      "type": "function"
    },
    {
      "inputs": [
        {
          "internalType": "uint256",
          "name": "_epoch",
          "type": "uint256"
        }
      ],
      "name": "transferFeeEpochData",
      "outputs": [
        {
          "components": [
            {
              "internalType": "uint256",
              "name": "startTs",
              "type": "uint256"
            },
            {
              "internalType": "uint256",
              "name": "endTs",
              "type": "uint256"
            },
            {
              "internalType": "uint256",
              "name": "totalFees",
              "type": "uint256"
            },
            {
              "internalType": "uint256",
              "name": "claimedFees",
              "type": "uint256"
            },
            {
              "internalType": "bool",
              "name": "claimable",
              "type": "bool"
            },
            {
              "internalType": "bool",
              "name": "expired",
              "type": "bool"
            }
          ],
          "internalType": "struct ITransferFees.TransferFeeEpochData",
          "name": "",
          "type": "tuple"
        }
      ],
      "stateMutability": "view",
      "type": "function"
    },
    {
      "inputs": [],
      "name": "transferFeeMillionths",
      "outputs": [
        {
          "internalType": "uint256",
          "name": "",
          "type": "uint256"
        }
      ],
      "stateMutability": "view",
      "type": "function"
    },
    {
      "inputs": [],
      "name": "transferFeeSettings",
      "outputs": [
        {
          "components": [
            {
              "internalType": "uint256",
              "name": "transferFeeMillionths",
              "type": "uint256"
            },
            {
              "internalType": "uint256",
              "name": "firstEpochStartTs",
              "type": "uint256"
            },
            {
              "internalType": "uint256",
              "name": "epochDuration",
              "type": "uint256"
            },
            {
              "internalType": "uint256",
              "name": "maxUnexpiredEpochs",
              "type": "uint256"
            },
            {
              "internalType": "uint256",
              "name": "firstClaimableEpoch",
              "type": "uint256"
            }
          ],
          "internalType": "struct ITransferFees.TransferFeeSettings",
          "name": "",
          "type": "tuple"
        }
      ],
      "stateMutability": "view",
      "type": "function"
    }
  ],
  "bytecode": "0x60806040523480156200001157600080fd5b507f341c6685fdb8ed7133465b64f545b9fbc5699a59cbd1ad98992e5c070a74c511620000438160006001816200004a565b5062000292565b60038401546801000000000000000090046001600160401b031615620000b75760405162461bcd60e51b815260206004820152601360248201527f616c726561647920696e697469616c697a65640000000000000000000000000060448201526064015b60405180910390fd5b6000826001600160401b031611620001125760405162461bcd60e51b815260206004820152601e60248201527f65706f6368206475726174696f6e206d757374206265206e6f6e7a65726f00006044820152606401620000ae565b6003840180546001600160401b03838116600160801b02600160801b600160c01b031986831668010000000000000000026001600160801b0319909416928816929092179290921716179055620001736200016d85620001a1565b620001df565b8460030160186101000a8154816001600160401b0302191690836001600160401b0316021790555050505050565b60038101546000906001600160401b03680100000000000000008204811691620001cd9116426200024d565b620001d991906200026f565b92915050565b60006001600160401b03821115620002495760405162461bcd60e51b815260206004820152602660248201527f53616665436173743a2076616c756520646f65736e27742066697420696e203660448201526534206269747360d01b6064820152608401620000ae565b5090565b81810381811115620001d957634e487b7160e01b600052601160045260246000fd5b6000826200028d57634e487b7160e01b600052601260045260246000fd5b500490565b6125ed80620002a26000396000f3fe608060405234801561001057600080fd5b50600436106100ea5760003560e01c80635a38e03f1161008c578063b706b3cc11610066578063b706b3cc14610270578063f051952e14610283578063f6bda95d146102dc578063fc52f16d1461030a57600080fd5b80635a38e03f146101dc57806361359fcb14610226578063842f87c01461023957600080fd5b806332076117116100c85780633207611714610191578063367b11cf146101995780633ba60fb1146101ac5780633cc0b064146101b457600080fd5b80631111862b146100ef5780631be754e11461015b5780632824fc7e1461017c575b600080fd5b6101026100fd366004612268565b61031d565b6040516101529190600060c0820190508251825260208301516020830152604083015160408301526060830151606083015260808301511515608083015260a0830151151560a083015292915050565b60405180910390f35b61016e610169366004612296565b61040b565b604051908152602001610152565b61018f61018a3660046122c2565b610430565b005b61016e610593565b61016e6101a7366004612296565b6105b3565b61016e610643565b6101c76101c23660046122e4565b610658565b60408051928352602083019190915201610152565b6101e4610706565b6040516101529190600060a082019050825182526020830151602083015260408301516040830152606083015160608301526080830151608083015292915050565b61018f610234366004612301565b6107af565b7f341c6685fdb8ed7133465b64f545b9fbc5699a59cbd1ad98992e5c070a74c51454600160c01b90046001600160401b031661016e565b61018f61027e366004612375565b61086d565b610296610291366004612296565b6109e9565b6040516101529190600060a08201905082518252602083015160208301526040830151604083015260608301511515606083015260808301511515608083015292915050565b6102ef6102ea3660046123a7565b610aeb565b60408051938452602084019290925290820152606001610152565b61018f610318366004612268565b610d17565b61035a6040518060c00160405280600081526020016000815260200160008152602001600081526020016000151581526020016000151581525090565b6040805160c0810190915260008051602061259883398151915290806103808386610dbe565b815260200161039a6103938660016123fe565b8490610dbe565b815260008581526002840160208181526040808420546001600160801b0380821684880152948a905292909152600160801b909104909116908201526060016103e38386610e00565b151581526003909201546001600160401b03600160c01b909104169093106020909101525090565b6000600080516020612598833981519152610427818585610e34565b50949350505050565b610438610ee6565b610440610f63565b600061044a610f7a565b63ffffffff169050620f424083106104a55760405162461bcd60e51b81526020600482015260196024820152780dad2d8d8d2dedce8d0e640ecc2d8eaca40e8dede40d0d2ced603b1b60448201526064015b60405180910390fd5b6104b0816004612411565b6104bc906103e86123fe565b8311156104fe5760405162461bcd60e51b815260206004820152601060248201526f696e63726561736520746f6f2062696760801b604482015260640161049c565b61050960048261243e565b83101561054b5760405162461bcd60e51b815260206004820152601060248201526f646563726561736520746f6f2062696760801b604482015260640161049c565b6105558383610fee565b60408051848152602081018490527f4cb6e1e3604f0d8f53b729aca897d431dd051f3f93d382ac9b4baea1e3baa9b9910160405180910390a1505050565b60006000805160206125988339815191526105ad816110b9565b91505090565b6001600160a01b03821660009081527f341c6685fdb8ed7133465b64f545b9fbc5699a59cbd1ad98992e5c070a74c5156020526040812060008051602061259883398151915290826106058386610e00565b801561061e575060028201546001600160401b03168510155b90508061062c576000610637565b6106378383876110e8565b93505050505b92915050565b600061064d610f7a565b63ffffffff16905090565b6001600160a01b03811660009081527f341c6685fdb8ed7133465b64f545b9fbc5699a59cbd1ad98992e5c070a74c5156020526040812060028101547f341c6685fdb8ed7133465b64f545b9fbc5699a59cbd1ad98992e5c070a74c5145483926000805160206125988339815191529290916106e7916001600160401b0390811691600160c01b90041661115a565b9350836106f3836110b9565b6106fd9190612452565b92505050915091565b6107386040518060a0016040528060008152602001600081526020016000815260200160008152602001600081525090565b600060008051602061259883398151915290506040518060a0016040528061075e610f7a565b63ffffffff1681526003909201546001600160401b038082166020850152600160401b820481166040850152600160801b820481166060850152600160c01b90910416608090920191909152919050565b60008051602061259883398151915260005b828110156108675760006107fa8585848181106107e0576107e0612465565b90506020020160208101906107f591906122e4565b611170565b6005810154909150600160401b90046001600160401b03161561085e5761085e85858481811061082c5761082c612465565b905060200201602081019061084191906122e4565b6005830154859190600160401b90046001600160401b0316611217565b506001016107c1565b50505050565b6301ffc9a760e01b6000527fc8fcad8db84d3cc18b4c41d551ea0ee66dd599cde068d998e57d5e09332c131e6020527f673a26ab9c976db950bbe987aa80c5e387f329563bb0afe093ddccc970489e31547fc8fcad8db84d3cc18b4c41d551ea0ee66dd599cde068d998e57d5e09332c131c9060ff1661092f5760405162461bcd60e51b815260206004820152601760248201527f6469616d6f6e64206e6f7420696e697469616c697a6564000000000000000000604482015260640161049c565b636454d49360e01b60009081526002820160205260409020805460ff19166001179055620f424085106109a05760405162461bcd60e51b81526020600482015260196024820152780dad2d8d8d2dedce8d0e640ecc2d8eaca40e8dede40d0d2ced603b1b604482015260640161049c565b6109ab856000610fee565b6000805160206125988339815191526109e16109c68661125a565b6109cf8661125a565b6109d88661125a565b849291906112c6565b505050505050565b610a1f6040518060a001604052806000815260200160008152602001600081526020016000151581526020016000151581525090565b6001600160a01b03831660009081527f341c6685fdb8ed7133465b64f545b9fbc5699a59cbd1ad98992e5c070a74c5156020526040812060008051602061259883398151915291610a708386610e00565b6040805160a0810182526000888152600287016020908152929020546001600160801b031681529192508101610aa78585896113fe565b8152602001610ab78580896113fe565b81526020018215158152602001828015610add575060028401546001600160401b031687105b151590529695505050505050565b600080600085610afa81611431565b600080516020612598833981519152600080610b17838b8a611488565b915091506000610b268b611170565b90506000610b5b7f4f24f5c433db0962dac0d2c8b84197a6e6c7cc4e5d9ebe1916a1b6193da2f33b546001600160a01b031690565b6004830154909150610b79908590600160581b900461ffff166115ba565b9750610b858885612452565b604051631cb8f94f60e01b81526001600160a01b038d8116600483015260248201839052919a50939750879390821690631cb8f94f90604401600060405180830381600087803b158015610bd857600080fd5b505af1158015610bec573d6000803e3d6000fd5b50508354604051631cb8f94f60e01b81526001600160a01b039182166004820152602481018c90529084169250631cb8f94f9150604401600060405180830381600087803b158015610c3d57600080fd5b505af1158015610c51573d6000803e3d6000fd5b5050835460405163542a535160e11b8152600481018c90526001600160a01b03909116925063a854a6a29150602401600060405180830381600087803b158015610c9a57600080fd5b505af1158015610cae573d6000803e3d6000fd5b5050604080516001600160a01b038f81168252602082018e90529181018c905260608101879052908f1692507fe4b337ad6dc4f119046c145811cbcf40d8b0073fc94049b74c44032c9ed1995a915060800160405180910390a250505050505093509350939050565b7f4f24f5c433db0962dac0d2c8b84197a6e6c7cc4e5d9ebe1916a1b6193da2f33b547f4f24f5c433db0962dac0d2c8b84197a6e6c7cc4e5d9ebe1916a1b6193da2f33a906001600160a01b03163314610da05760405162461bcd60e51b815260206004820152600b60248201526a1bdb9b1e4811905cdcd95d60aa1b604482015260640161049c565b600080516020612598833981519152610db981846115c9565b505050565b6003820154600090610de1908390600160401b90046001600160401b0316612411565b6003840154610df991906001600160401b03166123fe565b9392505050565b6003820154600090600160c01b90046001600160401b03168210801590610df95750610e2b836110b9565b90911092915050565b6001600160a01b03821660009081526004840160205260408120819081610e5a876110b9565b60028301546003890154919250600091610e87916001600160401b0390811691600160c01b90041661115a565b90506000610e9e83610e9989856123fe565b61163b565b600096509050815b81811015610ecd57610eb98a86836110e8565b610ec390886123fe565b9650600101610ea6565b50610ed88184612452565b945050505050935093915050565b7f4f24f5c433db0962dac0d2c8b84197a6e6c7cc4e5d9ebe1916a1b6193da2f33a80546001600160a01b03163314610f605760405162461bcd60e51b815260206004820152601d60248201527f6f6e6c79206173736574206d616e6167657220636f6e74726f6c6c6572000000604482015260640161049c565b50565b610f786001600160e01b03196000351661164a565b565b7f341c6685fdb8ed7133465b64f545b9fbc5699a59cbd1ad98992e5c070a74c510805460009190600160401b90046001600160401b0316828115801590610fc15750428211155b905080610fd557825463ffffffff16610fe6565b8254640100000000900463ffffffff165b935050505090565b7f341c6685fdb8ed7133465b64f545b9fbc5699a59cbd1ad98992e5c070a74c510428211156110935761101f610f7a565b815463ffffffff191663ffffffff9190911617815561103d83611727565b815463ffffffff919091166401000000000267ffffffff000000001990911617815561106882611727565b81546fffffffffffffffff0000000000000000191663ffffffff91909116600160401b021790555050565b61109c83611727565b81546001600160801b03191663ffffffff91909116178155505050565b60038101546000906001600160401b03600160401b82048116916110de911642612452565b61063d919061243e565b60008181526002840160205260408120816111048686866113fe565b905060006111138780876113fe565b9050808211156111255761112561247b565b816000036111395760009350505050610df9565b825461114f906001600160801b0316838361178c565b979650505050505050565b60008183116111695781610df9565b5090919050565b7f5bebac0595fee029d42bb673937f5f1cb81cf8641382bc17774635de9b7d796568010000000000000000600160e01b03604083901b161880600060048084015460ff16908111156111c4576111c4612491565b036112115760405162461bcd60e51b815260206004820152601b60248201527f696e76616c6964206167656e74207661756c7420616464726573730000000000604482015260640161049c565b50919050565b6001600160a01b0382166000908152600484016020526040812060018101549091600160401b9091046001600160401b03169003610867576108678484846118b2565b60006001600160401b038211156112c25760405162461bcd60e51b815260206004820152602660248201527f53616665436173743a2076616c756520646f65736e27742066697420696e203660448201526534206269747360d01b606482015260840161049c565b5090565b6003840154600160401b90046001600160401b03161561131e5760405162461bcd60e51b8152602060048201526013602482015272185b1c9958591e481a5b9a5d1a585b1a5e9959606a1b604482015260640161049c565b6000826001600160401b0316116113775760405162461bcd60e51b815260206004820152601e60248201527f65706f6368206475726174696f6e206d757374206265206e6f6e7a65726f0000604482015260640161049c565b6003840180546001600160401b03838116600160801b0267ffffffffffffffff60801b19868316600160401b026001600160801b03199094169288169290921792909217161790556113d06113cb856110b9565b61125a565b8460030160186101000a8154816001600160401b0302191690836001600160401b0316021790555050505050565b600061142961140d8584610dbe565b6114218661141c8660016123fe565b610dbe565b85919061191b565b949350505050565b61144361143d82611170565b3361199d565b610f605760405162461bcd60e51b815260206004820152601660248201527537b7363c9030b3b2b73a103b30bab63a1037bbb732b960511b604482015260640161049c565b6001600160a01b038216600090815260048401602052604081208190816114ae876110b9565b600283015460038901549192506000916114db916001600160401b0390811691600160c01b90041661115a565b905060006114ed83610e9989856123fe565b600096509050815b8181101561158357600061150a8b87846110e8565b905061151681896123fe565b975061152181611a6e565b600083815260028d01602052604090208054601090611551908490600160801b90046001600160801b03166124a7565b92506101000a8154816001600160801b0302191690836001600160801b031602179055505080806001019150506114f5565b5061158d8161125a565b60028501805467ffffffffffffffff19166001600160401b0392909216919091179055610ed88184612452565b6000610df9838361271061178c565b60006115d4836110b9565b90506115e08382611ad7565b6115e982611a6e565b6000828152600285016020526040812080549091906116129084906001600160801b03166124a7565b92506101000a8154816001600160801b0302191690836001600160801b03160217905550505050565b60008183106111695781610df9565b60008181527fc6aafbe0f74bbe68eec7559401d7d311a092b5c4d8feb0452323e4ba73d8d8d160208190526040909120547f4f24f5c433db0962dac0d2c8b84197a6e6c7cc4e5d9ebe1916a1b6193da2f33a908015806116c8575060118201546116c490600160801b90046001600160401b0316826123fe565b4210155b6117145760405162461bcd60e51b815260206004820152601c60248201527f746f6f20636c6f736520746f2070726576696f75732075706461746500000000604482015260640161049c565b5050600091825260205260409020429055565b600063ffffffff8211156112c25760405162461bcd60e51b815260206004820152602660248201527f53616665436173743a2076616c756520646f65736e27742066697420696e203360448201526532206269747360d01b606482015260840161049c565b60008082116117d05760405162461bcd60e51b815260206004820152601060248201526f4469766973696f6e206279207a65726f60801b604482015260640161049c565b836000036117e057506000610df9565b838302838582816117f3576117f3612428565b04036118115782818161180857611808612428565b04915050610df9565b50600061181e838661243e565b9050600061182c84876124c7565b9050600061183a858761243e565b9050600061184886886124c7565b9050856118558285612411565b61185f919061243e565b6118698385612411565b6118738387612411565b8861187e8689612411565b6118889190612411565b61189291906123fe565b61189c91906123fe565b6118a691906123fe565b98975050505050505050565b6001600160a01b03821660009081526004840160205260408120906118d682611b9e565b905060006118e386611b9e565b90506118f0834286611c39565b61191142836118ff87856124db565b61190991906124fb565b889190611c39565b6109e18684611faa565b60008183111561197f5760405162461bcd60e51b815260206004820152602960248201527f54696d6543756d756c61746976653a20696e74657276616c20656e64206265666044820152681bdc99481cdd185c9d60ba1b606482015260840161049c565b6119898484611fe7565b6119938584611fe7565b6114299190612452565b60018201546000906001600160a01b0390811690831681148061142957507f4f24f5c433db0962dac0d2c8b84197a6e6c7cc4e5d9ebe1916a1b6193da2f341546001600160a01b0316604051631f86345d60e31b81526001600160a01b038381166004830152919091169063fc31a2e890602401602060405180830381865afa158015611a2e573d6000803e3d6000fd5b505050506040513d601f19601f82011682018060405250810190611a52919061251b565b6001600160a01b0316836001600160a01b031614949350505050565b60006001600160801b038211156112c25760405162461bcd60e51b815260206004820152602760248201527f53616665436173743a2076616c756520646f65736e27742066697420696e20316044820152663238206269747360c81b606482015260840161049c565b60038201546001600160401b03600160c01b82048116918391611b0291600160801b900416836123fe565b1015610db957600081815260028401602052604090208054611b36906001600160801b03600160801b820481169116612538565b600084815260028601602052604081208054909190611b5f9084906001600160801b03166124a7565b82546001600160801b039182166101009390930a92830291909202199091161790555060008281526002850160205260408120556113d08260016123fe565b6001810154600090600160401b90046001600160401b03168103611bc457506000919050565b60018201546001600160401b03808216600160401b9092041611611bea57611bea61247b565b6001828101548391600091611c0f9190600160401b90046001600160401b03166124fb565b6001600160401b039081168252602082019290925260400160002054600160c01b90041692915050565b6001830154600160401b90046001600160401b0316600003611d585760018301546001600160401b031615611c7057611c7061247b565b604051806060016040528060006001600160801b03168152602001611c948461125a565b6001600160401b0390811682528381166020909201919091526001850180548692600092600160401b90920416906008611ccd83612558565b82546001600160401b039182166101009390930a92830292820219169190911790915590811682526020808301939093526040918201600020845181549486015195909301518216600160c01b026001600160c01b0395909216600160801b026001600160c01b03199094166001600160801b03909316929092179290921792909216179055505050565b60018301546001600160401b03808216600160401b9092041611611d7e57611d7e61247b565b60018381015460009185918391611da491600160401b90046001600160401b03166124fb565b6001600160401b03908116825260208201929092526040016000208054909250600160801b900416839003611df65780546001600160c01b0316600160c01b6001600160401b03841602178155610867565b8054600160801b90046001600160401b03168311611e675760405162461bcd60e51b815260206004820152602860248201527f54696d6543756d756c61746976653a2074696d657374616d70206e6f7420696e6044820152676372656173696e6760c01b606482015260840161049c565b8054600090611e8690600160801b90046001600160401b031685612452565b8254611ea29190600160c01b90046001600160401b0316612411565b8254611eb791906001600160801b03166123fe565b90506040518060600160405280611ecd83611a6e565b6001600160801b03168152602001611ee48661125a565b6001600160401b0390811682528581166020909201919091526001870180548892600092600160401b90920416906008611f1d83612558565b82546001600160401b039182166101009390930a92830292820219169190911790915590811682526020808301939093526040918201600020845181549486015195909301518216600160c01b026001600160c01b0395909216600160801b026001600160c01b03199094166001600160801b039093169290921792909217929092161790555050505050565b6003820154600090611fcd908490600160c01b90046001600160401b0316610dbe565b9050611fdb828260026120da565b610db9838260026120da565b600080611ff484846121ab565b9050600019810361206f5760018401546001600160401b0316156120655760405162461bcd60e51b815260206004820152602260248201527f54696d6543756d756c61746976653a20616c726561647920636c65616e656420604482015261075760f41b606482015260840161049c565b600091505061063d565b6000818152602085905260409020805461209990600160801b90046001600160401b031685612452565b81546120b59190600160c01b90046001600160401b0316612411565b81546120ca91906001600160801b03166123fe565b9250505061063d565b5092915050565b60018301546001600160401b0380821691600160401b90041660005b838110801561210e57508161210c8460016123fe565b105b80156121475750848660006121248660016123fe565b8152602081019190915260400160002054600160801b90046001600160401b0316105b15612176576000838152602087905260408120556121648361257e565b925061216f8161257e565b90506120f6565b61217f8361125a565b600196909601805467ffffffffffffffff19166001600160401b03909716969096179095555050505050565b60018201546000906001600160401b0380821691600160401b90041680821015806121f35750600082815260208690526040902054600160801b90046001600160401b031684105b15612204576000199250505061063d565b61220f8260016123fe565b811115612260576000600161222483856123fe565b901c600081815260208890526040902054909150600160801b90046001600160401b031685106122565780925061225a565b8091505b50612204565b509392505050565b60006020828403121561227a57600080fd5b5035919050565b6001600160a01b0381168114610f6057600080fd5b600080604083850312156122a957600080fd5b82356122b481612281565b946020939093013593505050565b600080604083850312156122d557600080fd5b50508035926020909101359150565b6000602082840312156122f657600080fd5b8135610df981612281565b6000806020838503121561231457600080fd5b82356001600160401b038082111561232b57600080fd5b818501915085601f83011261233f57600080fd5b81358181111561234e57600080fd5b8660208260051b850101111561236357600080fd5b60209290920196919550909350505050565b6000806000806080858703121561238b57600080fd5b5050823594602084013594506040840135936060013592509050565b6000806000606084860312156123bc57600080fd5b83356123c781612281565b925060208401356123d781612281565b929592945050506040919091013590565b634e487b7160e01b600052601160045260246000fd5b8082018082111561063d5761063d6123e8565b808202811582820484141761063d5761063d6123e8565b634e487b7160e01b600052601260045260246000fd5b60008261244d5761244d612428565b500490565b8181038181111561063d5761063d6123e8565b634e487b7160e01b600052603260045260246000fd5b634e487b7160e01b600052600160045260246000fd5b634e487b7160e01b600052602160045260246000fd5b6001600160801b038181168382160190808211156120d3576120d36123e8565b6000826124d6576124d6612428565b500690565b6001600160401b038181168382160190808211156120d3576120d36123e8565b6001600160401b038281168282160390808211156120d3576120d36123e8565b60006020828403121561252d57600080fd5b8151610df981612281565b6001600160801b038281168282160390808211156120d3576120d36123e8565b60006001600160401b03808316818103612574576125746123e8565b6001019392505050565b600060018201612590576125906123e8565b506001019056fe341c6685fdb8ed7133465b64f545b9fbc5699a59cbd1ad98992e5c070a74c511a2646970667358221220d747a0a4450adcf549cdd1a347bfada92b7a6d96123944373cfa56386b205f0b64736f6c63430008170033",
  "linkReferences": {},
  "deployedLinkReferences": {}
}