{
  "_format": "hh-sol-artifact-1",
  "contractName": "MintingDefaultsFacet",
  "sourceName": "contracts/assetManager/facets/MintingDefaultsFacet.sol",
  "abi": [
    {
      "inputs": [],
      "name": "BlockHeightNotProven",
      "type": "error"
    },
    {
      "inputs": [],
      "name": "CannotUnstickMintingYet",
      "type": "error"
    },
    {
      "inputs": [],
      "name": "DivisionByZero",
      "type": "error"
    },
    {
      "inputs": [],
      "name": "EmergencyPauseActive",
      "type": "error"
    },
    {
      "inputs": [],
      "name": "InvalidAgentVaultAddress",
      "type": "error"
    },
    {
      "inputs": [],
      "name": "InvalidChain",
      "type": "error"
    },
    {
      "inputs": [],
      "name": "InvalidCrtId",
      "type": "error"
    },
    {
      "inputs": [],
      "name": "MintingDefaultTooEarly",
      "type": "error"
    },
    {
      "inputs": [],
      "name": "MintingNonPaymentMismatch",
      "type": "error"
    },
    {
      "inputs": [],
      "name": "MintingNonPaymentProofWindowTooShort",
      "type": "error"
    },
    {
      "inputs": [],
      "name": "NonPaymentNotProven",
      "type": "error"
    },
    {
      "inputs": [],
      "name": "NotAttached",
      "type": "error"
    },
    {
      "inputs": [],
      "name": "NotEnoughFundsProvided",
      "type": "error"
    },
    {
      "inputs": [],
      "name": "NotWhitelisted",
      "type": "error"
    },
    {
      "inputs": [],
      "name": "OnlyAgentVaultOwner",
      "type": "error"
    },
    {
      "inputs": [],
      "name": "OnlyAssetManagerController",
      "type": "error"
    },
    {
      "inputs": [],
      "name": "ReentrancyGuardReentrantCall",
      "type": "error"
    },
    {
      "inputs": [],
      "name": "ReentrancyGuardRequired",
      "type": "error"
    },
    {
      "inputs": [],
      "name": "SourceAddressesNotSupported",
      "type": "error"
    },
    {
      "inputs": [],
      "name": "TransferFailed",
      "type": "error"
    },
    {
      "anonymous": false,
      "inputs": [
        {
          "indexed": true,
          "internalType": "address",
          "name": "agentVault",
          "type": "address"
        },
        {
          "indexed": true,
          "internalType": "address",
          "name": "minter",
          "type": "address"
        },
        {
          "indexed": true,
          "internalType": "uint256",
          "name": "collateralReservationId",
          "type": "uint256"
        },
        {
          "indexed": false,
          "internalType": "uint256",
          "name": "reservedAmountUBA",
          "type": "uint256"
        }
      ],
      "name": "CollateralReservationDeleted",
      "type": "event"
    },
    {
      "anonymous": false,
      "inputs": [
        {
          "indexed": true,
          "internalType": "address",
          "name": "agentVault",
          "type": "address"
        },
        {
          "indexed": true,
          "internalType": "address",
          "name": "minter",
          "type": "address"
        },
        {
          "indexed": true,
          "internalType": "uint256",
          "name": "collateralReservationId",
          "type": "uint256"
        },
        {
          "indexed": false,
          "internalType": "uint256",
          "name": "reservedAmountUBA",
          "type": "uint256"
        }
      ],
      "name": "MintingPaymentDefault",
      "type": "event"
    },
    {
      "inputs": [
        {
          "components": [
            {
              "internalType": "bytes32[]",
              "name": "merkleProof",
              "type": "bytes32[]"
            },
            {
              "components": [
                {
                  "internalType": "bytes32",
                  "name": "attestationType",
                  "type": "bytes32"
                },
                {
                  "internalType": "bytes32",
                  "name": "sourceId",
                  "type": "bytes32"
                },
                {
                  "internalType": "uint64",
                  "name": "votingRound",
                  "type": "uint64"
                },
                {
                  "internalType": "uint64",
                  "name": "lowestUsedTimestamp",
                  "type": "uint64"
                },
                {
                  "components": [
                    {
                      "internalType": "uint64",
                      "name": "minimalBlockNumber",
                      "type": "uint64"
                    },
                    {
                      "internalType": "uint64",
                      "name": "deadlineBlockNumber",
                      "type": "uint64"
                    },
                    {
                      "internalType": "uint64",
                      "name": "deadlineTimestamp",
                      "type": "uint64"
                    },
                    {
                      "internalType": "bytes32",
                      "name": "destinationAddressHash",
                      "type": "bytes32"
                    },
                    {
                      "internalType": "uint256",
                      "name": "amount",
                      "type": "uint256"
                    },
                    {
                      "internalType": "bytes32",
                      "name": "standardPaymentReference",
                      "type": "bytes32"
                    },
                    {
                      "internalType": "bool",
                      "name": "checkSourceAddresses",
                      "type": "bool"
                    },
                    {
                      "internalType": "bytes32",
                      "name": "sourceAddressesRoot",
                      "type": "bytes32"
                    }
                  ],
                  "internalType": "struct IReferencedPaymentNonexistence.RequestBody",
                  "name": "requestBody",
                  "type": "tuple"
                },
                {
                  "components": [
                    {
                      "internalType": "uint64",
                      "name": "minimalBlockTimestamp",
                      "type": "uint64"
                    },
                    {
                      "internalType": "uint64",
                      "name": "firstOverflowBlockNumber",
                      "type": "uint64"
                    },
                    {
                      "internalType": "uint64",
                      "name": "firstOverflowBlockTimestamp",
                      "type": "uint64"
                    }
                  ],
                  "internalType": "struct IReferencedPaymentNonexistence.ResponseBody",
                  "name": "responseBody",
                  "type": "tuple"
                }
              ],
              "internalType": "struct IReferencedPaymentNonexistence.Response",
              "name": "data",
              "type": "tuple"
            }
          ],
          "internalType": "struct IReferencedPaymentNonexistence.Proof",
          "name": "_proof",
          "type": "tuple"
        },
        {
          "internalType": "uint256",
          "name": "_crtId",
          "type": "uint256"
        }
      ],
      "name": "mintingPaymentDefault",
      "outputs": [],
      "stateMutability": "nonpayable",
      "type": "function"
    },
    {
      "inputs": [
        {
          "components": [
            {
              "internalType": "bytes32[]",
              "name": "merkleProof",
              "type": "bytes32[]"
            },
            {
              "components": [
                {
                  "internalType": "bytes32",
                  "name": "attestationType",
                  "type": "bytes32"
                },
                {
                  "internalType": "bytes32",
                  "name": "sourceId",
                  "type": "bytes32"
                },
                {
                  "internalType": "uint64",
                  "name": "votingRound",
                  "type": "uint64"
                },
                {
                  "internalType": "uint64",
                  "name": "lowestUsedTimestamp",
                  "type": "uint64"
                },
                {
                  "components": [
                    {
                      "internalType": "uint64",
                      "name": "blockNumber",
                      "type": "uint64"
                    },
                    {
                      "internalType": "uint64",
                      "name": "queryWindow",
                      "type": "uint64"
                    }
                  ],
                  "internalType": "struct IConfirmedBlockHeightExists.RequestBody",
                  "name": "requestBody",
                  "type": "tuple"
                },
                {
                  "components": [
                    {
                      "internalType": "uint64",
                      "name": "blockTimestamp",
                      "type": "uint64"
                    },
                    {
                      "internalType": "uint64",
                      "name": "numberOfConfirmations",
                      "type": "uint64"
                    },
                    {
                      "internalType": "uint64",
                      "name": "lowestQueryWindowBlockNumber",
                      "type": "uint64"
                    },
                    {
                      "internalType": "uint64",
                      "name": "lowestQueryWindowBlockTimestamp",
                      "type": "uint64"
                    }
                  ],
                  "internalType": "struct IConfirmedBlockHeightExists.ResponseBody",
                  "name": "responseBody",
                  "type": "tuple"
                }
              ],
              "internalType": "struct IConfirmedBlockHeightExists.Response",
              "name": "data",
              "type": "tuple"
            }
          ],
          "internalType": "struct IConfirmedBlockHeightExists.Proof",
          "name": "_proof",
          "type": "tuple"
        },
        {
          "internalType": "uint256",
          "name": "_crtId",
          "type": "uint256"
        }
      ],
      "name": "unstickMinting",
      "outputs": [],
      "stateMutability": "payable",
      "type": "function"
    }
  ],
  "bytecode": "0x6080604052348015600f57600080fd5b50611f3e8061001f6000396000f3fe6080604052600436106100295760003560e01c806369bd4e811461002e57806384807e8d14610050575b600080fd5b34801561003a57600080fd5b5061004e61004936600461177c565b610063565b005b61004e61005e3660046117c6565b610309565b61006b6105d4565b600061007882600161060c565b905061008c61018084016101608501611820565b156100aa576040516313fff32760e21b815260040160405180910390fd5b60028101546000906100c4906001600160a01b03166106e5565b90506100cf81610779565b6100d8846107a3565b81546000906100ef906001600160401b03166108b3565b90506100fa8461090d565b61014086013514801561011557506003820154610100860135145b801561013c57506001830154610134906001600160801b031682611853565b610120860135145b6101595760405163104d7f7160e11b815260040160405180910390fd5b8254600160801b90046001600160401b031661017d6101e087016101c0880161187d565b6001600160401b03161180156101bd57508254600160c01b90046001600160401b03166101b261020087016101e0880161187d565b6001600160401b0316115b6101da57604051635f97618560e11b815260040160405180910390fd5b8254600160401b90046001600160401b03166101fc60c0870160a0880161187d565b6001600160401b031611156102245760405163df5d57ff60e01b815260040160405180910390fd5b60006102308385610937565b61023a9083611853565b6003850154600286015460405183815292935087926001600160a01b0392831692909116907f9bcf1e111381daaf8ec9ce1420115fc2bb960d5dd94b1e871256cb2e6cbd5aa09060200160405180910390a460048401546000906102b390633b9aca0090600160a01b90046001600160401b0316611898565b60018601546102d29190600160801b90046001600160801b0316611853565b90506102df856002610996565b6102e98482610acc565b50505050506103056001600080516020611ee983398151915255565b5050565b6103116105d4565b600080516020611ea9833981519152600061032d83600161060c565b600281015490915060009061034a906001600160a01b03166106e5565b905061035581610779565b61035e85610b7b565b8154600160801b90046001600160401b03166103826101408701610120880161187d565b6001600160401b03161180156103c257508154600160c01b90046001600160401b03166103b76101608701610140880161187d565b6001600160401b0316115b801561041c57506103da610100860160e0870161187d565b60118401546001600160401b0391821691600160401b909104166104066101608801610140890161187d565b61041091906118af565b6001600160401b031611155b6104395760405163b2be324160e01b815260040160405180910390fd5b7f4f24f5c433db0962dac0d2c8b84197a6e6c7cc4e5d9ebe1916a1b6193da2f3435460048301546001600160a01b03909116906108fc9061048f90633b9aca0090600160a01b90046001600160401b0316611898565b60018501546104ae9190600160801b90046001600160801b0316611853565b6040518115909202916000818181858888f193505050501580156104d6573d6000803e3d6000fd5b5060048101546000906104f190610100900461ffff16610c86565b835490915060009061050c906001600160401b031683610cd1565b9050600061051a8483610ceb565b905060006105288587610937565b865461053c906001600160401b03166108b3565b6105469190611853565b600387015460028801546040518381529293508a926001600160a01b0392831692909116907f8989bc1e07f872f783e99c06825dfe6c20f9ca1bc2501de1e931a5872f0e88149060200160405180910390a46105a3866003610996565b6105b6336105b184346118ce565b610e8f565b505050505050506103056001600080516020611ee983398151915255565b600080516020611ee983398151915280546001190161060657604051633ee5aeb560e01b815260040160405180910390fd5b60029055565b600080831161062e57604051631905b1b960e21b815260040160405180910390fd5b5060008281527fec7e8c1c441439dd40959777f4c577ea0cd42fcc1dbe59d2bd0f5d9c55df8dbc6020526040812080549091600080516020611ec9833981519152916001600160401b0316900361069857604051631905b1b960e21b815260040160405180910390fd5b82156106de576000600383810154600160a01b900460ff16908111156106c0576106c06118e1565b146106de57604051631905b1b960e21b815260040160405180910390fd5b5092915050565b604081901b68010000000000000000600160e01b03167f5bebac0595fee029d42bb673937f5f1cb81cf8641382bc17774635de9b7d79651860048101546000919060ff168281600581111561073c5761073c6118e1565b1415801561075c57506005816005811115610759576107596118e1565b14155b6106de5760405163d68a46c560e01b815260040160405180910390fd5b6107838133610f17565b6107a05760405163f6e2f99b60e01b815260040160405180910390fd5b50565b7f4f24f5c433db0962dac0d2c8b84197a6e6c7cc4e5d9ebe1916a1b6193da2f342547f4f24f5c433db0962dac0d2c8b84197a6e6c7cc4e5d9ebe1916a1b6193da2f34554600080516020611ea9833981519152916001600160a01b0316906040840135146108245760405163057f3fa760e51b815260040160405180910390fd5b60405163d577275160e01b81526001600160a01b0382169063d5772751906108509086906004016119c4565b602060405180830381865afa15801561086d573d6000803e3d6000fd5b505050506040513d601f19601f820116820180604052508101906108919190611af0565b6108ae576040516380d7253360e01b815260040160405180910390fd5b505050565b7f4f24f5c433db0962dac0d2c8b84197a6e6c7cc4e5d9ebe1916a1b6193da2f34654600090600080516020611ea98339815191529061090690600160901b90046001600160401b03908116908516611898565b9392505050565b60006001600160401b0382111561092657610926611b0d565b5067464250526641000160c01b1790565b6002810154600090600160a01b900461ffff168181610965576004850154600160581b900461ffff16610970565b610970600183611b23565b600185015490915061098b906001600160801b031682610f58565b925050505b92915050565b6002820154600080516020611ec9833981519152906000906109c0906001600160a01b03166106e5565b905060006109d66109d18387610937565b610f70565b85546109eb91906001600160401b03166118af565b6005830154909150610a079082906001600160401b0316611b3d565b60058301805467ffffffffffffffff19166001600160401b03928316179055600e840180548392601891610a44918591600160c01b900416611b3d565b92506101000a8154816001600160401b0302191690836001600160401b0316021790555060006003811115610a7b57610a7b6118e1565b846003811115610a8d57610a8d6118e1565b03610a9a57610a9a611b0d565b838560030160146101000a81548160ff02191690836003811115610ac057610ac06118e1565b02179055505050505050565b80600003610ad8575050565b6004820154600090610af6908390600160581b900461ffff16610fc8565b8354604080516368dc448760e11b815290519293506001600160a01b039091169163d1b8890e918491600480830192600092919082900301818588803b158015610b3f57600080fd5b505af1158015610b53573d6000803e3d6000fd5b50505050506108ae610b63610fd7565b610b6c85611044565b610b7684866118ce565b611073565b7f4f24f5c433db0962dac0d2c8b84197a6e6c7cc4e5d9ebe1916a1b6193da2f342547f4f24f5c433db0962dac0d2c8b84197a6e6c7cc4e5d9ebe1916a1b6193da2f34554600080516020611ea9833981519152916001600160a01b031690604084013514610bfc5760405163057f3fa760e51b815260040160405180910390fd5b604051635e30ebfb60e01b81526001600160a01b03821690635e30ebfb90610c28908690600401611b5c565b602060405180830381865afa158015610c45573d6000803e3d6000fd5b505050506040513d601f19601f82011682018060405250810190610c699190611af0565b6108ae57604051633bc6e97360e01b815260040160405180910390fd5b600080600080516020611ec98339815191529050610cc7816000018481548110610cb257610cb2611c82565b906000526020600020906004020160006110db565b5090949350505050565b600061090682610ce36009600a611d7f565b85919061129a565b600080610cf78461139e565b90506000610d04856113eb565b7f4f24f5c433db0962dac0d2c8b84197a6e6c7cc4e5d9ebe1916a1b6193da2f34c54909150600080516020611ea9833981519152907f5bebac0595fee029d42bb673937f5f1cb81cf8641382bc17774635de9b7d7965871860401c90610d8290600160801b900463ffffffff16610d7c888787611424565b90610fc8565b84549095506001600160a01b03808316916320f801d49116610da38a611044565b6040516001600160e01b031960e085901b1681526001600160a01b0392831660048201529116602482015260448101899052606401600060405180830381600087803b158015610df257600080fd5b505af1158015610e06573d6000803e3d6000fd5b5050505084341015610e2b576040516337aa9a4d60e11b815260040160405180910390fd5b7f4f24f5c433db0962dac0d2c8b84197a6e6c7cc4e5d9ebe1916a1b6193da2f343546040516001600160a01b039091169086156108fc029087906000818181858888f19350505050158015610e84573d6000803e3d6000fd5b505050505092915050565b610e97611454565b8015610305576000826001600160a01b031682620186a090604051600060405180830381858888f193505050503d8060008114610ef0576040519150601f19603f3d011682016040523d82523d6000602084013e610ef5565b606091505b50509050806108ae576040516312171d8360e31b815260040160405180910390fd5b60018201546000906001600160a01b03838116911614806109065750610f3c83611486565b6001600160a01b0316826001600160a01b031614905092915050565b6000610906610f6b8461ffff8516610fc8565b611528565b7f4f24f5c433db0962dac0d2c8b84197a6e6c7cc4e5d9ebe1916a1b6193da2f34654600090600080516020611ea98339815191529061090690610fc390600160901b90046001600160401b031685611da1565b611581565b6000610906838361271061129a565b7fec7e8c1c441439dd40959777f4c577ea0cd42fcc1dbe59d2bd0f5d9c55df8dc554600080516020611ec98339815191528054600092829161ffff90911690811061102457611024611c82565b60009182526020909120600490910201546001600160a01b031692915050565b60008061105083611486565b90506001600160a01b0381166109905760018301546001600160a01b0316610906565b80156108ae5760405163b760faf960e01b81526001600160a01b03838116600483015284169063b760faf99083906024016000604051808303818588803b1580156110bd57600080fd5b505af11580156110d1573d6000803e3d6000fd5b5050505050505050565b60008060008060008061117a8860010180546110f690611db5565b80601f016020809104026020016040519081016040528092919081815260200182805461112290611db5565b801561116f5780601f106111445761010080835404028352916020019161116f565b820191906000526020600020905b81548152906001019060200180831161115257829003601f168201915b5050505050886115f1565b8a549295509093509150600160f01b900460ff16156111c15787546000906111b090600160a81b900460ff1660018387866116df565b965091945084935061129392505050565b600080600061125c8b60020180546111d890611db5565b80601f016020809104026020016040519081016040528092919081815260200182805461120490611db5565b80156112515780601f1061122657610100808354040283529160200191611251565b820191906000526020600020905b81548152906001019060200180831161123457829003601f168201915b50505050508b6115f1565b8d54929550909350915060009061128090600160a81b900460ff1685848a896116df565b9950949750909550611293945050505050565b9250925092565b60008082116112bc576040516323d359a360e01b815260040160405180910390fd5b836000036112cc57506000610906565b838302838582816112df576112df611d8b565b04036112fd578281816112f4576112f4611d8b565b04915050610906565b50600061130a8386611da1565b905060006113188487611def565b905060006113268587611da1565b905060006113348688611def565b9050856113418285611898565b61134b9190611da1565b6113558385611898565b61135f8387611898565b8861136a8689611898565b6113749190611898565b61137e9190611853565b6113889190611853565b6113929190611853565b98975050505050505050565b600080600080516020611ec983398151915260048401548154919250829161010090910461ffff169081106113d5576113d5611c82565b9060005260206000209060040201915050919050565b600080600080516020611ec9833981519152600484015481549192508291630100000090910461ffff169081106113d5576113d5611c82565b60008061143083611766565b9050600061143d85611766565b905061144a86838361129a565b9695505050505050565b600080516020611ee98339815191525460021461148457604051635bff566960e01b815260040160405180910390fd5b565b60006114b97f4f24f5c433db0962dac0d2c8b84197a6e6c7cc4e5d9ebe1916a1b6193da2f341546001600160a01b031690565b6001830154604051631f86345d60e31b81526001600160a01b03918216600482015291169063fc31a2e890602401602060405180830381865afa158015611504573d6000803e3d6000fd5b505050506040513d601f19601f820116820180604052508101906109909190611e03565b7f4f24f5c433db0962dac0d2c8b84197a6e6c7cc4e5d9ebe1916a1b6193da2f34654600090600080516020611ea98339815191529061157790600160901b90046001600160401b031684611def565b61090690846118ce565b60006001600160401b038211156115ed5760405162461bcd60e51b815260206004820152602660248201527f53616665436173743a2076616c756520646f65736e27742066697420696e203660448201526534206269747360d01b606482015260840160405180910390fd5b5090565b7f4f24f5c433db0962dac0d2c8b84197a6e6c7cc4e5d9ebe1916a1b6193da2f3445460009081908190600080516020611ea9833981519152906001600160a01b031685156116b35760405163e4a0a55b60e01b81526001600160a01b0382169063e4a0a55b90611665908a90600401611e2c565b606060405180830381865afa158015611682573d6000803e3d6000fd5b505050506040513d601f19601f820116820180604052508101906116a69190611e7a565b9450945094505050611293565b60405163524f388960e01b81526001600160a01b0382169063524f388990611665908a90600401611e2c565b6000600080516020611ea98339815191528160096116fd878a611853565b6117079190611853565b600a830154909150600090611727908690600160a81b900460ff16611853565b90508082101561173957611739611b0d565b61175961174682846118ce565b61175190600a611d7f565b87908a61129a565b9998505050505050505050565b60006117738260006110db565b50909392505050565b6000806040838503121561178f57600080fd5b82356001600160401b038111156117a557600080fd5b830161020081860312156117b857600080fd5b946020939093013593505050565b600080604083850312156117d957600080fd5b82356001600160401b038111156117ef57600080fd5b830161016081860312156117b857600080fd5b80151581146107a057600080fd5b803561181b81611802565b919050565b60006020828403121561183257600080fd5b813561090681611802565b634e487b7160e01b600052601160045260246000fd5b808201808211156109905761099061183d565b80356001600160401b038116811461181b57600080fd5b60006020828403121561188f57600080fd5b61090682611866565b80820281158282048414176109905761099061183d565b6001600160401b0381811683821601908111156109905761099061183d565b818103818111156109905761099061183d565b634e487b7160e01b600052602160045260246000fd5b6000808335601e1984360301811261190e57600080fd5b83016020810192503590506001600160401b0381111561192d57600080fd5b8060051b360382131561193f57600080fd5b9250929050565b81835260006001600160fb1b0383111561195f57600080fd5b8260051b80836020870137939093016020019392505050565b6001600160401b0361198982611866565b1682526001600160401b036119a060208301611866565b1660208301526001600160401b036119ba60408301611866565b1660408301525050565b6020815260006119d483846118f7565b61020060208501526119eb61022085018284611946565b60208601356040868101919091528601356060808701919091529092506001600160401b039150611a1d908601611866565b1660808401526001600160401b03611a3760808601611866565b1660a08401526001600160401b03611a5160a08601611866565b1660c08401526001600160401b03611a6b60c08601611866565b1660e08401526001600160401b03611a8560e08601611866565b1661010084810191909152840135610120808501919091528401356101408085019190915284013561016080850191909152611ac2908501611810565b8015156101808501525060006101808501359050806101a0850152506109066101c084016101a08601611978565b600060208284031215611b0257600080fd5b815161090681611802565b634e487b7160e01b600052600160045260246000fd5b61ffff82811682821603908111156109905761099061183d565b6001600160401b0382811682821603908111156109905761099061183d565b602081526000611b6c83846118f7565b6101606020850152611b8361018085018284611946565b60208601356040868101919091528601356060808701919091529092506001600160401b039150611bb5908601611866565b1660808401526001600160401b03611bcf60808601611866565b1660a08401526001600160401b03611be960a08601611866565b1660c08401526001600160401b03611c0360c08601611866565b1660e08401526001600160401b03611c1d60e08601611866565b166101008401526001600160401b03611c396101008601611866565b166101208401526001600160401b03611c556101208601611866565b166101408401526001600160401b03611c716101408601611866565b166101608401528091505092915050565b634e487b7160e01b600052603260045260246000fd5b6001815b6001841115611cd357808504811115611cb757611cb761183d565b6001841615611cc557908102905b60019390931c928002611c9c565b935093915050565b600082611cea57506001610990565b81611cf757506000610990565b8160018114611d0d5760028114611d1757611d33565b6001915050610990565b60ff841115611d2857611d2861183d565b50506001821b610990565b5060208310610133831016604e8410600b8410161715611d56575081810a610990565b611d636000198484611c98565b8060001904821115611d7757611d7761183d565b029392505050565b60006109068383611cdb565b634e487b7160e01b600052601260045260246000fd5b600082611db057611db0611d8b565b500490565b600181811c90821680611dc957607f821691505b602082108103611de957634e487b7160e01b600052602260045260246000fd5b50919050565b600082611dfe57611dfe611d8b565b500690565b600060208284031215611e1557600080fd5b81516001600160a01b038116811461090657600080fd5b602081526000825180602084015260005b81811015611e5a5760208186018101516040868401015201611e3d565b506000604082850101526040601f19601f83011684010191505092915050565b600080600060608486031215611e8f57600080fd5b505081516020830151604090930151909492935091905056fe4f24f5c433db0962dac0d2c8b84197a6e6c7cc4e5d9ebe1916a1b6193da2f33aec7e8c1c441439dd40959777f4c577ea0cd42fcc1dbe59d2bd0f5d9c55df8db60cd2207518cd3e5213e2c6dbe63d55b60aa893c194a427b7d7f1600408fd5bdea26469706673582212206365ca92e5db829ebee19b2556c31a6e4d421122cca4193b1d2088441b456a3964736f6c634300081b0033",
  "linkReferences": {},
  "deployedLinkReferences": {}
}