{
  "_format": "hh-sol-artifact-1",
  "contractName": "MintingDefaultsFacet",
  "sourceName": "contracts/assetManager/facets/MintingDefaultsFacet.sol",
  "abi": [
    {
      "anonymous": false,
      "inputs": [
        {
          "indexed": true,
          "internalType": "address",
          "name": "agentVault",
          "type": "address"
        },
        {
          "indexed": true,
          "internalType": "address",
          "name": "minter",
          "type": "address"
        },
        {
          "indexed": true,
          "internalType": "uint256",
          "name": "collateralReservationId",
          "type": "uint256"
        },
        {
          "indexed": false,
          "internalType": "uint256",
          "name": "reservedAmountUBA",
          "type": "uint256"
        }
      ],
      "name": "CollateralReservationDeleted",
      "type": "event"
    },
    {
      "anonymous": false,
      "inputs": [
        {
          "indexed": true,
          "internalType": "address",
          "name": "agentVault",
          "type": "address"
        },
        {
          "indexed": true,
          "internalType": "address",
          "name": "minter",
          "type": "address"
        },
        {
          "indexed": true,
          "internalType": "uint256",
          "name": "collateralReservationId",
          "type": "uint256"
        },
        {
          "indexed": false,
          "internalType": "uint256",
          "name": "reservedAmountUBA",
          "type": "uint256"
        }
      ],
      "name": "MintingPaymentDefault",
      "type": "event"
    },
    {
      "inputs": [
        {
          "components": [
            {
              "internalType": "bytes32[]",
              "name": "merkleProof",
              "type": "bytes32[]"
            },
            {
              "components": [
                {
                  "internalType": "bytes32",
                  "name": "attestationType",
                  "type": "bytes32"
                },
                {
                  "internalType": "bytes32",
                  "name": "sourceId",
                  "type": "bytes32"
                },
                {
                  "internalType": "uint64",
                  "name": "votingRound",
                  "type": "uint64"
                },
                {
                  "internalType": "uint64",
                  "name": "lowestUsedTimestamp",
                  "type": "uint64"
                },
                {
                  "components": [
                    {
                      "internalType": "uint64",
                      "name": "minimalBlockNumber",
                      "type": "uint64"
                    },
                    {
                      "internalType": "uint64",
                      "name": "deadlineBlockNumber",
                      "type": "uint64"
                    },
                    {
                      "internalType": "uint64",
                      "name": "deadlineTimestamp",
                      "type": "uint64"
                    },
                    {
                      "internalType": "bytes32",
                      "name": "destinationAddressHash",
                      "type": "bytes32"
                    },
                    {
                      "internalType": "uint256",
                      "name": "amount",
                      "type": "uint256"
                    },
                    {
                      "internalType": "bytes32",
                      "name": "standardPaymentReference",
                      "type": "bytes32"
                    },
                    {
                      "internalType": "bool",
                      "name": "checkSourceAddresses",
                      "type": "bool"
                    },
                    {
                      "internalType": "bytes32",
                      "name": "sourceAddressesRoot",
                      "type": "bytes32"
                    }
                  ],
                  "internalType": "struct IReferencedPaymentNonexistence.RequestBody",
                  "name": "requestBody",
                  "type": "tuple"
                },
                {
                  "components": [
                    {
                      "internalType": "uint64",
                      "name": "minimalBlockTimestamp",
                      "type": "uint64"
                    },
                    {
                      "internalType": "uint64",
                      "name": "firstOverflowBlockNumber",
                      "type": "uint64"
                    },
                    {
                      "internalType": "uint64",
                      "name": "firstOverflowBlockTimestamp",
                      "type": "uint64"
                    }
                  ],
                  "internalType": "struct IReferencedPaymentNonexistence.ResponseBody",
                  "name": "responseBody",
                  "type": "tuple"
                }
              ],
              "internalType": "struct IReferencedPaymentNonexistence.Response",
              "name": "data",
              "type": "tuple"
            }
          ],
          "internalType": "struct IReferencedPaymentNonexistence.Proof",
          "name": "_proof",
          "type": "tuple"
        },
        {
          "internalType": "uint256",
          "name": "_crtId",
          "type": "uint256"
        }
      ],
      "name": "mintingPaymentDefault",
      "outputs": [],
      "stateMutability": "nonpayable",
      "type": "function"
    },
    {
      "inputs": [
        {
          "components": [
            {
              "internalType": "bytes32[]",
              "name": "merkleProof",
              "type": "bytes32[]"
            },
            {
              "components": [
                {
                  "internalType": "bytes32",
                  "name": "attestationType",
                  "type": "bytes32"
                },
                {
                  "internalType": "bytes32",
                  "name": "sourceId",
                  "type": "bytes32"
                },
                {
                  "internalType": "uint64",
                  "name": "votingRound",
                  "type": "uint64"
                },
                {
                  "internalType": "uint64",
                  "name": "lowestUsedTimestamp",
                  "type": "uint64"
                },
                {
                  "components": [
                    {
                      "internalType": "uint64",
                      "name": "blockNumber",
                      "type": "uint64"
                    },
                    {
                      "internalType": "uint64",
                      "name": "queryWindow",
                      "type": "uint64"
                    }
                  ],
                  "internalType": "struct IConfirmedBlockHeightExists.RequestBody",
                  "name": "requestBody",
                  "type": "tuple"
                },
                {
                  "components": [
                    {
                      "internalType": "uint64",
                      "name": "blockTimestamp",
                      "type": "uint64"
                    },
                    {
                      "internalType": "uint64",
                      "name": "numberOfConfirmations",
                      "type": "uint64"
                    },
                    {
                      "internalType": "uint64",
                      "name": "lowestQueryWindowBlockNumber",
                      "type": "uint64"
                    },
                    {
                      "internalType": "uint64",
                      "name": "lowestQueryWindowBlockTimestamp",
                      "type": "uint64"
                    }
                  ],
                  "internalType": "struct IConfirmedBlockHeightExists.ResponseBody",
                  "name": "responseBody",
                  "type": "tuple"
                }
              ],
              "internalType": "struct IConfirmedBlockHeightExists.Response",
              "name": "data",
              "type": "tuple"
            }
          ],
          "internalType": "struct IConfirmedBlockHeightExists.Proof",
          "name": "_proof",
          "type": "tuple"
        },
        {
          "internalType": "uint256",
          "name": "_crtId",
          "type": "uint256"
        }
      ],
      "name": "unstickMinting",
      "outputs": [],
      "stateMutability": "payable",
      "type": "function"
    }
  ],
  "bytecode": "0x6080604052348015600f57600080fd5b506121c28061001f6000396000f3fe6080604052600436106100295760003560e01c806369bd4e811461002e57806384807e8d14610050575b600080fd5b34801561003a57600080fd5b5061004e610049366004611a06565b610063565b005b61004e61005e366004611a50565b6103da565b61006b61067f565b6000610076826106e6565b905061008a61018084016101608501611aaa565b156100dc5760405162461bcd60e51b815260206004820152601e60248201527f736f7572636520616464726573736573206e6f7420737570706f72746564000060448201526064015b60405180910390fd5b60028101546000906100f6906001600160a01b031661076e565b905061010181610815565b61010a84610867565b8154600090610121906001600160401b03166109be565b905061012c84610a18565b61014086013514801561014757506003820154610100860135145b801561016e57506001830154610166906001600160801b031682611add565b610120860135145b6101ba5760405162461bcd60e51b815260206004820152601c60248201527f6d696e74696e67206e6f6e2d7061796d656e74206d69736d617463680000000060448201526064016100d3565b8254600160801b90046001600160401b03166101de6101e087016101c08801611b07565b6001600160401b031611801561021e57508254600160c01b90046001600160401b031661021361020087016101e08801611b07565b6001600160401b0316115b61026a5760405162461bcd60e51b815260206004820152601960248201527f6d696e74696e672064656661756c7420746f6f206561726c790000000000000060448201526064016100d3565b8254600160401b90046001600160401b031661028c60c0870160a08801611b07565b6001600160401b031611156102f65760405162461bcd60e51b815260206004820152602a60248201527f6d696e74696e67206e6f6e2d7061796d656e742070726f6f662077696e646f77604482015269081d1bdbc81cda1bdc9d60b21b60648201526084016100d3565b60006103028385610a42565b61030c9083611add565b6003850154600286015460405183815292935087926001600160a01b0392831692909116907f9bcf1e111381daaf8ec9ce1420115fc2bb960d5dd94b1e871256cb2e6cbd5aa09060200160405180910390a4600484015460009061038590633b9aca0090600160a01b90046001600160401b0316611b22565b60018601546103a49190600160801b90046001600160801b0316611add565b90506103b08482610aa1565b6103ba8587610b50565b50505050506103d6600160008051602061216d83398151915255565b5050565b6103e261067f565b60008051602061212d83398151915260006103fc836106e6565b6002810154909150600090610419906001600160a01b031661076e565b905061042481610815565b61042d85610cb9565b8154600160801b90046001600160401b031661045161014087016101208801611b07565b6001600160401b031611801561049157508154600160c01b90046001600160401b031661048661016087016101408801611b07565b6001600160401b0316115b80156104eb57506104a9610100860160e08701611b07565b60118401546001600160401b0391821691600160401b909104166104d561016088016101408901611b07565b6104df9190611b39565b6001600160401b031611155b6105375760405162461bcd60e51b815260206004820152601a60248201527f63616e6e6f7420756e737469636b206d696e74696e672079657400000000000060448201526064016100d3565b60048201546105839061055f90633b9aca0090600160a01b90046001600160401b0316611b22565b600184015461057e9190600160801b90046001600160801b0316611add565b610e12565b600481015460009061059d90610100900461ffff16610e79565b83549091506000906105b8906001600160401b031683610ec4565b905060006105c68483610ede565b905060006105d48587610a42565b86546105e8906001600160401b03166109be565b6105f29190611add565b600387015460028801546040518381529293508a926001600160a01b0392831692909116907f8989bc1e07f872f783e99c06825dfe6c20f9ca1bc2501de1e931a5872f0e88149060200160405180910390a461064e8689610b50565b6106613361065c8434611b58565b611060565b505050505050506103d6600160008051602061216d83398151915255565b60008051602061216d8339815191528054600119016106e05760405162461bcd60e51b815260206004820152601f60248201527f5265656e7472616e637947756172643a207265656e7472616e742063616c6c0060448201526064016100d3565b60029055565b600060008051602061214d833981519152821580159061071e575060008381526006820160205260409020546001600160401b031615155b61075b5760405162461bcd60e51b815260206004820152600e60248201526d1a5b9d985b1a590818dc9d081a5960921b60448201526064016100d3565b6000928352600601602052506040902090565b7f5bebac0595fee029d42bb673937f5f1cb81cf8641382bc17774635de9b7d796568010000000000000000600160e01b03604083901b161880600060048084015460ff16908111156107c2576107c2611b6b565b0361080f5760405162461bcd60e51b815260206004820152601b60248201527f696e76616c6964206167656e74207661756c742061646472657373000000000060448201526064016100d3565b50919050565b61081f8133611109565b6108645760405162461bcd60e51b815260206004820152601660248201527537b7363c9030b3b2b73a103b30bab63a1037bbb732b960511b60448201526064016100d3565b50565b7f4f24f5c433db0962dac0d2c8b84197a6e6c7cc4e5d9ebe1916a1b6193da2f342547f4f24f5c433db0962dac0d2c8b84197a6e6c7cc4e5d9ebe1916a1b6193da2f3455460008051602061212d833981519152916001600160a01b0316906040840135146109075760405162461bcd60e51b815260206004820152600d60248201526c34b73b30b634b21031b430b4b760991b60448201526064016100d3565b60405163d577275160e01b81526001600160a01b0382169063d577275190610933908690600401611c4e565b602060405180830381865afa158015610950573d6000803e3d6000fd5b505050506040513d601f19601f820116820180604052508101906109749190611d7a565b6109b95760405162461bcd60e51b81526020600482015260166024820152751b9bdb8b5c185e5b595b9d081b9bdd081c1c9bdd995960521b60448201526064016100d3565b505050565b7f4f24f5c433db0962dac0d2c8b84197a6e6c7cc4e5d9ebe1916a1b6193da2f3465460009060008051602061212d83398151915290610a1190600160901b90046001600160401b03908116908516611b22565b9392505050565b60006001600160401b03821115610a3157610a31611d97565b5067464250526641000160c01b1790565b6002810154600090600160a01b900461ffff168181610a70576004850154600160581b900461ffff16610a7b565b610a7b600183611dad565b6001850154909150610a96906001600160801b03168261114a565b925050505b92915050565b80600003610aad575050565b6004820154600090610acb908390600160581b900461ffff16611162565b8354604080516368dc448760e11b815290519293506001600160a01b039091169163d1b8890e918491600480830192600092919082900301818588803b158015610b1457600080fd5b505af1158015610b28573d6000803e3d6000fd5b50505050506109b9610b38611171565b610b41856111de565b610b4b8486611b58565b61120d565b600282015460008051602061214d83398151915290600090610b7a906001600160a01b031661076e565b90506000610b90610b8b8387610a42565b611275565b8554610ba591906001600160401b0316611b39565b600583015460408051808201909152601381527234b73b30b634b2103932b9b2b93b30ba34b7b760691b6020820152919250610bee916001600160401b039091169083906112cd565b60058301805467ffffffffffffffff19166001600160401b03928316179055600e840180548392601891610c2b918591600160c01b900416611dc7565b82546001600160401b039182166101009390930a92830291909202199091161790555050506000918252600690810160205260408220828155600181018390556002810180546001600160b01b03191690556003810180546001600160a01b03191690556004810180546001600160e01b031916905560058101805467ffffffffffffffff19169055015550565b7f4f24f5c433db0962dac0d2c8b84197a6e6c7cc4e5d9ebe1916a1b6193da2f342547f4f24f5c433db0962dac0d2c8b84197a6e6c7cc4e5d9ebe1916a1b6193da2f3455460008051602061212d833981519152916001600160a01b031690604084013514610d595760405162461bcd60e51b815260206004820152600d60248201526c34b73b30b634b21031b430b4b760991b60448201526064016100d3565b604051635e30ebfb60e01b81526001600160a01b03821690635e30ebfb90610d85908690600401611de6565b602060405180830381865afa158015610da2573d6000803e3d6000fd5b505050506040513d601f19601f82011682018060405250810190610dc69190611d7a565b6109b95760405162461bcd60e51b815260206004820152601760248201527f626c6f636b20686569676874206e6f742070726f76656400000000000000000060448201526064016100d3565b7f4f24f5c433db0962dac0d2c8b84197a6e6c7cc4e5d9ebe1916a1b6193da2f3435460405160008051602061212d833981519152916001600160a01b0316906108fc8415029084906000818181858888f193505050501580156109b9573d6000803e3d6000fd5b60008060008051602061214d8339815191529050610eba816000018481548110610ea557610ea5611f0c565b90600052602060002090600402016000611318565b5090949350505050565b6000610a1182610ed66009600a612009565b8591906114d7565b600080610eea846115fd565b90506000610ef78561164a565b7f4f24f5c433db0962dac0d2c8b84197a6e6c7cc4e5d9ebe1916a1b6193da2f34c5490915060008051602061212d833981519152907f5bebac0595fee029d42bb673937f5f1cb81cf8641382bc17774635de9b7d7965871860401c90610f7590600160801b900463ffffffff16610f6f888787611683565b90611162565b84549095506001600160a01b03808316916320f801d49116610f968a6111de565b6040516001600160e01b031960e085901b1681526001600160a01b0392831660048201529116602482015260448101899052606401600060405180830381600087803b158015610fe557600080fd5b505af1158015610ff9573d6000803e3d6000fd5b505050508434101561104d5760405162461bcd60e51b815260206004820152601960248201527f6e6f7420656e6f7567682066756e64732070726f76696465640000000000000060448201526064016100d3565b61105685610e12565b5050505092915050565b6110686116b3565b80156103d6576000826001600160a01b031682620186a090604051600060405180830381858888f193505050503d80600081146110c1576040519150601f19603f3d011682016040523d82523d6000602084013e6110c6565b606091505b50509050806109b95760405162461bcd60e51b815260206004820152600f60248201526e1d1c985b9cd9995c8819985a5b1959608a1b60448201526064016100d3565b60018201546000906001600160a01b0383811691161480610a11575061112e83611714565b6001600160a01b0316826001600160a01b031614905092915050565b6000610a1161115d8461ffff8516611162565b6117b6565b6000610a1183836127106114d7565b7fec7e8c1c441439dd40959777f4c577ea0cd42fcc1dbe59d2bd0f5d9c55df8dc55460008051602061214d8339815191528054600092829161ffff9091169081106111be576111be611f0c565b60009182526020909120600490910201546001600160a01b031692915050565b6000806111ea83611714565b90506001600160a01b038116610a9b5760018301546001600160a01b0316610a11565b80156109b95760405163b760faf960e01b81526001600160a01b03838116600483015284169063b760faf99083906024016000604051808303818588803b15801561125757600080fd5b505af115801561126b573d6000803e3d6000fd5b5050505050505050565b7f4f24f5c433db0962dac0d2c8b84197a6e6c7cc4e5d9ebe1916a1b6193da2f3465460009060008051602061212d83398151915290610a11906112c890600160901b90046001600160401b03168561202b565b61180f565b6000826001600160401b0316846001600160401b0316101582906113045760405162461bcd60e51b81526004016100d3919061203f565b5050506001600160401b0390811691160390565b6000806000806000806113b78860010180546113339061208d565b80601f016020809104026020016040519081016040528092919081815260200182805461135f9061208d565b80156113ac5780601f10611381576101008083540402835291602001916113ac565b820191906000526020600020905b81548152906001019060200180831161138f57829003601f168201915b50505050508861187b565b8a549295509093509150600160f01b900460ff16156113fe5787546000906113ed90600160a81b900460ff166001838786611969565b96509194508493506114d092505050565b60008060006114998b60020180546114159061208d565b80601f01602080910402602001604051908101604052809291908181526020018280546114419061208d565b801561148e5780601f106114635761010080835404028352916020019161148e565b820191906000526020600020905b81548152906001019060200180831161147157829003601f168201915b50505050508b61187b565b8d5492955090935091506000906114bd90600160a81b900460ff1685848a89611969565b99509497509095506114d0945050505050565b9250925092565b600080821161151b5760405162461bcd60e51b815260206004820152601060248201526f4469766973696f6e206279207a65726f60801b60448201526064016100d3565b8360000361152b57506000610a11565b8383028385828161153e5761153e612015565b040361155c5782818161155357611553612015565b04915050610a11565b506000611569838661202b565b9050600061157784876120c1565b90506000611585858761202b565b9050600061159386886120c1565b9050856115a08285611b22565b6115aa919061202b565b6115b48385611b22565b6115be8387611b22565b886115c98689611b22565b6115d39190611b22565b6115dd9190611add565b6115e79190611add565b6115f19190611add565b98975050505050505050565b60008060008051602061214d83398151915260048401548154919250829161010090910461ffff1690811061163457611634611f0c565b9060005260206000209060040201915050919050565b60008060008051602061214d833981519152600484015481549192508291630100000090910461ffff1690811061163457611634611f0c565b60008061168f836119f0565b9050600061169c856119f0565b90506116a98683836114d7565b9695505050505050565b60008051602061216d833981519152546002146117125760405162461bcd60e51b815260206004820152601f60248201527f5265656e7472616e637947756172643a2067756172642072657175697265640060448201526064016100d3565b565b60006117477f4f24f5c433db0962dac0d2c8b84197a6e6c7cc4e5d9ebe1916a1b6193da2f341546001600160a01b031690565b6001830154604051631f86345d60e31b81526001600160a01b03918216600482015291169063fc31a2e890602401602060405180830381865afa158015611792573d6000803e3d6000fd5b505050506040513d601f19601f82011682018060405250810190610a9b91906120d5565b7f4f24f5c433db0962dac0d2c8b84197a6e6c7cc4e5d9ebe1916a1b6193da2f3465460009060008051602061212d8339815191529061180590600160901b90046001600160401b0316846120c1565b610a119084611b58565b60006001600160401b038211156118775760405162461bcd60e51b815260206004820152602660248201527f53616665436173743a2076616c756520646f65736e27742066697420696e203660448201526534206269747360d01b60648201526084016100d3565b5090565b7f4f24f5c433db0962dac0d2c8b84197a6e6c7cc4e5d9ebe1916a1b6193da2f344546000908190819060008051602061212d833981519152906001600160a01b0316851561193d5760405163e4a0a55b60e01b81526001600160a01b0382169063e4a0a55b906118ef908a9060040161203f565b606060405180830381865afa15801561190c573d6000803e3d6000fd5b505050506040513d601f19601f8201168201806040525081019061193091906120fe565b94509450945050506114d0565b60405163524f388960e01b81526001600160a01b0382169063524f3889906118ef908a9060040161203f565b600060008051602061212d833981519152816009611987878a611add565b6119919190611add565b600a8301549091506000906119b1908690600160a81b900460ff16611add565b9050808210156119c3576119c3611d97565b6119e36119d08284611b58565b6119db90600a612009565b87908a6114d7565b9998505050505050505050565b60006119fd826000611318565b50909392505050565b60008060408385031215611a1957600080fd5b82356001600160401b03811115611a2f57600080fd5b83016102008186031215611a4257600080fd5b946020939093013593505050565b60008060408385031215611a6357600080fd5b82356001600160401b03811115611a7957600080fd5b83016101608186031215611a4257600080fd5b801515811461086457600080fd5b8035611aa581611a8c565b919050565b600060208284031215611abc57600080fd5b8135610a1181611a8c565b634e487b7160e01b600052601160045260246000fd5b80820180821115610a9b57610a9b611ac7565b80356001600160401b0381168114611aa557600080fd5b600060208284031215611b1957600080fd5b610a1182611af0565b8082028115828204841417610a9b57610a9b611ac7565b6001600160401b038181168382160190811115610a9b57610a9b611ac7565b81810381811115610a9b57610a9b611ac7565b634e487b7160e01b600052602160045260246000fd5b6000808335601e19843603018112611b9857600080fd5b83016020810192503590506001600160401b03811115611bb757600080fd5b8060051b3603821315611bc957600080fd5b9250929050565b81835260006001600160fb1b03831115611be957600080fd5b8260051b80836020870137939093016020019392505050565b6001600160401b03611c1382611af0565b1682526001600160401b03611c2a60208301611af0565b1660208301526001600160401b03611c4460408301611af0565b1660408301525050565b602081526000611c5e8384611b81565b6102006020850152611c7561022085018284611bd0565b60208601356040868101919091528601356060808701919091529092506001600160401b039150611ca7908601611af0565b1660808401526001600160401b03611cc160808601611af0565b1660a08401526001600160401b03611cdb60a08601611af0565b1660c08401526001600160401b03611cf560c08601611af0565b1660e08401526001600160401b03611d0f60e08601611af0565b1661010084810191909152840135610120808501919091528401356101408085019190915284013561016080850191909152611d4c908501611a9a565b8015156101808501525060006101808501359050806101a085015250610a116101c084016101a08601611c02565b600060208284031215611d8c57600080fd5b8151610a1181611a8c565b634e487b7160e01b600052600160045260246000fd5b61ffff8281168282160390811115610a9b57610a9b611ac7565b6001600160401b038281168282160390811115610a9b57610a9b611ac7565b602081526000611df68384611b81565b6101606020850152611e0d61018085018284611bd0565b60208601356040868101919091528601356060808701919091529092506001600160401b039150611e3f908601611af0565b1660808401526001600160401b03611e5960808601611af0565b1660a08401526001600160401b03611e7360a08601611af0565b1660c08401526001600160401b03611e8d60c08601611af0565b1660e08401526001600160401b03611ea760e08601611af0565b166101008401526001600160401b03611ec36101008601611af0565b166101208401526001600160401b03611edf6101208601611af0565b166101408401526001600160401b03611efb6101408601611af0565b166101608401528091505092915050565b634e487b7160e01b600052603260045260246000fd5b6001815b6001841115611f5d57808504811115611f4157611f41611ac7565b6001841615611f4f57908102905b60019390931c928002611f26565b935093915050565b600082611f7457506001610a9b565b81611f8157506000610a9b565b8160018114611f975760028114611fa157611fbd565b6001915050610a9b565b60ff841115611fb257611fb2611ac7565b50506001821b610a9b565b5060208310610133831016604e8410600b8410161715611fe0575081810a610a9b565b611fed6000198484611f22565b806000190482111561200157612001611ac7565b029392505050565b6000610a118383611f65565b634e487b7160e01b600052601260045260246000fd5b60008261203a5761203a612015565b500490565b602081526000825180602084015260005b8181101561206d5760208186018101516040868401015201612050565b506000604082850101526040601f19601f83011684010191505092915050565b600181811c908216806120a157607f821691505b60208210810361080f57634e487b7160e01b600052602260045260246000fd5b6000826120d0576120d0612015565b500690565b6000602082840312156120e757600080fd5b81516001600160a01b0381168114610a1157600080fd5b60008060006060848603121561211357600080fd5b505081516020830151604090930151909492935091905056fe4f24f5c433db0962dac0d2c8b84197a6e6c7cc4e5d9ebe1916a1b6193da2f33aec7e8c1c441439dd40959777f4c577ea0cd42fcc1dbe59d2bd0f5d9c55df8db60cd2207518cd3e5213e2c6dbe63d55b60aa893c194a427b7d7f1600408fd5bdea26469706673582212201e80f34a46dec59108fa03ec82bac5785a093a54ad5086122d9a8104db6e79ae64736f6c634300081b0033",
  "linkReferences": {},
  "deployedLinkReferences": {}
}