{
  "_format": "hh-sol-artifact-1",
  "contractName": "CoreVaultClientSettingsFacet",
  "sourceName": "contracts/assetManager/facets/CoreVaultClientSettingsFacet.sol",
  "abi": [
    {
      "inputs": [],
      "stateMutability": "nonpayable",
      "type": "constructor"
    },
    {
      "anonymous": false,
      "inputs": [
        {
          "indexed": false,
          "internalType": "string",
          "name": "name",
          "type": "string"
        },
        {
          "indexed": false,
          "internalType": "address",
          "name": "value",
          "type": "address"
        }
      ],
      "name": "ContractChanged",
      "type": "event"
    },
    {
      "anonymous": false,
      "inputs": [
        {
          "indexed": false,
          "internalType": "bytes",
          "name": "encodedCall",
          "type": "bytes"
        },
        {
          "indexed": false,
          "internalType": "bytes32",
          "name": "encodedCallHash",
          "type": "bytes32"
        },
        {
          "indexed": false,
          "internalType": "uint256",
          "name": "allowedAfterTimestamp",
          "type": "uint256"
        }
      ],
      "name": "GovernanceCallTimelocked",
      "type": "event"
    },
    {
      "anonymous": false,
      "inputs": [
        {
          "indexed": false,
          "internalType": "address",
          "name": "initialGovernance",
          "type": "address"
        }
      ],
      "name": "GovernanceInitialised",
      "type": "event"
    },
    {
      "anonymous": false,
      "inputs": [
        {
          "indexed": false,
          "internalType": "address",
          "name": "governanceSettings",
          "type": "address"
        }
      ],
      "name": "GovernedProductionModeEntered",
      "type": "event"
    },
    {
      "anonymous": false,
      "inputs": [
        {
          "indexed": false,
          "internalType": "string",
          "name": "name",
          "type": "string"
        },
        {
          "indexed": false,
          "internalType": "uint256",
          "name": "value",
          "type": "uint256"
        }
      ],
      "name": "SettingChanged",
      "type": "event"
    },
    {
      "anonymous": false,
      "inputs": [
        {
          "indexed": false,
          "internalType": "bytes32",
          "name": "encodedCallHash",
          "type": "bytes32"
        }
      ],
      "name": "TimelockedGovernanceCallCanceled",
      "type": "event"
    },
    {
      "anonymous": false,
      "inputs": [
        {
          "indexed": false,
          "internalType": "bytes32",
          "name": "encodedCallHash",
          "type": "bytes32"
        }
      ],
      "name": "TimelockedGovernanceCallExecuted",
      "type": "event"
    },
    {
      "inputs": [
        {
          "internalType": "bytes",
          "name": "_encodedCall",
          "type": "bytes"
        }
      ],
      "name": "cancelGovernanceCall",
      "outputs": [],
      "stateMutability": "nonpayable",
      "type": "function"
    },
    {
      "inputs": [
        {
          "internalType": "bytes",
          "name": "_encodedCall",
          "type": "bytes"
        }
      ],
      "name": "executeGovernanceCall",
      "outputs": [],
      "stateMutability": "nonpayable",
      "type": "function"
    },
    {
      "inputs": [],
      "name": "getCoreVaultManager",
      "outputs": [
        {
          "internalType": "address",
          "name": "",
          "type": "address"
        }
      ],
      "stateMutability": "view",
      "type": "function"
    },
    {
      "inputs": [],
      "name": "getCoreVaultMinimumAmountLeftBIPS",
      "outputs": [
        {
          "internalType": "uint256",
          "name": "",
          "type": "uint256"
        }
      ],
      "stateMutability": "view",
      "type": "function"
    },
    {
      "inputs": [],
      "name": "getCoreVaultMinimumRedeemLots",
      "outputs": [
        {
          "internalType": "uint256",
          "name": "",
          "type": "uint256"
        }
      ],
      "stateMutability": "view",
      "type": "function"
    },
    {
      "inputs": [],
      "name": "getCoreVaultNativeAddress",
      "outputs": [
        {
          "internalType": "address",
          "name": "",
          "type": "address"
        }
      ],
      "stateMutability": "view",
      "type": "function"
    },
    {
      "inputs": [],
      "name": "getCoreVaultRedemptionFeeBIPS",
      "outputs": [
        {
          "internalType": "uint256",
          "name": "",
          "type": "uint256"
        }
      ],
      "stateMutability": "view",
      "type": "function"
    },
    {
      "inputs": [],
      "name": "getCoreVaultTransferTimeExtensionSeconds",
      "outputs": [
        {
          "internalType": "uint256",
          "name": "",
          "type": "uint256"
        }
      ],
      "stateMutability": "view",
      "type": "function"
    },
    {
      "inputs": [],
      "name": "governance",
      "outputs": [
        {
          "internalType": "address",
          "name": "",
          "type": "address"
        }
      ],
      "stateMutability": "view",
      "type": "function"
    },
    {
      "inputs": [],
      "name": "governanceSettings",
      "outputs": [
        {
          "internalType": "contract IGovernanceSettings",
          "name": "",
          "type": "address"
        }
      ],
      "stateMutability": "view",
      "type": "function"
    },
    {
      "inputs": [
        {
          "internalType": "contract IICoreVaultManager",
          "name": "_coreVaultManager",
          "type": "address"
        },
        {
          "internalType": "address payable",
          "name": "_nativeAddress",
          "type": "address"
        },
        {
          "internalType": "uint256",
          "name": "_transferTimeExtensionSeconds",
          "type": "uint256"
        },
        {
          "internalType": "uint256",
          "name": "_redemptionFeeBIPS",
          "type": "uint256"
        },
        {
          "internalType": "uint256",
          "name": "_minimumAmountLeftBIPS",
          "type": "uint256"
        },
        {
          "internalType": "uint256",
          "name": "_minimumRedeemLots",
          "type": "uint256"
        }
      ],
      "name": "initCoreVaultFacet",
      "outputs": [],
      "stateMutability": "nonpayable",
      "type": "function"
    },
    {
      "inputs": [
        {
          "internalType": "address",
          "name": "_address",
          "type": "address"
        }
      ],
      "name": "isExecutor",
      "outputs": [
        {
          "internalType": "bool",
          "name": "",
          "type": "bool"
        }
      ],
      "stateMutability": "view",
      "type": "function"
    },
    {
      "inputs": [],
      "name": "productionMode",
      "outputs": [
        {
          "internalType": "bool",
          "name": "",
          "type": "bool"
        }
      ],
      "stateMutability": "view",
      "type": "function"
    },
    {
      "inputs": [
        {
          "internalType": "address",
          "name": "_coreVaultManager",
          "type": "address"
        }
      ],
      "name": "setCoreVaultManager",
      "outputs": [],
      "stateMutability": "nonpayable",
      "type": "function"
    },
    {
      "inputs": [
        {
          "internalType": "uint256",
          "name": "_minimumAmountLeftBIPS",
          "type": "uint256"
        }
      ],
      "name": "setCoreVaultMinimumAmountLeftBIPS",
      "outputs": [],
      "stateMutability": "nonpayable",
      "type": "function"
    },
    {
      "inputs": [
        {
          "internalType": "uint256",
          "name": "_minimumRedeemLots",
          "type": "uint256"
        }
      ],
      "name": "setCoreVaultMinimumRedeemLots",
      "outputs": [],
      "stateMutability": "nonpayable",
      "type": "function"
    },
    {
      "inputs": [
        {
          "internalType": "address payable",
          "name": "_nativeAddress",
          "type": "address"
        }
      ],
      "name": "setCoreVaultNativeAddress",
      "outputs": [],
      "stateMutability": "nonpayable",
      "type": "function"
    },
    {
      "inputs": [
        {
          "internalType": "uint256",
          "name": "_redemptionFeeBIPS",
          "type": "uint256"
        }
      ],
      "name": "setCoreVaultRedemptionFeeBIPS",
      "outputs": [],
      "stateMutability": "nonpayable",
      "type": "function"
    },
    {
      "inputs": [
        {
          "internalType": "uint256",
          "name": "_transferTimeExtensionSeconds",
          "type": "uint256"
        }
      ],
      "name": "setCoreVaultTransferTimeExtensionSeconds",
      "outputs": [],
      "stateMutability": "nonpayable",
      "type": "function"
    },
    {
      "inputs": [],
      "name": "switchToProductionMode",
      "outputs": [],
      "stateMutability": "nonpayable",
      "type": "function"
    },
    {
      "inputs": [],
      "name": "updateInterfacesAtCoreVaultDeploy",
      "outputs": [],
      "stateMutability": "nonpayable",
      "type": "function"
    }
  ],
  "bytecode": "0x608060405234801561001057600080fd5b5061001d61111180610059565b7f5176d9aff61164d28f93ea46eb1dc40e6c1f84dd050716ad33cf1851e70a4aa3805460ff60401b1916680100000000000000001790556101ed565b7f2aa47ee5db910f3b2a06970c443249cc77dbd9f96100cfebc1775ab7fb1d18248054600160a01b900460ff16156100d85760405162461bcd60e51b815260206004820152601460248201527f696e697469616c6973656420213d2066616c736500000000000000000000000060448201526064015b60405180910390fd5b6001600160a01b03831661012e5760405162461bcd60e51b815260206004820152601860248201527f676f7665726e616e63652073657474696e6773207a65726f000000000000000060448201526064016100cf565b6001600160a01b0382166101775760405162461bcd60e51b815260206004820152601060248201526f5f676f7665726e616e6365207a65726f60801b60448201526064016100cf565b80546001600160a01b038481166001600160a81b031990921691909117600160a01b1782556001820180549184166001600160a01b0319909216821790556040519081527f9789733827840833afc031fb2ef9ab6894271f77bad2085687cf4ae5c7bee4db9060200160405180910390a1505050565b6115fc806101fc6000396000f3fe608060405234801561001057600080fd5b50600436106101375760003560e01c8063a67ab2b1116100b8578063e17f212e1161007c578063e17f212e146102db578063e6a118d5146102fa578063ec8939051461030d578063ecad40c91461032d578063f5a9838314610340578063fe1ad6421461034857600080fd5b8063a67ab2b11461024c578063a79936e41461025f578063b2a0d42014610285578063be1e366a14610298578063debfda30146102b857600080fd5b806362354e03116100ff57806362354e03146101d757806391b46248146101f5578063929d71bf146102085780639bd193a314610226578063a2785a711461022e57600080fd5b806303094b211461013c57806316fc2f6d1461017c57806320c5f99d1461019157806343b9552e146101a45780635aa6e675146101b7575b600080fd5b7f5176d9aff61164d28f93ea46eb1dc40e6c1f84dd050716ad33cf1851e70a4aa35467ffffffffffffffff165b6040519081526020015b60405180910390f35b61018f61018a36600461131c565b61035b565b005b61018f61019f36600461131c565b610443565b61018f6101b2366004611390565b610632565b6101bf6106d3565b6040516001600160a01b039091168152602001610173565b600080516020611567833981519152546001600160a01b03166101bf565b61018f6102033660046113be565b61077c565b600080516020611547833981519152546001600160a01b03166101bf565b61018f610942565b6000805160206115a7833981519152546001600160a01b03166101bf565b61018f61025a366004611390565b610a5d565b6000805160206115a783398151915254600160a01b900467ffffffffffffffff16610169565b61018f610293366004611390565b610b17565b60008051602061154783398151915254600160b01b900461ffff16610169565b6102cb6102c6366004611417565b610bd1565b6040519015158152602001610173565b60008051602061156783398151915254600160a81b900460ff166102cb565b61018f610308366004611417565b610c6b565b60008051602061154783398151915254600160c01b900461ffff16610169565b61018f61033b366004611390565b610e1f565b61018f610eca565b61018f610356366004611417565b610f9e565b610363611042565b604051600080516020611567833981519152906000906103869085908590611434565b60405180910390209050816002016000828152602001908152602001600020546000036103fa5760405162461bcd60e51b815260206004820152601a60248201527f74696d656c6f636b3a20696e76616c69642073656c6563746f7200000000000060448201526064015b60405180910390fd5b6040518181527f69b058d6225c01c1f2a25801ca5b05705fa2e9118e93d518390ba804398c87b19060200160405180910390a16000908152600290910160205260408120555050565b60008051602061156783398151915261045b33610bd1565b6104975760405162461bcd60e51b815260206004820152600d60248201526c37b7363c9032bc32b1baba37b960991b60448201526064016103f1565b600083836040516104a9929190611434565b604080519182900390912060008181526002850160205291822054909250908190036105175760405162461bcd60e51b815260206004820152601a60248201527f74696d656c6f636b3a20696e76616c69642073656c6563746f7200000000000060448201526064016103f1565b804210156105675760405162461bcd60e51b815260206004820152601960248201527f74696d656c6f636b3a206e6f7420616c6c6f776564207965740000000000000060448201526064016103f1565b6000828152600284016020526040808220829055845460ff60b01b1916600160b01b17855551309061059c9088908890611434565b6000604051808303816000865af19150503d80600081146105d9576040519150601f19603f3d011682016040523d82523d6000602084013e6105de565b606091505b5050845460ff60b01b191685556040518481529091507fec1225e5a8a8acb91e03ce648c683c74f5d152a775b9715980999441d714c44f9060200160405180910390a161062a8161109e565b505050505050565b61063a611042565b6000805160206115a7833981519152610652826110bb565b60028201805467ffffffffffffffff191667ffffffffffffffff9290921691909117905560408051818152601a918101919091527f636f72655661756c744d696e696d756d52656465656d4c6f7473000000000000606082015260208101839052600080516020611587833981519152906080015b60405180910390a15050565b600080516020611567833981519152805460009190600160a81b900460ff166107095760018101546001600160a01b0316610776565b805460408051631cc9492560e21b815290516001600160a01b03909216916373252494916004808201926020929091908290030181865afa158015610752573d6000803e3d6000fd5b505050506040513d601f19601f820116820180604052508101906107769190611444565b91505090565b610784610942565b6127108311156107a65760405162461bcd60e51b81526004016103f190611461565b6127108211156107c85760405162461bcd60e51b81526004016103f190611461565b7f5176d9aff61164d28f93ea46eb1dc40e6c1f84dd050716ad33cf1851e70a4aa3546000805160206115a783398151915290600160401b900460ff16156108475760405162461bcd60e51b8152602060048201526013602482015272185b1c9958591e481a5b9a5d1a585b1a5e9959606a1b60448201526064016103f1565b60028101805468ff00000000000000001916600160401b17905580546001600160a01b038089166001600160a01b031992831617835560018301805491891691909216179055610896856110bb565b815467ffffffffffffffff91909116600160a01b0267ffffffffffffffff60a01b199091161781556108c784611128565b8160010160166101000a81548161ffff021916908361ffff1602179055506108ee83611128565b8160010160186101000a81548161ffff021916908361ffff160217905550610915826110bb565b600291909101805467ffffffffffffffff191667ffffffffffffffff909216919091179055505050505050565b6301ffc9a760e01b6000527fc8fcad8db84d3cc18b4c41d551ea0ee66dd599cde068d998e57d5e09332c131e6020527f673a26ab9c976db950bbe987aa80c5e387f329563bb0afe093ddccc970489e31547fc8fcad8db84d3cc18b4c41d551ea0ee66dd599cde068d998e57d5e09332c131c9060ff16610a045760405162461bcd60e51b815260206004820152601760248201527f6469616d6f6e64206e6f7420696e697469616c697a656400000000000000000060448201526064016103f1565b638f85ebf160e01b600090815260029091016020526040808220805460ff19908116600190811790925563c4e6b33560e01b84528284208054821683179055636597e48560e01b84529190922080549091169091179055565b610a65611042565b612710811115610a875760405162461bcd60e51b81526004016103f190611461565b6000805160206115a7833981519152610a9f82611128565b60018201805461ffff92909216600160c01b0261ffff60c01b1990921691909117905560408051818152601e918101919091527f636f72655661756c744d696e696d756d416d6f756e744c656674424950530000606082015260208101839052600080516020611587833981519152906080016106c7565b610b1f611042565b612710811115610b415760405162461bcd60e51b81526004016103f190611461565b6000805160206115a7833981519152610b5982611128565b60018201805461ffff92909216600160b01b0261ffff60b01b1990921691909117905560408051818152601a918101919091527f636f72655661756c74526564656d7074696f6e46656542495053000000000000606082015260208101839052600080516020611587833981519152906080016106c7565b600080516020611567833981519152805460009190600160a01b900460ff168015610c6457508054604051630debfda360e41b81526001600160a01b0385811660048301529091169063debfda3090602401602060405180830381865afa158015610c40573d6000803e3d6000fd5b505050506040513d601f19601f82011682018060405250810190610c64919061148e565b9392505050565b610c7361118b565b15610e0f57610c806111c1565b6001600160a01b038116610cc75760405162461bcd60e51b815260206004820152600e60248201526d63616e6e6f742064697361626c6560901b60448201526064016103f1565b6000819050306001600160a01b0316816001600160a01b03166394217ad16040518163ffffffff1660e01b8152600401602060405180830381865afa158015610d14573d6000803e3d6000fd5b505050506040513d601f19601f82011682018060405250810190610d389190611444565b6001600160a01b031614610d845760405162461bcd60e51b81526020600482015260136024820152723bb937b7339030b9b9b2ba1036b0b730b3b2b960691b60448201526064016103f1565b6000805160206115a783398151915280546001600160a01b0319166001600160a01b03838116919091178255604080518181526010818301526f31b7b932ab30bab63a26b0b730b3b2b960811b60608201529185166020830152517fcb274d507e7a9978f5a8c15929fd58c472b8addc1a9bba454b0c0a49a05c9152916080908290030190a1505050565b610e1c6000366000611205565b50565b610e27611042565b6000805160206115a7833981519152610e3f826110bb565b815467ffffffffffffffff91909116600160a01b0267ffffffffffffffff60a01b19909116178155604080518181526025918101919091527f636f72655661756c745472616e7366657254696d65457874656e73696f6e5365606082015264636f6e647360d81b6080820152602081018390526000805160206115878339815191529060a0016106c7565b610ed2611042565b6000805160206115678339815191528054600160a81b900460ff1615610f3a5760405162461bcd60e51b815260206004820152601a60248201527f616c726561647920696e2070726f64756374696f6e206d6f646500000000000060448201526064016103f1565b6001810180546001600160a01b03191690558054600160a81b60ff60a81b1982161782556040516001600160a01b0390911681527f83af113638b5422f9e977cebc0aaf0eaf2188eb9a8baae7f9d46c42b33a1560c9060200160405180910390a150565b610fa6611042565b60008051602061154783398151915280546001600160a01b0319166001600160a01b0383169081179091556040805181815260169181019190915275636f72655661756c744e61746976654164647265737360501b606082015260208101919091526000805160206115a7833981519152907fcb274d507e7a9978f5a8c15929fd58c472b8addc1a9bba454b0c0a49a05c9152906080016106c7565b61104a6106d3565b6001600160a01b0316336001600160a01b03161461109c5760405162461bcd60e51b815260206004820152600f60248201526e6f6e6c7920676f7665726e616e636560881b60448201526064016103f1565b565b3d604051818101604052816000823e82156110b7578181f35b8181fd5b600067ffffffffffffffff8211156111245760405162461bcd60e51b815260206004820152602660248201527f53616665436173743a2076616c756520646f65736e27742066697420696e203660448201526534206269747360d01b60648201526084016103f1565b5090565b600061ffff8211156111245760405162461bcd60e51b815260206004820152602660248201527f53616665436173743a2076616c756520646f65736e27742066697420696e203160448201526536206269747360d01b60648201526084016103f1565b600080516020611567833981519152805460009190600160b01b900460ff1680610776575054600160a81b900460ff1615919050565b6000805160206115678339815191528054600160b01b900460ff16156111fd573330146111f0576111f06114b0565b805460ff60b01b19169055565b610e1c611042565b60008051602061156783398151915261121c611042565b6000848460405161122e929190611434565b604080519182900382208454636221a54b60e01b845291519093506000926001600160a01b0390921691636221a54b9160048083019260209291908290030181865afa158015611282573d6000803e3d6000fd5b505050506040513d601f19601f820116820180604052508101906112a691906114c6565b9050838110156112b35750825b60006112bf82426114df565b600084815260028601602052604090819020829055519091507f8c02104dfc280f713854f25297de671710c544c58de69dbde8fb66974ce1ab9e9061130b908990899087908690611506565b60405180910390a150505050505050565b6000806020838503121561132f57600080fd5b823567ffffffffffffffff81111561134657600080fd5b8301601f8101851361135757600080fd5b803567ffffffffffffffff81111561136e57600080fd5b85602082840101111561138057600080fd5b6020919091019590945092505050565b6000602082840312156113a257600080fd5b5035919050565b6001600160a01b0381168114610e1c57600080fd5b60008060008060008060c087890312156113d757600080fd5b86356113e2816113a9565b955060208701356113f2816113a9565b95989597505050506040840135936060810135936080820135935060a0909101359150565b60006020828403121561142957600080fd5b8135610c64816113a9565b8183823760009101908152919050565b60006020828403121561145657600080fd5b8151610c64816113a9565b6020808252601390820152720c4d2e0e640ecc2d8eaca40e8dede40d0d2ced606b1b604082015260600190565b6000602082840312156114a057600080fd5b81518015158114610c6457600080fd5b634e487b7160e01b600052600160045260246000fd5b6000602082840312156114d857600080fd5b5051919050565b8082018082111561150057634e487b7160e01b600052601160045260246000fd5b92915050565b606081528360608201528385608083013760006080858301015260006080601f19601f87011683010190508360208301528260408301529594505050505056fe5176d9aff61164d28f93ea46eb1dc40e6c1f84dd050716ad33cf1851e70a4aa22aa47ee5db910f3b2a06970c443249cc77dbd9f96100cfebc1775ab7fb1d1824ac1fb27759c1e6f9e4a24d4f8c320be6091becb03cea5a95398fa220fca4ac0e5176d9aff61164d28f93ea46eb1dc40e6c1f84dd050716ad33cf1851e70a4aa1a2646970667358221220e70c5ddfd63bbbaab0b010b27752148d4fa8d4b5f36340ef0d90debe6db8340264736f6c634300081b0033",
  "linkReferences": {},
  "deployedLinkReferences": {}
}