{
  "_format": "hh-sol-artifact-1",
  "contractName": "CoreVaultClientSettingsFacet",
  "sourceName": "contracts/assetManager/facets/CoreVaultClientSettingsFacet.sol",
  "abi": [
    {
      "inputs": [],
      "stateMutability": "nonpayable",
      "type": "constructor"
    },
    {
      "inputs": [],
      "name": "AlreadyInProductionMode",
      "type": "error"
    },
    {
      "inputs": [],
      "name": "AlreadyInitialized",
      "type": "error"
    },
    {
      "inputs": [],
      "name": "BipsValueTooHigh",
      "type": "error"
    },
    {
      "inputs": [],
      "name": "CannotDisable",
      "type": "error"
    },
    {
      "inputs": [],
      "name": "DiamondNotInitialized",
      "type": "error"
    },
    {
      "inputs": [],
      "name": "EmergencyPauseActive",
      "type": "error"
    },
    {
      "inputs": [],
      "name": "GovernedAddressZero",
      "type": "error"
    },
    {
      "inputs": [],
      "name": "GovernedAlreadyInitialized",
      "type": "error"
    },
    {
      "inputs": [],
      "name": "NotAttached",
      "type": "error"
    },
    {
      "inputs": [],
      "name": "NotWhitelisted",
      "type": "error"
    },
    {
      "inputs": [],
      "name": "OnlyAssetManagerController",
      "type": "error"
    },
    {
      "inputs": [],
      "name": "OnlyExecutor",
      "type": "error"
    },
    {
      "inputs": [],
      "name": "OnlyGovernance",
      "type": "error"
    },
    {
      "inputs": [],
      "name": "TimelockInvalidSelector",
      "type": "error"
    },
    {
      "inputs": [],
      "name": "TimelockNotAllowedYet",
      "type": "error"
    },
    {
      "inputs": [],
      "name": "WrongAssetManager",
      "type": "error"
    },
    {
      "anonymous": false,
      "inputs": [
        {
          "indexed": false,
          "internalType": "string",
          "name": "name",
          "type": "string"
        },
        {
          "indexed": false,
          "internalType": "address",
          "name": "value",
          "type": "address"
        }
      ],
      "name": "ContractChanged",
      "type": "event"
    },
    {
      "anonymous": false,
      "inputs": [
        {
          "indexed": false,
          "internalType": "bytes",
          "name": "encodedCall",
          "type": "bytes"
        },
        {
          "indexed": false,
          "internalType": "bytes32",
          "name": "encodedCallHash",
          "type": "bytes32"
        },
        {
          "indexed": false,
          "internalType": "uint256",
          "name": "allowedAfterTimestamp",
          "type": "uint256"
        }
      ],
      "name": "GovernanceCallTimelocked",
      "type": "event"
    },
    {
      "anonymous": false,
      "inputs": [
        {
          "indexed": false,
          "internalType": "address",
          "name": "initialGovernance",
          "type": "address"
        }
      ],
      "name": "GovernanceInitialised",
      "type": "event"
    },
    {
      "anonymous": false,
      "inputs": [
        {
          "indexed": false,
          "internalType": "address",
          "name": "governanceSettings",
          "type": "address"
        }
      ],
      "name": "GovernedProductionModeEntered",
      "type": "event"
    },
    {
      "anonymous": false,
      "inputs": [
        {
          "indexed": false,
          "internalType": "string",
          "name": "name",
          "type": "string"
        },
        {
          "indexed": false,
          "internalType": "uint256",
          "name": "value",
          "type": "uint256"
        }
      ],
      "name": "SettingChanged",
      "type": "event"
    },
    {
      "anonymous": false,
      "inputs": [
        {
          "indexed": false,
          "internalType": "bytes32",
          "name": "encodedCallHash",
          "type": "bytes32"
        }
      ],
      "name": "TimelockedGovernanceCallCanceled",
      "type": "event"
    },
    {
      "anonymous": false,
      "inputs": [
        {
          "indexed": false,
          "internalType": "bytes32",
          "name": "encodedCallHash",
          "type": "bytes32"
        }
      ],
      "name": "TimelockedGovernanceCallExecuted",
      "type": "event"
    },
    {
      "inputs": [
        {
          "internalType": "bytes",
          "name": "_encodedCall",
          "type": "bytes"
        }
      ],
      "name": "cancelGovernanceCall",
      "outputs": [],
      "stateMutability": "nonpayable",
      "type": "function"
    },
    {
      "inputs": [
        {
          "internalType": "bytes",
          "name": "_encodedCall",
          "type": "bytes"
        }
      ],
      "name": "executeGovernanceCall",
      "outputs": [],
      "stateMutability": "nonpayable",
      "type": "function"
    },
    {
      "inputs": [],
      "name": "getCoreVaultManager",
      "outputs": [
        {
          "internalType": "address",
          "name": "",
          "type": "address"
        }
      ],
      "stateMutability": "view",
      "type": "function"
    },
    {
      "inputs": [],
      "name": "getCoreVaultMinimumAmountLeftBIPS",
      "outputs": [
        {
          "internalType": "uint256",
          "name": "",
          "type": "uint256"
        }
      ],
      "stateMutability": "view",
      "type": "function"
    },
    {
      "inputs": [],
      "name": "getCoreVaultMinimumRedeemLots",
      "outputs": [
        {
          "internalType": "uint256",
          "name": "",
          "type": "uint256"
        }
      ],
      "stateMutability": "view",
      "type": "function"
    },
    {
      "inputs": [],
      "name": "getCoreVaultNativeAddress",
      "outputs": [
        {
          "internalType": "address",
          "name": "",
          "type": "address"
        }
      ],
      "stateMutability": "view",
      "type": "function"
    },
    {
      "inputs": [],
      "name": "getCoreVaultRedemptionFeeBIPS",
      "outputs": [
        {
          "internalType": "uint256",
          "name": "",
          "type": "uint256"
        }
      ],
      "stateMutability": "view",
      "type": "function"
    },
    {
      "inputs": [],
      "name": "getCoreVaultTransferTimeExtensionSeconds",
      "outputs": [
        {
          "internalType": "uint256",
          "name": "",
          "type": "uint256"
        }
      ],
      "stateMutability": "view",
      "type": "function"
    },
    {
      "inputs": [],
      "name": "governance",
      "outputs": [
        {
          "internalType": "address",
          "name": "",
          "type": "address"
        }
      ],
      "stateMutability": "view",
      "type": "function"
    },
    {
      "inputs": [],
      "name": "governanceSettings",
      "outputs": [
        {
          "internalType": "contract IGovernanceSettings",
          "name": "",
          "type": "address"
        }
      ],
      "stateMutability": "view",
      "type": "function"
    },
    {
      "inputs": [
        {
          "internalType": "contract IICoreVaultManager",
          "name": "_coreVaultManager",
          "type": "address"
        },
        {
          "internalType": "address payable",
          "name": "_nativeAddress",
          "type": "address"
        },
        {
          "internalType": "uint256",
          "name": "_transferTimeExtensionSeconds",
          "type": "uint256"
        },
        {
          "internalType": "uint256",
          "name": "_redemptionFeeBIPS",
          "type": "uint256"
        },
        {
          "internalType": "uint256",
          "name": "_minimumAmountLeftBIPS",
          "type": "uint256"
        },
        {
          "internalType": "uint256",
          "name": "_minimumRedeemLots",
          "type": "uint256"
        }
      ],
      "name": "initCoreVaultFacet",
      "outputs": [],
      "stateMutability": "nonpayable",
      "type": "function"
    },
    {
      "inputs": [
        {
          "internalType": "address",
          "name": "_address",
          "type": "address"
        }
      ],
      "name": "isExecutor",
      "outputs": [
        {
          "internalType": "bool",
          "name": "",
          "type": "bool"
        }
      ],
      "stateMutability": "view",
      "type": "function"
    },
    {
      "inputs": [],
      "name": "productionMode",
      "outputs": [
        {
          "internalType": "bool",
          "name": "",
          "type": "bool"
        }
      ],
      "stateMutability": "view",
      "type": "function"
    },
    {
      "inputs": [
        {
          "internalType": "address",
          "name": "_coreVaultManager",
          "type": "address"
        }
      ],
      "name": "setCoreVaultManager",
      "outputs": [],
      "stateMutability": "nonpayable",
      "type": "function"
    },
    {
      "inputs": [
        {
          "internalType": "uint256",
          "name": "_minimumAmountLeftBIPS",
          "type": "uint256"
        }
      ],
      "name": "setCoreVaultMinimumAmountLeftBIPS",
      "outputs": [],
      "stateMutability": "nonpayable",
      "type": "function"
    },
    {
      "inputs": [
        {
          "internalType": "uint256",
          "name": "_minimumRedeemLots",
          "type": "uint256"
        }
      ],
      "name": "setCoreVaultMinimumRedeemLots",
      "outputs": [],
      "stateMutability": "nonpayable",
      "type": "function"
    },
    {
      "inputs": [
        {
          "internalType": "address payable",
          "name": "_nativeAddress",
          "type": "address"
        }
      ],
      "name": "setCoreVaultNativeAddress",
      "outputs": [],
      "stateMutability": "nonpayable",
      "type": "function"
    },
    {
      "inputs": [
        {
          "internalType": "uint256",
          "name": "_redemptionFeeBIPS",
          "type": "uint256"
        }
      ],
      "name": "setCoreVaultRedemptionFeeBIPS",
      "outputs": [],
      "stateMutability": "nonpayable",
      "type": "function"
    },
    {
      "inputs": [
        {
          "internalType": "uint256",
          "name": "_transferTimeExtensionSeconds",
          "type": "uint256"
        }
      ],
      "name": "setCoreVaultTransferTimeExtensionSeconds",
      "outputs": [],
      "stateMutability": "nonpayable",
      "type": "function"
    },
    {
      "inputs": [],
      "name": "switchToProductionMode",
      "outputs": [],
      "stateMutability": "nonpayable",
      "type": "function"
    },
    {
      "inputs": [],
      "name": "updateInterfacesAtCoreVaultDeploy",
      "outputs": [],
      "stateMutability": "nonpayable",
      "type": "function"
    }
  ],
  "bytecode": "0x608060405234801561001057600080fd5b5061001d61111180610059565b7f5176d9aff61164d28f93ea46eb1dc40e6c1f84dd050716ad33cf1851e70a4aa3805460ff60401b191668010000000000000000179055610168565b7f2aa47ee5db910f3b2a06970c443249cc77dbd9f96100cfebc1775ab7fb1d18248054600160a01b900460ff16156100a45760405163b2f0162160e01b815260040160405180910390fd5b6001600160a01b0383166100cb576040516334ab92fb60e11b815260040160405180910390fd5b6001600160a01b0382166100f2576040516334ab92fb60e11b815260040160405180910390fd5b80546001600160a01b038481166001600160a81b031990921691909117600160a01b1782556001820180549184166001600160a01b0319909216821790556040519081527f9789733827840833afc031fb2ef9ab6894271f77bad2085687cf4ae5c7bee4db9060200160405180910390a1505050565b61143d806101776000396000f3fe608060405234801561001057600080fd5b50600436106101375760003560e01c8063a67ab2b1116100b8578063e17f212e1161007c578063e17f212e146102db578063e6a118d5146102fa578063ec8939051461030d578063ecad40c91461032d578063f5a9838314610340578063fe1ad6421461034857600080fd5b8063a67ab2b11461024c578063a79936e41461025f578063b2a0d42014610285578063be1e366a14610298578063debfda30146102b857600080fd5b806362354e03116100ff57806362354e03146101d757806391b46248146101f5578063929d71bf146102085780639bd193a314610226578063a2785a711461022e57600080fd5b806303094b211461013c57806316fc2f6d1461017c57806320c5f99d1461019157806343b9552e146101a45780635aa6e675146101b7575b600080fd5b7f5176d9aff61164d28f93ea46eb1dc40e6c1f84dd050716ad33cf1851e70a4aa35467ffffffffffffffff165b6040519081526020015b60405180910390f35b61018f61018a36600461118a565b61035b565b005b61018f61019f36600461118a565b61040f565b61018f6101b23660046111fe565b610581565b6101bf610622565b6040516001600160a01b039091168152602001610173565b6000805160206113a8833981519152546001600160a01b03166101bf565b61018f61020336600461122c565b6106cb565b600080516020611388833981519152546001600160a01b03166101bf565b61018f61086d565b6000805160206113e8833981519152546001600160a01b03166101bf565b61018f61025a3660046111fe565b610959565b6000805160206113e883398151915254600160a01b900467ffffffffffffffff16610169565b61018f6102933660046111fe565b610a14565b60008051602061138883398151915254600160b01b900461ffff16610169565b6102cb6102c6366004611285565b610acf565b6040519015158152602001610173565b6000805160206113a883398151915254600160a81b900460ff166102cb565b61018f610308366004611285565b610b69565b60008051602061138883398151915254600160c01b900461ffff16610169565b61018f61033b3660046111fe565b610cd8565b61018f610d83565b61018f610356366004611285565b610e28565b610363610ecc565b6040516000805160206113a88339815191529060009061038690859085906112a2565b60405180910390209050816002016000828152602001908152602001600020546000036103c65760405163023679b760e21b815260040160405180910390fd5b6040518181527f69b058d6225c01c1f2a25801ca5b05705fa2e9118e93d518390ba804398c87b19060200160405180910390a16000908152600290910160205260408120555050565b6000805160206113a883398151915261042733610acf565b61044457604051633fdb5f0160e11b815260040160405180910390fd5b600083836040516104569291906112a2565b604080519182900390912060008181526002850160205291822054909250908190036104955760405163023679b760e21b815260040160405180910390fd5b804210156104b65760405163309272e160e11b815260040160405180910390fd5b6000828152600284016020526040808220829055845460ff60b01b1916600160b01b1785555130906104eb90889088906112a2565b6000604051808303816000865af19150503d8060008114610528576040519150601f19603f3d011682016040523d82523d6000602084013e61052d565b606091505b5050845460ff60b01b191685556040518481529091507fec1225e5a8a8acb91e03ce648c683c74f5d152a775b9715980999441d714c44f9060200160405180910390a161057981610f07565b505050505050565b610589610ecc565b6000805160206113e88339815191526105a182610f24565b60028201805467ffffffffffffffff191667ffffffffffffffff9290921691909117905560408051818152601a918101919091527f636f72655661756c744d696e696d756d52656465656d4c6f74730000000000006060820152602081018390526000805160206113c8833981519152906080015b60405180910390a15050565b6000805160206113a8833981519152805460009190600160a81b900460ff166106585760018101546001600160a01b03166106c5565b805460408051631cc9492560e21b815290516001600160a01b03909216916373252494916004808201926020929091908290030181865afa1580156106a1573d6000803e3d6000fd5b505050506040513d601f19601f820116820180604052508101906106c591906112b2565b91505090565b6106d361086d565b6127108311156106f65760405163fb1fb2d360e01b815260040160405180910390fd5b6127108211156107195760405163fb1fb2d360e01b815260040160405180910390fd5b7f5176d9aff61164d28f93ea46eb1dc40e6c1f84dd050716ad33cf1851e70a4aa3546000805160206113e883398151915290600160401b900460ff16156107725760405162dc149f60e41b815260040160405180910390fd5b60028101805468ff00000000000000001916600160401b17905580546001600160a01b038089166001600160a01b0319928316178355600183018054918916919092161790556107c185610f24565b815467ffffffffffffffff91909116600160a01b0267ffffffffffffffff60a01b199091161781556107f284610f96565b8160010160166101000a81548161ffff021916908361ffff16021790555061081983610f96565b8160010160186101000a81548161ffff021916908361ffff16021790555061084082610f24565b600291909101805467ffffffffffffffff191667ffffffffffffffff909216919091179055505050505050565b6301ffc9a760e01b6000527fc8fcad8db84d3cc18b4c41d551ea0ee66dd599cde068d998e57d5e09332c131e6020527f673a26ab9c976db950bbe987aa80c5e387f329563bb0afe093ddccc970489e31547fc8fcad8db84d3cc18b4c41d551ea0ee66dd599cde068d998e57d5e09332c131c9060ff1661090057604051638789188d60e01b815260040160405180910390fd5b6310812c4760e11b600090815260029091016020526040808220805460ff19908116600190811790925563c4e6b33560e01b84528284208054821683179055636597e48560e01b84529190922080549091169091179055565b610961610ecc565b6127108111156109845760405163fb1fb2d360e01b815260040160405180910390fd5b6000805160206113e883398151915261099c82610f96565b60018201805461ffff92909216600160c01b0261ffff60c01b1990921691909117905560408051818152601e918101919091527f636f72655661756c744d696e696d756d416d6f756e744c6566744249505300006060820152602081018390526000805160206113c883398151915290608001610616565b610a1c610ecc565b612710811115610a3f5760405163fb1fb2d360e01b815260040160405180910390fd5b6000805160206113e8833981519152610a5782610f96565b60018201805461ffff92909216600160b01b0261ffff60b01b1990921691909117905560408051818152601a918101919091527f636f72655661756c74526564656d7074696f6e466565424950530000000000006060820152602081018390526000805160206113c883398151915290608001610616565b6000805160206113a8833981519152805460009190600160a01b900460ff168015610b6257508054604051630debfda360e41b81526001600160a01b0385811660048301529091169063debfda3090602401602060405180830381865afa158015610b3e573d6000803e3d6000fd5b505050506040513d601f19601f82011682018060405250810190610b6291906112cf565b9392505050565b610b71610ff9565b15610cc857610b7e61102f565b6001600160a01b038116610ba557604051633a61ba3b60e21b815260040160405180910390fd5b6000819050306001600160a01b0316816001600160a01b03166394217ad16040518163ffffffff1660e01b8152600401602060405180830381865afa158015610bf2573d6000803e3d6000fd5b505050506040513d601f19601f82011682018060405250810190610c1691906112b2565b6001600160a01b031614610c3d57604051630f95d8c560e21b815260040160405180910390fd5b6000805160206113e883398151915280546001600160a01b0319166001600160a01b03838116919091178255604080518181526010818301526f31b7b932ab30bab63a26b0b730b3b2b960811b60608201529185166020830152517fcb274d507e7a9978f5a8c15929fd58c472b8addc1a9bba454b0c0a49a05c9152916080908290030190a1505050565b610cd56000366000611073565b50565b610ce0610ecc565b6000805160206113e8833981519152610cf882610f24565b815467ffffffffffffffff91909116600160a01b0267ffffffffffffffff60a01b19909116178155604080518181526025918101919091527f636f72655661756c745472616e7366657254696d65457874656e73696f6e5365606082015264636f6e647360d81b6080820152602081018390526000805160206113c88339815191529060a001610616565b610d8b610ecc565b6000805160206113a88339815191528054600160a81b900460ff1615610dc4576040516339511f6160e11b815260040160405180910390fd5b6001810180546001600160a01b03191690558054600160a81b60ff60a81b1982161782556040516001600160a01b0390911681527f83af113638b5422f9e977cebc0aaf0eaf2188eb9a8baae7f9d46c42b33a1560c9060200160405180910390a150565b610e30610ecc565b60008051602061138883398151915280546001600160a01b0319166001600160a01b0383169081179091556040805181815260169181019190915275636f72655661756c744e61746976654164647265737360501b606082015260208101919091526000805160206113e8833981519152907fcb274d507e7a9978f5a8c15929fd58c472b8addc1a9bba454b0c0a49a05c915290608001610616565b610ed4610622565b6001600160a01b0316336001600160a01b031614610f05576040516354348f0360e01b815260040160405180910390fd5b565b3d604051818101604052816000823e8215610f20578181f35b8181fd5b600067ffffffffffffffff821115610f925760405162461bcd60e51b815260206004820152602660248201527f53616665436173743a2076616c756520646f65736e27742066697420696e203660448201526534206269747360d01b60648201526084015b60405180910390fd5b5090565b600061ffff821115610f925760405162461bcd60e51b815260206004820152602660248201527f53616665436173743a2076616c756520646f65736e27742066697420696e203160448201526536206269747360d01b6064820152608401610f89565b6000805160206113a8833981519152805460009190600160b01b900460ff16806106c5575054600160a81b900460ff1615919050565b6000805160206113a88339815191528054600160b01b900460ff161561106b5733301461105e5761105e6112f1565b805460ff60b01b19169055565b610cd5610ecc565b6000805160206113a883398151915261108a610ecc565b6000848460405161109c9291906112a2565b604080519182900382208454636221a54b60e01b845291519093506000926001600160a01b0390921691636221a54b9160048083019260209291908290030181865afa1580156110f0573d6000803e3d6000fd5b505050506040513d601f19601f820116820180604052508101906111149190611307565b9050838110156111215750825b600061112d8242611320565b600084815260028601602052604090819020829055519091507f8c02104dfc280f713854f25297de671710c544c58de69dbde8fb66974ce1ab9e90611179908990899087908690611347565b60405180910390a150505050505050565b6000806020838503121561119d57600080fd5b823567ffffffffffffffff8111156111b457600080fd5b8301601f810185136111c557600080fd5b803567ffffffffffffffff8111156111dc57600080fd5b8560208284010111156111ee57600080fd5b6020919091019590945092505050565b60006020828403121561121057600080fd5b5035919050565b6001600160a01b0381168114610cd557600080fd5b60008060008060008060c0878903121561124557600080fd5b863561125081611217565b9550602087013561126081611217565b95989597505050506040840135936060810135936080820135935060a0909101359150565b60006020828403121561129757600080fd5b8135610b6281611217565b8183823760009101908152919050565b6000602082840312156112c457600080fd5b8151610b6281611217565b6000602082840312156112e157600080fd5b81518015158114610b6257600080fd5b634e487b7160e01b600052600160045260246000fd5b60006020828403121561131957600080fd5b5051919050565b8082018082111561134157634e487b7160e01b600052601160045260246000fd5b92915050565b606081528360608201528385608083013760006080858301015260006080601f19601f87011683010190508360208301528260408301529594505050505056fe5176d9aff61164d28f93ea46eb1dc40e6c1f84dd050716ad33cf1851e70a4aa22aa47ee5db910f3b2a06970c443249cc77dbd9f96100cfebc1775ab7fb1d1824ac1fb27759c1e6f9e4a24d4f8c320be6091becb03cea5a95398fa220fca4ac0e5176d9aff61164d28f93ea46eb1dc40e6c1f84dd050716ad33cf1851e70a4aa1a26469706673582212204712e1ab1e68f386770a8eb4d9430384b9439d2292117e92a7c21dcd98542a8164736f6c634300081b0033",
  "linkReferences": {},
  "deployedLinkReferences": {}
}