{
  "_format": "hh-sol-artifact-1",
  "contractName": "RedemptionQueueMock",
  "sourceName": "contracts/assetManager/library/mock/RedemptionQueueMock.sol",
  "abi": [
    {
      "inputs": [
        {
          "internalType": "address",
          "name": "_agentVault",
          "type": "address"
        },
        {
          "internalType": "uint64",
          "name": "_valueAMG",
          "type": "uint64"
        }
      ],
      "name": "createRedemptionTicket",
      "outputs": [
        {
          "internalType": "uint64",
          "name": "",
          "type": "uint64"
        }
      ],
      "stateMutability": "nonpayable",
      "type": "function"
    },
    {
      "inputs": [
        {
          "internalType": "uint64",
          "name": "_ticketId",
          "type": "uint64"
        }
      ],
      "name": "deleteRedemptionTicket",
      "outputs": [],
      "stateMutability": "nonpayable",
      "type": "function"
    },
    {
      "inputs": [
        {
          "internalType": "uint64",
          "name": "_id",
          "type": "uint64"
        }
      ],
      "name": "getTicket",
      "outputs": [
        {
          "components": [
            {
              "internalType": "address",
              "name": "agentVault",
              "type": "address"
            },
            {
              "internalType": "uint64",
              "name": "valueAMG",
              "type": "uint64"
            },
            {
              "internalType": "uint64",
              "name": "prev",
              "type": "uint64"
            },
            {
              "internalType": "uint64",
              "name": "next",
              "type": "uint64"
            },
            {
              "internalType": "uint64",
              "name": "prevForAgent",
              "type": "uint64"
            },
            {
              "internalType": "uint64",
              "name": "nextForAgent",
              "type": "uint64"
            }
          ],
          "internalType": "struct RedemptionQueue.Ticket",
          "name": "",
          "type": "tuple"
        }
      ],
      "stateMutability": "view",
      "type": "function"
    }
  ],
  "bytecode": "0x6080604052348015600f57600080fd5b50610ad68061001f6000396000f3fe608060405234801561001057600080fd5b50600436106100415760003560e01c806303c461ce146100465780633e578e721461005b57806352bcacc9146101a9575b600080fd5b6100596100543660046109f5565b6101d4565b005b61011f6100693660046109f5565b6040805160c08101825260008082526020808301829052828401829052606083018290526080830182905260a083018290526001600160401b0385168252819052919091206040805160c08101825282546001600160a01b03811682526001600160401b03600160a01b9091048116602083015260019093015480841692820192909252600160401b820483166060820152600160801b820483166080820152600160c01b90910490911660a082015292915050565b6040516101a09190600060c08201905060018060a01b0383511682526001600160401b0360208401511660208301526001600160401b0360408401511660408301526001600160401b0360608401511660608301526001600160401b0360808401511660808301526001600160401b0360a08401511660a083015292915050565b60405180910390f35b6101bc6101b7366004610a10565b6101e2565b6040516001600160401b0390911681526020016101a0565b6101df6000826101f6565b50565b60006101ef8184846105d0565b9392505050565b6001600160401b038116600090815260208390526040902080546001600160a01b031661022557610225610a51565b80546001600160a01b031660009081526001808501602052604082209083015490916001600160401b0390911690036102ab5760028401546001600160401b0384811691161461027757610277610a51565b6001820154600285018054600160401b9092046001600160401b031667ffffffffffffffff19909216919091179055610313565b60028401546001600160401b03908116908416036102cb576102cb610a51565b6001828101546001600160401b038082166000908152602088905260409020909201805467ffffffffffffffff60401b1916600160401b928390049093169091029190911790555b6001820154600160401b90046001600160401b031660000361038a5760028401546001600160401b03848116600160401b909204161461035557610355610a51565b600182015460028501805467ffffffffffffffff60401b19166001600160401b03909216600160401b029190911790556103f2565b60028401546001600160401b03600160401b9091048116908416036103b1576103b1610a51565b600180830154600160401b81046001600160401b039081166000908152602088905260409020909201805467ffffffffffffffff1916929091169190911790555b6001820154600160801b90046001600160401b03166000036104575780546001600160401b0384811691161461042a5761042a610a51565b60018201548154600160c01b9091046001600160401b031667ffffffffffffffff199091161781556104bd565b80546001600160401b039081169084160361047457610474610a51565b6001828101546001600160401b03600160801b82048116600090815260208890526040902090920180546001600160c01b0316600160c01b928390049093169091029190911790555b6001820154600160c01b90046001600160401b03166000036105305780546001600160401b03848116600160401b90920416146104fc576104fc610a51565b6001820154815467ffffffffffffffff60401b1916600160801b9091046001600160401b0316600160401b021781556105a2565b80546001600160401b03600160401b90910481169084160361055457610554610a51565b6001828101546001600160401b03600160c01b820481166000908152602088905260409020909201805467ffffffffffffffff60801b1916600160801b928390049093169091029190911790555b50506001600160401b031660009081526020919091526040812080546001600160e01b031916815560010155565b6001600160a01b0382166000908152600184016020526040812060028501805483919060109061060f90600160801b90046001600160401b0316610a67565b91906101000a8154816001600160401b0302191690836001600160401b03160217905590506040518060c00160405280866001600160a01b03168152602001856001600160401b031681526020018760020160089054906101000a90046001600160401b03166001600160401b0316815260200160006001600160401b031681526020018360000160089054906101000a90046001600160401b03166001600160401b0316815260200160006001600160401b0316815250866000016000836001600160401b03166001600160401b0316815260200190815260200160002060008201518160000160006101000a8154816001600160a01b0302191690836001600160a01b0316021790555060208201518160000160146101000a8154816001600160401b0302191690836001600160401b0316021790555060408201518160010160006101000a8154816001600160401b0302191690836001600160401b0316021790555060608201518160010160086101000a8154816001600160401b0302191690836001600160401b0316021790555060808201518160010160106101000a8154816001600160401b0302191690836001600160401b0316021790555060a08201518160010160186101000a8154816001600160401b0302191690836001600160401b031602179055509050508560020160009054906101000a90046001600160401b03166001600160401b031660000361086c576002860154600160401b90046001600160401b03161561084957610849610a51565b60028601805467ffffffffffffffff19166001600160401b0383161790556108d4565b6002860154600160401b90046001600160401b031660000361089057610890610a51565b6002860154600160401b908190046001600160401b039081166000908152602089905260409020600101805467ffffffffffffffff60401b19169184169092021790555b6002860180546001600160401b03808416600160401b0267ffffffffffffffff60401b199092169190911790915582541660000361094a578154600160401b90046001600160401b03161561092b5761092b610a51565b815467ffffffffffffffff19166001600160401b0382161782556109ad565b8154600160401b90046001600160401b031660000361096b5761096b610a51565b81546001600160401b03600160401b909104811660009081526020889052604090206001018054918316600160c01b026001600160c01b039092169190911790555b815467ffffffffffffffff60401b1916600160401b6001600160401b0383160217909155949350505050565b80356001600160401b03811681146109f057600080fd5b919050565b600060208284031215610a0757600080fd5b6101ef826109d9565b60008060408385031215610a2357600080fd5b82356001600160a01b0381168114610a3a57600080fd5b9150610a48602084016109d9565b90509250929050565b634e487b7160e01b600052600160045260246000fd5b60006001600160401b0382166001600160401b038103610a9757634e487b7160e01b600052601160045260246000fd5b6001019291505056fea2646970667358221220b2aa1daa7729860ccaa9e175e3b81901c7d597392fe49a8076b9512ad3d56eed64736f6c634300081b0033",
  "linkReferences": {},
  "deployedLinkReferences": {}
}