{
  "_format": "hh-sol-artifact-1",
  "contractName": "CoreVaultManager",
  "sourceName": "contracts/coreVaultManager/implementation/CoreVaultManager.sol",
  "abi": [
    {
      "inputs": [],
      "stateMutability": "nonpayable",
      "type": "constructor"
    },
    {
      "inputs": [],
      "name": "AUAddressZero",
      "type": "error"
    },
    {
      "inputs": [],
      "name": "AlreadyInProductionMode",
      "type": "error"
    },
    {
      "inputs": [],
      "name": "AmountZero",
      "type": "error"
    },
    {
      "inputs": [],
      "name": "ContractPaused",
      "type": "error"
    },
    {
      "inputs": [],
      "name": "DestinationNotAllowed",
      "type": "error"
    },
    {
      "inputs": [],
      "name": "EscrowAlreadyFinished",
      "type": "error"
    },
    {
      "inputs": [],
      "name": "FeeZero",
      "type": "error"
    },
    {
      "inputs": [],
      "name": "GovernedAddressZero",
      "type": "error"
    },
    {
      "inputs": [],
      "name": "GovernedAlreadyInitialized",
      "type": "error"
    },
    {
      "inputs": [],
      "name": "InsufficientFunds",
      "type": "error"
    },
    {
      "inputs": [],
      "name": "InvalidAddress",
      "type": "error"
    },
    {
      "inputs": [],
      "name": "InvalidAmount",
      "type": "error"
    },
    {
      "inputs": [],
      "name": "InvalidChain",
      "type": "error"
    },
    {
      "inputs": [],
      "name": "InvalidEndTime",
      "type": "error"
    },
    {
      "inputs": [],
      "name": "InvalidPreimageHash",
      "type": "error"
    },
    {
      "inputs": [],
      "name": "NotAuthorized",
      "type": "error"
    },
    {
      "inputs": [],
      "name": "NotCoreVault",
      "type": "error"
    },
    {
      "inputs": [],
      "name": "NotFound",
      "type": "error"
    },
    {
      "inputs": [],
      "name": "OnlyAddressUpdater",
      "type": "error"
    },
    {
      "inputs": [],
      "name": "OnlyAssetManager",
      "type": "error"
    },
    {
      "inputs": [],
      "name": "OnlyExecutor",
      "type": "error"
    },
    {
      "inputs": [],
      "name": "OnlyGovernance",
      "type": "error"
    },
    {
      "inputs": [],
      "name": "PaymentFailed",
      "type": "error"
    },
    {
      "inputs": [],
      "name": "PaymentNotProven",
      "type": "error"
    },
    {
      "inputs": [],
      "name": "RequestExists",
      "type": "error"
    },
    {
      "inputs": [],
      "name": "TimelockInvalidSelector",
      "type": "error"
    },
    {
      "inputs": [],
      "name": "TimelockNotAllowedYet",
      "type": "error"
    },
    {
      "anonymous": false,
      "inputs": [
        {
          "indexed": false,
          "internalType": "address",
          "name": "previousAdmin",
          "type": "address"
        },
        {
          "indexed": false,
          "internalType": "address",
          "name": "newAdmin",
          "type": "address"
        }
      ],
      "name": "AdminChanged",
      "type": "event"
    },
    {
      "anonymous": false,
      "inputs": [
        {
          "indexed": false,
          "internalType": "string",
          "name": "destinationAddress",
          "type": "string"
        }
      ],
      "name": "AllowedDestinationAddressAdded",
      "type": "event"
    },
    {
      "anonymous": false,
      "inputs": [
        {
          "indexed": false,
          "internalType": "string",
          "name": "destinationAddress",
          "type": "string"
        }
      ],
      "name": "AllowedDestinationAddressRemoved",
      "type": "event"
    },
    {
      "anonymous": false,
      "inputs": [
        {
          "indexed": true,
          "internalType": "address",
          "name": "beacon",
          "type": "address"
        }
      ],
      "name": "BeaconUpgraded",
      "type": "event"
    },
    {
      "anonymous": false,
      "inputs": [
        {
          "indexed": false,
          "internalType": "string",
          "name": "custodianAddress",
          "type": "string"
        }
      ],
      "name": "CustodianAddressUpdated",
      "type": "event"
    },
    {
      "anonymous": false,
      "inputs": [
        {
          "indexed": true,
          "internalType": "uint256",
          "name": "sequence",
          "type": "uint256"
        },
        {
          "indexed": false,
          "internalType": "string",
          "name": "account",
          "type": "string"
        },
        {
          "indexed": false,
          "internalType": "bytes32",
          "name": "instructionsHash",
          "type": "bytes32"
        }
      ],
      "name": "CustomInstructions",
      "type": "event"
    },
    {
      "anonymous": false,
      "inputs": [
        {
          "indexed": false,
          "internalType": "address",
          "name": "sender",
          "type": "address"
        }
      ],
      "name": "EmergencyPauseSenderAdded",
      "type": "event"
    },
    {
      "anonymous": false,
      "inputs": [
        {
          "indexed": false,
          "internalType": "address",
          "name": "sender",
          "type": "address"
        }
      ],
      "name": "EmergencyPauseSenderRemoved",
      "type": "event"
    },
    {
      "anonymous": false,
      "inputs": [
        {
          "indexed": true,
          "internalType": "bytes32",
          "name": "preimageHash",
          "type": "bytes32"
        },
        {
          "indexed": false,
          "internalType": "uint256",
          "name": "amount",
          "type": "uint256"
        }
      ],
      "name": "EscrowExpired",
      "type": "event"
    },
    {
      "anonymous": false,
      "inputs": [
        {
          "indexed": true,
          "internalType": "bytes32",
          "name": "preimageHash",
          "type": "bytes32"
        },
        {
          "indexed": false,
          "internalType": "uint256",
          "name": "amount",
          "type": "uint256"
        }
      ],
      "name": "EscrowFinished",
      "type": "event"
    },
    {
      "anonymous": false,
      "inputs": [
        {
          "indexed": true,
          "internalType": "uint256",
          "name": "sequence",
          "type": "uint256"
        },
        {
          "indexed": true,
          "internalType": "bytes32",
          "name": "preimageHash",
          "type": "bytes32"
        },
        {
          "indexed": false,
          "internalType": "string",
          "name": "account",
          "type": "string"
        },
        {
          "indexed": false,
          "internalType": "string",
          "name": "destination",
          "type": "string"
        },
        {
          "indexed": false,
          "internalType": "uint256",
          "name": "amount",
          "type": "uint256"
        },
        {
          "indexed": false,
          "internalType": "uint256",
          "name": "fee",
          "type": "uint256"
        },
        {
          "indexed": false,
          "internalType": "uint256",
          "name": "cancelAfterTs",
          "type": "uint256"
        }
      ],
      "name": "EscrowInstructions",
      "type": "event"
    },
    {
      "anonymous": false,
      "inputs": [
        {
          "indexed": false,
          "internalType": "bytes",
          "name": "encodedCall",
          "type": "bytes"
        },
        {
          "indexed": false,
          "internalType": "bytes32",
          "name": "encodedCallHash",
          "type": "bytes32"
        },
        {
          "indexed": false,
          "internalType": "uint256",
          "name": "allowedAfterTimestamp",
          "type": "uint256"
        }
      ],
      "name": "GovernanceCallTimelocked",
      "type": "event"
    },
    {
      "anonymous": false,
      "inputs": [
        {
          "indexed": false,
          "internalType": "address",
          "name": "initialGovernance",
          "type": "address"
        }
      ],
      "name": "GovernanceInitialised",
      "type": "event"
    },
    {
      "anonymous": false,
      "inputs": [
        {
          "indexed": false,
          "internalType": "address",
          "name": "governanceSettings",
          "type": "address"
        }
      ],
      "name": "GovernedProductionModeEntered",
      "type": "event"
    },
    {
      "anonymous": false,
      "inputs": [],
      "name": "NotAllEscrowsProcessed",
      "type": "event"
    },
    {
      "anonymous": false,
      "inputs": [],
      "name": "Paused",
      "type": "event"
    },
    {
      "anonymous": false,
      "inputs": [
        {
          "indexed": true,
          "internalType": "bytes32",
          "name": "transactionId",
          "type": "bytes32"
        },
        {
          "indexed": false,
          "internalType": "bytes32",
          "name": "paymentReference",
          "type": "bytes32"
        },
        {
          "indexed": false,
          "internalType": "uint256",
          "name": "amount",
          "type": "uint256"
        }
      ],
      "name": "PaymentConfirmed",
      "type": "event"
    },
    {
      "anonymous": false,
      "inputs": [
        {
          "indexed": true,
          "internalType": "uint256",
          "name": "sequence",
          "type": "uint256"
        },
        {
          "indexed": false,
          "internalType": "string",
          "name": "account",
          "type": "string"
        },
        {
          "indexed": false,
          "internalType": "string",
          "name": "destination",
          "type": "string"
        },
        {
          "indexed": false,
          "internalType": "uint256",
          "name": "amount",
          "type": "uint256"
        },
        {
          "indexed": false,
          "internalType": "uint256",
          "name": "fee",
          "type": "uint256"
        },
        {
          "indexed": false,
          "internalType": "bytes32",
          "name": "paymentReference",
          "type": "bytes32"
        }
      ],
      "name": "PaymentInstructions",
      "type": "event"
    },
    {
      "anonymous": false,
      "inputs": [
        {
          "indexed": false,
          "internalType": "bytes32",
          "name": "preimageHash",
          "type": "bytes32"
        }
      ],
      "name": "PreimageHashAdded",
      "type": "event"
    },
    {
      "anonymous": false,
      "inputs": [
        {
          "indexed": false,
          "internalType": "uint256",
          "name": "escrowEndTimeSeconds",
          "type": "uint256"
        },
        {
          "indexed": false,
          "internalType": "uint256",
          "name": "escrowAmount",
          "type": "uint256"
        },
        {
          "indexed": false,
          "internalType": "uint256",
          "name": "minimalAmount",
          "type": "uint256"
        },
        {
          "indexed": false,
          "internalType": "uint256",
          "name": "fee",
          "type": "uint256"
        }
      ],
      "name": "SettingsUpdated",
      "type": "event"
    },
    {
      "anonymous": false,
      "inputs": [
        {
          "indexed": false,
          "internalType": "bytes32",
          "name": "encodedCallHash",
          "type": "bytes32"
        }
      ],
      "name": "TimelockedGovernanceCallCanceled",
      "type": "event"
    },
    {
      "anonymous": false,
      "inputs": [
        {
          "indexed": false,
          "internalType": "bytes32",
          "name": "encodedCallHash",
          "type": "bytes32"
        }
      ],
      "name": "TimelockedGovernanceCallExecuted",
      "type": "event"
    },
    {
      "anonymous": false,
      "inputs": [
        {
          "indexed": false,
          "internalType": "string",
          "name": "destinationAddress",
          "type": "string"
        },
        {
          "indexed": false,
          "internalType": "bytes32",
          "name": "paymentReference",
          "type": "bytes32"
        },
        {
          "indexed": false,
          "internalType": "uint256",
          "name": "amount",
          "type": "uint256"
        }
      ],
      "name": "TransferRequestCanceled",
      "type": "event"
    },
    {
      "anonymous": false,
      "inputs": [
        {
          "indexed": false,
          "internalType": "string",
          "name": "destinationAddress",
          "type": "string"
        },
        {
          "indexed": false,
          "internalType": "bytes32",
          "name": "paymentReference",
          "type": "bytes32"
        },
        {
          "indexed": false,
          "internalType": "uint256",
          "name": "amount",
          "type": "uint256"
        },
        {
          "indexed": false,
          "internalType": "bool",
          "name": "cancelable",
          "type": "bool"
        }
      ],
      "name": "TransferRequested",
      "type": "event"
    },
    {
      "anonymous": false,
      "inputs": [
        {
          "indexed": false,
          "internalType": "address",
          "name": "triggeringAccount",
          "type": "address"
        }
      ],
      "name": "TriggeringAccountAdded",
      "type": "event"
    },
    {
      "anonymous": false,
      "inputs": [
        {
          "indexed": false,
          "internalType": "address",
          "name": "triggeringAccount",
          "type": "address"
        }
      ],
      "name": "TriggeringAccountRemoved",
      "type": "event"
    },
    {
      "anonymous": false,
      "inputs": [],
      "name": "Unpaused",
      "type": "event"
    },
    {
      "anonymous": false,
      "inputs": [
        {
          "indexed": false,
          "internalType": "bytes32",
          "name": "preimageHash",
          "type": "bytes32"
        }
      ],
      "name": "UnusedPreimageHashRemoved",
      "type": "event"
    },
    {
      "anonymous": false,
      "inputs": [
        {
          "indexed": true,
          "internalType": "address",
          "name": "implementation",
          "type": "address"
        }
      ],
      "name": "Upgraded",
      "type": "event"
    },
    {
      "inputs": [
        {
          "internalType": "string[]",
          "name": "_allowedDestinationAddresses",
          "type": "string[]"
        }
      ],
      "name": "addAllowedDestinationAddresses",
      "outputs": [],
      "stateMutability": "nonpayable",
      "type": "function"
    },
    {
      "inputs": [
        {
          "internalType": "address[]",
          "name": "_addresses",
          "type": "address[]"
        }
      ],
      "name": "addEmergencyPauseSenders",
      "outputs": [],
      "stateMutability": "nonpayable",
      "type": "function"
    },
    {
      "inputs": [
        {
          "internalType": "bytes32[]",
          "name": "_preimageHashes",
          "type": "bytes32[]"
        }
      ],
      "name": "addPreimageHashes",
      "outputs": [],
      "stateMutability": "nonpayable",
      "type": "function"
    },
    {
      "inputs": [
        {
          "internalType": "address[]",
          "name": "_triggeringAccounts",
          "type": "address[]"
        }
      ],
      "name": "addTriggeringAccounts",
      "outputs": [],
      "stateMutability": "nonpayable",
      "type": "function"
    },
    {
      "inputs": [],
      "name": "assetManager",
      "outputs": [
        {
          "internalType": "address",
          "name": "",
          "type": "address"
        }
      ],
      "stateMutability": "view",
      "type": "function"
    },
    {
      "inputs": [],
      "name": "availableFunds",
      "outputs": [
        {
          "internalType": "uint128",
          "name": "",
          "type": "uint128"
        }
      ],
      "stateMutability": "view",
      "type": "function"
    },
    {
      "inputs": [
        {
          "internalType": "bytes",
          "name": "_encodedCall",
          "type": "bytes"
        }
      ],
      "name": "cancelGovernanceCall",
      "outputs": [],
      "stateMutability": "nonpayable",
      "type": "function"
    },
    {
      "inputs": [
        {
          "internalType": "string",
          "name": "_destinationAddress",
          "type": "string"
        }
      ],
      "name": "cancelTransferRequestFromCoreVault",
      "outputs": [],
      "stateMutability": "nonpayable",
      "type": "function"
    },
    {
      "inputs": [],
      "name": "chainId",
      "outputs": [
        {
          "internalType": "bytes32",
          "name": "",
          "type": "bytes32"
        }
      ],
      "stateMutability": "view",
      "type": "function"
    },
    {
      "inputs": [
        {
          "components": [
            {
              "internalType": "bytes32[]",
              "name": "merkleProof",
              "type": "bytes32[]"
            },
            {
              "components": [
                {
                  "internalType": "bytes32",
                  "name": "attestationType",
                  "type": "bytes32"
                },
                {
                  "internalType": "bytes32",
                  "name": "sourceId",
                  "type": "bytes32"
                },
                {
                  "internalType": "uint64",
                  "name": "votingRound",
                  "type": "uint64"
                },
                {
                  "internalType": "uint64",
                  "name": "lowestUsedTimestamp",
                  "type": "uint64"
                },
                {
                  "components": [
                    {
                      "internalType": "bytes32",
                      "name": "transactionId",
                      "type": "bytes32"
                    },
                    {
                      "internalType": "uint256",
                      "name": "inUtxo",
                      "type": "uint256"
                    },
                    {
                      "internalType": "uint256",
                      "name": "utxo",
                      "type": "uint256"
                    }
                  ],
                  "internalType": "struct IPayment.RequestBody",
                  "name": "requestBody",
                  "type": "tuple"
                },
                {
                  "components": [
                    {
                      "internalType": "uint64",
                      "name": "blockNumber",
                      "type": "uint64"
                    },
                    {
                      "internalType": "uint64",
                      "name": "blockTimestamp",
                      "type": "uint64"
                    },
                    {
                      "internalType": "bytes32",
                      "name": "sourceAddressHash",
                      "type": "bytes32"
                    },
                    {
                      "internalType": "bytes32",
                      "name": "sourceAddressesRoot",
                      "type": "bytes32"
                    },
                    {
                      "internalType": "bytes32",
                      "name": "receivingAddressHash",
                      "type": "bytes32"
                    },
                    {
                      "internalType": "bytes32",
                      "name": "intendedReceivingAddressHash",
                      "type": "bytes32"
                    },
                    {
                      "internalType": "int256",
                      "name": "spentAmount",
                      "type": "int256"
                    },
                    {
                      "internalType": "int256",
                      "name": "intendedSpentAmount",
                      "type": "int256"
                    },
                    {
                      "internalType": "int256",
                      "name": "receivedAmount",
                      "type": "int256"
                    },
                    {
                      "internalType": "int256",
                      "name": "intendedReceivedAmount",
                      "type": "int256"
                    },
                    {
                      "internalType": "bytes32",
                      "name": "standardPaymentReference",
                      "type": "bytes32"
                    },
                    {
                      "internalType": "bool",
                      "name": "oneToOne",
                      "type": "bool"
                    },
                    {
                      "internalType": "uint8",
                      "name": "status",
                      "type": "uint8"
                    }
                  ],
                  "internalType": "struct IPayment.ResponseBody",
                  "name": "responseBody",
                  "type": "tuple"
                }
              ],
              "internalType": "struct IPayment.Response",
              "name": "data",
              "type": "tuple"
            }
          ],
          "internalType": "struct IPayment.Proof",
          "name": "_proof",
          "type": "tuple"
        }
      ],
      "name": "confirmPayment",
      "outputs": [],
      "stateMutability": "nonpayable",
      "type": "function"
    },
    {
      "inputs": [
        {
          "internalType": "bytes32",
          "name": "transactionId",
          "type": "bytes32"
        }
      ],
      "name": "confirmedPayments",
      "outputs": [
        {
          "internalType": "bool",
          "name": "",
          "type": "bool"
        }
      ],
      "stateMutability": "view",
      "type": "function"
    },
    {
      "inputs": [],
      "name": "coreVaultAddress",
      "outputs": [
        {
          "internalType": "string",
          "name": "",
          "type": "string"
        }
      ],
      "stateMutability": "view",
      "type": "function"
    },
    {
      "inputs": [],
      "name": "coreVaultAddressHash",
      "outputs": [
        {
          "internalType": "bytes32",
          "name": "",
          "type": "bytes32"
        }
      ],
      "stateMutability": "view",
      "type": "function"
    },
    {
      "inputs": [],
      "name": "custodianAddress",
      "outputs": [
        {
          "internalType": "string",
          "name": "",
          "type": "string"
        }
      ],
      "stateMutability": "view",
      "type": "function"
    },
    {
      "inputs": [],
      "name": "escrowedFunds",
      "outputs": [
        {
          "internalType": "uint128",
          "name": "",
          "type": "uint128"
        }
      ],
      "stateMutability": "view",
      "type": "function"
    },
    {
      "inputs": [
        {
          "internalType": "bytes",
          "name": "_encodedCall",
          "type": "bytes"
        }
      ],
      "name": "executeGovernanceCall",
      "outputs": [],
      "stateMutability": "nonpayable",
      "type": "function"
    },
    {
      "inputs": [],
      "name": "fdcVerification",
      "outputs": [
        {
          "internalType": "contract IFdcVerification",
          "name": "",
          "type": "address"
        }
      ],
      "stateMutability": "view",
      "type": "function"
    },
    {
      "inputs": [],
      "name": "getAddressUpdater",
      "outputs": [
        {
          "internalType": "address",
          "name": "_addressUpdater",
          "type": "address"
        }
      ],
      "stateMutability": "view",
      "type": "function"
    },
    {
      "inputs": [],
      "name": "getAllowedDestinationAddresses",
      "outputs": [
        {
          "internalType": "string[]",
          "name": "",
          "type": "string[]"
        }
      ],
      "stateMutability": "view",
      "type": "function"
    },
    {
      "inputs": [],
      "name": "getCancelableTransferRequests",
      "outputs": [
        {
          "components": [
            {
              "internalType": "string",
              "name": "destinationAddress",
              "type": "string"
            },
            {
              "internalType": "bytes32",
              "name": "paymentReference",
              "type": "bytes32"
            },
            {
              "internalType": "uint128",
              "name": "amount",
              "type": "uint128"
            }
          ],
          "internalType": "struct ICoreVaultManager.TransferRequest[]",
          "name": "_transferRequests",
          "type": "tuple[]"
        }
      ],
      "stateMutability": "view",
      "type": "function"
    },
    {
      "inputs": [],
      "name": "getEmergencyPauseSenders",
      "outputs": [
        {
          "internalType": "address[]",
          "name": "",
          "type": "address[]"
        }
      ],
      "stateMutability": "view",
      "type": "function"
    },
    {
      "inputs": [
        {
          "internalType": "uint256",
          "name": "_index",
          "type": "uint256"
        }
      ],
      "name": "getEscrowByIndex",
      "outputs": [
        {
          "components": [
            {
              "internalType": "bytes32",
              "name": "preimageHash",
              "type": "bytes32"
            },
            {
              "internalType": "uint128",
              "name": "amount",
              "type": "uint128"
            },
            {
              "internalType": "uint64",
              "name": "expiryTs",
              "type": "uint64"
            },
            {
              "internalType": "bool",
              "name": "finished",
              "type": "bool"
            }
          ],
          "internalType": "struct ICoreVaultManager.Escrow",
          "name": "",
          "type": "tuple"
        }
      ],
      "stateMutability": "view",
      "type": "function"
    },
    {
      "inputs": [
        {
          "internalType": "bytes32",
          "name": "_preimageHash",
          "type": "bytes32"
        }
      ],
      "name": "getEscrowByPreimageHash",
      "outputs": [
        {
          "components": [
            {
              "internalType": "bytes32",
              "name": "preimageHash",
              "type": "bytes32"
            },
            {
              "internalType": "uint128",
              "name": "amount",
              "type": "uint128"
            },
            {
              "internalType": "uint64",
              "name": "expiryTs",
              "type": "uint64"
            },
            {
              "internalType": "bool",
              "name": "finished",
              "type": "bool"
            }
          ],
          "internalType": "struct ICoreVaultManager.Escrow",
          "name": "",
          "type": "tuple"
        }
      ],
      "stateMutability": "view",
      "type": "function"
    },
    {
      "inputs": [],
      "name": "getEscrowsCount",
      "outputs": [
        {
          "internalType": "uint256",
          "name": "",
          "type": "uint256"
        }
      ],
      "stateMutability": "view",
      "type": "function"
    },
    {
      "inputs": [],
      "name": "getNonCancelableTransferRequests",
      "outputs": [
        {
          "components": [
            {
              "internalType": "string",
              "name": "destinationAddress",
              "type": "string"
            },
            {
              "internalType": "bytes32",
              "name": "paymentReference",
              "type": "bytes32"
            },
            {
              "internalType": "uint128",
              "name": "amount",
              "type": "uint128"
            }
          ],
          "internalType": "struct ICoreVaultManager.TransferRequest[]",
          "name": "_transferRequests",
          "type": "tuple[]"
        }
      ],
      "stateMutability": "view",
      "type": "function"
    },
    {
      "inputs": [
        {
          "internalType": "uint256",
          "name": "_index",
          "type": "uint256"
        }
      ],
      "name": "getPreimageHash",
      "outputs": [
        {
          "internalType": "bytes32",
          "name": "",
          "type": "bytes32"
        }
      ],
      "stateMutability": "view",
      "type": "function"
    },
    {
      "inputs": [],
      "name": "getPreimageHashesCount",
      "outputs": [
        {
          "internalType": "uint256",
          "name": "",
          "type": "uint256"
        }
      ],
      "stateMutability": "view",
      "type": "function"
    },
    {
      "inputs": [],
      "name": "getSettings",
      "outputs": [
        {
          "internalType": "uint128",
          "name": "_escrowEndTimeSeconds",
          "type": "uint128"
        },
        {
          "internalType": "uint128",
          "name": "_escrowAmount",
          "type": "uint128"
        },
        {
          "internalType": "uint128",
          "name": "_minimalAmount",
          "type": "uint128"
        },
        {
          "internalType": "uint128",
          "name": "_fee",
          "type": "uint128"
        }
      ],
      "stateMutability": "view",
      "type": "function"
    },
    {
      "inputs": [],
      "name": "getTriggeringAccounts",
      "outputs": [
        {
          "internalType": "address[]",
          "name": "",
          "type": "address[]"
        }
      ],
      "stateMutability": "view",
      "type": "function"
    },
    {
      "inputs": [],
      "name": "getUnprocessedEscrows",
      "outputs": [
        {
          "components": [
            {
              "internalType": "bytes32",
              "name": "preimageHash",
              "type": "bytes32"
            },
            {
              "internalType": "uint128",
              "name": "amount",
              "type": "uint128"
            },
            {
              "internalType": "uint64",
              "name": "expiryTs",
              "type": "uint64"
            },
            {
              "internalType": "bool",
              "name": "finished",
              "type": "bool"
            }
          ],
          "internalType": "struct ICoreVaultManager.Escrow[]",
          "name": "_unprocessedEscrows",
          "type": "tuple[]"
        }
      ],
      "stateMutability": "view",
      "type": "function"
    },
    {
      "inputs": [],
      "name": "getUnusedPreimageHashes",
      "outputs": [
        {
          "internalType": "bytes32[]",
          "name": "",
          "type": "bytes32[]"
        }
      ],
      "stateMutability": "view",
      "type": "function"
    },
    {
      "inputs": [],
      "name": "governance",
      "outputs": [
        {
          "internalType": "address",
          "name": "",
          "type": "address"
        }
      ],
      "stateMutability": "view",
      "type": "function"
    },
    {
      "inputs": [],
      "name": "governanceSettings",
      "outputs": [
        {
          "internalType": "contract IGovernanceSettings",
          "name": "",
          "type": "address"
        }
      ],
      "stateMutability": "view",
      "type": "function"
    },
    {
      "inputs": [
        {
          "internalType": "contract IGovernanceSettings",
          "name": "_governanceSettings",
          "type": "address"
        },
        {
          "internalType": "address",
          "name": "_initialGovernance",
          "type": "address"
        },
        {
          "internalType": "address",
          "name": "_addressUpdater",
          "type": "address"
        },
        {
          "internalType": "address",
          "name": "_assetManager",
          "type": "address"
        },
        {
          "internalType": "bytes32",
          "name": "_chainId",
          "type": "bytes32"
        },
        {
          "internalType": "string",
          "name": "_custodianAddress",
          "type": "string"
        },
        {
          "internalType": "string",
          "name": "_coreVaultAddress",
          "type": "string"
        },
        {
          "internalType": "uint256",
          "name": "_nextSequenceNumber",
          "type": "uint256"
        }
      ],
      "name": "initialize",
      "outputs": [],
      "stateMutability": "nonpayable",
      "type": "function"
    },
    {
      "inputs": [
        {
          "internalType": "string",
          "name": "_address",
          "type": "string"
        }
      ],
      "name": "isDestinationAddressAllowed",
      "outputs": [
        {
          "internalType": "bool",
          "name": "",
          "type": "bool"
        }
      ],
      "stateMutability": "view",
      "type": "function"
    },
    {
      "inputs": [
        {
          "internalType": "address",
          "name": "_address",
          "type": "address"
        }
      ],
      "name": "isExecutor",
      "outputs": [
        {
          "internalType": "bool",
          "name": "",
          "type": "bool"
        }
      ],
      "stateMutability": "view",
      "type": "function"
    },
    {
      "inputs": [],
      "name": "nextSequenceNumber",
      "outputs": [
        {
          "internalType": "uint256",
          "name": "",
          "type": "uint256"
        }
      ],
      "stateMutability": "view",
      "type": "function"
    },
    {
      "inputs": [],
      "name": "nextUnprocessedEscrowIndex",
      "outputs": [
        {
          "internalType": "uint256",
          "name": "",
          "type": "uint256"
        }
      ],
      "stateMutability": "view",
      "type": "function"
    },
    {
      "inputs": [],
      "name": "nextUnusedPreimageHashIndex",
      "outputs": [
        {
          "internalType": "uint256",
          "name": "",
          "type": "uint256"
        }
      ],
      "stateMutability": "view",
      "type": "function"
    },
    {
      "inputs": [],
      "name": "pause",
      "outputs": [],
      "stateMutability": "nonpayable",
      "type": "function"
    },
    {
      "inputs": [],
      "name": "paused",
      "outputs": [
        {
          "internalType": "bool",
          "name": "",
          "type": "bool"
        }
      ],
      "stateMutability": "view",
      "type": "function"
    },
    {
      "inputs": [
        {
          "internalType": "uint256",
          "name": "_maxCount",
          "type": "uint256"
        }
      ],
      "name": "processEscrows",
      "outputs": [
        {
          "internalType": "bool",
          "name": "",
          "type": "bool"
        }
      ],
      "stateMutability": "nonpayable",
      "type": "function"
    },
    {
      "inputs": [],
      "name": "productionMode",
      "outputs": [
        {
          "internalType": "bool",
          "name": "",
          "type": "bool"
        }
      ],
      "stateMutability": "view",
      "type": "function"
    },
    {
      "inputs": [],
      "name": "proxiableUUID",
      "outputs": [
        {
          "internalType": "bytes32",
          "name": "",
          "type": "bytes32"
        }
      ],
      "stateMutability": "view",
      "type": "function"
    },
    {
      "inputs": [
        {
          "internalType": "string[]",
          "name": "_allowedDestinationAddresses",
          "type": "string[]"
        }
      ],
      "name": "removeAllowedDestinationAddresses",
      "outputs": [],
      "stateMutability": "nonpayable",
      "type": "function"
    },
    {
      "inputs": [
        {
          "internalType": "address[]",
          "name": "_addresses",
          "type": "address[]"
        }
      ],
      "name": "removeEmergencyPauseSenders",
      "outputs": [],
      "stateMutability": "nonpayable",
      "type": "function"
    },
    {
      "inputs": [
        {
          "internalType": "address[]",
          "name": "_triggeringAccounts",
          "type": "address[]"
        }
      ],
      "name": "removeTriggeringAccounts",
      "outputs": [],
      "stateMutability": "nonpayable",
      "type": "function"
    },
    {
      "inputs": [
        {
          "internalType": "uint256",
          "name": "_maxCount",
          "type": "uint256"
        }
      ],
      "name": "removeUnusedPreimageHashes",
      "outputs": [],
      "stateMutability": "nonpayable",
      "type": "function"
    },
    {
      "inputs": [
        {
          "internalType": "string",
          "name": "_destinationAddress",
          "type": "string"
        },
        {
          "internalType": "bytes32",
          "name": "_paymentReference",
          "type": "bytes32"
        },
        {
          "internalType": "uint128",
          "name": "_amount",
          "type": "uint128"
        },
        {
          "internalType": "bool",
          "name": "_cancelable",
          "type": "bool"
        }
      ],
      "name": "requestTransferFromCoreVault",
      "outputs": [
        {
          "internalType": "bytes32",
          "name": "",
          "type": "bytes32"
        }
      ],
      "stateMutability": "nonpayable",
      "type": "function"
    },
    {
      "inputs": [
        {
          "internalType": "bytes32[]",
          "name": "_preimageHashes",
          "type": "bytes32[]"
        }
      ],
      "name": "setEscrowsFinished",
      "outputs": [],
      "stateMutability": "nonpayable",
      "type": "function"
    },
    {
      "inputs": [
        {
          "internalType": "bytes4",
          "name": "_interfaceId",
          "type": "bytes4"
        }
      ],
      "name": "supportsInterface",
      "outputs": [
        {
          "internalType": "bool",
          "name": "",
          "type": "bool"
        }
      ],
      "stateMutability": "pure",
      "type": "function"
    },
    {
      "inputs": [],
      "name": "switchToProductionMode",
      "outputs": [],
      "stateMutability": "nonpayable",
      "type": "function"
    },
    {
      "inputs": [],
      "name": "totalRequestAmountWithFee",
      "outputs": [
        {
          "internalType": "uint256",
          "name": "",
          "type": "uint256"
        }
      ],
      "stateMutability": "view",
      "type": "function"
    },
    {
      "inputs": [
        {
          "internalType": "bytes32",
          "name": "_instructionsHash",
          "type": "bytes32"
        }
      ],
      "name": "triggerCustomInstructions",
      "outputs": [],
      "stateMutability": "nonpayable",
      "type": "function"
    },
    {
      "inputs": [],
      "name": "triggerInstructions",
      "outputs": [
        {
          "internalType": "uint256",
          "name": "_numberOfInstructions",
          "type": "uint256"
        }
      ],
      "stateMutability": "nonpayable",
      "type": "function"
    },
    {
      "inputs": [],
      "name": "unpause",
      "outputs": [],
      "stateMutability": "nonpayable",
      "type": "function"
    },
    {
      "inputs": [
        {
          "internalType": "bytes32[]",
          "name": "_contractNameHashes",
          "type": "bytes32[]"
        },
        {
          "internalType": "address[]",
          "name": "_contractAddresses",
          "type": "address[]"
        }
      ],
      "name": "updateContractAddresses",
      "outputs": [],
      "stateMutability": "nonpayable",
      "type": "function"
    },
    {
      "inputs": [
        {
          "internalType": "string",
          "name": "_custodianAddress",
          "type": "string"
        }
      ],
      "name": "updateCustodianAddress",
      "outputs": [],
      "stateMutability": "nonpayable",
      "type": "function"
    },
    {
      "inputs": [
        {
          "internalType": "uint128",
          "name": "_escrowEndTimeSeconds",
          "type": "uint128"
        },
        {
          "internalType": "uint128",
          "name": "_escrowAmount",
          "type": "uint128"
        },
        {
          "internalType": "uint128",
          "name": "_minimalAmount",
          "type": "uint128"
        },
        {
          "internalType": "uint128",
          "name": "_fee",
          "type": "uint128"
        }
      ],
      "name": "updateSettings",
      "outputs": [],
      "stateMutability": "nonpayable",
      "type": "function"
    },
    {
      "inputs": [
        {
          "internalType": "address",
          "name": "newImplementation",
          "type": "address"
        }
      ],
      "name": "upgradeTo",
      "outputs": [],
      "stateMutability": "nonpayable",
      "type": "function"
    },
    {
      "inputs": [
        {
          "internalType": "address",
          "name": "newImplementation",
          "type": "address"
        },
        {
          "internalType": "bytes",
          "name": "data",
          "type": "bytes"
        }
      ],
      "name": "upgradeToAndCall",
      "outputs": [],
      "stateMutability": "payable",
      "type": "function"
    }
  ],
  "bytecode": "0x60a06040523060805234801561001457600080fd5b50600061002361111180610051565b61004b817f714f205b2abd25bef1d06a1af944e38c113fe6160375c4e1d6d5cf28848e771955565b50610160565b7f2aa47ee5db910f3b2a06970c443249cc77dbd9f96100cfebc1775ab7fb1d18248054600160a01b900460ff161561009c5760405163b2f0162160e01b815260040160405180910390fd5b6001600160a01b0383166100c3576040516334ab92fb60e11b815260040160405180910390fd5b6001600160a01b0382166100ea576040516334ab92fb60e11b815260040160405180910390fd5b80546001600160a01b038481166001600160a81b031990921691909117600160a01b1782556001820180549184166001600160a01b0319909216821790556040519081527f9789733827840833afc031fb2ef9ab6894271f77bad2085687cf4ae5c7bee4db9060200160405180910390a1505050565b608051615b73610197600039600081816110d10152818161111a0152818161145f0152818161149f01526116470152615b736000f3fe6080604052600436106103a25760003560e01c80636d3d2ca8116101e7578063a66e4e5f1161010d578063debfda30116100a0578063f0ec77fa1161006f578063f0ec77fa14610aba578063f5a9838314610ae1578063f9fe1f1c14610af6578063faee475314610b1657600080fd5b8063debfda3014610a39578063e17f212e14610a59578063e9a730f914610a85578063ea53fe1314610a9a57600080fd5b8063b9cbea3b116100dc578063b9cbea3b146109ce578063c9febdf5146109e3578063d074bd7e146109f9578063da3422ee14610a1957600080fd5b8063a66e4e5f14610959578063a90353251461096e578063b00c0b761461098e578063b805c638146109ae57600080fd5b806392fa958611610185578063a0a6263011610154578063a0a62630146108e3578063a2c7427514610903578063a609687b14610919578063a625988b1461093957600080fd5b806392fa95861461088357806394217ad11461089857806398ca4f78146108b85780639a8a0592146108cd57600080fd5b80637a1077ea116101c15780637a1077ea146107dc5780638456cb59146107fe57806385b4bb53146108135780638dfb4a901461086357600080fd5b80636d3d2ca81461077c57806371c1f7511461079c57806372f089d6146107bc57600080fd5b806346fcff4c116102cc5780635a0da8551161026a57806362354e031161023957806362354e031461070f57806362974d4d14610724578063664e841d146107465780636b97900d1461075c57600080fd5b80635a0da8551461069d5780635a3a9d6b146106b35780635aa6e675146106e05780635c975abb146106f557600080fd5b80634f1f612e116102a65780634f1f612e146106245780635267a15d1461064657806352d1902d1461066857806356cd13c91461067d57600080fd5b806346fcff4c146105c457806349820f2f146105fc5780634f1ef2861461061157600080fd5b8063284532ec116103445780633ad6d516116103135780633ad6d516146105355780633b42ae101461056d5780633c7cd9c51461058f5780633f4ba83a146105af57600080fd5b8063284532ec146104a55780632b656fef146104c55780633659cfe6146104e557806337ac744e1461050557600080fd5b806316fc2f6d1161038057806316fc2f6d146104205780631c073f081461044057806320c5f99d146104625780632428927a1461048257600080fd5b806301ffc9a7146103a75780630fcc6f8d146103dc578063108cca7a146103fe575b600080fd5b3480156103b357600080fd5b506103c76103c236600461490e565b610b36565b60405190151581526020015b60405180910390f35b3480156103e857600080fd5b506103fc6103f7366004614a0e565b610b88565b005b34801561040a57600080fd5b50610413610cbc565b6040516103d39190614ad5565b34801561042c57600080fd5b506103fc61043b366004614b69565b610ccd565b34801561044c57600080fd5b50610455610d81565b6040516103d39190614bfa565b34801561046e57600080fd5b506103fc61047d366004614b69565b610e5a565b34801561048e57600080fd5b50610497610fcc565b6040519081526020016103d3565b3480156104b157600080fd5b506103fc6104c0366004614c5f565b61102f565b3480156104d157600080fd5b506103c76104e0366004614c78565b611088565b3480156104f157600080fd5b506103fc610500366004614cac565b6110b2565b34801561051157600080fd5b506103c7610520366004614c5f565b60076020526000908152604090205460ff1681565b34801561054157600080fd5b50600654610555906001600160a01b031681565b6040516001600160a01b0390911681526020016103d3565b34801561057957600080fd5b5061058261119c565b6040516103d39190614cc9565b34801561059b57600080fd5b506103fc6105aa366004614d8f565b61132a565b3480156105bb57600080fd5b506103fc611403565b3480156105d057600080fd5b50601a546105e4906001600160801b031681565b6040516001600160801b0390911681526020016103d3565b34801561060857600080fd5b50600a54610497565b6103fc61061f366004614dc4565b611440565b34801561063057600080fd5b50610639611501565b6040516103d39190614e61565b34801561065257600080fd5b50600080516020615ab783398151915254610555565b34801561067457600080fd5b5061049761163a565b34801561068957600080fd5b506103fc610698366004614d8f565b6116ed565b3480156106a957600080fd5b50610497600d5481565b3480156106bf57600080fd5b506106d36106ce366004614c5f565b6117a3565b6040516103d39190614ea4565b3480156106ec57600080fd5b5061055561183d565b34801561070157600080fd5b50601c546103c79060ff1681565b34801561071b57600080fd5b506105556118e6565b34801561073057600080fd5b50610739611907565b6040516103d39190614eb2565b34801561075257600080fd5b5061049760055481565b34801561076857600080fd5b506103fc610777366004614c5f565b6119ba565b34801561078857600080fd5b506103fc610797366004614eea565b611a59565b3480156107a857600080fd5b506103fc6107b7366004614d8f565b611c51565b3480156107c857600080fd5b506103fc6107d7366004614d8f565b611df3565b3480156107e857600080fd5b506107f1611eb6565b6040516103d39190614f25565b34801561080a57600080fd5b506103fc611f44565b34801561081f57600080fd5b50601854601954604080516001600160801b038085168252600160801b948590048116602083015280841692820192909252929091041660608201526080016103d3565b34801561086f57600080fd5b5061049761087e366004614c5f565b611fc6565b34801561088f57600080fd5b50610413611fd3565b3480156108a457600080fd5b50600054610555906001600160a01b031681565b3480156108c457600080fd5b50610582611fdf565b3480156108d957600080fd5b5061049760015481565b3480156108ef57600080fd5b506106d36108fe366004614c5f565b612169565b34801561090f57600080fd5b50610497600c5481565b34801561092557600080fd5b506103fc610934366004614f4f565b6121f7565b34801561094557600080fd5b506103fc610954366004614b69565b6122eb565b34801561096557600080fd5b506107f1612369565b34801561097a57600080fd5b506103fc610989366004614c78565b612376565b34801561099a57600080fd5b506103fc6109a936600461503c565b612629565b3480156109ba57600080fd5b506104976109c936600461510b565b6126ba565b3480156109da57600080fd5b50610497612ad7565b3480156109ef57600080fd5b5061049760035481565b348015610a0557600080fd5b506103c7610a14366004614c5f565b6133bf565b348015610a2557600080fd5b506103fc610a34366004614d8f565b6133ca565b348015610a4557600080fd5b506103c7610a54366004614cac565b6134a3565b348015610a6557600080fd5b50600080516020615b1e83398151915254600160a81b900460ff166103c7565b348015610a9157600080fd5b5061049761353d565b348015610aa657600080fd5b506103fc610ab5366004614d8f565b613549565b348015610ac657600080fd5b50601a546105e490600160801b90046001600160801b031681565b348015610aed57600080fd5b506103fc6137b2565b348015610b0257600080fd5b506103fc610b11366004614d8f565b613857565b348015610b2257600080fd5b506103fc610b31366004614d8f565b61390d565b60006001600160e01b031982166301ffc9a760e01b1480610b6757506001600160e01b0319821663580605bb60e11b145b80610b8257506001600160e01b03198216631106951d60e01b145b92915050565b6001600160a01b038516610baf5760405163e6c4247b60e01b815260040160405180910390fd5b83610bcd5760405163057f3fa760e51b815260040160405180910390fd5b6000835111610bef5760405163e6c4247b60e01b815260040160405180910390fd5b6000825111610c115760405163e6c4247b60e01b815260040160405180910390fd5b610c1b8888613a7e565b610c3186600080516020615ab783398151915255565b600080546001600160a01b0319166001600160a01b03871617905560018490556002610c5d84826151fc565b50815160208301206003556004610c7483826151fc565b5060058190556040517f2b9f127cf369b3d4cb5d54b96a2f4c08fc9224ad91ce66e48e8a0a4073741bc390610caa908590614f25565b60405180910390a15050505050505050565b6060610cc86014613b7b565b905090565b610cd5613b88565b604051600080516020615b1e83398151915290600090610cf890859085906152ba565b6040518091039020905081600201600082815260200190815260200160002054600003610d385760405163023679b760e21b815260040160405180910390fd5b6040518181527f69b058d6225c01c1f2a25801ca5b05705fa2e9118e93d518390ba804398c87b19060200160405180910390a16000908152600290910160205260408120555050565b60606012805480602002602001604051908101604052809291908181526020016000905b82821015610e51578382906000526020600020018054610dc490615174565b80601f0160208091040260200160405190810160405280929190818152602001828054610df090615174565b8015610e3d5780601f10610e1257610100808354040283529160200191610e3d565b820191906000526020600020905b815481529060010190602001808311610e2057829003601f168201915b505050505081526020019060010190610da5565b50505050905090565b600080516020615b1e833981519152610e72336134a3565b610e8f57604051633fdb5f0160e11b815260040160405180910390fd5b60008383604051610ea19291906152ba565b60408051918290039091206000818152600285016020529182205490925090819003610ee05760405163023679b760e21b815260040160405180910390fd5b80421015610f015760405163309272e160e11b815260040160405180910390fd5b6000828152600284016020526040808220829055845460ff60b01b1916600160b01b178555513090610f3690889088906152ba565b6000604051808303816000865af19150503d8060008114610f73576040519150601f19603f3d011682016040523d82523d6000602084013e610f78565b606091505b5050845460ff60b01b191685556040518481529091507fec1225e5a8a8acb91e03ce648c683c74f5d152a775b9715980999441d714c44f9060200160405180910390a1610fc481613bc3565b505050505050565b601954601054600f54600092600160801b90046001600160801b031691610ff2916152e0565b610ffc91906152f3565b601b5461101c906001600160801b0380821691600160801b90041661530a565b6001600160801b0316610cc891906152e0565b611037613b88565b6005805490600061104783615329565b919050557ffb4d48d51c953bd4b11272d69d0a932777144e6118d519b0a7879889d54c3ca960048360405161107d9291906153c5565b60405180910390a250565b60008060138360405161109b91906153e7565b908152602001604051809103902054119050919050565b6110ba613be0565b1561118f576110c7613c16565b6001600160a01b037f00000000000000000000000000000000000000000000000000000000000000001630036111185760405162461bcd60e51b815260040161110f90615403565b60405180910390fd5b7f00000000000000000000000000000000000000000000000000000000000000006001600160a01b031661114a613c5a565b6001600160a01b0316146111705760405162461bcd60e51b815260040161110f9061544f565b6040805160008082526020820190925261118c91839190613c70565b50565b61118c6000366000613ddb565b600f546060906001600160401b038111156111b9576111b961494d565b60405190808252806020026020018201604052801561120457816020015b60408051606080820183528152600060208083018290529282015282526000199092019101816111d75790505b50905060005b600f548110156113265760116000600f838154811061122b5761122b61549b565b9060005260206000200154815260200190815260200160002060405180606001604052908160008201805461125f90615174565b80601f016020809104026020016040519081016040528092919081815260200182805461128b90615174565b80156112d85780601f106112ad576101008083540402835291602001916112d8565b820191906000526020600020905b8154815290600101906020018083116112bb57829003601f168201915b5050509183525050600182015460208201526002909101546001600160801b031660409091015282518390839081106113135761131361549b565b602090810291909101015260010161120a565b5090565b611332613be0565b156113f25761133f613c16565b60005b818110156113ed5761137c83838381811061135f5761135f61549b565b90506020020160208101906113749190614cac565b601490613ef2565b156113e5577f44961db59fc60fd4da640bf1e11a0bcc1e5964fa1412832976c07f75230961068383838181106113b4576113b461549b565b90506020020160208101906113c99190614cac565b6040516001600160a01b03909116815260200160405180910390a15b600101611342565b505050565b6113ff6000366000613ddb565b5050565b61140b613b88565b601c805460ff191690556040517fa45f47fdea8a1efdd9029a5691c7f759c32b7c698632b563573e155625d1693390600090a1565b611448613be0565b156113f257611455613c16565b6001600160a01b037f000000000000000000000000000000000000000000000000000000000000000016300361149d5760405162461bcd60e51b815260040161110f90615403565b7f00000000000000000000000000000000000000000000000000000000000000006001600160a01b03166114cf613c5a565b6001600160a01b0316146114f55760405162461bcd60e51b815260040161110f9061544f565b6113ff82826001613c70565b600d54600a5460609160009161151791906154b1565b9050806001600160401b038111156115315761153161494d565b60405190808252806020026020018201604052801561158357816020015b60408051608081018252600080825260208083018290529282018190526060820152825260001990920191018161154f5790505b50915060005b8181101561163557600a81600d546115a191906152e0565b815481106115b1576115b161549b565b60009182526020918290206040805160808101825260029390930290910180548352600101546001600160801b03811693830193909352600160801b83046001600160401b031690820152600160c01b90910460ff161515606082015283518490839081106116225761162261549b565b6020908102919091010152600101611589565b505090565b6000306001600160a01b037f000000000000000000000000000000000000000000000000000000000000000016146116da5760405162461bcd60e51b815260206004820152603860248201527f555550535570677261646561626c653a206d757374206e6f742062652063616c60448201527f6c6564207468726f7567682064656c656761746563616c6c0000000000000000606482015260840161110f565b50600080516020615ad783398151915290565b6116f5613b88565b60005b818110156113ed576117328383838181106117155761171561549b565b905060200201602081019061172a9190614cac565b601690613f07565b1561179b577f9f8aeb791b3aaf5907baec464ea88b1af7e280cf71d3c18caff2acbc82a2c22d83838381811061176a5761176a61549b565b905060200201602081019061177f9190614cac565b6040516001600160a01b03909116815260200160405180910390a15b6001016116f8565b604080516080810182526000808252602082018190529181018290526060810191909152600a82815481106117da576117da61549b565b60009182526020918290206040805160808101825260029390930290910180548352600101546001600160801b03811693830193909352600160801b83046001600160401b031690820152600160c01b90910460ff161515606082015292915050565b600080516020615b1e833981519152805460009190600160a81b900460ff166118735760018101546001600160a01b03166118e0565b805460408051631cc9492560e21b815290516001600160a01b03909216916373252494916004808201926020929091908290030181865afa1580156118bc573d6000803e3d6000fd5b505050506040513d601f19601f820116820180604052508101906118e091906154c4565b91505090565b6000600080516020615b1e8339815191525b546001600160a01b0316919050565b60606000600c546119186008613f1c565b61192291906154b1565b90506000816001600160401b0381111561193e5761193e61494d565b604051908082528060200260200182016040528015611967578160200160208202803683370190505b50905060005b828110156119b35761198e81600c5461198691906152e0565b600890613f26565b8282815181106119a0576119a061549b565b602090810291909101015260010161196d565b5092915050565b6119c2613b88565b60006119ce6008613f1c565b90505b6000821180156119e25750600c5481115b156113ff5760006119ff6119f5836154e1565b9250600883613f26565b9050611a0c600882613f32565b5082611a17816154e1565b9350507faa5b497c9e1240353b4326a318841732a45855bab13094f75b10326919ce976f81604051611a4b91815260200190565b60405180910390a1506119d1565b611a6b6102a082016102808301615509565b60ff1615611a8c576040516307a4ced160e51b815260040160405180910390fd5b600154604082013514611ab25760405163057f3fa760e51b815260040160405180910390fd5b60065460405163a7a3797560e01b81526001600160a01b039091169063a7a3797590611ae290849060040161566c565b602060405180830381865afa158015611aff573d6000803e3d6000fd5b505050506040513d601f19601f82011682018060405250810190611b239190615701565b611b3f5760405162e1903760e11b815260040160405180910390fd5b60035461018082013514611b6657604051634443b5cf60e01b815260040160405180910390fd5b600061020082013513611b8c5760405163162908e360e11b815260040160405180910390fd5b60a081013560009081526007602052604090205460ff1661118c5760a08101356000908152600760205260408120805460ff19166001179055601a805461020084013592839291611be79084906001600160801b031661530a565b82546101009290920a6001600160801b03818102199093169183160217909155604080516102408601358152918416602083015260a085013592507f785b06c3bf892c33bc4741c1a560c56d8491c4074acfe42a5be62cd177dec4cc910160405180910390a25050565b611c59613be0565b156113f257611c66613c16565b60005b818110156113ed576000838383818110611c8557611c8561549b565b9050602002810190611c97919061571e565b905011611cb75760405163e6c4247b60e01b815260040160405180910390fd5b6013838383818110611ccb57611ccb61549b565b9050602002810190611cdd919061571e565b604051611ceb9291906152ba565b908152602001604051809103902054600003611deb576012838383818110611d1557611d1561549b565b9050602002810190611d27919061571e565b82546001810184556000938452602090932090920191611d479183615764565b506012546013848484818110611d5f57611d5f61549b565b9050602002810190611d71919061571e565b604051611d7f9291906152ba565b908152604051908190036020019020557fe576cf96388d010e4c6449ee2ea0d00b4a27a1707aae679f56c50c73b5af6176838383818110611dc257611dc261549b565b9050602002810190611dd4919061571e565b604051611de292919061584c565b60405180910390a15b600101611c69565b611dfb613be0565b156113f257611e08613c16565b60005b818110156113ed57611e45838383818110611e2857611e2861549b565b9050602002016020810190611e3d9190614cac565b601490613f07565b15611eae577f60c19f851be58fab2699cb088c41dfef0034de21546285137aa50b36edf4cdc3838383818110611e7d57611e7d61549b565b9050602002016020810190611e929190614cac565b6040516001600160a01b03909116815260200160405180910390a15b600101611e0b565b60048054611ec390615174565b80601f0160208091040260200160405190810160405280929190818152602001828054611eef90615174565b8015611f3c5780601f10611f1157610100808354040283529160200191611f3c565b820191906000526020600020905b815481529060010190602001808311611f1f57829003601f168201915b505050505081565b611f4c61183d565b6001600160a01b0316336001600160a01b03161480611f715750611f71601633613f3e565b611f8e5760405163ea8e4eb560e01b815260040160405180910390fd5b601c805460ff191660011790556040517f9e87fac88ff661f02d44f95383c817fece4bce600a3dab7a54406878b965e75290600090a1565b6000610b82600883613f26565b6060610cc86016613b7b565b6010546060906001600160401b03811115611ffc57611ffc61494d565b60405190808252806020026020018201604052801561204757816020015b604080516060808201835281526000602080830182905292820152825260001990920191018161201a5790505b50905060005b60105481101561132657601160006010838154811061206e5761206e61549b565b906000526020600020015481526020019081526020016000206040518060600160405290816000820180546120a290615174565b80601f01602080910402602001604051908101604052809291908181526020018280546120ce90615174565b801561211b5780601f106120f05761010080835404028352916020019161211b565b820191906000526020600020905b8154815290600101906020018083116120fe57829003601f168201915b5050509183525050600182015460208201526002909101546001600160801b031660409091015282518390839081106121565761215661549b565b602090810291909101015260010161204d565b6040805160808101825260008082526020820181905291810182905260608101919091526000828152600b60205260409020546121a581613f60565b60408051608081018252825481526001909201546001600160801b0381166020840152600160801b81046001600160401b031691830191909152600160c01b900460ff16151560608201529392505050565b6121ff613be0565b156122d85761220c613c16565b62015180846001600160801b031610612238576040516338af65f760e01b815260040160405180910390fd5b6000816001600160801b031611612262576040516396b28c3760e01b815260040160405180910390fd5b6001600160801b03838116600160801b818102878416908117601855848416918202938616938417601955604080519182526020820193909352808301939093526060830152517fc8dd8a2052a4ea200785e999e2eaeef85c19be170d8cdc0ec51e94589eb4a61b9181900360800190a16122e5565b6122e56000366000613ddb565b50505050565b6122f3613be0565b156113f257612300613c16565b8061231e5760405163e6c4247b60e01b815260040160405180910390fd5b600261232b828483615764565b507f2b9f127cf369b3d4cb5d54b96a2f4c08fc9224ad91ce66e48e8a0a4073741bc3828260405161235d92919061584c565b60405180910390a15050565b60028054611ec390615174565b61237e613fb5565b8051602082012060005b600f5481101561247957600060116000600f84815481106123ab576123ab61549b565b9060005260206000200154815260200190815260200160002060000180546123d290615174565b80601f01602080910402602001604051908101604052809291908181526020018280546123fe90615174565b801561244b5780601f106124205761010080835404028352916020019161244b565b820191906000526020600020905b81548152906001019060200180831161242e57829003601f168201915b50505050509050828180519060200120036124665750612479565b8161247081615329565b92505050612388565b600f54811061249b5760405163c5723b5160e01b815260040160405180910390fd5b6000600f82815481106124b0576124b061549b565b60009182526020808320909101548083526011909152604082206002810154601b805493955091936001600160801b03918216938493926124f391859116615860565b92506101000a8154816001600160801b0302191690836001600160801b031602179055507f8adfda440ffa4621b003393f85ef276a29bf63946200f10ff5d90e83064f5dd98683600101548360405161254e9392919061587f565b60405180910390a15b600f54612566906001906154b1565b8410156125c657600f61257a8560016152e0565b8154811061258a5761258a61549b565b9060005260206000200154600f85815481106125a8576125a861549b565b600091825260209091200155836125be81615329565b945050612557565b600f8054806125d7576125d76158b1565b60008281526020808220830160001990810183905590920190925584825260119052604081209061260882826148c4565b506000600182015560020180546001600160801b0319169055505050505050565b600080516020615ab7833981519152546001600160a01b0316336001600160a01b03161461266a57604051633d8aad3760e11b815260040160405180910390fd5b6126b061269e83836040518060400160405280600e81526020016d20b2323932b9b9aab83230ba32b960911b815250613fe0565b600080516020615ab783398151915255565b6113ff8282614093565b60006126c4613fb5565b6126cc6140e9565b6000836001600160801b0316116126f6576040516365e52d5160e11b815260040160405180910390fd5b60138560405161270691906153e7565b908152602001604051809103902054600003612735576040516331482e8d60e21b815260040160405180910390fd5b84516020860120600083156128485760005b600f548110156127c657600060116000600f848154811061276a5761276a61549b565b906000526020600020015481526020019081526020016000209050838160000160405161279791906158c7565b6040518091039020036127bd5760405163756f5c2d60e11b815260040160405180910390fd5b50600101612747565b50601b80548691906000906127e59084906001600160801b031661530a565b82546001600160801b039182166101009390930a92830291909202199091161790555050600e54600f8054600181810183556000929092527f8d1108e10bcb7c27dddfc02ed9d693a074039d026cf4ea4240b40f7d581ac802019190915561299f565b60005b60105481101561290c576000601160006010848154811061286e5761286e61549b565b906000526020600020015481526020019081526020016000209050838160000160405161289b91906158c7565b6040518091039020036128f9576002810180548891906000906128c89084906001600160801b031661530a565b92506101000a8154816001600160801b0302191690836001600160801b03160217905550806001015497505061290c565b8161290381615329565b9250505061284b565b85601b60108282829054906101000a90046001600160801b0316612930919061530a565b92506101000a8154816001600160801b0302191690836001600160801b03160217905550601080549050810361299d57600e5460108054600181810183556000929092527f1b6847dc741a1b0cd08d278845f9d819d87b734759afb55fe2de5cb82a9ae672019190915591505b505b60006129a9610fcc565b601a549091506129cb906001600160801b03600160801b82048116911661530a565b6001600160801b03168111156129f45760405163356680b760e01b815260040160405180910390fd5b8115612a8b576040518060600160405280898152602001888152602001876001600160801b031681525060116000600e6000815480929190612a3590615329565b909155508152602081019190915260400160002081518190612a5790826151fc565b5060208201516001820155604090910151600290910180546001600160801b0319166001600160801b039092169190911790555b7fd5ee6afd74a02db8e2aff0882bd64612f6f65fb4e73ed854231a8a088e11d05488888888604051612ac0949392919061593c565b60405180910390a18693505050505b949350505050565b6000612ae16140e9565b612aec601433613f3e565b612b095760405163ea8e4eb560e01b815260040160405180910390fd5b612b1460001961410d565b50601a546005546019546001600160801b0392831692600160801b9091041680612b51576040516396b28c3760e01b815260040160405180910390fd5b600f54601b54600091906001600160801b03165b81831015612e12576000600f8481548110612b8257612b8261549b565b60009182526020808320909101548083526011909152604090912060020154909150612bb89086906001600160801b031661530a565b6001600160801b0316876001600160801b031610612dfe57600081815260116020526040808220815160608101909252805482908290612bf790615174565b80601f0160208091040260200160405190810160405280929190818152602001828054612c2390615174565b8015612c705780601f10612c4557610100808354040283529160200191612c70565b820191906000526020600020905b815481529060010190602001808311612c5357829003601f168201915b5050509183525050600182015460208201526002909101546001600160801b0316604091820152810151909150612ca890879061530a565b612cb29089615860565b9750806040015183612cc49190615860565b925086612cd081615329565b97507ff31ace0071134e7898630b99161ff33bd098afdd18429925c1b8fe3703f0d4326004836000015184604001518a8660200151604051612d16959493929190615976565b60405180910390a288612d2881615329565b99508590505b612d396001866154b1565b811015612d8f57600f612d4d8260016152e0565b81548110612d5d57612d5d61549b565b9060005260206000200154600f8281548110612d7b57612d7b61549b565b600091825260209091200155600101612d2e565b50600f805480612da157612da16158b1565b600082815260208082208301600019908101839055909201909255838252601190526040812090612dd282826148c4565b506000600182015560020180546001600160801b031916905583612df5816154e1565b94505050612e0c565b83612e0881615329565b9450505b50612b65565b601b80546001600160801b0319166001600160801b039283161790819055601054600094509250600160801b9004165b818310156130ef57600060108481548110612e5f57612e5f61549b565b60009182526020808320909101548083526011909152604090912060020154909150612e959086906001600160801b031661530a565b6001600160801b0316876001600160801b0316106130db57600081815260116020526040808220815160608101909252805482908290612ed490615174565b80601f0160208091040260200160405190810160405280929190818152602001828054612f0090615174565b8015612f4d5780601f10612f2257610100808354040283529160200191612f4d565b820191906000526020600020905b815481529060010190602001808311612f3057829003601f168201915b5050509183525050600182015460208201526002909101546001600160801b0316604091820152810151909150612f8590879061530a565b612f8f9089615860565b9750806040015183612fa19190615860565b925086612fad81615329565b97507ff31ace0071134e7898630b99161ff33bd098afdd18429925c1b8fe3703f0d4326004836000015184604001518a8660200151604051612ff3959493929190615976565b60405180910390a28861300581615329565b99508590505b6130166001866154b1565b81101561306c57601061302a8260016152e0565b8154811061303a5761303a61549b565b9060005260206000200154601082815481106130585761305861549b565b60009182526020909120015560010161300b565b50601080548061307e5761307e6158b1565b6000828152602080822083016000199081018390559092019092558382526011905260408120906130af82826148c4565b506000600182015560020180546001600160801b0319169055836130d2816154e1565b945050506130e9565b836130e581615329565b9450505b50612e42565b601b80546001600160801b03808416600160801b9081029282169290921790925560185404168015806131225750600083115b8061312e5750600f5415155b1561315f575050601a80546001600160801b0319166001600160801b03969096169590951790945550506005555090565b600c54601954600090879061317e9085906001600160801b031661530a565b613188919061530a565b6001600160801b0316905061319d6008613f1c565b601a549095506001600160801b03600160801b90910481169450891681118015906131c757508482105b156133995760006131d6614383565b90505b818a6001600160801b0316101580156131f157508583105b1561339257613200888561530a565b61320a908b615860565b9950613216848661530a565b945060006132318461322781615329565b9550600890613f26565b604080516080810182528281526001600160801b0388811660208084019182526001600160401b03888116858701908152600060608701818152600a805460018101825581845289517fc65a7bb8d6351c1cf70c95a316cc6a92839c986682d98bc35f958f4883f9d2a860029092029182015596517fc65a7bb8d6351c1cf70c95a316cc6a92839c986682d98bc35f958f4883f9d2a9909701805494519251979098166001600160c01b031990941693909317600160801b91909416029290921760ff60c01b1916600160c01b94151594909402939093179093559054858352600b90915292902091909155909150818b61332b81615329565b9c507fd16de4df221c5b7206a150305a43a095e5c589acad2201246f144c2ec39eb3be600460028a8f896040516133669594939291906159c0565b60405180910390a38c61337881615329565b9d5061338990506201518084615a1f565b925050506131d9565b50600c8290555b5050506005949094555050506001600160801b03908116600160801b02911617601a5590565b6000610b828261410d565b6133d2613b88565b60005b818110156113ed5760008383838181106133f1576133f161549b565b905060200201351415801561342d575061342d8383838181106134165761341661549b565b9050602002013560086144a390919063ffffffff16565b61344a5760405163613e7a8f60e01b815260040160405180910390fd5b7fcc2040da958ce1e137b3d9e576249e5d4590200e120858f07eeba715773fa4a083838381811061347d5761347d61549b565b9050602002013560405161349391815260200190565b60405180910390a16001016133d5565b600080516020615b1e833981519152805460009190600160a01b900460ff16801561353657508054604051630debfda360e41b81526001600160a01b0385811660048301529091169063debfda3090602401602060405180830381865afa158015613512573d6000803e3d6000fd5b505050506040513d601f19601f820116820180604052508101906135369190615701565b9392505050565b6000610cc86008613f1c565b613551613be0565b156113f25761355e613c16565b60005b818110156113ed576000601384848481811061357f5761357f61549b565b9050602002810190613591919061571e565b60405161359f9291906152ba565b9081526020016040518091039020549050806000036135be57506137aa565b601254808210156136d757600060126135d86001846154b1565b815481106135e8576135e861549b565b9060005260206000200180546135fd90615174565b80601f016020809104026020016040519081016040528092919081815260200182805461362990615174565b80156136765780601f1061364b57610100808354040283529160200191613676565b820191906000526020600020905b81548152906001019060200180831161365957829003601f168201915b5050505050905080601260018561368d91906154b1565b8154811061369d5761369d61549b565b9060005260206000200190816136b391906151fc565b50826013826040516136c591906153e7565b90815260405190819003602001902055505b60128054806136e8576136e86158b1565b60019003818190600052602060002001600061370491906148c4565b9055601385858581811061371a5761371a61549b565b905060200281019061372c919061571e565b60405161373a9291906152ba565b9081526020016040518091039020600090557fa35d07f0278ab7afea1dbe8905da671d026d7fad4e245129e56303b1b279355585858581811061377f5761377f61549b565b9050602002810190613791919061571e565b60405161379f92919061584c565b60405180910390a150505b600101613561565b6137ba613b88565b600080516020615b1e8339815191528054600160a81b900460ff16156137f3576040516339511f6160e11b815260040160405180910390fd5b6001810180546001600160a01b03191690558054600160a81b60ff60a81b1982161782556040516001600160a01b0390911681527f83af113638b5422f9e977cebc0aaf0eaf2188eb9a8baae7f9d46c42b33a1560c9060200160405180910390a150565b61385f613b88565b60005b818110156113ed5761389c83838381811061387f5761387f61549b565b90506020020160208101906138949190614cac565b601690613ef2565b15613905577f319dd39ab6caa236891dbd7721e886a50cf2a124d1ee99cd21ba5d51b6c56bf68383838181106138d4576138d461549b565b90506020020160208101906138e99190614cac565b6040516001600160a01b03909116815260200160405180910390a15b600101613862565b613915613b88565b601a546001600160801b0380821691600160801b90041660005b83811015613a62576000600b600087878581811061394f5761394f61549b565b905060200201358152602001908152602001600020549050600061397282613f60565b6001810154909150600160c01b900460ff16156139a2576040516314e88cf160e01b815260040160405180910390fd5b60018101805460ff60c01b1916600160c01b179055600d5482116139df5760018101546139d8906001600160801b031686615860565b94506139fa565b60018101546139f7906001600160801b031685615860565b93505b868684818110613a0c57613a0c61549b565b60018401546040516001600160801b03909116815260209182029390930135927f0451a3f480962e8772a6b24baac2d7869b328d0297ac8a8bef0723624e36424b92500160405180910390a2505060010161392f565b506001600160801b03908116600160801b02911617601a555050565b600080516020615b1e8339815191528054600160a01b900460ff1615613ab75760405163b2f0162160e01b815260040160405180910390fd5b6001600160a01b038316613ade576040516334ab92fb60e11b815260040160405180910390fd5b6001600160a01b038216613b05576040516334ab92fb60e11b815260040160405180910390fd5b80546001600160a01b038481166001600160a81b031990921691909117600160a01b1782556001820180549184166001600160a01b0319909216821790556040519081527f9789733827840833afc031fb2ef9ab6894271f77bad2085687cf4ae5c7bee4db9060200160405180910390a1505050565b60606000613536836144af565b613b9061183d565b6001600160a01b0316336001600160a01b031614613bc1576040516354348f0360e01b815260040160405180910390fd5b565b3d604051818101604052816000823e8215613bdc578181f35b8181fd5b600080516020615b1e833981519152805460009190600160b01b900460ff16806118e0575054600160a81b900460ff1615919050565b600080516020615b1e8339815191528054600160b01b900460ff1615613c5257333014613c4557613c45615a3e565b805460ff60b01b19169055565b61118c613b88565b6000600080516020615ad78339815191526118f8565b7f4910fdfa16fed3260ed0e7147f7cc6da11a60208b5b9406d12a635614ffd91435460ff1615613ca3576113ed8361450b565b826001600160a01b03166352d1902d6040518163ffffffff1660e01b8152600401602060405180830381865afa925050508015613cfd575060408051601f3d908101601f19168201909252613cfa91810190615a54565b60015b613d605760405162461bcd60e51b815260206004820152602e60248201527f45524331393637557067726164653a206e657720696d706c656d656e7461746960448201526d6f6e206973206e6f74205555505360901b606482015260840161110f565b600080516020615ad78339815191528114613dcf5760405162461bcd60e51b815260206004820152602960248201527f45524331393637557067726164653a20756e737570706f727465642070726f786044820152681a58589b195555525160ba1b606482015260840161110f565b506113ed8383836145a7565b600080516020615b1e833981519152613df2613b88565b60008484604051613e049291906152ba565b604080519182900382208454636221a54b60e01b845291519093506000926001600160a01b0390921691636221a54b9160048083019260209291908290030181865afa158015613e58573d6000803e3d6000fd5b505050506040513d601f19601f82011682018060405250810190613e7c9190615a54565b905083811015613e895750825b6000613e9582426152e0565b600084815260028601602052604090819020829055519091507f8c02104dfc280f713854f25297de671710c544c58de69dbde8fb66974ce1ab9e90613ee1908990899087908690615a6d565b60405180910390a150505050505050565b6000613536836001600160a01b0384166145cc565b6000613536836001600160a01b03841661461b565b6000610b82825490565b6000613536838361470e565b6000613536838361461b565b6001600160a01b03811660009081526001830160205260408120541515613536565b600081600003613f835760405163c5723b5160e01b815260040160405180910390fd5b600a613f906001846154b1565b81548110613fa057613fa061549b565b90600052602060002090600202019050919050565b6000546001600160a01b03163314613bc157604051636d5ab9d360e01b815260040160405180910390fd5b60008082604051602001613ff49190614f25565b6040516020818303038152906040528051906020012090506000805b86518110156140625786818151811061402b5761402b61549b565b6020026020010151830361405a5785818151811061404b5761404b61549b565b60200260200101519150614062565b600101614010565b506001600160a01b03811661408a5760405163e6ee175560e01b815260040160405180910390fd5b95945050505050565b6140c582826040518060400160405280600f81526020016e233231ab32b934b334b1b0ba34b7b760891b815250613fe0565b600680546001600160a01b0319166001600160a01b03929092169190911790555050565b601c5460ff1615613bc15760405163ab35696f60e01b815260040160405180910390fd5b601a54600d546000916001600160801b0380821692600160801b90920416905b60008511801561413e5750600a5481105b80156141b8575042600a82815481106141595761415961549b565b6000918252602090912060029091020160010154600160801b90046001600160401b03161115806141b85750600a81815481106141985761419861549b565b906000526020600020906002020160010160189054906101000a900460ff165b156142a457600a81815481106141d0576141d061549b565b906000526020600020906002020160010160189054906101000a900460ff16614284576000600a82815481106142085761420861549b565b6000918252602090912060029091020160018101549091506001600160801b0316614233818661530a565b945061423f8185615860565b82546040516001600160801b0384168152919550907f903379a8a45df6400e7001a9e6aa4b308dfaa02464e173e5549a0f765fe412449060200160405180910390a250505b8061428e81615329565b915050848061429c906154e1565b95505061412d565b600d8190556001600160801b03828116600160801b0290841617601a55841515806142d05750600a5481145b8061434a575042600a82815481106142ea576142ea61549b565b6000918252602090912060029091020160010154600160801b90046001600160401b031611801561434a5750600a81815481106143295761432961549b565b906000526020600020906002020160010160189054906101000a900460ff16155b93508361437b576040517f0306fa81e0cf1311aeee18d2d319bb52e97692b3b5ff4144eba92e5f6d59b40990600090a15b505050919050565b600a5460009081905b600d5481111561443057600a6143a36001836154b1565b815481106143b3576143b361549b565b906000526020600020906002020160010160189054906101000a900460ff1661441e57600a6143e36001836154b1565b815481106143f3576143f361549b565b6000918252602090912060029091020160010154600160801b90046001600160401b03169150614430565b80614428816154e1565b91505061438c565b5061443b8142614738565b905061444a62015180826152e0565b6018549091506001600160801b03166144666201518083615a94565b61447090836154b1565b61447a91906152e0565b90506144884261a8c06152e0565b811161449e5761449b62015180826152e0565b90505b919050565b600061353683836145cc565b6060816000018054806020026020016040519081016040528092919081815260200182805480156144ff57602002820191906000526020600020905b8154815260200190600101908083116144eb575b50505050509050919050565b6001600160a01b0381163b6145785760405162461bcd60e51b815260206004820152602d60248201527f455243313936373a206e657720696d706c656d656e746174696f6e206973206e60448201526c1bdd08184818dbdb9d1c9858dd609a1b606482015260840161110f565b600080516020615ad783398151915280546001600160a01b0319166001600160a01b0392909216919091179055565b6145b08361474e565b6000825111806145bd5750805b156113ed576122e5838361478e565b600081815260018301602052604081205461461357508154600181810184556000848152602080822090930184905584548482528286019093526040902091909155610b82565b506000610b82565b6000818152600183016020526040812054801561470457600061463f6001836154b1565b8554909150600090614653906001906154b1565b90508181146146b85760008660000182815481106146735761467361549b565b90600052602060002001549050808760000184815481106146965761469661549b565b6000918252602080832090910192909255918252600188019052604090208390555b85548690806146c9576146c96158b1565b600190038181906000526020600020016000905590558560010160008681526020019081526020016000206000905560019350505050610b82565b6000915050610b82565b60008260000182815481106147255761472561549b565b9060005260206000200154905092915050565b60008183116147475781613536565b5090919050565b6147578161450b565b6040516001600160a01b038216907fbc7cd75a20ee27fd9adebab32041f755214dbc6bffa90cc0225b39da2e5c2d3b90600090a250565b60606135368383604051806060016040528060278152602001615af7602791396060600080856001600160a01b0316856040516147cb91906153e7565b600060405180830381855af49150503d8060008114614806576040519150601f19603f3d011682016040523d82523d6000602084013e61480b565b606091505b509150915061481c86838387614826565b9695505050505050565b6060831561489557825160000361488e576001600160a01b0385163b61488e5760405162461bcd60e51b815260206004820152601d60248201527f416464726573733a2063616c6c20746f206e6f6e2d636f6e7472616374000000604482015260640161110f565b5081612acf565b612acf83838151156148aa5781518083602001fd5b8060405162461bcd60e51b815260040161110f9190614f25565b5080546148d090615174565b6000825580601f106148e0575050565b601f01602090049060005260206000209081019061118c91905b8082111561132657600081556001016148fa565b60006020828403121561492057600080fd5b81356001600160e01b03198116811461353657600080fd5b6001600160a01b038116811461118c57600080fd5b634e487b7160e01b600052604160045260246000fd5b604051601f8201601f191681016001600160401b038111828210171561498b5761498b61494d565b604052919050565b6000806001600160401b038411156149ad576149ad61494d565b50601f8301601f19166020016149c281614963565b9150508281528383830111156149d757600080fd5b828260208301376000602084830101529392505050565b600082601f8301126149ff57600080fd5b61353683833560208501614993565b600080600080600080600080610100898b031215614a2b57600080fd5b8835614a3681614938565b97506020890135614a4681614938565b96506040890135614a5681614938565b95506060890135614a6681614938565b94506080890135935060a08901356001600160401b03811115614a8857600080fd5b614a948b828c016149ee565b93505060c08901356001600160401b03811115614ab057600080fd5b614abc8b828c016149ee565b989b979a50959894979396929550929360e00135925050565b602080825282518282018190526000918401906040840190835b81811015614b165783516001600160a01b0316835260209384019390920191600101614aef565b509095945050505050565b60008083601f840112614b3357600080fd5b5081356001600160401b03811115614b4a57600080fd5b602083019150836020828501011115614b6257600080fd5b9250929050565b60008060208385031215614b7c57600080fd5b82356001600160401b03811115614b9257600080fd5b614b9e85828601614b21565b90969095509350505050565b60005b83811015614bc5578181015183820152602001614bad565b50506000910152565b60008151808452614be6816020860160208601614baa565b601f01601f19169290920160200192915050565b6000602082016020835280845180835260408501915060408160051b86010192506020860160005b82811015614c5357603f19878603018452614c3e858351614bce565b94506020938401939190910190600101614c22565b50929695505050505050565b600060208284031215614c7157600080fd5b5035919050565b600060208284031215614c8a57600080fd5b81356001600160401b03811115614ca057600080fd5b612acf848285016149ee565b600060208284031215614cbe57600080fd5b813561353681614938565b6000602082016020835280845180835260408501915060408160051b86010192506020860160005b82811015614c5357603f198786030184528151805160608752614d176060880182614bce565b602083810151898201526040938401516001600160801b031693909801929092525094938401939190910190600101614cf1565b60008083601f840112614d5d57600080fd5b5081356001600160401b03811115614d7457600080fd5b6020830191508360208260051b8501011115614b6257600080fd5b60008060208385031215614da257600080fd5b82356001600160401b03811115614db857600080fd5b614b9e85828601614d4b565b60008060408385031215614dd757600080fd5b8235614de281614938565b915060208301356001600160401b03811115614dfd57600080fd5b8301601f81018513614e0e57600080fd5b614e1d85823560208401614993565b9150509250929050565b805182526001600160801b0360208201511660208301526001600160401b0360408201511660408301526060810151151560608301525050565b602080825282518282018190526000918401906040840190835b81811015614b1657614e8e838551614e27565b6020939093019260809290920191600101614e7b565b60808101610b828284614e27565b602080825282518282018190526000918401906040840190835b81811015614b16578351835260209384019390920191600101614ecc565b600060208284031215614efc57600080fd5b81356001600160401b03811115614f1257600080fd5b82016102a0818503121561353657600080fd5b6020815260006135366020830184614bce565b80356001600160801b038116811461449e57600080fd5b60008060008060808587031215614f6557600080fd5b614f6e85614f38565b9350614f7c60208601614f38565b9250614f8a60408601614f38565b9150614f9860608601614f38565b905092959194509250565b60006001600160401b03821115614fbc57614fbc61494d565b5060051b60200190565b600082601f830112614fd757600080fd5b8135614fea614fe582614fa3565b614963565b8082825260208201915060208360051b86010192508583111561500c57600080fd5b602085015b8381101561503257803561502481614938565b835260209283019201615011565b5095945050505050565b6000806040838503121561504f57600080fd5b82356001600160401b0381111561506557600080fd5b8301601f8101851361507657600080fd5b8035615084614fe582614fa3565b8082825260208201915060208360051b8501019250878311156150a657600080fd5b6020840193505b828410156150c85783358252602093840193909101906150ad565b945050505060208301356001600160401b038111156150e657600080fd5b614e1d85828601614fc6565b801515811461118c57600080fd5b803561449e816150f2565b6000806000806080858703121561512157600080fd5b84356001600160401b0381111561513757600080fd5b615143878288016149ee565b9450506020850135925061515960408601614f38565b91506060850135615169816150f2565b939692955090935050565b600181811c9082168061518857607f821691505b6020821081036151a857634e487b7160e01b600052602260045260246000fd5b50919050565b601f8211156113ed57806000526020600020601f840160051c810160208510156151d55750805b601f840160051c820191505b818110156151f557600081556001016151e1565b5050505050565b81516001600160401b038111156152155761521561494d565b615229816152238454615174565b846151ae565b6020601f82116001811461525d57600083156152455750848201515b600019600385901b1c1916600184901b1784556151f5565b600084815260208120601f198516915b8281101561528d578785015182556020948501946001909201910161526d565b50848210156152ab5786840151600019600387901b60f8161c191681555b50505050600190811b01905550565b8183823760009101908152919050565b634e487b7160e01b600052601160045260246000fd5b80820180821115610b8257610b826152ca565b8082028115828204841417610b8257610b826152ca565b6001600160801b038181168382160190811115610b8257610b826152ca565b60006001820161533b5761533b6152ca565b5060010190565b6000815461534f81615174565b8085526001821680156153695760018114615385576153bc565b60ff1983166020870152602082151560051b87010193506153bc565b84600052602060002060005b838110156153b35781546020828a010152600182019150602081019050615391565b87016020019450505b50505092915050565b6040815260006153d86040830185615342565b90508260208301529392505050565b600082516153f9818460208701614baa565b9190910192915050565b6020808252602c908201527f46756e6374696f6e206d7573742062652063616c6c6564207468726f7567682060408201526b19195b1959d85d1958d85b1b60a21b606082015260800190565b6020808252602c908201527f46756e6374696f6e206d7573742062652063616c6c6564207468726f7567682060408201526b6163746976652070726f787960a01b606082015260800190565b634e487b7160e01b600052603260045260246000fd5b81810381811115610b8257610b826152ca565b6000602082840312156154d657600080fd5b815161353681614938565b6000816154f0576154f06152ca565b506000190190565b803560ff8116811461449e57600080fd5b60006020828403121561551b57600080fd5b613536826154f8565b80356001600160401b038116811461449e57600080fd5b80358252602080820135908301526001600160401b0361555d60408301615524565b1660408301526001600160401b0361557760608301615524565b1660608301526080818101359083015260a0808201359083015260c080820135908301526155bc60e0808401906155af908401615524565b6001600160401b03169052565b6155c96101008201615524565b6001600160401b031661010083015261012081810135908301526101408082013590830152610160808201359083015261018080820135908301526101a080820135908301526101c080820135908301526101e08082013590830152610200808201359083015261022080820135908301526156486102408201615100565b151561024083015261565d61026082016154f8565b60ff8116610260840152505050565b6020815260008235601e1984360301811261568657600080fd5b83016020810190356001600160401b038111156156a257600080fd5b8060051b8036038313156156b557600080fd5b6102a060208601526102c085018290526001600160fb1b038211156156d957600080fd5b80836102e08701376156f1604086016020880161553b565b939093016102e001949350505050565b60006020828403121561571357600080fd5b8151613536816150f2565b6000808335601e1984360301811261573557600080fd5b8301803591506001600160401b0382111561574f57600080fd5b602001915036819003821315614b6257600080fd5b6001600160401b0383111561577b5761577b61494d565b61578f836157898354615174565b836151ae565b6000601f8411600181146157c357600085156157ab5750838201355b600019600387901b1c1916600186901b1783556151f5565b600083815260209020601f19861690835b828110156157f457868501358255602094850194600190920191016157d4565b50868210156158115760001960f88860031b161c19848701351681555b505060018560011b0183555050505050565b81835281816020850137506000828201602090810191909152601f909101601f19169091010190565b602081526000612acf602083018486615823565b6001600160801b038281168282160390811115610b8257610b826152ca565b6060815260006158926060830186614bce565b90508360208301526001600160801b0383166040830152949350505050565b634e487b7160e01b600052603160045260246000fd5b60008083546158d581615174565b6001821680156158ec576001811461590157615931565b60ff1983168652811515820286019350615931565b86600052602060002060005b838110156159295781548882015260019091019060200161590d565b505081860193505b509195945050505050565b60808152600061594f6080830187614bce565b6020830195909552506001600160801b039290921660408301521515606090910152919050565b60a08152600061598960a0830188615342565b828103602084015261599b8188614bce565b6001600160801b03968716604085015294909516606083015250608001529392505050565b60a0815260006159d360a0830188615342565b82810360208401526159e58188615342565b9150506001600160801b03851660408301526001600160801b03841660608301526001600160401b03831660808301529695505050505050565b6001600160401b038181168382160190811115610b8257610b826152ca565b634e487b7160e01b600052600160045260246000fd5b600060208284031215615a6657600080fd5b5051919050565b606081526000615a81606083018688615823565b6020830194909452506040015292915050565b600082615ab157634e487b7160e01b600052601260045260246000fd5b50069056fe714f205b2abd25bef1d06a1af944e38c113fe6160375c4e1d6d5cf28848e7719360894a13ba1a3210667c828492db98dca3e2076cc3735a920a3ca505d382bbc416464726573733a206c6f772d6c6576656c2064656c65676174652063616c6c206661696c65642aa47ee5db910f3b2a06970c443249cc77dbd9f96100cfebc1775ab7fb1d1824a2646970667358221220b94ec4b955c10f0aa94d1b1e9e06136259547002ddbb9bf3d53a3d4e0acbb63964736f6c634300081b0033",
  "linkReferences": {},
  "deployedLinkReferences": {}
}