{
  "_format": "hh-sol-artifact-1",
  "contractName": "CoreVaultManager",
  "sourceName": "contracts/coreVaultManager/implementation/CoreVaultManager.sol",
  "abi": [
    {
      "inputs": [],
      "stateMutability": "nonpayable",
      "type": "constructor"
    },
    {
      "anonymous": false,
      "inputs": [
        {
          "indexed": false,
          "internalType": "address",
          "name": "previousAdmin",
          "type": "address"
        },
        {
          "indexed": false,
          "internalType": "address",
          "name": "newAdmin",
          "type": "address"
        }
      ],
      "name": "AdminChanged",
      "type": "event"
    },
    {
      "anonymous": false,
      "inputs": [
        {
          "indexed": false,
          "internalType": "string",
          "name": "destinationAddress",
          "type": "string"
        }
      ],
      "name": "AllowedDestinationAddressAdded",
      "type": "event"
    },
    {
      "anonymous": false,
      "inputs": [
        {
          "indexed": false,
          "internalType": "string",
          "name": "destinationAddress",
          "type": "string"
        }
      ],
      "name": "AllowedDestinationAddressRemoved",
      "type": "event"
    },
    {
      "anonymous": false,
      "inputs": [
        {
          "indexed": true,
          "internalType": "address",
          "name": "beacon",
          "type": "address"
        }
      ],
      "name": "BeaconUpgraded",
      "type": "event"
    },
    {
      "anonymous": false,
      "inputs": [
        {
          "indexed": false,
          "internalType": "string",
          "name": "custodianAddress",
          "type": "string"
        }
      ],
      "name": "CustodianAddressUpdated",
      "type": "event"
    },
    {
      "anonymous": false,
      "inputs": [
        {
          "indexed": true,
          "internalType": "uint256",
          "name": "sequence",
          "type": "uint256"
        },
        {
          "indexed": false,
          "internalType": "string",
          "name": "account",
          "type": "string"
        },
        {
          "indexed": false,
          "internalType": "bytes32",
          "name": "instructionsHash",
          "type": "bytes32"
        }
      ],
      "name": "CustomInstructions",
      "type": "event"
    },
    {
      "anonymous": false,
      "inputs": [
        {
          "indexed": false,
          "internalType": "address",
          "name": "sender",
          "type": "address"
        }
      ],
      "name": "EmergencyPauseSenderAdded",
      "type": "event"
    },
    {
      "anonymous": false,
      "inputs": [
        {
          "indexed": false,
          "internalType": "address",
          "name": "sender",
          "type": "address"
        }
      ],
      "name": "EmergencyPauseSenderRemoved",
      "type": "event"
    },
    {
      "anonymous": false,
      "inputs": [
        {
          "indexed": true,
          "internalType": "bytes32",
          "name": "preimageHash",
          "type": "bytes32"
        },
        {
          "indexed": false,
          "internalType": "uint256",
          "name": "amount",
          "type": "uint256"
        }
      ],
      "name": "EscrowFinished",
      "type": "event"
    },
    {
      "anonymous": false,
      "inputs": [
        {
          "indexed": true,
          "internalType": "uint256",
          "name": "sequence",
          "type": "uint256"
        },
        {
          "indexed": true,
          "internalType": "bytes32",
          "name": "preimageHash",
          "type": "bytes32"
        },
        {
          "indexed": false,
          "internalType": "string",
          "name": "account",
          "type": "string"
        },
        {
          "indexed": false,
          "internalType": "string",
          "name": "destination",
          "type": "string"
        },
        {
          "indexed": false,
          "internalType": "uint256",
          "name": "amount",
          "type": "uint256"
        },
        {
          "indexed": false,
          "internalType": "uint256",
          "name": "fee",
          "type": "uint256"
        },
        {
          "indexed": false,
          "internalType": "uint256",
          "name": "cancelAfterTs",
          "type": "uint256"
        }
      ],
      "name": "EscrowInstructions",
      "type": "event"
    },
    {
      "anonymous": false,
      "inputs": [
        {
          "indexed": false,
          "internalType": "bytes",
          "name": "encodedCall",
          "type": "bytes"
        },
        {
          "indexed": false,
          "internalType": "bytes32",
          "name": "encodedCallHash",
          "type": "bytes32"
        },
        {
          "indexed": false,
          "internalType": "uint256",
          "name": "allowedAfterTimestamp",
          "type": "uint256"
        }
      ],
      "name": "GovernanceCallTimelocked",
      "type": "event"
    },
    {
      "anonymous": false,
      "inputs": [
        {
          "indexed": false,
          "internalType": "address",
          "name": "initialGovernance",
          "type": "address"
        }
      ],
      "name": "GovernanceInitialised",
      "type": "event"
    },
    {
      "anonymous": false,
      "inputs": [
        {
          "indexed": false,
          "internalType": "address",
          "name": "governanceSettings",
          "type": "address"
        }
      ],
      "name": "GovernedProductionModeEntered",
      "type": "event"
    },
    {
      "anonymous": false,
      "inputs": [],
      "name": "NotAllEscrowsProcessed",
      "type": "event"
    },
    {
      "anonymous": false,
      "inputs": [],
      "name": "Paused",
      "type": "event"
    },
    {
      "anonymous": false,
      "inputs": [
        {
          "indexed": true,
          "internalType": "bytes32",
          "name": "transactionId",
          "type": "bytes32"
        },
        {
          "indexed": false,
          "internalType": "bytes32",
          "name": "paymentReference",
          "type": "bytes32"
        },
        {
          "indexed": false,
          "internalType": "uint256",
          "name": "amount",
          "type": "uint256"
        }
      ],
      "name": "PaymentConfirmed",
      "type": "event"
    },
    {
      "anonymous": false,
      "inputs": [
        {
          "indexed": true,
          "internalType": "uint256",
          "name": "sequence",
          "type": "uint256"
        },
        {
          "indexed": false,
          "internalType": "string",
          "name": "account",
          "type": "string"
        },
        {
          "indexed": false,
          "internalType": "string",
          "name": "destination",
          "type": "string"
        },
        {
          "indexed": false,
          "internalType": "uint256",
          "name": "amount",
          "type": "uint256"
        },
        {
          "indexed": false,
          "internalType": "uint256",
          "name": "fee",
          "type": "uint256"
        },
        {
          "indexed": false,
          "internalType": "bytes32",
          "name": "paymentReference",
          "type": "bytes32"
        }
      ],
      "name": "PaymentInstructions",
      "type": "event"
    },
    {
      "anonymous": false,
      "inputs": [
        {
          "indexed": false,
          "internalType": "bytes32",
          "name": "preimageHash",
          "type": "bytes32"
        }
      ],
      "name": "PreimageHashAdded",
      "type": "event"
    },
    {
      "anonymous": false,
      "inputs": [
        {
          "indexed": false,
          "internalType": "uint256",
          "name": "escrowEndTimeSeconds",
          "type": "uint256"
        },
        {
          "indexed": false,
          "internalType": "uint256",
          "name": "escrowAmount",
          "type": "uint256"
        },
        {
          "indexed": false,
          "internalType": "uint256",
          "name": "minimalAmount",
          "type": "uint256"
        },
        {
          "indexed": false,
          "internalType": "uint256",
          "name": "fee",
          "type": "uint256"
        }
      ],
      "name": "SettingsUpdated",
      "type": "event"
    },
    {
      "anonymous": false,
      "inputs": [
        {
          "indexed": false,
          "internalType": "bytes32",
          "name": "encodedCallHash",
          "type": "bytes32"
        }
      ],
      "name": "TimelockedGovernanceCallCanceled",
      "type": "event"
    },
    {
      "anonymous": false,
      "inputs": [
        {
          "indexed": false,
          "internalType": "bytes32",
          "name": "encodedCallHash",
          "type": "bytes32"
        }
      ],
      "name": "TimelockedGovernanceCallExecuted",
      "type": "event"
    },
    {
      "anonymous": false,
      "inputs": [
        {
          "indexed": false,
          "internalType": "string",
          "name": "destinationAddress",
          "type": "string"
        },
        {
          "indexed": false,
          "internalType": "bytes32",
          "name": "paymentReference",
          "type": "bytes32"
        },
        {
          "indexed": false,
          "internalType": "uint256",
          "name": "amount",
          "type": "uint256"
        }
      ],
      "name": "TransferRequestCanceled",
      "type": "event"
    },
    {
      "anonymous": false,
      "inputs": [
        {
          "indexed": false,
          "internalType": "string",
          "name": "destinationAddress",
          "type": "string"
        },
        {
          "indexed": false,
          "internalType": "bytes32",
          "name": "paymentReference",
          "type": "bytes32"
        },
        {
          "indexed": false,
          "internalType": "uint256",
          "name": "amount",
          "type": "uint256"
        },
        {
          "indexed": false,
          "internalType": "bool",
          "name": "cancelable",
          "type": "bool"
        }
      ],
      "name": "TransferRequested",
      "type": "event"
    },
    {
      "anonymous": false,
      "inputs": [
        {
          "indexed": false,
          "internalType": "address",
          "name": "triggeringAccount",
          "type": "address"
        }
      ],
      "name": "TriggeringAccountAdded",
      "type": "event"
    },
    {
      "anonymous": false,
      "inputs": [
        {
          "indexed": false,
          "internalType": "address",
          "name": "triggeringAccount",
          "type": "address"
        }
      ],
      "name": "TriggeringAccountRemoved",
      "type": "event"
    },
    {
      "anonymous": false,
      "inputs": [],
      "name": "Unpaused",
      "type": "event"
    },
    {
      "anonymous": false,
      "inputs": [
        {
          "indexed": false,
          "internalType": "bytes32",
          "name": "preimageHash",
          "type": "bytes32"
        }
      ],
      "name": "UnusedPreimageHashRemoved",
      "type": "event"
    },
    {
      "anonymous": false,
      "inputs": [
        {
          "indexed": true,
          "internalType": "address",
          "name": "implementation",
          "type": "address"
        }
      ],
      "name": "Upgraded",
      "type": "event"
    },
    {
      "inputs": [
        {
          "internalType": "string[]",
          "name": "_allowedDestinationAddresses",
          "type": "string[]"
        }
      ],
      "name": "addAllowedDestinationAddresses",
      "outputs": [],
      "stateMutability": "nonpayable",
      "type": "function"
    },
    {
      "inputs": [
        {
          "internalType": "address[]",
          "name": "_addresses",
          "type": "address[]"
        }
      ],
      "name": "addEmergencyPauseSenders",
      "outputs": [],
      "stateMutability": "nonpayable",
      "type": "function"
    },
    {
      "inputs": [
        {
          "internalType": "bytes32[]",
          "name": "_preimageHashes",
          "type": "bytes32[]"
        }
      ],
      "name": "addPreimageHashes",
      "outputs": [],
      "stateMutability": "nonpayable",
      "type": "function"
    },
    {
      "inputs": [
        {
          "internalType": "address[]",
          "name": "_triggeringAccounts",
          "type": "address[]"
        }
      ],
      "name": "addTriggeringAccounts",
      "outputs": [],
      "stateMutability": "nonpayable",
      "type": "function"
    },
    {
      "inputs": [],
      "name": "assetManager",
      "outputs": [
        {
          "internalType": "address",
          "name": "",
          "type": "address"
        }
      ],
      "stateMutability": "view",
      "type": "function"
    },
    {
      "inputs": [],
      "name": "availableFunds",
      "outputs": [
        {
          "internalType": "uint128",
          "name": "",
          "type": "uint128"
        }
      ],
      "stateMutability": "view",
      "type": "function"
    },
    {
      "inputs": [
        {
          "internalType": "bytes",
          "name": "_encodedCall",
          "type": "bytes"
        }
      ],
      "name": "cancelGovernanceCall",
      "outputs": [],
      "stateMutability": "nonpayable",
      "type": "function"
    },
    {
      "inputs": [
        {
          "internalType": "string",
          "name": "_destinationAddress",
          "type": "string"
        }
      ],
      "name": "cancelTransferRequestFromCoreVault",
      "outputs": [],
      "stateMutability": "nonpayable",
      "type": "function"
    },
    {
      "inputs": [],
      "name": "chainId",
      "outputs": [
        {
          "internalType": "bytes32",
          "name": "",
          "type": "bytes32"
        }
      ],
      "stateMutability": "view",
      "type": "function"
    },
    {
      "inputs": [
        {
          "components": [
            {
              "internalType": "bytes32[]",
              "name": "merkleProof",
              "type": "bytes32[]"
            },
            {
              "components": [
                {
                  "internalType": "bytes32",
                  "name": "attestationType",
                  "type": "bytes32"
                },
                {
                  "internalType": "bytes32",
                  "name": "sourceId",
                  "type": "bytes32"
                },
                {
                  "internalType": "uint64",
                  "name": "votingRound",
                  "type": "uint64"
                },
                {
                  "internalType": "uint64",
                  "name": "lowestUsedTimestamp",
                  "type": "uint64"
                },
                {
                  "components": [
                    {
                      "internalType": "bytes32",
                      "name": "transactionId",
                      "type": "bytes32"
                    },
                    {
                      "internalType": "uint256",
                      "name": "inUtxo",
                      "type": "uint256"
                    },
                    {
                      "internalType": "uint256",
                      "name": "utxo",
                      "type": "uint256"
                    }
                  ],
                  "internalType": "struct IPayment.RequestBody",
                  "name": "requestBody",
                  "type": "tuple"
                },
                {
                  "components": [
                    {
                      "internalType": "uint64",
                      "name": "blockNumber",
                      "type": "uint64"
                    },
                    {
                      "internalType": "uint64",
                      "name": "blockTimestamp",
                      "type": "uint64"
                    },
                    {
                      "internalType": "bytes32",
                      "name": "sourceAddressHash",
                      "type": "bytes32"
                    },
                    {
                      "internalType": "bytes32",
                      "name": "sourceAddressesRoot",
                      "type": "bytes32"
                    },
                    {
                      "internalType": "bytes32",
                      "name": "receivingAddressHash",
                      "type": "bytes32"
                    },
                    {
                      "internalType": "bytes32",
                      "name": "intendedReceivingAddressHash",
                      "type": "bytes32"
                    },
                    {
                      "internalType": "int256",
                      "name": "spentAmount",
                      "type": "int256"
                    },
                    {
                      "internalType": "int256",
                      "name": "intendedSpentAmount",
                      "type": "int256"
                    },
                    {
                      "internalType": "int256",
                      "name": "receivedAmount",
                      "type": "int256"
                    },
                    {
                      "internalType": "int256",
                      "name": "intendedReceivedAmount",
                      "type": "int256"
                    },
                    {
                      "internalType": "bytes32",
                      "name": "standardPaymentReference",
                      "type": "bytes32"
                    },
                    {
                      "internalType": "bool",
                      "name": "oneToOne",
                      "type": "bool"
                    },
                    {
                      "internalType": "uint8",
                      "name": "status",
                      "type": "uint8"
                    }
                  ],
                  "internalType": "struct IPayment.ResponseBody",
                  "name": "responseBody",
                  "type": "tuple"
                }
              ],
              "internalType": "struct IPayment.Response",
              "name": "data",
              "type": "tuple"
            }
          ],
          "internalType": "struct IPayment.Proof",
          "name": "_proof",
          "type": "tuple"
        }
      ],
      "name": "confirmPayment",
      "outputs": [],
      "stateMutability": "nonpayable",
      "type": "function"
    },
    {
      "inputs": [
        {
          "internalType": "bytes32",
          "name": "transactionId",
          "type": "bytes32"
        }
      ],
      "name": "confirmedPayments",
      "outputs": [
        {
          "internalType": "bool",
          "name": "",
          "type": "bool"
        }
      ],
      "stateMutability": "view",
      "type": "function"
    },
    {
      "inputs": [],
      "name": "coreVaultAddress",
      "outputs": [
        {
          "internalType": "string",
          "name": "",
          "type": "string"
        }
      ],
      "stateMutability": "view",
      "type": "function"
    },
    {
      "inputs": [],
      "name": "coreVaultAddressHash",
      "outputs": [
        {
          "internalType": "bytes32",
          "name": "",
          "type": "bytes32"
        }
      ],
      "stateMutability": "view",
      "type": "function"
    },
    {
      "inputs": [],
      "name": "custodianAddress",
      "outputs": [
        {
          "internalType": "string",
          "name": "",
          "type": "string"
        }
      ],
      "stateMutability": "view",
      "type": "function"
    },
    {
      "inputs": [],
      "name": "escrowedFunds",
      "outputs": [
        {
          "internalType": "uint128",
          "name": "",
          "type": "uint128"
        }
      ],
      "stateMutability": "view",
      "type": "function"
    },
    {
      "inputs": [
        {
          "internalType": "bytes",
          "name": "_encodedCall",
          "type": "bytes"
        }
      ],
      "name": "executeGovernanceCall",
      "outputs": [],
      "stateMutability": "nonpayable",
      "type": "function"
    },
    {
      "inputs": [],
      "name": "fdcVerification",
      "outputs": [
        {
          "internalType": "contract IFdcVerification",
          "name": "",
          "type": "address"
        }
      ],
      "stateMutability": "view",
      "type": "function"
    },
    {
      "inputs": [],
      "name": "getAddressUpdater",
      "outputs": [
        {
          "internalType": "address",
          "name": "_addressUpdater",
          "type": "address"
        }
      ],
      "stateMutability": "view",
      "type": "function"
    },
    {
      "inputs": [],
      "name": "getAllowedDestinationAddresses",
      "outputs": [
        {
          "internalType": "string[]",
          "name": "",
          "type": "string[]"
        }
      ],
      "stateMutability": "view",
      "type": "function"
    },
    {
      "inputs": [],
      "name": "getCancelableTransferRequests",
      "outputs": [
        {
          "components": [
            {
              "internalType": "string",
              "name": "destinationAddress",
              "type": "string"
            },
            {
              "internalType": "bytes32",
              "name": "paymentReference",
              "type": "bytes32"
            },
            {
              "internalType": "uint128",
              "name": "amount",
              "type": "uint128"
            }
          ],
          "internalType": "struct ICoreVaultManager.TransferRequest[]",
          "name": "_transferRequests",
          "type": "tuple[]"
        }
      ],
      "stateMutability": "view",
      "type": "function"
    },
    {
      "inputs": [],
      "name": "getEmergencyPauseSenders",
      "outputs": [
        {
          "internalType": "address[]",
          "name": "",
          "type": "address[]"
        }
      ],
      "stateMutability": "view",
      "type": "function"
    },
    {
      "inputs": [
        {
          "internalType": "uint256",
          "name": "_index",
          "type": "uint256"
        }
      ],
      "name": "getEscrowByIndex",
      "outputs": [
        {
          "components": [
            {
              "internalType": "bytes32",
              "name": "preimageHash",
              "type": "bytes32"
            },
            {
              "internalType": "uint128",
              "name": "amount",
              "type": "uint128"
            },
            {
              "internalType": "uint64",
              "name": "expiryTs",
              "type": "uint64"
            },
            {
              "internalType": "bool",
              "name": "finished",
              "type": "bool"
            }
          ],
          "internalType": "struct ICoreVaultManager.Escrow",
          "name": "",
          "type": "tuple"
        }
      ],
      "stateMutability": "view",
      "type": "function"
    },
    {
      "inputs": [
        {
          "internalType": "bytes32",
          "name": "_preimageHash",
          "type": "bytes32"
        }
      ],
      "name": "getEscrowByPreimageHash",
      "outputs": [
        {
          "components": [
            {
              "internalType": "bytes32",
              "name": "preimageHash",
              "type": "bytes32"
            },
            {
              "internalType": "uint128",
              "name": "amount",
              "type": "uint128"
            },
            {
              "internalType": "uint64",
              "name": "expiryTs",
              "type": "uint64"
            },
            {
              "internalType": "bool",
              "name": "finished",
              "type": "bool"
            }
          ],
          "internalType": "struct ICoreVaultManager.Escrow",
          "name": "",
          "type": "tuple"
        }
      ],
      "stateMutability": "view",
      "type": "function"
    },
    {
      "inputs": [],
      "name": "getEscrowsCount",
      "outputs": [
        {
          "internalType": "uint256",
          "name": "",
          "type": "uint256"
        }
      ],
      "stateMutability": "view",
      "type": "function"
    },
    {
      "inputs": [],
      "name": "getNonCancelableTransferRequests",
      "outputs": [
        {
          "components": [
            {
              "internalType": "string",
              "name": "destinationAddress",
              "type": "string"
            },
            {
              "internalType": "bytes32",
              "name": "paymentReference",
              "type": "bytes32"
            },
            {
              "internalType": "uint128",
              "name": "amount",
              "type": "uint128"
            }
          ],
          "internalType": "struct ICoreVaultManager.TransferRequest[]",
          "name": "_transferRequests",
          "type": "tuple[]"
        }
      ],
      "stateMutability": "view",
      "type": "function"
    },
    {
      "inputs": [
        {
          "internalType": "uint256",
          "name": "_index",
          "type": "uint256"
        }
      ],
      "name": "getPreimageHash",
      "outputs": [
        {
          "internalType": "bytes32",
          "name": "",
          "type": "bytes32"
        }
      ],
      "stateMutability": "view",
      "type": "function"
    },
    {
      "inputs": [],
      "name": "getPreimageHashesCount",
      "outputs": [
        {
          "internalType": "uint256",
          "name": "",
          "type": "uint256"
        }
      ],
      "stateMutability": "view",
      "type": "function"
    },
    {
      "inputs": [],
      "name": "getSettings",
      "outputs": [
        {
          "internalType": "uint128",
          "name": "_escrowEndTimeSeconds",
          "type": "uint128"
        },
        {
          "internalType": "uint128",
          "name": "_escrowAmount",
          "type": "uint128"
        },
        {
          "internalType": "uint128",
          "name": "_minimalAmount",
          "type": "uint128"
        },
        {
          "internalType": "uint128",
          "name": "_fee",
          "type": "uint128"
        }
      ],
      "stateMutability": "view",
      "type": "function"
    },
    {
      "inputs": [],
      "name": "getTriggeringAccounts",
      "outputs": [
        {
          "internalType": "address[]",
          "name": "",
          "type": "address[]"
        }
      ],
      "stateMutability": "view",
      "type": "function"
    },
    {
      "inputs": [],
      "name": "getUnprocessedEscrows",
      "outputs": [
        {
          "components": [
            {
              "internalType": "bytes32",
              "name": "preimageHash",
              "type": "bytes32"
            },
            {
              "internalType": "uint128",
              "name": "amount",
              "type": "uint128"
            },
            {
              "internalType": "uint64",
              "name": "expiryTs",
              "type": "uint64"
            },
            {
              "internalType": "bool",
              "name": "finished",
              "type": "bool"
            }
          ],
          "internalType": "struct ICoreVaultManager.Escrow[]",
          "name": "_unprocessedEscrows",
          "type": "tuple[]"
        }
      ],
      "stateMutability": "view",
      "type": "function"
    },
    {
      "inputs": [],
      "name": "getUnusedPreimageHashes",
      "outputs": [
        {
          "internalType": "bytes32[]",
          "name": "",
          "type": "bytes32[]"
        }
      ],
      "stateMutability": "view",
      "type": "function"
    },
    {
      "inputs": [],
      "name": "governance",
      "outputs": [
        {
          "internalType": "address",
          "name": "",
          "type": "address"
        }
      ],
      "stateMutability": "view",
      "type": "function"
    },
    {
      "inputs": [],
      "name": "governanceSettings",
      "outputs": [
        {
          "internalType": "contract IGovernanceSettings",
          "name": "",
          "type": "address"
        }
      ],
      "stateMutability": "view",
      "type": "function"
    },
    {
      "inputs": [
        {
          "internalType": "contract IGovernanceSettings",
          "name": "_governanceSettings",
          "type": "address"
        },
        {
          "internalType": "address",
          "name": "_initialGovernance",
          "type": "address"
        },
        {
          "internalType": "address",
          "name": "_addressUpdater",
          "type": "address"
        },
        {
          "internalType": "address",
          "name": "_assetManager",
          "type": "address"
        },
        {
          "internalType": "bytes32",
          "name": "_chainId",
          "type": "bytes32"
        },
        {
          "internalType": "string",
          "name": "_custodianAddress",
          "type": "string"
        },
        {
          "internalType": "string",
          "name": "_coreVaultAddress",
          "type": "string"
        },
        {
          "internalType": "uint256",
          "name": "_nextSequenceNumber",
          "type": "uint256"
        }
      ],
      "name": "initialize",
      "outputs": [],
      "stateMutability": "nonpayable",
      "type": "function"
    },
    {
      "inputs": [
        {
          "internalType": "string",
          "name": "_address",
          "type": "string"
        }
      ],
      "name": "isDestinationAddressAllowed",
      "outputs": [
        {
          "internalType": "bool",
          "name": "",
          "type": "bool"
        }
      ],
      "stateMutability": "view",
      "type": "function"
    },
    {
      "inputs": [
        {
          "internalType": "address",
          "name": "_address",
          "type": "address"
        }
      ],
      "name": "isExecutor",
      "outputs": [
        {
          "internalType": "bool",
          "name": "",
          "type": "bool"
        }
      ],
      "stateMutability": "view",
      "type": "function"
    },
    {
      "inputs": [],
      "name": "nextSequenceNumber",
      "outputs": [
        {
          "internalType": "uint256",
          "name": "",
          "type": "uint256"
        }
      ],
      "stateMutability": "view",
      "type": "function"
    },
    {
      "inputs": [],
      "name": "nextUnprocessedEscrowIndex",
      "outputs": [
        {
          "internalType": "uint256",
          "name": "",
          "type": "uint256"
        }
      ],
      "stateMutability": "view",
      "type": "function"
    },
    {
      "inputs": [],
      "name": "nextUnusedPreimageHashIndex",
      "outputs": [
        {
          "internalType": "uint256",
          "name": "",
          "type": "uint256"
        }
      ],
      "stateMutability": "view",
      "type": "function"
    },
    {
      "inputs": [],
      "name": "pause",
      "outputs": [],
      "stateMutability": "nonpayable",
      "type": "function"
    },
    {
      "inputs": [],
      "name": "paused",
      "outputs": [
        {
          "internalType": "bool",
          "name": "",
          "type": "bool"
        }
      ],
      "stateMutability": "view",
      "type": "function"
    },
    {
      "inputs": [
        {
          "internalType": "uint256",
          "name": "_maxCount",
          "type": "uint256"
        }
      ],
      "name": "processEscrows",
      "outputs": [
        {
          "internalType": "bool",
          "name": "",
          "type": "bool"
        }
      ],
      "stateMutability": "nonpayable",
      "type": "function"
    },
    {
      "inputs": [],
      "name": "productionMode",
      "outputs": [
        {
          "internalType": "bool",
          "name": "",
          "type": "bool"
        }
      ],
      "stateMutability": "view",
      "type": "function"
    },
    {
      "inputs": [],
      "name": "proxiableUUID",
      "outputs": [
        {
          "internalType": "bytes32",
          "name": "",
          "type": "bytes32"
        }
      ],
      "stateMutability": "view",
      "type": "function"
    },
    {
      "inputs": [
        {
          "internalType": "string[]",
          "name": "_allowedDestinationAddresses",
          "type": "string[]"
        }
      ],
      "name": "removeAllowedDestinationAddresses",
      "outputs": [],
      "stateMutability": "nonpayable",
      "type": "function"
    },
    {
      "inputs": [
        {
          "internalType": "address[]",
          "name": "_addresses",
          "type": "address[]"
        }
      ],
      "name": "removeEmergencyPauseSenders",
      "outputs": [],
      "stateMutability": "nonpayable",
      "type": "function"
    },
    {
      "inputs": [
        {
          "internalType": "address[]",
          "name": "_triggeringAccounts",
          "type": "address[]"
        }
      ],
      "name": "removeTriggeringAccounts",
      "outputs": [],
      "stateMutability": "nonpayable",
      "type": "function"
    },
    {
      "inputs": [
        {
          "internalType": "uint256",
          "name": "_maxCount",
          "type": "uint256"
        }
      ],
      "name": "removeUnusedPreimageHashes",
      "outputs": [],
      "stateMutability": "nonpayable",
      "type": "function"
    },
    {
      "inputs": [
        {
          "internalType": "string",
          "name": "_destinationAddress",
          "type": "string"
        },
        {
          "internalType": "bytes32",
          "name": "_paymentReference",
          "type": "bytes32"
        },
        {
          "internalType": "uint128",
          "name": "_amount",
          "type": "uint128"
        },
        {
          "internalType": "bool",
          "name": "_cancelable",
          "type": "bool"
        }
      ],
      "name": "requestTransferFromCoreVault",
      "outputs": [
        {
          "internalType": "bytes32",
          "name": "",
          "type": "bytes32"
        }
      ],
      "stateMutability": "nonpayable",
      "type": "function"
    },
    {
      "inputs": [
        {
          "internalType": "bytes32[]",
          "name": "_preimageHashes",
          "type": "bytes32[]"
        }
      ],
      "name": "setEscrowsFinished",
      "outputs": [],
      "stateMutability": "nonpayable",
      "type": "function"
    },
    {
      "inputs": [
        {
          "internalType": "bytes4",
          "name": "_interfaceId",
          "type": "bytes4"
        }
      ],
      "name": "supportsInterface",
      "outputs": [
        {
          "internalType": "bool",
          "name": "",
          "type": "bool"
        }
      ],
      "stateMutability": "pure",
      "type": "function"
    },
    {
      "inputs": [],
      "name": "switchToProductionMode",
      "outputs": [],
      "stateMutability": "nonpayable",
      "type": "function"
    },
    {
      "inputs": [],
      "name": "totalRequestAmountWithFee",
      "outputs": [
        {
          "internalType": "uint256",
          "name": "",
          "type": "uint256"
        }
      ],
      "stateMutability": "view",
      "type": "function"
    },
    {
      "inputs": [
        {
          "internalType": "bytes32",
          "name": "_instructionsHash",
          "type": "bytes32"
        }
      ],
      "name": "triggerCustomInstructions",
      "outputs": [],
      "stateMutability": "nonpayable",
      "type": "function"
    },
    {
      "inputs": [],
      "name": "triggerInstructions",
      "outputs": [
        {
          "internalType": "uint256",
          "name": "_numberOfInstructions",
          "type": "uint256"
        }
      ],
      "stateMutability": "nonpayable",
      "type": "function"
    },
    {
      "inputs": [],
      "name": "unpause",
      "outputs": [],
      "stateMutability": "nonpayable",
      "type": "function"
    },
    {
      "inputs": [
        {
          "internalType": "bytes32[]",
          "name": "_contractNameHashes",
          "type": "bytes32[]"
        },
        {
          "internalType": "address[]",
          "name": "_contractAddresses",
          "type": "address[]"
        }
      ],
      "name": "updateContractAddresses",
      "outputs": [],
      "stateMutability": "nonpayable",
      "type": "function"
    },
    {
      "inputs": [
        {
          "internalType": "string",
          "name": "_custodianAddress",
          "type": "string"
        }
      ],
      "name": "updateCustodianAddress",
      "outputs": [],
      "stateMutability": "nonpayable",
      "type": "function"
    },
    {
      "inputs": [
        {
          "internalType": "uint128",
          "name": "_escrowEndTimeSeconds",
          "type": "uint128"
        },
        {
          "internalType": "uint128",
          "name": "_escrowAmount",
          "type": "uint128"
        },
        {
          "internalType": "uint128",
          "name": "_minimalAmount",
          "type": "uint128"
        },
        {
          "internalType": "uint128",
          "name": "_fee",
          "type": "uint128"
        }
      ],
      "name": "updateSettings",
      "outputs": [],
      "stateMutability": "nonpayable",
      "type": "function"
    },
    {
      "inputs": [
        {
          "internalType": "address",
          "name": "newImplementation",
          "type": "address"
        }
      ],
      "name": "upgradeTo",
      "outputs": [],
      "stateMutability": "nonpayable",
      "type": "function"
    },
    {
      "inputs": [
        {
          "internalType": "address",
          "name": "newImplementation",
          "type": "address"
        },
        {
          "internalType": "bytes",
          "name": "data",
          "type": "bytes"
        }
      ],
      "name": "upgradeToAndCall",
      "outputs": [],
      "stateMutability": "payable",
      "type": "function"
    }
  ],
  "bytecode": "0x60a06040523060805234801561001457600080fd5b50600061002361111180610051565b61004b817f714f205b2abd25bef1d06a1af944e38c113fe6160375c4e1d6d5cf28848e771955565b506101e5565b7f2aa47ee5db910f3b2a06970c443249cc77dbd9f96100cfebc1775ab7fb1d18248054600160a01b900460ff16156100d05760405162461bcd60e51b815260206004820152601460248201527f696e697469616c6973656420213d2066616c736500000000000000000000000060448201526064015b60405180910390fd5b6001600160a01b0383166101265760405162461bcd60e51b815260206004820152601860248201527f676f7665726e616e63652073657474696e6773207a65726f000000000000000060448201526064016100c7565b6001600160a01b03821661016f5760405162461bcd60e51b815260206004820152601060248201526f5f676f7665726e616e6365207a65726f60801b60448201526064016100c7565b80546001600160a01b038481166001600160a81b031990921691909117600160a01b1782556001820180549184166001600160a01b0319909216821790556040519081527f9789733827840833afc031fb2ef9ab6894271f77bad2085687cf4ae5c7bee4db9060200160405180910390a1505050565b608051615fb761021c600039600081816111a2015281816111e20152818161152701528181611567015261170f0152615fb76000f3fe6080604052600436106103a25760003560e01c80636d3d2ca8116101e7578063a66e4e5f1161010d578063debfda30116100a0578063f0ec77fa1161006f578063f0ec77fa14610aba578063f5a9838314610ae1578063f9fe1f1c14610af6578063faee475314610b1657600080fd5b8063debfda3014610a39578063e17f212e14610a59578063e9a730f914610a85578063ea53fe1314610a9a57600080fd5b8063b9cbea3b116100dc578063b9cbea3b146109ce578063c9febdf5146109e3578063d074bd7e146109f9578063da3422ee14610a1957600080fd5b8063a66e4e5f14610959578063a90353251461096e578063b00c0b761461098e578063b805c638146109ae57600080fd5b806392fa958611610185578063a0a6263011610154578063a0a62630146108e3578063a2c7427514610903578063a609687b14610919578063a625988b1461093957600080fd5b806392fa95861461088357806394217ad11461089857806398ca4f78146108b85780639a8a0592146108cd57600080fd5b80637a1077ea116101c15780637a1077ea146107dc5780638456cb59146107fe57806385b4bb53146108135780638dfb4a901461086357600080fd5b80636d3d2ca81461077c57806371c1f7511461079c57806372f089d6146107bc57600080fd5b806346fcff4c116102cc5780635a0da8551161026a57806362354e031161023957806362354e031461070f57806362974d4d14610724578063664e841d146107465780636b97900d1461075c57600080fd5b80635a0da8551461069d5780635a3a9d6b146106b35780635aa6e675146106e05780635c975abb146106f557600080fd5b80634f1f612e116102a65780634f1f612e146106245780635267a15d1461064657806352d1902d1461066857806356cd13c91461067d57600080fd5b806346fcff4c146105c457806349820f2f146105fc5780634f1ef2861461061157600080fd5b8063284532ec116103445780633ad6d516116103135780633ad6d516146105355780633b42ae101461056d5780633c7cd9c51461058f5780633f4ba83a146105af57600080fd5b8063284532ec146104a55780632b656fef146104c55780633659cfe6146104e557806337ac744e1461050557600080fd5b806316fc2f6d1161038057806316fc2f6d146104205780631c073f081461044057806320c5f99d146104625780632428927a1461048257600080fd5b806301ffc9a7146103a75780630fcc6f8d146103dc578063108cca7a146103fe575b600080fd5b3480156103b357600080fd5b506103c76103c2366004614d29565b610b36565b60405190151581526020015b60405180910390f35b3480156103e857600080fd5b506103fc6103f7366004614e29565b610b88565b005b34801561040a57600080fd5b50610413610ce1565b6040516103d39190614ef0565b34801561042c57600080fd5b506103fc61043b366004614f84565b610cf2565b34801561044c57600080fd5b50610455610dd5565b6040516103d39190615015565b34801561046e57600080fd5b506103fc61047d366004614f84565b610eae565b34801561048e57600080fd5b5061049761109d565b6040519081526020016103d3565b3480156104b157600080fd5b506103fc6104c036600461507a565b611100565b3480156104d157600080fd5b506103c76104e0366004615093565b611159565b3480156104f157600080fd5b506103fc6105003660046150c7565b611183565b34801561051157600080fd5b506103c761052036600461507a565b60076020526000908152604090205460ff1681565b34801561054157600080fd5b50600654610555906001600160a01b031681565b6040516001600160a01b0390911681526020016103d3565b34801561057957600080fd5b50610582611264565b6040516103d391906150e4565b34801561059b57600080fd5b506103fc6105aa3660046151aa565b6113f2565b3480156105bb57600080fd5b506103fc6114cb565b3480156105d057600080fd5b50601a546105e4906001600160801b031681565b6040516001600160801b0390911681526020016103d3565b34801561060857600080fd5b50600a54610497565b6103fc61061f3660046151df565b611508565b34801561063057600080fd5b506106396115c9565b6040516103d3919061527c565b34801561065257600080fd5b50600080516020615efb83398151915254610555565b34801561067457600080fd5b50610497611702565b34801561068957600080fd5b506103fc6106983660046151aa565b6117b5565b3480156106a957600080fd5b50610497600d5481565b3480156106bf57600080fd5b506106d36106ce36600461507a565b61186b565b6040516103d391906152bf565b3480156106ec57600080fd5b50610555611905565b34801561070157600080fd5b50601c546103c79060ff1681565b34801561071b57600080fd5b506105556119ae565b34801561073057600080fd5b506107396119cf565b6040516103d391906152cd565b34801561075257600080fd5b5061049760055481565b34801561076857600080fd5b506103fc61077736600461507a565b611a82565b34801561078857600080fd5b506103fc610797366004615305565b611b21565b3480156107a857600080fd5b506103fc6107b73660046151aa565b611dbd565b3480156107c857600080fd5b506103fc6107d73660046151aa565b611f5e565b3480156107e857600080fd5b506107f1612021565b6040516103d39190615340565b34801561080a57600080fd5b506103fc6120af565b34801561081f57600080fd5b50601854601954604080516001600160801b038085168252600160801b948590048116602083015280841692820192909252929091041660608201526080016103d3565b34801561086f57600080fd5b5061049761087e36600461507a565b612151565b34801561088f57600080fd5b5061041361215e565b3480156108a457600080fd5b50600054610555906001600160a01b031681565b3480156108c457600080fd5b5061058261216a565b3480156108d957600080fd5b5061049760015481565b3480156108ef57600080fd5b506106d36108fe36600461507a565b6122f4565b34801561090f57600080fd5b50610497600c5481565b34801561092557600080fd5b506103fc61093436600461536a565b612382565b34801561094557600080fd5b506103fc610954366004614f84565b6124b2565b34801561096557600080fd5b506107f161252f565b34801561097a57600080fd5b506103fc610989366004615093565b61253c565b34801561099a57600080fd5b506103fc6109a9366004615457565b61280a565b3480156109ba57600080fd5b506104976109c9366004615526565b6128c1565b3480156109da57600080fd5b50610497612d76565b3480156109ef57600080fd5b5061049760035481565b348015610a0557600080fd5b506103c7610a1436600461507a565b613698565b348015610a2557600080fd5b506103fc610a343660046151aa565b6136a3565b348015610a4557600080fd5b506103c7610a543660046150c7565b6137a3565b348015610a6557600080fd5b50600080516020615f6283398151915254600160a81b900460ff166103c7565b348015610a9157600080fd5b5061049761383d565b348015610aa657600080fd5b506103fc610ab53660046151aa565b613849565b348015610ac657600080fd5b50601a546105e490600160801b90046001600160801b031681565b348015610aed57600080fd5b506103fc613ab2565b348015610b0257600080fd5b506103fc610b113660046151aa565b613b86565b348015610b2257600080fd5b506103fc610b313660046151aa565b613c3c565b60006001600160e01b031982166301ffc9a760e01b1480610b6757506001600160e01b0319821663580605bb60e11b145b80610b8257506001600160e01b03198216631106951d60e01b145b92915050565b6001600160a01b038516610bb75760405162461bcd60e51b8152600401610bae9061558f565b60405180910390fd5b83610bf45760405162461bcd60e51b815260206004820152600d60248201526c34b73b30b634b21031b430b4b760991b6044820152606401610bae565b6000835111610c155760405162461bcd60e51b8152600401610bae9061558f565b6000825111610c365760405162461bcd60e51b8152600401610bae9061558f565b610c408888613dcf565b610c5686600080516020615efb83398151915255565b600080546001600160a01b0319166001600160a01b03871617905560018490556002610c828482615640565b50815160208301206003556004610c998382615640565b5060058190556040517f2b9f127cf369b3d4cb5d54b96a2f4c08fc9224ad91ce66e48e8a0a4073741bc390610ccf908590615340565b60405180910390a15050505050505050565b6060610ced6014613f43565b905090565b610cfa613f50565b604051600080516020615f6283398151915290600090610d1d90859085906156fe565b6040518091039020905081600201600082815260200190815260200160002054600003610d8c5760405162461bcd60e51b815260206004820152601a60248201527f74696d656c6f636b3a20696e76616c69642073656c6563746f720000000000006044820152606401610bae565b6040518181527f69b058d6225c01c1f2a25801ca5b05705fa2e9118e93d518390ba804398c87b19060200160405180910390a16000908152600290910160205260408120555050565b60606012805480602002602001604051908101604052809291908181526020016000905b82821015610ea5578382906000526020600020018054610e18906155b8565b80601f0160208091040260200160405190810160405280929190818152602001828054610e44906155b8565b8015610e915780601f10610e6657610100808354040283529160200191610e91565b820191906000526020600020905b815481529060010190602001808311610e7457829003601f168201915b505050505081526020019060010190610df9565b50505050905090565b600080516020615f62833981519152610ec6336137a3565b610f025760405162461bcd60e51b815260206004820152600d60248201526c37b7363c9032bc32b1baba37b960991b6044820152606401610bae565b60008383604051610f149291906156fe565b60408051918290039091206000818152600285016020529182205490925090819003610f825760405162461bcd60e51b815260206004820152601a60248201527f74696d656c6f636b3a20696e76616c69642073656c6563746f720000000000006044820152606401610bae565b80421015610fd25760405162461bcd60e51b815260206004820152601960248201527f74696d656c6f636b3a206e6f7420616c6c6f77656420796574000000000000006044820152606401610bae565b6000828152600284016020526040808220829055845460ff60b01b1916600160b01b17855551309061100790889088906156fe565b6000604051808303816000865af19150503d8060008114611044576040519150601f19603f3d011682016040523d82523d6000602084013e611049565b606091505b5050845460ff60b01b191685556040518481529091507fec1225e5a8a8acb91e03ce648c683c74f5d152a775b9715980999441d714c44f9060200160405180910390a161109581613fac565b505050505050565b601954601054600f54600092600160801b90046001600160801b0316916110c391615724565b6110cd9190615737565b601b546110ed906001600160801b0380821691600160801b90041661574e565b6001600160801b0316610ced9190615724565b611108613f50565b600580549060006111188361576d565b919050557ffb4d48d51c953bd4b11272d69d0a932777144e6118d519b0a7879889d54c3ca960048360405161114e929190615809565b60405180910390a250565b60008060138360405161116c919061582b565b908152602001604051809103902054119050919050565b61118b613fc9565b1561125757611198613fff565b6001600160a01b037f00000000000000000000000000000000000000000000000000000000000000001630036111e05760405162461bcd60e51b8152600401610bae90615847565b7f00000000000000000000000000000000000000000000000000000000000000006001600160a01b0316611212614043565b6001600160a01b0316146112385760405162461bcd60e51b8152600401610bae90615893565b6040805160008082526020820190925261125491839190614059565b50565b61125460003660006141c4565b600f546060906001600160401b0381111561128157611281614d68565b6040519080825280602002602001820160405280156112cc57816020015b604080516060808201835281526000602080830182905292820152825260001990920191018161129f5790505b50905060005b600f548110156113ee5760116000600f83815481106112f3576112f36158df565b90600052602060002001548152602001908152602001600020604051806060016040529081600082018054611327906155b8565b80601f0160208091040260200160405190810160405280929190818152602001828054611353906155b8565b80156113a05780601f10611375576101008083540402835291602001916113a0565b820191906000526020600020905b81548152906001019060200180831161138357829003601f168201915b5050509183525050600182015460208201526002909101546001600160801b031660409091015282518390839081106113db576113db6158df565b60209081029190910101526001016112d2565b5090565b6113fa613fc9565b156114ba57611407613fff565b60005b818110156114b557611444838383818110611427576114276158df565b905060200201602081019061143c91906150c7565b6014906142db565b156114ad577f44961db59fc60fd4da640bf1e11a0bcc1e5964fa1412832976c07f752309610683838381811061147c5761147c6158df565b905060200201602081019061149191906150c7565b6040516001600160a01b03909116815260200160405180910390a15b60010161140a565b505050565b6114c760003660006141c4565b5050565b6114d3613f50565b601c805460ff191690556040517fa45f47fdea8a1efdd9029a5691c7f759c32b7c698632b563573e155625d1693390600090a1565b611510613fc9565b156114ba5761151d613fff565b6001600160a01b037f00000000000000000000000000000000000000000000000000000000000000001630036115655760405162461bcd60e51b8152600401610bae90615847565b7f00000000000000000000000000000000000000000000000000000000000000006001600160a01b0316611597614043565b6001600160a01b0316146115bd5760405162461bcd60e51b8152600401610bae90615893565b6114c782826001614059565b600d54600a546060916000916115df91906158f5565b9050806001600160401b038111156115f9576115f9614d68565b60405190808252806020026020018201604052801561164b57816020015b6040805160808101825260008082526020808301829052928201819052606082015282526000199092019101816116175790505b50915060005b818110156116fd57600a81600d546116699190615724565b81548110611679576116796158df565b60009182526020918290206040805160808101825260029390930290910180548352600101546001600160801b03811693830193909352600160801b83046001600160401b031690820152600160c01b90910460ff161515606082015283518490839081106116ea576116ea6158df565b6020908102919091010152600101611651565b505090565b6000306001600160a01b037f000000000000000000000000000000000000000000000000000000000000000016146117a25760405162461bcd60e51b815260206004820152603860248201527f555550535570677261646561626c653a206d757374206e6f742062652063616c60448201527f6c6564207468726f7567682064656c656761746563616c6c00000000000000006064820152608401610bae565b50600080516020615f1b83398151915290565b6117bd613f50565b60005b818110156114b5576117fa8383838181106117dd576117dd6158df565b90506020020160208101906117f291906150c7565b6016906142f0565b15611863577f9f8aeb791b3aaf5907baec464ea88b1af7e280cf71d3c18caff2acbc82a2c22d838383818110611832576118326158df565b905060200201602081019061184791906150c7565b6040516001600160a01b03909116815260200160405180910390a15b6001016117c0565b604080516080810182526000808252602082018190529181018290526060810191909152600a82815481106118a2576118a26158df565b60009182526020918290206040805160808101825260029390930290910180548352600101546001600160801b03811693830193909352600160801b83046001600160401b031690820152600160c01b90910460ff161515606082015292915050565b600080516020615f62833981519152805460009190600160a81b900460ff1661193b5760018101546001600160a01b03166119a8565b805460408051631cc9492560e21b815290516001600160a01b03909216916373252494916004808201926020929091908290030181865afa158015611984573d6000803e3d6000fd5b505050506040513d601f19601f820116820180604052508101906119a89190615908565b91505090565b6000600080516020615f628339815191525b546001600160a01b0316919050565b60606000600c546119e06008614305565b6119ea91906158f5565b90506000816001600160401b03811115611a0657611a06614d68565b604051908082528060200260200182016040528015611a2f578160200160208202803683370190505b50905060005b82811015611a7b57611a5681600c54611a4e9190615724565b60089061430f565b828281518110611a6857611a686158df565b6020908102919091010152600101611a35565b5092915050565b611a8a613f50565b6000611a966008614305565b90505b600082118015611aaa5750600c5481115b156114c7576000611ac7611abd83615925565b925060088361430f565b9050611ad460088261431b565b5082611adf81615925565b9350507faa5b497c9e1240353b4326a318841732a45855bab13094f75b10326919ce976f81604051611b1391815260200190565b60405180910390a150611a99565b611b336102a08201610280830161594d565b60ff1615611b745760405162461bcd60e51b815260206004820152600e60248201526d1c185e5b595b9d0819985a5b195960921b6044820152606401610bae565b600154604082013514611bb95760405162461bcd60e51b815260206004820152600d60248201526c34b73b30b634b21031b430b4b760991b6044820152606401610bae565b60065460405163a7a3797560e01b81526001600160a01b039091169063a7a3797590611be9908490600401615ab0565b602060405180830381865afa158015611c06573d6000803e3d6000fd5b505050506040513d601f19601f82011682018060405250810190611c2a9190615b45565b611c6b5760405162461bcd60e51b81526020600482015260126024820152711c185e5b595b9d081b9bdd081c1c9bdd995960721b6044820152606401610bae565b60035461018082013514611cb25760405162461bcd60e51b815260206004820152600e60248201526d1b9bdd0818dbdc99481d985d5b1d60921b6044820152606401610bae565b600061020082013513611cf85760405162461bcd60e51b815260206004820152600e60248201526d1a5b9d985b1a5908185b5bdd5b9d60921b6044820152606401610bae565b60a081013560009081526007602052604090205460ff166112545760a08101356000908152600760205260408120805460ff19166001179055601a805461020084013592839291611d539084906001600160801b031661574e565b82546101009290920a6001600160801b03818102199093169183160217909155604080516102408601358152918416602083015260a085013592507f785b06c3bf892c33bc4741c1a560c56d8491c4074acfe42a5be62cd177dec4cc910160405180910390a25050565b611dc5613fc9565b156114ba57611dd2613fff565b60005b818110156114b5576000838383818110611df157611df16158df565b9050602002810190611e039190615b62565b905011611e225760405162461bcd60e51b8152600401610bae9061558f565b6013838383818110611e3657611e366158df565b9050602002810190611e489190615b62565b604051611e569291906156fe565b908152602001604051809103902054600003611f56576012838383818110611e8057611e806158df565b9050602002810190611e929190615b62565b82546001810184556000938452602090932090920191611eb29183615ba8565b506012546013848484818110611eca57611eca6158df565b9050602002810190611edc9190615b62565b604051611eea9291906156fe565b908152604051908190036020019020557fe576cf96388d010e4c6449ee2ea0d00b4a27a1707aae679f56c50c73b5af6176838383818110611f2d57611f2d6158df565b9050602002810190611f3f9190615b62565b604051611f4d929190615c90565b60405180910390a15b600101611dd5565b611f66613fc9565b156114ba57611f73613fff565b60005b818110156114b557611fb0838383818110611f9357611f936158df565b9050602002016020810190611fa891906150c7565b6014906142f0565b15612019577f60c19f851be58fab2699cb088c41dfef0034de21546285137aa50b36edf4cdc3838383818110611fe857611fe86158df565b9050602002016020810190611ffd91906150c7565b6040516001600160a01b03909116815260200160405180910390a15b600101611f76565b6004805461202e906155b8565b80601f016020809104026020016040519081016040528092919081815260200182805461205a906155b8565b80156120a75780601f1061207c576101008083540402835291602001916120a7565b820191906000526020600020905b81548152906001019060200180831161208a57829003601f168201915b505050505081565b6120b7611905565b6001600160a01b0316336001600160a01b031614806120dc57506120dc601633614327565b6121195760405162461bcd60e51b815260206004820152600e60248201526d1b9bdd08185d5d1a1bdc9a5e995960921b6044820152606401610bae565b601c805460ff191660011790556040517f9e87fac88ff661f02d44f95383c817fece4bce600a3dab7a54406878b965e75290600090a1565b6000610b8260088361430f565b6060610ced6016613f43565b6010546060906001600160401b0381111561218757612187614d68565b6040519080825280602002602001820160405280156121d257816020015b60408051606080820183528152600060208083018290529282015282526000199092019101816121a55790505b50905060005b6010548110156113ee5760116000601083815481106121f9576121f96158df565b9060005260206000200154815260200190815260200160002060405180606001604052908160008201805461222d906155b8565b80601f0160208091040260200160405190810160405280929190818152602001828054612259906155b8565b80156122a65780601f1061227b576101008083540402835291602001916122a6565b820191906000526020600020905b81548152906001019060200180831161228957829003601f168201915b5050509183525050600182015460208201526002909101546001600160801b031660409091015282518390839081106122e1576122e16158df565b60209081029190910101526001016121d8565b6040805160808101825260008082526020820181905291810182905260608101919091526000828152600b602052604090205461233081614349565b60408051608081018252825481526001909201546001600160801b0381166020840152600160801b81046001600160401b031691830191909152600160c01b900460ff16151560608201529392505050565b61238a613fc9565b1561249f57612397613fff565b62015180846001600160801b0316106123e55760405162461bcd60e51b815260206004820152601060248201526f696e76616c696420656e642074696d6560801b6044820152606401610bae565b6000816001600160801b0316116124295760405162461bcd60e51b8152602060048201526008602482015267666565207a65726f60c01b6044820152606401610bae565b6001600160801b03838116600160801b818102878416908117601855848416918202938616938417601955604080519182526020820193909352808301939093526060830152517fc8dd8a2052a4ea200785e999e2eaeef85c19be170d8cdc0ec51e94589eb4a61b9181900360800190a16124ac565b6124ac60003660006141c4565b50505050565b6124ba613fc9565b156114ba576124c7613fff565b806124e45760405162461bcd60e51b8152600401610bae9061558f565b60026124f1828483615ba8565b507f2b9f127cf369b3d4cb5d54b96a2f4c08fc9224ad91ce66e48e8a0a4073741bc38282604051612523929190615c90565b60405180910390a15050565b6002805461202e906155b8565b6125446143b9565b8051602082012060005b600f5481101561263f57600060116000600f8481548110612571576125716158df565b906000526020600020015481526020019081526020016000206000018054612598906155b8565b80601f01602080910402602001604051908101604052809291908181526020018280546125c4906155b8565b80156126115780601f106125e657610100808354040283529160200191612611565b820191906000526020600020905b8154815290600101906020018083116125f457829003601f168201915b505050505090508281805190602001200361262c575061263f565b816126368161576d565b9250505061254e565b600f54811061267c5760405162461bcd60e51b81526020600482015260096024820152681b9bdd08199bdd5b9960ba1b6044820152606401610bae565b6000600f8281548110612691576126916158df565b60009182526020808320909101548083526011909152604082206002810154601b805493955091936001600160801b03918216938493926126d491859116615ca4565b92506101000a8154816001600160801b0302191690836001600160801b031602179055507f8adfda440ffa4621b003393f85ef276a29bf63946200f10ff5d90e83064f5dd98683600101548360405161272f93929190615cc3565b60405180910390a15b600f54612747906001906158f5565b8410156127a757600f61275b856001615724565b8154811061276b5761276b6158df565b9060005260206000200154600f8581548110612789576127896158df565b6000918252602090912001558361279f8161576d565b945050612738565b600f8054806127b8576127b8615cf5565b6000828152602080822083016000199081018390559092019092558482526011905260408120906127e98282614cdf565b506000600182015560020180546001600160801b0319169055505050505050565b600080516020615efb833981519152546001600160a01b0316336001600160a01b0316146128715760405162461bcd60e51b815260206004820152601460248201527337b7363c9030b2323932b9b9903ab83230ba32b960611b6044820152606401610bae565b6128b76128a583836040518060400160405280600e81526020016d20b2323932b9b9aab83230ba32b960911b815250614408565b600080516020615efb83398151915255565b6114c782826144d9565b60006128cb6143b9565b6128d361452f565b6000836001600160801b03161161291a5760405162461bcd60e51b815260206004820152600b60248201526a616d6f756e74207a65726f60a81b6044820152606401610bae565b60138560405161292a919061582b565b9081526020016040518091039020546000036129885760405162461bcd60e51b815260206004820152601760248201527f64657374696e6174696f6e206e6f7420616c6c6f7765640000000000000000006044820152606401610bae565b8451602086012060008315612ac35760005b600f54811015612a4157600060116000600f84815481106129bd576129bd6158df565b90600052602060002001548152602001908152602001600020905083816000016040516129ea9190615d0b565b604051809103902003612a385760405162461bcd60e51b81526020600482015260166024820152757265717565737420616c72656164792065786973747360501b6044820152606401610bae565b5060010161299a565b50601b8054869190600090612a609084906001600160801b031661574e565b82546001600160801b039182166101009390930a92830291909202199091161790555050600e54600f8054600181810183556000929092527f8d1108e10bcb7c27dddfc02ed9d693a074039d026cf4ea4240b40f7d581ac8020191909155612c1a565b60005b601054811015612b875760006011600060108481548110612ae957612ae96158df565b9060005260206000200154815260200190815260200160002090508381600001604051612b169190615d0b565b604051809103902003612b7457600281018054889190600090612b439084906001600160801b031661574e565b92506101000a8154816001600160801b0302191690836001600160801b031602179055508060010154975050612b87565b81612b7e8161576d565b92505050612ac6565b85601b60108282829054906101000a90046001600160801b0316612bab919061574e565b92506101000a8154816001600160801b0302191690836001600160801b031602179055506010805490508103612c1857600e5460108054600181810183556000929092527f1b6847dc741a1b0cd08d278845f9d819d87b734759afb55fe2de5cb82a9ae672019190915591505b505b6000612c2461109d565b601a54909150612c46906001600160801b03600160801b82048116911661574e565b6001600160801b0316811115612c935760405162461bcd60e51b8152602060048201526012602482015271696e73756666696369656e742066756e647360701b6044820152606401610bae565b8115612d2a576040518060600160405280898152602001888152602001876001600160801b031681525060116000600e6000815480929190612cd49061576d565b909155508152602081019190915260400160002081518190612cf69082615640565b5060208201516001820155604090910151600290910180546001600160801b0319166001600160801b039092169190911790555b7fd5ee6afd74a02db8e2aff0882bd64612f6f65fb4e73ed854231a8a088e11d05488888888604051612d5f9493929190615d80565b60405180910390a18693505050505b949350505050565b6000612d8061452f565b612d8b601433614327565b612dc85760405162461bcd60e51b815260206004820152600e60248201526d1b9bdd08185d5d1a1bdc9a5e995960921b6044820152606401610bae565b612dd360001961456b565b50601a546005546019546001600160801b0392831692600160801b9091041680612e2a5760405162461bcd60e51b8152602060048201526008602482015267666565207a65726f60c01b6044820152606401610bae565b600f54601b54600091906001600160801b03165b818310156130eb576000600f8481548110612e5b57612e5b6158df565b60009182526020808320909101548083526011909152604090912060020154909150612e919086906001600160801b031661574e565b6001600160801b0316876001600160801b0316106130d757600081815260116020526040808220815160608101909252805482908290612ed0906155b8565b80601f0160208091040260200160405190810160405280929190818152602001828054612efc906155b8565b8015612f495780601f10612f1e57610100808354040283529160200191612f49565b820191906000526020600020905b815481529060010190602001808311612f2c57829003601f168201915b5050509183525050600182015460208201526002909101546001600160801b0316604091820152810151909150612f8190879061574e565b612f8b9089615ca4565b9750806040015183612f9d9190615ca4565b925086612fa98161576d565b97507ff31ace0071134e7898630b99161ff33bd098afdd18429925c1b8fe3703f0d4326004836000015184604001518a8660200151604051612fef959493929190615dba565b60405180910390a2886130018161576d565b99508590505b6130126001866158f5565b81101561306857600f613026826001615724565b81548110613036576130366158df565b9060005260206000200154600f8281548110613054576130546158df565b600091825260209091200155600101613007565b50600f80548061307a5761307a615cf5565b6000828152602080822083016000199081018390559092019092558382526011905260408120906130ab8282614cdf565b506000600182015560020180546001600160801b0319169055836130ce81615925565b945050506130e5565b836130e18161576d565b9450505b50612e3e565b601b80546001600160801b0319166001600160801b039283161790819055601054600094509250600160801b9004165b818310156133c857600060108481548110613138576131386158df565b6000918252602080832090910154808352601190915260409091206002015490915061316e9086906001600160801b031661574e565b6001600160801b0316876001600160801b0316106133b4576000818152601160205260408082208151606081019092528054829082906131ad906155b8565b80601f01602080910402602001604051908101604052809291908181526020018280546131d9906155b8565b80156132265780601f106131fb57610100808354040283529160200191613226565b820191906000526020600020905b81548152906001019060200180831161320957829003601f168201915b5050509183525050600182015460208201526002909101546001600160801b031660409182015281015190915061325e90879061574e565b6132689089615ca4565b975080604001518361327a9190615ca4565b9250866132868161576d565b97507ff31ace0071134e7898630b99161ff33bd098afdd18429925c1b8fe3703f0d4326004836000015184604001518a86602001516040516132cc959493929190615dba565b60405180910390a2886132de8161576d565b99508590505b6132ef6001866158f5565b811015613345576010613303826001615724565b81548110613313576133136158df565b906000526020600020015460108281548110613331576133316158df565b6000918252602090912001556001016132e4565b50601080548061335757613357615cf5565b6000828152602080822083016000199081018390559092019092558382526011905260408120906133888282614cdf565b506000600182015560020180546001600160801b0319169055836133ab81615925565b945050506133c2565b836133be8161576d565b9450505b5061311b565b601b80546001600160801b03808416600160801b9081029282169290921790925560185404168015806133fb5750600083115b806134075750600f5415155b15613438575050601a80546001600160801b0319166001600160801b03969096169590951790945550506005555090565b600c5460195460009087906134579085906001600160801b031661574e565b613461919061574e565b6001600160801b031690506134766008614305565b601a549095506001600160801b03600160801b90910481169450891681118015906134a057508482105b156136725760006134af61479e565b90505b818a6001600160801b0316101580156134ca57508583105b1561366b576134d9888561574e565b6134e3908b615ca4565b99506134ef848661574e565b9450600061350a846135008161576d565b955060089061430f565b604080516080810182528281526001600160801b0388811660208084019182526001600160401b03888116858701908152600060608701818152600a805460018101825581845289517fc65a7bb8d6351c1cf70c95a316cc6a92839c986682d98bc35f958f4883f9d2a860029092029182015596517fc65a7bb8d6351c1cf70c95a316cc6a92839c986682d98bc35f958f4883f9d2a9909701805494519251979098166001600160c01b031990941693909317600160801b91909416029290921760ff60c01b1916600160c01b94151594909402939093179093559054858352600b90915292902091909155909150818b6136048161576d565b9c507fd16de4df221c5b7206a150305a43a095e5c589acad2201246f144c2ec39eb3be600460028a8f8960405161363f959493929190615e04565b60405180910390a38c6136518161576d565b9d5061366290506201518084615e63565b925050506134b2565b50600c8290555b5050506005949094555050506001600160801b03908116600160801b02911617601a5590565b6000610b828261456b565b6136ab613f50565b60005b818110156114b55760008383838181106136ca576136ca6158df565b905060200201351415801561370657506137068383838181106136ef576136ef6158df565b9050602002013560086148be90919063ffffffff16565b61374a5760405162461bcd60e51b81526020600482015260156024820152740d2dcecc2d8d2c840e0e4cad2dac2ceca40d0c2e6d605b1b6044820152606401610bae565b7fcc2040da958ce1e137b3d9e576249e5d4590200e120858f07eeba715773fa4a083838381811061377d5761377d6158df565b9050602002013560405161379391815260200190565b60405180910390a16001016136ae565b600080516020615f62833981519152805460009190600160a01b900460ff16801561383657508054604051630debfda360e41b81526001600160a01b0385811660048301529091169063debfda3090602401602060405180830381865afa158015613812573d6000803e3d6000fd5b505050506040513d601f19601f820116820180604052508101906138369190615b45565b9392505050565b6000610ced6008614305565b613851613fc9565b156114ba5761385e613fff565b60005b818110156114b5576000601384848481811061387f5761387f6158df565b90506020028101906138919190615b62565b60405161389f9291906156fe565b9081526020016040518091039020549050806000036138be5750613aaa565b601254808210156139d757600060126138d86001846158f5565b815481106138e8576138e86158df565b9060005260206000200180546138fd906155b8565b80601f0160208091040260200160405190810160405280929190818152602001828054613929906155b8565b80156139765780601f1061394b57610100808354040283529160200191613976565b820191906000526020600020905b81548152906001019060200180831161395957829003601f168201915b5050505050905080601260018561398d91906158f5565b8154811061399d5761399d6158df565b9060005260206000200190816139b39190615640565b50826013826040516139c5919061582b565b90815260405190819003602001902055505b60128054806139e8576139e8615cf5565b600190038181906000526020600020016000613a049190614cdf565b90556013858585818110613a1a57613a1a6158df565b9050602002810190613a2c9190615b62565b604051613a3a9291906156fe565b9081526020016040518091039020600090557fa35d07f0278ab7afea1dbe8905da671d026d7fad4e245129e56303b1b2793555858585818110613a7f57613a7f6158df565b9050602002810190613a919190615b62565b604051613a9f929190615c90565b60405180910390a150505b600101613861565b613aba613f50565b600080516020615f628339815191528054600160a81b900460ff1615613b225760405162461bcd60e51b815260206004820152601a60248201527f616c726561647920696e2070726f64756374696f6e206d6f64650000000000006044820152606401610bae565b6001810180546001600160a01b03191690558054600160a81b60ff60a81b1982161782556040516001600160a01b0390911681527f83af113638b5422f9e977cebc0aaf0eaf2188eb9a8baae7f9d46c42b33a1560c9060200160405180910390a150565b613b8e613f50565b60005b818110156114b557613bcb838383818110613bae57613bae6158df565b9050602002016020810190613bc391906150c7565b6016906142db565b15613c34577f319dd39ab6caa236891dbd7721e886a50cf2a124d1ee99cd21ba5d51b6c56bf6838383818110613c0357613c036158df565b9050602002016020810190613c1891906150c7565b6040516001600160a01b03909116815260200160405180910390a15b600101613b91565b613c44613f50565b601a546001600160801b0380821691600160801b90041660005b83811015613db3576000600b6000878785818110613c7e57613c7e6158df565b9050602002013581526020019081526020016000205490506000613ca182614349565b6001810154909150600160c01b900460ff1615613cf35760405162461bcd60e51b815260206004820152601060248201526f185b1c9958591e48199a5b9a5cda195960821b6044820152606401610bae565b60018101805460ff60c01b1916600160c01b179055600d548211613d30576001810154613d29906001600160801b031686615ca4565b9450613d4b565b6001810154613d48906001600160801b031685615ca4565b93505b868684818110613d5d57613d5d6158df565b60018401546040516001600160801b03909116815260209182029390930135927f0451a3f480962e8772a6b24baac2d7869b328d0297ac8a8bef0723624e36424b92500160405180910390a25050600101613c5e565b506001600160801b03908116600160801b02911617601a555050565b600080516020615f628339815191528054600160a01b900460ff1615613e2e5760405162461bcd60e51b8152602060048201526014602482015273696e697469616c6973656420213d2066616c736560601b6044820152606401610bae565b6001600160a01b038316613e845760405162461bcd60e51b815260206004820152601860248201527f676f7665726e616e63652073657474696e6773207a65726f00000000000000006044820152606401610bae565b6001600160a01b038216613ecd5760405162461bcd60e51b815260206004820152601060248201526f5f676f7665726e616e6365207a65726f60801b6044820152606401610bae565b80546001600160a01b038481166001600160a81b031990921691909117600160a01b1782556001820180549184166001600160a01b0319909216821790556040519081527f9789733827840833afc031fb2ef9ab6894271f77bad2085687cf4ae5c7bee4db9060200160405180910390a1505050565b60606000613836836148ca565b613f58611905565b6001600160a01b0316336001600160a01b031614613faa5760405162461bcd60e51b815260206004820152600f60248201526e6f6e6c7920676f7665726e616e636560881b6044820152606401610bae565b565b3d604051818101604052816000823e8215613fc5578181f35b8181fd5b600080516020615f62833981519152805460009190600160b01b900460ff16806119a8575054600160a81b900460ff1615919050565b600080516020615f628339815191528054600160b01b900460ff161561403b5733301461402e5761402e615e82565b805460ff60b01b19169055565b611254613f50565b6000600080516020615f1b8339815191526119c0565b7f4910fdfa16fed3260ed0e7147f7cc6da11a60208b5b9406d12a635614ffd91435460ff161561408c576114b583614926565b826001600160a01b03166352d1902d6040518163ffffffff1660e01b8152600401602060405180830381865afa9250505080156140e6575060408051601f3d908101601f191682019092526140e391810190615e98565b60015b6141495760405162461bcd60e51b815260206004820152602e60248201527f45524331393637557067726164653a206e657720696d706c656d656e7461746960448201526d6f6e206973206e6f74205555505360901b6064820152608401610bae565b600080516020615f1b83398151915281146141b85760405162461bcd60e51b815260206004820152602960248201527f45524331393637557067726164653a20756e737570706f727465642070726f786044820152681a58589b195555525160ba1b6064820152608401610bae565b506114b58383836149c2565b600080516020615f628339815191526141db613f50565b600084846040516141ed9291906156fe565b604080519182900382208454636221a54b60e01b845291519093506000926001600160a01b0390921691636221a54b9160048083019260209291908290030181865afa158015614241573d6000803e3d6000fd5b505050506040513d601f19601f820116820180604052508101906142659190615e98565b9050838110156142725750825b600061427e8242615724565b600084815260028601602052604090819020829055519091507f8c02104dfc280f713854f25297de671710c544c58de69dbde8fb66974ce1ab9e906142ca908990899087908690615eb1565b60405180910390a150505050505050565b6000613836836001600160a01b0384166149e7565b6000613836836001600160a01b038416614a36565b6000610b82825490565b60006138368383614b29565b60006138368383614a36565b6001600160a01b03811660009081526001830160205260408120541515613836565b6000816000036143875760405162461bcd60e51b81526020600482015260096024820152681b9bdd08199bdd5b9960ba1b6044820152606401610bae565b600a6143946001846158f5565b815481106143a4576143a46158df565b90600052602060002090600202019050919050565b6000546001600160a01b03163314613faa5760405162461bcd60e51b815260206004820152601260248201527137b7363c9030b9b9b2ba1036b0b730b3b2b960711b6044820152606401610bae565b6000808260405160200161441c9190615340565b6040516020818303038152906040528051906020012090506000805b865181101561448a57868181518110614453576144536158df565b6020026020010151830361448257858181518110614473576144736158df565b6020026020010151915061448a565b600101614438565b506001600160a01b0381166144d05760405162461bcd60e51b815260206004820152600c60248201526b61646472657373207a65726f60a01b6044820152606401610bae565b95945050505050565b61450b82826040518060400160405280600f81526020016e233231ab32b934b334b1b0ba34b7b760891b815250614408565b600680546001600160a01b0319166001600160a01b03929092169190911790555050565b601c5460ff1615613faa5760405162461bcd60e51b81526020600482015260066024820152651c185d5cd95960d21b6044820152606401610bae565b601a54600d546000916001600160801b0380821692600160801b90920416905b60008511801561459c5750600a5481105b8015614616575042600a82815481106145b7576145b76158df565b6000918252602090912060029091020160010154600160801b90046001600160401b03161115806146165750600a81815481106145f6576145f66158df565b906000526020600020906002020160010160189054906101000a900460ff165b156146bf57600a818154811061462e5761462e6158df565b906000526020600020906002020160010160189054906101000a900460ff1661469f576000600a8281548110614666576146666158df565b60009182526020909120600160029092020101546001600160801b0316905061468f818561574e565b935061469b8184615ca4565b9250505b806146a98161576d565b91505084806146b790615925565b95505061458b565b600d8190556001600160801b03828116600160801b0290841617601a55841515806146eb5750600a5481145b80614765575042600a8281548110614705576147056158df565b6000918252602090912060029091020160010154600160801b90046001600160401b03161180156147655750600a8181548110614744576147446158df565b906000526020600020906002020160010160189054906101000a900460ff16155b935083614796576040517f0306fa81e0cf1311aeee18d2d319bb52e97692b3b5ff4144eba92e5f6d59b40990600090a15b505050919050565b600a5460009081905b600d5481111561484b57600a6147be6001836158f5565b815481106147ce576147ce6158df565b906000526020600020906002020160010160189054906101000a900460ff1661483957600a6147fe6001836158f5565b8154811061480e5761480e6158df565b6000918252602090912060029091020160010154600160801b90046001600160401b0316915061484b565b8061484381615925565b9150506147a7565b506148568142614b53565b90506148656201518082615724565b6018549091506001600160801b03166148816201518083615ed8565b61488b90836158f5565b6148959190615724565b90506148a34261a8c0615724565b81116148b9576148b66201518082615724565b90505b919050565b600061383683836149e7565b60608160000180548060200260200160405190810160405280929190818152602001828054801561491a57602002820191906000526020600020905b815481526020019060010190808311614906575b50505050509050919050565b6001600160a01b0381163b6149935760405162461bcd60e51b815260206004820152602d60248201527f455243313936373a206e657720696d706c656d656e746174696f6e206973206e60448201526c1bdd08184818dbdb9d1c9858dd609a1b6064820152608401610bae565b600080516020615f1b83398151915280546001600160a01b0319166001600160a01b0392909216919091179055565b6149cb83614b69565b6000825111806149d85750805b156114b5576124ac8383614ba9565b6000818152600183016020526040812054614a2e57508154600181810184556000848152602080822090930184905584548482528286019093526040902091909155610b82565b506000610b82565b60008181526001830160205260408120548015614b1f576000614a5a6001836158f5565b8554909150600090614a6e906001906158f5565b9050818114614ad3576000866000018281548110614a8e57614a8e6158df565b9060005260206000200154905080876000018481548110614ab157614ab16158df565b6000918252602080832090910192909255918252600188019052604090208390555b8554869080614ae457614ae4615cf5565b600190038181906000526020600020016000905590558560010160008681526020019081526020016000206000905560019350505050610b82565b6000915050610b82565b6000826000018281548110614b4057614b406158df565b9060005260206000200154905092915050565b6000818311614b625781613836565b5090919050565b614b7281614926565b6040516001600160a01b038216907fbc7cd75a20ee27fd9adebab32041f755214dbc6bffa90cc0225b39da2e5c2d3b90600090a250565b60606138368383604051806060016040528060278152602001615f3b602791396060600080856001600160a01b031685604051614be6919061582b565b600060405180830381855af49150503d8060008114614c21576040519150601f19603f3d011682016040523d82523d6000602084013e614c26565b606091505b5091509150614c3786838387614c41565b9695505050505050565b60608315614cb0578251600003614ca9576001600160a01b0385163b614ca95760405162461bcd60e51b815260206004820152601d60248201527f416464726573733a2063616c6c20746f206e6f6e2d636f6e74726163740000006044820152606401610bae565b5081612d6e565b612d6e8383815115614cc55781518083602001fd5b8060405162461bcd60e51b8152600401610bae9190615340565b508054614ceb906155b8565b6000825580601f10614cfb575050565b601f01602090049060005260206000209081019061125491905b808211156113ee5760008155600101614d15565b600060208284031215614d3b57600080fd5b81356001600160e01b03198116811461383657600080fd5b6001600160a01b038116811461125457600080fd5b634e487b7160e01b600052604160045260246000fd5b604051601f8201601f191681016001600160401b0381118282101715614da657614da6614d68565b604052919050565b6000806001600160401b03841115614dc857614dc8614d68565b50601f8301601f1916602001614ddd81614d7e565b915050828152838383011115614df257600080fd5b828260208301376000602084830101529392505050565b600082601f830112614e1a57600080fd5b61383683833560208501614dae565b600080600080600080600080610100898b031215614e4657600080fd5b8835614e5181614d53565b97506020890135614e6181614d53565b96506040890135614e7181614d53565b95506060890135614e8181614d53565b94506080890135935060a08901356001600160401b03811115614ea357600080fd5b614eaf8b828c01614e09565b93505060c08901356001600160401b03811115614ecb57600080fd5b614ed78b828c01614e09565b989b979a50959894979396929550929360e00135925050565b602080825282518282018190526000918401906040840190835b81811015614f315783516001600160a01b0316835260209384019390920191600101614f0a565b509095945050505050565b60008083601f840112614f4e57600080fd5b5081356001600160401b03811115614f6557600080fd5b602083019150836020828501011115614f7d57600080fd5b9250929050565b60008060208385031215614f9757600080fd5b82356001600160401b03811115614fad57600080fd5b614fb985828601614f3c565b90969095509350505050565b60005b83811015614fe0578181015183820152602001614fc8565b50506000910152565b60008151808452615001816020860160208601614fc5565b601f01601f19169290920160200192915050565b6000602082016020835280845180835260408501915060408160051b86010192506020860160005b8281101561506e57603f19878603018452615059858351614fe9565b9450602093840193919091019060010161503d565b50929695505050505050565b60006020828403121561508c57600080fd5b5035919050565b6000602082840312156150a557600080fd5b81356001600160401b038111156150bb57600080fd5b612d6e84828501614e09565b6000602082840312156150d957600080fd5b813561383681614d53565b6000602082016020835280845180835260408501915060408160051b86010192506020860160005b8281101561506e57603f1987860301845281518051606087526151326060880182614fe9565b602083810151898201526040938401516001600160801b03169390980192909252509493840193919091019060010161510c565b60008083601f84011261517857600080fd5b5081356001600160401b0381111561518f57600080fd5b6020830191508360208260051b8501011115614f7d57600080fd5b600080602083850312156151bd57600080fd5b82356001600160401b038111156151d357600080fd5b614fb985828601615166565b600080604083850312156151f257600080fd5b82356151fd81614d53565b915060208301356001600160401b0381111561521857600080fd5b8301601f8101851361522957600080fd5b61523885823560208401614dae565b9150509250929050565b805182526001600160801b0360208201511660208301526001600160401b0360408201511660408301526060810151151560608301525050565b602080825282518282018190526000918401906040840190835b81811015614f31576152a9838551615242565b6020939093019260809290920191600101615296565b60808101610b828284615242565b602080825282518282018190526000918401906040840190835b81811015614f315783518352602093840193909201916001016152e7565b60006020828403121561531757600080fd5b81356001600160401b0381111561532d57600080fd5b82016102a0818503121561383657600080fd5b6020815260006138366020830184614fe9565b80356001600160801b03811681146148b957600080fd5b6000806000806080858703121561538057600080fd5b61538985615353565b935061539760208601615353565b92506153a560408601615353565b91506153b360608601615353565b905092959194509250565b60006001600160401b038211156153d7576153d7614d68565b5060051b60200190565b600082601f8301126153f257600080fd5b8135615405615400826153be565b614d7e565b8082825260208201915060208360051b86010192508583111561542757600080fd5b602085015b8381101561544d57803561543f81614d53565b83526020928301920161542c565b5095945050505050565b6000806040838503121561546a57600080fd5b82356001600160401b0381111561548057600080fd5b8301601f8101851361549157600080fd5b803561549f615400826153be565b8082825260208201915060208360051b8501019250878311156154c157600080fd5b6020840193505b828410156154e35783358252602093840193909101906154c8565b945050505060208301356001600160401b0381111561550157600080fd5b615238858286016153e1565b801515811461125457600080fd5b80356148b98161550d565b6000806000806080858703121561553c57600080fd5b84356001600160401b0381111561555257600080fd5b61555e87828801614e09565b9450506020850135925061557460408601615353565b915060608501356155848161550d565b939692955090935050565b6020808252600f908201526e696e76616c6964206164647265737360881b604082015260600190565b600181811c908216806155cc57607f821691505b6020821081036155ec57634e487b7160e01b600052602260045260246000fd5b50919050565b601f8211156114b557806000526020600020601f840160051c810160208510156156195750805b601f840160051c820191505b818110156156395760008155600101615625565b5050505050565b81516001600160401b0381111561565957615659614d68565b61566d8161566784546155b8565b846155f2565b6020601f8211600181146156a157600083156156895750848201515b600019600385901b1c1916600184901b178455615639565b600084815260208120601f198516915b828110156156d157878501518255602094850194600190920191016156b1565b50848210156156ef5786840151600019600387901b60f8161c191681555b50505050600190811b01905550565b8183823760009101908152919050565b634e487b7160e01b600052601160045260246000fd5b80820180821115610b8257610b8261570e565b8082028115828204841417610b8257610b8261570e565b6001600160801b038181168382160190811115610b8257610b8261570e565b60006001820161577f5761577f61570e565b5060010190565b60008154615793816155b8565b8085526001821680156157ad57600181146157c957615800565b60ff1983166020870152602082151560051b8701019350615800565b84600052602060002060005b838110156157f75781546020828a0101526001820191506020810190506157d5565b87016020019450505b50505092915050565b60408152600061581c6040830185615786565b90508260208301529392505050565b6000825161583d818460208701614fc5565b9190910192915050565b6020808252602c908201527f46756e6374696f6e206d7573742062652063616c6c6564207468726f7567682060408201526b19195b1959d85d1958d85b1b60a21b606082015260800190565b6020808252602c908201527f46756e6374696f6e206d7573742062652063616c6c6564207468726f7567682060408201526b6163746976652070726f787960a01b606082015260800190565b634e487b7160e01b600052603260045260246000fd5b81810381811115610b8257610b8261570e565b60006020828403121561591a57600080fd5b815161383681614d53565b6000816159345761593461570e565b506000190190565b803560ff811681146148b957600080fd5b60006020828403121561595f57600080fd5b6138368261593c565b80356001600160401b03811681146148b957600080fd5b80358252602080820135908301526001600160401b036159a160408301615968565b1660408301526001600160401b036159bb60608301615968565b1660608301526080818101359083015260a0808201359083015260c08082013590830152615a0060e0808401906159f3908401615968565b6001600160401b03169052565b615a0d6101008201615968565b6001600160401b031661010083015261012081810135908301526101408082013590830152610160808201359083015261018080820135908301526101a080820135908301526101c080820135908301526101e0808201359083015261020080820135908301526102208082013590830152615a8c610240820161551b565b1515610240830152615aa1610260820161593c565b60ff8116610260840152505050565b6020815260008235601e19843603018112615aca57600080fd5b83016020810190356001600160401b03811115615ae657600080fd5b8060051b803603831315615af957600080fd5b6102a060208601526102c085018290526001600160fb1b03821115615b1d57600080fd5b80836102e0870137615b35604086016020880161597f565b939093016102e001949350505050565b600060208284031215615b5757600080fd5b81516138368161550d565b6000808335601e19843603018112615b7957600080fd5b8301803591506001600160401b03821115615b9357600080fd5b602001915036819003821315614f7d57600080fd5b6001600160401b03831115615bbf57615bbf614d68565b615bd383615bcd83546155b8565b836155f2565b6000601f841160018114615c075760008515615bef5750838201355b600019600387901b1c1916600186901b178355615639565b600083815260209020601f19861690835b82811015615c385786850135825560209485019460019092019101615c18565b5086821015615c555760001960f88860031b161c19848701351681555b505060018560011b0183555050505050565b81835281816020850137506000828201602090810191909152601f909101601f19169091010190565b602081526000612d6e602083018486615c67565b6001600160801b038281168282160390811115610b8257610b8261570e565b606081526000615cd66060830186614fe9565b90508360208301526001600160801b0383166040830152949350505050565b634e487b7160e01b600052603160045260246000fd5b6000808354615d19816155b8565b600182168015615d305760018114615d4557615d75565b60ff1983168652811515820286019350615d75565b86600052602060002060005b83811015615d6d57815488820152600190910190602001615d51565b505081860193505b509195945050505050565b608081526000615d936080830187614fe9565b6020830195909552506001600160801b039290921660408301521515606090910152919050565b60a081526000615dcd60a0830188615786565b8281036020840152615ddf8188614fe9565b6001600160801b03968716604085015294909516606083015250608001529392505050565b60a081526000615e1760a0830188615786565b8281036020840152615e298188615786565b9150506001600160801b03851660408301526001600160801b03841660608301526001600160401b03831660808301529695505050505050565b6001600160401b038181168382160190811115610b8257610b8261570e565b634e487b7160e01b600052600160045260246000fd5b600060208284031215615eaa57600080fd5b5051919050565b606081526000615ec5606083018688615c67565b6020830194909452506040015292915050565b600082615ef557634e487b7160e01b600052601260045260246000fd5b50069056fe714f205b2abd25bef1d06a1af944e38c113fe6160375c4e1d6d5cf28848e7719360894a13ba1a3210667c828492db98dca3e2076cc3735a920a3ca505d382bbc416464726573733a206c6f772d6c6576656c2064656c65676174652063616c6c206661696c65642aa47ee5db910f3b2a06970c443249cc77dbd9f96100cfebc1775ab7fb1d1824a26469706673582212203db30f17f9437a8c2f5596d731802ed1aefe644b16c403af8c3d9ade521ba99864736f6c634300081b0033",
  "linkReferences": {},
  "deployedLinkReferences": {}
}