{
  "_format": "hh-sol-artifact-1",
  "contractName": "UnderlyingBalanceFacet",
  "sourceName": "contracts/assetManager/facets/UnderlyingBalanceFacet.sol",
  "abi": [
    {
      "inputs": [],
      "name": "AnnouncedUnderlyingWithdrawalActive",
      "type": "error"
    },
    {
      "inputs": [],
      "name": "DivisionByZero",
      "type": "error"
    },
    {
      "inputs": [],
      "name": "EmergencyPauseActive",
      "type": "error"
    },
    {
      "inputs": [],
      "name": "InvalidAgentVaultAddress",
      "type": "error"
    },
    {
      "inputs": [],
      "name": "InvalidChain",
      "type": "error"
    },
    {
      "inputs": [],
      "name": "LegalPaymentNotProven",
      "type": "error"
    },
    {
      "inputs": [],
      "name": "NoActiveAnnouncement",
      "type": "error"
    },
    {
      "inputs": [],
      "name": "NotATopupPayment",
      "type": "error"
    },
    {
      "inputs": [],
      "name": "NotAttached",
      "type": "error"
    },
    {
      "inputs": [],
      "name": "NotUnderlyingAddress",
      "type": "error"
    },
    {
      "inputs": [],
      "name": "NotWhitelisted",
      "type": "error"
    },
    {
      "inputs": [],
      "name": "OnlyAgentVaultOwner",
      "type": "error"
    },
    {
      "inputs": [],
      "name": "OnlyAssetManagerController",
      "type": "error"
    },
    {
      "inputs": [],
      "name": "PaymentAlreadyConfirmed",
      "type": "error"
    },
    {
      "inputs": [],
      "name": "PaymentFailed",
      "type": "error"
    },
    {
      "inputs": [],
      "name": "ReentrancyGuardReentrantCall",
      "type": "error"
    },
    {
      "inputs": [],
      "name": "TopupBeforeAgentCreated",
      "type": "error"
    },
    {
      "inputs": [],
      "name": "WrongAnnouncedPaymentReference",
      "type": "error"
    },
    {
      "inputs": [],
      "name": "WrongAnnouncedPaymentSource",
      "type": "error"
    },
    {
      "anonymous": false,
      "inputs": [
        {
          "indexed": false,
          "internalType": "uint256",
          "name": "underlyingBlockNumber",
          "type": "uint256"
        },
        {
          "indexed": false,
          "internalType": "uint256",
          "name": "underlyingBlockTimestamp",
          "type": "uint256"
        },
        {
          "indexed": false,
          "internalType": "uint256",
          "name": "updatedAt",
          "type": "uint256"
        }
      ],
      "name": "CurrentUnderlyingBlockUpdated",
      "type": "event"
    },
    {
      "anonymous": false,
      "inputs": [
        {
          "indexed": true,
          "internalType": "address",
          "name": "agentVault",
          "type": "address"
        },
        {
          "indexed": false,
          "internalType": "uint256",
          "name": "timestamp",
          "type": "uint256"
        }
      ],
      "name": "FullLiquidationStarted",
      "type": "event"
    },
    {
      "anonymous": false,
      "inputs": [
        {
          "indexed": true,
          "internalType": "address",
          "name": "agentVault",
          "type": "address"
        },
        {
          "indexed": false,
          "internalType": "int256",
          "name": "underlyingBalanceUBA",
          "type": "int256"
        }
      ],
      "name": "UnderlyingBalanceChanged",
      "type": "event"
    },
    {
      "anonymous": false,
      "inputs": [
        {
          "indexed": true,
          "internalType": "address",
          "name": "agentVault",
          "type": "address"
        },
        {
          "indexed": false,
          "internalType": "int256",
          "name": "balance",
          "type": "int256"
        },
        {
          "indexed": false,
          "internalType": "uint256",
          "name": "requiredBalance",
          "type": "uint256"
        }
      ],
      "name": "UnderlyingBalanceTooLow",
      "type": "event"
    },
    {
      "anonymous": false,
      "inputs": [
        {
          "indexed": true,
          "internalType": "address",
          "name": "agentVault",
          "type": "address"
        },
        {
          "indexed": false,
          "internalType": "bytes32",
          "name": "transactionHash",
          "type": "bytes32"
        },
        {
          "indexed": false,
          "internalType": "uint256",
          "name": "depositedUBA",
          "type": "uint256"
        }
      ],
      "name": "UnderlyingBalanceToppedUp",
      "type": "event"
    },
    {
      "anonymous": false,
      "inputs": [
        {
          "indexed": true,
          "internalType": "address",
          "name": "agentVault",
          "type": "address"
        },
        {
          "indexed": true,
          "internalType": "uint256",
          "name": "announcementId",
          "type": "uint256"
        },
        {
          "indexed": false,
          "internalType": "bytes32",
          "name": "paymentReference",
          "type": "bytes32"
        }
      ],
      "name": "UnderlyingWithdrawalAnnounced",
      "type": "event"
    },
    {
      "anonymous": false,
      "inputs": [
        {
          "indexed": true,
          "internalType": "address",
          "name": "agentVault",
          "type": "address"
        },
        {
          "indexed": true,
          "internalType": "uint256",
          "name": "announcementId",
          "type": "uint256"
        }
      ],
      "name": "UnderlyingWithdrawalCancelled",
      "type": "event"
    },
    {
      "anonymous": false,
      "inputs": [
        {
          "indexed": true,
          "internalType": "address",
          "name": "agentVault",
          "type": "address"
        },
        {
          "indexed": true,
          "internalType": "uint256",
          "name": "announcementId",
          "type": "uint256"
        },
        {
          "indexed": false,
          "internalType": "int256",
          "name": "spentUBA",
          "type": "int256"
        },
        {
          "indexed": false,
          "internalType": "bytes32",
          "name": "transactionHash",
          "type": "bytes32"
        }
      ],
      "name": "UnderlyingWithdrawalConfirmed",
      "type": "event"
    },
    {
      "inputs": [
        {
          "internalType": "address",
          "name": "_agentVault",
          "type": "address"
        }
      ],
      "name": "announceUnderlyingWithdrawal",
      "outputs": [],
      "stateMutability": "nonpayable",
      "type": "function"
    },
    {
      "inputs": [
        {
          "internalType": "address",
          "name": "_agentVault",
          "type": "address"
        }
      ],
      "name": "cancelUnderlyingWithdrawal",
      "outputs": [],
      "stateMutability": "nonpayable",
      "type": "function"
    },
    {
      "inputs": [
        {
          "components": [
            {
              "internalType": "bytes32[]",
              "name": "merkleProof",
              "type": "bytes32[]"
            },
            {
              "components": [
                {
                  "internalType": "bytes32",
                  "name": "attestationType",
                  "type": "bytes32"
                },
                {
                  "internalType": "bytes32",
                  "name": "sourceId",
                  "type": "bytes32"
                },
                {
                  "internalType": "uint64",
                  "name": "votingRound",
                  "type": "uint64"
                },
                {
                  "internalType": "uint64",
                  "name": "lowestUsedTimestamp",
                  "type": "uint64"
                },
                {
                  "components": [
                    {
                      "internalType": "bytes32",
                      "name": "transactionId",
                      "type": "bytes32"
                    },
                    {
                      "internalType": "uint256",
                      "name": "inUtxo",
                      "type": "uint256"
                    },
                    {
                      "internalType": "uint256",
                      "name": "utxo",
                      "type": "uint256"
                    }
                  ],
                  "internalType": "struct IPayment.RequestBody",
                  "name": "requestBody",
                  "type": "tuple"
                },
                {
                  "components": [
                    {
                      "internalType": "uint64",
                      "name": "blockNumber",
                      "type": "uint64"
                    },
                    {
                      "internalType": "uint64",
                      "name": "blockTimestamp",
                      "type": "uint64"
                    },
                    {
                      "internalType": "bytes32",
                      "name": "sourceAddressHash",
                      "type": "bytes32"
                    },
                    {
                      "internalType": "bytes32",
                      "name": "sourceAddressesRoot",
                      "type": "bytes32"
                    },
                    {
                      "internalType": "bytes32",
                      "name": "receivingAddressHash",
                      "type": "bytes32"
                    },
                    {
                      "internalType": "bytes32",
                      "name": "intendedReceivingAddressHash",
                      "type": "bytes32"
                    },
                    {
                      "internalType": "int256",
                      "name": "spentAmount",
                      "type": "int256"
                    },
                    {
                      "internalType": "int256",
                      "name": "intendedSpentAmount",
                      "type": "int256"
                    },
                    {
                      "internalType": "int256",
                      "name": "receivedAmount",
                      "type": "int256"
                    },
                    {
                      "internalType": "int256",
                      "name": "intendedReceivedAmount",
                      "type": "int256"
                    },
                    {
                      "internalType": "bytes32",
                      "name": "standardPaymentReference",
                      "type": "bytes32"
                    },
                    {
                      "internalType": "bool",
                      "name": "oneToOne",
                      "type": "bool"
                    },
                    {
                      "internalType": "uint8",
                      "name": "status",
                      "type": "uint8"
                    }
                  ],
                  "internalType": "struct IPayment.ResponseBody",
                  "name": "responseBody",
                  "type": "tuple"
                }
              ],
              "internalType": "struct IPayment.Response",
              "name": "data",
              "type": "tuple"
            }
          ],
          "internalType": "struct IPayment.Proof",
          "name": "_payment",
          "type": "tuple"
        },
        {
          "internalType": "address",
          "name": "_agentVault",
          "type": "address"
        }
      ],
      "name": "confirmTopupPayment",
      "outputs": [],
      "stateMutability": "nonpayable",
      "type": "function"
    },
    {
      "inputs": [
        {
          "components": [
            {
              "internalType": "bytes32[]",
              "name": "merkleProof",
              "type": "bytes32[]"
            },
            {
              "components": [
                {
                  "internalType": "bytes32",
                  "name": "attestationType",
                  "type": "bytes32"
                },
                {
                  "internalType": "bytes32",
                  "name": "sourceId",
                  "type": "bytes32"
                },
                {
                  "internalType": "uint64",
                  "name": "votingRound",
                  "type": "uint64"
                },
                {
                  "internalType": "uint64",
                  "name": "lowestUsedTimestamp",
                  "type": "uint64"
                },
                {
                  "components": [
                    {
                      "internalType": "bytes32",
                      "name": "transactionId",
                      "type": "bytes32"
                    },
                    {
                      "internalType": "uint256",
                      "name": "inUtxo",
                      "type": "uint256"
                    },
                    {
                      "internalType": "uint256",
                      "name": "utxo",
                      "type": "uint256"
                    }
                  ],
                  "internalType": "struct IPayment.RequestBody",
                  "name": "requestBody",
                  "type": "tuple"
                },
                {
                  "components": [
                    {
                      "internalType": "uint64",
                      "name": "blockNumber",
                      "type": "uint64"
                    },
                    {
                      "internalType": "uint64",
                      "name": "blockTimestamp",
                      "type": "uint64"
                    },
                    {
                      "internalType": "bytes32",
                      "name": "sourceAddressHash",
                      "type": "bytes32"
                    },
                    {
                      "internalType": "bytes32",
                      "name": "sourceAddressesRoot",
                      "type": "bytes32"
                    },
                    {
                      "internalType": "bytes32",
                      "name": "receivingAddressHash",
                      "type": "bytes32"
                    },
                    {
                      "internalType": "bytes32",
                      "name": "intendedReceivingAddressHash",
                      "type": "bytes32"
                    },
                    {
                      "internalType": "int256",
                      "name": "spentAmount",
                      "type": "int256"
                    },
                    {
                      "internalType": "int256",
                      "name": "intendedSpentAmount",
                      "type": "int256"
                    },
                    {
                      "internalType": "int256",
                      "name": "receivedAmount",
                      "type": "int256"
                    },
                    {
                      "internalType": "int256",
                      "name": "intendedReceivedAmount",
                      "type": "int256"
                    },
                    {
                      "internalType": "bytes32",
                      "name": "standardPaymentReference",
                      "type": "bytes32"
                    },
                    {
                      "internalType": "bool",
                      "name": "oneToOne",
                      "type": "bool"
                    },
                    {
                      "internalType": "uint8",
                      "name": "status",
                      "type": "uint8"
                    }
                  ],
                  "internalType": "struct IPayment.ResponseBody",
                  "name": "responseBody",
                  "type": "tuple"
                }
              ],
              "internalType": "struct IPayment.Response",
              "name": "data",
              "type": "tuple"
            }
          ],
          "internalType": "struct IPayment.Proof",
          "name": "_payment",
          "type": "tuple"
        },
        {
          "internalType": "address",
          "name": "_agentVault",
          "type": "address"
        }
      ],
      "name": "confirmUnderlyingWithdrawal",
      "outputs": [],
      "stateMutability": "nonpayable",
      "type": "function"
    }
  ],
  "bytecode": "0x6080604052348015600f57600080fd5b50611d668061001f6000396000f3fe608060405234801561001057600080fd5b506004361061004c5760003560e01c80630529cf5a1461005157806387b4fac614610066578063a07ea7af14610079578063c0674b461461008c575b600080fd5b61006461005f366004611617565b61009f565b005b610064610074366004611617565b6102b3565b61006461008736600461166e565b610420565b61006461009a36600461166e565b6104c5565b6100a7610641565b600080516020611d11833981519152600080516020611cd18339815191526100ce8461068b565b60006100d98461079b565b905060006100e78233610824565b6006830154909150600160c01b90046001600160401b03166000819003610121576040516337af441960e01b815260040160405180910390fd5b6000610135826001600160401b0316610867565b9050610240880135811461015c57604051631c3a097560e11b815260040160405180910390fd5b60038401546101408901351461018557604051633325d03960e01b815260040160405180910390fd5b82806101bf5750600e85015460078501546101b3916001600160401b03600160901b909104811691166116a1565b6001600160401b031642115b6101dc5760405163f6e2f99b60e01b815260040160405180910390fd5b6101e9600b870189610891565b6006840180546001600160c01b031690556102118461020c6101c08b01356116c0565b6108cd565b82610220576102208433610a1b565b61022988610a78565b604080516101c08a0135815260a08a013560208201526001600160401b038416916001600160a01b038a16917f87c03bd81173da373bb690f5c425a339854b84c89a0ad36544feed7d28b27980910160405180910390a35050505050506102af60017f0cd2207518cd3e5213e2c6dbe63d55b60aa893c194a427b7d7f1600408fd5bde55565b5050565b806102bd81610aa9565b60006102c88361079b565b9050600080516020611d118339815191526102e285610ad8565b60038201546101808601351461030b57604051630937ccc560e31b815260040160405180910390fd5b67464250526641001160c01b6001600160a01b038516176102408601351461034657604051631c3ded8f60e21b815260040160405180910390fd5b600a8201546001600160401b0316610366610120870161010088016116f3565b6001600160401b03161161038d5760405163bff8d3ad60e01b815260040160405180910390fd5b61039a600b820186610b16565b60006103aa610200870135610b24565b90506103c7836103b983610b7f565b6001600160801b0316610ba8565b6103d086610a78565b6040805160a08801358152602081018390526001600160a01b038716917f4a204fd1cc26ecb86a5e85bb72577205ecc986e7376f08cd30e4b75a9636e177910160405180910390a2505050505050565b8061042a81610aa9565b60006104358361079b565b6006810154909150600160c01b90046001600160401b0316600081900361046f576040516337af441960e01b815260040160405180910390fd5b6006820180546001600160c01b031690556040516001600160401b038216906001600160a01b038616907f692a613b737313ed162e5603636ae3d26398b985825ee995ca8ff0f86b3942c690600090a350505050565b806104cf81610aa9565b600080516020611d1183398151915260006104e98461079b565b6006810154909150600160c01b90046001600160401b03161561051f5760405163c84cfbb160e01b815260040160405180910390fd5b610527610c6b565b600e8301805460109061054b908490600160801b90046001600160401b03166116a1565b92506101000a8154816001600160401b0302191690836001600160401b03160217905550600082600e0160109054906101000a90046001600160401b03169050808260060160186101000a8154816001600160401b0302191690836001600160401b031602179055506105bd42610c89565b60078301805467ffffffffffffffff19166001600160401b039283161790556000906105ea908316610867565b9050816001600160401b0316866001600160a01b03167feb5d812e11df51c81fe042841fe8ad86e1358614ac759500d1ad5b306266ad298360405161063191815260200190565b60405180910390a3505050505050565b7f0cd2207518cd3e5213e2c6dbe63d55b60aa893c194a427b7d7f1600408fd5bde80546001190161068557604051633ee5aeb560e01b815260040160405180910390fd5b60029055565b7f4f24f5c433db0962dac0d2c8b84197a6e6c7cc4e5d9ebe1916a1b6193da2f342547f4f24f5c433db0962dac0d2c8b84197a6e6c7cc4e5d9ebe1916a1b6193da2f34554600080516020611cd1833981519152916001600160a01b03169060408401351461070c5760405163057f3fa760e51b815260040160405180910390fd5b60405163a7a3797560e01b81526001600160a01b0382169063a7a3797590610738908690600401611869565b602060405180830381865afa158015610755573d6000803e3d6000fd5b505050506040513d601f19601f8201168201806040525081019061077991906118fe565b610796576040516316c32dbb60e21b815260040160405180910390fd5b505050565b604081901b68010000000000000000600160e01b0316600080516020611cf18339815191521860048101546000919060ff16828160058111156107e0576107e061191b565b14158015610800575060058160058111156107fd576107fd61191b565b14155b61081d5760405163d68a46c560e01b815260040160405180910390fd5b5092915050565b60018201546000906001600160a01b038381169116148061085e575061084983610cf1565b6001600160a01b0316826001600160a01b0316145b90505b92915050565b60006001600160401b0382111561088057610880611931565b5067464250526641000360c01b1790565b6040805161014083013560208083019190915260a084013582840152825180830384018152606090920190925280519101206107968382610d93565b60068201546000906108ea908390600160401b9004600f0b611947565b905060006108f784610dd3565b905061090281610e56565b8212156109685760408051838152602081018390526001600160a01b03600080516020611cf18339815191528718831c16917f3232fdbb55664d655aff08d1cc31318b51047d1178a5cea499006d9f9d4c07ae910160405180910390a261096884610ec0565b61097182610fbc565b6006850180546001600160801b0392909216600160401b0277ffffffffffffffffffffffffffffffff0000000000000000199092169190911790556109c684600080516020611cf18339815191521860401c90565b6006850154604051600160401b909104600f0b81526001600160a01b0391909116907f73da6891cb86668451f612d2555e88650888a0133a30b1d226b2d1f955e62bca9060200160405180910390a250505050565b7f4f24f5c433db0962dac0d2c8b84197a6e6c7cc4e5d9ebe1916a1b6193da2f34954600080516020611cd183398151915290600090610a649085906001600160801b0316610fe5565b9050610a71848483610ff9565b5050505050565b610aa6610a8d610120830161010084016116f3565b610a9f610140840161012085016116f3565b600161110e565b50565b610abb610ab58261079b565b33610824565b610aa65760405163f6e2f99b60e01b815260040160405180910390fd5b6000610aec6102a08301610280840161196f565b60ff1614610b0d576040516307a4ced160e51b815260040160405180910390fd5b610aa68161068b565b6102af8260a0830135610d93565b600080821215610b7b5760405162461bcd60e51b815260206004820181905260248201527f53616665436173743a2076616c7565206d75737420626520706f73697469766560448201526064015b60405180910390fd5b5090565b60006001600160801b03821115610b7b5760405162461bcd60e51b8152600401610b729061198a565b610bb9610bb482610e56565b610fbc565b600683018054600890610bd7908490600160401b9004600f0b6119d1565b92506101000a8154816001600160801b030219169083600f0b6001600160801b03160217905550610c1882600080516020611cf18339815191521860401c90565b6006830154604051600160401b909104600f0b81526001600160a01b0391909116907f73da6891cb86668451f612d2555e88650888a0133a30b1d226b2d1f955e62bca9060200160405180910390a25050565b6000610c796103e843611a26565b610c84906001611a3a565b905090565b60006001600160401b03821115610b7b5760405162461bcd60e51b815260206004820152602660248201527f53616665436173743a2076616c756520646f65736e27742066697420696e203660448201526534206269747360d01b6064820152608401610b72565b6000610d247f4f24f5c433db0962dac0d2c8b84197a6e6c7cc4e5d9ebe1916a1b6193da2f341546001600160a01b031690565b6001830154604051631f86345d60e31b81526001600160a01b03918216600482015291169063fc31a2e890602401602060405180830381865afa158015610d6f573d6000803e3d6000fd5b505050506040513d601f19601f820116820180604052508101906108619190611a4d565b60008181526020839052604090205415610dc0576040516318dce79f60e01b815260040160405180910390fd5b6000818152602092909252604090912055565b7f4f24f5c433db0962dac0d2c8b84197a6e6c7cc4e5d9ebe1916a1b6193da2f346546005820154600091600080516020611cd183398151915291600160901b9091046001600160401b0390811691610e3c91600160801b8204811691600160401b9004166116a1565b6001600160401b0316610e4f9190611a6a565b9392505050565b60006001600160ff1b03821115610b7b5760405162461bcd60e51b815260206004820152602860248201527f53616665436173743a2076616c756520646f65736e27742066697420696e2061604482015267371034b73a191a9b60c11b6064820152608401610b72565b6003600482015460ff166005811115610edb57610edb61191b565b1480610efe575060048082015460ff166005811115610efc57610efc61191b565b145b15610f065750565b6004810154600160a81b90046001600160401b0316600003610f5457610f2b42610c89565b8160040160156101000a8154816001600160401b0302191690836001600160401b031602179055505b60048101805460ff19166003179055600080516020611cf1833981519152811860401c6001600160a01b03167fa3bf539465c1a8746950e123769affaff9097155e9e8cb9e079e1d55d6ba349742604051610fb191815260200190565b60405180910390a250565b80600f81900b8114610fe05760405162461bcd60e51b8152600401610b729061198a565b919050565b600061085e82610ff48561129c565b6112e9565b6000806110058561129c565b90506000600080516020611cf1833981519152861860401c82546040516370a0823160e01b81526001600160a01b03808416600483015292935061109692879216906370a0823190602401602060405180830381865afa15801561106d573d6000803e3d6000fd5b505050506040513d601f19601f820116820180604052508101906110919190611a81565b6113f3565b825460405163083e007560e21b81526001600160a01b0391821660048201528782166024820152604481018390529194508216906320f801d490606401600060405180830381600087803b1580156110ed57600080fd5b505af1158015611101573d6000803e3d6000fd5b5050505050509392505050565b600080516020611d1183398151915260008061112a84876116a1565b600f8401549091506001600160401b03620100009091048116908216111561117657600f8301805469ffffffffffffffff00001916620100006001600160401b03841602179055600191505b60006103e8600080516020611cd1833981519152600c015461119e9063ffffffff1687611a9a565b6111a89190611abc565b6111b290876116a1565b600f8501546001600160401b039182169250600160501b900416811115611209576111dc81610c89565b84600f01600a6101000a8154816001600160401b0302191690836001600160401b03160217905550600192505b82156112935761121842610c89565b600f8501805467ffffffffffffffff60901b1916600160901b6001600160401b039384160217908190556040805162010000830484168152600160501b9092049092166020820152428183015290517f2078549e3faec355556787458d744ad19765bbb953b3f71801333f29abdce1c8916060908290030190a15b50505050505050565b600080600080516020611d1183398151915260048401548154919250829161010090910461ffff169081106112d3576112d3611aea565b9060005260206000209060040201915050919050565b60008160020180546112fa90611b00565b905060000361130a575081610861565b6000806113a484600201805461131f90611b00565b80601f016020809104026020016040519081016040528092919081815260200182805461134b90611b00565b80156113985780601f1061136d57610100808354040283529160200191611398565b820191906000526020600020905b81548152906001019060200180831161137b57829003601f168201915b50505050506000611409565b86549294509250600091600591506113c7908490600160a81b900460ff16611a3a565b6113d19190611b3a565b90506113e96113e182600a611c34565b8790856114fe565b9695505050505050565b6000818310611402578161085e565b5090919050565b7f4f24f5c433db0962dac0d2c8b84197a6e6c7cc4e5d9ebe1916a1b6193da2f3445460009081908190600080516020611cd1833981519152906001600160a01b031685156114cb5760405163e4a0a55b60e01b81526001600160a01b0382169063e4a0a55b9061147d908a90600401611c40565b606060405180830381865afa15801561149a573d6000803e3d6000fd5b505050506040513d601f19601f820116820180604052508101906114be9190611c8e565b94509450945050506114f7565b60405163524f388960e01b81526001600160a01b0382169063524f38899061147d908a90600401611c40565b9250925092565b6000808211611520576040516323d359a360e01b815260040160405180910390fd5b8360000361153057506000610e4f565b8383028385828161154357611543611a10565b04036115615782818161155857611558611a10565b04915050610e4f565b50600061156e8386611cbc565b9050600061157c8487611a26565b9050600061158a8587611cbc565b905060006115988688611a26565b9050856115a58285611a6a565b6115af9190611cbc565b6115b98385611a6a565b6115c38387611a6a565b886115ce8689611a6a565b6115d89190611a6a565b6115e29190611a3a565b6115ec9190611a3a565b6115f69190611a3a565b98975050505050505050565b6001600160a01b0381168114610aa657600080fd5b6000806040838503121561162a57600080fd5b82356001600160401b0381111561164057600080fd5b83016102a0818603121561165357600080fd5b9150602083013561166381611602565b809150509250929050565b60006020828403121561168057600080fd5b8135610e4f81611602565b634e487b7160e01b600052601160045260246000fd5b6001600160401b0381811683821601908111156108615761086161168b565b6000600160ff1b82016116d5576116d561168b565b5060000390565b80356001600160401b0381168114610fe057600080fd5b60006020828403121561170557600080fd5b61085e826116dc565b8015158114610aa657600080fd5b8035610fe08161170e565b803560ff81168114610fe057600080fd5b80358252602080820135908301526001600160401b0361175a604083016116dc565b1660408301526001600160401b03611774606083016116dc565b1660608301526080818101359083015260a0808201359083015260c080820135908301526117b960e0808401906117ac9084016116dc565b6001600160401b03169052565b6117c661010082016116dc565b6001600160401b031661010083015261012081810135908301526101408082013590830152610160808201359083015261018080820135908301526101a080820135908301526101c080820135908301526101e0808201359083015261020080820135908301526102208082013590830152611845610240820161171c565b151561024083015261185a6102608201611727565b60ff8116610260840152505050565b6020815260008235601e1984360301811261188357600080fd5b83016020810190356001600160401b0381111561189f57600080fd5b8060051b8036038313156118b257600080fd5b6102a060208601526102c085018290526001600160fb1b038211156118d657600080fd5b80836102e08701376118ee6040860160208801611738565b939093016102e001949350505050565b60006020828403121561191057600080fd5b8151610e4f8161170e565b634e487b7160e01b600052602160045260246000fd5b634e487b7160e01b600052600160045260246000fd5b80820182811260008312801582168215821617156119675761196761168b565b505092915050565b60006020828403121561198157600080fd5b61085e82611727565b60208082526027908201527f53616665436173743a2076616c756520646f65736e27742066697420696e20316040820152663238206269747360c81b606082015260800190565b600f81810b9083900b016f7fffffffffffffffffffffffffffffff81136f7fffffffffffffffffffffffffffffff19821217156108615761086161168b565b634e487b7160e01b600052601260045260246000fd5b600082611a3557611a35611a10565b500690565b808201808211156108615761086161168b565b600060208284031215611a5f57600080fd5b8151610e4f81611602565b80820281158282048414176108615761086161168b565b600060208284031215611a9357600080fd5b5051919050565b6001600160401b03818116838216029081169081811461081d5761081d61168b565b60006001600160401b03831680611ad557611ad5611a10565b806001600160401b0384160491505092915050565b634e487b7160e01b600052603260045260246000fd5b600181811c90821680611b1457607f821691505b602082108103611b3457634e487b7160e01b600052602260045260246000fd5b50919050565b818103818111156108615761086161168b565b6001815b6001841115611b8857808504811115611b6c57611b6c61168b565b6001841615611b7a57908102905b60019390931c928002611b51565b935093915050565b600082611b9f57506001610861565b81611bac57506000610861565b8160018114611bc25760028114611bcc57611be8565b6001915050610861565b60ff841115611bdd57611bdd61168b565b50506001821b610861565b5060208310610133831016604e8410600b8410161715611c0b575081810a610861565b611c186000198484611b4d565b8060001904821115611c2c57611c2c61168b565b029392505050565b600061085e8383611b90565b602081526000825180602084015260005b81811015611c6e5760208186018101516040868401015201611c51565b506000604082850101526040601f19601f83011684010191505092915050565b600080600060608486031215611ca357600080fd5b5050815160208301516040909301519094929350919050565b600082611ccb57611ccb611a10565b50049056fe4f24f5c433db0962dac0d2c8b84197a6e6c7cc4e5d9ebe1916a1b6193da2f33a5bebac0595fee029d42bb673937f5f1cb81cf8641382bc17774635de9b7d7965ec7e8c1c441439dd40959777f4c577ea0cd42fcc1dbe59d2bd0f5d9c55df8db6a2646970667358221220cd8ac4ae05d3f179037d751f1c527137767a0bb3f993e42b75af7ad93440b3ba64736f6c634300081b0033",
  "linkReferences": {},
  "deployedLinkReferences": {}
}