{
  "_format": "hh-sol-artifact-1",
  "contractName": "UnderlyingBalanceFacet",
  "sourceName": "contracts/assetManager/facets/UnderlyingBalanceFacet.sol",
  "abi": [
    {
      "inputs": [],
      "name": "AnnouncedUnderlyingWithdrawalActive",
      "type": "error"
    },
    {
      "inputs": [],
      "name": "DivisionByZero",
      "type": "error"
    },
    {
      "inputs": [],
      "name": "EmergencyPauseActive",
      "type": "error"
    },
    {
      "inputs": [],
      "name": "InvalidAgentVaultAddress",
      "type": "error"
    },
    {
      "inputs": [],
      "name": "InvalidChain",
      "type": "error"
    },
    {
      "inputs": [],
      "name": "LegalPaymentNotProven",
      "type": "error"
    },
    {
      "inputs": [],
      "name": "NoActiveAnnouncement",
      "type": "error"
    },
    {
      "inputs": [],
      "name": "NotATopupPayment",
      "type": "error"
    },
    {
      "inputs": [],
      "name": "NotAttached",
      "type": "error"
    },
    {
      "inputs": [],
      "name": "NotUnderlyingAddress",
      "type": "error"
    },
    {
      "inputs": [],
      "name": "NotWhitelisted",
      "type": "error"
    },
    {
      "inputs": [],
      "name": "OnlyAgentVaultOwner",
      "type": "error"
    },
    {
      "inputs": [],
      "name": "OnlyAssetManagerController",
      "type": "error"
    },
    {
      "inputs": [],
      "name": "PaymentAlreadyConfirmed",
      "type": "error"
    },
    {
      "inputs": [],
      "name": "PaymentFailed",
      "type": "error"
    },
    {
      "inputs": [],
      "name": "ReentrancyGuardReentrantCall",
      "type": "error"
    },
    {
      "inputs": [],
      "name": "TopupBeforeAgentCreated",
      "type": "error"
    },
    {
      "inputs": [],
      "name": "WrongAnnouncedPaymentReference",
      "type": "error"
    },
    {
      "inputs": [],
      "name": "WrongAnnouncedPaymentSource",
      "type": "error"
    },
    {
      "anonymous": false,
      "inputs": [
        {
          "indexed": false,
          "internalType": "uint256",
          "name": "underlyingBlockNumber",
          "type": "uint256"
        },
        {
          "indexed": false,
          "internalType": "uint256",
          "name": "underlyingBlockTimestamp",
          "type": "uint256"
        },
        {
          "indexed": false,
          "internalType": "uint256",
          "name": "updatedAt",
          "type": "uint256"
        }
      ],
      "name": "CurrentUnderlyingBlockUpdated",
      "type": "event"
    },
    {
      "anonymous": false,
      "inputs": [
        {
          "indexed": true,
          "internalType": "address",
          "name": "agentVault",
          "type": "address"
        },
        {
          "indexed": false,
          "internalType": "uint256",
          "name": "timestamp",
          "type": "uint256"
        }
      ],
      "name": "FullLiquidationStarted",
      "type": "event"
    },
    {
      "anonymous": false,
      "inputs": [
        {
          "indexed": true,
          "internalType": "address",
          "name": "agentVault",
          "type": "address"
        },
        {
          "indexed": false,
          "internalType": "int256",
          "name": "underlyingBalanceUBA",
          "type": "int256"
        }
      ],
      "name": "UnderlyingBalanceChanged",
      "type": "event"
    },
    {
      "anonymous": false,
      "inputs": [
        {
          "indexed": true,
          "internalType": "address",
          "name": "agentVault",
          "type": "address"
        },
        {
          "indexed": false,
          "internalType": "int256",
          "name": "balance",
          "type": "int256"
        },
        {
          "indexed": false,
          "internalType": "uint256",
          "name": "requiredBalance",
          "type": "uint256"
        }
      ],
      "name": "UnderlyingBalanceTooLow",
      "type": "event"
    },
    {
      "anonymous": false,
      "inputs": [
        {
          "indexed": true,
          "internalType": "address",
          "name": "agentVault",
          "type": "address"
        },
        {
          "indexed": false,
          "internalType": "bytes32",
          "name": "transactionHash",
          "type": "bytes32"
        },
        {
          "indexed": false,
          "internalType": "uint256",
          "name": "depositedUBA",
          "type": "uint256"
        }
      ],
      "name": "UnderlyingBalanceToppedUp",
      "type": "event"
    },
    {
      "anonymous": false,
      "inputs": [
        {
          "indexed": true,
          "internalType": "address",
          "name": "agentVault",
          "type": "address"
        },
        {
          "indexed": true,
          "internalType": "uint256",
          "name": "announcementId",
          "type": "uint256"
        },
        {
          "indexed": false,
          "internalType": "bytes32",
          "name": "paymentReference",
          "type": "bytes32"
        }
      ],
      "name": "UnderlyingWithdrawalAnnounced",
      "type": "event"
    },
    {
      "anonymous": false,
      "inputs": [
        {
          "indexed": true,
          "internalType": "address",
          "name": "agentVault",
          "type": "address"
        },
        {
          "indexed": true,
          "internalType": "uint256",
          "name": "announcementId",
          "type": "uint256"
        }
      ],
      "name": "UnderlyingWithdrawalCancelled",
      "type": "event"
    },
    {
      "anonymous": false,
      "inputs": [
        {
          "indexed": true,
          "internalType": "address",
          "name": "agentVault",
          "type": "address"
        },
        {
          "indexed": true,
          "internalType": "uint256",
          "name": "announcementId",
          "type": "uint256"
        },
        {
          "indexed": false,
          "internalType": "int256",
          "name": "spentUBA",
          "type": "int256"
        },
        {
          "indexed": false,
          "internalType": "bytes32",
          "name": "transactionHash",
          "type": "bytes32"
        }
      ],
      "name": "UnderlyingWithdrawalConfirmed",
      "type": "event"
    },
    {
      "inputs": [
        {
          "internalType": "address",
          "name": "_agentVault",
          "type": "address"
        }
      ],
      "name": "announceUnderlyingWithdrawal",
      "outputs": [],
      "stateMutability": "nonpayable",
      "type": "function"
    },
    {
      "inputs": [
        {
          "internalType": "address",
          "name": "_agentVault",
          "type": "address"
        }
      ],
      "name": "cancelUnderlyingWithdrawal",
      "outputs": [],
      "stateMutability": "nonpayable",
      "type": "function"
    },
    {
      "inputs": [
        {
          "components": [
            {
              "internalType": "bytes32[]",
              "name": "merkleProof",
              "type": "bytes32[]"
            },
            {
              "components": [
                {
                  "internalType": "bytes32",
                  "name": "attestationType",
                  "type": "bytes32"
                },
                {
                  "internalType": "bytes32",
                  "name": "sourceId",
                  "type": "bytes32"
                },
                {
                  "internalType": "uint64",
                  "name": "votingRound",
                  "type": "uint64"
                },
                {
                  "internalType": "uint64",
                  "name": "lowestUsedTimestamp",
                  "type": "uint64"
                },
                {
                  "components": [
                    {
                      "internalType": "bytes32",
                      "name": "transactionId",
                      "type": "bytes32"
                    },
                    {
                      "internalType": "uint256",
                      "name": "inUtxo",
                      "type": "uint256"
                    },
                    {
                      "internalType": "uint256",
                      "name": "utxo",
                      "type": "uint256"
                    }
                  ],
                  "internalType": "struct IPayment.RequestBody",
                  "name": "requestBody",
                  "type": "tuple"
                },
                {
                  "components": [
                    {
                      "internalType": "uint64",
                      "name": "blockNumber",
                      "type": "uint64"
                    },
                    {
                      "internalType": "uint64",
                      "name": "blockTimestamp",
                      "type": "uint64"
                    },
                    {
                      "internalType": "bytes32",
                      "name": "sourceAddressHash",
                      "type": "bytes32"
                    },
                    {
                      "internalType": "bytes32",
                      "name": "sourceAddressesRoot",
                      "type": "bytes32"
                    },
                    {
                      "internalType": "bytes32",
                      "name": "receivingAddressHash",
                      "type": "bytes32"
                    },
                    {
                      "internalType": "bytes32",
                      "name": "intendedReceivingAddressHash",
                      "type": "bytes32"
                    },
                    {
                      "internalType": "int256",
                      "name": "spentAmount",
                      "type": "int256"
                    },
                    {
                      "internalType": "int256",
                      "name": "intendedSpentAmount",
                      "type": "int256"
                    },
                    {
                      "internalType": "int256",
                      "name": "receivedAmount",
                      "type": "int256"
                    },
                    {
                      "internalType": "int256",
                      "name": "intendedReceivedAmount",
                      "type": "int256"
                    },
                    {
                      "internalType": "bytes32",
                      "name": "standardPaymentReference",
                      "type": "bytes32"
                    },
                    {
                      "internalType": "bool",
                      "name": "oneToOne",
                      "type": "bool"
                    },
                    {
                      "internalType": "uint8",
                      "name": "status",
                      "type": "uint8"
                    }
                  ],
                  "internalType": "struct IPayment.ResponseBody",
                  "name": "responseBody",
                  "type": "tuple"
                }
              ],
              "internalType": "struct IPayment.Response",
              "name": "data",
              "type": "tuple"
            }
          ],
          "internalType": "struct IPayment.Proof",
          "name": "_payment",
          "type": "tuple"
        },
        {
          "internalType": "address",
          "name": "_agentVault",
          "type": "address"
        }
      ],
      "name": "confirmTopupPayment",
      "outputs": [],
      "stateMutability": "nonpayable",
      "type": "function"
    },
    {
      "inputs": [
        {
          "components": [
            {
              "internalType": "bytes32[]",
              "name": "merkleProof",
              "type": "bytes32[]"
            },
            {
              "components": [
                {
                  "internalType": "bytes32",
                  "name": "attestationType",
                  "type": "bytes32"
                },
                {
                  "internalType": "bytes32",
                  "name": "sourceId",
                  "type": "bytes32"
                },
                {
                  "internalType": "uint64",
                  "name": "votingRound",
                  "type": "uint64"
                },
                {
                  "internalType": "uint64",
                  "name": "lowestUsedTimestamp",
                  "type": "uint64"
                },
                {
                  "components": [
                    {
                      "internalType": "bytes32",
                      "name": "transactionId",
                      "type": "bytes32"
                    },
                    {
                      "internalType": "uint256",
                      "name": "inUtxo",
                      "type": "uint256"
                    },
                    {
                      "internalType": "uint256",
                      "name": "utxo",
                      "type": "uint256"
                    }
                  ],
                  "internalType": "struct IPayment.RequestBody",
                  "name": "requestBody",
                  "type": "tuple"
                },
                {
                  "components": [
                    {
                      "internalType": "uint64",
                      "name": "blockNumber",
                      "type": "uint64"
                    },
                    {
                      "internalType": "uint64",
                      "name": "blockTimestamp",
                      "type": "uint64"
                    },
                    {
                      "internalType": "bytes32",
                      "name": "sourceAddressHash",
                      "type": "bytes32"
                    },
                    {
                      "internalType": "bytes32",
                      "name": "sourceAddressesRoot",
                      "type": "bytes32"
                    },
                    {
                      "internalType": "bytes32",
                      "name": "receivingAddressHash",
                      "type": "bytes32"
                    },
                    {
                      "internalType": "bytes32",
                      "name": "intendedReceivingAddressHash",
                      "type": "bytes32"
                    },
                    {
                      "internalType": "int256",
                      "name": "spentAmount",
                      "type": "int256"
                    },
                    {
                      "internalType": "int256",
                      "name": "intendedSpentAmount",
                      "type": "int256"
                    },
                    {
                      "internalType": "int256",
                      "name": "receivedAmount",
                      "type": "int256"
                    },
                    {
                      "internalType": "int256",
                      "name": "intendedReceivedAmount",
                      "type": "int256"
                    },
                    {
                      "internalType": "bytes32",
                      "name": "standardPaymentReference",
                      "type": "bytes32"
                    },
                    {
                      "internalType": "bool",
                      "name": "oneToOne",
                      "type": "bool"
                    },
                    {
                      "internalType": "uint8",
                      "name": "status",
                      "type": "uint8"
                    }
                  ],
                  "internalType": "struct IPayment.ResponseBody",
                  "name": "responseBody",
                  "type": "tuple"
                }
              ],
              "internalType": "struct IPayment.Response",
              "name": "data",
              "type": "tuple"
            }
          ],
          "internalType": "struct IPayment.Proof",
          "name": "_payment",
          "type": "tuple"
        },
        {
          "internalType": "address",
          "name": "_agentVault",
          "type": "address"
        }
      ],
      "name": "confirmUnderlyingWithdrawal",
      "outputs": [],
      "stateMutability": "nonpayable",
      "type": "function"
    }
  ],
  "bytecode": "0x6080604052348015600f57600080fd5b50611efe8061001f6000396000f3fe608060405234801561001057600080fd5b506004361061004c5760003560e01c80630529cf5a1461005157806387b4fac614610066578063a07ea7af14610079578063c0674b461461008c575b600080fd5b61006461005f3660046117af565b61009f565b005b6100646100743660046117af565b6102bd565b610064610087366004611806565b610434565b61006461009a366004611806565b6104e3565b6100a96002610669565b6100b16106b8565b600080516020611ea9833981519152600080516020611e698339815191526100d884610702565b60006100e384610812565b905060006100f1823361089b565b6006830154909150600160c01b90046001600160401b0316600081900361012b576040516337af441960e01b815260040160405180910390fd5b600061013f826001600160401b03166108de565b9050610240880135811461016657604051631c3a097560e11b815260040160405180910390fd5b60038401546101408901351461018f57604051633325d03960e01b815260040160405180910390fd5b82806101c95750600e85015460078501546101bd916001600160401b03600160901b90910481169116611839565b6001600160401b031642115b6101e65760405163f6e2f99b60e01b815260040160405180910390fd5b6101f3600b870189610908565b6006840180546001600160c01b0316905561021b846102166101c08b0135611858565b610944565b8261022a5761022a8433610a92565b61023388610aef565b604080516101c08a0135815260a08a013560208201526001600160401b038416916001600160a01b038a16917f87c03bd81173da373bb690f5c425a339854b84c89a0ad36544feed7d28b27980910160405180910390a35050505050506102b960017f0cd2207518cd3e5213e2c6dbe63d55b60aa893c194a427b7d7f1600408fd5bde55565b5050565b6102c76001610669565b806102d181610b20565b60006102dc83610812565b9050600080516020611ea98339815191526102f685610b4f565b60038201546101808601351461031f57604051630937ccc560e31b815260040160405180910390fd5b67464250526641001160c01b6001600160a01b038516176102408601351461035a57604051631c3ded8f60e21b815260040160405180910390fd5b600a8201546001600160401b031661037a6101208701610100880161188b565b6001600160401b0316116103a15760405163bff8d3ad60e01b815260040160405180910390fd5b6103ae600b820186610b8d565b60006103be610200870135610b9b565b90506103db836103cd83610bf6565b6001600160801b0316610c1f565b6103e486610aef565b6040805160a08801358152602081018390526001600160a01b038716917f4a204fd1cc26ecb86a5e85bb72577205ecc986e7376f08cd30e4b75a9636e177910160405180910390a2505050505050565b61043e6002610669565b8061044881610b20565b600061045383610812565b6006810154909150600160c01b90046001600160401b0316600081900361048d576040516337af441960e01b815260040160405180910390fd5b6006820180546001600160c01b031690556040516001600160401b038216906001600160a01b038616907f692a613b737313ed162e5603636ae3d26398b985825ee995ca8ff0f86b3942c690600090a350505050565b6104ed6001610669565b806104f781610b20565b600080516020611ea9833981519152600061051184610812565b6006810154909150600160c01b90046001600160401b0316156105475760405163c84cfbb160e01b815260040160405180910390fd5b61054f610ce2565b600e83018054601090610573908490600160801b90046001600160401b0316611839565b92506101000a8154816001600160401b0302191690836001600160401b03160217905550600082600e0160109054906101000a90046001600160401b03169050808260060160186101000a8154816001600160401b0302191690836001600160401b031602179055506105e542610d00565b60078301805467ffffffffffffffff19166001600160401b039283161790556000906106129083166108de565b9050816001600160401b0316866001600160a01b03167feb5d812e11df51c81fe042841fe8ad86e1358614ac759500d1ad5b306266ad298360405161065991815260200190565b60405180910390a3505050505050565b600081600381111561067d5761067d6118a6565b610685610d68565b6003811115610696576106966118a6565b10801591506102b95760405163909b191760e01b815260040160405180910390fd5b7f0cd2207518cd3e5213e2c6dbe63d55b60aa893c194a427b7d7f1600408fd5bde8054600119016106fc57604051633ee5aeb560e01b815260040160405180910390fd5b60029055565b7f4f24f5c433db0962dac0d2c8b84197a6e6c7cc4e5d9ebe1916a1b6193da2f342547f4f24f5c433db0962dac0d2c8b84197a6e6c7cc4e5d9ebe1916a1b6193da2f34554600080516020611e69833981519152916001600160a01b0316906040840135146107835760405163057f3fa760e51b815260040160405180910390fd5b60405163a7a3797560e01b81526001600160a01b0382169063a7a37975906107af908690600401611a17565b602060405180830381865afa1580156107cc573d6000803e3d6000fd5b505050506040513d601f19601f820116820180604052508101906107f09190611aac565b61080d576040516316c32dbb60e21b815260040160405180910390fd5b505050565b604081901b68010000000000000000600160e01b0316600080516020611e898339815191521860048101546000919060ff1682816005811115610857576108576118a6565b1415801561087757506005816005811115610874576108746118a6565b14155b6108945760405163d68a46c560e01b815260040160405180910390fd5b5092915050565b60018201546000906001600160a01b03838116911614806108d557506108c083610db9565b6001600160a01b0316826001600160a01b0316145b90505b92915050565b60006001600160401b038211156108f7576108f7611ac9565b5067464250526641000360c01b1790565b6040805161014083013560208083019190915260a0840135828401528251808303840181526060909201909252805191012061080d8382610e5b565b6006820154600090610961908390600160401b9004600f0b611adf565b9050600061096e84610e9b565b905061097981610f1e565b8212156109df5760408051838152602081018390526001600160a01b03600080516020611e898339815191528718831c16917f3232fdbb55664d655aff08d1cc31318b51047d1178a5cea499006d9f9d4c07ae910160405180910390a26109df84610f88565b6109e882611084565b6006850180546001600160801b0392909216600160401b0277ffffffffffffffffffffffffffffffff000000000000000019909216919091179055610a3d84600080516020611e898339815191521860401c90565b6006850154604051600160401b909104600f0b81526001600160a01b0391909116907f73da6891cb86668451f612d2555e88650888a0133a30b1d226b2d1f955e62bca9060200160405180910390a250505050565b7f4f24f5c433db0962dac0d2c8b84197a6e6c7cc4e5d9ebe1916a1b6193da2f34954600080516020611e6983398151915290600090610adb9085906001600160801b03166110ad565b9050610ae88484836110c1565b5050505050565b610b1d610b046101208301610100840161188b565b610b166101408401610120850161188b565b60016111d6565b50565b610b32610b2c82610812565b3361089b565b610b1d5760405163f6e2f99b60e01b815260040160405180910390fd5b6000610b636102a083016102808401611b07565b60ff1614610b84576040516307a4ced160e51b815260040160405180910390fd5b610b1d81610702565b6102b98260a0830135610e5b565b600080821215610bf25760405162461bcd60e51b815260206004820181905260248201527f53616665436173743a2076616c7565206d75737420626520706f73697469766560448201526064015b60405180910390fd5b5090565b60006001600160801b03821115610bf25760405162461bcd60e51b8152600401610be990611b22565b610c30610c2b82610f1e565b611084565b600683018054600890610c4e908490600160401b9004600f0b611b69565b92506101000a8154816001600160801b030219169083600f0b6001600160801b03160217905550610c8f82600080516020611e898339815191521860401c90565b6006830154604051600160401b909104600f0b81526001600160a01b0391909116907f73da6891cb86668451f612d2555e88650888a0133a30b1d226b2d1f955e62bca9060200160405180910390a25050565b6000610cf06103e843611bbe565b610cfb906001611bd2565b905090565b60006001600160401b03821115610bf25760405162461bcd60e51b815260206004820152602660248201527f53616665436173743a2076616c756520646f65736e27742066697420696e203660448201526534206269747360d01b6064820152608401610be9565b600080610d73611364565b90506000610d7f6113cc565b9050816003811115610d9357610d936118a6565b816003811115610da557610da56118a6565b11610db05781610db2565b805b9250505090565b6000610dec7f4f24f5c433db0962dac0d2c8b84197a6e6c7cc4e5d9ebe1916a1b6193da2f341546001600160a01b031690565b6001830154604051631f86345d60e31b81526001600160a01b03918216600482015291169063fc31a2e890602401602060405180830381865afa158015610e37573d6000803e3d6000fd5b505050506040513d601f19601f820116820180604052508101906108d89190611be5565b60008181526020839052604090205415610e88576040516318dce79f60e01b815260040160405180910390fd5b6000818152602092909252604090912055565b7f4f24f5c433db0962dac0d2c8b84197a6e6c7cc4e5d9ebe1916a1b6193da2f346546005820154600091600080516020611e6983398151915291600160901b9091046001600160401b0390811691610f0491600160801b8204811691600160401b900416611839565b6001600160401b0316610f179190611c02565b9392505050565b60006001600160ff1b03821115610bf25760405162461bcd60e51b815260206004820152602860248201527f53616665436173743a2076616c756520646f65736e27742066697420696e2061604482015267371034b73a191a9b60c11b6064820152608401610be9565b6003600482015460ff166005811115610fa357610fa36118a6565b1480610fc6575060048082015460ff166005811115610fc457610fc46118a6565b145b15610fce5750565b6004810154600160a81b90046001600160401b031660000361101c57610ff342610d00565b8160040160156101000a8154816001600160401b0302191690836001600160401b031602179055505b60048101805460ff19166003179055600080516020611e89833981519152811860401c6001600160a01b03167fa3bf539465c1a8746950e123769affaff9097155e9e8cb9e079e1d55d6ba34974260405161107991815260200190565b60405180910390a250565b80600f81900b81146110a85760405162461bcd60e51b8152600401610be990611b22565b919050565b60006108d5826110bc85611434565b611481565b6000806110cd85611434565b90506000600080516020611e89833981519152861860401c82546040516370a0823160e01b81526001600160a01b03808416600483015292935061115e92879216906370a0823190602401602060405180830381865afa158015611135573d6000803e3d6000fd5b505050506040513d601f19601f820116820180604052508101906111599190611c19565b61158b565b825460405163083e007560e21b81526001600160a01b0391821660048201528782166024820152604481018390529194508216906320f801d490606401600060405180830381600087803b1580156111b557600080fd5b505af11580156111c9573d6000803e3d6000fd5b5050505050509392505050565b600080516020611ea98339815191526000806111f28487611839565b600f8401549091506001600160401b03620100009091048116908216111561123e57600f8301805469ffffffffffffffff00001916620100006001600160401b03841602179055600191505b60006103e8600080516020611e69833981519152600c01546112669063ffffffff1687611c32565b6112709190611c54565b61127a9087611839565b600f8501546001600160401b039182169250600160501b9004168111156112d1576112a481610d00565b84600f01600a6101000a8154816001600160401b0302191690836001600160401b03160217905550600192505b821561135b576112e042610d00565b600f8501805467ffffffffffffffff60901b1916600160901b6001600160401b039384160217908190556040805162010000830484168152600160501b9092049092166020820152428183015290517f2078549e3faec355556787458d744ad19765bbb953b3f71801333f29abdce1c8916060908290030190a15b50505050505050565b7fec7e8c1c441439dd40959777f4c577ea0cd42fcc1dbe59d2bd0f5d9c55df8dc654600090600080516020611ea98339815191529042600160401b9091046001600160401b031611806113b8576000610db2565b5060110154600160901b900460ff16919050565b7fec7e8c1c441439dd40959777f4c577ea0cd42fcc1dbe59d2bd0f5d9c55df8dc754600090600080516020611ea98339815191529042600160a01b9091046001600160401b03161180611420576000610db2565b5060110154600160981b900460ff16919050565b600080600080516020611ea983398151915260048401548154919250829161010090910461ffff1690811061146b5761146b611c82565b9060005260206000209060040201915050919050565b600081600201805461149290611c98565b90506000036114a25750816108d8565b60008061153c8460020180546114b790611c98565b80601f01602080910402602001604051908101604052809291908181526020018280546114e390611c98565b80156115305780601f1061150557610100808354040283529160200191611530565b820191906000526020600020905b81548152906001019060200180831161151357829003601f168201915b505050505060006115a1565b865492945092506000916005915061155f908490600160a81b900460ff16611bd2565b6115699190611cd2565b905061158161157982600a611dcc565b879085611696565b9695505050505050565b600081831061159a57816108d5565b5090919050565b7f4f24f5c433db0962dac0d2c8b84197a6e6c7cc4e5d9ebe1916a1b6193da2f3445460009081908190600080516020611e69833981519152906001600160a01b031685156116635760405163e4a0a55b60e01b81526001600160a01b0382169063e4a0a55b90611615908a90600401611dd8565b606060405180830381865afa158015611632573d6000803e3d6000fd5b505050506040513d601f19601f820116820180604052508101906116569190611e26565b945094509450505061168f565b60405163524f388960e01b81526001600160a01b0382169063524f388990611615908a90600401611dd8565b9250925092565b60008082116116b8576040516323d359a360e01b815260040160405180910390fd5b836000036116c857506000610f17565b838302838582816116db576116db611ba8565b04036116f9578281816116f0576116f0611ba8565b04915050610f17565b5060006117068386611e54565b905060006117148487611bbe565b905060006117228587611e54565b905060006117308688611bbe565b90508561173d8285611c02565b6117479190611e54565b6117518385611c02565b61175b8387611c02565b886117668689611c02565b6117709190611c02565b61177a9190611bd2565b6117849190611bd2565b61178e9190611bd2565b98975050505050505050565b6001600160a01b0381168114610b1d57600080fd5b600080604083850312156117c257600080fd5b82356001600160401b038111156117d857600080fd5b83016102a081860312156117eb57600080fd5b915060208301356117fb8161179a565b809150509250929050565b60006020828403121561181857600080fd5b8135610f178161179a565b634e487b7160e01b600052601160045260246000fd5b6001600160401b0381811683821601908111156108d8576108d8611823565b6000600160ff1b820161186d5761186d611823565b5060000390565b80356001600160401b03811681146110a857600080fd5b60006020828403121561189d57600080fd5b6108d582611874565b634e487b7160e01b600052602160045260246000fd5b8015158114610b1d57600080fd5b80356110a8816118bc565b803560ff811681146110a857600080fd5b80358252602080820135908301526001600160401b0361190860408301611874565b1660408301526001600160401b0361192260608301611874565b1660608301526080818101359083015260a0808201359083015260c0808201359083015261196760e08084019061195a908401611874565b6001600160401b03169052565b6119746101008201611874565b6001600160401b031661010083015261012081810135908301526101408082013590830152610160808201359083015261018080820135908301526101a080820135908301526101c080820135908301526101e08082013590830152610200808201359083015261022080820135908301526119f361024082016118ca565b1515610240830152611a0861026082016118d5565b60ff8116610260840152505050565b6020815260008235601e19843603018112611a3157600080fd5b83016020810190356001600160401b03811115611a4d57600080fd5b8060051b803603831315611a6057600080fd5b6102a060208601526102c085018290526001600160fb1b03821115611a8457600080fd5b80836102e0870137611a9c60408601602088016118e6565b939093016102e001949350505050565b600060208284031215611abe57600080fd5b8151610f17816118bc565b634e487b7160e01b600052600160045260246000fd5b8082018281126000831280158216821582161715611aff57611aff611823565b505092915050565b600060208284031215611b1957600080fd5b6108d5826118d5565b60208082526027908201527f53616665436173743a2076616c756520646f65736e27742066697420696e20316040820152663238206269747360c81b606082015260800190565b600f81810b9083900b016f7fffffffffffffffffffffffffffffff81136f7fffffffffffffffffffffffffffffff19821217156108d8576108d8611823565b634e487b7160e01b600052601260045260246000fd5b600082611bcd57611bcd611ba8565b500690565b808201808211156108d8576108d8611823565b600060208284031215611bf757600080fd5b8151610f178161179a565b80820281158282048414176108d8576108d8611823565b600060208284031215611c2b57600080fd5b5051919050565b6001600160401b03818116838216029081169081811461089457610894611823565b60006001600160401b03831680611c6d57611c6d611ba8565b806001600160401b0384160491505092915050565b634e487b7160e01b600052603260045260246000fd5b600181811c90821680611cac57607f821691505b602082108103611ccc57634e487b7160e01b600052602260045260246000fd5b50919050565b818103818111156108d8576108d8611823565b6001815b6001841115611d2057808504811115611d0457611d04611823565b6001841615611d1257908102905b60019390931c928002611ce9565b935093915050565b600082611d37575060016108d8565b81611d44575060006108d8565b8160018114611d5a5760028114611d6457611d80565b60019150506108d8565b60ff841115611d7557611d75611823565b50506001821b6108d8565b5060208310610133831016604e8410600b8410161715611da3575081810a6108d8565b611db06000198484611ce5565b8060001904821115611dc457611dc4611823565b029392505050565b60006108d58383611d28565b602081526000825180602084015260005b81811015611e065760208186018101516040868401015201611de9565b506000604082850101526040601f19601f83011684010191505092915050565b600080600060608486031215611e3b57600080fd5b5050815160208301516040909301519094929350919050565b600082611e6357611e63611ba8565b50049056fe4f24f5c433db0962dac0d2c8b84197a6e6c7cc4e5d9ebe1916a1b6193da2f33a5bebac0595fee029d42bb673937f5f1cb81cf8641382bc17774635de9b7d7965ec7e8c1c441439dd40959777f4c577ea0cd42fcc1dbe59d2bd0f5d9c55df8db6a2646970667358221220c3afa4648e84680f8a7b88f09c6655fd1f906879eae5645af6dcce0e49baa01364736f6c634300081b0033",
  "linkReferences": {},
  "deployedLinkReferences": {}
}