{
  "_format": "hh-sol-artifact-1",
  "contractName": "AgentAlwaysAllowedMintersFacet",
  "sourceName": "contracts/assetManager/facets/AgentAlwaysAllowedMintersFacet.sol",
  "abi": [
    {
      "inputs": [
        {
          "internalType": "address",
          "name": "_agentVault",
          "type": "address"
        },
        {
          "internalType": "address",
          "name": "_minter",
          "type": "address"
        }
      ],
      "name": "addAlwaysAllowedMinterForAgent",
      "outputs": [],
      "stateMutability": "nonpayable",
      "type": "function"
    },
    {
      "inputs": [
        {
          "internalType": "address",
          "name": "_agentVault",
          "type": "address"
        }
      ],
      "name": "alwaysAllowedMintersForAgent",
      "outputs": [
        {
          "internalType": "address[]",
          "name": "",
          "type": "address[]"
        }
      ],
      "stateMutability": "view",
      "type": "function"
    },
    {
      "inputs": [
        {
          "internalType": "address",
          "name": "_agentVault",
          "type": "address"
        },
        {
          "internalType": "address",
          "name": "_minter",
          "type": "address"
        }
      ],
      "name": "removeAlwaysAllowedMinterForAgent",
      "outputs": [],
      "stateMutability": "nonpayable",
      "type": "function"
    }
  ],
  "bytecode": "0x6080604052348015600f57600080fd5b5061063c8061001f6000396000f3fe608060405234801561001057600080fd5b50600436106100415760003560e01c80630873975314610046578063b291dde81461005b578063bc7f75fd14610084575b600080fd5b6100596100543660046104e4565b610097565b005b61006e61006936600461051d565b6100c2565b60405161007b919061053a565b60405180910390f35b6100596100923660046104e4565b6100e4565b816100a181610108565b60006100ac84610167565b90506100bb600d82018461020e565b5050505050565b606060006100cf83610167565b90506100dd81600d0161022c565b9392505050565b816100ee81610108565b60006100f984610167565b90506100bb600d820184610239565b61011a61011482610167565b3361024e565b6101645760405162461bcd60e51b815260206004820152601660248201527537b7363c9030b3b2b73a103b30bab63a1037bbb732b960511b60448201526064015b60405180910390fd5b50565b7f5bebac0595fee029d42bb673937f5f1cb81cf8641382bc17774635de9b7d796568010000000000000000600160e01b03604083901b161880600060048084015460ff16908111156101bb576101bb610586565b036102085760405162461bcd60e51b815260206004820152601b60248201527f696e76616c6964206167656e74207661756c7420616464726573730000000000604482015260640161015b565b50919050565b6000610223836001600160a01b03841661028f565b90505b92915050565b606060006100dd836102de565b6000610223836001600160a01b03841661033a565b60018201546000906001600160a01b038381169116148061022357506102738361042d565b6001600160a01b0316826001600160a01b031614905092915050565b60008181526001830160205260408120546102d657508154600181810184556000848152602080822090930184905584548482528286019093526040902091909155610226565b506000610226565b60608160000180548060200260200160405190810160405280929190818152602001828054801561032e57602002820191906000526020600020905b81548152602001906001019080831161031a575b50505050509050919050565b6000818152600183016020526040812054801561042357600061035e60018361059c565b85549091506000906103729060019061059c565b90508181146103d7576000866000018281548110610392576103926105bd565b90600052602060002001549050808760000184815481106103b5576103b56105bd565b6000918252602080832090910192909255918252600188019052604090208390555b85548690806103e8576103e86105d3565b600190038181906000526020600020016000905590558560010160008681526020019081526020016000206000905560019350505050610226565b6000915050610226565b60006104607f4f24f5c433db0962dac0d2c8b84197a6e6c7cc4e5d9ebe1916a1b6193da2f341546001600160a01b031690565b6001830154604051631f86345d60e31b81526001600160a01b03918216600482015291169063fc31a2e890602401602060405180830381865afa1580156104ab573d6000803e3d6000fd5b505050506040513d601f19601f8201168201806040525081019061022691906105e9565b6001600160a01b038116811461016457600080fd5b600080604083850312156104f757600080fd5b8235610502816104cf565b91506020830135610512816104cf565b809150509250929050565b60006020828403121561052f57600080fd5b81356100dd816104cf565b602080825282518282018190526000918401906040840190835b8181101561057b5783516001600160a01b0316835260209384019390920191600101610554565b509095945050505050565b634e487b7160e01b600052602160045260246000fd5b8181038181111561022657634e487b7160e01b600052601160045260246000fd5b634e487b7160e01b600052603260045260246000fd5b634e487b7160e01b600052603160045260246000fd5b6000602082840312156105fb57600080fd5b81516100dd816104cf56fea26469706673582212207f672f87c8a0f140fe6aef2ac65d3d1e8ee43cc1fb6e5a560af4773667351f1464736f6c634300081b0033",
  "linkReferences": {},
  "deployedLinkReferences": {}
}