{
  "_format": "hh-sol-artifact-1",
  "contractName": "CoreVaultFacet",
  "sourceName": "contracts/assetManager/facets/CoreVaultFacet.sol",
  "abi": [
    {
      "inputs": [],
      "stateMutability": "nonpayable",
      "type": "constructor"
    },
    {
      "anonymous": false,
      "inputs": [
        {
          "indexed": true,
          "internalType": "address",
          "name": "redeemer",
          "type": "address"
        },
        {
          "indexed": false,
          "internalType": "string",
          "name": "paymentAddress",
          "type": "string"
        },
        {
          "indexed": false,
          "internalType": "bytes32",
          "name": "paymentReference",
          "type": "bytes32"
        },
        {
          "indexed": false,
          "internalType": "uint256",
          "name": "valueUBA",
          "type": "uint256"
        },
        {
          "indexed": false,
          "internalType": "uint256",
          "name": "feeUBA",
          "type": "uint256"
        }
      ],
      "name": "CoreVaultRedemptionRequested",
      "type": "event"
    },
    {
      "anonymous": false,
      "inputs": [
        {
          "indexed": true,
          "internalType": "address",
          "name": "agentVault",
          "type": "address"
        },
        {
          "indexed": false,
          "internalType": "uint256",
          "name": "dustUBA",
          "type": "uint256"
        }
      ],
      "name": "DustChanged",
      "type": "event"
    },
    {
      "anonymous": false,
      "inputs": [
        {
          "indexed": true,
          "internalType": "address",
          "name": "agentVault",
          "type": "address"
        },
        {
          "indexed": true,
          "internalType": "address",
          "name": "redeemer",
          "type": "address"
        },
        {
          "indexed": true,
          "internalType": "uint256",
          "name": "requestId",
          "type": "uint256"
        },
        {
          "indexed": false,
          "internalType": "string",
          "name": "paymentAddress",
          "type": "string"
        },
        {
          "indexed": false,
          "internalType": "uint256",
          "name": "valueUBA",
          "type": "uint256"
        },
        {
          "indexed": false,
          "internalType": "uint256",
          "name": "feeUBA",
          "type": "uint256"
        },
        {
          "indexed": false,
          "internalType": "uint256",
          "name": "firstUnderlyingBlock",
          "type": "uint256"
        },
        {
          "indexed": false,
          "internalType": "uint256",
          "name": "lastUnderlyingBlock",
          "type": "uint256"
        },
        {
          "indexed": false,
          "internalType": "uint256",
          "name": "lastUnderlyingTimestamp",
          "type": "uint256"
        },
        {
          "indexed": false,
          "internalType": "bytes32",
          "name": "paymentReference",
          "type": "bytes32"
        },
        {
          "indexed": false,
          "internalType": "address",
          "name": "executor",
          "type": "address"
        },
        {
          "indexed": false,
          "internalType": "uint256",
          "name": "executorFeeNatWei",
          "type": "uint256"
        }
      ],
      "name": "RedemptionRequested",
      "type": "event"
    },
    {
      "anonymous": false,
      "inputs": [
        {
          "indexed": true,
          "internalType": "address",
          "name": "agentVault",
          "type": "address"
        },
        {
          "indexed": true,
          "internalType": "uint256",
          "name": "redemptionTicketId",
          "type": "uint256"
        },
        {
          "indexed": false,
          "internalType": "uint256",
          "name": "ticketValueUBA",
          "type": "uint256"
        }
      ],
      "name": "RedemptionTicketCreated",
      "type": "event"
    },
    {
      "anonymous": false,
      "inputs": [
        {
          "indexed": true,
          "internalType": "address",
          "name": "agentVault",
          "type": "address"
        },
        {
          "indexed": true,
          "internalType": "uint256",
          "name": "redemptionTicketId",
          "type": "uint256"
        }
      ],
      "name": "RedemptionTicketDeleted",
      "type": "event"
    },
    {
      "anonymous": false,
      "inputs": [
        {
          "indexed": true,
          "internalType": "address",
          "name": "agentVault",
          "type": "address"
        },
        {
          "indexed": true,
          "internalType": "uint256",
          "name": "redemptionTicketId",
          "type": "uint256"
        },
        {
          "indexed": false,
          "internalType": "uint256",
          "name": "ticketValueUBA",
          "type": "uint256"
        }
      ],
      "name": "RedemptionTicketUpdated",
      "type": "event"
    },
    {
      "anonymous": false,
      "inputs": [
        {
          "indexed": true,
          "internalType": "address",
          "name": "agentVault",
          "type": "address"
        },
        {
          "indexed": true,
          "internalType": "uint256",
          "name": "requestId",
          "type": "uint256"
        }
      ],
      "name": "ReturnFromCoreVaultCancelled",
      "type": "event"
    },
    {
      "anonymous": false,
      "inputs": [
        {
          "indexed": true,
          "internalType": "address",
          "name": "agentVault",
          "type": "address"
        },
        {
          "indexed": true,
          "internalType": "uint256",
          "name": "requestId",
          "type": "uint256"
        },
        {
          "indexed": false,
          "internalType": "uint256",
          "name": "receivedUnderlyingUBA",
          "type": "uint256"
        },
        {
          "indexed": false,
          "internalType": "uint256",
          "name": "remintedUBA",
          "type": "uint256"
        }
      ],
      "name": "ReturnFromCoreVaultConfirmed",
      "type": "event"
    },
    {
      "anonymous": false,
      "inputs": [
        {
          "indexed": true,
          "internalType": "address",
          "name": "agentVault",
          "type": "address"
        },
        {
          "indexed": true,
          "internalType": "uint256",
          "name": "requestId",
          "type": "uint256"
        },
        {
          "indexed": false,
          "internalType": "bytes32",
          "name": "paymentReference",
          "type": "bytes32"
        },
        {
          "indexed": false,
          "internalType": "uint256",
          "name": "valueUBA",
          "type": "uint256"
        }
      ],
      "name": "ReturnFromCoreVaultRequested",
      "type": "event"
    },
    {
      "anonymous": false,
      "inputs": [
        {
          "indexed": true,
          "internalType": "address",
          "name": "agentVault",
          "type": "address"
        },
        {
          "indexed": true,
          "internalType": "uint256",
          "name": "transferRedemptionRequestId",
          "type": "uint256"
        },
        {
          "indexed": false,
          "internalType": "uint256",
          "name": "remintedUBA",
          "type": "uint256"
        }
      ],
      "name": "TransferToCoreVaultDefaulted",
      "type": "event"
    },
    {
      "anonymous": false,
      "inputs": [
        {
          "indexed": true,
          "internalType": "address",
          "name": "agentVault",
          "type": "address"
        },
        {
          "indexed": true,
          "internalType": "uint256",
          "name": "transferRedemptionRequestId",
          "type": "uint256"
        },
        {
          "indexed": false,
          "internalType": "uint256",
          "name": "valueUBA",
          "type": "uint256"
        }
      ],
      "name": "TransferToCoreVaultStarted",
      "type": "event"
    },
    {
      "anonymous": false,
      "inputs": [
        {
          "indexed": true,
          "internalType": "address",
          "name": "agentVault",
          "type": "address"
        },
        {
          "indexed": true,
          "internalType": "uint256",
          "name": "transferRedemptionRequestId",
          "type": "uint256"
        },
        {
          "indexed": false,
          "internalType": "uint256",
          "name": "valueUBA",
          "type": "uint256"
        }
      ],
      "name": "TransferToCoreVaultSuccessful",
      "type": "event"
    },
    {
      "anonymous": false,
      "inputs": [
        {
          "indexed": true,
          "internalType": "address",
          "name": "agentVault",
          "type": "address"
        },
        {
          "indexed": false,
          "internalType": "int256",
          "name": "underlyingBalanceUBA",
          "type": "int256"
        }
      ],
      "name": "UnderlyingBalanceChanged",
      "type": "event"
    },
    {
      "inputs": [
        {
          "internalType": "address",
          "name": "_agentVault",
          "type": "address"
        }
      ],
      "name": "cancelReturnFromCoreVault",
      "outputs": [],
      "stateMutability": "nonpayable",
      "type": "function"
    },
    {
      "inputs": [
        {
          "components": [
            {
              "internalType": "bytes32[]",
              "name": "merkleProof",
              "type": "bytes32[]"
            },
            {
              "components": [
                {
                  "internalType": "bytes32",
                  "name": "attestationType",
                  "type": "bytes32"
                },
                {
                  "internalType": "bytes32",
                  "name": "sourceId",
                  "type": "bytes32"
                },
                {
                  "internalType": "uint64",
                  "name": "votingRound",
                  "type": "uint64"
                },
                {
                  "internalType": "uint64",
                  "name": "lowestUsedTimestamp",
                  "type": "uint64"
                },
                {
                  "components": [
                    {
                      "internalType": "bytes32",
                      "name": "transactionId",
                      "type": "bytes32"
                    },
                    {
                      "internalType": "uint256",
                      "name": "inUtxo",
                      "type": "uint256"
                    },
                    {
                      "internalType": "uint256",
                      "name": "utxo",
                      "type": "uint256"
                    }
                  ],
                  "internalType": "struct IPayment.RequestBody",
                  "name": "requestBody",
                  "type": "tuple"
                },
                {
                  "components": [
                    {
                      "internalType": "uint64",
                      "name": "blockNumber",
                      "type": "uint64"
                    },
                    {
                      "internalType": "uint64",
                      "name": "blockTimestamp",
                      "type": "uint64"
                    },
                    {
                      "internalType": "bytes32",
                      "name": "sourceAddressHash",
                      "type": "bytes32"
                    },
                    {
                      "internalType": "bytes32",
                      "name": "sourceAddressesRoot",
                      "type": "bytes32"
                    },
                    {
                      "internalType": "bytes32",
                      "name": "receivingAddressHash",
                      "type": "bytes32"
                    },
                    {
                      "internalType": "bytes32",
                      "name": "intendedReceivingAddressHash",
                      "type": "bytes32"
                    },
                    {
                      "internalType": "int256",
                      "name": "spentAmount",
                      "type": "int256"
                    },
                    {
                      "internalType": "int256",
                      "name": "intendedSpentAmount",
                      "type": "int256"
                    },
                    {
                      "internalType": "int256",
                      "name": "receivedAmount",
                      "type": "int256"
                    },
                    {
                      "internalType": "int256",
                      "name": "intendedReceivedAmount",
                      "type": "int256"
                    },
                    {
                      "internalType": "bytes32",
                      "name": "standardPaymentReference",
                      "type": "bytes32"
                    },
                    {
                      "internalType": "bool",
                      "name": "oneToOne",
                      "type": "bool"
                    },
                    {
                      "internalType": "uint8",
                      "name": "status",
                      "type": "uint8"
                    }
                  ],
                  "internalType": "struct IPayment.ResponseBody",
                  "name": "responseBody",
                  "type": "tuple"
                }
              ],
              "internalType": "struct IPayment.Response",
              "name": "data",
              "type": "tuple"
            }
          ],
          "internalType": "struct IPayment.Proof",
          "name": "_payment",
          "type": "tuple"
        },
        {
          "internalType": "address",
          "name": "_agentVault",
          "type": "address"
        }
      ],
      "name": "confirmReturnFromCoreVault",
      "outputs": [],
      "stateMutability": "nonpayable",
      "type": "function"
    },
    {
      "inputs": [],
      "name": "coreVaultAvailableAmount",
      "outputs": [
        {
          "internalType": "uint256",
          "name": "_immediatelyAvailableUBA",
          "type": "uint256"
        },
        {
          "internalType": "uint256",
          "name": "_totalAvailableUBA",
          "type": "uint256"
        }
      ],
      "stateMutability": "view",
      "type": "function"
    },
    {
      "inputs": [
        {
          "internalType": "address",
          "name": "_agentVault",
          "type": "address"
        }
      ],
      "name": "maximumTransferToCoreVault",
      "outputs": [
        {
          "internalType": "uint256",
          "name": "_maximumTransferUBA",
          "type": "uint256"
        },
        {
          "internalType": "uint256",
          "name": "_minimumLeftAmountUBA",
          "type": "uint256"
        }
      ],
      "stateMutability": "view",
      "type": "function"
    },
    {
      "inputs": [
        {
          "internalType": "uint64",
          "name": "_lots",
          "type": "uint64"
        },
        {
          "internalType": "string",
          "name": "_redeemerUnderlyingAddress",
          "type": "string"
        }
      ],
      "name": "redeemFromCoreVault",
      "outputs": [],
      "stateMutability": "nonpayable",
      "type": "function"
    },
    {
      "inputs": [
        {
          "internalType": "address",
          "name": "_agentVault",
          "type": "address"
        },
        {
          "internalType": "uint64",
          "name": "_lots",
          "type": "uint64"
        }
      ],
      "name": "requestReturnFromCoreVault",
      "outputs": [],
      "stateMutability": "nonpayable",
      "type": "function"
    },
    {
      "inputs": [
        {
          "internalType": "address",
          "name": "_agentVault",
          "type": "address"
        },
        {
          "internalType": "uint256",
          "name": "_amountUBA",
          "type": "uint256"
        }
      ],
      "name": "transferToCoreVault",
      "outputs": [],
      "stateMutability": "payable",
      "type": "function"
    },
    {
      "inputs": [
        {
          "internalType": "uint256",
          "name": "_amountUBA",
          "type": "uint256"
        }
      ],
      "name": "transferToCoreVaultFee",
      "outputs": [
        {
          "internalType": "uint256",
          "name": "_transferFeeNatWei",
          "type": "uint256"
        }
      ],
      "stateMutability": "view",
      "type": "function"
    }
  ],
  "bytecode": "0x608060405234801561001057600080fd5b507f908500188c8f91f50d58dffac83eda18fc06d9da0208fc6b66c78a4c3fec74f4805460ff60401b191668010000000000000000179055615cbd80620000586000396000f3fe60806040526004361061007b5760003560e01c80639b70be1f1161004e5780639b70be1f14610104578063bfbf712114610124578063cfffc00614610152578063df10b5ea1461017257600080fd5b806332974aaf146100805780636286592e146100af578063687fea71146100c4578063768d0e96146100e4575b600080fd5b34801561008c57600080fd5b50610095610192565b604080519283526020830191909152015b60405180910390f35b6100c26100bd366004614ff3565b6101a5565b005b3480156100d057600080fd5b506100c26100df36600461501f565b610201565b3480156100f057600080fd5b506100c26100ff3660046150fa565b610243565b34801561011057600080fd5b506100c261011f36600461518a565b610274565b34801561013057600080fd5b5061014461013f3660046151a7565b6102b8565b6040519081526020016100a6565b34801561015e57600080fd5b5061009561016d36600461518a565b6102d6565b34801561017e57600080fd5b506100c261018d3660046151c0565b61031f565b60008061019d610350565b915091509091565b6101ad61051d565b6101b56105ad565b816101bf81610614565b60006101ca8461066b565b905060006101d784610712565b90506101e38282610748565b5050506101fd6001600080516020615c6883398151915255565b5050565b6102096105ad565b8061021381610614565b600061021e8361066b565b905061022a8482610be2565b50506101fd6001600080516020615c6883398151915255565b61024b61051d565b6102536105ad565b61025d8282610ee5565b6101fd6001600080516020615c6883398151915255565b61027c6105ad565b8061028681610614565b60006102918361066b565b905061029c81611256565b50506102b56001600080516020615c6883398151915255565b50565b6000806102c483610712565b90506102cf81611389565b9392505050565b60008060006102e48461066b565b90506000806102f2836113e9565b915091506103076103028361141e565b61148a565b94506103156103028261141e565b9350505050915091565b61032761051d565b61032f6105ad565b8161033981610614565b60006103448461066b565b905061022a81846114bb565b60008080600080516020615c48833981519152905060008160000160009054906101000a90046001600160a01b03166001600160a01b03166346fcff4c6040518163ffffffff1660e01b8152600401602060405180830381865afa1580156103bc573d6000803e3d6000fd5b505050506040513d601f19601f820116820180604052508101906103e0919061520c565b6001600160801b0316905060008260000160009054906101000a90046001600160a01b03166001600160a01b031663f0ec77fa6040518163ffffffff1660e01b8152600401602060405180830381865afa158015610442573d6000803e3d6000fd5b505050506040513d601f19601f82011682018060405250810190610466919061520c565b6001600160801b03169050600061047b6119c3565b845460408051631214493d60e11b815290516001600160a01b0390921691632428927a916004808201926020929091908290030181865afa1580156104c4573d6000803e3d6000fd5b505050506040513d601f19601f820116820180604052508101906104e89190615227565b6104f29190615256565b90506104fe8382611a58565b955061051361050d8385615256565b82611a58565b9450505050509091565b7fec7e8c1c441439dd40959777f4c577ea0cd42fcc1dbe59d2bd0f5d9c55df8dc654600080516020615c288339815191529042600160401b9091046001600160401b031611156102b55760405162461bcd60e51b8152602060048201526016602482015275656d657267656e63792070617573652061637469766560501b60448201526064015b60405180910390fd5b600080516020615c6883398151915280546001190161060e5760405162461bcd60e51b815260206004820152601f60248201527f5265656e7472616e637947756172643a207265656e7472616e742063616c6c0060448201526064016105a4565b60029055565b6106266106208261066b565b33611a7b565b6102b55760405162461bcd60e51b815260206004820152601660248201527537b7363c9030b3b2b73a103b30bab63a1037bbb732b960511b60448201526064016105a4565b7f5bebac0595fee029d42bb673937f5f1cb81cf8641382bc17774635de9b7d796568010000000000000000600160e01b03604083901b161880600060048084015460ff16908111156106bf576106bf615269565b0361070c5760405162461bcd60e51b815260206004820152601b60248201527f696e76616c6964206167656e74207661756c742061646472657373000000000060448201526064016105a4565b50919050565b60008061071d611b2a565b600c8101549091506102cf9061074390600160901b90046001600160401b031685615295565b61141e565b610750611b4e565b600080516020615c48833981519152600061076a84611bad565b9050600360048086015460ff169081111561078757610787615269565b036107cb5760405162461bcd60e51b8152602060048201526014602482015273696e76616c6964206167656e742073746174757360601b60448201526064016105a4565b6000836001600160401b0316116108245760405162461bcd60e51b815260206004820152601960248201527f7a65726f207472616e73666572206e6f7420616c6c6f7765640000000000000060448201526064016105a4565b6006840154600160401b9004600f0b61084461083f8561148a565b611bd5565b131561088a5760405162461bcd60e51b81526020600482015260156024820152746e6f7420656e6f75676820756e6465726c79696e6760581b60448201526064016105a4565b600c84015464010000000090046001600160401b0316156108ed5760405162461bcd60e51b815260206004820152601760248201527f7472616e7366657220616c72656164792061637469766500000000000000000060448201526064016105a4565b60006108fc8585600080611c3f565b5090506000816001600160401b0316116109495760405162461bcd60e51b815260206004820152600e60248201526d1b9bdd1a1a5b99c81b5a5b9d195960921b60448201526064016105a4565b600061095482611389565b9050803410156109a65760405162461bcd60e51b815260206004820152601e60248201527f7472616e7366657220666565207061796d656e7420746f6f20736d616c6c000060448201526064016105a4565b60006109b1876113e9565b50905080836001600160401b03161115610a1c5760405162461bcd60e51b815260206004820152602660248201527f746f6f206c6974746c65206d696e74696e67206c65667420616674657220747260448201526530b739b332b960d11b60648201526084016105a4565b845460408051633d083bf560e11b815290516000926001600160a01b031691637a1077ea91600480830192869291908290030181865afa158015610a64573d6000803e3d6000fd5b505050506040513d6000823e601f3d908101601f19168201604052610a8c91908101906152cd565b90506000610aea6040518060400160405280610aa78c611bad565b6001600160a01b0390811682526001600160401b03808a166020909301929092526001808c01548c54921692879260009283928392600160a01b90041690611e14565b600c8a0180546bffffffffffffffff0000000019166401000000006001600160401b038416021790559050610b223a620186a061533a565b610b2c9085615256565b341115610b64576001870154610b4b906001600160a01b0316856122b5565b610b5e33610b598634615351565b612363565b50610b7c565b6001870154610b7c906001600160a01b0316346122b5565b6000610b878661148a565b9050816001600160401b0316876001600160a01b03167f7720ffc529ed13201c71ca65a93771ecb026d4a7ea1a557116dfac60fafd9fb683604051610bce91815260200190565b60405180910390a350505050505050505050565b610bea611b4e565b600080516020615c48833981519152610c02836123e0565b600c820154600160601b90046001600160401b03166000819003610c635760405162461bcd60e51b81526020600482015260186024820152771b9bc81858dd1a5d99481c995d1d5c9b881c995c5d595cdd60421b60448201526064016105a4565b81546040805163c9febdf560e01b815290516001600160a01b039092169163c9febdf5916004808201926020929091908290030181865afa158015610cac573d6000803e3d6000fd5b505050506040513d601f19601f82011682018060405250810190610cd09190615227565b61014085013514610d235760405162461bcd60e51b815260206004820152601b60248201527f7061796d656e74206e6f742066726f6d20636f7265207661756c74000000000060448201526064016105a4565b600383015461018085013514610d7b5760405162461bcd60e51b815260206004820152601e60248201527f7061796d656e74206e6f7420746f206167656e7427732061646472657373000060448201526064016105a4565b67119094149990400160c21b6001600160401b0382161761024085013514610de55760405162461bcd60e51b815260206004820152601960248201527f696e76616c6964207061796d656e74207265666572656e63650000000000000060448201526064016105a4565b610e0f7fec7e8c1c441439dd40959777f4c577ea0cd42fcc1dbe59d2bd0f5d9c55df8dc18561243e565b6000610e1f61020086013561244c565b90506000610e2c82610712565b90506000610e5186600c0160149054906101000a90046001600160401b03168361249e565b9050610e5d86826124c7565b610e678684612553565b610e7086612605565b6000610e7b8261148a565b9050846001600160401b0316610e9088611bad565b6001600160a01b03167ff31c790716bd513f9122b4d1e80f9fce17cd414160d32271088b0c6b2af33e258684604051610ed3929190918252602082015260400190565b60405180910390a35050505050505050565b610eed611b4e565b600080516020615c488339815191528054604051632b656fef60e01b81526001600160a01b0390911690632b656fef90610f2b908590600401615390565b602060405180830381865afa158015610f48573d6000803e3d6000fd5b505050506040513d601f19601f82011682018060405250810190610f6c91906153b1565b610fcd5760405162461bcd60e51b815260206004820152602c60248201527f756e6465726c79696e672061646472657373206e6f7420616c6c6f776564206260448201526b1e4818dbdc99481d985d5b1d60a21b60648201526084016105a4565b6000610fd7611b2a565b90506000610fe36126b6565b9050806001600160401b0316856001600160401b031611156110175760405162461bcd60e51b81526004016105a4906153ce565b6002830154600090611032906001600160401b03168361249e565b9050806001600160401b0316866001600160401b031610156110965760405162461bcd60e51b815260206004820152601a60248201527f72657175657374656420616d6f756e7420746f6f20736d616c6c00000000000060448201526064016105a4565b600d8301546000906110b1906001600160401b031688615410565b905060006110be8261148a565b90506110ca33826126fa565b60018601546000906110e8908390600160b01b900461ffff16612762565b905060006110fe6110f98385615351565b612771565b905061110861279a565b60028901805460119061112c908490600160881b90046001600160401b031661543b565b92506101000a8154816001600160401b0302191690836001600160401b0316021790555060006111868960020160119054906101000a90046001600160401b03166001600160401b031667464250526641000560c01b1790565b8954604051631700b8c760e31b81529192506001600160a01b03169063b805c638906111bd908d9085908790600090600401615462565b6020604051808303816000875af11580156111dc573d6000803e3d6000fd5b505050506040513d601f19601f820116820180604052508101906112009190615227565b9050336001600160a01b03167f81390715ea13edf7069460e93980705ef2cd439f5c4a1a7c4fc1a323a2d4996b8b838787604051611241949392919061549c565b60405180910390a25050505050505050505050565b61125e611b4e565b600c810154600080516020615c4883398151915290600160601b90046001600160401b031660008190036112cf5760405162461bcd60e51b81526020600482015260186024820152771b9bc81858dd1a5d99481c995d1d5c9b881c995c5d595cdd60421b60448201526064016105a4565b815460405163a903532560e01b81526001600160a01b039091169063a90353259061130190600287019060040161557c565b600060405180830381600087803b15801561131b57600080fd5b505af115801561132f573d6000803e3d6000fd5b5050505061133c83612605565b806001600160401b031661134f84611bad565b6001600160a01b03167f89413196dc66c2fb1b91c291e94b73b766a03f31219603ff31ef497ef202e93460405160405180910390a3505050565b6000600080516020615c48833981519152816113ab6113a66127b8565b612819565b905060006113c2856001600160401b03168361282f565b60018401549091506113e0908290600160a01b900461ffff16612762565b95945050505050565b6000806113f583612849565b600584015490915061141790600160401b90046001600160401b031682611a58565b9150915091565b60006001600160401b038211156114865760405162461bcd60e51b815260206004820152602660248201527f53616665436173743a2076616c756520646f65736e27742066697420696e203660448201526534206269747360d01b60648201526084016105a4565b5090565b600080611495611b2a565b600c8101549091506102cf906001600160401b03600160901b909104811690851661533a565b6114c3611b4e565b600080516020615c488339815191528054604051632b656fef60e01b81526001600160a01b0390911690632b656fef9061150490600287019060040161557c565b602060405180830381865afa158015611521573d6000803e3d6000fd5b505050506040513d601f19601f8201168201806040525081019061154591906153b1565b6115ae5760405162461bcd60e51b815260206004820152603460248201527f6167656e74277320756e6465726c79696e672061646472657373206e6f7420616044820152731b1b1bddd95908189e4818dbdc99481d985d5b1d60621b60648201526084016105a4565b600c830154600160601b90046001600160401b0316156116215760405162461bcd60e51b815260206004820152602860248201527f72657475726e2066726f6d20636f7265207661756c7420616c72656164792072604482015267195c5d595cdd195960c21b60648201526084016105a4565b600061162c846128aa565b90506000836001600160401b03161161167e5760405162461bcd60e51b815260206004820152601460248201527363616e6e6f742072657475726e2030206c6f747360601b60448201526064016105a4565b600160048086015460ff169081111561169957611699615269565b146116dd5760405162461bcd60e51b8152602060048201526014602482015273696e76616c6964206167656e742073746174757360601b60448201526064016105a4565b6001600160401b0383166116f382866000612954565b10156117415760405162461bcd60e51b815260206004820152601a60248201527f6e6f7420656e6f756768206672656520636f6c6c61746572616c00000000000060448201526064016105a4565b600061174b6126b6565b9050806001600160401b0316846001600160401b0316111561177f5760405162461bcd60e51b81526004016105a4906153ce565b61178761279a565b6002840180546009906117ab908490600160481b90046001600160401b031661543b565b82546101009290920a6001600160401b038181021990931691831602179091556002850154600c8801805467ffffffffffffffff60601b1916600160481b9092048316600160601b81029290921790819055909250600160a01b900416156118155761181561558f565b600061181f611b2a565b600d0154611836906001600160401b031687615410565b600c880180546001600160401b03808416600160a01b0267ffffffffffffffff60a01b1990921691909117909155600589018054929350839290916000916118809185911661543b565b92506101000a8154816001600160401b0302191690836001600160401b0316021790555060006118c3836001600160401b031667119094149990400160c21b1790565b905060006118d36110f98461148a565b8754604051631700b8c760e31b81529192506001600160a01b03169063b805c6389061190d9060028d0190869086906001906004016155a5565b6020604051808303816000875af115801561192c573d6000803e3d6000fd5b505050506040513d601f19601f820116820180604052508101906119509190615227565b50836001600160401b03166119648a611bad565b6001600160a01b03167fbeb006f5c72be7811ac8a5314277e6fab21e6a2737d4119694735e810899079184846040516119b09291909182526001600160801b0316602082015260400190565b60405180910390a3505050505050505050565b600080516020615c488339815191528054604080516385b4bb5360e01b815290516000939284926001600160a01b03909116916385b4bb53916004808201926080929091908290030181865afa158015611a21573d6000803e3d6000fd5b505050506040513d601f19601f82011682018060405250810190611a4591906155b8565b6001600160801b03169695505050505050565b6000818311611a68576000611a72565b611a728284615351565b90505b92915050565b60018201546000906001600160a01b03908116908316811480611b225750611aa16129a7565b604051631f86345d60e31b81526001600160a01b038381166004830152919091169063fc31a2e890602401602060405180830381865afa158015611ae9573d6000803e3d6000fd5b505050506040513d601f19601f82011682018060405250810190611b0d919061560c565b6001600160a01b0316836001600160a01b0316145b949350505050565b7f4f24f5c433db0962dac0d2c8b84197a6e6c7cc4e5d9ebe1916a1b6193da2f33a90565b600080516020615c4883398151915280546001600160a01b03166102b55760405162461bcd60e51b815260206004820152601660248201527518dbdc99481d985d5b1d081b9bdd08195b98589b195960521b60448201526064016105a4565b7f5bebac0595fee029d42bb673937f5f1cb81cf8641382bc17774635de9b7d79651860401c90565b60006001600160ff1b038211156114865760405162461bcd60e51b815260206004820152602860248201527f53616665436173743a2076616c756520646f65736e27742066697420696e2061604482015267371034b73a191a9b60c11b60648201526084016105a4565b600080600080516020615c2883398151915281611c5a611b2a565b600f0154600160801b900461ffff1690506000611c75611b2a565b600d01546001600160401b0316905060005b8281108015611ca75750886001600160401b0316866001600160401b0316105b15611d855760006008850181611cbc8d611bad565b6001600160a01b0316815260208101919091526040016000908120546001600160401b03169150819003611cf05750611d85565b6001600160401b038181166000908152600787016020526040812060068e015481549193611d299291811691600160a01b90041661543b565b9050611d358582615629565b611d3f908261564f565b90506000611d56611d508b8f61564f565b8361249e565b9050611d6284826129c5565b611d6c818b61543b565b9950505050508080611d7d9061566f565b915050611c87565b506000611da8611d95878b61564f565b60068c01546001600160401b031661249e565b90508615611dc757611dba8282615629565b611dc4908261564f565b90505b6001600160401b03811615611dec57611de0818761543b565b9550611dec8a82612b9c565b8715611dfc57611dfc8a87612bed565b611e058661148a565b94505050505094509492505050565b8751600090600080516020615c28833981519152908290611e349061066b565b895160208b01206003820154919250908103611e925760405162461bcd60e51b815260206004820181905260248201527f63616e6e6f742072656465656d20746f206167656e742773206164647265737360448201526064016105a4565b6000611ea46110f98e6020015161148a565b9050611eaf8a612c86565b9450611f496040805161026081018252600080825260208201819052918101829052606081018290526080810182905260a0810182905260c0810182905260e08101829052610100810182905261012081018290529061014082019081526000602082018190526040820181905260608083018290526080830182905260a0830182905260c083015260e082018190526101009091015290565b8281526001600160801b0382166020820152600f8501546201000090046001600160401b031660608201528d51611f809089612d1b565b6001600160401b0390811660a0840152166080820152611f9f4261141e565b6001600160401b031661010082015286611fe557611fe06110f9611fc1611b2a565b600e01546001600160801b03851690600160401b900461ffff16612762565b611fe8565b60005b6001600160801b031660408201526001600160a01b038d811660e08301528e511661012082015260208e01516001600160401b031660c082015260016101408201819052508a15156101608201526001600160a01b038a81166101808301526001600160401b038a81166101a084015261020083018e9052881515610220840152600c860154600160e01b900461ffff166102408401528781166000908152600a880160209081526040918290208551815590850151918501516001600160801b03928316600160801b918416820217600183015560608601516002808401805460808a015160a08b015160c08c0151958a166001600160801b031990931692909217600160401b918a1691909102179096169587169093026001600160c01b031694909417600160c01b9186169190910217905560e08501516003820180546101008801519287166001600160e01b031990911617600160a01b929095168202949094179093556101208501516004820180546001600160a01b0319811692909616918217815561014087015187969395909491936001600160a81b0319169092179190849081111561219e5761219e615269565b021790555061016082015160048201805460ff60a81b1916600160a81b921515929092029190911790556101808201516005820180546101a08501516001600160a01b039093166001600160e01b031990911617600160a01b6001600160401b03938416021790556101c08301516006830180546101e08601519284166001600160801b031990911617600160401b9290931691909102919091179055610200820151600782019061225090826156d0565b50610220820151600890910180546102409093015161ffff166101000262ffff00199215159290921662ffffff199093169290921717905560208e01516122999085908d612e33565b6122a481878e612ed7565b505050505098975050505050505050565b6122bd612f9c565b80156101fd576000826001600160a01b031682620186a090604051600060405180830381858888f193505050503d8060008114612316576040519150601f19603f3d011682016040523d82523d6000602084013e61231b565b606091505b505090508061235e5760405162461bcd60e51b815260206004820152600f60248201526e1d1c985b9cd9995c8819985a5b1959608a1b60448201526064016105a4565b505050565b600061236d612f9c565b81156123d7576000836001600160a01b031683620186a090604051600060405180830381858888f193505050503d80600081146123c6576040519150601f19603f3d011682016040523d82523d6000602084013e6123cb565b606091505b50909250611a75915050565b50600192915050565b60006123f46102a0830161028084016157a0565b60ff16146124355760405162461bcd60e51b815260206004820152600e60248201526d1c185e5b595b9d0819985a5b195960921b60448201526064016105a4565b6102b581612ffd565b6101fd8260a0830135613188565b6000808212156114865760405162461bcd60e51b815260206004820181905260248201527f53616665436173743a2076616c7565206d75737420626520706f73697469766560448201526064016105a4565b6000816001600160401b0316836001600160401b031611156124c05781611a72565b5090919050565b60006124d1611b2a565b60068401549091506000906124f09084906001600160401b031661543b565b600d83015490915060009061250e906001600160401b031683615629565b9050600061251c828461564f565b90506125288686613251565b6001600160401b03811615612541576125418682613271565b61254b8683613402565b505050505050565b61256461255f82611bd5565b613498565b600683018054600890612582908490600160401b9004600f0b6157bb565b92506101000a8154816001600160801b030219169083600f0b6001600160801b031602179055506125b282611bad565b6006830154604051600160401b909104600f0b81526001600160a01b0391909116907f73da6891cb86668451f612d2555e88650888a0133a30b1d226b2d1f955e62bca9060200160405180910390a25050565b600c810154600160601b90046001600160401b03161580159061263b5750600c810154600160a01b90046001600160401b031615155b6126475761264761558f565b600c8101546005820180546001600160401b03600160a01b9093048316926000916126749185911661564f565b82546001600160401b039182166101009390930a928302919092021990911617905550600c0180546fffffffffffffffffffffffffffffffff60601b19169055565b6000806126c1611b2a565b905060006126cd610350565b600d8401549092506001600160401b031690506126e982610712565b6126f391906157fa565b9250505090565b6127026134c1565b604051632770a7eb60e21b81526001600160a01b038481166004830152602482018490529190911690639dc29fac90604401600060405180830381600087803b15801561274e57600080fd5b505af115801561254b573d6000803e3d6000fd5b6000611a7283836127106134df565b60006001600160801b038211156114865760405162461bcd60e51b81526004016105a490615820565b60006127a86103e843615867565b6127b3906001615256565b905090565b7fec7e8c1c441439dd40959777f4c577ea0cd42fcc1dbe59d2bd0f5d9c55df8dc554600080516020615c288339815191528054600092829161ffff9091169081106128055761280561587b565b906000526020600020906004020191505090565b6000612826826000613605565b50909392505050565b6000611a72826128416009600a615975565b8591906134df565b600080612855836128aa565b905060006128678483600001516137c4565b905060006128798584602001516137c4565b9050600061288b8685604001516137c4565b90506128a08361289b848461382e565b61382e565b9695505050505050565b6129156040805160c081019091526000606082018181526080830182905260a083019190915281908152604080516060810182526000808252602082810182905292820152910190815260408051606081018252600080825260208281018290529282015291015290565b60006129208361383d565b90506040518060600160405280612936856138fa565b815260200182815260200161294b858461399f565b90529392505050565b60008061296685600001518585613b6e565b9050600061297986602001518686613b6e565b9050600061298c87604001518787613b6e565b905061299c8361289b848461382e565b979650505050505050565b6000806129b2611b2a565b600701546001600160a01b031692915050565b6001600160401b03821660009081527fec7e8c1c441439dd40959777f4c577ea0cd42fcc1dbe59d2bd0f5d9c55df8dbd602081905260408220805491929091612a16906001600160a01b031661066b565b90506000612a22611b2a565b600d0154600683015484546001600160401b0392831693506000928892612a559290821691600160a01b9091041661543b565b612a5f919061564f565b90506000612a6d8383615629565b90506000612a7b828461564f565b9050806001600160401b0316600003612ae557612a98878a613ba5565b886001600160401b0316612aab86611bad565b6001600160a01b03167fb7f65e70a51658e24800516a5dc90e2dd65176e18381adda77f58e2044482b1960405160405180910390a3612b87565b85546001600160401b03828116600160a01b9092041614612b8757855467ffffffffffffffff60a01b1916600160a01b6001600160401b038316021786556000612b2e8261148a565b9050896001600160401b0316612b4387611bad565b6001600160a01b03167f9d2e72c50be7927e999d37329649af37a863df77bcb25361699ce021d3d7475d83604051612b7d91815260200190565b60405180910390a3505b612b918583613402565b505050505050505050565b600682015460408051808201909152600f81526e1b9bdd08195b9bdd59da08191d5cdd608a1b6020820152600091612be1916001600160401b03909116908490613f7f565b905061235e8382613402565b612c388260050160089054906101000a90046001600160401b031682604051806040016040528060118152602001701b9bdd08195b9bdd59da081b5a5b9d1959607a1b815250613f7f565b8260050160086101000a8154816001600160401b0302191690836001600160401b031602179055506101fd612c6c83611bad565b6005840154600160401b90046001600160401b0316613fca565b6000600080516020615c2883398151915281612ca061279a565b600e830154612cbf9190600160401b90046001600160401b031661543b565b9050600084612ccf576000612cd2565b60015b60ff16600119612ce384600161543b565b161790508083600e0160086101000a8154816001600160401b0302191690836001600160401b03160217905550809350505050919050565b600080600080516020615c2883398151915281612d36611b2a565b9050600085612d4488614016565b600f850154600160901b90046001600160401b0316612d624261141e565b612d6c919061564f565b612d76919061543b565b612d80919061543b565b600c830154909150600090612db49063ffffffff16612daa6001600160401b0385166103e861533a565b6107439190615295565b600d840154600f8601549192506001600160401b03600160981b909104811691612de69184916201000090041661543b565b612df0919061543b565b600e840154600f8601549197506001600160401b0390811691612e1c918591600160501b90041661543b565b612e26919061543b565b9450505050509250929050565b818360050160108282829054906101000a90046001600160401b0316612e59919061543b565b92506101000a8154816001600160401b0302191690836001600160401b0316021790555080612ecd57818360050160188282829054906101000a90046001600160401b0316612ea8919061543b565b92506101000a8154816001600160401b0302191690836001600160401b031602179055505b61235e8383612bed565b816001600160401b03168360e001516001600160a01b03168461012001516001600160a01b03167f8cbbd73a8d1b8b02a53c4c3b0ee34b472fe3099cc19bcfb57f1aae09e8a9847e848760200151886040015189606001518a608001518b60a00151612f568c6001600160401b031667232128293320800160c11b1790565b8d6101800151633b9aca008f6101a001516001600160401b0316612f7a919061533a565b604051612f8f99989796959493929190615981565b60405180910390a4505050565b600080516020615c6883398151915254600214612ffb5760405162461bcd60e51b815260206004820152601f60248201527f5265656e7472616e637947756172643a2067756172642072657175697265640060448201526064016105a4565b565b6000613007611b2a565b6008810154600b8201549192506001600160a01b0316906040840135146130605760405162461bcd60e51b815260206004820152600d60248201526c34b73b30b634b21031b430b4b760991b60448201526064016105a4565b60405163a7a3797560e01b81526001600160a01b0382169063a7a379759061308c908690600401615b25565b602060405180830381865afa1580156130a9573d6000803e3d6000fd5b505050506040513d601f19601f820116820180604052508101906130cd91906153b1565b6131195760405162461bcd60e51b815260206004820152601860248201527f6c6567616c207061796d656e74206e6f742070726f766564000000000000000060448201526064016105a4565b61313c61312e61014085016101208601615bb8565b6001600160401b03166140ce565b61235e5760405162461bcd60e51b815260206004820152601c60248201527f7665726966696564207472616e73616374696f6e20746f6f206f6c640000000060448201526064016105a4565b600081815260208390526040902054156131e45760405162461bcd60e51b815260206004820152601960248201527f7061796d656e7420616c726561647920636f6e6669726d65640000000000000060448201526064016105a4565b60006131f36201518042615295565b60008181526001850160205260408120549192508190036132145782613216565b805b600084815260208681526040808320939093558482526001870190529081208490556002850154900361324b57600284018290555b50505050565b6005820154612c38908290600160401b90046001600160401b031661543b565b600080516020615c288339815191526001600160401b03821660000361329657505050565b60006132a184611bad565b6009830154600160401b90046001600160401b031660008181526007850160205260409020805492935090916001600160a01b0380851691160361339e57805485908290601490613303908490600160a01b90046001600160401b031661543b565b92506101000a8154816001600160401b0302191690836001600160401b0316021790555060006133498260000160149054906101000a90046001600160401b031661148a565b9050826001600160401b0316846001600160a01b03167f9d2e72c50be7927e999d37329649af37a863df77bcb25361699ce021d3d7475d8360405161339091815260200190565b60405180910390a35061254b565b60006133ae6007860185886140f1565b905060006133bb8761148a565b9050816001600160401b0316856001600160a01b03167f631f8f2039090539b2ea4ef7dc567f7f1939ef4dd3e790b1ca7bc548a1fada5883604051610ed391815260200190565b60068201546001600160401b0380831691160361341d575050565b60068201805467ffffffffffffffff19166001600160401b03831617905560006134468261148a565b905061345183611bad565b6001600160a01b03167fa3db2bc927901a1d3ba09ad51d84609457b98443be9132a0a936a47c5a1081b58260405161348b91815260200190565b60405180910390a2505050565b80600f81900b81146134bc5760405162461bcd60e51b81526004016105a490615820565b919050565b6000806134cc611b2a565b600101546001600160a01b031692915050565b60008082116135235760405162461bcd60e51b815260206004820152601060248201526f4469766973696f6e206279207a65726f60801b60448201526064016105a4565b83600003613533575060006102cf565b838302838582816135465761354661527f565b04036135645782818161355b5761355b61527f565b049150506102cf565b5060006135718386615295565b9050600061357f8487615867565b9050600061358d8587615295565b9050600061359b8688615867565b9050856135a8828561533a565b6135b29190615295565b6135bc838561533a565b6135c6838761533a565b886135d1868961533a565b6135db919061533a565b6135e59190615256565b6135ef9190615256565b6135f99190615256565b98975050505050505050565b6000806000806000806136a4886001018054613620906154cb565b80601f016020809104026020016040519081016040528092919081815260200182805461364c906154cb565b80156136995780601f1061366e57610100808354040283529160200191613699565b820191906000526020600020905b81548152906001019060200180831161367c57829003601f168201915b5050505050886144fa565b8a549295509093509150600160f01b900460ff16156136eb5787546000906136da90600160a81b900460ff1660018387866145c5565b96509194508493506137bd92505050565b60008060006137868b6002018054613702906154cb565b80601f016020809104026020016040519081016040528092919081815260200182805461372e906154cb565b801561377b5780601f106137505761010080835404028352916020019161377b565b820191906000526020600020905b81548152906001019060200180831161375e57829003601f168201915b50505050508b6144fa565b8d5492955090935091506000906137aa90600160a81b900460ff1685848a896145c5565b99509497509095506137bd945050505050565b9250925092565b600080600080516020615c48833981519152905060006137e8858560000151614649565b91505060006137ff85602001518660400151614715565b9050600061381082612710856134df565b600185015490915061299c908290600160c01b900461ffff16612762565b60008183106124c05781611a72565b6138626040805160608101909152806000815260200160008152602001600081525090565b600061386d8361472e565b604080516060810182526001815285548251634ac8eb5f60e01b8152925193945090926020808501936001600160a01b0390931692634ac8eb5f92600480830193928290030181865afa1580156138c8573d6000803e3d6000fd5b505050506040513d601f19601f820116820180604052508101906138ec9190615227565b815260200161294b83612819565b61391f6040805160608101909152806000815260200160008152602001600081525090565b600061392a8361477d565b60408051606081019091526000815281549192509060208201906001600160a01b03166370a0823161395b87611bad565b6040516001600160e01b031960e084901b1681526001600160a01b039091166004820152602401602060405180830381865afa1580156138c8573d6000803e3d6000fd5b6139c46040805160608101909152806000815260200160008152602001600081525090565b8254604080516332f7ce0b60e21b815290516000926001600160a01b03169163cbdf382c9160048083019260209291908290030181865afa158015613a0d573d6000803e3d6000fd5b505050506040513d601f19601f82011682018060405250810190613a31919061560c565b90506000816001600160a01b03166370a08231613a4d87611bad565b6040516001600160e01b031960e084901b1681526001600160a01b039091166004820152602401602060405180830381865afa158015613a91573d6000803e3d6000fd5b505050506040513d601f19601f82011682018060405250810190613ab59190615227565b90506000826001600160a01b03166318160ddd6040518163ffffffff1660e01b8152600401602060405180830381865afa158015613af7573d6000803e3d6000fd5b505050506040513d601f19601f82011682018060405250810190613b1b9190615227565b905060008560200151600003613b35578560400151613b4a565b60208601516040870151613b4a9184906134df565b60408051606081018252600281526020810195909552840152509095945050505050565b600080613b7b85856147b4565b90506000613b8a8686866147d1565b905080600003613b9b5760006128a0565b6128a08183615295565b6001600160401b038116600090815260208390526040902080546001600160a01b0316613bd457613bd461558f565b80546001600160a01b031660009081526001808501602052604082209083015490916001600160401b039091169003613c5a5760028401546001600160401b03848116911614613c2657613c2661558f565b6001820154600285018054600160401b9092046001600160401b031667ffffffffffffffff19909216919091179055613cc2565b60028401546001600160401b0390811690841603613c7a57613c7a61558f565b6001828101546001600160401b038082166000908152602088905260409020909201805467ffffffffffffffff60401b1916600160401b928390049093169091029190911790555b6001820154600160401b90046001600160401b0316600003613d395760028401546001600160401b03848116600160401b9092041614613d0457613d0461558f565b600182015460028501805467ffffffffffffffff60401b19166001600160401b03909216600160401b02919091179055613da1565b60028401546001600160401b03600160401b909104811690841603613d6057613d6061558f565b600180830154600160401b81046001600160401b039081166000908152602088905260409020909201805467ffffffffffffffff1916929091169190911790555b6001820154600160801b90046001600160401b0316600003613e065780546001600160401b03848116911614613dd957613dd961558f565b60018201548154600160c01b9091046001600160401b031667ffffffffffffffff19909116178155613e6c565b80546001600160401b0390811690841603613e2357613e2361558f565b6001828101546001600160401b03600160801b82048116600090815260208890526040902090920180546001600160c01b0316600160c01b928390049093169091029190911790555b6001820154600160c01b90046001600160401b0316600003613edf5780546001600160401b03848116600160401b9092041614613eab57613eab61558f565b6001820154815467ffffffffffffffff60401b1916600160801b9091046001600160401b0316600160401b02178155613f51565b80546001600160401b03600160401b909104811690841603613f0357613f0361558f565b6001828101546001600160401b03600160c01b820481166000908152602088905260409020909201805467ffffffffffffffff60801b1916600160801b928390049093169091029190911790555b50506001600160401b031660009081526020919091526040812080546001600160e01b031916815560010155565b6000826001600160401b0316846001600160401b031610158290613fb65760405162461bcd60e51b81526004016105a49190615390565b5050506001600160401b0390811691160390565b7f341c6685fdb8ed7133465b64f545b9fbc5699a59cbd1ad98992e5c070a74c51061235e7f341c6685fdb8ed7133465b64f545b9fbc5699a59cbd1ad98992e5c070a74c51184846147fb565b6001600160a01b03811660009081527f1309a575a1ebd5e5ca64d58e63b864f1d06aed3e31a021b0eabae653c215fb07602052604081207f1309a575a1ebd5e5ca64d58e63b864f1d06aed3e31a021b0eabae653c215fb0690826140794261141e565b83548354919250600091614099916001600160401b03908116911661543b565b90506140a58183614864565b835467ffffffffffffffff19166001600160401b039190911690811784556128a090839061564f565b60006140de600e6201518061533a565b6140e89042615351565b90911015919050565b6001600160a01b0382166000908152600184016020526040812060028501805483919060109061413090600160801b90046001600160401b0316615bd3565b91906101000a8154816001600160401b0302191690836001600160401b03160217905590506040518060c00160405280866001600160a01b03168152602001856001600160401b031681526020018760020160089054906101000a90046001600160401b03166001600160401b0316815260200160006001600160401b031681526020018360000160089054906101000a90046001600160401b03166001600160401b0316815260200160006001600160401b0316815250866000016000836001600160401b03166001600160401b0316815260200190815260200160002060008201518160000160006101000a8154816001600160a01b0302191690836001600160a01b0316021790555060208201518160000160146101000a8154816001600160401b0302191690836001600160401b0316021790555060408201518160010160006101000a8154816001600160401b0302191690836001600160401b0316021790555060608201518160010160086101000a8154816001600160401b0302191690836001600160401b0316021790555060808201518160010160106101000a8154816001600160401b0302191690836001600160401b0316021790555060a08201518160010160186101000a8154816001600160401b0302191690836001600160401b031602179055509050508560020160009054906101000a90046001600160401b03166001600160401b031660000361438d576002860154600160401b90046001600160401b03161561436a5761436a61558f565b60028601805467ffffffffffffffff19166001600160401b0383161790556143f5565b6002860154600160401b90046001600160401b03166000036143b1576143b161558f565b6002860154600160401b908190046001600160401b039081166000908152602089905260409020600101805467ffffffffffffffff60401b19169184169092021790555b6002860180546001600160401b03808416600160401b0267ffffffffffffffff60401b199092169190911790915582541660000361446b578154600160401b90046001600160401b03161561444c5761444c61558f565b815467ffffffffffffffff19166001600160401b0382161782556144ce565b8154600160401b90046001600160401b031660000361448c5761448c61558f565b81546001600160401b03600160401b909104811660009081526020889052604090206001018054918316600160c01b026001600160c01b039092169190911790555b815467ffffffffffffffff60401b1916600160401b6001600160401b0383160217909155949350505050565b600080600080614508611b2a565b600a8101549091506001600160a01b031685156145995760405163e4a0a55b60e01b81526001600160a01b0382169063e4a0a55b9061454b908a90600401615390565b606060405180830381865afa158015614568573d6000803e3d6000fd5b505050506040513d601f19601f8201168201806040525081019061458c9190615bf9565b94509450945050506137bd565b60405163524f388960e01b81526001600160a01b0382169063524f38899061454b908a90600401615390565b6000806145d0611b2a565b9050600060096145e0878a615256565b6145ea9190615256565b600a83015490915060009061460a908690600160a81b900460ff16615256565b90508082101561461c5761461c61558f565b61463c6146298284615351565b61463490600a615975565b87908a6134df565b9998505050505050505050565b600080600283600281111561466057614660615269565b0361468d57600061466f611b2a565b600c0154640100000000900463ffffffff16925082915061470e9050565b60018360028111156146a1576146a1615269565b036146dc576146af8461472e565b60030154600485015463ffffffff91821692506146d591600160881b9091041682614886565b915061470e565b6146e58461477d565b60030154600485015463ffffffff918216925061470b91600160681b9091041682614886565b91505b9250929050565b6000611a726147266009600a615975565b8490846134df565b600080600080516020615c28833981519152600484015481549192508291630100000090910461ffff169081106147675761476761587b565b9060005260206000209060040201915050919050565b600080600080516020615c2883398151915260048401548154919250829161010090910461ffff169081106147675761476761587b565b6000806147c18484614895565b9050611b22846020015182611a58565b6000806147dc611b2a565b600d8101549091506113e090869086906001600160401b0316866149c5565b6001600160a01b038216600090815260048401602052604081209061481f82614a3c565b9050600061482c86614a3c565b9050614839834286614ad7565b61485a4283614848878561543b565b614852919061564f565b889190614ad7565b61254b8684614e48565b6000816001600160401b0316836001600160401b031610156124c05781611a72565b60008183116124c05781611a72565b60008060006148a8848660000151614649565b600586015491935091506000906148d1906001600160401b03600160401b820481169116615256565b905060006148ed846148e7848a6040015161282f565b90612762565b9050600060018851600281111561490657614906615269565b14614925576005870154600160801b90046001600160401b031661493b565b6005870154600160c01b90046001600160401b03165b9050600061495a856148e7846001600160401b03168c6040015161282f565b9050600060018a51600281111561497357614973615269565b0361497f576000614997565b895161498c908a90614e85565b546001600160801b03165b6001600160801b03169050806149ad8386615256565b6149b79190615256565b9a9950505050505050505050565b600080826149d45760006149fd565b60048501546149fd9061ffff600160581b82048116916148e7918891600160481b900416612762565b90506000614a0b8286615256565b90506000614a1d82896040015161282f565b90506000614a2f888a60000151614649565b50905061463c8282612762565b6001810154600090600160401b90046001600160401b03168103614a6257506000919050565b60018201546001600160401b03808216600160401b9092041611614a8857614a8861558f565b6001828101548391600091614aad9190600160401b90046001600160401b031661564f565b6001600160401b039081168252602082019290925260400160002054600160c01b90041692915050565b6001830154600160401b90046001600160401b0316600003614bf65760018301546001600160401b031615614b0e57614b0e61558f565b604051806060016040528060006001600160801b03168152602001614b328461141e565b6001600160401b0390811682528381166020909201919091526001850180548692600092600160401b90920416906008614b6b83615bd3565b82546001600160401b039182166101009390930a92830292820219169190911790915590811682526020808301939093526040918201600020845181549486015195909301518216600160c01b026001600160c01b0395909216600160801b026001600160c01b03199094166001600160801b03909316929092179290921792909216179055505050565b60018301546001600160401b03808216600160401b9092041611614c1c57614c1c61558f565b60018381015460009185918391614c4291600160401b90046001600160401b031661564f565b6001600160401b03908116825260208201929092526040016000208054909250600160801b900416839003614c945780546001600160c01b0316600160c01b6001600160401b0384160217815561324b565b8054600160801b90046001600160401b03168311614d055760405162461bcd60e51b815260206004820152602860248201527f54696d6543756d756c61746976653a2074696d657374616d70206e6f7420696e6044820152676372656173696e6760c01b60648201526084016105a4565b8054600090614d2490600160801b90046001600160401b031685615351565b8254614d409190600160c01b90046001600160401b031661533a565b8254614d5591906001600160801b0316615256565b90506040518060600160405280614d6b83612771565b6001600160801b03168152602001614d828661141e565b6001600160401b0390811682528581166020909201919091526001870180548892600092600160401b90920416906008614dbb83615bd3565b82546001600160401b039182166101009390930a92830292820219169190911790915590811682526020808301939093526040918201600020845181549486015195909301518216600160c01b026001600160c01b0395909216600160801b026001600160c01b03199094166001600160801b039093169290921792909217929092161790555050505050565b6003820154600090614e6b908490600160c01b90046001600160401b0316614ed2565b9050614e7982826002614f0d565b61235e83826002614f0d565b60006001826002811115614e9b57614e9b615269565b03614ea857614ea861558f565b6000826002811115614ebc57614ebc615269565b14614eca5782600901611a72565b505060080190565b6003820154600090614ef5908390600160401b90046001600160401b031661533a565b6003840154611a7291906001600160401b0316615256565b60018301546001600160401b0380821691600160401b90041660005b8381108015614f41575081614f3f846001615256565b105b8015614f7a575084866000614f57866001615256565b8152602081019190915260400160002054600160801b90046001600160401b0316105b15614fa957600083815260208790526040812055614f978361566f565b9250614fa28161566f565b9050614f29565b614fb28361141e565b600196909601805467ffffffffffffffff19166001600160401b03909716969096179095555050505050565b6001600160a01b03811681146102b557600080fd5b6000806040838503121561500657600080fd5b823561501181614fde565b946020939093013593505050565b6000806040838503121561503257600080fd5b82356001600160401b0381111561504857600080fd5b83016102a0818603121561505b57600080fd5b9150602083013561506b81614fde565b809150509250929050565b80356001600160401b03811681146134bc57600080fd5b634e487b7160e01b600052604160045260246000fd5b604051601f8201601f191681016001600160401b03811182821017156150cb576150cb61508d565b604052919050565b60006001600160401b038211156150ec576150ec61508d565b50601f01601f191660200190565b6000806040838503121561510d57600080fd5b61511683615076565b915060208301356001600160401b0381111561513157600080fd5b8301601f8101851361514257600080fd5b8035615155615150826150d3565b6150a3565b81815286602083850101111561516a57600080fd5b816020840160208301376000602083830101528093505050509250929050565b60006020828403121561519c57600080fd5b81356102cf81614fde565b6000602082840312156151b957600080fd5b5035919050565b600080604083850312156151d357600080fd5b82356151de81614fde565b91506151ec60208401615076565b90509250929050565b80516001600160801b03811681146134bc57600080fd5b60006020828403121561521e57600080fd5b611a72826151f5565b60006020828403121561523957600080fd5b5051919050565b634e487b7160e01b600052601160045260246000fd5b80820180821115611a7557611a75615240565b634e487b7160e01b600052602160045260246000fd5b634e487b7160e01b600052601260045260246000fd5b6000826152a4576152a461527f565b500490565b60005b838110156152c45781810151838201526020016152ac565b50506000910152565b6000602082840312156152df57600080fd5b81516001600160401b038111156152f557600080fd5b8201601f8101841361530657600080fd5b8051615314615150826150d3565b81815285602083850101111561532957600080fd5b6113e08260208301602086016152a9565b8082028115828204841417611a7557611a75615240565b81810381811115611a7557611a75615240565b6000815180845261537c8160208601602086016152a9565b601f01601f19169290920160200192915050565b602081526000611a726020830184615364565b80151581146102b557600080fd5b6000602082840312156153c357600080fd5b81516102cf816153a3565b60208082526022908201527f6e6f7420656e6f75676820617661696c61626c65206f6e20636f7265207661756040820152611b1d60f21b606082015260800190565b6001600160401b0381811683821602808216919082811461543357615433615240565b505092915050565b6001600160401b0381811683821601908082111561545b5761545b615240565b5092915050565b6080815260006154756080830187615364565b6020830195909552506001600160801b039290921660408301521515606090910152919050565b6080815260006154af6080830187615364565b6020830195909552506040810192909252606090910152919050565b600181811c908216806154df57607f821691505b60208210810361070c57634e487b7160e01b600052602260045260246000fd5b6000815461550c816154cb565b808552602060018381168015615529576001811461554357615571565b60ff1985168884015283151560051b880183019550615571565b866000528260002060005b858110156155695781548a820186015290830190840161554e565b890184019650505b505050505092915050565b602081526000611a7260208301846154ff565b634e487b7160e01b600052600160045260246000fd5b60808152600061547560808301876154ff565b600080600080608085870312156155ce57600080fd5b6155d7856151f5565b93506155e5602086016151f5565b92506155f3604086016151f5565b9150615601606086016151f5565b905092959194509250565b60006020828403121561561e57600080fd5b81516102cf81614fde565b60006001600160401b03808416806156435761564361527f565b92169190910692915050565b6001600160401b0382811682821603908082111561545b5761545b615240565b60006001820161568157615681615240565b5060010190565b601f82111561235e576000816000526020600020601f850160051c810160208610156156b15750805b601f850160051c820191505b8181101561254b578281556001016156bd565b81516001600160401b038111156156e9576156e961508d565b6156fd816156f784546154cb565b84615688565b602080601f831160018114615732576000841561571a5750858301515b600019600386901b1c1916600185901b17855561254b565b600085815260208120601f198616915b8281101561576157888601518255948401946001909101908401615742565b508582101561577f5787850151600019600388901b60f8161c191681555b5050505050600190811b01905550565b803560ff811681146134bc57600080fd5b6000602082840312156157b257600080fd5b611a728261578f565b600f81810b9083900b016f7fffffffffffffffffffffffffffffff81136f7fffffffffffffffffffffffffffffff1982121715611a7557611a75615240565b60006001600160401b03808416806158145761581461527f565b92169190910492915050565b60208082526027908201527f53616665436173743a2076616c756520646f65736e27742066697420696e20316040820152663238206269747360c81b606082015260800190565b6000826158765761587661527f565b500690565b634e487b7160e01b600052603260045260246000fd5b600181815b808511156158cc5781600019048211156158b2576158b2615240565b808516156158bf57918102915b93841c9390800290615896565b509250929050565b6000826158e357506001611a75565b816158f057506000611a75565b816001811461590657600281146159105761592c565b6001915050611a75565b60ff84111561592157615921615240565b50506001821b611a75565b5060208310610133831016604e8410600b841016171561594f575081810a611a75565b6159598383615891565b806000190482111561596d5761596d615240565b029392505050565b6000611a7283836158d4565b60006101208083526159958184018d615364565b6001600160801b039b8c16602085015299909a166040830152506001600160401b03968716606082015294861660808601529290941660a084015260c08301526001600160a01b0390921660e0820152610100015292915050565b80356134bc816153a3565b8035825260208101356020830152615a1560408201615076565b6001600160401b03808216604085015280615a3260608501615076565b16606085015250506080810135608083015260a081013560a083015260c081013560c0830152615a7860e08301615a6b60e08401615076565b6001600160401b03169052565b610100615a86818301615076565b6001600160401b03169083015261012081810135908301526101408082013590830152610160808201359083015261018080820135908301526101a080820135908301526101c080820135908301526101e0808201359083015261020080820135908301526102208082013590830152610240615b048183016159f0565b151590830152610260615b1882820161578f565b60ff81168483015261324b565b6020815260008235601e19843603018112615b3f57600080fd5b83016020810190356001600160401b03811115615b5b57600080fd5b8060051b803603831315615b6e57600080fd5b6102a060208601526102c085018290526102e06001600160fb1b03831115615b9557600080fd5b818482880137615bab60408701602089016159fb565b9401909301949350505050565b600060208284031215615bca57600080fd5b611a7282615076565b60006001600160401b03808316818103615bef57615bef615240565b6001019392505050565b600080600060608486031215615c0e57600080fd5b835192506020840151915060408401519050925092509256feec7e8c1c441439dd40959777f4c577ea0cd42fcc1dbe59d2bd0f5d9c55df8db6908500188c8f91f50d58dffac83eda18fc06d9da0208fc6b66c78a4c3fec74f20cd2207518cd3e5213e2c6dbe63d55b60aa893c194a427b7d7f1600408fd5bdea2646970667358221220d4e9beb6956080ba701825ba352880274d0b300f17c4873e6ebdadf731fcd98964736f6c63430008170033",
  "linkReferences": {},
  "deployedLinkReferences": {}
}