{
  "_format": "hh-sol-artifact-1",
  "contractName": "SystemStateManagementFacet",
  "sourceName": "contracts/assetManager/facets/SystemStateManagementFacet.sol",
  "abi": [
    {
      "inputs": [
        {
          "internalType": "bool",
          "name": "attached",
          "type": "bool"
        }
      ],
      "name": "attachController",
      "outputs": [],
      "stateMutability": "nonpayable",
      "type": "function"
    },
    {
      "inputs": [],
      "name": "pauseMinting",
      "outputs": [],
      "stateMutability": "nonpayable",
      "type": "function"
    },
    {
      "inputs": [],
      "name": "unpauseMinting",
      "outputs": [],
      "stateMutability": "nonpayable",
      "type": "function"
    }
  ],
  "bytecode": "0x6080604052348015600f57600080fd5b506102c38061001f6000396000f3fe608060405234801561001057600080fd5b50600436106100415760003560e01c8063ae20032214610046578063b928b53314610050578063da8fbf2a14610063575b600080fd5b61004e61006b565b005b61004e61005e366004610264565b6100a5565b61004e6100ea565b610073610178565b7fec7e8c1c441439dd40959777f4c577ea0cd42fcc1dbe59d2bd0f5d9c55df8dc6805467ffffffffffffffff19169055565b6100ad610178565b7fec7e8c1c441439dd40959777f4c577ea0cd42fcc1dbe59d2bd0f5d9c55df8dc78054911515600160881b0260ff60881b19909216919091179055565b6100f2610178565b7fec7e8c1c441439dd40959777f4c577ea0cd42fcc1dbe59d2bd0f5d9c55df8dc6547fec7e8c1c441439dd40959777f4c577ea0cd42fcc1dbe59d2bd0f5d9c55df8db69067ffffffffffffffff1660000361017557610150426101f7565b60108201805467ffffffffffffffff191667ffffffffffffffff929092169190911790555b50565b7f4f24f5c433db0962dac0d2c8b84197a6e6c7cc4e5d9ebe1916a1b6193da2f33a80546001600160a01b031633146101755760405162461bcd60e51b815260206004820152601d60248201527f6f6e6c79206173736574206d616e6167657220636f6e74726f6c6c657200000060448201526064015b60405180910390fd5b600067ffffffffffffffff8211156102605760405162461bcd60e51b815260206004820152602660248201527f53616665436173743a2076616c756520646f65736e27742066697420696e203660448201526534206269747360d01b60648201526084016101ee565b5090565b60006020828403121561027657600080fd5b8135801515811461028657600080fd5b939250505056fea26469706673582212202f325570f1ad37cf7d0a871e509d9ca9a7a7706079f1210ea089a67a2892e5d464736f6c634300081b0033",
  "linkReferences": {},
  "deployedLinkReferences": {}
}