{
  "_format": "hh-sol-artifact-1",
  "contractName": "ERC20Mock",
  "sourceName": "contracts/utils/mock/ERC20Mock.sol",
  "abi": [
    {
      "inputs": [
        {
          "internalType": "string",
          "name": "_name",
          "type": "string"
        },
        {
          "internalType": "string",
          "name": "_symbol",
          "type": "string"
        }
      ],
      "stateMutability": "nonpayable",
      "type": "constructor"
    },
    {
      "anonymous": false,
      "inputs": [
        {
          "indexed": true,
          "internalType": "address",
          "name": "owner",
          "type": "address"
        },
        {
          "indexed": true,
          "internalType": "address",
          "name": "spender",
          "type": "address"
        },
        {
          "indexed": false,
          "internalType": "uint256",
          "name": "value",
          "type": "uint256"
        }
      ],
      "name": "Approval",
      "type": "event"
    },
    {
      "anonymous": false,
      "inputs": [
        {
          "indexed": true,
          "internalType": "address",
          "name": "from",
          "type": "address"
        },
        {
          "indexed": true,
          "internalType": "address",
          "name": "to",
          "type": "address"
        },
        {
          "indexed": false,
          "internalType": "uint256",
          "name": "value",
          "type": "uint256"
        }
      ],
      "name": "Transfer",
      "type": "event"
    },
    {
      "inputs": [
        {
          "internalType": "address",
          "name": "_address",
          "type": "address"
        }
      ],
      "name": "addToSanctionList",
      "outputs": [],
      "stateMutability": "nonpayable",
      "type": "function"
    },
    {
      "inputs": [
        {
          "internalType": "address",
          "name": "owner",
          "type": "address"
        },
        {
          "internalType": "address",
          "name": "spender",
          "type": "address"
        }
      ],
      "name": "allowance",
      "outputs": [
        {
          "internalType": "uint256",
          "name": "",
          "type": "uint256"
        }
      ],
      "stateMutability": "view",
      "type": "function"
    },
    {
      "inputs": [
        {
          "internalType": "address",
          "name": "spender",
          "type": "address"
        },
        {
          "internalType": "uint256",
          "name": "amount",
          "type": "uint256"
        }
      ],
      "name": "approve",
      "outputs": [
        {
          "internalType": "bool",
          "name": "",
          "type": "bool"
        }
      ],
      "stateMutability": "nonpayable",
      "type": "function"
    },
    {
      "inputs": [
        {
          "internalType": "address",
          "name": "account",
          "type": "address"
        }
      ],
      "name": "balanceOf",
      "outputs": [
        {
          "internalType": "uint256",
          "name": "",
          "type": "uint256"
        }
      ],
      "stateMutability": "view",
      "type": "function"
    },
    {
      "inputs": [
        {
          "internalType": "address",
          "name": "_target",
          "type": "address"
        },
        {
          "internalType": "uint256",
          "name": "_amount",
          "type": "uint256"
        }
      ],
      "name": "burnAmount",
      "outputs": [],
      "stateMutability": "nonpayable",
      "type": "function"
    },
    {
      "inputs": [],
      "name": "decimals",
      "outputs": [
        {
          "internalType": "uint8",
          "name": "",
          "type": "uint8"
        }
      ],
      "stateMutability": "view",
      "type": "function"
    },
    {
      "inputs": [
        {
          "internalType": "address",
          "name": "spender",
          "type": "address"
        },
        {
          "internalType": "uint256",
          "name": "subtractedValue",
          "type": "uint256"
        }
      ],
      "name": "decreaseAllowance",
      "outputs": [
        {
          "internalType": "bool",
          "name": "",
          "type": "bool"
        }
      ],
      "stateMutability": "nonpayable",
      "type": "function"
    },
    {
      "inputs": [],
      "name": "deposit",
      "outputs": [],
      "stateMutability": "payable",
      "type": "function"
    },
    {
      "inputs": [
        {
          "internalType": "address",
          "name": "_recipient",
          "type": "address"
        }
      ],
      "name": "depositTo",
      "outputs": [],
      "stateMutability": "payable",
      "type": "function"
    },
    {
      "inputs": [
        {
          "internalType": "address",
          "name": "spender",
          "type": "address"
        },
        {
          "internalType": "uint256",
          "name": "addedValue",
          "type": "uint256"
        }
      ],
      "name": "increaseAllowance",
      "outputs": [
        {
          "internalType": "bool",
          "name": "",
          "type": "bool"
        }
      ],
      "stateMutability": "nonpayable",
      "type": "function"
    },
    {
      "inputs": [
        {
          "internalType": "address",
          "name": "_target",
          "type": "address"
        },
        {
          "internalType": "uint256",
          "name": "amount",
          "type": "uint256"
        }
      ],
      "name": "mintAmount",
      "outputs": [],
      "stateMutability": "nonpayable",
      "type": "function"
    },
    {
      "inputs": [],
      "name": "name",
      "outputs": [
        {
          "internalType": "string",
          "name": "",
          "type": "string"
        }
      ],
      "stateMutability": "view",
      "type": "function"
    },
    {
      "inputs": [
        {
          "internalType": "address",
          "name": "",
          "type": "address"
        }
      ],
      "name": "sanctionedAddresses",
      "outputs": [
        {
          "internalType": "bool",
          "name": "",
          "type": "bool"
        }
      ],
      "stateMutability": "view",
      "type": "function"
    },
    {
      "inputs": [],
      "name": "symbol",
      "outputs": [
        {
          "internalType": "string",
          "name": "",
          "type": "string"
        }
      ],
      "stateMutability": "view",
      "type": "function"
    },
    {
      "inputs": [],
      "name": "totalSupply",
      "outputs": [
        {
          "internalType": "uint256",
          "name": "",
          "type": "uint256"
        }
      ],
      "stateMutability": "view",
      "type": "function"
    },
    {
      "inputs": [
        {
          "internalType": "address",
          "name": "to",
          "type": "address"
        },
        {
          "internalType": "uint256",
          "name": "amount",
          "type": "uint256"
        }
      ],
      "name": "transfer",
      "outputs": [
        {
          "internalType": "bool",
          "name": "",
          "type": "bool"
        }
      ],
      "stateMutability": "nonpayable",
      "type": "function"
    },
    {
      "inputs": [
        {
          "internalType": "address",
          "name": "from",
          "type": "address"
        },
        {
          "internalType": "address",
          "name": "to",
          "type": "address"
        },
        {
          "internalType": "uint256",
          "name": "amount",
          "type": "uint256"
        }
      ],
      "name": "transferFrom",
      "outputs": [
        {
          "internalType": "bool",
          "name": "",
          "type": "bool"
        }
      ],
      "stateMutability": "nonpayable",
      "type": "function"
    },
    {
      "inputs": [
        {
          "internalType": "uint256",
          "name": "amount",
          "type": "uint256"
        }
      ],
      "name": "withdraw",
      "outputs": [],
      "stateMutability": "nonpayable",
      "type": "function"
    }
  ],
  "bytecode": "0x608060405234801561001057600080fd5b5060405161101038038061101083398101604081905261002f9161010d565b8181600361003d83826101ff565b50600461004a82826101ff565b50505050506102bd565b634e487b7160e01b600052604160045260246000fd5b600082601f83011261007b57600080fd5b81516001600160401b0381111561009457610094610054565b604051601f8201601f19908116603f011681016001600160401b03811182821017156100c2576100c2610054565b6040528181528382016020018510156100da57600080fd5b60005b828110156100f9576020818601810151838301820152016100dd565b506000918101602001919091529392505050565b6000806040838503121561012057600080fd5b82516001600160401b0381111561013657600080fd5b6101428582860161006a565b602085015190935090506001600160401b0381111561016057600080fd5b61016c8582860161006a565b9150509250929050565b600181811c9082168061018a57607f821691505b6020821081036101aa57634e487b7160e01b600052602260045260246000fd5b50919050565b601f8211156101fa57806000526020600020601f840160051c810160208510156101d75750805b601f840160051c820191505b818110156101f757600081556001016101e3565b50505b505050565b81516001600160401b0381111561021857610218610054565b61022c816102268454610176565b846101b0565b6020601f82116001811461026057600083156102485750848201515b600019600385901b1c1916600184901b1784556101f7565b600084815260208120601f198516915b828110156102905787850151825560209485019460019092019101610270565b50848210156102ae5786840151600019600387901b60f8161c191681555b50505050600190811b01905550565b610d44806102cc6000396000f3fe6080604052600436106101095760003560e01c806370a0823111610095578063a9059cbb11610064578063a9059cbb14610300578063b760faf914610320578063d0e30db014610333578063dd62ed3e1461033b578063fb8bd26f1461035b57600080fd5b806370a082311461026557806395d89b411461029b578063a457c2d7146102b0578063a556a563146102d057600080fd5b806318160ddd116100dc57806318160ddd146101ca57806323b872dd146101e95780632e1a7d4d14610209578063313ce56714610229578063395093511461024557600080fd5b806306fdde031461010e578063095ea7b3146101395780630e583dd2146101695780630f7863591461018b575b600080fd5b34801561011a57600080fd5b5061012361037b565b6040516101309190610b74565b60405180910390f35b34801561014557600080fd5b50610159610154366004610bde565b61040d565b6040519015158152602001610130565b34801561017557600080fd5b50610189610184366004610bde565b610427565b005b34801561019757600080fd5b506101896101a6366004610c08565b6001600160a01b03166000908152600560205260409020805460ff19166001179055565b3480156101d657600080fd5b506002545b604051908152602001610130565b3480156101f557600080fd5b50610159610204366004610c2a565b610435565b34801561021557600080fd5b50610189610224366004610c67565b610459565b34801561023557600080fd5b5060405160128152602001610130565b34801561025157600080fd5b50610159610260366004610bde565b610490565b34801561027157600080fd5b506101db610280366004610c08565b6001600160a01b031660009081526020819052604090205490565b3480156102a757600080fd5b506101236104b2565b3480156102bc57600080fd5b506101596102cb366004610bde565b6104c1565b3480156102dc57600080fd5b506101596102eb366004610c08565b60056020526000908152604090205460ff1681565b34801561030c57600080fd5b5061015961031b366004610bde565b610541565b61018961032e366004610c08565b61054f565b61018961055c565b34801561034757600080fd5b506101db610356366004610c80565b610568565b34801561036757600080fd5b50610189610376366004610bde565b610593565b60606003805461038a90610cb3565b80601f01602080910402602001604051908101604052809291908181526020018280546103b690610cb3565b80156104035780601f106103d857610100808354040283529160200191610403565b820191906000526020600020905b8154815290600101906020018083116103e657829003601f168201915b5050505050905090565b60003361041b81858561059d565b60019150505b92915050565b61043182826106c2565b5050565b60003361044385828561078d565b61044e858585610807565b506001949350505050565b61046333826109b6565b604051339082156108fc029083906000818181858888f19350505050158015610431573d6000803e3d6000fd5b60003361041b8185856104a38383610568565b6104ad9190610ced565b61059d565b60606004805461038a90610cb3565b600033816104cf8286610568565b9050838110156105345760405162461bcd60e51b815260206004820152602560248201527f45524332303a2064656372656173656420616c6c6f77616e63652062656c6f77604482015264207a65726f60d81b60648201526084015b60405180910390fd5b61044e828686840361059d565b60003361041b818585610807565b61055981346106c2565b50565b61056633346106c2565b565b6001600160a01b03918216600090815260016020908152604080832093909416825291909152205490565b61043182826109b6565b6001600160a01b0383166105ff5760405162461bcd60e51b8152602060048201526024808201527f45524332303a20617070726f76652066726f6d20746865207a65726f206164646044820152637265737360e01b606482015260840161052b565b6001600160a01b0382166106605760405162461bcd60e51b815260206004820152602260248201527f45524332303a20617070726f766520746f20746865207a65726f206164647265604482015261737360f01b606482015260840161052b565b6001600160a01b0383811660008181526001602090815260408083209487168084529482529182902085905590518481527f8c5be1e5ebec7d5bd14f71427d1e84f3dd0314c0f7b2291e5b200ac8c7c3b92591015b60405180910390a3505050565b6001600160a01b0382166107185760405162461bcd60e51b815260206004820152601f60248201527f45524332303a206d696e7420746f20746865207a65726f206164647265737300604482015260640161052b565b61072460008383610af1565b80600260008282546107369190610ced565b90915550506001600160a01b038216600081815260208181526040808320805486019055518481527fddf252ad1be2c89b69c2b068fc378daa952ba7f163c4a11628f55a4df523b3ef910160405180910390a35050565b60006107998484610568565b9050600019811461080157818110156107f45760405162461bcd60e51b815260206004820152601d60248201527f45524332303a20696e73756666696369656e7420616c6c6f77616e6365000000604482015260640161052b565b610801848484840361059d565b50505050565b6001600160a01b03831661086b5760405162461bcd60e51b815260206004820152602560248201527f45524332303a207472616e736665722066726f6d20746865207a65726f206164604482015264647265737360d81b606482015260840161052b565b6001600160a01b0382166108cd5760405162461bcd60e51b815260206004820152602360248201527f45524332303a207472616e7366657220746f20746865207a65726f206164647260448201526265737360e81b606482015260840161052b565b6108d8838383610af1565b6001600160a01b038316600090815260208190526040902054818110156109505760405162461bcd60e51b815260206004820152602660248201527f45524332303a207472616e7366657220616d6f756e7420657863656564732062604482015265616c616e636560d01b606482015260840161052b565b6001600160a01b03848116600081815260208181526040808320878703905593871680835291849020805487019055925185815290927fddf252ad1be2c89b69c2b068fc378daa952ba7f163c4a11628f55a4df523b3ef910160405180910390a3610801565b6001600160a01b038216610a165760405162461bcd60e51b815260206004820152602160248201527f45524332303a206275726e2066726f6d20746865207a65726f206164647265736044820152607360f81b606482015260840161052b565b610a2282600083610af1565b6001600160a01b03821660009081526020819052604090205481811015610a965760405162461bcd60e51b815260206004820152602260248201527f45524332303a206275726e20616d6f756e7420657863656564732062616c616e604482015261636560f01b606482015260840161052b565b6001600160a01b0383166000818152602081815260408083208686039055600280548790039055518581529192917fddf252ad1be2c89b69c2b068fc378daa952ba7f163c4a11628f55a4df523b3ef91016106b5565b505050565b6001600160a01b03831660009081526005602052604090205460ff16158015610b3357506001600160a01b03821660009081526005602052604090205460ff16155b610aec5760405162461bcd60e51b815260206004820152601260248201527173616e6374696f6e6564206164647265737360701b604482015260640161052b565b602081526000825180602084015260005b81811015610ba25760208186018101516040868401015201610b85565b506000604082850101526040601f19601f83011684010191505092915050565b80356001600160a01b0381168114610bd957600080fd5b919050565b60008060408385031215610bf157600080fd5b610bfa83610bc2565b946020939093013593505050565b600060208284031215610c1a57600080fd5b610c2382610bc2565b9392505050565b600080600060608486031215610c3f57600080fd5b610c4884610bc2565b9250610c5660208501610bc2565b929592945050506040919091013590565b600060208284031215610c7957600080fd5b5035919050565b60008060408385031215610c9357600080fd5b610c9c83610bc2565b9150610caa60208401610bc2565b90509250929050565b600181811c90821680610cc757607f821691505b602082108103610ce757634e487b7160e01b600052602260045260246000fd5b50919050565b8082018082111561042157634e487b7160e01b600052601160045260246000fdfea2646970667358221220804ea77239c0011ce62fe0656002290395c6f6173efa6a967972126dc867d8d964736f6c634300081b0033",
  "linkReferences": {},
  "deployedLinkReferences": {}
}