{
  "_format": "hh-sol-artifact-1",
  "contractName": "UnderlyingTimekeepingFacet",
  "sourceName": "contracts/assetManager/facets/UnderlyingTimekeepingFacet.sol",
  "abi": [
    {
      "inputs": [],
      "name": "BlockHeightNotProven",
      "type": "error"
    },
    {
      "inputs": [],
      "name": "EmergencyPauseActive",
      "type": "error"
    },
    {
      "inputs": [],
      "name": "InvalidChain",
      "type": "error"
    },
    {
      "inputs": [],
      "name": "NotAttached",
      "type": "error"
    },
    {
      "inputs": [],
      "name": "NotWhitelisted",
      "type": "error"
    },
    {
      "inputs": [],
      "name": "OnlyAssetManagerController",
      "type": "error"
    },
    {
      "inputs": [],
      "name": "OnlyImmediateGovernanceOrExecutor",
      "type": "error"
    },
    {
      "anonymous": false,
      "inputs": [
        {
          "indexed": false,
          "internalType": "uint256",
          "name": "underlyingBlockNumber",
          "type": "uint256"
        },
        {
          "indexed": false,
          "internalType": "uint256",
          "name": "underlyingBlockTimestamp",
          "type": "uint256"
        },
        {
          "indexed": false,
          "internalType": "uint256",
          "name": "updatedAt",
          "type": "uint256"
        }
      ],
      "name": "CurrentUnderlyingBlockUpdated",
      "type": "event"
    },
    {
      "inputs": [],
      "name": "currentUnderlyingBlock",
      "outputs": [
        {
          "internalType": "uint256",
          "name": "_blockNumber",
          "type": "uint256"
        },
        {
          "internalType": "uint256",
          "name": "_blockTimestamp",
          "type": "uint256"
        },
        {
          "internalType": "uint256",
          "name": "_lastUpdateTs",
          "type": "uint256"
        }
      ],
      "stateMutability": "view",
      "type": "function"
    },
    {
      "inputs": [
        {
          "components": [
            {
              "internalType": "bytes32[]",
              "name": "merkleProof",
              "type": "bytes32[]"
            },
            {
              "components": [
                {
                  "internalType": "bytes32",
                  "name": "attestationType",
                  "type": "bytes32"
                },
                {
                  "internalType": "bytes32",
                  "name": "sourceId",
                  "type": "bytes32"
                },
                {
                  "internalType": "uint64",
                  "name": "votingRound",
                  "type": "uint64"
                },
                {
                  "internalType": "uint64",
                  "name": "lowestUsedTimestamp",
                  "type": "uint64"
                },
                {
                  "components": [
                    {
                      "internalType": "uint64",
                      "name": "blockNumber",
                      "type": "uint64"
                    },
                    {
                      "internalType": "uint64",
                      "name": "queryWindow",
                      "type": "uint64"
                    }
                  ],
                  "internalType": "struct IConfirmedBlockHeightExists.RequestBody",
                  "name": "requestBody",
                  "type": "tuple"
                },
                {
                  "components": [
                    {
                      "internalType": "uint64",
                      "name": "blockTimestamp",
                      "type": "uint64"
                    },
                    {
                      "internalType": "uint64",
                      "name": "numberOfConfirmations",
                      "type": "uint64"
                    },
                    {
                      "internalType": "uint64",
                      "name": "lowestQueryWindowBlockNumber",
                      "type": "uint64"
                    },
                    {
                      "internalType": "uint64",
                      "name": "lowestQueryWindowBlockTimestamp",
                      "type": "uint64"
                    }
                  ],
                  "internalType": "struct IConfirmedBlockHeightExists.ResponseBody",
                  "name": "responseBody",
                  "type": "tuple"
                }
              ],
              "internalType": "struct IConfirmedBlockHeightExists.Response",
              "name": "data",
              "type": "tuple"
            }
          ],
          "internalType": "struct IConfirmedBlockHeightExists.Proof",
          "name": "_proof",
          "type": "tuple"
        }
      ],
      "name": "updateCurrentBlock",
      "outputs": [],
      "stateMutability": "nonpayable",
      "type": "function"
    }
  ],
  "bytecode": "0x6080604052348015600f57600080fd5b506107318061001f6000396000f3fe608060405234801561001057600080fd5b50600436106100365760003560e01c80630877acff1461003b5780634f4fbfca1461009c575b600080fd5b7fec7e8c1c441439dd40959777f4c577ea0cd42fcc1dbe59d2bd0f5d9c55df8dc554604080516201000083046001600160401b039081168252600160501b840481166020830152600160901b90930490921682820152519081900360600190f35b6100af6100aa366004610445565b6100b1565b005b6100ba816100bd565b50565b6100c681610101565b6100ba6100d960c0830160a084016104a3565b6100ea610100840160e085016104a3565b6100fc610120850161010086016104a3565b610223565b7f4f24f5c433db0962dac0d2c8b84197a6e6c7cc4e5d9ebe1916a1b6193da2f342547f4f24f5c433db0962dac0d2c8b84197a6e6c7cc4e5d9ebe1916a1b6193da2f345547f4f24f5c433db0962dac0d2c8b84197a6e6c7cc4e5d9ebe1916a1b6193da2f33a916001600160a01b0316906040840135146101945760405163057f3fa760e51b815260040160405180910390fd5b604051635e30ebfb60e01b81526001600160a01b03821690635e30ebfb906101c09086906004016105a4565b602060405180830381865afa1580156101dd573d6000803e3d6000fd5b505050506040513d601f19601f820116820180604052508101906102019190610639565b61021e57604051633bc6e97360e01b815260040160405180910390fd5b505050565b7fec7e8c1c441439dd40959777f4c577ea0cd42fcc1dbe59d2bd0f5d9c55df8db66000806102518487610671565b600f8401549091506001600160401b03620100009091048116908216111561029d57600f8301805469ffffffffffffffff00001916620100006001600160401b03841602179055600191505b60006103e87f4f24f5c433db0962dac0d2c8b84197a6e6c7cc4e5d9ebe1916a1b6193da2f33a600c01546102d79063ffffffff1687610696565b6102e191906106bf565b6102eb9087610671565b600f8501546001600160401b039182169250600160501b90041681111561034257610315816103d5565b84600f01600a6101000a8154816001600160401b0302191690836001600160401b03160217905550600192505b82156103cc57610351426103d5565b600f8501805467ffffffffffffffff60901b1916600160901b6001600160401b039384160217908190556040805162010000830484168152600160501b9092049092166020820152428183015290517f2078549e3faec355556787458d744ad19765bbb953b3f71801333f29abdce1c8916060908290030190a15b50505050505050565b60006001600160401b038211156104415760405162461bcd60e51b815260206004820152602660248201527f53616665436173743a2076616c756520646f65736e27742066697420696e203660448201526534206269747360d01b606482015260840160405180910390fd5b5090565b60006020828403121561045757600080fd5b81356001600160401b0381111561046d57600080fd5b8201610160818503121561048057600080fd5b9392505050565b80356001600160401b038116811461049e57600080fd5b919050565b6000602082840312156104b557600080fd5b61048082610487565b80358252602080820135908301526001600160401b036104e060408301610487565b1660408301526001600160401b036104fa60608301610487565b1660608301526001600160401b0361051460808301610487565b1660808301526001600160401b0361052e60a08301610487565b1660a08301526001600160401b0361054860c08301610487565b1660c08301526001600160401b0361056260e08301610487565b1660e08301526001600160401b0361057d6101008301610487565b166101008301526001600160401b036105996101208301610487565b166101208301525050565b6020815260008235601e198436030181126105be57600080fd5b83016020810190356001600160401b038111156105da57600080fd5b8060051b8036038313156105ed57600080fd5b610160602086015261018085018290526001600160fb1b0382111561061157600080fd5b80836101a087013761062960408601602088016104be565b939093016101a001949350505050565b60006020828403121561064b57600080fd5b8151801515811461048057600080fd5b634e487b7160e01b600052601160045260246000fd5b6001600160401b0381811683821601908111156106905761069061065b565b92915050565b6001600160401b0381811683821602908116908181146106b8576106b861065b565b5092915050565b60006001600160401b038316806106e657634e487b7160e01b600052601260045260246000fd5b806001600160401b038416049150509291505056fea2646970667358221220ac7aa16650e4632191cf97f1bf74852e6c0b5ebdb85d58bd614020f31e8a2ff864736f6c634300081b0033",
  "linkReferences": {},
  "deployedLinkReferences": {}
}