{
  "_format": "hh-sol-artifact-1",
  "contractName": "MinterMock",
  "sourceName": "contracts/assetManager/mock/MinterMock.sol",
  "abi": [
    {
      "inputs": [],
      "name": "receiveFunds",
      "outputs": [],
      "stateMutability": "payable",
      "type": "function"
    },
    {
      "inputs": [
        {
          "internalType": "contract IIAssetManager",
          "name": "_assetManager",
          "type": "address"
        },
        {
          "internalType": "address",
          "name": "_agentVault",
          "type": "address"
        },
        {
          "internalType": "uint256",
          "name": "_lots",
          "type": "uint256"
        },
        {
          "internalType": "uint256",
          "name": "_maxMintingFeeBIPS",
          "type": "uint256"
        },
        {
          "internalType": "address payable",
          "name": "_executor",
          "type": "address"
        },
        {
          "internalType": "string[]",
          "name": "_minterUnderlyingAddresses",
          "type": "string[]"
        }
      ],
      "name": "reserveCollateral",
      "outputs": [],
      "stateMutability": "payable",
      "type": "function"
    }
  ],
  "bytecode": "0x608060405234801561001057600080fd5b506102dc806100206000396000f3fe6080604052600436106100285760003560e01c80625c33e11461002d5780630805bc161461002f575b600080fd5b005b61002d61003d3660046100da565b604051631a7b5ff760e01b81526001600160a01b03881690631a7b5ff7903490610075908a908a908a908a908a908a906004016101c4565b60206040518083038185885af1158015610093573d6000803e3d6000fd5b50505050506040513d601f19601f820116820180604052508101906100b8919061028d565b5050505050505050565b6001600160a01b03811681146100d757600080fd5b50565b600080600080600080600060c0888a0312156100f557600080fd5b8735610100816100c2565b96506020880135610110816100c2565b95506040880135945060608801359350608088013561012e816100c2565b925060a088013567ffffffffffffffff8082111561014b57600080fd5b818a0191508a601f83011261015f57600080fd5b81358181111561016e57600080fd5b8b60208260051b850101111561018357600080fd5b60208301945080935050505092959891949750929550565b81835281816020850137506000828201602090810191909152601f909101601f19169091010190565b6001600160a01b038781168252602080830188905260408301879052908516606083015260a060808301819052820183905260009060c0600585901b84018101919084019086845b8781101561027c5786850360bf190184528135368a9003601e1901811261023257600080fd5b8901838101903567ffffffffffffffff81111561024e57600080fd5b80360382131561025d57600080fd5b61026887828461019b565b96505050928201929082019060010161020c565b50929b9a5050505050505050505050565b60006020828403121561029f57600080fd5b505191905056fea26469706673582212204c1ffbd021dfcc0e3f7c33ee0c65f4e0c0f0f516d604eb5ba9764c8958a0fbae64736f6c63430008170033",
  "linkReferences": {},
  "deployedLinkReferences": {}
}