{
  "_format": "hh-sol-artifact-1",
  "contractName": "RewardManagerMock",
  "sourceName": "contracts/assetManager/mock/RewardManagerMock.sol",
  "abi": [
    {
      "inputs": [
        {
          "internalType": "contract IWNat",
          "name": "_wNat",
          "type": "address"
        }
      ],
      "stateMutability": "nonpayable",
      "type": "constructor"
    },
    {
      "inputs": [
        {
          "internalType": "address",
          "name": "",
          "type": "address"
        },
        {
          "internalType": "address payable",
          "name": "_recipient",
          "type": "address"
        },
        {
          "internalType": "uint24",
          "name": "",
          "type": "uint24"
        },
        {
          "internalType": "bool",
          "name": "_wrap",
          "type": "bool"
        },
        {
          "components": [
            {
              "internalType": "bytes32[]",
              "name": "merkleProof",
              "type": "bytes32[]"
            },
            {
              "components": [
                {
                  "internalType": "uint24",
                  "name": "rewardEpochId",
                  "type": "uint24"
                },
                {
                  "internalType": "bytes20",
                  "name": "beneficiary",
                  "type": "bytes20"
                },
                {
                  "internalType": "uint120",
                  "name": "amount",
                  "type": "uint120"
                },
                {
                  "internalType": "enum RewardsV2Interface.ClaimType",
                  "name": "claimType",
                  "type": "uint8"
                }
              ],
              "internalType": "struct RewardsV2Interface.RewardClaim",
              "name": "body",
              "type": "tuple"
            }
          ],
          "internalType": "struct RewardsV2Interface.RewardClaimWithProof[]",
          "name": "",
          "type": "tuple[]"
        }
      ],
      "name": "claim",
      "outputs": [
        {
          "internalType": "uint256",
          "name": "_rewardAmount",
          "type": "uint256"
        }
      ],
      "stateMutability": "nonpayable",
      "type": "function"
    },
    {
      "stateMutability": "payable",
      "type": "receive"
    }
  ],
  "bytecode": "0x608060405234801561001057600080fd5b506040516103cc3803806103cc83398101604081905261002f91610054565b600080546001600160a01b0319166001600160a01b0392909216919091179055610084565b60006020828403121561006657600080fd5b81516001600160a01b038116811461007d57600080fd5b9392505050565b610339806100936000396000f3fe6080604052600436106100225760003560e01c80638e33aba51461002e57600080fd5b3661002957005b600080fd5b34801561003a57600080fd5b5061004e610049366004610218565b610060565b60405190815260200160405180910390f35b6000670de0b6b3a764000084156100ee5760005460405163a9059cbb60e01b81526001600160a01b038981166004830152602482018490529091169063a9059cbb906044016020604051808303816000875af11580156100c4573d6000803e3d6000fd5b505050506040513d601f19601f820116820180604052508101906100e891906102df565b506101e7565b600054604051632e1a7d4d60e01b8152600481018390526001600160a01b0390911690632e1a7d4d90602401600060405180830381600087803b15801561013457600080fd5b505af1158015610148573d6000803e3d6000fd5b505050506000876001600160a01b03168260405160006040518083038185875af1925050503d8060008114610199576040519150601f19603f3d011682016040523d82523d6000602084013e61019e565b606091505b50509050806101e55760405162461bcd60e51b815260206004820152600f60248201526e1d1c985b9cd9995c8819985a5b1959608a1b604482015260640160405180910390fd5b505b979650505050505050565b6001600160a01b038116811461020757600080fd5b50565b801515811461020757600080fd5b60008060008060008060a0878903121561023157600080fd5b863561023c816101f2565b9550602087013561024c816101f2565b9450604087013562ffffff8116811461026457600080fd5b935060608701356102748161020a565b9250608087013567ffffffffffffffff8082111561029157600080fd5b818901915089601f8301126102a557600080fd5b8135818111156102b457600080fd5b8a60208260051b85010111156102c957600080fd5b6020830194508093505050509295509295509295565b6000602082840312156102f157600080fd5b81516102fc8161020a565b939250505056fea2646970667358221220cfafe1ab713faf8bafa24b9dcbcd1871b74a4c0b229b404e7bdf5f6426d6c87b64736f6c63430008170033",
  "linkReferences": {},
  "deployedLinkReferences": {}
}