{
  "_format": "hh-sol-artifact-1",
  "contractName": "CollateralPoolTokenFactory",
  "sourceName": "contracts/collateralPool/implementation/CollateralPoolTokenFactory.sol",
  "abi": [
    {
      "inputs": [
        {
          "internalType": "address",
          "name": "_implementation",
          "type": "address"
        }
      ],
      "stateMutability": "nonpayable",
      "type": "constructor"
    },
    {
      "inputs": [
        {
          "internalType": "contract IICollateralPool",
          "name": "_pool",
          "type": "address"
        },
        {
          "internalType": "string",
          "name": "_systemSuffix",
          "type": "string"
        },
        {
          "internalType": "string",
          "name": "_agentSuffix",
          "type": "string"
        }
      ],
      "name": "create",
      "outputs": [
        {
          "internalType": "address",
          "name": "",
          "type": "address"
        }
      ],
      "stateMutability": "nonpayable",
      "type": "function"
    },
    {
      "inputs": [],
      "name": "implementation",
      "outputs": [
        {
          "internalType": "address",
          "name": "",
          "type": "address"
        }
      ],
      "stateMutability": "view",
      "type": "function"
    },
    {
      "inputs": [
        {
          "internalType": "bytes4",
          "name": "_interfaceId",
          "type": "bytes4"
        }
      ],
      "name": "supportsInterface",
      "outputs": [
        {
          "internalType": "bool",
          "name": "",
          "type": "bool"
        }
      ],
      "stateMutability": "pure",
      "type": "function"
    },
    {
      "inputs": [
        {
          "internalType": "address",
          "name": "",
          "type": "address"
        }
      ],
      "name": "upgradeInitCall",
      "outputs": [
        {
          "internalType": "bytes",
          "name": "",
          "type": "bytes"
        }
      ],
      "stateMutability": "pure",
      "type": "function"
    }
  ],
  "bytecode": "0x6080604052348015600f57600080fd5b50604051610ada380380610ada833981016040819052602c916050565b600080546001600160a01b0319166001600160a01b0392909216919091179055607e565b600060208284031215606157600080fd5b81516001600160a01b0381168114607757600080fd5b9392505050565b610a4d8061008d6000396000f3fe608060405234801561001057600080fd5b506004361061004c5760003560e01c806301ffc9a71461005157806308456fd2146100795780635c60da1b146100a7578063796d5836146100d2575b600080fd5b61006461005f36600461028b565b6100e5565b60405190151581526020015b60405180910390f35b61009a6100873660046102d4565b5060408051600081526020810190915290565b6040516100709190610341565b6000546100ba906001600160a01b031681565b6040516001600160a01b039091168152602001610070565b6100ba6100e03660046103f9565b61011c565b60006001600160e01b031982166301ffc9a760e01b148061011657506001600160e01b03198216633cb6ac1b60e11b145b92915050565b6000806040518060400160405280601d81526020017f46417373657420436f6c6c61746572616c20506f6f6c20546f6b656e20000000815250848460405160200161016993929190610474565b6040516020818303038152906040529050600060405180604001604052806005815260200164464350542d60d81b81525085856040516020016101ae93929190610474565b60408051601f19818403018152600080548185526020850193849052919450926001600160a01b03909116916101e39061027e565b6101ee9291906104c4565b604051809103906000f08015801561020a573d6000803e3d6000fd5b50604051639065714760e01b815290915081906001600160a01b03821690639065714790610240908b90889088906004016104f0565b600060405180830381600087803b15801561025a57600080fd5b505af115801561026e573d6000803e3d6000fd5b50929a9950505050505050505050565b6104e78061053183390190565b60006020828403121561029d57600080fd5b81356001600160e01b0319811681146102b557600080fd5b9392505050565b6001600160a01b03811681146102d157600080fd5b50565b6000602082840312156102e657600080fd5b81356102b5816102bc565b60005b8381101561030c5781810151838201526020016102f4565b50506000910152565b6000815180845261032d8160208601602086016102f1565b601f01601f19169290920160200192915050565b6020815260006102b56020830184610315565b634e487b7160e01b600052604160045260246000fd5b600082601f83011261037b57600080fd5b813567ffffffffffffffff81111561039557610395610354565b604051601f8201601f19908116603f0116810167ffffffffffffffff811182821017156103c4576103c4610354565b6040528181528382016020018510156103dc57600080fd5b816020850160208301376000918101602001919091529392505050565b60008060006060848603121561040e57600080fd5b8335610419816102bc565b9250602084013567ffffffffffffffff81111561043557600080fd5b6104418682870161036a565b925050604084013567ffffffffffffffff81111561045e57600080fd5b61046a8682870161036a565b9150509250925092565b600084516104868184602089016102f1565b84519083019061049a8183602089016102f1565b602d60f81b910190815283516104b78160018401602088016102f1565b0160010195945050505050565b6001600160a01b03831681526040602082018190526000906104e890830184610315565b949350505050565b6001600160a01b038416815260606020820181905260009061051490830185610315565b82810360408401526105268185610315565b969550505050505056fe60806040526040516104e73803806104e7833981016040819052610022916102de565b61002e82826000610035565b5050610401565b61003e83610061565b60008251118061004b5750805b1561005c5761005a83836100a1565b505b505050565b61006a816100cd565b6040516001600160a01b038216907fbc7cd75a20ee27fd9adebab32041f755214dbc6bffa90cc0225b39da2e5c2d3b90600090a250565b60606100c683836040518060600160405280602781526020016104c060279139610180565b9392505050565b6001600160a01b0381163b61013f5760405162461bcd60e51b815260206004820152602d60248201527f455243313936373a206e657720696d706c656d656e746174696f6e206973206e60448201526c1bdd08184818dbdb9d1c9858dd609a1b60648201526084015b60405180910390fd5b7f360894a13ba1a3210667c828492db98dca3e2076cc3735a920a3ca505d382bbc80546001600160a01b0319166001600160a01b0392909216919091179055565b6060600080856001600160a01b03168560405161019d91906103b2565b600060405180830381855af49150503d80600081146101d8576040519150601f19603f3d011682016040523d82523d6000602084013e6101dd565b606091505b5090925090506101ef868383876101f9565b9695505050505050565b60608315610268578251600003610261576001600160a01b0385163b6102615760405162461bcd60e51b815260206004820152601d60248201527f416464726573733a2063616c6c20746f206e6f6e2d636f6e74726163740000006044820152606401610136565b5081610272565b610272838361027a565b949350505050565b81511561028a5781518083602001fd5b8060405162461bcd60e51b815260040161013691906103ce565b634e487b7160e01b600052604160045260246000fd5b60005b838110156102d55781810151838201526020016102bd565b50506000910152565b600080604083850312156102f157600080fd5b82516001600160a01b038116811461030857600080fd5b60208401519092506001600160401b0381111561032457600080fd5b8301601f8101851361033557600080fd5b80516001600160401b0381111561034e5761034e6102a4565b604051601f8201601f19908116603f011681016001600160401b038111828210171561037c5761037c6102a4565b60405281815282820160200187101561039457600080fd5b6103a58260208301602086016102ba565b8093505050509250929050565b600082516103c48184602087016102ba565b9190910192915050565b60208152600082518060208401526103ed8160408501602087016102ba565b601f01601f19169190910160400192915050565b60b18061040f6000396000f3fe608060405236601057600e6013565b005b600e5b601f601b6021565b6058565b565b600060537f360894a13ba1a3210667c828492db98dca3e2076cc3735a920a3ca505d382bbc546001600160a01b031690565b905090565b3660008037600080366000845af43d6000803e8080156076573d6000f35b3d6000fdfea264697066735822122022d28d461077fbeb9bec7bd8c38b4ff817310194918476061a49ce5d4b1127f064736f6c634300081b0033416464726573733a206c6f772d6c6576656c2064656c65676174652063616c6c206661696c6564a2646970667358221220545b17e65afe4c538fd29f8387f7cb9c62ec7219e7dcab3fa94e551952603cf964736f6c634300081b0033",
  "linkReferences": {},
  "deployedLinkReferences": {}
}