{
  "_format": "hh-sol-artifact-1",
  "contractName": "DistributionToDelegators",
  "sourceName": "contracts/assetManager/mock/DistributionToDelegators.sol",
  "abi": [
    {
      "inputs": [
        {
          "internalType": "contract IWNat",
          "name": "_wNat",
          "type": "address"
        }
      ],
      "stateMutability": "nonpayable",
      "type": "constructor"
    },
    {
      "anonymous": false,
      "inputs": [
        {
          "indexed": false,
          "internalType": "address",
          "name": "account",
          "type": "address"
        }
      ],
      "name": "OptedOutOfAirdrop",
      "type": "event"
    },
    {
      "inputs": [
        {
          "internalType": "address",
          "name": "",
          "type": "address"
        },
        {
          "internalType": "address",
          "name": "_recipient",
          "type": "address"
        },
        {
          "internalType": "uint256",
          "name": "",
          "type": "uint256"
        },
        {
          "internalType": "bool",
          "name": "_wrap",
          "type": "bool"
        }
      ],
      "name": "claim",
      "outputs": [
        {
          "internalType": "uint256",
          "name": "_rewardAmount",
          "type": "uint256"
        }
      ],
      "stateMutability": "nonpayable",
      "type": "function"
    },
    {
      "inputs": [],
      "name": "optOutOfAirdrop",
      "outputs": [],
      "stateMutability": "nonpayable",
      "type": "function"
    },
    {
      "stateMutability": "payable",
      "type": "receive"
    }
  ],
  "bytecode": "0x608060405234801561001057600080fd5b506040516103b03803806103b083398101604081905261002f91610054565b600080546001600160a01b0319166001600160a01b0392909216919091179055610084565b60006020828403121561006657600080fd5b81516001600160a01b038116811461007d57600080fd5b9392505050565b61031d806100936000396000f3fe60806040526004361061002d5760003560e01c8063b2c1219214610039578063f2a1f7671461006b57600080fd5b3661003457005b600080fd5b34801561004557600080fd5b50610059610054366004610274565b610082565b60405190815260200160405180910390f35b34801561007757600080fd5b50610080610212565b005b6000670de0b6b3a764000082156101105760005460405163a9059cbb60e01b81526001600160a01b038781166004830152602482018490529091169063a9059cbb906044016020604051808303816000875af11580156100e6573d6000803e3d6000fd5b505050506040513d601f19601f8201168201806040525081019061010a91906102c3565b50610209565b600054604051632e1a7d4d60e01b8152600481018390526001600160a01b0390911690632e1a7d4d90602401600060405180830381600087803b15801561015657600080fd5b505af115801561016a573d6000803e3d6000fd5b505050506000856001600160a01b03168260405160006040518083038185875af1925050503d80600081146101bb576040519150601f19603f3d011682016040523d82523d6000602084013e6101c0565b606091505b50509050806102075760405162461bcd60e51b815260206004820152600f60248201526e1d1c985b9cd9995c8819985a5b1959608a1b604482015260640160405180910390fd5b505b95945050505050565b6040513381527ff9ad59095575f64b755ef471a707947375ae7b973c102582ed669e54864fb06a9060200160405180910390a1565b80356001600160a01b038116811461025e57600080fd5b919050565b801515811461027157600080fd5b50565b6000806000806080858703121561028a57600080fd5b61029385610247565b93506102a160208601610247565b92506040850135915060608501356102b881610263565b939692955090935050565b6000602082840312156102d557600080fd5b81516102e081610263565b939250505056fea2646970667358221220b29cd0df570b3818879554617e50ac6109de4cff1d0ed64bfcc0de94e2c5fd4e64736f6c63430008170033",
  "linkReferences": {},
  "deployedLinkReferences": {}
}