{
  "_format": "hh-sol-artifact-1",
  "contractName": "MaliciousMintExecutor",
  "sourceName": "contracts/assetManager/mock/MaliciousMintExecutor.sol",
  "abi": [
    {
      "inputs": [
        {
          "internalType": "address",
          "name": "_diamond",
          "type": "address"
        },
        {
          "internalType": "address",
          "name": "_agentVault",
          "type": "address"
        },
        {
          "internalType": "address",
          "name": "_minter",
          "type": "address"
        },
        {
          "internalType": "address",
          "name": "_fasset",
          "type": "address"
        }
      ],
      "stateMutability": "nonpayable",
      "type": "constructor"
    },
    {
      "stateMutability": "payable",
      "type": "fallback"
    },
    {
      "inputs": [],
      "name": "agentVault",
      "outputs": [
        {
          "internalType": "address",
          "name": "",
          "type": "address"
        }
      ],
      "stateMutability": "view",
      "type": "function"
    },
    {
      "inputs": [],
      "name": "diamond",
      "outputs": [
        {
          "internalType": "address",
          "name": "",
          "type": "address"
        }
      ],
      "stateMutability": "view",
      "type": "function"
    },
    {
      "inputs": [],
      "name": "fasset",
      "outputs": [
        {
          "internalType": "address",
          "name": "",
          "type": "address"
        }
      ],
      "stateMutability": "view",
      "type": "function"
    },
    {
      "inputs": [],
      "name": "liquidationStartedTs",
      "outputs": [
        {
          "internalType": "uint256",
          "name": "",
          "type": "uint256"
        }
      ],
      "stateMutability": "view",
      "type": "function"
    },
    {
      "inputs": [
        {
          "components": [
            {
              "internalType": "bytes32[]",
              "name": "merkleProof",
              "type": "bytes32[]"
            },
            {
              "components": [
                {
                  "internalType": "bytes32",
                  "name": "attestationType",
                  "type": "bytes32"
                },
                {
                  "internalType": "bytes32",
                  "name": "sourceId",
                  "type": "bytes32"
                },
                {
                  "internalType": "uint64",
                  "name": "votingRound",
                  "type": "uint64"
                },
                {
                  "internalType": "uint64",
                  "name": "lowestUsedTimestamp",
                  "type": "uint64"
                },
                {
                  "components": [
                    {
                      "internalType": "bytes32",
                      "name": "transactionId",
                      "type": "bytes32"
                    },
                    {
                      "internalType": "uint256",
                      "name": "inUtxo",
                      "type": "uint256"
                    },
                    {
                      "internalType": "uint256",
                      "name": "utxo",
                      "type": "uint256"
                    }
                  ],
                  "internalType": "struct IPayment.RequestBody",
                  "name": "requestBody",
                  "type": "tuple"
                },
                {
                  "components": [
                    {
                      "internalType": "uint64",
                      "name": "blockNumber",
                      "type": "uint64"
                    },
                    {
                      "internalType": "uint64",
                      "name": "blockTimestamp",
                      "type": "uint64"
                    },
                    {
                      "internalType": "bytes32",
                      "name": "sourceAddressHash",
                      "type": "bytes32"
                    },
                    {
                      "internalType": "bytes32",
                      "name": "sourceAddressesRoot",
                      "type": "bytes32"
                    },
                    {
                      "internalType": "bytes32",
                      "name": "receivingAddressHash",
                      "type": "bytes32"
                    },
                    {
                      "internalType": "bytes32",
                      "name": "intendedReceivingAddressHash",
                      "type": "bytes32"
                    },
                    {
                      "internalType": "int256",
                      "name": "spentAmount",
                      "type": "int256"
                    },
                    {
                      "internalType": "int256",
                      "name": "intendedSpentAmount",
                      "type": "int256"
                    },
                    {
                      "internalType": "int256",
                      "name": "receivedAmount",
                      "type": "int256"
                    },
                    {
                      "internalType": "int256",
                      "name": "intendedReceivedAmount",
                      "type": "int256"
                    },
                    {
                      "internalType": "bytes32",
                      "name": "standardPaymentReference",
                      "type": "bytes32"
                    },
                    {
                      "internalType": "bool",
                      "name": "oneToOne",
                      "type": "bool"
                    },
                    {
                      "internalType": "uint8",
                      "name": "status",
                      "type": "uint8"
                    }
                  ],
                  "internalType": "struct IPayment.ResponseBody",
                  "name": "responseBody",
                  "type": "tuple"
                }
              ],
              "internalType": "struct IPayment.Response",
              "name": "data",
              "type": "tuple"
            }
          ],
          "internalType": "struct IPayment.Proof",
          "name": "_proof",
          "type": "tuple"
        },
        {
          "internalType": "uint256",
          "name": "_collateralReservationId",
          "type": "uint256"
        }
      ],
      "name": "mint",
      "outputs": [],
      "stateMutability": "nonpayable",
      "type": "function"
    },
    {
      "inputs": [],
      "name": "minted",
      "outputs": [
        {
          "internalType": "uint256",
          "name": "",
          "type": "uint256"
        }
      ],
      "stateMutability": "view",
      "type": "function"
    },
    {
      "inputs": [],
      "name": "minter",
      "outputs": [
        {
          "internalType": "address",
          "name": "",
          "type": "address"
        }
      ],
      "stateMutability": "view",
      "type": "function"
    },
    {
      "inputs": [],
      "name": "poolCR",
      "outputs": [
        {
          "internalType": "uint256",
          "name": "",
          "type": "uint256"
        }
      ],
      "stateMutability": "view",
      "type": "function"
    },
    {
      "inputs": [],
      "name": "reserved",
      "outputs": [
        {
          "internalType": "uint256",
          "name": "",
          "type": "uint256"
        }
      ],
      "stateMutability": "view",
      "type": "function"
    },
    {
      "inputs": [],
      "name": "vaultCR",
      "outputs": [
        {
          "internalType": "uint256",
          "name": "",
          "type": "uint256"
        }
      ],
      "stateMutability": "view",
      "type": "function"
    }
  ],
  "bytecode": "0x61010060405234801561001157600080fd5b506040516110953803806110958339810160408190526100309161006e565b6001600160a01b0393841660805291831660a052821660c0521660e0526100c2565b80516001600160a01b038116811461006957600080fd5b919050565b6000806000806080858703121561008457600080fd5b61008d85610052565b935061009b60208601610052565b92506100a960408601610052565b91506100b760608601610052565b905092959194509250565b60805160a05160c05160e051610f2b61016a6000396000818161018201528181610540015261074501526000818160ad015261051501526000818161014e0152818161023b015281816102f1015281816103a70152818161045d0152818161064401526107230152600081816101ec0152818161026301528181610319015281816103cf015281816104850152818161066c015281816106f9015261083c0152610f2b6000f3fe6080604052600436106100915760003560e01c8063a5b0baac11610059578063a5b0baac14610170578063af2d266a146101a4578063ef716d45146101c4578063f0b7db4e146101da578063fe60d12c1461020e57610091565b8063075461721461009b5780634624c569146100ec5780634f02c4201461011057806361d8d13914610126578063815ea9d61461013c575b610099610224565b005b3480156100a757600080fd5b506100cf7f000000000000000000000000000000000000000000000000000000000000000081565b6040516001600160a01b0390911681526020015b60405180910390f35b3480156100f857600080fd5b5061010260005481565b6040519081526020016100e3565b34801561011c57600080fd5b5061010260025481565b34801561013257600080fd5b5061010260035481565b34801561014857600080fd5b506100cf7f000000000000000000000000000000000000000000000000000000000000000081565b34801561017c57600080fd5b506100cf7f000000000000000000000000000000000000000000000000000000000000000081565b3480156101b057600080fd5b506100996101bf3660046108a9565b610826565b3480156101d057600080fd5b5061010260045481565b3480156101e657600080fd5b506100cf7f000000000000000000000000000000000000000000000000000000000000000081565b34801561021a57600080fd5b5061010260015481565b604051630152052b60e41b81526001600160a01b037f0000000000000000000000000000000000000000000000000000000000000000811660048301527f0000000000000000000000000000000000000000000000000000000000000000169063152052b090602401600060405180830381865afa1580156102aa573d6000803e3d6000fd5b505050506040513d6000823e601f3d908101601f191682016040526102d29190810190610a32565b6103000151600255604051630152052b60e41b81526001600160a01b037f0000000000000000000000000000000000000000000000000000000000000000811660048301527f0000000000000000000000000000000000000000000000000000000000000000169063152052b090602401600060405180830381865afa158015610360573d6000803e3d6000fd5b505050506040513d6000823e601f3d908101601f191682016040526103889190810190610a32565b6103200151600155604051630152052b60e41b81526001600160a01b037f0000000000000000000000000000000000000000000000000000000000000000811660048301527f0000000000000000000000000000000000000000000000000000000000000000169063152052b090602401600060405180830381865afa158015610416573d6000803e3d6000fd5b505050506040513d6000823e601f3d908101601f1916820160405261043e9190810190610a32565b6102600151600355604051630152052b60e41b81526001600160a01b037f0000000000000000000000000000000000000000000000000000000000000000811660048301527f0000000000000000000000000000000000000000000000000000000000000000169063152052b090602401600060405180830381865afa1580156104cc573d6000803e3d6000fd5b505050506040513d6000823e601f3d908101601f191682016040526104f49190810190610a32565b6101e0015160049081556040516370a0823160e01b81526001600160a01b037f0000000000000000000000000000000000000000000000000000000000000000818116938301939093527f000000000000000000000000000000000000000000000000000000000000000016916323b872dd91309084906370a0823190602401602060405180830381865afa158015610591573d6000803e3d6000fd5b505050506040513d601f19601f820116820180604052508101906105b59190610c86565b6040516001600160e01b031960e086901b1681526001600160a01b03938416600482015292909116602483015260448201526064016020604051808303816000875af1158015610609573d6000803e3d6000fd5b505050506040513d601f19601f8201168201806040525081019061062d9190610c9f565b5060405162e1c50160e81b81526001600160a01b037f0000000000000000000000000000000000000000000000000000000000000000811660048301527f0000000000000000000000000000000000000000000000000000000000000000169063e1c50100906024016020604051808303816000875af11580156106b5573d6000803e3d6000fd5b505050506040513d601f19601f820116820180604052508101906106d99190610c86565b6000556040516370a0823160e01b81523060048201526001600160a01b037f000000000000000000000000000000000000000000000000000000000000000081169163bcbaf487917f0000000000000000000000000000000000000000000000000000000000000000917f0000000000000000000000000000000000000000000000000000000000000000909116906370a0823190602401602060405180830381865afa15801561078e573d6000803e3d6000fd5b505050506040513d601f19601f820116820180604052508101906107b29190610c86565b6040516001600160e01b031960e085901b1681526001600160a01b03909216600483015260248201526044016060604051808303816000875af11580156107fd573d6000803e3d6000fd5b505050506040513d601f19601f820116820180604052508101906108219190610cc3565b505050565b604051626d2f4760e51b81526001600160a01b037f00000000000000000000000000000000000000000000000000000000000000001690630da5e8e0906108739085908590600401610e5a565b600060405180830381600087803b15801561088d57600080fd5b505af11580156108a1573d6000803e3d6000fd5b505050505050565b600080604083850312156108bc57600080fd5b823567ffffffffffffffff8111156108d357600080fd5b83016102a081860312156108e657600080fd5b946020939093013593505050565b634e487b7160e01b600052604160045260246000fd5b604051610500810167ffffffffffffffff8111828210171561092e5761092e6108f4565b60405290565b604051601f8201601f1916810167ffffffffffffffff8111828210171561095d5761095d6108f4565b604052919050565b80516005811061097457600080fd5b919050565b80516001600160a01b038116811461097457600080fd5b600082601f8301126109a157600080fd5b815167ffffffffffffffff8111156109bb576109bb6108f4565b6109ce601f8201601f1916602001610934565b8181528460208386010111156109e357600080fd5b60005b82811015610a02576020818601810151838301820152016109e6565b506000918101602001919091529392505050565b8015158114610a2457600080fd5b50565b805161097481610a16565b600060208284031215610a4457600080fd5b815167ffffffffffffffff811115610a5b57600080fd5b82016105008185031215610a6e57600080fd5b610a7661090a565b610a7f82610965565b8152610a8d60208301610979565b6020820152610a9e60408301610979565b6040820152610aaf60608301610979565b6060820152610ac060808301610979565b608082015260a082015167ffffffffffffffff811115610adf57600080fd5b610aeb86828501610990565b60a083015250610afd60c08301610a27565b60c082015260e082810151908201526101008083015190820152610b246101208301610979565b6101208201526101408281015190820152610160808301519082015261018080830151908201526101a080830151908201526101c080830151908201526101e08083015190820152610b796102008301610979565b61020082015261022082810151908201526102408083015190820152610260808301519082015261028080830151908201526102a080830151908201526102c080830151908201526102e08083015190820152610300808301519082015261032080830151908201526103408083015190820152610360808301519082015261038080830151908201526103a080830151908201526103c080830151908201526103e08083015190820152610400808301519082015261042080830151908201526104408083015190820152610460808301519082015261048080830151908201526104a080830151908201526104c080830151908201526104e091820151918101919091529392505050565b600060208284031215610c9857600080fd5b5051919050565b600060208284031215610cb157600080fd5b8151610cbc81610a16565b9392505050565b600080600060608486031215610cd857600080fd5b5050815160208301516040909301519094929350919050565b803567ffffffffffffffff8116811461097457600080fd5b803561097481610a16565b803560ff8116811461097457600080fd5b803582526020808201359083015267ffffffffffffffff610d4860408301610cf1565b16604083015267ffffffffffffffff610d6360608301610cf1565b1660608301526080818101359083015260a0808201359083015260c08082013590830152610da960e080840190610d9b908401610cf1565b67ffffffffffffffff169052565b610db66101008201610cf1565b67ffffffffffffffff1661010083015261012081810135908301526101408082013590830152610160808201359083015261018080820135908301526101a080820135908301526101c080820135908301526101e0808201359083015261020080820135908301526102208082013590830152610e366102408201610d09565b1515610240830152610e4b6102608201610d14565b60ff8116610260840152505050565b6040815260008335601e19853603018112610e7457600080fd5b840160208101903567ffffffffffffffff811115610e9157600080fd5b8060051b803603831315610ea457600080fd5b6102a060408601526102e085018290526001600160fb1b03821115610ec857600080fd5b8083610300870137610ee06060860160208901610d25565b6020850195909552505050016103000191905056fea26469706673582212207a49f5427f53e56a295bc7f6edb075d2d4caaa20f69eb45e75c67e9fcfd4dc1764736f6c634300081b0033",
  "linkReferences": {},
  "deployedLinkReferences": {}
}