{
  "_format": "hh-sol-artifact-1",
  "contractName": "SystemInfoFacet",
  "sourceName": "contracts/assetManager/facets/SystemInfoFacet.sol",
  "abi": [
    {
      "inputs": [],
      "name": "EmergencyPauseActive",
      "type": "error"
    },
    {
      "inputs": [],
      "name": "InvalidAgentVaultAddress",
      "type": "error"
    },
    {
      "inputs": [],
      "name": "InvalidCrtId",
      "type": "error"
    },
    {
      "inputs": [],
      "name": "InvalidRequestId",
      "type": "error"
    },
    {
      "inputs": [],
      "name": "InvalidTicketId",
      "type": "error"
    },
    {
      "inputs": [],
      "name": "NotAttached",
      "type": "error"
    },
    {
      "inputs": [],
      "name": "NotWhitelisted",
      "type": "error"
    },
    {
      "inputs": [],
      "name": "OnlyAssetManagerController",
      "type": "error"
    },
    {
      "inputs": [],
      "name": "OnlyImmediateGovernanceOrExecutor",
      "type": "error"
    },
    {
      "inputs": [
        {
          "internalType": "address",
          "name": "_agentVault",
          "type": "address"
        },
        {
          "internalType": "uint256",
          "name": "_firstRedemptionTicketId",
          "type": "uint256"
        },
        {
          "internalType": "uint256",
          "name": "_pageSize",
          "type": "uint256"
        }
      ],
      "name": "agentRedemptionQueue",
      "outputs": [
        {
          "components": [
            {
              "internalType": "uint256",
              "name": "redemptionTicketId",
              "type": "uint256"
            },
            {
              "internalType": "address",
              "name": "agentVault",
              "type": "address"
            },
            {
              "internalType": "uint256",
              "name": "ticketValueUBA",
              "type": "uint256"
            }
          ],
          "internalType": "struct RedemptionTicketInfo.Data[]",
          "name": "_queue",
          "type": "tuple[]"
        },
        {
          "internalType": "uint256",
          "name": "_nextRedemptionTicketId",
          "type": "uint256"
        }
      ],
      "stateMutability": "view",
      "type": "function"
    },
    {
      "inputs": [
        {
          "internalType": "uint256",
          "name": "_collateralReservationId",
          "type": "uint256"
        }
      ],
      "name": "collateralReservationInfo",
      "outputs": [
        {
          "components": [
            {
              "internalType": "uint64",
              "name": "collateralReservationId",
              "type": "uint64"
            },
            {
              "internalType": "address",
              "name": "agentVault",
              "type": "address"
            },
            {
              "internalType": "address",
              "name": "minter",
              "type": "address"
            },
            {
              "internalType": "string",
              "name": "paymentAddress",
              "type": "string"
            },
            {
              "internalType": "bytes32",
              "name": "paymentReference",
              "type": "bytes32"
            },
            {
              "internalType": "uint256",
              "name": "valueUBA",
              "type": "uint256"
            },
            {
              "internalType": "uint128",
              "name": "mintingFeeUBA",
              "type": "uint128"
            },
            {
              "internalType": "uint128",
              "name": "reservationFeeNatWei",
              "type": "uint128"
            },
            {
              "internalType": "uint16",
              "name": "poolFeeShareBIPS",
              "type": "uint16"
            },
            {
              "internalType": "uint64",
              "name": "firstUnderlyingBlock",
              "type": "uint64"
            },
            {
              "internalType": "uint64",
              "name": "lastUnderlyingBlock",
              "type": "uint64"
            },
            {
              "internalType": "uint64",
              "name": "lastUnderlyingTimestamp",
              "type": "uint64"
            },
            {
              "internalType": "address",
              "name": "executor",
              "type": "address"
            },
            {
              "internalType": "uint256",
              "name": "executorFeeNatWei",
              "type": "uint256"
            },
            {
              "internalType": "enum CollateralReservationInfo.Status",
              "name": "status",
              "type": "uint8"
            }
          ],
          "internalType": "struct CollateralReservationInfo.Data",
          "name": "",
          "type": "tuple"
        }
      ],
      "stateMutability": "view",
      "type": "function"
    },
    {
      "inputs": [],
      "name": "controllerAttached",
      "outputs": [
        {
          "internalType": "bool",
          "name": "",
          "type": "bool"
        }
      ],
      "stateMutability": "view",
      "type": "function"
    },
    {
      "inputs": [],
      "name": "mintingPaused",
      "outputs": [
        {
          "internalType": "bool",
          "name": "",
          "type": "bool"
        }
      ],
      "stateMutability": "view",
      "type": "function"
    },
    {
      "inputs": [
        {
          "internalType": "uint256",
          "name": "_firstRedemptionTicketId",
          "type": "uint256"
        },
        {
          "internalType": "uint256",
          "name": "_pageSize",
          "type": "uint256"
        }
      ],
      "name": "redemptionQueue",
      "outputs": [
        {
          "components": [
            {
              "internalType": "uint256",
              "name": "redemptionTicketId",
              "type": "uint256"
            },
            {
              "internalType": "address",
              "name": "agentVault",
              "type": "address"
            },
            {
              "internalType": "uint256",
              "name": "ticketValueUBA",
              "type": "uint256"
            }
          ],
          "internalType": "struct RedemptionTicketInfo.Data[]",
          "name": "_queue",
          "type": "tuple[]"
        },
        {
          "internalType": "uint256",
          "name": "_nextRedemptionTicketId",
          "type": "uint256"
        }
      ],
      "stateMutability": "view",
      "type": "function"
    },
    {
      "inputs": [
        {
          "internalType": "uint256",
          "name": "_redemptionRequestId",
          "type": "uint256"
        }
      ],
      "name": "redemptionRequestInfo",
      "outputs": [
        {
          "components": [
            {
              "internalType": "uint64",
              "name": "redemptionRequestId",
              "type": "uint64"
            },
            {
              "internalType": "enum RedemptionRequestInfo.Status",
              "name": "status",
              "type": "uint8"
            },
            {
              "internalType": "address",
              "name": "agentVault",
              "type": "address"
            },
            {
              "internalType": "address",
              "name": "redeemer",
              "type": "address"
            },
            {
              "internalType": "string",
              "name": "paymentAddress",
              "type": "string"
            },
            {
              "internalType": "bytes32",
              "name": "paymentReference",
              "type": "bytes32"
            },
            {
              "internalType": "uint128",
              "name": "valueUBA",
              "type": "uint128"
            },
            {
              "internalType": "uint128",
              "name": "feeUBA",
              "type": "uint128"
            },
            {
              "internalType": "uint16",
              "name": "poolFeeShareBIPS",
              "type": "uint16"
            },
            {
              "internalType": "uint64",
              "name": "firstUnderlyingBlock",
              "type": "uint64"
            },
            {
              "internalType": "uint64",
              "name": "lastUnderlyingBlock",
              "type": "uint64"
            },
            {
              "internalType": "uint64",
              "name": "lastUnderlyingTimestamp",
              "type": "uint64"
            },
            {
              "internalType": "uint64",
              "name": "timestamp",
              "type": "uint64"
            },
            {
              "internalType": "bool",
              "name": "poolSelfClose",
              "type": "bool"
            },
            {
              "internalType": "bool",
              "name": "transferToCoreVault",
              "type": "bool"
            },
            {
              "internalType": "address",
              "name": "executor",
              "type": "address"
            },
            {
              "internalType": "uint256",
              "name": "executorFeeNatWei",
              "type": "uint256"
            }
          ],
          "internalType": "struct RedemptionRequestInfo.Data",
          "name": "",
          "type": "tuple"
        }
      ],
      "stateMutability": "view",
      "type": "function"
    }
  ],
  "bytecode": "0x6080604052348015600f57600080fd5b506113dd8061001f6000396000f3fe608060405234801561001057600080fd5b50600436106100625760003560e01c806326e640201461006757806353777730146100915780635c907eaa146100ce57806391a76c40146100ee578063b5bd20ee14610101578063e1a283d614610121575b600080fd5b61007a610075366004610eb0565b610153565b604051610088929190610ef1565b60405180910390f35b7fec7e8c1c441439dd40959777f4c577ea0cd42fcc1dbe59d2bd0f5d9c55df8dc754600160881b900460ff165b6040519015158152602001610088565b6100e16100dc366004610f60565b61016e565b6040516100889190610fe9565b61007a6100fc36600461112d565b610407565b61011461010f366004610f60565b610420565b604051610088919061115f565b7fec7e8c1c441439dd40959777f4c577ea0cd42fcc1dbe59d2bd0f5d9c55df8dc6546001600160401b031615156100be565b606060006101628585856106b6565b91509150935093915050565b6101ea604080516101e0810182526000808252602082018190529181018290526060808201526080810182905260a0810182905260c0810182905260e08101829052610100810182905261012081018290526101408101829052610160810182905261018081018290526101a08101829052906101c082015290565b60006101f5836106cf565b9050600061020d826001600160401b0316600061073f565b600281015490915060009061022a906001600160a01b031661082a565b604080516101e0810182526001600160401b03861681526002808601546001600160a01b039081166020840152600387015416928201929092529082018054929350909160608301919061027d906112cb565b80601f01602080910402602001604051908101604052809291908181526020018280546102a9906112cb565b80156102f65780601f106102cb576101008083540402835291602001916102f6565b820191906000526020600020905b8154815290600101906020018083116102d957829003601f168201915b50505050508152602001610312856001600160401b03166108be565b8152835460209091019061032e906001600160401b03166108e8565b815260018401546001600160801b038082166020840152600160801b9091041660408201526060016103608385610954565b61ffff16815283546001600160401b03600160401b820481166020840152600160801b820481166040840152600160c01b9091048116606083015260048501546001600160a01b038116608084015260a0909201916103cc91633b9aca0091600160a01b90041661131b565b81526020016103eb8460030160149054906101000a900460ff16610996565b60038111156103fc576103fc610fbf565b905295945050505050565b606060006104158484610a23565b915091509250929050565b60408051610220810182526000808252602082018190529181018290526060808201839052608082015260a0810182905260c0810182905260e08101829052610100810182905261012081018290526101408101829052610160810182905261018081018290526101a081018290526101c081018290526101e081018290526102008101829052906104b1836106cf565b905060006104c9826001600160401b03166000610a33565b9050604051806102200160405280836001600160401b031681526020016105008360040160149054906101000a900460ff16610af9565b600581111561051157610511610fbf565b815260048301546001600160a01b0390811660208301526003840154166040820152600783018054606090920191610548906112cb565b80601f0160208091040260200160405190810160405280929190818152602001828054610574906112cb565b80156105c15780601f10610596576101008083540402835291602001916105c1565b820191906000526020600020905b8154815290600101906020018083116105a457829003601f168201915b505050505081526020016105dd846001600160401b0316610bc9565b815260018301546001600160801b038082166020840152600160801b91829004166040830152600884015461010080820461ffff16606085015260028601546001600160401b038082166080870152600160401b8204811660a0870152939004831660c08501526003860154600160a01b90819004841660e08601526004870154600160a81b900460ff9081161515928601929092529116151561012084015260058501546001600160a01b038116610140850152610160909301926106ac92633b9aca00929091041661131b565b9052949350505050565b606060006106c38561082a565b50610162858585610bf3565b60006001600160401b0382111561073b5760405162461bcd60e51b815260206004820152602660248201527f53616665436173743a2076616c756520646f65736e27742066697420696e203660448201526534206269747360d01b606482015260840160405180910390fd5b5090565b600080831161076157604051631905b1b960e21b815260040160405180910390fd5b5060008281527fec7e8c1c441439dd40959777f4c577ea0cd42fcc1dbe59d2bd0f5d9c55df8dbc60205260408120805490917fec7e8c1c441439dd40959777f4c577ea0cd42fcc1dbe59d2bd0f5d9c55df8db6916001600160401b031690036107dd57604051631905b1b960e21b815260040160405180910390fd5b8215610823576000600383810154600160a01b900460ff169081111561080557610805610fbf565b1461082357604051631905b1b960e21b815260040160405180910390fd5b5092915050565b604081901b68010000000000000000600160e01b03167f5bebac0595fee029d42bb673937f5f1cb81cf8641382bc17774635de9b7d79651860048101546000919060ff168281600581111561088157610881610fbf565b141580156108a15750600581600581111561089e5761089e610fbf565b14155b6108235760405163d68a46c560e01b815260040160405180910390fd5b60006001600160401b038211156108d7576108d7611332565b5067464250526641000160c01b1790565b7f4f24f5c433db0962dac0d2c8b84197a6e6c7cc4e5d9ebe1916a1b6193da2f346546000907f4f24f5c433db0962dac0d2c8b84197a6e6c7cc4e5d9ebe1916a1b6193da2f33a9061094d90600160901b90046001600160401b0390811690851661131b565b9392505050565b6002810154600090600160a01b900461ffff1680610981576004840154600160581b900461ffff1661098c565b61098c600182611348565b9150505b92915050565b6000808260038111156109ab576109ab610fbf565b036109b857506000919050565b60018260038111156109cc576109cc610fbf565b036109d957506001919050565b60028260038111156109ed576109ed610fbf565b036109fa57506002919050565b6003826003811115610a0e57610a0e610fbf565b14610a1b57610a1b611332565b506003919050565b6060600061041560008585610bf3565b60007fec7e8c1c441439dd40959777f4c577ea0cd42fcc1dbe59d2bd0f5d9c55df8db6838203610a76576040516302e8145360e61b815260040160405180910390fd5b6000848152600a82016020526040902091508215610ab957610a9782610e67565b610ab4576040516302e8145360e61b815260040160405180910390fd5b610823565b60006004830154600160a01b900460ff166006811115610adb57610adb610fbf565b03610823576040516302e8145360e61b815260040160405180910390fd5b60006001826006811115610b0f57610b0f610fbf565b03610b1c57506000919050565b6002826006811115610b3057610b30610fbf565b03610b3d57506001919050565b6003826006811115610b5157610b51610fbf565b03610b5e57506002919050565b6004826006811115610b7257610b72610fbf565b03610b7f57506003919050565b6005826006811115610b9357610b93610fbf565b03610ba057506004919050565b6006826006811115610bb457610bb4610fbf565b14610bc157610bc1611332565b506005919050565b60006001600160401b03821115610be257610be2611332565b5067232128293320800160c11b1790565b606060007fec7e8c1c441439dd40959777f4c577ea0cd42fcc1dbe59d2bd0f5d9c55df8db67fec7e8c1c441439dd40959777f4c577ea0cd42fcc1dbe59d2bd0f5d9c55df8dbd82610c43876106cf565b9050806001600160401b0316600003610ca0576001600160a01b03881615610c8e576001600160a01b03881660009081526001830160205260409020546001600160401b0316610c9d565b60028201546001600160401b03165b90505b6001600160401b0381161580610cd657506001600160401b0381166000908152602083905260409020546001600160a01b031615155b610cf35760405163369cb27760e01b815260040160405180910390fd5b6000866001600160401b03811115610d0d57610d0d611362565b604051908082528060200260200182016040528015610d6b57816020015b610d5860405180606001604052806000815260200160006001600160a01b03168152602001600081525090565b815260200190600190039081610d2b5790505b50905060005b6001600160401b03831615801590610d8857508781105b15610e4e576001600160401b0380841660008181526020878152604091829020825160608101845293845280546001600160a01b038116928501929092529391830191610ddc91600160a01b9004166108e8565b815250838381518110610df157610df1611378565b60209081029190910101526001600160a01b038b1615610e25576001810154600160c01b90046001600160401b0316610e3b565b6001810154600160401b90046001600160401b03165b9350610e468261138e565b915050610d71565b815294506001600160401b031692505050935093915050565b6004810154600090600160a01b900460ff166001816006811115610e8d57610e8d610fbf565b148061094d57506002816006811115610ea857610ea8610fbf565b149392505050565b600080600060608486031215610ec557600080fd5b83356001600160a01b0381168114610edc57600080fd5b95602085013595506040909401359392505050565b6040808252835190820181905260009060208501906060840190835b81811015610f4d578351805184526020808201516001600160a01b0316818601526040918201519185019190915290930192606090920191600101610f0d565b5050602093909301939093525092915050565b600060208284031215610f7257600080fd5b5035919050565b6000815180845260005b81811015610f9f57602081850181015186830182015201610f83565b506000602082860101526020601f19601f83011685010191505092915050565b634e487b7160e01b600052602160045260246000fd5b60048110610fe557610fe5610fbf565b9052565b602081526110036020820183516001600160401b03169052565b6000602083015161101f60408401826001600160a01b03169052565b5060408301516001600160a01b03811660608401525060608301516101e06080840152611050610200840182610f79565b9050608084015160a084015260a084015160c084015260c084015161108060e08501826001600160801b03169052565b5060e08401516001600160801b0381166101008501525061010084015161ffff8116610120850152506101208401516001600160401b038116610140850152506101408401516001600160401b038116610160850152506101608401516001600160401b038116610180850152506101808401516001600160a01b0381166101a0850152506101a08401516101c08401526101c08401516111256101e0850182610fd5565b509392505050565b6000806040838503121561114057600080fd5b50508035926020909101359150565b60068110610fe557610fe5610fbf565b602081526111796020820183516001600160401b03169052565b6000602083015161118d604084018261114f565b5060408301516001600160a01b03811660608401525060608301516001600160a01b038116608084015250608083015161022060a08401526111d3610240840182610f79565b905060a084015160c084015260c08401516111f960e08501826001600160801b03169052565b5060e08401516001600160801b0381166101008501525061010084015161ffff8116610120850152506101208401516001600160401b038116610140850152506101408401516001600160401b038116610160850152506101608401516001600160401b038116610180850152506101808401516001600160401b0381166101a0850152506101a08401518015156101c0850152506101c08401518015156101e0850152506101e08401516001600160a01b038116610200850152506102008401516102208401528091505092915050565b600181811c908216806112df57607f821691505b6020821081036112ff57634e487b7160e01b600052602260045260246000fd5b50919050565b634e487b7160e01b600052601160045260246000fd5b808202811582820484141761099057610990611305565b634e487b7160e01b600052600160045260246000fd5b61ffff828116828216039081111561099057610990611305565b634e487b7160e01b600052604160045260246000fd5b634e487b7160e01b600052603260045260246000fd5b6000600182016113a0576113a0611305565b506001019056fea26469706673582212207859b6d01224c26ed0cb7a61e8dc2e1780a677cf30d50a41a2379a28c75ca19f64736f6c634300081b0033",
  "linkReferences": {},
  "deployedLinkReferences": {}
}