{
  "_format": "hh-sol-artifact-1",
  "contractName": "SystemInfoFacet",
  "sourceName": "contracts/assetManager/facets/SystemInfoFacet.sol",
  "abi": [
    {
      "inputs": [],
      "name": "EmergencyPauseActive",
      "type": "error"
    },
    {
      "inputs": [],
      "name": "InvalidAgentVaultAddress",
      "type": "error"
    },
    {
      "inputs": [],
      "name": "InvalidCrtId",
      "type": "error"
    },
    {
      "inputs": [],
      "name": "InvalidRequestId",
      "type": "error"
    },
    {
      "inputs": [],
      "name": "InvalidTicketId",
      "type": "error"
    },
    {
      "inputs": [],
      "name": "NotAttached",
      "type": "error"
    },
    {
      "inputs": [],
      "name": "NotWhitelisted",
      "type": "error"
    },
    {
      "inputs": [],
      "name": "OnlyAssetManagerController",
      "type": "error"
    },
    {
      "inputs": [
        {
          "internalType": "address",
          "name": "_agentVault",
          "type": "address"
        },
        {
          "internalType": "uint256",
          "name": "_firstRedemptionTicketId",
          "type": "uint256"
        },
        {
          "internalType": "uint256",
          "name": "_pageSize",
          "type": "uint256"
        }
      ],
      "name": "agentRedemptionQueue",
      "outputs": [
        {
          "components": [
            {
              "internalType": "uint256",
              "name": "redemptionTicketId",
              "type": "uint256"
            },
            {
              "internalType": "address",
              "name": "agentVault",
              "type": "address"
            },
            {
              "internalType": "uint256",
              "name": "ticketValueUBA",
              "type": "uint256"
            }
          ],
          "internalType": "struct RedemptionTicketInfo.Data[]",
          "name": "_queue",
          "type": "tuple[]"
        },
        {
          "internalType": "uint256",
          "name": "_nextRedemptionTicketId",
          "type": "uint256"
        }
      ],
      "stateMutability": "view",
      "type": "function"
    },
    {
      "inputs": [
        {
          "internalType": "uint256",
          "name": "_collateralReservationId",
          "type": "uint256"
        }
      ],
      "name": "collateralReservationInfo",
      "outputs": [
        {
          "components": [
            {
              "internalType": "uint64",
              "name": "collateralReservationId",
              "type": "uint64"
            },
            {
              "internalType": "address",
              "name": "agentVault",
              "type": "address"
            },
            {
              "internalType": "address",
              "name": "minter",
              "type": "address"
            },
            {
              "internalType": "string",
              "name": "paymentAddress",
              "type": "string"
            },
            {
              "internalType": "bytes32",
              "name": "paymentReference",
              "type": "bytes32"
            },
            {
              "internalType": "uint256",
              "name": "valueUBA",
              "type": "uint256"
            },
            {
              "internalType": "uint128",
              "name": "mintingFeeUBA",
              "type": "uint128"
            },
            {
              "internalType": "uint128",
              "name": "reservationFeeNatWei",
              "type": "uint128"
            },
            {
              "internalType": "uint16",
              "name": "poolFeeShareBIPS",
              "type": "uint16"
            },
            {
              "internalType": "uint64",
              "name": "firstUnderlyingBlock",
              "type": "uint64"
            },
            {
              "internalType": "uint64",
              "name": "lastUnderlyingBlock",
              "type": "uint64"
            },
            {
              "internalType": "uint64",
              "name": "lastUnderlyingTimestamp",
              "type": "uint64"
            },
            {
              "internalType": "address",
              "name": "executor",
              "type": "address"
            },
            {
              "internalType": "uint256",
              "name": "executorFeeNatWei",
              "type": "uint256"
            },
            {
              "internalType": "enum CollateralReservationInfo.Status",
              "name": "status",
              "type": "uint8"
            }
          ],
          "internalType": "struct CollateralReservationInfo.Data",
          "name": "",
          "type": "tuple"
        }
      ],
      "stateMutability": "view",
      "type": "function"
    },
    {
      "inputs": [],
      "name": "controllerAttached",
      "outputs": [
        {
          "internalType": "bool",
          "name": "",
          "type": "bool"
        }
      ],
      "stateMutability": "view",
      "type": "function"
    },
    {
      "inputs": [],
      "name": "mintingPaused",
      "outputs": [
        {
          "internalType": "bool",
          "name": "",
          "type": "bool"
        }
      ],
      "stateMutability": "view",
      "type": "function"
    },
    {
      "inputs": [
        {
          "internalType": "uint256",
          "name": "_firstRedemptionTicketId",
          "type": "uint256"
        },
        {
          "internalType": "uint256",
          "name": "_pageSize",
          "type": "uint256"
        }
      ],
      "name": "redemptionQueue",
      "outputs": [
        {
          "components": [
            {
              "internalType": "uint256",
              "name": "redemptionTicketId",
              "type": "uint256"
            },
            {
              "internalType": "address",
              "name": "agentVault",
              "type": "address"
            },
            {
              "internalType": "uint256",
              "name": "ticketValueUBA",
              "type": "uint256"
            }
          ],
          "internalType": "struct RedemptionTicketInfo.Data[]",
          "name": "_queue",
          "type": "tuple[]"
        },
        {
          "internalType": "uint256",
          "name": "_nextRedemptionTicketId",
          "type": "uint256"
        }
      ],
      "stateMutability": "view",
      "type": "function"
    },
    {
      "inputs": [
        {
          "internalType": "uint256",
          "name": "_redemptionRequestId",
          "type": "uint256"
        }
      ],
      "name": "redemptionRequestInfo",
      "outputs": [
        {
          "components": [
            {
              "internalType": "uint64",
              "name": "redemptionRequestId",
              "type": "uint64"
            },
            {
              "internalType": "enum RedemptionRequestInfo.Status",
              "name": "status",
              "type": "uint8"
            },
            {
              "internalType": "address",
              "name": "agentVault",
              "type": "address"
            },
            {
              "internalType": "address",
              "name": "redeemer",
              "type": "address"
            },
            {
              "internalType": "string",
              "name": "paymentAddress",
              "type": "string"
            },
            {
              "internalType": "bytes32",
              "name": "paymentReference",
              "type": "bytes32"
            },
            {
              "internalType": "uint128",
              "name": "valueUBA",
              "type": "uint128"
            },
            {
              "internalType": "uint128",
              "name": "feeUBA",
              "type": "uint128"
            },
            {
              "internalType": "uint16",
              "name": "poolFeeShareBIPS",
              "type": "uint16"
            },
            {
              "internalType": "uint64",
              "name": "firstUnderlyingBlock",
              "type": "uint64"
            },
            {
              "internalType": "uint64",
              "name": "lastUnderlyingBlock",
              "type": "uint64"
            },
            {
              "internalType": "uint64",
              "name": "lastUnderlyingTimestamp",
              "type": "uint64"
            },
            {
              "internalType": "uint64",
              "name": "timestamp",
              "type": "uint64"
            },
            {
              "internalType": "bool",
              "name": "poolSelfClose",
              "type": "bool"
            },
            {
              "internalType": "bool",
              "name": "transferToCoreVault",
              "type": "bool"
            },
            {
              "internalType": "address",
              "name": "executor",
              "type": "address"
            },
            {
              "internalType": "uint256",
              "name": "executorFeeNatWei",
              "type": "uint256"
            }
          ],
          "internalType": "struct RedemptionRequestInfo.Data",
          "name": "",
          "type": "tuple"
        }
      ],
      "stateMutability": "view",
      "type": "function"
    }
  ],
  "bytecode": "0x6080604052348015600f57600080fd5b506113df8061001f6000396000f3fe608060405234801561001057600080fd5b50600436106100625760003560e01c806326e640201461006757806353777730146100915780635c907eaa146100ce57806391a76c40146100ee578063b5bd20ee14610101578063e1a283d614610121575b600080fd5b61007a610075366004610eac565b610153565b604051610088929190610eed565b60405180910390f35b7fec7e8c1c441439dd40959777f4c577ea0cd42fcc1dbe59d2bd0f5d9c55df8dc754600160881b900460ff165b6040519015158152602001610088565b6100e16100dc366004610f5c565b61016e565b6040516100889190610fe5565b61007a6100fc366004611129565b610445565b61011461010f366004610f5c565b61045e565b604051610088919061115b565b7fec7e8c1c441439dd40959777f4c577ea0cd42fcc1dbe59d2bd0f5d9c55df8dc6546001600160401b031615156100be565b606060006101628585856106f4565b91509150935093915050565b6101ea604080516101e0810182526000808252602082018190529181018290526060808201526080810182905260a0810182905260c0810182905260e08101829052610100810182905261012081018290526101408101829052610160810182905261018081018290526101a08101829052906101c082015290565b60006101f58361070d565b9050600061020d826001600160401b0316600061077d565b600281015490915060009061022a906001600160a01b0316610868565b604080516101e0810182526001600160401b03861681526002808601546001600160a01b039081166020840152600387015416928201929092529082018054929350909160608301919061027d906112c7565b80601f01602080910402602001604051908101604052809291908181526020018280546102a9906112c7565b80156102f65780601f106102cb576101008083540402835291602001916102f6565b820191906000526020600020905b8154815290600101906020018083116102d957829003601f168201915b50505050508152602001610312856001600160401b03166108fc565b8152835460209091019061032e906001600160401b0316610926565b815260018401546001600160801b038082166020840152600160801b9091041660408201526002840154606090910190600160a01b900461ffff16610382576004830154600160581b900461ffff1661039e565b600284015461039e90600190600160a01b900461ffff16611317565b61ffff16815283546001600160401b03600160401b820481166020840152600160801b820481166040840152600160c01b9091048116606083015260048501546001600160a01b038116608084015260a09092019161040a91633b9aca0091600160a01b900416611337565b81526020016104298460030160149054906101000a900460ff16610992565b600381111561043a5761043a610fbb565b905295945050505050565b606060006104538484610a1f565b915091509250929050565b60408051610220810182526000808252602082018190529181018290526060808201839052608082015260a0810182905260c0810182905260e08101829052610100810182905261012081018290526101408101829052610160810182905261018081018290526101a081018290526101c081018290526101e081018290526102008101829052906104ef8361070d565b90506000610507826001600160401b03166000610a2f565b9050604051806102200160405280836001600160401b0316815260200161053e8360040160149054906101000a900460ff16610af5565b600581111561054f5761054f610fbb565b815260048301546001600160a01b0390811660208301526003840154166040820152600783018054606090920191610586906112c7565b80601f01602080910402602001604051908101604052809291908181526020018280546105b2906112c7565b80156105ff5780601f106105d4576101008083540402835291602001916105ff565b820191906000526020600020905b8154815290600101906020018083116105e257829003601f168201915b5050505050815260200161061b846001600160401b0316610bc5565b815260018301546001600160801b038082166020840152600160801b91829004166040830152600884015461010080820461ffff16606085015260028601546001600160401b038082166080870152600160401b8204811660a0870152939004831660c08501526003860154600160a01b90819004841660e08601526004870154600160a81b900460ff9081161515928601929092529116151561012084015260058501546001600160a01b038116610140850152610160909301926106ea92633b9aca009290910416611337565b9052949350505050565b6060600061070185610868565b50610162858585610bef565b60006001600160401b038211156107795760405162461bcd60e51b815260206004820152602660248201527f53616665436173743a2076616c756520646f65736e27742066697420696e203660448201526534206269747360d01b606482015260840160405180910390fd5b5090565b600080831161079f57604051631905b1b960e21b815260040160405180910390fd5b5060008281527fec7e8c1c441439dd40959777f4c577ea0cd42fcc1dbe59d2bd0f5d9c55df8dbc60205260408120805490917fec7e8c1c441439dd40959777f4c577ea0cd42fcc1dbe59d2bd0f5d9c55df8db6916001600160401b0316900361081b57604051631905b1b960e21b815260040160405180910390fd5b8215610861576000600383810154600160a01b900460ff169081111561084357610843610fbb565b1461086157604051631905b1b960e21b815260040160405180910390fd5b5092915050565b604081901b68010000000000000000600160e01b03167f5bebac0595fee029d42bb673937f5f1cb81cf8641382bc17774635de9b7d79651860048101546000919060ff16828160058111156108bf576108bf610fbb565b141580156108df575060058160058111156108dc576108dc610fbb565b14155b6108615760405163d68a46c560e01b815260040160405180910390fd5b60006001600160401b038211156109155761091561134e565b5067464250526641000160c01b1790565b7f4f24f5c433db0962dac0d2c8b84197a6e6c7cc4e5d9ebe1916a1b6193da2f346546000907f4f24f5c433db0962dac0d2c8b84197a6e6c7cc4e5d9ebe1916a1b6193da2f33a9061098b90600160901b90046001600160401b03908116908516611337565b9392505050565b6000808260038111156109a7576109a7610fbb565b036109b457506000919050565b60018260038111156109c8576109c8610fbb565b036109d557506001919050565b60028260038111156109e9576109e9610fbb565b036109f657506002919050565b6003826003811115610a0a57610a0a610fbb565b14610a1757610a1761134e565b506003919050565b6060600061045360008585610bef565b60007fec7e8c1c441439dd40959777f4c577ea0cd42fcc1dbe59d2bd0f5d9c55df8db6838203610a72576040516302e8145360e61b815260040160405180910390fd5b6000848152600a82016020526040902091508215610ab557610a9382610e63565b610ab0576040516302e8145360e61b815260040160405180910390fd5b610861565b60006004830154600160a01b900460ff166006811115610ad757610ad7610fbb565b03610861576040516302e8145360e61b815260040160405180910390fd5b60006001826006811115610b0b57610b0b610fbb565b03610b1857506000919050565b6002826006811115610b2c57610b2c610fbb565b03610b3957506001919050565b6003826006811115610b4d57610b4d610fbb565b03610b5a57506002919050565b6004826006811115610b6e57610b6e610fbb565b03610b7b57506003919050565b6005826006811115610b8f57610b8f610fbb565b03610b9c57506004919050565b6006826006811115610bb057610bb0610fbb565b14610bbd57610bbd61134e565b506005919050565b60006001600160401b03821115610bde57610bde61134e565b5067232128293320800160c11b1790565b606060007fec7e8c1c441439dd40959777f4c577ea0cd42fcc1dbe59d2bd0f5d9c55df8db67fec7e8c1c441439dd40959777f4c577ea0cd42fcc1dbe59d2bd0f5d9c55df8dbd82610c3f8761070d565b9050806001600160401b0316600003610c9c576001600160a01b03881615610c8a576001600160a01b03881660009081526001830160205260409020546001600160401b0316610c99565b60028201546001600160401b03165b90505b6001600160401b0381161580610cd257506001600160401b0381166000908152602083905260409020546001600160a01b031615155b610cef5760405163369cb27760e01b815260040160405180910390fd5b6000866001600160401b03811115610d0957610d09611364565b604051908082528060200260200182016040528015610d6757816020015b610d5460405180606001604052806000815260200160006001600160a01b03168152602001600081525090565b815260200190600190039081610d275790505b50905060005b6001600160401b03831615801590610d8457508781105b15610e4a576001600160401b0380841660008181526020878152604091829020825160608101845293845280546001600160a01b038116928501929092529391830191610dd891600160a01b900416610926565b815250838381518110610ded57610ded61137a565b60209081029190910101526001600160a01b038b1615610e21576001810154600160c01b90046001600160401b0316610e37565b6001810154600160401b90046001600160401b03165b9350610e4282611390565b915050610d6d565b815294506001600160401b031692505050935093915050565b6004810154600090600160a01b900460ff166001816006811115610e8957610e89610fbb565b148061098b57506002816006811115610ea457610ea4610fbb565b149392505050565b600080600060608486031215610ec157600080fd5b83356001600160a01b0381168114610ed857600080fd5b95602085013595506040909401359392505050565b6040808252835190820181905260009060208501906060840190835b81811015610f49578351805184526020808201516001600160a01b0316818601526040918201519185019190915290930192606090920191600101610f09565b5050602093909301939093525092915050565b600060208284031215610f6e57600080fd5b5035919050565b6000815180845260005b81811015610f9b57602081850181015186830182015201610f7f565b506000602082860101526020601f19601f83011685010191505092915050565b634e487b7160e01b600052602160045260246000fd5b60048110610fe157610fe1610fbb565b9052565b60208152610fff6020820183516001600160401b03169052565b6000602083015161101b60408401826001600160a01b03169052565b5060408301516001600160a01b03811660608401525060608301516101e0608084015261104c610200840182610f75565b9050608084015160a084015260a084015160c084015260c084015161107c60e08501826001600160801b03169052565b5060e08401516001600160801b0381166101008501525061010084015161ffff8116610120850152506101208401516001600160401b038116610140850152506101408401516001600160401b038116610160850152506101608401516001600160401b038116610180850152506101808401516001600160a01b0381166101a0850152506101a08401516101c08401526101c08401516111216101e0850182610fd1565b509392505050565b6000806040838503121561113c57600080fd5b50508035926020909101359150565b60068110610fe157610fe1610fbb565b602081526111756020820183516001600160401b03169052565b60006020830151611189604084018261114b565b5060408301516001600160a01b03811660608401525060608301516001600160a01b038116608084015250608083015161022060a08401526111cf610240840182610f75565b905060a084015160c084015260c08401516111f560e08501826001600160801b03169052565b5060e08401516001600160801b0381166101008501525061010084015161ffff8116610120850152506101208401516001600160401b038116610140850152506101408401516001600160401b038116610160850152506101608401516001600160401b038116610180850152506101808401516001600160401b0381166101a0850152506101a08401518015156101c0850152506101c08401518015156101e0850152506101e08401516001600160a01b038116610200850152506102008401516102208401528091505092915050565b600181811c908216806112db57607f821691505b6020821081036112fb57634e487b7160e01b600052602260045260246000fd5b50919050565b634e487b7160e01b600052601160045260246000fd5b61ffff828116828216039081111561133157611331611301565b92915050565b808202811582820484141761133157611331611301565b634e487b7160e01b600052600160045260246000fd5b634e487b7160e01b600052604160045260246000fd5b634e487b7160e01b600052603260045260246000fd5b6000600182016113a2576113a2611301565b506001019056fea264697066735822122098d7b624aad9df5e484b2ec425d549f28c436c7aa232366a10d519df305b52ce64736f6c634300081b0033",
  "linkReferences": {},
  "deployedLinkReferences": {}
}