{
  "_format": "hh-sol-artifact-1",
  "contractName": "GovernedMock",
  "sourceName": "contracts/governance/mock/GovernedMock.sol",
  "abi": [
    {
      "inputs": [
        {
          "internalType": "contract IGovernanceSettings",
          "name": "_governanceSettings",
          "type": "address"
        },
        {
          "internalType": "address",
          "name": "_initialGovernance",
          "type": "address"
        }
      ],
      "stateMutability": "nonpayable",
      "type": "constructor"
    },
    {
      "inputs": [],
      "name": "AlreadyInProductionMode",
      "type": "error"
    },
    {
      "inputs": [],
      "name": "GovernedAddressZero",
      "type": "error"
    },
    {
      "inputs": [],
      "name": "GovernedAlreadyInitialized",
      "type": "error"
    },
    {
      "inputs": [],
      "name": "OnlyExecutor",
      "type": "error"
    },
    {
      "inputs": [],
      "name": "OnlyGovernance",
      "type": "error"
    },
    {
      "inputs": [],
      "name": "TimelockInvalidSelector",
      "type": "error"
    },
    {
      "inputs": [],
      "name": "TimelockNotAllowedYet",
      "type": "error"
    },
    {
      "anonymous": false,
      "inputs": [
        {
          "indexed": false,
          "internalType": "bytes",
          "name": "encodedCall",
          "type": "bytes"
        },
        {
          "indexed": false,
          "internalType": "bytes32",
          "name": "encodedCallHash",
          "type": "bytes32"
        },
        {
          "indexed": false,
          "internalType": "uint256",
          "name": "allowedAfterTimestamp",
          "type": "uint256"
        }
      ],
      "name": "GovernanceCallTimelocked",
      "type": "event"
    },
    {
      "anonymous": false,
      "inputs": [
        {
          "indexed": false,
          "internalType": "address",
          "name": "initialGovernance",
          "type": "address"
        }
      ],
      "name": "GovernanceInitialised",
      "type": "event"
    },
    {
      "anonymous": false,
      "inputs": [
        {
          "indexed": false,
          "internalType": "address",
          "name": "governanceSettings",
          "type": "address"
        }
      ],
      "name": "GovernedProductionModeEntered",
      "type": "event"
    },
    {
      "anonymous": false,
      "inputs": [
        {
          "indexed": false,
          "internalType": "bytes32",
          "name": "encodedCallHash",
          "type": "bytes32"
        }
      ],
      "name": "TimelockedGovernanceCallCanceled",
      "type": "event"
    },
    {
      "anonymous": false,
      "inputs": [
        {
          "indexed": false,
          "internalType": "bytes32",
          "name": "encodedCallHash",
          "type": "bytes32"
        }
      ],
      "name": "TimelockedGovernanceCallExecuted",
      "type": "event"
    },
    {
      "inputs": [
        {
          "internalType": "bytes",
          "name": "_encodedCall",
          "type": "bytes"
        }
      ],
      "name": "cancelGovernanceCall",
      "outputs": [],
      "stateMutability": "nonpayable",
      "type": "function"
    },
    {
      "inputs": [
        {
          "internalType": "bytes",
          "name": "_encodedCall",
          "type": "bytes"
        }
      ],
      "name": "executeGovernanceCall",
      "outputs": [],
      "stateMutability": "nonpayable",
      "type": "function"
    },
    {
      "inputs": [],
      "name": "governance",
      "outputs": [
        {
          "internalType": "address",
          "name": "",
          "type": "address"
        }
      ],
      "stateMutability": "view",
      "type": "function"
    },
    {
      "inputs": [],
      "name": "governanceSettings",
      "outputs": [
        {
          "internalType": "contract IGovernanceSettings",
          "name": "",
          "type": "address"
        }
      ],
      "stateMutability": "view",
      "type": "function"
    },
    {
      "inputs": [
        {
          "internalType": "contract IGovernanceSettings",
          "name": "_governanceSettings",
          "type": "address"
        },
        {
          "internalType": "address",
          "name": "_initialGovernance",
          "type": "address"
        }
      ],
      "name": "initialize",
      "outputs": [],
      "stateMutability": "nonpayable",
      "type": "function"
    },
    {
      "inputs": [
        {
          "internalType": "address",
          "name": "_address",
          "type": "address"
        }
      ],
      "name": "isExecutor",
      "outputs": [
        {
          "internalType": "bool",
          "name": "",
          "type": "bool"
        }
      ],
      "stateMutability": "view",
      "type": "function"
    },
    {
      "inputs": [],
      "name": "productionMode",
      "outputs": [
        {
          "internalType": "bool",
          "name": "",
          "type": "bool"
        }
      ],
      "stateMutability": "view",
      "type": "function"
    },
    {
      "inputs": [],
      "name": "switchToProductionMode",
      "outputs": [],
      "stateMutability": "nonpayable",
      "type": "function"
    }
  ],
  "bytecode": "0x608060405234801561001057600080fd5b50604051610a01380380610a0183398101604081905261002f9161016b565b818161003b8282610044565b505050506101a5565b7f2aa47ee5db910f3b2a06970c443249cc77dbd9f96100cfebc1775ab7fb1d18248054600160a01b900460ff161561008f5760405163b2f0162160e01b815260040160405180910390fd5b6001600160a01b0383166100b6576040516334ab92fb60e11b815260040160405180910390fd5b6001600160a01b0382166100dd576040516334ab92fb60e11b815260040160405180910390fd5b80546001600160a01b038481166001600160a81b031990921691909117600160a01b1782556001820180549184166001600160a01b0319909216821790556040519081527f9789733827840833afc031fb2ef9ab6894271f77bad2085687cf4ae5c7bee4db9060200160405180910390a1505050565b6001600160a01b038116811461016857600080fd5b50565b6000806040838503121561017e57600080fd5b825161018981610153565b602084015190925061019a81610153565b809150509250929050565b61084d806101b46000396000f3fe608060405234801561001057600080fd5b50600436106100885760003560e01c806362354e031161005b57806362354e03146100ed578063debfda301461010b578063e17f212e1461012e578063f5a983831461014d57600080fd5b806316fc2f6d1461008d57806320c5f99d146100a2578063485cc955146100b55780635aa6e675146100c8575b600080fd5b6100a061009b3660046106c6565b610155565b005b6100a06100b03660046106c6565b610209565b6100a06100c3366004610752565b61037b565b6100d0610389565b6040516001600160a01b0390911681526020015b60405180910390f35b6000805160206107f8833981519152546001600160a01b03166100d0565b61011e61011936600461078b565b610432565b60405190151581526020016100e4565b6000805160206107f883398151915254600160a81b900460ff1661011e565b6100a06104cc565b61015d610571565b6040516000805160206107f88339815191529060009061018090859085906107a8565b60405180910390209050816002016000828152602001908152602001600020546000036101c05760405163023679b760e21b815260040160405180910390fd5b6040518181527f69b058d6225c01c1f2a25801ca5b05705fa2e9118e93d518390ba804398c87b19060200160405180910390a16000908152600290910160205260408120555050565b6000805160206107f883398151915261022133610432565b61023e57604051633fdb5f0160e11b815260040160405180910390fd5b600083836040516102509291906107a8565b6040805191829003909120600081815260028501602052918220549092509081900361028f5760405163023679b760e21b815260040160405180910390fd5b804210156102b05760405163309272e160e11b815260040160405180910390fd5b6000828152600284016020526040808220829055845460ff60b01b1916600160b01b1785555130906102e590889088906107a8565b6000604051808303816000865af19150503d8060008114610322576040519150601f19603f3d011682016040523d82523d6000602084013e610327565b606091505b5050845460ff60b01b191685556040518481529091507fec1225e5a8a8acb91e03ce648c683c74f5d152a775b9715980999441d714c44f9060200160405180910390a1610373816105ac565b505050505050565b61038582826105c9565b5050565b6000805160206107f8833981519152805460009190600160a81b900460ff166103bf5760018101546001600160a01b031661042c565b805460408051631cc9492560e21b815290516001600160a01b03909216916373252494916004808201926020929091908290030181865afa158015610408573d6000803e3d6000fd5b505050506040513d601f19601f8201168201806040525081019061042c91906107b8565b91505090565b6000805160206107f8833981519152805460009190600160a01b900460ff1680156104c557508054604051630debfda360e41b81526001600160a01b0385811660048301529091169063debfda3090602401602060405180830381865afa1580156104a1573d6000803e3d6000fd5b505050506040513d601f19601f820116820180604052508101906104c591906107d5565b9392505050565b6104d4610571565b6000805160206107f88339815191528054600160a81b900460ff161561050d576040516339511f6160e11b815260040160405180910390fd5b6001810180546001600160a01b03191690558054600160a81b60ff60a81b1982161782556040516001600160a01b0390911681527f83af113638b5422f9e977cebc0aaf0eaf2188eb9a8baae7f9d46c42b33a1560c9060200160405180910390a150565b610579610389565b6001600160a01b0316336001600160a01b0316146105aa576040516354348f0360e01b815260040160405180910390fd5b565b3d604051818101604052816000823e82156105c5578181f35b8181fd5b6000805160206107f88339815191528054600160a01b900460ff16156106025760405163b2f0162160e01b815260040160405180910390fd5b6001600160a01b038316610629576040516334ab92fb60e11b815260040160405180910390fd5b6001600160a01b038216610650576040516334ab92fb60e11b815260040160405180910390fd5b80546001600160a01b038481166001600160a81b031990921691909117600160a01b1782556001820180549184166001600160a01b0319909216821790556040519081527f9789733827840833afc031fb2ef9ab6894271f77bad2085687cf4ae5c7bee4db9060200160405180910390a1505050565b600080602083850312156106d957600080fd5b823567ffffffffffffffff8111156106f057600080fd5b8301601f8101851361070157600080fd5b803567ffffffffffffffff81111561071857600080fd5b85602082840101111561072a57600080fd5b6020919091019590945092505050565b6001600160a01b038116811461074f57600080fd5b50565b6000806040838503121561076557600080fd5b82356107708161073a565b915060208301356107808161073a565b809150509250929050565b60006020828403121561079d57600080fd5b81356104c58161073a565b8183823760009101908152919050565b6000602082840312156107ca57600080fd5b81516104c58161073a565b6000602082840312156107e757600080fd5b815180151581146104c557600080fdfe2aa47ee5db910f3b2a06970c443249cc77dbd9f96100cfebc1775ab7fb1d1824a264697066735822122005d8990e92cb9b5508af09660d9dc1f777da21925b0202c4b546472c498c244a64736f6c634300081b0033",
  "linkReferences": {},
  "deployedLinkReferences": {}
}