{
  "_format": "hh-sol-artifact-1",
  "contractName": "GovernedMock",
  "sourceName": "contracts/governance/mock/GovernedMock.sol",
  "abi": [
    {
      "inputs": [
        {
          "internalType": "contract IGovernanceSettings",
          "name": "_governanceSettings",
          "type": "address"
        },
        {
          "internalType": "address",
          "name": "_initialGovernance",
          "type": "address"
        }
      ],
      "stateMutability": "nonpayable",
      "type": "constructor"
    },
    {
      "anonymous": false,
      "inputs": [
        {
          "indexed": false,
          "internalType": "bytes",
          "name": "encodedCall",
          "type": "bytes"
        },
        {
          "indexed": false,
          "internalType": "bytes32",
          "name": "encodedCallHash",
          "type": "bytes32"
        },
        {
          "indexed": false,
          "internalType": "uint256",
          "name": "allowedAfterTimestamp",
          "type": "uint256"
        }
      ],
      "name": "GovernanceCallTimelocked",
      "type": "event"
    },
    {
      "anonymous": false,
      "inputs": [
        {
          "indexed": false,
          "internalType": "address",
          "name": "initialGovernance",
          "type": "address"
        }
      ],
      "name": "GovernanceInitialised",
      "type": "event"
    },
    {
      "anonymous": false,
      "inputs": [
        {
          "indexed": false,
          "internalType": "address",
          "name": "governanceSettings",
          "type": "address"
        }
      ],
      "name": "GovernedProductionModeEntered",
      "type": "event"
    },
    {
      "anonymous": false,
      "inputs": [
        {
          "indexed": false,
          "internalType": "bytes32",
          "name": "encodedCallHash",
          "type": "bytes32"
        }
      ],
      "name": "TimelockedGovernanceCallCanceled",
      "type": "event"
    },
    {
      "anonymous": false,
      "inputs": [
        {
          "indexed": false,
          "internalType": "bytes32",
          "name": "encodedCallHash",
          "type": "bytes32"
        }
      ],
      "name": "TimelockedGovernanceCallExecuted",
      "type": "event"
    },
    {
      "inputs": [
        {
          "internalType": "bytes",
          "name": "_encodedCall",
          "type": "bytes"
        }
      ],
      "name": "cancelGovernanceCall",
      "outputs": [],
      "stateMutability": "nonpayable",
      "type": "function"
    },
    {
      "inputs": [
        {
          "internalType": "bytes",
          "name": "_encodedCall",
          "type": "bytes"
        }
      ],
      "name": "executeGovernanceCall",
      "outputs": [],
      "stateMutability": "nonpayable",
      "type": "function"
    },
    {
      "inputs": [],
      "name": "governance",
      "outputs": [
        {
          "internalType": "address",
          "name": "",
          "type": "address"
        }
      ],
      "stateMutability": "view",
      "type": "function"
    },
    {
      "inputs": [],
      "name": "governanceSettings",
      "outputs": [
        {
          "internalType": "contract IGovernanceSettings",
          "name": "",
          "type": "address"
        }
      ],
      "stateMutability": "view",
      "type": "function"
    },
    {
      "inputs": [
        {
          "internalType": "contract IGovernanceSettings",
          "name": "_governanceSettings",
          "type": "address"
        },
        {
          "internalType": "address",
          "name": "_initialGovernance",
          "type": "address"
        }
      ],
      "name": "initialize",
      "outputs": [],
      "stateMutability": "nonpayable",
      "type": "function"
    },
    {
      "inputs": [
        {
          "internalType": "address",
          "name": "_address",
          "type": "address"
        }
      ],
      "name": "isExecutor",
      "outputs": [
        {
          "internalType": "bool",
          "name": "",
          "type": "bool"
        }
      ],
      "stateMutability": "view",
      "type": "function"
    },
    {
      "inputs": [],
      "name": "productionMode",
      "outputs": [
        {
          "internalType": "bool",
          "name": "",
          "type": "bool"
        }
      ],
      "stateMutability": "view",
      "type": "function"
    },
    {
      "inputs": [],
      "name": "switchToProductionMode",
      "outputs": [],
      "stateMutability": "nonpayable",
      "type": "function"
    }
  ],
  "bytecode": "0x608060405234801561001057600080fd5b50604051610bfc380380610bfc83398101604081905261002f916101f0565b818161003b8282610044565b5050505061022a565b7f2aa47ee5db910f3b2a06970c443249cc77dbd9f96100cfebc1775ab7fb1d18248054600160a01b900460ff16156100c35760405162461bcd60e51b815260206004820152601460248201527f696e697469616c6973656420213d2066616c736500000000000000000000000060448201526064015b60405180910390fd5b6001600160a01b0383166101195760405162461bcd60e51b815260206004820152601860248201527f676f7665726e616e63652073657474696e6773207a65726f000000000000000060448201526064016100ba565b6001600160a01b0382166101625760405162461bcd60e51b815260206004820152601060248201526f5f676f7665726e616e6365207a65726f60801b60448201526064016100ba565b80546001600160a01b038481166001600160a81b031990921691909117600160a01b1782556001820180549184166001600160a01b0319909216821790556040519081527f9789733827840833afc031fb2ef9ab6894271f77bad2085687cf4ae5c7bee4db9060200160405180910390a1505050565b6001600160a01b03811681146101ed57600080fd5b50565b6000806040838503121561020357600080fd5b825161020e816101d8565b602084015190925061021f816101d8565b809150509250929050565b6109c3806102396000396000f3fe608060405234801561001057600080fd5b50600436106100885760003560e01c806362354e031161005b57806362354e03146100ed578063debfda301461010b578063e17f212e1461012e578063f5a983831461014d57600080fd5b806316fc2f6d1461008d57806320c5f99d146100a2578063485cc955146100b55780635aa6e675146100c8575b600080fd5b6100a061009b36600461083e565b610155565b005b6100a06100b036600461083e565b61023d565b6100a06100c33660046108c8565b61042c565b6100d061043a565b6040516001600160a01b0390911681526020015b60405180910390f35b60008051602061096e833981519152546001600160a01b03166100d0565b61011e610119366004610901565b6104e3565b60405190151581526020016100e4565b60008051602061096e83398151915254600160a81b900460ff1661011e565b6100a061057d565b61015d610651565b60405160008051602061096e83398151915290600090610180908590859061091e565b60405180910390209050816002016000828152602001908152602001600020546000036101f45760405162461bcd60e51b815260206004820152601a60248201527f74696d656c6f636b3a20696e76616c69642073656c6563746f7200000000000060448201526064015b60405180910390fd5b6040518181527f69b058d6225c01c1f2a25801ca5b05705fa2e9118e93d518390ba804398c87b19060200160405180910390a16000908152600290910160205260408120555050565b60008051602061096e833981519152610255336104e3565b6102915760405162461bcd60e51b815260206004820152600d60248201526c37b7363c9032bc32b1baba37b960991b60448201526064016101eb565b600083836040516102a392919061091e565b604080519182900390912060008181526002850160205291822054909250908190036103115760405162461bcd60e51b815260206004820152601a60248201527f74696d656c6f636b3a20696e76616c69642073656c6563746f7200000000000060448201526064016101eb565b804210156103615760405162461bcd60e51b815260206004820152601960248201527f74696d656c6f636b3a206e6f7420616c6c6f776564207965740000000000000060448201526064016101eb565b6000828152600284016020526040808220829055845460ff60b01b1916600160b01b178555513090610396908890889061091e565b6000604051808303816000865af19150503d80600081146103d3576040519150601f19603f3d011682016040523d82523d6000602084013e6103d8565b606091505b5050845460ff60b01b191685556040518481529091507fec1225e5a8a8acb91e03ce648c683c74f5d152a775b9715980999441d714c44f9060200160405180910390a1610424816106ad565b505050505050565b61043682826106ca565b5050565b60008051602061096e833981519152805460009190600160a81b900460ff166104705760018101546001600160a01b03166104dd565b805460408051631cc9492560e21b815290516001600160a01b03909216916373252494916004808201926020929091908290030181865afa1580156104b9573d6000803e3d6000fd5b505050506040513d601f19601f820116820180604052508101906104dd919061092e565b91505090565b60008051602061096e833981519152805460009190600160a01b900460ff16801561057657508054604051630debfda360e41b81526001600160a01b0385811660048301529091169063debfda3090602401602060405180830381865afa158015610552573d6000803e3d6000fd5b505050506040513d601f19601f82011682018060405250810190610576919061094b565b9392505050565b610585610651565b60008051602061096e8339815191528054600160a81b900460ff16156105ed5760405162461bcd60e51b815260206004820152601a60248201527f616c726561647920696e2070726f64756374696f6e206d6f646500000000000060448201526064016101eb565b6001810180546001600160a01b03191690558054600160a81b60ff60a81b1982161782556040516001600160a01b0390911681527f83af113638b5422f9e977cebc0aaf0eaf2188eb9a8baae7f9d46c42b33a1560c9060200160405180910390a150565b61065961043a565b6001600160a01b0316336001600160a01b0316146106ab5760405162461bcd60e51b815260206004820152600f60248201526e6f6e6c7920676f7665726e616e636560881b60448201526064016101eb565b565b3d604051818101604052816000823e82156106c6578181f35b8181fd5b60008051602061096e8339815191528054600160a01b900460ff16156107295760405162461bcd60e51b8152602060048201526014602482015273696e697469616c6973656420213d2066616c736560601b60448201526064016101eb565b6001600160a01b03831661077f5760405162461bcd60e51b815260206004820152601860248201527f676f7665726e616e63652073657474696e6773207a65726f000000000000000060448201526064016101eb565b6001600160a01b0382166107c85760405162461bcd60e51b815260206004820152601060248201526f5f676f7665726e616e6365207a65726f60801b60448201526064016101eb565b80546001600160a01b038481166001600160a81b031990921691909117600160a01b1782556001820180549184166001600160a01b0319909216821790556040519081527f9789733827840833afc031fb2ef9ab6894271f77bad2085687cf4ae5c7bee4db9060200160405180910390a1505050565b6000806020838503121561085157600080fd5b823567ffffffffffffffff8082111561086957600080fd5b818501915085601f83011261087d57600080fd5b81358181111561088c57600080fd5b86602082850101111561089e57600080fd5b60209290920196919550909350505050565b6001600160a01b03811681146108c557600080fd5b50565b600080604083850312156108db57600080fd5b82356108e6816108b0565b915060208301356108f6816108b0565b809150509250929050565b60006020828403121561091357600080fd5b8135610576816108b0565b8183823760009101908152919050565b60006020828403121561094057600080fd5b8151610576816108b0565b60006020828403121561095d57600080fd5b8151801515811461057657600080fdfe2aa47ee5db910f3b2a06970c443249cc77dbd9f96100cfebc1775ab7fb1d1824a264697066735822122009e13eed73dafec8ff040407aeca14906b0a0f3b3acddba7b6bcb0fcd0f0de3e64736f6c63430008170033",
  "linkReferences": {},
  "deployedLinkReferences": {}
}