{
  "_format": "hh-sol-artifact-1",
  "contractName": "RedemptionConfirmationsFacet",
  "sourceName": "contracts/assetManager/facets/RedemptionConfirmationsFacet.sol",
  "abi": [
    {
      "inputs": [],
      "name": "CoreVaultNotEnabled",
      "type": "error"
    },
    {
      "inputs": [],
      "name": "DivisionByZero",
      "type": "error"
    },
    {
      "inputs": [],
      "name": "EmergencyPauseActive",
      "type": "error"
    },
    {
      "inputs": [],
      "name": "InvalidAgentVaultAddress",
      "type": "error"
    },
    {
      "inputs": [],
      "name": "InvalidChain",
      "type": "error"
    },
    {
      "inputs": [],
      "name": "InvalidReceivingAddressSelected",
      "type": "error"
    },
    {
      "inputs": [],
      "name": "InvalidRedemptionReference",
      "type": "error"
    },
    {
      "inputs": [],
      "name": "InvalidRequestId",
      "type": "error"
    },
    {
      "inputs": [],
      "name": "LegalPaymentNotProven",
      "type": "error"
    },
    {
      "inputs": [],
      "name": "NotAttached",
      "type": "error"
    },
    {
      "inputs": [],
      "name": "NotEnoughAgentPoolTokensToCoverFailedVaultPayment",
      "type": "error"
    },
    {
      "inputs": [],
      "name": "NotEnoughPoolCollateralToCoverFailedVaultPayment",
      "type": "error"
    },
    {
      "inputs": [],
      "name": "NotWhitelisted",
      "type": "error"
    },
    {
      "inputs": [],
      "name": "OnlyAgentVaultOwner",
      "type": "error"
    },
    {
      "inputs": [],
      "name": "OnlyAssetManagerController",
      "type": "error"
    },
    {
      "inputs": [],
      "name": "PaymentAlreadyConfirmed",
      "type": "error"
    },
    {
      "inputs": [],
      "name": "RedemptionPaymentTooOld",
      "type": "error"
    },
    {
      "inputs": [],
      "name": "ReentrancyGuardReentrantCall",
      "type": "error"
    },
    {
      "inputs": [],
      "name": "SourceNotAgentsUnderlyingAddress",
      "type": "error"
    },
    {
      "anonymous": false,
      "inputs": [
        {
          "indexed": false,
          "internalType": "uint256",
          "name": "underlyingBlockNumber",
          "type": "uint256"
        },
        {
          "indexed": false,
          "internalType": "uint256",
          "name": "underlyingBlockTimestamp",
          "type": "uint256"
        },
        {
          "indexed": false,
          "internalType": "uint256",
          "name": "updatedAt",
          "type": "uint256"
        }
      ],
      "name": "CurrentUnderlyingBlockUpdated",
      "type": "event"
    },
    {
      "anonymous": false,
      "inputs": [
        {
          "indexed": true,
          "internalType": "address",
          "name": "agentVault",
          "type": "address"
        },
        {
          "indexed": false,
          "internalType": "uint256",
          "name": "dustUBA",
          "type": "uint256"
        }
      ],
      "name": "DustChanged",
      "type": "event"
    },
    {
      "anonymous": false,
      "inputs": [
        {
          "indexed": true,
          "internalType": "address",
          "name": "agentVault",
          "type": "address"
        },
        {
          "indexed": false,
          "internalType": "uint256",
          "name": "timestamp",
          "type": "uint256"
        }
      ],
      "name": "FullLiquidationStarted",
      "type": "event"
    },
    {
      "anonymous": false,
      "inputs": [
        {
          "indexed": true,
          "internalType": "address",
          "name": "agentVault",
          "type": "address"
        }
      ],
      "name": "LiquidationEnded",
      "type": "event"
    },
    {
      "anonymous": false,
      "inputs": [
        {
          "indexed": true,
          "internalType": "address",
          "name": "agentVault",
          "type": "address"
        },
        {
          "indexed": true,
          "internalType": "address",
          "name": "redeemer",
          "type": "address"
        },
        {
          "indexed": true,
          "internalType": "uint256",
          "name": "requestId",
          "type": "uint256"
        },
        {
          "indexed": false,
          "internalType": "uint256",
          "name": "redemptionAmountUBA",
          "type": "uint256"
        },
        {
          "indexed": false,
          "internalType": "uint256",
          "name": "redeemedVaultCollateralWei",
          "type": "uint256"
        },
        {
          "indexed": false,
          "internalType": "uint256",
          "name": "redeemedPoolCollateralWei",
          "type": "uint256"
        }
      ],
      "name": "RedemptionDefault",
      "type": "event"
    },
    {
      "anonymous": false,
      "inputs": [
        {
          "indexed": true,
          "internalType": "address",
          "name": "agentVault",
          "type": "address"
        },
        {
          "indexed": true,
          "internalType": "address",
          "name": "redeemer",
          "type": "address"
        },
        {
          "indexed": true,
          "internalType": "uint256",
          "name": "requestId",
          "type": "uint256"
        },
        {
          "indexed": false,
          "internalType": "bytes32",
          "name": "transactionHash",
          "type": "bytes32"
        },
        {
          "indexed": false,
          "internalType": "uint256",
          "name": "redemptionAmountUBA",
          "type": "uint256"
        },
        {
          "indexed": false,
          "internalType": "int256",
          "name": "spentUnderlyingUBA",
          "type": "int256"
        }
      ],
      "name": "RedemptionPaymentBlocked",
      "type": "event"
    },
    {
      "anonymous": false,
      "inputs": [
        {
          "indexed": true,
          "internalType": "address",
          "name": "agentVault",
          "type": "address"
        },
        {
          "indexed": true,
          "internalType": "address",
          "name": "redeemer",
          "type": "address"
        },
        {
          "indexed": true,
          "internalType": "uint256",
          "name": "requestId",
          "type": "uint256"
        },
        {
          "indexed": false,
          "internalType": "bytes32",
          "name": "transactionHash",
          "type": "bytes32"
        },
        {
          "indexed": false,
          "internalType": "int256",
          "name": "spentUnderlyingUBA",
          "type": "int256"
        },
        {
          "indexed": false,
          "internalType": "string",
          "name": "failureReason",
          "type": "string"
        }
      ],
      "name": "RedemptionPaymentFailed",
      "type": "event"
    },
    {
      "anonymous": false,
      "inputs": [
        {
          "indexed": true,
          "internalType": "address",
          "name": "agentVault",
          "type": "address"
        },
        {
          "indexed": true,
          "internalType": "address",
          "name": "redeemer",
          "type": "address"
        },
        {
          "indexed": true,
          "internalType": "uint256",
          "name": "requestId",
          "type": "uint256"
        },
        {
          "indexed": false,
          "internalType": "bytes32",
          "name": "transactionHash",
          "type": "bytes32"
        },
        {
          "indexed": false,
          "internalType": "uint256",
          "name": "redemptionAmountUBA",
          "type": "uint256"
        },
        {
          "indexed": false,
          "internalType": "int256",
          "name": "spentUnderlyingUBA",
          "type": "int256"
        }
      ],
      "name": "RedemptionPerformed",
      "type": "event"
    },
    {
      "anonymous": false,
      "inputs": [
        {
          "indexed": true,
          "internalType": "address",
          "name": "agentVault",
          "type": "address"
        },
        {
          "indexed": true,
          "internalType": "uint256",
          "name": "requestId",
          "type": "uint256"
        },
        {
          "indexed": false,
          "internalType": "uint256",
          "name": "poolFeeUBA",
          "type": "uint256"
        }
      ],
      "name": "RedemptionPoolFeeMinted",
      "type": "event"
    },
    {
      "anonymous": false,
      "inputs": [
        {
          "indexed": true,
          "internalType": "address",
          "name": "agentVault",
          "type": "address"
        },
        {
          "indexed": true,
          "internalType": "uint256",
          "name": "redemptionTicketId",
          "type": "uint256"
        },
        {
          "indexed": false,
          "internalType": "uint256",
          "name": "ticketValueUBA",
          "type": "uint256"
        }
      ],
      "name": "RedemptionTicketCreated",
      "type": "event"
    },
    {
      "anonymous": false,
      "inputs": [
        {
          "indexed": true,
          "internalType": "address",
          "name": "agentVault",
          "type": "address"
        },
        {
          "indexed": true,
          "internalType": "uint256",
          "name": "redemptionTicketId",
          "type": "uint256"
        },
        {
          "indexed": false,
          "internalType": "uint256",
          "name": "ticketValueUBA",
          "type": "uint256"
        }
      ],
      "name": "RedemptionTicketUpdated",
      "type": "event"
    },
    {
      "anonymous": false,
      "inputs": [
        {
          "indexed": true,
          "internalType": "address",
          "name": "agentVault",
          "type": "address"
        },
        {
          "indexed": true,
          "internalType": "uint256",
          "name": "transferRedemptionRequestId",
          "type": "uint256"
        },
        {
          "indexed": false,
          "internalType": "uint256",
          "name": "remintedUBA",
          "type": "uint256"
        }
      ],
      "name": "TransferToCoreVaultDefaulted",
      "type": "event"
    },
    {
      "anonymous": false,
      "inputs": [
        {
          "indexed": true,
          "internalType": "address",
          "name": "agentVault",
          "type": "address"
        },
        {
          "indexed": true,
          "internalType": "uint256",
          "name": "transferRedemptionRequestId",
          "type": "uint256"
        },
        {
          "indexed": false,
          "internalType": "uint256",
          "name": "valueUBA",
          "type": "uint256"
        }
      ],
      "name": "TransferToCoreVaultSuccessful",
      "type": "event"
    },
    {
      "anonymous": false,
      "inputs": [
        {
          "indexed": true,
          "internalType": "address",
          "name": "agentVault",
          "type": "address"
        },
        {
          "indexed": false,
          "internalType": "int256",
          "name": "underlyingBalanceUBA",
          "type": "int256"
        }
      ],
      "name": "UnderlyingBalanceChanged",
      "type": "event"
    },
    {
      "anonymous": false,
      "inputs": [
        {
          "indexed": true,
          "internalType": "address",
          "name": "agentVault",
          "type": "address"
        },
        {
          "indexed": false,
          "internalType": "int256",
          "name": "balance",
          "type": "int256"
        },
        {
          "indexed": false,
          "internalType": "uint256",
          "name": "requiredBalance",
          "type": "uint256"
        }
      ],
      "name": "UnderlyingBalanceTooLow",
      "type": "event"
    },
    {
      "inputs": [
        {
          "components": [
            {
              "internalType": "bytes32[]",
              "name": "merkleProof",
              "type": "bytes32[]"
            },
            {
              "components": [
                {
                  "internalType": "bytes32",
                  "name": "attestationType",
                  "type": "bytes32"
                },
                {
                  "internalType": "bytes32",
                  "name": "sourceId",
                  "type": "bytes32"
                },
                {
                  "internalType": "uint64",
                  "name": "votingRound",
                  "type": "uint64"
                },
                {
                  "internalType": "uint64",
                  "name": "lowestUsedTimestamp",
                  "type": "uint64"
                },
                {
                  "components": [
                    {
                      "internalType": "bytes32",
                      "name": "transactionId",
                      "type": "bytes32"
                    },
                    {
                      "internalType": "uint256",
                      "name": "inUtxo",
                      "type": "uint256"
                    },
                    {
                      "internalType": "uint256",
                      "name": "utxo",
                      "type": "uint256"
                    }
                  ],
                  "internalType": "struct IPayment.RequestBody",
                  "name": "requestBody",
                  "type": "tuple"
                },
                {
                  "components": [
                    {
                      "internalType": "uint64",
                      "name": "blockNumber",
                      "type": "uint64"
                    },
                    {
                      "internalType": "uint64",
                      "name": "blockTimestamp",
                      "type": "uint64"
                    },
                    {
                      "internalType": "bytes32",
                      "name": "sourceAddressHash",
                      "type": "bytes32"
                    },
                    {
                      "internalType": "bytes32",
                      "name": "sourceAddressesRoot",
                      "type": "bytes32"
                    },
                    {
                      "internalType": "bytes32",
                      "name": "receivingAddressHash",
                      "type": "bytes32"
                    },
                    {
                      "internalType": "bytes32",
                      "name": "intendedReceivingAddressHash",
                      "type": "bytes32"
                    },
                    {
                      "internalType": "int256",
                      "name": "spentAmount",
                      "type": "int256"
                    },
                    {
                      "internalType": "int256",
                      "name": "intendedSpentAmount",
                      "type": "int256"
                    },
                    {
                      "internalType": "int256",
                      "name": "receivedAmount",
                      "type": "int256"
                    },
                    {
                      "internalType": "int256",
                      "name": "intendedReceivedAmount",
                      "type": "int256"
                    },
                    {
                      "internalType": "bytes32",
                      "name": "standardPaymentReference",
                      "type": "bytes32"
                    },
                    {
                      "internalType": "bool",
                      "name": "oneToOne",
                      "type": "bool"
                    },
                    {
                      "internalType": "uint8",
                      "name": "status",
                      "type": "uint8"
                    }
                  ],
                  "internalType": "struct IPayment.ResponseBody",
                  "name": "responseBody",
                  "type": "tuple"
                }
              ],
              "internalType": "struct IPayment.Response",
              "name": "data",
              "type": "tuple"
            }
          ],
          "internalType": "struct IPayment.Proof",
          "name": "_payment",
          "type": "tuple"
        },
        {
          "internalType": "uint256",
          "name": "_redemptionRequestId",
          "type": "uint256"
        }
      ],
      "name": "confirmRedemptionPayment",
      "outputs": [],
      "stateMutability": "nonpayable",
      "type": "function"
    }
  ],
  "bytecode": "0x6080604052348015600f57600080fd5b506141918061001f6000396000f3fe608060405234801561001057600080fd5b506004361061002b5760003560e01c8063bf9a243814610030575b600080fd5b61004361003e366004613a61565b610045565b005b61004d61046f565b6000610058826104b9565b6004810154909150600090610075906001600160a01b0316610540565b9050600061008382336105db565b9050808061009557506100958361061e565b6100b25760405163f6e2f99b60e01b815260040160405180910390fd5b6100bb8561068e565b6100c48461079e565b610240860135146100e85760405163065ddc0160e31b815260040160405180910390fd5b60028301546001600160401b031661010861012087016101008801613ac2565b6001600160401b0316101561013057604051632c7d1bf560e01b815260040160405180910390fd5b60038201546101408601351461015957604051633989c45960e11b815260040160405180910390fd5b6003820154610180860135036101825760405163497a842b60e01b815260040160405180910390fd5b60008061018f85886107c8565b9150915081156103275760016004860154600160a01b900460ff1660028111156101bb576101bb613add565b146101c8576101c8613af3565b6101fb848660020160189054906101000a90046001600160401b03168760040160159054906101000a900460ff16610a37565b600061020f6102a089016102808a01613b1a565b60ff16036102a5576003850154600486015460018701546040805160a08c013581526001600160801b0390921660208301526101c08b01359082015288926001600160a01b039081169216907fd5150395b21c5be6cbb37ea167761efe7a013baccbd1bb7e5922fa261ccc33319060600160405180910390a4600885015460ff16156102a0576102a0878588610ad1565b610317565b6003850154600486015460018701546040805160a08c013581526001600160801b0390921660208301526101c08b01359082015288926001600160a01b039081169216907f37c875389b479241a31046a231beb3ed915903492a55e2b972397f2457f36c1f9060600160405180910390a45b610322848688610bc2565b6103b9565b60016004860154600160a01b900460ff16600281111561034957610349613add565b0361035957610359848688610d4b565b6003850154600486015460405188926001600160a01b039081169216907fa7891c8ed1d5d158ba0c33ce71ec777892a4e9df199937791795c08a767bc2c3906103b09060a08d0135906101c08e0135908890613b7b565b60405180910390a45b6103d0846103cb6101c08a0135613bb0565b610f22565b60008051602061413c8339815191526104097fec7e8c1c441439dd40959777f4c577ea0cd42fcc1dbe59d2bd0f5d9c55df8dc18961105d565b83610418576104188533611099565b610421866110f6565b61042a85611194565b61043388611280565b61043c876112b1565b50505050505061046b60017f0cd2207518cd3e5213e2c6dbe63d55b60aa893c194a427b7d7f1600408fd5bde55565b5050565b7f0cd2207518cd3e5213e2c6dbe63d55b60aa893c194a427b7d7f1600408fd5bde8054600119016104b357604051633ee5aeb560e01b815260040160405180910390fd5b60029055565b600060008051602061413c8339815191528282036104ea576040516302e8145360e61b815260040160405180910390fd5b6000838152600a82016020526040812092506004830154600160a01b900460ff16600281111561051c5761051c613add565b0361053a576040516302e8145360e61b815260040160405180910390fd5b50919050565b604081901b68010000000000000000600160e01b03167f5bebac0595fee029d42bb673937f5f1cb81cf8641382bc17774635de9b7d79651860048101546000919060ff168281600581111561059757610597613add565b141580156105b7575060058160058111156105b4576105b4613add565b14155b6105d45760405163d68a46c560e01b815260040160405180910390fd5b5092915050565b60018201546000906001600160a01b0383811691161480610615575061060083611374565b6001600160a01b0316826001600160a01b0316145b90505b92915050565b7f4f24f5c433db0962dac0d2c8b84197a6e6c7cc4e5d9ebe1916a1b6193da2f34854600382015460009160008051602061411c8339815191529161067c91600160901b90046001600160401b0390811691600160a01b900416613bcc565b6001600160401b031642119392505050565b7f4f24f5c433db0962dac0d2c8b84197a6e6c7cc4e5d9ebe1916a1b6193da2f342547f4f24f5c433db0962dac0d2c8b84197a6e6c7cc4e5d9ebe1916a1b6193da2f3455460008051602061411c833981519152916001600160a01b03169060408401351461070f5760405163057f3fa760e51b815260040160405180910390fd5b60405163a7a3797560e01b81526001600160a01b0382169063a7a379759061073b908690600401613d35565b602060405180830381865afa158015610758573d6000803e3d6000fd5b505050506040513d601f19601f8201168201806040525081019061077c9190613dca565b610799576040516316c32dbb60e21b815260040160405180910390fd5b505050565b60006001600160401b038211156107b7576107b7613af3565b5067232128293320800160c11b1790565b600182015460009060609082906107f1906001600160801b03600160801b820481169116613de7565b905060016108076102a086016102808701613b1a565b60ff16036108435750506040805180820190915260128152711d1c985b9cd858dd1a5bdb8819985a5b195960721b602082015260009150610a30565b8454610180850135146108885750506040805180820190915260168152756e6f742072656465656d65722773206164647265737360501b602082015260009150610a30565b6102008401358113156108f55760026108a96102a086016102808701613b1a565b60ff16146108f057505060408051808201909152601c81527f726564656d7074696f6e207061796d656e7420746f6f20736d616c6c00000000602082015260009150610a30565b610a1a565b600885015460ff1615801561093757506002850154600160401b90046001600160401b031661092c61012086016101008701613ac2565b6001600160401b0316115b801561097057506002850154600160801b90046001600160401b031661096561014086016101208701613ac2565b6001600160401b0316115b156109b457505060408051808201909152601b81527f726564656d7074696f6e207061796d656e7420746f6f206c6174650000000000602082015260009150610a30565b60026004860154600160a01b900460ff1660028111156109d6576109d6613add565b03610a1a57505060408051808201909152601c81527f726564656d7074696f6e20616c72656164792064656661756c74656400000000602082015260009150610a30565b5050604080516020810190915260008152600191505b9250929050565b6005830154610a57908390600160801b90046001600160401b0316613dfa565b8360050160106101000a8154816001600160401b0302191690836001600160401b0316021790555080610799576005830154610aa4908390600160c01b90046001600160401b0316613dfa565b8360050160186101000a8154816001600160401b0302191690836001600160401b03160217905550505050565b610ad9611416565b7f5176d9aff61164d28f93ea46eb1dc40e6c1f84dd050716ad33cf1851e70a4aa18054604051630da7a59560e31b81526001600160a01b0390911690636d3d2ca890610b29908790600401613d35565b600060405180830381600087803b158015610b4357600080fd5b505af1158015610b57573d6000803e3d6000fd5b5060009250610b6d91505061020086013561145f565b905082610b79856114ba565b6001600160a01b03167f312f6f8967bb430e84de79db107c9118070da08cf521286593df37852612499383604051610bb391815260200190565b60405180910390a35050505050565b60088201546001830154600091610bf291600160801b90046001600160801b031690610100900461ffff166114e2565b90508015610d4557610c0c84610c07836114f1565b611550565b7f4f24f5c433db0962dac0d2c8b84197a6e6c7cc4e5d9ebe1916a1b6193da2f33b546001600160a01b031684546040516340c10f1960e01b81526001600160a01b039182166004820152602481018490529116906340c10f1990604401600060405180830381600087803b158015610c8357600080fd5b505af1158015610c97573d6000803e3d6000fd5b5050855460405163542a535160e11b8152600481018590526001600160a01b03909116925063a854a6a29150602401600060405180830381600087803b158015610ce057600080fd5b505af1158015610cf4573d6000803e3d6000fd5b5050505081610d02856114ba565b6001600160a01b03167f317ababa750f78c73b0fdd6893e3506a58618fb283855d2be225873b7816beb083604051610d3c91815260200190565b60405180910390a35b50505050565b60016004830154600160a01b900460ff166002811115610d6d57610d6d613add565b14610d7a57610d7a613af3565b600882015460ff16610ea357600080610d938585611629565b60038601549193509150600090610db59087906001600160a01b03168561179e565b50905080610dd057610dc9868685856118bb565b9150600092505b8115610df3576003850154610df19087906001600160a01b03168480611a51565b505b610e26868660020160189054906101000a90046001600160401b03168760040160159054906101000a900460ff16610a37565b600385015484906001600160a01b0316610e3f886114ba565b6001880154604080516001600160801b0390921682526020820188905281018690526001600160a01b0391909116907f1de98aa7f7442c6299d2d4f8dbfb9455830c5ea4e71f9e152a95fc2ce94fe5cc9060600160405180910390a4505050505050565b600382015481906001600160a01b0316610ebc856114ba565b6001850154604080516001600160801b03909216825260006020830181905282820152516001600160a01b0392909216917f1de98aa7f7442c6299d2d4f8dbfb9455830c5ea4e71f9e152a95fc2ce94fe5cc9181900360600190a4610799838383611b5c565b6006820154600090610f3f908390600160401b9004600f0b613e19565b90506000610f4c84611bd5565b9050610f5781611c51565b821215610fbb57610f67846114ba565b6001600160a01b03167f3232fdbb55664d655aff08d1cc31318b51047d1178a5cea499006d9f9d4c07ae8383604051610faa929190918252602082015260400190565b60405180910390a2610fbb84611cbb565b610fc482611dcb565b6006850180546001600160801b0392909216600160401b0277ffffffffffffffffffffffffffffffff000000000000000019909216919091179055611008846114ba565b6006850154604051600160401b909104600f0b81526001600160a01b0391909116907f73da6891cb86668451f612d2555e88650888a0133a30b1d226b2d1f955e62bca9060200160405180910390a250505050565b6040805161014083013560208083019190915260a084013582840152825180830384018152606090920190925280519101206107998382611e34565b7f4f24f5c433db0962dac0d2c8b84197a6e6c7cc4e5d9ebe1916a1b6193da2f3495460008051602061411c833981519152906000906110e29085906001600160801b0316611e74565b90506110ef848483611e88565b5050505050565b600581015460009061111d90633b9aca0090600160a01b90046001600160401b0316613e41565b9050801561046b5760058201805467ffffffffffffffff60a01b191690557f4f24f5c433db0962dac0d2c8b84197a6e6c7cc4e5d9ebe1916a1b6193da2f343546040516001600160a01b039091169082156108fc029083906000818181858888f19350505050158015610799573d6000803e3d6000fd5b6002600482015460ff1660058111156111af576111af613add565b146111b75750565b60006111c282611f51565b905060006111cf83611fc5565b905060006111df848360006120a0565b905060006111ef858460016120a0565b905081846000015110158015611209575080846020015110155b156110ef576004850180547fff00000000000000000000ffffffffffffffffffffffffffffffffffffffff00166001179055611244856114ba565b6001600160a01b03167fe513b42585b0ceec0d56d56fe3a23861c15a2f74eb4c32c94334d63d68ff4dcf60405160405180910390a25050505050565b6112ae61129561012083016101008401613ac2565b6112a761014084016101208501613ac2565b6001612106565b50565b6112ba81612294565b60008181527fec7e8c1c441439dd40959777f4c577ea0cd42fcc1dbe59d2bd0f5d9c55df8dc06020526040812081815560018101829055600281018290556003810180546001600160e01b03199081169091556004820180546001600160b01b031916905560058201805490911690556006810180546fffffffffffffffffffffffffffffffff1916905560008051602061413c833981519152916113626007830182613a17565b50600801805462ffffff191690555050565b60006113a77f4f24f5c433db0962dac0d2c8b84197a6e6c7cc4e5d9ebe1916a1b6193da2f341546001600160a01b031690565b6001830154604051631f86345d60e31b81526001600160a01b03918216600482015291169063fc31a2e890602401602060405180830381865afa1580156113f2573d6000803e3d6000fd5b505050506040513d601f19601f820116820180604052508101906106189190613e6d565b7f5176d9aff61164d28f93ea46eb1dc40e6c1f84dd050716ad33cf1851e70a4aa180546001600160a01b03166112ae576040516356f9eaeb60e11b815260040160405180910390fd5b6000808212156114b65760405162461bcd60e51b815260206004820181905260248201527f53616665436173743a2076616c7565206d75737420626520706f73697469766560448201526064015b60405180910390fd5b5090565b7f5bebac0595fee029d42bb673937f5f1cb81cf8641382bc17774635de9b7d79651860401c90565b60006106158383612710612303565b7f4f24f5c433db0962dac0d2c8b84197a6e6c7cc4e5d9ebe1916a1b6193da2f3465460009060008051602061411c833981519152906115499061154490600160901b90046001600160401b031685613ea0565b612407565b9392505050565b808260050160088282829054906101000a90046001600160401b03166115769190613bcc565b92506101000a8154816001600160401b0302191690836001600160401b0316021790555060006115b160008051602061411c83398151915290565b60068401549091506000906115d09084906001600160401b0316613bcc565b600d8301549091506000906115ee906001600160401b031683613eb4565b905060006115fc8284613dfa565b90506001600160401b0381161561161757611617868261246f565b6116218683612612565b505050505050565b60008060008051602061411c83398151915281611645866126a8565b600286015490915060009061166d9083908990600160c01b90046001600160401b0316612788565b6004870154909150600160a81b900460ff16156116bf57600286015460408301516116a891600160c01b90046001600160401b03169061284f565b9450600093506116b88582612869565b9450611794565b600e8301546002870154604084015161170192600160501b900463ffffffff16916116fb91600160c01b9091046001600160401b03169061284f565b906114e2565b9450600093508085111561179457600061171a8861287f565b60028801549091506000906117429083908b90600160c01b90046001600160401b0316612788565b9050600061176f611753858a613de7565b60028b0154600160c01b90046001600160401b0316908a61290a565b905083975061178281846040015161284f565b965061178e8783612869565b96505050505b5050509250929050565b60008060006117ac86612947565b905060006117b9876114ba565b82546040516370a0823160e01b81526001600160a01b03808416600483015292935061183392889216906370a08231906024015b602060405180830381865afa15801561180a573d6000803e3d6000fd5b505050506040513d601f19601f8201168201806040525081019061182e9190613ee2565b612869565b825460405163083e007560e21b81526001600160a01b0391821660048201528882166024820152604481018390529194508216906320f801d490606401600060405180830381600087803b15801561188a57600080fd5b505af192505050801561189b575060015b6118ac5760009350600092506118b1565b600193505b5050935093915050565b6000806118c786612994565b905060006118f0826040015160400151836000015160400151876123039092919063ffffffff16565b9050600061199160008051602061411c833981519152600c0154604085810151015164010000000090910463ffffffff16906116fb906119326009600a613fe2565b60028c015460058e01546001600160401b03600160c01b909204821691600160801b820481169161196d91600160401b820481169116613bcc565b6119779190613bcc565b6119819190613dfa565b6001600160401b03169190612303565b6040840151602001519091506119a78383613fee565b11156119c65760405163b179f0db60e01b815260040160405180910390fd5b60006119ed846020015160400151856000015160400151896123039092919063ffffffff16565b905060006119fb8288613fee565b60028a01546020870151919250611a2491908c90600160c01b90046001600160401b0316612788565b811115611a4457604051633f6b20df60e21b815260040160405180910390fd5b9998505050505050505050565b6000808560000160009054906101000a90046001600160a01b03166001600160a01b0316634ac8eb5f6040518163ffffffff1660e01b8152600401602060405180830381865afa158015611aa9573d6000803e3d6000fd5b505050506040513d601f19601f82011682018060405250810190611acd9190613ee2565b9050611ad98482612869565b9150611ae58383612869565b865460405163adf58c1560e01b81526001600160a01b038881166004830152602482018690526044820184905292955091169063adf58c1590606401600060405180830381600087803b158015611b3b57600080fd5b505af1158015611b4f573d6000803e3d6000fd5b5050505050949350505050565b611b64611416565b611b6d81612294565b611b778383612a35565b80611b81846114ba565b60018401546040516001600160801b0390911681526001600160a01b0391909116907f5f2a331e2db53740999cc1c370fa531b2e3b7fac4bf1156e8fe7c2578ad299e49060200160405180910390a3505050565b7f4f24f5c433db0962dac0d2c8b84197a6e6c7cc4e5d9ebe1916a1b6193da2f34654600582015460009160008051602061411c83398151915291600160901b9091046001600160401b0390811691611c3e91600160801b8204811691600160401b900416613bcc565b6001600160401b03166115499190613e41565b60006001600160ff1b038211156114b65760405162461bcd60e51b815260206004820152602860248201527f53616665436173743a2076616c756520646f65736e27742066697420696e2061604482015267371034b73a191a9b60c11b60648201526084016114ad565b6003600482015460ff166005811115611cd657611cd6613add565b1480611cf9575060048082015460ff166005811115611cf757611cf7613add565b145b15611d015750565b6000611d0c82611fc5565b90506002816002811115611d2257611d22613add565b14611d6d57611d3042612407565b6004830180546001600160401b0392909216600160a81b0260ff60e81b191668ffffffffffffffffff60a81b1990921691909117600160e91b1790555b60048201805460ff19166003179055611d85826114ba565b6001600160a01b03167fa3bf539465c1a8746950e123769affaff9097155e9e8cb9e079e1d55d6ba349742604051611dbf91815260200190565b60405180910390a25050565b80600f81900b8114611e2f5760405162461bcd60e51b815260206004820152602760248201527f53616665436173743a2076616c756520646f65736e27742066697420696e20316044820152663238206269747360c81b60648201526084016114ad565b919050565b60008181526020839052604090205415611e61576040516318dce79f60e01b815260040160405180910390fd5b6000818152602092909252604090912055565b600061061582611e8385612947565b612a88565b600080611e9485612947565b90506000611ea1866114ba565b82546040516370a0823160e01b81526001600160a01b038084166004830152929350611ed992879216906370a08231906024016117ed565b825460405163083e007560e21b81526001600160a01b0391821660048201528782166024820152604481018390529194508216906320f801d490606401600060405180830381600087803b158015611f3057600080fd5b505af1158015611f44573d6000803e3d6000fd5b5050505050509392505050565b611f7c6040518060800160405280600081526020016000815260200160008152602001600081525090565b600080611f8a846000612b88565b91509150600080611f9c866001612b88565b604080516080810182529687526020870192909252908501939093525050606082015292915050565b600481015460009060008051602061411c8339815191529060ff166002816005811115611ff457611ff4613add565b0361207357600060016004860154600160e81b900460ff16600281111561201d5761201d613add565b14801561205957506011830154600486015461204c916001600160401b0390811691600160a81b900416613bcc565b6001600160401b03164211155b90508061206757600261206a565b60015b95945050505050565b600381600581111561208757612087613add565b03612096575060029392505050565b5060009392505050565b6000806120ad8584612bd6565b905060018460028111156120c3576120c3613add565b14806120d657506120d48584612c7b565b155b156120ec576003015463ffffffff169050611549565b60030154600160401b900463ffffffff1690509392505050565b60008051602061413c8339815191526000806121228487613bcc565b600f8401549091506001600160401b03620100009091048116908216111561216e57600f8301805469ffffffffffffffff00001916620100006001600160401b03841602179055600191505b60006103e860008051602061411c833981519152600c01546121969063ffffffff1687614001565b6121a09190614023565b6121aa9087613bcc565b600f8501546001600160401b039182169250600160501b900416811115612201576121d481612407565b84600f01600a6101000a8154816001600160401b0302191690836001600160401b03160217905550600192505b821561228b5761221042612407565b600f8501805467ffffffffffffffff60901b1916600160901b6001600160401b039384160217908190556040805162010000830484168152600160501b9092049092166020820152428183015290517f2078549e3faec355556787458d744ad19765bbb953b3f71801333f29abdce1c8916060908290030190a15b50505050505050565b600061229f826104b9565b600881015490915060ff161561046b5760048101546000906122c9906001600160a01b0316610540565b600c81015490915064010000000090046001600160401b031683900361079957600c0180546bffffffffffffffff00000000191690555050565b6000808211612325576040516323d359a360e01b815260040160405180910390fd5b8360000361233557506000611549565b8383028385828161234857612348613e8a565b04036123665782818161235d5761235d613e8a565b04915050611549565b5060006123738386613ea0565b905060006123818487614051565b9050600061238f8587613ea0565b9050600061239d8688614051565b9050856123aa8285613e41565b6123b49190613ea0565b6123be8385613e41565b6123c88387613e41565b886123d38689613e41565b6123dd9190613e41565b6123e79190613fee565b6123f19190613fee565b6123fb9190613fee565b98975050505050505050565b60006001600160401b038211156114b65760405162461bcd60e51b815260206004820152602660248201527f53616665436173743a2076616c756520646f65736e27742066697420696e203660448201526534206269747360d01b60648201526084016114ad565b60008051602061413c8339815191526001600160401b03821660000361249457505050565b600061249f846114ba565b6009830154600160401b90046001600160401b031660008181526007850160205260409020805492935090916001600160a01b0380851691160361259c57805485908290601490612501908490600160a01b90046001600160401b0316613bcc565b92506101000a8154816001600160401b0302191690836001600160401b0316021790555060006125478260000160149054906101000a90046001600160401b0316612ce4565b9050826001600160401b0316846001600160a01b03167f9d2e72c50be7927e999d37329649af37a863df77bcb25361699ce021d3d7475d8360405161258e91815260200190565b60405180910390a350611621565b60006125ac600786018588612d37565b905060006125b987612ce4565b9050816001600160401b0316856001600160a01b03167f631f8f2039090539b2ea4ef7dc567f7f1939ef4dd3e790b1ca7bc548a1fada588360405161260091815260200190565b60405180910390a35050505050505050565b60068201546001600160401b0380831691160361262d575050565b60068201805467ffffffffffffffff19166001600160401b038316179055600061265682612ce4565b9050612661836114ba565b6001600160a01b03167fa3db2bc927901a1d3ba09ad51d84609457b98443be9132a0a936a47c5a1081b58260405161269b91815260200190565b60405180910390a2505050565b6126cd6040805160608101909152806000815260200160008152602001600081525090565b60006126d883612947565b60408051606081019091526000815281549192509060208201906001600160a01b03166370a08231612709876114ba565b6040516001600160e01b031960e084901b1681526001600160a01b039091166004820152602401602060405180830381865afa15801561274d573d6000803e3d6000fd5b505050506040513d601f19601f820116820180604052508101906127719190613ee2565b815260200161277f83613140565b90529392505050565b60008160000361279a57506000611549565b60006001855160028111156127b1576127b1613add565b146127d0576005840154600160801b90046001600160401b03166127e6565b6005840154600160c01b90046001600160401b03165b6001600160401b031690508083111561280157612801613af3565b60058401546000908290612828906001600160401b0380821691600160401b900416613fee565b6128329190613fee565b6020870151909150612845908583612303565b9695505050505050565b6000610615826128616009600a613fe2565b859190612303565b60008183106128785781610615565b5090919050565b6128a46040805160608101909152806000815260200160008152602001600081525090565b60006128af83613156565b604080516060810182526001815285548251634ac8eb5f60e01b8152925193945090926020808501936001600160a01b0390931692634ac8eb5f92600480830193928290030181865afa15801561274d573d6000803e3d6000fd5b600080612918858585612303565b90506000838061292a5761292a613e8a565b8587099050801561293e5781600101612845565b50949350505050565b60008060008051602061413c83398151915260048401548154919250829161010090910461ffff1690811061297e5761297e614065565b9060005260206000209060040201915050919050565b6129ff6040805160c081019091526000606082018181526080830182905260a083019190915281908152604080516060810182526000808252602082810182905292820152910190815260408051606081018252600080825260208281018290529282015291015290565b6000612a0a8361287f565b90506040518060600160405280612a20856126a8565b815260200182815260200161277f858461318f565b612a68828260020160189054906101000a90046001600160401b03168360040160159054906101000a900460ff16610a37565b600281015461046b908390600160c01b90046001600160401b0316611550565b6000816002018054612a999061407b565b9050600003612aa9575081610618565b600080612b43846002018054612abe9061407b565b80601f0160208091040260200160405190810160405280929190818152602001828054612aea9061407b565b8015612b375780601f10612b0c57610100808354040283529160200191612b37565b820191906000526020600020905b815481529060010190602001808311612b1a57829003601f168201915b5050505050600061335e565b8654929450925060009160059150612b66908490600160a81b900460ff16613fee565b612b709190613de7565b9050612845612b8082600a613fe2565b879085612303565b600080600080612b988686613453565b915091506000612ba88388613531565b90506000612bb68389613531565b905083604001519450612bc982826135f2565b9550505050509250929050565b60006002826002811115612bec57612bec613add565b03612bf957612bf9613af3565b60008051602061413c8339815191526000836002811115612c1c57612c1c613add565b03612c5857600484015481548291610100900461ffff16908110612c4257612c42614065565b9060005260206000209060040201915050610618565b6004840154815482916301000000900461ffff16908110612c4257612c42614065565b600080826002811115612c9057612c90613add565b03612cac57506004820154600160f01b90046001161515610618565b6001826002811115612cc057612cc0613add565b14612ccd57612ccd613af3565b506004820154600160f01b90046002161515610618565b7f4f24f5c433db0962dac0d2c8b84197a6e6c7cc4e5d9ebe1916a1b6193da2f3465460009060008051602061411c8339815191529061154990600160901b90046001600160401b03908116908516613e41565b6001600160a01b03821660009081526001840160205260408120600285018054839190601090612d7690600160801b90046001600160401b03166140af565b91906101000a8154816001600160401b0302191690836001600160401b03160217905590506040518060c00160405280866001600160a01b03168152602001856001600160401b031681526020018760020160089054906101000a90046001600160401b03166001600160401b0316815260200160006001600160401b031681526020018360000160089054906101000a90046001600160401b03166001600160401b0316815260200160006001600160401b0316815250866000016000836001600160401b03166001600160401b0316815260200190815260200160002060008201518160000160006101000a8154816001600160a01b0302191690836001600160a01b0316021790555060208201518160000160146101000a8154816001600160401b0302191690836001600160401b0316021790555060408201518160010160006101000a8154816001600160401b0302191690836001600160401b0316021790555060608201518160010160086101000a8154816001600160401b0302191690836001600160401b0316021790555060808201518160010160106101000a8154816001600160401b0302191690836001600160401b0316021790555060a08201518160010160186101000a8154816001600160401b0302191690836001600160401b031602179055509050508560020160009054906101000a90046001600160401b03166001600160401b0316600003612fd3576002860154600160401b90046001600160401b031615612fb057612fb0613af3565b60028601805467ffffffffffffffff19166001600160401b03831617905561303b565b6002860154600160401b90046001600160401b0316600003612ff757612ff7613af3565b6002860154600160401b908190046001600160401b039081166000908152602089905260409020600101805467ffffffffffffffff60401b19169184169092021790555b6002860180546001600160401b03808416600160401b0267ffffffffffffffff60401b19909216919091179091558254166000036130b1578154600160401b90046001600160401b03161561309257613092613af3565b815467ffffffffffffffff19166001600160401b038216178255613114565b8154600160401b90046001600160401b03166000036130d2576130d2613af3565b81546001600160401b03600160401b909104811660009081526020889052604090206001018054918316600160c01b026001600160c01b039092169190911790555b815467ffffffffffffffff60401b1916600160401b6001600160401b0383160217909155949350505050565b600061314d826000613601565b50909392505050565b60008060008051602061413c833981519152600484015481549192508291630100000090910461ffff1690811061297e5761297e614065565b6131b46040805160608101909152806000815260200160008152602001600081525090565b8254604080516332f7ce0b60e21b815290516000926001600160a01b03169163cbdf382c9160048083019260209291908290030181865afa1580156131fd573d6000803e3d6000fd5b505050506040513d601f19601f820116820180604052508101906132219190613e6d565b90506000816001600160a01b03166370a0823161323d876114ba565b6040516001600160e01b031960e084901b1681526001600160a01b039091166004820152602401602060405180830381865afa158015613281573d6000803e3d6000fd5b505050506040513d601f19601f820116820180604052508101906132a59190613ee2565b90506000826001600160a01b03166318160ddd6040518163ffffffff1660e01b8152600401602060405180830381865afa1580156132e7573d6000803e3d6000fd5b505050506040513d601f19601f8201168201806040525081019061330b9190613ee2565b90506000856020015160000361332557856040015161333a565b6020860151604087015161333a918490612303565b60408051606081018252600281526020810195909552840152509095945050505050565b7f4f24f5c433db0962dac0d2c8b84197a6e6c7cc4e5d9ebe1916a1b6193da2f344546000908190819060008051602061411c833981519152906001600160a01b031685156134205760405163e4a0a55b60e01b81526001600160a01b0382169063e4a0a55b906133d2908a906004016140da565b606060405180830381865afa1580156133ef573d6000803e3d6000fd5b505050506040513d601f19601f8201168201806040525081019061341391906140ed565b945094509450505061344c565b60405163524f388960e01b81526001600160a01b0382169063524f3889906133d2908a906004016140da565b9250925092565b6134786040805160608101909152806000815260200160008152602001600081525090565b61349d6040805160608101909152806000815260200160008152602001600081525090565b60006134a98585612bd6565b905060006134b88686846137b9565b90506000806134c6846138ba565b9150915060405180606001604052808860028111156134e7576134e7613add565b8152602001848152602001838152509550604051806060016040528088600281111561351557613515613add565b8152602001848152602001828152509450505050509250929050565b60008060018451600281111561354957613549613add565b14613568576005830154600160801b90046001600160401b031661357e565b6005830154600160c01b90046001600160401b03165b60058401546001600160401b03918216925060009183916135aa9181811691600160401b900416613fee565b6135b49190613fee565b905060006135c682876040015161284f565b9050806000036135e0576402540be4009350505050610618565b60208601516128459061271083612303565b60008183116128785781610615565b6000806000806000806136a088600101805461361c9061407b565b80601f01602080910402602001604051908101604052809291908181526020018280546136489061407b565b80156136955780601f1061366a57610100808354040283529160200191613695565b820191906000526020600020905b81548152906001019060200180831161367857829003601f168201915b50505050508861335e565b8a549295509093509150600160f01b900460ff16156136e75787546000906136d690600160a81b900460ff166001838786613969565b965091945084935061344c92505050565b60008060006137828b60020180546136fe9061407b565b80601f016020809104026020016040519081016040528092919081815260200182805461372a9061407b565b80156137775780601f1061374c57610100808354040283529160200191613777565b820191906000526020600020905b81548152906001019060200180831161375a57829003601f168201915b50505050508b61335e565b8d5492955090935091506000906137a690600160a81b900460ff1685848a89613969565b995094975090955061344c945050505050565b60006137c4826139e3565b6137d057506000611549565b60018360028111156137e4576137e4613add565b0361385d57835460408051634ac8eb5f60e01b815290516001600160a01b0390921691634ac8eb5f916004808201926020929091908290030181865afa158015613832573d6000803e3d6000fd5b505050506040513d601f19601f820116820180604052508101906138569190613ee2565b9050611549565b81546001600160a01b03166370a08231613876866114ba565b6040516001600160e01b031960e084901b1681526001600160a01b039091166004820152602401602060405180830381865afa158015613832573d6000803e3d6000fd5b60008060008051602061411c8339815191528180806138d98782613601565b92509250925060008060006138ef8a6001613601565b60108a01549295509093509150600090859061391b90600160c01b90046001600160401b031684613fee565b1015801561394857506010880154869061394590600160c01b90046001600160401b031685613fee565b10155b905086995080613958578661395a565b835b98505050505050505050915091565b600060008051602061411c833981519152816009613987878a613fee565b6139919190613fee565b600a8301549091506000906139b1908690600160a81b900460ff16613fee565b9050808210156139c3576139c3613af3565b611a446139d08284613de7565b6139db90600a613fe2565b87908a612303565b8054600090600160b01b90046001600160401b031615806106185750505442600160b01b9091046001600160401b03161190565b508054613a239061407b565b6000825580601f10613a33575050565b601f0160209004906000526020600020908101906112ae91905b808211156114b65760008155600101613a4d565b60008060408385031215613a7457600080fd5b82356001600160401b03811115613a8a57600080fd5b83016102a08186031215613a9d57600080fd5b946020939093013593505050565b80356001600160401b0381168114611e2f57600080fd5b600060208284031215613ad457600080fd5b61061582613aab565b634e487b7160e01b600052602160045260246000fd5b634e487b7160e01b600052600160045260246000fd5b803560ff81168114611e2f57600080fd5b600060208284031215613b2c57600080fd5b61061582613b09565b6000815180845260005b81811015613b5b57602081850181015186830182015201613b3f565b506000602082860101526020601f19601f83011685010191505092915050565b83815282602082015260606040820152600061206a6060830184613b35565b634e487b7160e01b600052601160045260246000fd5b6000600160ff1b8201613bc557613bc5613b9a565b5060000390565b6001600160401b03818116838216019081111561061857610618613b9a565b80151581146112ae57600080fd5b8035611e2f81613beb565b80358252602080820135908301526001600160401b03613c2660408301613aab565b1660408301526001600160401b03613c4060608301613aab565b1660608301526080818101359083015260a0808201359083015260c08082013590830152613c8560e080840190613c78908401613aab565b6001600160401b03169052565b613c926101008201613aab565b6001600160401b031661010083015261012081810135908301526101408082013590830152610160808201359083015261018080820135908301526101a080820135908301526101c080820135908301526101e0808201359083015261020080820135908301526102208082013590830152613d116102408201613bf9565b1515610240830152613d266102608201613b09565b60ff8116610260840152505050565b6020815260008235601e19843603018112613d4f57600080fd5b83016020810190356001600160401b03811115613d6b57600080fd5b8060051b803603831315613d7e57600080fd5b6102a060208601526102c085018290526001600160fb1b03821115613da257600080fd5b80836102e0870137613dba6040860160208801613c04565b939093016102e001949350505050565b600060208284031215613ddc57600080fd5b815161154981613beb565b8181038181111561061857610618613b9a565b6001600160401b03828116828216039081111561061857610618613b9a565b8082018281126000831280158216821582161715613e3957613e39613b9a565b505092915050565b808202811582820484141761061857610618613b9a565b6001600160a01b03811681146112ae57600080fd5b600060208284031215613e7f57600080fd5b815161154981613e58565b634e487b7160e01b600052601260045260246000fd5b600082613eaf57613eaf613e8a565b500490565b60006001600160401b03831680613ecd57613ecd613e8a565b806001600160401b0384160691505092915050565b600060208284031215613ef457600080fd5b5051919050565b6001815b6001841115613f3657808504811115613f1a57613f1a613b9a565b6001841615613f2857908102905b60019390931c928002613eff565b935093915050565b600082613f4d57506001610618565b81613f5a57506000610618565b8160018114613f705760028114613f7a57613f96565b6001915050610618565b60ff841115613f8b57613f8b613b9a565b50506001821b610618565b5060208310610133831016604e8410600b8410161715613fb9575081810a610618565b613fc66000198484613efb565b8060001904821115613fda57613fda613b9a565b029392505050565b60006106158383613f3e565b8082018082111561061857610618613b9a565b6001600160401b0381811683821602908116908181146105d4576105d4613b9a565b60006001600160401b0383168061403c5761403c613e8a565b806001600160401b0384160491505092915050565b60008261406057614060613e8a565b500690565b634e487b7160e01b600052603260045260246000fd5b600181811c9082168061408f57607f821691505b60208210810361053a57634e487b7160e01b600052602260045260246000fd5b60006001600160401b0382166001600160401b0381036140d1576140d1613b9a565b60010192915050565b6020815260006106156020830184613b35565b60008060006060848603121561410257600080fd5b505081516020830151604090930151909492935091905056fe4f24f5c433db0962dac0d2c8b84197a6e6c7cc4e5d9ebe1916a1b6193da2f33aec7e8c1c441439dd40959777f4c577ea0cd42fcc1dbe59d2bd0f5d9c55df8db6a26469706673582212208b899825b07d315d5e88505a9849803326c432b5cc4e587d966423c7e8eb1fdb64736f6c634300081b0033",
  "linkReferences": {},
  "deployedLinkReferences": {}
}