{
  "_format": "hh-sol-artifact-1",
  "contractName": "RedemptionConfirmationsFacet",
  "sourceName": "contracts/assetManager/facets/RedemptionConfirmationsFacet.sol",
  "abi": [
    {
      "inputs": [],
      "name": "CoreVaultNotEnabled",
      "type": "error"
    },
    {
      "inputs": [],
      "name": "DivisionByZero",
      "type": "error"
    },
    {
      "inputs": [],
      "name": "EmergencyPauseActive",
      "type": "error"
    },
    {
      "inputs": [],
      "name": "InvalidAgentVaultAddress",
      "type": "error"
    },
    {
      "inputs": [],
      "name": "InvalidChain",
      "type": "error"
    },
    {
      "inputs": [],
      "name": "InvalidReceivingAddressSelected",
      "type": "error"
    },
    {
      "inputs": [],
      "name": "InvalidRedemptionReference",
      "type": "error"
    },
    {
      "inputs": [],
      "name": "InvalidRequestId",
      "type": "error"
    },
    {
      "inputs": [],
      "name": "LegalPaymentNotProven",
      "type": "error"
    },
    {
      "inputs": [],
      "name": "NotAttached",
      "type": "error"
    },
    {
      "inputs": [],
      "name": "NotEnoughAgentPoolTokensToCoverFailedVaultPayment",
      "type": "error"
    },
    {
      "inputs": [],
      "name": "NotEnoughPoolCollateralToCoverFailedVaultPayment",
      "type": "error"
    },
    {
      "inputs": [],
      "name": "NotWhitelisted",
      "type": "error"
    },
    {
      "inputs": [],
      "name": "OnlyAgentVaultOwner",
      "type": "error"
    },
    {
      "inputs": [],
      "name": "OnlyAssetManagerController",
      "type": "error"
    },
    {
      "inputs": [],
      "name": "PaymentAlreadyConfirmed",
      "type": "error"
    },
    {
      "inputs": [],
      "name": "RedemptionPaymentTooOld",
      "type": "error"
    },
    {
      "inputs": [],
      "name": "ReentrancyGuardReentrantCall",
      "type": "error"
    },
    {
      "inputs": [],
      "name": "SourceNotAgentsUnderlyingAddress",
      "type": "error"
    },
    {
      "anonymous": false,
      "inputs": [
        {
          "indexed": false,
          "internalType": "uint256",
          "name": "underlyingBlockNumber",
          "type": "uint256"
        },
        {
          "indexed": false,
          "internalType": "uint256",
          "name": "underlyingBlockTimestamp",
          "type": "uint256"
        },
        {
          "indexed": false,
          "internalType": "uint256",
          "name": "updatedAt",
          "type": "uint256"
        }
      ],
      "name": "CurrentUnderlyingBlockUpdated",
      "type": "event"
    },
    {
      "anonymous": false,
      "inputs": [
        {
          "indexed": true,
          "internalType": "address",
          "name": "agentVault",
          "type": "address"
        },
        {
          "indexed": false,
          "internalType": "uint256",
          "name": "dustUBA",
          "type": "uint256"
        }
      ],
      "name": "DustChanged",
      "type": "event"
    },
    {
      "anonymous": false,
      "inputs": [
        {
          "indexed": true,
          "internalType": "address",
          "name": "agentVault",
          "type": "address"
        },
        {
          "indexed": false,
          "internalType": "uint256",
          "name": "timestamp",
          "type": "uint256"
        }
      ],
      "name": "FullLiquidationStarted",
      "type": "event"
    },
    {
      "anonymous": false,
      "inputs": [
        {
          "indexed": true,
          "internalType": "address",
          "name": "agentVault",
          "type": "address"
        }
      ],
      "name": "LiquidationEnded",
      "type": "event"
    },
    {
      "anonymous": false,
      "inputs": [
        {
          "indexed": true,
          "internalType": "address",
          "name": "agentVault",
          "type": "address"
        },
        {
          "indexed": true,
          "internalType": "address",
          "name": "redeemer",
          "type": "address"
        },
        {
          "indexed": true,
          "internalType": "uint256",
          "name": "requestId",
          "type": "uint256"
        },
        {
          "indexed": false,
          "internalType": "uint256",
          "name": "redemptionAmountUBA",
          "type": "uint256"
        },
        {
          "indexed": false,
          "internalType": "uint256",
          "name": "redeemedVaultCollateralWei",
          "type": "uint256"
        },
        {
          "indexed": false,
          "internalType": "uint256",
          "name": "redeemedPoolCollateralWei",
          "type": "uint256"
        }
      ],
      "name": "RedemptionDefault",
      "type": "event"
    },
    {
      "anonymous": false,
      "inputs": [
        {
          "indexed": true,
          "internalType": "address",
          "name": "agentVault",
          "type": "address"
        },
        {
          "indexed": true,
          "internalType": "address",
          "name": "redeemer",
          "type": "address"
        },
        {
          "indexed": true,
          "internalType": "uint256",
          "name": "requestId",
          "type": "uint256"
        },
        {
          "indexed": false,
          "internalType": "bytes32",
          "name": "transactionHash",
          "type": "bytes32"
        },
        {
          "indexed": false,
          "internalType": "uint256",
          "name": "redemptionAmountUBA",
          "type": "uint256"
        },
        {
          "indexed": false,
          "internalType": "int256",
          "name": "spentUnderlyingUBA",
          "type": "int256"
        }
      ],
      "name": "RedemptionPaymentBlocked",
      "type": "event"
    },
    {
      "anonymous": false,
      "inputs": [
        {
          "indexed": true,
          "internalType": "address",
          "name": "agentVault",
          "type": "address"
        },
        {
          "indexed": true,
          "internalType": "address",
          "name": "redeemer",
          "type": "address"
        },
        {
          "indexed": true,
          "internalType": "uint256",
          "name": "requestId",
          "type": "uint256"
        },
        {
          "indexed": false,
          "internalType": "bytes32",
          "name": "transactionHash",
          "type": "bytes32"
        },
        {
          "indexed": false,
          "internalType": "int256",
          "name": "spentUnderlyingUBA",
          "type": "int256"
        },
        {
          "indexed": false,
          "internalType": "string",
          "name": "failureReason",
          "type": "string"
        }
      ],
      "name": "RedemptionPaymentFailed",
      "type": "event"
    },
    {
      "anonymous": false,
      "inputs": [
        {
          "indexed": true,
          "internalType": "address",
          "name": "agentVault",
          "type": "address"
        },
        {
          "indexed": true,
          "internalType": "address",
          "name": "redeemer",
          "type": "address"
        },
        {
          "indexed": true,
          "internalType": "uint256",
          "name": "requestId",
          "type": "uint256"
        },
        {
          "indexed": false,
          "internalType": "bytes32",
          "name": "transactionHash",
          "type": "bytes32"
        },
        {
          "indexed": false,
          "internalType": "uint256",
          "name": "redemptionAmountUBA",
          "type": "uint256"
        },
        {
          "indexed": false,
          "internalType": "int256",
          "name": "spentUnderlyingUBA",
          "type": "int256"
        }
      ],
      "name": "RedemptionPerformed",
      "type": "event"
    },
    {
      "anonymous": false,
      "inputs": [
        {
          "indexed": true,
          "internalType": "address",
          "name": "agentVault",
          "type": "address"
        },
        {
          "indexed": true,
          "internalType": "uint256",
          "name": "requestId",
          "type": "uint256"
        },
        {
          "indexed": false,
          "internalType": "uint256",
          "name": "poolFeeUBA",
          "type": "uint256"
        }
      ],
      "name": "RedemptionPoolFeeMinted",
      "type": "event"
    },
    {
      "anonymous": false,
      "inputs": [
        {
          "indexed": true,
          "internalType": "address",
          "name": "agentVault",
          "type": "address"
        },
        {
          "indexed": true,
          "internalType": "uint256",
          "name": "redemptionTicketId",
          "type": "uint256"
        },
        {
          "indexed": false,
          "internalType": "uint256",
          "name": "ticketValueUBA",
          "type": "uint256"
        }
      ],
      "name": "RedemptionTicketCreated",
      "type": "event"
    },
    {
      "anonymous": false,
      "inputs": [
        {
          "indexed": true,
          "internalType": "address",
          "name": "agentVault",
          "type": "address"
        },
        {
          "indexed": true,
          "internalType": "uint256",
          "name": "redemptionTicketId",
          "type": "uint256"
        },
        {
          "indexed": false,
          "internalType": "uint256",
          "name": "ticketValueUBA",
          "type": "uint256"
        }
      ],
      "name": "RedemptionTicketUpdated",
      "type": "event"
    },
    {
      "anonymous": false,
      "inputs": [
        {
          "indexed": true,
          "internalType": "address",
          "name": "agentVault",
          "type": "address"
        },
        {
          "indexed": true,
          "internalType": "uint256",
          "name": "transferRedemptionRequestId",
          "type": "uint256"
        },
        {
          "indexed": false,
          "internalType": "uint256",
          "name": "remintedUBA",
          "type": "uint256"
        }
      ],
      "name": "TransferToCoreVaultDefaulted",
      "type": "event"
    },
    {
      "anonymous": false,
      "inputs": [
        {
          "indexed": true,
          "internalType": "address",
          "name": "agentVault",
          "type": "address"
        },
        {
          "indexed": true,
          "internalType": "uint256",
          "name": "transferRedemptionRequestId",
          "type": "uint256"
        },
        {
          "indexed": false,
          "internalType": "uint256",
          "name": "valueUBA",
          "type": "uint256"
        }
      ],
      "name": "TransferToCoreVaultSuccessful",
      "type": "event"
    },
    {
      "anonymous": false,
      "inputs": [
        {
          "indexed": true,
          "internalType": "address",
          "name": "agentVault",
          "type": "address"
        },
        {
          "indexed": false,
          "internalType": "int256",
          "name": "underlyingBalanceUBA",
          "type": "int256"
        }
      ],
      "name": "UnderlyingBalanceChanged",
      "type": "event"
    },
    {
      "anonymous": false,
      "inputs": [
        {
          "indexed": true,
          "internalType": "address",
          "name": "agentVault",
          "type": "address"
        },
        {
          "indexed": false,
          "internalType": "int256",
          "name": "balance",
          "type": "int256"
        },
        {
          "indexed": false,
          "internalType": "uint256",
          "name": "requiredBalance",
          "type": "uint256"
        }
      ],
      "name": "UnderlyingBalanceTooLow",
      "type": "event"
    },
    {
      "inputs": [
        {
          "components": [
            {
              "internalType": "bytes32[]",
              "name": "merkleProof",
              "type": "bytes32[]"
            },
            {
              "components": [
                {
                  "internalType": "bytes32",
                  "name": "attestationType",
                  "type": "bytes32"
                },
                {
                  "internalType": "bytes32",
                  "name": "sourceId",
                  "type": "bytes32"
                },
                {
                  "internalType": "uint64",
                  "name": "votingRound",
                  "type": "uint64"
                },
                {
                  "internalType": "uint64",
                  "name": "lowestUsedTimestamp",
                  "type": "uint64"
                },
                {
                  "components": [
                    {
                      "internalType": "bytes32",
                      "name": "transactionId",
                      "type": "bytes32"
                    },
                    {
                      "internalType": "uint256",
                      "name": "inUtxo",
                      "type": "uint256"
                    },
                    {
                      "internalType": "uint256",
                      "name": "utxo",
                      "type": "uint256"
                    }
                  ],
                  "internalType": "struct IPayment.RequestBody",
                  "name": "requestBody",
                  "type": "tuple"
                },
                {
                  "components": [
                    {
                      "internalType": "uint64",
                      "name": "blockNumber",
                      "type": "uint64"
                    },
                    {
                      "internalType": "uint64",
                      "name": "blockTimestamp",
                      "type": "uint64"
                    },
                    {
                      "internalType": "bytes32",
                      "name": "sourceAddressHash",
                      "type": "bytes32"
                    },
                    {
                      "internalType": "bytes32",
                      "name": "sourceAddressesRoot",
                      "type": "bytes32"
                    },
                    {
                      "internalType": "bytes32",
                      "name": "receivingAddressHash",
                      "type": "bytes32"
                    },
                    {
                      "internalType": "bytes32",
                      "name": "intendedReceivingAddressHash",
                      "type": "bytes32"
                    },
                    {
                      "internalType": "int256",
                      "name": "spentAmount",
                      "type": "int256"
                    },
                    {
                      "internalType": "int256",
                      "name": "intendedSpentAmount",
                      "type": "int256"
                    },
                    {
                      "internalType": "int256",
                      "name": "receivedAmount",
                      "type": "int256"
                    },
                    {
                      "internalType": "int256",
                      "name": "intendedReceivedAmount",
                      "type": "int256"
                    },
                    {
                      "internalType": "bytes32",
                      "name": "standardPaymentReference",
                      "type": "bytes32"
                    },
                    {
                      "internalType": "bool",
                      "name": "oneToOne",
                      "type": "bool"
                    },
                    {
                      "internalType": "uint8",
                      "name": "status",
                      "type": "uint8"
                    }
                  ],
                  "internalType": "struct IPayment.ResponseBody",
                  "name": "responseBody",
                  "type": "tuple"
                }
              ],
              "internalType": "struct IPayment.Response",
              "name": "data",
              "type": "tuple"
            }
          ],
          "internalType": "struct IPayment.Proof",
          "name": "_payment",
          "type": "tuple"
        },
        {
          "internalType": "uint256",
          "name": "_redemptionRequestId",
          "type": "uint256"
        }
      ],
      "name": "confirmRedemptionPayment",
      "outputs": [],
      "stateMutability": "nonpayable",
      "type": "function"
    }
  ],
  "bytecode": "0x6080604052348015600f57600080fd5b5061411b8061001f6000396000f3fe608060405234801561001057600080fd5b506004361061002b5760003560e01c8063bf9a243814610030575b600080fd5b61004361003e3660046139c5565b610045565b005b61004f60026104ac565b610057610556565b60006100648260016105a0565b6004810154909150600090610081906001600160a01b031661065b565b9050600061008f82336106ef565b905080806100a157506100a183610732565b6100be5760405163f6e2f99b60e01b815260040160405180910390fd5b6100c7856107a2565b6100d0846108ad565b610240860135146100f45760405163065ddc0160e31b815260040160405180910390fd5b60028301546001600160401b031661011461012087016101008801613a26565b6001600160401b0316101561013c57604051632c7d1bf560e01b815260040160405180910390fd5b60038201546101408601351461016557604051633989c45960e11b815260040160405180910390fd5b60038201546101a08601350361018e5760405163497a842b60e01b815260040160405180910390fd5b60008061019b85886108d7565b915091506000821561035e5760016004870154600160a01b900460ff1660068111156101c9576101c9613a41565b146101d6576101d6613a57565b610209858760020160189054906101000a90046001600160401b03168860040160159054906101000a900460ff16610b46565b600061021d6102a08a016102808b01613a7e565b60ff16036102b55750600385810154600487015460018801546040805160a08d013581526001600160801b0390921660208301526101c08c01359082015289926001600160a01b039081169216907fd5150395b21c5be6cbb37ea167761efe7a013baccbd1bb7e5922fa261ccc33319060600160405180910390a4600886015460ff16156102b0576102b0888689610be0565b61034e565b60026102c96102a08a016102808b01613a7e565b60ff16146102d9576102d9613a57565b506003850154600486015460018701546040805160a08c013581526001600160801b0390921660208301526101c08b013582820152516005938a936001600160a01b03918216939116917f37c875389b479241a31046a231beb3ed915903492a55e2b972397f2457f36c1f9181900360600190a45b610359858789610cd1565b6103f3565b50600460016004870154600160a01b900460ff16600681111561038357610383613a41565b0361039357610393858789610e65565b6003860154600487015460405189926001600160a01b039081169216907fa7891c8ed1d5d158ba0c33ce71ec777892a4e9df199937791795c08a767bc2c3906103ea9060a08e0135906101c08f0135908990613adf565b60405180910390a45b61040a856104056101c08b0135613b14565b61103c565b6000805160206140a68339815191526104437fec7e8c1c441439dd40959777f4c577ea0cd42fcc1dbe59d2bd0f5d9c55df8dc18a611177565b846104525761045286336111b3565b61045b87611210565b610464866112ae565b61046d8961138a565b6104788888846113bb565b505050505050506104a860017f0cd2207518cd3e5213e2c6dbe63d55b60aa893c194a427b7d7f1600408fd5bde55565b5050565b7fec7e8c1c441439dd40959777f4c577ea0cd42fcc1dbe59d2bd0f5d9c55df8dc6546000805160206140a68339815191529060009042600160401b9091046001600160401b0316118015610530575082600381111561050d5761050d613a41565b6011830154600160901b900460ff16600381111561052d5761052d613a41565b10155b905080156105515760405163909b191760e01b815260040160405180910390fd5b505050565b7f0cd2207518cd3e5213e2c6dbe63d55b60aa893c194a427b7d7f1600408fd5bde80546001190161059a57604051633ee5aeb560e01b815260040160405180910390fd5b60029055565b60006000805160206140a68339815191528382036105d1576040516302e8145360e61b815260040160405180910390fd5b6000848152600a82016020526040902091508215610614576105f282611413565b61060f576040516302e8145360e61b815260040160405180910390fd5b610654565b60006004830154600160a01b900460ff16600681111561063657610636613a41565b03610654576040516302e8145360e61b815260040160405180910390fd5b5092915050565b604081901b68010000000000000000600160e01b03167f5bebac0595fee029d42bb673937f5f1cb81cf8641382bc17774635de9b7d79651860048101546000919060ff16828160058111156106b2576106b2613a41565b141580156106d2575060058160058111156106cf576106cf613a41565b14155b6106545760405163d68a46c560e01b815260040160405180910390fd5b60018201546000906001600160a01b038381169116148061072957506107148361145d565b6001600160a01b0316826001600160a01b0316145b90505b92915050565b7f4f24f5c433db0962dac0d2c8b84197a6e6c7cc4e5d9ebe1916a1b6193da2f3485460038201546000916000805160206140868339815191529161079091600160901b90046001600160401b0390811691600160a01b900416613b30565b6001600160401b031642119392505050565b7f4f24f5c433db0962dac0d2c8b84197a6e6c7cc4e5d9ebe1916a1b6193da2f342547f4f24f5c433db0962dac0d2c8b84197a6e6c7cc4e5d9ebe1916a1b6193da2f34554600080516020614086833981519152916001600160a01b0316906040840135146108235760405163057f3fa760e51b815260040160405180910390fd5b60405163a7a3797560e01b81526001600160a01b0382169063a7a379759061084f908690600401613c99565b602060405180830381865afa15801561086c573d6000803e3d6000fd5b505050506040513d601f19601f820116820180604052508101906108909190613d2e565b610551576040516316c32dbb60e21b815260040160405180910390fd5b60006001600160401b038211156108c6576108c6613a57565b5067232128293320800160c11b1790565b60018201546000906060908290610900906001600160801b03600160801b820481169116613d4b565b905060016109166102a086016102808701613a7e565b60ff16036109525750506040805180820190915260128152711d1c985b9cd858dd1a5bdb8819985a5b195960721b602082015260009150610b3f565b84546101a0850135146109975750506040805180820190915260168152756e6f742072656465656d65722773206164647265737360501b602082015260009150610b3f565b610200840135811315610a045760026109b86102a086016102808701613a7e565b60ff16146109ff57505060408051808201909152601c81527f726564656d7074696f6e207061796d656e7420746f6f20736d616c6c00000000602082015260009150610b3f565b610b29565b600885015460ff16158015610a4657506002850154600160401b90046001600160401b0316610a3b61012086016101008701613a26565b6001600160401b0316115b8015610a7f57506002850154600160801b90046001600160401b0316610a7461014086016101208701613a26565b6001600160401b0316115b15610ac357505060408051808201909152601b81527f726564656d7074696f6e207061796d656e7420746f6f206c6174650000000000602082015260009150610b3f565b60026004860154600160a01b900460ff166006811115610ae557610ae5613a41565b03610b2957505060408051808201909152601c81527f726564656d7074696f6e20616c72656164792064656661756c74656400000000602082015260009150610b3f565b5050604080516020810190915260008152600191505b9250929050565b6005830154610b66908390600160801b90046001600160401b0316613d5e565b8360050160106101000a8154816001600160401b0302191690836001600160401b0316021790555080610551576005830154610bb3908390600160c01b90046001600160401b0316613d5e565b8360050160186101000a8154816001600160401b0302191690836001600160401b03160217905550505050565b610be86114ff565b7f908500188c8f91f50d58dffac83eda18fc06d9da0208fc6b66c78a4c3fec74f28054604051630da7a59560e31b81526001600160a01b0390911690636d3d2ca890610c38908790600401613c99565b600060405180830381600087803b158015610c5257600080fd5b505af1158015610c66573d6000803e3d6000fd5b5060009250610c7c915050610200860135611548565b905082610c88856115a3565b6001600160a01b03167f312f6f8967bb430e84de79db107c9118070da08cf521286593df37852612499383604051610cc291815260200190565b60405180910390a35050505050565b60088201546001830154600091610d0191600160801b90046001600160801b031690610100900461ffff166115cb565b9050610d0c816115da565b90508015610e5f57610d2684610d2183611621565b611667565b7f4f24f5c433db0962dac0d2c8b84197a6e6c7cc4e5d9ebe1916a1b6193da2f33b546001600160a01b031684546040516340c10f1960e01b81526001600160a01b039182166004820152602481018490529116906340c10f1990604401600060405180830381600087803b158015610d9d57600080fd5b505af1158015610db1573d6000803e3d6000fd5b5050855460405163542a535160e11b8152600481018590526001600160a01b03909116925063a854a6a29150602401600060405180830381600087803b158015610dfa57600080fd5b505af1158015610e0e573d6000803e3d6000fd5b5050505081610e1c856115a3565b6001600160a01b03167f317ababa750f78c73b0fdd6893e3506a58618fb283855d2be225873b7816beb083604051610e5691815260200190565b60405180910390a35b50505050565b60016004830154600160a01b900460ff166006811115610e8757610e87613a41565b14610e9457610e94613a57565b600882015460ff16610fbd57600080610ead8585611740565b60038601549193509150600090610ecf9087906001600160a01b0316856118b5565b50905080610eea57610ee3868685856119d2565b9150600092505b8115610f0d576003850154610f0b9087906001600160a01b03168480611b68565b505b610f40868660020160189054906101000a90046001600160401b03168760040160159054906101000a900460ff16610b46565b600385015484906001600160a01b0316610f59886115a3565b6001880154604080516001600160801b0390921682526020820188905281018690526001600160a01b0391909116907f1de98aa7f7442c6299d2d4f8dbfb9455830c5ea4e71f9e152a95fc2ce94fe5cc9060600160405180910390a4505050505050565b600382015481906001600160a01b0316610fd6856115a3565b6001850154604080516001600160801b03909216825260006020830181905282820152516001600160a01b0392909216917f1de98aa7f7442c6299d2d4f8dbfb9455830c5ea4e71f9e152a95fc2ce94fe5cc9181900360600190a4610551838383611c73565b6006820154600090611059908390600160401b9004600f0b613d7d565b9050600061106684611ced565b905061107181611d57565b8212156110d557611081846115a3565b6001600160a01b03167f3232fdbb55664d655aff08d1cc31318b51047d1178a5cea499006d9f9d4c07ae83836040516110c4929190918252602082015260400190565b60405180910390a26110d584611dc1565b6110de82611eb2565b6006850180546001600160801b0392909216600160401b0277ffffffffffffffffffffffffffffffff000000000000000019909216919091179055611122846115a3565b6006850154604051600160401b909104600f0b81526001600160a01b0391909116907f73da6891cb86668451f612d2555e88650888a0133a30b1d226b2d1f955e62bca9060200160405180910390a250505050565b6040805161014083013560208083019190915260a084013582840152825180830384018152606090920190925280519101206105518382611f1b565b7f4f24f5c433db0962dac0d2c8b84197a6e6c7cc4e5d9ebe1916a1b6193da2f34954600080516020614086833981519152906000906111fc9085906001600160801b0316611f5b565b9050611209848483611f6f565b5050505050565b600581015460009061123790633b9aca0090600160a01b90046001600160401b0316613da5565b905080156104a85760058201805467ffffffffffffffff60a01b191690557f4f24f5c433db0962dac0d2c8b84197a6e6c7cc4e5d9ebe1916a1b6193da2f343546040516001600160a01b039091169082156108fc029083906000818181858888f19350505050158015610551573d6000803e3d6000fd5b6002600482015460ff1660058111156112c9576112c9613a41565b146112d15750565b60006112dc82612038565b905060006112eb8360006120ac565b905060006112fa8460016120ac565b905081836000015110158015611314575080836020015110155b15610e5f576004840180547fff00ff0000000000000000ffffffffffffffffffffffffffffffffffffffff0016600117905561134f846115a3565b6001600160a01b03167fe513b42585b0ceec0d56d56fe3a23861c15a2f74eb4c32c94334d63d68ff4dcf60405160405180910390a250505050565b6113b861139f61012083016101008401613a26565b6113b161014084016101208501613a26565b60016120f2565b50565b60038160068111156113cf576113cf613a41565b10156113dd576113dd613a57565b60048201805482919060ff60a01b1916600160a01b83600681111561140457611404613a41565b02179055506105518383612280565b6004810154600090600160a01b900460ff16600181600681111561143957611439613a41565b14806114565750600281600681111561145457611454613a41565b145b9392505050565b60006114907f4f24f5c433db0962dac0d2c8b84197a6e6c7cc4e5d9ebe1916a1b6193da2f341546001600160a01b031690565b6001830154604051631f86345d60e31b81526001600160a01b03918216600482015291169063fc31a2e890602401602060405180830381865afa1580156114db573d6000803e3d6000fd5b505050506040513d601f19601f8201168201806040525081019061072c9190613dd1565b7f908500188c8f91f50d58dffac83eda18fc06d9da0208fc6b66c78a4c3fec74f280546001600160a01b03166113b8576040516356f9eaeb60e11b815260040160405180910390fd5b60008082121561159f5760405162461bcd60e51b815260206004820181905260248201527f53616665436173743a2076616c7565206d75737420626520706f73697469766560448201526064015b60405180910390fd5b5090565b7f5bebac0595fee029d42bb673937f5f1cb81cf8641382bc17774635de9b7d79651860401c90565b600061072983836127106122e1565b6000805160206140c6833981519152546000906000805160206140868339815191529061161790600160901b90046001600160401b031684613e04565b6114569084613d4b565b6000805160206140c683398151915254600090600080516020614086833981519152906114569061166290600160901b90046001600160401b031685613e18565b6123e5565b808260050160088282829054906101000a90046001600160401b031661168d9190613b30565b92506101000a8154816001600160401b0302191690836001600160401b0316021790555060006116c860008051602061408683398151915290565b60068401549091506000906116e79084906001600160401b0316613b30565b600d830154909150600090611705906001600160401b031683613e2c565b905060006117138284613d5e565b90506001600160401b0381161561172e5761172e868261244d565b61173886836125f0565b505050505050565b6000806000805160206140868339815191528161175c86612686565b60028601549091506000906117849083908990600160c01b90046001600160401b0316612766565b6004870154909150600160a81b900460ff16156117d657600286015460408301516117bf91600160c01b90046001600160401b03169061282d565b9450600093506117cf8582612847565b94506118ab565b600e8301546002870154604084015161181892600160501b900463ffffffff169161181291600160c01b9091046001600160401b03169061282d565b906115cb565b945060009350808511156118ab5760006118318861285d565b60028801549091506000906118599083908b90600160c01b90046001600160401b0316612766565b9050600061188661186a858a613d4b565b60028b0154600160c01b90046001600160401b0316908a6128e8565b905083975061189981846040015161282d565b96506118a58783612847565b96505050505b5050509250929050565b60008060006118c386612925565b905060006118d0876115a3565b82546040516370a0823160e01b81526001600160a01b03808416600483015292935061194a92889216906370a08231906024015b602060405180830381865afa158015611921573d6000803e3d6000fd5b505050506040513d601f19601f820116820180604052508101906119459190613e5a565b612847565b825460405163083e007560e21b81526001600160a01b0391821660048201528882166024820152604481018390529194508216906320f801d490606401600060405180830381600087803b1580156119a157600080fd5b505af19250505080156119b2575060015b6119c35760009350600092506119c8565b600193505b5050935093915050565b6000806119de86612972565b90506000611a07826040015160400151836000015160400151876122e19092919063ffffffff16565b90506000611aa8600080516020614086833981519152600c0154604085810151015164010000000090910463ffffffff169061181290611a496009600a613f5a565b60028c015460058e01546001600160401b03600160c01b909204821691600160801b8204811691611a8491600160401b820481169116613b30565b611a8e9190613b30565b611a989190613d5e565b6001600160401b031691906122e1565b604084015160200151909150611abe8383613f66565b1115611add5760405163b179f0db60e01b815260040160405180910390fd5b6000611b04846020015160400151856000015160400151896122e19092919063ffffffff16565b90506000611b128288613f66565b60028a01546020870151919250611b3b91908c90600160c01b90046001600160401b0316612766565b811115611b5b57604051633f6b20df60e21b815260040160405180910390fd5b9998505050505050505050565b6000808560000160009054906101000a90046001600160a01b03166001600160a01b0316634ac8eb5f6040518163ffffffff1660e01b8152600401602060405180830381865afa158015611bc0573d6000803e3d6000fd5b505050506040513d601f19601f82011682018060405250810190611be49190613e5a565b9050611bf08482612847565b9150611bfc8383612847565b865460405163adf58c1560e01b81526001600160a01b038881166004830152602482018690526044820184905292955091169063adf58c1590606401600060405180830381600087803b158015611c5257600080fd5b505af1158015611c66573d6000803e3d6000fd5b5050505050949350505050565b611c7b6114ff565b611c858183612280565b611c8f8383612a13565b80611c99846115a3565b60018401546040516001600160801b0390911681526001600160a01b0391909116907f5f2a331e2db53740999cc1c370fa531b2e3b7fac4bf1156e8fe7c2578ad299e49060200160405180910390a3505050565b6000805160206140c683398151915254600582015460009160008051602061408683398151915291600160901b9091046001600160401b0390811691611d4491600160801b8204811691600160401b900416613b30565b6001600160401b03166114569190613da5565b60006001600160ff1b0382111561159f5760405162461bcd60e51b815260206004820152602860248201527f53616665436173743a2076616c756520646f65736e27742066697420696e2061604482015267371034b73a191a9b60c11b6064820152608401611596565b6003600482015460ff166005811115611ddc57611ddc613a41565b1480611dff575060048082015460ff166005811115611dfd57611dfd613a41565b145b15611e075750565b6004810154600160a81b90046001600160401b0316600003611e5557611e2c426123e5565b8160040160156101000a8154816001600160401b0302191690836001600160401b031602179055505b60048101805460ff19166003179055611e6d816115a3565b6001600160a01b03167fa3bf539465c1a8746950e123769affaff9097155e9e8cb9e079e1d55d6ba349742604051611ea791815260200190565b60405180910390a250565b80600f81900b8114611f165760405162461bcd60e51b815260206004820152602760248201527f53616665436173743a2076616c756520646f65736e27742066697420696e20316044820152663238206269747360c81b6064820152608401611596565b919050565b60008181526020839052604090205415611f48576040516318dce79f60e01b815260040160405180910390fd5b6000818152602092909252604090912055565b600061072982611f6a85612925565b612a66565b600080611f7b85612925565b90506000611f88866115a3565b82546040516370a0823160e01b81526001600160a01b038084166004830152929350611fc092879216906370a0823190602401611904565b825460405163083e007560e21b81526001600160a01b0391821660048201528782166024820152604481018390529194508216906320f801d490606401600060405180830381600087803b15801561201757600080fd5b505af115801561202b573d6000803e3d6000fd5b5050505050509392505050565b6120636040518060800160405280600081526020016000815260200160008152602001600081525090565b600080612071846000612b66565b91509150600080612083866001612b66565b604080516080810182529687526020870192909252908501939093525050606082015292915050565b6000806120b98484612bc1565b90506120c58484612c66565b6120da576003015463ffffffff16905061072c565b60030154600160401b900463ffffffff16905061072c565b6000805160206140a683398151915260008061210e8487613b30565b600f8401549091506001600160401b03620100009091048116908216111561215a57600f8301805469ffffffffffffffff00001916620100006001600160401b03841602179055600191505b60006103e8600080516020614086833981519152600c01546121829063ffffffff1687613f79565b61218c9190613f9b565b6121969087613b30565b600f8501546001600160401b039182169250600160501b9004168111156121ed576121c0816123e5565b84600f01600a6101000a8154816001600160401b0302191690836001600160401b03160217905550600192505b8215612277576121fc426123e5565b600f8501805467ffffffffffffffff60901b1916600160901b6001600160401b039384160217908190556040805162010000830484168152600160501b9092049092166020820152428183015290517f2078549e3faec355556787458d744ad19765bbb953b3f71801333f29abdce1c8916060908290030190a15b50505050505050565b600881015460ff16156104a85760048101546000906122a7906001600160a01b031661065b565b600c81015490915064010000000090046001600160401b031683900361055157600c0180546bffffffffffffffff00000000191690555050565b6000808211612303576040516323d359a360e01b815260040160405180910390fd5b8360000361231357506000611456565b8383028385828161232657612326613dee565b04036123445782818161233b5761233b613dee565b04915050611456565b5060006123518386613e18565b9050600061235f8487613e04565b9050600061236d8587613e18565b9050600061237b8688613e04565b9050856123888285613da5565b6123929190613e18565b61239c8385613da5565b6123a68387613da5565b886123b18689613da5565b6123bb9190613da5565b6123c59190613f66565b6123cf9190613f66565b6123d99190613f66565b98975050505050505050565b60006001600160401b0382111561159f5760405162461bcd60e51b815260206004820152602660248201527f53616665436173743a2076616c756520646f65736e27742066697420696e203660448201526534206269747360d01b6064820152608401611596565b6000805160206140a68339815191526001600160401b03821660000361247257505050565b600061247d846115a3565b6009830154600160401b90046001600160401b031660008181526007850160205260409020805492935090916001600160a01b0380851691160361257a578054859082906014906124df908490600160a01b90046001600160401b0316613b30565b92506101000a8154816001600160401b0302191690836001600160401b0316021790555060006125258260000160149054906101000a90046001600160401b0316612ccf565b9050826001600160401b0316846001600160a01b03167f9d2e72c50be7927e999d37329649af37a863df77bcb25361699ce021d3d7475d8360405161256c91815260200190565b60405180910390a350611738565b600061258a600786018588612d10565b9050600061259787612ccf565b9050816001600160401b0316856001600160a01b03167f631f8f2039090539b2ea4ef7dc567f7f1939ef4dd3e790b1ca7bc548a1fada58836040516125de91815260200190565b60405180910390a35050505050505050565b60068201546001600160401b0380831691160361260b575050565b60068201805467ffffffffffffffff19166001600160401b038316179055600061263482612ccf565b905061263f836115a3565b6001600160a01b03167fa3db2bc927901a1d3ba09ad51d84609457b98443be9132a0a936a47c5a1081b58260405161267991815260200190565b60405180910390a2505050565b6126ab6040805160608101909152806000815260200160008152602001600081525090565b60006126b683612925565b60408051606081019091526000815281549192509060208201906001600160a01b03166370a082316126e7876115a3565b6040516001600160e01b031960e084901b1681526001600160a01b039091166004820152602401602060405180830381865afa15801561272b573d6000803e3d6000fd5b505050506040513d601f19601f8201168201806040525081019061274f9190613e5a565b815260200161275d83613119565b90529392505050565b60008160000361277857506000611456565b600060018551600281111561278f5761278f613a41565b146127ae576005840154600160801b90046001600160401b03166127c4565b6005840154600160c01b90046001600160401b03165b6001600160401b03169050808311156127df576127df613a57565b60058401546000908290612806906001600160401b0380821691600160401b900416613f66565b6128109190613f66565b60208701519091506128239085836122e1565b9695505050505050565b60006107298261283f6009600a613f5a565b8591906122e1565b60008183106128565781610729565b5090919050565b6128826040805160608101909152806000815260200160008152602001600081525090565b600061288d8361312f565b604080516060810182526001815285548251634ac8eb5f60e01b8152925193945090926020808501936001600160a01b0390931692634ac8eb5f92600480830193928290030181865afa15801561272b573d6000803e3d6000fd5b6000806128f68585856122e1565b90506000838061290857612908613dee565b8587099050801561291c5781600101612823565b50949350505050565b6000806000805160206140a683398151915260048401548154919250829161010090910461ffff1690811061295c5761295c613fc9565b9060005260206000209060040201915050919050565b6129dd6040805160c081019091526000606082018181526080830182905260a083019190915281908152604080516060810182526000808252602082810182905292820152910190815260408051606081018252600080825260208281018290529282015291015290565b60006129e88361285d565b905060405180606001604052806129fe85612686565b815260200182815260200161275d8584613168565b612a46828260020160189054906101000a90046001600160401b03168360040160159054906101000a900460ff16610b46565b60028101546104a8908390600160c01b90046001600160401b0316611667565b6000816002018054612a7790613fdf565b9050600003612a8757508161072c565b600080612b21846002018054612a9c90613fdf565b80601f0160208091040260200160405190810160405280929190818152602001828054612ac890613fdf565b8015612b155780601f10612aea57610100808354040283529160200191612b15565b820191906000526020600020905b815481529060010190602001808311612af857829003601f168201915b50505050506000613337565b8654929450925060009160059150612b44908490600160a81b900460ff16613f66565b612b4e9190613d4b565b9050612823612b5e82600a613f5a565b8790856122e1565b600080600080612b76868661342c565b915091506000612b86838861350a565b90506000612b94838961350a565b9050612ba884604001518460400151612847565b9450612bb48282613561565b9550505050509250929050565b60006002826002811115612bd757612bd7613a41565b03612be457612be4613a57565b6000805160206140a68339815191526000836002811115612c0757612c07613a41565b03612c4357600484015481548291610100900461ffff16908110612c2d57612c2d613fc9565b906000526020600020906004020191505061072c565b6004840154815482916301000000900461ffff16908110612c2d57612c2d613fc9565b600080826002811115612c7b57612c7b613a41565b03612c9757506004820154600160f01b9004600116151561072c565b6001826002811115612cab57612cab613a41565b14612cb857612cb8613a57565b506004820154600160f01b9004600216151561072c565b6000805160206140c6833981519152546000906000805160206140868339815191529061145690600160901b90046001600160401b03908116908516613da5565b6001600160a01b03821660009081526001840160205260408120600285018054839190601090612d4f90600160801b90046001600160401b0316614019565b91906101000a8154816001600160401b0302191690836001600160401b03160217905590506040518060c00160405280866001600160a01b03168152602001856001600160401b031681526020018760020160089054906101000a90046001600160401b03166001600160401b0316815260200160006001600160401b031681526020018360000160089054906101000a90046001600160401b03166001600160401b0316815260200160006001600160401b0316815250866000016000836001600160401b03166001600160401b0316815260200190815260200160002060008201518160000160006101000a8154816001600160a01b0302191690836001600160a01b0316021790555060208201518160000160146101000a8154816001600160401b0302191690836001600160401b0316021790555060408201518160010160006101000a8154816001600160401b0302191690836001600160401b0316021790555060608201518160010160086101000a8154816001600160401b0302191690836001600160401b0316021790555060808201518160010160106101000a8154816001600160401b0302191690836001600160401b0316021790555060a08201518160010160186101000a8154816001600160401b0302191690836001600160401b031602179055509050508560020160009054906101000a90046001600160401b03166001600160401b0316600003612fac576002860154600160401b90046001600160401b031615612f8957612f89613a57565b60028601805467ffffffffffffffff19166001600160401b038316179055613014565b6002860154600160401b90046001600160401b0316600003612fd057612fd0613a57565b6002860154600160401b908190046001600160401b039081166000908152602089905260409020600101805467ffffffffffffffff60401b19169184169092021790555b6002860180546001600160401b03808416600160401b0267ffffffffffffffff60401b199092169190911790915582541660000361308a578154600160401b90046001600160401b03161561306b5761306b613a57565b815467ffffffffffffffff19166001600160401b0382161782556130ed565b8154600160401b90046001600160401b03166000036130ab576130ab613a57565b81546001600160401b03600160401b909104811660009081526020889052604090206001018054918316600160c01b026001600160c01b039092169190911790555b815467ffffffffffffffff60401b1916600160401b6001600160401b0383160217909155949350505050565b6000613126826000613570565b50909392505050565b6000806000805160206140a6833981519152600484015481549192508291630100000090910461ffff1690811061295c5761295c613fc9565b61318d6040805160608101909152806000815260200160008152602001600081525090565b8254604080516332f7ce0b60e21b815290516000926001600160a01b03169163cbdf382c9160048083019260209291908290030181865afa1580156131d6573d6000803e3d6000fd5b505050506040513d601f19601f820116820180604052508101906131fa9190613dd1565b90506000816001600160a01b03166370a08231613216876115a3565b6040516001600160e01b031960e084901b1681526001600160a01b039091166004820152602401602060405180830381865afa15801561325a573d6000803e3d6000fd5b505050506040513d601f19601f8201168201806040525081019061327e9190613e5a565b90506000826001600160a01b03166318160ddd6040518163ffffffff1660e01b8152600401602060405180830381865afa1580156132c0573d6000803e3d6000fd5b505050506040513d601f19601f820116820180604052508101906132e49190613e5a565b9050600085602001516000036132fe578560400151613313565b602086015160408701516133139184906122e1565b60408051606081018252600281526020810195909552840152509095945050505050565b7f4f24f5c433db0962dac0d2c8b84197a6e6c7cc4e5d9ebe1916a1b6193da2f3445460009081908190600080516020614086833981519152906001600160a01b031685156133f95760405163e4a0a55b60e01b81526001600160a01b0382169063e4a0a55b906133ab908a90600401614044565b606060405180830381865afa1580156133c8573d6000803e3d6000fd5b505050506040513d601f19601f820116820180604052508101906133ec9190614057565b9450945094505050613425565b60405163524f388960e01b81526001600160a01b0382169063524f3889906133ab908a90600401614044565b9250925092565b6134516040805160608101909152806000815260200160008152602001600081525090565b6134766040805160608101909152806000815260200160008152602001600081525090565b60006134828585612bc1565b90506000613491868684613728565b905060008061349f84613814565b9150915060405180606001604052808860028111156134c0576134c0613a41565b815260200184815260200183815250955060405180606001604052808860028111156134ee576134ee613a41565b8152602001848152602001828152509450505050509250929050565b60008061351b8385600001516138c3565b9050600061352d82866040015161282d565b905080600003613546576402540be4009250505061072c565b602085015161355890612710836122e1565b95945050505050565b60008183116128565781610729565b60008060008060008061360f88600101805461358b90613fdf565b80601f01602080910402602001604051908101604052809291908181526020018280546135b790613fdf565b80156136045780601f106135d957610100808354040283529160200191613604565b820191906000526020600020905b8154815290600101906020018083116135e757829003601f168201915b505050505088613337565b8a549295509093509150600160f01b900460ff161561365657875460009061364590600160a81b900460ff16600183878661394b565b965091945084935061342592505050565b60008060006136f18b600201805461366d90613fdf565b80601f016020809104026020016040519081016040528092919081815260200182805461369990613fdf565b80156136e65780601f106136bb576101008083540402835291602001916136e6565b820191906000526020600020905b8154815290600101906020018083116136c957829003601f168201915b50505050508b613337565b8d54929550909350915060009061371590600160a81b900460ff1685848a8961394b565b9950949750909550613425945050505050565b6000600183600281111561373e5761373e613a41565b036137b757835460408051634ac8eb5f60e01b815290516001600160a01b0390921691634ac8eb5f916004808201926020929091908290030181865afa15801561378c573d6000803e3d6000fd5b505050506040513d601f19601f820116820180604052508101906137b09190613e5a565b9050611456565b81546001600160a01b03166370a082316137d0866115a3565b6040516001600160e01b031960e084901b1681526001600160a01b039091166004820152602401602060405180830381865afa15801561378c573d6000803e3d6000fd5b6000806000805160206140868339815191528180806138338782613570565b92509250925060008060006138498a6001613570565b60108a01549295509093509150600090859061387590600160c01b90046001600160401b031684613f66565b101580156138a257506010880154869061389f90600160c01b90046001600160401b031685613f66565b10155b9050869950806138b257866138b4565b835b98505050505050505050915091565b60008060018360028111156138da576138da613a41565b146138f9576005840154600160801b90046001600160401b031661390f565b6005840154600160c01b90046001600160401b03165b60058501546001600160401b03918216925082916139399180821691600160401b90910416613f66565b6139439190613f66565b949350505050565b6000600080516020614086833981519152816009613969878a613f66565b6139739190613f66565b600a830154909150600090613993908690600160a81b900460ff16613f66565b9050808210156139a5576139a5613a57565b611b5b6139b28284613d4b565b6139bd90600a613f5a565b87908a6122e1565b600080604083850312156139d857600080fd5b82356001600160401b038111156139ee57600080fd5b83016102a08186031215613a0157600080fd5b946020939093013593505050565b80356001600160401b0381168114611f1657600080fd5b600060208284031215613a3857600080fd5b61072982613a0f565b634e487b7160e01b600052602160045260246000fd5b634e487b7160e01b600052600160045260246000fd5b803560ff81168114611f1657600080fd5b600060208284031215613a9057600080fd5b61072982613a6d565b6000815180845260005b81811015613abf57602081850181015186830182015201613aa3565b506000602082860101526020601f19601f83011685010191505092915050565b8381528260208201526060604082015260006135586060830184613a99565b634e487b7160e01b600052601160045260246000fd5b6000600160ff1b8201613b2957613b29613afe565b5060000390565b6001600160401b03818116838216019081111561072c5761072c613afe565b80151581146113b857600080fd5b8035611f1681613b4f565b80358252602080820135908301526001600160401b03613b8a60408301613a0f565b1660408301526001600160401b03613ba460608301613a0f565b1660608301526080818101359083015260a0808201359083015260c08082013590830152613be960e080840190613bdc908401613a0f565b6001600160401b03169052565b613bf66101008201613a0f565b6001600160401b031661010083015261012081810135908301526101408082013590830152610160808201359083015261018080820135908301526101a080820135908301526101c080820135908301526101e0808201359083015261020080820135908301526102208082013590830152613c756102408201613b5d565b1515610240830152613c8a6102608201613a6d565b60ff8116610260840152505050565b6020815260008235601e19843603018112613cb357600080fd5b83016020810190356001600160401b03811115613ccf57600080fd5b8060051b803603831315613ce257600080fd5b6102a060208601526102c085018290526001600160fb1b03821115613d0657600080fd5b80836102e0870137613d1e6040860160208801613b68565b939093016102e001949350505050565b600060208284031215613d4057600080fd5b815161145681613b4f565b8181038181111561072c5761072c613afe565b6001600160401b03828116828216039081111561072c5761072c613afe565b8082018281126000831280158216821582161715613d9d57613d9d613afe565b505092915050565b808202811582820484141761072c5761072c613afe565b6001600160a01b03811681146113b857600080fd5b600060208284031215613de357600080fd5b815161145681613dbc565b634e487b7160e01b600052601260045260246000fd5b600082613e1357613e13613dee565b500690565b600082613e2757613e27613dee565b500490565b60006001600160401b03831680613e4557613e45613dee565b806001600160401b0384160691505092915050565b600060208284031215613e6c57600080fd5b5051919050565b6001815b6001841115613eae57808504811115613e9257613e92613afe565b6001841615613ea057908102905b60019390931c928002613e77565b935093915050565b600082613ec55750600161072c565b81613ed25750600061072c565b8160018114613ee85760028114613ef257613f0e565b600191505061072c565b60ff841115613f0357613f03613afe565b50506001821b61072c565b5060208310610133831016604e8410600b8410161715613f31575081810a61072c565b613f3e6000198484613e73565b8060001904821115613f5257613f52613afe565b029392505050565b60006107298383613eb6565b8082018082111561072c5761072c613afe565b6001600160401b03818116838216029081169081811461065457610654613afe565b60006001600160401b03831680613fb457613fb4613dee565b806001600160401b0384160491505092915050565b634e487b7160e01b600052603260045260246000fd5b600181811c90821680613ff357607f821691505b60208210810361401357634e487b7160e01b600052602260045260246000fd5b50919050565b60006001600160401b0382166001600160401b03810361403b5761403b613afe565b60010192915050565b6020815260006107296020830184613a99565b60008060006060848603121561406c57600080fd5b505081516020830151604090930151909492935091905056fe4f24f5c433db0962dac0d2c8b84197a6e6c7cc4e5d9ebe1916a1b6193da2f33aec7e8c1c441439dd40959777f4c577ea0cd42fcc1dbe59d2bd0f5d9c55df8db64f24f5c433db0962dac0d2c8b84197a6e6c7cc4e5d9ebe1916a1b6193da2f346a26469706673582212208318daa37cfdb69907716bd89ba6793525b506c769c5daf2ca9c7822bb78fbf764736f6c634300081b0033",
  "linkReferences": {},
  "deployedLinkReferences": {}
}