{
  "_format": "hh-sol-artifact-1",
  "contractName": "RedemptionTimeExtensionFacet",
  "sourceName": "contracts/assetManager/facets/RedemptionTimeExtensionFacet.sol",
  "abi": [
    {
      "inputs": [],
      "stateMutability": "nonpayable",
      "type": "constructor"
    },
    {
      "inputs": [],
      "name": "AlreadyInitialized",
      "type": "error"
    },
    {
      "inputs": [],
      "name": "DecreaseTooBig",
      "type": "error"
    },
    {
      "inputs": [],
      "name": "DiamondNotInitialized",
      "type": "error"
    },
    {
      "inputs": [],
      "name": "EmergencyPauseActive",
      "type": "error"
    },
    {
      "inputs": [],
      "name": "IncreaseTooBig",
      "type": "error"
    },
    {
      "inputs": [],
      "name": "NotAttached",
      "type": "error"
    },
    {
      "inputs": [],
      "name": "NotWhitelisted",
      "type": "error"
    },
    {
      "inputs": [],
      "name": "OnlyAssetManagerController",
      "type": "error"
    },
    {
      "inputs": [],
      "name": "OnlyImmediateGovernanceOrExecutor",
      "type": "error"
    },
    {
      "inputs": [],
      "name": "TooCloseToPreviousUpdate",
      "type": "error"
    },
    {
      "inputs": [],
      "name": "ValueMustBeNonzero",
      "type": "error"
    },
    {
      "anonymous": false,
      "inputs": [
        {
          "indexed": false,
          "internalType": "string",
          "name": "name",
          "type": "string"
        },
        {
          "indexed": false,
          "internalType": "uint256",
          "name": "value",
          "type": "uint256"
        }
      ],
      "name": "SettingChanged",
      "type": "event"
    },
    {
      "inputs": [
        {
          "internalType": "uint256",
          "name": "_redemptionPaymentExtensionSeconds",
          "type": "uint256"
        }
      ],
      "name": "initRedemptionTimeExtensionFacet",
      "outputs": [],
      "stateMutability": "nonpayable",
      "type": "function"
    },
    {
      "inputs": [],
      "name": "redemptionPaymentExtensionSeconds",
      "outputs": [
        {
          "internalType": "uint256",
          "name": "",
          "type": "uint256"
        }
      ],
      "stateMutability": "view",
      "type": "function"
    },
    {
      "inputs": [
        {
          "internalType": "uint256",
          "name": "_value",
          "type": "uint256"
        }
      ],
      "name": "setRedemptionPaymentExtensionSeconds",
      "outputs": [],
      "stateMutability": "nonpayable",
      "type": "function"
    }
  ],
  "bytecode": "0x6080604052348015600f57600080fd5b5060186001601c565b60d1565b7f1309a575a1ebd5e5ca64d58e63b864f1d06aed3e31a021b0eabae653c215fb066044826062565b81546001600160401b0319166001600160401b039190911617905550565b60006001600160401b0382111560cd5760405162461bcd60e51b815260206004820152602660248201527f53616665436173743a2076616c756520646f65736e27742066697420696e203660448201526534206269747360d01b606482015260840160405180910390fd5b5090565b6105e6806100e06000396000f3fe608060405234801561001057600080fd5b50600436106100415760003560e01c80632a926491146100465780636ae2d86f1461005b57806375afe6381461006e575b600080fd5b6100596100543660046104df565b610088565b005b6100596100693660046104df565b6101fb565b6100766102fb565b60405190815260200160405180910390f35b610090610322565b610098610370565b7f4f24f5c433db0962dac0d2c8b84197a6e6c7cc4e5d9ebe1916a1b6193da2f33a60006100db6000805160206105918339815191525467ffffffffffffffff1690565b600c8301549091506100f6906103e89063ffffffff16610524565b63ffffffff1661010782600461054c565b6101119190610569565b831115610131576040516313d2afed60e31b815260040160405180910390fd5b61013c60048261057c565b83101561015c576040516348e8562160e11b815260040160405180910390fd5b6000831161017d576040516312bbcae960e11b815260040160405180910390fd5b61018683610387565b604080518181526021818301527f726564656d7074696f6e5061796d656e74457874656e73696f6e5365636f6e646060820152607360f81b60808201526020810185905290517fac1fb27759c1e6f9e4a24d4f8c320be6091becb03cea5a95398fa220fca4ac0e9181900360a00190a1505050565b6301ffc9a760e01b6000527fc8fcad8db84d3cc18b4c41d551ea0ee66dd599cde068d998e57d5e09332c131e6020527f673a26ab9c976db950bbe987aa80c5e387f329563bb0afe093ddccc970489e31547fc8fcad8db84d3cc18b4c41d551ea0ee66dd599cde068d998e57d5e09332c131c9060ff1661028e57604051638789188d60e01b815260040160405180910390fd5b635f3d82a960e01b60009081526002820160205260409020805460ff191660011790556102d16000805160206105918339815191525467ffffffffffffffff1690565b156102ee5760405162dc149f60e41b815260040160405180910390fd5b6102f782610387565b5050565b600061031d6000805160206105918339815191525467ffffffffffffffff1690565b905090565b7f4f24f5c433db0962dac0d2c8b84197a6e6c7cc4e5d9ebe1916a1b6193da2f33a80546001600160a01b0316331461036d57604051634ae14edf60e11b815260040160405180910390fd5b50565b6103856001600160e01b0319600035166103bf565b565b60008051602061059183398151915261039f8261046e565b815467ffffffffffffffff191667ffffffffffffffff9190911617905550565b60008181527fc6aafbe0f74bbe68eec7559401d7d311a092b5c4d8feb0452323e4ba73d8d8d160208190526040909120547f4f24f5c433db0962dac0d2c8b84197a6e6c7cc4e5d9ebe1916a1b6193da2f33a9080158061043e5750601182015461043a90600160801b900467ffffffffffffffff1682610569565b4210155b61045b57604051630e216b9960e31b815260040160405180910390fd5b5050600091825260205260409020429055565b600067ffffffffffffffff8211156104db5760405162461bcd60e51b815260206004820152602660248201527f53616665436173743a2076616c756520646f65736e27742066697420696e203660448201526534206269747360d01b606482015260840160405180910390fd5b5090565b6000602082840312156104f157600080fd5b5035919050565b634e487b7160e01b600052601260045260246000fd5b634e487b7160e01b600052601160045260246000fd5b600063ffffffff83168061053a5761053a6104f8565b8063ffffffff84160491505092915050565b80820281158282048414176105635761056361050e565b92915050565b808201808211156105635761056361050e565b60008261058b5761058b6104f8565b50049056fe1309a575a1ebd5e5ca64d58e63b864f1d06aed3e31a021b0eabae653c215fb06a26469706673582212207b30dd3de6cb99b9088571010d640597fafd85a19f5c8bc59f4a4b9097f693ec64736f6c634300081b0033",
  "linkReferences": {},
  "deployedLinkReferences": {}
}