{
  "_format": "hh-sol-artifact-1",
  "contractName": "RedemptionTimeExtensionFacet",
  "sourceName": "contracts/assetManager/facets/RedemptionTimeExtensionFacet.sol",
  "abi": [
    {
      "inputs": [],
      "stateMutability": "nonpayable",
      "type": "constructor"
    },
    {
      "anonymous": false,
      "inputs": [
        {
          "indexed": false,
          "internalType": "string",
          "name": "name",
          "type": "string"
        },
        {
          "indexed": false,
          "internalType": "uint256",
          "name": "value",
          "type": "uint256"
        }
      ],
      "name": "SettingChanged",
      "type": "event"
    },
    {
      "inputs": [
        {
          "internalType": "uint256",
          "name": "_redemptionPaymentExtensionSeconds",
          "type": "uint256"
        }
      ],
      "name": "initRedemptionTimeExtensionFacet",
      "outputs": [],
      "stateMutability": "nonpayable",
      "type": "function"
    },
    {
      "inputs": [],
      "name": "redemptionPaymentExtensionSeconds",
      "outputs": [
        {
          "internalType": "uint256",
          "name": "",
          "type": "uint256"
        }
      ],
      "stateMutability": "view",
      "type": "function"
    },
    {
      "inputs": [
        {
          "internalType": "uint256",
          "name": "_value",
          "type": "uint256"
        }
      ],
      "name": "setRedemptionPaymentExtensionSeconds",
      "outputs": [],
      "stateMutability": "nonpayable",
      "type": "function"
    }
  ],
  "bytecode": "0x6080604052348015600f57600080fd5b5060186001601c565b60d1565b7f1309a575a1ebd5e5ca64d58e63b864f1d06aed3e31a021b0eabae653c215fb066044826062565b81546001600160401b0319166001600160401b039190911617905550565b60006001600160401b0382111560cd5760405162461bcd60e51b815260206004820152602660248201527f53616665436173743a2076616c756520646f65736e27742066697420696e203660448201526534206269747360d01b606482015260840160405180910390fd5b5090565b610705806100e06000396000f3fe608060405234801561001057600080fd5b50600436106100415760003560e01c80632a926491146100465780636ae2d86f1461005b57806375afe6381461006e575b600080fd5b6100596100543660046105fe565b610088565b005b6100596100693660046105fe565b61026b565b6100766103c0565b60405190815260200160405180910390f35b6100906103e7565b610098610464565b7f4f24f5c433db0962dac0d2c8b84197a6e6c7cc4e5d9ebe1916a1b6193da2f33a60006100db6000805160206106b08339815191525467ffffffffffffffff1690565b600c8301549091506100f6906103e89063ffffffff16610643565b63ffffffff1661010782600461066b565b6101119190610688565b8311156101585760405162461bcd60e51b815260206004820152601060248201526f696e63726561736520746f6f2062696760801b60448201526064015b60405180910390fd5b61016360048261069b565b8310156101a55760405162461bcd60e51b815260206004820152601060248201526f646563726561736520746f6f2062696760801b604482015260640161014f565b600083116101ed5760405162461bcd60e51b815260206004820152601560248201527476616c7565206d757374206265206e6f6e7a65726f60581b604482015260640161014f565b6101f68361047b565b604080518181526021818301527f726564656d7074696f6e5061796d656e74457874656e73696f6e5365636f6e646060820152607360f81b60808201526020810185905290517fac1fb27759c1e6f9e4a24d4f8c320be6091becb03cea5a95398fa220fca4ac0e9181900360a00190a1505050565b6301ffc9a760e01b6000527fc8fcad8db84d3cc18b4c41d551ea0ee66dd599cde068d998e57d5e09332c131e6020527f673a26ab9c976db950bbe987aa80c5e387f329563bb0afe093ddccc970489e31547fc8fcad8db84d3cc18b4c41d551ea0ee66dd599cde068d998e57d5e09332c131c9060ff1661032d5760405162461bcd60e51b815260206004820152601760248201527f6469616d6f6e64206e6f7420696e697469616c697a6564000000000000000000604482015260640161014f565b635f3d82a960e01b60009081526002820160205260409020805460ff191660011790556103706000805160206106b08339815191525467ffffffffffffffff1690565b156103b35760405162461bcd60e51b8152602060048201526013602482015272185b1c9958591e481a5b9a5d1a585b1a5e9959606a1b604482015260640161014f565b6103bc8261047b565b5050565b60006103e26000805160206106b08339815191525467ffffffffffffffff1690565b905090565b7f4f24f5c433db0962dac0d2c8b84197a6e6c7cc4e5d9ebe1916a1b6193da2f33a80546001600160a01b031633146104615760405162461bcd60e51b815260206004820152601d60248201527f6f6e6c79206173736574206d616e6167657220636f6e74726f6c6c6572000000604482015260640161014f565b50565b6104796001600160e01b0319600035166104b3565b565b6000805160206106b083398151915261049382610591565b815467ffffffffffffffff191667ffffffffffffffff9190911617905550565b60008181527fc6aafbe0f74bbe68eec7559401d7d311a092b5c4d8feb0452323e4ba73d8d8d160208190526040909120547f4f24f5c433db0962dac0d2c8b84197a6e6c7cc4e5d9ebe1916a1b6193da2f33a908015806105325750601182015461052e90600160801b900467ffffffffffffffff1682610688565b4210155b61057e5760405162461bcd60e51b815260206004820152601c60248201527f746f6f20636c6f736520746f2070726576696f75732075706461746500000000604482015260640161014f565b5050600091825260205260409020429055565b600067ffffffffffffffff8211156105fa5760405162461bcd60e51b815260206004820152602660248201527f53616665436173743a2076616c756520646f65736e27742066697420696e203660448201526534206269747360d01b606482015260840161014f565b5090565b60006020828403121561061057600080fd5b5035919050565b634e487b7160e01b600052601260045260246000fd5b634e487b7160e01b600052601160045260246000fd5b600063ffffffff83168061065957610659610617565b8063ffffffff84160491505092915050565b80820281158282048414176106825761068261062d565b92915050565b808201808211156106825761068261062d565b6000826106aa576106aa610617565b50049056fe1309a575a1ebd5e5ca64d58e63b864f1d06aed3e31a021b0eabae653c215fb06a2646970667358221220b23c171dc7f33ee83df45e9eec708e83cbc95c832b6a1273bafe5eac7b27b6a764736f6c634300081b0033",
  "linkReferences": {},
  "deployedLinkReferences": {}
}