{
  "_format": "hh-sol-artifact-1",
  "contractName": "CollateralPoolFactory",
  "sourceName": "contracts/collateralPool/implementation/CollateralPoolFactory.sol",
  "abi": [
    {
      "inputs": [
        {
          "internalType": "address",
          "name": "_implementation",
          "type": "address"
        }
      ],
      "stateMutability": "nonpayable",
      "type": "constructor"
    },
    {
      "inputs": [
        {
          "internalType": "contract IIAssetManager",
          "name": "_assetManager",
          "type": "address"
        },
        {
          "internalType": "address",
          "name": "_agentVault",
          "type": "address"
        },
        {
          "components": [
            {
              "internalType": "contract IERC20",
              "name": "vaultCollateralToken",
              "type": "address"
            },
            {
              "internalType": "string",
              "name": "poolTokenSuffix",
              "type": "string"
            },
            {
              "internalType": "uint256",
              "name": "feeBIPS",
              "type": "uint256"
            },
            {
              "internalType": "uint256",
              "name": "poolFeeShareBIPS",
              "type": "uint256"
            },
            {
              "internalType": "uint256",
              "name": "mintingVaultCollateralRatioBIPS",
              "type": "uint256"
            },
            {
              "internalType": "uint256",
              "name": "mintingPoolCollateralRatioBIPS",
              "type": "uint256"
            },
            {
              "internalType": "uint256",
              "name": "buyFAssetByAgentFactorBIPS",
              "type": "uint256"
            },
            {
              "internalType": "uint256",
              "name": "poolExitCollateralRatioBIPS",
              "type": "uint256"
            },
            {
              "internalType": "uint256",
              "name": "redemptionPoolFeeShareBIPS",
              "type": "uint256"
            }
          ],
          "internalType": "struct AgentSettings.Data",
          "name": "_settings",
          "type": "tuple"
        }
      ],
      "name": "create",
      "outputs": [
        {
          "internalType": "contract IICollateralPool",
          "name": "",
          "type": "address"
        }
      ],
      "stateMutability": "nonpayable",
      "type": "function"
    },
    {
      "inputs": [],
      "name": "implementation",
      "outputs": [
        {
          "internalType": "address",
          "name": "",
          "type": "address"
        }
      ],
      "stateMutability": "view",
      "type": "function"
    },
    {
      "inputs": [
        {
          "internalType": "bytes4",
          "name": "_interfaceId",
          "type": "bytes4"
        }
      ],
      "name": "supportsInterface",
      "outputs": [
        {
          "internalType": "bool",
          "name": "",
          "type": "bool"
        }
      ],
      "stateMutability": "pure",
      "type": "function"
    },
    {
      "inputs": [
        {
          "internalType": "address",
          "name": "",
          "type": "address"
        }
      ],
      "name": "upgradeInitCall",
      "outputs": [
        {
          "internalType": "bytes",
          "name": "",
          "type": "bytes"
        }
      ],
      "stateMutability": "pure",
      "type": "function"
    }
  ],
  "bytecode": "0x6080604052348015600f57600080fd5b50604051610b7b380380610b7b833981016040819052602c916050565b600080546001600160a01b0319166001600160a01b0392909216919091179055607e565b600060208284031215606157600080fd5b81516001600160a01b0381168114607757600080fd5b9392505050565b610aee8061008d6000396000f3fe608060405234801561001057600080fd5b506004361061004c5760003560e01c806301ffc9a71461005157806308456fd2146100795780635c60da1b146100a75780636718d04e146100d2575b600080fd5b61006461005f3660046102f6565b6100e5565b60405190151581526020015b60405180910390f35b61009a61008736600461033f565b5060408051600081526020810190915290565b60405161007091906103a2565b6000546100ba906001600160a01b031681565b6040516001600160a01b039091168152602001610070565b6100ba6100e0366004610494565b61011c565b60006001600160e01b031982166301ffc9a760e01b148061011657506001600160e01b0319821663338c682760e11b145b92915050565b600080846001600160a01b0316637c7db1a56040518163ffffffff1660e01b8152600401602060405180830381865afa15801561015d573d6000803e3d6000fd5b505050506040513d601f19601f820116820180604052508101906101819190610588565b6000805460408051838152602081019182905293945091926001600160a01b03909116916101ae906102e9565b6101b99291906105a5565b604051809103906000f0801580156101d5573d6000803e3d6000fd5b5090506000819050806001600160a01b0316638e819e548789866101fc8a60e0015161027c565b60405160e086901b6001600160e01b03191681526001600160a01b03948516600482015292841660248401529216604482015263ffffffff9091166064820152608401600060405180830381600087803b15801561025957600080fd5b505af115801561026d573d6000803e3d6000fd5b50929998505050505050505050565b600063ffffffff8211156102e55760405162461bcd60e51b815260206004820152602660248201527f53616665436173743a2076616c756520646f65736e27742066697420696e203360448201526532206269747360d01b606482015260840160405180910390fd5b5090565b6104e7806105d283390190565b60006020828403121561030857600080fd5b81356001600160e01b03198116811461032057600080fd5b9392505050565b6001600160a01b038116811461033c57600080fd5b50565b60006020828403121561035157600080fd5b813561032081610327565b6000815180845260005b8181101561038257602081850181015186830182015201610366565b506000602082860101526020601f19601f83011685010191505092915050565b602081526000610320602083018461035c565b634e487b7160e01b600052604160045260246000fd5b604051610120810167ffffffffffffffff811182821017156103ef576103ef6103b5565b60405290565b803561040081610327565b919050565b600082601f83011261041657600080fd5b813567ffffffffffffffff811115610430576104306103b5565b604051601f8201601f19908116603f0116810167ffffffffffffffff8111828210171561045f5761045f6103b5565b60405281815283820160200185101561047757600080fd5b816020850160208301376000918101602001919091529392505050565b6000806000606084860312156104a957600080fd5b83356104b481610327565b925060208401356104c481610327565b9150604084013567ffffffffffffffff8111156104e057600080fd5b840161012081870312156104f357600080fd5b6104fb6103cb565b610504826103f5565b8152602082013567ffffffffffffffff81111561052057600080fd5b61052c88828501610405565b60208301525060408281013590820152606080830135908201526080808301359082015260a0808301359082015260c0808301359082015260e08083013590820152610100918201359181019190915292959194509192509050565b60006020828403121561059a57600080fd5b815161032081610327565b6001600160a01b03831681526040602082018190526000906105c99083018461035c565b94935050505056fe60806040526040516104e73803806104e7833981016040819052610022916102de565b61002e82826000610035565b5050610401565b61003e83610061565b60008251118061004b5750805b1561005c5761005a83836100a1565b505b505050565b61006a816100cd565b6040516001600160a01b038216907fbc7cd75a20ee27fd9adebab32041f755214dbc6bffa90cc0225b39da2e5c2d3b90600090a250565b60606100c683836040518060600160405280602781526020016104c060279139610180565b9392505050565b6001600160a01b0381163b61013f5760405162461bcd60e51b815260206004820152602d60248201527f455243313936373a206e657720696d706c656d656e746174696f6e206973206e60448201526c1bdd08184818dbdb9d1c9858dd609a1b60648201526084015b60405180910390fd5b7f360894a13ba1a3210667c828492db98dca3e2076cc3735a920a3ca505d382bbc80546001600160a01b0319166001600160a01b0392909216919091179055565b6060600080856001600160a01b03168560405161019d91906103b2565b600060405180830381855af49150503d80600081146101d8576040519150601f19603f3d011682016040523d82523d6000602084013e6101dd565b606091505b5090925090506101ef868383876101f9565b9695505050505050565b60608315610268578251600003610261576001600160a01b0385163b6102615760405162461bcd60e51b815260206004820152601d60248201527f416464726573733a2063616c6c20746f206e6f6e2d636f6e74726163740000006044820152606401610136565b5081610272565b610272838361027a565b949350505050565b81511561028a5781518083602001fd5b8060405162461bcd60e51b815260040161013691906103ce565b634e487b7160e01b600052604160045260246000fd5b60005b838110156102d55781810151838201526020016102bd565b50506000910152565b600080604083850312156102f157600080fd5b82516001600160a01b038116811461030857600080fd5b60208401519092506001600160401b0381111561032457600080fd5b8301601f8101851361033557600080fd5b80516001600160401b0381111561034e5761034e6102a4565b604051601f8201601f19908116603f011681016001600160401b038111828210171561037c5761037c6102a4565b60405281815282820160200187101561039457600080fd5b6103a58260208301602086016102ba565b8093505050509250929050565b600082516103c48184602087016102ba565b9190910192915050565b60208152600082518060208401526103ed8160408501602087016102ba565b601f01601f19169190910160400192915050565b60b18061040f6000396000f3fe608060405236601057600e6013565b005b600e5b601f601b6021565b6058565b565b600060537f360894a13ba1a3210667c828492db98dca3e2076cc3735a920a3ca505d382bbc546001600160a01b031690565b905090565b3660008037600080366000845af43d6000803e8080156076573d6000f35b3d6000fdfea264697066735822122022d28d461077fbeb9bec7bd8c38b4ff817310194918476061a49ce5d4b1127f064736f6c634300081b0033416464726573733a206c6f772d6c6576656c2064656c65676174652063616c6c206661696c6564a264697066735822122012c0fe9c7bd132ecf00d0958e7ac9a808837f6802249c46d594bfc43a8afddce64736f6c634300081b0033",
  "linkReferences": {},
  "deployedLinkReferences": {}
}