{
  "_format": "hh-sol-artifact-1",
  "contractName": "FtsoMock",
  "sourceName": "contracts/assetManager/mock/FtsoMock.sol",
  "abi": [
    {
      "inputs": [
        {
          "internalType": "string",
          "name": "_symbol",
          "type": "string"
        },
        {
          "internalType": "uint256",
          "name": "_decimals",
          "type": "uint256"
        }
      ],
      "stateMutability": "nonpayable",
      "type": "constructor"
    },
    {
      "anonymous": false,
      "inputs": [
        {
          "indexed": true,
          "internalType": "uint256",
          "name": "epochId",
          "type": "uint256"
        },
        {
          "indexed": false,
          "internalType": "uint256",
          "name": "natTurnout",
          "type": "uint256"
        },
        {
          "indexed": false,
          "internalType": "uint256",
          "name": "lowNatTurnoutThresholdBIPS",
          "type": "uint256"
        },
        {
          "indexed": false,
          "internalType": "uint256",
          "name": "timestamp",
          "type": "uint256"
        }
      ],
      "name": "LowTurnout",
      "type": "event"
    },
    {
      "anonymous": false,
      "inputs": [
        {
          "indexed": true,
          "internalType": "uint256",
          "name": "epochId",
          "type": "uint256"
        },
        {
          "indexed": false,
          "internalType": "uint256",
          "name": "endTime",
          "type": "uint256"
        },
        {
          "indexed": false,
          "internalType": "uint256",
          "name": "timestamp",
          "type": "uint256"
        }
      ],
      "name": "PriceEpochInitializedOnFtso",
      "type": "event"
    },
    {
      "anonymous": false,
      "inputs": [
        {
          "indexed": true,
          "internalType": "uint256",
          "name": "epochId",
          "type": "uint256"
        },
        {
          "indexed": false,
          "internalType": "uint256",
          "name": "price",
          "type": "uint256"
        },
        {
          "indexed": false,
          "internalType": "bool",
          "name": "rewardedFtso",
          "type": "bool"
        },
        {
          "indexed": false,
          "internalType": "uint256",
          "name": "lowIQRRewardPrice",
          "type": "uint256"
        },
        {
          "indexed": false,
          "internalType": "uint256",
          "name": "highIQRRewardPrice",
          "type": "uint256"
        },
        {
          "indexed": false,
          "internalType": "uint256",
          "name": "lowElasticBandRewardPrice",
          "type": "uint256"
        },
        {
          "indexed": false,
          "internalType": "uint256",
          "name": "highElasticBandRewardPrice",
          "type": "uint256"
        },
        {
          "indexed": false,
          "internalType": "enum IFtso.PriceFinalizationType",
          "name": "finalizationType",
          "type": "uint8"
        },
        {
          "indexed": false,
          "internalType": "uint256",
          "name": "timestamp",
          "type": "uint256"
        }
      ],
      "name": "PriceFinalized",
      "type": "event"
    },
    {
      "anonymous": false,
      "inputs": [
        {
          "indexed": true,
          "internalType": "address",
          "name": "voter",
          "type": "address"
        },
        {
          "indexed": true,
          "internalType": "uint256",
          "name": "epochId",
          "type": "uint256"
        },
        {
          "indexed": false,
          "internalType": "uint256",
          "name": "price",
          "type": "uint256"
        },
        {
          "indexed": false,
          "internalType": "uint256",
          "name": "timestamp",
          "type": "uint256"
        },
        {
          "indexed": false,
          "internalType": "uint256",
          "name": "votePowerNat",
          "type": "uint256"
        },
        {
          "indexed": false,
          "internalType": "uint256",
          "name": "votePowerAsset",
          "type": "uint256"
        }
      ],
      "name": "PriceRevealed",
      "type": "event"
    },
    {
      "inputs": [
        {
          "internalType": "uint256",
          "name": "_firstEpochStartTs",
          "type": "uint256"
        },
        {
          "internalType": "uint256",
          "name": "_submitPeriodSeconds",
          "type": "uint256"
        },
        {
          "internalType": "uint256",
          "name": "_revealPeriodSeconds",
          "type": "uint256"
        }
      ],
      "name": "activateFtso",
      "outputs": [],
      "stateMutability": "nonpayable",
      "type": "function"
    },
    {
      "inputs": [],
      "name": "active",
      "outputs": [
        {
          "internalType": "bool",
          "name": "",
          "type": "bool"
        }
      ],
      "stateMutability": "view",
      "type": "function"
    },
    {
      "inputs": [
        {
          "internalType": "uint256",
          "name": "_maxVotePowerNatThresholdFraction",
          "type": "uint256"
        },
        {
          "internalType": "uint256",
          "name": "_maxVotePowerAssetThresholdFraction",
          "type": "uint256"
        },
        {
          "internalType": "uint256",
          "name": "_lowAssetUSDThreshold",
          "type": "uint256"
        },
        {
          "internalType": "uint256",
          "name": "_highAssetUSDThreshold",
          "type": "uint256"
        },
        {
          "internalType": "uint256",
          "name": "_highAssetTurnoutThresholdBIPS",
          "type": "uint256"
        },
        {
          "internalType": "uint256",
          "name": "_lowNatTurnoutThresholdBIPS",
          "type": "uint256"
        },
        {
          "internalType": "uint256",
          "name": "_elasticBandRewardBIPS",
          "type": "uint256"
        },
        {
          "internalType": "uint256",
          "name": "_elasticBandWidthPPM",
          "type": "uint256"
        },
        {
          "internalType": "address[]",
          "name": "_trustedAddresses",
          "type": "address[]"
        }
      ],
      "name": "configureEpochs",
      "outputs": [],
      "stateMutability": "nonpayable",
      "type": "function"
    },
    {
      "inputs": [],
      "name": "deactivateFtso",
      "outputs": [],
      "stateMutability": "nonpayable",
      "type": "function"
    },
    {
      "inputs": [],
      "name": "decimals",
      "outputs": [
        {
          "internalType": "uint256",
          "name": "",
          "type": "uint256"
        }
      ],
      "stateMutability": "view",
      "type": "function"
    },
    {
      "inputs": [],
      "name": "epochsConfiguration",
      "outputs": [
        {
          "internalType": "uint256",
          "name": "_maxVotePowerNatThresholdFraction",
          "type": "uint256"
        },
        {
          "internalType": "uint256",
          "name": "_maxVotePowerAssetThresholdFraction",
          "type": "uint256"
        },
        {
          "internalType": "uint256",
          "name": "_lowAssetUSDThreshold",
          "type": "uint256"
        },
        {
          "internalType": "uint256",
          "name": "_highAssetUSDThreshold",
          "type": "uint256"
        },
        {
          "internalType": "uint256",
          "name": "_highAssetTurnoutThresholdBIPS",
          "type": "uint256"
        },
        {
          "internalType": "uint256",
          "name": "_lowNatTurnoutThresholdBIPS",
          "type": "uint256"
        },
        {
          "internalType": "uint256",
          "name": "_elasticBandRewardBIPS",
          "type": "uint256"
        },
        {
          "internalType": "uint256",
          "name": "_elasticBandWidthPPM",
          "type": "uint256"
        },
        {
          "internalType": "address[]",
          "name": "_trustedAddresses",
          "type": "address[]"
        }
      ],
      "stateMutability": "view",
      "type": "function"
    },
    {
      "inputs": [
        {
          "internalType": "uint256",
          "name": "_epochId",
          "type": "uint256"
        }
      ],
      "name": "fallbackFinalizePriceEpoch",
      "outputs": [],
      "stateMutability": "nonpayable",
      "type": "function"
    },
    {
      "inputs": [
        {
          "internalType": "uint256",
          "name": "_epochId",
          "type": "uint256"
        },
        {
          "internalType": "bool",
          "name": "_returnRewardData",
          "type": "bool"
        }
      ],
      "name": "finalizePriceEpoch",
      "outputs": [
        {
          "internalType": "address[]",
          "name": "_eligibleAddresses",
          "type": "address[]"
        },
        {
          "internalType": "uint256[]",
          "name": "_natWeights",
          "type": "uint256[]"
        },
        {
          "internalType": "uint256",
          "name": "_totalNatWeight",
          "type": "uint256"
        }
      ],
      "stateMutability": "nonpayable",
      "type": "function"
    },
    {
      "inputs": [
        {
          "internalType": "uint256",
          "name": "_epochId",
          "type": "uint256"
        }
      ],
      "name": "forceFinalizePriceEpoch",
      "outputs": [],
      "stateMutability": "nonpayable",
      "type": "function"
    },
    {
      "inputs": [],
      "name": "ftsoManager",
      "outputs": [
        {
          "internalType": "address",
          "name": "",
          "type": "address"
        }
      ],
      "stateMutability": "view",
      "type": "function"
    },
    {
      "inputs": [],
      "name": "getAsset",
      "outputs": [
        {
          "internalType": "contract IIVPToken",
          "name": "",
          "type": "address"
        }
      ],
      "stateMutability": "view",
      "type": "function"
    },
    {
      "inputs": [],
      "name": "getAssetFtsos",
      "outputs": [
        {
          "internalType": "contract IIFtso[]",
          "name": "",
          "type": "address[]"
        }
      ],
      "stateMutability": "view",
      "type": "function"
    },
    {
      "inputs": [],
      "name": "getCurrentEpochId",
      "outputs": [
        {
          "internalType": "uint256",
          "name": "",
          "type": "uint256"
        }
      ],
      "stateMutability": "view",
      "type": "function"
    },
    {
      "inputs": [],
      "name": "getCurrentPrice",
      "outputs": [
        {
          "internalType": "uint256",
          "name": "_price",
          "type": "uint256"
        },
        {
          "internalType": "uint256",
          "name": "_timestamp",
          "type": "uint256"
        }
      ],
      "stateMutability": "view",
      "type": "function"
    },
    {
      "inputs": [],
      "name": "getCurrentPriceDetails",
      "outputs": [
        {
          "internalType": "uint256",
          "name": "_price",
          "type": "uint256"
        },
        {
          "internalType": "uint256",
          "name": "_priceTimestamp",
          "type": "uint256"
        },
        {
          "internalType": "enum IFtso.PriceFinalizationType",
          "name": "_priceFinalizationType",
          "type": "uint8"
        },
        {
          "internalType": "uint256",
          "name": "_lastPriceEpochFinalizationTimestamp",
          "type": "uint256"
        },
        {
          "internalType": "enum IFtso.PriceFinalizationType",
          "name": "_lastPriceEpochFinalizationType",
          "type": "uint8"
        }
      ],
      "stateMutability": "view",
      "type": "function"
    },
    {
      "inputs": [],
      "name": "getCurrentPriceFromTrustedProviders",
      "outputs": [
        {
          "internalType": "uint256",
          "name": "_price",
          "type": "uint256"
        },
        {
          "internalType": "uint256",
          "name": "_timestamp",
          "type": "uint256"
        }
      ],
      "stateMutability": "view",
      "type": "function"
    },
    {
      "inputs": [],
      "name": "getCurrentPriceWithDecimals",
      "outputs": [
        {
          "internalType": "uint256",
          "name": "_price",
          "type": "uint256"
        },
        {
          "internalType": "uint256",
          "name": "_timestamp",
          "type": "uint256"
        },
        {
          "internalType": "uint256",
          "name": "_assetPriceUsdDecimals",
          "type": "uint256"
        }
      ],
      "stateMutability": "view",
      "type": "function"
    },
    {
      "inputs": [],
      "name": "getCurrentPriceWithDecimalsFromTrustedProviders",
      "outputs": [
        {
          "internalType": "uint256",
          "name": "_price",
          "type": "uint256"
        },
        {
          "internalType": "uint256",
          "name": "_timestamp",
          "type": "uint256"
        },
        {
          "internalType": "uint256",
          "name": "_assetPriceUsdDecimals",
          "type": "uint256"
        }
      ],
      "stateMutability": "view",
      "type": "function"
    },
    {
      "inputs": [],
      "name": "getCurrentRandom",
      "outputs": [
        {
          "internalType": "uint256",
          "name": "",
          "type": "uint256"
        }
      ],
      "stateMutability": "view",
      "type": "function"
    },
    {
      "inputs": [
        {
          "internalType": "uint256",
          "name": "_timestamp",
          "type": "uint256"
        }
      ],
      "name": "getEpochId",
      "outputs": [
        {
          "internalType": "uint256",
          "name": "",
          "type": "uint256"
        }
      ],
      "stateMutability": "view",
      "type": "function"
    },
    {
      "inputs": [
        {
          "internalType": "uint256",
          "name": "_epochId",
          "type": "uint256"
        }
      ],
      "name": "getEpochPrice",
      "outputs": [
        {
          "internalType": "uint256",
          "name": "",
          "type": "uint256"
        }
      ],
      "stateMutability": "view",
      "type": "function"
    },
    {
      "inputs": [
        {
          "internalType": "uint256",
          "name": "_epochId",
          "type": "uint256"
        },
        {
          "internalType": "address",
          "name": "_voter",
          "type": "address"
        }
      ],
      "name": "getEpochPriceForVoter",
      "outputs": [
        {
          "internalType": "uint256",
          "name": "",
          "type": "uint256"
        }
      ],
      "stateMutability": "view",
      "type": "function"
    },
    {
      "inputs": [],
      "name": "getPriceEpochConfiguration",
      "outputs": [
        {
          "internalType": "uint256",
          "name": "_firstEpochStartTs",
          "type": "uint256"
        },
        {
          "internalType": "uint256",
          "name": "_submitPeriodSeconds",
          "type": "uint256"
        },
        {
          "internalType": "uint256",
          "name": "_revealPeriodSeconds",
          "type": "uint256"
        }
      ],
      "stateMutability": "view",
      "type": "function"
    },
    {
      "inputs": [],
      "name": "getPriceEpochData",
      "outputs": [
        {
          "internalType": "uint256",
          "name": "_epochId",
          "type": "uint256"
        },
        {
          "internalType": "uint256",
          "name": "_epochSubmitEndTime",
          "type": "uint256"
        },
        {
          "internalType": "uint256",
          "name": "_epochRevealEndTime",
          "type": "uint256"
        },
        {
          "internalType": "uint256",
          "name": "_votePowerBlock",
          "type": "uint256"
        },
        {
          "internalType": "bool",
          "name": "_fallbackMode",
          "type": "bool"
        }
      ],
      "stateMutability": "view",
      "type": "function"
    },
    {
      "inputs": [
        {
          "internalType": "uint256",
          "name": "_epochId",
          "type": "uint256"
        }
      ],
      "name": "getRandom",
      "outputs": [
        {
          "internalType": "uint256",
          "name": "",
          "type": "uint256"
        }
      ],
      "stateMutability": "view",
      "type": "function"
    },
    {
      "inputs": [],
      "name": "getVoteWeightingParameters",
      "outputs": [
        {
          "internalType": "contract IIVPToken[]",
          "name": "_assets",
          "type": "address[]"
        },
        {
          "internalType": "uint256[]",
          "name": "_assetMultipliers",
          "type": "uint256[]"
        },
        {
          "internalType": "uint256",
          "name": "_totalVotePowerNat",
          "type": "uint256"
        },
        {
          "internalType": "uint256",
          "name": "_totalVotePowerAsset",
          "type": "uint256"
        },
        {
          "internalType": "uint256",
          "name": "_assetWeightRatio",
          "type": "uint256"
        },
        {
          "internalType": "uint256",
          "name": "_votePowerBlock",
          "type": "uint256"
        }
      ],
      "stateMutability": "view",
      "type": "function"
    },
    {
      "inputs": [
        {
          "internalType": "uint256",
          "name": "_circulatingSupplyNat",
          "type": "uint256"
        },
        {
          "internalType": "bool",
          "name": "_fallbackMode",
          "type": "bool"
        }
      ],
      "name": "initializeCurrentEpochStateForReveal",
      "outputs": [],
      "stateMutability": "nonpayable",
      "type": "function"
    },
    {
      "inputs": [
        {
          "internalType": "address",
          "name": "_voter",
          "type": "address"
        },
        {
          "internalType": "uint256",
          "name": "_epochId",
          "type": "uint256"
        },
        {
          "internalType": "uint256",
          "name": "_price",
          "type": "uint256"
        },
        {
          "internalType": "uint256",
          "name": "_wNatVP",
          "type": "uint256"
        }
      ],
      "name": "revealPriceSubmitter",
      "outputs": [],
      "stateMutability": "nonpayable",
      "type": "function"
    },
    {
      "inputs": [
        {
          "internalType": "contract IIVPToken",
          "name": "_asset",
          "type": "address"
        }
      ],
      "name": "setAsset",
      "outputs": [],
      "stateMutability": "nonpayable",
      "type": "function"
    },
    {
      "inputs": [
        {
          "internalType": "contract IIFtso[]",
          "name": "_assetFtsos",
          "type": "address[]"
        }
      ],
      "name": "setAssetFtsos",
      "outputs": [],
      "stateMutability": "nonpayable",
      "type": "function"
    },
    {
      "inputs": [
        {
          "internalType": "uint256",
          "name": "_price",
          "type": "uint256"
        },
        {
          "internalType": "uint256",
          "name": "_ageSeconds",
          "type": "uint256"
        }
      ],
      "name": "setCurrentPrice",
      "outputs": [],
      "stateMutability": "nonpayable",
      "type": "function"
    },
    {
      "inputs": [
        {
          "internalType": "uint256",
          "name": "_price",
          "type": "uint256"
        },
        {
          "internalType": "uint256",
          "name": "_ageSeconds",
          "type": "uint256"
        }
      ],
      "name": "setCurrentPriceFromTrustedProviders",
      "outputs": [],
      "stateMutability": "nonpayable",
      "type": "function"
    },
    {
      "inputs": [
        {
          "internalType": "uint256",
          "name": "_blockNumber",
          "type": "uint256"
        }
      ],
      "name": "setVotePowerBlock",
      "outputs": [],
      "stateMutability": "nonpayable",
      "type": "function"
    },
    {
      "inputs": [],
      "name": "symbol",
      "outputs": [
        {
          "internalType": "string",
          "name": "",
          "type": "string"
        }
      ],
      "stateMutability": "view",
      "type": "function"
    },
    {
      "inputs": [
        {
          "internalType": "uint256",
          "name": "_initialPriceUSD",
          "type": "uint256"
        },
        {
          "internalType": "uint256",
          "name": "_initialPriceTimestamp",
          "type": "uint256"
        }
      ],
      "name": "updateInitialPrice",
      "outputs": [],
      "stateMutability": "nonpayable",
      "type": "function"
    },
    {
      "inputs": [],
      "name": "wNat",
      "outputs": [
        {
          "internalType": "contract IIVPToken",
          "name": "",
          "type": "address"
        }
      ],
      "stateMutability": "view",
      "type": "function"
    },
    {
      "inputs": [
        {
          "internalType": "address",
          "name": "_voter",
          "type": "address"
        },
        {
          "internalType": "uint256",
          "name": "_epochId",
          "type": "uint256"
        }
      ],
      "name": "wNatVotePowerCached",
      "outputs": [
        {
          "internalType": "uint256",
          "name": "",
          "type": "uint256"
        }
      ],
      "stateMutability": "nonpayable",
      "type": "function"
    }
  ],
  "bytecode": "0x60c060405260016080523480156200001657600080fd5b5060405162000ef938038062000ef9833981016040819052620000399162000068565b6000620000478382620001d4565b5060a05250620002a0565b634e487b7160e01b600052604160045260246000fd5b600080604083850312156200007c57600080fd5b82516001600160401b03808211156200009457600080fd5b818501915085601f830112620000a957600080fd5b815181811115620000be57620000be62000052565b604051601f8201601f19908116603f01168101908382118183101715620000e957620000e962000052565b816040528281526020935088848487010111156200010657600080fd5b600091505b828210156200012a57848201840151818301850152908301906200010b565b6000928101840192909252509401519395939450505050565b600181811c908216806200015857607f821691505b6020821081036200017957634e487b7160e01b600052602260045260246000fd5b50919050565b601f821115620001cf576000816000526020600020601f850160051c81016020861015620001aa5750805b601f850160051c820191505b81811015620001cb57828155600101620001b6565b5050505b505050565b81516001600160401b03811115620001f057620001f062000052565b620002088162000201845462000143565b846200017f565b602080601f831160018114620002405760008415620002275750858301515b600019600386901b1c1916600185901b178555620001cb565b600085815260208120601f198616915b82811015620002715788860151825594840194600190910190840162000250565b5085821015620002905787850151600019600388901b60f8161c191681555b5050505050600190811b01905550565b60805160a051610c25620002d4600039600081816102fa0152818161033201526103c2015260006102310152610c256000f3fe608060405234801561001057600080fd5b50600436106102275760003560e01c80637d1d6f1211610130578063c5d8b9e7116100b8578063e3b3a3b31161007c578063e3b3a3b3146104b6578063e536f3961461037f578063eb91d37e146104e3578063f670ebe3146104ee578063f72cab28146104fc57600080fd5b8063c5d8b9e714610472578063cd4b69141461038d578063d0d552dd14610488578063d89601fd1461043b578063e3749e0c1461049657600080fd5b8063974d7a6b116100ff578063974d7a6b1461037f5780639edbf0071461027f578063a29a839f1461043b578063af52df0814610442578063c1f6c36e1461045e57600080fd5b80637d1d6f121461038d5780638357d08c146103f95780638c246f0b1461041357806395d89b411461042657600080fd5b80633cacb3ae116101b3578063555989da11610182578063555989da1461029f5780635a3c9d8e146103a15780635c222bad1461027f57806365f5cd86146103ba578063789068b7146103e657600080fd5b80633cacb3ae1461032a57806340462a2d146103565780634afd51021461037f5780635303548b1461038d57600080fd5b8063144e1591116101fa578063144e1591146102a157806318931c35146102c15780632f0a6f3c146102d0578063306ba253146102e3578063313ce567146102f557600080fd5b806302fb0c5e1461022c578063040d73b81461026857806311a7aaaa1461027f578063131fdee21461028e575b600080fd5b6102537f000000000000000000000000000000000000000000000000000000000000000081565b60405190151581526020015b60405180910390f35b60008080808060405161025f9594939291906105e6565b6040516000815260200161025f565b61029f61029c36600461069e565b50565b005b600080805b6040805193845260208401929092529082015260600161025f565b606060405161025f919061073d565b61029f6102de36600461078a565b505050565b61029f6102f13660046107b6565b5050565b61031c7f000000000000000000000000000000000000000000000000000000000000000081565b60405190815260200161025f565b6003546004547f00000000000000000000000000000000000000000000000000000000000000006102a6565b6103706103643660046107d8565b60608060009250925092565b60405161025f93929190610883565b61029f61029c3660046108b9565b61031c61039b3660046108b9565b50600090565b61029f6103af3660046108d2565b505050505050505050565b6001546002547f00000000000000000000000000000000000000000000000000000000000000006102a6565b61029f6103f43660046107b6565b61050a565b606080600080808060405161025f969594939291906109bc565b61029f6104213660046107b6565b610520565b61042e610536565b60405161025f9190610a3a565b600061031c565b6003546004545b6040805192835260208301919091520161025f565b61029f61046c366004610a89565b50505050565b61031c610480366004610ac4565b600092915050565b61029f61029c366004610ae9565b600080808080808080606060405161025f99989796959493929190610b0d565b6040805160008082526020820181905291810182905260608101829052608081019190915260a00161025f565b600154600254610449565b61029f6102f13660046107d8565b61031c610480366004610b62565b60018290556105198142610b8e565b6002555050565b600382905561052f8142610b8e565b6004555050565b6000805461054390610bb5565b80601f016020809104026020016040519081016040528092919081815260200182805461056f90610bb5565b80156105bc5780601f10610591576101008083540402835291602001916105bc565b820191906000526020600020905b81548152906001019060200180831161059f57829003601f168201915b505050505081565b600681106105e257634e487b7160e01b600052602160045260246000fd5b9052565b8581526020810185905260a0810161060160408301866105c4565b83606083015261061460808301846105c4565b9695505050505050565b634e487b7160e01b600052604160045260246000fd5b604051601f8201601f1916810167ffffffffffffffff8111828210171561065d5761065d61061e565b604052919050565b600067ffffffffffffffff82111561067f5761067f61061e565b5060051b60200190565b6001600160a01b038116811461029c57600080fd5b600060208083850312156106b157600080fd5b823567ffffffffffffffff8111156106c857600080fd5b8301601f810185136106d957600080fd5b80356106ec6106e782610665565b610634565b81815260059190911b8201830190838101908783111561070b57600080fd5b928401925b8284101561073257833561072381610689565b82529284019290840190610710565b979650505050505050565b6020808252825182820181905260009190848201906040850190845b8181101561077e5783516001600160a01b031683529284019291840191600101610759565b50909695505050505050565b60008060006060848603121561079f57600080fd5b505081359360208301359350604090920135919050565b600080604083850312156107c957600080fd5b50508035926020909101359150565b600080604083850312156107eb57600080fd5b823591506020830135801515811461080257600080fd5b809150509250929050565b60008151808452602080850194506020840160005b838110156108475781516001600160a01b031687529582019590820190600101610822565b509495945050505050565b60008151808452602080850194506020840160005b8381101561084757815187529582019590820190600101610867565b606081526000610896606083018661080d565b82810360208401526108a88186610852565b915050826040830152949350505050565b6000602082840312156108cb57600080fd5b5035919050565b60008060008060008060008060006101208a8c0312156108f157600080fd5b893598506020808b0135985060408b0135975060608b0135965060808b0135955060a08b0135945060c08b0135935060e08b013592506101008b013567ffffffffffffffff81111561094257600080fd5b8b01601f81018d1361095357600080fd5b80356109616106e782610665565b81815260059190911b8201830190838101908f83111561098057600080fd5b928401925b828410156109a757833561099881610689565b82529284019290840190610985565b80955050505050509295985092959850929598565b60c0808252875190820181905260009060209060e0840190828b01845b828110156109fe5781516001600160a01b0316845292840192908401906001016109d9565b5050508381036020850152610a13818a610852565b925050508560408301528460608301528360808301528260a0830152979650505050505050565b60006020808352835180602085015260005b81811015610a6857858101830151858201604001528201610a4c565b506000604082860101526040601f19601f8301168501019250505092915050565b60008060008060808587031215610a9f57600080fd5b8435610aaa81610689565b966020860135965060408601359560600135945092505050565b60008060408385031215610ad757600080fd5b82359150602083013561080281610689565b600060208284031215610afb57600080fd5b8135610b0681610689565b9392505050565b60006101208b83528a60208401528960408401528860608401528760808401528660a08401528560c08401528460e084015280610100840152610b528184018561080d565b9c9b505050505050505050505050565b60008060408385031215610b7557600080fd5b8235610b8081610689565b946020939093013593505050565b81810381811115610baf57634e487b7160e01b600052601160045260246000fd5b92915050565b600181811c90821680610bc957607f821691505b602082108103610be957634e487b7160e01b600052602260045260246000fd5b5091905056fea264697066735822122016237abcb9e05739fe82c3f553f9af784edbac81e1d8bd98cf7399e46a83d34864736f6c63430008170033",
  "linkReferences": {},
  "deployedLinkReferences": {}
}