{
  "_format": "hh-sol-artifact-1",
  "contractName": "CollateralReservationsFacet",
  "sourceName": "contracts/assetManager/facets/CollateralReservationsFacet.sol",
  "abi": [
    {
      "anonymous": false,
      "inputs": [
        {
          "indexed": true,
          "internalType": "address",
          "name": "agentVault",
          "type": "address"
        },
        {
          "indexed": true,
          "internalType": "address",
          "name": "minter",
          "type": "address"
        },
        {
          "indexed": true,
          "internalType": "uint256",
          "name": "collateralReservationId",
          "type": "uint256"
        },
        {
          "indexed": false,
          "internalType": "uint256",
          "name": "valueUBA",
          "type": "uint256"
        },
        {
          "indexed": false,
          "internalType": "uint256",
          "name": "feeUBA",
          "type": "uint256"
        },
        {
          "indexed": false,
          "internalType": "uint256",
          "name": "firstUnderlyingBlock",
          "type": "uint256"
        },
        {
          "indexed": false,
          "internalType": "uint256",
          "name": "lastUnderlyingBlock",
          "type": "uint256"
        },
        {
          "indexed": false,
          "internalType": "uint256",
          "name": "lastUnderlyingTimestamp",
          "type": "uint256"
        },
        {
          "indexed": false,
          "internalType": "string",
          "name": "paymentAddress",
          "type": "string"
        },
        {
          "indexed": false,
          "internalType": "bytes32",
          "name": "paymentReference",
          "type": "bytes32"
        },
        {
          "indexed": false,
          "internalType": "address",
          "name": "executor",
          "type": "address"
        },
        {
          "indexed": false,
          "internalType": "uint256",
          "name": "executorFeeNatWei",
          "type": "uint256"
        }
      ],
      "name": "CollateralReserved",
      "type": "event"
    },
    {
      "inputs": [
        {
          "internalType": "uint256",
          "name": "_lots",
          "type": "uint256"
        }
      ],
      "name": "collateralReservationFee",
      "outputs": [
        {
          "internalType": "uint256",
          "name": "_reservationFeeNATWei",
          "type": "uint256"
        }
      ],
      "stateMutability": "view",
      "type": "function"
    },
    {
      "inputs": [
        {
          "internalType": "address",
          "name": "_agentVault",
          "type": "address"
        },
        {
          "internalType": "uint256",
          "name": "_lots",
          "type": "uint256"
        },
        {
          "internalType": "uint256",
          "name": "_maxMintingFeeBIPS",
          "type": "uint256"
        },
        {
          "internalType": "address payable",
          "name": "_executor",
          "type": "address"
        }
      ],
      "name": "reserveCollateral",
      "outputs": [
        {
          "internalType": "uint256",
          "name": "_collateralReservationId",
          "type": "uint256"
        }
      ],
      "stateMutability": "payable",
      "type": "function"
    }
  ],
  "bytecode": "0x6080604052348015600f57600080fd5b506127b68061001f6000396000f3fe6080604052600436106100295760003560e01c8063275a7bfc1461002e578063368a359314610053575b600080fd5b61004161003c366004612261565b610073565b60405190815260200160405180910390f35b34801561005f57600080fd5b5061004161006e3660046122ab565b61087e565b600061007d6108d6565b61008561093f565b61008d610a2e565b610095610ab9565b60006100a086610b32565b90506100ab81610bc7565b60006100b682610bde565b7fec7e8c1c441439dd40959777f4c577ea0cd42fcc1dbe59d2bd0f5d9c55df8dc654909150600080516020612741833981519152906001600160401b0316156101375760405162461bcd60e51b815260206004820152600e60248201526d1b5a5b9d1a5b99c81c185d5cd95960921b60448201526064015b60405180910390fd5b600483015465010000000000900463ffffffff161515806101605750610160600d840133610c88565b6101ac5760405162461bcd60e51b815260206004820152601760248201527f6167656e74206e6f7420696e206d696e74207175657565000000000000000000604482015260640161012e565b600087116101f15760405162461bcd60e51b815260206004820152601260248201527163616e6e6f74206d696e742030206c6f747360701b604482015260640161012e565b600160048085015460ff169081111561020c5761020c6122c4565b146102595760405162461bcd60e51b815260206004820152601860248201527f72633a20696e76616c6964206167656e74207374617475730000000000000000604482015260640161012e565b866102648385610caf565b10156102b25760405162461bcd60e51b815260206004820152601a60248201527f6e6f7420656e6f756768206672656520636f6c6c61746572616c000000000000604482015260640161012e565b6004830154600160481b900461ffff168610156103085760405162461bcd60e51b81526020600482015260146024820152730c2cecadce84ee640cccaca40e8dede40d0d2ced60631b604482015260640161012e565b600061031388610cbd565b9050610332846103238684610d10565b61032d90846122f0565b610d3e565b600484015460009065010000000000900463ffffffff168103610356576000610368565b61036884602001516040015183610de9565b9050803410156103ba5760405162461bcd60e51b815260206004820152601860248201527f696e617070726f7072696174652066656520616d6f756e740000000000000000604482015260640161012e565b6103c2610e29565b600e840180546000906103df9084906001600160401b03166122f0565b82546001600160401b0391821661010093840a9081029083021990911617909255600e860154604080516101a081018252600060208201819052918101829052606081018290526080810182905260a0810182905260c0810182905260e0810182905292830181905261012083018190526101408301819052610160830181905261018083015285831682526004890154921692509061049c9061049790600160481b900461ffff1661049187610e47565b90610e88565b610e97565b6001600160801b031660808201526104b383610e97565b6001600160801b031660a082015260048701546104dc90600160581b900461ffff16600161230f565b61ffff1660e08201526001600160a01b03808d1660c083015233610100830152891615610544576001600160a01b038916610120820152610534633b9aca006105258534612329565b61052f9190612352565b610f04565b6001600160401b03166101408201525b60008061054f610f6c565b9150915086600f0160029054906101000a90046001600160401b031683602001906001600160401b031690816001600160401b0316815250508183604001906001600160401b031690816001600160401b0316815250508083606001906001600160401b031690816001600160401b0316815250508287600601600086815260200190815260200160002060008201518160000160006101000a8154816001600160401b0302191690836001600160401b0316021790555060208201518160000160086101000a8154816001600160401b0302191690836001600160401b0316021790555060408201518160000160106101000a8154816001600160401b0302191690836001600160401b0316021790555060608201518160000160186101000a8154816001600160401b0302191690836001600160401b0316021790555060808201518160010160006101000a8154816001600160801b0302191690836001600160801b0316021790555060a08201518160010160106101000a8154816001600160801b0302191690836001600160801b0316021790555060c08201518160020160006101000a8154816001600160a01b0302191690836001600160a01b0316021790555060e08201518160020160146101000a81548161ffff021916908361ffff1602179055506101008201518160030160006101000a8154816001600160a01b0302191690836001600160a01b031602179055506101208201518160040160006101000a8154816001600160a01b0302191690836001600160a01b031602179055506101408201518160040160146101000a8154816001600160401b0302191690836001600160401b031602179055506101608201518160050160006101000a8154816001600160401b0302191690836001600160401b03160217905550610180820151816006015590505061080989848661107e565b6101208301516001600160a01b031615801561082457508434115b15610842576101008301516108429061083d8734612329565b611146565b509197505050505050505061087660017f0cd2207518cd3e5213e2c6dbe63d55b60aa893c194a427b7d7f1600408fd5bde55565b949350505050565b7fec7e8c1c441439dd40959777f4c577ea0cd42fcc1dbe59d2bd0f5d9c55df8dc5546000906000805160206127418339815191529082906108c29061ffff166111f5565b9050610876816108d186610cbd565b610de9565b7fec7e8c1c441439dd40959777f4c577ea0cd42fcc1dbe59d2bd0f5d9c55df8dc754600160881b900460ff1661093d5760405162461bcd60e51b815260206004820152600c60248201526b1b9bdd08185d1d1858da195960a21b604482015260640161012e565b565b7f4f24f5c433db0962dac0d2c8b84197a6e6c7cc4e5d9ebe1916a1b6193da2f34054600080516020612701833981519152906001600160a01b031615610a2b576006810154604051633af32abf60e01b81523360048201526001600160a01b0390911690633af32abf90602401602060405180830381865afa1580156109c9573d6000803e3d6000fd5b505050506040513d601f19601f820116820180604052508101906109ed9190612366565b610a2b5760405162461bcd60e51b815260206004820152600f60248201526e1b9bdd081dda1a5d195b1a5cdd1959608a1b604482015260640161012e565b50565b7fec7e8c1c441439dd40959777f4c577ea0cd42fcc1dbe59d2bd0f5d9c55df8dc6546000805160206127418339815191529042600160401b9091046001600160401b03161115610a2b5760405162461bcd60e51b8152602060048201526016602482015275656d657267656e63792070617573652061637469766560501b604482015260640161012e565b7f0cd2207518cd3e5213e2c6dbe63d55b60aa893c194a427b7d7f1600408fd5bde805460011901610b2c5760405162461bcd60e51b815260206004820152601f60248201527f5265656e7472616e637947756172643a207265656e7472616e742063616c6c00604482015260640161012e565b60029055565b60008051602061272183398151915268010000000000000000600160e01b03604083901b161880600060048084015460ff1690811115610b7457610b746122c4565b03610bc15760405162461bcd60e51b815260206004820152601b60248201527f696e76616c6964206167656e74207661756c7420616464726573730000000000604482015260640161012e565b50919050565b6001810154610a2b906001600160a01b0316611240565b610c496040805160c081019091526000606082018181526080830182905260a083019190915281908152604080516060810182526000808252602082810182905292820152910190815260408051606081018252600080825260208281018290529282015291015290565b6000610c548361131b565b90506040518060600160405280610c6a856113d8565b8152602001828152602001610c7f8584611489565b90529392505050565b6001600160a01b038116600090815260018301602052604081205415155b90505b92915050565b6000610ca683836001611663565b7f4f24f5c433db0962dac0d2c8b84197a6e6c7cc4e5d9ebe1916a1b6193da2f3475460009060008051602061270183398151915290610d099061052f906001600160401b031685612388565b9392505050565b600080610d1c83610e47565b90506000610d2a85836116bb565b9050610d35816116f9565b95945050505050565b600080516020612741833981519152610d568261173a565b600583018054839190600090610d769084906001600160401b03166122f0565b92506101000a8154816001600160401b0302191690836001600160401b031602179055508181600e0160188282829054906101000a90046001600160401b0316610dc091906122f0565b92506101000a8154816001600160401b0302191690836001600160401b03160217905550505050565b600080610dff836001600160401b0316856118a5565b9050610876600080516020612701833981519152600c01548290600160401b900461ffff16610e88565b6000610e376103e84361239f565b610e429060016123b3565b905090565b6000805160206127618339815191525460009060008051602061270183398151915290610d0990600160901b90046001600160401b03908116908516612388565b6000610ca683836127106118bb565b60006001600160801b03821115610f005760405162461bcd60e51b815260206004820152602760248201527f53616665436173743a2076616c756520646f65736e27742066697420696e20316044820152663238206269747360c81b606482015260840161012e565b5090565b60006001600160401b03821115610f005760405162461bcd60e51b815260206004820152602660248201527f53616665436173743a2076616c756520646f65736e27742066697420696e203660448201526534206269747360d01b606482015260840161012e565b7fec7e8c1c441439dd40959777f4c577ea0cd42fcc1dbe59d2bd0f5d9c55df8dc554600090819060008051602061274183398151915290600080516020612701833981519152908390600160901b90046001600160401b0316610fce42610f04565b610fd891906123c6565b600c8301549091506000906110029063ffffffff166105256001600160401b0385166103e8612388565b600d840154600f8601549192506001600160401b03600160981b909104811691611034918491620100009004166122f0565b61103e91906122f0565b600e840154600f8601549197506001600160401b039081169161106a918591600160501b9004166122f0565b61107491906122f0565b9450505050509091565b808261010001516001600160a01b03166110a8856000805160206127218339815191521860401c90565b6001600160a01b03167f7e28eb3b9a2077a4fa0559357b1647ec5eabf18d7adf1539c4e8fb1445a5fc096110df8660000151610e47565b86608001518760200151886040015189606001518b6002016111008b6119e1565b8c6101200151633b9aca008e61014001516001600160401b03166111249190612388565b60405161113999989796959493929190612419565b60405180910390a4505050565b61114e611a0b565b80156111f1576000826001600160a01b031682620186a090604051600060405180830381858888f193505050503d80600081146111a7576040519150601f19603f3d011682016040523d82523d6000602084013e6111ac565b606091505b50509050806111ef5760405162461bcd60e51b815260206004820152600f60248201526e1d1c985b9cd9995c8819985a5b1959608a1b604482015260640161012e565b505b5050565b60008060008051602061274183398151915290506112368160000184815481106112215761122161252f565b90600052602060002090600402016000611a7c565b5090949350505050565b7f4f24f5c433db0962dac0d2c8b84197a6e6c7cc4e5d9ebe1916a1b6193da2f341546001600160a01b0316604051633af32abf60e01b81526001600160a01b0383811660048301529190911690633af32abf90602401602060405180830381865afa1580156112b3573d6000803e3d6000fd5b505050506040513d601f19601f820116820180604052508101906112d79190612366565b610a2b5760405162461bcd60e51b81526020600482015260156024820152741859d95b9d081b9bdd081dda1a5d195b1a5cdd1959605a1b604482015260640161012e565b6113406040805160608101909152806000815260200160008152602001600081525090565b600061134b83611c3b565b604080516060810182526001815285548251634ac8eb5f60e01b8152925193945090926020808501936001600160a01b0390931692634ac8eb5f92600480830193928290030181865afa1580156113a6573d6000803e3d6000fd5b505050506040513d601f19601f820116820180604052508101906113ca9190612545565b8152602001610c7f83611c8a565b6113fd6040805160608101909152806000815260200160008152602001600081525090565b600061140883611ca0565b6040805160608101909152909150806000815282546020909101906001600160a01b03166370a08231600080516020612721833981519152871860401c6040516001600160e01b031960e084901b1681526001600160a01b039091166004820152602401602060405180830381865afa1580156113a6573d6000803e3d6000fd5b6114ae6040805160608101909152806000815260200160008152602001600081525090565b8254604080516332f7ce0b60e21b815290516000926001600160a01b03169163cbdf382c9160048083019260209291908290030181865afa1580156114f7573d6000803e3d6000fd5b505050506040513d601f19601f8201168201806040525081019061151b919061255e565b905060006001600160a01b0382166370a08231600080516020612721833981519152871860401c6040516001600160e01b031960e084901b1681526001600160a01b039091166004820152602401602060405180830381865afa158015611586573d6000803e3d6000fd5b505050506040513d601f19601f820116820180604052508101906115aa9190612545565b90506000826001600160a01b03166318160ddd6040518163ffffffff1660e01b8152600401602060405180830381865afa1580156115ec573d6000803e3d6000fd5b505050506040513d601f19601f820116820180604052508101906116109190612545565b90506000856020015160000361162a57856040015161163f565b6020860151604087015161163f9184906118bb565b60408051606081018252600281526020810195909552840152509095945050505050565b60008061167585600001518585611cd7565b9050600061168886602001518686611cd7565b9050600061169b87604001518787611cd7565b90506116b0836116ab8484611d18565b611d18565b979650505050505050565b600482015460009081906116db908490600160481b900461ffff16610e88565b90506108768185600401600b9054906101000a900461ffff16611d2e565b6000805160206127618339815191525460009060008051602061270183398151915290610d099061052f90600160901b90046001600160401b031685612352565b7f4f24f5c433db0962dac0d2c8b84197a6e6c7cc4e5d9ebe1916a1b6193da2f347546000805160206127418339815191529060008051602061270183398151915290600160581b90046001600160401b0316600081900361179b5750505050565b6001820154604080516318160ddd60e01b815290516000926001600160a01b0316916318160ddd9160048083019260209291908290030181865afa1580156117e7573d6000803e3d6000fd5b505050506040513d601f19601f8201168201806040525081019061180b9190612545565b90506000611818826116f9565b600e8601546118379190600160c01b90046001600160401b03166122f0565b6001600160401b0316905082866001600160401b03168261185891906123b3565b111561189d5760405162461bcd60e51b81526020600482015260146024820152731b5a5b9d1a5b99c818d85c08195e18d95959195960621b604482015260640161012e565b505050505050565b6000610ca6826118b76009600a612662565b8591905b60008082116118ff5760405162461bcd60e51b815260206004820152601060248201526f4469766973696f6e206279207a65726f60801b604482015260640161012e565b8360000361190f57506000610d09565b838302838582816119225761192261233c565b0403611940578281816119375761193761233c565b04915050610d09565b50600061194d8386612352565b9050600061195b848761239f565b905060006119698587612352565b90506000611977868861239f565b9050856119848285612388565b61198e9190612352565b6119988385612388565b6119a28387612388565b886119ad8689612388565b6119b79190612388565b6119c191906123b3565b6119cb91906123b3565b6119d591906123b3565b98975050505050505050565b60006001600160401b038211156119fa576119fa61266e565b5067464250526641000160c01b1790565b7f0cd2207518cd3e5213e2c6dbe63d55b60aa893c194a427b7d7f1600408fd5bde5460021461093d5760405162461bcd60e51b815260206004820152601f60248201527f5265656e7472616e637947756172643a20677561726420726571756972656400604482015260640161012e565b600080600080600080611b1b886001018054611a97906123e5565b80601f0160208091040260200160405190810160405280929190818152602001828054611ac3906123e5565b8015611b105780601f10611ae557610100808354040283529160200191611b10565b820191906000526020600020905b815481529060010190602001808311611af357829003601f168201915b505050505088611d46565b8a549295509093509150600160f01b900460ff1615611b62578754600090611b5190600160a81b900460ff166001838786611e34565b9650919450849350611c3492505050565b6000806000611bfd8b6002018054611b79906123e5565b80601f0160208091040260200160405190810160405280929190818152602001828054611ba5906123e5565b8015611bf25780601f10611bc757610100808354040283529160200191611bf2565b820191906000526020600020905b815481529060010190602001808311611bd557829003601f168201915b50505050508b611d46565b8d549295509093509150600090611c2190600160a81b900460ff1685848a89611e34565b9950949750909550611c34945050505050565b9250925092565b600080600080516020612741833981519152600484015481549192508291630100000090910461ffff16908110611c7457611c7461252f565b9060005260206000209060040201915050919050565b6000611c97826000611a7c565b50909392505050565b60008060008051602061274183398151915260048401548154919250829161010090910461ffff16908110611c7457611c7461252f565b600080611ce48585611ebb565b90506000611cf3868686611ed8565b905080600003611d04576000611d0e565b611d0e8183612352565b9695505050505050565b6000818310611d275781610ca6565b5090919050565b6000610ca6611d418461ffff8516610e88565b611f24565b7f4f24f5c433db0962dac0d2c8b84197a6e6c7cc4e5d9ebe1916a1b6193da2f3445460009081908190600080516020612701833981519152906001600160a01b03168515611e085760405163e4a0a55b60e01b81526001600160a01b0382169063e4a0a55b90611dba908a90600401612684565b606060405180830381865afa158015611dd7573d6000803e3d6000fd5b505050506040513d601f19601f82011682018060405250810190611dfb91906126d2565b9450945094505050611c34565b60405163524f388960e01b81526001600160a01b0382169063524f388990611dba908a90600401612684565b6000600080516020612701833981519152816009611e52878a6123b3565b611e5c91906123b3565b600a830154909150600090611e7c908690600160a81b900460ff166123b3565b905080821015611e8e57611e8e61266e565b611eae611e9b8284612329565b611ea690600a612662565b87908a6118bb565b9998505050505050505050565b600080611ec88484611f6b565b9050610876846020015182612095565b7f4f24f5c433db0962dac0d2c8b84197a6e6c7cc4e5d9ebe1916a1b6193da2f3475460009060008051602061270183398151915290610d3590869086906001600160401b0316866120af565b6000805160206127618339815191525460009060008051602061270183398151915290611f6190600160901b90046001600160401b03168461239f565b610d099084612329565b6000806000611f7e848660000151612126565b60058601549193509150600090611fa7906001600160401b03600160401b8204811691166123b3565b90506000611fbd84610491848a604001516118a5565b90506000600188516002811115611fd657611fd66122c4565b14611ff5576005870154600160801b90046001600160401b031661200b565b6005870154600160c01b90046001600160401b03165b9050600061202a85610491846001600160401b03168c604001516118a5565b9050600060018a516002811115612043576120436122c4565b0361204f576000612067565b895161205c908a906121f0565b546001600160801b03165b6001600160801b031690508061207d83866123b3565b61208791906123b3565b9a9950505050505050505050565b60008183116120a5576000610ca6565b610ca68284612329565b600080826120be5760006120e7565b60048501546120e79061ffff600160581b8204811691610491918891600160481b900416610e88565b905060006120f582866123b3565b905060006121078289604001516118a5565b90506000612119888a60000151612126565b509050611eae8282610e88565b600080600283600281111561213d5761213d6122c4565b0361216857505060008051602061276183398151915254640100000000900463ffffffff16806121e9565b600183600281111561217c5761217c6122c4565b036121b75761218a84611c3b565b60030154600485015463ffffffff91821692506121b091600160881b909104168261223d565b91506121e9565b6121c084611ca0565b60030154600485015463ffffffff91821692506121e691600160681b909104168261223d565b91505b9250929050565b60006001826002811115612206576122066122c4565b036122135761221361266e565b6000826002811115612227576122276122c4565b146122355782600901610ca6565b505060080190565b6000818311611d275781610ca6565b6001600160a01b0381168114610a2b57600080fd5b6000806000806080858703121561227757600080fd5b84356122828161224c565b9350602085013592506040850135915060608501356122a08161224c565b939692955090935050565b6000602082840312156122bd57600080fd5b5035919050565b634e487b7160e01b600052602160045260246000fd5b634e487b7160e01b600052601160045260246000fd5b6001600160401b038181168382160190811115610ca957610ca96122da565b61ffff8181168382160190811115610ca957610ca96122da565b81810381811115610ca957610ca96122da565b634e487b7160e01b600052601260045260246000fd5b6000826123615761236161233c565b500490565b60006020828403121561237857600080fd5b81518015158114610d0957600080fd5b8082028115828204841417610ca957610ca96122da565b6000826123ae576123ae61233c565b500690565b80820180821115610ca957610ca96122da565b6001600160401b038281168282160390811115610ca957610ca96122da565b600181811c908216806123f957607f821691505b602082108103610bc157634e487b7160e01b600052602260045260246000fd5b8981526001600160801b03891660208201526001600160401b03881660408201526001600160401b03871660608201526001600160401b038616608082015261012060a08201526000808654818160011c9050600182168061247c57607f821691505b60208210810361249a57634e487b7160e01b84526022600452602484fd5b610120860182905261014086018180156124bb57600181146124d1576124ff565b60ff198516825283151560051b820195506124ff565b60008c81526020902060005b858110156124f9578154848201526001909101906020016124dd565b83019650505b505050505060c0830195909552506001600160a01b039290921660e0830152610100909101529695505050505050565b634e487b7160e01b600052603260045260246000fd5b60006020828403121561255757600080fd5b5051919050565b60006020828403121561257057600080fd5b8151610d098161224c565b6001815b60018411156125b65780850481111561259a5761259a6122da565b60018416156125a857908102905b60019390931c92800261257f565b935093915050565b6000826125cd57506001610ca9565b816125da57506000610ca9565b81600181146125f057600281146125fa57612616565b6001915050610ca9565b60ff84111561260b5761260b6122da565b50506001821b610ca9565b5060208310610133831016604e8410600b8410161715612639575081810a610ca9565b612646600019848461257b565b806000190482111561265a5761265a6122da565b029392505050565b6000610ca683836125be565b634e487b7160e01b600052600160045260246000fd5b602081526000825180602084015260005b818110156126b25760208186018101516040868401015201612695565b506000604082850101526040601f19601f83011684010191505092915050565b6000806000606084860312156126e757600080fd5b505081516020830151604090930151909492935091905056fe4f24f5c433db0962dac0d2c8b84197a6e6c7cc4e5d9ebe1916a1b6193da2f33a5bebac0595fee029d42bb673937f5f1cb81cf8641382bc17774635de9b7d7965ec7e8c1c441439dd40959777f4c577ea0cd42fcc1dbe59d2bd0f5d9c55df8db64f24f5c433db0962dac0d2c8b84197a6e6c7cc4e5d9ebe1916a1b6193da2f346a26469706673582212200e724abf8c406016e7da63b93ea3614e08ce29472be2e93ca6a027d252ee8a4664736f6c634300081b0033",
  "linkReferences": {},
  "deployedLinkReferences": {}
}