{
  "_format": "hh-sol-artifact-1",
  "contractName": "CollateralReservationsFacet",
  "sourceName": "contracts/assetManager/facets/CollateralReservationsFacet.sol",
  "abi": [
    {
      "anonymous": false,
      "inputs": [
        {
          "indexed": true,
          "internalType": "address",
          "name": "agentVault",
          "type": "address"
        },
        {
          "indexed": true,
          "internalType": "address",
          "name": "minter",
          "type": "address"
        },
        {
          "indexed": true,
          "internalType": "uint256",
          "name": "collateralReservationId",
          "type": "uint256"
        }
      ],
      "name": "CollateralReservationCancelled",
      "type": "event"
    },
    {
      "anonymous": false,
      "inputs": [
        {
          "indexed": true,
          "internalType": "address",
          "name": "agentVault",
          "type": "address"
        },
        {
          "indexed": true,
          "internalType": "address",
          "name": "minter",
          "type": "address"
        },
        {
          "indexed": true,
          "internalType": "uint256",
          "name": "collateralReservationId",
          "type": "uint256"
        },
        {
          "indexed": false,
          "internalType": "uint256",
          "name": "reservedAmountUBA",
          "type": "uint256"
        }
      ],
      "name": "CollateralReservationDeleted",
      "type": "event"
    },
    {
      "anonymous": false,
      "inputs": [
        {
          "indexed": true,
          "internalType": "address",
          "name": "agentVault",
          "type": "address"
        },
        {
          "indexed": true,
          "internalType": "address",
          "name": "minter",
          "type": "address"
        },
        {
          "indexed": true,
          "internalType": "uint256",
          "name": "collateralReservationId",
          "type": "uint256"
        }
      ],
      "name": "CollateralReservationRejected",
      "type": "event"
    },
    {
      "anonymous": false,
      "inputs": [
        {
          "indexed": true,
          "internalType": "address",
          "name": "agentVault",
          "type": "address"
        },
        {
          "indexed": true,
          "internalType": "address",
          "name": "minter",
          "type": "address"
        },
        {
          "indexed": true,
          "internalType": "uint256",
          "name": "collateralReservationId",
          "type": "uint256"
        },
        {
          "indexed": false,
          "internalType": "uint256",
          "name": "valueUBA",
          "type": "uint256"
        },
        {
          "indexed": false,
          "internalType": "uint256",
          "name": "feeUBA",
          "type": "uint256"
        },
        {
          "indexed": false,
          "internalType": "uint256",
          "name": "firstUnderlyingBlock",
          "type": "uint256"
        },
        {
          "indexed": false,
          "internalType": "uint256",
          "name": "lastUnderlyingBlock",
          "type": "uint256"
        },
        {
          "indexed": false,
          "internalType": "uint256",
          "name": "lastUnderlyingTimestamp",
          "type": "uint256"
        },
        {
          "indexed": false,
          "internalType": "string",
          "name": "paymentAddress",
          "type": "string"
        },
        {
          "indexed": false,
          "internalType": "bytes32",
          "name": "paymentReference",
          "type": "bytes32"
        },
        {
          "indexed": false,
          "internalType": "address",
          "name": "executor",
          "type": "address"
        },
        {
          "indexed": false,
          "internalType": "uint256",
          "name": "executorFeeNatWei",
          "type": "uint256"
        }
      ],
      "name": "CollateralReserved",
      "type": "event"
    },
    {
      "anonymous": false,
      "inputs": [
        {
          "indexed": true,
          "internalType": "address",
          "name": "agentVault",
          "type": "address"
        },
        {
          "indexed": true,
          "internalType": "address",
          "name": "minter",
          "type": "address"
        },
        {
          "indexed": true,
          "internalType": "uint256",
          "name": "collateralReservationId",
          "type": "uint256"
        },
        {
          "indexed": false,
          "internalType": "string[]",
          "name": "minterUnderlyingAddresses",
          "type": "string[]"
        },
        {
          "indexed": false,
          "internalType": "uint256",
          "name": "valueUBA",
          "type": "uint256"
        },
        {
          "indexed": false,
          "internalType": "uint256",
          "name": "feeUBA",
          "type": "uint256"
        }
      ],
      "name": "HandshakeRequired",
      "type": "event"
    },
    {
      "anonymous": false,
      "inputs": [
        {
          "indexed": true,
          "internalType": "address",
          "name": "agentVault",
          "type": "address"
        },
        {
          "indexed": true,
          "internalType": "address",
          "name": "minter",
          "type": "address"
        },
        {
          "indexed": true,
          "internalType": "uint256",
          "name": "collateralReservationId",
          "type": "uint256"
        },
        {
          "indexed": false,
          "internalType": "uint256",
          "name": "reservedAmountUBA",
          "type": "uint256"
        }
      ],
      "name": "MintingPaymentDefault",
      "type": "event"
    },
    {
      "inputs": [
        {
          "internalType": "uint256",
          "name": "_collateralReservationId",
          "type": "uint256"
        }
      ],
      "name": "approveCollateralReservation",
      "outputs": [],
      "stateMutability": "nonpayable",
      "type": "function"
    },
    {
      "inputs": [
        {
          "internalType": "uint256",
          "name": "_collateralReservationId",
          "type": "uint256"
        }
      ],
      "name": "cancelCollateralReservation",
      "outputs": [],
      "stateMutability": "nonpayable",
      "type": "function"
    },
    {
      "inputs": [
        {
          "internalType": "uint256",
          "name": "_lots",
          "type": "uint256"
        }
      ],
      "name": "collateralReservationFee",
      "outputs": [
        {
          "internalType": "uint256",
          "name": "_reservationFeeNATWei",
          "type": "uint256"
        }
      ],
      "stateMutability": "view",
      "type": "function"
    },
    {
      "inputs": [
        {
          "components": [
            {
              "internalType": "bytes32[]",
              "name": "merkleProof",
              "type": "bytes32[]"
            },
            {
              "components": [
                {
                  "internalType": "bytes32",
                  "name": "attestationType",
                  "type": "bytes32"
                },
                {
                  "internalType": "bytes32",
                  "name": "sourceId",
                  "type": "bytes32"
                },
                {
                  "internalType": "uint64",
                  "name": "votingRound",
                  "type": "uint64"
                },
                {
                  "internalType": "uint64",
                  "name": "lowestUsedTimestamp",
                  "type": "uint64"
                },
                {
                  "components": [
                    {
                      "internalType": "uint64",
                      "name": "minimalBlockNumber",
                      "type": "uint64"
                    },
                    {
                      "internalType": "uint64",
                      "name": "deadlineBlockNumber",
                      "type": "uint64"
                    },
                    {
                      "internalType": "uint64",
                      "name": "deadlineTimestamp",
                      "type": "uint64"
                    },
                    {
                      "internalType": "bytes32",
                      "name": "destinationAddressHash",
                      "type": "bytes32"
                    },
                    {
                      "internalType": "uint256",
                      "name": "amount",
                      "type": "uint256"
                    },
                    {
                      "internalType": "bytes32",
                      "name": "standardPaymentReference",
                      "type": "bytes32"
                    },
                    {
                      "internalType": "bool",
                      "name": "checkSourceAddresses",
                      "type": "bool"
                    },
                    {
                      "internalType": "bytes32",
                      "name": "sourceAddressesRoot",
                      "type": "bytes32"
                    }
                  ],
                  "internalType": "struct IReferencedPaymentNonexistence.RequestBody",
                  "name": "requestBody",
                  "type": "tuple"
                },
                {
                  "components": [
                    {
                      "internalType": "uint64",
                      "name": "minimalBlockTimestamp",
                      "type": "uint64"
                    },
                    {
                      "internalType": "uint64",
                      "name": "firstOverflowBlockNumber",
                      "type": "uint64"
                    },
                    {
                      "internalType": "uint64",
                      "name": "firstOverflowBlockTimestamp",
                      "type": "uint64"
                    }
                  ],
                  "internalType": "struct IReferencedPaymentNonexistence.ResponseBody",
                  "name": "responseBody",
                  "type": "tuple"
                }
              ],
              "internalType": "struct IReferencedPaymentNonexistence.Response",
              "name": "data",
              "type": "tuple"
            }
          ],
          "internalType": "struct IReferencedPaymentNonexistence.Proof",
          "name": "_proof",
          "type": "tuple"
        },
        {
          "internalType": "uint256",
          "name": "_collateralReservationId",
          "type": "uint256"
        }
      ],
      "name": "mintingPaymentDefault",
      "outputs": [],
      "stateMutability": "nonpayable",
      "type": "function"
    },
    {
      "inputs": [
        {
          "internalType": "uint256",
          "name": "_collateralReservationId",
          "type": "uint256"
        }
      ],
      "name": "rejectCollateralReservation",
      "outputs": [],
      "stateMutability": "nonpayable",
      "type": "function"
    },
    {
      "inputs": [
        {
          "internalType": "address",
          "name": "_agentVault",
          "type": "address"
        },
        {
          "internalType": "uint256",
          "name": "_lots",
          "type": "uint256"
        },
        {
          "internalType": "uint256",
          "name": "_maxMintingFeeBIPS",
          "type": "uint256"
        },
        {
          "internalType": "address payable",
          "name": "_executor",
          "type": "address"
        },
        {
          "internalType": "string[]",
          "name": "_minterUnderlyingAddresses",
          "type": "string[]"
        }
      ],
      "name": "reserveCollateral",
      "outputs": [
        {
          "internalType": "uint256",
          "name": "_collateralReservationId",
          "type": "uint256"
        }
      ],
      "stateMutability": "payable",
      "type": "function"
    },
    {
      "inputs": [
        {
          "components": [
            {
              "internalType": "bytes32[]",
              "name": "merkleProof",
              "type": "bytes32[]"
            },
            {
              "components": [
                {
                  "internalType": "bytes32",
                  "name": "attestationType",
                  "type": "bytes32"
                },
                {
                  "internalType": "bytes32",
                  "name": "sourceId",
                  "type": "bytes32"
                },
                {
                  "internalType": "uint64",
                  "name": "votingRound",
                  "type": "uint64"
                },
                {
                  "internalType": "uint64",
                  "name": "lowestUsedTimestamp",
                  "type": "uint64"
                },
                {
                  "components": [
                    {
                      "internalType": "uint64",
                      "name": "blockNumber",
                      "type": "uint64"
                    },
                    {
                      "internalType": "uint64",
                      "name": "queryWindow",
                      "type": "uint64"
                    }
                  ],
                  "internalType": "struct IConfirmedBlockHeightExists.RequestBody",
                  "name": "requestBody",
                  "type": "tuple"
                },
                {
                  "components": [
                    {
                      "internalType": "uint64",
                      "name": "blockTimestamp",
                      "type": "uint64"
                    },
                    {
                      "internalType": "uint64",
                      "name": "numberOfConfirmations",
                      "type": "uint64"
                    },
                    {
                      "internalType": "uint64",
                      "name": "lowestQueryWindowBlockNumber",
                      "type": "uint64"
                    },
                    {
                      "internalType": "uint64",
                      "name": "lowestQueryWindowBlockTimestamp",
                      "type": "uint64"
                    }
                  ],
                  "internalType": "struct IConfirmedBlockHeightExists.ResponseBody",
                  "name": "responseBody",
                  "type": "tuple"
                }
              ],
              "internalType": "struct IConfirmedBlockHeightExists.Response",
              "name": "data",
              "type": "tuple"
            }
          ],
          "internalType": "struct IConfirmedBlockHeightExists.Proof",
          "name": "_proof",
          "type": "tuple"
        },
        {
          "internalType": "uint256",
          "name": "_collateralReservationId",
          "type": "uint256"
        }
      ],
      "name": "unstickMinting",
      "outputs": [],
      "stateMutability": "payable",
      "type": "function"
    }
  ],
  "bytecode": "0x608060405234801561001057600080fd5b50614bf3806100206000396000f3fe6080604052600436106100705760003560e01c806369bd4e811161004e57806369bd4e81146100dc57806384807e8d146100fc578063b3efcbfa1461010f578063b5a051c71461012f57600080fd5b8063058517b5146100755780631a7b5ff714610097578063368a3593146100bc575b600080fd5b34801561008157600080fd5b5061009561009036600461407a565b61014f565b005b6100aa6100a53660046140a8565b610182565b60405190815260200160405180910390f35b3480156100c857600080fd5b506100aa6100d736600461407a565b6101ef565b3480156100e857600080fd5b506100956100f7366004614154565b610208565b61009561010a36600461419e565b61023d565b34801561011b57600080fd5b5061009561012a36600461407a565b610257565b34801561013b57600080fd5b5061009561014a36600461407a565b610270565b610157610289565b610168610163826102f5565b610361565b61017f6001600080516020614b9e83398151915255565b50565b600061018c610523565b61019461058c565b61019c610658565b6101a4610289565b6101c333886101b2896102f5565b6101bb896102f5565b8888886106e3565b6001600160401b031690506101e56001600080516020614b9e83398151915255565b9695505050505050565b60006102026101fd836102f5565b6110d0565b92915050565b610210610289565b6102228261021d836102f5565b611131565b6102396001600080516020614b9e83398151915255565b5050565b610245610289565b61022282610252836102f5565b61151f565b61025f610289565b61016861026b826102f5565b6117c2565b610278610658565b61017f610284826102f5565b6118d8565b600080516020614b9e8339815191528054600119016102ef5760405162461bcd60e51b815260206004820152601f60248201527f5265656e7472616e637947756172643a207265656e7472616e742063616c6c0060448201526064015b60405180910390fd5b60029055565b60006001600160401b0382111561035d5760405162461bcd60e51b815260206004820152602660248201527f53616665436173743a2076616c756520646f65736e27742066697420696e203660448201526534206269747360d01b60648201526084016102e6565b5090565b600061036c82611ade565b60038101549091506001600160a01b031633146103b95760405162461bcd60e51b815260206004820152600b60248201526a37b7363c9036b4b73a32b960a91b60448201526064016102e6565b60058101546001600160401b03166000036104265760405162461bcd60e51b815260206004820152602760248201527f636f6c6c61746572616c207265736572766174696f6e20616c726561647920616044820152661c1c1c9bdd995960ca1b60648201526084016102e6565b6000610430611b7f565b60178101546005840154919250429161045c916001600160401b03600160c01b909104811691166141f0565b6001600160401b0316106104c85760405162461bcd60e51b815260206004820152602d60248201527f636f6c6c61746572616c207265736572766174696f6e2063616e63656c6c617460448201526c696f6e20746f6f206561726c7960981b60648201526084016102e6565b600382015460028301546040516001600160401b038616926001600160a01b039081169216907f5b8396e9ca9d86e29fd05a7792854c392411845219abf084a300c0510dd3bd1890600090a461051e8284611ba3565b505050565b7fec7e8c1c441439dd40959777f4c577ea0cd42fcc1dbe59d2bd0f5d9c55df8dc754600160881b900460ff1661058a5760405162461bcd60e51b815260206004820152600c60248201526b1b9bdd08185d1d1858da195960a21b60448201526064016102e6565b565b6000610596611b7f565b60068101549091506001600160a01b03161561017f576006810154604051633af32abf60e01b81523360048201526001600160a01b0390911690633af32abf90602401602060405180830381865afa1580156105f6573d6000803e3d6000fd5b505050506040513d601f19601f8201168201806040525081019061061a9190614225565b61017f5760405162461bcd60e51b815260206004820152600f60248201526e1b9bdd081dda1a5d195b1a5cdd1959608a1b60448201526064016102e6565b7fec7e8c1c441439dd40959777f4c577ea0cd42fcc1dbe59d2bd0f5d9c55df8dc654600080516020614b7e8339815191529042600160401b9091046001600160401b0316111561017f5760405162461bcd60e51b8152602060048201526016602482015275656d657267656e63792070617573652061637469766560501b60448201526064016102e6565b6000806106ef88611c60565b90506106fa81611d07565b600061070582611d1e565b7fec7e8c1c441439dd40959777f4c577ea0cd42fcc1dbe59d2bd0f5d9c55df8dc654909150600080516020614b7e833981519152906001600160401b0316156107815760405162461bcd60e51b815260206004820152600e60248201526d1b5a5b9d1a5b99c81c185d5cd95960921b60448201526064016102e6565b600483015465010000000000900463ffffffff161515806107aa57506107aa600d84018c611dc8565b6107f65760405162461bcd60e51b815260206004820152601760248201527f6167656e74206e6f7420696e206d696e7420717565756500000000000000000060448201526064016102e6565b6000896001600160401b0316116108445760405162461bcd60e51b815260206004820152601260248201527163616e6e6f74206d696e742030206c6f747360701b60448201526064016102e6565b600160048085015460ff169081111561085f5761085f614242565b146108ac5760405162461bcd60e51b815260206004820152601860248201527f72633a20696e76616c6964206167656e7420737461747573000000000000000060448201526064016102e6565b6001600160401b0389166108c08385611ded565b101561090e5760405162461bcd60e51b815260206004820152601a60248201527f6e6f7420656e6f756768206672656520636f6c6c61746572616c00000000000060448201526064016102e6565b6004830154600160481b900461ffff166001600160401b038916101561096d5760405162461bcd60e51b81526020600482015260146024820152730c2cecadce84ee640cccaca40e8dede40d0d2ced60631b60448201526064016102e6565b6000610977611b7f565b600d015461098e906001600160401b03168b614258565b90506109ad8461099e8684611dfb565b6109a890846141f0565b611e20565b600484015460009065010000000000900463ffffffff1681036109d15760006109e3565b6109e384602001516040015183611ecb565b905080341015610a355760405162461bcd60e51b815260206004820152601860248201527f696e617070726f7072696174652066656520616d6f756e74000000000000000060448201526064016102e6565b610a3d611f0c565b600e84018054600090610a5a9084906001600160401b03166141f0565b82546001600160401b0391821661010093840a9081029083021990911617909255600e860154604080516101a081018252600060208201819052918101829052606081018290526080810182905260a0810182905260c0810182905260e08101829052928301819052610120830181905261014083018190526101608301819052610180830152858316825260048901549216925090610b1790610b1290600160481b900461ffff16610b0c87611f2a565b90611f5b565b611f6a565b6001600160801b03166080820152610b2e83611f6a565b6001600160801b031660a08201526004870154610b5790600160581b900461ffff166001614283565b61ffff1660e08201526001600160a01b03808f1660c08301528f81166101008301528b16610120820152610ba2633b9aca00610b93853461429e565b610b9d91906142c7565b6102f5565b6001600160401b0316610140820152600c87015463ffffffff1615610f195788610c1a5760405162461bcd60e51b8152602060048201526024808201527f6d696e74657220756e6465726c79696e672061646472657373657320726571756044820152631a5c995960e21b60648201526084016102e6565b6000896001600160401b03811115610c3457610c346142db565b604051908082528060200260200182016040528015610c5d578160200160208202803683370190505b509050610cc28b8b6000818110610c7657610c766142f1565b9050602002810190610c889190614307565b8080601f016020809104026020016040519081016040528093929190818152602001838380828437600092019190915250611fd392505050565b81600081518110610cd557610cd56142f1565b6020908102919091018101919091526040805180830182526000905251610d22917fc5d2460186f7233c927e7db2dcc703c0e500b653ca82273b7bfad8045d85a470910190815260200190565b6040516020818303038152906040528051906020012081600081518110610d4b57610d4b6142f1565b602002602001015103610d705760405162461bcd60e51b81526004016102e69061434d565b60015b8a811015610ede57610d908c8c83818110610c7657610c766142f1565b828281518110610da257610da26142f1565b6020908102919091018101919091526040805180830182526000905251610def917fc5d2460186f7233c927e7db2dcc703c0e500b653ca82273b7bfad8045d85a470910190815260200190565b60405160208183030381529060405280519060200120828281518110610e1757610e176142f1565b602002602001015103610e3c5760405162461bcd60e51b81526004016102e69061434d565b81610e4860018361429e565b81518110610e5857610e586142f1565b6020026020010151828281518110610e7257610e726142f1565b602002602001015111610ed65760405162461bcd60e51b815260206004820152602660248201527f6d696e74657220756e6465726c79696e6720616464726573736573206e6f74206044820152651cdbdc9d195960d21b60648201526084016102e6565b600101610d73565b50610ee88161200c565b610180830152610ef7426102f5565b6001600160401b0316610160830152610f138883858e8e6124b3565b50610f61565b600080610f24612532565b600f8901546001600160401b0362010000909104811660208701528083166040870152811660608601529092509050610f5e898486612621565b50505b6001600160401b0380831660009081526006968701602090815260409182902084518154928601519386015160608701518616600160c01b026001600160c01b03918716600160801b908102929092166001600160801b03968816600160401b026fffffffffffffffffffffffffffffffff199096169388169390931794909417851691909117929092178155608085015160a086015184169092029190921617600182015560c083015160028201805460e086015161ffff16600160a01b9081026001600160b01b03199092166001600160a01b0394851617919091179091556101008501516003840180549184166001600160a01b03199290921691909117905561012085015160048401805461014088015187169093026001600160e01b031990931691909316171790556101608301516005820180549190931667ffffffffffffffff1991909116179091556101809091015194019390935550909350505050979650505050505050565b6000600080516020614b7e833981519152816110ea611b7f565b600f8301549091506000906111029061ffff166126ef565b600d830154909150611128908290611123906001600160401b031688614258565b611ecb565b95945050505050565b600061113c82611ade565b60058101549091506001600160401b03161561116a5760405162461bcd60e51b81526004016102e69061438e565b61117c610180840161016085016143e1565b15801561118b57506006810154155b806111c657506111a3610180840161016085016143e1565b80156111b25750600681015415155b80156111c657506006810154610180840135145b6112215760405162461bcd60e51b815260206004820152602660248201527f696e76616c696420636865636b206f7220736f757263652061646472657373656044820152651cc81c9bdbdd60d21b60648201526084016102e6565b600281015460009061123b906001600160a01b0316611c60565b90506112468161273a565b61124f84612789565b8154600090611266906001600160401b0316611f2a565b905067464250526641000160c01b6001600160401b0385161761014086013514801561129a57506003820154610100860135145b80156112c1575060018301546112b9906001600160801b0316826143fe565b610120860135145b61130d5760405162461bcd60e51b815260206004820152601c60248201527f6d696e74696e67206e6f6e2d7061796d656e74206d69736d617463680000000060448201526064016102e6565b8254600160801b90046001600160401b03166113316101e087016101c08801614428565b6001600160401b031611801561137157508254600160c01b90046001600160401b031661136661020087016101e08801614428565b6001600160401b0316115b6113bd5760405162461bcd60e51b815260206004820152601960248201527f6d696e74696e672064656661756c7420746f6f206561726c790000000000000060448201526064016102e6565b8254600160401b90046001600160401b03166113df60c0870160a08801614428565b6001600160401b031611156114495760405162461bcd60e51b815260206004820152602a60248201527f6d696e74696e67206e6f6e2d7061796d656e742070726f6f662077696e646f77604482015269081d1bdbc81cda1bdc9d60b21b60648201526084016102e6565b6000611455838561289e565b61145f90836143fe565b600385015460028601546040518381529293506001600160401b038816926001600160a01b0392831692909116907f9bcf1e111381daaf8ec9ce1420115fc2bb960d5dd94b1e871256cb2e6cbd5aa09060200160405180910390a460048401546000906114e190633b9aca0090600160a01b90046001600160401b0316614443565b60018601546115009190600160801b90046001600160801b03166143fe565b905061150c84826128f2565b61151685876129fb565b50505050505050565b6000611529611b7f565b9050600061153683611ade565b60058101549091506001600160401b0316156115645760405162461bcd60e51b81526004016102e69061438e565b600281015460009061157e906001600160a01b0316611c60565b90506115898161273a565b61159285612b6b565b8154600160801b90046001600160401b03166115b661014087016101208801614428565b6001600160401b03161180156115f657508154600160c01b90046001600160401b03166115eb61016087016101408801614428565b6001600160401b0316115b8015611650575061160e610100860160e08701614428565b60118401546001600160401b0391821691600160401b9091041661163a61016088016101408901614428565b61164491906141f0565b6001600160401b031611155b61169c5760405162461bcd60e51b815260206004820152601a60248201527f63616e6e6f7420756e737469636b206d696e74696e672079657400000000000060448201526064016102e6565b60048201546116e8906116c490633b9aca0090600160a01b90046001600160401b0316614443565b60018401546116e39190600160801b90046001600160801b03166143fe565b612c87565b600481015460009061170290610100900461ffff166126ef565b835490915060009061171d906001600160401b031683612cce565b90506117298382612ce8565b6000611735848661289e565b8554611749906001600160401b0316611f2a565b61175391906143fe565b600386015460028701546040518381529293506001600160401b038a16926001600160a01b0392831692909116907f8989bc1e07f872f783e99c06825dfe6c20f9ca1bc2501de1e931a5872f0e88149060200160405180910390a46117b885886129fb565b5050505050505050565b60006117cd82611ade565b60028101549091506000906117ea906001600160a01b0316611c60565b90506117f58161273a565b60058201546001600160401b03166000036118825760405162461bcd60e51b815260206004820152604160248201527f68616e647368616b65206e6f74207265717569726564206f7220636f6c6c617460448201527f6572616c207265736572766174696f6e20616c726561647920617070726f76656064820152601960fa1b608482015260a4016102e6565b600382015460028301546040516001600160401b038616926001600160a01b039081169216907fdf194311e4e0a37be30f91892d0eee4b9147166f3faf63d8e42a97639db502b590600090a461051e8284611ba3565b60006118e382611ade565b6002810154909150600090611900906001600160a01b0316611c60565b905061190b8161273a565b60058201546001600160401b03166000036119615760405162461bcd60e51b81526020600482015260166024820152751a185b991cda185ad9481b9bdd081c995c5d5a5c995960521b60448201526064016102e6565b60058201805467ffffffffffffffff1916905560008061197f612532565b91509150600061199a600080516020614b7e83398151915290565b600f81015486546001600160401b03858116600160c01b9081026001600160c01b03898416600160801b90810267ffffffffffffffff60801b19600160401b62010000909904871689021677ffffffffffffffffffffffffffffffff00000000000000001990971696909617959095179081168217808d55604080516101a0810182529386169286169290921783529586048416602083015284860484169082015293048116606084015260018901546001600160801b03808216608086015292900490911660a083015260028801546001600160a01b0380821660c085015261ffff600160a01b928390041660e085015260038a0154811661010085015260048a01549081166101208501520481166101408301526005880154166101608201526006870154610180820152909150611ad690859088612621565b505050505050565b6000600080516020614b7e8339815191526001600160401b03831615801590611b2257506001600160401b0380841660009081526006830160205260409020541615155b611b5f5760405162461bcd60e51b815260206004820152600e60248201526d1a5b9d985b1a590818dc9d081a5960921b60448201526064016102e6565b6001600160401b0390921660009081526006909201602052506040902090565b7f4f24f5c433db0962dac0d2c8b84197a6e6c7cc4e5d9ebe1916a1b6193da2f33a90565b6004820154600090611bca90633b9aca0090600160a01b90046001600160401b0316614443565b6001840154611be99190600160801b90046001600160801b03166143fe565b90506000611bf5611b7f565b6018810154909150600090611c0f90849061ffff16611f5b565b60038601549091506001600160a01b0316611c2a86866129fb565b6000611c368284612ebf565b905080611c4b57611c4685612c87565b611516565b82851115611516576115166116e3848761429e565b7f5bebac0595fee029d42bb673937f5f1cb81cf8641382bc17774635de9b7d796568010000000000000000600160e01b03604083901b161880600060048084015460ff1690811115611cb457611cb4614242565b03611d015760405162461bcd60e51b815260206004820152601b60248201527f696e76616c6964206167656e74207661756c742061646472657373000000000060448201526064016102e6565b50919050565b600181015461017f906001600160a01b0316612f3c565b611d896040805160c081019091526000606082018181526080830182905260a083019190915281908152604080516060810182526000808252602082810182905292820152910190815260408051606081018252600080825260208281018290529282015291015290565b6000611d9483612ff4565b90506040518060600160405280611daa856130b1565b8152602001828152602001611dbf8584613156565b90529392505050565b6001600160a01b038116600090815260018301602052604081205415155b9392505050565b6000611de683836001613325565b600080611e0783611f2a565b90506000611e15858361337d565b9050611128816133bb565b600080516020614b7e833981519152611e38826133ec565b600583018054839190600090611e589084906001600160401b03166141f0565b92506101000a8154816001600160401b0302191690836001600160401b031602179055508181600e0160188282829054906101000a90046001600160401b0316611ea291906141f0565b92506101000a8154816001600160401b0302191690836001600160401b03160217905550505050565b600080611ee1836001600160401b031685612cce565b9050611f04611eee611b7f565b600c01548290600160401b900461ffff16611f5b565b949350505050565b6000611f1a6103e84361445a565b611f259060016143fe565b905090565b600080611f35611b7f565b600c810154909150611de6906001600160401b03600160901b9091048116908516614443565b6000611de6838361271061352e565b60006001600160801b0382111561035d5760405162461bcd60e51b815260206004820152602760248201527f53616665436173743a2076616c756520646f65736e27742066697420696e20316044820152663238206269747360c81b60648201526084016102e6565b60008180519060200120604051602001611fef91815260200190565b604051602081830303815290604052805190602001209050919050565b60008082511161205e5760405162461bcd60e51b815260206004820152601b60248201527f4d7573742068617665206174206c65617374206f6e65206c656166000000000060448201526064016102e6565b8151600103612089578160008151811061207a5761207a6142f1565b60200260200101519050919050565b6040805180820190915260008082526020820152825181525b8051600110156120d957602081018051906120bc8261446e565b905250805160029082906120d19083906142c7565b9052506120a2565b8251815260208101516000906120f09060016143fe565b6001600160401b03811115612107576121076142db565b604051908082528060200260200182016040528015612130578160200160208202803683370190505b50905060008260200151600161214691906143fe565b6001600160401b0381111561215d5761215d6142db565b604051908082528060200260200182016040528015612186578160200160208202803683370190505b509050600083602001516001901b84600001516121a3919061445a565b84602001516001901b6121b6919061429e565b90506000805b600281101561247b57600080826000036121da5750508751836121e1565b5083905060005b81811080612241575060018411801561224157508561220160028661429e565b81518110612211576122116142f1565b602002602001015186600186612227919061429e565b81518110612237576122376142f1565b6020026020010151145b156124715760018411801561229d57508561225d60028661429e565b8151811061226d5761226d6142f1565b602002602001015186600186612283919061429e565b81518110612293576122936142f1565b6020026020010151145b156123e657866122ae60028661429e565b815181106122be576122be6142f1565b6020026020010151876001866122d4919061429e565b815181106122e4576122e46142f1565b6020026020010151101561238f57866122fe60028661429e565b8151811061230e5761230e6142f1565b602002602001015187600186612324919061429e565b81518110612334576123346142f1565b60200260200101518860018761234a919061429e565b8151811061235a5761235a6142f1565b602002602001018960028861236f919061429e565b8151811061237f5761237f6142f1565b6020908102919091010191909152525b6040600019850160200288019081209052856123ac60028661429e565b815181106123bc576123bc6142f1565b6020026020010180518091906123d19061446e565b905250836123de81614487565b9450506121e1565b8181101561246457898181518110612400576124006142f1565b602002602001015187858151811061241a5761241a6142f1565b60200260200101818152505082868581518110612439576124396142f1565b60209081029190910101528361244e8161446e565b945050808061245c9061446e565b9150506121e1565b61246c61449e565b6121e1565b50506001016121bc565b508060011461248c5761248c61449e565b8360008151811061249f5761249f6142f1565b602002602001015195505050505050919050565b826001600160401b03168461010001516001600160a01b03166124d587613654565b6001600160a01b03167f34abd615afc02c31fa99ded1778ea60d36a99bf892c68e54beddb16007d9e963858561250e8a60000151611f2a565b8a6080015160405161252394939291906144dd565b60405180910390a45050505050565b600080600080516020614b7e8339815191528161254d611b7f565b600f830154909150600090600160901b90046001600160401b0316612571426102f5565b61257b919061458d565b600c8301549091506000906125a59063ffffffff16610b936001600160401b0385166103e8614443565b600d840154600f8601549192506001600160401b03600160981b9091048116916125d7918491620100009004166141f0565b6125e191906141f0565b600e840154600f8601549197506001600160401b039081169161260d918591600160501b9004166141f0565b61261791906141f0565b9450505050509091565b806001600160401b03168261010001516001600160a01b031661264385613654565b6001600160a01b03167f7e28eb3b9a2077a4fa0559357b1647ec5eabf18d7adf1539c4e8fb1445a5fc0961267a8660000151611f2a565b60808701516020880151604089015160608a015160028c0167464250526641000160c01b6001600160401b038c16178c6101200151633b9aca008e61014001516001600160401b03166126cd9190614443565b6040516126e2999897969594939291906145e1565b60405180910390a4505050565b600080600080516020614b7e833981519152905061273081600001848154811061271b5761271b6142f1565b9060005260206000209060040201600061367c565b5090949350505050565b612744813361383b565b61017f5760405162461bcd60e51b815260206004820152601660248201527537b7363c9030b3b2b73a103b30bab63a1037bbb732b960511b60448201526064016102e6565b6000612793611b7f565b6008810154600b8201549192506001600160a01b0316906040840135146127ec5760405162461bcd60e51b815260206004820152600d60248201526c34b73b30b634b21031b430b4b760991b60448201526064016102e6565b60405163d577275160e01b81526001600160a01b0382169063d5772751906128189086906004016147af565b602060405180830381865afa158015612835573d6000803e3d6000fd5b505050506040513d601f19601f820116820180604052508101906128599190614225565b61051e5760405162461bcd60e51b81526020600482015260166024820152751b9bdb8b5c185e5b595b9d081b9bdd081c1c9bdd995960521b60448201526064016102e6565b6002810154600090600160a01b900461ffff1681816128cc576004850154600160581b900461ffff166128d7565b6128d76001836148c5565b6001850154909150611128906001600160801b0316826138ea565b806000036128fe575050565b600482015460009061291c908390600160581b900461ffff16611f5b565b8354604080516368dc448760e11b815290519293506001600160a01b039091169163d1b8890e918491600480830192600092919082900301818588803b15801561296557600080fd5b505af1158015612979573d6000803e3d6000fd5b505050505061298783613654565b6001600160a01b031663677fa23261299f838561429e565b6129a7613902565b6040516001600160e01b031960e085901b1681526001600160a01b0390911660048201526024016000604051808303818588803b1580156129e757600080fd5b505af11580156117b8573d6000803e3d6000fd5b6002820154600080516020614b7e83398151915290600090612a25906001600160a01b0316611c60565b90506000612a3b612a36838761289e565b6133bb565b8554612a5091906001600160401b03166141f0565b600583015460408051808201909152601381527234b73b30b634b2103932b9b2b93b30ba34b7b760691b6020820152919250612a99916001600160401b0390911690839061396f565b60058301805467ffffffffffffffff19166001600160401b03928316179055600e840180548392601891612ad6918591600160c01b90041661458d565b82546101009290920a6001600160401b03818102199093169183160217909155949094166000908152600693840160205260408120818155600181018290556002810180546001600160b01b03191690556003810180546001600160a01b03191690556004810180546001600160e01b031916905560058101805467ffffffffffffffff191690559093019290925550505050565b6000612b75611b7f565b6008810154600b8201549192506001600160a01b031690604084013514612bce5760405162461bcd60e51b815260206004820152600d60248201526c34b73b30b634b21031b430b4b760991b60448201526064016102e6565b604051635e30ebfb60e01b81526001600160a01b03821690635e30ebfb90612bfa9086906004016148e0565b602060405180830381865afa158015612c17573d6000803e3d6000fd5b505050506040513d601f19601f82011682018060405250810190612c3b9190614225565b61051e5760405162461bcd60e51b815260206004820152601760248201527f626c6f636b20686569676874206e6f742070726f76656400000000000000000060448201526064016102e6565b6000612c91611b7f565b60098101546040519192506001600160a01b03169083156108fc029084906000818181858888f1935050505015801561051e573d6000803e3d6000fd5b6000611de682612ce06009600a614abe565b85919061352e565b6000612cf3836139ba565b90506000612d0084613a07565b805483549192506001600160a01b03908116911603612d2857612d238484613a40565b612eb9565b6000612d32611b7f565b90506000612d3f86613654565b6012830154909150600090612d6690600160801b900463ffffffff16610b0c888888613ac4565b8554600189015460405163083e007560e21b81526001600160a01b0392831660048201529082166024820152604481018990529192508316906320f801d490606401600060405180830381600087803b158015612dc257600080fd5b505af1158015612dd6573d6000803e3d6000fd5b5050505080341015612e2a5760405162461bcd60e51b815260206004820152601960248201527f6e6f7420656e6f7567682066756e64732070726f76696465640000000000000060448201526064016102e6565b612e3381612c87565b80341115611516576001600160a01b03821663677fa232612e54833461429e565b612e5c613902565b6040516001600160e01b031960e085901b1681526001600160a01b0390911660048201526024016000604051808303818588803b158015612e9c57600080fd5b505af1158015612eb0573d6000803e3d6000fd5b50505050505050505b50505050565b6000612ec9613aea565b8115612f33576000836001600160a01b031683620186a090604051600060405180830381858888f193505050503d8060008114612f22576040519150601f19603f3d011682016040523d82523d6000602084013e612f27565b606091505b50909250610202915050565b50600192915050565b612f44613b49565b604051633af32abf60e01b81526001600160a01b0383811660048301529190911690633af32abf90602401602060405180830381865afa158015612f8c573d6000803e3d6000fd5b505050506040513d601f19601f82011682018060405250810190612fb09190614225565b61017f5760405162461bcd60e51b81526020600482015260156024820152741859d95b9d081b9bdd081dda1a5d195b1a5cdd1959605a1b60448201526064016102e6565b6130196040805160608101909152806000815260200160008152602001600081525090565b600061302483613a07565b604080516060810182526001815285548251634ac8eb5f60e01b8152925193945090926020808501936001600160a01b0390931692634ac8eb5f92600480830193928290030181865afa15801561307f573d6000803e3d6000fd5b505050506040513d601f19601f820116820180604052508101906130a39190614aca565b8152602001611dbf83613b67565b6130d66040805160608101909152806000815260200160008152602001600081525090565b60006130e1836139ba565b60408051606081019091526000815281549192509060208201906001600160a01b03166370a0823161311287613654565b6040516001600160e01b031960e084901b1681526001600160a01b039091166004820152602401602060405180830381865afa15801561307f573d6000803e3d6000fd5b61317b6040805160608101909152806000815260200160008152602001600081525090565b8254604080516332f7ce0b60e21b815290516000926001600160a01b03169163cbdf382c9160048083019260209291908290030181865afa1580156131c4573d6000803e3d6000fd5b505050506040513d601f19601f820116820180604052508101906131e89190614ae3565b90506000816001600160a01b03166370a0823161320487613654565b6040516001600160e01b031960e084901b1681526001600160a01b039091166004820152602401602060405180830381865afa158015613248573d6000803e3d6000fd5b505050506040513d601f19601f8201168201806040525081019061326c9190614aca565b90506000826001600160a01b03166318160ddd6040518163ffffffff1660e01b8152600401602060405180830381865afa1580156132ae573d6000803e3d6000fd5b505050506040513d601f19601f820116820180604052508101906132d29190614aca565b9050600085602001516000036132ec578560400151613301565b6020860151604087015161330191849061352e565b60408051606081018252600281526020810195909552840152509095945050505050565b60008061333785600001518585613b7d565b9050600061334a86602001518686613b7d565b9050600061335d87604001518787613b7d565b90506133728361336d8484613bb4565b613bb4565b979650505050505050565b6004820154600090819061339d908490600160481b900461ffff16611f5b565b9050611f048185600401600b9054906101000a900461ffff166138ea565b6000806133c6611b7f565b600c810154909150611de690610b9d90600160901b90046001600160401b0316856142c7565b600080516020614b7e8339815191526000613405611b7f565b600d810154909150600160581b90046001600160401b0316600081900361342c5750505050565b6001820154604080516318160ddd60e01b815290516000926001600160a01b0316916318160ddd9160048083019260209291908290030181865afa158015613478573d6000803e3d6000fd5b505050506040513d601f19601f8201168201806040525081019061349c9190614aca565b905060006134a9826133bb565b600e8601546134c89190600160c01b90046001600160401b03166141f0565b6001600160401b0316905082866001600160401b0316826134e991906143fe565b1115611ad65760405162461bcd60e51b81526020600482015260146024820152731b5a5b9d1a5b99c818d85c08195e18d95959195960621b60448201526064016102e6565b60008082116135725760405162461bcd60e51b815260206004820152601060248201526f4469766973696f6e206279207a65726f60801b60448201526064016102e6565b8360000361358257506000611de6565b83830283858281613595576135956142b1565b04036135b3578281816135aa576135aa6142b1565b04915050611de6565b5060006135c083866142c7565b905060006135ce848761445a565b905060006135dc85876142c7565b905060006135ea868861445a565b9050856135f78285614443565b61360191906142c7565b61360b8385614443565b6136158387614443565b886136208689614443565b61362a9190614443565b61363491906143fe565b61363e91906143fe565b61364891906143fe565b98975050505050505050565b7f5bebac0595fee029d42bb673937f5f1cb81cf8641382bc17774635de9b7d79651860401c90565b60008060008060008061371b886001018054613697906145ad565b80601f01602080910402602001604051908101604052809291908181526020018280546136c3906145ad565b80156137105780601f106136e557610100808354040283529160200191613710565b820191906000526020600020905b8154815290600101906020018083116136f357829003601f168201915b505050505088613bca565b8a549295509093509150600160f01b900460ff161561376257875460009061375190600160a81b900460ff166001838786613c95565b965091945084935061383492505050565b60008060006137fd8b6002018054613779906145ad565b80601f01602080910402602001604051908101604052809291908181526020018280546137a5906145ad565b80156137f25780601f106137c7576101008083540402835291602001916137f2565b820191906000526020600020905b8154815290600101906020018083116137d557829003601f168201915b50505050508b613bca565b8d54929550909350915060009061382190600160a81b900460ff1685848a89613c95565b9950949750909550613834945050505050565b9250925092565b60018201546000906001600160a01b03908116908316811480611f045750613861613b49565b604051631f86345d60e31b81526001600160a01b038381166004830152919091169063fc31a2e890602401602060405180830381865afa1580156138a9573d6000803e3d6000fd5b505050506040513d601f19601f820116820180604052508101906138cd9190614ae3565b6001600160a01b0316836001600160a01b03161491505092915050565b6000611de66138fd8461ffff8516611f5b565b613d19565b7fec7e8c1c441439dd40959777f4c577ea0cd42fcc1dbe59d2bd0f5d9c55df8dc554600080516020614b7e8339815191528054600092829161ffff90911690811061394f5761394f6142f1565b60009182526020909120600490910201546001600160a01b031692915050565b6000826001600160401b0316846001600160401b0316101582906139a65760405162461bcd60e51b81526004016102e69190614b00565b5050506001600160401b0390811691160390565b600080600080516020614b7e83398151915260048401548154919250829161010090910461ffff169081106139f1576139f16142f1565b9060005260206000209060040201915050919050565b600080600080516020614b7e833981519152600484015481549192508291630100000090910461ffff169081106139f1576139f16142f1565b6000613a4a611b7f565b90506000613a5784613654565b9050806001600160a01b031663648d0878613a70613902565b600985015460405160e084901b6001600160e01b03191681526001600160a01b0392831660048201529116602482015260448101869052606401600060405180830381600087803b1580156129e757600080fd5b600080613ad083613b67565b90506000613add85613b67565b90506101e586838361352e565b600080516020614b9e8339815191525460021461058a5760405162461bcd60e51b815260206004820152601f60248201527f5265656e7472616e637947756172643a2067756172642072657175697265640060448201526064016102e6565b600080613b54611b7f565b600701546001600160a01b031692915050565b6000613b7482600061367c565b50909392505050565b600080613b8a8585613d50565b90506000613b99868686613d6d565b905080600003613baa5760006101e5565b6101e581836142c7565b6000818310613bc35781611de6565b5090919050565b600080600080613bd8611b7f565b600a8101549091506001600160a01b03168515613c695760405163e4a0a55b60e01b81526001600160a01b0382169063e4a0a55b90613c1b908a90600401614b00565b606060405180830381865afa158015613c38573d6000803e3d6000fd5b505050506040513d601f19601f82011682018060405250810190613c5c9190614b4f565b9450945094505050613834565b60405163524f388960e01b81526001600160a01b0382169063524f388990613c1b908a90600401614b00565b600080613ca0611b7f565b905060006009613cb0878a6143fe565b613cba91906143fe565b600a830154909150600090613cda908690600160a81b900460ff166143fe565b905080821015613cec57613cec61449e565b613d0c613cf9828461429e565b613d0490600a614abe565b87908a61352e565b9998505050505050505050565b600080613d24611b7f565b600c810154909150613d4690600160901b90046001600160401b03168461445a565b611de6908461429e565b600080613d5d8484613d97565b9050611f04846020015182613ec1565b600080613d78611b7f565b600d81015490915061112890869086906001600160401b031686613edb565b6000806000613daa848660000151613f52565b60058601549193509150600090613dd3906001600160401b03600160401b8204811691166143fe565b90506000613de984610b0c848a60400151612cce565b90506000600188516002811115613e0257613e02614242565b14613e21576005870154600160801b90046001600160401b0316613e37565b6005870154600160c01b90046001600160401b03165b90506000613e5685610b0c846001600160401b03168c60400151612cce565b9050600060018a516002811115613e6f57613e6f614242565b03613e7b576000613e93565b8951613e88908a9061401e565b546001600160801b03165b6001600160801b0316905080613ea983866143fe565b613eb391906143fe565b9a9950505050505050505050565b6000818311613ed1576000611de6565b611de6828461429e565b60008082613eea576000613f13565b6004850154613f139061ffff600160581b8204811691610b0c918891600160481b900416611f5b565b90506000613f2182866143fe565b90506000613f33828960400151612cce565b90506000613f45888a60000151613f52565b509050613d0c8282611f5b565b6000806002836002811115613f6957613f69614242565b03613f96576000613f78611b7f565b600c0154640100000000900463ffffffff1692508291506140179050565b6001836002811115613faa57613faa614242565b03613fe557613fb884613a07565b60030154600485015463ffffffff9182169250613fde91600160881b909104168261406b565b9150614017565b613fee846139ba565b60030154600485015463ffffffff918216925061401491600160681b909104168261406b565b91505b9250929050565b6000600182600281111561403457614034614242565b036140415761404161449e565b600082600281111561405557614055614242565b146140635782600901611de6565b505060080190565b6000818311613bc35781611de6565b60006020828403121561408c57600080fd5b5035919050565b6001600160a01b038116811461017f57600080fd5b60008060008060008060a087890312156140c157600080fd5b86356140cc81614093565b9550602087013594506040870135935060608701356140ea81614093565b925060808701356001600160401b038082111561410657600080fd5b818901915089601f83011261411a57600080fd5b81358181111561412957600080fd5b8a60208260051b850101111561413e57600080fd5b6020830194508093505050509295509295509295565b6000806040838503121561416757600080fd5b82356001600160401b0381111561417d57600080fd5b8301610200818603121561419057600080fd5b946020939093013593505050565b600080604083850312156141b157600080fd5b82356001600160401b038111156141c757600080fd5b8301610160818603121561419057600080fd5b634e487b7160e01b600052601160045260246000fd5b6001600160401b03818116838216019080821115614210576142106141da565b5092915050565b801515811461017f57600080fd5b60006020828403121561423757600080fd5b8151611de681614217565b634e487b7160e01b600052602160045260246000fd5b6001600160401b0381811683821602808216919082811461427b5761427b6141da565b505092915050565b61ffff818116838216019080821115614210576142106141da565b81810381811115610202576102026141da565b634e487b7160e01b600052601260045260246000fd5b6000826142d6576142d66142b1565b500490565b634e487b7160e01b600052604160045260246000fd5b634e487b7160e01b600052603260045260246000fd5b6000808335601e1984360301811261431e57600080fd5b8301803591506001600160401b0382111561433857600080fd5b60200191503681900382131561401757600080fd5b60208082526021908201527f6d696e74657220756e6465726c79696e67206164647265737320696e76616c696040820152601960fa1b606082015260800190565b60208082526023908201527f636f6c6c61746572616c207265736572766174696f6e206e6f7420617070726f6040820152621d995960ea1b606082015260800190565b80356143dc81614217565b919050565b6000602082840312156143f357600080fd5b8135611de681614217565b80820180821115610202576102026141da565b80356001600160401b03811681146143dc57600080fd5b60006020828403121561443a57600080fd5b611de682614411565b8082028115828204841417610202576102026141da565b600082614469576144696142b1565b500690565b600060018201614480576144806141da565b5060010190565b600081614496576144966141da565b506000190190565b634e487b7160e01b600052600160045260246000fd5b81835281816020850137506000828201602090810191909152601f909101601f19169091010190565b6060808252810184905260006080600586901b8301810190830187835b8881101561456d57858403607f190183528135368b9003601e1901811261452057600080fd5b8a0160208181019135906001600160401b0382111561453e57600080fd5b81360383131561454d57600080fd5b6145588783856144b4565b965094850194939093019250506001016144fa565b505050602083018590526001600160801b03841660408401529050611128565b6001600160401b03828116828216039080821115614210576142106141da565b600181811c908216806145c157607f821691505b602082108103611d0157634e487b7160e01b600052602260045260246000fd5b60006101208b835260206001600160801b038c1660208501526001600160401b03808c166040860152808b166060860152808a166080860152508160a0850152600088548160018260011c9150600183168061463e57607f831692505b60208310810361465c57634e487b7160e01b85526022600452602485fd5b9588018281526020019580801561467a5760018114614690576146bb565b60ff198516885283151560051b880195506146bb565b60008e81526020902060005b858110156146b55781548a82015290840190880161469c565b89019650505b505050505060c085018890526001600160a01b03871660e086015292506146e0915050565b826101008301529a9950505050505050505050565b6000808335601e1984360301811261470c57600080fd5b83016020810192503590506001600160401b0381111561472b57600080fd5b8060051b360382131561401757600080fd5b81835260006001600160fb1b0383111561475657600080fd5b8260051b80836020870137939093016020019392505050565b6001600160401b038061478183614411565b1683528061479160208401614411565b166020840152806147a460408401614411565b166040840152505050565b6020815260006147bf83846146f5565b61020060208501526147d66102208501828461473d565b91505060208401356040840152604084013560608401526147f960608501614411565b6001600160401b0380821660808601528061481660808801614411565b1660a08601528061482960a08801614411565b1660c08601528061483c60c08801614411565b1660e086015261484e60e08701614411565b9150610100818316818701526101209250808701358387015250506101408186013581860152610160915080860135828601525061488d8186016143d1565b905061018061489f8186018315159052565b6101a091508086013582860152506148bd6101c0850182870161476f565b509392505050565b61ffff828116828216039080821115614210576142106141da565b6020815260006148f083846146f5565b6101608060208601526149086101808601838561473d565b9250602086013560408601526040860135606086015261492a60608701614411565b91506001600160401b0380831660808701528061494960808901614411565b1660a08701528061495c60a08901614411565b1660c08701528061496f60c08901614411565b1660e087015261010092508061498760e08901614411565b1683870152614997838801614411565b9250610120818416818801526149ae818901614411565b93505061014081841681880152816149c7828a01614411565b1683880152505050508091505092915050565b600181815b80851115614a155781600019048211156149fb576149fb6141da565b80851615614a0857918102915b93841c93908002906149df565b509250929050565b600082614a2c57506001610202565b81614a3957506000610202565b8160018114614a4f5760028114614a5957614a75565b6001915050610202565b60ff841115614a6a57614a6a6141da565b50506001821b610202565b5060208310610133831016604e8410600b8410161715614a98575081810a610202565b614aa283836149da565b8060001904821115614ab657614ab66141da565b029392505050565b6000611de68383614a1d565b600060208284031215614adc57600080fd5b5051919050565b600060208284031215614af557600080fd5b8151611de681614093565b60006020808352835180602085015260005b81811015614b2e57858101830151858201604001528201614b12565b506000604082860101526040601f19601f8301168501019250505092915050565b600080600060608486031215614b6457600080fd5b835192506020840151915060408401519050925092509256feec7e8c1c441439dd40959777f4c577ea0cd42fcc1dbe59d2bd0f5d9c55df8db60cd2207518cd3e5213e2c6dbe63d55b60aa893c194a427b7d7f1600408fd5bdea264697066735822122081107d6eb4f507889d2d71365148e3be162d9580f63f1334b5bdf04217183ece64736f6c63430008170033",
  "linkReferences": {},
  "deployedLinkReferences": {}
}