{
  "_format": "hh-sol-artifact-1",
  "contractName": "CollateralReservationsFacet",
  "sourceName": "contracts/assetManager/facets/CollateralReservationsFacet.sol",
  "abi": [
    {
      "inputs": [],
      "name": "AgentNotInMintQueue",
      "type": "error"
    },
    {
      "inputs": [],
      "name": "AgentNotWhitelisted",
      "type": "error"
    },
    {
      "inputs": [],
      "name": "AgentsFeeTooHigh",
      "type": "error"
    },
    {
      "inputs": [],
      "name": "CannotMintZeroLots",
      "type": "error"
    },
    {
      "inputs": [],
      "name": "DivisionByZero",
      "type": "error"
    },
    {
      "inputs": [],
      "name": "EmergencyPauseActive",
      "type": "error"
    },
    {
      "inputs": [],
      "name": "InappropriateFeeAmount",
      "type": "error"
    },
    {
      "inputs": [],
      "name": "InvalidAgentStatus",
      "type": "error"
    },
    {
      "inputs": [],
      "name": "InvalidAgentVaultAddress",
      "type": "error"
    },
    {
      "inputs": [],
      "name": "MintingCapExceeded",
      "type": "error"
    },
    {
      "inputs": [],
      "name": "MintingPaused",
      "type": "error"
    },
    {
      "inputs": [],
      "name": "NotAttached",
      "type": "error"
    },
    {
      "inputs": [],
      "name": "NotEnoughFreeCollateral",
      "type": "error"
    },
    {
      "inputs": [],
      "name": "NotWhitelisted",
      "type": "error"
    },
    {
      "inputs": [],
      "name": "OnlyAssetManagerController",
      "type": "error"
    },
    {
      "inputs": [],
      "name": "ReentrancyGuardReentrantCall",
      "type": "error"
    },
    {
      "inputs": [],
      "name": "ReentrancyGuardRequired",
      "type": "error"
    },
    {
      "inputs": [],
      "name": "TransferFailed",
      "type": "error"
    },
    {
      "anonymous": false,
      "inputs": [
        {
          "indexed": true,
          "internalType": "address",
          "name": "agentVault",
          "type": "address"
        },
        {
          "indexed": true,
          "internalType": "address",
          "name": "minter",
          "type": "address"
        },
        {
          "indexed": true,
          "internalType": "uint256",
          "name": "collateralReservationId",
          "type": "uint256"
        },
        {
          "indexed": false,
          "internalType": "uint256",
          "name": "valueUBA",
          "type": "uint256"
        },
        {
          "indexed": false,
          "internalType": "uint256",
          "name": "feeUBA",
          "type": "uint256"
        },
        {
          "indexed": false,
          "internalType": "uint256",
          "name": "firstUnderlyingBlock",
          "type": "uint256"
        },
        {
          "indexed": false,
          "internalType": "uint256",
          "name": "lastUnderlyingBlock",
          "type": "uint256"
        },
        {
          "indexed": false,
          "internalType": "uint256",
          "name": "lastUnderlyingTimestamp",
          "type": "uint256"
        },
        {
          "indexed": false,
          "internalType": "string",
          "name": "paymentAddress",
          "type": "string"
        },
        {
          "indexed": false,
          "internalType": "bytes32",
          "name": "paymentReference",
          "type": "bytes32"
        },
        {
          "indexed": false,
          "internalType": "address",
          "name": "executor",
          "type": "address"
        },
        {
          "indexed": false,
          "internalType": "uint256",
          "name": "executorFeeNatWei",
          "type": "uint256"
        }
      ],
      "name": "CollateralReserved",
      "type": "event"
    },
    {
      "inputs": [
        {
          "internalType": "uint256",
          "name": "_lots",
          "type": "uint256"
        }
      ],
      "name": "collateralReservationFee",
      "outputs": [
        {
          "internalType": "uint256",
          "name": "_reservationFeeNATWei",
          "type": "uint256"
        }
      ],
      "stateMutability": "view",
      "type": "function"
    },
    {
      "inputs": [
        {
          "internalType": "address",
          "name": "_agentVault",
          "type": "address"
        },
        {
          "internalType": "uint256",
          "name": "_lots",
          "type": "uint256"
        },
        {
          "internalType": "uint256",
          "name": "_maxMintingFeeBIPS",
          "type": "uint256"
        },
        {
          "internalType": "address payable",
          "name": "_executor",
          "type": "address"
        }
      ],
      "name": "reserveCollateral",
      "outputs": [
        {
          "internalType": "uint256",
          "name": "_collateralReservationId",
          "type": "uint256"
        }
      ],
      "stateMutability": "payable",
      "type": "function"
    }
  ],
  "bytecode": "0x6080604052348015600f57600080fd5b506124628061001f6000396000f3fe6080604052600436106100295760003560e01c8063275a7bfc1461002e578063368a359314610053575b600080fd5b61004161003c366004611f07565b610073565b60405190815260200160405180910390f35b34801561005f57600080fd5b5061004161006e366004611f51565b61074b565b600061007d6107a3565b6100856107ee565b61008d610854565b60006100988661089e565b90506100a381610927565b60006100ae8261093e565b7fec7e8c1c441439dd40959777f4c577ea0cd42fcc1dbe59d2bd0f5d9c55df8dc6549091506000805160206123ed833981519152906001600160401b03161561010a576040516375ab03ab60e11b815260040160405180910390fd5b600483015465010000000000900463ffffffff161515806101335750610133600d8401336109e8565b6101505760405163082f445360e31b815260040160405180910390fd5b60008711610171576040516359ed140d60e01b815260040160405180910390fd5b6001600484015460ff16600581111561018c5761018c611f6a565b146101aa5760405163aa2b63b360e01b815260040160405180910390fd5b866101b58385610a0f565b10156101d45760405163d78c667760e01b815260040160405180910390fd5b6004830154600160481b900461ffff1686101561020457604051631e1b74ed60e11b815260040160405180910390fd5b600061020f88610a1d565b905061022e8461021f8684610a70565b6102299084611f96565b610a9e565b600484015460009065010000000000900463ffffffff168103610252576000610264565b61026484602001516040015183610b49565b90508034101561028757604051632162c18960e11b815260040160405180910390fd5b61028f610b89565b600e840180546000906102ac9084906001600160401b0316611f96565b82546001600160401b0391821661010093840a9081029083021990911617909255600e860154604080516101a081018252600060208201819052918101829052606081018290526080810182905260a0810182905260c0810182905260e081018290529283018190526101208301819052610140830181905261016083018190526101808301528583168252600489015492169250906103699061036490600160481b900461ffff1661035e87610ba7565b90610be8565b610bf7565b6001600160801b0316608082015261038083610bf7565b6001600160801b031660a082015260048701546103a990600160581b900461ffff166001611fb5565b61ffff1660e08201526001600160a01b03808d1660c083015233610100830152891615610411576001600160a01b038916610120820152610401633b9aca006103f28534611fcf565b6103fc9190611ff8565b610c69565b6001600160401b03166101408201525b60008061041c610cd1565b9150915086600f0160029054906101000a90046001600160401b031683602001906001600160401b031690816001600160401b0316815250508183604001906001600160401b031690816001600160401b0316815250508083606001906001600160401b031690816001600160401b0316815250508287600601600086815260200190815260200160002060008201518160000160006101000a8154816001600160401b0302191690836001600160401b0316021790555060208201518160000160086101000a8154816001600160401b0302191690836001600160401b0316021790555060408201518160000160106101000a8154816001600160401b0302191690836001600160401b0316021790555060608201518160000160186101000a8154816001600160401b0302191690836001600160401b0316021790555060808201518160010160006101000a8154816001600160801b0302191690836001600160801b0316021790555060a08201518160010160106101000a8154816001600160801b0302191690836001600160801b0316021790555060c08201518160020160006101000a8154816001600160a01b0302191690836001600160a01b0316021790555060e08201518160020160146101000a81548161ffff021916908361ffff1602179055506101008201518160030160006101000a8154816001600160a01b0302191690836001600160a01b031602179055506101208201518160040160006101000a8154816001600160a01b0302191690836001600160a01b031602179055506101408201518160040160146101000a8154816001600160401b0302191690836001600160401b031602179055506101608201518160050160006101000a8154816001600160401b0302191690836001600160401b0316021790555061018082015181600601559050506106d6898486610de3565b6101208301516001600160a01b03161580156106f157508434115b1561070f5761010083015161070f9061070a8734611fcf565b610eab565b509197505050505050505061074360017f0cd2207518cd3e5213e2c6dbe63d55b60aa893c194a427b7d7f1600408fd5bde55565b949350505050565b7fec7e8c1c441439dd40959777f4c577ea0cd42fcc1dbe59d2bd0f5d9c55df8dc5546000906000805160206123ed83398151915290829061078f9061ffff16610f39565b90506107438161079e86610a1d565b610b49565b7fec7e8c1c441439dd40959777f4c577ea0cd42fcc1dbe59d2bd0f5d9c55df8dc754600160881b900460ff166107ec57604051630d6e7efb60e41b815260040160405180910390fd5b565b7fec7e8c1c441439dd40959777f4c577ea0cd42fcc1dbe59d2bd0f5d9c55df8dc6546000805160206123ed8339815191529042600160401b9091046001600160401b031611156108515760405163909b191760e01b815260040160405180910390fd5b50565b7f0cd2207518cd3e5213e2c6dbe63d55b60aa893c194a427b7d7f1600408fd5bde80546001190161089857604051633ee5aeb560e01b815260040160405180910390fd5b60029055565b604081901b68010000000000000000600160e01b03166000805160206123cd8339815191521860048101546000919060ff16828160058111156108e3576108e3611f6a565b141580156109035750600581600581111561090057610900611f6a565b14155b6109205760405163d68a46c560e01b815260040160405180910390fd5b5092915050565b6001810154610851906001600160a01b0316610f84565b6109a96040805160c081019091526000606082018181526080830182905260a083019190915281908152604080516060810182526000808252602082810182905292820152910190815260408051606081018252600080825260208281018290529282015291015290565b60006109b483611038565b905060405180606001604052806109ca856110f5565b81526020018281526020016109df85846111a6565b90529392505050565b6001600160a01b038116600090815260018301602052604081205415155b90505b92915050565b6000610a0683836001611380565b7f4f24f5c433db0962dac0d2c8b84197a6e6c7cc4e5d9ebe1916a1b6193da2f347546000906000805160206123ad83398151915290610a69906103fc906001600160401b03168561200c565b9392505050565b600080610a7c83610ba7565b90506000610a8a85836113d8565b9050610a9581611416565b95945050505050565b6000805160206123ed833981519152610ab682611457565b600583018054839190600090610ad69084906001600160401b0316611f96565b92506101000a8154816001600160401b0302191690836001600160401b031602179055508181600e0160188282829054906101000a90046001600160401b0316610b209190611f96565b92506101000a8154816001600160401b0302191690836001600160401b03160217905550505050565b600080610b5f836001600160401b03168561159c565b90506107436000805160206123ad833981519152600c01548290600160401b900461ffff16610be8565b6000610b976103e843612023565b610ba2906001612037565b905090565b60008051602061240d833981519152546000906000805160206123ad83398151915290610a6990600160901b90046001600160401b0390811690851661200c565b6000610a0683836127106115b2565b60006001600160801b03821115610c655760405162461bcd60e51b815260206004820152602760248201527f53616665436173743a2076616c756520646f65736e27742066697420696e20316044820152663238206269747360c81b60648201526084015b60405180910390fd5b5090565b60006001600160401b03821115610c655760405162461bcd60e51b815260206004820152602660248201527f53616665436173743a2076616c756520646f65736e27742066697420696e203660448201526534206269747360d01b6064820152608401610c5c565b7fec7e8c1c441439dd40959777f4c577ea0cd42fcc1dbe59d2bd0f5d9c55df8dc55460009081906000805160206123ed833981519152906000805160206123ad833981519152908390600160901b90046001600160401b0316610d3342610c69565b610d3d919061204a565b600c830154909150600090610d679063ffffffff166103f26001600160401b0385166103e861200c565b600d840154600f8601549192506001600160401b03600160981b909104811691610d9991849162010000900416611f96565b610da39190611f96565b600e840154600f8601549197506001600160401b0390811691610dcf918591600160501b900416611f96565b610dd99190611f96565b9450505050509091565b808261010001516001600160a01b0316610e0d856000805160206123cd8339815191521860401c90565b6001600160a01b03167f7e28eb3b9a2077a4fa0559357b1647ec5eabf18d7adf1539c4e8fb1445a5fc09610e448660000151610ba7565b86608001518760200151886040015189606001518b600201610e658b6116b6565b8c6101200151633b9aca008e61014001516001600160401b0316610e89919061200c565b604051610e9e999897969594939291906120a3565b60405180910390a4505050565b610eb36116e0565b8015610f35576000826001600160a01b031682620186a090604051600060405180830381858888f193505050503d8060008114610f0c576040519150601f19603f3d011682016040523d82523d6000602084013e610f11565b606091505b5050905080610f33576040516312171d8360e31b815260040160405180910390fd5b505b5050565b6000806000805160206123ed8339815191529050610f7a816000018481548110610f6557610f656121b9565b90600052602060002090600402016000611722565b5090949350505050565b7f4f24f5c433db0962dac0d2c8b84197a6e6c7cc4e5d9ebe1916a1b6193da2f341546001600160a01b0316604051633af32abf60e01b81526001600160a01b0383811660048301529190911690633af32abf90602401602060405180830381865afa158015610ff7573d6000803e3d6000fd5b505050506040513d601f19601f8201168201806040525081019061101b91906121cf565b61085157604051631408f3ef60e31b815260040160405180910390fd5b61105d6040805160608101909152806000815260200160008152602001600081525090565b6000611068836118e1565b604080516060810182526001815285548251634ac8eb5f60e01b8152925193945090926020808501936001600160a01b0390931692634ac8eb5f92600480830193928290030181865afa1580156110c3573d6000803e3d6000fd5b505050506040513d601f19601f820116820180604052508101906110e791906121f1565b81526020016109df83611930565b61111a6040805160608101909152806000815260200160008152602001600081525090565b600061112583611946565b6040805160608101909152909150806000815282546020909101906001600160a01b03166370a082316000805160206123cd833981519152871860401c6040516001600160e01b031960e084901b1681526001600160a01b039091166004820152602401602060405180830381865afa1580156110c3573d6000803e3d6000fd5b6111cb6040805160608101909152806000815260200160008152602001600081525090565b8254604080516332f7ce0b60e21b815290516000926001600160a01b03169163cbdf382c9160048083019260209291908290030181865afa158015611214573d6000803e3d6000fd5b505050506040513d601f19601f82011682018060405250810190611238919061220a565b905060006001600160a01b0382166370a082316000805160206123cd833981519152871860401c6040516001600160e01b031960e084901b1681526001600160a01b039091166004820152602401602060405180830381865afa1580156112a3573d6000803e3d6000fd5b505050506040513d601f19601f820116820180604052508101906112c791906121f1565b90506000826001600160a01b03166318160ddd6040518163ffffffff1660e01b8152600401602060405180830381865afa158015611309573d6000803e3d6000fd5b505050506040513d601f19601f8201168201806040525081019061132d91906121f1565b90506000856020015160000361134757856040015161135c565b6020860151604087015161135c9184906115b2565b60408051606081018252600281526020810195909552840152509095945050505050565b6000806113928560000151858561197d565b905060006113a58660200151868661197d565b905060006113b88760400151878761197d565b90506113cd836113c884846119be565b6119be565b979650505050505050565b600482015460009081906113f8908490600160481b900461ffff16610be8565b90506107438185600401600b9054906101000a900461ffff166119d4565b60008051602061240d833981519152546000906000805160206123ad83398151915290610a69906103fc90600160901b90046001600160401b031685611ff8565b7f4f24f5c433db0962dac0d2c8b84197a6e6c7cc4e5d9ebe1916a1b6193da2f347546000805160206123ed833981519152906000805160206123ad83398151915290600160581b90046001600160401b031660008190036114b85750505050565b6001820154604080516318160ddd60e01b815290516000926001600160a01b0316916318160ddd9160048083019260209291908290030181865afa158015611504573d6000803e3d6000fd5b505050506040513d601f19601f8201168201806040525081019061152891906121f1565b9050600061153582611416565b600e8601546115549190600160c01b90046001600160401b0316611f96565b6001600160401b0316905082866001600160401b0316826115759190612037565b11156115945760405163c4d282e360e01b815260040160405180910390fd5b505050505050565b6000610a06826115ae6009600a61230e565b8591905b60008082116115d4576040516323d359a360e01b815260040160405180910390fd5b836000036115e457506000610a69565b838302838582816115f7576115f7611fe2565b04036116155782818161160c5761160c611fe2565b04915050610a69565b5060006116228386611ff8565b905060006116308487612023565b9050600061163e8587611ff8565b9050600061164c8688612023565b905085611659828561200c565b6116639190611ff8565b61166d838561200c565b611677838761200c565b88611682868961200c565b61168c919061200c565b6116969190612037565b6116a09190612037565b6116aa9190612037565b98975050505050505050565b60006001600160401b038211156116cf576116cf61231a565b5067464250526641000160c01b1790565b7f0cd2207518cd3e5213e2c6dbe63d55b60aa893c194a427b7d7f1600408fd5bde546002146107ec57604051635bff566960e01b815260040160405180910390fd5b6000806000806000806117c188600101805461173d90612069565b80601f016020809104026020016040519081016040528092919081815260200182805461176990612069565b80156117b65780601f1061178b576101008083540402835291602001916117b6565b820191906000526020600020905b81548152906001019060200180831161179957829003601f168201915b5050505050886119ec565b8a549295509093509150600160f01b900460ff16156118085787546000906117f790600160a81b900460ff166001838786611ada565b96509194508493506118da92505050565b60008060006118a38b600201805461181f90612069565b80601f016020809104026020016040519081016040528092919081815260200182805461184b90612069565b80156118985780601f1061186d57610100808354040283529160200191611898565b820191906000526020600020905b81548152906001019060200180831161187b57829003601f168201915b50505050508b6119ec565b8d5492955090935091506000906118c790600160a81b900460ff1685848a89611ada565b99509497509095506118da945050505050565b9250925092565b6000806000805160206123ed833981519152600484015481549192508291630100000090910461ffff1690811061191a5761191a6121b9565b9060005260206000209060040201915050919050565b600061193d826000611722565b50909392505050565b6000806000805160206123ed83398151915260048401548154919250829161010090910461ffff1690811061191a5761191a6121b9565b60008061198a8585611b61565b90506000611999868686611b7e565b9050806000036119aa5760006119b4565b6119b48183611ff8565b9695505050505050565b60008183106119cd5781610a06565b5090919050565b6000610a066119e78461ffff8516610be8565b611bca565b7f4f24f5c433db0962dac0d2c8b84197a6e6c7cc4e5d9ebe1916a1b6193da2f34454600090819081906000805160206123ad833981519152906001600160a01b03168515611aae5760405163e4a0a55b60e01b81526001600160a01b0382169063e4a0a55b90611a60908a90600401612330565b606060405180830381865afa158015611a7d573d6000803e3d6000fd5b505050506040513d601f19601f82011682018060405250810190611aa1919061237e565b94509450945050506118da565b60405163524f388960e01b81526001600160a01b0382169063524f388990611a60908a90600401612330565b60006000805160206123ad833981519152816009611af8878a612037565b611b029190612037565b600a830154909150600090611b22908690600160a81b900460ff16612037565b905080821015611b3457611b3461231a565b611b54611b418284611fcf565b611b4c90600a61230e565b87908a6115b2565b9998505050505050505050565b600080611b6e8484611c11565b9050610743846020015182611d3b565b7f4f24f5c433db0962dac0d2c8b84197a6e6c7cc4e5d9ebe1916a1b6193da2f347546000906000805160206123ad83398151915290610a9590869086906001600160401b031686611d55565b60008051602061240d833981519152546000906000805160206123ad83398151915290611c0790600160901b90046001600160401b031684612023565b610a699084611fcf565b6000806000611c24848660000151611dcc565b60058601549193509150600090611c4d906001600160401b03600160401b820481169116612037565b90506000611c638461035e848a6040015161159c565b90506000600188516002811115611c7c57611c7c611f6a565b14611c9b576005870154600160801b90046001600160401b0316611cb1565b6005870154600160c01b90046001600160401b03165b90506000611cd08561035e846001600160401b03168c6040015161159c565b9050600060018a516002811115611ce957611ce9611f6a565b03611cf5576000611d0d565b8951611d02908a90611e96565b546001600160801b03165b6001600160801b0316905080611d238386612037565b611d2d9190612037565b9a9950505050505050505050565b6000818311611d4b576000610a06565b610a068284611fcf565b60008082611d64576000611d8d565b6004850154611d8d9061ffff600160581b820481169161035e918891600160481b900416610be8565b90506000611d9b8286612037565b90506000611dad82896040015161159c565b90506000611dbf888a60000151611dcc565b509050611b548282610be8565b6000806002836002811115611de357611de3611f6a565b03611e0e57505060008051602061240d83398151915254640100000000900463ffffffff1680611e8f565b6001836002811115611e2257611e22611f6a565b03611e5d57611e30846118e1565b60030154600485015463ffffffff9182169250611e5691600160881b9091041682611ee3565b9150611e8f565b611e6684611946565b60030154600485015463ffffffff9182169250611e8c91600160681b9091041682611ee3565b91505b9250929050565b60006001826002811115611eac57611eac611f6a565b03611eb957611eb961231a565b6000826002811115611ecd57611ecd611f6a565b14611edb5782600901610a06565b505060080190565b60008183116119cd5781610a06565b6001600160a01b038116811461085157600080fd5b60008060008060808587031215611f1d57600080fd5b8435611f2881611ef2565b935060208501359250604085013591506060850135611f4681611ef2565b939692955090935050565b600060208284031215611f6357600080fd5b5035919050565b634e487b7160e01b600052602160045260246000fd5b634e487b7160e01b600052601160045260246000fd5b6001600160401b038181168382160190811115610a0957610a09611f80565b61ffff8181168382160190811115610a0957610a09611f80565b81810381811115610a0957610a09611f80565b634e487b7160e01b600052601260045260246000fd5b60008261200757612007611fe2565b500490565b8082028115828204841417610a0957610a09611f80565b60008261203257612032611fe2565b500690565b80820180821115610a0957610a09611f80565b6001600160401b038281168282160390811115610a0957610a09611f80565b600181811c9082168061207d57607f821691505b60208210810361209d57634e487b7160e01b600052602260045260246000fd5b50919050565b8981526001600160801b03891660208201526001600160401b03881660408201526001600160401b03871660608201526001600160401b038616608082015261012060a08201526000808654818160011c9050600182168061210657607f821691505b60208210810361212457634e487b7160e01b84526022600452602484fd5b61012086018290526101408601818015612145576001811461215b57612189565b60ff198516825283151560051b82019550612189565b60008c81526020902060005b8581101561218357815484820152600190910190602001612167565b83019650505b505050505060c0830195909552506001600160a01b039290921660e0830152610100909101529695505050505050565b634e487b7160e01b600052603260045260246000fd5b6000602082840312156121e157600080fd5b81518015158114610a6957600080fd5b60006020828403121561220357600080fd5b5051919050565b60006020828403121561221c57600080fd5b8151610a6981611ef2565b6001815b60018411156122625780850481111561224657612246611f80565b600184161561225457908102905b60019390931c92800261222b565b935093915050565b60008261227957506001610a09565b8161228657506000610a09565b816001811461229c57600281146122a6576122c2565b6001915050610a09565b60ff8411156122b7576122b7611f80565b50506001821b610a09565b5060208310610133831016604e8410600b84101617156122e5575081810a610a09565b6122f26000198484612227565b806000190482111561230657612306611f80565b029392505050565b6000610a06838361226a565b634e487b7160e01b600052600160045260246000fd5b602081526000825180602084015260005b8181101561235e5760208186018101516040868401015201612341565b506000604082850101526040601f19601f83011684010191505092915050565b60008060006060848603121561239357600080fd5b505081516020830151604090930151909492935091905056fe4f24f5c433db0962dac0d2c8b84197a6e6c7cc4e5d9ebe1916a1b6193da2f33a5bebac0595fee029d42bb673937f5f1cb81cf8641382bc17774635de9b7d7965ec7e8c1c441439dd40959777f4c577ea0cd42fcc1dbe59d2bd0f5d9c55df8db64f24f5c433db0962dac0d2c8b84197a6e6c7cc4e5d9ebe1916a1b6193da2f346a2646970667358221220c5047dd053b3a1d97c2b6abfbfac0bf5d1e95751cc91b36f3f345e70ca8a006c64736f6c634300081b0033",
  "linkReferences": {},
  "deployedLinkReferences": {}
}