{
  "_format": "hh-sol-artifact-1",
  "contractName": "CollateralReservationsFacet",
  "sourceName": "contracts/assetManager/facets/CollateralReservationsFacet.sol",
  "abi": [
    {
      "anonymous": false,
      "inputs": [
        {
          "indexed": true,
          "internalType": "address",
          "name": "agentVault",
          "type": "address"
        },
        {
          "indexed": true,
          "internalType": "address",
          "name": "minter",
          "type": "address"
        },
        {
          "indexed": true,
          "internalType": "uint256",
          "name": "collateralReservationId",
          "type": "uint256"
        }
      ],
      "name": "CollateralReservationCancelled",
      "type": "event"
    },
    {
      "anonymous": false,
      "inputs": [
        {
          "indexed": true,
          "internalType": "address",
          "name": "agentVault",
          "type": "address"
        },
        {
          "indexed": true,
          "internalType": "address",
          "name": "minter",
          "type": "address"
        },
        {
          "indexed": true,
          "internalType": "uint256",
          "name": "collateralReservationId",
          "type": "uint256"
        },
        {
          "indexed": false,
          "internalType": "uint256",
          "name": "reservedAmountUBA",
          "type": "uint256"
        }
      ],
      "name": "CollateralReservationDeleted",
      "type": "event"
    },
    {
      "anonymous": false,
      "inputs": [
        {
          "indexed": true,
          "internalType": "address",
          "name": "agentVault",
          "type": "address"
        },
        {
          "indexed": true,
          "internalType": "address",
          "name": "minter",
          "type": "address"
        },
        {
          "indexed": true,
          "internalType": "uint256",
          "name": "collateralReservationId",
          "type": "uint256"
        }
      ],
      "name": "CollateralReservationRejected",
      "type": "event"
    },
    {
      "anonymous": false,
      "inputs": [
        {
          "indexed": true,
          "internalType": "address",
          "name": "agentVault",
          "type": "address"
        },
        {
          "indexed": true,
          "internalType": "address",
          "name": "minter",
          "type": "address"
        },
        {
          "indexed": true,
          "internalType": "uint256",
          "name": "collateralReservationId",
          "type": "uint256"
        },
        {
          "indexed": false,
          "internalType": "uint256",
          "name": "valueUBA",
          "type": "uint256"
        },
        {
          "indexed": false,
          "internalType": "uint256",
          "name": "feeUBA",
          "type": "uint256"
        },
        {
          "indexed": false,
          "internalType": "uint256",
          "name": "firstUnderlyingBlock",
          "type": "uint256"
        },
        {
          "indexed": false,
          "internalType": "uint256",
          "name": "lastUnderlyingBlock",
          "type": "uint256"
        },
        {
          "indexed": false,
          "internalType": "uint256",
          "name": "lastUnderlyingTimestamp",
          "type": "uint256"
        },
        {
          "indexed": false,
          "internalType": "string",
          "name": "paymentAddress",
          "type": "string"
        },
        {
          "indexed": false,
          "internalType": "bytes32",
          "name": "paymentReference",
          "type": "bytes32"
        },
        {
          "indexed": false,
          "internalType": "address",
          "name": "executor",
          "type": "address"
        },
        {
          "indexed": false,
          "internalType": "uint256",
          "name": "executorFeeNatWei",
          "type": "uint256"
        }
      ],
      "name": "CollateralReserved",
      "type": "event"
    },
    {
      "anonymous": false,
      "inputs": [
        {
          "indexed": true,
          "internalType": "address",
          "name": "agentVault",
          "type": "address"
        },
        {
          "indexed": true,
          "internalType": "address",
          "name": "minter",
          "type": "address"
        },
        {
          "indexed": true,
          "internalType": "uint256",
          "name": "collateralReservationId",
          "type": "uint256"
        },
        {
          "indexed": false,
          "internalType": "string[]",
          "name": "minterUnderlyingAddresses",
          "type": "string[]"
        },
        {
          "indexed": false,
          "internalType": "uint256",
          "name": "valueUBA",
          "type": "uint256"
        },
        {
          "indexed": false,
          "internalType": "uint256",
          "name": "feeUBA",
          "type": "uint256"
        }
      ],
      "name": "HandshakeRequired",
      "type": "event"
    },
    {
      "anonymous": false,
      "inputs": [
        {
          "indexed": true,
          "internalType": "address",
          "name": "agentVault",
          "type": "address"
        },
        {
          "indexed": true,
          "internalType": "address",
          "name": "minter",
          "type": "address"
        },
        {
          "indexed": true,
          "internalType": "uint256",
          "name": "collateralReservationId",
          "type": "uint256"
        },
        {
          "indexed": false,
          "internalType": "uint256",
          "name": "reservedAmountUBA",
          "type": "uint256"
        }
      ],
      "name": "MintingPaymentDefault",
      "type": "event"
    },
    {
      "inputs": [
        {
          "internalType": "uint256",
          "name": "_collateralReservationId",
          "type": "uint256"
        }
      ],
      "name": "approveCollateralReservation",
      "outputs": [],
      "stateMutability": "nonpayable",
      "type": "function"
    },
    {
      "inputs": [
        {
          "internalType": "uint256",
          "name": "_collateralReservationId",
          "type": "uint256"
        }
      ],
      "name": "cancelCollateralReservation",
      "outputs": [],
      "stateMutability": "nonpayable",
      "type": "function"
    },
    {
      "inputs": [
        {
          "internalType": "uint256",
          "name": "_lots",
          "type": "uint256"
        }
      ],
      "name": "collateralReservationFee",
      "outputs": [
        {
          "internalType": "uint256",
          "name": "_reservationFeeNATWei",
          "type": "uint256"
        }
      ],
      "stateMutability": "view",
      "type": "function"
    },
    {
      "inputs": [
        {
          "components": [
            {
              "internalType": "bytes32[]",
              "name": "merkleProof",
              "type": "bytes32[]"
            },
            {
              "components": [
                {
                  "internalType": "bytes32",
                  "name": "attestationType",
                  "type": "bytes32"
                },
                {
                  "internalType": "bytes32",
                  "name": "sourceId",
                  "type": "bytes32"
                },
                {
                  "internalType": "uint64",
                  "name": "votingRound",
                  "type": "uint64"
                },
                {
                  "internalType": "uint64",
                  "name": "lowestUsedTimestamp",
                  "type": "uint64"
                },
                {
                  "components": [
                    {
                      "internalType": "uint64",
                      "name": "minimalBlockNumber",
                      "type": "uint64"
                    },
                    {
                      "internalType": "uint64",
                      "name": "deadlineBlockNumber",
                      "type": "uint64"
                    },
                    {
                      "internalType": "uint64",
                      "name": "deadlineTimestamp",
                      "type": "uint64"
                    },
                    {
                      "internalType": "bytes32",
                      "name": "destinationAddressHash",
                      "type": "bytes32"
                    },
                    {
                      "internalType": "uint256",
                      "name": "amount",
                      "type": "uint256"
                    },
                    {
                      "internalType": "bytes32",
                      "name": "standardPaymentReference",
                      "type": "bytes32"
                    },
                    {
                      "internalType": "bool",
                      "name": "checkSourceAddresses",
                      "type": "bool"
                    },
                    {
                      "internalType": "bytes32",
                      "name": "sourceAddressesRoot",
                      "type": "bytes32"
                    }
                  ],
                  "internalType": "struct IReferencedPaymentNonexistence.RequestBody",
                  "name": "requestBody",
                  "type": "tuple"
                },
                {
                  "components": [
                    {
                      "internalType": "uint64",
                      "name": "minimalBlockTimestamp",
                      "type": "uint64"
                    },
                    {
                      "internalType": "uint64",
                      "name": "firstOverflowBlockNumber",
                      "type": "uint64"
                    },
                    {
                      "internalType": "uint64",
                      "name": "firstOverflowBlockTimestamp",
                      "type": "uint64"
                    }
                  ],
                  "internalType": "struct IReferencedPaymentNonexistence.ResponseBody",
                  "name": "responseBody",
                  "type": "tuple"
                }
              ],
              "internalType": "struct IReferencedPaymentNonexistence.Response",
              "name": "data",
              "type": "tuple"
            }
          ],
          "internalType": "struct IReferencedPaymentNonexistence.Proof",
          "name": "_proof",
          "type": "tuple"
        },
        {
          "internalType": "uint256",
          "name": "_collateralReservationId",
          "type": "uint256"
        }
      ],
      "name": "mintingPaymentDefault",
      "outputs": [],
      "stateMutability": "nonpayable",
      "type": "function"
    },
    {
      "inputs": [
        {
          "internalType": "uint256",
          "name": "_collateralReservationId",
          "type": "uint256"
        }
      ],
      "name": "rejectCollateralReservation",
      "outputs": [],
      "stateMutability": "nonpayable",
      "type": "function"
    },
    {
      "inputs": [
        {
          "internalType": "address",
          "name": "_agentVault",
          "type": "address"
        },
        {
          "internalType": "uint256",
          "name": "_lots",
          "type": "uint256"
        },
        {
          "internalType": "uint256",
          "name": "_maxMintingFeeBIPS",
          "type": "uint256"
        },
        {
          "internalType": "address payable",
          "name": "_executor",
          "type": "address"
        },
        {
          "internalType": "string[]",
          "name": "_minterUnderlyingAddresses",
          "type": "string[]"
        }
      ],
      "name": "reserveCollateral",
      "outputs": [],
      "stateMutability": "payable",
      "type": "function"
    },
    {
      "inputs": [
        {
          "components": [
            {
              "internalType": "bytes32[]",
              "name": "merkleProof",
              "type": "bytes32[]"
            },
            {
              "components": [
                {
                  "internalType": "bytes32",
                  "name": "attestationType",
                  "type": "bytes32"
                },
                {
                  "internalType": "bytes32",
                  "name": "sourceId",
                  "type": "bytes32"
                },
                {
                  "internalType": "uint64",
                  "name": "votingRound",
                  "type": "uint64"
                },
                {
                  "internalType": "uint64",
                  "name": "lowestUsedTimestamp",
                  "type": "uint64"
                },
                {
                  "components": [
                    {
                      "internalType": "uint64",
                      "name": "blockNumber",
                      "type": "uint64"
                    },
                    {
                      "internalType": "uint64",
                      "name": "queryWindow",
                      "type": "uint64"
                    }
                  ],
                  "internalType": "struct IConfirmedBlockHeightExists.RequestBody",
                  "name": "requestBody",
                  "type": "tuple"
                },
                {
                  "components": [
                    {
                      "internalType": "uint64",
                      "name": "blockTimestamp",
                      "type": "uint64"
                    },
                    {
                      "internalType": "uint64",
                      "name": "numberOfConfirmations",
                      "type": "uint64"
                    },
                    {
                      "internalType": "uint64",
                      "name": "lowestQueryWindowBlockNumber",
                      "type": "uint64"
                    },
                    {
                      "internalType": "uint64",
                      "name": "lowestQueryWindowBlockTimestamp",
                      "type": "uint64"
                    }
                  ],
                  "internalType": "struct IConfirmedBlockHeightExists.ResponseBody",
                  "name": "responseBody",
                  "type": "tuple"
                }
              ],
              "internalType": "struct IConfirmedBlockHeightExists.Response",
              "name": "data",
              "type": "tuple"
            }
          ],
          "internalType": "struct IConfirmedBlockHeightExists.Proof",
          "name": "_proof",
          "type": "tuple"
        },
        {
          "internalType": "uint256",
          "name": "_collateralReservationId",
          "type": "uint256"
        }
      ],
      "name": "unstickMinting",
      "outputs": [],
      "stateMutability": "payable",
      "type": "function"
    }
  ],
  "bytecode": "0x608060405234801561001057600080fd5b50614bde806100206000396000f3fe6080604052600436106100705760003560e01c806369bd4e811161004e57806369bd4e81146100dc57806384807e8d146100fc578063b3efcbfa1461010f578063b5a051c71461012f57600080fd5b8063058517b5146100755780631a7b5ff714610097578063368a3593146100aa575b600080fd5b34801561008157600080fd5b50610095610090366004614065565b61014f565b005b6100956100a5366004614093565b610182565b3480156100b657600080fd5b506100ca6100c5366004614065565b6101e0565b60405190815260200160405180910390f35b3480156100e857600080fd5b506100956100f736600461413f565b6101f9565b61009561010a366004614189565b61022e565b34801561011b57600080fd5b5061009561012a366004614065565b610248565b34801561013b57600080fd5b5061009561014a366004614065565b610261565b61015761027a565b610168610163826102e6565b610352565b61017f6001600080516020614b8983398151915255565b50565b61018a610514565b61019261057d565b61019a610649565b6101a261027a565b6101c133876101b0886102e6565b6101b9886102e6565b8787876106d4565b6101d86001600080516020614b8983398151915255565b505050505050565b60006101f36101ee836102e6565b6110b9565b92915050565b61020161027a565b6102138261020e836102e6565b61111a565b61022a6001600080516020614b8983398151915255565b5050565b61023661027a565b61021382610243836102e6565b611508565b61025061027a565b61016861025c826102e6565b6117ab565b610269610649565b61017f610275826102e6565b6118c1565b600080516020614b898339815191528054600119016102e05760405162461bcd60e51b815260206004820152601f60248201527f5265656e7472616e637947756172643a207265656e7472616e742063616c6c0060448201526064015b60405180910390fd5b60029055565b60006001600160401b0382111561034e5760405162461bcd60e51b815260206004820152602660248201527f53616665436173743a2076616c756520646f65736e27742066697420696e203660448201526534206269747360d01b60648201526084016102d7565b5090565b600061035d82611abf565b60038101549091506001600160a01b031633146103aa5760405162461bcd60e51b815260206004820152600b60248201526a37b7363c9036b4b73a32b960a91b60448201526064016102d7565b60058101546001600160401b03166000036104175760405162461bcd60e51b815260206004820152602760248201527f636f6c6c61746572616c207265736572766174696f6e20616c726561647920616044820152661c1c1c9bdd995960ca1b60648201526084016102d7565b6000610421611b60565b60178101546005840154919250429161044d916001600160401b03600160c01b909104811691166141db565b6001600160401b0316106104b95760405162461bcd60e51b815260206004820152602d60248201527f636f6c6c61746572616c207265736572766174696f6e2063616e63656c6c617460448201526c696f6e20746f6f206561726c7960981b60648201526084016102d7565b600382015460028301546040516001600160401b038616926001600160a01b039081169216907f5b8396e9ca9d86e29fd05a7792854c392411845219abf084a300c0510dd3bd1890600090a461050f8284611b84565b505050565b7fec7e8c1c441439dd40959777f4c577ea0cd42fcc1dbe59d2bd0f5d9c55df8dc754600160881b900460ff1661057b5760405162461bcd60e51b815260206004820152600c60248201526b1b9bdd08185d1d1858da195960a21b60448201526064016102d7565b565b6000610587611b60565b60068101549091506001600160a01b03161561017f576006810154604051633af32abf60e01b81523360048201526001600160a01b0390911690633af32abf90602401602060405180830381865afa1580156105e7573d6000803e3d6000fd5b505050506040513d601f19601f8201168201806040525081019061060b9190614210565b61017f5760405162461bcd60e51b815260206004820152600f60248201526e1b9bdd081dda1a5d195b1a5cdd1959608a1b60448201526064016102d7565b7fec7e8c1c441439dd40959777f4c577ea0cd42fcc1dbe59d2bd0f5d9c55df8dc654600080516020614b698339815191529042600160401b9091046001600160401b0316111561017f5760405162461bcd60e51b8152602060048201526016602482015275656d657267656e63792070617573652061637469766560501b60448201526064016102d7565b60006106df87611c41565b90506106ea81611ce8565b60006106f582611cff565b7fec7e8c1c441439dd40959777f4c577ea0cd42fcc1dbe59d2bd0f5d9c55df8dc654909150600080516020614b69833981519152906001600160401b0316156107715760405162461bcd60e51b815260206004820152600e60248201526d1b5a5b9d1a5b99c81c185d5cd95960921b60448201526064016102d7565b600483015465010000000000900463ffffffff1615158061079a575061079a600d84018b611da9565b6107e65760405162461bcd60e51b815260206004820152601760248201527f6167656e74206e6f7420696e206d696e7420717565756500000000000000000060448201526064016102d7565b6000886001600160401b0316116108345760405162461bcd60e51b815260206004820152601260248201527163616e6e6f74206d696e742030206c6f747360701b60448201526064016102d7565b600160048085015460ff169081111561084f5761084f61422d565b1461089c5760405162461bcd60e51b815260206004820152601860248201527f72633a20696e76616c6964206167656e7420737461747573000000000000000060448201526064016102d7565b6001600160401b0388166108b08385611dce565b10156108fe5760405162461bcd60e51b815260206004820152601a60248201527f6e6f7420656e6f756768206672656520636f6c6c61746572616c00000000000060448201526064016102d7565b6004830154600160481b900461ffff166001600160401b038816101561095d5760405162461bcd60e51b81526020600482015260146024820152730c2cecadce84ee640cccaca40e8dede40d0d2ced60631b60448201526064016102d7565b6000610967611b60565b600d015461097e906001600160401b03168a614243565b905061099d8461098e8684611ddc565b61099890846141db565b611e01565b600484015460009065010000000000900463ffffffff1681036109c15760006109d3565b6109d384602001516040015183611eac565b905080341015610a255760405162461bcd60e51b815260206004820152601860248201527f696e617070726f7072696174652066656520616d6f756e74000000000000000060448201526064016102d7565b610a2d611eed565b600e84018054600090610a4a9084906001600160401b03166141db565b82546001600160401b0391821661010093840a9081029083021990911617909255600e860154604080516101a081018252600060208201819052918101829052606081018290526080810182905260a0810182905260c0810182905260e08101829052928301819052610120830181905261014083018190526101608301819052610180830152858316825260048901549216925090610b0790610b0290600160481b900461ffff16610afc87611f0b565b90611f3c565b611f4b565b6001600160801b03166080820152610b1e83611f4b565b6001600160801b031660a08201526004870154610b4790600160581b900461ffff16600161426e565b61ffff1660e08201526001600160a01b03808e1660c08301528e81166101008301528a16610120820152610b92633b9aca00610b838534614289565b610b8d91906142b2565b6102e6565b6001600160401b0316610140820152600c87015463ffffffff1615610f095787610c0a5760405162461bcd60e51b8152602060048201526024808201527f6d696e74657220756e6465726c79696e672061646472657373657320726571756044820152631a5c995960e21b60648201526084016102d7565b6000886001600160401b03811115610c2457610c246142c6565b604051908082528060200260200182016040528015610c4d578160200160208202803683370190505b509050610cb28a8a6000818110610c6657610c666142dc565b9050602002810190610c7891906142f2565b8080601f016020809104026020016040519081016040528093929190818152602001838380828437600092019190915250611fb492505050565b81600081518110610cc557610cc56142dc565b6020908102919091018101919091526040805180830182526000905251610d12917fc5d2460186f7233c927e7db2dcc703c0e500b653ca82273b7bfad8045d85a470910190815260200190565b6040516020818303038152906040528051906020012081600081518110610d3b57610d3b6142dc565b602002602001015103610d605760405162461bcd60e51b81526004016102d790614338565b60015b89811015610ece57610d808b8b83818110610c6657610c666142dc565b828281518110610d9257610d926142dc565b6020908102919091018101919091526040805180830182526000905251610ddf917fc5d2460186f7233c927e7db2dcc703c0e500b653ca82273b7bfad8045d85a470910190815260200190565b60405160208183030381529060405280519060200120828281518110610e0757610e076142dc565b602002602001015103610e2c5760405162461bcd60e51b81526004016102d790614338565b81610e38600183614289565b81518110610e4857610e486142dc565b6020026020010151828281518110610e6257610e626142dc565b602002602001015111610ec65760405162461bcd60e51b815260206004820152602660248201527f6d696e74657220756e6465726c79696e6720616464726573736573206e6f74206044820152651cdbdc9d195960d21b60648201526084016102d7565b600101610d63565b50610ed881611fed565b610180830152610ee7426102e6565b6001600160401b0316610160830152610f038883858d8d612494565b50610f51565b600080610f14612513565b600f8901546001600160401b0362010000909104811660208701528083166040870152811660608601529092509050610f4e898486612602565b50505b6001600160401b0391821660009081526006958601602090815260409182902083518154928501519385015160608601518716600160c01b026001600160c01b03918816600160801b908102929092166001600160801b03968916600160401b026fffffffffffffffffffffffffffffffff199096169389169390931794909417851691909117929092178155608084015160a085015184169092029190921617600182015560c082015160028201805460e085015161ffff16600160a01b9081026001600160b01b03199092166001600160a01b0394851617919091179091556101008401516003840180549184166001600160a01b03199290921691909117905561012084015160048401805461014087015188169093026001600160e01b031990931691909316171790556101608201516005820180549190941667ffffffffffffffff19919091161790925561018001519301929092555050505050505050505050565b6000600080516020614b69833981519152816110d3611b60565b600f8301549091506000906110eb9061ffff166126d0565b600d83015490915061111190829061110c906001600160401b031688614243565b611eac565b95945050505050565b600061112582611abf565b60058101549091506001600160401b0316156111535760405162461bcd60e51b81526004016102d790614379565b611165610180840161016085016143cc565b15801561117457506006810154155b806111af575061118c610180840161016085016143cc565b801561119b5750600681015415155b80156111af57506006810154610180840135145b61120a5760405162461bcd60e51b815260206004820152602660248201527f696e76616c696420636865636b206f7220736f757263652061646472657373656044820152651cc81c9bdbdd60d21b60648201526084016102d7565b6002810154600090611224906001600160a01b0316611c41565b905061122f8161271b565b6112388461276a565b815460009061124f906001600160401b0316611f0b565b905067464250526641000160c01b6001600160401b0385161761014086013514801561128357506003820154610100860135145b80156112aa575060018301546112a2906001600160801b0316826143e9565b610120860135145b6112f65760405162461bcd60e51b815260206004820152601c60248201527f6d696e74696e67206e6f6e2d7061796d656e74206d69736d617463680000000060448201526064016102d7565b8254600160801b90046001600160401b031661131a6101e087016101c08801614413565b6001600160401b031611801561135a57508254600160c01b90046001600160401b031661134f61020087016101e08801614413565b6001600160401b0316115b6113a65760405162461bcd60e51b815260206004820152601960248201527f6d696e74696e672064656661756c7420746f6f206561726c790000000000000060448201526064016102d7565b8254600160401b90046001600160401b03166113c860c0870160a08801614413565b6001600160401b031611156114325760405162461bcd60e51b815260206004820152602a60248201527f6d696e74696e67206e6f6e2d7061796d656e742070726f6f662077696e646f77604482015269081d1bdbc81cda1bdc9d60b21b60648201526084016102d7565b600061143e838561287f565b61144890836143e9565b600385015460028601546040518381529293506001600160401b038816926001600160a01b0392831692909116907f9bcf1e111381daaf8ec9ce1420115fc2bb960d5dd94b1e871256cb2e6cbd5aa09060200160405180910390a460048401546000906114ca90633b9aca0090600160a01b90046001600160401b031661442e565b60018601546114e99190600160801b90046001600160801b03166143e9565b90506114f584826128d3565b6114ff85876129dc565b50505050505050565b6000611512611b60565b9050600061151f83611abf565b60058101549091506001600160401b03161561154d5760405162461bcd60e51b81526004016102d790614379565b6002810154600090611567906001600160a01b0316611c41565b90506115728161271b565b61157b85612b4c565b8154600160801b90046001600160401b031661159f61014087016101208801614413565b6001600160401b03161180156115df57508154600160c01b90046001600160401b03166115d461016087016101408801614413565b6001600160401b0316115b801561163957506115f7610100860160e08701614413565b60118401546001600160401b0391821691600160401b9091041661162361016088016101408901614413565b61162d91906141db565b6001600160401b031611155b6116855760405162461bcd60e51b815260206004820152601a60248201527f63616e6e6f7420756e737469636b206d696e74696e672079657400000000000060448201526064016102d7565b60048201546116d1906116ad90633b9aca0090600160a01b90046001600160401b031661442e565b60018401546116cc9190600160801b90046001600160801b03166143e9565b612c68565b60048101546000906116eb90610100900461ffff166126d0565b8354909150600090611706906001600160401b031683612caf565b90506117128382612cc9565b600061171e848661287f565b8554611732906001600160401b0316611f0b565b61173c91906143e9565b600386015460028701546040518381529293506001600160401b038a16926001600160a01b0392831692909116907f8989bc1e07f872f783e99c06825dfe6c20f9ca1bc2501de1e931a5872f0e88149060200160405180910390a46117a185886129dc565b5050505050505050565b60006117b682611abf565b60028101549091506000906117d3906001600160a01b0316611c41565b90506117de8161271b565b60058201546001600160401b031660000361186b5760405162461bcd60e51b815260206004820152604160248201527f68616e647368616b65206e6f74207265717569726564206f7220636f6c6c617460448201527f6572616c207265736572766174696f6e20616c726561647920617070726f76656064820152601960fa1b608482015260a4016102d7565b600382015460028301546040516001600160401b038616926001600160a01b039081169216907fdf194311e4e0a37be30f91892d0eee4b9147166f3faf63d8e42a97639db502b590600090a461050f8284611b84565b60006118cc82611abf565b60028101549091506000906118e9906001600160a01b0316611c41565b90506118f48161271b565b60058201546001600160401b031660000361194a5760405162461bcd60e51b81526020600482015260166024820152751a185b991cda185ad9481b9bdd081c995c5d5a5c995960521b60448201526064016102d7565b60058201805467ffffffffffffffff19169055600080611968612513565b915091506000611983600080516020614b6983398151915290565b600f81015486546001600160401b03858116600160c01b9081026001600160c01b03898416600160801b90810267ffffffffffffffff60801b19600160401b62010000909904871689021677ffffffffffffffffffffffffffffffff00000000000000001990971696909617959095179081168217808d55604080516101a0810182529386169286169290921783529586048416602083015284860484169082015293048116606084015260018901546001600160801b03808216608086015292900490911660a083015260028801546001600160a01b0380821660c085015261ffff600160a01b928390041660e085015260038a0154811661010085015260048a015490811661012085015204811661014083015260058801541661016082015260068701546101808201529091506101d890859088612602565b6000600080516020614b698339815191526001600160401b03831615801590611b0357506001600160401b0380841660009081526006830160205260409020541615155b611b405760405162461bcd60e51b815260206004820152600e60248201526d1a5b9d985b1a590818dc9d081a5960921b60448201526064016102d7565b6001600160401b0390921660009081526006909201602052506040902090565b7f4f24f5c433db0962dac0d2c8b84197a6e6c7cc4e5d9ebe1916a1b6193da2f33a90565b6004820154600090611bab90633b9aca0090600160a01b90046001600160401b031661442e565b6001840154611bca9190600160801b90046001600160801b03166143e9565b90506000611bd6611b60565b6018810154909150600090611bf090849061ffff16611f3c565b60038601549091506001600160a01b0316611c0b86866129dc565b6000611c178284612ea0565b905080611c2c57611c2785612c68565b6114ff565b828511156114ff576114ff6116cc8487614289565b7f5bebac0595fee029d42bb673937f5f1cb81cf8641382bc17774635de9b7d796568010000000000000000600160e01b03604083901b161880600060048084015460ff1690811115611c9557611c9561422d565b03611ce25760405162461bcd60e51b815260206004820152601b60248201527f696e76616c6964206167656e74207661756c742061646472657373000000000060448201526064016102d7565b50919050565b600181015461017f906001600160a01b0316612f1d565b611d6a6040805160c081019091526000606082018181526080830182905260a083019190915281908152604080516060810182526000808252602082810182905292820152910190815260408051606081018252600080825260208281018290529282015291015290565b6000611d7583612fd5565b90506040518060600160405280611d8b85613092565b8152602001828152602001611da08584613137565b90529392505050565b6001600160a01b038116600090815260018301602052604081205415155b9392505050565b6000611dc783836001613306565b600080611de883611f0b565b90506000611df6858361335e565b90506111118161339c565b600080516020614b69833981519152611e19826133cd565b600583018054839190600090611e399084906001600160401b03166141db565b92506101000a8154816001600160401b0302191690836001600160401b031602179055508181600e0160188282829054906101000a90046001600160401b0316611e8391906141db565b92506101000a8154816001600160401b0302191690836001600160401b03160217905550505050565b600080611ec2836001600160401b031685612caf565b9050611ee5611ecf611b60565b600c01548290600160401b900461ffff16611f3c565b949350505050565b6000611efb6103e843614445565b611f069060016143e9565b905090565b600080611f16611b60565b600c810154909150611dc7906001600160401b03600160901b909104811690851661442e565b6000611dc7838361271061350f565b60006001600160801b0382111561034e5760405162461bcd60e51b815260206004820152602760248201527f53616665436173743a2076616c756520646f65736e27742066697420696e20316044820152663238206269747360c81b60648201526084016102d7565b60008180519060200120604051602001611fd091815260200190565b604051602081830303815290604052805190602001209050919050565b60008082511161203f5760405162461bcd60e51b815260206004820152601b60248201527f4d7573742068617665206174206c65617374206f6e65206c656166000000000060448201526064016102d7565b815160010361206a578160008151811061205b5761205b6142dc565b60200260200101519050919050565b6040805180820190915260008082526020820152825181525b8051600110156120ba576020810180519061209d82614459565b905250805160029082906120b29083906142b2565b905250612083565b8251815260208101516000906120d19060016143e9565b6001600160401b038111156120e8576120e86142c6565b604051908082528060200260200182016040528015612111578160200160208202803683370190505b50905060008260200151600161212791906143e9565b6001600160401b0381111561213e5761213e6142c6565b604051908082528060200260200182016040528015612167578160200160208202803683370190505b509050600083602001516001901b84600001516121849190614445565b84602001516001901b6121979190614289565b90506000805b600281101561245c57600080826000036121bb5750508751836121c2565b5083905060005b8181108061222257506001841180156122225750856121e2600286614289565b815181106121f2576121f26142dc565b6020026020010151866001866122089190614289565b81518110612218576122186142dc565b6020026020010151145b156124525760018411801561227e57508561223e600286614289565b8151811061224e5761224e6142dc565b6020026020010151866001866122649190614289565b81518110612274576122746142dc565b6020026020010151145b156123c7578661228f600286614289565b8151811061229f5761229f6142dc565b6020026020010151876001866122b59190614289565b815181106122c5576122c56142dc565b6020026020010151101561237057866122df600286614289565b815181106122ef576122ef6142dc565b6020026020010151876001866123059190614289565b81518110612315576123156142dc565b60200260200101518860018761232b9190614289565b8151811061233b5761233b6142dc565b60200260200101896002886123509190614289565b81518110612360576123606142dc565b6020908102919091010191909152525b60406000198501602002880190812090528561238d600286614289565b8151811061239d5761239d6142dc565b6020026020010180518091906123b290614459565b905250836123bf81614472565b9450506121c2565b81811015612445578981815181106123e1576123e16142dc565b60200260200101518785815181106123fb576123fb6142dc565b6020026020010181815250508286858151811061241a5761241a6142dc565b60209081029190910101528361242f81614459565b945050808061243d90614459565b9150506121c2565b61244d614489565b6121c2565b505060010161219d565b508060011461246d5761246d614489565b83600081518110612480576124806142dc565b602002602001015195505050505050919050565b826001600160401b03168461010001516001600160a01b03166124b687613635565b6001600160a01b03167f34abd615afc02c31fa99ded1778ea60d36a99bf892c68e54beddb16007d9e96385856124ef8a60000151611f0b565b8a6080015160405161250494939291906144c8565b60405180910390a45050505050565b600080600080516020614b698339815191528161252e611b60565b600f830154909150600090600160901b90046001600160401b0316612552426102e6565b61255c9190614578565b600c8301549091506000906125869063ffffffff16610b836001600160401b0385166103e861442e565b600d840154600f8601549192506001600160401b03600160981b9091048116916125b8918491620100009004166141db565b6125c291906141db565b600e840154600f8601549197506001600160401b03908116916125ee918591600160501b9004166141db565b6125f891906141db565b9450505050509091565b806001600160401b03168261010001516001600160a01b031661262485613635565b6001600160a01b03167f7e28eb3b9a2077a4fa0559357b1647ec5eabf18d7adf1539c4e8fb1445a5fc0961265b8660000151611f0b565b60808701516020880151604089015160608a015160028c0167464250526641000160c01b6001600160401b038c16178c6101200151633b9aca008e61014001516001600160401b03166126ae919061442e565b6040516126c3999897969594939291906145cc565b60405180910390a4505050565b600080600080516020614b6983398151915290506127118160000184815481106126fc576126fc6142dc565b9060005260206000209060040201600061365d565b5090949350505050565b612725813361381c565b61017f5760405162461bcd60e51b815260206004820152601660248201527537b7363c9030b3b2b73a103b30bab63a1037bbb732b960511b60448201526064016102d7565b6000612774611b60565b6008810154600b8201549192506001600160a01b0316906040840135146127cd5760405162461bcd60e51b815260206004820152600d60248201526c34b73b30b634b21031b430b4b760991b60448201526064016102d7565b60405163d577275160e01b81526001600160a01b0382169063d5772751906127f990869060040161479a565b602060405180830381865afa158015612816573d6000803e3d6000fd5b505050506040513d601f19601f8201168201806040525081019061283a9190614210565b61050f5760405162461bcd60e51b81526020600482015260166024820152751b9bdb8b5c185e5b595b9d081b9bdd081c1c9bdd995960521b60448201526064016102d7565b6002810154600090600160a01b900461ffff1681816128ad576004850154600160581b900461ffff166128b8565b6128b86001836148b0565b6001850154909150611111906001600160801b0316826138cb565b806000036128df575050565b60048201546000906128fd908390600160581b900461ffff16611f3c565b8354604080516368dc448760e11b815290519293506001600160a01b039091169163d1b8890e918491600480830192600092919082900301818588803b15801561294657600080fd5b505af115801561295a573d6000803e3d6000fd5b505050505061296883613635565b6001600160a01b031663677fa2326129808385614289565b6129886138e3565b6040516001600160e01b031960e085901b1681526001600160a01b0390911660048201526024016000604051808303818588803b1580156129c857600080fd5b505af11580156117a1573d6000803e3d6000fd5b6002820154600080516020614b6983398151915290600090612a06906001600160a01b0316611c41565b90506000612a1c612a17838761287f565b61339c565b8554612a3191906001600160401b03166141db565b600583015460408051808201909152601381527234b73b30b634b2103932b9b2b93b30ba34b7b760691b6020820152919250612a7a916001600160401b03909116908390613950565b60058301805467ffffffffffffffff19166001600160401b03928316179055600e840180548392601891612ab7918591600160c01b900416614578565b82546101009290920a6001600160401b03818102199093169183160217909155949094166000908152600693840160205260408120818155600181018290556002810180546001600160b01b03191690556003810180546001600160a01b03191690556004810180546001600160e01b031916905560058101805467ffffffffffffffff191690559093019290925550505050565b6000612b56611b60565b6008810154600b8201549192506001600160a01b031690604084013514612baf5760405162461bcd60e51b815260206004820152600d60248201526c34b73b30b634b21031b430b4b760991b60448201526064016102d7565b604051635e30ebfb60e01b81526001600160a01b03821690635e30ebfb90612bdb9086906004016148cb565b602060405180830381865afa158015612bf8573d6000803e3d6000fd5b505050506040513d601f19601f82011682018060405250810190612c1c9190614210565b61050f5760405162461bcd60e51b815260206004820152601760248201527f626c6f636b20686569676874206e6f742070726f76656400000000000000000060448201526064016102d7565b6000612c72611b60565b60098101546040519192506001600160a01b03169083156108fc029084906000818181858888f1935050505015801561050f573d6000803e3d6000fd5b6000611dc782612cc16009600a614aa9565b85919061350f565b6000612cd48361399b565b90506000612ce1846139e8565b805483549192506001600160a01b03908116911603612d0957612d048484613a21565b612e9a565b6000612d13611b60565b90506000612d2086613635565b6012830154909150600090612d4790600160801b900463ffffffff16610afc888888613aa5565b8554600189015460405163083e007560e21b81526001600160a01b0392831660048201529082166024820152604481018990529192508316906320f801d490606401600060405180830381600087803b158015612da357600080fd5b505af1158015612db7573d6000803e3d6000fd5b5050505080341015612e0b5760405162461bcd60e51b815260206004820152601960248201527f6e6f7420656e6f7567682066756e64732070726f76696465640000000000000060448201526064016102d7565b612e1481612c68565b803411156114ff576001600160a01b03821663677fa232612e358334614289565b612e3d6138e3565b6040516001600160e01b031960e085901b1681526001600160a01b0390911660048201526024016000604051808303818588803b158015612e7d57600080fd5b505af1158015612e91573d6000803e3d6000fd5b50505050505050505b50505050565b6000612eaa613ad5565b8115612f14576000836001600160a01b031683620186a090604051600060405180830381858888f193505050503d8060008114612f03576040519150601f19603f3d011682016040523d82523d6000602084013e612f08565b606091505b509092506101f3915050565b50600192915050565b612f25613b34565b604051633af32abf60e01b81526001600160a01b0383811660048301529190911690633af32abf90602401602060405180830381865afa158015612f6d573d6000803e3d6000fd5b505050506040513d601f19601f82011682018060405250810190612f919190614210565b61017f5760405162461bcd60e51b81526020600482015260156024820152741859d95b9d081b9bdd081dda1a5d195b1a5cdd1959605a1b60448201526064016102d7565b612ffa6040805160608101909152806000815260200160008152602001600081525090565b6000613005836139e8565b604080516060810182526001815285548251634ac8eb5f60e01b8152925193945090926020808501936001600160a01b0390931692634ac8eb5f92600480830193928290030181865afa158015613060573d6000803e3d6000fd5b505050506040513d601f19601f820116820180604052508101906130849190614ab5565b8152602001611da083613b52565b6130b76040805160608101909152806000815260200160008152602001600081525090565b60006130c28361399b565b60408051606081019091526000815281549192509060208201906001600160a01b03166370a082316130f387613635565b6040516001600160e01b031960e084901b1681526001600160a01b039091166004820152602401602060405180830381865afa158015613060573d6000803e3d6000fd5b61315c6040805160608101909152806000815260200160008152602001600081525090565b8254604080516332f7ce0b60e21b815290516000926001600160a01b03169163cbdf382c9160048083019260209291908290030181865afa1580156131a5573d6000803e3d6000fd5b505050506040513d601f19601f820116820180604052508101906131c99190614ace565b90506000816001600160a01b03166370a082316131e587613635565b6040516001600160e01b031960e084901b1681526001600160a01b039091166004820152602401602060405180830381865afa158015613229573d6000803e3d6000fd5b505050506040513d601f19601f8201168201806040525081019061324d9190614ab5565b90506000826001600160a01b03166318160ddd6040518163ffffffff1660e01b8152600401602060405180830381865afa15801561328f573d6000803e3d6000fd5b505050506040513d601f19601f820116820180604052508101906132b39190614ab5565b9050600085602001516000036132cd5785604001516132e2565b602086015160408701516132e291849061350f565b60408051606081018252600281526020810195909552840152509095945050505050565b60008061331885600001518585613b68565b9050600061332b86602001518686613b68565b9050600061333e87604001518787613b68565b90506133538361334e8484613b9f565b613b9f565b979650505050505050565b6004820154600090819061337e908490600160481b900461ffff16611f3c565b9050611ee58185600401600b9054906101000a900461ffff166138cb565b6000806133a7611b60565b600c810154909150611dc790610b8d90600160901b90046001600160401b0316856142b2565b600080516020614b6983398151915260006133e6611b60565b600d810154909150600160581b90046001600160401b0316600081900361340d5750505050565b6001820154604080516318160ddd60e01b815290516000926001600160a01b0316916318160ddd9160048083019260209291908290030181865afa158015613459573d6000803e3d6000fd5b505050506040513d601f19601f8201168201806040525081019061347d9190614ab5565b9050600061348a8261339c565b600e8601546134a99190600160c01b90046001600160401b03166141db565b6001600160401b0316905082866001600160401b0316826134ca91906143e9565b11156101d85760405162461bcd60e51b81526020600482015260146024820152731b5a5b9d1a5b99c818d85c08195e18d95959195960621b60448201526064016102d7565b60008082116135535760405162461bcd60e51b815260206004820152601060248201526f4469766973696f6e206279207a65726f60801b60448201526064016102d7565b8360000361356357506000611dc7565b838302838582816135765761357661429c565b04036135945782818161358b5761358b61429c565b04915050611dc7565b5060006135a183866142b2565b905060006135af8487614445565b905060006135bd85876142b2565b905060006135cb8688614445565b9050856135d8828561442e565b6135e291906142b2565b6135ec838561442e565b6135f6838761442e565b88613601868961442e565b61360b919061442e565b61361591906143e9565b61361f91906143e9565b61362991906143e9565b98975050505050505050565b7f5bebac0595fee029d42bb673937f5f1cb81cf8641382bc17774635de9b7d79651860401c90565b6000806000806000806136fc88600101805461367890614598565b80601f01602080910402602001604051908101604052809291908181526020018280546136a490614598565b80156136f15780601f106136c6576101008083540402835291602001916136f1565b820191906000526020600020905b8154815290600101906020018083116136d457829003601f168201915b505050505088613bb5565b8a549295509093509150600160f01b900460ff161561374357875460009061373290600160a81b900460ff166001838786613c80565b965091945084935061381592505050565b60008060006137de8b600201805461375a90614598565b80601f016020809104026020016040519081016040528092919081815260200182805461378690614598565b80156137d35780601f106137a8576101008083540402835291602001916137d3565b820191906000526020600020905b8154815290600101906020018083116137b657829003601f168201915b50505050508b613bb5565b8d54929550909350915060009061380290600160a81b900460ff1685848a89613c80565b9950949750909550613815945050505050565b9250925092565b60018201546000906001600160a01b03908116908316811480611ee55750613842613b34565b604051631f86345d60e31b81526001600160a01b038381166004830152919091169063fc31a2e890602401602060405180830381865afa15801561388a573d6000803e3d6000fd5b505050506040513d601f19601f820116820180604052508101906138ae9190614ace565b6001600160a01b0316836001600160a01b03161491505092915050565b6000611dc76138de8461ffff8516611f3c565b613d04565b7fec7e8c1c441439dd40959777f4c577ea0cd42fcc1dbe59d2bd0f5d9c55df8dc554600080516020614b698339815191528054600092829161ffff909116908110613930576139306142dc565b60009182526020909120600490910201546001600160a01b031692915050565b6000826001600160401b0316846001600160401b0316101582906139875760405162461bcd60e51b81526004016102d79190614aeb565b5050506001600160401b0390811691160390565b600080600080516020614b6983398151915260048401548154919250829161010090910461ffff169081106139d2576139d26142dc565b9060005260206000209060040201915050919050565b600080600080516020614b69833981519152600484015481549192508291630100000090910461ffff169081106139d2576139d26142dc565b6000613a2b611b60565b90506000613a3884613635565b9050806001600160a01b031663648d0878613a516138e3565b600985015460405160e084901b6001600160e01b03191681526001600160a01b0392831660048201529116602482015260448101869052606401600060405180830381600087803b1580156129c857600080fd5b600080613ab183613b52565b90506000613abe85613b52565b9050613acb86838361350f565b9695505050505050565b600080516020614b898339815191525460021461057b5760405162461bcd60e51b815260206004820152601f60248201527f5265656e7472616e637947756172643a2067756172642072657175697265640060448201526064016102d7565b600080613b3f611b60565b600701546001600160a01b031692915050565b6000613b5f82600061365d565b50909392505050565b600080613b758585613d3b565b90506000613b84868686613d58565b905080600003613b95576000613acb565b613acb81836142b2565b6000818310613bae5781611dc7565b5090919050565b600080600080613bc3611b60565b600a8101549091506001600160a01b03168515613c545760405163e4a0a55b60e01b81526001600160a01b0382169063e4a0a55b90613c06908a90600401614aeb565b606060405180830381865afa158015613c23573d6000803e3d6000fd5b505050506040513d601f19601f82011682018060405250810190613c479190614b3a565b9450945094505050613815565b60405163524f388960e01b81526001600160a01b0382169063524f388990613c06908a90600401614aeb565b600080613c8b611b60565b905060006009613c9b878a6143e9565b613ca591906143e9565b600a830154909150600090613cc5908690600160a81b900460ff166143e9565b905080821015613cd757613cd7614489565b613cf7613ce48284614289565b613cef90600a614aa9565b87908a61350f565b9998505050505050505050565b600080613d0f611b60565b600c810154909150613d3190600160901b90046001600160401b031684614445565b611dc79084614289565b600080613d488484613d82565b9050611ee5846020015182613eac565b600080613d63611b60565b600d81015490915061111190869086906001600160401b031686613ec6565b6000806000613d95848660000151613f3d565b60058601549193509150600090613dbe906001600160401b03600160401b8204811691166143e9565b90506000613dd484610afc848a60400151612caf565b90506000600188516002811115613ded57613ded61422d565b14613e0c576005870154600160801b90046001600160401b0316613e22565b6005870154600160c01b90046001600160401b03165b90506000613e4185610afc846001600160401b03168c60400151612caf565b9050600060018a516002811115613e5a57613e5a61422d565b03613e66576000613e7e565b8951613e73908a90614009565b546001600160801b03165b6001600160801b0316905080613e9483866143e9565b613e9e91906143e9565b9a9950505050505050505050565b6000818311613ebc576000611dc7565b611dc78284614289565b60008082613ed5576000613efe565b6004850154613efe9061ffff600160581b8204811691610afc918891600160481b900416611f3c565b90506000613f0c82866143e9565b90506000613f1e828960400151612caf565b90506000613f30888a60000151613f3d565b509050613cf78282611f3c565b6000806002836002811115613f5457613f5461422d565b03613f81576000613f63611b60565b600c0154640100000000900463ffffffff1692508291506140029050565b6001836002811115613f9557613f9561422d565b03613fd057613fa3846139e8565b60030154600485015463ffffffff9182169250613fc991600160881b9091041682614056565b9150614002565b613fd98461399b565b60030154600485015463ffffffff9182169250613fff91600160681b9091041682614056565b91505b9250929050565b6000600182600281111561401f5761401f61422d565b0361402c5761402c614489565b60008260028111156140405761404061422d565b1461404e5782600901611dc7565b505060080190565b6000818311613bae5781611dc7565b60006020828403121561407757600080fd5b5035919050565b6001600160a01b038116811461017f57600080fd5b60008060008060008060a087890312156140ac57600080fd5b86356140b78161407e565b9550602087013594506040870135935060608701356140d58161407e565b925060808701356001600160401b03808211156140f157600080fd5b818901915089601f83011261410557600080fd5b81358181111561411457600080fd5b8a60208260051b850101111561412957600080fd5b6020830194508093505050509295509295509295565b6000806040838503121561415257600080fd5b82356001600160401b0381111561416857600080fd5b8301610200818603121561417b57600080fd5b946020939093013593505050565b6000806040838503121561419c57600080fd5b82356001600160401b038111156141b257600080fd5b8301610160818603121561417b57600080fd5b634e487b7160e01b600052601160045260246000fd5b6001600160401b038181168382160190808211156141fb576141fb6141c5565b5092915050565b801515811461017f57600080fd5b60006020828403121561422257600080fd5b8151611dc781614202565b634e487b7160e01b600052602160045260246000fd5b6001600160401b03818116838216028082169190828114614266576142666141c5565b505092915050565b61ffff8181168382160190808211156141fb576141fb6141c5565b818103818111156101f3576101f36141c5565b634e487b7160e01b600052601260045260246000fd5b6000826142c1576142c161429c565b500490565b634e487b7160e01b600052604160045260246000fd5b634e487b7160e01b600052603260045260246000fd5b6000808335601e1984360301811261430957600080fd5b8301803591506001600160401b0382111561432357600080fd5b60200191503681900382131561400257600080fd5b60208082526021908201527f6d696e74657220756e6465726c79696e67206164647265737320696e76616c696040820152601960fa1b606082015260800190565b60208082526023908201527f636f6c6c61746572616c207265736572766174696f6e206e6f7420617070726f6040820152621d995960ea1b606082015260800190565b80356143c781614202565b919050565b6000602082840312156143de57600080fd5b8135611dc781614202565b808201808211156101f3576101f36141c5565b80356001600160401b03811681146143c757600080fd5b60006020828403121561442557600080fd5b611dc7826143fc565b80820281158282048414176101f3576101f36141c5565b6000826144545761445461429c565b500690565b60006001820161446b5761446b6141c5565b5060010190565b600081614481576144816141c5565b506000190190565b634e487b7160e01b600052600160045260246000fd5b81835281816020850137506000828201602090810191909152601f909101601f19169091010190565b6060808252810184905260006080600586901b8301810190830187835b8881101561455857858403607f190183528135368b9003601e1901811261450b57600080fd5b8a0160208181019135906001600160401b0382111561452957600080fd5b81360383131561453857600080fd5b61454387838561449f565b965094850194939093019250506001016144e5565b505050602083018590526001600160801b03841660408401529050611111565b6001600160401b038281168282160390808211156141fb576141fb6141c5565b600181811c908216806145ac57607f821691505b602082108103611ce257634e487b7160e01b600052602260045260246000fd5b60006101208b835260206001600160801b038c1660208501526001600160401b03808c166040860152808b166060860152808a166080860152508160a0850152600088548160018260011c9150600183168061462957607f831692505b60208310810361464757634e487b7160e01b85526022600452602485fd5b95880182815260200195808015614665576001811461467b576146a6565b60ff198516885283151560051b880195506146a6565b60008e81526020902060005b858110156146a05781548a820152908401908801614687565b89019650505b505050505060c085018890526001600160a01b03871660e086015292506146cb915050565b826101008301529a9950505050505050505050565b6000808335601e198436030181126146f757600080fd5b83016020810192503590506001600160401b0381111561471657600080fd5b8060051b360382131561400257600080fd5b81835260006001600160fb1b0383111561474157600080fd5b8260051b80836020870137939093016020019392505050565b6001600160401b038061476c836143fc565b1683528061477c602084016143fc565b1660208401528061478f604084016143fc565b166040840152505050565b6020815260006147aa83846146e0565b61020060208501526147c161022085018284614728565b91505060208401356040840152604084013560608401526147e4606085016143fc565b6001600160401b03808216608086015280614801608088016143fc565b1660a08601528061481460a088016143fc565b1660c08601528061482760c088016143fc565b1660e086015261483960e087016143fc565b915061010081831681870152610120925080870135838701525050610140818601358186015261016091508086013582860152506148788186016143bc565b905061018061488a8186018315159052565b6101a091508086013582860152506148a86101c0850182870161475a565b509392505050565b61ffff8281168282160390808211156141fb576141fb6141c5565b6020815260006148db83846146e0565b6101608060208601526148f361018086018385614728565b92506020860135604086015260408601356060860152614915606087016143fc565b91506001600160401b03808316608087015280614934608089016143fc565b1660a08701528061494760a089016143fc565b1660c08701528061495a60c089016143fc565b1660e087015261010092508061497260e089016143fc565b16838701526149828388016143fc565b9250610120818416818801526149998189016143fc565b93505061014081841681880152816149b2828a016143fc565b1683880152505050508091505092915050565b600181815b80851115614a005781600019048211156149e6576149e66141c5565b808516156149f357918102915b93841c93908002906149ca565b509250929050565b600082614a17575060016101f3565b81614a24575060006101f3565b8160018114614a3a5760028114614a4457614a60565b60019150506101f3565b60ff841115614a5557614a556141c5565b50506001821b6101f3565b5060208310610133831016604e8410600b8410161715614a83575081810a6101f3565b614a8d83836149c5565b8060001904821115614aa157614aa16141c5565b029392505050565b6000611dc78383614a08565b600060208284031215614ac757600080fd5b5051919050565b600060208284031215614ae057600080fd5b8151611dc78161407e565b60006020808352835180602085015260005b81811015614b1957858101830151858201604001528201614afd565b506000604082860101526040601f19601f8301168501019250505092915050565b600080600060608486031215614b4f57600080fd5b835192506020840151915060408401519050925092509256feec7e8c1c441439dd40959777f4c577ea0cd42fcc1dbe59d2bd0f5d9c55df8db60cd2207518cd3e5213e2c6dbe63d55b60aa893c194a427b7d7f1600408fd5bdea2646970667358221220586c6612d86c86e3e9142245aa54240ae119b5ce8d96bad5082c92082380721264736f6c63430008170033",
  "linkReferences": {},
  "deployedLinkReferences": {}
}