{
  "_format": "hh-sol-artifact-1",
  "contractName": "SettingsManagementFacet",
  "sourceName": "contracts/assetManager/facets/SettingsManagementFacet.sol",
  "abi": [
    {
      "inputs": [],
      "name": "AtLeastOneFactorRequired",
      "type": "error"
    },
    {
      "inputs": [],
      "name": "BipsValueTooHigh",
      "type": "error"
    },
    {
      "inputs": [],
      "name": "BipsValueTooLow",
      "type": "error"
    },
    {
      "inputs": [],
      "name": "CannotAddDeprecatedToken",
      "type": "error"
    },
    {
      "inputs": [],
      "name": "CannotBeZero",
      "type": "error"
    },
    {
      "inputs": [],
      "name": "ConfirmationTimeTooBig",
      "type": "error"
    },
    {
      "inputs": [],
      "name": "DecreaseTooBig",
      "type": "error"
    },
    {
      "inputs": [],
      "name": "DivisionByZero",
      "type": "error"
    },
    {
      "inputs": [],
      "name": "EmergencyPauseActive",
      "type": "error"
    },
    {
      "inputs": [],
      "name": "FactorNotAboveOne",
      "type": "error"
    },
    {
      "inputs": [],
      "name": "FactorsNotIncreasing",
      "type": "error"
    },
    {
      "inputs": [],
      "name": "FeeDecreaseTooBig",
      "type": "error"
    },
    {
      "inputs": [],
      "name": "FeeIncreaseTooBig",
      "type": "error"
    },
    {
      "inputs": [],
      "name": "IncreaseTooBig",
      "type": "error"
    },
    {
      "inputs": [],
      "name": "InvalidAddress",
      "type": "error"
    },
    {
      "inputs": [],
      "name": "InvalidCollateralRatios",
      "type": "error"
    },
    {
      "inputs": [],
      "name": "LengthsNotEqual",
      "type": "error"
    },
    {
      "inputs": [],
      "name": "LotSizeBiggerThanMintingCap",
      "type": "error"
    },
    {
      "inputs": [],
      "name": "LotSizeDecreaseTooBig",
      "type": "error"
    },
    {
      "inputs": [],
      "name": "LotSizeIncreaseTooBig",
      "type": "error"
    },
    {
      "inputs": [],
      "name": "MustBeAtLeastTwoHours",
      "type": "error"
    },
    {
      "inputs": [],
      "name": "NotAttached",
      "type": "error"
    },
    {
      "inputs": [],
      "name": "NotWhitelisted",
      "type": "error"
    },
    {
      "inputs": [],
      "name": "OnlyAssetManagerController",
      "type": "error"
    },
    {
      "inputs": [],
      "name": "TokenAlreadyExists",
      "type": "error"
    },
    {
      "inputs": [],
      "name": "TokenZero",
      "type": "error"
    },
    {
      "inputs": [],
      "name": "TooCloseToPreviousUpdate",
      "type": "error"
    },
    {
      "inputs": [],
      "name": "UnknownToken",
      "type": "error"
    },
    {
      "inputs": [],
      "name": "ValueTooBig",
      "type": "error"
    },
    {
      "inputs": [],
      "name": "ValueTooHigh",
      "type": "error"
    },
    {
      "inputs": [],
      "name": "ValueTooSmall",
      "type": "error"
    },
    {
      "inputs": [],
      "name": "VaultCollateralFactorHigherThanTotal",
      "type": "error"
    },
    {
      "inputs": [],
      "name": "WindowTooSmall",
      "type": "error"
    },
    {
      "anonymous": false,
      "inputs": [
        {
          "indexed": true,
          "internalType": "address",
          "name": "agentVault",
          "type": "address"
        },
        {
          "indexed": false,
          "internalType": "uint256",
          "name": "feeBIPS",
          "type": "uint256"
        },
        {
          "indexed": false,
          "internalType": "uint256",
          "name": "mintingVaultCollateralRatioBIPS",
          "type": "uint256"
        },
        {
          "indexed": false,
          "internalType": "uint256",
          "name": "mintingPoolCollateralRatioBIPS",
          "type": "uint256"
        },
        {
          "indexed": false,
          "internalType": "uint256",
          "name": "freeCollateralLots",
          "type": "uint256"
        }
      ],
      "name": "AgentAvailable",
      "type": "event"
    },
    {
      "anonymous": false,
      "inputs": [
        {
          "indexed": true,
          "internalType": "address",
          "name": "agentVault",
          "type": "address"
        },
        {
          "indexed": false,
          "internalType": "uint8",
          "name": "collateralClass",
          "type": "uint8"
        },
        {
          "indexed": false,
          "internalType": "address",
          "name": "token",
          "type": "address"
        }
      ],
      "name": "AgentCollateralTypeChanged",
      "type": "event"
    },
    {
      "anonymous": false,
      "inputs": [
        {
          "indexed": true,
          "internalType": "address",
          "name": "agentVault",
          "type": "address"
        },
        {
          "indexed": false,
          "internalType": "uint256",
          "name": "destroyAllowedAt",
          "type": "uint256"
        }
      ],
      "name": "AgentDestroyAnnounced",
      "type": "event"
    },
    {
      "anonymous": false,
      "inputs": [
        {
          "indexed": true,
          "internalType": "address",
          "name": "agentVault",
          "type": "address"
        }
      ],
      "name": "AgentDestroyed",
      "type": "event"
    },
    {
      "anonymous": false,
      "inputs": [
        {
          "indexed": true,
          "internalType": "address",
          "name": "agentVault",
          "type": "address"
        },
        {
          "indexed": false,
          "internalType": "string",
          "name": "name",
          "type": "string"
        },
        {
          "indexed": false,
          "internalType": "uint256",
          "name": "value",
          "type": "uint256"
        },
        {
          "indexed": false,
          "internalType": "uint256",
          "name": "validAt",
          "type": "uint256"
        }
      ],
      "name": "AgentSettingChangeAnnounced",
      "type": "event"
    },
    {
      "anonymous": false,
      "inputs": [
        {
          "indexed": true,
          "internalType": "address",
          "name": "agentVault",
          "type": "address"
        },
        {
          "indexed": false,
          "internalType": "string",
          "name": "name",
          "type": "string"
        },
        {
          "indexed": false,
          "internalType": "uint256",
          "name": "value",
          "type": "uint256"
        }
      ],
      "name": "AgentSettingChanged",
      "type": "event"
    },
    {
      "anonymous": false,
      "inputs": [
        {
          "indexed": true,
          "internalType": "address",
          "name": "owner",
          "type": "address"
        },
        {
          "indexed": true,
          "internalType": "address",
          "name": "agentVault",
          "type": "address"
        },
        {
          "components": [
            {
              "internalType": "address",
              "name": "collateralPool",
              "type": "address"
            },
            {
              "internalType": "address",
              "name": "collateralPoolToken",
              "type": "address"
            },
            {
              "internalType": "string",
              "name": "underlyingAddress",
              "type": "string"
            },
            {
              "internalType": "address",
              "name": "vaultCollateralToken",
              "type": "address"
            },
            {
              "internalType": "address",
              "name": "poolWNatToken",
              "type": "address"
            },
            {
              "internalType": "uint256",
              "name": "feeBIPS",
              "type": "uint256"
            },
            {
              "internalType": "uint256",
              "name": "poolFeeShareBIPS",
              "type": "uint256"
            },
            {
              "internalType": "uint256",
              "name": "mintingVaultCollateralRatioBIPS",
              "type": "uint256"
            },
            {
              "internalType": "uint256",
              "name": "mintingPoolCollateralRatioBIPS",
              "type": "uint256"
            },
            {
              "internalType": "uint256",
              "name": "buyFAssetByAgentFactorBIPS",
              "type": "uint256"
            },
            {
              "internalType": "uint256",
              "name": "poolExitCollateralRatioBIPS",
              "type": "uint256"
            },
            {
              "internalType": "uint256",
              "name": "redemptionPoolFeeShareBIPS",
              "type": "uint256"
            }
          ],
          "indexed": false,
          "internalType": "struct IAssetManagerEvents.AgentVaultCreationData",
          "name": "creationData",
          "type": "tuple"
        }
      ],
      "name": "AgentVaultCreated",
      "type": "event"
    },
    {
      "anonymous": false,
      "inputs": [
        {
          "indexed": true,
          "internalType": "address",
          "name": "agentVault",
          "type": "address"
        },
        {
          "indexed": false,
          "internalType": "uint256",
          "name": "exitAllowedAt",
          "type": "uint256"
        }
      ],
      "name": "AvailableAgentExitAnnounced",
      "type": "event"
    },
    {
      "anonymous": false,
      "inputs": [
        {
          "indexed": true,
          "internalType": "address",
          "name": "agentVault",
          "type": "address"
        }
      ],
      "name": "AvailableAgentExited",
      "type": "event"
    },
    {
      "anonymous": false,
      "inputs": [
        {
          "indexed": false,
          "internalType": "uint8",
          "name": "collateralClass",
          "type": "uint8"
        },
        {
          "indexed": false,
          "internalType": "address",
          "name": "collateralToken",
          "type": "address"
        },
        {
          "indexed": false,
          "internalType": "uint256",
          "name": "minCollateralRatioBIPS",
          "type": "uint256"
        },
        {
          "indexed": false,
          "internalType": "uint256",
          "name": "safetyMinCollateralRatioBIPS",
          "type": "uint256"
        }
      ],
      "name": "CollateralRatiosChanged",
      "type": "event"
    },
    {
      "anonymous": false,
      "inputs": [
        {
          "indexed": true,
          "internalType": "address",
          "name": "agentVault",
          "type": "address"
        },
        {
          "indexed": true,
          "internalType": "address",
          "name": "minter",
          "type": "address"
        },
        {
          "indexed": true,
          "internalType": "uint256",
          "name": "collateralReservationId",
          "type": "uint256"
        },
        {
          "indexed": false,
          "internalType": "uint256",
          "name": "reservedAmountUBA",
          "type": "uint256"
        }
      ],
      "name": "CollateralReservationDeleted",
      "type": "event"
    },
    {
      "anonymous": false,
      "inputs": [
        {
          "indexed": true,
          "internalType": "address",
          "name": "agentVault",
          "type": "address"
        },
        {
          "indexed": true,
          "internalType": "address",
          "name": "minter",
          "type": "address"
        },
        {
          "indexed": true,
          "internalType": "uint256",
          "name": "collateralReservationId",
          "type": "uint256"
        },
        {
          "indexed": false,
          "internalType": "uint256",
          "name": "valueUBA",
          "type": "uint256"
        },
        {
          "indexed": false,
          "internalType": "uint256",
          "name": "feeUBA",
          "type": "uint256"
        },
        {
          "indexed": false,
          "internalType": "uint256",
          "name": "firstUnderlyingBlock",
          "type": "uint256"
        },
        {
          "indexed": false,
          "internalType": "uint256",
          "name": "lastUnderlyingBlock",
          "type": "uint256"
        },
        {
          "indexed": false,
          "internalType": "uint256",
          "name": "lastUnderlyingTimestamp",
          "type": "uint256"
        },
        {
          "indexed": false,
          "internalType": "string",
          "name": "paymentAddress",
          "type": "string"
        },
        {
          "indexed": false,
          "internalType": "bytes32",
          "name": "paymentReference",
          "type": "bytes32"
        },
        {
          "indexed": false,
          "internalType": "address",
          "name": "executor",
          "type": "address"
        },
        {
          "indexed": false,
          "internalType": "uint256",
          "name": "executorFeeNatWei",
          "type": "uint256"
        }
      ],
      "name": "CollateralReserved",
      "type": "event"
    },
    {
      "anonymous": false,
      "inputs": [
        {
          "indexed": false,
          "internalType": "uint8",
          "name": "collateralClass",
          "type": "uint8"
        },
        {
          "indexed": false,
          "internalType": "address",
          "name": "token",
          "type": "address"
        },
        {
          "indexed": false,
          "internalType": "uint256",
          "name": "decimals",
          "type": "uint256"
        },
        {
          "indexed": false,
          "internalType": "bool",
          "name": "directPricePair",
          "type": "bool"
        },
        {
          "indexed": false,
          "internalType": "string",
          "name": "assetFtsoSymbol",
          "type": "string"
        },
        {
          "indexed": false,
          "internalType": "string",
          "name": "tokenFtsoSymbol",
          "type": "string"
        },
        {
          "indexed": false,
          "internalType": "uint256",
          "name": "minCollateralRatioBIPS",
          "type": "uint256"
        },
        {
          "indexed": false,
          "internalType": "uint256",
          "name": "safetyMinCollateralRatioBIPS",
          "type": "uint256"
        }
      ],
      "name": "CollateralTypeAdded",
      "type": "event"
    },
    {
      "anonymous": false,
      "inputs": [
        {
          "indexed": false,
          "internalType": "uint8",
          "name": "collateralClass",
          "type": "uint8"
        },
        {
          "indexed": false,
          "internalType": "address",
          "name": "collateralToken",
          "type": "address"
        },
        {
          "indexed": false,
          "internalType": "uint256",
          "name": "validUntil",
          "type": "uint256"
        }
      ],
      "name": "CollateralTypeDeprecated",
      "type": "event"
    },
    {
      "anonymous": false,
      "inputs": [
        {
          "indexed": false,
          "internalType": "string",
          "name": "name",
          "type": "string"
        },
        {
          "indexed": false,
          "internalType": "address",
          "name": "value",
          "type": "address"
        }
      ],
      "name": "ContractChanged",
      "type": "event"
    },
    {
      "anonymous": false,
      "inputs": [
        {
          "indexed": false,
          "internalType": "uint256",
          "name": "underlyingBlockNumber",
          "type": "uint256"
        },
        {
          "indexed": false,
          "internalType": "uint256",
          "name": "underlyingBlockTimestamp",
          "type": "uint256"
        },
        {
          "indexed": false,
          "internalType": "uint256",
          "name": "updatedAt",
          "type": "uint256"
        }
      ],
      "name": "CurrentUnderlyingBlockUpdated",
      "type": "event"
    },
    {
      "anonymous": false,
      "inputs": [
        {
          "indexed": true,
          "internalType": "address",
          "name": "agentVault",
          "type": "address"
        },
        {
          "indexed": false,
          "internalType": "bytes32",
          "name": "transactionHash1",
          "type": "bytes32"
        },
        {
          "indexed": false,
          "internalType": "bytes32",
          "name": "transactionHash2",
          "type": "bytes32"
        }
      ],
      "name": "DuplicatePaymentConfirmed",
      "type": "event"
    },
    {
      "anonymous": false,
      "inputs": [
        {
          "indexed": true,
          "internalType": "address",
          "name": "agentVault",
          "type": "address"
        },
        {
          "indexed": false,
          "internalType": "uint256",
          "name": "dustUBA",
          "type": "uint256"
        }
      ],
      "name": "DustChanged",
      "type": "event"
    },
    {
      "anonymous": false,
      "inputs": [],
      "name": "EmergencyPauseCanceled",
      "type": "event"
    },
    {
      "anonymous": false,
      "inputs": [],
      "name": "EmergencyPauseTransfersCanceled",
      "type": "event"
    },
    {
      "anonymous": false,
      "inputs": [
        {
          "indexed": false,
          "internalType": "uint256",
          "name": "pausedUntil",
          "type": "uint256"
        }
      ],
      "name": "EmergencyPauseTransfersTriggered",
      "type": "event"
    },
    {
      "anonymous": false,
      "inputs": [
        {
          "indexed": false,
          "internalType": "uint256",
          "name": "pausedUntil",
          "type": "uint256"
        }
      ],
      "name": "EmergencyPauseTriggered",
      "type": "event"
    },
    {
      "anonymous": false,
      "inputs": [
        {
          "indexed": true,
          "internalType": "address",
          "name": "agentVault",
          "type": "address"
        },
        {
          "indexed": false,
          "internalType": "uint256",
          "name": "timestamp",
          "type": "uint256"
        }
      ],
      "name": "FullLiquidationStarted",
      "type": "event"
    },
    {
      "anonymous": false,
      "inputs": [
        {
          "indexed": true,
          "internalType": "address",
          "name": "agentVault",
          "type": "address"
        },
        {
          "indexed": false,
          "internalType": "bytes32",
          "name": "transactionHash",
          "type": "bytes32"
        }
      ],
      "name": "IllegalPaymentConfirmed",
      "type": "event"
    },
    {
      "anonymous": false,
      "inputs": [
        {
          "indexed": true,
          "internalType": "address",
          "name": "agentVault",
          "type": "address"
        }
      ],
      "name": "LiquidationEnded",
      "type": "event"
    },
    {
      "anonymous": false,
      "inputs": [
        {
          "indexed": true,
          "internalType": "address",
          "name": "agentVault",
          "type": "address"
        },
        {
          "indexed": true,
          "internalType": "address",
          "name": "liquidator",
          "type": "address"
        },
        {
          "indexed": false,
          "internalType": "uint256",
          "name": "valueUBA",
          "type": "uint256"
        },
        {
          "indexed": false,
          "internalType": "uint256",
          "name": "paidVaultCollateralWei",
          "type": "uint256"
        },
        {
          "indexed": false,
          "internalType": "uint256",
          "name": "paidPoolCollateralWei",
          "type": "uint256"
        }
      ],
      "name": "LiquidationPerformed",
      "type": "event"
    },
    {
      "anonymous": false,
      "inputs": [
        {
          "indexed": true,
          "internalType": "address",
          "name": "agentVault",
          "type": "address"
        },
        {
          "indexed": false,
          "internalType": "uint256",
          "name": "timestamp",
          "type": "uint256"
        }
      ],
      "name": "LiquidationStarted",
      "type": "event"
    },
    {
      "anonymous": false,
      "inputs": [
        {
          "indexed": true,
          "internalType": "address",
          "name": "agentVault",
          "type": "address"
        },
        {
          "indexed": true,
          "internalType": "uint256",
          "name": "collateralReservationId",
          "type": "uint256"
        },
        {
          "indexed": false,
          "internalType": "uint256",
          "name": "mintedAmountUBA",
          "type": "uint256"
        },
        {
          "indexed": false,
          "internalType": "uint256",
          "name": "agentFeeUBA",
          "type": "uint256"
        },
        {
          "indexed": false,
          "internalType": "uint256",
          "name": "poolFeeUBA",
          "type": "uint256"
        }
      ],
      "name": "MintingExecuted",
      "type": "event"
    },
    {
      "anonymous": false,
      "inputs": [
        {
          "indexed": true,
          "internalType": "address",
          "name": "agentVault",
          "type": "address"
        },
        {
          "indexed": true,
          "internalType": "address",
          "name": "minter",
          "type": "address"
        },
        {
          "indexed": true,
          "internalType": "uint256",
          "name": "collateralReservationId",
          "type": "uint256"
        },
        {
          "indexed": false,
          "internalType": "uint256",
          "name": "reservedAmountUBA",
          "type": "uint256"
        }
      ],
      "name": "MintingPaymentDefault",
      "type": "event"
    },
    {
      "anonymous": false,
      "inputs": [
        {
          "indexed": true,
          "internalType": "address",
          "name": "agentVault",
          "type": "address"
        },
        {
          "indexed": false,
          "internalType": "uint256",
          "name": "amountWei",
          "type": "uint256"
        },
        {
          "indexed": false,
          "internalType": "uint256",
          "name": "withdrawalAllowedAt",
          "type": "uint256"
        }
      ],
      "name": "PoolTokenRedemptionAnnounced",
      "type": "event"
    },
    {
      "anonymous": false,
      "inputs": [
        {
          "indexed": true,
          "internalType": "address",
          "name": "agentVault",
          "type": "address"
        },
        {
          "indexed": true,
          "internalType": "address",
          "name": "redeemer",
          "type": "address"
        },
        {
          "indexed": false,
          "internalType": "uint256",
          "name": "redemptionAmountUBA",
          "type": "uint256"
        },
        {
          "indexed": false,
          "internalType": "uint256",
          "name": "paidVaultCollateralWei",
          "type": "uint256"
        }
      ],
      "name": "RedeemedInCollateral",
      "type": "event"
    },
    {
      "anonymous": false,
      "inputs": [
        {
          "indexed": true,
          "internalType": "address",
          "name": "agentVault",
          "type": "address"
        },
        {
          "indexed": true,
          "internalType": "address",
          "name": "redeemer",
          "type": "address"
        },
        {
          "indexed": true,
          "internalType": "uint256",
          "name": "requestId",
          "type": "uint256"
        },
        {
          "indexed": false,
          "internalType": "uint256",
          "name": "redemptionAmountUBA",
          "type": "uint256"
        },
        {
          "indexed": false,
          "internalType": "uint256",
          "name": "redeemedVaultCollateralWei",
          "type": "uint256"
        },
        {
          "indexed": false,
          "internalType": "uint256",
          "name": "redeemedPoolCollateralWei",
          "type": "uint256"
        }
      ],
      "name": "RedemptionDefault",
      "type": "event"
    },
    {
      "anonymous": false,
      "inputs": [
        {
          "indexed": true,
          "internalType": "address",
          "name": "agentVault",
          "type": "address"
        },
        {
          "indexed": true,
          "internalType": "address",
          "name": "redeemer",
          "type": "address"
        },
        {
          "indexed": true,
          "internalType": "uint256",
          "name": "requestId",
          "type": "uint256"
        },
        {
          "indexed": false,
          "internalType": "bytes32",
          "name": "transactionHash",
          "type": "bytes32"
        },
        {
          "indexed": false,
          "internalType": "uint256",
          "name": "redemptionAmountUBA",
          "type": "uint256"
        },
        {
          "indexed": false,
          "internalType": "int256",
          "name": "spentUnderlyingUBA",
          "type": "int256"
        }
      ],
      "name": "RedemptionPaymentBlocked",
      "type": "event"
    },
    {
      "anonymous": false,
      "inputs": [
        {
          "indexed": true,
          "internalType": "address",
          "name": "agentVault",
          "type": "address"
        },
        {
          "indexed": true,
          "internalType": "address",
          "name": "redeemer",
          "type": "address"
        },
        {
          "indexed": true,
          "internalType": "uint256",
          "name": "requestId",
          "type": "uint256"
        },
        {
          "indexed": false,
          "internalType": "bytes32",
          "name": "transactionHash",
          "type": "bytes32"
        },
        {
          "indexed": false,
          "internalType": "int256",
          "name": "spentUnderlyingUBA",
          "type": "int256"
        },
        {
          "indexed": false,
          "internalType": "string",
          "name": "failureReason",
          "type": "string"
        }
      ],
      "name": "RedemptionPaymentFailed",
      "type": "event"
    },
    {
      "anonymous": false,
      "inputs": [
        {
          "indexed": true,
          "internalType": "address",
          "name": "agentVault",
          "type": "address"
        },
        {
          "indexed": true,
          "internalType": "address",
          "name": "redeemer",
          "type": "address"
        },
        {
          "indexed": true,
          "internalType": "uint256",
          "name": "requestId",
          "type": "uint256"
        },
        {
          "indexed": false,
          "internalType": "bytes32",
          "name": "transactionHash",
          "type": "bytes32"
        },
        {
          "indexed": false,
          "internalType": "uint256",
          "name": "redemptionAmountUBA",
          "type": "uint256"
        },
        {
          "indexed": false,
          "internalType": "int256",
          "name": "spentUnderlyingUBA",
          "type": "int256"
        }
      ],
      "name": "RedemptionPerformed",
      "type": "event"
    },
    {
      "anonymous": false,
      "inputs": [
        {
          "indexed": true,
          "internalType": "address",
          "name": "agentVault",
          "type": "address"
        },
        {
          "indexed": true,
          "internalType": "uint256",
          "name": "requestId",
          "type": "uint256"
        },
        {
          "indexed": false,
          "internalType": "uint256",
          "name": "poolFeeUBA",
          "type": "uint256"
        }
      ],
      "name": "RedemptionPoolFeeMinted",
      "type": "event"
    },
    {
      "anonymous": false,
      "inputs": [
        {
          "indexed": true,
          "internalType": "address",
          "name": "agentVault",
          "type": "address"
        },
        {
          "indexed": true,
          "internalType": "address",
          "name": "redeemer",
          "type": "address"
        },
        {
          "indexed": true,
          "internalType": "uint256",
          "name": "requestId",
          "type": "uint256"
        },
        {
          "indexed": false,
          "internalType": "uint256",
          "name": "redemptionAmountUBA",
          "type": "uint256"
        }
      ],
      "name": "RedemptionRejected",
      "type": "event"
    },
    {
      "anonymous": false,
      "inputs": [
        {
          "indexed": true,
          "internalType": "address",
          "name": "redeemer",
          "type": "address"
        },
        {
          "indexed": false,
          "internalType": "uint256",
          "name": "remainingLots",
          "type": "uint256"
        }
      ],
      "name": "RedemptionRequestIncomplete",
      "type": "event"
    },
    {
      "anonymous": false,
      "inputs": [
        {
          "indexed": true,
          "internalType": "address",
          "name": "agentVault",
          "type": "address"
        },
        {
          "indexed": true,
          "internalType": "address",
          "name": "redeemer",
          "type": "address"
        },
        {
          "indexed": true,
          "internalType": "uint256",
          "name": "requestId",
          "type": "uint256"
        },
        {
          "indexed": false,
          "internalType": "string",
          "name": "paymentAddress",
          "type": "string"
        },
        {
          "indexed": false,
          "internalType": "uint256",
          "name": "valueUBA",
          "type": "uint256"
        },
        {
          "indexed": false,
          "internalType": "uint256",
          "name": "feeUBA",
          "type": "uint256"
        },
        {
          "indexed": false,
          "internalType": "uint256",
          "name": "firstUnderlyingBlock",
          "type": "uint256"
        },
        {
          "indexed": false,
          "internalType": "uint256",
          "name": "lastUnderlyingBlock",
          "type": "uint256"
        },
        {
          "indexed": false,
          "internalType": "uint256",
          "name": "lastUnderlyingTimestamp",
          "type": "uint256"
        },
        {
          "indexed": false,
          "internalType": "bytes32",
          "name": "paymentReference",
          "type": "bytes32"
        },
        {
          "indexed": false,
          "internalType": "address",
          "name": "executor",
          "type": "address"
        },
        {
          "indexed": false,
          "internalType": "uint256",
          "name": "executorFeeNatWei",
          "type": "uint256"
        }
      ],
      "name": "RedemptionRequested",
      "type": "event"
    },
    {
      "anonymous": false,
      "inputs": [
        {
          "indexed": true,
          "internalType": "address",
          "name": "agentVault",
          "type": "address"
        },
        {
          "indexed": true,
          "internalType": "uint256",
          "name": "redemptionTicketId",
          "type": "uint256"
        },
        {
          "indexed": false,
          "internalType": "uint256",
          "name": "ticketValueUBA",
          "type": "uint256"
        }
      ],
      "name": "RedemptionTicketCreated",
      "type": "event"
    },
    {
      "anonymous": false,
      "inputs": [
        {
          "indexed": true,
          "internalType": "address",
          "name": "agentVault",
          "type": "address"
        },
        {
          "indexed": true,
          "internalType": "uint256",
          "name": "redemptionTicketId",
          "type": "uint256"
        }
      ],
      "name": "RedemptionTicketDeleted",
      "type": "event"
    },
    {
      "anonymous": false,
      "inputs": [
        {
          "indexed": true,
          "internalType": "address",
          "name": "agentVault",
          "type": "address"
        },
        {
          "indexed": true,
          "internalType": "uint256",
          "name": "redemptionTicketId",
          "type": "uint256"
        },
        {
          "indexed": false,
          "internalType": "uint256",
          "name": "ticketValueUBA",
          "type": "uint256"
        }
      ],
      "name": "RedemptionTicketUpdated",
      "type": "event"
    },
    {
      "anonymous": false,
      "inputs": [
        {
          "indexed": true,
          "internalType": "address",
          "name": "agentVault",
          "type": "address"
        },
        {
          "indexed": false,
          "internalType": "uint256",
          "name": "valueUBA",
          "type": "uint256"
        }
      ],
      "name": "SelfClose",
      "type": "event"
    },
    {
      "anonymous": false,
      "inputs": [
        {
          "indexed": true,
          "internalType": "address",
          "name": "agentVault",
          "type": "address"
        },
        {
          "indexed": false,
          "internalType": "bool",
          "name": "mintFromFreeUnderlying",
          "type": "bool"
        },
        {
          "indexed": false,
          "internalType": "uint256",
          "name": "mintedAmountUBA",
          "type": "uint256"
        },
        {
          "indexed": false,
          "internalType": "uint256",
          "name": "depositedAmountUBA",
          "type": "uint256"
        },
        {
          "indexed": false,
          "internalType": "uint256",
          "name": "poolFeeUBA",
          "type": "uint256"
        }
      ],
      "name": "SelfMint",
      "type": "event"
    },
    {
      "anonymous": false,
      "inputs": [
        {
          "indexed": false,
          "internalType": "string",
          "name": "name",
          "type": "string"
        },
        {
          "indexed": false,
          "internalType": "uint256[]",
          "name": "value",
          "type": "uint256[]"
        }
      ],
      "name": "SettingArrayChanged",
      "type": "event"
    },
    {
      "anonymous": false,
      "inputs": [
        {
          "indexed": false,
          "internalType": "string",
          "name": "name",
          "type": "string"
        },
        {
          "indexed": false,
          "internalType": "uint256",
          "name": "value",
          "type": "uint256"
        }
      ],
      "name": "SettingChanged",
      "type": "event"
    },
    {
      "anonymous": false,
      "inputs": [
        {
          "indexed": true,
          "internalType": "address",
          "name": "agentVault",
          "type": "address"
        },
        {
          "indexed": false,
          "internalType": "int256",
          "name": "underlyingBalanceUBA",
          "type": "int256"
        }
      ],
      "name": "UnderlyingBalanceChanged",
      "type": "event"
    },
    {
      "anonymous": false,
      "inputs": [
        {
          "indexed": true,
          "internalType": "address",
          "name": "agentVault",
          "type": "address"
        },
        {
          "indexed": false,
          "internalType": "int256",
          "name": "balance",
          "type": "int256"
        },
        {
          "indexed": false,
          "internalType": "uint256",
          "name": "requiredBalance",
          "type": "uint256"
        }
      ],
      "name": "UnderlyingBalanceTooLow",
      "type": "event"
    },
    {
      "anonymous": false,
      "inputs": [
        {
          "indexed": true,
          "internalType": "address",
          "name": "agentVault",
          "type": "address"
        },
        {
          "indexed": false,
          "internalType": "bytes32",
          "name": "transactionHash",
          "type": "bytes32"
        },
        {
          "indexed": false,
          "internalType": "uint256",
          "name": "depositedUBA",
          "type": "uint256"
        }
      ],
      "name": "UnderlyingBalanceToppedUp",
      "type": "event"
    },
    {
      "anonymous": false,
      "inputs": [
        {
          "indexed": true,
          "internalType": "address",
          "name": "agentVault",
          "type": "address"
        },
        {
          "indexed": true,
          "internalType": "uint256",
          "name": "announcementId",
          "type": "uint256"
        },
        {
          "indexed": false,
          "internalType": "bytes32",
          "name": "paymentReference",
          "type": "bytes32"
        }
      ],
      "name": "UnderlyingWithdrawalAnnounced",
      "type": "event"
    },
    {
      "anonymous": false,
      "inputs": [
        {
          "indexed": true,
          "internalType": "address",
          "name": "agentVault",
          "type": "address"
        },
        {
          "indexed": true,
          "internalType": "uint256",
          "name": "announcementId",
          "type": "uint256"
        }
      ],
      "name": "UnderlyingWithdrawalCancelled",
      "type": "event"
    },
    {
      "anonymous": false,
      "inputs": [
        {
          "indexed": true,
          "internalType": "address",
          "name": "agentVault",
          "type": "address"
        },
        {
          "indexed": true,
          "internalType": "uint256",
          "name": "announcementId",
          "type": "uint256"
        },
        {
          "indexed": false,
          "internalType": "int256",
          "name": "spentUBA",
          "type": "int256"
        },
        {
          "indexed": false,
          "internalType": "bytes32",
          "name": "transactionHash",
          "type": "bytes32"
        }
      ],
      "name": "UnderlyingWithdrawalConfirmed",
      "type": "event"
    },
    {
      "anonymous": false,
      "inputs": [
        {
          "indexed": true,
          "internalType": "address",
          "name": "agentVault",
          "type": "address"
        },
        {
          "indexed": false,
          "internalType": "uint256",
          "name": "amountWei",
          "type": "uint256"
        },
        {
          "indexed": false,
          "internalType": "uint256",
          "name": "withdrawalAllowedAt",
          "type": "uint256"
        }
      ],
      "name": "VaultCollateralWithdrawalAnnounced",
      "type": "event"
    },
    {
      "inputs": [
        {
          "internalType": "uint256",
          "name": "_value",
          "type": "uint256"
        }
      ],
      "name": "setAgentExitAvailableTimelockSeconds",
      "outputs": [],
      "stateMutability": "nonpayable",
      "type": "function"
    },
    {
      "inputs": [
        {
          "internalType": "uint256",
          "name": "_value",
          "type": "uint256"
        }
      ],
      "name": "setAgentFeeChangeTimelockSeconds",
      "outputs": [],
      "stateMutability": "nonpayable",
      "type": "function"
    },
    {
      "inputs": [
        {
          "internalType": "uint256",
          "name": "_value",
          "type": "uint256"
        }
      ],
      "name": "setAgentMintingCRChangeTimelockSeconds",
      "outputs": [],
      "stateMutability": "nonpayable",
      "type": "function"
    },
    {
      "inputs": [
        {
          "internalType": "address",
          "name": "_value",
          "type": "address"
        }
      ],
      "name": "setAgentOwnerRegistry",
      "outputs": [],
      "stateMutability": "nonpayable",
      "type": "function"
    },
    {
      "inputs": [
        {
          "internalType": "uint256",
          "name": "_value",
          "type": "uint256"
        }
      ],
      "name": "setAgentTimelockedOperationWindowSeconds",
      "outputs": [],
      "stateMutability": "nonpayable",
      "type": "function"
    },
    {
      "inputs": [
        {
          "internalType": "address",
          "name": "_value",
          "type": "address"
        }
      ],
      "name": "setAgentVaultFactory",
      "outputs": [],
      "stateMutability": "nonpayable",
      "type": "function"
    },
    {
      "inputs": [
        {
          "internalType": "uint256",
          "name": "_value",
          "type": "uint256"
        }
      ],
      "name": "setAttestationWindowSeconds",
      "outputs": [],
      "stateMutability": "nonpayable",
      "type": "function"
    },
    {
      "inputs": [
        {
          "internalType": "uint256",
          "name": "_value",
          "type": "uint256"
        }
      ],
      "name": "setAverageBlockTimeMS",
      "outputs": [],
      "stateMutability": "nonpayable",
      "type": "function"
    },
    {
      "inputs": [
        {
          "internalType": "address",
          "name": "_value",
          "type": "address"
        }
      ],
      "name": "setCleanerContract",
      "outputs": [],
      "stateMutability": "nonpayable",
      "type": "function"
    },
    {
      "inputs": [
        {
          "internalType": "address",
          "name": "_value",
          "type": "address"
        }
      ],
      "name": "setCleanupBlockNumberManager",
      "outputs": [],
      "stateMutability": "nonpayable",
      "type": "function"
    },
    {
      "inputs": [
        {
          "internalType": "address",
          "name": "_value",
          "type": "address"
        }
      ],
      "name": "setCollateralPoolFactory",
      "outputs": [],
      "stateMutability": "nonpayable",
      "type": "function"
    },
    {
      "inputs": [
        {
          "internalType": "address",
          "name": "_value",
          "type": "address"
        }
      ],
      "name": "setCollateralPoolTokenFactory",
      "outputs": [],
      "stateMutability": "nonpayable",
      "type": "function"
    },
    {
      "inputs": [
        {
          "internalType": "uint256",
          "name": "_value",
          "type": "uint256"
        }
      ],
      "name": "setCollateralPoolTokenTimelockSeconds",
      "outputs": [],
      "stateMutability": "nonpayable",
      "type": "function"
    },
    {
      "inputs": [
        {
          "internalType": "uint256",
          "name": "_value",
          "type": "uint256"
        }
      ],
      "name": "setCollateralReservationFeeBips",
      "outputs": [],
      "stateMutability": "nonpayable",
      "type": "function"
    },
    {
      "inputs": [
        {
          "internalType": "uint256",
          "name": "_value",
          "type": "uint256"
        }
      ],
      "name": "setConfirmationByOthersAfterSeconds",
      "outputs": [],
      "stateMutability": "nonpayable",
      "type": "function"
    },
    {
      "inputs": [
        {
          "internalType": "uint256",
          "name": "_value",
          "type": "uint256"
        }
      ],
      "name": "setConfirmationByOthersRewardUSD5",
      "outputs": [],
      "stateMutability": "nonpayable",
      "type": "function"
    },
    {
      "inputs": [
        {
          "internalType": "uint256",
          "name": "_value",
          "type": "uint256"
        }
      ],
      "name": "setEmergencyPauseDurationResetAfterSeconds",
      "outputs": [],
      "stateMutability": "nonpayable",
      "type": "function"
    },
    {
      "inputs": [
        {
          "internalType": "address",
          "name": "_value",
          "type": "address"
        }
      ],
      "name": "setFdcVerification",
      "outputs": [],
      "stateMutability": "nonpayable",
      "type": "function"
    },
    {
      "inputs": [
        {
          "internalType": "uint256[]",
          "name": "_liquidationFactors",
          "type": "uint256[]"
        },
        {
          "internalType": "uint256[]",
          "name": "_vaultCollateralFactors",
          "type": "uint256[]"
        }
      ],
      "name": "setLiquidationPaymentFactors",
      "outputs": [],
      "stateMutability": "nonpayable",
      "type": "function"
    },
    {
      "inputs": [
        {
          "internalType": "uint256",
          "name": "_stepSeconds",
          "type": "uint256"
        }
      ],
      "name": "setLiquidationStepSeconds",
      "outputs": [],
      "stateMutability": "nonpayable",
      "type": "function"
    },
    {
      "inputs": [
        {
          "internalType": "uint256",
          "name": "_value",
          "type": "uint256"
        }
      ],
      "name": "setLotSizeAmg",
      "outputs": [],
      "stateMutability": "nonpayable",
      "type": "function"
    },
    {
      "inputs": [
        {
          "internalType": "uint256",
          "name": "_value",
          "type": "uint256"
        }
      ],
      "name": "setMaxEmergencyPauseDurationSeconds",
      "outputs": [],
      "stateMutability": "nonpayable",
      "type": "function"
    },
    {
      "inputs": [
        {
          "internalType": "uint256",
          "name": "_value",
          "type": "uint256"
        }
      ],
      "name": "setMaxRedeemedTickets",
      "outputs": [],
      "stateMutability": "nonpayable",
      "type": "function"
    },
    {
      "inputs": [
        {
          "internalType": "uint256",
          "name": "_value",
          "type": "uint256"
        }
      ],
      "name": "setMaxTrustedPriceAgeSeconds",
      "outputs": [],
      "stateMutability": "nonpayable",
      "type": "function"
    },
    {
      "inputs": [
        {
          "internalType": "uint256",
          "name": "_value",
          "type": "uint256"
        }
      ],
      "name": "setMinUpdateRepeatTimeSeconds",
      "outputs": [],
      "stateMutability": "nonpayable",
      "type": "function"
    },
    {
      "inputs": [
        {
          "internalType": "uint256",
          "name": "_value",
          "type": "uint256"
        }
      ],
      "name": "setMintingCapAmg",
      "outputs": [],
      "stateMutability": "nonpayable",
      "type": "function"
    },
    {
      "inputs": [
        {
          "internalType": "uint256",
          "name": "_value",
          "type": "uint256"
        }
      ],
      "name": "setMintingPoolHoldingsRequiredBIPS",
      "outputs": [],
      "stateMutability": "nonpayable",
      "type": "function"
    },
    {
      "inputs": [
        {
          "internalType": "uint256",
          "name": "_rewardNATWei",
          "type": "uint256"
        },
        {
          "internalType": "uint256",
          "name": "_rewardBIPS",
          "type": "uint256"
        }
      ],
      "name": "setPaymentChallengeReward",
      "outputs": [],
      "stateMutability": "nonpayable",
      "type": "function"
    },
    {
      "inputs": [
        {
          "internalType": "uint256",
          "name": "_value",
          "type": "uint256"
        }
      ],
      "name": "setPoolExitCRChangeTimelockSeconds",
      "outputs": [],
      "stateMutability": "nonpayable",
      "type": "function"
    },
    {
      "inputs": [
        {
          "internalType": "address",
          "name": "_value",
          "type": "address"
        }
      ],
      "name": "setPriceReader",
      "outputs": [],
      "stateMutability": "nonpayable",
      "type": "function"
    },
    {
      "inputs": [
        {
          "internalType": "uint256",
          "name": "_value",
          "type": "uint256"
        }
      ],
      "name": "setRedemptionDefaultFactorVaultCollateralBIPS",
      "outputs": [],
      "stateMutability": "nonpayable",
      "type": "function"
    },
    {
      "inputs": [
        {
          "internalType": "uint256",
          "name": "_value",
          "type": "uint256"
        }
      ],
      "name": "setRedemptionFeeBips",
      "outputs": [],
      "stateMutability": "nonpayable",
      "type": "function"
    },
    {
      "inputs": [
        {
          "internalType": "uint256",
          "name": "_underlyingBlocks",
          "type": "uint256"
        },
        {
          "internalType": "uint256",
          "name": "_underlyingSeconds",
          "type": "uint256"
        }
      ],
      "name": "setTimeForPayment",
      "outputs": [],
      "stateMutability": "nonpayable",
      "type": "function"
    },
    {
      "inputs": [
        {
          "internalType": "uint256",
          "name": "_value",
          "type": "uint256"
        }
      ],
      "name": "setTokenInvalidationTimeMinSeconds",
      "outputs": [],
      "stateMutability": "nonpayable",
      "type": "function"
    },
    {
      "inputs": [
        {
          "internalType": "uint256",
          "name": "_value",
          "type": "uint256"
        }
      ],
      "name": "setVaultCollateralBuyForFlareFactorBIPS",
      "outputs": [],
      "stateMutability": "nonpayable",
      "type": "function"
    },
    {
      "inputs": [
        {
          "internalType": "uint256",
          "name": "_value",
          "type": "uint256"
        }
      ],
      "name": "setWithdrawalOrDestroyWaitMinSeconds",
      "outputs": [],
      "stateMutability": "nonpayable",
      "type": "function"
    },
    {
      "inputs": [
        {
          "internalType": "address",
          "name": "_controller",
          "type": "address"
        },
        {
          "internalType": "contract IWNat",
          "name": "_wNat",
          "type": "address"
        }
      ],
      "name": "updateSystemContracts",
      "outputs": [],
      "stateMutability": "nonpayable",
      "type": "function"
    },
    {
      "inputs": [
        {
          "internalType": "address",
          "name": "_value",
          "type": "address"
        },
        {
          "internalType": "bytes",
          "name": "callData",
          "type": "bytes"
        }
      ],
      "name": "upgradeFAssetImplementation",
      "outputs": [],
      "stateMutability": "nonpayable",
      "type": "function"
    }
  ],
  "bytecode": "0x6080604052348015600f57600080fd5b506143a78061001f6000396000f3fe608060405234801561001057600080fd5b50600436106102325760003560e01c80638d94510a11610130578063d0743395116100b8578063e443147f1161007c578063e443147f146104ac578063e68f3fbf146104bf578063ec516d24146104d2578063ec7430a4146104e5578063f6a494af146104f857600080fd5b8063d07433951461044d578063d57d25c514610460578063dd64bd0414610473578063df06ea9614610486578063dfc594171461049957600080fd5b8063af5f2b98116100ff578063af5f2b98146103ee578063b2e6a2b514610401578063be06971914610414578063cda4c54114610427578063cfcb991d1461043a57600080fd5b80638d94510a146103a25780639db27f55146103b55780639e193242146103c8578063ad74c72d146103db57600080fd5b806369b89e7e116101be5780636df310d6116101825780636df310d6146103435780637800a11f146103565780637b6fa762146103695780637f4fcaa91461037c578063812e7d2e1461038f57600080fd5b806369b89e7e146102e45780636a598609146102f75780636ad6fb4f1461030a5780636b38c6431461031d5780636dd3d5891461033057600080fd5b806347814c061161020557806347814c0614610285578063568ae58e146102985780635ac5c11e146102ab5780636075765d146102be57806368f224ba146102d157600080fd5b8063050f44391461023757806313d6a5e21461024c5780632779aaaa1461025f5780632c06abf014610272575b600080fd5b61024a610245366004613b44565b61050b565b005b61024a61025a366004613b72565b6105bb565b61024a61026d366004613b44565b610668565b61024a610280366004613b44565b610734565b61024a610293366004613b44565b61083f565b61024a6102a6366004613b44565b610971565b61024a6102b9366004613b44565b610ac8565b61024a6102cc366004613b8f565b610c28565b61024a6102df366004613bc8565b610d59565b61024a6102f2366004613bc8565b610fa2565b61024a610305366004613c30565b61111f565b61024a610318366004613b44565b611270565b61024a61032b366004613b44565b611333565b61024a61033e366004613b72565b611404565b61024a610351366004613b44565b6114b5565b61024a610364366004613b44565b61161a565b61024a610377366004613b44565b611792565b61024a61038a366004613b72565b61189b565b61024a61039d366004613b44565b611972565b61024a6103b0366004613b44565b611a45565b61024a6103c3366004613b44565b611b9e565b61024a6103d6366004613b44565b611cf2565b61024a6103e9366004613b44565b611e5a565b61024a6103fc366004613b44565b611f47565b61024a61040f366004613b44565b6120c9565b61024a610422366004613b72565b612194565b61024a610435366004613b72565b61223b565b61024a610448366004613b44565b6122e9565b61024a61045b366004613b44565b61240e565b61024a61046e366004613b44565b612550565b61024a610481366004613b44565b612619565b61024a610494366004613b72565b61272c565b61024a6104a7366004613b44565b6127e5565b61024a6104ba366004613b72565b6128ae565b61024a6104cd366004613b44565b612959565b61024a6104e0366004613d5d565b612a4f565b61024a6104f3366004613b44565b612b88565b61024a610506366004613b72565b612c87565b610513612d50565b61051b612d8a565b6000610525612da1565b905061053082612dc5565b6012820180546001600160401b0392909216600160401b0267ffffffffffffffff60401b1990921691909117905560408051818152601f918101919091527f746f6b656e496e76616c69646174696f6e54696d654d696e5365636f6e647300606082015260208101839052600080516020614352833981519152906080015b60405180910390a15050565b6105c3612d50565b6105cb612d8a565b60006105d5612da1565b90506001600160a01b0382166105fe5760405163e6c4247b60e01b815260040160405180910390fd5b6002810180546001600160a01b0319166001600160a01b03841690811790915560408051818152601191810191909152706167656e745661756c74466163746f727960781b60608201526020810191909152600080516020614332833981519152906080016105af565b610670612d50565b610678612d8a565b6000610682612da1565b9050620151808210156106a8576040516388e95d8560e01b815260040160405180910390fd5b6106b182612dc5565b6011820180546001600160401b0392909216600160401b0267ffffffffffffffff60401b19909216919091179055604080518181526018918101919091527f6174746573746174696f6e57696e646f775365636f6e64730000000000000000606082015260208101839052600080516020614352833981519152906080016105af565b61073c612d50565b610744612d8a565b600061074e612da1565b601381015490915061077190600160401b90046001600160401b03166004613dda565b61077e9062015180613e03565b6001600160401b03168211156107a7576040516335cec84f60e01b815260040160405180910390fd5b6107b082612dc5565b6013820180546001600160401b0392909216600160401b0267ffffffffffffffff60401b19909216919091179055604080518181526023918101919091527f6167656e744d696e74696e6743524368616e676554696d656c6f636b5365636f6060820152626e647360e81b6080820152602081018390526000805160206143528339815191529060a0016105af565b610847612d50565b61084f612d8a565b6000610859612da1565b90506000821161087c57604051631e1d0ab560e01b815260040160405180910390fd5b600f81015461089790600160801b900461ffff166002613e22565b61ffff168211156108bb576040516313d2afed60e31b815260040160405180910390fd5b600f8101546108d790600490600160801b900461ffff16613e55565b61ffff168210156108fb576040516348e8562160e11b815260040160405180910390fd5b61090482612e36565b600f8201805461ffff92909216600160801b0261ffff60801b1990921691909117905560408051818152601291810191909152716d617852656465656d65645469636b65747360701b606082015260208101839052600080516020614352833981519152906080016105af565b610979612d50565b610981612d8a565b600061098b612da1565b9050600082116109ae57604051631e1d0ab560e01b815260040160405180910390fd5b60108101546109ce90600160c01b90046001600160401b03166002613dda565b6001600160401b03168211156109f75760405163acce294560e01b815260040160405180910390fd5b6010810154610a1890600290600160c01b90046001600160401b0316613e79565b6001600160401b0316821015610a41576040516369cdc9c360e01b815260040160405180910390fd5b610a4a82612dc5565b6010820180546001600160401b0392909216600160c01b026001600160c01b03909216919091179055604080518181526019918101919091527f6d61785472757374656450726963654167655365636f6e647300000000000000606082015260208101839052600080516020614352833981519152906080016105af565b610ad0612d50565b610ad8612d8a565b6000610ae2612da1565b905060008211610b0557604051631e1d0ab560e01b815260040160405180910390fd5b612710821115610b285760405163fb1fb2d360e01b815260040160405180910390fd5b600c810154610b4390600160401b900461ffff166004613e22565b61ffff16821115610b675760405163acce294560e01b815260040160405180910390fd5b600c810154610b8390600490600160401b900461ffff16613e55565b61ffff16821015610ba7576040516369cdc9c360e01b815260040160405180910390fd5b610bb082612e36565b600c8201805461ffff92909216600160401b0261ffff60401b1990921691909117905560408051818152601c918101919091527f636f6c6c61746572616c5265736572766174696f6e4665654249505300000000606082015260208101839052600080516020614352833981519152906080016105af565b610c30612d50565b6000610c3a612da1565b80549091506001600160a01b03848116911614610cbb5780546001600160a01b0384166001600160a01b031990911681178255604080518181526016818301527530b9b9b2ba26b0b730b3b2b921b7b73a3937b63632b960511b60608201526020810192909252516000805160206143328339815191529181900360800190a15b6000610cc5612e99565b9050826001600160a01b0316816001600160a01b031614610d53576000610ced600183612f06565b600060608201526001600160a01b03851660208201529050610d0e81612f2f565b60408051818152600481830152631dd3985d60e21b60608201526001600160a01b038616602082015290516000805160206143328339815191529181900360800190a1505b50505050565b610d61612d50565b610d69612d8a565b6000610d73612da1565b6010810154909150610d8f906001600160801b03166004613ea7565b610da29068056bc75e2d63100000613ec9565b6001600160801b0316831115610dcb576040516313d2afed60e31b815260040160405180910390fd5b6010810154610de5906004906001600160801b0316613ee8565b6001600160801b0316831015610e0e576040516348e8562160e11b815260040160405180910390fd5b600f810154610e2990600160901b900461ffff166004613e22565b610e34906064613f16565b61ffff16821115610e58576040516313d2afed60e31b815260040160405180910390fd5b600f810154610e7490600490600160901b900461ffff16613e55565b61ffff16821015610e98576040516348e8562160e11b815260040160405180910390fd5b610ea183612f49565b6010820180546001600160801b0319166001600160801b0392909216919091179055610ecc82612e36565b600f8201805461ffff60901b1916600160901b61ffff939093169290920291909117905560408051818152601a818301527f7061796d656e744368616c6c656e67655265776172645553443500000000000060608201526020810185905290516000805160206143528339815191529181900360800190a160408051818152601a918101919091527f7061796d656e744368616c6c656e676552657761726442495053000000000000606082015260208101839052600080516020614352833981519152906080015b60405180910390a1505050565b610faa612d50565b610fb2612d8a565b6000610fbc612da1565b905060008211610fdf57604051631e1d0ab560e01b815260040160405180910390fd5b6000831161100057604051631e1d0ab560e01b815260040160405180910390fd5b600c810154611018908490849063ffffffff16612fb2565b61102183612dc5565b81600d0160136101000a8154816001600160401b0302191690836001600160401b0316021790555061105282612dc5565b600e8201805467ffffffffffffffff19166001600160401b039290921691909117905560408051818152601a818301527f756e6465726c79696e67426c6f636b73466f725061796d656e740000000000006060820152602081018590529051600080516020614352833981519152916080908290030190a160408051818152601b918101919091527f756e6465726c79696e675365636f6e6473466f725061796d656e74000000000060608201526020810183905260008051602061435283398151915290608001610f95565b611127612d50565b61112f612d8a565b6000611139613015565b90506001600160a01b0383166111625760405163e6c4247b60e01b815260040160405180910390fd5b8151156111ce5760405163278f794360e11b81526001600160a01b03821690634f1ef286906111979086908690600401613f76565b600060405180830381600087803b1580156111b157600080fd5b505af11580156111c5573d6000803e3d6000fd5b5050505061122a565b604051631b2ce7f360e11b81526001600160a01b038481166004830152821690633659cfe690602401600060405180830381600087803b15801561121157600080fd5b505af1158015611225573d6000803e3d6000fd5b505050505b604080518181526006918101919091526519905cdcd95d60d21b60608201526001600160a01b038416602082015260008051602061433283398151915290608001610f95565b611278612d50565b611280612d8a565b600061128a612da1565b9050603c8210156112ae57604051639a721da360e01b815260040160405180910390fd5b6112b782613033565b60148201805463ffffffff191663ffffffff92909216919091179055604080518181526022918101919091527f636f6c6c61746572616c506f6f6c546f6b656e54696d656c6f636b5365636f6e606082015261647360f01b6080820152602081018390526000805160206143528339815191529060a0016105af565b61133b612d50565b611343612d8a565b600061134d612da1565b905061271082101561137257604051639a721da360e01b815260040160405180910390fd5b61137b82613033565b60128201805463ffffffff92909216600160801b0263ffffffff60801b19909216919091179055604080518181526024918101919091527f7661756c74436f6c6c61746572616c427579466f72466c617265466163746f726060820152634249505360e01b6080820152602081018390526000805160206143528339815191529060a0016105af565b61140c612d50565b611414612d8a565b600061141e612da1565b90506001600160a01b0382166114475760405163e6c4247b60e01b815260040160405180910390fd5b6003810180546001600160a01b0319166001600160a01b0384169081179091556040805181815260159181019190915274636f6c6c61746572616c506f6f6c466163746f727960581b60608201526020810191909152600080516020614332833981519152906080016105af565b6114bd612d50565b6114c5612d8a565b60006114cf612da1565b9050600082116114f257604051631e1d0ab560e01b815260040160405180910390fd5b601781015461151290600160401b90046001600160401b03166004613dda565b61151d90603c613e03565b6001600160401b0316821115611546576040516313d2afed60e31b815260040160405180910390fd5b601781015461156790600490600160401b90046001600160401b0316613e79565b6001600160401b0316821015611590576040516348e8562160e11b815260040160405180910390fd5b61159982612dc5565b6017820180546001600160401b0392909216600160401b0267ffffffffffffffff60401b199092169190911790556040805181815260209181018290527f6d6178456d657267656e637950617573654475726174696f6e5365636f6e64736060820152908101839052600080516020614352833981519152906080016105af565b611622612d50565b61162a612d8a565b6000611634612da1565b90506000821161165757604051631e1d0ab560e01b815260040160405180910390fd5b601781015461167790600160801b90046001600160401b03166004613dda565b61168390610e10613e03565b6001600160401b03168211156116ac576040516313d2afed60e31b815260040160405180910390fd5b60178101546116cd90600490600160801b90046001600160401b0316613e79565b6001600160401b03168210156116f6576040516348e8562160e11b815260040160405180910390fd5b6116ff82612dc5565b6017820180546001600160401b0392909216600160801b0267ffffffffffffffff60801b19909216919091179055604080518181526027918101919091527f656d657267656e637950617573654475726174696f6e526573657441667465726060820152665365636f6e647360c81b6080820152602081018390526000805160206143528339815191529060a0016105af565b61179a612d50565b6117a2612d8a565b60006117ac612da1565b60128101549091506117cf90600160a01b90046001600160401b03166004613dda565b6117dc9062093a80613e03565b6001600160401b0316821115611805576040516335cec84f60e01b815260040160405180910390fd5b61180e82612dc5565b6012820180546001600160401b0392909216600160a01b0267ffffffffffffffff60a01b19909216919091179055604080518181526021918101919091527f6167656e7445786974417661696c61626c6554696d656c6f636b5365636f6e646060820152607360f81b6080820152602081018390526000805160206143528339815191529060a0016105af565b6118a3612d50565b6118ab612d8a565b60006118b5613015565b604051637f4fcaa960e01b81526001600160a01b03848116600483015291925090821690637f4fcaa990602401600060405180830381600087803b1580156118fc57600080fd5b505af1158015611910573d6000803e3d6000fd5b5050604080518181526019918101919091527f636c65616e7570426c6f636b4e756d6265724d616e616765720000000000000060608201526001600160a01b0385166020820152600080516020614332833981519152925060800190506105af565b61197a612d50565b611982612d8a565b600061198c612da1565b9050603c8210156119b057604051639a721da360e01b815260040160405180910390fd5b6119b982612dc5565b6013820180546001600160401b0392909216600160c01b026001600160c01b03909216919091179055604080518181526025918101919091527f6167656e7454696d656c6f636b65644f7065726174696f6e57696e646f775365606082015264636f6e647360d81b6080820152602081018390526000805160206143528339815191529060a0016105af565b611a4d612d50565b611a55612d8a565b6000611a5f612da1565b905060008211611a8257604051631e1d0ab560e01b815260040160405180910390fd5b6014810154611aa39064010000000090046001600160401b03166002613dda565b6001600160401b0316821115611acc576040516313d2afed60e31b815260040160405180910390fd5b6014810154611aee9060029064010000000090046001600160401b0316613e79565b6001600160401b0316821015611b17576040516348e8562160e11b815260040160405180910390fd5b611b2082612dc5565b6014820180546001600160401b0392909216640100000000026bffffffffffffffff000000001990921691909117905560408051818152601691810191909152756c69717569646174696f6e537465705365636f6e647360501b606082015260208101839052600080516020614352833981519152906080016105af565b611ba6612d50565b611bae612d8a565b6000611bb8612da1565b905060008211611bdb57604051631e1d0ab560e01b815260040160405180910390fd5b612710821115611bfe5760405163fb1fb2d360e01b815260040160405180910390fd5b600e810154611c1990600160401b900461ffff166004613e22565b61ffff16821115611c3d5760405163acce294560e01b815260040160405180910390fd5b600e810154611c5990600490600160401b900461ffff16613e55565b61ffff16821015611c7d576040516369cdc9c360e01b815260040160405180910390fd5b611c8682612e36565b600e8201805461ffff92909216600160401b0261ffff60401b199092169190911790556040805181815260119181019190915270726564656d7074696f6e4665654249505360781b606082015260208101839052600080516020614352833981519152906080016105af565b611cfa612d50565b611d02612d8a565b6000611d0c612da1565b90506127108211611d305760405163db2ff64760e01b815260040160405180910390fd5b600e810154611d539063ffffffff600160501b909104811690612ee09061309816565b611d5f906103e8613fa2565b821115611d7f5760405163acce294560e01b815260040160405180910390fd5b600e810154611da29063ffffffff600160501b90910481169061208d9061309816565b821015611dc2576040516369cdc9c360e01b815260040160405180910390fd5b611dcb82613033565b600e8201805463ffffffff92909216600160501b0263ffffffff60501b1990921691909117905560408051818152602a918101919091527f726564656d7074696f6e44656661756c74466163746f725661756c74436f6c6c60608201526961746572616c4249505360b01b6080820152602081018390526000805160206143528339815191529060a0016105af565b611e62612d50565b611e6a612d8a565b6000611e74612da1565b6013810154909150611e90906001600160401b03166004613dda565b611e9d9062015180613e03565b6001600160401b0316821115611ec6576040516335cec84f60e01b815260040160405180910390fd5b611ecf82612dc5565b60138201805467ffffffffffffffff19166001600160401b039290921691909117905560408051818152601d918101919091527f6167656e744665654368616e676554696d656c6f636b5365636f6e6473000000606082015260208101839052600080516020614352833981519152906080016105af565b611f4f612d50565b611f57612d8a565b6000611f61612da1565b905060008211611f8457604051631e1d0ab560e01b815260040160405180910390fd5b600d810154611f9d906001600160401b0316600a613dda565b6001600160401b0316821115611fc65760405163c1eb125d60e01b815260040160405180910390fd5b600d810154611fe090600a906001600160401b0316613e79565b6001600160401b0316821015612009576040516362b1e00560e11b815260040160405180910390fd5b600d810154600160581b90046001600160401b0316158061203e5750600d810154600160581b90046001600160401b03168211155b61205b576040516339897cef60e01b815260040160405180910390fd5b61206482612dc5565b600d8201805467ffffffffffffffff19166001600160401b039290921691909117905560408051818152600a91810191909152696c6f7453697a65414d4760b01b606082015260208101839052600080516020614352833981519152906080016105af565b6120d1612d50565b6120d9612d8a565b60006120e3612da1565b90508115806120ff5750600d8101546001600160401b03168210155b61211c57604051639a721da360e01b815260040160405180910390fd5b61212582612dc5565b81600d01600b6101000a8154816001600160401b0302191690836001600160401b03160217905550600080516020614352833981519152826040516105af91906040808252600d908201526c6d696e74696e67436170414d4760981b6060820152602081019190915260800190565b61219c612d50565b6121a4612d8a565b60006121ae612da1565b90506001600160a01b0382166121d75760405163e6c4247b60e01b815260040160405180910390fd5b600a810180546001600160a01b0319166001600160a01b03841690811790915560408051818152600b918101919091526a383934b1b2a932b0b232b960a91b60608201526020810191909152600080516020614332833981519152906080016105af565b612243612d50565b61224b612d8a565b6000612255612da1565b90506001600160a01b03821661227e5760405163e6c4247b60e01b815260040160405180910390fd5b6007810180546001600160a01b0319166001600160a01b03841690811790915560408051818152601291810191909152716167656e744f776e6572526567697374727960701b60608201526020810191909152600080516020614332833981519152906080016105af565b6122f1612d50565b6122f9612d8a565b6000612303612da1565b90506000821161232657604051631e1d0ab560e01b815260040160405180910390fd5b600c81015461233c9063ffffffff166002613fb5565b63ffffffff16821115612362576040516313d2afed60e31b815260040160405180910390fd5b600c8101546123799060029063ffffffff16613fd4565b63ffffffff1682101561239f576040516348e8562160e11b815260040160405180910390fd5b6123a882613033565b600c8201805463ffffffff191663ffffffff92909216919091179055604080518181526012918101919091527161766572616765426c6f636b54696d654d5360701b606082015260208101839052600080516020614352833981519152906080016105af565b612416612d50565b61241e612d8a565b6000612428612da1565b90506000821161244b57604051631e1d0ab560e01b815260040160405180910390fd5b600f810154612464906001600160801b03166004613ea7565b6001600160801b031682111561248d5760405163acce294560e01b815260040160405180910390fd5b600f8101546124a7906004906001600160801b0316613ee8565b6001600160801b03168210156124d0576040516369cdc9c360e01b815260040160405180910390fd5b6124d982612f49565b600f820180546001600160801b0319166001600160801b039290921691909117905560408051818152601e918101919091527f636f6e6669726d6174696f6e42794f7468657273526577617264555344350000606082015260208101839052600080516020614352833981519152906080016105af565b612558612d50565b612560612d8a565b600061256a612da1565b90506000821161258d57604051631e1d0ab560e01b815260040160405180910390fd5b61259682612dc5565b6011820180546001600160401b0392909216600160801b0267ffffffffffffffff60801b1990921691909117905560408051818152601a918101919091527f6d696e55706461746552657065617454696d655365636f6e6473000000000000606082015260208101839052600080516020614352833981519152906080016105af565b612621612d50565b612629612d8a565b6000612633612da1565b90506000821161265657604051631e1d0ab560e01b815260040160405180910390fd5b601081015461267790600160801b90046001600160401b0316610258613e03565b6001600160401b03168211156126a0576040516313d2afed60e31b815260040160405180910390fd5b6126a982612dc5565b6010820180546001600160401b0392909216600160801b0267ffffffffffffffff60801b19909216919091179055604080518181526018918101919091527f7769746864726177616c576169744d696e5365636f6e64730000000000000000606082015260208101839052600080516020614352833981519152906080016105af565b612734612d50565b61273c612d8a565b6000612746612da1565b90506001600160a01b03821661276f5760405163e6c4247b60e01b815260040160405180910390fd5b6004810180546001600160a01b0319166001600160a01b03841690811790915560408051818152601a918101919091527f636f6c6c61746572616c506f6f6c546f6b656e466163746f727900000000000060608201526020810191909152600080516020614332833981519152906080016105af565b6127ed612d50565b6127f5612d8a565b60006127ff612da1565b9050611c2082101561282457604051630c85bd4760e11b815260040160405180910390fd5b61282d82612dc5565b600e820180546001600160401b0392909216600160901b0267ffffffffffffffff60901b199092169190911790556040805181815260209181018290527f636f6e6669726d6174696f6e42794f746865727341667465725365636f6e64736060820152908101839052600080516020614352833981519152906080016105af565b6128b6612d50565b6128be612d8a565b60006128c8612da1565b90506001600160a01b0382166128f15760405163e6c4247b60e01b815260040160405180910390fd5b6008810180546001600160a01b0319166001600160a01b03841690811790915560408051818152600f918101919091526e333231ab32b934b334b1b0ba34b7b760891b60608201526020810191909152600080516020614332833981519152906080016105af565b612961612d50565b612969612d8a565b6000612973612da1565b600c8101549091506127109061299890640100000000900463ffffffff166004613fb5565b63ffffffff166129a89190613fa2565b8211156129c8576040516335cec84f60e01b815260040160405180910390fd5b6129d182613033565b600c8201805463ffffffff929092166401000000000267ffffffff000000001990921691909117905560408051818152601f918101919091527f6d696e74696e67506f6f6c486f6c64696e677352657175697265644249505300606082015260208101839052600080516020614352833981519152906080016105af565b612a57612d50565b612a5f612d8a565b6000612a69612da1565b9050612a7583836130ae565b612a83601582016000613ab9565b612a91601682016000613ab9565b60005b8351811015612b215781601501612ac3858381518110612ab657612ab6613ffc565b6020026020010151613033565b81546001810183556000928352602090922063ffffffff90911691015582516016830190612afd90859084908110612ab657612ab6613ffc565b8154600181810184556000938452602090932063ffffffff90921691015501612a94565b507ff8df5a8f8fc0ea5cc0d8aff70643ac14b7353b936a843e23cb08ff282ba7473983604051612b51919061404e565b60405180910390a17ff8df5a8f8fc0ea5cc0d8aff70643ac14b7353b936a843e23cb08ff282ba7473982604051610f959190614095565b612b90612d50565b612b98612d8a565b6000612ba2612da1565b6013810154909150612bc590600160801b90046001600160401b03166004613dda565b612bd29062015180613e03565b6001600160401b0316821115612bfb576040516335cec84f60e01b815260040160405180910390fd5b612c0482612dc5565b6013820180546001600160401b0392909216600160801b0267ffffffffffffffff60801b1990921691909117905560408051818152601f918101919091527f706f6f6c4578697443524368616e676554696d656c6f636b5365636f6e647300606082015260208101839052600080516020614352833981519152906080016105af565b612c8f612d50565b612c97612d8a565b6000612ca1613015565b60405163f6a494af60e01b81526001600160a01b0384811660048301529192509082169063f6a494af90602401600060405180830381600087803b158015612ce857600080fd5b505af1158015612cfc573d6000803e3d6000fd5b505060408051818152600f918101919091526e18db19585b995c90dbdb9d1c9858dd608a1b60608201526001600160a01b0385166020820152600080516020614332833981519152925060800190506105af565b6000612d5a612da1565b80549091506001600160a01b03163314612d8757604051634ae14edf60e11b815260040160405180910390fd5b50565b612d9f6001600160e01b0319600035166131fa565b565b7f4f24f5c433db0962dac0d2c8b84197a6e6c7cc4e5d9ebe1916a1b6193da2f33a90565b60006001600160401b03821115612e325760405162461bcd60e51b815260206004820152602660248201527f53616665436173743a2076616c756520646f65736e27742066697420696e203660448201526534206269747360d01b60648201526084015b60405180910390fd5b5090565b600061ffff821115612e325760405162461bcd60e51b815260206004820152602660248201527f53616665436173743a2076616c756520646f65736e27742066697420696e203160448201526536206269747360d01b6064820152608401612e29565b7fec7e8c1c441439dd40959777f4c577ea0cd42fcc1dbe59d2bd0f5d9c55df8dc5546000805160206143128339815191528054600092829161ffff909116908110612ee657612ee6613ffc565b60009182526020909120600490910201546001600160a01b031692915050565b612f0e613ad7565b6000612f1a8484613292565b9050612f2581613336565b9150505b92915050565b6000612f3a82613502565b9050612f458161389f565b5050565b60006001600160801b03821115612e325760405162461bcd60e51b815260206004820152602760248201527f53616665436173743a2076616c756520646f65736e27742066697420696e20316044820152663238206269747360c81b6064820152608401612e29565b62015180821115612fd6576040516318dc18b360e01b815260040160405180910390fd5b620151806103e8612fe783866140e9565b612ff19190614100565b1115613010576040516318dc18b360e01b815260040160405180910390fd5b505050565b600080613020612da1565b600101546001600160a01b031692915050565b600063ffffffff821115612e325760405162461bcd60e51b815260206004820152602660248201527f53616665436173743a2076616c756520646f65736e27742066697420696e203360448201526532206269747360d01b6064820152608401612e29565b60006130a7838361271061392a565b9392505050565b80518251146130d0576040516322cb666160e01b815260040160405180910390fd5b6001825110156130f35760405163e7f61b9f60e01b815260040160405180910390fd5b60005b82518110156130105761271083828151811061311457613114613ffc565b60200260200101511161313a576040516319cb132f60e31b815260040160405180910390fd5b82818151811061314c5761314c613ffc565b602002602001015182828151811061316657613166613ffc565b6020026020010151111561318d576040516343734f6f60e01b815260040160405180910390fd5b8015806131d55750826131a1600183614114565b815181106131b1576131b1613ffc565b60200260200101518382815181106131cb576131cb613ffc565b6020026020010151115b6131f25760405163103f13e760e11b815260040160405180910390fd5b6001016130f6565b7fc6aafbe0f74bbe68eec7559401d7d311a092b5c4d8feb0452323e4ba73d8d8d16000613225612da1565b6000848152602084905260409020549091508015806132625750601182015461325e90600160801b90046001600160401b031682613fa2565b4210155b61327f57604051630e216b9960e31b815260040160405180910390fd5b5050600091825260205260409020429055565b6000600080516020614312833981519152817fec7e8c1c441439dd40959777f4c577ea0cd42fcc1dbe59d2bd0f5d9c55df8db7816132d08787613a2e565b81526020019081526020016000205490506000811161330257604051638698bf3760e01b815260040160405180910390fd5b8161330e600183614114565b8154811061331e5761331e613ffc565b90600052602060002090600402019250505092915050565b61333e613ad7565b60408051610120810190915282548190600160a01b900460ff16600281111561336957613369614127565b815283546001600160a01b038116602083015260ff600160a81b8204811660408401526001600160401b03600160b01b8304166060840152600160f01b909104161515608082015260018401805460a0909201916133c69061413d565b80601f01602080910402602001604051908101604052809291908181526020018280546133f29061413d565b801561343f5780601f106134145761010080835404028352916020019161343f565b820191906000526020600020905b81548152906001019060200180831161342257829003601f168201915b505050505081526020018360020180546134589061413d565b80601f01602080910402602001604051908101604052809291908181526020018280546134849061413d565b80156134d15780601f106134a6576101008083540402835291602001916134d1565b820191906000526020600020905b8154815290600101906020018083116134b457829003601f168201915b505050918352505060039093015463ffffffff8082166020860152600160401b909104166040909301929092525090565b6020810151600090600080516020614312833981519152906001600160a01b03166135405760405163ab42242d60e01b815260040160405180910390fd5b600061355484600001518560200151613a2e565b6000818152600184016020526040902054909150156135865760405163c991cbb160e01b815260040160405180910390fd5b6060840151156135a9576040516308d5b2cb60e31b815260040160405180910390fd5b60008460e001516127101080156135c957508461010001518560e0015111155b9050806135e957604051631654ba8b60e11b815260040160405180910390fd5b82546040805161014081019091526020808801516001600160a01b031682528751869291820190600281111561362157613621614127565b81526020016136338960400151613a58565b60ff1681526020016136488960600151612dc5565b6001600160401b031681526020018860800151151581526020018860a0015181526020018860c0015181526020016136838960e00151613033565b63ffffffff168152602001600063ffffffff1681526020016136a9896101000151613033565b63ffffffff16905281546001810183556000928352602092839020825160049092020180546001600160a01b031981166001600160a01b03909316928317825593830151929390929183916001600160a81b03191617600160a01b83600281111561371657613716614127565b021790555060408201518154606084015160808501511515600160f01b0260ff60f01b196001600160401b03909216600160b01b0267ffffffffffffffff60b01b1960ff909516600160a81b029490941668ffffffffffffffffff60a81b1990931692909217929092179190911617815560a0820151600182019061379b90826141c5565b5060c082015160028201906137b090826141c5565b5060e0820151600390910180546101008401516101209094015163ffffffff908116600160401b026bffffffff0000000000000000199582166401000000000267ffffffffffffffff1990931691909416171792909216179055613815816001613fa2565b600084815260018601602052604090205585517fc4531f4cebd6a3b1974b381202c861ca7d302755db0d983686b77c75be04845590600281111561385b5761385b614127565b60208801516040808a015160808b015160a08c015160c08d015160e08e01516101008f0151955161388e98979690614283565b60405180910390a195945050505050565b60008051602061431283398151915280546000908290849081106138c5576138c5613ffc565b60009182526020909120600490910201905060018154600160a01b900460ff1660028111156138f6576138f6614127565b14613903576139036142e7565b61390c83612e36565b600f92909201805461ffff191661ffff909316929092179091555050565b600080821161394c576040516323d359a360e01b815260040160405180910390fd5b8360000361395c575060006130a7565b8383028385828161396f5761396f613e3f565b040361398d5782818161398457613984613e3f565b049150506130a7565b50600061399a8386614100565b905060006139a884876142fd565b905060006139b68587614100565b905060006139c486886142fd565b9050856139d182856140e9565b6139db9190614100565b6139e583856140e9565b6139ef83876140e9565b886139fa86896140e9565b613a0491906140e9565b613a0e9190613fa2565b613a189190613fa2565b613a229190613fa2565b98975050505050505050565b6000816001600160a01b031660a0846002811115613a4e57613a4e614127565b901b179392505050565b600060ff821115612e325760405162461bcd60e51b815260206004820152602560248201527f53616665436173743a2076616c756520646f65736e27742066697420696e2038604482015264206269747360d81b6064820152608401612e29565b5080546000825590600052602060002090810190612d879190613b2f565b604080516101208101909152806000815260200160006001600160a01b031681526020016000815260200160008152602001600015158152602001606081526020016060815260200160008152602001600081525090565b5b80821115612e325760008155600101613b30565b600060208284031215613b5657600080fd5b5035919050565b6001600160a01b0381168114612d8757600080fd5b600060208284031215613b8457600080fd5b81356130a781613b5d565b60008060408385031215613ba257600080fd5b8235613bad81613b5d565b91506020830135613bbd81613b5d565b809150509250929050565b60008060408385031215613bdb57600080fd5b50508035926020909101359150565b634e487b7160e01b600052604160045260246000fd5b604051601f8201601f191681016001600160401b0381118282101715613c2857613c28613bea565b604052919050565b60008060408385031215613c4357600080fd5b8235613c4e81613b5d565b915060208301356001600160401b03811115613c6957600080fd5b8301601f81018513613c7a57600080fd5b80356001600160401b03811115613c9357613c93613bea565b613ca6601f8201601f1916602001613c00565b818152866020838501011115613cbb57600080fd5b816020840160208301376000602083830101528093505050509250929050565b600082601f830112613cec57600080fd5b81356001600160401b03811115613d0557613d05613bea565b8060051b613d1560208201613c00565b91825260208185018101929081019086841115613d3157600080fd5b6020860192505b83831015613d53578235825260209283019290910190613d38565b9695505050505050565b60008060408385031215613d7057600080fd5b82356001600160401b03811115613d8657600080fd5b613d9285828601613cdb565b92505060208301356001600160401b03811115613dae57600080fd5b613dba85828601613cdb565b9150509250929050565b634e487b7160e01b600052601160045260246000fd5b6001600160401b038181168382160290811690818114613dfc57613dfc613dc4565b5092915050565b6001600160401b038181168382160190811115612f2957612f29613dc4565b61ffff8181168382160290811690818114613dfc57613dfc613dc4565b634e487b7160e01b600052601260045260246000fd5b600061ffff831680613e6957613e69613e3f565b8061ffff84160491505092915050565b60006001600160401b03831680613e9257613e92613e3f565b806001600160401b0384160491505092915050565b6001600160801b038181168382160290811690818114613dfc57613dfc613dc4565b6001600160801b038181168382160190811115612f2957612f29613dc4565b60006001600160801b03831680613f0157613f01613e3f565b806001600160801b0384160491505092915050565b61ffff8181168382160190811115612f2957612f29613dc4565b6000815180845260005b81811015613f5657602081850181015186830182015201613f3a565b506000602082860101526020601f19601f83011685010191505092915050565b6001600160a01b0383168152604060208201819052600090613f9a90830184613f30565b949350505050565b80820180821115612f2957612f29613dc4565b63ffffffff8181168382160290811690818114613dfc57613dfc613dc4565b600063ffffffff831680613fea57613fea613e3f565b8063ffffffff84160491505092915050565b634e487b7160e01b600052603260045260246000fd5b600081518084526020840193506020830160005b82811015614044578151865260209586019590910190600101614026565b5093949350505050565b60408152601f60408201527f6c69717569646174696f6e436f6c6c61746572616c466163746f72424950530060608201526080602082015260006130a76080830184614012565b60408152602460408201527f6c69717569646174696f6e466163746f725661756c74436f6c6c61746572616c6060820152634249505360e01b608082015260a0602082015260006130a760a0830184614012565b8082028115828204841417612f2957612f29613dc4565b60008261410f5761410f613e3f565b500490565b81810381811115612f2957612f29613dc4565b634e487b7160e01b600052602160045260246000fd5b600181811c9082168061415157607f821691505b60208210810361417157634e487b7160e01b600052602260045260246000fd5b50919050565b601f82111561301057806000526020600020601f840160051c8101602085101561419e5750805b601f840160051c820191505b818110156141be57600081556001016141aa565b5050505050565b81516001600160401b038111156141de576141de613bea565b6141f2816141ec845461413d565b84614177565b6020601f821160018114614226576000831561420e5750848201515b600019600385901b1c1916600184901b1784556141be565b600084815260208120601f198516915b828110156142565787850151825560209485019460019092019101614236565b50848210156142745786840151600019600387901b60f8161c191681555b50505050600190811b01905550565b60ff8916815260018060a01b03881660208201528660408201528515156060820152610100608082015260006142bd610100830187613f30565b82810360a08401526142cf8187613f30565b60c0840195909552505060e001529695505050505050565b634e487b7160e01b600052600160045260246000fd5b60008261430c5761430c613e3f565b50069056feec7e8c1c441439dd40959777f4c577ea0cd42fcc1dbe59d2bd0f5d9c55df8db6cb274d507e7a9978f5a8c15929fd58c472b8addc1a9bba454b0c0a49a05c9152ac1fb27759c1e6f9e4a24d4f8c320be6091becb03cea5a95398fa220fca4ac0ea2646970667358221220c41a0d0c3957b2114e46ffdd12b893ead32618556e82cb9161bd04a383b1ed7a64736f6c634300081b0033",
  "linkReferences": {},
  "deployedLinkReferences": {}
}