{
  "_format": "hh-sol-artifact-1",
  "contractName": "SettingsManagementFacet",
  "sourceName": "contracts/assetManager/facets/SettingsManagementFacet.sol",
  "abi": [
    {
      "inputs": [],
      "name": "AtLeastOneFactorRequired",
      "type": "error"
    },
    {
      "inputs": [],
      "name": "BipsValueTooHigh",
      "type": "error"
    },
    {
      "inputs": [],
      "name": "BipsValueTooLow",
      "type": "error"
    },
    {
      "inputs": [],
      "name": "CannotAddDeprecatedToken",
      "type": "error"
    },
    {
      "inputs": [],
      "name": "CannotBeZero",
      "type": "error"
    },
    {
      "inputs": [],
      "name": "ConfirmationTimeTooBig",
      "type": "error"
    },
    {
      "inputs": [],
      "name": "DecreaseTooBig",
      "type": "error"
    },
    {
      "inputs": [],
      "name": "DivisionByZero",
      "type": "error"
    },
    {
      "inputs": [],
      "name": "EmergencyPauseActive",
      "type": "error"
    },
    {
      "inputs": [],
      "name": "FactorNotAboveOne",
      "type": "error"
    },
    {
      "inputs": [],
      "name": "FactorsNotIncreasing",
      "type": "error"
    },
    {
      "inputs": [],
      "name": "FeeDecreaseTooBig",
      "type": "error"
    },
    {
      "inputs": [],
      "name": "FeeIncreaseTooBig",
      "type": "error"
    },
    {
      "inputs": [],
      "name": "IncreaseTooBig",
      "type": "error"
    },
    {
      "inputs": [],
      "name": "InvalidAddress",
      "type": "error"
    },
    {
      "inputs": [],
      "name": "InvalidCollateralRatios",
      "type": "error"
    },
    {
      "inputs": [],
      "name": "LengthsNotEqual",
      "type": "error"
    },
    {
      "inputs": [],
      "name": "LotSizeBiggerThanMintingCap",
      "type": "error"
    },
    {
      "inputs": [],
      "name": "LotSizeDecreaseTooBig",
      "type": "error"
    },
    {
      "inputs": [],
      "name": "LotSizeIncreaseTooBig",
      "type": "error"
    },
    {
      "inputs": [],
      "name": "MustBeAtLeastTwoHours",
      "type": "error"
    },
    {
      "inputs": [],
      "name": "NotAttached",
      "type": "error"
    },
    {
      "inputs": [],
      "name": "NotWhitelisted",
      "type": "error"
    },
    {
      "inputs": [],
      "name": "OnlyAssetManagerController",
      "type": "error"
    },
    {
      "inputs": [],
      "name": "PriceNotInitialized",
      "type": "error"
    },
    {
      "inputs": [],
      "name": "TokenAlreadyExists",
      "type": "error"
    },
    {
      "inputs": [],
      "name": "TokenZero",
      "type": "error"
    },
    {
      "inputs": [],
      "name": "TooCloseToPreviousUpdate",
      "type": "error"
    },
    {
      "inputs": [],
      "name": "UnknownToken",
      "type": "error"
    },
    {
      "inputs": [],
      "name": "ValueTooBig",
      "type": "error"
    },
    {
      "inputs": [],
      "name": "ValueTooHigh",
      "type": "error"
    },
    {
      "inputs": [],
      "name": "ValueTooSmall",
      "type": "error"
    },
    {
      "inputs": [],
      "name": "VaultCollateralFactorHigherThanTotal",
      "type": "error"
    },
    {
      "inputs": [],
      "name": "WindowTooSmall",
      "type": "error"
    },
    {
      "anonymous": false,
      "inputs": [
        {
          "indexed": true,
          "internalType": "address",
          "name": "agentVault",
          "type": "address"
        },
        {
          "indexed": false,
          "internalType": "uint256",
          "name": "feeBIPS",
          "type": "uint256"
        },
        {
          "indexed": false,
          "internalType": "uint256",
          "name": "mintingVaultCollateralRatioBIPS",
          "type": "uint256"
        },
        {
          "indexed": false,
          "internalType": "uint256",
          "name": "mintingPoolCollateralRatioBIPS",
          "type": "uint256"
        },
        {
          "indexed": false,
          "internalType": "uint256",
          "name": "freeCollateralLots",
          "type": "uint256"
        }
      ],
      "name": "AgentAvailable",
      "type": "event"
    },
    {
      "anonymous": false,
      "inputs": [
        {
          "indexed": true,
          "internalType": "address",
          "name": "agentVault",
          "type": "address"
        },
        {
          "indexed": false,
          "internalType": "uint8",
          "name": "collateralClass",
          "type": "uint8"
        },
        {
          "indexed": false,
          "internalType": "address",
          "name": "token",
          "type": "address"
        }
      ],
      "name": "AgentCollateralTypeChanged",
      "type": "event"
    },
    {
      "anonymous": false,
      "inputs": [
        {
          "indexed": true,
          "internalType": "address",
          "name": "agentVault",
          "type": "address"
        },
        {
          "indexed": false,
          "internalType": "uint256",
          "name": "destroyAllowedAt",
          "type": "uint256"
        }
      ],
      "name": "AgentDestroyAnnounced",
      "type": "event"
    },
    {
      "anonymous": false,
      "inputs": [
        {
          "indexed": true,
          "internalType": "address",
          "name": "agentVault",
          "type": "address"
        }
      ],
      "name": "AgentDestroyed",
      "type": "event"
    },
    {
      "anonymous": false,
      "inputs": [
        {
          "indexed": true,
          "internalType": "address",
          "name": "agentVault",
          "type": "address"
        },
        {
          "indexed": false,
          "internalType": "string",
          "name": "name",
          "type": "string"
        },
        {
          "indexed": false,
          "internalType": "uint256",
          "name": "value",
          "type": "uint256"
        },
        {
          "indexed": false,
          "internalType": "uint256",
          "name": "validAt",
          "type": "uint256"
        }
      ],
      "name": "AgentSettingChangeAnnounced",
      "type": "event"
    },
    {
      "anonymous": false,
      "inputs": [
        {
          "indexed": true,
          "internalType": "address",
          "name": "agentVault",
          "type": "address"
        },
        {
          "indexed": false,
          "internalType": "string",
          "name": "name",
          "type": "string"
        },
        {
          "indexed": false,
          "internalType": "uint256",
          "name": "value",
          "type": "uint256"
        }
      ],
      "name": "AgentSettingChanged",
      "type": "event"
    },
    {
      "anonymous": false,
      "inputs": [
        {
          "indexed": true,
          "internalType": "address",
          "name": "owner",
          "type": "address"
        },
        {
          "indexed": true,
          "internalType": "address",
          "name": "agentVault",
          "type": "address"
        },
        {
          "components": [
            {
              "internalType": "address",
              "name": "collateralPool",
              "type": "address"
            },
            {
              "internalType": "address",
              "name": "collateralPoolToken",
              "type": "address"
            },
            {
              "internalType": "string",
              "name": "underlyingAddress",
              "type": "string"
            },
            {
              "internalType": "address",
              "name": "vaultCollateralToken",
              "type": "address"
            },
            {
              "internalType": "address",
              "name": "poolWNatToken",
              "type": "address"
            },
            {
              "internalType": "uint256",
              "name": "feeBIPS",
              "type": "uint256"
            },
            {
              "internalType": "uint256",
              "name": "poolFeeShareBIPS",
              "type": "uint256"
            },
            {
              "internalType": "uint256",
              "name": "mintingVaultCollateralRatioBIPS",
              "type": "uint256"
            },
            {
              "internalType": "uint256",
              "name": "mintingPoolCollateralRatioBIPS",
              "type": "uint256"
            },
            {
              "internalType": "uint256",
              "name": "buyFAssetByAgentFactorBIPS",
              "type": "uint256"
            },
            {
              "internalType": "uint256",
              "name": "poolExitCollateralRatioBIPS",
              "type": "uint256"
            },
            {
              "internalType": "uint256",
              "name": "redemptionPoolFeeShareBIPS",
              "type": "uint256"
            }
          ],
          "indexed": false,
          "internalType": "struct IAssetManagerEvents.AgentVaultCreationData",
          "name": "creationData",
          "type": "tuple"
        }
      ],
      "name": "AgentVaultCreated",
      "type": "event"
    },
    {
      "anonymous": false,
      "inputs": [
        {
          "indexed": true,
          "internalType": "address",
          "name": "agentVault",
          "type": "address"
        },
        {
          "indexed": false,
          "internalType": "uint256",
          "name": "exitAllowedAt",
          "type": "uint256"
        }
      ],
      "name": "AvailableAgentExitAnnounced",
      "type": "event"
    },
    {
      "anonymous": false,
      "inputs": [
        {
          "indexed": true,
          "internalType": "address",
          "name": "agentVault",
          "type": "address"
        }
      ],
      "name": "AvailableAgentExited",
      "type": "event"
    },
    {
      "anonymous": false,
      "inputs": [
        {
          "indexed": false,
          "internalType": "uint8",
          "name": "collateralClass",
          "type": "uint8"
        },
        {
          "indexed": false,
          "internalType": "address",
          "name": "collateralToken",
          "type": "address"
        },
        {
          "indexed": false,
          "internalType": "uint256",
          "name": "minCollateralRatioBIPS",
          "type": "uint256"
        },
        {
          "indexed": false,
          "internalType": "uint256",
          "name": "safetyMinCollateralRatioBIPS",
          "type": "uint256"
        }
      ],
      "name": "CollateralRatiosChanged",
      "type": "event"
    },
    {
      "anonymous": false,
      "inputs": [
        {
          "indexed": true,
          "internalType": "address",
          "name": "agentVault",
          "type": "address"
        },
        {
          "indexed": true,
          "internalType": "address",
          "name": "minter",
          "type": "address"
        },
        {
          "indexed": true,
          "internalType": "uint256",
          "name": "collateralReservationId",
          "type": "uint256"
        },
        {
          "indexed": false,
          "internalType": "uint256",
          "name": "reservedAmountUBA",
          "type": "uint256"
        }
      ],
      "name": "CollateralReservationDeleted",
      "type": "event"
    },
    {
      "anonymous": false,
      "inputs": [
        {
          "indexed": true,
          "internalType": "address",
          "name": "agentVault",
          "type": "address"
        },
        {
          "indexed": true,
          "internalType": "address",
          "name": "minter",
          "type": "address"
        },
        {
          "indexed": true,
          "internalType": "uint256",
          "name": "collateralReservationId",
          "type": "uint256"
        },
        {
          "indexed": false,
          "internalType": "uint256",
          "name": "valueUBA",
          "type": "uint256"
        },
        {
          "indexed": false,
          "internalType": "uint256",
          "name": "feeUBA",
          "type": "uint256"
        },
        {
          "indexed": false,
          "internalType": "uint256",
          "name": "firstUnderlyingBlock",
          "type": "uint256"
        },
        {
          "indexed": false,
          "internalType": "uint256",
          "name": "lastUnderlyingBlock",
          "type": "uint256"
        },
        {
          "indexed": false,
          "internalType": "uint256",
          "name": "lastUnderlyingTimestamp",
          "type": "uint256"
        },
        {
          "indexed": false,
          "internalType": "string",
          "name": "paymentAddress",
          "type": "string"
        },
        {
          "indexed": false,
          "internalType": "bytes32",
          "name": "paymentReference",
          "type": "bytes32"
        },
        {
          "indexed": false,
          "internalType": "address",
          "name": "executor",
          "type": "address"
        },
        {
          "indexed": false,
          "internalType": "uint256",
          "name": "executorFeeNatWei",
          "type": "uint256"
        }
      ],
      "name": "CollateralReserved",
      "type": "event"
    },
    {
      "anonymous": false,
      "inputs": [
        {
          "indexed": false,
          "internalType": "uint8",
          "name": "collateralClass",
          "type": "uint8"
        },
        {
          "indexed": false,
          "internalType": "address",
          "name": "token",
          "type": "address"
        },
        {
          "indexed": false,
          "internalType": "uint256",
          "name": "decimals",
          "type": "uint256"
        },
        {
          "indexed": false,
          "internalType": "bool",
          "name": "directPricePair",
          "type": "bool"
        },
        {
          "indexed": false,
          "internalType": "string",
          "name": "assetFtsoSymbol",
          "type": "string"
        },
        {
          "indexed": false,
          "internalType": "string",
          "name": "tokenFtsoSymbol",
          "type": "string"
        },
        {
          "indexed": false,
          "internalType": "uint256",
          "name": "minCollateralRatioBIPS",
          "type": "uint256"
        },
        {
          "indexed": false,
          "internalType": "uint256",
          "name": "safetyMinCollateralRatioBIPS",
          "type": "uint256"
        }
      ],
      "name": "CollateralTypeAdded",
      "type": "event"
    },
    {
      "anonymous": false,
      "inputs": [
        {
          "indexed": false,
          "internalType": "string",
          "name": "name",
          "type": "string"
        },
        {
          "indexed": false,
          "internalType": "address",
          "name": "value",
          "type": "address"
        }
      ],
      "name": "ContractChanged",
      "type": "event"
    },
    {
      "anonymous": false,
      "inputs": [
        {
          "indexed": false,
          "internalType": "uint256",
          "name": "underlyingBlockNumber",
          "type": "uint256"
        },
        {
          "indexed": false,
          "internalType": "uint256",
          "name": "underlyingBlockTimestamp",
          "type": "uint256"
        },
        {
          "indexed": false,
          "internalType": "uint256",
          "name": "updatedAt",
          "type": "uint256"
        }
      ],
      "name": "CurrentUnderlyingBlockUpdated",
      "type": "event"
    },
    {
      "anonymous": false,
      "inputs": [
        {
          "indexed": true,
          "internalType": "address",
          "name": "agentVault",
          "type": "address"
        },
        {
          "indexed": false,
          "internalType": "bytes32",
          "name": "transactionHash1",
          "type": "bytes32"
        },
        {
          "indexed": false,
          "internalType": "bytes32",
          "name": "transactionHash2",
          "type": "bytes32"
        }
      ],
      "name": "DuplicatePaymentConfirmed",
      "type": "event"
    },
    {
      "anonymous": false,
      "inputs": [
        {
          "indexed": true,
          "internalType": "address",
          "name": "agentVault",
          "type": "address"
        },
        {
          "indexed": false,
          "internalType": "uint256",
          "name": "dustUBA",
          "type": "uint256"
        }
      ],
      "name": "DustChanged",
      "type": "event"
    },
    {
      "anonymous": false,
      "inputs": [],
      "name": "EmergencyPauseCanceled",
      "type": "event"
    },
    {
      "anonymous": false,
      "inputs": [],
      "name": "EmergencyPauseTransfersCanceled",
      "type": "event"
    },
    {
      "anonymous": false,
      "inputs": [
        {
          "indexed": false,
          "internalType": "uint256",
          "name": "pausedUntil",
          "type": "uint256"
        }
      ],
      "name": "EmergencyPauseTransfersTriggered",
      "type": "event"
    },
    {
      "anonymous": false,
      "inputs": [
        {
          "indexed": false,
          "internalType": "enum EmergencyPause.Level",
          "name": "level",
          "type": "uint8"
        },
        {
          "indexed": false,
          "internalType": "uint256",
          "name": "pausedUntil",
          "type": "uint256"
        }
      ],
      "name": "EmergencyPauseTriggered",
      "type": "event"
    },
    {
      "anonymous": false,
      "inputs": [
        {
          "indexed": true,
          "internalType": "address",
          "name": "agentVault",
          "type": "address"
        },
        {
          "indexed": false,
          "internalType": "uint256",
          "name": "timestamp",
          "type": "uint256"
        }
      ],
      "name": "FullLiquidationStarted",
      "type": "event"
    },
    {
      "anonymous": false,
      "inputs": [
        {
          "indexed": true,
          "internalType": "address",
          "name": "agentVault",
          "type": "address"
        },
        {
          "indexed": false,
          "internalType": "bytes32",
          "name": "transactionHash",
          "type": "bytes32"
        }
      ],
      "name": "IllegalPaymentConfirmed",
      "type": "event"
    },
    {
      "anonymous": false,
      "inputs": [
        {
          "indexed": true,
          "internalType": "address",
          "name": "agentVault",
          "type": "address"
        }
      ],
      "name": "LiquidationEnded",
      "type": "event"
    },
    {
      "anonymous": false,
      "inputs": [
        {
          "indexed": true,
          "internalType": "address",
          "name": "agentVault",
          "type": "address"
        },
        {
          "indexed": true,
          "internalType": "address",
          "name": "liquidator",
          "type": "address"
        },
        {
          "indexed": false,
          "internalType": "uint256",
          "name": "valueUBA",
          "type": "uint256"
        },
        {
          "indexed": false,
          "internalType": "uint256",
          "name": "paidVaultCollateralWei",
          "type": "uint256"
        },
        {
          "indexed": false,
          "internalType": "uint256",
          "name": "paidPoolCollateralWei",
          "type": "uint256"
        }
      ],
      "name": "LiquidationPerformed",
      "type": "event"
    },
    {
      "anonymous": false,
      "inputs": [
        {
          "indexed": true,
          "internalType": "address",
          "name": "agentVault",
          "type": "address"
        },
        {
          "indexed": false,
          "internalType": "uint256",
          "name": "timestamp",
          "type": "uint256"
        }
      ],
      "name": "LiquidationStarted",
      "type": "event"
    },
    {
      "anonymous": false,
      "inputs": [
        {
          "indexed": true,
          "internalType": "address",
          "name": "agentVault",
          "type": "address"
        },
        {
          "indexed": true,
          "internalType": "uint256",
          "name": "collateralReservationId",
          "type": "uint256"
        },
        {
          "indexed": false,
          "internalType": "uint256",
          "name": "mintedAmountUBA",
          "type": "uint256"
        },
        {
          "indexed": false,
          "internalType": "uint256",
          "name": "agentFeeUBA",
          "type": "uint256"
        },
        {
          "indexed": false,
          "internalType": "uint256",
          "name": "poolFeeUBA",
          "type": "uint256"
        }
      ],
      "name": "MintingExecuted",
      "type": "event"
    },
    {
      "anonymous": false,
      "inputs": [
        {
          "indexed": true,
          "internalType": "address",
          "name": "agentVault",
          "type": "address"
        },
        {
          "indexed": true,
          "internalType": "address",
          "name": "minter",
          "type": "address"
        },
        {
          "indexed": true,
          "internalType": "uint256",
          "name": "collateralReservationId",
          "type": "uint256"
        },
        {
          "indexed": false,
          "internalType": "uint256",
          "name": "reservedAmountUBA",
          "type": "uint256"
        }
      ],
      "name": "MintingPaymentDefault",
      "type": "event"
    },
    {
      "anonymous": false,
      "inputs": [
        {
          "indexed": true,
          "internalType": "address",
          "name": "agentVault",
          "type": "address"
        },
        {
          "indexed": false,
          "internalType": "uint256",
          "name": "amountWei",
          "type": "uint256"
        },
        {
          "indexed": false,
          "internalType": "uint256",
          "name": "withdrawalAllowedAt",
          "type": "uint256"
        }
      ],
      "name": "PoolTokenRedemptionAnnounced",
      "type": "event"
    },
    {
      "anonymous": false,
      "inputs": [
        {
          "indexed": true,
          "internalType": "address",
          "name": "agentVault",
          "type": "address"
        },
        {
          "indexed": true,
          "internalType": "address",
          "name": "redeemer",
          "type": "address"
        },
        {
          "indexed": false,
          "internalType": "uint256",
          "name": "redemptionAmountUBA",
          "type": "uint256"
        },
        {
          "indexed": false,
          "internalType": "uint256",
          "name": "paidVaultCollateralWei",
          "type": "uint256"
        }
      ],
      "name": "RedeemedInCollateral",
      "type": "event"
    },
    {
      "anonymous": false,
      "inputs": [
        {
          "indexed": true,
          "internalType": "address",
          "name": "agentVault",
          "type": "address"
        },
        {
          "indexed": true,
          "internalType": "address",
          "name": "redeemer",
          "type": "address"
        },
        {
          "indexed": true,
          "internalType": "uint256",
          "name": "requestId",
          "type": "uint256"
        },
        {
          "indexed": false,
          "internalType": "uint256",
          "name": "redemptionAmountUBA",
          "type": "uint256"
        },
        {
          "indexed": false,
          "internalType": "uint256",
          "name": "redeemedVaultCollateralWei",
          "type": "uint256"
        },
        {
          "indexed": false,
          "internalType": "uint256",
          "name": "redeemedPoolCollateralWei",
          "type": "uint256"
        }
      ],
      "name": "RedemptionDefault",
      "type": "event"
    },
    {
      "anonymous": false,
      "inputs": [
        {
          "indexed": true,
          "internalType": "address",
          "name": "agentVault",
          "type": "address"
        },
        {
          "indexed": true,
          "internalType": "address",
          "name": "redeemer",
          "type": "address"
        },
        {
          "indexed": true,
          "internalType": "uint256",
          "name": "requestId",
          "type": "uint256"
        },
        {
          "indexed": false,
          "internalType": "bytes32",
          "name": "transactionHash",
          "type": "bytes32"
        },
        {
          "indexed": false,
          "internalType": "uint256",
          "name": "redemptionAmountUBA",
          "type": "uint256"
        },
        {
          "indexed": false,
          "internalType": "int256",
          "name": "spentUnderlyingUBA",
          "type": "int256"
        }
      ],
      "name": "RedemptionPaymentBlocked",
      "type": "event"
    },
    {
      "anonymous": false,
      "inputs": [
        {
          "indexed": true,
          "internalType": "address",
          "name": "agentVault",
          "type": "address"
        },
        {
          "indexed": true,
          "internalType": "address",
          "name": "redeemer",
          "type": "address"
        },
        {
          "indexed": true,
          "internalType": "uint256",
          "name": "requestId",
          "type": "uint256"
        },
        {
          "indexed": false,
          "internalType": "bytes32",
          "name": "transactionHash",
          "type": "bytes32"
        },
        {
          "indexed": false,
          "internalType": "int256",
          "name": "spentUnderlyingUBA",
          "type": "int256"
        },
        {
          "indexed": false,
          "internalType": "string",
          "name": "failureReason",
          "type": "string"
        }
      ],
      "name": "RedemptionPaymentFailed",
      "type": "event"
    },
    {
      "anonymous": false,
      "inputs": [
        {
          "indexed": true,
          "internalType": "address",
          "name": "agentVault",
          "type": "address"
        },
        {
          "indexed": true,
          "internalType": "address",
          "name": "redeemer",
          "type": "address"
        },
        {
          "indexed": true,
          "internalType": "uint256",
          "name": "requestId",
          "type": "uint256"
        },
        {
          "indexed": false,
          "internalType": "bytes32",
          "name": "transactionHash",
          "type": "bytes32"
        },
        {
          "indexed": false,
          "internalType": "uint256",
          "name": "redemptionAmountUBA",
          "type": "uint256"
        },
        {
          "indexed": false,
          "internalType": "int256",
          "name": "spentUnderlyingUBA",
          "type": "int256"
        }
      ],
      "name": "RedemptionPerformed",
      "type": "event"
    },
    {
      "anonymous": false,
      "inputs": [
        {
          "indexed": true,
          "internalType": "address",
          "name": "agentVault",
          "type": "address"
        },
        {
          "indexed": true,
          "internalType": "uint256",
          "name": "requestId",
          "type": "uint256"
        },
        {
          "indexed": false,
          "internalType": "uint256",
          "name": "poolFeeUBA",
          "type": "uint256"
        }
      ],
      "name": "RedemptionPoolFeeMinted",
      "type": "event"
    },
    {
      "anonymous": false,
      "inputs": [
        {
          "indexed": true,
          "internalType": "address",
          "name": "agentVault",
          "type": "address"
        },
        {
          "indexed": true,
          "internalType": "address",
          "name": "redeemer",
          "type": "address"
        },
        {
          "indexed": true,
          "internalType": "uint256",
          "name": "requestId",
          "type": "uint256"
        },
        {
          "indexed": false,
          "internalType": "uint256",
          "name": "redemptionAmountUBA",
          "type": "uint256"
        }
      ],
      "name": "RedemptionRejected",
      "type": "event"
    },
    {
      "anonymous": false,
      "inputs": [
        {
          "indexed": true,
          "internalType": "address",
          "name": "redeemer",
          "type": "address"
        },
        {
          "indexed": false,
          "internalType": "uint256",
          "name": "remainingLots",
          "type": "uint256"
        }
      ],
      "name": "RedemptionRequestIncomplete",
      "type": "event"
    },
    {
      "anonymous": false,
      "inputs": [
        {
          "indexed": true,
          "internalType": "address",
          "name": "agentVault",
          "type": "address"
        },
        {
          "indexed": true,
          "internalType": "address",
          "name": "redeemer",
          "type": "address"
        },
        {
          "indexed": true,
          "internalType": "uint256",
          "name": "requestId",
          "type": "uint256"
        },
        {
          "indexed": false,
          "internalType": "string",
          "name": "paymentAddress",
          "type": "string"
        },
        {
          "indexed": false,
          "internalType": "uint256",
          "name": "valueUBA",
          "type": "uint256"
        },
        {
          "indexed": false,
          "internalType": "uint256",
          "name": "feeUBA",
          "type": "uint256"
        },
        {
          "indexed": false,
          "internalType": "uint256",
          "name": "firstUnderlyingBlock",
          "type": "uint256"
        },
        {
          "indexed": false,
          "internalType": "uint256",
          "name": "lastUnderlyingBlock",
          "type": "uint256"
        },
        {
          "indexed": false,
          "internalType": "uint256",
          "name": "lastUnderlyingTimestamp",
          "type": "uint256"
        },
        {
          "indexed": false,
          "internalType": "bytes32",
          "name": "paymentReference",
          "type": "bytes32"
        },
        {
          "indexed": false,
          "internalType": "address",
          "name": "executor",
          "type": "address"
        },
        {
          "indexed": false,
          "internalType": "uint256",
          "name": "executorFeeNatWei",
          "type": "uint256"
        }
      ],
      "name": "RedemptionRequested",
      "type": "event"
    },
    {
      "anonymous": false,
      "inputs": [
        {
          "indexed": true,
          "internalType": "address",
          "name": "agentVault",
          "type": "address"
        },
        {
          "indexed": true,
          "internalType": "uint256",
          "name": "redemptionTicketId",
          "type": "uint256"
        },
        {
          "indexed": false,
          "internalType": "uint256",
          "name": "ticketValueUBA",
          "type": "uint256"
        }
      ],
      "name": "RedemptionTicketCreated",
      "type": "event"
    },
    {
      "anonymous": false,
      "inputs": [
        {
          "indexed": true,
          "internalType": "address",
          "name": "agentVault",
          "type": "address"
        },
        {
          "indexed": true,
          "internalType": "uint256",
          "name": "redemptionTicketId",
          "type": "uint256"
        }
      ],
      "name": "RedemptionTicketDeleted",
      "type": "event"
    },
    {
      "anonymous": false,
      "inputs": [
        {
          "indexed": true,
          "internalType": "address",
          "name": "agentVault",
          "type": "address"
        },
        {
          "indexed": true,
          "internalType": "uint256",
          "name": "redemptionTicketId",
          "type": "uint256"
        },
        {
          "indexed": false,
          "internalType": "uint256",
          "name": "ticketValueUBA",
          "type": "uint256"
        }
      ],
      "name": "RedemptionTicketUpdated",
      "type": "event"
    },
    {
      "anonymous": false,
      "inputs": [
        {
          "indexed": false,
          "internalType": "uint256",
          "name": "firstTicketId",
          "type": "uint256"
        },
        {
          "indexed": false,
          "internalType": "uint256",
          "name": "nextTicketId",
          "type": "uint256"
        }
      ],
      "name": "RedemptionTicketsConsolidated",
      "type": "event"
    },
    {
      "anonymous": false,
      "inputs": [
        {
          "indexed": true,
          "internalType": "address",
          "name": "agentVault",
          "type": "address"
        },
        {
          "indexed": false,
          "internalType": "uint256",
          "name": "valueUBA",
          "type": "uint256"
        }
      ],
      "name": "SelfClose",
      "type": "event"
    },
    {
      "anonymous": false,
      "inputs": [
        {
          "indexed": true,
          "internalType": "address",
          "name": "agentVault",
          "type": "address"
        },
        {
          "indexed": false,
          "internalType": "bool",
          "name": "mintFromFreeUnderlying",
          "type": "bool"
        },
        {
          "indexed": false,
          "internalType": "uint256",
          "name": "mintedAmountUBA",
          "type": "uint256"
        },
        {
          "indexed": false,
          "internalType": "uint256",
          "name": "depositedAmountUBA",
          "type": "uint256"
        },
        {
          "indexed": false,
          "internalType": "uint256",
          "name": "poolFeeUBA",
          "type": "uint256"
        }
      ],
      "name": "SelfMint",
      "type": "event"
    },
    {
      "anonymous": false,
      "inputs": [
        {
          "indexed": false,
          "internalType": "string",
          "name": "name",
          "type": "string"
        },
        {
          "indexed": false,
          "internalType": "uint256[]",
          "name": "value",
          "type": "uint256[]"
        }
      ],
      "name": "SettingArrayChanged",
      "type": "event"
    },
    {
      "anonymous": false,
      "inputs": [
        {
          "indexed": false,
          "internalType": "string",
          "name": "name",
          "type": "string"
        },
        {
          "indexed": false,
          "internalType": "uint256",
          "name": "value",
          "type": "uint256"
        }
      ],
      "name": "SettingChanged",
      "type": "event"
    },
    {
      "anonymous": false,
      "inputs": [
        {
          "indexed": true,
          "internalType": "address",
          "name": "agentVault",
          "type": "address"
        },
        {
          "indexed": false,
          "internalType": "int256",
          "name": "underlyingBalanceUBA",
          "type": "int256"
        }
      ],
      "name": "UnderlyingBalanceChanged",
      "type": "event"
    },
    {
      "anonymous": false,
      "inputs": [
        {
          "indexed": true,
          "internalType": "address",
          "name": "agentVault",
          "type": "address"
        },
        {
          "indexed": false,
          "internalType": "int256",
          "name": "balance",
          "type": "int256"
        },
        {
          "indexed": false,
          "internalType": "uint256",
          "name": "requiredBalance",
          "type": "uint256"
        }
      ],
      "name": "UnderlyingBalanceTooLow",
      "type": "event"
    },
    {
      "anonymous": false,
      "inputs": [
        {
          "indexed": true,
          "internalType": "address",
          "name": "agentVault",
          "type": "address"
        },
        {
          "indexed": false,
          "internalType": "bytes32",
          "name": "transactionHash",
          "type": "bytes32"
        },
        {
          "indexed": false,
          "internalType": "uint256",
          "name": "depositedUBA",
          "type": "uint256"
        }
      ],
      "name": "UnderlyingBalanceToppedUp",
      "type": "event"
    },
    {
      "anonymous": false,
      "inputs": [
        {
          "indexed": true,
          "internalType": "address",
          "name": "agentVault",
          "type": "address"
        },
        {
          "indexed": true,
          "internalType": "uint256",
          "name": "announcementId",
          "type": "uint256"
        },
        {
          "indexed": false,
          "internalType": "bytes32",
          "name": "paymentReference",
          "type": "bytes32"
        }
      ],
      "name": "UnderlyingWithdrawalAnnounced",
      "type": "event"
    },
    {
      "anonymous": false,
      "inputs": [
        {
          "indexed": true,
          "internalType": "address",
          "name": "agentVault",
          "type": "address"
        },
        {
          "indexed": true,
          "internalType": "uint256",
          "name": "announcementId",
          "type": "uint256"
        }
      ],
      "name": "UnderlyingWithdrawalCancelled",
      "type": "event"
    },
    {
      "anonymous": false,
      "inputs": [
        {
          "indexed": true,
          "internalType": "address",
          "name": "agentVault",
          "type": "address"
        },
        {
          "indexed": true,
          "internalType": "uint256",
          "name": "announcementId",
          "type": "uint256"
        },
        {
          "indexed": false,
          "internalType": "int256",
          "name": "spentUBA",
          "type": "int256"
        },
        {
          "indexed": false,
          "internalType": "bytes32",
          "name": "transactionHash",
          "type": "bytes32"
        }
      ],
      "name": "UnderlyingWithdrawalConfirmed",
      "type": "event"
    },
    {
      "anonymous": false,
      "inputs": [
        {
          "indexed": true,
          "internalType": "address",
          "name": "agentVault",
          "type": "address"
        },
        {
          "indexed": false,
          "internalType": "uint256",
          "name": "amountWei",
          "type": "uint256"
        },
        {
          "indexed": false,
          "internalType": "uint256",
          "name": "withdrawalAllowedAt",
          "type": "uint256"
        }
      ],
      "name": "VaultCollateralWithdrawalAnnounced",
      "type": "event"
    },
    {
      "inputs": [
        {
          "internalType": "uint256",
          "name": "_value",
          "type": "uint256"
        }
      ],
      "name": "setAgentExitAvailableTimelockSeconds",
      "outputs": [],
      "stateMutability": "nonpayable",
      "type": "function"
    },
    {
      "inputs": [
        {
          "internalType": "uint256",
          "name": "_value",
          "type": "uint256"
        }
      ],
      "name": "setAgentFeeChangeTimelockSeconds",
      "outputs": [],
      "stateMutability": "nonpayable",
      "type": "function"
    },
    {
      "inputs": [
        {
          "internalType": "uint256",
          "name": "_value",
          "type": "uint256"
        }
      ],
      "name": "setAgentMintingCRChangeTimelockSeconds",
      "outputs": [],
      "stateMutability": "nonpayable",
      "type": "function"
    },
    {
      "inputs": [
        {
          "internalType": "address",
          "name": "_value",
          "type": "address"
        }
      ],
      "name": "setAgentOwnerRegistry",
      "outputs": [],
      "stateMutability": "nonpayable",
      "type": "function"
    },
    {
      "inputs": [
        {
          "internalType": "uint256",
          "name": "_value",
          "type": "uint256"
        }
      ],
      "name": "setAgentTimelockedOperationWindowSeconds",
      "outputs": [],
      "stateMutability": "nonpayable",
      "type": "function"
    },
    {
      "inputs": [
        {
          "internalType": "address",
          "name": "_value",
          "type": "address"
        }
      ],
      "name": "setAgentVaultFactory",
      "outputs": [],
      "stateMutability": "nonpayable",
      "type": "function"
    },
    {
      "inputs": [
        {
          "internalType": "uint256",
          "name": "_value",
          "type": "uint256"
        }
      ],
      "name": "setAttestationWindowSeconds",
      "outputs": [],
      "stateMutability": "nonpayable",
      "type": "function"
    },
    {
      "inputs": [
        {
          "internalType": "uint256",
          "name": "_value",
          "type": "uint256"
        }
      ],
      "name": "setAverageBlockTimeMS",
      "outputs": [],
      "stateMutability": "nonpayable",
      "type": "function"
    },
    {
      "inputs": [
        {
          "internalType": "address",
          "name": "_value",
          "type": "address"
        }
      ],
      "name": "setCleanerContract",
      "outputs": [],
      "stateMutability": "nonpayable",
      "type": "function"
    },
    {
      "inputs": [
        {
          "internalType": "address",
          "name": "_value",
          "type": "address"
        }
      ],
      "name": "setCleanupBlockNumberManager",
      "outputs": [],
      "stateMutability": "nonpayable",
      "type": "function"
    },
    {
      "inputs": [
        {
          "internalType": "address",
          "name": "_value",
          "type": "address"
        }
      ],
      "name": "setCollateralPoolFactory",
      "outputs": [],
      "stateMutability": "nonpayable",
      "type": "function"
    },
    {
      "inputs": [
        {
          "internalType": "address",
          "name": "_value",
          "type": "address"
        }
      ],
      "name": "setCollateralPoolTokenFactory",
      "outputs": [],
      "stateMutability": "nonpayable",
      "type": "function"
    },
    {
      "inputs": [
        {
          "internalType": "uint256",
          "name": "_value",
          "type": "uint256"
        }
      ],
      "name": "setCollateralPoolTokenTimelockSeconds",
      "outputs": [],
      "stateMutability": "nonpayable",
      "type": "function"
    },
    {
      "inputs": [
        {
          "internalType": "uint256",
          "name": "_value",
          "type": "uint256"
        }
      ],
      "name": "setCollateralReservationFeeBips",
      "outputs": [],
      "stateMutability": "nonpayable",
      "type": "function"
    },
    {
      "inputs": [
        {
          "internalType": "uint256",
          "name": "_value",
          "type": "uint256"
        }
      ],
      "name": "setConfirmationByOthersAfterSeconds",
      "outputs": [],
      "stateMutability": "nonpayable",
      "type": "function"
    },
    {
      "inputs": [
        {
          "internalType": "uint256",
          "name": "_value",
          "type": "uint256"
        }
      ],
      "name": "setConfirmationByOthersRewardUSD5",
      "outputs": [],
      "stateMutability": "nonpayable",
      "type": "function"
    },
    {
      "inputs": [
        {
          "internalType": "uint256",
          "name": "_value",
          "type": "uint256"
        }
      ],
      "name": "setEmergencyPauseDurationResetAfterSeconds",
      "outputs": [],
      "stateMutability": "nonpayable",
      "type": "function"
    },
    {
      "inputs": [
        {
          "internalType": "address",
          "name": "_value",
          "type": "address"
        }
      ],
      "name": "setFdcVerification",
      "outputs": [],
      "stateMutability": "nonpayable",
      "type": "function"
    },
    {
      "inputs": [
        {
          "internalType": "uint256[]",
          "name": "_liquidationFactors",
          "type": "uint256[]"
        },
        {
          "internalType": "uint256[]",
          "name": "_vaultCollateralFactors",
          "type": "uint256[]"
        }
      ],
      "name": "setLiquidationPaymentFactors",
      "outputs": [],
      "stateMutability": "nonpayable",
      "type": "function"
    },
    {
      "inputs": [
        {
          "internalType": "uint256",
          "name": "_stepSeconds",
          "type": "uint256"
        }
      ],
      "name": "setLiquidationStepSeconds",
      "outputs": [],
      "stateMutability": "nonpayable",
      "type": "function"
    },
    {
      "inputs": [
        {
          "internalType": "uint256",
          "name": "_value",
          "type": "uint256"
        }
      ],
      "name": "setLotSizeAmg",
      "outputs": [],
      "stateMutability": "nonpayable",
      "type": "function"
    },
    {
      "inputs": [
        {
          "internalType": "uint256",
          "name": "_value",
          "type": "uint256"
        }
      ],
      "name": "setMaxEmergencyPauseDurationSeconds",
      "outputs": [],
      "stateMutability": "nonpayable",
      "type": "function"
    },
    {
      "inputs": [
        {
          "internalType": "uint256",
          "name": "_value",
          "type": "uint256"
        }
      ],
      "name": "setMaxRedeemedTickets",
      "outputs": [],
      "stateMutability": "nonpayable",
      "type": "function"
    },
    {
      "inputs": [
        {
          "internalType": "uint256",
          "name": "_value",
          "type": "uint256"
        }
      ],
      "name": "setMaxTrustedPriceAgeSeconds",
      "outputs": [],
      "stateMutability": "nonpayable",
      "type": "function"
    },
    {
      "inputs": [
        {
          "internalType": "uint256",
          "name": "_value",
          "type": "uint256"
        }
      ],
      "name": "setMinUpdateRepeatTimeSeconds",
      "outputs": [],
      "stateMutability": "nonpayable",
      "type": "function"
    },
    {
      "inputs": [
        {
          "internalType": "uint256",
          "name": "_value",
          "type": "uint256"
        }
      ],
      "name": "setMintingCapAmg",
      "outputs": [],
      "stateMutability": "nonpayable",
      "type": "function"
    },
    {
      "inputs": [
        {
          "internalType": "uint256",
          "name": "_value",
          "type": "uint256"
        }
      ],
      "name": "setMintingPoolHoldingsRequiredBIPS",
      "outputs": [],
      "stateMutability": "nonpayable",
      "type": "function"
    },
    {
      "inputs": [
        {
          "internalType": "uint256",
          "name": "_rewardNATWei",
          "type": "uint256"
        },
        {
          "internalType": "uint256",
          "name": "_rewardBIPS",
          "type": "uint256"
        }
      ],
      "name": "setPaymentChallengeReward",
      "outputs": [],
      "stateMutability": "nonpayable",
      "type": "function"
    },
    {
      "inputs": [
        {
          "internalType": "uint256",
          "name": "_value",
          "type": "uint256"
        }
      ],
      "name": "setPoolExitCRChangeTimelockSeconds",
      "outputs": [],
      "stateMutability": "nonpayable",
      "type": "function"
    },
    {
      "inputs": [
        {
          "internalType": "address",
          "name": "_value",
          "type": "address"
        }
      ],
      "name": "setPriceReader",
      "outputs": [],
      "stateMutability": "nonpayable",
      "type": "function"
    },
    {
      "inputs": [
        {
          "internalType": "uint256",
          "name": "_value",
          "type": "uint256"
        }
      ],
      "name": "setRedemptionDefaultFactorVaultCollateralBIPS",
      "outputs": [],
      "stateMutability": "nonpayable",
      "type": "function"
    },
    {
      "inputs": [
        {
          "internalType": "uint256",
          "name": "_value",
          "type": "uint256"
        }
      ],
      "name": "setRedemptionFeeBips",
      "outputs": [],
      "stateMutability": "nonpayable",
      "type": "function"
    },
    {
      "inputs": [
        {
          "internalType": "uint256",
          "name": "_underlyingBlocks",
          "type": "uint256"
        },
        {
          "internalType": "uint256",
          "name": "_underlyingSeconds",
          "type": "uint256"
        }
      ],
      "name": "setTimeForPayment",
      "outputs": [],
      "stateMutability": "nonpayable",
      "type": "function"
    },
    {
      "inputs": [
        {
          "internalType": "uint256",
          "name": "_value",
          "type": "uint256"
        }
      ],
      "name": "setVaultCollateralBuyForFlareFactorBIPS",
      "outputs": [],
      "stateMutability": "nonpayable",
      "type": "function"
    },
    {
      "inputs": [
        {
          "internalType": "uint256",
          "name": "_value",
          "type": "uint256"
        }
      ],
      "name": "setWithdrawalOrDestroyWaitMinSeconds",
      "outputs": [],
      "stateMutability": "nonpayable",
      "type": "function"
    },
    {
      "inputs": [
        {
          "internalType": "address",
          "name": "_controller",
          "type": "address"
        },
        {
          "internalType": "contract IWNat",
          "name": "_wNat",
          "type": "address"
        }
      ],
      "name": "updateSystemContracts",
      "outputs": [],
      "stateMutability": "nonpayable",
      "type": "function"
    },
    {
      "inputs": [
        {
          "internalType": "address",
          "name": "_value",
          "type": "address"
        },
        {
          "internalType": "bytes",
          "name": "callData",
          "type": "bytes"
        }
      ],
      "name": "upgradeFAssetImplementation",
      "outputs": [],
      "stateMutability": "nonpayable",
      "type": "function"
    }
  ],
  "bytecode": "0x6080604052348015600f57600080fd5b506144678061001f6000396000f3fe608060405234801561001057600080fd5b50600436106102275760003560e01c80638d94510a11610130578063d0743395116100b8578063e443147f1161007c578063e443147f1461048e578063e68f3fbf146104a1578063ec516d24146104b4578063ec7430a4146104c7578063f6a494af146104da57600080fd5b8063d07433951461042f578063d57d25c514610442578063dd64bd0414610455578063df06ea9614610468578063dfc594171461047b57600080fd5b8063af5f2b98116100ff578063af5f2b98146103d0578063b2e6a2b5146103e3578063be069719146103f6578063cda4c54114610409578063cfcb991d1461041c57600080fd5b80638d94510a146103845780639db27f55146103975780639e193242146103aa578063ad74c72d146103bd57600080fd5b80636a598609116101b35780636df310d6116101825780636df310d6146103255780637800a11f146103385780637b6fa7621461034b5780637f4fcaa91461035e578063812e7d2e1461037157600080fd5b80636a598609146102d95780636ad6fb4f146102ec5780636b38c643146102ff5780636dd3d5891461031257600080fd5b8063568ae58e116101fa578063568ae58e1461027a5780635ac5c11e1461028d5780636075765d146102a057806368f224ba146102b357806369b89e7e146102c657600080fd5b806313d6a5e21461022c5780632779aaaa146102415780632c06abf01461025457806347814c0614610267575b600080fd5b61023f61023a366004613bd8565b6104ed565b005b61023f61024f366004613bf5565b6105a2565b61023f610262366004613bf5565b61066e565b61023f610275366004613bf5565b610779565b61023f610288366004613bf5565b6108ab565b61023f61029b366004613bf5565b610a02565b61023f6102ae366004613c0e565b610b62565b61023f6102c1366004613c47565b610c93565b61023f6102d4366004613c47565b610edc565b61023f6102e7366004613caf565b611059565b61023f6102fa366004613bf5565b6111aa565b61023f61030d366004613bf5565b61126d565b61023f610320366004613bd8565b61133e565b61023f610333366004613bf5565b6113ef565b61023f610346366004613bf5565b611554565b61023f610359366004613bf5565b6116cc565b61023f61036c366004613bd8565b6117d5565b61023f61037f366004613bf5565b6118ac565b61023f610392366004613bf5565b611980565b61023f6103a5366004613bf5565b611ad9565b61023f6103b8366004613bf5565b611c2d565b61023f6103cb366004613bf5565b611d95565b61023f6103de366004613bf5565b611e82565b61023f6103f1366004613bf5565b612004565b61023f610404366004613bd8565b6120cf565b61023f610417366004613bd8565b612176565b61023f61042a366004613bf5565b612224565b61023f61043d366004613bf5565b612349565b61023f610450366004613bf5565b61248b565b61023f610463366004613bf5565b612554565b61023f610476366004613bd8565b612667565b61023f610489366004613bf5565b612720565b61023f61049c366004613bd8565b6127e9565b61023f6104af366004613bf5565b612894565b61023f6104c2366004613ddc565b61298a565b61023f6104d5366004613bf5565b612ac3565b61023f6104e8366004613bd8565b612bc2565b6104f5612c8b565b6104fd612cc5565b6000610507612cdc565b90506001600160a01b0382166105305760405163e6c4247b60e01b815260040160405180910390fd5b6002810180546001600160a01b0319166001600160a01b03841690811790915560408051818152601191810191909152706167656e745661756c74466163746f727960781b606082015260208101919091526000805160206143f2833981519152906080015b60405180910390a15050565b6105aa612c8b565b6105b2612cc5565b60006105bc612cdc565b9050620151808210156105e2576040516388e95d8560e01b815260040160405180910390fd5b6105eb82612d00565b6011820180546001600160401b0392909216600160401b0267ffffffffffffffff60401b19909216919091179055604080518181526018918101919091527f6174746573746174696f6e57696e646f775365636f6e6473000000000000000060608201526020810183905260008051602061441283398151915290608001610596565b610676612c8b565b61067e612cc5565b6000610688612cdc565b60138101549091506106ab90600160401b90046001600160401b03166004613e59565b6106b89062015180613e82565b6001600160401b03168211156106e1576040516335cec84f60e01b815260040160405180910390fd5b6106ea82612d00565b6013820180546001600160401b0392909216600160401b0267ffffffffffffffff60401b19909216919091179055604080518181526023918101919091527f6167656e744d696e74696e6743524368616e676554696d656c6f636b5365636f6060820152626e647360e81b6080820152602081018390526000805160206144128339815191529060a001610596565b610781612c8b565b610789612cc5565b6000610793612cdc565b9050600082116107b657604051631e1d0ab560e01b815260040160405180910390fd5b600f8101546107d190600160801b900461ffff166002613ea1565b61ffff168211156107f5576040516313d2afed60e31b815260040160405180910390fd5b600f81015461081190600490600160801b900461ffff16613ed4565b61ffff16821015610835576040516348e8562160e11b815260040160405180910390fd5b61083e82612d71565b600f8201805461ffff92909216600160801b0261ffff60801b1990921691909117905560408051818152601291810191909152716d617852656465656d65645469636b65747360701b60608201526020810183905260008051602061441283398151915290608001610596565b6108b3612c8b565b6108bb612cc5565b60006108c5612cdc565b9050600082116108e857604051631e1d0ab560e01b815260040160405180910390fd5b601081015461090890600160c01b90046001600160401b03166002613e59565b6001600160401b03168211156109315760405163acce294560e01b815260040160405180910390fd5b601081015461095290600290600160c01b90046001600160401b0316613ef8565b6001600160401b031682101561097b576040516369cdc9c360e01b815260040160405180910390fd5b61098482612d00565b6010820180546001600160401b0392909216600160c01b026001600160c01b03909216919091179055604080518181526019918101919091527f6d61785472757374656450726963654167655365636f6e64730000000000000060608201526020810183905260008051602061441283398151915290608001610596565b610a0a612c8b565b610a12612cc5565b6000610a1c612cdc565b905060008211610a3f57604051631e1d0ab560e01b815260040160405180910390fd5b612710821115610a625760405163fb1fb2d360e01b815260040160405180910390fd5b600c810154610a7d90600160401b900461ffff166004613ea1565b61ffff16821115610aa15760405163acce294560e01b815260040160405180910390fd5b600c810154610abd90600490600160401b900461ffff16613ed4565b61ffff16821015610ae1576040516369cdc9c360e01b815260040160405180910390fd5b610aea82612d71565b600c8201805461ffff92909216600160401b0261ffff60401b1990921691909117905560408051818152601c918101919091527f636f6c6c61746572616c5265736572766174696f6e466565424950530000000060608201526020810183905260008051602061441283398151915290608001610596565b610b6a612c8b565b6000610b74612cdc565b80549091506001600160a01b03848116911614610bf55780546001600160a01b0384166001600160a01b031990911681178255604080518181526016818301527530b9b9b2ba26b0b730b3b2b921b7b73a3937b63632b960511b60608201526020810192909252516000805160206143f28339815191529181900360800190a15b6000610bff612dd4565b9050826001600160a01b0316816001600160a01b031614610c8d576000610c27600183612e41565b600060608201526001600160a01b03851660208201529050610c4881612e6a565b60408051818152600481830152631dd3985d60e21b60608201526001600160a01b038616602082015290516000805160206143f28339815191529181900360800190a1505b50505050565b610c9b612c8b565b610ca3612cc5565b6000610cad612cdc565b6010810154909150610cc9906001600160801b03166004613f26565b610cdc9068056bc75e2d63100000613f48565b6001600160801b0316831115610d05576040516313d2afed60e31b815260040160405180910390fd5b6010810154610d1f906004906001600160801b0316613f67565b6001600160801b0316831015610d48576040516348e8562160e11b815260040160405180910390fd5b600f810154610d6390600160901b900461ffff166004613ea1565b610d6e906064613f95565b61ffff16821115610d92576040516313d2afed60e31b815260040160405180910390fd5b600f810154610dae90600490600160901b900461ffff16613ed4565b61ffff16821015610dd2576040516348e8562160e11b815260040160405180910390fd5b610ddb83612e84565b6010820180546001600160801b0319166001600160801b0392909216919091179055610e0682612d71565b600f8201805461ffff60901b1916600160901b61ffff939093169290920291909117905560408051818152601a818301527f7061796d656e744368616c6c656e67655265776172645553443500000000000060608201526020810185905290516000805160206144128339815191529181900360800190a160408051818152601a918101919091527f7061796d656e744368616c6c656e676552657761726442495053000000000000606082015260208101839052600080516020614412833981519152906080015b60405180910390a1505050565b610ee4612c8b565b610eec612cc5565b6000610ef6612cdc565b905060008211610f1957604051631e1d0ab560e01b815260040160405180910390fd5b60008311610f3a57604051631e1d0ab560e01b815260040160405180910390fd5b600c810154610f52908490849063ffffffff16612eed565b610f5b83612d00565b81600d0160136101000a8154816001600160401b0302191690836001600160401b03160217905550610f8c82612d00565b600e8201805467ffffffffffffffff19166001600160401b039290921691909117905560408051818152601a818301527f756e6465726c79696e67426c6f636b73466f725061796d656e740000000000006060820152602081018590529051600080516020614412833981519152916080908290030190a160408051818152601b918101919091527f756e6465726c79696e675365636f6e6473466f725061796d656e74000000000060608201526020810183905260008051602061441283398151915290608001610ecf565b611061612c8b565b611069612cc5565b6000611073612f50565b90506001600160a01b03831661109c5760405163e6c4247b60e01b815260040160405180910390fd5b8151156111085760405163278f794360e11b81526001600160a01b03821690634f1ef286906110d19086908690600401613ff5565b600060405180830381600087803b1580156110eb57600080fd5b505af11580156110ff573d6000803e3d6000fd5b50505050611164565b604051631b2ce7f360e11b81526001600160a01b038481166004830152821690633659cfe690602401600060405180830381600087803b15801561114b57600080fd5b505af115801561115f573d6000803e3d6000fd5b505050505b604080518181526006918101919091526519905cdcd95d60d21b60608201526001600160a01b03841660208201526000805160206143f283398151915290608001610ecf565b6111b2612c8b565b6111ba612cc5565b60006111c4612cdc565b9050603c8210156111e857604051639a721da360e01b815260040160405180910390fd5b6111f182612f6e565b60148201805463ffffffff191663ffffffff92909216919091179055604080518181526022918101919091527f636f6c6c61746572616c506f6f6c546f6b656e54696d656c6f636b5365636f6e606082015261647360f01b6080820152602081018390526000805160206144128339815191529060a001610596565b611275612c8b565b61127d612cc5565b6000611287612cdc565b90506127108210156112ac57604051639a721da360e01b815260040160405180910390fd5b6112b582612f6e565b60128201805463ffffffff92909216600160801b0263ffffffff60801b19909216919091179055604080518181526024918101919091527f7661756c74436f6c6c61746572616c427579466f72466c617265466163746f726060820152634249505360e01b6080820152602081018390526000805160206144128339815191529060a001610596565b611346612c8b565b61134e612cc5565b6000611358612cdc565b90506001600160a01b0382166113815760405163e6c4247b60e01b815260040160405180910390fd5b6003810180546001600160a01b0319166001600160a01b0384169081179091556040805181815260159181019190915274636f6c6c61746572616c506f6f6c466163746f727960581b606082015260208101919091526000805160206143f283398151915290608001610596565b6113f7612c8b565b6113ff612cc5565b6000611409612cdc565b90506000821161142c57604051631e1d0ab560e01b815260040160405180910390fd5b601781015461144c90600160401b90046001600160401b03166004613e59565b61145790603c613e82565b6001600160401b0316821115611480576040516313d2afed60e31b815260040160405180910390fd5b60178101546114a190600490600160401b90046001600160401b0316613ef8565b6001600160401b03168210156114ca576040516348e8562160e11b815260040160405180910390fd5b6114d382612d00565b6017820180546001600160401b0392909216600160401b0267ffffffffffffffff60401b199092169190911790556040805181815260209181018290527f6d6178456d657267656e637950617573654475726174696f6e5365636f6e6473606082015290810183905260008051602061441283398151915290608001610596565b61155c612c8b565b611564612cc5565b600061156e612cdc565b90506000821161159157604051631e1d0ab560e01b815260040160405180910390fd5b60178101546115b190600160801b90046001600160401b03166004613e59565b6115bd90610e10613e82565b6001600160401b03168211156115e6576040516313d2afed60e31b815260040160405180910390fd5b601781015461160790600490600160801b90046001600160401b0316613ef8565b6001600160401b0316821015611630576040516348e8562160e11b815260040160405180910390fd5b61163982612d00565b6017820180546001600160401b0392909216600160801b0267ffffffffffffffff60801b19909216919091179055604080518181526027918101919091527f656d657267656e637950617573654475726174696f6e526573657441667465726060820152665365636f6e647360c81b6080820152602081018390526000805160206144128339815191529060a001610596565b6116d4612c8b565b6116dc612cc5565b60006116e6612cdc565b601281015490915061170990600160a01b90046001600160401b03166004613e59565b6117169062093a80613e82565b6001600160401b031682111561173f576040516335cec84f60e01b815260040160405180910390fd5b61174882612d00565b6012820180546001600160401b0392909216600160a01b0267ffffffffffffffff60a01b19909216919091179055604080518181526021918101919091527f6167656e7445786974417661696c61626c6554696d656c6f636b5365636f6e646060820152607360f81b6080820152602081018390526000805160206144128339815191529060a001610596565b6117dd612c8b565b6117e5612cc5565b60006117ef612f50565b604051637f4fcaa960e01b81526001600160a01b03848116600483015291925090821690637f4fcaa990602401600060405180830381600087803b15801561183657600080fd5b505af115801561184a573d6000803e3d6000fd5b5050604080518181526019918101919091527f636c65616e7570426c6f636b4e756d6265724d616e616765720000000000000060608201526001600160a01b03851660208201526000805160206143f283398151915292506080019050610596565b6118b4612c8b565b6118bc612cc5565b60006118c6612cdc565b9050610e108210156118eb57604051639a721da360e01b815260040160405180910390fd5b6118f482612d00565b6013820180546001600160401b0392909216600160c01b026001600160c01b03909216919091179055604080518181526025918101919091527f6167656e7454696d656c6f636b65644f7065726174696f6e57696e646f775365606082015264636f6e647360d81b6080820152602081018390526000805160206144128339815191529060a001610596565b611988612c8b565b611990612cc5565b600061199a612cdc565b9050600082116119bd57604051631e1d0ab560e01b815260040160405180910390fd5b60148101546119de9064010000000090046001600160401b03166002613e59565b6001600160401b0316821115611a07576040516313d2afed60e31b815260040160405180910390fd5b6014810154611a299060029064010000000090046001600160401b0316613ef8565b6001600160401b0316821015611a52576040516348e8562160e11b815260040160405180910390fd5b611a5b82612d00565b6014820180546001600160401b0392909216640100000000026bffffffffffffffff000000001990921691909117905560408051818152601691810191909152756c69717569646174696f6e537465705365636f6e647360501b60608201526020810183905260008051602061441283398151915290608001610596565b611ae1612c8b565b611ae9612cc5565b6000611af3612cdc565b905060008211611b1657604051631e1d0ab560e01b815260040160405180910390fd5b612710821115611b395760405163fb1fb2d360e01b815260040160405180910390fd5b600e810154611b5490600160401b900461ffff166004613ea1565b61ffff16821115611b785760405163acce294560e01b815260040160405180910390fd5b600e810154611b9490600490600160401b900461ffff16613ed4565b61ffff16821015611bb8576040516369cdc9c360e01b815260040160405180910390fd5b611bc182612d71565b600e8201805461ffff92909216600160401b0261ffff60401b199092169190911790556040805181815260119181019190915270726564656d7074696f6e4665654249505360781b60608201526020810183905260008051602061441283398151915290608001610596565b611c35612c8b565b611c3d612cc5565b6000611c47612cdc565b90506127108211611c6b5760405163db2ff64760e01b815260040160405180910390fd5b600e810154611c8e9063ffffffff600160501b909104811690612ee090612fd316565b611c9a906103e8614021565b821115611cba5760405163acce294560e01b815260040160405180910390fd5b600e810154611cdd9063ffffffff600160501b90910481169061208d90612fd316565b821015611cfd576040516369cdc9c360e01b815260040160405180910390fd5b611d0682612f6e565b600e8201805463ffffffff92909216600160501b0263ffffffff60501b1990921691909117905560408051818152602a918101919091527f726564656d7074696f6e44656661756c74466163746f725661756c74436f6c6c60608201526961746572616c4249505360b01b6080820152602081018390526000805160206144128339815191529060a001610596565b611d9d612c8b565b611da5612cc5565b6000611daf612cdc565b6013810154909150611dcb906001600160401b03166004613e59565b611dd89062015180613e82565b6001600160401b0316821115611e01576040516335cec84f60e01b815260040160405180910390fd5b611e0a82612d00565b60138201805467ffffffffffffffff19166001600160401b039290921691909117905560408051818152601d918101919091527f6167656e744665654368616e676554696d656c6f636b5365636f6e647300000060608201526020810183905260008051602061441283398151915290608001610596565b611e8a612c8b565b611e92612cc5565b6000611e9c612cdc565b905060008211611ebf57604051631e1d0ab560e01b815260040160405180910390fd5b600d810154611ed8906001600160401b0316600a613e59565b6001600160401b0316821115611f015760405163c1eb125d60e01b815260040160405180910390fd5b600d810154611f1b90600a906001600160401b0316613ef8565b6001600160401b0316821015611f44576040516362b1e00560e11b815260040160405180910390fd5b600d810154600160581b90046001600160401b03161580611f795750600d810154600160581b90046001600160401b03168211155b611f96576040516339897cef60e01b815260040160405180910390fd5b611f9f82612d00565b600d8201805467ffffffffffffffff19166001600160401b039290921691909117905560408051818152600a91810191909152696c6f7453697a65414d4760b01b60608201526020810183905260008051602061441283398151915290608001610596565b61200c612c8b565b612014612cc5565b600061201e612cdc565b905081158061203a5750600d8101546001600160401b03168210155b61205757604051639a721da360e01b815260040160405180910390fd5b61206082612d00565b81600d01600b6101000a8154816001600160401b0302191690836001600160401b031602179055506000805160206144128339815191528260405161059691906040808252600d908201526c6d696e74696e67436170414d4760981b6060820152602081019190915260800190565b6120d7612c8b565b6120df612cc5565b60006120e9612cdc565b90506001600160a01b0382166121125760405163e6c4247b60e01b815260040160405180910390fd5b600a810180546001600160a01b0319166001600160a01b03841690811790915560408051818152600b918101919091526a383934b1b2a932b0b232b960a91b606082015260208101919091526000805160206143f283398151915290608001610596565b61217e612c8b565b612186612cc5565b6000612190612cdc565b90506001600160a01b0382166121b95760405163e6c4247b60e01b815260040160405180910390fd5b6007810180546001600160a01b0319166001600160a01b03841690811790915560408051818152601291810191909152716167656e744f776e6572526567697374727960701b606082015260208101919091526000805160206143f283398151915290608001610596565b61222c612c8b565b612234612cc5565b600061223e612cdc565b90506000821161226157604051631e1d0ab560e01b815260040160405180910390fd5b600c8101546122779063ffffffff166002614034565b63ffffffff1682111561229d576040516313d2afed60e31b815260040160405180910390fd5b600c8101546122b49060029063ffffffff16614053565b63ffffffff168210156122da576040516348e8562160e11b815260040160405180910390fd5b6122e382612f6e565b600c8201805463ffffffff191663ffffffff92909216919091179055604080518181526012918101919091527161766572616765426c6f636b54696d654d5360701b60608201526020810183905260008051602061441283398151915290608001610596565b612351612c8b565b612359612cc5565b6000612363612cdc565b90506000821161238657604051631e1d0ab560e01b815260040160405180910390fd5b600f81015461239f906001600160801b03166004613f26565b6001600160801b03168211156123c85760405163acce294560e01b815260040160405180910390fd5b600f8101546123e2906004906001600160801b0316613f67565b6001600160801b031682101561240b576040516369cdc9c360e01b815260040160405180910390fd5b61241482612e84565b600f820180546001600160801b0319166001600160801b039290921691909117905560408051818152601e918101919091527f636f6e6669726d6174696f6e42794f746865727352657761726455534435000060608201526020810183905260008051602061441283398151915290608001610596565b612493612c8b565b61249b612cc5565b60006124a5612cdc565b9050600082116124c857604051631e1d0ab560e01b815260040160405180910390fd5b6124d182612d00565b6011820180546001600160401b0392909216600160801b0267ffffffffffffffff60801b1990921691909117905560408051818152601a918101919091527f6d696e55706461746552657065617454696d655365636f6e647300000000000060608201526020810183905260008051602061441283398151915290608001610596565b61255c612c8b565b612564612cc5565b600061256e612cdc565b90506000821161259157604051631e1d0ab560e01b815260040160405180910390fd5b60108101546125b290600160801b90046001600160401b0316610258613e82565b6001600160401b03168211156125db576040516313d2afed60e31b815260040160405180910390fd5b6125e482612d00565b6010820180546001600160401b0392909216600160801b0267ffffffffffffffff60801b19909216919091179055604080518181526018918101919091527f7769746864726177616c576169744d696e5365636f6e6473000000000000000060608201526020810183905260008051602061441283398151915290608001610596565b61266f612c8b565b612677612cc5565b6000612681612cdc565b90506001600160a01b0382166126aa5760405163e6c4247b60e01b815260040160405180910390fd5b6004810180546001600160a01b0319166001600160a01b03841690811790915560408051818152601a918101919091527f636f6c6c61746572616c506f6f6c546f6b656e466163746f7279000000000000606082015260208101919091526000805160206143f283398151915290608001610596565b612728612c8b565b612730612cc5565b600061273a612cdc565b9050611c2082101561275f57604051630c85bd4760e11b815260040160405180910390fd5b61276882612d00565b600e820180546001600160401b0392909216600160901b0267ffffffffffffffff60901b199092169190911790556040805181815260209181018290527f636f6e6669726d6174696f6e42794f746865727341667465725365636f6e6473606082015290810183905260008051602061441283398151915290608001610596565b6127f1612c8b565b6127f9612cc5565b6000612803612cdc565b90506001600160a01b03821661282c5760405163e6c4247b60e01b815260040160405180910390fd5b6008810180546001600160a01b0319166001600160a01b03841690811790915560408051818152600f918101919091526e333231ab32b934b334b1b0ba34b7b760891b606082015260208101919091526000805160206143f283398151915290608001610596565b61289c612c8b565b6128a4612cc5565b60006128ae612cdc565b600c810154909150612710906128d390640100000000900463ffffffff166004614034565b63ffffffff166128e39190614021565b821115612903576040516335cec84f60e01b815260040160405180910390fd5b61290c82612f6e565b600c8201805463ffffffff929092166401000000000267ffffffff000000001990921691909117905560408051818152601f918101919091527f6d696e74696e67506f6f6c486f6c64696e67735265717569726564424950530060608201526020810183905260008051602061441283398151915290608001610596565b612992612c8b565b61299a612cc5565b60006129a4612cdc565b90506129b08383612fe9565b6129be601582016000613b38565b6129cc601682016000613b38565b60005b8351811015612a5c57816015016129fe8583815181106129f1576129f161407b565b6020026020010151612f6e565b81546001810183556000928352602090922063ffffffff90911691015582516016830190612a38908590849081106129f1576129f161407b565b8154600181810184556000938452602090932063ffffffff909216910155016129cf565b507ff8df5a8f8fc0ea5cc0d8aff70643ac14b7353b936a843e23cb08ff282ba7473983604051612a8c91906140cd565b60405180910390a17ff8df5a8f8fc0ea5cc0d8aff70643ac14b7353b936a843e23cb08ff282ba7473982604051610ecf9190614114565b612acb612c8b565b612ad3612cc5565b6000612add612cdc565b6013810154909150612b0090600160801b90046001600160401b03166004613e59565b612b0d9062015180613e82565b6001600160401b0316821115612b36576040516335cec84f60e01b815260040160405180910390fd5b612b3f82612d00565b6013820180546001600160401b0392909216600160801b0267ffffffffffffffff60801b1990921691909117905560408051818152601f918101919091527f706f6f6c4578697443524368616e676554696d656c6f636b5365636f6e64730060608201526020810183905260008051602061441283398151915290608001610596565b612bca612c8b565b612bd2612cc5565b6000612bdc612f50565b60405163f6a494af60e01b81526001600160a01b0384811660048301529192509082169063f6a494af90602401600060405180830381600087803b158015612c2357600080fd5b505af1158015612c37573d6000803e3d6000fd5b505060408051818152600f918101919091526e18db19585b995c90dbdb9d1c9858dd608a1b60608201526001600160a01b03851660208201526000805160206143f283398151915292506080019050610596565b6000612c95612cdc565b80549091506001600160a01b03163314612cc257604051634ae14edf60e11b815260040160405180910390fd5b50565b612cda6001600160e01b031960003516613135565b565b7f4f24f5c433db0962dac0d2c8b84197a6e6c7cc4e5d9ebe1916a1b6193da2f33a90565b60006001600160401b03821115612d6d5760405162461bcd60e51b815260206004820152602660248201527f53616665436173743a2076616c756520646f65736e27742066697420696e203660448201526534206269747360d01b60648201526084015b60405180910390fd5b5090565b600061ffff821115612d6d5760405162461bcd60e51b815260206004820152602660248201527f53616665436173743a2076616c756520646f65736e27742066697420696e203160448201526536206269747360d01b6064820152608401612d64565b7fec7e8c1c441439dd40959777f4c577ea0cd42fcc1dbe59d2bd0f5d9c55df8dc5546000805160206143d28339815191528054600092829161ffff909116908110612e2157612e2161407b565b60009182526020909120600490910201546001600160a01b031692915050565b612e49613b56565b6000612e5584846131cd565b9050612e6081613271565b9150505b92915050565b6000612e758261343d565b9050612e808161384c565b5050565b60006001600160801b03821115612d6d5760405162461bcd60e51b815260206004820152602760248201527f53616665436173743a2076616c756520646f65736e27742066697420696e20316044820152663238206269747360c81b6064820152608401612d64565b62015180821115612f11576040516318dc18b360e01b815260040160405180910390fd5b620151806103e8612f228386614168565b612f2c919061417f565b1115612f4b576040516318dc18b360e01b815260040160405180910390fd5b505050565b600080612f5b612cdc565b600101546001600160a01b031692915050565b600063ffffffff821115612d6d5760405162461bcd60e51b815260206004820152602660248201527f53616665436173743a2076616c756520646f65736e27742066697420696e203360448201526532206269747360d01b6064820152608401612d64565b6000612fe283836127106138d7565b9392505050565b805182511461300b576040516322cb666160e01b815260040160405180910390fd5b60018251101561302e5760405163e7f61b9f60e01b815260040160405180910390fd5b60005b8251811015612f4b5761271083828151811061304f5761304f61407b565b602002602001015111613075576040516319cb132f60e31b815260040160405180910390fd5b8281815181106130875761308761407b565b60200260200101518282815181106130a1576130a161407b565b602002602001015111156130c8576040516343734f6f60e01b815260040160405180910390fd5b8015806131105750826130dc600183614193565b815181106130ec576130ec61407b565b60200260200101518382815181106131065761310661407b565b6020026020010151115b61312d5760405163103f13e760e11b815260040160405180910390fd5b600101613031565b7fc6aafbe0f74bbe68eec7559401d7d311a092b5c4d8feb0452323e4ba73d8d8d16000613160612cdc565b60008481526020849052604090205490915080158061319d5750601182015461319990600160801b90046001600160401b031682614021565b4210155b6131ba57604051630e216b9960e31b815260040160405180910390fd5b5050600091825260205260409020429055565b60006000805160206143d2833981519152817fec7e8c1c441439dd40959777f4c577ea0cd42fcc1dbe59d2bd0f5d9c55df8db78161320b87876139db565b81526020019081526020016000205490506000811161323d57604051638698bf3760e01b815260040160405180910390fd5b81613249600183614193565b815481106132595761325961407b565b90600052602060002090600402019250505092915050565b613279613b56565b60408051610120810190915282548190600160a01b900460ff1660028111156132a4576132a46141a6565b815283546001600160a01b038116602083015260ff600160a81b8204811660408401526001600160401b03600160b01b8304166060840152600160f01b909104161515608082015260018401805460a090920191613301906141bc565b80601f016020809104026020016040519081016040528092919081815260200182805461332d906141bc565b801561337a5780601f1061334f5761010080835404028352916020019161337a565b820191906000526020600020905b81548152906001019060200180831161335d57829003601f168201915b50505050508152602001836002018054613393906141bc565b80601f01602080910402602001604051908101604052809291908181526020018280546133bf906141bc565b801561340c5780601f106133e15761010080835404028352916020019161340c565b820191906000526020600020905b8154815290600101906020018083116133ef57829003601f168201915b505050918352505060039093015463ffffffff8082166020860152600160401b909104166040909301929092525090565b60208101516000906000805160206143d2833981519152906001600160a01b031661347b5760405163ab42242d60e01b815260040160405180910390fd5b600061348f846000015185602001516139db565b6000818152600184016020526040902054909150156134c15760405163c991cbb160e01b815260040160405180910390fd5b6060840151156134e4576040516308d5b2cb60e31b815260040160405180910390fd5b60008460e0015161271010801561350457508461010001518560e0015111155b90508061352457604051631654ba8b60e11b815260040160405180910390fd5b60006135358660a001516000613a05565b505090508060000361355a57604051636fdc2d5b60e01b815260040160405180910390fd5b856080015161359b5760006135748760c001516000613a05565b505090508060000361359957604051636fdc2d5b60e01b815260040160405180910390fd5b505b83546040805161014081019091526020808901516001600160a01b03168252885187929182019060028111156135d3576135d36141a6565b81526020016135e58a60400151613ad7565b60ff16815260200160006001600160401b031681526020018960800151151581526020018960a0015181526020018960c00151815260200161362a8a60e00151612f6e565b63ffffffff168152602001600063ffffffff1681526020016136508a6101000151612f6e565b63ffffffff16905281546001810183556000928352602092839020825160049092020180546001600160a01b031981166001600160a01b03909316928317825593830151929390929183916001600160a81b03191617600160a01b8360028111156136bd576136bd6141a6565b021790555060408201518154606084015160808501511515600160f01b0260ff60f01b196001600160401b03909216600160b01b0267ffffffffffffffff60b01b1960ff909516600160a81b029490941668ffffffffffffffffff60a81b1990931692909217929092179190911617815560a082015160018201906137429082614244565b5060c082015160028201906137579082614244565b5060e0820151600390910180546101008401516101209094015163ffffffff908116600160401b026bffffffff0000000000000000199582166401000000000267ffffffffffffffff19909316919094161717929092161790556137bc816001614021565b600085815260018701602052604090205586517fc4531f4cebd6a3b1974b381202c861ca7d302755db0d983686b77c75be048455906002811115613802576138026141a6565b886020015189604001518a608001518b60a001518c60c001518d60e001518e610100015160405161383a989796959493929190614302565b60405180910390a19695505050505050565b6000805160206143d283398151915280546000908290849081106138725761387261407b565b60009182526020909120600490910201905060018154600160a01b900460ff1660028111156138a3576138a36141a6565b146138b0576138b0614366565b6138b983612d71565b600f92909201805461ffff191661ffff909316929092179091555050565b60008082116138f9576040516323d359a360e01b815260040160405180910390fd5b8360000361390957506000612fe2565b8383028385828161391c5761391c613ebe565b040361393a5782818161393157613931613ebe565b04915050612fe2565b506000613947838661417f565b90506000613955848761437c565b90506000613963858761417f565b90506000613971868861437c565b90508561397e8285614168565b613988919061417f565b6139928385614168565b61399c8387614168565b886139a78689614168565b6139b19190614168565b6139bb9190614021565b6139c59190614021565b6139cf9190614021565b98975050505050505050565b6000816001600160a01b031660a08460028111156139fb576139fb6141a6565b901b179392505050565b600080600080613a13612cdc565b600a8101549091506001600160a01b03168515613aa45760405163e4a0a55b60e01b81526001600160a01b0382169063e4a0a55b90613a56908a90600401614390565b606060405180830381865afa158015613a73573d6000803e3d6000fd5b505050506040513d601f19601f82011682018060405250810190613a9791906143a3565b9450945094505050613ad0565b60405163524f388960e01b81526001600160a01b0382169063524f388990613a56908a90600401614390565b9250925092565b600060ff821115612d6d5760405162461bcd60e51b815260206004820152602560248201527f53616665436173743a2076616c756520646f65736e27742066697420696e2038604482015264206269747360d81b6064820152608401612d64565b5080546000825590600052602060002090810190612cc29190613bae565b604080516101208101909152806000815260200160006001600160a01b031681526020016000815260200160008152602001600015158152602001606081526020016060815260200160008152602001600081525090565b5b80821115612d6d5760008155600101613baf565b6001600160a01b0381168114612cc257600080fd5b600060208284031215613bea57600080fd5b8135612fe281613bc3565b600060208284031215613c0757600080fd5b5035919050565b60008060408385031215613c2157600080fd5b8235613c2c81613bc3565b91506020830135613c3c81613bc3565b809150509250929050565b60008060408385031215613c5a57600080fd5b50508035926020909101359150565b634e487b7160e01b600052604160045260246000fd5b604051601f8201601f191681016001600160401b0381118282101715613ca757613ca7613c69565b604052919050565b60008060408385031215613cc257600080fd5b8235613ccd81613bc3565b915060208301356001600160401b03811115613ce857600080fd5b8301601f81018513613cf957600080fd5b80356001600160401b03811115613d1257613d12613c69565b613d25601f8201601f1916602001613c7f565b818152866020838501011115613d3a57600080fd5b816020840160208301376000602083830101528093505050509250929050565b600082601f830112613d6b57600080fd5b81356001600160401b03811115613d8457613d84613c69565b8060051b613d9460208201613c7f565b91825260208185018101929081019086841115613db057600080fd5b6020860192505b83831015613dd2578235825260209283019290910190613db7565b9695505050505050565b60008060408385031215613def57600080fd5b82356001600160401b03811115613e0557600080fd5b613e1185828601613d5a565b92505060208301356001600160401b03811115613e2d57600080fd5b613e3985828601613d5a565b9150509250929050565b634e487b7160e01b600052601160045260246000fd5b6001600160401b038181168382160290811690818114613e7b57613e7b613e43565b5092915050565b6001600160401b038181168382160190811115612e6457612e64613e43565b61ffff8181168382160290811690818114613e7b57613e7b613e43565b634e487b7160e01b600052601260045260246000fd5b600061ffff831680613ee857613ee8613ebe565b8061ffff84160491505092915050565b60006001600160401b03831680613f1157613f11613ebe565b806001600160401b0384160491505092915050565b6001600160801b038181168382160290811690818114613e7b57613e7b613e43565b6001600160801b038181168382160190811115612e6457612e64613e43565b60006001600160801b03831680613f8057613f80613ebe565b806001600160801b0384160491505092915050565b61ffff8181168382160190811115612e6457612e64613e43565b6000815180845260005b81811015613fd557602081850181015186830182015201613fb9565b506000602082860101526020601f19601f83011685010191505092915050565b6001600160a01b038316815260406020820181905260009061401990830184613faf565b949350505050565b80820180821115612e6457612e64613e43565b63ffffffff8181168382160290811690818114613e7b57613e7b613e43565b600063ffffffff83168061406957614069613ebe565b8063ffffffff84160491505092915050565b634e487b7160e01b600052603260045260246000fd5b600081518084526020840193506020830160005b828110156140c35781518652602095860195909101906001016140a5565b5093949350505050565b60408152601f60408201527f6c69717569646174696f6e436f6c6c61746572616c466163746f7242495053006060820152608060208201526000612fe26080830184614091565b60408152602460408201527f6c69717569646174696f6e466163746f725661756c74436f6c6c61746572616c6060820152634249505360e01b608082015260a060208201526000612fe260a0830184614091565b8082028115828204841417612e6457612e64613e43565b60008261418e5761418e613ebe565b500490565b81810381811115612e6457612e64613e43565b634e487b7160e01b600052602160045260246000fd5b600181811c908216806141d057607f821691505b6020821081036141f057634e487b7160e01b600052602260045260246000fd5b50919050565b601f821115612f4b57806000526020600020601f840160051c8101602085101561421d5750805b601f840160051c820191505b8181101561423d5760008155600101614229565b5050505050565b81516001600160401b0381111561425d5761425d613c69565b6142718161426b84546141bc565b846141f6565b6020601f8211600181146142a5576000831561428d5750848201515b600019600385901b1c1916600184901b17845561423d565b600084815260208120601f198516915b828110156142d557878501518255602094850194600190920191016142b5565b50848210156142f35786840151600019600387901b60f8161c191681555b50505050600190811b01905550565b60ff8916815260018060a01b038816602082015286604082015285151560608201526101006080820152600061433c610100830187613faf565b82810360a084015261434e8187613faf565b60c0840195909552505060e001529695505050505050565b634e487b7160e01b600052600160045260246000fd5b60008261438b5761438b613ebe565b500690565b602081526000612fe26020830184613faf565b6000806000606084860312156143b857600080fd5b505081516020830151604090930151909492935091905056feec7e8c1c441439dd40959777f4c577ea0cd42fcc1dbe59d2bd0f5d9c55df8db6cb274d507e7a9978f5a8c15929fd58c472b8addc1a9bba454b0c0a49a05c9152ac1fb27759c1e6f9e4a24d4f8c320be6091becb03cea5a95398fa220fca4ac0ea264697066735822122023d588105fa0a4e6ebd5680f9f814be1857fde8bb49817f59d5d563972d6293264736f6c634300081b0033",
  "linkReferences": {},
  "deployedLinkReferences": {}
}