{
  "_format": "hh-sol-artifact-1",
  "contractName": "SettingsManagementFacet",
  "sourceName": "contracts/assetManager/facets/SettingsManagementFacet.sol",
  "abi": [
    {
      "anonymous": false,
      "inputs": [
        {
          "indexed": true,
          "internalType": "address",
          "name": "agentVault",
          "type": "address"
        },
        {
          "indexed": false,
          "internalType": "uint256",
          "name": "feeBIPS",
          "type": "uint256"
        },
        {
          "indexed": false,
          "internalType": "uint256",
          "name": "mintingVaultCollateralRatioBIPS",
          "type": "uint256"
        },
        {
          "indexed": false,
          "internalType": "uint256",
          "name": "mintingPoolCollateralRatioBIPS",
          "type": "uint256"
        },
        {
          "indexed": false,
          "internalType": "uint256",
          "name": "freeCollateralLots",
          "type": "uint256"
        }
      ],
      "name": "AgentAvailable",
      "type": "event"
    },
    {
      "anonymous": false,
      "inputs": [
        {
          "indexed": true,
          "internalType": "address",
          "name": "agentVault",
          "type": "address"
        },
        {
          "indexed": false,
          "internalType": "uint8",
          "name": "collateralClass",
          "type": "uint8"
        },
        {
          "indexed": false,
          "internalType": "address",
          "name": "token",
          "type": "address"
        }
      ],
      "name": "AgentCollateralTypeChanged",
      "type": "event"
    },
    {
      "anonymous": false,
      "inputs": [
        {
          "indexed": true,
          "internalType": "address",
          "name": "agentVault",
          "type": "address"
        },
        {
          "indexed": false,
          "internalType": "uint256",
          "name": "destroyAllowedAt",
          "type": "uint256"
        }
      ],
      "name": "AgentDestroyAnnounced",
      "type": "event"
    },
    {
      "anonymous": false,
      "inputs": [
        {
          "indexed": true,
          "internalType": "address",
          "name": "agentVault",
          "type": "address"
        }
      ],
      "name": "AgentDestroyed",
      "type": "event"
    },
    {
      "anonymous": false,
      "inputs": [
        {
          "indexed": true,
          "internalType": "address",
          "name": "agentVault",
          "type": "address"
        },
        {
          "indexed": false,
          "internalType": "uint256",
          "name": "timestamp",
          "type": "uint256"
        }
      ],
      "name": "AgentInCCB",
      "type": "event"
    },
    {
      "anonymous": false,
      "inputs": [
        {
          "indexed": true,
          "internalType": "address",
          "name": "agentVault",
          "type": "address"
        },
        {
          "indexed": false,
          "internalType": "string",
          "name": "name",
          "type": "string"
        },
        {
          "indexed": false,
          "internalType": "uint256",
          "name": "value",
          "type": "uint256"
        },
        {
          "indexed": false,
          "internalType": "uint256",
          "name": "validAt",
          "type": "uint256"
        }
      ],
      "name": "AgentSettingChangeAnnounced",
      "type": "event"
    },
    {
      "anonymous": false,
      "inputs": [
        {
          "indexed": true,
          "internalType": "address",
          "name": "agentVault",
          "type": "address"
        },
        {
          "indexed": false,
          "internalType": "string",
          "name": "name",
          "type": "string"
        },
        {
          "indexed": false,
          "internalType": "uint256",
          "name": "value",
          "type": "uint256"
        }
      ],
      "name": "AgentSettingChanged",
      "type": "event"
    },
    {
      "anonymous": false,
      "inputs": [
        {
          "indexed": true,
          "internalType": "address",
          "name": "owner",
          "type": "address"
        },
        {
          "indexed": true,
          "internalType": "address",
          "name": "agentVault",
          "type": "address"
        },
        {
          "components": [
            {
              "internalType": "address",
              "name": "collateralPool",
              "type": "address"
            },
            {
              "internalType": "address",
              "name": "collateralPoolToken",
              "type": "address"
            },
            {
              "internalType": "string",
              "name": "underlyingAddress",
              "type": "string"
            },
            {
              "internalType": "address",
              "name": "vaultCollateralToken",
              "type": "address"
            },
            {
              "internalType": "address",
              "name": "poolWNatToken",
              "type": "address"
            },
            {
              "internalType": "uint256",
              "name": "feeBIPS",
              "type": "uint256"
            },
            {
              "internalType": "uint256",
              "name": "poolFeeShareBIPS",
              "type": "uint256"
            },
            {
              "internalType": "uint256",
              "name": "mintingVaultCollateralRatioBIPS",
              "type": "uint256"
            },
            {
              "internalType": "uint256",
              "name": "mintingPoolCollateralRatioBIPS",
              "type": "uint256"
            },
            {
              "internalType": "uint256",
              "name": "buyFAssetByAgentFactorBIPS",
              "type": "uint256"
            },
            {
              "internalType": "uint256",
              "name": "poolExitCollateralRatioBIPS",
              "type": "uint256"
            },
            {
              "internalType": "uint256",
              "name": "redemptionPoolFeeShareBIPS",
              "type": "uint256"
            }
          ],
          "indexed": false,
          "internalType": "struct IAssetManagerEvents.AgentVaultCreationData",
          "name": "creationData",
          "type": "tuple"
        }
      ],
      "name": "AgentVaultCreated",
      "type": "event"
    },
    {
      "anonymous": false,
      "inputs": [
        {
          "indexed": true,
          "internalType": "address",
          "name": "agentVault",
          "type": "address"
        },
        {
          "indexed": false,
          "internalType": "uint256",
          "name": "exitAllowedAt",
          "type": "uint256"
        }
      ],
      "name": "AvailableAgentExitAnnounced",
      "type": "event"
    },
    {
      "anonymous": false,
      "inputs": [
        {
          "indexed": true,
          "internalType": "address",
          "name": "agentVault",
          "type": "address"
        }
      ],
      "name": "AvailableAgentExited",
      "type": "event"
    },
    {
      "anonymous": false,
      "inputs": [
        {
          "indexed": false,
          "internalType": "uint8",
          "name": "collateralClass",
          "type": "uint8"
        },
        {
          "indexed": false,
          "internalType": "address",
          "name": "collateralToken",
          "type": "address"
        },
        {
          "indexed": false,
          "internalType": "uint256",
          "name": "minCollateralRatioBIPS",
          "type": "uint256"
        },
        {
          "indexed": false,
          "internalType": "uint256",
          "name": "ccbMinCollateralRatioBIPS",
          "type": "uint256"
        },
        {
          "indexed": false,
          "internalType": "uint256",
          "name": "safetyMinCollateralRatioBIPS",
          "type": "uint256"
        }
      ],
      "name": "CollateralRatiosChanged",
      "type": "event"
    },
    {
      "anonymous": false,
      "inputs": [
        {
          "indexed": true,
          "internalType": "address",
          "name": "agentVault",
          "type": "address"
        },
        {
          "indexed": true,
          "internalType": "address",
          "name": "minter",
          "type": "address"
        },
        {
          "indexed": true,
          "internalType": "uint256",
          "name": "collateralReservationId",
          "type": "uint256"
        },
        {
          "indexed": false,
          "internalType": "uint256",
          "name": "reservedAmountUBA",
          "type": "uint256"
        }
      ],
      "name": "CollateralReservationDeleted",
      "type": "event"
    },
    {
      "anonymous": false,
      "inputs": [
        {
          "indexed": true,
          "internalType": "address",
          "name": "agentVault",
          "type": "address"
        },
        {
          "indexed": true,
          "internalType": "address",
          "name": "minter",
          "type": "address"
        },
        {
          "indexed": true,
          "internalType": "uint256",
          "name": "collateralReservationId",
          "type": "uint256"
        },
        {
          "indexed": false,
          "internalType": "uint256",
          "name": "valueUBA",
          "type": "uint256"
        },
        {
          "indexed": false,
          "internalType": "uint256",
          "name": "feeUBA",
          "type": "uint256"
        },
        {
          "indexed": false,
          "internalType": "uint256",
          "name": "firstUnderlyingBlock",
          "type": "uint256"
        },
        {
          "indexed": false,
          "internalType": "uint256",
          "name": "lastUnderlyingBlock",
          "type": "uint256"
        },
        {
          "indexed": false,
          "internalType": "uint256",
          "name": "lastUnderlyingTimestamp",
          "type": "uint256"
        },
        {
          "indexed": false,
          "internalType": "string",
          "name": "paymentAddress",
          "type": "string"
        },
        {
          "indexed": false,
          "internalType": "bytes32",
          "name": "paymentReference",
          "type": "bytes32"
        },
        {
          "indexed": false,
          "internalType": "address",
          "name": "executor",
          "type": "address"
        },
        {
          "indexed": false,
          "internalType": "uint256",
          "name": "executorFeeNatWei",
          "type": "uint256"
        }
      ],
      "name": "CollateralReserved",
      "type": "event"
    },
    {
      "anonymous": false,
      "inputs": [
        {
          "indexed": false,
          "internalType": "uint8",
          "name": "collateralClass",
          "type": "uint8"
        },
        {
          "indexed": false,
          "internalType": "address",
          "name": "token",
          "type": "address"
        },
        {
          "indexed": false,
          "internalType": "uint256",
          "name": "decimals",
          "type": "uint256"
        },
        {
          "indexed": false,
          "internalType": "bool",
          "name": "directPricePair",
          "type": "bool"
        },
        {
          "indexed": false,
          "internalType": "string",
          "name": "assetFtsoSymbol",
          "type": "string"
        },
        {
          "indexed": false,
          "internalType": "string",
          "name": "tokenFtsoSymbol",
          "type": "string"
        },
        {
          "indexed": false,
          "internalType": "uint256",
          "name": "minCollateralRatioBIPS",
          "type": "uint256"
        },
        {
          "indexed": false,
          "internalType": "uint256",
          "name": "ccbMinCollateralRatioBIPS",
          "type": "uint256"
        },
        {
          "indexed": false,
          "internalType": "uint256",
          "name": "safetyMinCollateralRatioBIPS",
          "type": "uint256"
        }
      ],
      "name": "CollateralTypeAdded",
      "type": "event"
    },
    {
      "anonymous": false,
      "inputs": [
        {
          "indexed": false,
          "internalType": "uint8",
          "name": "collateralClass",
          "type": "uint8"
        },
        {
          "indexed": false,
          "internalType": "address",
          "name": "collateralToken",
          "type": "address"
        },
        {
          "indexed": false,
          "internalType": "uint256",
          "name": "validUntil",
          "type": "uint256"
        }
      ],
      "name": "CollateralTypeDeprecated",
      "type": "event"
    },
    {
      "anonymous": false,
      "inputs": [
        {
          "indexed": false,
          "internalType": "string",
          "name": "name",
          "type": "string"
        },
        {
          "indexed": false,
          "internalType": "address",
          "name": "value",
          "type": "address"
        }
      ],
      "name": "ContractChanged",
      "type": "event"
    },
    {
      "anonymous": false,
      "inputs": [
        {
          "indexed": false,
          "internalType": "uint256",
          "name": "underlyingBlockNumber",
          "type": "uint256"
        },
        {
          "indexed": false,
          "internalType": "uint256",
          "name": "underlyingBlockTimestamp",
          "type": "uint256"
        },
        {
          "indexed": false,
          "internalType": "uint256",
          "name": "updatedAt",
          "type": "uint256"
        }
      ],
      "name": "CurrentUnderlyingBlockUpdated",
      "type": "event"
    },
    {
      "anonymous": false,
      "inputs": [
        {
          "indexed": true,
          "internalType": "address",
          "name": "agentVault",
          "type": "address"
        },
        {
          "indexed": false,
          "internalType": "bytes32",
          "name": "transactionHash1",
          "type": "bytes32"
        },
        {
          "indexed": false,
          "internalType": "bytes32",
          "name": "transactionHash2",
          "type": "bytes32"
        }
      ],
      "name": "DuplicatePaymentConfirmed",
      "type": "event"
    },
    {
      "anonymous": false,
      "inputs": [
        {
          "indexed": true,
          "internalType": "address",
          "name": "agentVault",
          "type": "address"
        },
        {
          "indexed": false,
          "internalType": "uint256",
          "name": "dustUBA",
          "type": "uint256"
        }
      ],
      "name": "DustChanged",
      "type": "event"
    },
    {
      "anonymous": false,
      "inputs": [],
      "name": "EmergencyPauseCanceled",
      "type": "event"
    },
    {
      "anonymous": false,
      "inputs": [],
      "name": "EmergencyPauseTransfersCanceled",
      "type": "event"
    },
    {
      "anonymous": false,
      "inputs": [
        {
          "indexed": false,
          "internalType": "uint256",
          "name": "pausedUntil",
          "type": "uint256"
        }
      ],
      "name": "EmergencyPauseTransfersTriggered",
      "type": "event"
    },
    {
      "anonymous": false,
      "inputs": [
        {
          "indexed": false,
          "internalType": "uint256",
          "name": "pausedUntil",
          "type": "uint256"
        }
      ],
      "name": "EmergencyPauseTriggered",
      "type": "event"
    },
    {
      "anonymous": false,
      "inputs": [
        {
          "indexed": true,
          "internalType": "address",
          "name": "agentVault",
          "type": "address"
        },
        {
          "indexed": false,
          "internalType": "uint256",
          "name": "timestamp",
          "type": "uint256"
        }
      ],
      "name": "FullLiquidationStarted",
      "type": "event"
    },
    {
      "anonymous": false,
      "inputs": [
        {
          "indexed": true,
          "internalType": "address",
          "name": "agentVault",
          "type": "address"
        },
        {
          "indexed": false,
          "internalType": "bytes32",
          "name": "transactionHash",
          "type": "bytes32"
        }
      ],
      "name": "IllegalPaymentConfirmed",
      "type": "event"
    },
    {
      "anonymous": false,
      "inputs": [
        {
          "indexed": true,
          "internalType": "address",
          "name": "agentVault",
          "type": "address"
        }
      ],
      "name": "LiquidationEnded",
      "type": "event"
    },
    {
      "anonymous": false,
      "inputs": [
        {
          "indexed": true,
          "internalType": "address",
          "name": "agentVault",
          "type": "address"
        },
        {
          "indexed": true,
          "internalType": "address",
          "name": "liquidator",
          "type": "address"
        },
        {
          "indexed": false,
          "internalType": "uint256",
          "name": "valueUBA",
          "type": "uint256"
        },
        {
          "indexed": false,
          "internalType": "uint256",
          "name": "paidVaultCollateralWei",
          "type": "uint256"
        },
        {
          "indexed": false,
          "internalType": "uint256",
          "name": "paidPoolCollateralWei",
          "type": "uint256"
        }
      ],
      "name": "LiquidationPerformed",
      "type": "event"
    },
    {
      "anonymous": false,
      "inputs": [
        {
          "indexed": true,
          "internalType": "address",
          "name": "agentVault",
          "type": "address"
        },
        {
          "indexed": false,
          "internalType": "uint256",
          "name": "timestamp",
          "type": "uint256"
        }
      ],
      "name": "LiquidationStarted",
      "type": "event"
    },
    {
      "anonymous": false,
      "inputs": [
        {
          "indexed": true,
          "internalType": "address",
          "name": "agentVault",
          "type": "address"
        },
        {
          "indexed": true,
          "internalType": "uint256",
          "name": "collateralReservationId",
          "type": "uint256"
        },
        {
          "indexed": false,
          "internalType": "uint256",
          "name": "mintedAmountUBA",
          "type": "uint256"
        },
        {
          "indexed": false,
          "internalType": "uint256",
          "name": "agentFeeUBA",
          "type": "uint256"
        },
        {
          "indexed": false,
          "internalType": "uint256",
          "name": "poolFeeUBA",
          "type": "uint256"
        }
      ],
      "name": "MintingExecuted",
      "type": "event"
    },
    {
      "anonymous": false,
      "inputs": [
        {
          "indexed": true,
          "internalType": "address",
          "name": "agentVault",
          "type": "address"
        },
        {
          "indexed": true,
          "internalType": "address",
          "name": "minter",
          "type": "address"
        },
        {
          "indexed": true,
          "internalType": "uint256",
          "name": "collateralReservationId",
          "type": "uint256"
        },
        {
          "indexed": false,
          "internalType": "uint256",
          "name": "reservedAmountUBA",
          "type": "uint256"
        }
      ],
      "name": "MintingPaymentDefault",
      "type": "event"
    },
    {
      "anonymous": false,
      "inputs": [
        {
          "indexed": true,
          "internalType": "address",
          "name": "agentVault",
          "type": "address"
        },
        {
          "indexed": false,
          "internalType": "uint256",
          "name": "amountWei",
          "type": "uint256"
        },
        {
          "indexed": false,
          "internalType": "uint256",
          "name": "withdrawalAllowedAt",
          "type": "uint256"
        }
      ],
      "name": "PoolTokenRedemptionAnnounced",
      "type": "event"
    },
    {
      "anonymous": false,
      "inputs": [
        {
          "indexed": true,
          "internalType": "address",
          "name": "agentVault",
          "type": "address"
        },
        {
          "indexed": true,
          "internalType": "address",
          "name": "redeemer",
          "type": "address"
        },
        {
          "indexed": false,
          "internalType": "uint256",
          "name": "redemptionAmountUBA",
          "type": "uint256"
        },
        {
          "indexed": false,
          "internalType": "uint256",
          "name": "paidVaultCollateralWei",
          "type": "uint256"
        }
      ],
      "name": "RedeemedInCollateral",
      "type": "event"
    },
    {
      "anonymous": false,
      "inputs": [
        {
          "indexed": true,
          "internalType": "address",
          "name": "agentVault",
          "type": "address"
        },
        {
          "indexed": true,
          "internalType": "address",
          "name": "redeemer",
          "type": "address"
        },
        {
          "indexed": true,
          "internalType": "uint256",
          "name": "requestId",
          "type": "uint256"
        },
        {
          "indexed": false,
          "internalType": "uint256",
          "name": "redemptionAmountUBA",
          "type": "uint256"
        },
        {
          "indexed": false,
          "internalType": "uint256",
          "name": "redeemedVaultCollateralWei",
          "type": "uint256"
        },
        {
          "indexed": false,
          "internalType": "uint256",
          "name": "redeemedPoolCollateralWei",
          "type": "uint256"
        }
      ],
      "name": "RedemptionDefault",
      "type": "event"
    },
    {
      "anonymous": false,
      "inputs": [
        {
          "indexed": true,
          "internalType": "address",
          "name": "agentVault",
          "type": "address"
        },
        {
          "indexed": true,
          "internalType": "address",
          "name": "redeemer",
          "type": "address"
        },
        {
          "indexed": true,
          "internalType": "uint256",
          "name": "requestId",
          "type": "uint256"
        },
        {
          "indexed": false,
          "internalType": "bytes32",
          "name": "transactionHash",
          "type": "bytes32"
        },
        {
          "indexed": false,
          "internalType": "uint256",
          "name": "redemptionAmountUBA",
          "type": "uint256"
        },
        {
          "indexed": false,
          "internalType": "int256",
          "name": "spentUnderlyingUBA",
          "type": "int256"
        }
      ],
      "name": "RedemptionPaymentBlocked",
      "type": "event"
    },
    {
      "anonymous": false,
      "inputs": [
        {
          "indexed": true,
          "internalType": "address",
          "name": "agentVault",
          "type": "address"
        },
        {
          "indexed": true,
          "internalType": "address",
          "name": "redeemer",
          "type": "address"
        },
        {
          "indexed": true,
          "internalType": "uint256",
          "name": "requestId",
          "type": "uint256"
        },
        {
          "indexed": false,
          "internalType": "bytes32",
          "name": "transactionHash",
          "type": "bytes32"
        },
        {
          "indexed": false,
          "internalType": "int256",
          "name": "spentUnderlyingUBA",
          "type": "int256"
        },
        {
          "indexed": false,
          "internalType": "string",
          "name": "failureReason",
          "type": "string"
        }
      ],
      "name": "RedemptionPaymentFailed",
      "type": "event"
    },
    {
      "anonymous": false,
      "inputs": [
        {
          "indexed": true,
          "internalType": "address",
          "name": "agentVault",
          "type": "address"
        },
        {
          "indexed": true,
          "internalType": "address",
          "name": "redeemer",
          "type": "address"
        },
        {
          "indexed": true,
          "internalType": "uint256",
          "name": "requestId",
          "type": "uint256"
        },
        {
          "indexed": false,
          "internalType": "bytes32",
          "name": "transactionHash",
          "type": "bytes32"
        },
        {
          "indexed": false,
          "internalType": "uint256",
          "name": "redemptionAmountUBA",
          "type": "uint256"
        },
        {
          "indexed": false,
          "internalType": "int256",
          "name": "spentUnderlyingUBA",
          "type": "int256"
        }
      ],
      "name": "RedemptionPerformed",
      "type": "event"
    },
    {
      "anonymous": false,
      "inputs": [
        {
          "indexed": true,
          "internalType": "address",
          "name": "agentVault",
          "type": "address"
        },
        {
          "indexed": true,
          "internalType": "uint256",
          "name": "requestId",
          "type": "uint256"
        },
        {
          "indexed": false,
          "internalType": "uint256",
          "name": "poolFeeUBA",
          "type": "uint256"
        }
      ],
      "name": "RedemptionPoolFeeMinted",
      "type": "event"
    },
    {
      "anonymous": false,
      "inputs": [
        {
          "indexed": true,
          "internalType": "address",
          "name": "agentVault",
          "type": "address"
        },
        {
          "indexed": true,
          "internalType": "address",
          "name": "redeemer",
          "type": "address"
        },
        {
          "indexed": true,
          "internalType": "uint256",
          "name": "requestId",
          "type": "uint256"
        },
        {
          "indexed": false,
          "internalType": "uint256",
          "name": "redemptionAmountUBA",
          "type": "uint256"
        }
      ],
      "name": "RedemptionRejected",
      "type": "event"
    },
    {
      "anonymous": false,
      "inputs": [
        {
          "indexed": true,
          "internalType": "address",
          "name": "redeemer",
          "type": "address"
        },
        {
          "indexed": false,
          "internalType": "uint256",
          "name": "remainingLots",
          "type": "uint256"
        }
      ],
      "name": "RedemptionRequestIncomplete",
      "type": "event"
    },
    {
      "anonymous": false,
      "inputs": [
        {
          "indexed": true,
          "internalType": "address",
          "name": "agentVault",
          "type": "address"
        },
        {
          "indexed": true,
          "internalType": "address",
          "name": "redeemer",
          "type": "address"
        },
        {
          "indexed": true,
          "internalType": "uint256",
          "name": "requestId",
          "type": "uint256"
        },
        {
          "indexed": false,
          "internalType": "string",
          "name": "paymentAddress",
          "type": "string"
        },
        {
          "indexed": false,
          "internalType": "uint256",
          "name": "valueUBA",
          "type": "uint256"
        },
        {
          "indexed": false,
          "internalType": "uint256",
          "name": "feeUBA",
          "type": "uint256"
        },
        {
          "indexed": false,
          "internalType": "uint256",
          "name": "firstUnderlyingBlock",
          "type": "uint256"
        },
        {
          "indexed": false,
          "internalType": "uint256",
          "name": "lastUnderlyingBlock",
          "type": "uint256"
        },
        {
          "indexed": false,
          "internalType": "uint256",
          "name": "lastUnderlyingTimestamp",
          "type": "uint256"
        },
        {
          "indexed": false,
          "internalType": "bytes32",
          "name": "paymentReference",
          "type": "bytes32"
        },
        {
          "indexed": false,
          "internalType": "address",
          "name": "executor",
          "type": "address"
        },
        {
          "indexed": false,
          "internalType": "uint256",
          "name": "executorFeeNatWei",
          "type": "uint256"
        }
      ],
      "name": "RedemptionRequested",
      "type": "event"
    },
    {
      "anonymous": false,
      "inputs": [
        {
          "indexed": true,
          "internalType": "address",
          "name": "agentVault",
          "type": "address"
        },
        {
          "indexed": true,
          "internalType": "uint256",
          "name": "redemptionTicketId",
          "type": "uint256"
        },
        {
          "indexed": false,
          "internalType": "uint256",
          "name": "ticketValueUBA",
          "type": "uint256"
        }
      ],
      "name": "RedemptionTicketCreated",
      "type": "event"
    },
    {
      "anonymous": false,
      "inputs": [
        {
          "indexed": true,
          "internalType": "address",
          "name": "agentVault",
          "type": "address"
        },
        {
          "indexed": true,
          "internalType": "uint256",
          "name": "redemptionTicketId",
          "type": "uint256"
        }
      ],
      "name": "RedemptionTicketDeleted",
      "type": "event"
    },
    {
      "anonymous": false,
      "inputs": [
        {
          "indexed": true,
          "internalType": "address",
          "name": "agentVault",
          "type": "address"
        },
        {
          "indexed": true,
          "internalType": "uint256",
          "name": "redemptionTicketId",
          "type": "uint256"
        },
        {
          "indexed": false,
          "internalType": "uint256",
          "name": "ticketValueUBA",
          "type": "uint256"
        }
      ],
      "name": "RedemptionTicketUpdated",
      "type": "event"
    },
    {
      "anonymous": false,
      "inputs": [
        {
          "indexed": true,
          "internalType": "address",
          "name": "agentVault",
          "type": "address"
        },
        {
          "indexed": false,
          "internalType": "uint256",
          "name": "valueUBA",
          "type": "uint256"
        }
      ],
      "name": "SelfClose",
      "type": "event"
    },
    {
      "anonymous": false,
      "inputs": [
        {
          "indexed": true,
          "internalType": "address",
          "name": "agentVault",
          "type": "address"
        },
        {
          "indexed": false,
          "internalType": "bool",
          "name": "mintFromFreeUnderlying",
          "type": "bool"
        },
        {
          "indexed": false,
          "internalType": "uint256",
          "name": "mintedAmountUBA",
          "type": "uint256"
        },
        {
          "indexed": false,
          "internalType": "uint256",
          "name": "depositedAmountUBA",
          "type": "uint256"
        },
        {
          "indexed": false,
          "internalType": "uint256",
          "name": "poolFeeUBA",
          "type": "uint256"
        }
      ],
      "name": "SelfMint",
      "type": "event"
    },
    {
      "anonymous": false,
      "inputs": [
        {
          "indexed": false,
          "internalType": "string",
          "name": "name",
          "type": "string"
        },
        {
          "indexed": false,
          "internalType": "uint256[]",
          "name": "value",
          "type": "uint256[]"
        }
      ],
      "name": "SettingArrayChanged",
      "type": "event"
    },
    {
      "anonymous": false,
      "inputs": [
        {
          "indexed": false,
          "internalType": "string",
          "name": "name",
          "type": "string"
        },
        {
          "indexed": false,
          "internalType": "uint256",
          "name": "value",
          "type": "uint256"
        }
      ],
      "name": "SettingChanged",
      "type": "event"
    },
    {
      "anonymous": false,
      "inputs": [
        {
          "indexed": true,
          "internalType": "address",
          "name": "agentVault",
          "type": "address"
        },
        {
          "indexed": false,
          "internalType": "int256",
          "name": "underlyingBalanceUBA",
          "type": "int256"
        }
      ],
      "name": "UnderlyingBalanceChanged",
      "type": "event"
    },
    {
      "anonymous": false,
      "inputs": [
        {
          "indexed": true,
          "internalType": "address",
          "name": "agentVault",
          "type": "address"
        },
        {
          "indexed": false,
          "internalType": "int256",
          "name": "balance",
          "type": "int256"
        },
        {
          "indexed": false,
          "internalType": "uint256",
          "name": "requiredBalance",
          "type": "uint256"
        }
      ],
      "name": "UnderlyingBalanceTooLow",
      "type": "event"
    },
    {
      "anonymous": false,
      "inputs": [
        {
          "indexed": true,
          "internalType": "address",
          "name": "agentVault",
          "type": "address"
        },
        {
          "indexed": false,
          "internalType": "bytes32",
          "name": "transactionHash",
          "type": "bytes32"
        },
        {
          "indexed": false,
          "internalType": "uint256",
          "name": "depositedUBA",
          "type": "uint256"
        }
      ],
      "name": "UnderlyingBalanceToppedUp",
      "type": "event"
    },
    {
      "anonymous": false,
      "inputs": [
        {
          "indexed": true,
          "internalType": "address",
          "name": "agentVault",
          "type": "address"
        },
        {
          "indexed": true,
          "internalType": "uint256",
          "name": "announcementId",
          "type": "uint256"
        },
        {
          "indexed": false,
          "internalType": "bytes32",
          "name": "paymentReference",
          "type": "bytes32"
        }
      ],
      "name": "UnderlyingWithdrawalAnnounced",
      "type": "event"
    },
    {
      "anonymous": false,
      "inputs": [
        {
          "indexed": true,
          "internalType": "address",
          "name": "agentVault",
          "type": "address"
        },
        {
          "indexed": true,
          "internalType": "uint256",
          "name": "announcementId",
          "type": "uint256"
        }
      ],
      "name": "UnderlyingWithdrawalCancelled",
      "type": "event"
    },
    {
      "anonymous": false,
      "inputs": [
        {
          "indexed": true,
          "internalType": "address",
          "name": "agentVault",
          "type": "address"
        },
        {
          "indexed": true,
          "internalType": "uint256",
          "name": "announcementId",
          "type": "uint256"
        },
        {
          "indexed": false,
          "internalType": "int256",
          "name": "spentUBA",
          "type": "int256"
        },
        {
          "indexed": false,
          "internalType": "bytes32",
          "name": "transactionHash",
          "type": "bytes32"
        }
      ],
      "name": "UnderlyingWithdrawalConfirmed",
      "type": "event"
    },
    {
      "anonymous": false,
      "inputs": [
        {
          "indexed": true,
          "internalType": "address",
          "name": "agentVault",
          "type": "address"
        },
        {
          "indexed": false,
          "internalType": "uint256",
          "name": "amountWei",
          "type": "uint256"
        },
        {
          "indexed": false,
          "internalType": "uint256",
          "name": "withdrawalAllowedAt",
          "type": "uint256"
        }
      ],
      "name": "VaultCollateralWithdrawalAnnounced",
      "type": "event"
    },
    {
      "inputs": [
        {
          "internalType": "uint256",
          "name": "_value",
          "type": "uint256"
        }
      ],
      "name": "setAgentExitAvailableTimelockSeconds",
      "outputs": [],
      "stateMutability": "nonpayable",
      "type": "function"
    },
    {
      "inputs": [
        {
          "internalType": "uint256",
          "name": "_value",
          "type": "uint256"
        }
      ],
      "name": "setAgentFeeChangeTimelockSeconds",
      "outputs": [],
      "stateMutability": "nonpayable",
      "type": "function"
    },
    {
      "inputs": [
        {
          "internalType": "uint256",
          "name": "_value",
          "type": "uint256"
        }
      ],
      "name": "setAgentMintingCRChangeTimelockSeconds",
      "outputs": [],
      "stateMutability": "nonpayable",
      "type": "function"
    },
    {
      "inputs": [
        {
          "internalType": "address",
          "name": "_value",
          "type": "address"
        }
      ],
      "name": "setAgentOwnerRegistry",
      "outputs": [],
      "stateMutability": "nonpayable",
      "type": "function"
    },
    {
      "inputs": [
        {
          "internalType": "uint256",
          "name": "_value",
          "type": "uint256"
        }
      ],
      "name": "setAgentTimelockedOperationWindowSeconds",
      "outputs": [],
      "stateMutability": "nonpayable",
      "type": "function"
    },
    {
      "inputs": [
        {
          "internalType": "address",
          "name": "_value",
          "type": "address"
        }
      ],
      "name": "setAgentVaultFactory",
      "outputs": [],
      "stateMutability": "nonpayable",
      "type": "function"
    },
    {
      "inputs": [
        {
          "internalType": "uint256",
          "name": "_value",
          "type": "uint256"
        }
      ],
      "name": "setAnnouncedUnderlyingConfirmationMinSeconds",
      "outputs": [],
      "stateMutability": "nonpayable",
      "type": "function"
    },
    {
      "inputs": [
        {
          "internalType": "uint256",
          "name": "_value",
          "type": "uint256"
        }
      ],
      "name": "setAttestationWindowSeconds",
      "outputs": [],
      "stateMutability": "nonpayable",
      "type": "function"
    },
    {
      "inputs": [
        {
          "internalType": "uint256",
          "name": "_value",
          "type": "uint256"
        }
      ],
      "name": "setAverageBlockTimeMS",
      "outputs": [],
      "stateMutability": "nonpayable",
      "type": "function"
    },
    {
      "inputs": [
        {
          "internalType": "uint256",
          "name": "_value",
          "type": "uint256"
        }
      ],
      "name": "setCcbTimeSeconds",
      "outputs": [],
      "stateMutability": "nonpayable",
      "type": "function"
    },
    {
      "inputs": [
        {
          "internalType": "address",
          "name": "_value",
          "type": "address"
        }
      ],
      "name": "setCleanerContract",
      "outputs": [],
      "stateMutability": "nonpayable",
      "type": "function"
    },
    {
      "inputs": [
        {
          "internalType": "address",
          "name": "_value",
          "type": "address"
        }
      ],
      "name": "setCleanupBlockNumberManager",
      "outputs": [],
      "stateMutability": "nonpayable",
      "type": "function"
    },
    {
      "inputs": [
        {
          "internalType": "address",
          "name": "_value",
          "type": "address"
        }
      ],
      "name": "setCollateralPoolFactory",
      "outputs": [],
      "stateMutability": "nonpayable",
      "type": "function"
    },
    {
      "inputs": [
        {
          "internalType": "address",
          "name": "_value",
          "type": "address"
        }
      ],
      "name": "setCollateralPoolTokenFactory",
      "outputs": [],
      "stateMutability": "nonpayable",
      "type": "function"
    },
    {
      "inputs": [
        {
          "internalType": "uint256",
          "name": "_value",
          "type": "uint256"
        }
      ],
      "name": "setCollateralPoolTokenTimelockSeconds",
      "outputs": [],
      "stateMutability": "nonpayable",
      "type": "function"
    },
    {
      "inputs": [
        {
          "internalType": "uint256",
          "name": "_value",
          "type": "uint256"
        }
      ],
      "name": "setCollateralReservationFeeBips",
      "outputs": [],
      "stateMutability": "nonpayable",
      "type": "function"
    },
    {
      "inputs": [
        {
          "internalType": "uint256",
          "name": "_value",
          "type": "uint256"
        }
      ],
      "name": "setConfirmationByOthersAfterSeconds",
      "outputs": [],
      "stateMutability": "nonpayable",
      "type": "function"
    },
    {
      "inputs": [
        {
          "internalType": "uint256",
          "name": "_value",
          "type": "uint256"
        }
      ],
      "name": "setConfirmationByOthersRewardUSD5",
      "outputs": [],
      "stateMutability": "nonpayable",
      "type": "function"
    },
    {
      "inputs": [
        {
          "internalType": "uint256",
          "name": "_value",
          "type": "uint256"
        }
      ],
      "name": "setEmergencyPauseDurationResetAfterSeconds",
      "outputs": [],
      "stateMutability": "nonpayable",
      "type": "function"
    },
    {
      "inputs": [
        {
          "internalType": "address",
          "name": "_value",
          "type": "address"
        }
      ],
      "name": "setFdcVerification",
      "outputs": [],
      "stateMutability": "nonpayable",
      "type": "function"
    },
    {
      "inputs": [
        {
          "internalType": "uint256[]",
          "name": "_liquidationFactors",
          "type": "uint256[]"
        },
        {
          "internalType": "uint256[]",
          "name": "_vaultCollateralFactors",
          "type": "uint256[]"
        }
      ],
      "name": "setLiquidationPaymentFactors",
      "outputs": [],
      "stateMutability": "nonpayable",
      "type": "function"
    },
    {
      "inputs": [
        {
          "internalType": "uint256",
          "name": "_stepSeconds",
          "type": "uint256"
        }
      ],
      "name": "setLiquidationStepSeconds",
      "outputs": [],
      "stateMutability": "nonpayable",
      "type": "function"
    },
    {
      "inputs": [
        {
          "internalType": "uint256",
          "name": "_value",
          "type": "uint256"
        }
      ],
      "name": "setLotSizeAmg",
      "outputs": [],
      "stateMutability": "nonpayable",
      "type": "function"
    },
    {
      "inputs": [
        {
          "internalType": "uint256",
          "name": "_value",
          "type": "uint256"
        }
      ],
      "name": "setMaxEmergencyPauseDurationSeconds",
      "outputs": [],
      "stateMutability": "nonpayable",
      "type": "function"
    },
    {
      "inputs": [
        {
          "internalType": "uint256",
          "name": "_value",
          "type": "uint256"
        }
      ],
      "name": "setMaxRedeemedTickets",
      "outputs": [],
      "stateMutability": "nonpayable",
      "type": "function"
    },
    {
      "inputs": [
        {
          "internalType": "uint256",
          "name": "_value",
          "type": "uint256"
        }
      ],
      "name": "setMaxTrustedPriceAgeSeconds",
      "outputs": [],
      "stateMutability": "nonpayable",
      "type": "function"
    },
    {
      "inputs": [
        {
          "internalType": "uint256",
          "name": "_value",
          "type": "uint256"
        }
      ],
      "name": "setMinUpdateRepeatTimeSeconds",
      "outputs": [],
      "stateMutability": "nonpayable",
      "type": "function"
    },
    {
      "inputs": [
        {
          "internalType": "uint256",
          "name": "_value",
          "type": "uint256"
        }
      ],
      "name": "setMintingCapAmg",
      "outputs": [],
      "stateMutability": "nonpayable",
      "type": "function"
    },
    {
      "inputs": [
        {
          "internalType": "uint256",
          "name": "_value",
          "type": "uint256"
        }
      ],
      "name": "setMintingPoolHoldingsRequiredBIPS",
      "outputs": [],
      "stateMutability": "nonpayable",
      "type": "function"
    },
    {
      "inputs": [
        {
          "internalType": "uint256",
          "name": "_rewardNATWei",
          "type": "uint256"
        },
        {
          "internalType": "uint256",
          "name": "_rewardBIPS",
          "type": "uint256"
        }
      ],
      "name": "setPaymentChallengeReward",
      "outputs": [],
      "stateMutability": "nonpayable",
      "type": "function"
    },
    {
      "inputs": [
        {
          "internalType": "uint256",
          "name": "_value",
          "type": "uint256"
        }
      ],
      "name": "setPoolExitCRChangeTimelockSeconds",
      "outputs": [],
      "stateMutability": "nonpayable",
      "type": "function"
    },
    {
      "inputs": [
        {
          "internalType": "address",
          "name": "_value",
          "type": "address"
        }
      ],
      "name": "setPriceReader",
      "outputs": [],
      "stateMutability": "nonpayable",
      "type": "function"
    },
    {
      "inputs": [
        {
          "internalType": "uint256",
          "name": "_value",
          "type": "uint256"
        }
      ],
      "name": "setRedemptionDefaultFactorVaultCollateralBIPS",
      "outputs": [],
      "stateMutability": "nonpayable",
      "type": "function"
    },
    {
      "inputs": [
        {
          "internalType": "uint256",
          "name": "_value",
          "type": "uint256"
        }
      ],
      "name": "setRedemptionFeeBips",
      "outputs": [],
      "stateMutability": "nonpayable",
      "type": "function"
    },
    {
      "inputs": [
        {
          "internalType": "uint256",
          "name": "_underlyingBlocks",
          "type": "uint256"
        },
        {
          "internalType": "uint256",
          "name": "_underlyingSeconds",
          "type": "uint256"
        }
      ],
      "name": "setTimeForPayment",
      "outputs": [],
      "stateMutability": "nonpayable",
      "type": "function"
    },
    {
      "inputs": [
        {
          "internalType": "uint256",
          "name": "_value",
          "type": "uint256"
        }
      ],
      "name": "setTokenInvalidationTimeMinSeconds",
      "outputs": [],
      "stateMutability": "nonpayable",
      "type": "function"
    },
    {
      "inputs": [
        {
          "internalType": "uint256",
          "name": "_value",
          "type": "uint256"
        }
      ],
      "name": "setVaultCollateralBuyForFlareFactorBIPS",
      "outputs": [],
      "stateMutability": "nonpayable",
      "type": "function"
    },
    {
      "inputs": [
        {
          "internalType": "address",
          "name": "_value",
          "type": "address"
        }
      ],
      "name": "setWhitelist",
      "outputs": [],
      "stateMutability": "nonpayable",
      "type": "function"
    },
    {
      "inputs": [
        {
          "internalType": "uint256",
          "name": "_value",
          "type": "uint256"
        }
      ],
      "name": "setWithdrawalOrDestroyWaitMinSeconds",
      "outputs": [],
      "stateMutability": "nonpayable",
      "type": "function"
    },
    {
      "inputs": [
        {
          "internalType": "address",
          "name": "_controller",
          "type": "address"
        },
        {
          "internalType": "contract IWNat",
          "name": "_wNat",
          "type": "address"
        }
      ],
      "name": "updateSystemContracts",
      "outputs": [],
      "stateMutability": "nonpayable",
      "type": "function"
    },
    {
      "inputs": [
        {
          "internalType": "address",
          "name": "_value",
          "type": "address"
        },
        {
          "internalType": "bytes",
          "name": "callData",
          "type": "bytes"
        }
      ],
      "name": "upgradeFAssetImplementation",
      "outputs": [],
      "stateMutability": "nonpayable",
      "type": "function"
    }
  ],
  "bytecode": "0x6080604052348015600f57600080fd5b50614bb88061001f6000396000f3fe608060405234801561001057600080fd5b50600436106102535760003560e01c80638d94510a11610146578063d57d25c5116100c3578063e443147f11610087578063e443147f146104f3578063e68f3fbf14610506578063ec516d2414610519578063ec7430a41461052c578063f6a494af1461053f578063f9b9b4461461055257600080fd5b8063d57d25c514610494578063db8617d6146104a7578063dd64bd04146104ba578063df06ea96146104cd578063dfc59417146104e057600080fd5b8063b2e6a2b51161010a578063b2e6a2b514610435578063be06971914610448578063cda4c5411461045b578063cfcb991d1461046e578063d07433951461048157600080fd5b80638d94510a146103d65780639db27f55146103e95780639e193242146103fc578063ad74c72d1461040f578063af5f2b981461042257600080fd5b80636a598609116101d45780637800a11f116101985780637800a11f146103775780637b6fa7621461038a5780637f4fcaa91461039d578063812e7d2e146103b0578063854cff2f146103c357600080fd5b80636a598609146103185780636ad6fb4f1461032b5780636b38c6431461033e5780636dd3d589146103515780636df310d61461036457600080fd5b8063568ae58e1161021b578063568ae58e146102b95780635ac5c11e146102cc5780636075765d146102df57806368f224ba146102f257806369b89e7e1461030557600080fd5b8063050f44391461025857806313d6a5e21461026d5780632779aaaa146102805780632c06abf01461029357806347814c06146102a6575b600080fd5b61026b610266366004614223565b610565565b005b61026b61027b366004614251565b610615565b61026b61028e366004614223565b6106ca565b61026b6102a1366004614223565b6107b8565b61026b6102b4366004614223565b6108c2565b61026b6102c7366004614223565b6109f1565b61026b6102da366004614223565b610b45565b61026b6102ed36600461426e565b610cc7565b61026b6103003660046142a7565b610df8565b61026b6103133660046142a7565b61103d565b61026b61032636600461430f565b6111b8565b61026b610339366004614223565b611308565b61026b61034c366004614223565b6113ca565b61026b61035f366004614251565b61149a565b61026b610372366004614223565b61154a565b61026b610385366004614223565b6116ac565b61026b610398366004614223565b611821565b61026b6103ab366004614251565b611929565b61026b6103be366004614223565b611a00565b61026b6103d1366004614251565b611ad2565b61026b6103e4366004614223565b611b51565b61026b6103f7366004614223565b611ca4565b61026b61040a366004614223565b611e1a565b61026b61041d366004614223565b611fa4565b61026b610430366004614223565b612090565b61026b610443366004614223565b61229e565b61026b610456366004614251565b612368565b61026b610469366004614251565b61240e565b61026b61047c366004614223565b6124bb565b61026b61048f366004614223565b6125dd565b61026b6104a2366004614223565b61271c565b61026b6104b5366004614223565b6127e4565b61026b6104c8366004614223565b6128e5565b61026b6104db366004614251565b6129f6565b61026b6104ee366004614223565b612aae565b61026b610501366004614251565b612ba6565b61026b610514366004614223565b612c50565b61026b61052736600461443c565b612d63565b61026b61053a366004614223565b612e9c565b61026b61054d366004614251565b612f9a565b61026b610560366004614223565b613063565b61056d613194565b6105756131fd565b600061057f613214565b905061058a82613238565b6012820180546001600160401b0392909216600160401b0267ffffffffffffffff60401b1990921691909117905560408051818152601f918101919091527f746f6b656e496e76616c69646174696f6e54696d654d696e5365636f6e647300606082015260208101839052600080516020614b63833981519152906080015b60405180910390a15050565b61061d613194565b6106256131fd565b600061062f613214565b90506001600160a01b0382166106605760405162461bcd60e51b8152600401610657906144a3565b60405180910390fd5b6002810180546001600160a01b0319166001600160a01b03841690811790915560408051818152601191810191909152706167656e745661756c74466163746f727960781b60608201526020810191909152600080516020614b4383398151915290608001610609565b6106d2613194565b6106da6131fd565b60006106e4613214565b90506201518082101561072c5760405162461bcd60e51b815260206004820152601060248201526f1dda5b991bddc81d1bdbc81cdb585b1b60821b6044820152606401610657565b61073582613238565b6011820180546001600160401b0392909216600160401b0267ffffffffffffffff60401b19909216919091179055604080518181526018918101919091527f6174746573746174696f6e57696e646f775365636f6e64730000000000000000606082015260208101839052600080516020614b6383398151915290608001610609565b6107c0613194565b6107c86131fd565b60006107d2613214565b60138101549091506107f590600160401b90046001600160401b031660046144df565b6108029062015180614508565b6001600160401b031682111561082a5760405162461bcd60e51b815260040161065790614527565b61083382613238565b6013820180546001600160401b0392909216600160401b0267ffffffffffffffff60401b19909216919091179055604080518181526023918101919091527f6167656e744d696e74696e6743524368616e676554696d656c6f636b5365636f6060820152626e647360e81b608082015260208101839052600080516020614b638339815191529060a001610609565b6108ca613194565b6108d26131fd565b60006108dc613214565b9050600082116108fe5760405162461bcd60e51b815260040161065790614551565b600f81015461091990600160801b900461ffff166002614579565b61ffff1682111561093c5760405162461bcd60e51b815260040161065790614527565b600f81015461095890600490600160801b900461ffff166145ac565b61ffff1682101561097b5760405162461bcd60e51b8152600401610657906145d0565b610984826132a4565b600f8201805461ffff92909216600160801b0261ffff60801b1990921691909117905560408051818152601291810191909152716d617852656465656d65645469636b65747360701b606082015260208101839052600080516020614b6383398151915290608001610609565b6109f9613194565b610a016131fd565b6000610a0b613214565b905060008211610a2d5760405162461bcd60e51b815260040161065790614551565b6010810154610a4d90600160c01b90046001600160401b031660026144df565b6001600160401b0316821115610a755760405162461bcd60e51b8152600401610657906145fa565b6010810154610a9690600290600160c01b90046001600160401b0316614628565b6001600160401b0316821015610abe5760405162461bcd60e51b815260040161065790614656565b610ac782613238565b6010820180546001600160401b0392909216600160c01b026001600160c01b03909216919091179055604080518181526019918101919091527f6d61785472757374656450726963654167655365636f6e647300000000000000606082015260208101839052600080516020614b6383398151915290608001610609565b610b4d613194565b610b556131fd565b6000610b5f613214565b905060008211610b815760405162461bcd60e51b815260040161065790614551565b612710821115610bc95760405162461bcd60e51b81526020600482015260136024820152720c4d2e0e640ecc2d8eaca40e8dede40d0d2ced606b1b6044820152606401610657565b600c810154610be490600160401b900461ffff166004614579565b61ffff16821115610c075760405162461bcd60e51b8152600401610657906145fa565b600c810154610c2390600490600160401b900461ffff166145ac565b61ffff16821015610c465760405162461bcd60e51b815260040161065790614656565b610c4f826132a4565b600c8201805461ffff92909216600160401b0261ffff60401b1990921691909117905560408051818152601c918101919091527f636f6c6c61746572616c5265736572766174696f6e4665654249505300000000606082015260208101839052600080516020614b6383398151915290608001610609565b610ccf613194565b6000610cd9613214565b80549091506001600160a01b03848116911614610d5a5780546001600160a01b0384166001600160a01b031990911681178255604080518181526016818301527530b9b9b2ba26b0b730b3b2b921b7b73a3937b63632b960511b6060820152602081019290925251600080516020614b438339815191529181900360800190a15b6000610d64613307565b9050826001600160a01b0316816001600160a01b031614610df2576000610d8c600183613374565b600060608201526001600160a01b03851660208201529050610dad8161339d565b60408051818152600481830152631dd3985d60e21b60608201526001600160a01b03861660208201529051600080516020614b438339815191529181900360800190a1505b50505050565b610e00613194565b610e086131fd565b6000610e12613214565b6010810154909150610e2e906001600160801b03166004614684565b610e419068056bc75e2d631000006146a6565b6001600160801b0316831115610e695760405162461bcd60e51b815260040161065790614527565b6010810154610e83906004906001600160801b03166146c5565b6001600160801b0316831015610eab5760405162461bcd60e51b8152600401610657906145d0565b600f810154610ec690600160901b900461ffff166004614579565b610ed19060646146f3565b61ffff16821115610ef45760405162461bcd60e51b815260040161065790614527565b600f810154610f1090600490600160901b900461ffff166145ac565b61ffff16821015610f335760405162461bcd60e51b8152600401610657906145d0565b610f3c836133b7565b6010820180546001600160801b0319166001600160801b0392909216919091179055610f67826132a4565b600f8201805461ffff60901b1916600160901b61ffff939093169290920291909117905560408051818152601a818301527f7061796d656e744368616c6c656e6765526577617264555344350000000000006060820152602081018590529051600080516020614b638339815191529181900360800190a160408051818152601a918101919091527f7061796d656e744368616c6c656e676552657761726442495053000000000000606082015260208101839052600080516020614b63833981519152906080015b60405180910390a1505050565b611045613194565b61104d6131fd565b6000611057613214565b9050600082116110795760405162461bcd60e51b815260040161065790614551565b600083116110995760405162461bcd60e51b815260040161065790614551565b600c8101546110b1908490849063ffffffff16613420565b6110ba83613238565b81600d0160136101000a8154816001600160401b0302191690836001600160401b031602179055506110eb82613238565b600e8201805467ffffffffffffffff19166001600160401b039290921691909117905560408051818152601a818301527f756e6465726c79696e67426c6f636b73466f725061796d656e740000000000006060820152602081018590529051600080516020614b63833981519152916080908290030190a160408051818152601b918101919091527f756e6465726c79696e675365636f6e6473466f725061796d656e740000000000606082015260208101839052600080516020614b6383398151915290608001611030565b6111c0613194565b6111c86131fd565b60006111d26134c3565b90506001600160a01b0383166111fa5760405162461bcd60e51b8152600401610657906144a3565b8151156112665760405163278f794360e11b81526001600160a01b03821690634f1ef2869061122f9086908690600401614753565b600060405180830381600087803b15801561124957600080fd5b505af115801561125d573d6000803e3d6000fd5b505050506112c2565b604051631b2ce7f360e11b81526001600160a01b038481166004830152821690633659cfe690602401600060405180830381600087803b1580156112a957600080fd5b505af11580156112bd573d6000803e3d6000fd5b505050505b604080518181526006918101919091526519905cdcd95d60d21b60608201526001600160a01b0384166020820152600080516020614b4383398151915290608001611030565b611310613194565b6113186131fd565b6000611322613214565b9050603c8210156113455760405162461bcd60e51b81526004016106579061477f565b61134e826134e1565b60148201805463ffffffff191663ffffffff92909216919091179055604080518181526022918101919091527f636f6c6c61746572616c506f6f6c546f6b656e54696d656c6f636b5365636f6e606082015261647360f01b608082015260208101839052600080516020614b638339815191529060a001610609565b6113d2613194565b6113da6131fd565b60006113e4613214565b90506127108210156114085760405162461bcd60e51b81526004016106579061477f565b611411826134e1565b60128201805463ffffffff92909216600160801b0263ffffffff60801b19909216919091179055604080518181526024918101919091527f7661756c74436f6c6c61746572616c427579466f72466c617265466163746f726060820152634249505360e01b608082015260208101839052600080516020614b638339815191529060a001610609565b6114a2613194565b6114aa6131fd565b60006114b4613214565b90506001600160a01b0382166114dc5760405162461bcd60e51b8152600401610657906144a3565b6003810180546001600160a01b0319166001600160a01b0384169081179091556040805181815260159181019190915274636f6c6c61746572616c506f6f6c466163746f727960581b60608201526020810191909152600080516020614b4383398151915290608001610609565b611552613194565b61155a6131fd565b6000611564613214565b9050600082116115865760405162461bcd60e51b815260040161065790614551565b60178101546115a690600160401b90046001600160401b031660046144df565b6115b190603c614508565b6001600160401b03168211156115d95760405162461bcd60e51b815260040161065790614527565b60178101546115fa90600490600160401b90046001600160401b0316614628565b6001600160401b03168210156116225760405162461bcd60e51b8152600401610657906145d0565b61162b82613238565b6017820180546001600160401b0392909216600160401b0267ffffffffffffffff60401b199092169190911790556040805181815260209181018290527f6d6178456d657267656e637950617573654475726174696f6e5365636f6e64736060820152908101839052600080516020614b6383398151915290608001610609565b6116b4613194565b6116bc6131fd565b60006116c6613214565b9050600082116116e85760405162461bcd60e51b815260040161065790614551565b601781015461170890600160801b90046001600160401b031660046144df565b61171490610e10614508565b6001600160401b031682111561173c5760405162461bcd60e51b815260040161065790614527565b601781015461175d90600490600160801b90046001600160401b0316614628565b6001600160401b03168210156117855760405162461bcd60e51b8152600401610657906145d0565b61178e82613238565b6017820180546001600160401b0392909216600160801b0267ffffffffffffffff60801b19909216919091179055604080518181526027918101919091527f656d657267656e637950617573654475726174696f6e526573657441667465726060820152665365636f6e647360c81b608082015260208101839052600080516020614b638339815191529060a001610609565b611829613194565b6118316131fd565b600061183b613214565b601281015490915061185e90600160a01b90046001600160401b031660046144df565b61186b9062093a80614508565b6001600160401b03168211156118935760405162461bcd60e51b815260040161065790614527565b61189c82613238565b6012820180546001600160401b0392909216600160a01b0267ffffffffffffffff60a01b19909216919091179055604080518181526021918101919091527f6167656e7445786974417661696c61626c6554696d656c6f636b5365636f6e646060820152607360f81b608082015260208101839052600080516020614b638339815191529060a001610609565b611931613194565b6119396131fd565b60006119436134c3565b604051637f4fcaa960e01b81526001600160a01b03848116600483015291925090821690637f4fcaa990602401600060405180830381600087803b15801561198a57600080fd5b505af115801561199e573d6000803e3d6000fd5b5050604080518181526019918101919091527f636c65616e7570426c6f636b4e756d6265724d616e616765720000000000000060608201526001600160a01b0385166020820152600080516020614b4383398151915292506080019050610609565b611a08613194565b611a106131fd565b6000611a1a613214565b9050603c821015611a3d5760405162461bcd60e51b81526004016106579061477f565b611a4682613238565b6013820180546001600160401b0392909216600160c01b026001600160c01b03909216919091179055604080518181526025918101919091527f6167656e7454696d656c6f636b65644f7065726174696f6e57696e646f775365606082015264636f6e647360d81b608082015260208101839052600080516020614b638339815191529060a001610609565b611ada613194565b611ae26131fd565b6000611aec613214565b6006810180546001600160a01b0319166001600160a01b03851690811790915560408051818152600991810191909152681dda1a5d195b1a5cdd60ba1b60608201526020810191909152909150600080516020614b4383398151915290608001610609565b611b59613194565b611b616131fd565b6000611b6b613214565b905060008211611b8d5760405162461bcd60e51b815260040161065790614551565b6014810154611bad90600160201b90046001600160401b031660026144df565b6001600160401b0316821115611bd55760405162461bcd60e51b815260040161065790614527565b6014810154611bf690600290600160201b90046001600160401b0316614628565b6001600160401b0316821015611c1e5760405162461bcd60e51b8152600401610657906145d0565b611c2782613238565b6014820180546001600160401b0392909216600160201b026bffffffffffffffff000000001990921691909117905560408051818152601691810191909152756c69717569646174696f6e537465705365636f6e647360501b606082015260208101839052600080516020614b6383398151915290608001610609565b611cac613194565b611cb46131fd565b6000611cbe613214565b905060008211611ce05760405162461bcd60e51b815260040161065790614551565b612710821115611d285760405162461bcd60e51b81526020600482015260136024820152720c4d2e0e640ecc2d8eaca40e8dede40d0d2ced606b1b6044820152606401610657565b600e810154611d4390600160401b900461ffff166004614579565b61ffff16821115611d665760405162461bcd60e51b8152600401610657906145fa565b600e810154611d8290600490600160401b900461ffff166145ac565b61ffff16821015611da55760405162461bcd60e51b815260040161065790614656565b611dae826132a4565b600e8201805461ffff92909216600160401b0261ffff60401b199092169190911790556040805181815260119181019190915270726564656d7074696f6e4665654249505360781b606082015260208101839052600080516020614b6383398151915290608001610609565b611e22613194565b611e2a6131fd565b6000611e34613214565b90506127108211611e7c5760405162461bcd60e51b8152602060048201526012602482015271626970732076616c756520746f6f206c6f7760701b6044820152606401610657565b600e810154611e9f9063ffffffff600160501b909104811690612ee09061354616565b611eab906103e86147a8565b821115611eca5760405162461bcd60e51b8152600401610657906145fa565b600e810154611eed9063ffffffff600160501b90910481169061208d9061354616565b821015611f0c5760405162461bcd60e51b815260040161065790614656565b611f15826134e1565b600e8201805463ffffffff92909216600160501b0263ffffffff60501b1990921691909117905560408051818152602a918101919091527f726564656d7074696f6e44656661756c74466163746f725661756c74436f6c6c60608201526961746572616c4249505360b01b608082015260208101839052600080516020614b638339815191529060a001610609565b611fac613194565b611fb46131fd565b6000611fbe613214565b6013810154909150611fda906001600160401b031660046144df565b611fe79062015180614508565b6001600160401b031682111561200f5760405162461bcd60e51b815260040161065790614527565b61201882613238565b60138201805467ffffffffffffffff19166001600160401b039290921691909117905560408051818152601d918101919091527f6167656e744665654368616e676554696d656c6f636b5365636f6e6473000000606082015260208101839052600080516020614b6383398151915290608001610609565b612098613194565b6120a06131fd565b60006120aa613214565b9050600082116120cc5760405162461bcd60e51b815260040161065790614551565b600d8101546120e5906001600160401b0316600a6144df565b6001600160401b031682111561213d5760405162461bcd60e51b815260206004820152601960248201527f6c6f742073697a6520696e63726561736520746f6f20626967000000000000006044820152606401610657565b600d81015461215790600a906001600160401b0316614628565b6001600160401b03168210156121af5760405162461bcd60e51b815260206004820152601960248201527f6c6f742073697a6520646563726561736520746f6f20626967000000000000006044820152606401610657565b600d810154600160581b90046001600160401b031615806121e45750600d810154600160581b90046001600160401b03168211155b6122305760405162461bcd60e51b815260206004820181905260248201527f6c6f742073697a6520626967676572207468616e206d696e74696e67206361706044820152606401610657565b61223982613238565b600d8201805467ffffffffffffffff19166001600160401b039290921691909117905560408051818152600a91810191909152696c6f7453697a65414d4760b01b606082015260208101839052600080516020614b6383398151915290608001610609565b6122a6613194565b6122ae6131fd565b60006122b8613214565b90508115806122d45750600d8101546001600160401b03168210155b6122f05760405162461bcd60e51b81526004016106579061477f565b6122f982613238565b81600d01600b6101000a8154816001600160401b0302191690836001600160401b03160217905550600080516020614b638339815191528260405161060991906040808252600d908201526c6d696e74696e67436170414d4760981b6060820152602081019190915260800190565b612370613194565b6123786131fd565b6000612382613214565b90506001600160a01b0382166123aa5760405162461bcd60e51b8152600401610657906144a3565b600a810180546001600160a01b0319166001600160a01b03841690811790915560408051818152600b918101919091526a383934b1b2a932b0b232b960a91b60608201526020810191909152600080516020614b4383398151915290608001610609565b612416613194565b61241e6131fd565b6000612428613214565b90506001600160a01b0382166124505760405162461bcd60e51b8152600401610657906144a3565b6007810180546001600160a01b0319166001600160a01b03841690811790915560408051818152601291810191909152716167656e744f776e6572526567697374727960701b60608201526020810191909152600080516020614b4383398151915290608001610609565b6124c3613194565b6124cb6131fd565b60006124d5613214565b9050600082116124f75760405162461bcd60e51b815260040161065790614551565b600c81015461250d9063ffffffff1660026147bb565b63ffffffff168211156125325760405162461bcd60e51b815260040161065790614527565b600c8101546125499060029063ffffffff166147da565b63ffffffff1682101561256e5760405162461bcd60e51b8152600401610657906145d0565b612577826134e1565b600c8201805463ffffffff191663ffffffff92909216919091179055604080518181526012918101919091527161766572616765426c6f636b54696d654d5360701b606082015260208101839052600080516020614b6383398151915290608001610609565b6125e5613194565b6125ed6131fd565b60006125f7613214565b9050600082116126195760405162461bcd60e51b815260040161065790614551565b600f810154612632906001600160801b03166004614684565b6001600160801b031682111561265a5760405162461bcd60e51b8152600401610657906145fa565b600f810154612674906004906001600160801b03166146c5565b6001600160801b031682101561269c5760405162461bcd60e51b815260040161065790614656565b6126a5826133b7565b600f820180546001600160801b0319166001600160801b039290921691909117905560408051818152601e918101919091527f636f6e6669726d6174696f6e42794f7468657273526577617264555344350000606082015260208101839052600080516020614b6383398151915290608001610609565b612724613194565b61272c6131fd565b6000612736613214565b9050600082116127585760405162461bcd60e51b815260040161065790614551565b61276182613238565b6011820180546001600160401b0392909216600160801b0267ffffffffffffffff60801b1990921691909117905560408051818152601a918101919091527f6d696e55706461746552657065617454696d655365636f6e6473000000000000606082015260208101839052600080516020614b6383398151915290608001610609565b6127ec613194565b6127f46131fd565b60006127fe613214565b9050610e108211156128525760405162461bcd60e51b815260206004820152601960248201527f636f6e6669726d6174696f6e2074696d6520746f6f20626967000000000000006044820152606401610657565b61285b82613238565b60128201805467ffffffffffffffff19166001600160401b0392909216919091179055604080518181526029918101919091527f616e6e6f756e636564556e6465726c79696e67436f6e6669726d6174696f6e4d606082015268696e5365636f6e647360b81b608082015260208101839052600080516020614b638339815191529060a001610609565b6128ed613194565b6128f56131fd565b60006128ff613214565b9050600082116129215760405162461bcd60e51b815260040161065790614551565b601081015461294290600160801b90046001600160401b0316610258614508565b6001600160401b031682111561296a5760405162461bcd60e51b815260040161065790614527565b61297382613238565b6010820180546001600160401b0392909216600160801b0267ffffffffffffffff60801b19909216919091179055604080518181526018918101919091527f7769746864726177616c576169744d696e5365636f6e64730000000000000000606082015260208101839052600080516020614b6383398151915290608001610609565b6129fe613194565b612a066131fd565b6000612a10613214565b90506001600160a01b038216612a385760405162461bcd60e51b8152600401610657906144a3565b6004810180546001600160a01b0319166001600160a01b03841690811790915560408051818152601a918101919091527f636f6c6c61746572616c506f6f6c546f6b656e466163746f727900000000000060608201526020810191909152600080516020614b4383398151915290608001610609565b612ab6613194565b612abe6131fd565b6000612ac8613214565b9050611c20821015612b1c5760405162461bcd60e51b815260206004820152601a60248201527f6d757374206265206174206c656173742074776f20686f7572730000000000006044820152606401610657565b612b2582613238565b600e820180546001600160401b0392909216600160901b0267ffffffffffffffff60901b199092169190911790556040805181815260209181018290527f636f6e6669726d6174696f6e42794f746865727341667465725365636f6e64736060820152908101839052600080516020614b6383398151915290608001610609565b612bae613194565b612bb66131fd565b6000612bc0613214565b90506001600160a01b038216612be85760405162461bcd60e51b8152600401610657906144a3565b6008810180546001600160a01b0319166001600160a01b03841690811790915560408051818152600f918101919091526e333231ab32b934b334b1b0ba34b7b760891b60608201526020810191909152600080516020614b4383398151915290608001610609565b612c58613194565b612c606131fd565b6000612c6a613214565b600c81015490915061271090612c8e90600160201b900463ffffffff1660046147bb565b63ffffffff16612c9e91906147a8565b821115612cdd5760405162461bcd60e51b815260206004820152600d60248201526c76616c756520746f6f2062696760981b6044820152606401610657565b612ce6826134e1565b600c8201805463ffffffff92909216600160201b0267ffffffff000000001990921691909117905560408051818152601f918101919091527f6d696e74696e67506f6f6c486f6c64696e677352657175697265644249505300606082015260208101839052600080516020614b6383398151915290608001610609565b612d6b613194565b612d736131fd565b6000612d7d613214565b9050612d89838361355c565b612d97601582016000614191565b612da5601682016000614191565b60005b8351811015612e355781601501612dd7858381518110612dca57612dca614802565b60200260200101516134e1565b81546001810183556000928352602090922063ffffffff90911691015582516016830190612e1190859084908110612dca57612dca614802565b8154600181810184556000938452602090932063ffffffff90921691015501612da8565b507ff8df5a8f8fc0ea5cc0d8aff70643ac14b7353b936a843e23cb08ff282ba7473983604051612e659190614854565b60405180910390a17ff8df5a8f8fc0ea5cc0d8aff70643ac14b7353b936a843e23cb08ff282ba7473982604051611030919061489b565b612ea4613194565b612eac6131fd565b6000612eb6613214565b6013810154909150612ed990600160801b90046001600160401b031660046144df565b612ee69062015180614508565b6001600160401b0316821115612f0e5760405162461bcd60e51b815260040161065790614527565b612f1782613238565b6013820180546001600160401b0392909216600160801b0267ffffffffffffffff60801b1990921691909117905560408051818152601f918101919091527f706f6f6c4578697443524368616e676554696d656c6f636b5365636f6e647300606082015260208101839052600080516020614b6383398151915290608001610609565b612fa2613194565b612faa6131fd565b6000612fb46134c3565b60405163f6a494af60e01b81526001600160a01b0384811660048301529192509082169063f6a494af90602401600060405180830381600087803b158015612ffb57600080fd5b505af115801561300f573d6000803e3d6000fd5b505060408051818152600f918101919091526e18db19585b995c90dbdb9d1c9858dd608a1b60608201526001600160a01b0385166020820152600080516020614b4383398151915292506080019050610609565b61306b613194565b6130736131fd565b600061307d613214565b90506000821161309f5760405162461bcd60e51b815260040161065790614551565b60118101546130b8906001600160401b031660026144df565b6001600160401b03168211156130e05760405162461bcd60e51b815260040161065790614527565b60118101546130fa906002906001600160401b0316614628565b6001600160401b03168210156131225760405162461bcd60e51b8152600401610657906145d0565b61312b82613238565b60118201805467ffffffffffffffff19166001600160401b039290921691909117905560408051818152600e918101919091526d63636254696d655365636f6e647360901b606082015260208101839052600080516020614b6383398151915290608001610609565b600061319e613214565b80549091506001600160a01b031633146131fa5760405162461bcd60e51b815260206004820152601d60248201527f6f6e6c79206173736574206d616e6167657220636f6e74726f6c6c65720000006044820152606401610657565b50565b6132126001600160e01b031960003516613787565b565b7f4f24f5c433db0962dac0d2c8b84197a6e6c7cc4e5d9ebe1916a1b6193da2f33a90565b60006001600160401b038211156132a05760405162461bcd60e51b815260206004820152602660248201527f53616665436173743a2076616c756520646f65736e27742066697420696e203660448201526534206269747360d01b6064820152608401610657565b5090565b600061ffff8211156132a05760405162461bcd60e51b815260206004820152602660248201527f53616665436173743a2076616c756520646f65736e27742066697420696e203160448201526536206269747360d01b6064820152608401610657565b7fec7e8c1c441439dd40959777f4c577ea0cd42fcc1dbe59d2bd0f5d9c55df8dc554600080516020614b238339815191528054600092829161ffff90911690811061335457613354614802565b60009182526020909120600490910201546001600160a01b031692915050565b61337c6141af565b6000613388848461384e565b905061339381613911565b9150505b92915050565b60006133a882613aeb565b90506133b381613f55565b5050565b60006001600160801b038211156132a05760405162461bcd60e51b815260206004820152602760248201527f53616665436173743a2076616c756520646f65736e27742066697420696e20316044820152663238206269747360c81b6064820152608401610657565b620151808211156134645760405162461bcd60e51b815260206004820152600e60248201526d0ecc2d8eaca40e8dede40d0d2ced60931b6044820152606401610657565b620151806103e861347583866148ef565b61347f9190614906565b11156134be5760405162461bcd60e51b815260206004820152600e60248201526d0ecc2d8eaca40e8dede40d0d2ced60931b6044820152606401610657565b505050565b6000806134ce613214565b600101546001600160a01b031692915050565b600063ffffffff8211156132a05760405162461bcd60e51b815260206004820152602660248201527f53616665436173743a2076616c756520646f65736e27742066697420696e203360448201526532206269747360d01b6064820152608401610657565b60006135558383612710613fe0565b9392505050565b80518251146135a15760405162461bcd60e51b81526020600482015260116024820152701b195b99dd1a1cc81b9bdd08195c5d585b607a1b6044820152606401610657565b6001825110156135f35760405162461bcd60e51b815260206004820152601c60248201527f6174206c65617374206f6e6520666163746f72207265717569726564000000006044820152606401610657565b60005b82518110156134be5761271083828151811061361457613614614802565b60200260200101511161365e5760405162461bcd60e51b8152602060048201526012602482015271666163746f72206e6f742061626f7665203160701b6044820152606401610657565b82818151811061367057613670614802565b602002602001015182828151811061368a5761368a614802565b602002602001015111156136f25760405162461bcd60e51b815260206004820152602960248201527f7661756c7420636f6c6c61746572616c20666163746f722068696768657220746044820152681a185b881d1bdd185b60ba1b6064820152608401610657565b80158061373a57508261370660018361491a565b8151811061371657613716614802565b602002602001015183828151811061373057613730614802565b6020026020010151115b61377f5760405162461bcd60e51b8152602060048201526016602482015275666163746f7273206e6f7420696e6372656173696e6760501b6044820152606401610657565b6001016135f6565b7fc6aafbe0f74bbe68eec7559401d7d311a092b5c4d8feb0452323e4ba73d8d8d160006137b2613214565b6000848152602084905260409020549091508015806137ef575060118201546137eb90600160801b90046001600160401b0316826147a8565b4210155b61383b5760405162461bcd60e51b815260206004820152601c60248201527f746f6f20636c6f736520746f2070726576696f757320757064617465000000006044820152606401610657565b5050600091825260205260409020429055565b6000600080516020614b23833981519152817fec7e8c1c441439dd40959777f4c577ea0cd42fcc1dbe59d2bd0f5d9c55df8db78161388c8787614106565b8152602001908152602001600020549050600081116138dd5760405162461bcd60e51b815260206004820152600d60248201526c3ab735b737bbb7103a37b5b2b760991b6044820152606401610657565b816138e960018361491a565b815481106138f9576138f9614802565b90600052602060002090600402019250505092915050565b6139196141af565b60408051610140810190915282548190600160a01b900460ff1660028111156139445761394461492d565b815283546001600160a01b038116602083015260ff600160a81b8204811660408401526001600160401b03600160b01b8304166060840152600160f01b909104161515608082015260018401805460a0909201916139a190614943565b80601f01602080910402602001604051908101604052809291908181526020018280546139cd90614943565b8015613a1a5780601f106139ef57610100808354040283529160200191613a1a565b820191906000526020600020905b8154815290600101906020018083116139fd57829003601f168201915b50505050508152602001836002018054613a3390614943565b80601f0160208091040260200160405190810160405280929190818152602001828054613a5f90614943565b8015613aac5780601f10613a8157610100808354040283529160200191613aac565b820191906000526020600020905b815481529060010190602001808311613a8f57829003601f168201915b505050918352505060039093015463ffffffff8082166020860152600160201b820481166040860152600160401b909104166060909301929092525090565b6020810151600090600080516020614b23833981519152906001600160a01b0316613b455760405162461bcd60e51b815260206004820152600a602482015269746f6b656e207a65726f60b01b6044820152606401610657565b6000613b5984600001518560200151614106565b600081815260018401602052604090205490915015613bb15760405162461bcd60e51b8152602060048201526014602482015273746f6b656e20616c72656164792065786973747360601b6044820152606401610657565b606084015115613c035760405162461bcd60e51b815260206004820152601b60248201527f63616e6e6f7420616464206465707265636174656420746f6b656e00000000006044820152606401610657565b6000846101000151612710108015613c2457508460e0015185610100015111155b8015613c3957508461012001518560e0015111155b905080613c885760405162461bcd60e51b815260206004820152601960248201527f696e76616c696420636f6c6c61746572616c20726174696f73000000000000006044820152606401610657565b82546040805161014081019091526020808801516001600160a01b0316825287518692918201906002811115613cc057613cc061492d565b8152602001613cd28960400151614130565b60ff168152602001613ce78960600151613238565b6001600160401b031681526020018860800151151581526020018860a0015181526020018860c001518152602001613d228960e001516134e1565b63ffffffff168152602001613d3b8961010001516134e1565b63ffffffff168152602001613d548961012001516134e1565b63ffffffff16905281546001810183556000928352602092839020825160049092020180546001600160a01b031981166001600160a01b03909316928317825593830151929390929183916001600160a81b03191617600160a01b836002811115613dc157613dc161492d565b021790555060408201518154606084015160808501511515600160f01b0260ff60f01b196001600160401b03909216600160b01b0267ffffffffffffffff60b01b1960ff909516600160a81b029490941668ffffffffffffffffff60a81b1990931692909217929092179190911617815560a08201516001820190613e4690826149cb565b5060c08201516002820190613e5b90826149cb565b5060e0820151600390910180546101008401516101209094015163ffffffff908116600160401b026bffffffff000000000000000019958216600160201b0267ffffffffffffffff1990931691909416171792909216179055613ebf8160016147a8565b600084815260018601602052604090205585517fbef4c272617e8773ee6209dd5f05e50ca5be37232b0c94cb8439d8a56bfdb7ce906002811115613f0557613f0561492d565b8760200151886040015189608001518a60a001518b60c001518c60e001518d61010001518e6101200151604051613f4499989796959493929190614a89565b60405180910390a195945050505050565b600080516020614b238339815191528054600090829084908110613f7b57613f7b614802565b60009182526020909120600490910201905060018154600160a01b900460ff166002811115613fac57613fac61492d565b14613fb957613fb9614af8565b613fc2836132a4565b600f92909201805461ffff191661ffff909316929092179091555050565b60008082116140245760405162461bcd60e51b815260206004820152601060248201526f4469766973696f6e206279207a65726f60801b6044820152606401610657565b8360000361403457506000613555565b8383028385828161404757614047614596565b04036140655782818161405c5761405c614596565b04915050613555565b5060006140728386614906565b905060006140808487614b0e565b9050600061408e8587614906565b9050600061409c8688614b0e565b9050856140a982856148ef565b6140b39190614906565b6140bd83856148ef565b6140c783876148ef565b886140d286896148ef565b6140dc91906148ef565b6140e691906147a8565b6140f091906147a8565b6140fa91906147a8565b98975050505050505050565b6000816001600160a01b031660a08460028111156141265761412661492d565b901b179392505050565b600060ff8211156132a05760405162461bcd60e51b815260206004820152602560248201527f53616665436173743a2076616c756520646f65736e27742066697420696e2038604482015264206269747360d81b6064820152608401610657565b50805460008255906000526020600020908101906131fa919061420e565b604080516101408101909152806000815260200160006001600160a01b03168152602001600081526020016000815260200160001515815260200160608152602001606081526020016000815260200160008152602001600081525090565b5b808211156132a0576000815560010161420f565b60006020828403121561423557600080fd5b5035919050565b6001600160a01b03811681146131fa57600080fd5b60006020828403121561426357600080fd5b81356135558161423c565b6000806040838503121561428157600080fd5b823561428c8161423c565b9150602083013561429c8161423c565b809150509250929050565b600080604083850312156142ba57600080fd5b50508035926020909101359150565b634e487b7160e01b600052604160045260246000fd5b604051601f8201601f191681016001600160401b0381118282101715614307576143076142c9565b604052919050565b6000806040838503121561432257600080fd5b823561432d8161423c565b915060208301356001600160401b0381111561434857600080fd5b8301601f8101851361435957600080fd5b80356001600160401b03811115614372576143726142c9565b614385601f8201601f19166020016142df565b81815286602083850101111561439a57600080fd5b816020840160208301376000602083830101528093505050509250929050565b600082601f8301126143cb57600080fd5b81356001600160401b038111156143e4576143e46142c9565b8060051b6143f4602082016142df565b9182526020818501810192908101908684111561441057600080fd5b6020860192505b83831015614432578235825260209283019290910190614417565b9695505050505050565b6000806040838503121561444f57600080fd5b82356001600160401b0381111561446557600080fd5b614471858286016143ba565b92505060208301356001600160401b0381111561448d57600080fd5b614499858286016143ba565b9150509250929050565b6020808252600c908201526b61646472657373207a65726f60a01b604082015260600190565b634e487b7160e01b600052601160045260246000fd5b6001600160401b038181168382160290811690818114614501576145016144c9565b5092915050565b6001600160401b038181168382160190811115613397576133976144c9565b60208082526010908201526f696e63726561736520746f6f2062696760801b604082015260600190565b6020808252600e908201526d63616e6e6f74206265207a65726f60901b604082015260600190565b61ffff8181168382160290811690818114614501576145016144c9565b634e487b7160e01b600052601260045260246000fd5b600061ffff8316806145c0576145c0614596565b8061ffff84160491505092915050565b60208082526010908201526f646563726561736520746f6f2062696760801b604082015260600190565b60208082526014908201527366656520696e63726561736520746f6f2062696760601b604082015260600190565b60006001600160401b0383168061464157614641614596565b806001600160401b0384160491505092915050565b60208082526014908201527366656520646563726561736520746f6f2062696760601b604082015260600190565b6001600160801b038181168382160290811690818114614501576145016144c9565b6001600160801b038181168382160190811115613397576133976144c9565b60006001600160801b038316806146de576146de614596565b806001600160801b0384160491505092915050565b61ffff8181168382160190811115613397576133976144c9565b6000815180845260005b8181101561473357602081850181015186830182015201614717565b506000602082860101526020601f19601f83011685010191505092915050565b6001600160a01b03831681526040602082018190526000906147779083018461470d565b949350505050565b6020808252600f908201526e1d985b1d59481d1bdbc81cdb585b1b608a1b604082015260600190565b80820180821115613397576133976144c9565b63ffffffff8181168382160290811690818114614501576145016144c9565b600063ffffffff8316806147f0576147f0614596565b8063ffffffff84160491505092915050565b634e487b7160e01b600052603260045260246000fd5b600081518084526020840193506020830160005b8281101561484a57815186526020958601959091019060010161482c565b5093949350505050565b60408152601f60408201527f6c69717569646174696f6e436f6c6c61746572616c466163746f72424950530060608201526080602082015260006135556080830184614818565b60408152602460408201527f6c69717569646174696f6e466163746f725661756c74436f6c6c61746572616c6060820152634249505360e01b608082015260a06020820152600061355560a0830184614818565b8082028115828204841417613397576133976144c9565b60008261491557614915614596565b500490565b81810381811115613397576133976144c9565b634e487b7160e01b600052602160045260246000fd5b600181811c9082168061495757607f821691505b60208210810361497757634e487b7160e01b600052602260045260246000fd5b50919050565b601f8211156134be57806000526020600020601f840160051c810160208510156149a45750805b601f840160051c820191505b818110156149c457600081556001016149b0565b5050505050565b81516001600160401b038111156149e4576149e46142c9565b6149f8816149f28454614943565b8461497d565b6020601f821160018114614a2c5760008315614a145750848201515b600019600385901b1c1916600184901b1784556149c4565b600084815260208120601f198516915b82811015614a5c5787850151825560209485019460019092019101614a3c565b5084821015614a7a5786840151600019600387901b60f8161c191681555b50505050600190811b01905550565b60ff8a16815260018060a01b0389166020820152876040820152861515606082015261012060808201526000614ac361012083018861470d565b82810360a0840152614ad5818861470d565b60c0840196909652505060e0810192909252610100909101529695505050505050565b634e487b7160e01b600052600160045260246000fd5b600082614b1d57614b1d614596565b50069056feec7e8c1c441439dd40959777f4c577ea0cd42fcc1dbe59d2bd0f5d9c55df8db6cb274d507e7a9978f5a8c15929fd58c472b8addc1a9bba454b0c0a49a05c9152ac1fb27759c1e6f9e4a24d4f8c320be6091becb03cea5a95398fa220fca4ac0ea26469706673582212202fc6128bf881ef9dff3b4ae767f7430427d615a932e142fb496a3053031dde0f64736f6c634300081b0033",
  "linkReferences": {},
  "deployedLinkReferences": {}
}