{
  "_format": "hh-sol-artifact-1",
  "contractName": "SettingsManagementFacet",
  "sourceName": "contracts/assetManager/facets/SettingsManagementFacet.sol",
  "abi": [
    {
      "inputs": [],
      "name": "AtLeastOneFactorRequired",
      "type": "error"
    },
    {
      "inputs": [],
      "name": "BipsValueTooHigh",
      "type": "error"
    },
    {
      "inputs": [],
      "name": "BipsValueTooLow",
      "type": "error"
    },
    {
      "inputs": [],
      "name": "CannotAddDeprecatedToken",
      "type": "error"
    },
    {
      "inputs": [],
      "name": "CannotBeZero",
      "type": "error"
    },
    {
      "inputs": [],
      "name": "ConfirmationTimeTooBig",
      "type": "error"
    },
    {
      "inputs": [],
      "name": "DecreaseTooBig",
      "type": "error"
    },
    {
      "inputs": [],
      "name": "DivisionByZero",
      "type": "error"
    },
    {
      "inputs": [],
      "name": "EmergencyPauseActive",
      "type": "error"
    },
    {
      "inputs": [],
      "name": "FactorNotAboveOne",
      "type": "error"
    },
    {
      "inputs": [],
      "name": "FactorsNotIncreasing",
      "type": "error"
    },
    {
      "inputs": [],
      "name": "FeeDecreaseTooBig",
      "type": "error"
    },
    {
      "inputs": [],
      "name": "FeeIncreaseTooBig",
      "type": "error"
    },
    {
      "inputs": [],
      "name": "IncreaseTooBig",
      "type": "error"
    },
    {
      "inputs": [],
      "name": "InvalidAddress",
      "type": "error"
    },
    {
      "inputs": [],
      "name": "InvalidCollateralRatios",
      "type": "error"
    },
    {
      "inputs": [],
      "name": "LengthsNotEqual",
      "type": "error"
    },
    {
      "inputs": [],
      "name": "LotSizeBiggerThanMintingCap",
      "type": "error"
    },
    {
      "inputs": [],
      "name": "LotSizeDecreaseTooBig",
      "type": "error"
    },
    {
      "inputs": [],
      "name": "LotSizeIncreaseTooBig",
      "type": "error"
    },
    {
      "inputs": [],
      "name": "MustBeAtLeastTwoHours",
      "type": "error"
    },
    {
      "inputs": [],
      "name": "NotAttached",
      "type": "error"
    },
    {
      "inputs": [],
      "name": "NotWhitelisted",
      "type": "error"
    },
    {
      "inputs": [],
      "name": "OnlyAssetManagerController",
      "type": "error"
    },
    {
      "inputs": [],
      "name": "PriceNotInitialized",
      "type": "error"
    },
    {
      "inputs": [],
      "name": "TokenAlreadyExists",
      "type": "error"
    },
    {
      "inputs": [],
      "name": "TokenZero",
      "type": "error"
    },
    {
      "inputs": [],
      "name": "TooCloseToPreviousUpdate",
      "type": "error"
    },
    {
      "inputs": [],
      "name": "UnknownToken",
      "type": "error"
    },
    {
      "inputs": [],
      "name": "ValueTooBig",
      "type": "error"
    },
    {
      "inputs": [],
      "name": "ValueTooHigh",
      "type": "error"
    },
    {
      "inputs": [],
      "name": "ValueTooSmall",
      "type": "error"
    },
    {
      "inputs": [],
      "name": "VaultCollateralFactorHigherThanTotal",
      "type": "error"
    },
    {
      "inputs": [],
      "name": "WindowTooSmall",
      "type": "error"
    },
    {
      "anonymous": false,
      "inputs": [
        {
          "indexed": true,
          "internalType": "address",
          "name": "agentVault",
          "type": "address"
        },
        {
          "indexed": false,
          "internalType": "uint256",
          "name": "feeBIPS",
          "type": "uint256"
        },
        {
          "indexed": false,
          "internalType": "uint256",
          "name": "mintingVaultCollateralRatioBIPS",
          "type": "uint256"
        },
        {
          "indexed": false,
          "internalType": "uint256",
          "name": "mintingPoolCollateralRatioBIPS",
          "type": "uint256"
        },
        {
          "indexed": false,
          "internalType": "uint256",
          "name": "freeCollateralLots",
          "type": "uint256"
        }
      ],
      "name": "AgentAvailable",
      "type": "event"
    },
    {
      "anonymous": false,
      "inputs": [
        {
          "indexed": true,
          "internalType": "address",
          "name": "agentVault",
          "type": "address"
        },
        {
          "indexed": false,
          "internalType": "uint8",
          "name": "collateralClass",
          "type": "uint8"
        },
        {
          "indexed": false,
          "internalType": "address",
          "name": "token",
          "type": "address"
        }
      ],
      "name": "AgentCollateralTypeChanged",
      "type": "event"
    },
    {
      "anonymous": false,
      "inputs": [
        {
          "indexed": true,
          "internalType": "address",
          "name": "agentVault",
          "type": "address"
        },
        {
          "indexed": false,
          "internalType": "uint256",
          "name": "destroyAllowedAt",
          "type": "uint256"
        }
      ],
      "name": "AgentDestroyAnnounced",
      "type": "event"
    },
    {
      "anonymous": false,
      "inputs": [
        {
          "indexed": true,
          "internalType": "address",
          "name": "agentVault",
          "type": "address"
        }
      ],
      "name": "AgentDestroyed",
      "type": "event"
    },
    {
      "anonymous": false,
      "inputs": [
        {
          "indexed": true,
          "internalType": "address",
          "name": "agentVault",
          "type": "address"
        },
        {
          "indexed": false,
          "internalType": "string",
          "name": "name",
          "type": "string"
        },
        {
          "indexed": false,
          "internalType": "uint256",
          "name": "value",
          "type": "uint256"
        },
        {
          "indexed": false,
          "internalType": "uint256",
          "name": "validAt",
          "type": "uint256"
        }
      ],
      "name": "AgentSettingChangeAnnounced",
      "type": "event"
    },
    {
      "anonymous": false,
      "inputs": [
        {
          "indexed": true,
          "internalType": "address",
          "name": "agentVault",
          "type": "address"
        },
        {
          "indexed": false,
          "internalType": "string",
          "name": "name",
          "type": "string"
        },
        {
          "indexed": false,
          "internalType": "uint256",
          "name": "value",
          "type": "uint256"
        }
      ],
      "name": "AgentSettingChanged",
      "type": "event"
    },
    {
      "anonymous": false,
      "inputs": [
        {
          "indexed": true,
          "internalType": "address",
          "name": "owner",
          "type": "address"
        },
        {
          "indexed": true,
          "internalType": "address",
          "name": "agentVault",
          "type": "address"
        },
        {
          "components": [
            {
              "internalType": "address",
              "name": "collateralPool",
              "type": "address"
            },
            {
              "internalType": "address",
              "name": "collateralPoolToken",
              "type": "address"
            },
            {
              "internalType": "string",
              "name": "underlyingAddress",
              "type": "string"
            },
            {
              "internalType": "address",
              "name": "vaultCollateralToken",
              "type": "address"
            },
            {
              "internalType": "address",
              "name": "poolWNatToken",
              "type": "address"
            },
            {
              "internalType": "uint256",
              "name": "feeBIPS",
              "type": "uint256"
            },
            {
              "internalType": "uint256",
              "name": "poolFeeShareBIPS",
              "type": "uint256"
            },
            {
              "internalType": "uint256",
              "name": "mintingVaultCollateralRatioBIPS",
              "type": "uint256"
            },
            {
              "internalType": "uint256",
              "name": "mintingPoolCollateralRatioBIPS",
              "type": "uint256"
            },
            {
              "internalType": "uint256",
              "name": "buyFAssetByAgentFactorBIPS",
              "type": "uint256"
            },
            {
              "internalType": "uint256",
              "name": "poolExitCollateralRatioBIPS",
              "type": "uint256"
            },
            {
              "internalType": "uint256",
              "name": "redemptionPoolFeeShareBIPS",
              "type": "uint256"
            }
          ],
          "indexed": false,
          "internalType": "struct IAssetManagerEvents.AgentVaultCreationData",
          "name": "creationData",
          "type": "tuple"
        }
      ],
      "name": "AgentVaultCreated",
      "type": "event"
    },
    {
      "anonymous": false,
      "inputs": [
        {
          "indexed": true,
          "internalType": "address",
          "name": "agentVault",
          "type": "address"
        },
        {
          "indexed": false,
          "internalType": "uint256",
          "name": "exitAllowedAt",
          "type": "uint256"
        }
      ],
      "name": "AvailableAgentExitAnnounced",
      "type": "event"
    },
    {
      "anonymous": false,
      "inputs": [
        {
          "indexed": true,
          "internalType": "address",
          "name": "agentVault",
          "type": "address"
        }
      ],
      "name": "AvailableAgentExited",
      "type": "event"
    },
    {
      "anonymous": false,
      "inputs": [
        {
          "indexed": false,
          "internalType": "uint8",
          "name": "collateralClass",
          "type": "uint8"
        },
        {
          "indexed": false,
          "internalType": "address",
          "name": "collateralToken",
          "type": "address"
        },
        {
          "indexed": false,
          "internalType": "uint256",
          "name": "minCollateralRatioBIPS",
          "type": "uint256"
        },
        {
          "indexed": false,
          "internalType": "uint256",
          "name": "safetyMinCollateralRatioBIPS",
          "type": "uint256"
        }
      ],
      "name": "CollateralRatiosChanged",
      "type": "event"
    },
    {
      "anonymous": false,
      "inputs": [
        {
          "indexed": true,
          "internalType": "address",
          "name": "agentVault",
          "type": "address"
        },
        {
          "indexed": true,
          "internalType": "address",
          "name": "minter",
          "type": "address"
        },
        {
          "indexed": true,
          "internalType": "uint256",
          "name": "collateralReservationId",
          "type": "uint256"
        },
        {
          "indexed": false,
          "internalType": "uint256",
          "name": "reservedAmountUBA",
          "type": "uint256"
        }
      ],
      "name": "CollateralReservationDeleted",
      "type": "event"
    },
    {
      "anonymous": false,
      "inputs": [
        {
          "indexed": true,
          "internalType": "address",
          "name": "agentVault",
          "type": "address"
        },
        {
          "indexed": true,
          "internalType": "address",
          "name": "minter",
          "type": "address"
        },
        {
          "indexed": true,
          "internalType": "uint256",
          "name": "collateralReservationId",
          "type": "uint256"
        },
        {
          "indexed": false,
          "internalType": "uint256",
          "name": "valueUBA",
          "type": "uint256"
        },
        {
          "indexed": false,
          "internalType": "uint256",
          "name": "feeUBA",
          "type": "uint256"
        },
        {
          "indexed": false,
          "internalType": "uint256",
          "name": "firstUnderlyingBlock",
          "type": "uint256"
        },
        {
          "indexed": false,
          "internalType": "uint256",
          "name": "lastUnderlyingBlock",
          "type": "uint256"
        },
        {
          "indexed": false,
          "internalType": "uint256",
          "name": "lastUnderlyingTimestamp",
          "type": "uint256"
        },
        {
          "indexed": false,
          "internalType": "string",
          "name": "paymentAddress",
          "type": "string"
        },
        {
          "indexed": false,
          "internalType": "bytes32",
          "name": "paymentReference",
          "type": "bytes32"
        },
        {
          "indexed": false,
          "internalType": "address",
          "name": "executor",
          "type": "address"
        },
        {
          "indexed": false,
          "internalType": "uint256",
          "name": "executorFeeNatWei",
          "type": "uint256"
        }
      ],
      "name": "CollateralReserved",
      "type": "event"
    },
    {
      "anonymous": false,
      "inputs": [
        {
          "indexed": false,
          "internalType": "uint8",
          "name": "collateralClass",
          "type": "uint8"
        },
        {
          "indexed": false,
          "internalType": "address",
          "name": "token",
          "type": "address"
        },
        {
          "indexed": false,
          "internalType": "uint256",
          "name": "decimals",
          "type": "uint256"
        },
        {
          "indexed": false,
          "internalType": "bool",
          "name": "directPricePair",
          "type": "bool"
        },
        {
          "indexed": false,
          "internalType": "string",
          "name": "assetFtsoSymbol",
          "type": "string"
        },
        {
          "indexed": false,
          "internalType": "string",
          "name": "tokenFtsoSymbol",
          "type": "string"
        },
        {
          "indexed": false,
          "internalType": "uint256",
          "name": "minCollateralRatioBIPS",
          "type": "uint256"
        },
        {
          "indexed": false,
          "internalType": "uint256",
          "name": "safetyMinCollateralRatioBIPS",
          "type": "uint256"
        }
      ],
      "name": "CollateralTypeAdded",
      "type": "event"
    },
    {
      "anonymous": false,
      "inputs": [
        {
          "indexed": false,
          "internalType": "string",
          "name": "name",
          "type": "string"
        },
        {
          "indexed": false,
          "internalType": "address",
          "name": "value",
          "type": "address"
        }
      ],
      "name": "ContractChanged",
      "type": "event"
    },
    {
      "anonymous": false,
      "inputs": [
        {
          "indexed": false,
          "internalType": "uint256",
          "name": "underlyingBlockNumber",
          "type": "uint256"
        },
        {
          "indexed": false,
          "internalType": "uint256",
          "name": "underlyingBlockTimestamp",
          "type": "uint256"
        },
        {
          "indexed": false,
          "internalType": "uint256",
          "name": "updatedAt",
          "type": "uint256"
        }
      ],
      "name": "CurrentUnderlyingBlockUpdated",
      "type": "event"
    },
    {
      "anonymous": false,
      "inputs": [
        {
          "indexed": true,
          "internalType": "address",
          "name": "agentVault",
          "type": "address"
        },
        {
          "indexed": false,
          "internalType": "bytes32",
          "name": "transactionHash1",
          "type": "bytes32"
        },
        {
          "indexed": false,
          "internalType": "bytes32",
          "name": "transactionHash2",
          "type": "bytes32"
        }
      ],
      "name": "DuplicatePaymentConfirmed",
      "type": "event"
    },
    {
      "anonymous": false,
      "inputs": [
        {
          "indexed": true,
          "internalType": "address",
          "name": "agentVault",
          "type": "address"
        },
        {
          "indexed": false,
          "internalType": "uint256",
          "name": "dustUBA",
          "type": "uint256"
        }
      ],
      "name": "DustChanged",
      "type": "event"
    },
    {
      "anonymous": false,
      "inputs": [],
      "name": "EmergencyPauseCanceled",
      "type": "event"
    },
    {
      "anonymous": false,
      "inputs": [
        {
          "indexed": false,
          "internalType": "enum EmergencyPause.Level",
          "name": "externalLevel",
          "type": "uint8"
        },
        {
          "indexed": false,
          "internalType": "uint256",
          "name": "externalPausedUntil",
          "type": "uint256"
        },
        {
          "indexed": false,
          "internalType": "enum EmergencyPause.Level",
          "name": "governanceLevel",
          "type": "uint8"
        },
        {
          "indexed": false,
          "internalType": "uint256",
          "name": "governancePausedUntil",
          "type": "uint256"
        }
      ],
      "name": "EmergencyPauseTriggered",
      "type": "event"
    },
    {
      "anonymous": false,
      "inputs": [
        {
          "indexed": true,
          "internalType": "address",
          "name": "agentVault",
          "type": "address"
        },
        {
          "indexed": false,
          "internalType": "uint256",
          "name": "timestamp",
          "type": "uint256"
        }
      ],
      "name": "FullLiquidationStarted",
      "type": "event"
    },
    {
      "anonymous": false,
      "inputs": [
        {
          "indexed": true,
          "internalType": "address",
          "name": "agentVault",
          "type": "address"
        },
        {
          "indexed": false,
          "internalType": "bytes32",
          "name": "transactionHash",
          "type": "bytes32"
        }
      ],
      "name": "IllegalPaymentConfirmed",
      "type": "event"
    },
    {
      "anonymous": false,
      "inputs": [
        {
          "indexed": true,
          "internalType": "address",
          "name": "agentVault",
          "type": "address"
        }
      ],
      "name": "LiquidationEnded",
      "type": "event"
    },
    {
      "anonymous": false,
      "inputs": [
        {
          "indexed": true,
          "internalType": "address",
          "name": "agentVault",
          "type": "address"
        },
        {
          "indexed": true,
          "internalType": "address",
          "name": "liquidator",
          "type": "address"
        },
        {
          "indexed": false,
          "internalType": "uint256",
          "name": "valueUBA",
          "type": "uint256"
        },
        {
          "indexed": false,
          "internalType": "uint256",
          "name": "paidVaultCollateralWei",
          "type": "uint256"
        },
        {
          "indexed": false,
          "internalType": "uint256",
          "name": "paidPoolCollateralWei",
          "type": "uint256"
        }
      ],
      "name": "LiquidationPerformed",
      "type": "event"
    },
    {
      "anonymous": false,
      "inputs": [
        {
          "indexed": true,
          "internalType": "address",
          "name": "agentVault",
          "type": "address"
        },
        {
          "indexed": false,
          "internalType": "uint256",
          "name": "timestamp",
          "type": "uint256"
        }
      ],
      "name": "LiquidationStarted",
      "type": "event"
    },
    {
      "anonymous": false,
      "inputs": [
        {
          "indexed": true,
          "internalType": "address",
          "name": "agentVault",
          "type": "address"
        },
        {
          "indexed": true,
          "internalType": "uint256",
          "name": "collateralReservationId",
          "type": "uint256"
        },
        {
          "indexed": false,
          "internalType": "uint256",
          "name": "mintedAmountUBA",
          "type": "uint256"
        },
        {
          "indexed": false,
          "internalType": "uint256",
          "name": "agentFeeUBA",
          "type": "uint256"
        },
        {
          "indexed": false,
          "internalType": "uint256",
          "name": "poolFeeUBA",
          "type": "uint256"
        }
      ],
      "name": "MintingExecuted",
      "type": "event"
    },
    {
      "anonymous": false,
      "inputs": [
        {
          "indexed": true,
          "internalType": "address",
          "name": "agentVault",
          "type": "address"
        },
        {
          "indexed": true,
          "internalType": "address",
          "name": "minter",
          "type": "address"
        },
        {
          "indexed": true,
          "internalType": "uint256",
          "name": "collateralReservationId",
          "type": "uint256"
        },
        {
          "indexed": false,
          "internalType": "uint256",
          "name": "reservedAmountUBA",
          "type": "uint256"
        }
      ],
      "name": "MintingPaymentDefault",
      "type": "event"
    },
    {
      "anonymous": false,
      "inputs": [
        {
          "indexed": true,
          "internalType": "address",
          "name": "agentVault",
          "type": "address"
        },
        {
          "indexed": false,
          "internalType": "uint256",
          "name": "amountWei",
          "type": "uint256"
        },
        {
          "indexed": false,
          "internalType": "uint256",
          "name": "withdrawalAllowedAt",
          "type": "uint256"
        }
      ],
      "name": "PoolTokenRedemptionAnnounced",
      "type": "event"
    },
    {
      "anonymous": false,
      "inputs": [
        {
          "indexed": true,
          "internalType": "address",
          "name": "agentVault",
          "type": "address"
        },
        {
          "indexed": true,
          "internalType": "address",
          "name": "redeemer",
          "type": "address"
        },
        {
          "indexed": false,
          "internalType": "uint256",
          "name": "redemptionAmountUBA",
          "type": "uint256"
        },
        {
          "indexed": false,
          "internalType": "uint256",
          "name": "paidVaultCollateralWei",
          "type": "uint256"
        }
      ],
      "name": "RedeemedInCollateral",
      "type": "event"
    },
    {
      "anonymous": false,
      "inputs": [
        {
          "indexed": true,
          "internalType": "address",
          "name": "agentVault",
          "type": "address"
        },
        {
          "indexed": true,
          "internalType": "address",
          "name": "redeemer",
          "type": "address"
        },
        {
          "indexed": true,
          "internalType": "uint256",
          "name": "requestId",
          "type": "uint256"
        },
        {
          "indexed": false,
          "internalType": "uint256",
          "name": "redemptionAmountUBA",
          "type": "uint256"
        },
        {
          "indexed": false,
          "internalType": "uint256",
          "name": "redeemedVaultCollateralWei",
          "type": "uint256"
        },
        {
          "indexed": false,
          "internalType": "uint256",
          "name": "redeemedPoolCollateralWei",
          "type": "uint256"
        }
      ],
      "name": "RedemptionDefault",
      "type": "event"
    },
    {
      "anonymous": false,
      "inputs": [
        {
          "indexed": true,
          "internalType": "address",
          "name": "agentVault",
          "type": "address"
        },
        {
          "indexed": true,
          "internalType": "address",
          "name": "redeemer",
          "type": "address"
        },
        {
          "indexed": true,
          "internalType": "uint256",
          "name": "requestId",
          "type": "uint256"
        },
        {
          "indexed": false,
          "internalType": "bytes32",
          "name": "transactionHash",
          "type": "bytes32"
        },
        {
          "indexed": false,
          "internalType": "uint256",
          "name": "redemptionAmountUBA",
          "type": "uint256"
        },
        {
          "indexed": false,
          "internalType": "int256",
          "name": "spentUnderlyingUBA",
          "type": "int256"
        }
      ],
      "name": "RedemptionPaymentBlocked",
      "type": "event"
    },
    {
      "anonymous": false,
      "inputs": [
        {
          "indexed": true,
          "internalType": "address",
          "name": "agentVault",
          "type": "address"
        },
        {
          "indexed": true,
          "internalType": "address",
          "name": "redeemer",
          "type": "address"
        },
        {
          "indexed": true,
          "internalType": "uint256",
          "name": "requestId",
          "type": "uint256"
        },
        {
          "indexed": false,
          "internalType": "bytes32",
          "name": "transactionHash",
          "type": "bytes32"
        },
        {
          "indexed": false,
          "internalType": "int256",
          "name": "spentUnderlyingUBA",
          "type": "int256"
        },
        {
          "indexed": false,
          "internalType": "string",
          "name": "failureReason",
          "type": "string"
        }
      ],
      "name": "RedemptionPaymentFailed",
      "type": "event"
    },
    {
      "anonymous": false,
      "inputs": [
        {
          "indexed": true,
          "internalType": "address",
          "name": "agentVault",
          "type": "address"
        },
        {
          "indexed": true,
          "internalType": "address",
          "name": "redeemer",
          "type": "address"
        },
        {
          "indexed": true,
          "internalType": "uint256",
          "name": "requestId",
          "type": "uint256"
        },
        {
          "indexed": false,
          "internalType": "bytes32",
          "name": "transactionHash",
          "type": "bytes32"
        },
        {
          "indexed": false,
          "internalType": "uint256",
          "name": "redemptionAmountUBA",
          "type": "uint256"
        },
        {
          "indexed": false,
          "internalType": "int256",
          "name": "spentUnderlyingUBA",
          "type": "int256"
        }
      ],
      "name": "RedemptionPerformed",
      "type": "event"
    },
    {
      "anonymous": false,
      "inputs": [
        {
          "indexed": true,
          "internalType": "address",
          "name": "agentVault",
          "type": "address"
        },
        {
          "indexed": true,
          "internalType": "uint256",
          "name": "requestId",
          "type": "uint256"
        },
        {
          "indexed": false,
          "internalType": "uint256",
          "name": "poolFeeUBA",
          "type": "uint256"
        }
      ],
      "name": "RedemptionPoolFeeMinted",
      "type": "event"
    },
    {
      "anonymous": false,
      "inputs": [
        {
          "indexed": true,
          "internalType": "address",
          "name": "agentVault",
          "type": "address"
        },
        {
          "indexed": true,
          "internalType": "address",
          "name": "redeemer",
          "type": "address"
        },
        {
          "indexed": true,
          "internalType": "uint256",
          "name": "requestId",
          "type": "uint256"
        },
        {
          "indexed": false,
          "internalType": "uint256",
          "name": "redemptionAmountUBA",
          "type": "uint256"
        }
      ],
      "name": "RedemptionRejected",
      "type": "event"
    },
    {
      "anonymous": false,
      "inputs": [
        {
          "indexed": true,
          "internalType": "address",
          "name": "redeemer",
          "type": "address"
        },
        {
          "indexed": false,
          "internalType": "uint256",
          "name": "remainingLots",
          "type": "uint256"
        }
      ],
      "name": "RedemptionRequestIncomplete",
      "type": "event"
    },
    {
      "anonymous": false,
      "inputs": [
        {
          "indexed": true,
          "internalType": "address",
          "name": "agentVault",
          "type": "address"
        },
        {
          "indexed": true,
          "internalType": "address",
          "name": "redeemer",
          "type": "address"
        },
        {
          "indexed": true,
          "internalType": "uint256",
          "name": "requestId",
          "type": "uint256"
        },
        {
          "indexed": false,
          "internalType": "string",
          "name": "paymentAddress",
          "type": "string"
        },
        {
          "indexed": false,
          "internalType": "uint256",
          "name": "valueUBA",
          "type": "uint256"
        },
        {
          "indexed": false,
          "internalType": "uint256",
          "name": "feeUBA",
          "type": "uint256"
        },
        {
          "indexed": false,
          "internalType": "uint256",
          "name": "firstUnderlyingBlock",
          "type": "uint256"
        },
        {
          "indexed": false,
          "internalType": "uint256",
          "name": "lastUnderlyingBlock",
          "type": "uint256"
        },
        {
          "indexed": false,
          "internalType": "uint256",
          "name": "lastUnderlyingTimestamp",
          "type": "uint256"
        },
        {
          "indexed": false,
          "internalType": "bytes32",
          "name": "paymentReference",
          "type": "bytes32"
        },
        {
          "indexed": false,
          "internalType": "address",
          "name": "executor",
          "type": "address"
        },
        {
          "indexed": false,
          "internalType": "uint256",
          "name": "executorFeeNatWei",
          "type": "uint256"
        }
      ],
      "name": "RedemptionRequested",
      "type": "event"
    },
    {
      "anonymous": false,
      "inputs": [
        {
          "indexed": true,
          "internalType": "address",
          "name": "agentVault",
          "type": "address"
        },
        {
          "indexed": true,
          "internalType": "uint256",
          "name": "redemptionTicketId",
          "type": "uint256"
        },
        {
          "indexed": false,
          "internalType": "uint256",
          "name": "ticketValueUBA",
          "type": "uint256"
        }
      ],
      "name": "RedemptionTicketCreated",
      "type": "event"
    },
    {
      "anonymous": false,
      "inputs": [
        {
          "indexed": true,
          "internalType": "address",
          "name": "agentVault",
          "type": "address"
        },
        {
          "indexed": true,
          "internalType": "uint256",
          "name": "redemptionTicketId",
          "type": "uint256"
        }
      ],
      "name": "RedemptionTicketDeleted",
      "type": "event"
    },
    {
      "anonymous": false,
      "inputs": [
        {
          "indexed": true,
          "internalType": "address",
          "name": "agentVault",
          "type": "address"
        },
        {
          "indexed": true,
          "internalType": "uint256",
          "name": "redemptionTicketId",
          "type": "uint256"
        },
        {
          "indexed": false,
          "internalType": "uint256",
          "name": "ticketValueUBA",
          "type": "uint256"
        }
      ],
      "name": "RedemptionTicketUpdated",
      "type": "event"
    },
    {
      "anonymous": false,
      "inputs": [
        {
          "indexed": false,
          "internalType": "uint256",
          "name": "firstTicketId",
          "type": "uint256"
        },
        {
          "indexed": false,
          "internalType": "uint256",
          "name": "nextTicketId",
          "type": "uint256"
        }
      ],
      "name": "RedemptionTicketsConsolidated",
      "type": "event"
    },
    {
      "anonymous": false,
      "inputs": [
        {
          "indexed": true,
          "internalType": "address",
          "name": "agentVault",
          "type": "address"
        },
        {
          "indexed": false,
          "internalType": "uint256",
          "name": "valueUBA",
          "type": "uint256"
        }
      ],
      "name": "SelfClose",
      "type": "event"
    },
    {
      "anonymous": false,
      "inputs": [
        {
          "indexed": true,
          "internalType": "address",
          "name": "agentVault",
          "type": "address"
        },
        {
          "indexed": false,
          "internalType": "bool",
          "name": "mintFromFreeUnderlying",
          "type": "bool"
        },
        {
          "indexed": false,
          "internalType": "uint256",
          "name": "mintedAmountUBA",
          "type": "uint256"
        },
        {
          "indexed": false,
          "internalType": "uint256",
          "name": "depositedAmountUBA",
          "type": "uint256"
        },
        {
          "indexed": false,
          "internalType": "uint256",
          "name": "poolFeeUBA",
          "type": "uint256"
        }
      ],
      "name": "SelfMint",
      "type": "event"
    },
    {
      "anonymous": false,
      "inputs": [
        {
          "indexed": false,
          "internalType": "string",
          "name": "name",
          "type": "string"
        },
        {
          "indexed": false,
          "internalType": "uint256[]",
          "name": "value",
          "type": "uint256[]"
        }
      ],
      "name": "SettingArrayChanged",
      "type": "event"
    },
    {
      "anonymous": false,
      "inputs": [
        {
          "indexed": false,
          "internalType": "string",
          "name": "name",
          "type": "string"
        },
        {
          "indexed": false,
          "internalType": "uint256",
          "name": "value",
          "type": "uint256"
        }
      ],
      "name": "SettingChanged",
      "type": "event"
    },
    {
      "anonymous": false,
      "inputs": [
        {
          "indexed": true,
          "internalType": "address",
          "name": "agentVault",
          "type": "address"
        },
        {
          "indexed": false,
          "internalType": "int256",
          "name": "underlyingBalanceUBA",
          "type": "int256"
        }
      ],
      "name": "UnderlyingBalanceChanged",
      "type": "event"
    },
    {
      "anonymous": false,
      "inputs": [
        {
          "indexed": true,
          "internalType": "address",
          "name": "agentVault",
          "type": "address"
        },
        {
          "indexed": false,
          "internalType": "int256",
          "name": "balance",
          "type": "int256"
        },
        {
          "indexed": false,
          "internalType": "uint256",
          "name": "requiredBalance",
          "type": "uint256"
        }
      ],
      "name": "UnderlyingBalanceTooLow",
      "type": "event"
    },
    {
      "anonymous": false,
      "inputs": [
        {
          "indexed": true,
          "internalType": "address",
          "name": "agentVault",
          "type": "address"
        },
        {
          "indexed": false,
          "internalType": "bytes32",
          "name": "transactionHash",
          "type": "bytes32"
        },
        {
          "indexed": false,
          "internalType": "uint256",
          "name": "depositedUBA",
          "type": "uint256"
        }
      ],
      "name": "UnderlyingBalanceToppedUp",
      "type": "event"
    },
    {
      "anonymous": false,
      "inputs": [
        {
          "indexed": true,
          "internalType": "address",
          "name": "agentVault",
          "type": "address"
        },
        {
          "indexed": true,
          "internalType": "uint256",
          "name": "announcementId",
          "type": "uint256"
        },
        {
          "indexed": false,
          "internalType": "bytes32",
          "name": "paymentReference",
          "type": "bytes32"
        }
      ],
      "name": "UnderlyingWithdrawalAnnounced",
      "type": "event"
    },
    {
      "anonymous": false,
      "inputs": [
        {
          "indexed": true,
          "internalType": "address",
          "name": "agentVault",
          "type": "address"
        },
        {
          "indexed": true,
          "internalType": "uint256",
          "name": "announcementId",
          "type": "uint256"
        }
      ],
      "name": "UnderlyingWithdrawalCancelled",
      "type": "event"
    },
    {
      "anonymous": false,
      "inputs": [
        {
          "indexed": true,
          "internalType": "address",
          "name": "agentVault",
          "type": "address"
        },
        {
          "indexed": true,
          "internalType": "uint256",
          "name": "announcementId",
          "type": "uint256"
        },
        {
          "indexed": false,
          "internalType": "int256",
          "name": "spentUBA",
          "type": "int256"
        },
        {
          "indexed": false,
          "internalType": "bytes32",
          "name": "transactionHash",
          "type": "bytes32"
        }
      ],
      "name": "UnderlyingWithdrawalConfirmed",
      "type": "event"
    },
    {
      "anonymous": false,
      "inputs": [
        {
          "indexed": true,
          "internalType": "address",
          "name": "agentVault",
          "type": "address"
        },
        {
          "indexed": false,
          "internalType": "uint256",
          "name": "amountWei",
          "type": "uint256"
        },
        {
          "indexed": false,
          "internalType": "uint256",
          "name": "withdrawalAllowedAt",
          "type": "uint256"
        }
      ],
      "name": "VaultCollateralWithdrawalAnnounced",
      "type": "event"
    },
    {
      "inputs": [
        {
          "internalType": "uint256",
          "name": "_value",
          "type": "uint256"
        }
      ],
      "name": "setAgentExitAvailableTimelockSeconds",
      "outputs": [],
      "stateMutability": "nonpayable",
      "type": "function"
    },
    {
      "inputs": [
        {
          "internalType": "uint256",
          "name": "_value",
          "type": "uint256"
        }
      ],
      "name": "setAgentFeeChangeTimelockSeconds",
      "outputs": [],
      "stateMutability": "nonpayable",
      "type": "function"
    },
    {
      "inputs": [
        {
          "internalType": "uint256",
          "name": "_value",
          "type": "uint256"
        }
      ],
      "name": "setAgentMintingCRChangeTimelockSeconds",
      "outputs": [],
      "stateMutability": "nonpayable",
      "type": "function"
    },
    {
      "inputs": [
        {
          "internalType": "address",
          "name": "_value",
          "type": "address"
        }
      ],
      "name": "setAgentOwnerRegistry",
      "outputs": [],
      "stateMutability": "nonpayable",
      "type": "function"
    },
    {
      "inputs": [
        {
          "internalType": "uint256",
          "name": "_value",
          "type": "uint256"
        }
      ],
      "name": "setAgentTimelockedOperationWindowSeconds",
      "outputs": [],
      "stateMutability": "nonpayable",
      "type": "function"
    },
    {
      "inputs": [
        {
          "internalType": "address",
          "name": "_value",
          "type": "address"
        }
      ],
      "name": "setAgentVaultFactory",
      "outputs": [],
      "stateMutability": "nonpayable",
      "type": "function"
    },
    {
      "inputs": [
        {
          "internalType": "uint256",
          "name": "_value",
          "type": "uint256"
        }
      ],
      "name": "setAttestationWindowSeconds",
      "outputs": [],
      "stateMutability": "nonpayable",
      "type": "function"
    },
    {
      "inputs": [
        {
          "internalType": "uint256",
          "name": "_value",
          "type": "uint256"
        }
      ],
      "name": "setAverageBlockTimeMS",
      "outputs": [],
      "stateMutability": "nonpayable",
      "type": "function"
    },
    {
      "inputs": [
        {
          "internalType": "address",
          "name": "_value",
          "type": "address"
        }
      ],
      "name": "setCleanerContract",
      "outputs": [],
      "stateMutability": "nonpayable",
      "type": "function"
    },
    {
      "inputs": [
        {
          "internalType": "address",
          "name": "_value",
          "type": "address"
        }
      ],
      "name": "setCleanupBlockNumberManager",
      "outputs": [],
      "stateMutability": "nonpayable",
      "type": "function"
    },
    {
      "inputs": [
        {
          "internalType": "address",
          "name": "_value",
          "type": "address"
        }
      ],
      "name": "setCollateralPoolFactory",
      "outputs": [],
      "stateMutability": "nonpayable",
      "type": "function"
    },
    {
      "inputs": [
        {
          "internalType": "address",
          "name": "_value",
          "type": "address"
        }
      ],
      "name": "setCollateralPoolTokenFactory",
      "outputs": [],
      "stateMutability": "nonpayable",
      "type": "function"
    },
    {
      "inputs": [
        {
          "internalType": "uint256",
          "name": "_value",
          "type": "uint256"
        }
      ],
      "name": "setCollateralPoolTokenTimelockSeconds",
      "outputs": [],
      "stateMutability": "nonpayable",
      "type": "function"
    },
    {
      "inputs": [
        {
          "internalType": "uint256",
          "name": "_value",
          "type": "uint256"
        }
      ],
      "name": "setCollateralReservationFeeBips",
      "outputs": [],
      "stateMutability": "nonpayable",
      "type": "function"
    },
    {
      "inputs": [
        {
          "internalType": "uint256",
          "name": "_value",
          "type": "uint256"
        }
      ],
      "name": "setConfirmationByOthersAfterSeconds",
      "outputs": [],
      "stateMutability": "nonpayable",
      "type": "function"
    },
    {
      "inputs": [
        {
          "internalType": "uint256",
          "name": "_value",
          "type": "uint256"
        }
      ],
      "name": "setConfirmationByOthersRewardUSD5",
      "outputs": [],
      "stateMutability": "nonpayable",
      "type": "function"
    },
    {
      "inputs": [
        {
          "internalType": "uint256",
          "name": "_value",
          "type": "uint256"
        }
      ],
      "name": "setEmergencyPauseDurationResetAfterSeconds",
      "outputs": [],
      "stateMutability": "nonpayable",
      "type": "function"
    },
    {
      "inputs": [
        {
          "internalType": "address",
          "name": "_value",
          "type": "address"
        }
      ],
      "name": "setFdcVerification",
      "outputs": [],
      "stateMutability": "nonpayable",
      "type": "function"
    },
    {
      "inputs": [
        {
          "internalType": "uint256[]",
          "name": "_liquidationFactors",
          "type": "uint256[]"
        },
        {
          "internalType": "uint256[]",
          "name": "_vaultCollateralFactors",
          "type": "uint256[]"
        }
      ],
      "name": "setLiquidationPaymentFactors",
      "outputs": [],
      "stateMutability": "nonpayable",
      "type": "function"
    },
    {
      "inputs": [
        {
          "internalType": "uint256",
          "name": "_stepSeconds",
          "type": "uint256"
        }
      ],
      "name": "setLiquidationStepSeconds",
      "outputs": [],
      "stateMutability": "nonpayable",
      "type": "function"
    },
    {
      "inputs": [
        {
          "internalType": "uint256",
          "name": "_value",
          "type": "uint256"
        }
      ],
      "name": "setLotSizeAmg",
      "outputs": [],
      "stateMutability": "nonpayable",
      "type": "function"
    },
    {
      "inputs": [
        {
          "internalType": "uint256",
          "name": "_value",
          "type": "uint256"
        }
      ],
      "name": "setMaxEmergencyPauseDurationSeconds",
      "outputs": [],
      "stateMutability": "nonpayable",
      "type": "function"
    },
    {
      "inputs": [
        {
          "internalType": "uint256",
          "name": "_value",
          "type": "uint256"
        }
      ],
      "name": "setMaxRedeemedTickets",
      "outputs": [],
      "stateMutability": "nonpayable",
      "type": "function"
    },
    {
      "inputs": [
        {
          "internalType": "uint256",
          "name": "_value",
          "type": "uint256"
        }
      ],
      "name": "setMaxTrustedPriceAgeSeconds",
      "outputs": [],
      "stateMutability": "nonpayable",
      "type": "function"
    },
    {
      "inputs": [
        {
          "internalType": "uint256",
          "name": "_value",
          "type": "uint256"
        }
      ],
      "name": "setMinUpdateRepeatTimeSeconds",
      "outputs": [],
      "stateMutability": "nonpayable",
      "type": "function"
    },
    {
      "inputs": [
        {
          "internalType": "uint256",
          "name": "_value",
          "type": "uint256"
        }
      ],
      "name": "setMintingCapAmg",
      "outputs": [],
      "stateMutability": "nonpayable",
      "type": "function"
    },
    {
      "inputs": [
        {
          "internalType": "uint256",
          "name": "_value",
          "type": "uint256"
        }
      ],
      "name": "setMintingPoolHoldingsRequiredBIPS",
      "outputs": [],
      "stateMutability": "nonpayable",
      "type": "function"
    },
    {
      "inputs": [
        {
          "internalType": "uint256",
          "name": "_rewardUSD5",
          "type": "uint256"
        },
        {
          "internalType": "uint256",
          "name": "_rewardBIPS",
          "type": "uint256"
        }
      ],
      "name": "setPaymentChallengeReward",
      "outputs": [],
      "stateMutability": "nonpayable",
      "type": "function"
    },
    {
      "inputs": [
        {
          "internalType": "uint256",
          "name": "_value",
          "type": "uint256"
        }
      ],
      "name": "setPoolExitCRChangeTimelockSeconds",
      "outputs": [],
      "stateMutability": "nonpayable",
      "type": "function"
    },
    {
      "inputs": [
        {
          "internalType": "address",
          "name": "_value",
          "type": "address"
        }
      ],
      "name": "setPriceReader",
      "outputs": [],
      "stateMutability": "nonpayable",
      "type": "function"
    },
    {
      "inputs": [
        {
          "internalType": "uint256",
          "name": "_value",
          "type": "uint256"
        }
      ],
      "name": "setRedemptionDefaultFactorVaultCollateralBIPS",
      "outputs": [],
      "stateMutability": "nonpayable",
      "type": "function"
    },
    {
      "inputs": [
        {
          "internalType": "uint256",
          "name": "_value",
          "type": "uint256"
        }
      ],
      "name": "setRedemptionFeeBips",
      "outputs": [],
      "stateMutability": "nonpayable",
      "type": "function"
    },
    {
      "inputs": [
        {
          "internalType": "uint256",
          "name": "_underlyingBlocks",
          "type": "uint256"
        },
        {
          "internalType": "uint256",
          "name": "_underlyingSeconds",
          "type": "uint256"
        }
      ],
      "name": "setTimeForPayment",
      "outputs": [],
      "stateMutability": "nonpayable",
      "type": "function"
    },
    {
      "inputs": [
        {
          "internalType": "uint256",
          "name": "_value",
          "type": "uint256"
        }
      ],
      "name": "setVaultCollateralBuyForFlareFactorBIPS",
      "outputs": [],
      "stateMutability": "nonpayable",
      "type": "function"
    },
    {
      "inputs": [
        {
          "internalType": "uint256",
          "name": "_value",
          "type": "uint256"
        }
      ],
      "name": "setWithdrawalOrDestroyWaitMinSeconds",
      "outputs": [],
      "stateMutability": "nonpayable",
      "type": "function"
    },
    {
      "inputs": [
        {
          "internalType": "address",
          "name": "_controller",
          "type": "address"
        },
        {
          "internalType": "contract IWNat",
          "name": "_wNat",
          "type": "address"
        }
      ],
      "name": "updateSystemContracts",
      "outputs": [],
      "stateMutability": "nonpayable",
      "type": "function"
    },
    {
      "inputs": [
        {
          "internalType": "address",
          "name": "_value",
          "type": "address"
        },
        {
          "internalType": "bytes",
          "name": "callData",
          "type": "bytes"
        }
      ],
      "name": "upgradeFAssetImplementation",
      "outputs": [],
      "stateMutability": "nonpayable",
      "type": "function"
    }
  ],
  "bytecode": "0x6080604052348015600f57600080fd5b506144618061001f6000396000f3fe608060405234801561001057600080fd5b50600436106102275760003560e01c80638d94510a11610130578063d0743395116100b8578063e443147f1161007c578063e443147f1461048e578063e68f3fbf146104a1578063ec516d24146104b4578063ec7430a4146104c7578063f6a494af146104da57600080fd5b8063d07433951461042f578063d57d25c514610442578063dd64bd0414610455578063df06ea9614610468578063dfc594171461047b57600080fd5b8063af5f2b98116100ff578063af5f2b98146103d0578063b2e6a2b5146103e3578063be069719146103f6578063cda4c54114610409578063cfcb991d1461041c57600080fd5b80638d94510a146103845780639db27f55146103975780639e193242146103aa578063ad74c72d146103bd57600080fd5b80636a598609116101b35780636df310d6116101825780636df310d6146103255780637800a11f146103385780637b6fa7621461034b5780637f4fcaa91461035e578063812e7d2e1461037157600080fd5b80636a598609146102d95780636ad6fb4f146102ec5780636b38c643146102ff5780636dd3d5891461031257600080fd5b8063568ae58e116101fa578063568ae58e1461027a5780635ac5c11e1461028d5780636075765d146102a057806368f224ba146102b357806369b89e7e146102c657600080fd5b806313d6a5e21461022c5780632779aaaa146102415780632c06abf01461025457806347814c0614610267575b600080fd5b61023f61023a366004613bd2565b6104ed565b005b61023f61024f366004613bef565b6105a2565b61023f610262366004613bef565b61066e565b61023f610275366004613bef565b610779565b61023f610288366004613bef565b6108ab565b61023f61029b366004613bef565b610a02565b61023f6102ae366004613c08565b610b62565b61023f6102c1366004613c41565b610c93565b61023f6102d4366004613c41565b610ed6565b61023f6102e7366004613ca9565b611053565b61023f6102fa366004613bef565b6111a4565b61023f61030d366004613bef565b611267565b61023f610320366004613bd2565b611338565b61023f610333366004613bef565b6113e9565b61023f610346366004613bef565b61154e565b61023f610359366004613bef565b6116c6565b61023f61036c366004613bd2565b6117cf565b61023f61037f366004613bef565b6118a6565b61023f610392366004613bef565b61197a565b61023f6103a5366004613bef565b611ad3565b61023f6103b8366004613bef565b611c27565b61023f6103cb366004613bef565b611d8f565b61023f6103de366004613bef565b611e7c565b61023f6103f1366004613bef565b611ffe565b61023f610404366004613bd2565b6120c9565b61023f610417366004613bd2565b612170565b61023f61042a366004613bef565b61221e565b61023f61043d366004613bef565b612343565b61023f610450366004613bef565b612485565b61023f610463366004613bef565b61254e565b61023f610476366004613bd2565b612661565b61023f610489366004613bef565b61271a565b61023f61049c366004613bd2565b6127e3565b61023f6104af366004613bef565b61288e565b61023f6104c2366004613dd6565b612984565b61023f6104d5366004613bef565b612abd565b61023f6104e8366004613bd2565b612bbc565b6104f5612c85565b6104fd612cbf565b6000610507612cd6565b90506001600160a01b0382166105305760405163e6c4247b60e01b815260040160405180910390fd5b6002810180546001600160a01b0319166001600160a01b03841690811790915560408051818152601191810191909152706167656e745661756c74466163746f727960781b606082015260208101919091526000805160206143ec833981519152906080015b60405180910390a15050565b6105aa612c85565b6105b2612cbf565b60006105bc612cd6565b9050620151808210156105e2576040516388e95d8560e01b815260040160405180910390fd5b6105eb82612cfa565b6011820180546001600160401b0392909216600160401b0267ffffffffffffffff60401b19909216919091179055604080518181526018918101919091527f6174746573746174696f6e57696e646f775365636f6e6473000000000000000060608201526020810183905260008051602061440c83398151915290608001610596565b610676612c85565b61067e612cbf565b6000610688612cd6565b60138101549091506106ab90600160401b90046001600160401b03166004613e53565b6106b89062015180613e7c565b6001600160401b03168211156106e1576040516335cec84f60e01b815260040160405180910390fd5b6106ea82612cfa565b6013820180546001600160401b0392909216600160401b0267ffffffffffffffff60401b19909216919091179055604080518181526023918101919091527f6167656e744d696e74696e6743524368616e676554696d656c6f636b5365636f6060820152626e647360e81b60808201526020810183905260008051602061440c8339815191529060a001610596565b610781612c85565b610789612cbf565b6000610793612cd6565b9050600082116107b657604051631e1d0ab560e01b815260040160405180910390fd5b600f8101546107d190600160801b900461ffff166002613e9b565b61ffff168211156107f5576040516313d2afed60e31b815260040160405180910390fd5b600f81015461081190600490600160801b900461ffff16613ece565b61ffff16821015610835576040516348e8562160e11b815260040160405180910390fd5b61083e82612d6b565b600f8201805461ffff92909216600160801b0261ffff60801b1990921691909117905560408051818152601291810191909152716d617852656465656d65645469636b65747360701b60608201526020810183905260008051602061440c83398151915290608001610596565b6108b3612c85565b6108bb612cbf565b60006108c5612cd6565b9050600082116108e857604051631e1d0ab560e01b815260040160405180910390fd5b601081015461090890600160c01b90046001600160401b03166002613e53565b6001600160401b03168211156109315760405163acce294560e01b815260040160405180910390fd5b601081015461095290600290600160c01b90046001600160401b0316613ef2565b6001600160401b031682101561097b576040516369cdc9c360e01b815260040160405180910390fd5b61098482612cfa565b6010820180546001600160401b0392909216600160c01b026001600160c01b03909216919091179055604080518181526019918101919091527f6d61785472757374656450726963654167655365636f6e64730000000000000060608201526020810183905260008051602061440c83398151915290608001610596565b610a0a612c85565b610a12612cbf565b6000610a1c612cd6565b905060008211610a3f57604051631e1d0ab560e01b815260040160405180910390fd5b612710821115610a625760405163fb1fb2d360e01b815260040160405180910390fd5b600c810154610a7d90600160401b900461ffff166004613e9b565b61ffff16821115610aa15760405163acce294560e01b815260040160405180910390fd5b600c810154610abd90600490600160401b900461ffff16613ece565b61ffff16821015610ae1576040516369cdc9c360e01b815260040160405180910390fd5b610aea82612d6b565b600c8201805461ffff92909216600160401b0261ffff60401b1990921691909117905560408051818152601c918101919091527f636f6c6c61746572616c5265736572766174696f6e466565424950530000000060608201526020810183905260008051602061440c83398151915290608001610596565b610b6a612c85565b6000610b74612cd6565b80549091506001600160a01b03848116911614610bf55780546001600160a01b0384166001600160a01b031990911681178255604080518181526016818301527530b9b9b2ba26b0b730b3b2b921b7b73a3937b63632b960511b60608201526020810192909252516000805160206143ec8339815191529181900360800190a15b6000610bff612dce565b9050826001600160a01b0316816001600160a01b031614610c8d576000610c27600183612e3b565b600060608201526001600160a01b03851660208201529050610c4881612e64565b60408051818152600481830152631dd3985d60e21b60608201526001600160a01b038616602082015290516000805160206143ec8339815191529181900360800190a1505b50505050565b610c9b612c85565b610ca3612cbf565b6000610cad612cd6565b6010810154909150610cc9906001600160801b03166004613f20565b610cd69062989680613f42565b6001600160801b0316831115610cff576040516313d2afed60e31b815260040160405180910390fd5b6010810154610d19906004906001600160801b0316613f61565b6001600160801b0316831015610d42576040516348e8562160e11b815260040160405180910390fd5b600f810154610d5d90600160901b900461ffff166004613e9b565b610d68906064613f8f565b61ffff16821115610d8c576040516313d2afed60e31b815260040160405180910390fd5b600f810154610da890600490600160901b900461ffff16613ece565b61ffff16821015610dcc576040516348e8562160e11b815260040160405180910390fd5b610dd583612e7e565b6010820180546001600160801b0319166001600160801b0392909216919091179055610e0082612d6b565b600f8201805461ffff60901b1916600160901b61ffff939093169290920291909117905560408051818152601a818301527f7061796d656e744368616c6c656e676552657761726455534435000000000000606082015260208101859052905160008051602061440c8339815191529181900360800190a160408051818152601a918101919091527f7061796d656e744368616c6c656e67655265776172644249505300000000000060608201526020810183905260008051602061440c833981519152906080015b60405180910390a1505050565b610ede612c85565b610ee6612cbf565b6000610ef0612cd6565b905060008211610f1357604051631e1d0ab560e01b815260040160405180910390fd5b60008311610f3457604051631e1d0ab560e01b815260040160405180910390fd5b600c810154610f4c908490849063ffffffff16612ee7565b610f5583612cfa565b81600d0160136101000a8154816001600160401b0302191690836001600160401b03160217905550610f8682612cfa565b600e8201805467ffffffffffffffff19166001600160401b039290921691909117905560408051818152601a818301527f756e6465726c79696e67426c6f636b73466f725061796d656e74000000000000606082015260208101859052905160008051602061440c833981519152916080908290030190a160408051818152601b918101919091527f756e6465726c79696e675365636f6e6473466f725061796d656e74000000000060608201526020810183905260008051602061440c83398151915290608001610ec9565b61105b612c85565b611063612cbf565b600061106d612f4a565b90506001600160a01b0383166110965760405163e6c4247b60e01b815260040160405180910390fd5b8151156111025760405163278f794360e11b81526001600160a01b03821690634f1ef286906110cb9086908690600401613fef565b600060405180830381600087803b1580156110e557600080fd5b505af11580156110f9573d6000803e3d6000fd5b5050505061115e565b604051631b2ce7f360e11b81526001600160a01b038481166004830152821690633659cfe690602401600060405180830381600087803b15801561114557600080fd5b505af1158015611159573d6000803e3d6000fd5b505050505b604080518181526006918101919091526519905cdcd95d60d21b60608201526001600160a01b03841660208201526000805160206143ec83398151915290608001610ec9565b6111ac612c85565b6111b4612cbf565b60006111be612cd6565b9050603c8210156111e257604051639a721da360e01b815260040160405180910390fd5b6111eb82612f68565b60148201805463ffffffff191663ffffffff92909216919091179055604080518181526022918101919091527f636f6c6c61746572616c506f6f6c546f6b656e54696d656c6f636b5365636f6e606082015261647360f01b60808201526020810183905260008051602061440c8339815191529060a001610596565b61126f612c85565b611277612cbf565b6000611281612cd6565b90506127108210156112a657604051639a721da360e01b815260040160405180910390fd5b6112af82612f68565b60128201805463ffffffff92909216600160801b0263ffffffff60801b19909216919091179055604080518181526024918101919091527f7661756c74436f6c6c61746572616c427579466f72466c617265466163746f726060820152634249505360e01b60808201526020810183905260008051602061440c8339815191529060a001610596565b611340612c85565b611348612cbf565b6000611352612cd6565b90506001600160a01b03821661137b5760405163e6c4247b60e01b815260040160405180910390fd5b6003810180546001600160a01b0319166001600160a01b0384169081179091556040805181815260159181019190915274636f6c6c61746572616c506f6f6c466163746f727960581b606082015260208101919091526000805160206143ec83398151915290608001610596565b6113f1612c85565b6113f9612cbf565b6000611403612cd6565b90506000821161142657604051631e1d0ab560e01b815260040160405180910390fd5b601781015461144690600160401b90046001600160401b03166004613e53565b61145190603c613e7c565b6001600160401b031682111561147a576040516313d2afed60e31b815260040160405180910390fd5b601781015461149b90600490600160401b90046001600160401b0316613ef2565b6001600160401b03168210156114c4576040516348e8562160e11b815260040160405180910390fd5b6114cd82612cfa565b6017820180546001600160401b0392909216600160401b0267ffffffffffffffff60401b199092169190911790556040805181815260209181018290527f6d6178456d657267656e637950617573654475726174696f6e5365636f6e6473606082015290810183905260008051602061440c83398151915290608001610596565b611556612c85565b61155e612cbf565b6000611568612cd6565b90506000821161158b57604051631e1d0ab560e01b815260040160405180910390fd5b60178101546115ab90600160801b90046001600160401b03166004613e53565b6115b790610e10613e7c565b6001600160401b03168211156115e0576040516313d2afed60e31b815260040160405180910390fd5b601781015461160190600490600160801b90046001600160401b0316613ef2565b6001600160401b031682101561162a576040516348e8562160e11b815260040160405180910390fd5b61163382612cfa565b6017820180546001600160401b0392909216600160801b0267ffffffffffffffff60801b19909216919091179055604080518181526027918101919091527f656d657267656e637950617573654475726174696f6e526573657441667465726060820152665365636f6e647360c81b60808201526020810183905260008051602061440c8339815191529060a001610596565b6116ce612c85565b6116d6612cbf565b60006116e0612cd6565b601281015490915061170390600160a01b90046001600160401b03166004613e53565b6117109062093a80613e7c565b6001600160401b0316821115611739576040516335cec84f60e01b815260040160405180910390fd5b61174282612cfa565b6012820180546001600160401b0392909216600160a01b0267ffffffffffffffff60a01b19909216919091179055604080518181526021918101919091527f6167656e7445786974417661696c61626c6554696d656c6f636b5365636f6e646060820152607360f81b60808201526020810183905260008051602061440c8339815191529060a001610596565b6117d7612c85565b6117df612cbf565b60006117e9612f4a565b604051637f4fcaa960e01b81526001600160a01b03848116600483015291925090821690637f4fcaa990602401600060405180830381600087803b15801561183057600080fd5b505af1158015611844573d6000803e3d6000fd5b5050604080518181526019918101919091527f636c65616e7570426c6f636b4e756d6265724d616e616765720000000000000060608201526001600160a01b03851660208201526000805160206143ec83398151915292506080019050610596565b6118ae612c85565b6118b6612cbf565b60006118c0612cd6565b9050610e108210156118e557604051639a721da360e01b815260040160405180910390fd5b6118ee82612cfa565b6013820180546001600160401b0392909216600160c01b026001600160c01b03909216919091179055604080518181526025918101919091527f6167656e7454696d656c6f636b65644f7065726174696f6e57696e646f775365606082015264636f6e647360d81b60808201526020810183905260008051602061440c8339815191529060a001610596565b611982612c85565b61198a612cbf565b6000611994612cd6565b9050600082116119b757604051631e1d0ab560e01b815260040160405180910390fd5b60148101546119d89064010000000090046001600160401b03166002613e53565b6001600160401b0316821115611a01576040516313d2afed60e31b815260040160405180910390fd5b6014810154611a239060029064010000000090046001600160401b0316613ef2565b6001600160401b0316821015611a4c576040516348e8562160e11b815260040160405180910390fd5b611a5582612cfa565b6014820180546001600160401b0392909216640100000000026bffffffffffffffff000000001990921691909117905560408051818152601691810191909152756c69717569646174696f6e537465705365636f6e647360501b60608201526020810183905260008051602061440c83398151915290608001610596565b611adb612c85565b611ae3612cbf565b6000611aed612cd6565b905060008211611b1057604051631e1d0ab560e01b815260040160405180910390fd5b612710821115611b335760405163fb1fb2d360e01b815260040160405180910390fd5b600e810154611b4e90600160401b900461ffff166004613e9b565b61ffff16821115611b725760405163acce294560e01b815260040160405180910390fd5b600e810154611b8e90600490600160401b900461ffff16613ece565b61ffff16821015611bb2576040516369cdc9c360e01b815260040160405180910390fd5b611bbb82612d6b565b600e8201805461ffff92909216600160401b0261ffff60401b199092169190911790556040805181815260119181019190915270726564656d7074696f6e4665654249505360781b60608201526020810183905260008051602061440c83398151915290608001610596565b611c2f612c85565b611c37612cbf565b6000611c41612cd6565b90506127108211611c655760405163db2ff64760e01b815260040160405180910390fd5b600e810154611c889063ffffffff600160501b909104811690612ee090612fcd16565b611c94906103e861401b565b821115611cb45760405163acce294560e01b815260040160405180910390fd5b600e810154611cd79063ffffffff600160501b90910481169061208d90612fcd16565b821015611cf7576040516369cdc9c360e01b815260040160405180910390fd5b611d0082612f68565b600e8201805463ffffffff92909216600160501b0263ffffffff60501b1990921691909117905560408051818152602a918101919091527f726564656d7074696f6e44656661756c74466163746f725661756c74436f6c6c60608201526961746572616c4249505360b01b60808201526020810183905260008051602061440c8339815191529060a001610596565b611d97612c85565b611d9f612cbf565b6000611da9612cd6565b6013810154909150611dc5906001600160401b03166004613e53565b611dd29062015180613e7c565b6001600160401b0316821115611dfb576040516335cec84f60e01b815260040160405180910390fd5b611e0482612cfa565b60138201805467ffffffffffffffff19166001600160401b039290921691909117905560408051818152601d918101919091527f6167656e744665654368616e676554696d656c6f636b5365636f6e647300000060608201526020810183905260008051602061440c83398151915290608001610596565b611e84612c85565b611e8c612cbf565b6000611e96612cd6565b905060008211611eb957604051631e1d0ab560e01b815260040160405180910390fd5b600d810154611ed2906001600160401b0316600a613e53565b6001600160401b0316821115611efb5760405163c1eb125d60e01b815260040160405180910390fd5b600d810154611f1590600a906001600160401b0316613ef2565b6001600160401b0316821015611f3e576040516362b1e00560e11b815260040160405180910390fd5b600d810154600160581b90046001600160401b03161580611f735750600d810154600160581b90046001600160401b03168211155b611f90576040516339897cef60e01b815260040160405180910390fd5b611f9982612cfa565b600d8201805467ffffffffffffffff19166001600160401b039290921691909117905560408051818152600a91810191909152696c6f7453697a65414d4760b01b60608201526020810183905260008051602061440c83398151915290608001610596565b612006612c85565b61200e612cbf565b6000612018612cd6565b90508115806120345750600d8101546001600160401b03168210155b61205157604051639a721da360e01b815260040160405180910390fd5b61205a82612cfa565b81600d01600b6101000a8154816001600160401b0302191690836001600160401b0316021790555060008051602061440c8339815191528260405161059691906040808252600d908201526c6d696e74696e67436170414d4760981b6060820152602081019190915260800190565b6120d1612c85565b6120d9612cbf565b60006120e3612cd6565b90506001600160a01b03821661210c5760405163e6c4247b60e01b815260040160405180910390fd5b600a810180546001600160a01b0319166001600160a01b03841690811790915560408051818152600b918101919091526a383934b1b2a932b0b232b960a91b606082015260208101919091526000805160206143ec83398151915290608001610596565b612178612c85565b612180612cbf565b600061218a612cd6565b90506001600160a01b0382166121b35760405163e6c4247b60e01b815260040160405180910390fd5b6007810180546001600160a01b0319166001600160a01b03841690811790915560408051818152601291810191909152716167656e744f776e6572526567697374727960701b606082015260208101919091526000805160206143ec83398151915290608001610596565b612226612c85565b61222e612cbf565b6000612238612cd6565b90506000821161225b57604051631e1d0ab560e01b815260040160405180910390fd5b600c8101546122719063ffffffff16600261402e565b63ffffffff16821115612297576040516313d2afed60e31b815260040160405180910390fd5b600c8101546122ae9060029063ffffffff1661404d565b63ffffffff168210156122d4576040516348e8562160e11b815260040160405180910390fd5b6122dd82612f68565b600c8201805463ffffffff191663ffffffff92909216919091179055604080518181526012918101919091527161766572616765426c6f636b54696d654d5360701b60608201526020810183905260008051602061440c83398151915290608001610596565b61234b612c85565b612353612cbf565b600061235d612cd6565b90506000821161238057604051631e1d0ab560e01b815260040160405180910390fd5b600f810154612399906001600160801b03166004613f20565b6001600160801b03168211156123c25760405163acce294560e01b815260040160405180910390fd5b600f8101546123dc906004906001600160801b0316613f61565b6001600160801b0316821015612405576040516369cdc9c360e01b815260040160405180910390fd5b61240e82612e7e565b600f820180546001600160801b0319166001600160801b039290921691909117905560408051818152601e918101919091527f636f6e6669726d6174696f6e42794f746865727352657761726455534435000060608201526020810183905260008051602061440c83398151915290608001610596565b61248d612c85565b612495612cbf565b600061249f612cd6565b9050600082116124c257604051631e1d0ab560e01b815260040160405180910390fd5b6124cb82612cfa565b6011820180546001600160401b0392909216600160801b0267ffffffffffffffff60801b1990921691909117905560408051818152601a918101919091527f6d696e55706461746552657065617454696d655365636f6e647300000000000060608201526020810183905260008051602061440c83398151915290608001610596565b612556612c85565b61255e612cbf565b6000612568612cd6565b90506000821161258b57604051631e1d0ab560e01b815260040160405180910390fd5b60108101546125ac90600160801b90046001600160401b0316610258613e7c565b6001600160401b03168211156125d5576040516313d2afed60e31b815260040160405180910390fd5b6125de82612cfa565b6010820180546001600160401b0392909216600160801b0267ffffffffffffffff60801b19909216919091179055604080518181526018918101919091527f7769746864726177616c576169744d696e5365636f6e6473000000000000000060608201526020810183905260008051602061440c83398151915290608001610596565b612669612c85565b612671612cbf565b600061267b612cd6565b90506001600160a01b0382166126a45760405163e6c4247b60e01b815260040160405180910390fd5b6004810180546001600160a01b0319166001600160a01b03841690811790915560408051818152601a918101919091527f636f6c6c61746572616c506f6f6c546f6b656e466163746f7279000000000000606082015260208101919091526000805160206143ec83398151915290608001610596565b612722612c85565b61272a612cbf565b6000612734612cd6565b9050611c2082101561275957604051630c85bd4760e11b815260040160405180910390fd5b61276282612cfa565b600e820180546001600160401b0392909216600160901b0267ffffffffffffffff60901b199092169190911790556040805181815260209181018290527f636f6e6669726d6174696f6e42794f746865727341667465725365636f6e6473606082015290810183905260008051602061440c83398151915290608001610596565b6127eb612c85565b6127f3612cbf565b60006127fd612cd6565b90506001600160a01b0382166128265760405163e6c4247b60e01b815260040160405180910390fd5b6008810180546001600160a01b0319166001600160a01b03841690811790915560408051818152600f918101919091526e333231ab32b934b334b1b0ba34b7b760891b606082015260208101919091526000805160206143ec83398151915290608001610596565b612896612c85565b61289e612cbf565b60006128a8612cd6565b600c810154909150612710906128cd90640100000000900463ffffffff16600461402e565b63ffffffff166128dd919061401b565b8211156128fd576040516335cec84f60e01b815260040160405180910390fd5b61290682612f68565b600c8201805463ffffffff929092166401000000000267ffffffff000000001990921691909117905560408051818152601f918101919091527f6d696e74696e67506f6f6c486f6c64696e67735265717569726564424950530060608201526020810183905260008051602061440c83398151915290608001610596565b61298c612c85565b612994612cbf565b600061299e612cd6565b90506129aa8383612fe3565b6129b8601582016000613b32565b6129c6601682016000613b32565b60005b8351811015612a5657816015016129f88583815181106129eb576129eb614075565b6020026020010151612f68565b81546001810183556000928352602090922063ffffffff90911691015582516016830190612a32908590849081106129eb576129eb614075565b8154600181810184556000938452602090932063ffffffff909216910155016129c9565b507ff8df5a8f8fc0ea5cc0d8aff70643ac14b7353b936a843e23cb08ff282ba7473983604051612a8691906140c7565b60405180910390a17ff8df5a8f8fc0ea5cc0d8aff70643ac14b7353b936a843e23cb08ff282ba7473982604051610ec9919061410e565b612ac5612c85565b612acd612cbf565b6000612ad7612cd6565b6013810154909150612afa90600160801b90046001600160401b03166004613e53565b612b079062015180613e7c565b6001600160401b0316821115612b30576040516335cec84f60e01b815260040160405180910390fd5b612b3982612cfa565b6013820180546001600160401b0392909216600160801b0267ffffffffffffffff60801b1990921691909117905560408051818152601f918101919091527f706f6f6c4578697443524368616e676554696d656c6f636b5365636f6e64730060608201526020810183905260008051602061440c83398151915290608001610596565b612bc4612c85565b612bcc612cbf565b6000612bd6612f4a565b60405163f6a494af60e01b81526001600160a01b0384811660048301529192509082169063f6a494af90602401600060405180830381600087803b158015612c1d57600080fd5b505af1158015612c31573d6000803e3d6000fd5b505060408051818152600f918101919091526e18db19585b995c90dbdb9d1c9858dd608a1b60608201526001600160a01b03851660208201526000805160206143ec83398151915292506080019050610596565b6000612c8f612cd6565b80549091506001600160a01b03163314612cbc57604051634ae14edf60e11b815260040160405180910390fd5b50565b612cd46001600160e01b03196000351661312f565b565b7f4f24f5c433db0962dac0d2c8b84197a6e6c7cc4e5d9ebe1916a1b6193da2f33a90565b60006001600160401b03821115612d675760405162461bcd60e51b815260206004820152602660248201527f53616665436173743a2076616c756520646f65736e27742066697420696e203660448201526534206269747360d01b60648201526084015b60405180910390fd5b5090565b600061ffff821115612d675760405162461bcd60e51b815260206004820152602660248201527f53616665436173743a2076616c756520646f65736e27742066697420696e203160448201526536206269747360d01b6064820152608401612d5e565b7fec7e8c1c441439dd40959777f4c577ea0cd42fcc1dbe59d2bd0f5d9c55df8dc5546000805160206143cc8339815191528054600092829161ffff909116908110612e1b57612e1b614075565b60009182526020909120600490910201546001600160a01b031692915050565b612e43613b50565b6000612e4f84846131c7565b9050612e5a8161326b565b9150505b92915050565b6000612e6f82613437565b9050612e7a81613846565b5050565b60006001600160801b03821115612d675760405162461bcd60e51b815260206004820152602760248201527f53616665436173743a2076616c756520646f65736e27742066697420696e20316044820152663238206269747360c81b6064820152608401612d5e565b62015180821115612f0b576040516318dc18b360e01b815260040160405180910390fd5b620151806103e8612f1c8386614162565b612f269190614179565b1115612f45576040516318dc18b360e01b815260040160405180910390fd5b505050565b600080612f55612cd6565b600101546001600160a01b031692915050565b600063ffffffff821115612d675760405162461bcd60e51b815260206004820152602660248201527f53616665436173743a2076616c756520646f65736e27742066697420696e203360448201526532206269747360d01b6064820152608401612d5e565b6000612fdc83836127106138d1565b9392505050565b8051825114613005576040516322cb666160e01b815260040160405180910390fd5b6001825110156130285760405163e7f61b9f60e01b815260040160405180910390fd5b60005b8251811015612f455761271083828151811061304957613049614075565b60200260200101511161306f576040516319cb132f60e31b815260040160405180910390fd5b82818151811061308157613081614075565b602002602001015182828151811061309b5761309b614075565b602002602001015111156130c2576040516343734f6f60e01b815260040160405180910390fd5b80158061310a5750826130d660018361418d565b815181106130e6576130e6614075565b602002602001015183828151811061310057613100614075565b6020026020010151115b6131275760405163103f13e760e11b815260040160405180910390fd5b60010161302b565b7fc6aafbe0f74bbe68eec7559401d7d311a092b5c4d8feb0452323e4ba73d8d8d1600061315a612cd6565b6000848152602084905260409020549091508015806131975750601182015461319390600160801b90046001600160401b03168261401b565b4210155b6131b457604051630e216b9960e31b815260040160405180910390fd5b5050600091825260205260409020429055565b60006000805160206143cc833981519152817fec7e8c1c441439dd40959777f4c577ea0cd42fcc1dbe59d2bd0f5d9c55df8db78161320587876139d5565b81526020019081526020016000205490506000811161323757604051638698bf3760e01b815260040160405180910390fd5b8161324360018361418d565b8154811061325357613253614075565b90600052602060002090600402019250505092915050565b613273613b50565b60408051610120810190915282548190600160a01b900460ff16600281111561329e5761329e6141a0565b815283546001600160a01b038116602083015260ff600160a81b8204811660408401526001600160401b03600160b01b8304166060840152600160f01b909104161515608082015260018401805460a0909201916132fb906141b6565b80601f0160208091040260200160405190810160405280929190818152602001828054613327906141b6565b80156133745780601f1061334957610100808354040283529160200191613374565b820191906000526020600020905b81548152906001019060200180831161335757829003601f168201915b5050505050815260200183600201805461338d906141b6565b80601f01602080910402602001604051908101604052809291908181526020018280546133b9906141b6565b80156134065780601f106133db57610100808354040283529160200191613406565b820191906000526020600020905b8154815290600101906020018083116133e957829003601f168201915b505050918352505060039093015463ffffffff8082166020860152600160401b909104166040909301929092525090565b60208101516000906000805160206143cc833981519152906001600160a01b03166134755760405163ab42242d60e01b815260040160405180910390fd5b6000613489846000015185602001516139d5565b6000818152600184016020526040902054909150156134bb5760405163c991cbb160e01b815260040160405180910390fd5b6060840151156134de576040516308d5b2cb60e31b815260040160405180910390fd5b60008460e001516127101080156134fe57508461010001518560e0015111155b90508061351e57604051631654ba8b60e11b815260040160405180910390fd5b600061352f8660a0015160006139ff565b505090508060000361355457604051636fdc2d5b60e01b815260040160405180910390fd5b856080015161359557600061356e8760c0015160006139ff565b505090508060000361359357604051636fdc2d5b60e01b815260040160405180910390fd5b505b83546040805161014081019091526020808901516001600160a01b03168252885187929182019060028111156135cd576135cd6141a0565b81526020016135df8a60400151613ad1565b60ff16815260200160006001600160401b031681526020018960800151151581526020018960a0015181526020018960c0015181526020016136248a60e00151612f68565b63ffffffff168152602001600063ffffffff16815260200161364a8a6101000151612f68565b63ffffffff16905281546001810183556000928352602092839020825160049092020180546001600160a01b031981166001600160a01b03909316928317825593830151929390929183916001600160a81b03191617600160a01b8360028111156136b7576136b76141a0565b021790555060408201518154606084015160808501511515600160f01b0260ff60f01b196001600160401b03909216600160b01b0267ffffffffffffffff60b01b1960ff909516600160a81b029490941668ffffffffffffffffff60a81b1990931692909217929092179190911617815560a0820151600182019061373c908261423e565b5060c08201516002820190613751908261423e565b5060e0820151600390910180546101008401516101209094015163ffffffff908116600160401b026bffffffff0000000000000000199582166401000000000267ffffffffffffffff19909316919094161717929092161790556137b681600161401b565b600085815260018701602052604090205586517fc4531f4cebd6a3b1974b381202c861ca7d302755db0d983686b77c75be0484559060028111156137fc576137fc6141a0565b886020015189604001518a608001518b60a001518c60c001518d60e001518e61010001516040516138349897969594939291906142fc565b60405180910390a19695505050505050565b6000805160206143cc833981519152805460009082908490811061386c5761386c614075565b60009182526020909120600490910201905060018154600160a01b900460ff16600281111561389d5761389d6141a0565b146138aa576138aa614360565b6138b383612d6b565b600f92909201805461ffff191661ffff909316929092179091555050565b60008082116138f3576040516323d359a360e01b815260040160405180910390fd5b8360000361390357506000612fdc565b8383028385828161391657613916613eb8565b04036139345782818161392b5761392b613eb8565b04915050612fdc565b5060006139418386614179565b9050600061394f8487614376565b9050600061395d8587614179565b9050600061396b8688614376565b9050856139788285614162565b6139829190614179565b61398c8385614162565b6139968387614162565b886139a18689614162565b6139ab9190614162565b6139b5919061401b565b6139bf919061401b565b6139c9919061401b565b98975050505050505050565b6000816001600160a01b031660a08460028111156139f5576139f56141a0565b901b179392505050565b600080600080613a0d612cd6565b600a8101549091506001600160a01b03168515613a9e5760405163e4a0a55b60e01b81526001600160a01b0382169063e4a0a55b90613a50908a9060040161438a565b606060405180830381865afa158015613a6d573d6000803e3d6000fd5b505050506040513d601f19601f82011682018060405250810190613a91919061439d565b9450945094505050613aca565b60405163524f388960e01b81526001600160a01b0382169063524f388990613a50908a9060040161438a565b9250925092565b600060ff821115612d675760405162461bcd60e51b815260206004820152602560248201527f53616665436173743a2076616c756520646f65736e27742066697420696e2038604482015264206269747360d81b6064820152608401612d5e565b5080546000825590600052602060002090810190612cbc9190613ba8565b604080516101208101909152806000815260200160006001600160a01b031681526020016000815260200160008152602001600015158152602001606081526020016060815260200160008152602001600081525090565b5b80821115612d675760008155600101613ba9565b6001600160a01b0381168114612cbc57600080fd5b600060208284031215613be457600080fd5b8135612fdc81613bbd565b600060208284031215613c0157600080fd5b5035919050565b60008060408385031215613c1b57600080fd5b8235613c2681613bbd565b91506020830135613c3681613bbd565b809150509250929050565b60008060408385031215613c5457600080fd5b50508035926020909101359150565b634e487b7160e01b600052604160045260246000fd5b604051601f8201601f191681016001600160401b0381118282101715613ca157613ca1613c63565b604052919050565b60008060408385031215613cbc57600080fd5b8235613cc781613bbd565b915060208301356001600160401b03811115613ce257600080fd5b8301601f81018513613cf357600080fd5b80356001600160401b03811115613d0c57613d0c613c63565b613d1f601f8201601f1916602001613c79565b818152866020838501011115613d3457600080fd5b816020840160208301376000602083830101528093505050509250929050565b600082601f830112613d6557600080fd5b81356001600160401b03811115613d7e57613d7e613c63565b8060051b613d8e60208201613c79565b91825260208185018101929081019086841115613daa57600080fd5b6020860192505b83831015613dcc578235825260209283019290910190613db1565b9695505050505050565b60008060408385031215613de957600080fd5b82356001600160401b03811115613dff57600080fd5b613e0b85828601613d54565b92505060208301356001600160401b03811115613e2757600080fd5b613e3385828601613d54565b9150509250929050565b634e487b7160e01b600052601160045260246000fd5b6001600160401b038181168382160290811690818114613e7557613e75613e3d565b5092915050565b6001600160401b038181168382160190811115612e5e57612e5e613e3d565b61ffff8181168382160290811690818114613e7557613e75613e3d565b634e487b7160e01b600052601260045260246000fd5b600061ffff831680613ee257613ee2613eb8565b8061ffff84160491505092915050565b60006001600160401b03831680613f0b57613f0b613eb8565b806001600160401b0384160491505092915050565b6001600160801b038181168382160290811690818114613e7557613e75613e3d565b6001600160801b038181168382160190811115612e5e57612e5e613e3d565b60006001600160801b03831680613f7a57613f7a613eb8565b806001600160801b0384160491505092915050565b61ffff8181168382160190811115612e5e57612e5e613e3d565b6000815180845260005b81811015613fcf57602081850181015186830182015201613fb3565b506000602082860101526020601f19601f83011685010191505092915050565b6001600160a01b038316815260406020820181905260009061401390830184613fa9565b949350505050565b80820180821115612e5e57612e5e613e3d565b63ffffffff8181168382160290811690818114613e7557613e75613e3d565b600063ffffffff83168061406357614063613eb8565b8063ffffffff84160491505092915050565b634e487b7160e01b600052603260045260246000fd5b600081518084526020840193506020830160005b828110156140bd57815186526020958601959091019060010161409f565b5093949350505050565b60408152601f60408201527f6c69717569646174696f6e436f6c6c61746572616c466163746f7242495053006060820152608060208201526000612fdc608083018461408b565b60408152602460408201527f6c69717569646174696f6e466163746f725661756c74436f6c6c61746572616c6060820152634249505360e01b608082015260a060208201526000612fdc60a083018461408b565b8082028115828204841417612e5e57612e5e613e3d565b60008261418857614188613eb8565b500490565b81810381811115612e5e57612e5e613e3d565b634e487b7160e01b600052602160045260246000fd5b600181811c908216806141ca57607f821691505b6020821081036141ea57634e487b7160e01b600052602260045260246000fd5b50919050565b601f821115612f4557806000526020600020601f840160051c810160208510156142175750805b601f840160051c820191505b818110156142375760008155600101614223565b5050505050565b81516001600160401b0381111561425757614257613c63565b61426b8161426584546141b6565b846141f0565b6020601f82116001811461429f57600083156142875750848201515b600019600385901b1c1916600184901b178455614237565b600084815260208120601f198516915b828110156142cf57878501518255602094850194600190920191016142af565b50848210156142ed5786840151600019600387901b60f8161c191681555b50505050600190811b01905550565b60ff8916815260018060a01b0388166020820152866040820152851515606082015261010060808201526000614336610100830187613fa9565b82810360a08401526143488187613fa9565b60c0840195909552505060e001529695505050505050565b634e487b7160e01b600052600160045260246000fd5b60008261438557614385613eb8565b500690565b602081526000612fdc6020830184613fa9565b6000806000606084860312156143b257600080fd5b505081516020830151604090930151909492935091905056feec7e8c1c441439dd40959777f4c577ea0cd42fcc1dbe59d2bd0f5d9c55df8db6cb274d507e7a9978f5a8c15929fd58c472b8addc1a9bba454b0c0a49a05c9152ac1fb27759c1e6f9e4a24d4f8c320be6091becb03cea5a95398fa220fca4ac0ea26469706673582212202f5498a5c8c6fd28b34204a6fc410000e98420b3863de9af66c2f7960de33f2b64736f6c634300081b0033",
  "linkReferences": {},
  "deployedLinkReferences": {}
}