{
  "_format": "hh-sol-artifact-1",
  "contractName": "SettingsManagementFacet",
  "sourceName": "contracts/assetManager/facets/SettingsManagementFacet.sol",
  "abi": [
    {
      "inputs": [],
      "name": "AtLeastOneFactorRequired",
      "type": "error"
    },
    {
      "inputs": [],
      "name": "BipsValueTooHigh",
      "type": "error"
    },
    {
      "inputs": [],
      "name": "BipsValueTooLow",
      "type": "error"
    },
    {
      "inputs": [],
      "name": "CannotAddDeprecatedToken",
      "type": "error"
    },
    {
      "inputs": [],
      "name": "CannotBeZero",
      "type": "error"
    },
    {
      "inputs": [],
      "name": "ConfirmationTimeTooBig",
      "type": "error"
    },
    {
      "inputs": [],
      "name": "DecreaseTooBig",
      "type": "error"
    },
    {
      "inputs": [],
      "name": "DivisionByZero",
      "type": "error"
    },
    {
      "inputs": [],
      "name": "EmergencyPauseActive",
      "type": "error"
    },
    {
      "inputs": [],
      "name": "FactorNotAboveOne",
      "type": "error"
    },
    {
      "inputs": [],
      "name": "FactorsNotIncreasing",
      "type": "error"
    },
    {
      "inputs": [],
      "name": "FeeDecreaseTooBig",
      "type": "error"
    },
    {
      "inputs": [],
      "name": "FeeIncreaseTooBig",
      "type": "error"
    },
    {
      "inputs": [],
      "name": "IncreaseTooBig",
      "type": "error"
    },
    {
      "inputs": [],
      "name": "InvalidAddress",
      "type": "error"
    },
    {
      "inputs": [],
      "name": "InvalidCollateralRatios",
      "type": "error"
    },
    {
      "inputs": [],
      "name": "LengthsNotEqual",
      "type": "error"
    },
    {
      "inputs": [],
      "name": "LotSizeBiggerThanMintingCap",
      "type": "error"
    },
    {
      "inputs": [],
      "name": "LotSizeDecreaseTooBig",
      "type": "error"
    },
    {
      "inputs": [],
      "name": "LotSizeIncreaseTooBig",
      "type": "error"
    },
    {
      "inputs": [],
      "name": "MustBeAtLeastTwoHours",
      "type": "error"
    },
    {
      "inputs": [],
      "name": "NotAttached",
      "type": "error"
    },
    {
      "inputs": [],
      "name": "NotWhitelisted",
      "type": "error"
    },
    {
      "inputs": [],
      "name": "OnlyAssetManagerController",
      "type": "error"
    },
    {
      "inputs": [],
      "name": "TokenAlreadyExists",
      "type": "error"
    },
    {
      "inputs": [],
      "name": "TokenZero",
      "type": "error"
    },
    {
      "inputs": [],
      "name": "TooCloseToPreviousUpdate",
      "type": "error"
    },
    {
      "inputs": [],
      "name": "UnknownToken",
      "type": "error"
    },
    {
      "inputs": [],
      "name": "ValueTooBig",
      "type": "error"
    },
    {
      "inputs": [],
      "name": "ValueTooHigh",
      "type": "error"
    },
    {
      "inputs": [],
      "name": "ValueTooSmall",
      "type": "error"
    },
    {
      "inputs": [],
      "name": "VaultCollateralFactorHigherThanTotal",
      "type": "error"
    },
    {
      "inputs": [],
      "name": "WindowTooSmall",
      "type": "error"
    },
    {
      "anonymous": false,
      "inputs": [
        {
          "indexed": true,
          "internalType": "address",
          "name": "agentVault",
          "type": "address"
        },
        {
          "indexed": false,
          "internalType": "uint256",
          "name": "feeBIPS",
          "type": "uint256"
        },
        {
          "indexed": false,
          "internalType": "uint256",
          "name": "mintingVaultCollateralRatioBIPS",
          "type": "uint256"
        },
        {
          "indexed": false,
          "internalType": "uint256",
          "name": "mintingPoolCollateralRatioBIPS",
          "type": "uint256"
        },
        {
          "indexed": false,
          "internalType": "uint256",
          "name": "freeCollateralLots",
          "type": "uint256"
        }
      ],
      "name": "AgentAvailable",
      "type": "event"
    },
    {
      "anonymous": false,
      "inputs": [
        {
          "indexed": true,
          "internalType": "address",
          "name": "agentVault",
          "type": "address"
        },
        {
          "indexed": false,
          "internalType": "uint8",
          "name": "collateralClass",
          "type": "uint8"
        },
        {
          "indexed": false,
          "internalType": "address",
          "name": "token",
          "type": "address"
        }
      ],
      "name": "AgentCollateralTypeChanged",
      "type": "event"
    },
    {
      "anonymous": false,
      "inputs": [
        {
          "indexed": true,
          "internalType": "address",
          "name": "agentVault",
          "type": "address"
        },
        {
          "indexed": false,
          "internalType": "uint256",
          "name": "destroyAllowedAt",
          "type": "uint256"
        }
      ],
      "name": "AgentDestroyAnnounced",
      "type": "event"
    },
    {
      "anonymous": false,
      "inputs": [
        {
          "indexed": true,
          "internalType": "address",
          "name": "agentVault",
          "type": "address"
        }
      ],
      "name": "AgentDestroyed",
      "type": "event"
    },
    {
      "anonymous": false,
      "inputs": [
        {
          "indexed": true,
          "internalType": "address",
          "name": "agentVault",
          "type": "address"
        },
        {
          "indexed": false,
          "internalType": "uint256",
          "name": "timestamp",
          "type": "uint256"
        }
      ],
      "name": "AgentInCCB",
      "type": "event"
    },
    {
      "anonymous": false,
      "inputs": [
        {
          "indexed": true,
          "internalType": "address",
          "name": "agentVault",
          "type": "address"
        },
        {
          "indexed": false,
          "internalType": "string",
          "name": "name",
          "type": "string"
        },
        {
          "indexed": false,
          "internalType": "uint256",
          "name": "value",
          "type": "uint256"
        },
        {
          "indexed": false,
          "internalType": "uint256",
          "name": "validAt",
          "type": "uint256"
        }
      ],
      "name": "AgentSettingChangeAnnounced",
      "type": "event"
    },
    {
      "anonymous": false,
      "inputs": [
        {
          "indexed": true,
          "internalType": "address",
          "name": "agentVault",
          "type": "address"
        },
        {
          "indexed": false,
          "internalType": "string",
          "name": "name",
          "type": "string"
        },
        {
          "indexed": false,
          "internalType": "uint256",
          "name": "value",
          "type": "uint256"
        }
      ],
      "name": "AgentSettingChanged",
      "type": "event"
    },
    {
      "anonymous": false,
      "inputs": [
        {
          "indexed": true,
          "internalType": "address",
          "name": "owner",
          "type": "address"
        },
        {
          "indexed": true,
          "internalType": "address",
          "name": "agentVault",
          "type": "address"
        },
        {
          "components": [
            {
              "internalType": "address",
              "name": "collateralPool",
              "type": "address"
            },
            {
              "internalType": "address",
              "name": "collateralPoolToken",
              "type": "address"
            },
            {
              "internalType": "string",
              "name": "underlyingAddress",
              "type": "string"
            },
            {
              "internalType": "address",
              "name": "vaultCollateralToken",
              "type": "address"
            },
            {
              "internalType": "address",
              "name": "poolWNatToken",
              "type": "address"
            },
            {
              "internalType": "uint256",
              "name": "feeBIPS",
              "type": "uint256"
            },
            {
              "internalType": "uint256",
              "name": "poolFeeShareBIPS",
              "type": "uint256"
            },
            {
              "internalType": "uint256",
              "name": "mintingVaultCollateralRatioBIPS",
              "type": "uint256"
            },
            {
              "internalType": "uint256",
              "name": "mintingPoolCollateralRatioBIPS",
              "type": "uint256"
            },
            {
              "internalType": "uint256",
              "name": "buyFAssetByAgentFactorBIPS",
              "type": "uint256"
            },
            {
              "internalType": "uint256",
              "name": "poolExitCollateralRatioBIPS",
              "type": "uint256"
            },
            {
              "internalType": "uint256",
              "name": "redemptionPoolFeeShareBIPS",
              "type": "uint256"
            }
          ],
          "indexed": false,
          "internalType": "struct IAssetManagerEvents.AgentVaultCreationData",
          "name": "creationData",
          "type": "tuple"
        }
      ],
      "name": "AgentVaultCreated",
      "type": "event"
    },
    {
      "anonymous": false,
      "inputs": [
        {
          "indexed": true,
          "internalType": "address",
          "name": "agentVault",
          "type": "address"
        },
        {
          "indexed": false,
          "internalType": "uint256",
          "name": "exitAllowedAt",
          "type": "uint256"
        }
      ],
      "name": "AvailableAgentExitAnnounced",
      "type": "event"
    },
    {
      "anonymous": false,
      "inputs": [
        {
          "indexed": true,
          "internalType": "address",
          "name": "agentVault",
          "type": "address"
        }
      ],
      "name": "AvailableAgentExited",
      "type": "event"
    },
    {
      "anonymous": false,
      "inputs": [
        {
          "indexed": false,
          "internalType": "uint8",
          "name": "collateralClass",
          "type": "uint8"
        },
        {
          "indexed": false,
          "internalType": "address",
          "name": "collateralToken",
          "type": "address"
        },
        {
          "indexed": false,
          "internalType": "uint256",
          "name": "minCollateralRatioBIPS",
          "type": "uint256"
        },
        {
          "indexed": false,
          "internalType": "uint256",
          "name": "ccbMinCollateralRatioBIPS",
          "type": "uint256"
        },
        {
          "indexed": false,
          "internalType": "uint256",
          "name": "safetyMinCollateralRatioBIPS",
          "type": "uint256"
        }
      ],
      "name": "CollateralRatiosChanged",
      "type": "event"
    },
    {
      "anonymous": false,
      "inputs": [
        {
          "indexed": true,
          "internalType": "address",
          "name": "agentVault",
          "type": "address"
        },
        {
          "indexed": true,
          "internalType": "address",
          "name": "minter",
          "type": "address"
        },
        {
          "indexed": true,
          "internalType": "uint256",
          "name": "collateralReservationId",
          "type": "uint256"
        },
        {
          "indexed": false,
          "internalType": "uint256",
          "name": "reservedAmountUBA",
          "type": "uint256"
        }
      ],
      "name": "CollateralReservationDeleted",
      "type": "event"
    },
    {
      "anonymous": false,
      "inputs": [
        {
          "indexed": true,
          "internalType": "address",
          "name": "agentVault",
          "type": "address"
        },
        {
          "indexed": true,
          "internalType": "address",
          "name": "minter",
          "type": "address"
        },
        {
          "indexed": true,
          "internalType": "uint256",
          "name": "collateralReservationId",
          "type": "uint256"
        },
        {
          "indexed": false,
          "internalType": "uint256",
          "name": "valueUBA",
          "type": "uint256"
        },
        {
          "indexed": false,
          "internalType": "uint256",
          "name": "feeUBA",
          "type": "uint256"
        },
        {
          "indexed": false,
          "internalType": "uint256",
          "name": "firstUnderlyingBlock",
          "type": "uint256"
        },
        {
          "indexed": false,
          "internalType": "uint256",
          "name": "lastUnderlyingBlock",
          "type": "uint256"
        },
        {
          "indexed": false,
          "internalType": "uint256",
          "name": "lastUnderlyingTimestamp",
          "type": "uint256"
        },
        {
          "indexed": false,
          "internalType": "string",
          "name": "paymentAddress",
          "type": "string"
        },
        {
          "indexed": false,
          "internalType": "bytes32",
          "name": "paymentReference",
          "type": "bytes32"
        },
        {
          "indexed": false,
          "internalType": "address",
          "name": "executor",
          "type": "address"
        },
        {
          "indexed": false,
          "internalType": "uint256",
          "name": "executorFeeNatWei",
          "type": "uint256"
        }
      ],
      "name": "CollateralReserved",
      "type": "event"
    },
    {
      "anonymous": false,
      "inputs": [
        {
          "indexed": false,
          "internalType": "uint8",
          "name": "collateralClass",
          "type": "uint8"
        },
        {
          "indexed": false,
          "internalType": "address",
          "name": "token",
          "type": "address"
        },
        {
          "indexed": false,
          "internalType": "uint256",
          "name": "decimals",
          "type": "uint256"
        },
        {
          "indexed": false,
          "internalType": "bool",
          "name": "directPricePair",
          "type": "bool"
        },
        {
          "indexed": false,
          "internalType": "string",
          "name": "assetFtsoSymbol",
          "type": "string"
        },
        {
          "indexed": false,
          "internalType": "string",
          "name": "tokenFtsoSymbol",
          "type": "string"
        },
        {
          "indexed": false,
          "internalType": "uint256",
          "name": "minCollateralRatioBIPS",
          "type": "uint256"
        },
        {
          "indexed": false,
          "internalType": "uint256",
          "name": "ccbMinCollateralRatioBIPS",
          "type": "uint256"
        },
        {
          "indexed": false,
          "internalType": "uint256",
          "name": "safetyMinCollateralRatioBIPS",
          "type": "uint256"
        }
      ],
      "name": "CollateralTypeAdded",
      "type": "event"
    },
    {
      "anonymous": false,
      "inputs": [
        {
          "indexed": false,
          "internalType": "uint8",
          "name": "collateralClass",
          "type": "uint8"
        },
        {
          "indexed": false,
          "internalType": "address",
          "name": "collateralToken",
          "type": "address"
        },
        {
          "indexed": false,
          "internalType": "uint256",
          "name": "validUntil",
          "type": "uint256"
        }
      ],
      "name": "CollateralTypeDeprecated",
      "type": "event"
    },
    {
      "anonymous": false,
      "inputs": [
        {
          "indexed": false,
          "internalType": "string",
          "name": "name",
          "type": "string"
        },
        {
          "indexed": false,
          "internalType": "address",
          "name": "value",
          "type": "address"
        }
      ],
      "name": "ContractChanged",
      "type": "event"
    },
    {
      "anonymous": false,
      "inputs": [
        {
          "indexed": false,
          "internalType": "uint256",
          "name": "underlyingBlockNumber",
          "type": "uint256"
        },
        {
          "indexed": false,
          "internalType": "uint256",
          "name": "underlyingBlockTimestamp",
          "type": "uint256"
        },
        {
          "indexed": false,
          "internalType": "uint256",
          "name": "updatedAt",
          "type": "uint256"
        }
      ],
      "name": "CurrentUnderlyingBlockUpdated",
      "type": "event"
    },
    {
      "anonymous": false,
      "inputs": [
        {
          "indexed": true,
          "internalType": "address",
          "name": "agentVault",
          "type": "address"
        },
        {
          "indexed": false,
          "internalType": "bytes32",
          "name": "transactionHash1",
          "type": "bytes32"
        },
        {
          "indexed": false,
          "internalType": "bytes32",
          "name": "transactionHash2",
          "type": "bytes32"
        }
      ],
      "name": "DuplicatePaymentConfirmed",
      "type": "event"
    },
    {
      "anonymous": false,
      "inputs": [
        {
          "indexed": true,
          "internalType": "address",
          "name": "agentVault",
          "type": "address"
        },
        {
          "indexed": false,
          "internalType": "uint256",
          "name": "dustUBA",
          "type": "uint256"
        }
      ],
      "name": "DustChanged",
      "type": "event"
    },
    {
      "anonymous": false,
      "inputs": [],
      "name": "EmergencyPauseCanceled",
      "type": "event"
    },
    {
      "anonymous": false,
      "inputs": [],
      "name": "EmergencyPauseTransfersCanceled",
      "type": "event"
    },
    {
      "anonymous": false,
      "inputs": [
        {
          "indexed": false,
          "internalType": "uint256",
          "name": "pausedUntil",
          "type": "uint256"
        }
      ],
      "name": "EmergencyPauseTransfersTriggered",
      "type": "event"
    },
    {
      "anonymous": false,
      "inputs": [
        {
          "indexed": false,
          "internalType": "uint256",
          "name": "pausedUntil",
          "type": "uint256"
        }
      ],
      "name": "EmergencyPauseTriggered",
      "type": "event"
    },
    {
      "anonymous": false,
      "inputs": [
        {
          "indexed": true,
          "internalType": "address",
          "name": "agentVault",
          "type": "address"
        },
        {
          "indexed": false,
          "internalType": "uint256",
          "name": "timestamp",
          "type": "uint256"
        }
      ],
      "name": "FullLiquidationStarted",
      "type": "event"
    },
    {
      "anonymous": false,
      "inputs": [
        {
          "indexed": true,
          "internalType": "address",
          "name": "agentVault",
          "type": "address"
        },
        {
          "indexed": false,
          "internalType": "bytes32",
          "name": "transactionHash",
          "type": "bytes32"
        }
      ],
      "name": "IllegalPaymentConfirmed",
      "type": "event"
    },
    {
      "anonymous": false,
      "inputs": [
        {
          "indexed": true,
          "internalType": "address",
          "name": "agentVault",
          "type": "address"
        }
      ],
      "name": "LiquidationEnded",
      "type": "event"
    },
    {
      "anonymous": false,
      "inputs": [
        {
          "indexed": true,
          "internalType": "address",
          "name": "agentVault",
          "type": "address"
        },
        {
          "indexed": true,
          "internalType": "address",
          "name": "liquidator",
          "type": "address"
        },
        {
          "indexed": false,
          "internalType": "uint256",
          "name": "valueUBA",
          "type": "uint256"
        },
        {
          "indexed": false,
          "internalType": "uint256",
          "name": "paidVaultCollateralWei",
          "type": "uint256"
        },
        {
          "indexed": false,
          "internalType": "uint256",
          "name": "paidPoolCollateralWei",
          "type": "uint256"
        }
      ],
      "name": "LiquidationPerformed",
      "type": "event"
    },
    {
      "anonymous": false,
      "inputs": [
        {
          "indexed": true,
          "internalType": "address",
          "name": "agentVault",
          "type": "address"
        },
        {
          "indexed": false,
          "internalType": "uint256",
          "name": "timestamp",
          "type": "uint256"
        }
      ],
      "name": "LiquidationStarted",
      "type": "event"
    },
    {
      "anonymous": false,
      "inputs": [
        {
          "indexed": true,
          "internalType": "address",
          "name": "agentVault",
          "type": "address"
        },
        {
          "indexed": true,
          "internalType": "uint256",
          "name": "collateralReservationId",
          "type": "uint256"
        },
        {
          "indexed": false,
          "internalType": "uint256",
          "name": "mintedAmountUBA",
          "type": "uint256"
        },
        {
          "indexed": false,
          "internalType": "uint256",
          "name": "agentFeeUBA",
          "type": "uint256"
        },
        {
          "indexed": false,
          "internalType": "uint256",
          "name": "poolFeeUBA",
          "type": "uint256"
        }
      ],
      "name": "MintingExecuted",
      "type": "event"
    },
    {
      "anonymous": false,
      "inputs": [
        {
          "indexed": true,
          "internalType": "address",
          "name": "agentVault",
          "type": "address"
        },
        {
          "indexed": true,
          "internalType": "address",
          "name": "minter",
          "type": "address"
        },
        {
          "indexed": true,
          "internalType": "uint256",
          "name": "collateralReservationId",
          "type": "uint256"
        },
        {
          "indexed": false,
          "internalType": "uint256",
          "name": "reservedAmountUBA",
          "type": "uint256"
        }
      ],
      "name": "MintingPaymentDefault",
      "type": "event"
    },
    {
      "anonymous": false,
      "inputs": [
        {
          "indexed": true,
          "internalType": "address",
          "name": "agentVault",
          "type": "address"
        },
        {
          "indexed": false,
          "internalType": "uint256",
          "name": "amountWei",
          "type": "uint256"
        },
        {
          "indexed": false,
          "internalType": "uint256",
          "name": "withdrawalAllowedAt",
          "type": "uint256"
        }
      ],
      "name": "PoolTokenRedemptionAnnounced",
      "type": "event"
    },
    {
      "anonymous": false,
      "inputs": [
        {
          "indexed": true,
          "internalType": "address",
          "name": "agentVault",
          "type": "address"
        },
        {
          "indexed": true,
          "internalType": "address",
          "name": "redeemer",
          "type": "address"
        },
        {
          "indexed": false,
          "internalType": "uint256",
          "name": "redemptionAmountUBA",
          "type": "uint256"
        },
        {
          "indexed": false,
          "internalType": "uint256",
          "name": "paidVaultCollateralWei",
          "type": "uint256"
        }
      ],
      "name": "RedeemedInCollateral",
      "type": "event"
    },
    {
      "anonymous": false,
      "inputs": [
        {
          "indexed": true,
          "internalType": "address",
          "name": "agentVault",
          "type": "address"
        },
        {
          "indexed": true,
          "internalType": "address",
          "name": "redeemer",
          "type": "address"
        },
        {
          "indexed": true,
          "internalType": "uint256",
          "name": "requestId",
          "type": "uint256"
        },
        {
          "indexed": false,
          "internalType": "uint256",
          "name": "redemptionAmountUBA",
          "type": "uint256"
        },
        {
          "indexed": false,
          "internalType": "uint256",
          "name": "redeemedVaultCollateralWei",
          "type": "uint256"
        },
        {
          "indexed": false,
          "internalType": "uint256",
          "name": "redeemedPoolCollateralWei",
          "type": "uint256"
        }
      ],
      "name": "RedemptionDefault",
      "type": "event"
    },
    {
      "anonymous": false,
      "inputs": [
        {
          "indexed": true,
          "internalType": "address",
          "name": "agentVault",
          "type": "address"
        },
        {
          "indexed": true,
          "internalType": "address",
          "name": "redeemer",
          "type": "address"
        },
        {
          "indexed": true,
          "internalType": "uint256",
          "name": "requestId",
          "type": "uint256"
        },
        {
          "indexed": false,
          "internalType": "bytes32",
          "name": "transactionHash",
          "type": "bytes32"
        },
        {
          "indexed": false,
          "internalType": "uint256",
          "name": "redemptionAmountUBA",
          "type": "uint256"
        },
        {
          "indexed": false,
          "internalType": "int256",
          "name": "spentUnderlyingUBA",
          "type": "int256"
        }
      ],
      "name": "RedemptionPaymentBlocked",
      "type": "event"
    },
    {
      "anonymous": false,
      "inputs": [
        {
          "indexed": true,
          "internalType": "address",
          "name": "agentVault",
          "type": "address"
        },
        {
          "indexed": true,
          "internalType": "address",
          "name": "redeemer",
          "type": "address"
        },
        {
          "indexed": true,
          "internalType": "uint256",
          "name": "requestId",
          "type": "uint256"
        },
        {
          "indexed": false,
          "internalType": "bytes32",
          "name": "transactionHash",
          "type": "bytes32"
        },
        {
          "indexed": false,
          "internalType": "int256",
          "name": "spentUnderlyingUBA",
          "type": "int256"
        },
        {
          "indexed": false,
          "internalType": "string",
          "name": "failureReason",
          "type": "string"
        }
      ],
      "name": "RedemptionPaymentFailed",
      "type": "event"
    },
    {
      "anonymous": false,
      "inputs": [
        {
          "indexed": true,
          "internalType": "address",
          "name": "agentVault",
          "type": "address"
        },
        {
          "indexed": true,
          "internalType": "address",
          "name": "redeemer",
          "type": "address"
        },
        {
          "indexed": true,
          "internalType": "uint256",
          "name": "requestId",
          "type": "uint256"
        },
        {
          "indexed": false,
          "internalType": "bytes32",
          "name": "transactionHash",
          "type": "bytes32"
        },
        {
          "indexed": false,
          "internalType": "uint256",
          "name": "redemptionAmountUBA",
          "type": "uint256"
        },
        {
          "indexed": false,
          "internalType": "int256",
          "name": "spentUnderlyingUBA",
          "type": "int256"
        }
      ],
      "name": "RedemptionPerformed",
      "type": "event"
    },
    {
      "anonymous": false,
      "inputs": [
        {
          "indexed": true,
          "internalType": "address",
          "name": "agentVault",
          "type": "address"
        },
        {
          "indexed": true,
          "internalType": "uint256",
          "name": "requestId",
          "type": "uint256"
        },
        {
          "indexed": false,
          "internalType": "uint256",
          "name": "poolFeeUBA",
          "type": "uint256"
        }
      ],
      "name": "RedemptionPoolFeeMinted",
      "type": "event"
    },
    {
      "anonymous": false,
      "inputs": [
        {
          "indexed": true,
          "internalType": "address",
          "name": "agentVault",
          "type": "address"
        },
        {
          "indexed": true,
          "internalType": "address",
          "name": "redeemer",
          "type": "address"
        },
        {
          "indexed": true,
          "internalType": "uint256",
          "name": "requestId",
          "type": "uint256"
        },
        {
          "indexed": false,
          "internalType": "uint256",
          "name": "redemptionAmountUBA",
          "type": "uint256"
        }
      ],
      "name": "RedemptionRejected",
      "type": "event"
    },
    {
      "anonymous": false,
      "inputs": [
        {
          "indexed": true,
          "internalType": "address",
          "name": "redeemer",
          "type": "address"
        },
        {
          "indexed": false,
          "internalType": "uint256",
          "name": "remainingLots",
          "type": "uint256"
        }
      ],
      "name": "RedemptionRequestIncomplete",
      "type": "event"
    },
    {
      "anonymous": false,
      "inputs": [
        {
          "indexed": true,
          "internalType": "address",
          "name": "agentVault",
          "type": "address"
        },
        {
          "indexed": true,
          "internalType": "address",
          "name": "redeemer",
          "type": "address"
        },
        {
          "indexed": true,
          "internalType": "uint256",
          "name": "requestId",
          "type": "uint256"
        },
        {
          "indexed": false,
          "internalType": "string",
          "name": "paymentAddress",
          "type": "string"
        },
        {
          "indexed": false,
          "internalType": "uint256",
          "name": "valueUBA",
          "type": "uint256"
        },
        {
          "indexed": false,
          "internalType": "uint256",
          "name": "feeUBA",
          "type": "uint256"
        },
        {
          "indexed": false,
          "internalType": "uint256",
          "name": "firstUnderlyingBlock",
          "type": "uint256"
        },
        {
          "indexed": false,
          "internalType": "uint256",
          "name": "lastUnderlyingBlock",
          "type": "uint256"
        },
        {
          "indexed": false,
          "internalType": "uint256",
          "name": "lastUnderlyingTimestamp",
          "type": "uint256"
        },
        {
          "indexed": false,
          "internalType": "bytes32",
          "name": "paymentReference",
          "type": "bytes32"
        },
        {
          "indexed": false,
          "internalType": "address",
          "name": "executor",
          "type": "address"
        },
        {
          "indexed": false,
          "internalType": "uint256",
          "name": "executorFeeNatWei",
          "type": "uint256"
        }
      ],
      "name": "RedemptionRequested",
      "type": "event"
    },
    {
      "anonymous": false,
      "inputs": [
        {
          "indexed": true,
          "internalType": "address",
          "name": "agentVault",
          "type": "address"
        },
        {
          "indexed": true,
          "internalType": "uint256",
          "name": "redemptionTicketId",
          "type": "uint256"
        },
        {
          "indexed": false,
          "internalType": "uint256",
          "name": "ticketValueUBA",
          "type": "uint256"
        }
      ],
      "name": "RedemptionTicketCreated",
      "type": "event"
    },
    {
      "anonymous": false,
      "inputs": [
        {
          "indexed": true,
          "internalType": "address",
          "name": "agentVault",
          "type": "address"
        },
        {
          "indexed": true,
          "internalType": "uint256",
          "name": "redemptionTicketId",
          "type": "uint256"
        }
      ],
      "name": "RedemptionTicketDeleted",
      "type": "event"
    },
    {
      "anonymous": false,
      "inputs": [
        {
          "indexed": true,
          "internalType": "address",
          "name": "agentVault",
          "type": "address"
        },
        {
          "indexed": true,
          "internalType": "uint256",
          "name": "redemptionTicketId",
          "type": "uint256"
        },
        {
          "indexed": false,
          "internalType": "uint256",
          "name": "ticketValueUBA",
          "type": "uint256"
        }
      ],
      "name": "RedemptionTicketUpdated",
      "type": "event"
    },
    {
      "anonymous": false,
      "inputs": [
        {
          "indexed": true,
          "internalType": "address",
          "name": "agentVault",
          "type": "address"
        },
        {
          "indexed": false,
          "internalType": "uint256",
          "name": "valueUBA",
          "type": "uint256"
        }
      ],
      "name": "SelfClose",
      "type": "event"
    },
    {
      "anonymous": false,
      "inputs": [
        {
          "indexed": true,
          "internalType": "address",
          "name": "agentVault",
          "type": "address"
        },
        {
          "indexed": false,
          "internalType": "bool",
          "name": "mintFromFreeUnderlying",
          "type": "bool"
        },
        {
          "indexed": false,
          "internalType": "uint256",
          "name": "mintedAmountUBA",
          "type": "uint256"
        },
        {
          "indexed": false,
          "internalType": "uint256",
          "name": "depositedAmountUBA",
          "type": "uint256"
        },
        {
          "indexed": false,
          "internalType": "uint256",
          "name": "poolFeeUBA",
          "type": "uint256"
        }
      ],
      "name": "SelfMint",
      "type": "event"
    },
    {
      "anonymous": false,
      "inputs": [
        {
          "indexed": false,
          "internalType": "string",
          "name": "name",
          "type": "string"
        },
        {
          "indexed": false,
          "internalType": "uint256[]",
          "name": "value",
          "type": "uint256[]"
        }
      ],
      "name": "SettingArrayChanged",
      "type": "event"
    },
    {
      "anonymous": false,
      "inputs": [
        {
          "indexed": false,
          "internalType": "string",
          "name": "name",
          "type": "string"
        },
        {
          "indexed": false,
          "internalType": "uint256",
          "name": "value",
          "type": "uint256"
        }
      ],
      "name": "SettingChanged",
      "type": "event"
    },
    {
      "anonymous": false,
      "inputs": [
        {
          "indexed": true,
          "internalType": "address",
          "name": "agentVault",
          "type": "address"
        },
        {
          "indexed": false,
          "internalType": "int256",
          "name": "underlyingBalanceUBA",
          "type": "int256"
        }
      ],
      "name": "UnderlyingBalanceChanged",
      "type": "event"
    },
    {
      "anonymous": false,
      "inputs": [
        {
          "indexed": true,
          "internalType": "address",
          "name": "agentVault",
          "type": "address"
        },
        {
          "indexed": false,
          "internalType": "int256",
          "name": "balance",
          "type": "int256"
        },
        {
          "indexed": false,
          "internalType": "uint256",
          "name": "requiredBalance",
          "type": "uint256"
        }
      ],
      "name": "UnderlyingBalanceTooLow",
      "type": "event"
    },
    {
      "anonymous": false,
      "inputs": [
        {
          "indexed": true,
          "internalType": "address",
          "name": "agentVault",
          "type": "address"
        },
        {
          "indexed": false,
          "internalType": "bytes32",
          "name": "transactionHash",
          "type": "bytes32"
        },
        {
          "indexed": false,
          "internalType": "uint256",
          "name": "depositedUBA",
          "type": "uint256"
        }
      ],
      "name": "UnderlyingBalanceToppedUp",
      "type": "event"
    },
    {
      "anonymous": false,
      "inputs": [
        {
          "indexed": true,
          "internalType": "address",
          "name": "agentVault",
          "type": "address"
        },
        {
          "indexed": true,
          "internalType": "uint256",
          "name": "announcementId",
          "type": "uint256"
        },
        {
          "indexed": false,
          "internalType": "bytes32",
          "name": "paymentReference",
          "type": "bytes32"
        }
      ],
      "name": "UnderlyingWithdrawalAnnounced",
      "type": "event"
    },
    {
      "anonymous": false,
      "inputs": [
        {
          "indexed": true,
          "internalType": "address",
          "name": "agentVault",
          "type": "address"
        },
        {
          "indexed": true,
          "internalType": "uint256",
          "name": "announcementId",
          "type": "uint256"
        }
      ],
      "name": "UnderlyingWithdrawalCancelled",
      "type": "event"
    },
    {
      "anonymous": false,
      "inputs": [
        {
          "indexed": true,
          "internalType": "address",
          "name": "agentVault",
          "type": "address"
        },
        {
          "indexed": true,
          "internalType": "uint256",
          "name": "announcementId",
          "type": "uint256"
        },
        {
          "indexed": false,
          "internalType": "int256",
          "name": "spentUBA",
          "type": "int256"
        },
        {
          "indexed": false,
          "internalType": "bytes32",
          "name": "transactionHash",
          "type": "bytes32"
        }
      ],
      "name": "UnderlyingWithdrawalConfirmed",
      "type": "event"
    },
    {
      "anonymous": false,
      "inputs": [
        {
          "indexed": true,
          "internalType": "address",
          "name": "agentVault",
          "type": "address"
        },
        {
          "indexed": false,
          "internalType": "uint256",
          "name": "amountWei",
          "type": "uint256"
        },
        {
          "indexed": false,
          "internalType": "uint256",
          "name": "withdrawalAllowedAt",
          "type": "uint256"
        }
      ],
      "name": "VaultCollateralWithdrawalAnnounced",
      "type": "event"
    },
    {
      "inputs": [
        {
          "internalType": "uint256",
          "name": "_value",
          "type": "uint256"
        }
      ],
      "name": "setAgentExitAvailableTimelockSeconds",
      "outputs": [],
      "stateMutability": "nonpayable",
      "type": "function"
    },
    {
      "inputs": [
        {
          "internalType": "uint256",
          "name": "_value",
          "type": "uint256"
        }
      ],
      "name": "setAgentFeeChangeTimelockSeconds",
      "outputs": [],
      "stateMutability": "nonpayable",
      "type": "function"
    },
    {
      "inputs": [
        {
          "internalType": "uint256",
          "name": "_value",
          "type": "uint256"
        }
      ],
      "name": "setAgentMintingCRChangeTimelockSeconds",
      "outputs": [],
      "stateMutability": "nonpayable",
      "type": "function"
    },
    {
      "inputs": [
        {
          "internalType": "address",
          "name": "_value",
          "type": "address"
        }
      ],
      "name": "setAgentOwnerRegistry",
      "outputs": [],
      "stateMutability": "nonpayable",
      "type": "function"
    },
    {
      "inputs": [
        {
          "internalType": "uint256",
          "name": "_value",
          "type": "uint256"
        }
      ],
      "name": "setAgentTimelockedOperationWindowSeconds",
      "outputs": [],
      "stateMutability": "nonpayable",
      "type": "function"
    },
    {
      "inputs": [
        {
          "internalType": "address",
          "name": "_value",
          "type": "address"
        }
      ],
      "name": "setAgentVaultFactory",
      "outputs": [],
      "stateMutability": "nonpayable",
      "type": "function"
    },
    {
      "inputs": [
        {
          "internalType": "uint256",
          "name": "_value",
          "type": "uint256"
        }
      ],
      "name": "setAttestationWindowSeconds",
      "outputs": [],
      "stateMutability": "nonpayable",
      "type": "function"
    },
    {
      "inputs": [
        {
          "internalType": "uint256",
          "name": "_value",
          "type": "uint256"
        }
      ],
      "name": "setAverageBlockTimeMS",
      "outputs": [],
      "stateMutability": "nonpayable",
      "type": "function"
    },
    {
      "inputs": [
        {
          "internalType": "uint256",
          "name": "_value",
          "type": "uint256"
        }
      ],
      "name": "setCcbTimeSeconds",
      "outputs": [],
      "stateMutability": "nonpayable",
      "type": "function"
    },
    {
      "inputs": [
        {
          "internalType": "address",
          "name": "_value",
          "type": "address"
        }
      ],
      "name": "setCleanerContract",
      "outputs": [],
      "stateMutability": "nonpayable",
      "type": "function"
    },
    {
      "inputs": [
        {
          "internalType": "address",
          "name": "_value",
          "type": "address"
        }
      ],
      "name": "setCleanupBlockNumberManager",
      "outputs": [],
      "stateMutability": "nonpayable",
      "type": "function"
    },
    {
      "inputs": [
        {
          "internalType": "address",
          "name": "_value",
          "type": "address"
        }
      ],
      "name": "setCollateralPoolFactory",
      "outputs": [],
      "stateMutability": "nonpayable",
      "type": "function"
    },
    {
      "inputs": [
        {
          "internalType": "address",
          "name": "_value",
          "type": "address"
        }
      ],
      "name": "setCollateralPoolTokenFactory",
      "outputs": [],
      "stateMutability": "nonpayable",
      "type": "function"
    },
    {
      "inputs": [
        {
          "internalType": "uint256",
          "name": "_value",
          "type": "uint256"
        }
      ],
      "name": "setCollateralPoolTokenTimelockSeconds",
      "outputs": [],
      "stateMutability": "nonpayable",
      "type": "function"
    },
    {
      "inputs": [
        {
          "internalType": "uint256",
          "name": "_value",
          "type": "uint256"
        }
      ],
      "name": "setCollateralReservationFeeBips",
      "outputs": [],
      "stateMutability": "nonpayable",
      "type": "function"
    },
    {
      "inputs": [
        {
          "internalType": "uint256",
          "name": "_value",
          "type": "uint256"
        }
      ],
      "name": "setConfirmationByOthersAfterSeconds",
      "outputs": [],
      "stateMutability": "nonpayable",
      "type": "function"
    },
    {
      "inputs": [
        {
          "internalType": "uint256",
          "name": "_value",
          "type": "uint256"
        }
      ],
      "name": "setConfirmationByOthersRewardUSD5",
      "outputs": [],
      "stateMutability": "nonpayable",
      "type": "function"
    },
    {
      "inputs": [
        {
          "internalType": "uint256",
          "name": "_value",
          "type": "uint256"
        }
      ],
      "name": "setEmergencyPauseDurationResetAfterSeconds",
      "outputs": [],
      "stateMutability": "nonpayable",
      "type": "function"
    },
    {
      "inputs": [
        {
          "internalType": "address",
          "name": "_value",
          "type": "address"
        }
      ],
      "name": "setFdcVerification",
      "outputs": [],
      "stateMutability": "nonpayable",
      "type": "function"
    },
    {
      "inputs": [
        {
          "internalType": "uint256[]",
          "name": "_liquidationFactors",
          "type": "uint256[]"
        },
        {
          "internalType": "uint256[]",
          "name": "_vaultCollateralFactors",
          "type": "uint256[]"
        }
      ],
      "name": "setLiquidationPaymentFactors",
      "outputs": [],
      "stateMutability": "nonpayable",
      "type": "function"
    },
    {
      "inputs": [
        {
          "internalType": "uint256",
          "name": "_stepSeconds",
          "type": "uint256"
        }
      ],
      "name": "setLiquidationStepSeconds",
      "outputs": [],
      "stateMutability": "nonpayable",
      "type": "function"
    },
    {
      "inputs": [
        {
          "internalType": "uint256",
          "name": "_value",
          "type": "uint256"
        }
      ],
      "name": "setLotSizeAmg",
      "outputs": [],
      "stateMutability": "nonpayable",
      "type": "function"
    },
    {
      "inputs": [
        {
          "internalType": "uint256",
          "name": "_value",
          "type": "uint256"
        }
      ],
      "name": "setMaxEmergencyPauseDurationSeconds",
      "outputs": [],
      "stateMutability": "nonpayable",
      "type": "function"
    },
    {
      "inputs": [
        {
          "internalType": "uint256",
          "name": "_value",
          "type": "uint256"
        }
      ],
      "name": "setMaxRedeemedTickets",
      "outputs": [],
      "stateMutability": "nonpayable",
      "type": "function"
    },
    {
      "inputs": [
        {
          "internalType": "uint256",
          "name": "_value",
          "type": "uint256"
        }
      ],
      "name": "setMaxTrustedPriceAgeSeconds",
      "outputs": [],
      "stateMutability": "nonpayable",
      "type": "function"
    },
    {
      "inputs": [
        {
          "internalType": "uint256",
          "name": "_value",
          "type": "uint256"
        }
      ],
      "name": "setMinUpdateRepeatTimeSeconds",
      "outputs": [],
      "stateMutability": "nonpayable",
      "type": "function"
    },
    {
      "inputs": [
        {
          "internalType": "uint256",
          "name": "_value",
          "type": "uint256"
        }
      ],
      "name": "setMintingCapAmg",
      "outputs": [],
      "stateMutability": "nonpayable",
      "type": "function"
    },
    {
      "inputs": [
        {
          "internalType": "uint256",
          "name": "_value",
          "type": "uint256"
        }
      ],
      "name": "setMintingPoolHoldingsRequiredBIPS",
      "outputs": [],
      "stateMutability": "nonpayable",
      "type": "function"
    },
    {
      "inputs": [
        {
          "internalType": "uint256",
          "name": "_rewardNATWei",
          "type": "uint256"
        },
        {
          "internalType": "uint256",
          "name": "_rewardBIPS",
          "type": "uint256"
        }
      ],
      "name": "setPaymentChallengeReward",
      "outputs": [],
      "stateMutability": "nonpayable",
      "type": "function"
    },
    {
      "inputs": [
        {
          "internalType": "uint256",
          "name": "_value",
          "type": "uint256"
        }
      ],
      "name": "setPoolExitCRChangeTimelockSeconds",
      "outputs": [],
      "stateMutability": "nonpayable",
      "type": "function"
    },
    {
      "inputs": [
        {
          "internalType": "address",
          "name": "_value",
          "type": "address"
        }
      ],
      "name": "setPriceReader",
      "outputs": [],
      "stateMutability": "nonpayable",
      "type": "function"
    },
    {
      "inputs": [
        {
          "internalType": "uint256",
          "name": "_value",
          "type": "uint256"
        }
      ],
      "name": "setRedemptionDefaultFactorVaultCollateralBIPS",
      "outputs": [],
      "stateMutability": "nonpayable",
      "type": "function"
    },
    {
      "inputs": [
        {
          "internalType": "uint256",
          "name": "_value",
          "type": "uint256"
        }
      ],
      "name": "setRedemptionFeeBips",
      "outputs": [],
      "stateMutability": "nonpayable",
      "type": "function"
    },
    {
      "inputs": [
        {
          "internalType": "uint256",
          "name": "_underlyingBlocks",
          "type": "uint256"
        },
        {
          "internalType": "uint256",
          "name": "_underlyingSeconds",
          "type": "uint256"
        }
      ],
      "name": "setTimeForPayment",
      "outputs": [],
      "stateMutability": "nonpayable",
      "type": "function"
    },
    {
      "inputs": [
        {
          "internalType": "uint256",
          "name": "_value",
          "type": "uint256"
        }
      ],
      "name": "setTokenInvalidationTimeMinSeconds",
      "outputs": [],
      "stateMutability": "nonpayable",
      "type": "function"
    },
    {
      "inputs": [
        {
          "internalType": "uint256",
          "name": "_value",
          "type": "uint256"
        }
      ],
      "name": "setVaultCollateralBuyForFlareFactorBIPS",
      "outputs": [],
      "stateMutability": "nonpayable",
      "type": "function"
    },
    {
      "inputs": [
        {
          "internalType": "uint256",
          "name": "_value",
          "type": "uint256"
        }
      ],
      "name": "setWithdrawalOrDestroyWaitMinSeconds",
      "outputs": [],
      "stateMutability": "nonpayable",
      "type": "function"
    },
    {
      "inputs": [
        {
          "internalType": "address",
          "name": "_controller",
          "type": "address"
        },
        {
          "internalType": "contract IWNat",
          "name": "_wNat",
          "type": "address"
        }
      ],
      "name": "updateSystemContracts",
      "outputs": [],
      "stateMutability": "nonpayable",
      "type": "function"
    },
    {
      "inputs": [
        {
          "internalType": "address",
          "name": "_value",
          "type": "address"
        },
        {
          "internalType": "bytes",
          "name": "callData",
          "type": "bytes"
        }
      ],
      "name": "upgradeFAssetImplementation",
      "outputs": [],
      "stateMutability": "nonpayable",
      "type": "function"
    }
  ],
  "bytecode": "0x6080604052348015600f57600080fd5b506145418061001f6000396000f3fe608060405234801561001057600080fd5b506004361061023d5760003560e01c80638d94510a1161013b578063d57d25c5116100b8578063e68f3fbf1161007c578063e68f3fbf146104ca578063ec516d24146104dd578063ec7430a4146104f0578063f6a494af14610503578063f9b9b4461461051657600080fd5b8063d57d25c51461046b578063dd64bd041461047e578063df06ea9614610491578063dfc59417146104a4578063e443147f146104b757600080fd5b8063b2e6a2b5116100ff578063b2e6a2b51461040c578063be0697191461041f578063cda4c54114610432578063cfcb991d14610445578063d07433951461045857600080fd5b80638d94510a146103ad5780639db27f55146103c05780639e193242146103d3578063ad74c72d146103e6578063af5f2b98146103f957600080fd5b806369b89e7e116101c95780636df310d61161018d5780636df310d61461034e5780637800a11f146103615780637b6fa762146103745780637f4fcaa914610387578063812e7d2e1461039a57600080fd5b806369b89e7e146102ef5780636a598609146103025780636ad6fb4f146103155780636b38c643146103285780636dd3d5891461033b57600080fd5b806347814c061161021057806347814c0614610290578063568ae58e146102a35780635ac5c11e146102b65780636075765d146102c957806368f224ba146102dc57600080fd5b8063050f44391461024257806313d6a5e2146102575780632779aaaa1461026a5780632c06abf01461027d575b600080fd5b610255610250366004613cd3565b610529565b005b610255610265366004613d01565b6105d9565b610255610278366004613cd3565b610686565b61025561028b366004613cd3565b610752565b61025561029e366004613cd3565b61085d565b6102556102b1366004613cd3565b61098f565b6102556102c4366004613cd3565b610ae6565b6102556102d7366004613d1e565b610c46565b6102556102ea366004613d57565b610d77565b6102556102fd366004613d57565b610fc0565b610255610310366004613dbf565b61113d565b610255610323366004613cd3565b61128e565b610255610336366004613cd3565b611351565b610255610349366004613d01565b611422565b61025561035c366004613cd3565b6114d3565b61025561036f366004613cd3565b611638565b610255610382366004613cd3565b6117b0565b610255610395366004613d01565b6118b9565b6102556103a8366004613cd3565b611990565b6102556103bb366004613cd3565b611a63565b6102556103ce366004613cd3565b611bb9565b6102556103e1366004613cd3565b611d0d565b6102556103f4366004613cd3565b611e75565b610255610407366004613cd3565b611f62565b61025561041a366004613cd3565b6120e4565b61025561042d366004613d01565b6121af565b610255610440366004613d01565b612256565b610255610453366004613cd3565b612304565b610255610466366004613cd3565b612429565b610255610479366004613cd3565b61256b565b61025561048c366004613cd3565b612634565b61025561049f366004613d01565b612747565b6102556104b2366004613cd3565b612800565b6102556104c5366004613d01565b6128c9565b6102556104d8366004613cd3565b612974565b6102556104eb366004613eec565b612a68565b6102556104fe366004613cd3565b612ba1565b610255610511366004613d01565b612ca0565b610255610524366004613cd3565b612d69565b610531612e9d565b610539612ed7565b6000610543612eee565b905061054e82612f12565b6012820180546001600160401b0392909216600160401b0267ffffffffffffffff60401b1990921691909117905560408051818152601f918101919091527f746f6b656e496e76616c69646174696f6e54696d654d696e5365636f6e6473006060820152602081018390526000805160206144ec833981519152906080015b60405180910390a15050565b6105e1612e9d565b6105e9612ed7565b60006105f3612eee565b90506001600160a01b03821661061c5760405163e6c4247b60e01b815260040160405180910390fd5b6002810180546001600160a01b0319166001600160a01b03841690811790915560408051818152601191810191909152706167656e745661756c74466163746f727960781b606082015260208101919091526000805160206144cc833981519152906080016105cd565b61068e612e9d565b610696612ed7565b60006106a0612eee565b9050620151808210156106c6576040516388e95d8560e01b815260040160405180910390fd5b6106cf82612f12565b6011820180546001600160401b0392909216600160401b0267ffffffffffffffff60401b19909216919091179055604080518181526018918101919091527f6174746573746174696f6e57696e646f775365636f6e647300000000000000006060820152602081018390526000805160206144ec833981519152906080016105cd565b61075a612e9d565b610762612ed7565b600061076c612eee565b601381015490915061078f90600160401b90046001600160401b03166004613f69565b61079c9062015180613f92565b6001600160401b03168211156107c5576040516335cec84f60e01b815260040160405180910390fd5b6107ce82612f12565b6013820180546001600160401b0392909216600160401b0267ffffffffffffffff60401b19909216919091179055604080518181526023918101919091527f6167656e744d696e74696e6743524368616e676554696d656c6f636b5365636f6060820152626e647360e81b6080820152602081018390526000805160206144ec8339815191529060a0016105cd565b610865612e9d565b61086d612ed7565b6000610877612eee565b90506000821161089a57604051631e1d0ab560e01b815260040160405180910390fd5b600f8101546108b590600160801b900461ffff166002613fb1565b61ffff168211156108d9576040516313d2afed60e31b815260040160405180910390fd5b600f8101546108f590600490600160801b900461ffff16613fe4565b61ffff16821015610919576040516348e8562160e11b815260040160405180910390fd5b61092282612f83565b600f8201805461ffff92909216600160801b0261ffff60801b1990921691909117905560408051818152601291810191909152716d617852656465656d65645469636b65747360701b6060820152602081018390526000805160206144ec833981519152906080016105cd565b610997612e9d565b61099f612ed7565b60006109a9612eee565b9050600082116109cc57604051631e1d0ab560e01b815260040160405180910390fd5b60108101546109ec90600160c01b90046001600160401b03166002613f69565b6001600160401b0316821115610a155760405163acce294560e01b815260040160405180910390fd5b6010810154610a3690600290600160c01b90046001600160401b0316614008565b6001600160401b0316821015610a5f576040516369cdc9c360e01b815260040160405180910390fd5b610a6882612f12565b6010820180546001600160401b0392909216600160c01b026001600160c01b03909216919091179055604080518181526019918101919091527f6d61785472757374656450726963654167655365636f6e6473000000000000006060820152602081018390526000805160206144ec833981519152906080016105cd565b610aee612e9d565b610af6612ed7565b6000610b00612eee565b905060008211610b2357604051631e1d0ab560e01b815260040160405180910390fd5b612710821115610b465760405163fb1fb2d360e01b815260040160405180910390fd5b600c810154610b6190600160401b900461ffff166004613fb1565b61ffff16821115610b855760405163acce294560e01b815260040160405180910390fd5b600c810154610ba190600490600160401b900461ffff16613fe4565b61ffff16821015610bc5576040516369cdc9c360e01b815260040160405180910390fd5b610bce82612f83565b600c8201805461ffff92909216600160401b0261ffff60401b1990921691909117905560408051818152601c918101919091527f636f6c6c61746572616c5265736572766174696f6e46656542495053000000006060820152602081018390526000805160206144ec833981519152906080016105cd565b610c4e612e9d565b6000610c58612eee565b80549091506001600160a01b03848116911614610cd95780546001600160a01b0384166001600160a01b031990911681178255604080518181526016818301527530b9b9b2ba26b0b730b3b2b921b7b73a3937b63632b960511b60608201526020810192909252516000805160206144cc8339815191529181900360800190a15b6000610ce3612fe6565b9050826001600160a01b0316816001600160a01b031614610d71576000610d0b600183613053565b600060608201526001600160a01b03851660208201529050610d2c8161307c565b60408051818152600481830152631dd3985d60e21b60608201526001600160a01b038616602082015290516000805160206144cc8339815191529181900360800190a1505b50505050565b610d7f612e9d565b610d87612ed7565b6000610d91612eee565b6010810154909150610dad906001600160801b03166004614036565b610dc09068056bc75e2d63100000614058565b6001600160801b0316831115610de9576040516313d2afed60e31b815260040160405180910390fd5b6010810154610e03906004906001600160801b0316614077565b6001600160801b0316831015610e2c576040516348e8562160e11b815260040160405180910390fd5b600f810154610e4790600160901b900461ffff166004613fb1565b610e529060646140a5565b61ffff16821115610e76576040516313d2afed60e31b815260040160405180910390fd5b600f810154610e9290600490600160901b900461ffff16613fe4565b61ffff16821015610eb6576040516348e8562160e11b815260040160405180910390fd5b610ebf83613096565b6010820180546001600160801b0319166001600160801b0392909216919091179055610eea82612f83565b600f8201805461ffff60901b1916600160901b61ffff939093169290920291909117905560408051818152601a818301527f7061796d656e744368616c6c656e67655265776172645553443500000000000060608201526020810185905290516000805160206144ec8339815191529181900360800190a160408051818152601a918101919091527f7061796d656e744368616c6c656e6765526577617264424950530000000000006060820152602081018390526000805160206144ec833981519152906080015b60405180910390a1505050565b610fc8612e9d565b610fd0612ed7565b6000610fda612eee565b905060008211610ffd57604051631e1d0ab560e01b815260040160405180910390fd5b6000831161101e57604051631e1d0ab560e01b815260040160405180910390fd5b600c810154611036908490849063ffffffff166130ff565b61103f83612f12565b81600d0160136101000a8154816001600160401b0302191690836001600160401b0316021790555061107082612f12565b600e8201805467ffffffffffffffff19166001600160401b039290921691909117905560408051818152601a818301527f756e6465726c79696e67426c6f636b73466f725061796d656e7400000000000060608201526020810185905290516000805160206144ec833981519152916080908290030190a160408051818152601b918101919091527f756e6465726c79696e675365636f6e6473466f725061796d656e7400000000006060820152602081018390526000805160206144ec83398151915290608001610fb3565b611145612e9d565b61114d612ed7565b6000611157613162565b90506001600160a01b0383166111805760405163e6c4247b60e01b815260040160405180910390fd5b8151156111ec5760405163278f794360e11b81526001600160a01b03821690634f1ef286906111b59086908690600401614105565b600060405180830381600087803b1580156111cf57600080fd5b505af11580156111e3573d6000803e3d6000fd5b50505050611248565b604051631b2ce7f360e11b81526001600160a01b038481166004830152821690633659cfe690602401600060405180830381600087803b15801561122f57600080fd5b505af1158015611243573d6000803e3d6000fd5b505050505b604080518181526006918101919091526519905cdcd95d60d21b60608201526001600160a01b03841660208201526000805160206144cc83398151915290608001610fb3565b611296612e9d565b61129e612ed7565b60006112a8612eee565b9050603c8210156112cc57604051639a721da360e01b815260040160405180910390fd5b6112d582613180565b60148201805463ffffffff191663ffffffff92909216919091179055604080518181526022918101919091527f636f6c6c61746572616c506f6f6c546f6b656e54696d656c6f636b5365636f6e606082015261647360f01b6080820152602081018390526000805160206144ec8339815191529060a0016105cd565b611359612e9d565b611361612ed7565b600061136b612eee565b905061271082101561139057604051639a721da360e01b815260040160405180910390fd5b61139982613180565b60128201805463ffffffff92909216600160801b0263ffffffff60801b19909216919091179055604080518181526024918101919091527f7661756c74436f6c6c61746572616c427579466f72466c617265466163746f726060820152634249505360e01b6080820152602081018390526000805160206144ec8339815191529060a0016105cd565b61142a612e9d565b611432612ed7565b600061143c612eee565b90506001600160a01b0382166114655760405163e6c4247b60e01b815260040160405180910390fd5b6003810180546001600160a01b0319166001600160a01b0384169081179091556040805181815260159181019190915274636f6c6c61746572616c506f6f6c466163746f727960581b606082015260208101919091526000805160206144cc833981519152906080016105cd565b6114db612e9d565b6114e3612ed7565b60006114ed612eee565b90506000821161151057604051631e1d0ab560e01b815260040160405180910390fd5b601781015461153090600160401b90046001600160401b03166004613f69565b61153b90603c613f92565b6001600160401b0316821115611564576040516313d2afed60e31b815260040160405180910390fd5b601781015461158590600490600160401b90046001600160401b0316614008565b6001600160401b03168210156115ae576040516348e8562160e11b815260040160405180910390fd5b6115b782612f12565b6017820180546001600160401b0392909216600160401b0267ffffffffffffffff60401b199092169190911790556040805181815260209181018290527f6d6178456d657267656e637950617573654475726174696f6e5365636f6e647360608201529081018390526000805160206144ec833981519152906080016105cd565b611640612e9d565b611648612ed7565b6000611652612eee565b90506000821161167557604051631e1d0ab560e01b815260040160405180910390fd5b601781015461169590600160801b90046001600160401b03166004613f69565b6116a190610e10613f92565b6001600160401b03168211156116ca576040516313d2afed60e31b815260040160405180910390fd5b60178101546116eb90600490600160801b90046001600160401b0316614008565b6001600160401b0316821015611714576040516348e8562160e11b815260040160405180910390fd5b61171d82612f12565b6017820180546001600160401b0392909216600160801b0267ffffffffffffffff60801b19909216919091179055604080518181526027918101919091527f656d657267656e637950617573654475726174696f6e526573657441667465726060820152665365636f6e647360c81b6080820152602081018390526000805160206144ec8339815191529060a0016105cd565b6117b8612e9d565b6117c0612ed7565b60006117ca612eee565b60128101549091506117ed90600160a01b90046001600160401b03166004613f69565b6117fa9062093a80613f92565b6001600160401b0316821115611823576040516335cec84f60e01b815260040160405180910390fd5b61182c82612f12565b6012820180546001600160401b0392909216600160a01b0267ffffffffffffffff60a01b19909216919091179055604080518181526021918101919091527f6167656e7445786974417661696c61626c6554696d656c6f636b5365636f6e646060820152607360f81b6080820152602081018390526000805160206144ec8339815191529060a0016105cd565b6118c1612e9d565b6118c9612ed7565b60006118d3613162565b604051637f4fcaa960e01b81526001600160a01b03848116600483015291925090821690637f4fcaa990602401600060405180830381600087803b15801561191a57600080fd5b505af115801561192e573d6000803e3d6000fd5b5050604080518181526019918101919091527f636c65616e7570426c6f636b4e756d6265724d616e616765720000000000000060608201526001600160a01b03851660208201526000805160206144cc833981519152925060800190506105cd565b611998612e9d565b6119a0612ed7565b60006119aa612eee565b9050603c8210156119ce57604051639a721da360e01b815260040160405180910390fd5b6119d782612f12565b6013820180546001600160401b0392909216600160c01b026001600160c01b03909216919091179055604080518181526025918101919091527f6167656e7454696d656c6f636b65644f7065726174696f6e57696e646f775365606082015264636f6e647360d81b6080820152602081018390526000805160206144ec8339815191529060a0016105cd565b611a6b612e9d565b611a73612ed7565b6000611a7d612eee565b905060008211611aa057604051631e1d0ab560e01b815260040160405180910390fd5b6014810154611ac090600160201b90046001600160401b03166002613f69565b6001600160401b0316821115611ae9576040516313d2afed60e31b815260040160405180910390fd5b6014810154611b0a90600290600160201b90046001600160401b0316614008565b6001600160401b0316821015611b33576040516348e8562160e11b815260040160405180910390fd5b611b3c82612f12565b6014820180546001600160401b0392909216600160201b026bffffffffffffffff000000001990921691909117905560408051818152601691810191909152756c69717569646174696f6e537465705365636f6e647360501b6060820152602081018390526000805160206144ec833981519152906080016105cd565b611bc1612e9d565b611bc9612ed7565b6000611bd3612eee565b905060008211611bf657604051631e1d0ab560e01b815260040160405180910390fd5b612710821115611c195760405163fb1fb2d360e01b815260040160405180910390fd5b600e810154611c3490600160401b900461ffff166004613fb1565b61ffff16821115611c585760405163acce294560e01b815260040160405180910390fd5b600e810154611c7490600490600160401b900461ffff16613fe4565b61ffff16821015611c98576040516369cdc9c360e01b815260040160405180910390fd5b611ca182612f83565b600e8201805461ffff92909216600160401b0261ffff60401b199092169190911790556040805181815260119181019190915270726564656d7074696f6e4665654249505360781b6060820152602081018390526000805160206144ec833981519152906080016105cd565b611d15612e9d565b611d1d612ed7565b6000611d27612eee565b90506127108211611d4b5760405163db2ff64760e01b815260040160405180910390fd5b600e810154611d6e9063ffffffff600160501b909104811690612ee0906131e516565b611d7a906103e8614131565b821115611d9a5760405163acce294560e01b815260040160405180910390fd5b600e810154611dbd9063ffffffff600160501b90910481169061208d906131e516565b821015611ddd576040516369cdc9c360e01b815260040160405180910390fd5b611de682613180565b600e8201805463ffffffff92909216600160501b0263ffffffff60501b1990921691909117905560408051818152602a918101919091527f726564656d7074696f6e44656661756c74466163746f725661756c74436f6c6c60608201526961746572616c4249505360b01b6080820152602081018390526000805160206144ec8339815191529060a0016105cd565b611e7d612e9d565b611e85612ed7565b6000611e8f612eee565b6013810154909150611eab906001600160401b03166004613f69565b611eb89062015180613f92565b6001600160401b0316821115611ee1576040516335cec84f60e01b815260040160405180910390fd5b611eea82612f12565b60138201805467ffffffffffffffff19166001600160401b039290921691909117905560408051818152601d918101919091527f6167656e744665654368616e676554696d656c6f636b5365636f6e64730000006060820152602081018390526000805160206144ec833981519152906080016105cd565b611f6a612e9d565b611f72612ed7565b6000611f7c612eee565b905060008211611f9f57604051631e1d0ab560e01b815260040160405180910390fd5b600d810154611fb8906001600160401b0316600a613f69565b6001600160401b0316821115611fe15760405163c1eb125d60e01b815260040160405180910390fd5b600d810154611ffb90600a906001600160401b0316614008565b6001600160401b0316821015612024576040516362b1e00560e11b815260040160405180910390fd5b600d810154600160581b90046001600160401b031615806120595750600d810154600160581b90046001600160401b03168211155b612076576040516339897cef60e01b815260040160405180910390fd5b61207f82612f12565b600d8201805467ffffffffffffffff19166001600160401b039290921691909117905560408051818152600a91810191909152696c6f7453697a65414d4760b01b6060820152602081018390526000805160206144ec833981519152906080016105cd565b6120ec612e9d565b6120f4612ed7565b60006120fe612eee565b905081158061211a5750600d8101546001600160401b03168210155b61213757604051639a721da360e01b815260040160405180910390fd5b61214082612f12565b81600d01600b6101000a8154816001600160401b0302191690836001600160401b031602179055506000805160206144ec833981519152826040516105cd91906040808252600d908201526c6d696e74696e67436170414d4760981b6060820152602081019190915260800190565b6121b7612e9d565b6121bf612ed7565b60006121c9612eee565b90506001600160a01b0382166121f25760405163e6c4247b60e01b815260040160405180910390fd5b600a810180546001600160a01b0319166001600160a01b03841690811790915560408051818152600b918101919091526a383934b1b2a932b0b232b960a91b606082015260208101919091526000805160206144cc833981519152906080016105cd565b61225e612e9d565b612266612ed7565b6000612270612eee565b90506001600160a01b0382166122995760405163e6c4247b60e01b815260040160405180910390fd5b6007810180546001600160a01b0319166001600160a01b03841690811790915560408051818152601291810191909152716167656e744f776e6572526567697374727960701b606082015260208101919091526000805160206144cc833981519152906080016105cd565b61230c612e9d565b612314612ed7565b600061231e612eee565b90506000821161234157604051631e1d0ab560e01b815260040160405180910390fd5b600c8101546123579063ffffffff166002614144565b63ffffffff1682111561237d576040516313d2afed60e31b815260040160405180910390fd5b600c8101546123949060029063ffffffff16614163565b63ffffffff168210156123ba576040516348e8562160e11b815260040160405180910390fd5b6123c382613180565b600c8201805463ffffffff191663ffffffff92909216919091179055604080518181526012918101919091527161766572616765426c6f636b54696d654d5360701b6060820152602081018390526000805160206144ec833981519152906080016105cd565b612431612e9d565b612439612ed7565b6000612443612eee565b90506000821161246657604051631e1d0ab560e01b815260040160405180910390fd5b600f81015461247f906001600160801b03166004614036565b6001600160801b03168211156124a85760405163acce294560e01b815260040160405180910390fd5b600f8101546124c2906004906001600160801b0316614077565b6001600160801b03168210156124eb576040516369cdc9c360e01b815260040160405180910390fd5b6124f482613096565b600f820180546001600160801b0319166001600160801b039290921691909117905560408051818152601e918101919091527f636f6e6669726d6174696f6e42794f74686572735265776172645553443500006060820152602081018390526000805160206144ec833981519152906080016105cd565b612573612e9d565b61257b612ed7565b6000612585612eee565b9050600082116125a857604051631e1d0ab560e01b815260040160405180910390fd5b6125b182612f12565b6011820180546001600160401b0392909216600160801b0267ffffffffffffffff60801b1990921691909117905560408051818152601a918101919091527f6d696e55706461746552657065617454696d655365636f6e64730000000000006060820152602081018390526000805160206144ec833981519152906080016105cd565b61263c612e9d565b612644612ed7565b600061264e612eee565b90506000821161267157604051631e1d0ab560e01b815260040160405180910390fd5b601081015461269290600160801b90046001600160401b0316610258613f92565b6001600160401b03168211156126bb576040516313d2afed60e31b815260040160405180910390fd5b6126c482612f12565b6010820180546001600160401b0392909216600160801b0267ffffffffffffffff60801b19909216919091179055604080518181526018918101919091527f7769746864726177616c576169744d696e5365636f6e647300000000000000006060820152602081018390526000805160206144ec833981519152906080016105cd565b61274f612e9d565b612757612ed7565b6000612761612eee565b90506001600160a01b03821661278a5760405163e6c4247b60e01b815260040160405180910390fd5b6004810180546001600160a01b0319166001600160a01b03841690811790915560408051818152601a918101919091527f636f6c6c61746572616c506f6f6c546f6b656e466163746f7279000000000000606082015260208101919091526000805160206144cc833981519152906080016105cd565b612808612e9d565b612810612ed7565b600061281a612eee565b9050611c2082101561283f57604051630c85bd4760e11b815260040160405180910390fd5b61284882612f12565b600e820180546001600160401b0392909216600160901b0267ffffffffffffffff60901b199092169190911790556040805181815260209181018290527f636f6e6669726d6174696f6e42794f746865727341667465725365636f6e647360608201529081018390526000805160206144ec833981519152906080016105cd565b6128d1612e9d565b6128d9612ed7565b60006128e3612eee565b90506001600160a01b03821661290c5760405163e6c4247b60e01b815260040160405180910390fd5b6008810180546001600160a01b0319166001600160a01b03841690811790915560408051818152600f918101919091526e333231ab32b934b334b1b0ba34b7b760891b606082015260208101919091526000805160206144cc833981519152906080016105cd565b61297c612e9d565b612984612ed7565b600061298e612eee565b600c810154909150612710906129b290600160201b900463ffffffff166004614144565b63ffffffff166129c29190614131565b8211156129e2576040516335cec84f60e01b815260040160405180910390fd5b6129eb82613180565b600c8201805463ffffffff92909216600160201b0267ffffffff000000001990921691909117905560408051818152601f918101919091527f6d696e74696e67506f6f6c486f6c64696e6773526571756972656442495053006060820152602081018390526000805160206144ec833981519152906080016105cd565b612a70612e9d565b612a78612ed7565b6000612a82612eee565b9050612a8e83836131fb565b612a9c601582016000613c41565b612aaa601682016000613c41565b60005b8351811015612b3a5781601501612adc858381518110612acf57612acf61418b565b6020026020010151613180565b81546001810183556000928352602090922063ffffffff90911691015582516016830190612b1690859084908110612acf57612acf61418b565b8154600181810184556000938452602090932063ffffffff90921691015501612aad565b507ff8df5a8f8fc0ea5cc0d8aff70643ac14b7353b936a843e23cb08ff282ba7473983604051612b6a91906141dd565b60405180910390a17ff8df5a8f8fc0ea5cc0d8aff70643ac14b7353b936a843e23cb08ff282ba7473982604051610fb39190614224565b612ba9612e9d565b612bb1612ed7565b6000612bbb612eee565b6013810154909150612bde90600160801b90046001600160401b03166004613f69565b612beb9062015180613f92565b6001600160401b0316821115612c14576040516335cec84f60e01b815260040160405180910390fd5b612c1d82612f12565b6013820180546001600160401b0392909216600160801b0267ffffffffffffffff60801b1990921691909117905560408051818152601f918101919091527f706f6f6c4578697443524368616e676554696d656c6f636b5365636f6e6473006060820152602081018390526000805160206144ec833981519152906080016105cd565b612ca8612e9d565b612cb0612ed7565b6000612cba613162565b60405163f6a494af60e01b81526001600160a01b0384811660048301529192509082169063f6a494af90602401600060405180830381600087803b158015612d0157600080fd5b505af1158015612d15573d6000803e3d6000fd5b505060408051818152600f918101919091526e18db19585b995c90dbdb9d1c9858dd608a1b60608201526001600160a01b03851660208201526000805160206144cc833981519152925060800190506105cd565b612d71612e9d565b612d79612ed7565b6000612d83612eee565b905060008211612da657604051631e1d0ab560e01b815260040160405180910390fd5b6011810154612dbf906001600160401b03166002613f69565b6001600160401b0316821115612de8576040516313d2afed60e31b815260040160405180910390fd5b6011810154612e02906002906001600160401b0316614008565b6001600160401b0316821015612e2b576040516348e8562160e11b815260040160405180910390fd5b612e3482612f12565b60118201805467ffffffffffffffff19166001600160401b039290921691909117905560408051818152600e918101919091526d63636254696d655365636f6e647360901b6060820152602081018390526000805160206144ec833981519152906080016105cd565b6000612ea7612eee565b80549091506001600160a01b03163314612ed457604051634ae14edf60e11b815260040160405180910390fd5b50565b612eec6001600160e01b031960003516613347565b565b7f4f24f5c433db0962dac0d2c8b84197a6e6c7cc4e5d9ebe1916a1b6193da2f33a90565b60006001600160401b03821115612f7f5760405162461bcd60e51b815260206004820152602660248201527f53616665436173743a2076616c756520646f65736e27742066697420696e203660448201526534206269747360d01b60648201526084015b60405180910390fd5b5090565b600061ffff821115612f7f5760405162461bcd60e51b815260206004820152602660248201527f53616665436173743a2076616c756520646f65736e27742066697420696e203160448201526536206269747360d01b6064820152608401612f76565b7fec7e8c1c441439dd40959777f4c577ea0cd42fcc1dbe59d2bd0f5d9c55df8dc5546000805160206144ac8339815191528054600092829161ffff9091169081106130335761303361418b565b60009182526020909120600490910201546001600160a01b031692915050565b61305b613c5f565b600061306784846133df565b905061307281613483565b9150505b92915050565b60006130878261365d565b905061309281613a27565b5050565b60006001600160801b03821115612f7f5760405162461bcd60e51b815260206004820152602760248201527f53616665436173743a2076616c756520646f65736e27742066697420696e20316044820152663238206269747360c81b6064820152608401612f76565b62015180821115613123576040516318dc18b360e01b815260040160405180910390fd5b620151806103e86131348386614278565b61313e919061428f565b111561315d576040516318dc18b360e01b815260040160405180910390fd5b505050565b60008061316d612eee565b600101546001600160a01b031692915050565b600063ffffffff821115612f7f5760405162461bcd60e51b815260206004820152602660248201527f53616665436173743a2076616c756520646f65736e27742066697420696e203360448201526532206269747360d01b6064820152608401612f76565b60006131f48383612710613ab2565b9392505050565b805182511461321d576040516322cb666160e01b815260040160405180910390fd5b6001825110156132405760405163e7f61b9f60e01b815260040160405180910390fd5b60005b825181101561315d576127108382815181106132615761326161418b565b602002602001015111613287576040516319cb132f60e31b815260040160405180910390fd5b8281815181106132995761329961418b565b60200260200101518282815181106132b3576132b361418b565b602002602001015111156132da576040516343734f6f60e01b815260040160405180910390fd5b8015806133225750826132ee6001836142a3565b815181106132fe576132fe61418b565b60200260200101518382815181106133185761331861418b565b6020026020010151115b61333f5760405163103f13e760e11b815260040160405180910390fd5b600101613243565b7fc6aafbe0f74bbe68eec7559401d7d311a092b5c4d8feb0452323e4ba73d8d8d16000613372612eee565b6000848152602084905260409020549091508015806133af575060118201546133ab90600160801b90046001600160401b031682614131565b4210155b6133cc57604051630e216b9960e31b815260040160405180910390fd5b5050600091825260205260409020429055565b60006000805160206144ac833981519152817fec7e8c1c441439dd40959777f4c577ea0cd42fcc1dbe59d2bd0f5d9c55df8db78161341d8787613bb6565b81526020019081526020016000205490506000811161344f57604051638698bf3760e01b815260040160405180910390fd5b8161345b6001836142a3565b8154811061346b5761346b61418b565b90600052602060002090600402019250505092915050565b61348b613c5f565b60408051610140810190915282548190600160a01b900460ff1660028111156134b6576134b66142b6565b815283546001600160a01b038116602083015260ff600160a81b8204811660408401526001600160401b03600160b01b8304166060840152600160f01b909104161515608082015260018401805460a090920191613513906142cc565b80601f016020809104026020016040519081016040528092919081815260200182805461353f906142cc565b801561358c5780601f106135615761010080835404028352916020019161358c565b820191906000526020600020905b81548152906001019060200180831161356f57829003601f168201915b505050505081526020018360020180546135a5906142cc565b80601f01602080910402602001604051908101604052809291908181526020018280546135d1906142cc565b801561361e5780601f106135f35761010080835404028352916020019161361e565b820191906000526020600020905b81548152906001019060200180831161360157829003601f168201915b505050918352505060039093015463ffffffff8082166020860152600160201b820481166040860152600160401b909104166060909301929092525090565b60208101516000906000805160206144ac833981519152906001600160a01b031661369b5760405163ab42242d60e01b815260040160405180910390fd5b60006136af84600001518560200151613bb6565b6000818152600184016020526040902054909150156136e15760405163c991cbb160e01b815260040160405180910390fd5b606084015115613704576040516308d5b2cb60e31b815260040160405180910390fd5b600084610100015161271010801561372557508460e0015185610100015111155b801561373a57508461012001518560e0015111155b90508061375a57604051631654ba8b60e11b815260040160405180910390fd5b82546040805161014081019091526020808801516001600160a01b0316825287518692918201906002811115613792576137926142b6565b81526020016137a48960400151613be0565b60ff1681526020016137b98960600151612f12565b6001600160401b031681526020018860800151151581526020018860a0015181526020018860c0015181526020016137f48960e00151613180565b63ffffffff16815260200161380d896101000151613180565b63ffffffff168152602001613826896101200151613180565b63ffffffff16905281546001810183556000928352602092839020825160049092020180546001600160a01b031981166001600160a01b03909316928317825593830151929390929183916001600160a81b03191617600160a01b836002811115613893576138936142b6565b021790555060408201518154606084015160808501511515600160f01b0260ff60f01b196001600160401b03909216600160b01b0267ffffffffffffffff60b01b1960ff909516600160a81b029490941668ffffffffffffffffff60a81b1990931692909217929092179190911617815560a082015160018201906139189082614354565b5060c0820151600282019061392d9082614354565b5060e0820151600390910180546101008401516101209094015163ffffffff908116600160401b026bffffffff000000000000000019958216600160201b0267ffffffffffffffff1990931691909416171792909216179055613991816001614131565b600084815260018601602052604090205585517fbef4c272617e8773ee6209dd5f05e50ca5be37232b0c94cb8439d8a56bfdb7ce9060028111156139d7576139d76142b6565b8760200151886040015189608001518a60a001518b60c001518c60e001518d61010001518e6101200151604051613a1699989796959493929190614412565b60405180910390a195945050505050565b6000805160206144ac8339815191528054600090829084908110613a4d57613a4d61418b565b60009182526020909120600490910201905060018154600160a01b900460ff166002811115613a7e57613a7e6142b6565b14613a8b57613a8b614481565b613a9483612f83565b600f92909201805461ffff191661ffff909316929092179091555050565b6000808211613ad4576040516323d359a360e01b815260040160405180910390fd5b83600003613ae4575060006131f4565b83830283858281613af757613af7613fce565b0403613b1557828181613b0c57613b0c613fce565b049150506131f4565b506000613b22838661428f565b90506000613b308487614497565b90506000613b3e858761428f565b90506000613b4c8688614497565b905085613b598285614278565b613b63919061428f565b613b6d8385614278565b613b778387614278565b88613b828689614278565b613b8c9190614278565b613b969190614131565b613ba09190614131565b613baa9190614131565b98975050505050505050565b6000816001600160a01b031660a0846002811115613bd657613bd66142b6565b901b179392505050565b600060ff821115612f7f5760405162461bcd60e51b815260206004820152602560248201527f53616665436173743a2076616c756520646f65736e27742066697420696e2038604482015264206269747360d81b6064820152608401612f76565b5080546000825590600052602060002090810190612ed49190613cbe565b604080516101408101909152806000815260200160006001600160a01b03168152602001600081526020016000815260200160001515815260200160608152602001606081526020016000815260200160008152602001600081525090565b5b80821115612f7f5760008155600101613cbf565b600060208284031215613ce557600080fd5b5035919050565b6001600160a01b0381168114612ed457600080fd5b600060208284031215613d1357600080fd5b81356131f481613cec565b60008060408385031215613d3157600080fd5b8235613d3c81613cec565b91506020830135613d4c81613cec565b809150509250929050565b60008060408385031215613d6a57600080fd5b50508035926020909101359150565b634e487b7160e01b600052604160045260246000fd5b604051601f8201601f191681016001600160401b0381118282101715613db757613db7613d79565b604052919050565b60008060408385031215613dd257600080fd5b8235613ddd81613cec565b915060208301356001600160401b03811115613df857600080fd5b8301601f81018513613e0957600080fd5b80356001600160401b03811115613e2257613e22613d79565b613e35601f8201601f1916602001613d8f565b818152866020838501011115613e4a57600080fd5b816020840160208301376000602083830101528093505050509250929050565b600082601f830112613e7b57600080fd5b81356001600160401b03811115613e9457613e94613d79565b8060051b613ea460208201613d8f565b91825260208185018101929081019086841115613ec057600080fd5b6020860192505b83831015613ee2578235825260209283019290910190613ec7565b9695505050505050565b60008060408385031215613eff57600080fd5b82356001600160401b03811115613f1557600080fd5b613f2185828601613e6a565b92505060208301356001600160401b03811115613f3d57600080fd5b613f4985828601613e6a565b9150509250929050565b634e487b7160e01b600052601160045260246000fd5b6001600160401b038181168382160290811690818114613f8b57613f8b613f53565b5092915050565b6001600160401b03818116838216019081111561307657613076613f53565b61ffff8181168382160290811690818114613f8b57613f8b613f53565b634e487b7160e01b600052601260045260246000fd5b600061ffff831680613ff857613ff8613fce565b8061ffff84160491505092915050565b60006001600160401b0383168061402157614021613fce565b806001600160401b0384160491505092915050565b6001600160801b038181168382160290811690818114613f8b57613f8b613f53565b6001600160801b03818116838216019081111561307657613076613f53565b60006001600160801b0383168061409057614090613fce565b806001600160801b0384160491505092915050565b61ffff818116838216019081111561307657613076613f53565b6000815180845260005b818110156140e5576020818501810151868301820152016140c9565b506000602082860101526020601f19601f83011685010191505092915050565b6001600160a01b0383168152604060208201819052600090614129908301846140bf565b949350505050565b8082018082111561307657613076613f53565b63ffffffff8181168382160290811690818114613f8b57613f8b613f53565b600063ffffffff83168061417957614179613fce565b8063ffffffff84160491505092915050565b634e487b7160e01b600052603260045260246000fd5b600081518084526020840193506020830160005b828110156141d35781518652602095860195909101906001016141b5565b5093949350505050565b60408152601f60408201527f6c69717569646174696f6e436f6c6c61746572616c466163746f72424950530060608201526080602082015260006131f460808301846141a1565b60408152602460408201527f6c69717569646174696f6e466163746f725661756c74436f6c6c61746572616c6060820152634249505360e01b608082015260a0602082015260006131f460a08301846141a1565b808202811582820484141761307657613076613f53565b60008261429e5761429e613fce565b500490565b8181038181111561307657613076613f53565b634e487b7160e01b600052602160045260246000fd5b600181811c908216806142e057607f821691505b60208210810361430057634e487b7160e01b600052602260045260246000fd5b50919050565b601f82111561315d57806000526020600020601f840160051c8101602085101561432d5750805b601f840160051c820191505b8181101561434d5760008155600101614339565b5050505050565b81516001600160401b0381111561436d5761436d613d79565b6143818161437b84546142cc565b84614306565b6020601f8211600181146143b5576000831561439d5750848201515b600019600385901b1c1916600184901b17845561434d565b600084815260208120601f198516915b828110156143e557878501518255602094850194600190920191016143c5565b50848210156144035786840151600019600387901b60f8161c191681555b50505050600190811b01905550565b60ff8a16815260018060a01b038916602082015287604082015286151560608201526101206080820152600061444c6101208301886140bf565b82810360a084015261445e81886140bf565b60c0840196909652505060e0810192909252610100909101529695505050505050565b634e487b7160e01b600052600160045260246000fd5b6000826144a6576144a6613fce565b50069056feec7e8c1c441439dd40959777f4c577ea0cd42fcc1dbe59d2bd0f5d9c55df8db6cb274d507e7a9978f5a8c15929fd58c472b8addc1a9bba454b0c0a49a05c9152ac1fb27759c1e6f9e4a24d4f8c320be6091becb03cea5a95398fa220fca4ac0ea264697066735822122048354ce0b5da23839a1feeec349237d990e2e35bc31dc818b53fd20708d4951664736f6c634300081b0033",
  "linkReferences": {},
  "deployedLinkReferences": {}
}