{
  "_format": "hh-sol-artifact-1",
  "contractName": "SettingsManagementFacet",
  "sourceName": "contracts/assetManager/facets/SettingsManagementFacet.sol",
  "abi": [
    {
      "anonymous": false,
      "inputs": [
        {
          "indexed": true,
          "internalType": "address",
          "name": "agentVault",
          "type": "address"
        },
        {
          "indexed": false,
          "internalType": "uint256",
          "name": "feeBIPS",
          "type": "uint256"
        },
        {
          "indexed": false,
          "internalType": "uint256",
          "name": "mintingVaultCollateralRatioBIPS",
          "type": "uint256"
        },
        {
          "indexed": false,
          "internalType": "uint256",
          "name": "mintingPoolCollateralRatioBIPS",
          "type": "uint256"
        },
        {
          "indexed": false,
          "internalType": "uint256",
          "name": "freeCollateralLots",
          "type": "uint256"
        }
      ],
      "name": "AgentAvailable",
      "type": "event"
    },
    {
      "anonymous": false,
      "inputs": [
        {
          "indexed": true,
          "internalType": "address",
          "name": "agentVault",
          "type": "address"
        },
        {
          "indexed": false,
          "internalType": "uint8",
          "name": "collateralClass",
          "type": "uint8"
        },
        {
          "indexed": false,
          "internalType": "address",
          "name": "token",
          "type": "address"
        }
      ],
      "name": "AgentCollateralTypeChanged",
      "type": "event"
    },
    {
      "anonymous": false,
      "inputs": [
        {
          "indexed": true,
          "internalType": "address",
          "name": "agentVault",
          "type": "address"
        },
        {
          "indexed": false,
          "internalType": "uint256",
          "name": "destroyAllowedAt",
          "type": "uint256"
        }
      ],
      "name": "AgentDestroyAnnounced",
      "type": "event"
    },
    {
      "anonymous": false,
      "inputs": [
        {
          "indexed": true,
          "internalType": "address",
          "name": "agentVault",
          "type": "address"
        }
      ],
      "name": "AgentDestroyed",
      "type": "event"
    },
    {
      "anonymous": false,
      "inputs": [
        {
          "indexed": true,
          "internalType": "address",
          "name": "agentVault",
          "type": "address"
        },
        {
          "indexed": false,
          "internalType": "uint256",
          "name": "timestamp",
          "type": "uint256"
        }
      ],
      "name": "AgentInCCB",
      "type": "event"
    },
    {
      "anonymous": false,
      "inputs": [
        {
          "indexed": true,
          "internalType": "address",
          "name": "agentVault",
          "type": "address"
        },
        {
          "indexed": false,
          "internalType": "string",
          "name": "name",
          "type": "string"
        },
        {
          "indexed": false,
          "internalType": "uint256",
          "name": "value",
          "type": "uint256"
        },
        {
          "indexed": false,
          "internalType": "uint256",
          "name": "validAt",
          "type": "uint256"
        }
      ],
      "name": "AgentSettingChangeAnnounced",
      "type": "event"
    },
    {
      "anonymous": false,
      "inputs": [
        {
          "indexed": true,
          "internalType": "address",
          "name": "agentVault",
          "type": "address"
        },
        {
          "indexed": false,
          "internalType": "string",
          "name": "name",
          "type": "string"
        },
        {
          "indexed": false,
          "internalType": "uint256",
          "name": "value",
          "type": "uint256"
        }
      ],
      "name": "AgentSettingChanged",
      "type": "event"
    },
    {
      "anonymous": false,
      "inputs": [
        {
          "indexed": true,
          "internalType": "address",
          "name": "owner",
          "type": "address"
        },
        {
          "indexed": true,
          "internalType": "address",
          "name": "agentVault",
          "type": "address"
        },
        {
          "components": [
            {
              "internalType": "address",
              "name": "collateralPool",
              "type": "address"
            },
            {
              "internalType": "address",
              "name": "collateralPoolToken",
              "type": "address"
            },
            {
              "internalType": "string",
              "name": "underlyingAddress",
              "type": "string"
            },
            {
              "internalType": "address",
              "name": "vaultCollateralToken",
              "type": "address"
            },
            {
              "internalType": "address",
              "name": "poolWNatToken",
              "type": "address"
            },
            {
              "internalType": "uint256",
              "name": "feeBIPS",
              "type": "uint256"
            },
            {
              "internalType": "uint256",
              "name": "poolFeeShareBIPS",
              "type": "uint256"
            },
            {
              "internalType": "uint256",
              "name": "mintingVaultCollateralRatioBIPS",
              "type": "uint256"
            },
            {
              "internalType": "uint256",
              "name": "mintingPoolCollateralRatioBIPS",
              "type": "uint256"
            },
            {
              "internalType": "uint256",
              "name": "buyFAssetByAgentFactorBIPS",
              "type": "uint256"
            },
            {
              "internalType": "uint256",
              "name": "poolExitCollateralRatioBIPS",
              "type": "uint256"
            },
            {
              "internalType": "uint256",
              "name": "poolTopupCollateralRatioBIPS",
              "type": "uint256"
            },
            {
              "internalType": "uint256",
              "name": "poolTopupTokenPriceFactorBIPS",
              "type": "uint256"
            },
            {
              "internalType": "uint256",
              "name": "handshakeType",
              "type": "uint256"
            }
          ],
          "indexed": false,
          "internalType": "struct IAssetManagerEvents.AgentVaultCreationData",
          "name": "creationData",
          "type": "tuple"
        }
      ],
      "name": "AgentVaultCreated",
      "type": "event"
    },
    {
      "anonymous": false,
      "inputs": [
        {
          "indexed": true,
          "internalType": "address",
          "name": "agentVault",
          "type": "address"
        },
        {
          "indexed": false,
          "internalType": "uint256",
          "name": "exitAllowedAt",
          "type": "uint256"
        }
      ],
      "name": "AvailableAgentExitAnnounced",
      "type": "event"
    },
    {
      "anonymous": false,
      "inputs": [
        {
          "indexed": true,
          "internalType": "address",
          "name": "agentVault",
          "type": "address"
        }
      ],
      "name": "AvailableAgentExited",
      "type": "event"
    },
    {
      "anonymous": false,
      "inputs": [
        {
          "indexed": false,
          "internalType": "uint8",
          "name": "collateralClass",
          "type": "uint8"
        },
        {
          "indexed": false,
          "internalType": "address",
          "name": "collateralToken",
          "type": "address"
        },
        {
          "indexed": false,
          "internalType": "uint256",
          "name": "minCollateralRatioBIPS",
          "type": "uint256"
        },
        {
          "indexed": false,
          "internalType": "uint256",
          "name": "ccbMinCollateralRatioBIPS",
          "type": "uint256"
        },
        {
          "indexed": false,
          "internalType": "uint256",
          "name": "safetyMinCollateralRatioBIPS",
          "type": "uint256"
        }
      ],
      "name": "CollateralRatiosChanged",
      "type": "event"
    },
    {
      "anonymous": false,
      "inputs": [
        {
          "indexed": true,
          "internalType": "address",
          "name": "agentVault",
          "type": "address"
        },
        {
          "indexed": true,
          "internalType": "address",
          "name": "minter",
          "type": "address"
        },
        {
          "indexed": true,
          "internalType": "uint256",
          "name": "collateralReservationId",
          "type": "uint256"
        }
      ],
      "name": "CollateralReservationCancelled",
      "type": "event"
    },
    {
      "anonymous": false,
      "inputs": [
        {
          "indexed": true,
          "internalType": "address",
          "name": "agentVault",
          "type": "address"
        },
        {
          "indexed": true,
          "internalType": "address",
          "name": "minter",
          "type": "address"
        },
        {
          "indexed": true,
          "internalType": "uint256",
          "name": "collateralReservationId",
          "type": "uint256"
        },
        {
          "indexed": false,
          "internalType": "uint256",
          "name": "reservedAmountUBA",
          "type": "uint256"
        }
      ],
      "name": "CollateralReservationDeleted",
      "type": "event"
    },
    {
      "anonymous": false,
      "inputs": [
        {
          "indexed": true,
          "internalType": "address",
          "name": "agentVault",
          "type": "address"
        },
        {
          "indexed": true,
          "internalType": "address",
          "name": "minter",
          "type": "address"
        },
        {
          "indexed": true,
          "internalType": "uint256",
          "name": "collateralReservationId",
          "type": "uint256"
        }
      ],
      "name": "CollateralReservationRejected",
      "type": "event"
    },
    {
      "anonymous": false,
      "inputs": [
        {
          "indexed": true,
          "internalType": "address",
          "name": "agentVault",
          "type": "address"
        },
        {
          "indexed": true,
          "internalType": "address",
          "name": "minter",
          "type": "address"
        },
        {
          "indexed": true,
          "internalType": "uint256",
          "name": "collateralReservationId",
          "type": "uint256"
        },
        {
          "indexed": false,
          "internalType": "uint256",
          "name": "valueUBA",
          "type": "uint256"
        },
        {
          "indexed": false,
          "internalType": "uint256",
          "name": "feeUBA",
          "type": "uint256"
        },
        {
          "indexed": false,
          "internalType": "uint256",
          "name": "firstUnderlyingBlock",
          "type": "uint256"
        },
        {
          "indexed": false,
          "internalType": "uint256",
          "name": "lastUnderlyingBlock",
          "type": "uint256"
        },
        {
          "indexed": false,
          "internalType": "uint256",
          "name": "lastUnderlyingTimestamp",
          "type": "uint256"
        },
        {
          "indexed": false,
          "internalType": "string",
          "name": "paymentAddress",
          "type": "string"
        },
        {
          "indexed": false,
          "internalType": "bytes32",
          "name": "paymentReference",
          "type": "bytes32"
        },
        {
          "indexed": false,
          "internalType": "address",
          "name": "executor",
          "type": "address"
        },
        {
          "indexed": false,
          "internalType": "uint256",
          "name": "executorFeeNatWei",
          "type": "uint256"
        }
      ],
      "name": "CollateralReserved",
      "type": "event"
    },
    {
      "anonymous": false,
      "inputs": [
        {
          "indexed": false,
          "internalType": "uint8",
          "name": "collateralClass",
          "type": "uint8"
        },
        {
          "indexed": false,
          "internalType": "address",
          "name": "token",
          "type": "address"
        },
        {
          "indexed": false,
          "internalType": "uint256",
          "name": "decimals",
          "type": "uint256"
        },
        {
          "indexed": false,
          "internalType": "bool",
          "name": "directPricePair",
          "type": "bool"
        },
        {
          "indexed": false,
          "internalType": "string",
          "name": "assetFtsoSymbol",
          "type": "string"
        },
        {
          "indexed": false,
          "internalType": "string",
          "name": "tokenFtsoSymbol",
          "type": "string"
        },
        {
          "indexed": false,
          "internalType": "uint256",
          "name": "minCollateralRatioBIPS",
          "type": "uint256"
        },
        {
          "indexed": false,
          "internalType": "uint256",
          "name": "ccbMinCollateralRatioBIPS",
          "type": "uint256"
        },
        {
          "indexed": false,
          "internalType": "uint256",
          "name": "safetyMinCollateralRatioBIPS",
          "type": "uint256"
        }
      ],
      "name": "CollateralTypeAdded",
      "type": "event"
    },
    {
      "anonymous": false,
      "inputs": [
        {
          "indexed": false,
          "internalType": "uint8",
          "name": "collateralClass",
          "type": "uint8"
        },
        {
          "indexed": false,
          "internalType": "address",
          "name": "collateralToken",
          "type": "address"
        },
        {
          "indexed": false,
          "internalType": "uint256",
          "name": "validUntil",
          "type": "uint256"
        }
      ],
      "name": "CollateralTypeDeprecated",
      "type": "event"
    },
    {
      "anonymous": false,
      "inputs": [
        {
          "indexed": false,
          "internalType": "string",
          "name": "name",
          "type": "string"
        },
        {
          "indexed": false,
          "internalType": "address",
          "name": "value",
          "type": "address"
        }
      ],
      "name": "ContractChanged",
      "type": "event"
    },
    {
      "anonymous": false,
      "inputs": [
        {
          "indexed": false,
          "internalType": "uint256",
          "name": "underlyingBlockNumber",
          "type": "uint256"
        },
        {
          "indexed": false,
          "internalType": "uint256",
          "name": "underlyingBlockTimestamp",
          "type": "uint256"
        },
        {
          "indexed": false,
          "internalType": "uint256",
          "name": "updatedAt",
          "type": "uint256"
        }
      ],
      "name": "CurrentUnderlyingBlockUpdated",
      "type": "event"
    },
    {
      "anonymous": false,
      "inputs": [
        {
          "indexed": true,
          "internalType": "address",
          "name": "agentVault",
          "type": "address"
        },
        {
          "indexed": false,
          "internalType": "bytes32",
          "name": "transactionHash1",
          "type": "bytes32"
        },
        {
          "indexed": false,
          "internalType": "bytes32",
          "name": "transactionHash2",
          "type": "bytes32"
        }
      ],
      "name": "DuplicatePaymentConfirmed",
      "type": "event"
    },
    {
      "anonymous": false,
      "inputs": [
        {
          "indexed": true,
          "internalType": "address",
          "name": "agentVault",
          "type": "address"
        },
        {
          "indexed": false,
          "internalType": "uint256",
          "name": "dustUBA",
          "type": "uint256"
        }
      ],
      "name": "DustChanged",
      "type": "event"
    },
    {
      "anonymous": false,
      "inputs": [],
      "name": "EmergencyPauseCanceled",
      "type": "event"
    },
    {
      "anonymous": false,
      "inputs": [],
      "name": "EmergencyPauseTransfersCanceled",
      "type": "event"
    },
    {
      "anonymous": false,
      "inputs": [
        {
          "indexed": false,
          "internalType": "uint256",
          "name": "pausedUntil",
          "type": "uint256"
        }
      ],
      "name": "EmergencyPauseTransfersTriggered",
      "type": "event"
    },
    {
      "anonymous": false,
      "inputs": [
        {
          "indexed": false,
          "internalType": "uint256",
          "name": "pausedUntil",
          "type": "uint256"
        }
      ],
      "name": "EmergencyPauseTriggered",
      "type": "event"
    },
    {
      "anonymous": false,
      "inputs": [
        {
          "indexed": true,
          "internalType": "address",
          "name": "agentVault",
          "type": "address"
        },
        {
          "indexed": false,
          "internalType": "uint256",
          "name": "timestamp",
          "type": "uint256"
        }
      ],
      "name": "FullLiquidationStarted",
      "type": "event"
    },
    {
      "anonymous": false,
      "inputs": [
        {
          "indexed": true,
          "internalType": "address",
          "name": "agentVault",
          "type": "address"
        },
        {
          "indexed": true,
          "internalType": "address",
          "name": "minter",
          "type": "address"
        },
        {
          "indexed": true,
          "internalType": "uint256",
          "name": "collateralReservationId",
          "type": "uint256"
        },
        {
          "indexed": false,
          "internalType": "string[]",
          "name": "minterUnderlyingAddresses",
          "type": "string[]"
        },
        {
          "indexed": false,
          "internalType": "uint256",
          "name": "valueUBA",
          "type": "uint256"
        },
        {
          "indexed": false,
          "internalType": "uint256",
          "name": "feeUBA",
          "type": "uint256"
        }
      ],
      "name": "HandshakeRequired",
      "type": "event"
    },
    {
      "anonymous": false,
      "inputs": [
        {
          "indexed": true,
          "internalType": "address",
          "name": "agentVault",
          "type": "address"
        },
        {
          "indexed": false,
          "internalType": "bytes32",
          "name": "transactionHash",
          "type": "bytes32"
        }
      ],
      "name": "IllegalPaymentConfirmed",
      "type": "event"
    },
    {
      "anonymous": false,
      "inputs": [
        {
          "indexed": true,
          "internalType": "address",
          "name": "agentVault",
          "type": "address"
        }
      ],
      "name": "LiquidationEnded",
      "type": "event"
    },
    {
      "anonymous": false,
      "inputs": [
        {
          "indexed": true,
          "internalType": "address",
          "name": "agentVault",
          "type": "address"
        },
        {
          "indexed": true,
          "internalType": "address",
          "name": "liquidator",
          "type": "address"
        },
        {
          "indexed": false,
          "internalType": "uint256",
          "name": "valueUBA",
          "type": "uint256"
        },
        {
          "indexed": false,
          "internalType": "uint256",
          "name": "paidVaultCollateralWei",
          "type": "uint256"
        },
        {
          "indexed": false,
          "internalType": "uint256",
          "name": "paidPoolCollateralWei",
          "type": "uint256"
        }
      ],
      "name": "LiquidationPerformed",
      "type": "event"
    },
    {
      "anonymous": false,
      "inputs": [
        {
          "indexed": true,
          "internalType": "address",
          "name": "agentVault",
          "type": "address"
        },
        {
          "indexed": false,
          "internalType": "uint256",
          "name": "timestamp",
          "type": "uint256"
        }
      ],
      "name": "LiquidationStarted",
      "type": "event"
    },
    {
      "anonymous": false,
      "inputs": [
        {
          "indexed": true,
          "internalType": "address",
          "name": "agentVault",
          "type": "address"
        },
        {
          "indexed": true,
          "internalType": "uint256",
          "name": "collateralReservationId",
          "type": "uint256"
        },
        {
          "indexed": false,
          "internalType": "uint256",
          "name": "mintedAmountUBA",
          "type": "uint256"
        },
        {
          "indexed": false,
          "internalType": "uint256",
          "name": "agentFeeUBA",
          "type": "uint256"
        },
        {
          "indexed": false,
          "internalType": "uint256",
          "name": "poolFeeUBA",
          "type": "uint256"
        }
      ],
      "name": "MintingExecuted",
      "type": "event"
    },
    {
      "anonymous": false,
      "inputs": [
        {
          "indexed": true,
          "internalType": "address",
          "name": "agentVault",
          "type": "address"
        },
        {
          "indexed": true,
          "internalType": "address",
          "name": "minter",
          "type": "address"
        },
        {
          "indexed": true,
          "internalType": "uint256",
          "name": "collateralReservationId",
          "type": "uint256"
        },
        {
          "indexed": false,
          "internalType": "uint256",
          "name": "reservedAmountUBA",
          "type": "uint256"
        }
      ],
      "name": "MintingPaymentDefault",
      "type": "event"
    },
    {
      "anonymous": false,
      "inputs": [
        {
          "indexed": true,
          "internalType": "address",
          "name": "agentVault",
          "type": "address"
        },
        {
          "indexed": false,
          "internalType": "uint256",
          "name": "amountWei",
          "type": "uint256"
        },
        {
          "indexed": false,
          "internalType": "uint256",
          "name": "withdrawalAllowedAt",
          "type": "uint256"
        }
      ],
      "name": "PoolTokenRedemptionAnnounced",
      "type": "event"
    },
    {
      "anonymous": false,
      "inputs": [
        {
          "indexed": true,
          "internalType": "address",
          "name": "agentVault",
          "type": "address"
        },
        {
          "indexed": true,
          "internalType": "address",
          "name": "redeemer",
          "type": "address"
        },
        {
          "indexed": false,
          "internalType": "uint256",
          "name": "redemptionAmountUBA",
          "type": "uint256"
        },
        {
          "indexed": false,
          "internalType": "uint256",
          "name": "paidVaultCollateralWei",
          "type": "uint256"
        }
      ],
      "name": "RedeemedInCollateral",
      "type": "event"
    },
    {
      "anonymous": false,
      "inputs": [
        {
          "indexed": true,
          "internalType": "address",
          "name": "agentVault",
          "type": "address"
        },
        {
          "indexed": true,
          "internalType": "address",
          "name": "redeemer",
          "type": "address"
        },
        {
          "indexed": true,
          "internalType": "uint64",
          "name": "requestId",
          "type": "uint64"
        },
        {
          "indexed": false,
          "internalType": "uint256",
          "name": "redemptionAmountUBA",
          "type": "uint256"
        },
        {
          "indexed": false,
          "internalType": "uint256",
          "name": "redeemedVaultCollateralWei",
          "type": "uint256"
        },
        {
          "indexed": false,
          "internalType": "uint256",
          "name": "redeemedPoolCollateralWei",
          "type": "uint256"
        }
      ],
      "name": "RedemptionDefault",
      "type": "event"
    },
    {
      "anonymous": false,
      "inputs": [
        {
          "indexed": true,
          "internalType": "address",
          "name": "agentVault",
          "type": "address"
        },
        {
          "indexed": true,
          "internalType": "address",
          "name": "redeemer",
          "type": "address"
        },
        {
          "indexed": true,
          "internalType": "uint64",
          "name": "requestId",
          "type": "uint64"
        },
        {
          "indexed": false,
          "internalType": "bytes32",
          "name": "transactionHash",
          "type": "bytes32"
        },
        {
          "indexed": false,
          "internalType": "uint256",
          "name": "redemptionAmountUBA",
          "type": "uint256"
        },
        {
          "indexed": false,
          "internalType": "int256",
          "name": "spentUnderlyingUBA",
          "type": "int256"
        }
      ],
      "name": "RedemptionPaymentBlocked",
      "type": "event"
    },
    {
      "anonymous": false,
      "inputs": [
        {
          "indexed": true,
          "internalType": "address",
          "name": "agentVault",
          "type": "address"
        },
        {
          "indexed": true,
          "internalType": "address",
          "name": "redeemer",
          "type": "address"
        },
        {
          "indexed": true,
          "internalType": "uint64",
          "name": "requestId",
          "type": "uint64"
        },
        {
          "indexed": false,
          "internalType": "bytes32",
          "name": "transactionHash",
          "type": "bytes32"
        },
        {
          "indexed": false,
          "internalType": "int256",
          "name": "spentUnderlyingUBA",
          "type": "int256"
        },
        {
          "indexed": false,
          "internalType": "string",
          "name": "failureReason",
          "type": "string"
        }
      ],
      "name": "RedemptionPaymentFailed",
      "type": "event"
    },
    {
      "anonymous": false,
      "inputs": [
        {
          "indexed": true,
          "internalType": "address",
          "name": "agentVault",
          "type": "address"
        },
        {
          "indexed": true,
          "internalType": "address",
          "name": "redeemer",
          "type": "address"
        },
        {
          "indexed": true,
          "internalType": "uint64",
          "name": "requestId",
          "type": "uint64"
        },
        {
          "indexed": false,
          "internalType": "bytes32",
          "name": "transactionHash",
          "type": "bytes32"
        },
        {
          "indexed": false,
          "internalType": "uint256",
          "name": "redemptionAmountUBA",
          "type": "uint256"
        },
        {
          "indexed": false,
          "internalType": "int256",
          "name": "spentUnderlyingUBA",
          "type": "int256"
        }
      ],
      "name": "RedemptionPerformed",
      "type": "event"
    },
    {
      "anonymous": false,
      "inputs": [
        {
          "indexed": true,
          "internalType": "address",
          "name": "agentVault",
          "type": "address"
        },
        {
          "indexed": true,
          "internalType": "uint64",
          "name": "requestId",
          "type": "uint64"
        },
        {
          "indexed": false,
          "internalType": "uint256",
          "name": "poolFeeUBA",
          "type": "uint256"
        }
      ],
      "name": "RedemptionPoolFeeMinted",
      "type": "event"
    },
    {
      "anonymous": false,
      "inputs": [
        {
          "indexed": true,
          "internalType": "address",
          "name": "agentVault",
          "type": "address"
        },
        {
          "indexed": true,
          "internalType": "address",
          "name": "redeemer",
          "type": "address"
        },
        {
          "indexed": true,
          "internalType": "uint64",
          "name": "requestId",
          "type": "uint64"
        },
        {
          "indexed": false,
          "internalType": "uint256",
          "name": "redemptionAmountUBA",
          "type": "uint256"
        }
      ],
      "name": "RedemptionRejected",
      "type": "event"
    },
    {
      "anonymous": false,
      "inputs": [
        {
          "indexed": true,
          "internalType": "address",
          "name": "redeemer",
          "type": "address"
        },
        {
          "indexed": false,
          "internalType": "uint256",
          "name": "remainingLots",
          "type": "uint256"
        }
      ],
      "name": "RedemptionRequestIncomplete",
      "type": "event"
    },
    {
      "anonymous": false,
      "inputs": [
        {
          "indexed": true,
          "internalType": "address",
          "name": "agentVault",
          "type": "address"
        },
        {
          "indexed": true,
          "internalType": "address",
          "name": "redeemer",
          "type": "address"
        },
        {
          "indexed": true,
          "internalType": "uint64",
          "name": "requestId",
          "type": "uint64"
        },
        {
          "indexed": false,
          "internalType": "string",
          "name": "paymentAddress",
          "type": "string"
        },
        {
          "indexed": false,
          "internalType": "uint256",
          "name": "valueUBA",
          "type": "uint256"
        }
      ],
      "name": "RedemptionRequestRejected",
      "type": "event"
    },
    {
      "anonymous": false,
      "inputs": [
        {
          "indexed": true,
          "internalType": "address",
          "name": "agentVault",
          "type": "address"
        },
        {
          "indexed": true,
          "internalType": "address",
          "name": "redeemer",
          "type": "address"
        },
        {
          "indexed": true,
          "internalType": "uint64",
          "name": "requestId",
          "type": "uint64"
        },
        {
          "indexed": false,
          "internalType": "uint256",
          "name": "valueTakenOverUBA",
          "type": "uint256"
        },
        {
          "indexed": false,
          "internalType": "address",
          "name": "newAgentVault",
          "type": "address"
        },
        {
          "indexed": false,
          "internalType": "uint64",
          "name": "newRequestId",
          "type": "uint64"
        }
      ],
      "name": "RedemptionRequestTakenOver",
      "type": "event"
    },
    {
      "anonymous": false,
      "inputs": [
        {
          "indexed": true,
          "internalType": "address",
          "name": "agentVault",
          "type": "address"
        },
        {
          "indexed": true,
          "internalType": "address",
          "name": "redeemer",
          "type": "address"
        },
        {
          "indexed": true,
          "internalType": "uint256",
          "name": "requestId",
          "type": "uint256"
        },
        {
          "indexed": false,
          "internalType": "string",
          "name": "paymentAddress",
          "type": "string"
        },
        {
          "indexed": false,
          "internalType": "uint256",
          "name": "valueUBA",
          "type": "uint256"
        },
        {
          "indexed": false,
          "internalType": "uint256",
          "name": "feeUBA",
          "type": "uint256"
        },
        {
          "indexed": false,
          "internalType": "uint256",
          "name": "firstUnderlyingBlock",
          "type": "uint256"
        },
        {
          "indexed": false,
          "internalType": "uint256",
          "name": "lastUnderlyingBlock",
          "type": "uint256"
        },
        {
          "indexed": false,
          "internalType": "uint256",
          "name": "lastUnderlyingTimestamp",
          "type": "uint256"
        },
        {
          "indexed": false,
          "internalType": "bytes32",
          "name": "paymentReference",
          "type": "bytes32"
        },
        {
          "indexed": false,
          "internalType": "address",
          "name": "executor",
          "type": "address"
        },
        {
          "indexed": false,
          "internalType": "uint256",
          "name": "executorFeeNatWei",
          "type": "uint256"
        }
      ],
      "name": "RedemptionRequested",
      "type": "event"
    },
    {
      "anonymous": false,
      "inputs": [
        {
          "indexed": true,
          "internalType": "address",
          "name": "agentVault",
          "type": "address"
        },
        {
          "indexed": true,
          "internalType": "uint256",
          "name": "redemptionTicketId",
          "type": "uint256"
        },
        {
          "indexed": false,
          "internalType": "uint256",
          "name": "ticketValueUBA",
          "type": "uint256"
        }
      ],
      "name": "RedemptionTicketCreated",
      "type": "event"
    },
    {
      "anonymous": false,
      "inputs": [
        {
          "indexed": true,
          "internalType": "address",
          "name": "agentVault",
          "type": "address"
        },
        {
          "indexed": true,
          "internalType": "uint256",
          "name": "redemptionTicketId",
          "type": "uint256"
        }
      ],
      "name": "RedemptionTicketDeleted",
      "type": "event"
    },
    {
      "anonymous": false,
      "inputs": [
        {
          "indexed": true,
          "internalType": "address",
          "name": "agentVault",
          "type": "address"
        },
        {
          "indexed": true,
          "internalType": "uint256",
          "name": "redemptionTicketId",
          "type": "uint256"
        },
        {
          "indexed": false,
          "internalType": "uint256",
          "name": "ticketValueUBA",
          "type": "uint256"
        }
      ],
      "name": "RedemptionTicketUpdated",
      "type": "event"
    },
    {
      "anonymous": false,
      "inputs": [
        {
          "indexed": true,
          "internalType": "address",
          "name": "agentVault",
          "type": "address"
        },
        {
          "indexed": false,
          "internalType": "uint256",
          "name": "valueUBA",
          "type": "uint256"
        }
      ],
      "name": "SelfClose",
      "type": "event"
    },
    {
      "anonymous": false,
      "inputs": [
        {
          "indexed": true,
          "internalType": "address",
          "name": "agentVault",
          "type": "address"
        },
        {
          "indexed": false,
          "internalType": "bool",
          "name": "mintFromFreeUnderlying",
          "type": "bool"
        },
        {
          "indexed": false,
          "internalType": "uint256",
          "name": "mintedAmountUBA",
          "type": "uint256"
        },
        {
          "indexed": false,
          "internalType": "uint256",
          "name": "depositedAmountUBA",
          "type": "uint256"
        },
        {
          "indexed": false,
          "internalType": "uint256",
          "name": "poolFeeUBA",
          "type": "uint256"
        }
      ],
      "name": "SelfMint",
      "type": "event"
    },
    {
      "anonymous": false,
      "inputs": [
        {
          "indexed": false,
          "internalType": "string",
          "name": "name",
          "type": "string"
        },
        {
          "indexed": false,
          "internalType": "uint256[]",
          "name": "value",
          "type": "uint256[]"
        }
      ],
      "name": "SettingArrayChanged",
      "type": "event"
    },
    {
      "anonymous": false,
      "inputs": [
        {
          "indexed": false,
          "internalType": "string",
          "name": "name",
          "type": "string"
        },
        {
          "indexed": false,
          "internalType": "uint256",
          "name": "value",
          "type": "uint256"
        }
      ],
      "name": "SettingChanged",
      "type": "event"
    },
    {
      "anonymous": false,
      "inputs": [
        {
          "indexed": true,
          "internalType": "address",
          "name": "agentVault",
          "type": "address"
        },
        {
          "indexed": false,
          "internalType": "int256",
          "name": "underlyingBalanceUBA",
          "type": "int256"
        }
      ],
      "name": "UnderlyingBalanceChanged",
      "type": "event"
    },
    {
      "anonymous": false,
      "inputs": [
        {
          "indexed": true,
          "internalType": "address",
          "name": "agentVault",
          "type": "address"
        },
        {
          "indexed": false,
          "internalType": "int256",
          "name": "balance",
          "type": "int256"
        },
        {
          "indexed": false,
          "internalType": "uint256",
          "name": "requiredBalance",
          "type": "uint256"
        }
      ],
      "name": "UnderlyingBalanceTooLow",
      "type": "event"
    },
    {
      "anonymous": false,
      "inputs": [
        {
          "indexed": true,
          "internalType": "address",
          "name": "agentVault",
          "type": "address"
        },
        {
          "indexed": false,
          "internalType": "bytes32",
          "name": "transactionHash",
          "type": "bytes32"
        },
        {
          "indexed": false,
          "internalType": "uint256",
          "name": "depositedUBA",
          "type": "uint256"
        }
      ],
      "name": "UnderlyingBalanceToppedUp",
      "type": "event"
    },
    {
      "anonymous": false,
      "inputs": [
        {
          "indexed": true,
          "internalType": "address",
          "name": "agentVault",
          "type": "address"
        },
        {
          "indexed": true,
          "internalType": "uint64",
          "name": "announcementId",
          "type": "uint64"
        },
        {
          "indexed": false,
          "internalType": "bytes32",
          "name": "paymentReference",
          "type": "bytes32"
        }
      ],
      "name": "UnderlyingWithdrawalAnnounced",
      "type": "event"
    },
    {
      "anonymous": false,
      "inputs": [
        {
          "indexed": true,
          "internalType": "address",
          "name": "agentVault",
          "type": "address"
        },
        {
          "indexed": true,
          "internalType": "uint64",
          "name": "announcementId",
          "type": "uint64"
        }
      ],
      "name": "UnderlyingWithdrawalCancelled",
      "type": "event"
    },
    {
      "anonymous": false,
      "inputs": [
        {
          "indexed": true,
          "internalType": "address",
          "name": "agentVault",
          "type": "address"
        },
        {
          "indexed": true,
          "internalType": "uint64",
          "name": "announcementId",
          "type": "uint64"
        },
        {
          "indexed": false,
          "internalType": "int256",
          "name": "spentUBA",
          "type": "int256"
        },
        {
          "indexed": false,
          "internalType": "bytes32",
          "name": "transactionHash",
          "type": "bytes32"
        }
      ],
      "name": "UnderlyingWithdrawalConfirmed",
      "type": "event"
    },
    {
      "anonymous": false,
      "inputs": [
        {
          "indexed": true,
          "internalType": "address",
          "name": "agentVault",
          "type": "address"
        },
        {
          "indexed": false,
          "internalType": "uint256",
          "name": "amountWei",
          "type": "uint256"
        },
        {
          "indexed": false,
          "internalType": "uint256",
          "name": "withdrawalAllowedAt",
          "type": "uint256"
        }
      ],
      "name": "VaultCollateralWithdrawalAnnounced",
      "type": "event"
    },
    {
      "inputs": [
        {
          "internalType": "uint256",
          "name": "_value",
          "type": "uint256"
        }
      ],
      "name": "setAgentExitAvailableTimelockSeconds",
      "outputs": [],
      "stateMutability": "nonpayable",
      "type": "function"
    },
    {
      "inputs": [
        {
          "internalType": "uint256",
          "name": "_value",
          "type": "uint256"
        }
      ],
      "name": "setAgentFeeChangeTimelockSeconds",
      "outputs": [],
      "stateMutability": "nonpayable",
      "type": "function"
    },
    {
      "inputs": [
        {
          "internalType": "uint256",
          "name": "_value",
          "type": "uint256"
        }
      ],
      "name": "setAgentMintingCRChangeTimelockSeconds",
      "outputs": [],
      "stateMutability": "nonpayable",
      "type": "function"
    },
    {
      "inputs": [
        {
          "internalType": "address",
          "name": "_value",
          "type": "address"
        }
      ],
      "name": "setAgentOwnerRegistry",
      "outputs": [],
      "stateMutability": "nonpayable",
      "type": "function"
    },
    {
      "inputs": [
        {
          "internalType": "uint256",
          "name": "_value",
          "type": "uint256"
        }
      ],
      "name": "setAgentTimelockedOperationWindowSeconds",
      "outputs": [],
      "stateMutability": "nonpayable",
      "type": "function"
    },
    {
      "inputs": [
        {
          "internalType": "address",
          "name": "_value",
          "type": "address"
        }
      ],
      "name": "setAgentVaultFactory",
      "outputs": [],
      "stateMutability": "nonpayable",
      "type": "function"
    },
    {
      "inputs": [
        {
          "internalType": "uint256",
          "name": "_value",
          "type": "uint256"
        }
      ],
      "name": "setAnnouncedUnderlyingConfirmationMinSeconds",
      "outputs": [],
      "stateMutability": "nonpayable",
      "type": "function"
    },
    {
      "inputs": [
        {
          "internalType": "uint256",
          "name": "_value",
          "type": "uint256"
        }
      ],
      "name": "setAttestationWindowSeconds",
      "outputs": [],
      "stateMutability": "nonpayable",
      "type": "function"
    },
    {
      "inputs": [
        {
          "internalType": "uint256",
          "name": "_value",
          "type": "uint256"
        }
      ],
      "name": "setAverageBlockTimeMS",
      "outputs": [],
      "stateMutability": "nonpayable",
      "type": "function"
    },
    {
      "inputs": [
        {
          "internalType": "uint256",
          "name": "_value",
          "type": "uint256"
        }
      ],
      "name": "setCancelCollateralReservationAfterSeconds",
      "outputs": [],
      "stateMutability": "nonpayable",
      "type": "function"
    },
    {
      "inputs": [
        {
          "internalType": "uint256",
          "name": "_value",
          "type": "uint256"
        }
      ],
      "name": "setCcbTimeSeconds",
      "outputs": [],
      "stateMutability": "nonpayable",
      "type": "function"
    },
    {
      "inputs": [
        {
          "internalType": "address",
          "name": "_value",
          "type": "address"
        }
      ],
      "name": "setCleanerContract",
      "outputs": [],
      "stateMutability": "nonpayable",
      "type": "function"
    },
    {
      "inputs": [
        {
          "internalType": "address",
          "name": "_value",
          "type": "address"
        }
      ],
      "name": "setCleanupBlockNumberManager",
      "outputs": [],
      "stateMutability": "nonpayable",
      "type": "function"
    },
    {
      "inputs": [
        {
          "internalType": "address",
          "name": "_value",
          "type": "address"
        }
      ],
      "name": "setCollateralPoolFactory",
      "outputs": [],
      "stateMutability": "nonpayable",
      "type": "function"
    },
    {
      "inputs": [
        {
          "internalType": "address",
          "name": "_value",
          "type": "address"
        }
      ],
      "name": "setCollateralPoolTokenFactory",
      "outputs": [],
      "stateMutability": "nonpayable",
      "type": "function"
    },
    {
      "inputs": [
        {
          "internalType": "uint256",
          "name": "_value",
          "type": "uint256"
        }
      ],
      "name": "setCollateralPoolTokenTimelockSeconds",
      "outputs": [],
      "stateMutability": "nonpayable",
      "type": "function"
    },
    {
      "inputs": [
        {
          "internalType": "uint256",
          "name": "_value",
          "type": "uint256"
        }
      ],
      "name": "setCollateralReservationFeeBips",
      "outputs": [],
      "stateMutability": "nonpayable",
      "type": "function"
    },
    {
      "inputs": [
        {
          "internalType": "uint256",
          "name": "_value",
          "type": "uint256"
        }
      ],
      "name": "setConfirmationByOthersAfterSeconds",
      "outputs": [],
      "stateMutability": "nonpayable",
      "type": "function"
    },
    {
      "inputs": [
        {
          "internalType": "uint256",
          "name": "_value",
          "type": "uint256"
        }
      ],
      "name": "setConfirmationByOthersRewardUSD5",
      "outputs": [],
      "stateMutability": "nonpayable",
      "type": "function"
    },
    {
      "inputs": [
        {
          "internalType": "uint256",
          "name": "_value",
          "type": "uint256"
        }
      ],
      "name": "setEmergencyPauseDurationResetAfterSeconds",
      "outputs": [],
      "stateMutability": "nonpayable",
      "type": "function"
    },
    {
      "inputs": [
        {
          "internalType": "address",
          "name": "_value",
          "type": "address"
        }
      ],
      "name": "setFdcVerification",
      "outputs": [],
      "stateMutability": "nonpayable",
      "type": "function"
    },
    {
      "inputs": [
        {
          "internalType": "uint256[]",
          "name": "_liquidationFactors",
          "type": "uint256[]"
        },
        {
          "internalType": "uint256[]",
          "name": "_vaultCollateralFactors",
          "type": "uint256[]"
        }
      ],
      "name": "setLiquidationPaymentFactors",
      "outputs": [],
      "stateMutability": "nonpayable",
      "type": "function"
    },
    {
      "inputs": [
        {
          "internalType": "uint256",
          "name": "_stepSeconds",
          "type": "uint256"
        }
      ],
      "name": "setLiquidationStepSeconds",
      "outputs": [],
      "stateMutability": "nonpayable",
      "type": "function"
    },
    {
      "inputs": [
        {
          "internalType": "uint256",
          "name": "_value",
          "type": "uint256"
        }
      ],
      "name": "setLotSizeAmg",
      "outputs": [],
      "stateMutability": "nonpayable",
      "type": "function"
    },
    {
      "inputs": [
        {
          "internalType": "uint256",
          "name": "_value",
          "type": "uint256"
        }
      ],
      "name": "setMaxEmergencyPauseDurationSeconds",
      "outputs": [],
      "stateMutability": "nonpayable",
      "type": "function"
    },
    {
      "inputs": [
        {
          "internalType": "uint256",
          "name": "_value",
          "type": "uint256"
        }
      ],
      "name": "setMaxRedeemedTickets",
      "outputs": [],
      "stateMutability": "nonpayable",
      "type": "function"
    },
    {
      "inputs": [
        {
          "internalType": "uint256",
          "name": "_value",
          "type": "uint256"
        }
      ],
      "name": "setMaxTrustedPriceAgeSeconds",
      "outputs": [],
      "stateMutability": "nonpayable",
      "type": "function"
    },
    {
      "inputs": [
        {
          "internalType": "uint256",
          "name": "_value",
          "type": "uint256"
        }
      ],
      "name": "setMinUnderlyingBackingBips",
      "outputs": [],
      "stateMutability": "nonpayable",
      "type": "function"
    },
    {
      "inputs": [
        {
          "internalType": "uint256",
          "name": "_value",
          "type": "uint256"
        }
      ],
      "name": "setMinUpdateRepeatTimeSeconds",
      "outputs": [],
      "stateMutability": "nonpayable",
      "type": "function"
    },
    {
      "inputs": [
        {
          "internalType": "uint256",
          "name": "_value",
          "type": "uint256"
        }
      ],
      "name": "setMintingCapAmg",
      "outputs": [],
      "stateMutability": "nonpayable",
      "type": "function"
    },
    {
      "inputs": [
        {
          "internalType": "uint256",
          "name": "_value",
          "type": "uint256"
        }
      ],
      "name": "setMintingPoolHoldingsRequiredBIPS",
      "outputs": [],
      "stateMutability": "nonpayable",
      "type": "function"
    },
    {
      "inputs": [
        {
          "internalType": "uint256",
          "name": "_rewardNATWei",
          "type": "uint256"
        },
        {
          "internalType": "uint256",
          "name": "_rewardBIPS",
          "type": "uint256"
        }
      ],
      "name": "setPaymentChallengeReward",
      "outputs": [],
      "stateMutability": "nonpayable",
      "type": "function"
    },
    {
      "inputs": [
        {
          "internalType": "uint256",
          "name": "_value",
          "type": "uint256"
        }
      ],
      "name": "setPoolExitAndTopupChangeTimelockSeconds",
      "outputs": [],
      "stateMutability": "nonpayable",
      "type": "function"
    },
    {
      "inputs": [
        {
          "internalType": "address",
          "name": "_value",
          "type": "address"
        }
      ],
      "name": "setPriceReader",
      "outputs": [],
      "stateMutability": "nonpayable",
      "type": "function"
    },
    {
      "inputs": [
        {
          "internalType": "uint256",
          "name": "_vaultFactor",
          "type": "uint256"
        },
        {
          "internalType": "uint256",
          "name": "_poolFactor",
          "type": "uint256"
        }
      ],
      "name": "setRedemptionDefaultFactorBips",
      "outputs": [],
      "stateMutability": "nonpayable",
      "type": "function"
    },
    {
      "inputs": [
        {
          "internalType": "uint256",
          "name": "_value",
          "type": "uint256"
        }
      ],
      "name": "setRedemptionFeeBips",
      "outputs": [],
      "stateMutability": "nonpayable",
      "type": "function"
    },
    {
      "inputs": [
        {
          "internalType": "uint256",
          "name": "_value",
          "type": "uint256"
        }
      ],
      "name": "setRejectOrCancelCollateralReservationReturnFactorBIPS",
      "outputs": [],
      "stateMutability": "nonpayable",
      "type": "function"
    },
    {
      "inputs": [
        {
          "internalType": "uint256",
          "name": "_value",
          "type": "uint256"
        }
      ],
      "name": "setRejectRedemptionRequestWindowSeconds",
      "outputs": [],
      "stateMutability": "nonpayable",
      "type": "function"
    },
    {
      "inputs": [
        {
          "internalType": "uint256",
          "name": "_vaultF",
          "type": "uint256"
        },
        {
          "internalType": "uint256",
          "name": "_poolF",
          "type": "uint256"
        }
      ],
      "name": "setRejectedRedemptionDefaultFactorBips",
      "outputs": [],
      "stateMutability": "nonpayable",
      "type": "function"
    },
    {
      "inputs": [
        {
          "internalType": "uint256",
          "name": "_value",
          "type": "uint256"
        }
      ],
      "name": "setTakeOverRedemptionRequestWindowSeconds",
      "outputs": [],
      "stateMutability": "nonpayable",
      "type": "function"
    },
    {
      "inputs": [
        {
          "internalType": "uint256",
          "name": "_underlyingBlocks",
          "type": "uint256"
        },
        {
          "internalType": "uint256",
          "name": "_underlyingSeconds",
          "type": "uint256"
        }
      ],
      "name": "setTimeForPayment",
      "outputs": [],
      "stateMutability": "nonpayable",
      "type": "function"
    },
    {
      "inputs": [
        {
          "internalType": "uint256",
          "name": "_value",
          "type": "uint256"
        }
      ],
      "name": "setTokenInvalidationTimeMinSeconds",
      "outputs": [],
      "stateMutability": "nonpayable",
      "type": "function"
    },
    {
      "inputs": [
        {
          "internalType": "uint256",
          "name": "_value",
          "type": "uint256"
        }
      ],
      "name": "setVaultCollateralBuyForFlareFactorBIPS",
      "outputs": [],
      "stateMutability": "nonpayable",
      "type": "function"
    },
    {
      "inputs": [
        {
          "internalType": "address",
          "name": "_value",
          "type": "address"
        }
      ],
      "name": "setWhitelist",
      "outputs": [],
      "stateMutability": "nonpayable",
      "type": "function"
    },
    {
      "inputs": [
        {
          "internalType": "uint256",
          "name": "_value",
          "type": "uint256"
        }
      ],
      "name": "setWithdrawalOrDestroyWaitMinSeconds",
      "outputs": [],
      "stateMutability": "nonpayable",
      "type": "function"
    },
    {
      "inputs": [
        {
          "internalType": "address",
          "name": "_controller",
          "type": "address"
        },
        {
          "internalType": "contract IWNat",
          "name": "_wNat",
          "type": "address"
        }
      ],
      "name": "updateSystemContracts",
      "outputs": [],
      "stateMutability": "nonpayable",
      "type": "function"
    },
    {
      "inputs": [
        {
          "internalType": "address",
          "name": "_value",
          "type": "address"
        },
        {
          "internalType": "bytes",
          "name": "callData",
          "type": "bytes"
        }
      ],
      "name": "upgradeFAssetImplementation",
      "outputs": [],
      "stateMutability": "nonpayable",
      "type": "function"
    }
  ],
  "bytecode": "0x608060405234801561001057600080fd5b506156d080620000216000396000f3fe608060405234801561001057600080fd5b50600436106102955760003560e01c8063812e7d2e11610167578063d57d25c5116100ce578063e443147f11610087578063e443147f146105a7578063e68f3fbf146105ba578063ec516d24146105cd578063f35653f1146105e0578063f6a494af146105f3578063f9b9b4461461060657600080fd5b8063d57d25c514610535578063db8617d614610548578063dd64bd041461055b578063de034c701461056e578063df06ea9614610581578063dfc594171461059457600080fd5b8063af5f2b9811610120578063af5f2b98146104c3578063b2e6a2b5146104d6578063be069719146104e9578063cda4c541146104fc578063cfcb991d1461050f578063d07433951461052257600080fd5b8063812e7d2e14610451578063854cff2f146104645780638d94510a146104775780639db27f551461048a578063a36bf7ce1461049d578063ad74c72d146104b057600080fd5b80635ac5c11e1161020b5780636b38c643116101c45780636b38c643146103df5780636dd3d589146103f25780636df310d6146104055780637800a11f146104185780637b6fa7621461042b5780637f4fcaa91461043e57600080fd5b80635ac5c11e1461036d5780636075765d1461038057806368f224ba1461039357806369b89e7e146103a65780636a598609146103b95780636ad6fb4f146103cc57600080fd5b80632ae535ab1161025d5780632ae535ab146102fb5780632c06abf01461030e57806335b35f4b146103215780633703cfe01461033457806347814c0614610347578063568ae58e1461035a57600080fd5b8063050f44391461029a5780630a9ad520146102af57806313d6a5e2146102c25780631529264f146102d55780632779aaaa146102e8575b600080fd5b6102ad6102a8366004614d46565b610619565b005b6102ad6102bd366004614d46565b6106c9565b6102ad6102d0366004614d74565b6107c2565b6102ad6102e3366004614d91565b610877565b6102ad6102f6366004614d46565b610b28565b6102ad610309366004614d46565b610c16565b6102ad61031c366004614d46565b610d85565b6102ad61032f366004614d91565b610e7c565b6102ad610342366004614d46565b61113d565b6102ad610355366004614d46565b6112b0565b6102ad610368366004614d46565b6113df565b6102ad61037b366004614d46565b611533565b6102ad61038e366004614db3565b61168f565b6102ad6103a1366004614d91565b6117c0565b6102ad6103b4366004614d91565b6119fc565b6102ad6103c7366004614e32565b611b77565b6102ad6103da366004614d46565b611cc7565b6102ad6103ed366004614d46565b611d89565b6102ad610400366004614d74565b611e59565b6102ad610413366004614d46565b611f09565b6102ad610426366004614d46565b61206b565b6102ad610439366004614d46565b6121e0565b6102ad61044c366004614d74565b6122d5565b6102ad61045f366004614d46565b6123ac565b6102ad610472366004614d74565b61247e565b6102ad610485366004614d46565b6124fd565b6102ad610498366004614d46565b612650565b6102ad6104ab366004614d46565b6127a0565b6102ad6104be366004614d46565b61290d565b6102ad6104d1366004614d46565b6129e6565b6102ad6104e4366004614d46565b612bf4565b6102ad6104f7366004614d74565b612cbe565b6102ad61050a366004614d74565b612d64565b6102ad61051d366004614d46565b612e11565b6102ad610530366004614d46565b612f33565b6102ad610543366004614d46565b613072565b6102ad610556366004614d46565b61313a565b6102ad610569366004614d46565b61323b565b6102ad61057c366004614d46565b61334c565b6102ad61058f366004614d74565b613497565b6102ad6105a2366004614d46565b61354f565b6102ad6105b5366004614d74565b613647565b6102ad6105c8366004614d46565b6136f1565b6102ad6105db366004614f58565b613804565b6102ad6105ee366004614d46565b61393d565b6102ad610601366004614d74565b613abb565b6102ad610614366004614d46565b613b84565b610621613cb5565b610629613d1e565b6000610633613d35565b905061063e82613d59565b6012820180546001600160401b0392909216600160401b0267ffffffffffffffff60401b1990921691909117905560408051818152601f918101919091527f746f6b656e496e76616c69646174696f6e54696d654d696e5365636f6e64730060608201526020810183905260008051602061567b833981519152906080015b60405180910390a15050565b6106d1613cb5565b6106d9613d1e565b60006106e3613d35565b601381015490915061070690600160801b90046001600160401b03166004614fd1565b6107139062015180614ffc565b6001600160401b031682111561072857600080fd5b61073182613d59565b6013820180546001600160401b0392909216600160801b0267ffffffffffffffff60801b19909216919091179055604080518181526025918101919091527f706f6f6c45786974416e64546f7075704368616e676554696d656c6f636b5365606082015264636f6e647360d81b60808201526020810183905260008051602061567b8339815191529060a0016106bd565b6107ca613cb5565b6107d2613d1e565b60006107dc613d35565b90506001600160a01b03821661080d5760405162461bcd60e51b815260040161080490615023565b60405180910390fd5b6002810180546001600160a01b0319166001600160a01b03841690811790915560408051818152601191810191909152706167656e745661756c74466163746f727960781b6060820152602081019190915260008051602061565b833981519152906080016106bd565b61087f613cb5565b610887613d1e565b6000610891613d35565b90506127106108a08385615049565b116108e25760405162461bcd60e51b8152602060048201526012602482015271626970732076616c756520746f6f206c6f7760701b6044820152606401610804565b600e8101546109059063ffffffff600160501b909104811690612ee090613dc516565b610911906103e8615049565b8311156109305760405162461bcd60e51b81526004016108049061505c565b600e8101546109539063ffffffff600160501b90910481169061208d90613dc516565b8310156109725760405162461bcd60e51b81526004016108049061508a565b600e8101546109959063ffffffff600160701b909104811690612ee090613dc516565b6109a1906103e8615049565b8211156109c05760405162461bcd60e51b81526004016108049061505c565b600e8101546109e39063ffffffff600160701b90910481169061208d90613dc516565b821015610a025760405162461bcd60e51b81526004016108049061508a565b610a0b83613ddd565b600e8201805463ffffffff60501b1916600160501b63ffffffff939093169290920291909117905560408051818152602a818301527f726564656d7074696f6e44656661756c74466163746f725661756c74436f6c6c60608201526961746572616c4249505360b01b608082015260208101859052905160008051602061567b8339815191529181900360a00190a1610aa382613ddd565b600e8201805463ffffffff92909216600160701b0263ffffffff60701b1990921691909117905560408051818152601f918101919091527f726564656d7074696f6e44656661756c74466163746f72506f6f6c424950530060608201526020810183905260008051602061567b833981519152906080015b60405180910390a1505050565b610b30613cb5565b610b38613d1e565b6000610b42613d35565b905062015180821015610b8a5760405162461bcd60e51b815260206004820152601060248201526f1dda5b991bddc81d1bdbc81cdb585b1b60821b6044820152606401610804565b610b9382613d59565b6011820180546001600160401b0392909216600160401b0267ffffffffffffffff60401b19909216919091179055604080518181526018918101919091527f6174746573746174696f6e57696e646f775365636f6e6473000000000000000060608201526020810183905260008051602061567b833981519152906080016106bd565b610c1e613cb5565b610c26613d1e565b6000610c30613d35565b905060008211610c525760405162461bcd60e51b8152600401610804906150b8565b6017810154610c7290600160c01b90046001600160401b03166004614fd1565b610c7d90603c614ffc565b6001600160401b0316821115610ca55760405162461bcd60e51b8152600401610804906150e0565b6017810154610cc690600490600160c01b90046001600160401b0316615120565b6001600160401b0316821015610cee5760405162461bcd60e51b815260040161080490615146565b610cf782613d59565b6017820180546001600160401b0392909216600160c01b026001600160c01b03909216919091179055604080518181526027918101919091527f63616e63656c436f6c6c61746572616c5265736572766174696f6e41667465726060820152665365636f6e647360c81b60808201526020810183905260008051602061567b8339815191529060a0016106bd565b610d8d613cb5565b610d95613d1e565b6000610d9f613d35565b6013810154909150610dc290600160401b90046001600160401b03166004614fd1565b610dcf9062015180614ffc565b6001600160401b0316821115610de457600080fd5b610ded82613d59565b6013820180546001600160401b0392909216600160401b0267ffffffffffffffff60401b19909216919091179055604080518181526023918101919091527f6167656e744d696e74696e6743524368616e676554696d656c6f636b5365636f6060820152626e647360e81b60808201526020810183905260008051602061567b8339815191529060a0016106bd565b610e84613cb5565b610e8c613d1e565b6000610e96613d35565b9050612710610ea58385615049565b1015610ee85760405162461bcd60e51b8152602060048201526012602482015271626970732076616c756520746f6f206c6f7760701b6044820152606401610804565b6018810154610f0b9063ffffffff600160901b909104811690612ee090613dc516565b610f17906103e8615049565b831115610f365760405162461bcd60e51b81526004016108049061505c565b6018810154610f599063ffffffff600160901b90910481169061208d90613dc516565b831015610f785760405162461bcd60e51b81526004016108049061508a565b6018810154610f9b9063ffffffff600160b01b909104811690612ee090613dc516565b610fa7906103e8615049565b821115610fc65760405162461bcd60e51b81526004016108049061505c565b6018810154610fe99063ffffffff600160b01b90910481169061208d90613dc516565b8210156110085760405162461bcd60e51b81526004016108049061508a565b61101183613ddd565b60188201805463ffffffff60901b1916600160901b63ffffffff9390931692909202919091179055604080518181526032818301527f72656a6563746564526564656d7074696f6e44656661756c74466163746f725660608201527161756c74436f6c6c61746572616c4249505360701b608082015260208101859052905160008051602061567b8339815191529181900360a00190a16110b182613ddd565b60188201805463ffffffff92909216600160b01b0263ffffffff60b01b19909216919091179055604080518181526027918101919091527f72656a6563746564526564656d7074696f6e44656661756c74466163746f72506060820152666f6f6c4249505360c81b60808201526020810183905260008051602061567b8339815191529060a001610b1b565b611145613cb5565b61114d613d1e565b6000611157613d35565b9050600082116111795760405162461bcd60e51b8152600401610804906150b8565b601881015461119990600160501b90046001600160401b03166004614fd1565b6111a490603c614ffc565b6001600160401b03168211156111cc5760405162461bcd60e51b8152600401610804906150e0565b60188101546111ed90600490600160501b90046001600160401b0316615120565b6001600160401b03168210156112155760405162461bcd60e51b815260040161080490615146565b61121e82613d59565b6018820180546001600160401b0392909216600160501b0267ffffffffffffffff60501b19909216919091179055604080518181526026918101919091527f74616b654f766572526564656d7074696f6e5265717565737457696e646f775360608201526565636f6e647360d01b60808201526020810183905260008051602061567b8339815191529060a0016106bd565b6112b8613cb5565b6112c0613d1e565b60006112ca613d35565b9050600082116112ec5760405162461bcd60e51b8152600401610804906150b8565b600f81015461130790600160801b900461ffff166002615170565b61ffff1682111561132a5760405162461bcd60e51b8152600401610804906150e0565b600f81015461134690600490600160801b900461ffff1661518e565b61ffff168210156113695760405162461bcd60e51b815260040161080490615146565b61137282613e42565b600f8201805461ffff92909216600160801b0261ffff60801b1990921691909117905560408051818152601291810191909152716d617852656465656d65645469636b65747360701b60608201526020810183905260008051602061567b833981519152906080016106bd565b6113e7613cb5565b6113ef613d1e565b60006113f9613d35565b90506000821161141b5760405162461bcd60e51b8152600401610804906150b8565b601081015461143b90600160c01b90046001600160401b03166002614fd1565b6001600160401b03168211156114635760405162461bcd60e51b81526004016108049061505c565b601081015461148490600290600160c01b90046001600160401b0316615120565b6001600160401b03168210156114ac5760405162461bcd60e51b81526004016108049061508a565b6114b582613d59565b6010820180546001600160401b0392909216600160c01b026001600160c01b03909216919091179055604080518181526019918101919091527f6d61785472757374656450726963654167655365636f6e64730000000000000060608201526020810183905260008051602061567b833981519152906080016106bd565b61153b613cb5565b611543613d1e565b600061154d613d35565b90506000821161156f5760405162461bcd60e51b8152600401610804906150b8565b6127108211156115915760405162461bcd60e51b8152600401610804906151a3565b600c8101546115ac90600160401b900461ffff166004615170565b61ffff168211156115cf5760405162461bcd60e51b81526004016108049061505c565b600c8101546115eb90600490600160401b900461ffff1661518e565b61ffff1682101561160e5760405162461bcd60e51b81526004016108049061508a565b61161782613e42565b600c8201805461ffff92909216600160401b0261ffff60401b1990921691909117905560408051818152601c918101919091527f636f6c6c61746572616c5265736572766174696f6e466565424950530000000060608201526020810183905260008051602061567b833981519152906080016106bd565b611697613cb5565b60006116a1613d35565b80549091506001600160a01b038481169116146117225780546001600160a01b0384166001600160a01b031990911681178255604080518181526016818301527530b9b9b2ba26b0b730b3b2b921b7b73a3937b63632b960511b606082015260208101929092525160008051602061565b8339815191529181900360800190a15b600061172c613ea5565b9050826001600160a01b0316816001600160a01b0316146117ba576000611754600183613f12565b600060608201526001600160a01b0385166020820152905061177581613f39565b60408051818152600481830152631dd3985d60e21b60608201526001600160a01b0386166020820152905160008051602061565b8339815191529181900360800190a1505b50505050565b6117c8613cb5565b6117d0613d1e565b60006117da613d35565b60108101549091506117f6906001600160801b031660046151d0565b6118099068056bc75e2d631000006151f3565b6001600160801b03168311156118315760405162461bcd60e51b8152600401610804906150e0565b601081015461184b906004906001600160801b0316615213565b6001600160801b03168310156118735760405162461bcd60e51b815260040161080490615146565b600f81015461188e90600160901b900461ffff166004615170565b61189990606461522d565b61ffff168211156118bc5760405162461bcd60e51b8152600401610804906150e0565b600f8101546118d890600490600160901b900461ffff1661518e565b61ffff168210156118fb5760405162461bcd60e51b815260040161080490615146565b61190483613f53565b6010820180546001600160801b0319166001600160801b039290921691909117905561192f82613e42565b600f8201805461ffff60901b1916600160901b61ffff939093169290920291909117905560408051818152601a818301527f7061796d656e744368616c6c656e676552657761726455534435000000000000606082015260208101859052905160008051602061567b8339815191529181900360800190a160408051818152601a918101919091527f7061796d656e744368616c6c656e67655265776172644249505300000000000060608201526020810183905260008051602061567b83398151915290608001610b1b565b611a04613cb5565b611a0c613d1e565b6000611a16613d35565b905060008211611a385760405162461bcd60e51b8152600401610804906150b8565b60008311611a585760405162461bcd60e51b8152600401610804906150b8565b600c810154611a70908490849063ffffffff16613fbc565b611a7983613d59565b81600d0160136101000a8154816001600160401b0302191690836001600160401b03160217905550611aaa82613d59565b600e8201805467ffffffffffffffff19166001600160401b039290921691909117905560408051818152601a818301527f756e6465726c79696e67426c6f636b73466f725061796d656e74000000000000606082015260208101859052905160008051602061567b833981519152916080908290030190a160408051818152601b918101919091527f756e6465726c79696e675365636f6e6473466f725061796d656e74000000000060608201526020810183905260008051602061567b83398151915290608001610b1b565b611b7f613cb5565b611b87613d1e565b6000611b9161405f565b90506001600160a01b038316611bb95760405162461bcd60e51b815260040161080490615023565b815115611c255760405163278f794360e11b81526001600160a01b03821690634f1ef28690611bee908690869060040161528e565b600060405180830381600087803b158015611c0857600080fd5b505af1158015611c1c573d6000803e3d6000fd5b50505050611c81565b604051631b2ce7f360e11b81526001600160a01b038481166004830152821690633659cfe690602401600060405180830381600087803b158015611c6857600080fd5b505af1158015611c7c573d6000803e3d6000fd5b505050505b604080518181526006918101919091526519905cdcd95d60d21b60608201526001600160a01b038416602082015260008051602061565b83398151915290608001610b1b565b611ccf613cb5565b611cd7613d1e565b6000611ce1613d35565b9050603c821015611d045760405162461bcd60e51b8152600401610804906152b2565b611d0d82613ddd565b60148201805463ffffffff191663ffffffff92909216919091179055604080518181526022918101919091527f636f6c6c61746572616c506f6f6c546f6b656e54696d656c6f636b5365636f6e606082015261647360f01b60808201526020810183905260008051602061567b8339815191529060a0016106bd565b611d91613cb5565b611d99613d1e565b6000611da3613d35565b9050612710821015611dc75760405162461bcd60e51b8152600401610804906152b2565b611dd082613ddd565b60128201805463ffffffff92909216600160801b0263ffffffff60801b19909216919091179055604080518181526024918101919091527f7661756c74436f6c6c61746572616c427579466f72466c617265466163746f726060820152634249505360e01b60808201526020810183905260008051602061567b8339815191529060a0016106bd565b611e61613cb5565b611e69613d1e565b6000611e73613d35565b90506001600160a01b038216611e9b5760405162461bcd60e51b815260040161080490615023565b6003810180546001600160a01b0319166001600160a01b0384169081179091556040805181815260159181019190915274636f6c6c61746572616c506f6f6c466163746f727960581b6060820152602081019190915260008051602061565b833981519152906080016106bd565b611f11613cb5565b611f19613d1e565b6000611f23613d35565b905060008211611f455760405162461bcd60e51b8152600401610804906150b8565b6017810154611f6590600160401b90046001600160401b03166004614fd1565b611f7090603c614ffc565b6001600160401b0316821115611f985760405162461bcd60e51b8152600401610804906150e0565b6017810154611fb990600490600160401b90046001600160401b0316615120565b6001600160401b0316821015611fe15760405162461bcd60e51b815260040161080490615146565b611fea82613d59565b6017820180546001600160401b0392909216600160401b0267ffffffffffffffff60401b199092169190911790556040805181815260209181018290527f6d6178456d657267656e637950617573654475726174696f6e5365636f6e6473606082015290810183905260008051602061567b833981519152906080016106bd565b612073613cb5565b61207b613d1e565b6000612085613d35565b9050600082116120a75760405162461bcd60e51b8152600401610804906150b8565b60178101546120c790600160801b90046001600160401b03166004614fd1565b6120d390610e10614ffc565b6001600160401b03168211156120fb5760405162461bcd60e51b8152600401610804906150e0565b601781015461211c90600490600160801b90046001600160401b0316615120565b6001600160401b03168210156121445760405162461bcd60e51b815260040161080490615146565b61214d82613d59565b6017820180546001600160401b0392909216600160801b0267ffffffffffffffff60801b19909216919091179055604080518181526027918101919091527f656d657267656e637950617573654475726174696f6e526573657441667465726060820152665365636f6e647360c81b60808201526020810183905260008051602061567b8339815191529060a0016106bd565b6121e8613cb5565b6121f0613d1e565b60006121fa613d35565b601281015490915061221d90600160a01b90046001600160401b03166004614fd1565b61222a9062093a80614ffc565b6001600160401b031682111561223f57600080fd5b61224882613d59565b6012820180546001600160401b0392909216600160a01b0267ffffffffffffffff60a01b19909216919091179055604080518181526021918101919091527f6167656e7445786974417661696c61626c6554696d656c6f636b5365636f6e646060820152607360f81b60808201526020810183905260008051602061567b8339815191529060a0016106bd565b6122dd613cb5565b6122e5613d1e565b60006122ef61405f565b604051637f4fcaa960e01b81526001600160a01b03848116600483015291925090821690637f4fcaa990602401600060405180830381600087803b15801561233657600080fd5b505af115801561234a573d6000803e3d6000fd5b5050604080518181526019918101919091527f636c65616e7570426c6f636b4e756d6265724d616e616765720000000000000060608201526001600160a01b038516602082015260008051602061565b833981519152925060800190506106bd565b6123b4613cb5565b6123bc613d1e565b60006123c6613d35565b9050603c8210156123e95760405162461bcd60e51b8152600401610804906152b2565b6123f282613d59565b6013820180546001600160401b0392909216600160c01b026001600160c01b03909216919091179055604080518181526025918101919091527f6167656e7454696d656c6f636b65644f7065726174696f6e57696e646f775365606082015264636f6e647360d81b60808201526020810183905260008051602061567b8339815191529060a0016106bd565b612486613cb5565b61248e613d1e565b6000612498613d35565b6006810180546001600160a01b0319166001600160a01b03851690811790915560408051818152600991810191909152681dda1a5d195b1a5cdd60ba1b6060820152602081019190915290915060008051602061565b833981519152906080016106bd565b612505613cb5565b61250d613d1e565b6000612517613d35565b9050600082116125395760405162461bcd60e51b8152600401610804906150b8565b601481015461255990600160201b90046001600160401b03166002614fd1565b6001600160401b03168211156125815760405162461bcd60e51b8152600401610804906150e0565b60148101546125a290600290600160201b90046001600160401b0316615120565b6001600160401b03168210156125ca5760405162461bcd60e51b815260040161080490615146565b6125d382613d59565b6014820180546001600160401b0392909216600160201b026bffffffffffffffff000000001990921691909117905560408051818152601691810191909152756c69717569646174696f6e537465705365636f6e647360501b60608201526020810183905260008051602061567b833981519152906080016106bd565b612658613cb5565b612660613d1e565b600061266a613d35565b90506000821161268c5760405162461bcd60e51b8152600401610804906150b8565b6127108211156126ae5760405162461bcd60e51b8152600401610804906151a3565b600e8101546126c990600160401b900461ffff166004615170565b61ffff168211156126ec5760405162461bcd60e51b81526004016108049061505c565b600e81015461270890600490600160401b900461ffff1661518e565b61ffff1682101561272b5760405162461bcd60e51b81526004016108049061508a565b61273482613e42565b600e8201805461ffff92909216600160401b0261ffff60401b199092169190911790556040805181815260119181019190915270726564656d7074696f6e4665654249505360781b60608201526020810183905260008051602061567b833981519152906080016106bd565b6127a8613cb5565b6127b0613d1e565b60006127ba613d35565b9050600082116127dc5760405162461bcd60e51b8152600401610804906150b8565b60188101546127fb906201000090046001600160401b03166004614fd1565b61280690603c614ffc565b6001600160401b031682111561282e5760405162461bcd60e51b8152600401610804906150e0565b601881015461284e906004906201000090046001600160401b0316615120565b6001600160401b03168210156128765760405162461bcd60e51b815260040161080490615146565b61287f82613d59565b6018820180546001600160401b0392909216620100000269ffffffffffffffff000019909216919091179055604080518181526024918101919091527f72656a656374526564656d7074696f6e5265717565737457696e646f775365636060820152636f6e647360e01b60808201526020810183905260008051602061567b8339815191529060a0016106bd565b612915613cb5565b61291d613d1e565b6000612927613d35565b6013810154909150612943906001600160401b03166004614fd1565b6129509062015180614ffc565b6001600160401b031682111561296557600080fd5b61296e82613d59565b60138201805467ffffffffffffffff19166001600160401b039290921691909117905560408051818152601d918101919091527f6167656e744665654368616e676554696d656c6f636b5365636f6e647300000060608201526020810183905260008051602061567b833981519152906080016106bd565b6129ee613cb5565b6129f6613d1e565b6000612a00613d35565b905060008211612a225760405162461bcd60e51b8152600401610804906150b8565b600d810154612a3b906001600160401b0316600a614fd1565b6001600160401b0316821115612a935760405162461bcd60e51b815260206004820152601960248201527f6c6f742073697a6520696e63726561736520746f6f20626967000000000000006044820152606401610804565b600d810154612aad90600a906001600160401b0316615120565b6001600160401b0316821015612b055760405162461bcd60e51b815260206004820152601960248201527f6c6f742073697a6520646563726561736520746f6f20626967000000000000006044820152606401610804565b600d810154600160581b90046001600160401b03161580612b3a5750600d810154600160581b90046001600160401b03168211155b612b865760405162461bcd60e51b815260206004820181905260248201527f6c6f742073697a6520626967676572207468616e206d696e74696e67206361706044820152606401610804565b612b8f82613d59565b600d8201805467ffffffffffffffff19166001600160401b039290921691909117905560408051818152600a91810191909152696c6f7453697a65414d4760b01b60608201526020810183905260008051602061567b833981519152906080016106bd565b612bfc613cb5565b612c04613d1e565b6000612c0e613d35565b9050811580612c2a5750600d8101546001600160401b03168210155b612c465760405162461bcd60e51b8152600401610804906152b2565b612c4f82613d59565b81600d01600b6101000a8154816001600160401b0302191690836001600160401b0316021790555060008051602061567b833981519152826040516106bd91906040808252600d908201526c6d696e74696e67436170414d4760981b6060820152602081019190915260800190565b612cc6613cb5565b612cce613d1e565b6000612cd8613d35565b90506001600160a01b038216612d005760405162461bcd60e51b815260040161080490615023565b600a810180546001600160a01b0319166001600160a01b03841690811790915560408051818152600b918101919091526a383934b1b2a932b0b232b960a91b6060820152602081019190915260008051602061565b833981519152906080016106bd565b612d6c613cb5565b612d74613d1e565b6000612d7e613d35565b90506001600160a01b038216612da65760405162461bcd60e51b815260040161080490615023565b6007810180546001600160a01b0319166001600160a01b03841690811790915560408051818152601291810191909152716167656e744f776e6572526567697374727960701b6060820152602081019190915260008051602061565b833981519152906080016106bd565b612e19613cb5565b612e21613d1e565b6000612e2b613d35565b905060008211612e4d5760405162461bcd60e51b8152600401610804906150b8565b600c810154612e639063ffffffff1660026152db565b63ffffffff16821115612e885760405162461bcd60e51b8152600401610804906150e0565b600c810154612e9f9060029063ffffffff166152fb565b63ffffffff16821015612ec45760405162461bcd60e51b815260040161080490615146565b612ecd82613ddd565b600c8201805463ffffffff191663ffffffff92909216919091179055604080518181526012918101919091527161766572616765426c6f636b54696d654d5360701b60608201526020810183905260008051602061567b833981519152906080016106bd565b612f3b613cb5565b612f43613d1e565b6000612f4d613d35565b905060008211612f6f5760405162461bcd60e51b8152600401610804906150b8565b600f810154612f88906001600160801b031660046151d0565b6001600160801b0316821115612fb05760405162461bcd60e51b81526004016108049061505c565b600f810154612fca906004906001600160801b0316615213565b6001600160801b0316821015612ff25760405162461bcd60e51b81526004016108049061508a565b612ffb82613f53565b600f820180546001600160801b0319166001600160801b039290921691909117905560408051818152601e918101919091527f636f6e6669726d6174696f6e42794f746865727352657761726455534435000060608201526020810183905260008051602061567b833981519152906080016106bd565b61307a613cb5565b613082613d1e565b600061308c613d35565b9050600082116130ae5760405162461bcd60e51b8152600401610804906150b8565b6130b782613d59565b6011820180546001600160401b0392909216600160801b0267ffffffffffffffff60801b1990921691909117905560408051818152601a918101919091527f6d696e55706461746552657065617454696d655365636f6e647300000000000060608201526020810183905260008051602061567b833981519152906080016106bd565b613142613cb5565b61314a613d1e565b6000613154613d35565b9050610e108211156131a85760405162461bcd60e51b815260206004820152601960248201527f636f6e6669726d6174696f6e2074696d6520746f6f20626967000000000000006044820152606401610804565b6131b182613d59565b60128201805467ffffffffffffffff19166001600160401b0392909216919091179055604080518181526029918101919091527f616e6e6f756e636564556e6465726c79696e67436f6e6669726d6174696f6e4d606082015268696e5365636f6e647360b81b60808201526020810183905260008051602061567b8339815191529060a0016106bd565b613243613cb5565b61324b613d1e565b6000613255613d35565b9050600082116132775760405162461bcd60e51b8152600401610804906150b8565b601081015461329890600160801b90046001600160401b0316610258614ffc565b6001600160401b03168211156132c05760405162461bcd60e51b8152600401610804906150e0565b6132c982613d59565b6010820180546001600160401b0392909216600160801b0267ffffffffffffffff60801b19909216919091179055604080518181526018918101919091527f7769746864726177616c576169744d696e5365636f6e6473000000000000000060608201526020810183905260008051602061567b833981519152906080016106bd565b613354613cb5565b61335c613d1e565b6000613366613d35565b905061271082111561338a5760405162461bcd60e51b8152600401610804906151a3565b601881015461339e9061ffff166002615170565b6133aa906109c461522d565b61ffff168211156133cd5760405162461bcd60e51b8152600401610804906150e0565b60188101546133e29060029061ffff1661518e565b61ffff168210156134055760405162461bcd60e51b815260040161080490615146565b61340e82613e42565b60188201805461ffff191661ffff92909216919091179055604080518181526033918101919091527f72656a6563744f7243616e63656c436f6c6c61746572616c5265736572766174606082015272696f6e52657475726e466163746f724249505360681b60808201526020810183905260008051602061567b8339815191529060a0016106bd565b61349f613cb5565b6134a7613d1e565b60006134b1613d35565b90506001600160a01b0382166134d95760405162461bcd60e51b815260040161080490615023565b6004810180546001600160a01b0319166001600160a01b03841690811790915560408051818152601a918101919091527f636f6c6c61746572616c506f6f6c546f6b656e466163746f72790000000000006060820152602081019190915260008051602061565b833981519152906080016106bd565b613557613cb5565b61355f613d1e565b6000613569613d35565b9050611c208210156135bd5760405162461bcd60e51b815260206004820152601a60248201527f6d757374206265206174206c656173742074776f20686f7572730000000000006044820152606401610804565b6135c682613d59565b600e820180546001600160401b0392909216600160901b0267ffffffffffffffff60901b199092169190911790556040805181815260209181018290527f636f6e6669726d6174696f6e42794f746865727341667465725365636f6e6473606082015290810183905260008051602061567b833981519152906080016106bd565b61364f613cb5565b613657613d1e565b6000613661613d35565b90506001600160a01b0382166136895760405162461bcd60e51b815260040161080490615023565b6008810180546001600160a01b0319166001600160a01b03841690811790915560408051818152600f918101919091526e333231ab32b934b334b1b0ba34b7b760891b6060820152602081019190915260008051602061565b833981519152906080016106bd565b6136f9613cb5565b613701613d1e565b600061370b613d35565b600c8101549091506127109061372f90600160201b900463ffffffff1660046152db565b63ffffffff1661373f9190615049565b82111561377e5760405162461bcd60e51b815260206004820152600d60248201526c76616c756520746f6f2062696760981b6044820152606401610804565b61378782613ddd565b600c8201805463ffffffff92909216600160201b0267ffffffff000000001990921691909117905560408051818152601f918101919091527f6d696e74696e67506f6f6c486f6c64696e67735265717569726564424950530060608201526020810183905260008051602061567b833981519152906080016106bd565b61380c613cb5565b613814613d1e565b600061381e613d35565b905061382a838361407d565b613838601582016000614cb4565b613846601682016000614cb4565b60005b83518110156138d6578160150161387885838151811061386b5761386b615312565b6020026020010151613ddd565b81546001810183556000928352602090922063ffffffff909116910155825160168301906138b29085908490811061386b5761386b615312565b8154600181810184556000938452602090932063ffffffff90921691015501613849565b507ff8df5a8f8fc0ea5cc0d8aff70643ac14b7353b936a843e23cb08ff282ba74739836040516139069190615364565b60405180910390a17ff8df5a8f8fc0ea5cc0d8aff70643ac14b7353b936a843e23cb08ff282ba7473982604051610b1b91906153ab565b613945613cb5565b61394d613d1e565b6000613957613d35565b9050600082116139795760405162461bcd60e51b8152600401610804906150b8565b6127108211156139bd5760405162461bcd60e51b815260206004820152600f60248201526e6d7573742062652062656c6f77203160881b6044820152606401610804565b600d8101546139d890600160401b900461ffff166002615170565b61ffff168211156139fb5760405162461bcd60e51b8152600401610804906150e0565b600d810154613a1790600290600160401b900461ffff1661518e565b61ffff16821015613a3a5760405162461bcd60e51b815260040161080490615146565b613a4382613e42565b600d8201805461ffff92909216600160401b0261ffff60401b19909216919091179055604080518181526018918101919091527f6d696e556e6465726c79696e674261636b696e6742495053000000000000000060608201526020810183905260008051602061567b833981519152906080016106bd565b613ac3613cb5565b613acb613d1e565b6000613ad561405f565b60405163f6a494af60e01b81526001600160a01b0384811660048301529192509082169063f6a494af90602401600060405180830381600087803b158015613b1c57600080fd5b505af1158015613b30573d6000803e3d6000fd5b505060408051818152600f918101919091526e18db19585b995c90dbdb9d1c9858dd608a1b60608201526001600160a01b038516602082015260008051602061565b833981519152925060800190506106bd565b613b8c613cb5565b613b94613d1e565b6000613b9e613d35565b905060008211613bc05760405162461bcd60e51b8152600401610804906150b8565b6011810154613bd9906001600160401b03166002614fd1565b6001600160401b0316821115613c015760405162461bcd60e51b8152600401610804906150e0565b6011810154613c1b906002906001600160401b0316615120565b6001600160401b0316821015613c435760405162461bcd60e51b815260040161080490615146565b613c4c82613d59565b60118201805467ffffffffffffffff19166001600160401b039290921691909117905560408051818152600e918101919091526d63636254696d655365636f6e647360901b60608201526020810183905260008051602061567b833981519152906080016106bd565b6000613cbf613d35565b80549091506001600160a01b03163314613d1b5760405162461bcd60e51b815260206004820152601d60248201527f6f6e6c79206173736574206d616e6167657220636f6e74726f6c6c65720000006044820152606401610804565b50565b613d336001600160e01b0319600035166142a8565b565b7f4f24f5c433db0962dac0d2c8b84197a6e6c7cc4e5d9ebe1916a1b6193da2f33a90565b60006001600160401b03821115613dc15760405162461bcd60e51b815260206004820152602660248201527f53616665436173743a2076616c756520646f65736e27742066697420696e203660448201526534206269747360d01b6064820152608401610804565b5090565b6000613dd4838361271061436f565b90505b92915050565b600063ffffffff821115613dc15760405162461bcd60e51b815260206004820152602660248201527f53616665436173743a2076616c756520646f65736e27742066697420696e203360448201526532206269747360d01b6064820152608401610804565b600061ffff821115613dc15760405162461bcd60e51b815260206004820152602660248201527f53616665436173743a2076616c756520646f65736e27742066697420696e203160448201526536206269747360d01b6064820152608401610804565b7fec7e8c1c441439dd40959777f4c577ea0cd42fcc1dbe59d2bd0f5d9c55df8dc55460008051602061563b8339815191528054600092829161ffff909116908110613ef257613ef2615312565b60009182526020909120600490910201546001600160a01b031692915050565b613f1a614cd2565b6000613f268484614497565b9050613f318161455a565b949350505050565b6000613f4482614734565b9050613f4f81614b9e565b5050565b60006001600160801b03821115613dc15760405162461bcd60e51b815260206004820152602760248201527f53616665436173743a2076616c756520646f65736e27742066697420696e20316044820152663238206269747360c81b6064820152608401610804565b620151808211156140005760405162461bcd60e51b815260206004820152600e60248201526d0ecc2d8eaca40e8dede40d0d2ced60931b6044820152606401610804565b620151806103e861401183866153ff565b61401b9190615416565b111561405a5760405162461bcd60e51b815260206004820152600e60248201526d0ecc2d8eaca40e8dede40d0d2ced60931b6044820152606401610804565b505050565b60008061406a613d35565b600101546001600160a01b031692915050565b80518251146140c25760405162461bcd60e51b81526020600482015260116024820152701b195b99dd1a1cc81b9bdd08195c5d585b607a1b6044820152606401610804565b6001825110156141145760405162461bcd60e51b815260206004820152601c60248201527f6174206c65617374206f6e6520666163746f72207265717569726564000000006044820152606401610804565b60005b825181101561405a5761271083828151811061413557614135615312565b60200260200101511161417f5760405162461bcd60e51b8152602060048201526012602482015271666163746f72206e6f742061626f7665203160701b6044820152606401610804565b82818151811061419157614191615312565b60200260200101518282815181106141ab576141ab615312565b602002602001015111156142135760405162461bcd60e51b815260206004820152602960248201527f7661756c7420636f6c6c61746572616c20666163746f722068696768657220746044820152681a185b881d1bdd185b60ba1b6064820152608401610804565b80158061425b57508261422760018361542a565b8151811061423757614237615312565b602002602001015183828151811061425157614251615312565b6020026020010151115b6142a05760405162461bcd60e51b8152602060048201526016602482015275666163746f7273206e6f7420696e6372656173696e6760501b6044820152606401610804565b600101614117565b7fc6aafbe0f74bbe68eec7559401d7d311a092b5c4d8feb0452323e4ba73d8d8d160006142d3613d35565b6000848152602084905260409020549091508015806143105750601182015461430c90600160801b90046001600160401b031682615049565b4210155b61435c5760405162461bcd60e51b815260206004820152601c60248201527f746f6f20636c6f736520746f2070726576696f757320757064617465000000006044820152606401610804565b5050600091825260205260409020429055565b60008082116143b35760405162461bcd60e51b815260206004820152601060248201526f4469766973696f6e206279207a65726f60801b6044820152606401610804565b836000036143c357506000614490565b838302838582816143d6576143d661510a565b04036143f4578281816143eb576143eb61510a565b04915050614490565b5060006144018386615416565b9050600061440f848761543d565b9050600061441d8587615416565b9050600061442b868861543d565b90508561443882856153ff565b6144429190615416565b61444c83856153ff565b61445683876153ff565b8861446186896153ff565b61446b91906153ff565b6144759190615049565b61447f9190615049565b6144899190615049565b9450505050505b9392505050565b600060008051602061563b833981519152817fec7e8c1c441439dd40959777f4c577ea0cd42fcc1dbe59d2bd0f5d9c55df8db7816144d58787614c29565b8152602001908152602001600020549050600081116145265760405162461bcd60e51b815260206004820152600d60248201526c3ab735b737bbb7103a37b5b2b760991b6044820152606401610804565b8161453260018361542a565b8154811061454257614542615312565b90600052602060002090600402019250505092915050565b614562614cd2565b60408051610140810190915282548190600160a01b900460ff16600281111561458d5761458d615451565b815283546001600160a01b038116602083015260ff600160a81b8204811660408401526001600160401b03600160b01b8304166060840152600160f01b909104161515608082015260018401805460a0909201916145ea90615467565b80601f016020809104026020016040519081016040528092919081815260200182805461461690615467565b80156146635780601f1061463857610100808354040283529160200191614663565b820191906000526020600020905b81548152906001019060200180831161464657829003601f168201915b5050505050815260200183600201805461467c90615467565b80601f01602080910402602001604051908101604052809291908181526020018280546146a890615467565b80156146f55780601f106146ca576101008083540402835291602001916146f5565b820191906000526020600020905b8154815290600101906020018083116146d857829003601f168201915b505050918352505060039093015463ffffffff8082166020860152600160201b820481166040860152600160401b909104166060909301929092525090565b602081015160009060008051602061563b833981519152906001600160a01b031661478e5760405162461bcd60e51b815260206004820152600a602482015269746f6b656e207a65726f60b01b6044820152606401610804565b60006147a284600001518560200151614c29565b6000818152600184016020526040902054909150156147fa5760405162461bcd60e51b8152602060048201526014602482015273746f6b656e20616c72656164792065786973747360601b6044820152606401610804565b60608401511561484c5760405162461bcd60e51b815260206004820152601b60248201527f63616e6e6f7420616464206465707265636174656420746f6b656e00000000006044820152606401610804565b600084610100015161271010801561486d57508460e0015185610100015111155b801561488257508461012001518560e0015111155b9050806148d15760405162461bcd60e51b815260206004820152601960248201527f696e76616c696420636f6c6c61746572616c20726174696f73000000000000006044820152606401610804565b82546040805161014081019091526020808801516001600160a01b031682528751869291820190600281111561490957614909615451565b815260200161491b8960400151614c53565b60ff1681526020016149308960600151613d59565b6001600160401b031681526020018860800151151581526020018860a0015181526020018860c00151815260200161496b8960e00151613ddd565b63ffffffff168152602001614984896101000151613ddd565b63ffffffff16815260200161499d896101200151613ddd565b63ffffffff16905281546001810183556000928352602092839020825160049092020180546001600160a01b031981166001600160a01b03909316928317825593830151929390929183916001600160a81b03191617600160a01b836002811115614a0a57614a0a615451565b021790555060408201518154606084015160808501511515600160f01b0260ff60f01b196001600160401b03909216600160b01b0267ffffffffffffffff60b01b1960ff909516600160a81b029490941668ffffffffffffffffff60a81b1990931692909217929092179190911617815560a08201516001820190614a8f90826154f1565b5060c08201516002820190614aa490826154f1565b5060e0820151600390910180546101008401516101209094015163ffffffff908116600160401b026bffffffff000000000000000019958216600160201b0267ffffffffffffffff1990931691909416171792909216179055614b08816001615049565b600084815260018601602052604090205585517fbef4c272617e8773ee6209dd5f05e50ca5be37232b0c94cb8439d8a56bfdb7ce906002811115614b4e57614b4e615451565b8760200151886040015189608001518a60a001518b60c001518c60e001518d61010001518e6101200151604051614b8d999897969594939291906155b0565b60405180910390a195945050505050565b60008051602061563b8339815191528054600090829084908110614bc457614bc4615312565b60009182526020909120600490910201905060018154600160a01b900460ff166002811115614bf557614bf5615451565b14614c0257614c02615624565b614c0b83613e42565b600f92909201805461ffff191661ffff909316929092179091555050565b6000816001600160a01b031660a0846002811115614c4957614c49615451565b901b179392505050565b600060ff821115613dc15760405162461bcd60e51b815260206004820152602560248201527f53616665436173743a2076616c756520646f65736e27742066697420696e2038604482015264206269747360d81b6064820152608401610804565b5080546000825590600052602060002090810190613d1b9190614d31565b604080516101408101909152806000815260200160006001600160a01b03168152602001600081526020016000815260200160001515815260200160608152602001606081526020016000815260200160008152602001600081525090565b5b80821115613dc15760008155600101614d32565b600060208284031215614d5857600080fd5b5035919050565b6001600160a01b0381168114613d1b57600080fd5b600060208284031215614d8657600080fd5b813561449081614d5f565b60008060408385031215614da457600080fd5b50508035926020909101359150565b60008060408385031215614dc657600080fd5b8235614dd181614d5f565b91506020830135614de181614d5f565b809150509250929050565b634e487b7160e01b600052604160045260246000fd5b604051601f8201601f191681016001600160401b0381118282101715614e2a57614e2a614dec565b604052919050565b60008060408385031215614e4557600080fd5b8235614e5081614d5f565b91506020838101356001600160401b0380821115614e6d57600080fd5b818601915086601f830112614e8157600080fd5b813581811115614e9357614e93614dec565b614ea5601f8201601f19168501614e02565b91508082528784828501011115614ebb57600080fd5b80848401858401376000848284010152508093505050509250929050565b600082601f830112614eea57600080fd5b813560206001600160401b03821115614f0557614f05614dec565b8160051b614f14828201614e02565b9283528481018201928281019087851115614f2e57600080fd5b83870192505b84831015614f4d57823582529183019190830190614f34565b979650505050505050565b60008060408385031215614f6b57600080fd5b82356001600160401b0380821115614f8257600080fd5b614f8e86838701614ed9565b93506020850135915080821115614fa457600080fd5b50614fb185828601614ed9565b9150509250929050565b634e487b7160e01b600052601160045260246000fd5b6001600160401b03818116838216028082169190828114614ff457614ff4614fbb565b505092915050565b6001600160401b0381811683821601908082111561501c5761501c614fbb565b5092915050565b6020808252600c908201526b61646472657373207a65726f60a01b604082015260600190565b80820180821115613dd757613dd7614fbb565b60208082526014908201527366656520696e63726561736520746f6f2062696760601b604082015260600190565b60208082526014908201527366656520646563726561736520746f6f2062696760601b604082015260600190565b6020808252600e908201526d63616e6e6f74206265207a65726f60901b604082015260600190565b60208082526010908201526f696e63726561736520746f6f2062696760801b604082015260600190565b634e487b7160e01b600052601260045260246000fd5b60006001600160401b038084168061513a5761513a61510a565b92169190910492915050565b60208082526010908201526f646563726561736520746f6f2062696760801b604082015260600190565b61ffff818116838216028082169190828114614ff457614ff4614fbb565b600061ffff8084168061513a5761513a61510a565b6020808252601390820152720c4d2e0e640ecc2d8eaca40e8dede40d0d2ced606b1b604082015260600190565b6001600160801b03818116838216028082169190828114614ff457614ff4614fbb565b6001600160801b0381811683821601908082111561501c5761501c614fbb565b60006001600160801b038084168061513a5761513a61510a565b61ffff81811683821601908082111561501c5761501c614fbb565b6000815180845260005b8181101561526e57602081850181015186830182015201615252565b506000602082860101526020601f19601f83011685010191505092915050565b6001600160a01b0383168152604060208201819052600090613f3190830184615248565b6020808252600f908201526e1d985b1d59481d1bdbc81cdb585b1b608a1b604082015260600190565b63ffffffff818116838216028082169190828114614ff457614ff4614fbb565b600063ffffffff8084168061513a5761513a61510a565b634e487b7160e01b600052603260045260246000fd5b60008151808452602080850194506020840160005b838110156153595781518752958201959082019060010161533d565b509495945050505050565b60408152601f60408201527f6c69717569646174696f6e436f6c6c61746572616c466163746f7242495053006060820152608060208201526000613dd46080830184615328565b60408152602460408201527f6c69717569646174696f6e466163746f725661756c74436f6c6c61746572616c6060820152634249505360e01b608082015260a060208201526000613dd460a0830184615328565b8082028115828204841417613dd757613dd7614fbb565b6000826154255761542561510a565b500490565b81810381811115613dd757613dd7614fbb565b60008261544c5761544c61510a565b500690565b634e487b7160e01b600052602160045260246000fd5b600181811c9082168061547b57607f821691505b60208210810361549b57634e487b7160e01b600052602260045260246000fd5b50919050565b601f82111561405a576000816000526020600020601f850160051c810160208610156154ca5750805b601f850160051c820191505b818110156154e9578281556001016154d6565b505050505050565b81516001600160401b0381111561550a5761550a614dec565b61551e816155188454615467565b846154a1565b602080601f831160018114615553576000841561553b5750858301515b600019600386901b1c1916600185901b1785556154e9565b600085815260208120601f198616915b8281101561558257888601518255948401946001909101908401615563565b50858210156155a05787850151600019600388901b60f8161c191681555b5050505050600190811b01905550565b60ff8a1681526001600160a01b0389166020820152604081018890528615156060820152610120608082018190526000906155ed83820189615248565b905082810360a08401526156018188615248565b60c0840196909652505060e0810192909252610100909101529695505050505050565b634e487b7160e01b600052600160045260246000fdfeec7e8c1c441439dd40959777f4c577ea0cd42fcc1dbe59d2bd0f5d9c55df8db6cb274d507e7a9978f5a8c15929fd58c472b8addc1a9bba454b0c0a49a05c9152ac1fb27759c1e6f9e4a24d4f8c320be6091becb03cea5a95398fa220fca4ac0ea2646970667358221220e964155ef9a58ffff6869454c1d9128cd304609a559d69d397de6d8b25cbed0764736f6c63430008170033",
  "linkReferences": {},
  "deployedLinkReferences": {}
}