{
  "_format": "hh-sol-artifact-1",
  "contractName": "AgentVaultManagementFacet",
  "sourceName": "contracts/assetManager/facets/AgentVaultManagementFacet.sol",
  "abi": [
    {
      "anonymous": false,
      "inputs": [
        {
          "indexed": true,
          "internalType": "address",
          "name": "agentVault",
          "type": "address"
        },
        {
          "indexed": false,
          "internalType": "uint256",
          "name": "destroyAllowedAt",
          "type": "uint256"
        }
      ],
      "name": "AgentDestroyAnnounced",
      "type": "event"
    },
    {
      "anonymous": false,
      "inputs": [
        {
          "indexed": true,
          "internalType": "address",
          "name": "agentVault",
          "type": "address"
        }
      ],
      "name": "AgentDestroyed",
      "type": "event"
    },
    {
      "anonymous": false,
      "inputs": [
        {
          "indexed": true,
          "internalType": "address",
          "name": "owner",
          "type": "address"
        },
        {
          "indexed": true,
          "internalType": "address",
          "name": "agentVault",
          "type": "address"
        },
        {
          "components": [
            {
              "internalType": "address",
              "name": "collateralPool",
              "type": "address"
            },
            {
              "internalType": "address",
              "name": "collateralPoolToken",
              "type": "address"
            },
            {
              "internalType": "string",
              "name": "underlyingAddress",
              "type": "string"
            },
            {
              "internalType": "address",
              "name": "vaultCollateralToken",
              "type": "address"
            },
            {
              "internalType": "address",
              "name": "poolWNatToken",
              "type": "address"
            },
            {
              "internalType": "uint256",
              "name": "feeBIPS",
              "type": "uint256"
            },
            {
              "internalType": "uint256",
              "name": "poolFeeShareBIPS",
              "type": "uint256"
            },
            {
              "internalType": "uint256",
              "name": "mintingVaultCollateralRatioBIPS",
              "type": "uint256"
            },
            {
              "internalType": "uint256",
              "name": "mintingPoolCollateralRatioBIPS",
              "type": "uint256"
            },
            {
              "internalType": "uint256",
              "name": "buyFAssetByAgentFactorBIPS",
              "type": "uint256"
            },
            {
              "internalType": "uint256",
              "name": "poolExitCollateralRatioBIPS",
              "type": "uint256"
            },
            {
              "internalType": "uint256",
              "name": "redemptionPoolFeeShareBIPS",
              "type": "uint256"
            }
          ],
          "indexed": false,
          "internalType": "struct IAssetManagerEvents.AgentVaultCreationData",
          "name": "creationData",
          "type": "tuple"
        }
      ],
      "name": "AgentVaultCreated",
      "type": "event"
    },
    {
      "anonymous": false,
      "inputs": [
        {
          "indexed": false,
          "internalType": "uint256",
          "name": "underlyingBlockNumber",
          "type": "uint256"
        },
        {
          "indexed": false,
          "internalType": "uint256",
          "name": "underlyingBlockTimestamp",
          "type": "uint256"
        },
        {
          "indexed": false,
          "internalType": "uint256",
          "name": "updatedAt",
          "type": "uint256"
        }
      ],
      "name": "CurrentUnderlyingBlockUpdated",
      "type": "event"
    },
    {
      "inputs": [
        {
          "internalType": "address",
          "name": "_agentVault",
          "type": "address"
        }
      ],
      "name": "announceDestroyAgent",
      "outputs": [
        {
          "internalType": "uint256",
          "name": "_destroyAllowedAt",
          "type": "uint256"
        }
      ],
      "stateMutability": "nonpayable",
      "type": "function"
    },
    {
      "inputs": [
        {
          "components": [
            {
              "internalType": "bytes32[]",
              "name": "merkleProof",
              "type": "bytes32[]"
            },
            {
              "components": [
                {
                  "internalType": "bytes32",
                  "name": "attestationType",
                  "type": "bytes32"
                },
                {
                  "internalType": "bytes32",
                  "name": "sourceId",
                  "type": "bytes32"
                },
                {
                  "internalType": "uint64",
                  "name": "votingRound",
                  "type": "uint64"
                },
                {
                  "internalType": "uint64",
                  "name": "lowestUsedTimestamp",
                  "type": "uint64"
                },
                {
                  "components": [
                    {
                      "internalType": "string",
                      "name": "addressStr",
                      "type": "string"
                    }
                  ],
                  "internalType": "struct IAddressValidity.RequestBody",
                  "name": "requestBody",
                  "type": "tuple"
                },
                {
                  "components": [
                    {
                      "internalType": "bool",
                      "name": "isValid",
                      "type": "bool"
                    },
                    {
                      "internalType": "string",
                      "name": "standardAddress",
                      "type": "string"
                    },
                    {
                      "internalType": "bytes32",
                      "name": "standardAddressHash",
                      "type": "bytes32"
                    }
                  ],
                  "internalType": "struct IAddressValidity.ResponseBody",
                  "name": "responseBody",
                  "type": "tuple"
                }
              ],
              "internalType": "struct IAddressValidity.Response",
              "name": "data",
              "type": "tuple"
            }
          ],
          "internalType": "struct IAddressValidity.Proof",
          "name": "_addressProof",
          "type": "tuple"
        },
        {
          "components": [
            {
              "internalType": "contract IERC20",
              "name": "vaultCollateralToken",
              "type": "address"
            },
            {
              "internalType": "string",
              "name": "poolTokenSuffix",
              "type": "string"
            },
            {
              "internalType": "uint256",
              "name": "feeBIPS",
              "type": "uint256"
            },
            {
              "internalType": "uint256",
              "name": "poolFeeShareBIPS",
              "type": "uint256"
            },
            {
              "internalType": "uint256",
              "name": "mintingVaultCollateralRatioBIPS",
              "type": "uint256"
            },
            {
              "internalType": "uint256",
              "name": "mintingPoolCollateralRatioBIPS",
              "type": "uint256"
            },
            {
              "internalType": "uint256",
              "name": "buyFAssetByAgentFactorBIPS",
              "type": "uint256"
            },
            {
              "internalType": "uint256",
              "name": "poolExitCollateralRatioBIPS",
              "type": "uint256"
            },
            {
              "internalType": "uint256",
              "name": "redemptionPoolFeeShareBIPS",
              "type": "uint256"
            }
          ],
          "internalType": "struct AgentSettings.Data",
          "name": "_settings",
          "type": "tuple"
        }
      ],
      "name": "createAgentVault",
      "outputs": [
        {
          "internalType": "address",
          "name": "_agentVault",
          "type": "address"
        }
      ],
      "stateMutability": "nonpayable",
      "type": "function"
    },
    {
      "inputs": [
        {
          "internalType": "address",
          "name": "_agentVault",
          "type": "address"
        },
        {
          "internalType": "address payable",
          "name": "_recipient",
          "type": "address"
        }
      ],
      "name": "destroyAgent",
      "outputs": [],
      "stateMutability": "nonpayable",
      "type": "function"
    },
    {
      "inputs": [
        {
          "components": [
            {
              "internalType": "bytes32[]",
              "name": "merkleProof",
              "type": "bytes32[]"
            },
            {
              "components": [
                {
                  "internalType": "bytes32",
                  "name": "attestationType",
                  "type": "bytes32"
                },
                {
                  "internalType": "bytes32",
                  "name": "sourceId",
                  "type": "bytes32"
                },
                {
                  "internalType": "uint64",
                  "name": "votingRound",
                  "type": "uint64"
                },
                {
                  "internalType": "uint64",
                  "name": "lowestUsedTimestamp",
                  "type": "uint64"
                },
                {
                  "components": [
                    {
                      "internalType": "bytes32",
                      "name": "transactionId",
                      "type": "bytes32"
                    },
                    {
                      "internalType": "uint256",
                      "name": "inUtxo",
                      "type": "uint256"
                    },
                    {
                      "internalType": "uint256",
                      "name": "utxo",
                      "type": "uint256"
                    }
                  ],
                  "internalType": "struct IPayment.RequestBody",
                  "name": "requestBody",
                  "type": "tuple"
                },
                {
                  "components": [
                    {
                      "internalType": "uint64",
                      "name": "blockNumber",
                      "type": "uint64"
                    },
                    {
                      "internalType": "uint64",
                      "name": "blockTimestamp",
                      "type": "uint64"
                    },
                    {
                      "internalType": "bytes32",
                      "name": "sourceAddressHash",
                      "type": "bytes32"
                    },
                    {
                      "internalType": "bytes32",
                      "name": "sourceAddressesRoot",
                      "type": "bytes32"
                    },
                    {
                      "internalType": "bytes32",
                      "name": "receivingAddressHash",
                      "type": "bytes32"
                    },
                    {
                      "internalType": "bytes32",
                      "name": "intendedReceivingAddressHash",
                      "type": "bytes32"
                    },
                    {
                      "internalType": "int256",
                      "name": "spentAmount",
                      "type": "int256"
                    },
                    {
                      "internalType": "int256",
                      "name": "intendedSpentAmount",
                      "type": "int256"
                    },
                    {
                      "internalType": "int256",
                      "name": "receivedAmount",
                      "type": "int256"
                    },
                    {
                      "internalType": "int256",
                      "name": "intendedReceivedAmount",
                      "type": "int256"
                    },
                    {
                      "internalType": "bytes32",
                      "name": "standardPaymentReference",
                      "type": "bytes32"
                    },
                    {
                      "internalType": "bool",
                      "name": "oneToOne",
                      "type": "bool"
                    },
                    {
                      "internalType": "uint8",
                      "name": "status",
                      "type": "uint8"
                    }
                  ],
                  "internalType": "struct IPayment.ResponseBody",
                  "name": "responseBody",
                  "type": "tuple"
                }
              ],
              "internalType": "struct IPayment.Response",
              "name": "data",
              "type": "tuple"
            }
          ],
          "internalType": "struct IPayment.Proof",
          "name": "_payment",
          "type": "tuple"
        }
      ],
      "name": "proveUnderlyingAddressEOA",
      "outputs": [],
      "stateMutability": "nonpayable",
      "type": "function"
    },
    {
      "inputs": [
        {
          "internalType": "address",
          "name": "_agentVault",
          "type": "address"
        }
      ],
      "name": "upgradeAgentVaultAndPool",
      "outputs": [],
      "stateMutability": "nonpayable",
      "type": "function"
    },
    {
      "inputs": [
        {
          "internalType": "uint256",
          "name": "_start",
          "type": "uint256"
        },
        {
          "internalType": "uint256",
          "name": "_end",
          "type": "uint256"
        }
      ],
      "name": "upgradeAgentVaultsAndPools",
      "outputs": [],
      "stateMutability": "nonpayable",
      "type": "function"
    }
  ],
  "bytecode": "0x6080604052348015600f57600080fd5b5061411c8061001f6000396000f3fe608060405234801561001057600080fd5b50600436106100625760003560e01c806331285909146100675780635e71055c1461007c578063778aadd5146100a2578063ae87b37f146100b5578063b6620e44146100c8578063b9a2ddb1146100f3575b600080fd5b61007a61007536600461318f565b610106565b005b61008f61008a3660046131c6565b610159565b6040519081526020015b60405180910390f35b61007a6100b03660046131e3565b61031a565b61007a6100c336600461321c565b610647565b6100db6100d6366004613257565b610695565b6040516001600160a01b039091168152602001610099565b61007a6101013660046131c6565b610ab1565b61010e610ac8565b600061011a8383610b33565b50905060005b81518110156101535761014b82828151811061013e5761013e6132c0565b6020026020010151610c44565b600101610120565b50505050565b60008161016581610d1a565b6000805160206140a7833981519152600061017f85610d71565b600481015490915065010000000000900463ffffffff16156101e05760405162461bcd60e51b81526020600482015260156024820152746167656e74207374696c6c20617661696c61626c6560581b60448201526064015b60405180910390fd5b6101e981610e0d565b6001600160401b0316156102345760405162461bcd60e51b81526020600482015260126024820152716167656e74207374696c6c2061637469766560701b60448201526064016101d7565b60048181015460ff168181111561024d5761024d6132d6565b146102fc576004818101805460ff19169091179055601082015460009061028490600160801b90046001600160401b031642613302565b905061028f81610e73565b82600a0160086101000a8154816001600160401b0302191690836001600160401b03160217905550856001600160a01b03167f86bbd7101c8a4494b25e559dee68314c4bc85dd8eae43137811ebcc8bb26a69c826040516102f291815260200190565b60405180910390a2505b600a0154600160401b90046001600160401b03169250505b50919050565b8161032481610d1a565b6000805160206140c7833981519152600061033e85610d71565b90506004808083015460ff169081111561035a5761035a6132d6565b1461039f5760405162461bcd60e51b815260206004820152601560248201527419195cdd1c9bde481b9bdd08185b9b9bdd5b98d959605a1b60448201526064016101d7565b600a810154600160401b90046001600160401b031642116104025760405162461bcd60e51b815260206004820152601860248201527f64657374726f793a206e6f7420616c6c6f77656420796574000000000000000060448201526064016101d7565b61040b81610e0d565b6001600160401b03161561042157610421613315565b805460405162f55d9d60e01b81526001600160a01b0386811660048301529091169062f55d9d90602401600060405180830381600087803b15801561046557600080fd5b505af1158015610479573d6000803e3d6000fd5b50505050846001600160a01b03166383197ef06040518163ffffffff1660e01b8152600401600060405180830381600087803b1580156104b857600080fd5b505af11580156104cc573d6000803e3d6000fd5b50505050600a8101546003830154600160d01b90910463ffffffff16906104f4826001613302565b10156105cd5760038301805461050c9060019061332b565b8154811061051c5761051c6132c0565b6000918252602090912001546003840180546001600160a01b03909216918390811061054a5761054a6132c0565b9060005260206000200160006101000a8154816001600160a01b0302191690836001600160a01b0316021790555060006105ac846003018381548110610592576105926132c0565b6000918252602090912001546001600160a01b0316610d71565b600a01805463ffffffff60d01b1916600160d01b63ffffffff851602179055505b826003018054806105e0576105e061333e565b600082815260209020810160001990810180546001600160a01b031916905501905561060b82610edf565b6040516001600160a01b038716907fc3eb286975d067e136d2d07c4c04700fbc1f72bf6b0778de0c99e95f4385661790600090a2505050505050565b6000805160206140c783398151915261065f82610efd565b600061066a33610f5b565b905061067581610ff1565b6106876005830184600b8501846110a9565b610690836111fe565b505050565b600061069f61122c565b6000805160206140c78339815191526106f86106be6020850185613354565b8080601f01602080910402602001604051908101604052809392919081815260200183838082843760009201919091525061129592505050565b600061070333610f5b565b905061070e81610ff1565b6107178561150c565b600061072660208701876133a1565b6107349060a08101906133c1565b61073d9061348a565b80519091506107805760405162461bcd60e51b815260206004820152600f60248201526e1859191c995cdcc81a5b9d985b1a59608a1b60448201526064016101d7565b3060006000805160206140a7833981519152600201546040516313db266360e31b81526001600160a01b03848116600483015290911691506000908290639ed93318906024016020604051808303816000875af11580156107e5573d6000803e3d6000fd5b505050506040513d601f19601f82011682018060405250810190610809919061352d565b90506000604082901b600160401b600160e01b03167f5bebac0595fee029d42bb673937f5f1cb81cf8641382bc17774635de9b7d7965189050600060048083015460ff169081111561085d5761085d6132d6565b1461086a5761086a613315565b600481018054600160ff199091168117909155810180546001600160a01b0319166001600160a01b0388161790556108af6108a860208b018b6131c6565b8290611671565b600f87015460048201805464ffff000000191661ffff9092166301000000029190911790556108e28160808b01356117d9565b6108f08160a08b0135611871565b6108fe8160408b0135611909565b61090c8160608b0135611975565b61091a8160c08b01356119c2565b610954868387604001516109396000805160206140a783398151915290565b600d015460058c0193929190600160501b900460ff16611a51565b6020850151600282019061096890826135d0565b50604085810151600383018190556000908152600589016020522054600f8801546001600160401b03600160a01b9092048216916109b791620100009004166109b283600161368e565b611b57565b600a8301805467ffffffffffffffff19166001600160401b03929092169190911790556109e585848c611b80565b82546001600160a01b0319166001600160a01b0391909116178255610a0e8260e08c0135611d45565b610a1d826101008c0135611ef1565b6003880154610a2b90611f3e565b600a8301805463ffffffff60d01b1916600160d01b63ffffffff939093169290920291909117905560038801805460018101825560009182526020918290200180546001600160a01b0319166001600160a01b0386811691909117909155835491880151610aa0928a9287929116908e611fa3565b509096505050505050505b92915050565b80610abb81610d1a565b610ac482610c44565b5050565b6000805160206140a783398151915280546001600160a01b03163314610b305760405162461bcd60e51b815260206004820152601d60248201527f6f6e6c79206173736574206d616e6167657220636f6e74726f6c6c657200000060448201526064016101d7565b50565b7fec7e8c1c441439dd40959777f4c577ea0cd42fcc1dbe59d2bd0f5d9c55df8db9546060906000805160206140c7833981519152610b7184836121e8565b9350610b7d85856121e8565b9450610b89858561332b565b6001600160401b03811115610ba057610ba06133d7565b604051908082528060200260200182016040528015610bc9578160200160208202803683370190505b509250845b84811015610c3b57816003018181548110610beb57610beb6132c0565b6000918252602090912001546001600160a01b031684610c0b888461332b565b81518110610c1b57610c1b6132c0565b6001600160a01b0390921660209283029190910190910152600101610bce565b50509250929050565b6000805160206140a78339815191526000610c5e83610d71565b54604080516332f7ce0b60e21b815290516001600160a01b039092169250600091839163cbdf382c9160048083019260209291908290030181865afa158015610cab573d6000803e3d6000fd5b505050506040513d601f19601f82011682018060405250810190610ccf919061352d565b6002840154909150610cea906001600160a01b0316856121f7565b6003830154610d02906001600160a01b0316836121f7565b6004830154610153906001600160a01b0316826121f7565b610d2c610d2682610d71565b33612426565b610b305760405162461bcd60e51b815260206004820152601660248201527537b7363c9030b3b2b73a103b30bab63a1037bbb732b960511b60448201526064016101d7565b7f5bebac0595fee029d42bb673937f5f1cb81cf8641382bc17774635de9b7d7965600160401b600160e01b03604083901b161880600060048084015460ff1690811115610dc057610dc06132d6565b036103145760405162461bcd60e51b815260206004820152601b60248201527f696e76616c6964206167656e74207661756c742061646472657373000000000060448201526064016101d7565b60058101546000906001600160401b03600160801b82048116600160c01b909204161115610e3d57610e3d613315565b60058201546001600160401b03600160801b8204811691610e699180821691600160401b90041661368e565b610aab919061368e565b60006001600160401b03821115610edb5760405162461bcd60e51b815260206004820152602660248201527f53616665436173743a2076616c756520646f65736e27742066697420696e203660448201526534206269747360d01b60648201526084016101d7565b5090565b600f810181815b808210156101535760008255600182019150610ee6565b6000610f116102a0830161028084016136be565b60ff1614610f525760405162461bcd60e51b815260206004820152600e60248201526d1c185e5b595b9d0819985a5b195960921b60448201526064016101d7565b610b3081612467565b600080610f6661262f565b60405163039f412760e11b81526001600160a01b038581166004830152919091169063073e824e90602401602060405180830381865afa158015610fae573d6000803e3d6000fd5b505050506040513d601f19601f82011682018060405250810190610fd2919061352d565b90506001600160a01b038116610fe85782610fea565b805b9392505050565b610ff961262f565b604051633af32abf60e01b81526001600160a01b0383811660048301529190911690633af32abf90602401602060405180830381865afa158015611041573d6000803e3d6000fd5b505050506040513d601f19601f8201168201806040525081019061106591906136d9565b610b305760405162461bcd60e51b81526020600482015260156024820152741859d95b9d081b9bdd081dda1a5d195b1a5cdd1959605a1b60448201526064016101d7565b6101408301356000036110be576110be613315565b610140830135600090815260208590526040902080546001600160a01b0316156111245760405162461bcd60e51b81526020600482015260176024820152761859191c995cdcc8185b1c9958591e4818db185a5b5959604a1b60448201526064016101d7565b67464250526641001360c01b6001600160a01b038316176102408501351461118e5760405162461bcd60e51b815260206004820152601f60248201527f696e76616c69642061646472657373206f776e6572736869702070726f6f660060448201526064016101d7565b611198838561265d565b8054600168ff000000000000000160a01b0319166001600160a01b03831617600160e01b1781556111d16101208501610100860161370d565b81546001600160401b0391909116600160a01b0267ffffffffffffffff60a01b1990911617905550505050565b610b306112136101208301610100840161370d565b6112256101408401610120850161370d565b6001612699565b7fec7e8c1c441439dd40959777f4c577ea0cd42fcc1dbe59d2bd0f5d9c55df8dc754600160881b900460ff166112935760405162461bcd60e51b815260206004820152600c60248201526b1b9bdd08185d1d1858da195960a21b60448201526064016101d7565b565b6040516000805160206140c7833981519152907fec7e8c1c441439dd40959777f4c577ea0cd42fcc1dbe59d2bd0f5d9c55df8db8906112d590849061374c565b9081526040519081900360200190205460ff16156113355760405162461bcd60e51b815260206004820152601760248201527f73756666697820616c726561647920726573657276656400000000000000000060448201526064016101d7565b60018160020183604051611349919061374c565b908152604051908190036020019020805491151560ff199092169190911790558151829060028110156113b15760405162461bcd60e51b815260206004820152601060248201526f1cdd59999a5e081d1bdbc81cda1bdc9d60821b60448201526064016101d7565b60148111156113f45760405162461bcd60e51b815260206004820152600f60248201526e73756666697820746f6f206c6f6e6760881b60448201526064016101d7565b60005b81811015611505576000838281518110611413576114136132c0565b01602001516001600160f81b0319169050604160f81b81108015906114465750602d60f91b6001600160f81b0319821611155b806114785750600360fc1b6001600160f81b03198216108015906114785750603960f81b6001600160f81b0319821611155b806114b05750600082118015611497575061149460018461332b565b82105b80156114b05750602d60f81b6001600160f81b03198216145b6114fc5760405162461bcd60e51b815260206004820152601b60248201527f696e76616c69642063686172616374657220696e20737566666978000000000060448201526064016101d7565b506001016113f7565b5050505050565b7f4f24f5c433db0962dac0d2c8b84197a6e6c7cc4e5d9ebe1916a1b6193da2f342547f4f24f5c433db0962dac0d2c8b84197a6e6c7cc4e5d9ebe1916a1b6193da2f345546000805160206140a7833981519152916001600160a01b03169061157760208501856133a1565b60200135146115b85760405162461bcd60e51b815260206004820152600d60248201526c34b73b30b634b21031b430b4b760991b60448201526064016101d7565b60405163f34ef58760e01b81526001600160a01b0382169063f34ef587906115e49086906004016138cc565b602060405180830381865afa158015611601573d6000803e3d6000fd5b505050506040513d601f19601f8201168201806040525081019061162591906136d9565b6106905760405162461bcd60e51b815260206004820152601b60248201527f616464726573732076616c6964697479206e6f742070726f766564000000000060448201526064016101d7565b6000805160206140c7833981519152600061168d600284612826565b905060008260000182815481106116a6576116a66132c0565b60009182526020909120600490910201905060028154600160a01b900460ff1660028111156116d7576116d76132d6565b146116e4576116e4613315565b8054600160b01b90046001600160401b03161561173b5760405162461bcd60e51b815260206004820152601560248201527418dbdb1b185d195c985b0819195c1c9958d85d1959605a1b60448201526064016101d7565b611744826128c9565b8560040160016101000a81548161ffff021916908361ffff160217905550600061176d8661292c565b9050600061177b8288612a2a565b600384015490915063ffffffff168110156117d05760405162461bcd60e51b81526020600482015260156024820152741b9bdd08195b9bdd59da0818dbdb1b185d195c985b605a1b60448201526064016101d7565b50505050505050565b60006117e483612af5565b600381015490915063ffffffff168210156118415760405162461bcd60e51b815260206004820152601a60248201527f636f6c6c61746572616c20726174696f20746f6f20736d616c6c00000000000060448201526064016101d7565b61184a82611f3e565b83600401600d6101000a81548163ffffffff021916908363ffffffff160217905550505050565b600061187c83612b42565b600381015490915063ffffffff168210156118d95760405162461bcd60e51b815260206004820152601a60248201527f636f6c6c61746572616c20726174696f20746f6f20736d616c6c00000000000060448201526064016101d7565b6118e282611f3e565b8360040160116101000a81548163ffffffff021916908363ffffffff160217905550505050565b61271081111561194a5760405162461bcd60e51b815260206004820152600c60248201526b0cccaca40e8dede40d0d2ced60a31b60448201526064016101d7565b611953816128c9565b8260040160096101000a81548161ffff021916908361ffff1602179055505050565b6127108111156119975760405162461bcd60e51b81526004016101d7906139b1565b6119a0816128c9565b82600401600b6101000a81548161ffff021916908361ffff1602179055505050565b6127108111156119e45760405162461bcd60e51b81526004016101d7906139b1565b612328811015611a265760405162461bcd60e51b815260206004820152600d60248201526c76616c756520746f6f206c6f7760981b60448201526064016101d7565b611a2f816128c9565b82600a0160106101000a81548161ffff021916908361ffff1602179055505050565b600082815260208690526040902080546001600160a01b0316611a8657805468ffffffffffffffffff60a01b19168155611adc565b80546001600160a01b03868116911614611adc5760405162461bcd60e51b81526020600482015260176024820152761859191c995cdcc8185b1c9958591e4818db185a5b5959604a1b60448201526064016101d7565b811580611af157508054600160e01b900460ff165b611b325760405162461bcd60e51b81526020600482015260126024820152711153d0481c1c9bdbd9881c995c5d5a5c995960721b60448201526064016101d7565b80546001600160a01b0319166001600160a01b03949094169390931790925550505050565b6000816001600160401b0316836001600160401b03161015611b795781610fea565b5090919050565b7f4f24f5c433db0962dac0d2c8b84197a6e6c7cc4e5d9ebe1916a1b6193da2f33d547f4f24f5c433db0962dac0d2c8b84197a6e6c7cc4e5d9ebe1916a1b6193da2f33e5460405163338c682760e11b81526000926000805160206140a7833981519152926001600160a01b039182169291169084908390636718d04e90611c0f908b908b908b906004016139d9565b6020604051808303816000875af1158015611c2e573d6000803e3d6000fd5b505050506040513d601f19601f82011682018060405250810190611c52919061352d565b905060006001600160a01b03831663796d58368360058801611c7760208c018c613354565b6040518563ffffffff1660e01b8152600401611c969493929190613a9c565b6020604051808303816000875af1158015611cb5573d6000803e3d6000fd5b505050506040513d601f19601f82011682018060405250810190611cd9919061352d565b6040516333ce01fd60e01b81526001600160a01b038083166004830152919250908316906333ce01fd90602401600060405180830381600087803b158015611d2057600080fd5b505af1158015611d34573d6000803e3d6000fd5b50939b9a5050505050505050505050565b6000611d5083612b42565b600381015490915063ffffffff1680831015611d9e5760405162461bcd60e51b815260206004820152600d60248201526c76616c756520746f6f206c6f7760981b60448201526064016101d7565b835460408051633cfc747d60e01b815290516000926001600160a01b031691633cfc747d9160048083019260209291908290030181865afa158015611de7573d6000803e3d6000fd5b505050506040513d601f19601f82011682018060405250810190611e0b9190613b4f565b63ffffffff1690506002611e20826003613b75565b611e2a9190613ba2565b84111580611e4e5750600a611e4083600c613b75565b611e4a9190613ba2565b8411155b611e8d5760405162461bcd60e51b815260206004820152601060248201526f696e63726561736520746f6f2062696760801b60448201526064016101d7565b8454604051630f0f739560e31b8152600481018690526001600160a01b039091169063787b9ca890602401600060405180830381600087803b158015611ed257600080fd5b505af1158015611ee6573d6000803e3d6000fd5b505050505050505050565b612710811115611f135760405162461bcd60e51b81526004016101d7906139b1565b611f1c816128c9565b82600c01601c6101000a81548161ffff021916908361ffff1602179055505050565b600063ffffffff821115610edb5760405162461bcd60e51b815260206004820152602660248201527f53616665436173743a2076616c756520646f65736e27742066697420696e203360448201526532206269747360d01b60648201526084016101d7565b61202b60405180610180016040528060006001600160a01b0316815260200160006001600160a01b031681526020016060815260200160006001600160a01b0316815260200160006001600160a01b03168152602001600081526020016000815260200160008152602001600081526020016000815260200160008152602001600081525090565b6001600160a01b038416808252604080516332f7ce0b60e21b8152905163cbdf382c916004808201926020929091908290030181865afa158015612073573d6000803e3d6000fd5b505050506040513d601f19601f82011682018060405250810190612097919061352d565b6001600160a01b03166020808301919091526120b5908301836131c6565b81606001906001600160a01b031690816001600160a01b031681525050836001600160a01b0316639edbf0076040518163ffffffff1660e01b8152600401602060405180830381865afa158015612110573d6000803e3d6000fd5b505050506040513d601f19601f82011682018060405250810190612134919061352d565b6001600160a01b0390811660808084019190915260408084018690528481013560a080860191909152606086013560c0808701919091529286013560e0808701919091529086013561010080870191909152928601356101208601528501356101408501529084013561016084015251868216918816907f9a77ead9d4158766aab62a081728127048d595245ad311f67301c663d12f5232906121d8908590613be2565b60405180910390a3505050505050565b6000818310611b795781610fea565b60008190506000836001600160a01b0316635c60da1b6040518163ffffffff1660e01b8152600401602060405180830381865afa15801561223c573d6000803e3d6000fd5b505050506040513d601f19601f82011682018060405250810190612260919061352d565b90506000826001600160a01b0316635c60da1b6040518163ffffffff1660e01b8152600401602060405180830381865afa1580156122a2573d6000803e3d6000fd5b505050506040513d601f19601f820116820180604052508101906122c6919061352d565b9050816001600160a01b0316816001600160a01b03161461150557604051630422b7e960e11b81526001600160a01b038581166004830152600091908716906308456fd290602401600060405180830381865afa15801561232b573d6000803e3d6000fd5b505050506040513d6000823e601f3d908101601f191682016040526123539190810190613cbf565b8051909150156123c25760405163278f794360e11b81526001600160a01b03851690634f1ef2869061238b9086908590600401613d2c565b600060405180830381600087803b1580156123a557600080fd5b505af11580156123b9573d6000803e3d6000fd5b5050505061241e565b604051631b2ce7f360e11b81526001600160a01b038481166004830152851690633659cfe690602401600060405180830381600087803b15801561240557600080fd5b505af1158015612419573d6000803e3d6000fd5b505050505b505050505050565b60018201546000906001600160a01b0383811691161480610fea575061244b83612b7b565b6001600160a01b0316826001600160a01b031614905092915050565b7f4f24f5c433db0962dac0d2c8b84197a6e6c7cc4e5d9ebe1916a1b6193da2f342547f4f24f5c433db0962dac0d2c8b84197a6e6c7cc4e5d9ebe1916a1b6193da2f345546000805160206140a7833981519152916001600160a01b0316906040840135146125075760405162461bcd60e51b815260206004820152600d60248201526c34b73b30b634b21031b430b4b760991b60448201526064016101d7565b60405163a7a3797560e01b81526001600160a01b0382169063a7a3797590612533908690600401613d58565b602060405180830381865afa158015612550573d6000803e3d6000fd5b505050506040513d601f19601f8201168201806040525081019061257491906136d9565b6125c05760405162461bcd60e51b815260206004820152601860248201527f6c6567616c207061796d656e74206e6f742070726f766564000000000000000060448201526064016101d7565b6125e36125d56101408501610120860161370d565b6001600160401b0316612bf4565b6106905760405162461bcd60e51b815260206004820152601c60248201527f7665726966696564207472616e73616374696f6e20746f6f206f6c640000000060448201526064016101d7565b7f4f24f5c433db0962dac0d2c8b84197a6e6c7cc4e5d9ebe1916a1b6193da2f341546001600160a01b031690565b6040805161014083013560208083019190915260a084013582840152825180830384018152606090920190925280519101206106908382612c17565b6000805160206140c78339815191526000806126b5848761368e565b600f8401549091506001600160401b03620100009091048116908216111561270157600f8301805469ffffffffffffffff00001916620100006001600160401b03841602179055600191505b60006103e86000805160206140a7833981519152600c01546127299063ffffffff1687613eee565b6127339190613f17565b61273d908761368e565b600f8501546001600160401b039182169250600160501b9004168111156127945761276781610e73565b84600f01600a6101000a8154816001600160401b0302191690836001600160401b03160217905550600192505b82156117d0576127a342610e73565b600f8501805467ffffffffffffffff60901b1916600160901b6001600160401b039384160217908190556040805162010000830484168152600160501b9092049092166020820152428183015290517f2078549e3faec355556787458d744ad19765bbb953b3f71801333f29abdce1c8916060908290030190a150505050505050565b60006000805160206140c7833981519152817fec7e8c1c441439dd40959777f4c577ea0cd42fcc1dbe59d2bd0f5d9c55df8db7816128648787612cdf565b8152602001908152602001600020549050600081116128b55760405162461bcd60e51b815260206004820152600d60248201526c3ab735b737bbb7103a37b5b2b760991b60448201526064016101d7565b6128c060018261332b565b95945050505050565b600061ffff821115610edb5760405162461bcd60e51b815260206004820152602660248201527f53616665436173743a2076616c756520646f65736e27742066697420696e203160448201526536206269747360d01b60648201526084016101d7565b6129516040805160608101909152806000815260200160008152602001600081525090565b600061295c83612af5565b6040805160608101909152909150806000815282546020909101906001600160a01b03166370a082317f5bebac0595fee029d42bb673937f5f1cb81cf8641382bc17774635de9b7d7965871860401c6040516001600160e01b031960e084901b1681526001600160a01b039091166004820152602401602060405180830381865afa1580156129ef573d6000803e3d6000fd5b505050506040513d601f19601f82011682018060405250810190612a139190613f45565b8152602001612a2183612d09565b90529392505050565b600080600184516002811115612a4257612a426132d6565b14612a61576005830154600160801b90046001600160401b0316612a77565b6005830154600160c01b90046001600160401b03165b60058401546001600160401b0391821692506000918391612aa39181811691600160401b900416613302565b612aad9190613302565b90506000612abf828760400151612d1f565b905080600003612ad9576402540be4009350505050610aab565b6020860151612aeb9061271083612d35565b9695505050505050565b6000806000805160206140c783398151915260048401548154919250829161010090910461ffff16908110612b2c57612b2c6132c0565b9060005260206000209060040201915050919050565b6000806000805160206140c7833981519152600484015481549192508291630100000090910461ffff16908110612b2c57612b2c6132c0565b6000612b8561262f565b6001830154604051631f86345d60e31b81526001600160a01b03918216600482015291169063fc31a2e890602401602060405180830381865afa158015612bd0573d6000803e3d6000fd5b505050506040513d601f19601f82011682018060405250810190610aab919061352d565b6000612c04600e62015180613b75565b612c0e904261332b565b90911015919050565b60008181526020839052604090205415612c735760405162461bcd60e51b815260206004820152601960248201527f7061796d656e7420616c726561647920636f6e6669726d65640000000000000060448201526064016101d7565b6000612c826201518042613ba2565b6000818152600185016020526040812054919250819003612ca35782612ca5565b805b6000848152602086815260408083209390935584825260018701905290812084905560028501549003610153576002840182905550505050565b6000816001600160a01b031660a0846002811115612cff57612cff6132d6565b901b179392505050565b6000612d16826000612e5b565b50909392505050565b6000610fea82612d316009600a614045565b8591905b6000808211612d795760405162461bcd60e51b815260206004820152601060248201526f4469766973696f6e206279207a65726f60801b60448201526064016101d7565b83600003612d8957506000610fea565b83830283858281612d9c57612d9c613b8c565b0403612dba57828181612db157612db1613b8c565b04915050610fea565b506000612dc78386613ba2565b90506000612dd58487614051565b90506000612de38587613ba2565b90506000612df18688614051565b905085612dfe8285613b75565b612e089190613ba2565b612e128385613b75565b612e1c8387613b75565b88612e278689613b75565b612e319190613b75565b612e3b9190613302565b612e459190613302565b612e4f9190613302565b98975050505050505050565b600080600080600080612efa886001018054612e7690613555565b80601f0160208091040260200160405190810160405280929190818152602001828054612ea290613555565b8015612eef5780601f10612ec457610100808354040283529160200191612eef565b820191906000526020600020905b815481529060010190602001808311612ed257829003601f168201915b50505050508861301a565b8a549295509093509150600160f01b900460ff1615612f41578754600090612f3090600160a81b900460ff166001838786613108565b965091945084935061301392505050565b6000806000612fdc8b6002018054612f5890613555565b80601f0160208091040260200160405190810160405280929190818152602001828054612f8490613555565b8015612fd15780601f10612fa657610100808354040283529160200191612fd1565b820191906000526020600020905b815481529060010190602001808311612fb457829003601f168201915b50505050508b61301a565b8d54929550909350915060009061300090600160a81b900460ff1685848a89613108565b9950949750909550613013945050505050565b9250925092565b7f4f24f5c433db0962dac0d2c8b84197a6e6c7cc4e5d9ebe1916a1b6193da2f34454600090819081906000805160206140a7833981519152906001600160a01b031685156130dc5760405163e4a0a55b60e01b81526001600160a01b0382169063e4a0a55b9061308e908a90600401614065565b606060405180830381865afa1580156130ab573d6000803e3d6000fd5b505050506040513d601f19601f820116820180604052508101906130cf9190614078565b9450945094505050613013565b60405163524f388960e01b81526001600160a01b0382169063524f38899061308e908a90600401614065565b60006000805160206140a7833981519152816009613126878a613302565b6131309190613302565b600a830154909150600090613150908690600160a81b900460ff16613302565b90508082101561316257613162613315565b61318261316f828461332b565b61317a90600a614045565b87908a612d35565b9998505050505050505050565b600080604083850312156131a257600080fd5b50508035926020909101359150565b6001600160a01b0381168114610b3057600080fd5b6000602082840312156131d857600080fd5b8135610fea816131b1565b600080604083850312156131f657600080fd5b8235613201816131b1565b91506020830135613211816131b1565b809150509250929050565b60006020828403121561322e57600080fd5b81356001600160401b0381111561324457600080fd5b82016102a08185031215610fea57600080fd5b6000806040838503121561326a57600080fd5b82356001600160401b0381111561328057600080fd5b83016040818603121561329257600080fd5b915060208301356001600160401b038111156132ad57600080fd5b8301610120818603121561321157600080fd5b634e487b7160e01b600052603260045260246000fd5b634e487b7160e01b600052602160045260246000fd5b634e487b7160e01b600052601160045260246000fd5b80820180821115610aab57610aab6132ec565b634e487b7160e01b600052600160045260246000fd5b81810381811115610aab57610aab6132ec565b634e487b7160e01b600052603160045260246000fd5b6000808335601e1984360301811261336b57600080fd5b8301803591506001600160401b0382111561338557600080fd5b60200191503681900382131561339a57600080fd5b9250929050565b6000823560be198336030181126133b757600080fd5b9190910192915050565b60008235605e198336030181126133b757600080fd5b634e487b7160e01b600052604160045260246000fd5b604051606081016001600160401b038111828210171561340f5761340f6133d7565b60405290565b604051601f8201601f191681016001600160401b038111828210171561343d5761343d6133d7565b604052919050565b8015158114610b3057600080fd5b803561345e81613445565b919050565b60006001600160401b0382111561347c5761347c6133d7565b50601f01601f191660200190565b60006060823603121561349c57600080fd5b6134a46133ed565b82356134af81613445565b815260208301356001600160401b038111156134ca57600080fd5b830136601f8201126134db57600080fd5b80356134ee6134e982613463565b613415565b81815236602083850101111561350357600080fd5b81602084016020830137600060209282018301529083015250604092830135928101929092525090565b60006020828403121561353f57600080fd5b8151610fea816131b1565b803561345e816131b1565b600181811c9082168061356957607f821691505b60208210810361031457634e487b7160e01b600052602260045260246000fd5b601f82111561069057806000526020600020601f840160051c810160208510156135b05750805b601f840160051c820191505b8181101561150557600081556001016135bc565b81516001600160401b038111156135e9576135e96133d7565b6135fd816135f78454613555565b84613589565b6020601f82116001811461363157600083156136195750848201515b600019600385901b1c1916600184901b178455611505565b600084815260208120601f198516915b828110156136615787850151825560209485019460019092019101613641565b508482101561367f5786840151600019600387901b60f8161c191681555b50505050600190811b01905550565b6001600160401b038181168382160190811115610aab57610aab6132ec565b803560ff8116811461345e57600080fd5b6000602082840312156136d057600080fd5b610fea826136ad565b6000602082840312156136eb57600080fd5b8151610fea81613445565b80356001600160401b038116811461345e57600080fd5b60006020828403121561371f57600080fd5b610fea826136f6565b60005b8381101561374357818101518382015260200161372b565b50506000910152565b600082516133b7818460208701613728565b6000808335601e1984360301811261377557600080fd5b83016020810192503590506001600160401b0381111561379457600080fd5b8060051b360382131561339a57600080fd5b81835260006001600160fb1b038311156137bf57600080fd5b8260051b80836020870137939093016020019392505050565b6000808335601e198436030181126137ef57600080fd5b83016020810192503590506001600160401b0381111561380e57600080fd5b80360382131561339a57600080fd5b81835281816020850137506000828201602090810191909152601f909101601f19169091010190565b600061385282836137d8565b602085526128c060208601828461381d565b60008235605e1983360301811261387a57600080fd5b90910192915050565b6000813561389081613445565b151583526138a160208301836137d8565b606060208601526138b660608601828461381d565b6040948501359590940194909452509092915050565b6020815260006138dc838461375e565b604060208501526138f16060850182846137a6565b915050602084013560be1985360301811261390b57600080fd5b838203601f19016040808601919091529085018035835260208082013590840152906001600160401b03906139419083016136f6565b1660408301526001600160401b0361395b606083016136f6565b1660608301526080810135601e1982360301811261397857600080fd5b60c0608084015261398e60c08401838301613846565b905061399d60a0830183613864565b915082810360a0840152612aeb8183613883565b6020808252600e908201526d0ecc2d8eaca40e8dede40d0d2ced60931b604082015260600190565b6001600160a01b03848116825283166020820152606060408201819052613a12908201613a058461354a565b6001600160a01b03169052565b6000613a2160208401846137d8565b6101206080850152613a386101808501828461381d565b604086013560a086810191909152606087013560c080880191909152608088013560e0808901919091529188013561010080890191909152908801356101208801529087013561014087015290950135610160909401939093525091949350505050565b6001600160a01b03851681526060602082015283546000908190613abf81613555565b8060608601526001821660008114613ade5760018114613afa57613b2e565b60ff1983166080870152608082151560051b8701019350613b2e565b88600052602060002060005b83811015613b2557815488820160800152600190910190602001613b06565b87016080019450505b5050508281036040840152613b4481858761381d565b979650505050505050565b600060208284031215613b6157600080fd5b815163ffffffff81168114610fea57600080fd5b8082028115828204841417610aab57610aab6132ec565b634e487b7160e01b600052601260045260246000fd5b600082613bb157613bb1613b8c565b500490565b60008151808452613bce816020860160208601613728565b601f01601f19169290920160200192915050565b60208152613bfc6020820183516001600160a01b03169052565b60006020830151613c1860408401826001600160a01b03169052565b5060408301516101806060840152613c346101a0840182613bb6565b90506060840151613c5060808501826001600160a01b03169052565b5060808401516001600160a01b03811660a08501525060a084015160c084015260c084015160e084015260e08401516101008401526101008401516101208401526101208401516101408401526101408401516101608401526101608401516101808401528091505092915050565b600060208284031215613cd157600080fd5b81516001600160401b03811115613ce757600080fd5b8201601f81018413613cf857600080fd5b8051613d066134e982613463565b818152856020838501011115613d1b57600080fd5b6128c0826020830160208601613728565b6001600160a01b0383168152604060208201819052600090613d5090830184613bb6565b949350505050565b602081526000613d68838461375e565b6102a06020850152613d7f6102c0850182846137a6565b60208601356040868101919091528601356060808701919091529092506001600160401b039150613db19086016136f6565b1660808401526001600160401b03613dcb608086016136f6565b1660a0840152600060a085013590508060c085015250600060c085013590508060e085015250600060e085013590508061010085015250613e246101208401613e1761010087016136f6565b6001600160401b03169052565b613e3161012085016136f6565b6001600160401b0381166101408501525061014084013561016084810191909152840135610180808501919091528401356101a0808501919091528401356101c0808501919091528401356101e08085019190915284013561020080850191909152840135610220808501919091528401356102408085019190915284013561026080850191909152613ec5908501613453565b80151561028085015250613edc61028085016136ad565b60ff81166102a0850152509392505050565b6001600160401b038181168382160290811690818114613f1057613f106132ec565b5092915050565b60006001600160401b03831680613f3057613f30613b8c565b806001600160401b0384160491505092915050565b600060208284031215613f5757600080fd5b5051919050565b6001815b6001841115613f9957808504811115613f7d57613f7d6132ec565b6001841615613f8b57908102905b60019390931c928002613f62565b935093915050565b600082613fb057506001610aab565b81613fbd57506000610aab565b8160018114613fd35760028114613fdd57613ff9565b6001915050610aab565b60ff841115613fee57613fee6132ec565b50506001821b610aab565b5060208310610133831016604e8410600b841016171561401c575081810a610aab565b6140296000198484613f5e565b806000190482111561403d5761403d6132ec565b029392505050565b6000610fea8383613fa1565b60008261406057614060613b8c565b500690565b602081526000610fea6020830184613bb6565b60008060006060848603121561408d57600080fd5b505081516020830151604090930151909492935091905056fe4f24f5c433db0962dac0d2c8b84197a6e6c7cc4e5d9ebe1916a1b6193da2f33aec7e8c1c441439dd40959777f4c577ea0cd42fcc1dbe59d2bd0f5d9c55df8db6a26469706673582212203e3d4c2366e17f62f52a599c7b6d212a89d1d26821b7f5845d02720b897ad8b264736f6c634300081b0033",
  "linkReferences": {},
  "deployedLinkReferences": {}
}