{
  "_format": "hh-sol-artifact-1",
  "contractName": "AgentVaultManagementFacet",
  "sourceName": "contracts/assetManager/facets/AgentVaultManagementFacet.sol",
  "abi": [
    {
      "anonymous": false,
      "inputs": [
        {
          "indexed": true,
          "internalType": "address",
          "name": "agentVault",
          "type": "address"
        },
        {
          "indexed": false,
          "internalType": "uint256",
          "name": "destroyAllowedAt",
          "type": "uint256"
        }
      ],
      "name": "AgentDestroyAnnounced",
      "type": "event"
    },
    {
      "anonymous": false,
      "inputs": [
        {
          "indexed": true,
          "internalType": "address",
          "name": "agentVault",
          "type": "address"
        }
      ],
      "name": "AgentDestroyed",
      "type": "event"
    },
    {
      "anonymous": false,
      "inputs": [
        {
          "indexed": true,
          "internalType": "address",
          "name": "owner",
          "type": "address"
        },
        {
          "indexed": true,
          "internalType": "address",
          "name": "agentVault",
          "type": "address"
        },
        {
          "components": [
            {
              "internalType": "address",
              "name": "collateralPool",
              "type": "address"
            },
            {
              "internalType": "address",
              "name": "collateralPoolToken",
              "type": "address"
            },
            {
              "internalType": "string",
              "name": "underlyingAddress",
              "type": "string"
            },
            {
              "internalType": "address",
              "name": "vaultCollateralToken",
              "type": "address"
            },
            {
              "internalType": "address",
              "name": "poolWNatToken",
              "type": "address"
            },
            {
              "internalType": "uint256",
              "name": "feeBIPS",
              "type": "uint256"
            },
            {
              "internalType": "uint256",
              "name": "poolFeeShareBIPS",
              "type": "uint256"
            },
            {
              "internalType": "uint256",
              "name": "mintingVaultCollateralRatioBIPS",
              "type": "uint256"
            },
            {
              "internalType": "uint256",
              "name": "mintingPoolCollateralRatioBIPS",
              "type": "uint256"
            },
            {
              "internalType": "uint256",
              "name": "buyFAssetByAgentFactorBIPS",
              "type": "uint256"
            },
            {
              "internalType": "uint256",
              "name": "poolExitCollateralRatioBIPS",
              "type": "uint256"
            },
            {
              "internalType": "uint256",
              "name": "poolTopupCollateralRatioBIPS",
              "type": "uint256"
            },
            {
              "internalType": "uint256",
              "name": "poolTopupTokenPriceFactorBIPS",
              "type": "uint256"
            },
            {
              "internalType": "uint256",
              "name": "handshakeType",
              "type": "uint256"
            }
          ],
          "indexed": false,
          "internalType": "struct IAssetManagerEvents.AgentVaultCreationData",
          "name": "creationData",
          "type": "tuple"
        }
      ],
      "name": "AgentVaultCreated",
      "type": "event"
    },
    {
      "anonymous": false,
      "inputs": [
        {
          "indexed": false,
          "internalType": "uint256",
          "name": "underlyingBlockNumber",
          "type": "uint256"
        },
        {
          "indexed": false,
          "internalType": "uint256",
          "name": "underlyingBlockTimestamp",
          "type": "uint256"
        },
        {
          "indexed": false,
          "internalType": "uint256",
          "name": "updatedAt",
          "type": "uint256"
        }
      ],
      "name": "CurrentUnderlyingBlockUpdated",
      "type": "event"
    },
    {
      "inputs": [
        {
          "internalType": "address",
          "name": "_agentVault",
          "type": "address"
        }
      ],
      "name": "announceDestroyAgent",
      "outputs": [
        {
          "internalType": "uint256",
          "name": "_destroyAllowedAt",
          "type": "uint256"
        }
      ],
      "stateMutability": "nonpayable",
      "type": "function"
    },
    {
      "inputs": [
        {
          "components": [
            {
              "internalType": "bytes32[]",
              "name": "merkleProof",
              "type": "bytes32[]"
            },
            {
              "components": [
                {
                  "internalType": "bytes32",
                  "name": "attestationType",
                  "type": "bytes32"
                },
                {
                  "internalType": "bytes32",
                  "name": "sourceId",
                  "type": "bytes32"
                },
                {
                  "internalType": "uint64",
                  "name": "votingRound",
                  "type": "uint64"
                },
                {
                  "internalType": "uint64",
                  "name": "lowestUsedTimestamp",
                  "type": "uint64"
                },
                {
                  "components": [
                    {
                      "internalType": "string",
                      "name": "addressStr",
                      "type": "string"
                    }
                  ],
                  "internalType": "struct IAddressValidity.RequestBody",
                  "name": "requestBody",
                  "type": "tuple"
                },
                {
                  "components": [
                    {
                      "internalType": "bool",
                      "name": "isValid",
                      "type": "bool"
                    },
                    {
                      "internalType": "string",
                      "name": "standardAddress",
                      "type": "string"
                    },
                    {
                      "internalType": "bytes32",
                      "name": "standardAddressHash",
                      "type": "bytes32"
                    }
                  ],
                  "internalType": "struct IAddressValidity.ResponseBody",
                  "name": "responseBody",
                  "type": "tuple"
                }
              ],
              "internalType": "struct IAddressValidity.Response",
              "name": "data",
              "type": "tuple"
            }
          ],
          "internalType": "struct IAddressValidity.Proof",
          "name": "_addressProof",
          "type": "tuple"
        },
        {
          "components": [
            {
              "internalType": "contract IERC20",
              "name": "vaultCollateralToken",
              "type": "address"
            },
            {
              "internalType": "string",
              "name": "poolTokenSuffix",
              "type": "string"
            },
            {
              "internalType": "uint256",
              "name": "feeBIPS",
              "type": "uint256"
            },
            {
              "internalType": "uint256",
              "name": "poolFeeShareBIPS",
              "type": "uint256"
            },
            {
              "internalType": "uint256",
              "name": "mintingVaultCollateralRatioBIPS",
              "type": "uint256"
            },
            {
              "internalType": "uint256",
              "name": "mintingPoolCollateralRatioBIPS",
              "type": "uint256"
            },
            {
              "internalType": "uint256",
              "name": "buyFAssetByAgentFactorBIPS",
              "type": "uint256"
            },
            {
              "internalType": "uint256",
              "name": "poolExitCollateralRatioBIPS",
              "type": "uint256"
            },
            {
              "internalType": "uint256",
              "name": "poolTopupCollateralRatioBIPS",
              "type": "uint256"
            },
            {
              "internalType": "uint256",
              "name": "poolTopupTokenPriceFactorBIPS",
              "type": "uint256"
            },
            {
              "internalType": "uint256",
              "name": "handshakeType",
              "type": "uint256"
            }
          ],
          "internalType": "struct AgentSettings.Data",
          "name": "_settings",
          "type": "tuple"
        }
      ],
      "name": "createAgentVault",
      "outputs": [
        {
          "internalType": "address",
          "name": "_agentVault",
          "type": "address"
        }
      ],
      "stateMutability": "nonpayable",
      "type": "function"
    },
    {
      "inputs": [
        {
          "internalType": "address",
          "name": "_agentVault",
          "type": "address"
        },
        {
          "internalType": "address payable",
          "name": "_recipient",
          "type": "address"
        }
      ],
      "name": "destroyAgent",
      "outputs": [],
      "stateMutability": "nonpayable",
      "type": "function"
    },
    {
      "inputs": [
        {
          "components": [
            {
              "internalType": "bytes32[]",
              "name": "merkleProof",
              "type": "bytes32[]"
            },
            {
              "components": [
                {
                  "internalType": "bytes32",
                  "name": "attestationType",
                  "type": "bytes32"
                },
                {
                  "internalType": "bytes32",
                  "name": "sourceId",
                  "type": "bytes32"
                },
                {
                  "internalType": "uint64",
                  "name": "votingRound",
                  "type": "uint64"
                },
                {
                  "internalType": "uint64",
                  "name": "lowestUsedTimestamp",
                  "type": "uint64"
                },
                {
                  "components": [
                    {
                      "internalType": "bytes32",
                      "name": "transactionId",
                      "type": "bytes32"
                    },
                    {
                      "internalType": "uint256",
                      "name": "inUtxo",
                      "type": "uint256"
                    },
                    {
                      "internalType": "uint256",
                      "name": "utxo",
                      "type": "uint256"
                    }
                  ],
                  "internalType": "struct IPayment.RequestBody",
                  "name": "requestBody",
                  "type": "tuple"
                },
                {
                  "components": [
                    {
                      "internalType": "uint64",
                      "name": "blockNumber",
                      "type": "uint64"
                    },
                    {
                      "internalType": "uint64",
                      "name": "blockTimestamp",
                      "type": "uint64"
                    },
                    {
                      "internalType": "bytes32",
                      "name": "sourceAddressHash",
                      "type": "bytes32"
                    },
                    {
                      "internalType": "bytes32",
                      "name": "sourceAddressesRoot",
                      "type": "bytes32"
                    },
                    {
                      "internalType": "bytes32",
                      "name": "receivingAddressHash",
                      "type": "bytes32"
                    },
                    {
                      "internalType": "bytes32",
                      "name": "intendedReceivingAddressHash",
                      "type": "bytes32"
                    },
                    {
                      "internalType": "int256",
                      "name": "spentAmount",
                      "type": "int256"
                    },
                    {
                      "internalType": "int256",
                      "name": "intendedSpentAmount",
                      "type": "int256"
                    },
                    {
                      "internalType": "int256",
                      "name": "receivedAmount",
                      "type": "int256"
                    },
                    {
                      "internalType": "int256",
                      "name": "intendedReceivedAmount",
                      "type": "int256"
                    },
                    {
                      "internalType": "bytes32",
                      "name": "standardPaymentReference",
                      "type": "bytes32"
                    },
                    {
                      "internalType": "bool",
                      "name": "oneToOne",
                      "type": "bool"
                    },
                    {
                      "internalType": "uint8",
                      "name": "status",
                      "type": "uint8"
                    }
                  ],
                  "internalType": "struct IPayment.ResponseBody",
                  "name": "responseBody",
                  "type": "tuple"
                }
              ],
              "internalType": "struct IPayment.Response",
              "name": "data",
              "type": "tuple"
            }
          ],
          "internalType": "struct IPayment.Proof",
          "name": "_payment",
          "type": "tuple"
        }
      ],
      "name": "proveUnderlyingAddressEOA",
      "outputs": [],
      "stateMutability": "nonpayable",
      "type": "function"
    },
    {
      "inputs": [
        {
          "internalType": "address",
          "name": "_agentVault",
          "type": "address"
        }
      ],
      "name": "upgradeAgentVaultAndPool",
      "outputs": [],
      "stateMutability": "nonpayable",
      "type": "function"
    },
    {
      "inputs": [
        {
          "internalType": "uint256",
          "name": "_start",
          "type": "uint256"
        },
        {
          "internalType": "uint256",
          "name": "_end",
          "type": "uint256"
        }
      ],
      "name": "upgradeAgentVaultsAndPools",
      "outputs": [],
      "stateMutability": "nonpayable",
      "type": "function"
    }
  ],
  "bytecode": "0x608060405234801561001057600080fd5b50614468806100206000396000f3fe608060405234801561001057600080fd5b50600436106100625760003560e01c806331285909146100675780635e71055c1461007c578063778aadd5146100a2578063ae87b37f146100b5578063b356adc7146100c8578063b9a2ddb1146100f3575b600080fd5b61007a6100753660046134c9565b610106565b005b61008f61008a366004613500565b610159565b6040519081526020015b60405180910390f35b61007a6100b036600461351d565b61016a565b61007a6100c3366004613556565b610178565b6100db6100d6366004613591565b610184565b6040516001600160a01b039091168152602001610099565b61007a610101366004613500565b6101a0565b61010e6101b3565b600061011a8383610220565b50905060005b81518110156101535761014b82828151811061013e5761013e6135f9565b6020026020010151610331565b600101610120565b50505050565b600061016482610407565b92915050565b61017482826105c3565b5050565b61018181610acc565b50565b600061018e610b4a565b610199308484610bb3565b9392505050565b806101aa81610fe2565b61017482610331565b6000805160206143f383398151915280546001600160a01b031633146101815760405162461bcd60e51b815260206004820152601d60248201527f6f6e6c79206173736574206d616e6167657220636f6e74726f6c6c657200000060448201526064015b60405180910390fd5b7fec7e8c1c441439dd40959777f4c577ea0cd42fcc1dbe59d2bd0f5d9c55df8db95460609060008051602061441383398151915261025e8483611039565b935061026a8585611039565b94506102768585613625565b6001600160401b0381111561028d5761028d613638565b6040519080825280602002602001820160405280156102b6578160200160208202803683370190505b509250845b84811015610328578160030181815481106102d8576102d86135f9565b6000918252602090912001546001600160a01b0316846102f88884613625565b81518110610308576103086135f9565b6001600160a01b03909216602092830291909101909101526001016102bb565b50509250929050565b6000805160206143f3833981519152600061034b8361104f565b54604080516332f7ce0b60e21b815290516001600160a01b039092169250600091839163cbdf382c9160048083019260209291908290030181865afa158015610398573d6000803e3d6000fd5b505050506040513d601f19601f820116820180604052508101906103bc919061364e565b60028401549091506103d7906001600160a01b0316856110eb565b60038301546103ef906001600160a01b0316836110eb565b6004830154610153906001600160a01b0316826110eb565b60008161041381610fe2565b6000805160206143f3833981519152600061042d8561104f565b600481015490915065010000000000900463ffffffff16156104895760405162461bcd60e51b81526020600482015260156024820152746167656e74207374696c6c20617661696c61626c6560581b6044820152606401610217565b6104928161131b565b6001600160401b0316156104dd5760405162461bcd60e51b81526020600482015260126024820152716167656e74207374696c6c2061637469766560701b6044820152606401610217565b60048181015460ff16818111156104f6576104f661366b565b146105a5576004818101805460ff19169091179055601082015460009061052d90600160801b90046001600160401b031642613681565b905061053881611381565b82600a0160086101000a8154816001600160401b0302191690836001600160401b03160217905550856001600160a01b03167f86bbd7101c8a4494b25e559dee68314c4bc85dd8eae43137811ebcc8bb26a69c8260405161059b91815260200190565b60405180910390a2505b600a0154600160401b90046001600160401b03169250505b50919050565b816105cd81610fe2565b60008051602061441383398151915260006105e78561104f565b90506004808083015460ff16908111156106035761060361366b565b146106485760405162461bcd60e51b815260206004820152601560248201527419195cdd1c9bde481b9bdd08185b9b9bdd5b98d959605a1b6044820152606401610217565b600a810154600160401b90046001600160401b031642116106ab5760405162461bcd60e51b815260206004820152601860248201527f64657374726f793a206e6f7420616c6c6f7765642079657400000000000000006044820152606401610217565b6106b48161131b565b6001600160401b0316156106ca576106ca613694565b805460405162f55d9d60e01b81526001600160a01b0386811660048301529091169062f55d9d90602401600060405180830381600087803b15801561070e57600080fd5b505af1158015610722573d6000803e3d6000fd5b505060405162f55d9d60e01b81526001600160a01b0387811660048301528816925062f55d9d9150602401600060405180830381600087803b15801561076757600080fd5b505af115801561077b573d6000803e3d6000fd5b50505050600a8101546003830154600160d01b90910463ffffffff16906107a3826001613681565b101561087c576003830180546107bb90600190613625565b815481106107cb576107cb6135f9565b6000918252602090912001546003840180546001600160a01b0390921691839081106107f9576107f96135f9565b9060005260206000200160006101000a8154816001600160a01b0302191690836001600160a01b03160217905550600061085b846003018381548110610841576108416135f9565b6000918252602090912001546001600160a01b031661104f565b600a01805463ffffffff60d01b1916600160d01b63ffffffff851602179055505b8260030180548061088f5761088f6136aa565b600082815260209020810160001990810180546001600160a01b0319169055019055610a87827f87971da2ffd60f015ef85ead0fa62169ee9c342d8f1db03babee919d33ccf8196000908152600b909101602052604080822080546001600160c01b03199081169091557fe0243e58c76a12071b4a375d5f283eaf01d6025bbabcdabd4ca2d0d3f67c5e3283528183208054821690557f1eb84f0e555ab7d88fd7243f3853898f7c3c98ed4c0285667956c327a2f2d17083528183208054821690557f381f724f6ecd2a24d4a619016614db98defae86152186d60beff19b685ea2b5a83528183208054821690557f061115fe294a09236be45875a15a7800403f95fde525547c9662b92a6359932e83528183208054821690557f9aea190d2b3dd7d1d8e8d055952c2e9923c067928667db7f47b1f818b830cba483528183208054821690557f50c491cb85c5de272af4bdee937deba8bfb8efc757876ce0671faf286198be9583528183208054821690557feb57753c1b4e94880186635dfc9185be51406a9179ca76e095563b00d9ef41d683528183208054821690557f98d367e8e159b82e76c08eb9e8367ae98bb11d65de64fdcde63c3a6a50e1756583528183208054821690557f88c9c5a9542135d89e93b19972c3c03dc735891e5c01c49b7bf7f869ba18b1bd8352912080549091169055565b610a90826113ed565b6040516001600160a01b038716907fc3eb286975d067e136d2d07c4c04700fbc1f72bf6b0778de0c99e95f4385661790600090a2505050505050565b600080516020614413833981519152610ae48261140b565b6000610aef33611469565b9050610afa816114f6565b610b0c6005830184600b8501846115ae565b610b45610b21610120850161010086016136dc565b610b2c9060016136f7565b610b3e610140860161012087016136dc565b6000611703565b505050565b7fec7e8c1c441439dd40959777f4c577ea0cd42fcc1dbe59d2bd0f5d9c55df8dc754600160881b900460ff16610bb15760405162461bcd60e51b815260206004820152600c60248201526b1b9bdd08185d1d1858da195960a21b6044820152606401610217565b565b6000600080516020614413833981519152610c0e610bd4602085018561371e565b8080601f01602080910402602001604051908101604052809392919081815260200183838082843760009201919091525061189192505050565b6000610c1933611469565b9050610c24816114f6565b610c2d85611b01565b6000610c3c602087018761376b565b610c4a9060a081019061378b565b610c5390613839565b8051909150610c965760405162461bcd60e51b815260206004820152600f60248201526e1859191c995cdcc81a5b9d985b1a59608a1b6044820152606401610217565b60006000805160206143f3833981519152600201546040516313db266360e31b81526001600160a01b038a8116600483015290911691506000908290639ed93318906024016020604051808303816000875af1158015610cfa573d6000803e3d6000fd5b505050506040513d601f19601f82011682018060405250810190610d1e919061364e565b90506000604082901b600160401b600160e01b03167f5bebac0595fee029d42bb673937f5f1cb81cf8641382bc17774635de9b7d7965189050600060048083015460ff1690811115610d7257610d7261366b565b14610d7f57610d7f613694565b600481018054600160ff199091168117909155810180546001600160a01b0319166001600160a01b038716179055610dc4610dbd60208a018a613500565b8290611c66565b600f86015460048201805464ffff000000191661ffff909216630100000002919091179055610df78160808a0135611dc5565b610e058160a08a0135611e5d565b610e138160408a0135611ef5565b610e218160608a0135611f61565b610e2f8160c08a0135611fcf565b610e6985838660400151610e4e6000805160206143f383398151915290565b600d015460058b0193929190600160501b900460ff1661205f565b60208401516002820190610e7d9082613965565b50604084810151600383018190556000908152600588016020522054600f8701546001600160401b03600160a01b909204821691610ecc9162010000900416610ec78360016136f7565b612165565b600a8301805467ffffffffffffffff19166001600160401b0392909216919091179055610efa8b848b612187565b82546001600160a01b0319166001600160a01b0391909116178255610f238260e08b013561234c565b610f32826101008b01356124d8565b610f41826101208b0135612569565b610f50826101408b01356125fa565b6003870154610f5e90612624565b600a8301805463ffffffff60d01b1916600160d01b63ffffffff939093169290920291909117905560038701805460018101825560009182526020918290200180546001600160a01b0319166001600160a01b0386811691909117909155835491870151610fd392899287929116908d612689565b50909998505050505050505050565b610ff4610fee8261104f565b336128f8565b6101815760405162461bcd60e51b815260206004820152601660248201527537b7363c9030b3b2b73a103b30bab63a1037bbb732b960511b6044820152606401610217565b60008183106110485781610199565b5090919050565b7f5bebac0595fee029d42bb673937f5f1cb81cf8641382bc17774635de9b7d7965600160401b600160e01b03604083901b161880600060048084015460ff169081111561109e5761109e61366b565b036105bd5760405162461bcd60e51b815260206004820152601b60248201527f696e76616c6964206167656e74207661756c74206164647265737300000000006044820152606401610217565b60008190506000836001600160a01b0316635c60da1b6040518163ffffffff1660e01b8152600401602060405180830381865afa158015611130573d6000803e3d6000fd5b505050506040513d601f19601f82011682018060405250810190611154919061364e565b90506000826001600160a01b0316635c60da1b6040518163ffffffff1660e01b8152600401602060405180830381865afa158015611196573d6000803e3d6000fd5b505050506040513d601f19601f820116820180604052508101906111ba919061364e565b9050816001600160a01b0316816001600160a01b03161461131457604051630422b7e960e11b81526001600160a01b038581166004830152600091908716906308456fd290602401600060405180830381865afa15801561121f573d6000803e3d6000fd5b505050506040513d6000823e601f3d908101601f191682016040526112479190810190613a48565b8051909150156112b65760405163278f794360e11b81526001600160a01b03851690634f1ef2869061127f9086908590600401613ae1565b600060405180830381600087803b15801561129957600080fd5b505af11580156112ad573d6000803e3d6000fd5b50505050611312565b604051631b2ce7f360e11b81526001600160a01b038481166004830152851690633659cfe690602401600060405180830381600087803b1580156112f957600080fd5b505af115801561130d573d6000803e3d6000fd5b505050505b505b5050505050565b60058101546000906001600160401b03600160801b82048116600160c01b90920416111561134b5761134b613694565b60058201546001600160401b03600160801b82048116916113779180821691600160401b9004166136f7565b61016491906136f7565b60006001600160401b038211156113e95760405162461bcd60e51b815260206004820152602660248201527f53616665436173743a2076616c756520646f65736e27742066697420696e203660448201526534206269747360d01b6064820152608401610217565b5090565b600f810181815b8082101561015357600082556001820191506113f4565b600061141f6102a083016102808401613b16565b60ff16146114605760405162461bcd60e51b815260206004820152600e60248201526d1c185e5b595b9d0819985a5b195960921b6044820152606401610217565b610181816129a7565b600080611474612b6f565b60405163039f412760e11b81526001600160a01b038581166004830152919091169063073e824e90602401602060405180830381865afa1580156114bc573d6000803e3d6000fd5b505050506040513d601f19601f820116820180604052508101906114e0919061364e565b90506001600160a01b0381166101645782610199565b6114fe612b6f565b604051633af32abf60e01b81526001600160a01b0383811660048301529190911690633af32abf90602401602060405180830381865afa158015611546573d6000803e3d6000fd5b505050506040513d601f19601f8201168201806040525081019061156a9190613b31565b6101815760405162461bcd60e51b81526020600482015260156024820152741859d95b9d081b9bdd081dda1a5d195b1a5cdd1959605a1b6044820152606401610217565b6101408301356000036115c3576115c3613694565b610140830135600090815260208590526040902080546001600160a01b0316156116295760405162461bcd60e51b81526020600482015260176024820152761859191c995cdcc8185b1c9958591e4818db185a5b5959604a1b6044820152606401610217565b67464250526641001360c01b6001600160a01b03831617610240850135146116935760405162461bcd60e51b815260206004820152601f60248201527f696e76616c69642061646472657373206f776e6572736869702070726f6f66006044820152606401610217565b61169d8385612b9d565b8054600168ff000000000000000160a01b0319166001600160a01b03831617600160e01b1781556116d6610120850161010086016136dc565b81546001600160401b0391909116600160a01b0267ffffffffffffffff60a01b1990911617905550505050565b60008051602061441383398151915260008061171f84876136f7565b600f8401549091506001600160401b03620100009091048116908216111561176b57600f8301805469ffffffffffffffff00001916620100006001600160401b03841602179055600191505b60006103e86000805160206143f3833981519152600c01546117939063ffffffff1687613b4e565b61179d9190613b8f565b6117a790876136f7565b600f8501546001600160401b039182169250600160501b9004168111156117fe576117d181611381565b84600f01600a6101000a8154816001600160401b0302191690836001600160401b03160217905550600192505b82156118885761180d42611381565b600f8501805467ffffffffffffffff60901b1916600160901b6001600160401b039384160217908190556040805162010000830484168152600160501b9092049092166020820152428183015290517f2078549e3faec355556787458d744ad19765bbb953b3f71801333f29abdce1c8916060908290030190a15b50505050505050565b604051600080516020614413833981519152907fec7e8c1c441439dd40959777f4c577ea0cd42fcc1dbe59d2bd0f5d9c55df8db8906118d1908490613bb5565b9081526040519081900360200190205460ff16156119315760405162461bcd60e51b815260206004820152601760248201527f73756666697820616c72656164792072657365727665640000000000000000006044820152606401610217565b600181600201836040516119459190613bb5565b908152604051908190036020019020805491151560ff199092169190911790558151829060028110156119ad5760405162461bcd60e51b815260206004820152601060248201526f1cdd59999a5e081d1bdbc81cda1bdc9d60821b6044820152606401610217565b60148111156119f05760405162461bcd60e51b815260206004820152600f60248201526e73756666697820746f6f206c6f6e6760881b6044820152606401610217565b60005b81811015611314576000838281518110611a0f57611a0f6135f9565b01602001516001600160f81b0319169050604160f81b8110801590611a425750602d60f91b6001600160f81b0319821611155b80611a745750600360fc1b6001600160f81b0319821610801590611a745750603960f81b6001600160f81b0319821611155b80611aac5750600082118015611a935750611a90600184613625565b82105b8015611aac5750602d60f81b6001600160f81b03198216145b611af85760405162461bcd60e51b815260206004820152601b60248201527f696e76616c69642063686172616374657220696e2073756666697800000000006044820152606401610217565b506001016119f3565b7f4f24f5c433db0962dac0d2c8b84197a6e6c7cc4e5d9ebe1916a1b6193da2f342547f4f24f5c433db0962dac0d2c8b84197a6e6c7cc4e5d9ebe1916a1b6193da2f345546000805160206143f3833981519152916001600160a01b031690611b6c602085018561376b565b6020013514611bad5760405162461bcd60e51b815260206004820152600d60248201526c34b73b30b634b21031b430b4b760991b6044820152606401610217565b60405163f34ef58760e01b81526001600160a01b0382169063f34ef58790611bd9908690600401613d36565b602060405180830381865afa158015611bf6573d6000803e3d6000fd5b505050506040513d601f19601f82011682018060405250810190611c1a9190613b31565b610b455760405162461bcd60e51b815260206004820152601b60248201527f616464726573732076616c6964697479206e6f742070726f76656400000000006044820152606401610217565b6000805160206144138339815191526000611c82600284612bd9565b90506000826000018281548110611c9b57611c9b6135f9565b60009182526020909120600490910201905060028154600160a01b900460ff166002811115611ccc57611ccc61366b565b14611cd957611cd9613694565b8054600160b01b90046001600160401b031615611d305760405162461bcd60e51b815260206004820152601560248201527418dbdb1b185d195c985b0819195c1c9958d85d1959605a1b6044820152606401610217565b611d3982612c7c565b8560040160016101000a81548161ffff021916908361ffff1602179055506000611d6286612cdf565b90506000611d708288612ddd565b600384015490915063ffffffff168110156118885760405162461bcd60e51b81526020600482015260156024820152741b9bdd08195b9bdd59da0818dbdb1b185d195c985b605a1b6044820152606401610217565b6000611dd083612ea8565b600381015490915063ffffffff16821015611e2d5760405162461bcd60e51b815260206004820152601a60248201527f636f6c6c61746572616c20726174696f20746f6f20736d616c6c0000000000006044820152606401610217565b611e3682612624565b83600401600d6101000a81548163ffffffff021916908363ffffffff160217905550505050565b6000611e6883612ef5565b600381015490915063ffffffff16821015611ec55760405162461bcd60e51b815260206004820152601a60248201527f636f6c6c61746572616c20726174696f20746f6f20736d616c6c0000000000006044820152606401610217565b611ece82612624565b8360040160116101000a81548163ffffffff021916908363ffffffff160217905550505050565b612710811115611f365760405162461bcd60e51b815260206004820152600c60248201526b0cccaca40e8dede40d0d2ced60a31b6044820152606401610217565b611f3f81612c7c565b8260040160096101000a81548161ffff021916908361ffff1602179055505050565b612710811115611fa45760405162461bcd60e51b815260206004820152600e60248201526d0ecc2d8eaca40e8dede40d0d2ced60931b6044820152606401610217565b611fad81612c7c565b82600401600b6101000a81548161ffff021916908361ffff1602179055505050565b6127108111156120125760405162461bcd60e51b815260206004820152600e60248201526d0ecc2d8eaca40e8dede40d0d2ced60931b6044820152606401610217565b6123288110156120345760405162461bcd60e51b815260040161021790613e15565b61203d81612c7c565b82600a0160106101000a81548161ffff021916908361ffff1602179055505050565b600082815260208690526040902080546001600160a01b031661209457805468ffffffffffffffffff60a01b191681556120ea565b80546001600160a01b038681169116146120ea5760405162461bcd60e51b81526020600482015260176024820152761859191c995cdcc8185b1c9958591e4818db185a5b5959604a1b6044820152606401610217565b8115806120ff57508054600160e01b900460ff165b6121405760405162461bcd60e51b81526020600482015260126024820152711153d0481c1c9bdbd9881c995c5d5a5c995960721b6044820152606401610217565b80546001600160a01b0319166001600160a01b03949094169390931790925550505050565b6000816001600160401b0316836001600160401b031610156110485781610199565b7f4f24f5c433db0962dac0d2c8b84197a6e6c7cc4e5d9ebe1916a1b6193da2f33d547f4f24f5c433db0962dac0d2c8b84197a6e6c7cc4e5d9ebe1916a1b6193da2f33e546040516309825b9560e01b81526000926000805160206143f3833981519152926001600160a01b0391821692911690849083906309825b9590612216908b908b908b90600401613e3c565b6020604051808303816000875af1158015612235573d6000803e3d6000fd5b505050506040513d601f19601f82011682018060405250810190612259919061364e565b905060006001600160a01b03831663796d5836836005880161227e60208c018c61371e565b6040518563ffffffff1660e01b815260040161229d9493929190613f0f565b6020604051808303816000875af11580156122bc573d6000803e3d6000fd5b505050506040513d601f19601f820116820180604052508101906122e0919061364e565b6040516333ce01fd60e01b81526001600160a01b038083166004830152919250908316906333ce01fd90602401600060405180830381600087803b15801561232757600080fd5b505af115801561233b573d6000803e3d6000fd5b50939b9a5050505050505050505050565b600061235783612ef5565b600381015490915063ffffffff16808310156123855760405162461bcd60e51b815260040161021790613e15565b835460408051633cfc747d60e01b815290516000926001600160a01b031691633cfc747d9160048083019260209291908290030181865afa1580156123ce573d6000803e3d6000fd5b505050506040513d601f19601f820116820180604052508101906123f29190613fb8565b63ffffffff1690506002612407826003613fde565b6124119190613ff5565b841115806124355750600a61242783600c613fde565b6124319190613ff5565b8411155b6124745760405162461bcd60e51b815260206004820152601060248201526f696e63726561736520746f6f2062696760801b6044820152606401610217565b8454604051630f0f739560e31b8152600481018690526001600160a01b039091169063787b9ca890602401600060405180830381600087803b1580156124b957600080fd5b505af11580156124cd573d6000803e3d6000fd5b505050505050505050565b60006124e383612ef5565b600381015490915063ffffffff168210156125105760405162461bcd60e51b815260040161021790613e15565b825460405163444c2e6b60e11b8152600481018490526001600160a01b03909116906388985cd690602401600060405180830381600087803b15801561255557600080fd5b505af1158015611888573d6000803e3d6000fd5b60046125786127106003613fde565b6125829190613ff5565b8110156125a15760405162461bcd60e51b815260040161021790613e15565b8154604051634d2123f360e11b8152600481018390526001600160a01b0390911690639a4247e690602401600060405180830381600087803b1580156125e657600080fd5b505af1158015611312573d6000803e3d6000fd5b61260381612624565b600c92909201805463ffffffff191663ffffffff9093169290921790915550565b600063ffffffff8211156113e95760405162461bcd60e51b815260206004820152602660248201527f53616665436173743a2076616c756520646f65736e27742066697420696e203360448201526532206269747360d01b6064820152608401610217565b61271f604051806101c0016040528060006001600160a01b0316815260200160006001600160a01b031681526020016060815260200160006001600160a01b0316815260200160006001600160a01b031681526020016000815260200160008152602001600081526020016000815260200160008152602001600081526020016000815260200160008152602001600081525090565b6001600160a01b038416808252604080516332f7ce0b60e21b8152905163cbdf382c916004808201926020929091908290030181865afa158015612767573d6000803e3d6000fd5b505050506040513d601f19601f8201168201806040525081019061278b919061364e565b6001600160a01b03166020808301919091526127a990830183613500565b81606001906001600160a01b031690816001600160a01b031681525050836001600160a01b0316639edbf0076040518163ffffffff1660e01b8152600401602060405180830381865afa158015612804573d6000803e3d6000fd5b505050506040513d601f19601f82011682018060405250810190612828919061364e565b6001600160a01b0390811660808084019190915260408084018690528481013560a080860191909152606086013560c0808701919091529286013560e08087019190915290860135610100808701919091529286013561012080870191909152908601356101408087019190915292860135610160860152850135610180850152908401356101a084015251868216918816907fdde4e1391087a23dd1b24107a9e3848e2e1297449a6d212092d3162dbf2340bc906128e8908590614009565b60405180910390a3505050505050565b60018201546000906001600160a01b0390811690831681148061299f575061291e612b6f565b604051631f86345d60e31b81526001600160a01b038381166004830152919091169063fc31a2e890602401602060405180830381865afa158015612966573d6000803e3d6000fd5b505050506040513d601f19601f8201168201806040525081019061298a919061364e565b6001600160a01b0316836001600160a01b0316145b949350505050565b7f4f24f5c433db0962dac0d2c8b84197a6e6c7cc4e5d9ebe1916a1b6193da2f342547f4f24f5c433db0962dac0d2c8b84197a6e6c7cc4e5d9ebe1916a1b6193da2f345546000805160206143f3833981519152916001600160a01b031690604084013514612a475760405162461bcd60e51b815260206004820152600d60248201526c34b73b30b634b21031b430b4b760991b6044820152606401610217565b60405163a7a3797560e01b81526001600160a01b0382169063a7a3797590612a73908690600401614107565b602060405180830381865afa158015612a90573d6000803e3d6000fd5b505050506040513d601f19601f82011682018060405250810190612ab49190613b31565b612b005760405162461bcd60e51b815260206004820152601860248201527f6c6567616c207061796d656e74206e6f742070726f76656400000000000000006044820152606401610217565b612b23612b15610140850161012086016136dc565b6001600160401b0316612f2e565b610b455760405162461bcd60e51b815260206004820152601c60248201527f7665726966696564207472616e73616374696f6e20746f6f206f6c64000000006044820152606401610217565b7f4f24f5c433db0962dac0d2c8b84197a6e6c7cc4e5d9ebe1916a1b6193da2f341546001600160a01b031690565b6040805161014083013560208083019190915260a08401358284015282518083038401815260609092019092528051910120610b458382612f51565b6000600080516020614413833981519152817fec7e8c1c441439dd40959777f4c577ea0cd42fcc1dbe59d2bd0f5d9c55df8db781612c178787613019565b815260200190815260200160002054905060008111612c685760405162461bcd60e51b815260206004820152600d60248201526c3ab735b737bbb7103a37b5b2b760991b6044820152606401610217565b612c73600182613625565b95945050505050565b600061ffff8211156113e95760405162461bcd60e51b815260206004820152602660248201527f53616665436173743a2076616c756520646f65736e27742066697420696e203160448201526536206269747360d01b6064820152608401610217565b612d046040805160608101909152806000815260200160008152602001600081525090565b6000612d0f83612ea8565b6040805160608101909152909150806000815282546020909101906001600160a01b03166370a082317f5bebac0595fee029d42bb673937f5f1cb81cf8641382bc17774635de9b7d7965871860401c6040516001600160e01b031960e084901b1681526001600160a01b039091166004820152602401602060405180830381865afa158015612da2573d6000803e3d6000fd5b505050506040513d601f19601f82011682018060405250810190612dc69190614294565b8152602001612dd483613043565b90529392505050565b600080600184516002811115612df557612df561366b565b14612e14576005830154600160801b90046001600160401b0316612e2a565b6005830154600160c01b90046001600160401b03165b60058401546001600160401b0391821692506000918391612e569181811691600160401b900416613681565b612e609190613681565b90506000612e72828760400151613059565b905080600003612e8c576402540be4009350505050610164565b6020860151612e9e906127108361306f565b9695505050505050565b60008060008051602061441383398151915260048401548154919250829161010090910461ffff16908110612edf57612edf6135f9565b9060005260206000209060040201915050919050565b600080600080516020614413833981519152600484015481549192508291630100000090910461ffff16908110612edf57612edf6135f9565b6000612f3e600e62015180613fde565b612f489042613625565b90911015919050565b60008181526020839052604090205415612fad5760405162461bcd60e51b815260206004820152601960248201527f7061796d656e7420616c726561647920636f6e6669726d6564000000000000006044820152606401610217565b6000612fbc6201518042613ff5565b6000818152600185016020526040812054919250819003612fdd5782612fdf565b805b6000848152602086815260408083209390935584825260018701905290812084905560028501549003610153576002840182905550505050565b6000816001600160a01b031660a08460028111156130395761303961366b565b901b179392505050565b6000613050826000613195565b50909392505050565b60006101998261306b6009600a614391565b8591905b60008082116130b35760405162461bcd60e51b815260206004820152601060248201526f4469766973696f6e206279207a65726f60801b6044820152606401610217565b836000036130c357506000610199565b838302838582816130d6576130d6613b79565b04036130f4578281816130eb576130eb613b79565b04915050610199565b5060006131018386613ff5565b9050600061310f848761439d565b9050600061311d8587613ff5565b9050600061312b868861439d565b9050856131388285613fde565b6131429190613ff5565b61314c8385613fde565b6131568387613fde565b886131618689613fde565b61316b9190613fde565b6131759190613681565b61317f9190613681565b6131899190613681565b98975050505050505050565b6000806000806000806132348860010180546131b0906138e9565b80601f01602080910402602001604051908101604052809291908181526020018280546131dc906138e9565b80156132295780601f106131fe57610100808354040283529160200191613229565b820191906000526020600020905b81548152906001019060200180831161320c57829003601f168201915b505050505088613354565b8a549295509093509150600160f01b900460ff161561327b57875460009061326a90600160a81b900460ff166001838786613442565b965091945084935061334d92505050565b60008060006133168b6002018054613292906138e9565b80601f01602080910402602001604051908101604052809291908181526020018280546132be906138e9565b801561330b5780601f106132e05761010080835404028352916020019161330b565b820191906000526020600020905b8154815290600101906020018083116132ee57829003601f168201915b50505050508b613354565b8d54929550909350915060009061333a90600160a81b900460ff1685848a89613442565b995094975090955061334d945050505050565b9250925092565b7f4f24f5c433db0962dac0d2c8b84197a6e6c7cc4e5d9ebe1916a1b6193da2f34454600090819081906000805160206143f3833981519152906001600160a01b031685156134165760405163e4a0a55b60e01b81526001600160a01b0382169063e4a0a55b906133c8908a906004016143b1565b606060405180830381865afa1580156133e5573d6000803e3d6000fd5b505050506040513d601f19601f8201168201806040525081019061340991906143c4565b945094509450505061334d565b60405163524f388960e01b81526001600160a01b0382169063524f3889906133c8908a906004016143b1565b60006000805160206143f3833981519152816009613460878a613681565b61346a9190613681565b600a83015490915060009061348a908690600160a81b900460ff16613681565b90508082101561349c5761349c613694565b6134bc6134a98284613625565b6134b490600a614391565b87908a61306f565b9998505050505050505050565b600080604083850312156134dc57600080fd5b50508035926020909101359150565b6001600160a01b038116811461018157600080fd5b60006020828403121561351257600080fd5b8135610199816134eb565b6000806040838503121561353057600080fd5b823561353b816134eb565b9150602083013561354b816134eb565b809150509250929050565b60006020828403121561356857600080fd5b81356001600160401b0381111561357e57600080fd5b82016102a0818503121561019957600080fd5b600080604083850312156135a457600080fd5b82356001600160401b03808211156135bb57600080fd5b90840190604082870312156135cf57600080fd5b909250602084013590808211156135e557600080fd5b508301610160818603121561354b57600080fd5b634e487b7160e01b600052603260045260246000fd5b634e487b7160e01b600052601160045260246000fd5b818103818111156101645761016461360f565b634e487b7160e01b600052604160045260246000fd5b60006020828403121561366057600080fd5b8151610199816134eb565b634e487b7160e01b600052602160045260246000fd5b808201808211156101645761016461360f565b634e487b7160e01b600052600160045260246000fd5b634e487b7160e01b600052603160045260246000fd5b80356001600160401b03811681146136d757600080fd5b919050565b6000602082840312156136ee57600080fd5b610199826136c0565b6001600160401b038181168382160190808211156137175761371761360f565b5092915050565b6000808335601e1984360301811261373557600080fd5b8301803591506001600160401b0382111561374f57600080fd5b60200191503681900382131561376457600080fd5b9250929050565b6000823560be1983360301811261378157600080fd5b9190910192915050565b60008235605e1983360301811261378157600080fd5b604051606081016001600160401b03811182821017156137c3576137c3613638565b60405290565b604051601f8201601f191681016001600160401b03811182821017156137f1576137f1613638565b604052919050565b801515811461018157600080fd5b80356136d7816137f9565b60006001600160401b0382111561382b5761382b613638565b50601f01601f191660200190565b60006060823603121561384b57600080fd5b6138536137a1565b823561385e816137f9565b81526020838101356001600160401b0381111561387a57600080fd5b840136601f82011261388b57600080fd5b803561389e61389982613812565b6137c9565b81815236848385010111156138b257600080fd5b818484018583013760008483830101528084860152505050506040830135604082015280915050919050565b80356136d7816134eb565b600181811c908216806138fd57607f821691505b6020821081036105bd57634e487b7160e01b600052602260045260246000fd5b601f821115610b45576000816000526020600020601f850160051c810160208610156139465750805b601f850160051c820191505b8181101561131257828155600101613952565b81516001600160401b0381111561397e5761397e613638565b6139928161398c84546138e9565b8461391d565b602080601f8311600181146139c757600084156139af5750858301515b600019600386901b1c1916600185901b178555611312565b600085815260208120601f198616915b828110156139f6578886015182559484019460019091019084016139d7565b5085821015613a145787850151600019600388901b60f8161c191681555b5050505050600190811b01905550565b60005b83811015613a3f578181015183820152602001613a27565b50506000910152565b600060208284031215613a5a57600080fd5b81516001600160401b03811115613a7057600080fd5b8201601f81018413613a8157600080fd5b8051613a8f61389982613812565b818152856020838501011115613aa457600080fd5b612c73826020830160208601613a24565b60008151808452613acd816020860160208601613a24565b601f01601f19169290920160200192915050565b6001600160a01b038316815260406020820181905260009061299f90830184613ab5565b803560ff811681146136d757600080fd5b600060208284031215613b2857600080fd5b61019982613b05565b600060208284031215613b4357600080fd5b8151610199816137f9565b6001600160401b03818116838216028082169190828114613b7157613b7161360f565b505092915050565b634e487b7160e01b600052601260045260246000fd5b60006001600160401b0380841680613ba957613ba9613b79565b92169190910492915050565b60008251613781818460208701613a24565b6000808335601e19843603018112613bde57600080fd5b83016020810192503590506001600160401b03811115613bfd57600080fd5b8060051b360382131561376457600080fd5b81835260006001600160fb1b03831115613c2857600080fd5b8260051b80836020870137939093016020019392505050565b6000808335601e19843603018112613c5857600080fd5b83016020810192503590506001600160401b03811115613c7757600080fd5b80360382131561376457600080fd5b81835281816020850137506000828201602090810191909152601f909101601f19169091010190565b6000613cbb8283613c41565b60208552612c73602086018284613c86565b60008235605e19833603018112613ce357600080fd5b90910192915050565b60008135613cf9816137f9565b15158352613d0a6020830183613c41565b60606020860152613d1f606086018284613c86565b915050604083013560408501528091505092915050565b602081526000613d468384613bc7565b60406020850152613d5b606085018284613c0f565b915050602084013560be19853603018112613d7557600080fd5b8481019050601f198483030160408501528035825260208101356020830152613da0604082016136c0565b6001600160401b03808216604085015280613dbd606085016136c0565b16606085015250506080810135601e19823603018112613ddc57600080fd5b60c06080840152613df260c08401838301613caf565b9050613e0160a0830183613ccd565b915082810360a0840152612e9e8183613cec565b6020808252600d908201526c76616c756520746f6f206c6f7760981b604082015260600190565b6001600160a01b03848116825283166020820152606060408201819052600090613e78908301613e6b856138de565b6001600160a01b03169052565b613e856020840184613c41565b610160806080860152613e9d6101c086018385613c86565b9250604086013560a0860152606086013560c0860152608086013560e0860152610100915060a08601358286015261012060c08701358187015261014060e088013581880152838801358388015281880135610180880152808801356101a08801525050505080915050949350505050565b60018060a01b0385168152600060206060602084015260008654613f32816138e9565b8060608701526080600180841660008114613f545760018114613f7057613fa0565b60ff19851660808a0152608084151560051b8a01019550613fa0565b8b600052602060002060005b85811015613f975781548b8201860152908301908801613f7c565b8a016080019650505b50505050508381036040850152613189818688613c86565b600060208284031215613fca57600080fd5b815163ffffffff8116811461019957600080fd5b80820281158282048414176101645761016461360f565b60008261400457614004613b79565b500490565b602081526140236020820183516001600160a01b03169052565b6000602083015161403f60408401826001600160a01b03169052565b5060408301516101c080606085015261405c6101e0850183613ab5565b9150606085015161407860808601826001600160a01b03169052565b5060808501516001600160a01b03811660a08601525060a085015160c08581019190915285015160e08086019190915285015161010080860191909152850151610120808601919091528501516101408086019190915285015161016080860191909152850151610180808601919091528501516101a080860191909152909401519390920192909252919050565b6020815260006141178384613bc7565b6102a080602086015261412f6102c086018385613c0f565b92506020860135604086015260408601356060860152614151606087016136c0565b91506001600160401b03808316608087015280614170608089016136c0565b1660a08701525060a086013560c086015260c086013560e0860152610100915060e0860135828601526101206141ba8187016141ad858a016136c0565b6001600160401b03169052565b6141c58188016136c0565b9250506101406141df818701846001600160401b03169052565b610160925080870135838701525061018082870135818701526101a092508087013583870152506101c082870135818701526101e09250808701358387015250610200828701358187015261022092508087013583870152506102408287013581870152610260925080870135838701525061425c828701613807565b915061028061426e8187018415159052565b614279818801613b05565b92505061428a8186018360ff169052565b5090949350505050565b6000602082840312156142a657600080fd5b5051919050565b600181815b808511156142e85781600019048211156142ce576142ce61360f565b808516156142db57918102915b93841c93908002906142b2565b509250929050565b6000826142ff57506001610164565b8161430c57506000610164565b8160018114614322576002811461432c57614348565b6001915050610164565b60ff84111561433d5761433d61360f565b50506001821b610164565b5060208310610133831016604e8410600b841016171561436b575081810a610164565b61437583836142ad565b80600019048211156143895761438961360f565b029392505050565b600061019983836142f0565b6000826143ac576143ac613b79565b500690565b6020815260006101996020830184613ab5565b6000806000606084860312156143d957600080fd5b835192506020840151915060408401519050925092509256fe4f24f5c433db0962dac0d2c8b84197a6e6c7cc4e5d9ebe1916a1b6193da2f33aec7e8c1c441439dd40959777f4c577ea0cd42fcc1dbe59d2bd0f5d9c55df8db6a26469706673582212207ab4bcaca51714a372652e7699c2c33a53e1d134fbafeed4b27670a4c95f8ade64736f6c63430008170033",
  "linkReferences": {},
  "deployedLinkReferences": {}
}