{
  "_format": "hh-sol-artifact-1",
  "contractName": "AgentVaultManagementFacet",
  "sourceName": "contracts/assetManager/facets/AgentVaultManagementFacet.sol",
  "abi": [
    {
      "inputs": [],
      "name": "AddressAlreadyClaimed",
      "type": "error"
    },
    {
      "inputs": [],
      "name": "AddressInvalid",
      "type": "error"
    },
    {
      "inputs": [],
      "name": "AddressUsedByCoreVault",
      "type": "error"
    },
    {
      "inputs": [],
      "name": "AddressValidityNotProven",
      "type": "error"
    },
    {
      "inputs": [],
      "name": "AgentNotWhitelisted",
      "type": "error"
    },
    {
      "inputs": [],
      "name": "AgentStillActive",
      "type": "error"
    },
    {
      "inputs": [],
      "name": "AgentStillAvailable",
      "type": "error"
    },
    {
      "inputs": [],
      "name": "CollateralDeprecated",
      "type": "error"
    },
    {
      "inputs": [],
      "name": "CollateralRatioTooSmall",
      "type": "error"
    },
    {
      "inputs": [],
      "name": "DestroyNotAllowedYet",
      "type": "error"
    },
    {
      "inputs": [],
      "name": "DestroyNotAnnounced",
      "type": "error"
    },
    {
      "inputs": [],
      "name": "DivisionByZero",
      "type": "error"
    },
    {
      "inputs": [],
      "name": "EmergencyPauseActive",
      "type": "error"
    },
    {
      "inputs": [],
      "name": "FeeTooHigh",
      "type": "error"
    },
    {
      "inputs": [],
      "name": "IncreaseTooBig",
      "type": "error"
    },
    {
      "inputs": [],
      "name": "InvalidAgentVaultAddress",
      "type": "error"
    },
    {
      "inputs": [],
      "name": "InvalidChain",
      "type": "error"
    },
    {
      "inputs": [],
      "name": "NotAttached",
      "type": "error"
    },
    {
      "inputs": [],
      "name": "NotEnoughCollateral",
      "type": "error"
    },
    {
      "inputs": [],
      "name": "NotWhitelisted",
      "type": "error"
    },
    {
      "inputs": [],
      "name": "OnlyAgentVaultOwner",
      "type": "error"
    },
    {
      "inputs": [],
      "name": "OnlyAssetManagerController",
      "type": "error"
    },
    {
      "inputs": [],
      "name": "OnlyImmediateGovernanceOrExecutor",
      "type": "error"
    },
    {
      "inputs": [],
      "name": "SuffixInvalidFormat",
      "type": "error"
    },
    {
      "inputs": [],
      "name": "SuffixReserved",
      "type": "error"
    },
    {
      "inputs": [],
      "name": "UnknownToken",
      "type": "error"
    },
    {
      "inputs": [],
      "name": "ValueTooHigh",
      "type": "error"
    },
    {
      "inputs": [],
      "name": "ValueTooLow",
      "type": "error"
    },
    {
      "anonymous": false,
      "inputs": [
        {
          "indexed": true,
          "internalType": "address",
          "name": "agentVault",
          "type": "address"
        },
        {
          "indexed": false,
          "internalType": "uint256",
          "name": "destroyAllowedAt",
          "type": "uint256"
        }
      ],
      "name": "AgentDestroyAnnounced",
      "type": "event"
    },
    {
      "anonymous": false,
      "inputs": [
        {
          "indexed": true,
          "internalType": "address",
          "name": "agentVault",
          "type": "address"
        }
      ],
      "name": "AgentDestroyed",
      "type": "event"
    },
    {
      "anonymous": false,
      "inputs": [
        {
          "indexed": true,
          "internalType": "address",
          "name": "owner",
          "type": "address"
        },
        {
          "indexed": true,
          "internalType": "address",
          "name": "agentVault",
          "type": "address"
        },
        {
          "components": [
            {
              "internalType": "address",
              "name": "collateralPool",
              "type": "address"
            },
            {
              "internalType": "address",
              "name": "collateralPoolToken",
              "type": "address"
            },
            {
              "internalType": "string",
              "name": "underlyingAddress",
              "type": "string"
            },
            {
              "internalType": "address",
              "name": "vaultCollateralToken",
              "type": "address"
            },
            {
              "internalType": "address",
              "name": "poolWNatToken",
              "type": "address"
            },
            {
              "internalType": "uint256",
              "name": "feeBIPS",
              "type": "uint256"
            },
            {
              "internalType": "uint256",
              "name": "poolFeeShareBIPS",
              "type": "uint256"
            },
            {
              "internalType": "uint256",
              "name": "mintingVaultCollateralRatioBIPS",
              "type": "uint256"
            },
            {
              "internalType": "uint256",
              "name": "mintingPoolCollateralRatioBIPS",
              "type": "uint256"
            },
            {
              "internalType": "uint256",
              "name": "buyFAssetByAgentFactorBIPS",
              "type": "uint256"
            },
            {
              "internalType": "uint256",
              "name": "poolExitCollateralRatioBIPS",
              "type": "uint256"
            },
            {
              "internalType": "uint256",
              "name": "redemptionPoolFeeShareBIPS",
              "type": "uint256"
            }
          ],
          "indexed": false,
          "internalType": "struct IAssetManagerEvents.AgentVaultCreationData",
          "name": "creationData",
          "type": "tuple"
        }
      ],
      "name": "AgentVaultCreated",
      "type": "event"
    },
    {
      "inputs": [
        {
          "internalType": "address",
          "name": "_agentVault",
          "type": "address"
        }
      ],
      "name": "announceDestroyAgent",
      "outputs": [
        {
          "internalType": "uint256",
          "name": "_destroyAllowedAt",
          "type": "uint256"
        }
      ],
      "stateMutability": "nonpayable",
      "type": "function"
    },
    {
      "inputs": [
        {
          "components": [
            {
              "internalType": "bytes32[]",
              "name": "merkleProof",
              "type": "bytes32[]"
            },
            {
              "components": [
                {
                  "internalType": "bytes32",
                  "name": "attestationType",
                  "type": "bytes32"
                },
                {
                  "internalType": "bytes32",
                  "name": "sourceId",
                  "type": "bytes32"
                },
                {
                  "internalType": "uint64",
                  "name": "votingRound",
                  "type": "uint64"
                },
                {
                  "internalType": "uint64",
                  "name": "lowestUsedTimestamp",
                  "type": "uint64"
                },
                {
                  "components": [
                    {
                      "internalType": "string",
                      "name": "addressStr",
                      "type": "string"
                    }
                  ],
                  "internalType": "struct IAddressValidity.RequestBody",
                  "name": "requestBody",
                  "type": "tuple"
                },
                {
                  "components": [
                    {
                      "internalType": "bool",
                      "name": "isValid",
                      "type": "bool"
                    },
                    {
                      "internalType": "string",
                      "name": "standardAddress",
                      "type": "string"
                    },
                    {
                      "internalType": "bytes32",
                      "name": "standardAddressHash",
                      "type": "bytes32"
                    }
                  ],
                  "internalType": "struct IAddressValidity.ResponseBody",
                  "name": "responseBody",
                  "type": "tuple"
                }
              ],
              "internalType": "struct IAddressValidity.Response",
              "name": "data",
              "type": "tuple"
            }
          ],
          "internalType": "struct IAddressValidity.Proof",
          "name": "_addressProof",
          "type": "tuple"
        },
        {
          "components": [
            {
              "internalType": "contract IERC20",
              "name": "vaultCollateralToken",
              "type": "address"
            },
            {
              "internalType": "string",
              "name": "poolTokenSuffix",
              "type": "string"
            },
            {
              "internalType": "uint256",
              "name": "feeBIPS",
              "type": "uint256"
            },
            {
              "internalType": "uint256",
              "name": "poolFeeShareBIPS",
              "type": "uint256"
            },
            {
              "internalType": "uint256",
              "name": "mintingVaultCollateralRatioBIPS",
              "type": "uint256"
            },
            {
              "internalType": "uint256",
              "name": "mintingPoolCollateralRatioBIPS",
              "type": "uint256"
            },
            {
              "internalType": "uint256",
              "name": "buyFAssetByAgentFactorBIPS",
              "type": "uint256"
            },
            {
              "internalType": "uint256",
              "name": "poolExitCollateralRatioBIPS",
              "type": "uint256"
            },
            {
              "internalType": "uint256",
              "name": "redemptionPoolFeeShareBIPS",
              "type": "uint256"
            }
          ],
          "internalType": "struct AgentSettings.Data",
          "name": "_settings",
          "type": "tuple"
        }
      ],
      "name": "createAgentVault",
      "outputs": [
        {
          "internalType": "address",
          "name": "_agentVault",
          "type": "address"
        }
      ],
      "stateMutability": "nonpayable",
      "type": "function"
    },
    {
      "inputs": [
        {
          "internalType": "address",
          "name": "_agentVault",
          "type": "address"
        },
        {
          "internalType": "address payable",
          "name": "_recipient",
          "type": "address"
        }
      ],
      "name": "destroyAgent",
      "outputs": [],
      "stateMutability": "nonpayable",
      "type": "function"
    },
    {
      "inputs": [
        {
          "internalType": "address",
          "name": "_agentVault",
          "type": "address"
        }
      ],
      "name": "upgradeAgentVaultAndPool",
      "outputs": [],
      "stateMutability": "nonpayable",
      "type": "function"
    },
    {
      "inputs": [
        {
          "internalType": "uint256",
          "name": "_start",
          "type": "uint256"
        },
        {
          "internalType": "uint256",
          "name": "_end",
          "type": "uint256"
        }
      ],
      "name": "upgradeAgentVaultsAndPools",
      "outputs": [],
      "stateMutability": "nonpayable",
      "type": "function"
    }
  ],
  "bytecode": "0x6080604052348015600f57600080fd5b506135238061001f6000396000f3fe608060405234801561001057600080fd5b50600436106100575760003560e01c8063312859091461005c5780635e71055c14610071578063778aadd514610097578063b6620e44146100aa578063b9a2ddb1146100d5575b600080fd5b61006f61006a36600461285a565b6100e8565b005b61008461007f366004612891565b61013b565b6040519081526020015b60405180910390f35b61006f6100a53660046128ae565b6102b7565b6100bd6100b83660046128e7565b61059e565b6040516001600160a01b03909116815260200161008e565b61006f6100e3366004612891565b610944565b6100f0610965565b60006100fc83836109a1565b50905060005b81518110156101355761012d82828151811061012057610120612950565b6020026020010151610ab2565b600101610102565b50505050565b60006101476001610b88565b8161015181610bd7565b6000805160206134ae833981519152600061016b85610c06565b600481015490915065010000000000900463ffffffff16156101a0576040516304d3cdf760e01b815260040160405180910390fd5b6101a981610c75565b6001600160401b0316156101d0576040516334a0089760e21b815260040160405180910390fd5b60048082015460ff1660058111156101ea576101ea612966565b14610299576004818101805460ff19169091179055601082015460009061022190600160801b90046001600160401b031642612992565b905061022c81610cdb565b82600a0160086101000a8154816001600160401b0302191690836001600160401b03160217905550856001600160a01b03167f86bbd7101c8a4494b25e559dee68314c4bc85dd8eae43137811ebcc8bb26a69c8260405161028f91815260200190565b60405180910390a2505b600a0154600160401b90046001600160401b03169250505b50919050565b6102c16002610b88565b816102cb81610bd7565b6000805160206134ce83398151915260006102e585610c06565b905060048082015460ff16600581111561030157610301612966565b1461031f57604051636accea8d60e01b815260040160405180910390fd5b600a810154600160401b90046001600160401b0316421161035357604051631ce89fab60e11b815260040160405180910390fd5b61035c81610c75565b6001600160401b031615610372576103726129a5565b805460405162f55d9d60e01b81526001600160a01b0386811660048301529091169062f55d9d90602401600060405180830381600087803b1580156103b657600080fd5b505af11580156103ca573d6000803e3d6000fd5b50505050846001600160a01b03166383197ef06040518163ffffffff1660e01b8152600401600060405180830381600087803b15801561040957600080fd5b505af115801561041d573d6000803e3d6000fd5b50505050600a8101546003830154600160d01b90910463ffffffff1690610445826001612992565b101561051e5760038301805461045d906001906129bb565b8154811061046d5761046d612950565b6000918252602090912001546003840180546001600160a01b03909216918390811061049b5761049b612950565b9060005260206000200160006101000a8154816001600160a01b0302191690836001600160a01b0316021790555060006104fd8460030183815481106104e3576104e3612950565b6000918252602090912001546001600160a01b0316610c06565b600a01805463ffffffff60d01b1916600160d01b63ffffffff851602179055505b82600301805480610531576105316129ce565b600082815260208120600019908301810180546001600160a01b031916905590910190915560048301805460ff191660051790556040516001600160a01b038816917fc3eb286975d067e136d2d07c4c04700fbc1f72bf6b0778de0c99e95f4385661791a2505050505050565b60006105a8610d4c565b6105b26001610b88565b6000805160206134ce83398151915261060b6105d160208501856129e4565b8080601f016020809104026020016040519081016040528093929190818152602001838380828437600092019190915250610d9792505050565b600061061633610f6d565b905061062181611003565b61062a85611094565b60006106396020870187612a31565b6106479060a0810190612a51565b61065090612b0a565b80519091506106725760405163028be62f60e61b815260040160405180910390fd5b61067a6111b0565b81604001510361069d576040516308bdaaab60e31b815260040160405180910390fd5b3060006000805160206134ae833981519152600201546040516313db266360e31b81526001600160a01b03848116600483015290911691506000908290639ed93318906024016020604051808303816000875af1158015610702573d6000803e3d6000fd5b505050506040513d601f19601f820116820180604052508101906107269190612bad565b905060006107338261125f565b90506000600482015460ff16600581111561075057610750612966565b1461075d5761075d6129a5565b600481018054600160ff199091168117909155810180546001600160a01b0319166001600160a01b0388161790556107a261079b60208b018b612891565b8290611298565b600f87015460048201805464ffff000000191661ffff9092166301000000029190911790556107d58160808b01356113b1565b6107e38160a08b013561141a565b6107f18160408b0135611483565b6107ff8160608b01356114d1565b61080d8160c08b013561151f565b60408501516108229060058901908490611590565b602085015160028201906108369082612c55565b5060408501516003820155600f870154600a82018054620100009092046001600160401b031667ffffffffffffffff1990921691909117905561087a84838b6115ea565b81546001600160a01b0319166001600160a01b03919091161781556108a38160e08b01356117af565b6108b2816101008b0135611945565b60038701546108c090611993565b600a8201805463ffffffff60d01b1916600160d01b63ffffffff939093169290920291909117905560038701805460018101825560009182526020918290200180546001600160a01b0319166001600160a01b038581169190911790915582549187015161093592899286929116908d6119f8565b50955050505050505b92915050565b61094e6001610b88565b8061095881610bd7565b61096182610ab2565b5050565b6000805160206134ae83398151915280546001600160a01b0316331461099e57604051634ae14edf60e11b815260040160405180910390fd5b50565b7fec7e8c1c441439dd40959777f4c577ea0cd42fcc1dbe59d2bd0f5d9c55df8db9546060906000805160206134ce8339815191526109df8483611c3d565b93506109eb8585611c3d565b94506109f785856129bb565b6001600160401b03811115610a0e57610a0e612a67565b604051908082528060200260200182016040528015610a37578160200160208202803683370190505b509250845b84811015610aa957816003018181548110610a5957610a59612950565b6000918252602090912001546001600160a01b031684610a7988846129bb565b81518110610a8957610a89612950565b6001600160a01b0390921660209283029190910190910152600101610a3c565b50509250929050565b6000805160206134ae8339815191526000610acc83610c06565b54604080516332f7ce0b60e21b815290516001600160a01b039092169250600091839163cbdf382c9160048083019260209291908290030181865afa158015610b19573d6000803e3d6000fd5b505050506040513d601f19601f82011682018060405250810190610b3d9190612bad565b6002840154909150610b58906001600160a01b031685611c53565b6003830154610b70906001600160a01b031683611c53565b6004830154610135906001600160a01b031682611c53565b6000816003811115610b9c57610b9c612966565b610ba4611e82565b6003811115610bb557610bb5612966565b10801591506109615760405163909b191760e01b815260040160405180910390fd5b610be9610be382610c06565b33611ed3565b61099e5760405163f6e2f99b60e01b815260040160405180910390fd5b600080610c128361125f565b600481015490915060ff166000816005811115610c3157610c31612966565b14158015610c5157506005816005811115610c4e57610c4e612966565b14155b610c6e5760405163d68a46c560e01b815260040160405180910390fd5b5092915050565b60058101546000906001600160401b03600160801b82048116600160c01b909204161115610ca557610ca56129a5565b60058201546001600160401b03600160801b8204811691610cd19180821691600160401b900416612d13565b61093e9190612d13565b60006001600160401b03821115610d485760405162461bcd60e51b815260206004820152602660248201527f53616665436173743a2076616c756520646f65736e27742066697420696e203660448201526534206269747360d01b60648201526084015b60405180910390fd5b5090565b7fec7e8c1c441439dd40959777f4c577ea0cd42fcc1dbe59d2bd0f5d9c55df8dc754600160881b900460ff16610d9557604051630d6e7efb60e41b815260040160405180910390fd5b565b6040516000805160206134ce833981519152907fec7e8c1c441439dd40959777f4c577ea0cd42fcc1dbe59d2bd0f5d9c55df8db890610dd7908490612d56565b9081526040519081900360200190205460ff1615610e085760405163a470990760e01b815260040160405180910390fd5b60018160020183604051610e1c9190612d56565b908152604051908190036020019020805491151560ff19909216919091179055815182906002811015610e6257604051632609d98d60e01b815260040160405180910390fd5b6014811115610e8457604051632609d98d60e01b815260040160405180910390fd5b60005b81811015610f66576000838281518110610ea357610ea3612950565b01602001516001600160f81b0319169050604160f81b8110801590610ed65750602d60f91b6001600160f81b0319821611155b80610f085750600360fc1b6001600160f81b0319821610801590610f085750603960f81b6001600160f81b0319821611155b80610f405750600082118015610f275750610f246001846129bb565b82105b8015610f405750602d60f81b6001600160f81b03198216145b610f5d57604051632609d98d60e01b815260040160405180910390fd5b50600101610e87565b5050505050565b600080610f78611f14565b60405163039f412760e11b81526001600160a01b038581166004830152919091169063073e824e90602401602060405180830381865afa158015610fc0573d6000803e3d6000fd5b505050506040513d601f19601f82011682018060405250810190610fe49190612bad565b90506001600160a01b038116610ffa5782610ffc565b805b9392505050565b61100b611f14565b604051633af32abf60e01b81526001600160a01b0383811660048301529190911690633af32abf90602401602060405180830381865afa158015611053573d6000803e3d6000fd5b505050506040513d601f19601f820116820180604052508101906110779190612d68565b61099e57604051631408f3ef60e31b815260040160405180910390fd5b7f4f24f5c433db0962dac0d2c8b84197a6e6c7cc4e5d9ebe1916a1b6193da2f342547f4f24f5c433db0962dac0d2c8b84197a6e6c7cc4e5d9ebe1916a1b6193da2f345546000805160206134ae833981519152916001600160a01b0316906110ff6020850185612a31565b60200135146111215760405163057f3fa760e51b815260040160405180910390fd5b60405163f34ef58760e01b81526001600160a01b0382169063f34ef5879061114d908690600401612f38565b602060405180830381865afa15801561116a573d6000803e3d6000fd5b505050506040513d601f19601f8201168201806040525081019061118e9190612d68565b6111ab5760405163f5c977e760e01b815260040160405180910390fd5b505050565b7f908500188c8f91f50d58dffac83eda18fc06d9da0208fc6b66c78a4c3fec74f28054600091906001600160a01b03166111ec57506000919050565b80546040805163c9febdf560e01b815290516001600160a01b039092169163c9febdf5916004808201926020929091908290030181865afa158015611235573d6000803e3d6000fd5b505050506040513d601f19601f820116820180604052508101906112599190612fd5565b91505090565b60401b68010000000000000000600160e01b03167f5bebac0595fee029d42bb673937f5f1cb81cf8641382bc17774635de9b7d79651890565b6000805160206134ce83398151915260006112b4600284611f42565b905060008260000182815481106112cd576112cd612950565b60009182526020909120600490910201905060028154600160a01b900460ff1660028111156112fe576112fe612966565b1461130b5761130b6129a5565b8054600160b01b90046001600160401b03161561133b57604051636b73c3bd60e01b815260040160405180910390fd5b61134482611fc6565b8560040160016101000a81548161ffff021916908361ffff160217905550600061136d86612029565b9050600061137b8288612127565b600384015490915063ffffffff168110156113a85760405162d11df360e61b815260040160405180910390fd5b50505050505050565b60006113bc83612175565b600381015490915063ffffffff168210156113ea57604051633e6cc86d60e11b815260040160405180910390fd5b6113f382611993565b83600401600d6101000a81548163ffffffff021916908363ffffffff160217905550505050565b6000611425836121c2565b600381015490915063ffffffff1682101561145357604051633e6cc86d60e11b815260040160405180910390fd5b61145c82611993565b8360040160116101000a81548163ffffffff021916908363ffffffff160217905550505050565b6127108111156114a65760405163cd4e616760e01b815260040160405180910390fd5b6114af81611fc6565b8260040160096101000a81548161ffff021916908361ffff1602179055505050565b6127108111156114f4576040516318dc18b360e01b815260040160405180910390fd5b6114fd81611fc6565b82600401600b6101000a81548161ffff021916908361ffff1602179055505050565b612710811115611542576040516318dc18b360e01b815260040160405180910390fd5b61232881101561156557604051635321e1df60e01b815260040160405180910390fd5b61156e81611fc6565b82600a0160106101000a81548161ffff021916908361ffff1602179055505050565b600081815260208490526040902080546001600160a01b0316156115c757604051635986e84960e01b815260040160405180910390fd5b80546001600160a01b0319166001600160a01b0393909316929092179091555050565b7f4f24f5c433db0962dac0d2c8b84197a6e6c7cc4e5d9ebe1916a1b6193da2f33d547f4f24f5c433db0962dac0d2c8b84197a6e6c7cc4e5d9ebe1916a1b6193da2f33e5460405163338c682760e11b81526000926000805160206134ae833981519152926001600160a01b039182169291169084908390636718d04e90611679908b908b908b90600401612fee565b6020604051808303816000875af1158015611698573d6000803e3d6000fd5b505050506040513d601f19601f820116820180604052508101906116bc9190612bad565b905060006001600160a01b03831663796d583683600588016116e160208c018c6129e4565b6040518563ffffffff1660e01b815260040161170094939291906130b1565b6020604051808303816000875af115801561171f573d6000803e3d6000fd5b505050506040513d601f19601f820116820180604052508101906117439190612bad565b6040516333ce01fd60e01b81526001600160a01b038083166004830152919250908316906333ce01fd90602401600060405180830381600087803b15801561178a57600080fd5b505af115801561179e573d6000803e3d6000fd5b50939b9a5050505050505050505050565b60006117ba836121c2565b600381015490915063ffffffff16808310156117e957604051635321e1df60e01b815260040160405180910390fd5b835460408051633cfc747d60e01b815290516000926001600160a01b031691633cfc747d9160048083019260209291908290030181865afa158015611832573d6000803e3d6000fd5b505050506040513d601f19601f820116820180604052508101906118569190613164565b63ffffffff169050600261186b82600361318a565b61187591906131b7565b841115806118995750600a61188b83600c61318a565b61189591906131b7565b8411155b6118b6576040516313d2afed60e31b815260040160405180910390fd5b6118c182600361318a565b8411156118e1576040516318dc18b360e01b815260040160405180910390fd5b8454604051630f0f739560e31b8152600481018690526001600160a01b039091169063787b9ca890602401600060405180830381600087803b15801561192657600080fd5b505af115801561193a573d6000803e3d6000fd5b505050505050505050565b612710811115611968576040516318dc18b360e01b815260040160405180910390fd5b61197181611fc6565b82600c01601c6101000a81548161ffff021916908361ffff1602179055505050565b600063ffffffff821115610d485760405162461bcd60e51b815260206004820152602660248201527f53616665436173743a2076616c756520646f65736e27742066697420696e203360448201526532206269747360d01b6064820152608401610d3f565b611a8060405180610180016040528060006001600160a01b0316815260200160006001600160a01b031681526020016060815260200160006001600160a01b0316815260200160006001600160a01b03168152602001600081526020016000815260200160008152602001600081526020016000815260200160008152602001600081525090565b6001600160a01b038416808252604080516332f7ce0b60e21b8152905163cbdf382c916004808201926020929091908290030181865afa158015611ac8573d6000803e3d6000fd5b505050506040513d601f19601f82011682018060405250810190611aec9190612bad565b6001600160a01b0316602080830191909152611b0a90830183612891565b81606001906001600160a01b031690816001600160a01b031681525050836001600160a01b0316639edbf0076040518163ffffffff1660e01b8152600401602060405180830381865afa158015611b65573d6000803e3d6000fd5b505050506040513d601f19601f82011682018060405250810190611b899190612bad565b6001600160a01b0390811660808084019190915260408084018690528481013560a080860191909152606086013560c0808701919091529286013560e0808701919091529086013561010080870191909152928601356101208601528501356101408501529084013561016084015251868216918816907f9a77ead9d4158766aab62a081728127048d595245ad311f67301c663d12f523290611c2d9085906131f7565b60405180910390a3505050505050565b6000818310611c4c5781610ffc565b5090919050565b60008190506000836001600160a01b0316635c60da1b6040518163ffffffff1660e01b8152600401602060405180830381865afa158015611c98573d6000803e3d6000fd5b505050506040513d601f19601f82011682018060405250810190611cbc9190612bad565b90506000826001600160a01b0316635c60da1b6040518163ffffffff1660e01b8152600401602060405180830381865afa158015611cfe573d6000803e3d6000fd5b505050506040513d601f19601f82011682018060405250810190611d229190612bad565b9050816001600160a01b0316816001600160a01b031614610f6657604051630422b7e960e11b81526001600160a01b038581166004830152600091908716906308456fd290602401600060405180830381865afa158015611d87573d6000803e3d6000fd5b505050506040513d6000823e601f3d908101601f19168201604052611daf91908101906132d4565b805190915015611e1e5760405163278f794360e11b81526001600160a01b03851690634f1ef28690611de79086908590600401613341565b600060405180830381600087803b158015611e0157600080fd5b505af1158015611e15573d6000803e3d6000fd5b50505050611e7a565b604051631b2ce7f360e11b81526001600160a01b038481166004830152851690633659cfe690602401600060405180830381600087803b158015611e6157600080fd5b505af1158015611e75573d6000803e3d6000fd5b505050505b505050505050565b600080611e8d6121fb565b90506000611e99612263565b9050816003811115611ead57611ead612966565b816003811115611ebf57611ebf612966565b11611eca5781611ecc565b805b9250505090565b60018201546000906001600160a01b0383811691161480610ffc5750611ef8836122cb565b6001600160a01b0316826001600160a01b031614905092915050565b7f4f24f5c433db0962dac0d2c8b84197a6e6c7cc4e5d9ebe1916a1b6193da2f341546001600160a01b031690565b60006000805160206134ce833981519152817fec7e8c1c441439dd40959777f4c577ea0cd42fcc1dbe59d2bd0f5d9c55df8db781611f808787612344565b815260200190815260200160002054905060008111611fb257604051638698bf3760e01b815260040160405180910390fd5b611fbd6001826129bb565b95945050505050565b600061ffff821115610d485760405162461bcd60e51b815260206004820152602660248201527f53616665436173743a2076616c756520646f65736e27742066697420696e203160448201526536206269747360d01b6064820152608401610d3f565b61204e6040805160608101909152806000815260200160008152602001600081525090565b600061205983612175565b6040805160608101909152909150806000815282546020909101906001600160a01b03166370a082317f5bebac0595fee029d42bb673937f5f1cb81cf8641382bc17774635de9b7d7965871860401c6040516001600160e01b031960e084901b1681526001600160a01b039091166004820152602401602060405180830381865afa1580156120ec573d6000803e3d6000fd5b505050506040513d601f19601f820116820180604052508101906121109190612fd5565b815260200161211e8361236e565b90529392505050565b600080612138838560000151612384565b9050600061214a82866040015161240c565b905080600003612163576402540be4009250505061093e565b6020850151611fbd9061271083612422565b6000806000805160206134ce83398151915260048401548154919250829161010090910461ffff169081106121ac576121ac612950565b9060005260206000209060040201915050919050565b6000806000805160206134ce833981519152600484015481549192508291630100000090910461ffff169081106121ac576121ac612950565b7fec7e8c1c441439dd40959777f4c577ea0cd42fcc1dbe59d2bd0f5d9c55df8dc6546000906000805160206134ce8339815191529042600160401b9091046001600160401b0316118061224f576000611ecc565b5060110154600160901b900460ff16919050565b7fec7e8c1c441439dd40959777f4c577ea0cd42fcc1dbe59d2bd0f5d9c55df8dc7546000906000805160206134ce8339815191529042600160a01b9091046001600160401b031611806122b7576000611ecc565b5060110154600160981b900460ff16919050565b60006122d5611f14565b6001830154604051631f86345d60e31b81526001600160a01b03918216600482015291169063fc31a2e890602401602060405180830381865afa158015612320573d6000803e3d6000fd5b505050506040513d601f19601f8201168201806040525081019061093e9190612bad565b6000816001600160a01b031660a084600281111561236457612364612966565b901b179392505050565b600061237b826000612526565b50909392505050565b600080600183600281111561239b5761239b612966565b146123ba576005840154600160801b90046001600160401b03166123d0565b6005840154600160c01b90046001600160401b03165b60058501546001600160401b03918216925082916123fa9180821691600160401b90910416612992565b6124049190612992565b949350505050565b6000610ffc8261241e6009600a61344c565b8591905b6000808211612444576040516323d359a360e01b815260040160405180910390fd5b8360000361245457506000610ffc565b83830283858281612467576124676131a1565b04036124855782818161247c5761247c6131a1565b04915050610ffc565b50600061249283866131b7565b905060006124a08487613458565b905060006124ae85876131b7565b905060006124bc8688613458565b9050856124c9828561318a565b6124d391906131b7565b6124dd838561318a565b6124e7838761318a565b886124f2868961318a565b6124fc919061318a565b6125069190612992565b6125109190612992565b61251a9190612992565b98975050505050505050565b6000806000806000806125c588600101805461254190612bda565b80601f016020809104026020016040519081016040528092919081815260200182805461256d90612bda565b80156125ba5780601f1061258f576101008083540402835291602001916125ba565b820191906000526020600020905b81548152906001019060200180831161259d57829003601f168201915b5050505050886126e5565b8a549295509093509150600160f01b900460ff161561260c5787546000906125fb90600160a81b900460ff1660018387866127d3565b96509194508493506126de92505050565b60008060006126a78b600201805461262390612bda565b80601f016020809104026020016040519081016040528092919081815260200182805461264f90612bda565b801561269c5780601f106126715761010080835404028352916020019161269c565b820191906000526020600020905b81548152906001019060200180831161267f57829003601f168201915b50505050508b6126e5565b8d5492955090935091506000906126cb90600160a81b900460ff1685848a896127d3565b99509497509095506126de945050505050565b9250925092565b7f4f24f5c433db0962dac0d2c8b84197a6e6c7cc4e5d9ebe1916a1b6193da2f34454600090819081906000805160206134ae833981519152906001600160a01b031685156127a75760405163e4a0a55b60e01b81526001600160a01b0382169063e4a0a55b90612759908a9060040161346c565b606060405180830381865afa158015612776573d6000803e3d6000fd5b505050506040513d601f19601f8201168201806040525081019061279a919061347f565b94509450945050506126de565b60405163524f388960e01b81526001600160a01b0382169063524f388990612759908a9060040161346c565b60006000805160206134ae8339815191528160096127f1878a612992565b6127fb9190612992565b600a83015490915060009061281b908690600160a81b900460ff16612992565b90508082101561282d5761282d6129a5565b61284d61283a82846129bb565b61284590600a61344c565b87908a612422565b9998505050505050505050565b6000806040838503121561286d57600080fd5b50508035926020909101359150565b6001600160a01b038116811461099e57600080fd5b6000602082840312156128a357600080fd5b8135610ffc8161287c565b600080604083850312156128c157600080fd5b82356128cc8161287c565b915060208301356128dc8161287c565b809150509250929050565b600080604083850312156128fa57600080fd5b82356001600160401b0381111561291057600080fd5b83016040818603121561292257600080fd5b915060208301356001600160401b0381111561293d57600080fd5b830161012081860312156128dc57600080fd5b634e487b7160e01b600052603260045260246000fd5b634e487b7160e01b600052602160045260246000fd5b634e487b7160e01b600052601160045260246000fd5b8082018082111561093e5761093e61297c565b634e487b7160e01b600052600160045260246000fd5b8181038181111561093e5761093e61297c565b634e487b7160e01b600052603160045260246000fd5b6000808335601e198436030181126129fb57600080fd5b8301803591506001600160401b03821115612a1557600080fd5b602001915036819003821315612a2a57600080fd5b9250929050565b6000823560be19833603018112612a4757600080fd5b9190910192915050565b60008235605e19833603018112612a4757600080fd5b634e487b7160e01b600052604160045260246000fd5b604051606081016001600160401b0381118282101715612a9f57612a9f612a67565b60405290565b604051601f8201601f191681016001600160401b0381118282101715612acd57612acd612a67565b604052919050565b801515811461099e57600080fd5b60006001600160401b03821115612afc57612afc612a67565b50601f01601f191660200190565b600060608236031215612b1c57600080fd5b612b24612a7d565b8235612b2f81612ad5565b815260208301356001600160401b03811115612b4a57600080fd5b830136601f820112612b5b57600080fd5b8035612b6e612b6982612ae3565b612aa5565b818152366020838501011115612b8357600080fd5b81602084016020830137600060209282018301529083015250604092830135928101929092525090565b600060208284031215612bbf57600080fd5b8151610ffc8161287c565b8035612bd58161287c565b919050565b600181811c90821680612bee57607f821691505b6020821081036102b157634e487b7160e01b600052602260045260246000fd5b601f8211156111ab57806000526020600020601f840160051c81016020851015612c355750805b601f840160051c820191505b81811015610f665760008155600101612c41565b81516001600160401b03811115612c6e57612c6e612a67565b612c8281612c7c8454612bda565b84612c0e565b6020601f821160018114612cb65760008315612c9e5750848201515b600019600385901b1c1916600184901b178455610f66565b600084815260208120601f198516915b82811015612ce65787850151825560209485019460019092019101612cc6565b5084821015612d045786840151600019600387901b60f8161c191681555b50505050600190811b01905550565b6001600160401b03818116838216019081111561093e5761093e61297c565b60005b83811015612d4d578181015183820152602001612d35565b50506000910152565b60008251612a47818460208701612d32565b600060208284031215612d7a57600080fd5b8151610ffc81612ad5565b6000823560be19833603018112612d9b57600080fd5b90910192915050565b80356001600160401b0381168114612bd557600080fd5b6000808335601e19843603018112612dd257600080fd5b83016020810192503590506001600160401b03811115612df157600080fd5b803603821315612a2a57600080fd5b81835281816020850137506000828201602090810191909152601f909101601f19169091010190565b6000612e358283612dbb565b60208552611fbd602086018284612e00565b60008235605e19833603018112612d9b57600080fd5b60008135612e6a81612ad5565b15158352612e7b6020830183612dbb565b60606020860152612e90606086018284612e00565b6040948501359590940194909452509092915050565b803582526020808201359083015260006001600160401b03612eca60408401612da4565b1660408401526001600160401b03612ee460608401612da4565b1660608401526080820135601e19833603018112612f0157600080fd5b60c06080850152612f1760c08501848301612e29565b9050612f2660a0840184612e47565b84820360a0860152611fbd8282612e5d565b6020815260008235601e19843603018112612f5257600080fd5b83016020810190356001600160401b03811115612f6e57600080fd5b8060051b803603831315612f8157600080fd5b60406020860152606085018290526001600160fb1b03821115612fa357600080fd5b8083608087013784019150612fbd90506020850185612d85565b6060848303016040850152611fbd6080830182612ea6565b600060208284031215612fe757600080fd5b5051919050565b6001600160a01b0384811682528316602082015260606040820181905261302790820161301a84612bca565b6001600160a01b03169052565b60006130366020840184612dbb565b610120608085015261304d61018085018284612e00565b604086013560a086810191909152606087013560c080880191909152608088013560e0808901919091529188013561010080890191909152908801356101208801529087013561014087015290950135610160909401939093525091949350505050565b6001600160a01b038516815260606020820152835460009081906130d481612bda565b80606086015260018216600081146130f3576001811461310f57613143565b60ff1983166080870152608082151560051b8701019350613143565b88600052602060002060005b8381101561313a5781548882016080015260019091019060200161311b565b87016080019450505b5050508281036040840152613159818587612e00565b979650505050505050565b60006020828403121561317657600080fd5b815163ffffffff81168114610ffc57600080fd5b808202811582820484141761093e5761093e61297c565b634e487b7160e01b600052601260045260246000fd5b6000826131c6576131c66131a1565b500490565b600081518084526131e3816020860160208601612d32565b601f01601f19169290920160200192915050565b602081526132116020820183516001600160a01b03169052565b6000602083015161322d60408401826001600160a01b03169052565b50604083015161018060608401526132496101a08401826131cb565b9050606084015161326560808501826001600160a01b03169052565b5060808401516001600160a01b03811660a08501525060a084015160c084015260c084015160e084015260e08401516101008401526101008401516101208401526101208401516101408401526101408401516101608401526101608401516101808401528091505092915050565b6000602082840312156132e657600080fd5b81516001600160401b038111156132fc57600080fd5b8201601f8101841361330d57600080fd5b805161331b612b6982612ae3565b81815285602083850101111561333057600080fd5b611fbd826020830160208601612d32565b6001600160a01b0383168152604060208201819052600090612404908301846131cb565b6001815b60018411156133a0578085048111156133845761338461297c565b600184161561339257908102905b60019390931c928002613369565b935093915050565b6000826133b75750600161093e565b816133c45750600061093e565b81600181146133da57600281146133e457613400565b600191505061093e565b60ff8411156133f5576133f561297c565b50506001821b61093e565b5060208310610133831016604e8410600b8410161715613423575081810a61093e565b6134306000198484613365565b80600019048211156134445761344461297c565b029392505050565b6000610ffc83836133a8565b600082613467576134676131a1565b500690565b602081526000610ffc60208301846131cb565b60008060006060848603121561349457600080fd5b505081516020830151604090930151909492935091905056fe4f24f5c433db0962dac0d2c8b84197a6e6c7cc4e5d9ebe1916a1b6193da2f33aec7e8c1c441439dd40959777f4c577ea0cd42fcc1dbe59d2bd0f5d9c55df8db6a26469706673582212205899e4fe67c7b1971aba99d2e1bf19377067d1d54c750f3a359fc1f4b99c38b064736f6c634300081b0033",
  "linkReferences": {},
  "deployedLinkReferences": {}
}