{
  "_format": "hh-sol-artifact-1",
  "contractName": "AgentVaultManagementFacet",
  "sourceName": "contracts/assetManager/facets/AgentVaultManagementFacet.sol",
  "abi": [
    {
      "inputs": [],
      "name": "AddressAlreadyClaimed",
      "type": "error"
    },
    {
      "inputs": [],
      "name": "AddressInvalid",
      "type": "error"
    },
    {
      "inputs": [],
      "name": "AddressUsedByCoreVault",
      "type": "error"
    },
    {
      "inputs": [],
      "name": "AddressValidityNotProven",
      "type": "error"
    },
    {
      "inputs": [],
      "name": "AgentNotWhitelisted",
      "type": "error"
    },
    {
      "inputs": [],
      "name": "AgentStillActive",
      "type": "error"
    },
    {
      "inputs": [],
      "name": "AgentStillAvailable",
      "type": "error"
    },
    {
      "inputs": [],
      "name": "CollateralDeprecated",
      "type": "error"
    },
    {
      "inputs": [],
      "name": "CollateralRatioTooSmall",
      "type": "error"
    },
    {
      "inputs": [],
      "name": "DestroyNotAllowedYet",
      "type": "error"
    },
    {
      "inputs": [],
      "name": "DestroyNotAnnounced",
      "type": "error"
    },
    {
      "inputs": [],
      "name": "DivisionByZero",
      "type": "error"
    },
    {
      "inputs": [],
      "name": "EmergencyPauseActive",
      "type": "error"
    },
    {
      "inputs": [],
      "name": "FeeTooHigh",
      "type": "error"
    },
    {
      "inputs": [],
      "name": "IncreaseTooBig",
      "type": "error"
    },
    {
      "inputs": [],
      "name": "InvalidAgentVaultAddress",
      "type": "error"
    },
    {
      "inputs": [],
      "name": "InvalidChain",
      "type": "error"
    },
    {
      "inputs": [],
      "name": "NotAttached",
      "type": "error"
    },
    {
      "inputs": [],
      "name": "NotEnoughCollateral",
      "type": "error"
    },
    {
      "inputs": [],
      "name": "NotWhitelisted",
      "type": "error"
    },
    {
      "inputs": [],
      "name": "OnlyAgentVaultOwner",
      "type": "error"
    },
    {
      "inputs": [],
      "name": "OnlyAssetManagerController",
      "type": "error"
    },
    {
      "inputs": [],
      "name": "SuffixInvalidFormat",
      "type": "error"
    },
    {
      "inputs": [],
      "name": "SuffixReserved",
      "type": "error"
    },
    {
      "inputs": [],
      "name": "UnknownToken",
      "type": "error"
    },
    {
      "inputs": [],
      "name": "ValueTooHigh",
      "type": "error"
    },
    {
      "inputs": [],
      "name": "ValueTooLow",
      "type": "error"
    },
    {
      "anonymous": false,
      "inputs": [
        {
          "indexed": true,
          "internalType": "address",
          "name": "agentVault",
          "type": "address"
        },
        {
          "indexed": false,
          "internalType": "uint256",
          "name": "destroyAllowedAt",
          "type": "uint256"
        }
      ],
      "name": "AgentDestroyAnnounced",
      "type": "event"
    },
    {
      "anonymous": false,
      "inputs": [
        {
          "indexed": true,
          "internalType": "address",
          "name": "agentVault",
          "type": "address"
        }
      ],
      "name": "AgentDestroyed",
      "type": "event"
    },
    {
      "anonymous": false,
      "inputs": [
        {
          "indexed": true,
          "internalType": "address",
          "name": "owner",
          "type": "address"
        },
        {
          "indexed": true,
          "internalType": "address",
          "name": "agentVault",
          "type": "address"
        },
        {
          "components": [
            {
              "internalType": "address",
              "name": "collateralPool",
              "type": "address"
            },
            {
              "internalType": "address",
              "name": "collateralPoolToken",
              "type": "address"
            },
            {
              "internalType": "string",
              "name": "underlyingAddress",
              "type": "string"
            },
            {
              "internalType": "address",
              "name": "vaultCollateralToken",
              "type": "address"
            },
            {
              "internalType": "address",
              "name": "poolWNatToken",
              "type": "address"
            },
            {
              "internalType": "uint256",
              "name": "feeBIPS",
              "type": "uint256"
            },
            {
              "internalType": "uint256",
              "name": "poolFeeShareBIPS",
              "type": "uint256"
            },
            {
              "internalType": "uint256",
              "name": "mintingVaultCollateralRatioBIPS",
              "type": "uint256"
            },
            {
              "internalType": "uint256",
              "name": "mintingPoolCollateralRatioBIPS",
              "type": "uint256"
            },
            {
              "internalType": "uint256",
              "name": "buyFAssetByAgentFactorBIPS",
              "type": "uint256"
            },
            {
              "internalType": "uint256",
              "name": "poolExitCollateralRatioBIPS",
              "type": "uint256"
            },
            {
              "internalType": "uint256",
              "name": "redemptionPoolFeeShareBIPS",
              "type": "uint256"
            }
          ],
          "indexed": false,
          "internalType": "struct IAssetManagerEvents.AgentVaultCreationData",
          "name": "creationData",
          "type": "tuple"
        }
      ],
      "name": "AgentVaultCreated",
      "type": "event"
    },
    {
      "inputs": [
        {
          "internalType": "address",
          "name": "_agentVault",
          "type": "address"
        }
      ],
      "name": "announceDestroyAgent",
      "outputs": [
        {
          "internalType": "uint256",
          "name": "_destroyAllowedAt",
          "type": "uint256"
        }
      ],
      "stateMutability": "nonpayable",
      "type": "function"
    },
    {
      "inputs": [
        {
          "components": [
            {
              "internalType": "bytes32[]",
              "name": "merkleProof",
              "type": "bytes32[]"
            },
            {
              "components": [
                {
                  "internalType": "bytes32",
                  "name": "attestationType",
                  "type": "bytes32"
                },
                {
                  "internalType": "bytes32",
                  "name": "sourceId",
                  "type": "bytes32"
                },
                {
                  "internalType": "uint64",
                  "name": "votingRound",
                  "type": "uint64"
                },
                {
                  "internalType": "uint64",
                  "name": "lowestUsedTimestamp",
                  "type": "uint64"
                },
                {
                  "components": [
                    {
                      "internalType": "string",
                      "name": "addressStr",
                      "type": "string"
                    }
                  ],
                  "internalType": "struct IAddressValidity.RequestBody",
                  "name": "requestBody",
                  "type": "tuple"
                },
                {
                  "components": [
                    {
                      "internalType": "bool",
                      "name": "isValid",
                      "type": "bool"
                    },
                    {
                      "internalType": "string",
                      "name": "standardAddress",
                      "type": "string"
                    },
                    {
                      "internalType": "bytes32",
                      "name": "standardAddressHash",
                      "type": "bytes32"
                    }
                  ],
                  "internalType": "struct IAddressValidity.ResponseBody",
                  "name": "responseBody",
                  "type": "tuple"
                }
              ],
              "internalType": "struct IAddressValidity.Response",
              "name": "data",
              "type": "tuple"
            }
          ],
          "internalType": "struct IAddressValidity.Proof",
          "name": "_addressProof",
          "type": "tuple"
        },
        {
          "components": [
            {
              "internalType": "contract IERC20",
              "name": "vaultCollateralToken",
              "type": "address"
            },
            {
              "internalType": "string",
              "name": "poolTokenSuffix",
              "type": "string"
            },
            {
              "internalType": "uint256",
              "name": "feeBIPS",
              "type": "uint256"
            },
            {
              "internalType": "uint256",
              "name": "poolFeeShareBIPS",
              "type": "uint256"
            },
            {
              "internalType": "uint256",
              "name": "mintingVaultCollateralRatioBIPS",
              "type": "uint256"
            },
            {
              "internalType": "uint256",
              "name": "mintingPoolCollateralRatioBIPS",
              "type": "uint256"
            },
            {
              "internalType": "uint256",
              "name": "buyFAssetByAgentFactorBIPS",
              "type": "uint256"
            },
            {
              "internalType": "uint256",
              "name": "poolExitCollateralRatioBIPS",
              "type": "uint256"
            },
            {
              "internalType": "uint256",
              "name": "redemptionPoolFeeShareBIPS",
              "type": "uint256"
            }
          ],
          "internalType": "struct AgentSettings.Data",
          "name": "_settings",
          "type": "tuple"
        }
      ],
      "name": "createAgentVault",
      "outputs": [
        {
          "internalType": "address",
          "name": "_agentVault",
          "type": "address"
        }
      ],
      "stateMutability": "nonpayable",
      "type": "function"
    },
    {
      "inputs": [
        {
          "internalType": "address",
          "name": "_agentVault",
          "type": "address"
        },
        {
          "internalType": "address payable",
          "name": "_recipient",
          "type": "address"
        }
      ],
      "name": "destroyAgent",
      "outputs": [],
      "stateMutability": "nonpayable",
      "type": "function"
    },
    {
      "inputs": [
        {
          "internalType": "address",
          "name": "_agentVault",
          "type": "address"
        }
      ],
      "name": "upgradeAgentVaultAndPool",
      "outputs": [],
      "stateMutability": "nonpayable",
      "type": "function"
    },
    {
      "inputs": [
        {
          "internalType": "uint256",
          "name": "_start",
          "type": "uint256"
        },
        {
          "internalType": "uint256",
          "name": "_end",
          "type": "uint256"
        }
      ],
      "name": "upgradeAgentVaultsAndPools",
      "outputs": [],
      "stateMutability": "nonpayable",
      "type": "function"
    }
  ],
  "bytecode": "0x6080604052348015600f57600080fd5b506134588061001f6000396000f3fe608060405234801561001057600080fd5b50600436106100575760003560e01c8063312859091461005c5780635e71055c14610071578063778aadd514610097578063b6620e44146100aa578063b9a2ddb1146100d5575b600080fd5b61006f61006a36600461278f565b6100e8565b005b61008461007f3660046127c6565b61013b565b6040519081526020015b60405180910390f35b61006f6100a53660046127e3565b6102b7565b6100bd6100b836600461281c565b61059e565b6040516001600160a01b03909116815260200161008e565b61006f6100e33660046127c6565b610944565b6100f0610965565b60006100fc83836109a1565b50905060005b81518110156101355761012d82828151811061012057610120612885565b6020026020010151610ab2565b600101610102565b50505050565b60006101476001610b88565b8161015181610c32565b6000805160206133e3833981519152600061016b85610c61565b600481015490915065010000000000900463ffffffff16156101a0576040516304d3cdf760e01b815260040160405180910390fd5b6101a981610cd0565b6001600160401b0316156101d0576040516334a0089760e21b815260040160405180910390fd5b60048082015460ff1660058111156101ea576101ea61289b565b14610299576004818101805460ff19169091179055601082015460009061022190600160801b90046001600160401b0316426128c7565b905061022c81610d36565b82600a0160086101000a8154816001600160401b0302191690836001600160401b03160217905550856001600160a01b03167f86bbd7101c8a4494b25e559dee68314c4bc85dd8eae43137811ebcc8bb26a69c8260405161028f91815260200190565b60405180910390a2505b600a0154600160401b90046001600160401b03169250505b50919050565b6102c16002610b88565b816102cb81610c32565b60008051602061340383398151915260006102e585610c61565b905060048082015460ff1660058111156103015761030161289b565b1461031f57604051636accea8d60e01b815260040160405180910390fd5b600a810154600160401b90046001600160401b0316421161035357604051631ce89fab60e11b815260040160405180910390fd5b61035c81610cd0565b6001600160401b031615610372576103726128da565b805460405162f55d9d60e01b81526001600160a01b0386811660048301529091169062f55d9d90602401600060405180830381600087803b1580156103b657600080fd5b505af11580156103ca573d6000803e3d6000fd5b50505050846001600160a01b03166383197ef06040518163ffffffff1660e01b8152600401600060405180830381600087803b15801561040957600080fd5b505af115801561041d573d6000803e3d6000fd5b50505050600a8101546003830154600160d01b90910463ffffffff16906104458260016128c7565b101561051e5760038301805461045d906001906128f0565b8154811061046d5761046d612885565b6000918252602090912001546003840180546001600160a01b03909216918390811061049b5761049b612885565b9060005260206000200160006101000a8154816001600160a01b0302191690836001600160a01b0316021790555060006104fd8460030183815481106104e3576104e3612885565b6000918252602090912001546001600160a01b0316610c61565b600a01805463ffffffff60d01b1916600160d01b63ffffffff851602179055505b8260030180548061053157610531612903565b600082815260208120600019908301810180546001600160a01b031916905590910190915560048301805460ff191660051790556040516001600160a01b038816917fc3eb286975d067e136d2d07c4c04700fbc1f72bf6b0778de0c99e95f4385661791a2505050505050565b60006105a8610da7565b6105b26001610b88565b60008051602061340383398151915261060b6105d16020850185612919565b8080601f016020809104026020016040519081016040528093929190818152602001838380828437600092019190915250610df292505050565b600061061633610fc8565b90506106218161105e565b61062a856110ef565b60006106396020870187612966565b6106479060a0810190612986565b61065090612a3f565b80519091506106725760405163028be62f60e61b815260040160405180910390fd5b61067a611206565b81604001510361069d576040516308bdaaab60e31b815260040160405180910390fd5b3060006000805160206133e3833981519152600201546040516313db266360e31b81526001600160a01b03848116600483015290911691506000908290639ed93318906024016020604051808303816000875af1158015610702573d6000803e3d6000fd5b505050506040513d601f19601f820116820180604052508101906107269190612ae2565b90506000610733826112b5565b90506000600482015460ff1660058111156107505761075061289b565b1461075d5761075d6128da565b600481018054600160ff199091168117909155810180546001600160a01b0319166001600160a01b0388161790556107a261079b60208b018b6127c6565b82906112ee565b600f87015460048201805464ffff000000191661ffff9092166301000000029190911790556107d58160808b0135611407565b6107e38160a08b0135611470565b6107f18160408b01356114d9565b6107ff8160608b0135611527565b61080d8160c08b0135611575565b604085015161082290600589019084906115e6565b602085015160028201906108369082612b8a565b5060408501516003820155600f870154600a82018054620100009092046001600160401b031667ffffffffffffffff1990921691909117905561087a84838b611640565b81546001600160a01b0319166001600160a01b03919091161781556108a38160e08b0135611805565b6108b2816101008b013561199b565b60038701546108c0906119e9565b600a8201805463ffffffff60d01b1916600160d01b63ffffffff939093169290920291909117905560038701805460018101825560009182526020918290200180546001600160a01b0319166001600160a01b038581169190911790915582549187015161093592899286929116908d611a4e565b50955050505050505b92915050565b61094e6001610b88565b8061095881610c32565b61096182610ab2565b5050565b6000805160206133e383398151915280546001600160a01b0316331461099e57604051634ae14edf60e11b815260040160405180910390fd5b50565b7fec7e8c1c441439dd40959777f4c577ea0cd42fcc1dbe59d2bd0f5d9c55df8db9546060906000805160206134038339815191526109df8483611c93565b93506109eb8585611c93565b94506109f785856128f0565b6001600160401b03811115610a0e57610a0e61299c565b604051908082528060200260200182016040528015610a37578160200160208202803683370190505b509250845b84811015610aa957816003018181548110610a5957610a59612885565b6000918252602090912001546001600160a01b031684610a7988846128f0565b81518110610a8957610a89612885565b6001600160a01b0390921660209283029190910190910152600101610a3c565b50509250929050565b6000805160206133e38339815191526000610acc83610c61565b54604080516332f7ce0b60e21b815290516001600160a01b039092169250600091839163cbdf382c9160048083019260209291908290030181865afa158015610b19573d6000803e3d6000fd5b505050506040513d601f19601f82011682018060405250810190610b3d9190612ae2565b6002840154909150610b58906001600160a01b031685611ca9565b6003830154610b70906001600160a01b031683611ca9565b6004830154610135906001600160a01b031682611ca9565b7fec7e8c1c441439dd40959777f4c577ea0cd42fcc1dbe59d2bd0f5d9c55df8dc6546000805160206134038339815191529060009042600160401b9091046001600160401b0316118015610c0c5750826003811115610be957610be961289b565b6011830154600160901b900460ff166003811115610c0957610c0961289b565b10155b90508015610c2d5760405163909b191760e01b815260040160405180910390fd5b505050565b610c44610c3e82610c61565b33611ed8565b61099e5760405163f6e2f99b60e01b815260040160405180910390fd5b600080610c6d836112b5565b600481015490915060ff166000816005811115610c8c57610c8c61289b565b14158015610cac57506005816005811115610ca957610ca961289b565b14155b610cc95760405163d68a46c560e01b815260040160405180910390fd5b5092915050565b60058101546000906001600160401b03600160801b82048116600160c01b909204161115610d0057610d006128da565b60058201546001600160401b03600160801b8204811691610d2c9180821691600160401b900416612c48565b61093e9190612c48565b60006001600160401b03821115610da35760405162461bcd60e51b815260206004820152602660248201527f53616665436173743a2076616c756520646f65736e27742066697420696e203660448201526534206269747360d01b60648201526084015b60405180910390fd5b5090565b7fec7e8c1c441439dd40959777f4c577ea0cd42fcc1dbe59d2bd0f5d9c55df8dc754600160881b900460ff16610df057604051630d6e7efb60e41b815260040160405180910390fd5b565b604051600080516020613403833981519152907fec7e8c1c441439dd40959777f4c577ea0cd42fcc1dbe59d2bd0f5d9c55df8db890610e32908490612c8b565b9081526040519081900360200190205460ff1615610e635760405163a470990760e01b815260040160405180910390fd5b60018160020183604051610e779190612c8b565b908152604051908190036020019020805491151560ff19909216919091179055815182906002811015610ebd57604051632609d98d60e01b815260040160405180910390fd5b6014811115610edf57604051632609d98d60e01b815260040160405180910390fd5b60005b81811015610fc1576000838281518110610efe57610efe612885565b01602001516001600160f81b0319169050604160f81b8110801590610f315750602d60f91b6001600160f81b0319821611155b80610f635750600360fc1b6001600160f81b0319821610801590610f635750603960f81b6001600160f81b0319821611155b80610f9b5750600082118015610f825750610f7f6001846128f0565b82105b8015610f9b5750602d60f81b6001600160f81b03198216145b610fb857604051632609d98d60e01b815260040160405180910390fd5b50600101610ee2565b5050505050565b600080610fd3611f19565b60405163039f412760e11b81526001600160a01b038581166004830152919091169063073e824e90602401602060405180830381865afa15801561101b573d6000803e3d6000fd5b505050506040513d601f19601f8201168201806040525081019061103f9190612ae2565b90506001600160a01b0381166110555782611057565b805b9392505050565b611066611f19565b604051633af32abf60e01b81526001600160a01b0383811660048301529190911690633af32abf90602401602060405180830381865afa1580156110ae573d6000803e3d6000fd5b505050506040513d601f19601f820116820180604052508101906110d29190612c9d565b61099e57604051631408f3ef60e31b815260040160405180910390fd5b7f4f24f5c433db0962dac0d2c8b84197a6e6c7cc4e5d9ebe1916a1b6193da2f342547f4f24f5c433db0962dac0d2c8b84197a6e6c7cc4e5d9ebe1916a1b6193da2f345546000805160206133e3833981519152916001600160a01b03169061115a6020850185612966565b602001351461117c5760405163057f3fa760e51b815260040160405180910390fd5b60405163f34ef58760e01b81526001600160a01b0382169063f34ef587906111a8908690600401612e6d565b602060405180830381865afa1580156111c5573d6000803e3d6000fd5b505050506040513d601f19601f820116820180604052508101906111e99190612c9d565b610c2d5760405163f5c977e760e01b815260040160405180910390fd5b7f908500188c8f91f50d58dffac83eda18fc06d9da0208fc6b66c78a4c3fec74f28054600091906001600160a01b031661124257506000919050565b80546040805163c9febdf560e01b815290516001600160a01b039092169163c9febdf5916004808201926020929091908290030181865afa15801561128b573d6000803e3d6000fd5b505050506040513d601f19601f820116820180604052508101906112af9190612f0a565b91505090565b60401b68010000000000000000600160e01b03167f5bebac0595fee029d42bb673937f5f1cb81cf8641382bc17774635de9b7d79651890565b600080516020613403833981519152600061130a600284611f47565b9050600082600001828154811061132357611323612885565b60009182526020909120600490910201905060028154600160a01b900460ff1660028111156113545761135461289b565b14611361576113616128da565b8054600160b01b90046001600160401b03161561139157604051636b73c3bd60e01b815260040160405180910390fd5b61139a82611fcb565b8560040160016101000a81548161ffff021916908361ffff16021790555060006113c38661202e565b905060006113d1828861212c565b600384015490915063ffffffff168110156113fe5760405162d11df360e61b815260040160405180910390fd5b50505050505050565b60006114128361217a565b600381015490915063ffffffff1682101561144057604051633e6cc86d60e11b815260040160405180910390fd5b611449826119e9565b83600401600d6101000a81548163ffffffff021916908363ffffffff160217905550505050565b600061147b836121c7565b600381015490915063ffffffff168210156114a957604051633e6cc86d60e11b815260040160405180910390fd5b6114b2826119e9565b8360040160116101000a81548163ffffffff021916908363ffffffff160217905550505050565b6127108111156114fc5760405163cd4e616760e01b815260040160405180910390fd5b61150581611fcb565b8260040160096101000a81548161ffff021916908361ffff1602179055505050565b61271081111561154a576040516318dc18b360e01b815260040160405180910390fd5b61155381611fcb565b82600401600b6101000a81548161ffff021916908361ffff1602179055505050565b612710811115611598576040516318dc18b360e01b815260040160405180910390fd5b6123288110156115bb57604051635321e1df60e01b815260040160405180910390fd5b6115c481611fcb565b82600a0160106101000a81548161ffff021916908361ffff1602179055505050565b600081815260208490526040902080546001600160a01b03161561161d57604051635986e84960e01b815260040160405180910390fd5b80546001600160a01b0319166001600160a01b0393909316929092179091555050565b7f4f24f5c433db0962dac0d2c8b84197a6e6c7cc4e5d9ebe1916a1b6193da2f33d547f4f24f5c433db0962dac0d2c8b84197a6e6c7cc4e5d9ebe1916a1b6193da2f33e5460405163338c682760e11b81526000926000805160206133e3833981519152926001600160a01b039182169291169084908390636718d04e906116cf908b908b908b90600401612f23565b6020604051808303816000875af11580156116ee573d6000803e3d6000fd5b505050506040513d601f19601f820116820180604052508101906117129190612ae2565b905060006001600160a01b03831663796d5836836005880161173760208c018c612919565b6040518563ffffffff1660e01b81526004016117569493929190612fe6565b6020604051808303816000875af1158015611775573d6000803e3d6000fd5b505050506040513d601f19601f820116820180604052508101906117999190612ae2565b6040516333ce01fd60e01b81526001600160a01b038083166004830152919250908316906333ce01fd90602401600060405180830381600087803b1580156117e057600080fd5b505af11580156117f4573d6000803e3d6000fd5b50939b9a5050505050505050505050565b6000611810836121c7565b600381015490915063ffffffff168083101561183f57604051635321e1df60e01b815260040160405180910390fd5b835460408051633cfc747d60e01b815290516000926001600160a01b031691633cfc747d9160048083019260209291908290030181865afa158015611888573d6000803e3d6000fd5b505050506040513d601f19601f820116820180604052508101906118ac9190613099565b63ffffffff16905060026118c18260036130bf565b6118cb91906130ec565b841115806118ef5750600a6118e183600c6130bf565b6118eb91906130ec565b8411155b61190c576040516313d2afed60e31b815260040160405180910390fd5b6119178260036130bf565b841115611937576040516318dc18b360e01b815260040160405180910390fd5b8454604051630f0f739560e31b8152600481018690526001600160a01b039091169063787b9ca890602401600060405180830381600087803b15801561197c57600080fd5b505af1158015611990573d6000803e3d6000fd5b505050505050505050565b6127108111156119be576040516318dc18b360e01b815260040160405180910390fd5b6119c781611fcb565b82600c01601c6101000a81548161ffff021916908361ffff1602179055505050565b600063ffffffff821115610da35760405162461bcd60e51b815260206004820152602660248201527f53616665436173743a2076616c756520646f65736e27742066697420696e203360448201526532206269747360d01b6064820152608401610d9a565b611ad660405180610180016040528060006001600160a01b0316815260200160006001600160a01b031681526020016060815260200160006001600160a01b0316815260200160006001600160a01b03168152602001600081526020016000815260200160008152602001600081526020016000815260200160008152602001600081525090565b6001600160a01b038416808252604080516332f7ce0b60e21b8152905163cbdf382c916004808201926020929091908290030181865afa158015611b1e573d6000803e3d6000fd5b505050506040513d601f19601f82011682018060405250810190611b429190612ae2565b6001600160a01b0316602080830191909152611b60908301836127c6565b81606001906001600160a01b031690816001600160a01b031681525050836001600160a01b0316639edbf0076040518163ffffffff1660e01b8152600401602060405180830381865afa158015611bbb573d6000803e3d6000fd5b505050506040513d601f19601f82011682018060405250810190611bdf9190612ae2565b6001600160a01b0390811660808084019190915260408084018690528481013560a080860191909152606086013560c0808701919091529286013560e0808701919091529086013561010080870191909152928601356101208601528501356101408501529084013561016084015251868216918816907f9a77ead9d4158766aab62a081728127048d595245ad311f67301c663d12f523290611c8390859061312c565b60405180910390a3505050505050565b6000818310611ca25781611057565b5090919050565b60008190506000836001600160a01b0316635c60da1b6040518163ffffffff1660e01b8152600401602060405180830381865afa158015611cee573d6000803e3d6000fd5b505050506040513d601f19601f82011682018060405250810190611d129190612ae2565b90506000826001600160a01b0316635c60da1b6040518163ffffffff1660e01b8152600401602060405180830381865afa158015611d54573d6000803e3d6000fd5b505050506040513d601f19601f82011682018060405250810190611d789190612ae2565b9050816001600160a01b0316816001600160a01b031614610fc157604051630422b7e960e11b81526001600160a01b038581166004830152600091908716906308456fd290602401600060405180830381865afa158015611ddd573d6000803e3d6000fd5b505050506040513d6000823e601f3d908101601f19168201604052611e059190810190613209565b805190915015611e745760405163278f794360e11b81526001600160a01b03851690634f1ef28690611e3d9086908590600401613276565b600060405180830381600087803b158015611e5757600080fd5b505af1158015611e6b573d6000803e3d6000fd5b50505050611ed0565b604051631b2ce7f360e11b81526001600160a01b038481166004830152851690633659cfe690602401600060405180830381600087803b158015611eb757600080fd5b505af1158015611ecb573d6000803e3d6000fd5b505050505b505050505050565b60018201546000906001600160a01b03838116911614806110575750611efd83612200565b6001600160a01b0316826001600160a01b031614905092915050565b7f4f24f5c433db0962dac0d2c8b84197a6e6c7cc4e5d9ebe1916a1b6193da2f341546001600160a01b031690565b6000600080516020613403833981519152817fec7e8c1c441439dd40959777f4c577ea0cd42fcc1dbe59d2bd0f5d9c55df8db781611f858787612279565b815260200190815260200160002054905060008111611fb757604051638698bf3760e01b815260040160405180910390fd5b611fc26001826128f0565b95945050505050565b600061ffff821115610da35760405162461bcd60e51b815260206004820152602660248201527f53616665436173743a2076616c756520646f65736e27742066697420696e203160448201526536206269747360d01b6064820152608401610d9a565b6120536040805160608101909152806000815260200160008152602001600081525090565b600061205e8361217a565b6040805160608101909152909150806000815282546020909101906001600160a01b03166370a082317f5bebac0595fee029d42bb673937f5f1cb81cf8641382bc17774635de9b7d7965871860401c6040516001600160e01b031960e084901b1681526001600160a01b039091166004820152602401602060405180830381865afa1580156120f1573d6000803e3d6000fd5b505050506040513d601f19601f820116820180604052508101906121159190612f0a565b8152602001612123836122a3565b90529392505050565b60008061213d8385600001516122b9565b9050600061214f828660400151612341565b905080600003612168576402540be4009250505061093e565b6020850151611fc29061271083612357565b60008060008051602061340383398151915260048401548154919250829161010090910461ffff169081106121b1576121b1612885565b9060005260206000209060040201915050919050565b600080600080516020613403833981519152600484015481549192508291630100000090910461ffff169081106121b1576121b1612885565b600061220a611f19565b6001830154604051631f86345d60e31b81526001600160a01b03918216600482015291169063fc31a2e890602401602060405180830381865afa158015612255573d6000803e3d6000fd5b505050506040513d601f19601f8201168201806040525081019061093e9190612ae2565b6000816001600160a01b031660a08460028111156122995761229961289b565b901b179392505050565b60006122b082600061245b565b50909392505050565b60008060018360028111156122d0576122d061289b565b146122ef576005840154600160801b90046001600160401b0316612305565b6005840154600160c01b90046001600160401b03165b60058501546001600160401b039182169250829161232f9180821691600160401b909104166128c7565b61233991906128c7565b949350505050565b6000611057826123536009600a613381565b8591905b6000808211612379576040516323d359a360e01b815260040160405180910390fd5b8360000361238957506000611057565b8383028385828161239c5761239c6130d6565b04036123ba578281816123b1576123b16130d6565b04915050611057565b5060006123c783866130ec565b905060006123d5848761338d565b905060006123e385876130ec565b905060006123f1868861338d565b9050856123fe82856130bf565b61240891906130ec565b61241283856130bf565b61241c83876130bf565b8861242786896130bf565b61243191906130bf565b61243b91906128c7565b61244591906128c7565b61244f91906128c7565b98975050505050505050565b6000806000806000806124fa88600101805461247690612b0f565b80601f01602080910402602001604051908101604052809291908181526020018280546124a290612b0f565b80156124ef5780601f106124c4576101008083540402835291602001916124ef565b820191906000526020600020905b8154815290600101906020018083116124d257829003601f168201915b50505050508861261a565b8a549295509093509150600160f01b900460ff161561254157875460009061253090600160a81b900460ff166001838786612708565b965091945084935061261392505050565b60008060006125dc8b600201805461255890612b0f565b80601f016020809104026020016040519081016040528092919081815260200182805461258490612b0f565b80156125d15780601f106125a6576101008083540402835291602001916125d1565b820191906000526020600020905b8154815290600101906020018083116125b457829003601f168201915b50505050508b61261a565b8d54929550909350915060009061260090600160a81b900460ff1685848a89612708565b9950949750909550612613945050505050565b9250925092565b7f4f24f5c433db0962dac0d2c8b84197a6e6c7cc4e5d9ebe1916a1b6193da2f34454600090819081906000805160206133e3833981519152906001600160a01b031685156126dc5760405163e4a0a55b60e01b81526001600160a01b0382169063e4a0a55b9061268e908a906004016133a1565b606060405180830381865afa1580156126ab573d6000803e3d6000fd5b505050506040513d601f19601f820116820180604052508101906126cf91906133b4565b9450945094505050612613565b60405163524f388960e01b81526001600160a01b0382169063524f38899061268e908a906004016133a1565b60006000805160206133e3833981519152816009612726878a6128c7565b61273091906128c7565b600a830154909150600090612750908690600160a81b900460ff166128c7565b905080821015612762576127626128da565b61278261276f82846128f0565b61277a90600a613381565b87908a612357565b9998505050505050505050565b600080604083850312156127a257600080fd5b50508035926020909101359150565b6001600160a01b038116811461099e57600080fd5b6000602082840312156127d857600080fd5b8135611057816127b1565b600080604083850312156127f657600080fd5b8235612801816127b1565b91506020830135612811816127b1565b809150509250929050565b6000806040838503121561282f57600080fd5b82356001600160401b0381111561284557600080fd5b83016040818603121561285757600080fd5b915060208301356001600160401b0381111561287257600080fd5b8301610120818603121561281157600080fd5b634e487b7160e01b600052603260045260246000fd5b634e487b7160e01b600052602160045260246000fd5b634e487b7160e01b600052601160045260246000fd5b8082018082111561093e5761093e6128b1565b634e487b7160e01b600052600160045260246000fd5b8181038181111561093e5761093e6128b1565b634e487b7160e01b600052603160045260246000fd5b6000808335601e1984360301811261293057600080fd5b8301803591506001600160401b0382111561294a57600080fd5b60200191503681900382131561295f57600080fd5b9250929050565b6000823560be1983360301811261297c57600080fd5b9190910192915050565b60008235605e1983360301811261297c57600080fd5b634e487b7160e01b600052604160045260246000fd5b604051606081016001600160401b03811182821017156129d4576129d461299c565b60405290565b604051601f8201601f191681016001600160401b0381118282101715612a0257612a0261299c565b604052919050565b801515811461099e57600080fd5b60006001600160401b03821115612a3157612a3161299c565b50601f01601f191660200190565b600060608236031215612a5157600080fd5b612a596129b2565b8235612a6481612a0a565b815260208301356001600160401b03811115612a7f57600080fd5b830136601f820112612a9057600080fd5b8035612aa3612a9e82612a18565b6129da565b818152366020838501011115612ab857600080fd5b81602084016020830137600060209282018301529083015250604092830135928101929092525090565b600060208284031215612af457600080fd5b8151611057816127b1565b8035612b0a816127b1565b919050565b600181811c90821680612b2357607f821691505b6020821081036102b157634e487b7160e01b600052602260045260246000fd5b601f821115610c2d57806000526020600020601f840160051c81016020851015612b6a5750805b601f840160051c820191505b81811015610fc15760008155600101612b76565b81516001600160401b03811115612ba357612ba361299c565b612bb781612bb18454612b0f565b84612b43565b6020601f821160018114612beb5760008315612bd35750848201515b600019600385901b1c1916600184901b178455610fc1565b600084815260208120601f198516915b82811015612c1b5787850151825560209485019460019092019101612bfb565b5084821015612c395786840151600019600387901b60f8161c191681555b50505050600190811b01905550565b6001600160401b03818116838216019081111561093e5761093e6128b1565b60005b83811015612c82578181015183820152602001612c6a565b50506000910152565b6000825161297c818460208701612c67565b600060208284031215612caf57600080fd5b815161105781612a0a565b6000823560be19833603018112612cd057600080fd5b90910192915050565b80356001600160401b0381168114612b0a57600080fd5b6000808335601e19843603018112612d0757600080fd5b83016020810192503590506001600160401b03811115612d2657600080fd5b80360382131561295f57600080fd5b81835281816020850137506000828201602090810191909152601f909101601f19169091010190565b6000612d6a8283612cf0565b60208552611fc2602086018284612d35565b60008235605e19833603018112612cd057600080fd5b60008135612d9f81612a0a565b15158352612db06020830183612cf0565b60606020860152612dc5606086018284612d35565b6040948501359590940194909452509092915050565b803582526020808201359083015260006001600160401b03612dff60408401612cd9565b1660408401526001600160401b03612e1960608401612cd9565b1660608401526080820135601e19833603018112612e3657600080fd5b60c06080850152612e4c60c08501848301612d5e565b9050612e5b60a0840184612d7c565b84820360a0860152611fc28282612d92565b6020815260008235601e19843603018112612e8757600080fd5b83016020810190356001600160401b03811115612ea357600080fd5b8060051b803603831315612eb657600080fd5b60406020860152606085018290526001600160fb1b03821115612ed857600080fd5b8083608087013784019150612ef290506020850185612cba565b6060848303016040850152611fc26080830182612ddb565b600060208284031215612f1c57600080fd5b5051919050565b6001600160a01b03848116825283166020820152606060408201819052612f5c908201612f4f84612aff565b6001600160a01b03169052565b6000612f6b6020840184612cf0565b6101206080850152612f8261018085018284612d35565b604086013560a086810191909152606087013560c080880191909152608088013560e0808901919091529188013561010080890191909152908801356101208801529087013561014087015290950135610160909401939093525091949350505050565b6001600160a01b0385168152606060208201528354600090819061300981612b0f565b8060608601526001821660008114613028576001811461304457613078565b60ff1983166080870152608082151560051b8701019350613078565b88600052602060002060005b8381101561306f57815488820160800152600190910190602001613050565b87016080019450505b505050828103604084015261308e818587612d35565b979650505050505050565b6000602082840312156130ab57600080fd5b815163ffffffff8116811461105757600080fd5b808202811582820484141761093e5761093e6128b1565b634e487b7160e01b600052601260045260246000fd5b6000826130fb576130fb6130d6565b500490565b60008151808452613118816020860160208601612c67565b601f01601f19169290920160200192915050565b602081526131466020820183516001600160a01b03169052565b6000602083015161316260408401826001600160a01b03169052565b506040830151610180606084015261317e6101a0840182613100565b9050606084015161319a60808501826001600160a01b03169052565b5060808401516001600160a01b03811660a08501525060a084015160c084015260c084015160e084015260e08401516101008401526101008401516101208401526101208401516101408401526101408401516101608401526101608401516101808401528091505092915050565b60006020828403121561321b57600080fd5b81516001600160401b0381111561323157600080fd5b8201601f8101841361324257600080fd5b8051613250612a9e82612a18565b81815285602083850101111561326557600080fd5b611fc2826020830160208601612c67565b6001600160a01b038316815260406020820181905260009061233990830184613100565b6001815b60018411156132d5578085048111156132b9576132b96128b1565b60018416156132c757908102905b60019390931c92800261329e565b935093915050565b6000826132ec5750600161093e565b816132f95750600061093e565b816001811461330f576002811461331957613335565b600191505061093e565b60ff84111561332a5761332a6128b1565b50506001821b61093e565b5060208310610133831016604e8410600b8410161715613358575081810a61093e565b613365600019848461329a565b8060001904821115613379576133796128b1565b029392505050565b600061105783836132dd565b60008261339c5761339c6130d6565b500690565b6020815260006110576020830184613100565b6000806000606084860312156133c957600080fd5b505081516020830151604090930151909492935091905056fe4f24f5c433db0962dac0d2c8b84197a6e6c7cc4e5d9ebe1916a1b6193da2f33aec7e8c1c441439dd40959777f4c577ea0cd42fcc1dbe59d2bd0f5d9c55df8db6a2646970667358221220219c75e78b7dff606ec167cece342f902dd2a7ea637104e0e760212e7302263464736f6c634300081b0033",
  "linkReferences": {},
  "deployedLinkReferences": {}
}