{
  "_format": "hh-sol-artifact-1",
  "contractName": "AgentVaultManagementFacet",
  "sourceName": "contracts/assetManager/facets/AgentVaultManagementFacet.sol",
  "abi": [
    {
      "anonymous": false,
      "inputs": [
        {
          "indexed": true,
          "internalType": "address",
          "name": "agentVault",
          "type": "address"
        },
        {
          "indexed": false,
          "internalType": "uint256",
          "name": "destroyAllowedAt",
          "type": "uint256"
        }
      ],
      "name": "AgentDestroyAnnounced",
      "type": "event"
    },
    {
      "anonymous": false,
      "inputs": [
        {
          "indexed": true,
          "internalType": "address",
          "name": "agentVault",
          "type": "address"
        }
      ],
      "name": "AgentDestroyed",
      "type": "event"
    },
    {
      "anonymous": false,
      "inputs": [
        {
          "indexed": true,
          "internalType": "address",
          "name": "owner",
          "type": "address"
        },
        {
          "indexed": true,
          "internalType": "address",
          "name": "agentVault",
          "type": "address"
        },
        {
          "components": [
            {
              "internalType": "address",
              "name": "collateralPool",
              "type": "address"
            },
            {
              "internalType": "address",
              "name": "collateralPoolToken",
              "type": "address"
            },
            {
              "internalType": "string",
              "name": "underlyingAddress",
              "type": "string"
            },
            {
              "internalType": "address",
              "name": "vaultCollateralToken",
              "type": "address"
            },
            {
              "internalType": "address",
              "name": "poolWNatToken",
              "type": "address"
            },
            {
              "internalType": "uint256",
              "name": "feeBIPS",
              "type": "uint256"
            },
            {
              "internalType": "uint256",
              "name": "poolFeeShareBIPS",
              "type": "uint256"
            },
            {
              "internalType": "uint256",
              "name": "mintingVaultCollateralRatioBIPS",
              "type": "uint256"
            },
            {
              "internalType": "uint256",
              "name": "mintingPoolCollateralRatioBIPS",
              "type": "uint256"
            },
            {
              "internalType": "uint256",
              "name": "buyFAssetByAgentFactorBIPS",
              "type": "uint256"
            },
            {
              "internalType": "uint256",
              "name": "poolExitCollateralRatioBIPS",
              "type": "uint256"
            },
            {
              "internalType": "uint256",
              "name": "poolTopupCollateralRatioBIPS",
              "type": "uint256"
            },
            {
              "internalType": "uint256",
              "name": "poolTopupTokenPriceFactorBIPS",
              "type": "uint256"
            },
            {
              "internalType": "uint256",
              "name": "handshakeType",
              "type": "uint256"
            }
          ],
          "indexed": false,
          "internalType": "struct IAssetManagerEvents.AgentVaultCreationData",
          "name": "creationData",
          "type": "tuple"
        }
      ],
      "name": "AgentVaultCreated",
      "type": "event"
    },
    {
      "anonymous": false,
      "inputs": [
        {
          "indexed": false,
          "internalType": "uint256",
          "name": "underlyingBlockNumber",
          "type": "uint256"
        },
        {
          "indexed": false,
          "internalType": "uint256",
          "name": "underlyingBlockTimestamp",
          "type": "uint256"
        },
        {
          "indexed": false,
          "internalType": "uint256",
          "name": "updatedAt",
          "type": "uint256"
        }
      ],
      "name": "CurrentUnderlyingBlockUpdated",
      "type": "event"
    },
    {
      "inputs": [
        {
          "internalType": "address",
          "name": "_agentVault",
          "type": "address"
        }
      ],
      "name": "announceDestroyAgent",
      "outputs": [
        {
          "internalType": "uint256",
          "name": "_destroyAllowedAt",
          "type": "uint256"
        }
      ],
      "stateMutability": "nonpayable",
      "type": "function"
    },
    {
      "inputs": [
        {
          "components": [
            {
              "internalType": "bytes32[]",
              "name": "merkleProof",
              "type": "bytes32[]"
            },
            {
              "components": [
                {
                  "internalType": "bytes32",
                  "name": "attestationType",
                  "type": "bytes32"
                },
                {
                  "internalType": "bytes32",
                  "name": "sourceId",
                  "type": "bytes32"
                },
                {
                  "internalType": "uint64",
                  "name": "votingRound",
                  "type": "uint64"
                },
                {
                  "internalType": "uint64",
                  "name": "lowestUsedTimestamp",
                  "type": "uint64"
                },
                {
                  "components": [
                    {
                      "internalType": "string",
                      "name": "addressStr",
                      "type": "string"
                    }
                  ],
                  "internalType": "struct IAddressValidity.RequestBody",
                  "name": "requestBody",
                  "type": "tuple"
                },
                {
                  "components": [
                    {
                      "internalType": "bool",
                      "name": "isValid",
                      "type": "bool"
                    },
                    {
                      "internalType": "string",
                      "name": "standardAddress",
                      "type": "string"
                    },
                    {
                      "internalType": "bytes32",
                      "name": "standardAddressHash",
                      "type": "bytes32"
                    }
                  ],
                  "internalType": "struct IAddressValidity.ResponseBody",
                  "name": "responseBody",
                  "type": "tuple"
                }
              ],
              "internalType": "struct IAddressValidity.Response",
              "name": "data",
              "type": "tuple"
            }
          ],
          "internalType": "struct IAddressValidity.Proof",
          "name": "_addressProof",
          "type": "tuple"
        },
        {
          "components": [
            {
              "internalType": "contract IERC20",
              "name": "vaultCollateralToken",
              "type": "address"
            },
            {
              "internalType": "string",
              "name": "poolTokenSuffix",
              "type": "string"
            },
            {
              "internalType": "uint256",
              "name": "feeBIPS",
              "type": "uint256"
            },
            {
              "internalType": "uint256",
              "name": "poolFeeShareBIPS",
              "type": "uint256"
            },
            {
              "internalType": "uint256",
              "name": "mintingVaultCollateralRatioBIPS",
              "type": "uint256"
            },
            {
              "internalType": "uint256",
              "name": "mintingPoolCollateralRatioBIPS",
              "type": "uint256"
            },
            {
              "internalType": "uint256",
              "name": "buyFAssetByAgentFactorBIPS",
              "type": "uint256"
            },
            {
              "internalType": "uint256",
              "name": "poolExitCollateralRatioBIPS",
              "type": "uint256"
            },
            {
              "internalType": "uint256",
              "name": "poolTopupCollateralRatioBIPS",
              "type": "uint256"
            },
            {
              "internalType": "uint256",
              "name": "poolTopupTokenPriceFactorBIPS",
              "type": "uint256"
            },
            {
              "internalType": "uint256",
              "name": "handshakeType",
              "type": "uint256"
            }
          ],
          "internalType": "struct AgentSettings.Data",
          "name": "_settings",
          "type": "tuple"
        }
      ],
      "name": "createAgentVault",
      "outputs": [
        {
          "internalType": "address",
          "name": "_agentVault",
          "type": "address"
        }
      ],
      "stateMutability": "nonpayable",
      "type": "function"
    },
    {
      "inputs": [
        {
          "internalType": "address",
          "name": "_agentVault",
          "type": "address"
        },
        {
          "internalType": "address payable",
          "name": "_recipient",
          "type": "address"
        }
      ],
      "name": "destroyAgent",
      "outputs": [],
      "stateMutability": "nonpayable",
      "type": "function"
    },
    {
      "inputs": [
        {
          "components": [
            {
              "internalType": "bytes32[]",
              "name": "merkleProof",
              "type": "bytes32[]"
            },
            {
              "components": [
                {
                  "internalType": "bytes32",
                  "name": "attestationType",
                  "type": "bytes32"
                },
                {
                  "internalType": "bytes32",
                  "name": "sourceId",
                  "type": "bytes32"
                },
                {
                  "internalType": "uint64",
                  "name": "votingRound",
                  "type": "uint64"
                },
                {
                  "internalType": "uint64",
                  "name": "lowestUsedTimestamp",
                  "type": "uint64"
                },
                {
                  "components": [
                    {
                      "internalType": "bytes32",
                      "name": "transactionId",
                      "type": "bytes32"
                    },
                    {
                      "internalType": "uint256",
                      "name": "inUtxo",
                      "type": "uint256"
                    },
                    {
                      "internalType": "uint256",
                      "name": "utxo",
                      "type": "uint256"
                    }
                  ],
                  "internalType": "struct IPayment.RequestBody",
                  "name": "requestBody",
                  "type": "tuple"
                },
                {
                  "components": [
                    {
                      "internalType": "uint64",
                      "name": "blockNumber",
                      "type": "uint64"
                    },
                    {
                      "internalType": "uint64",
                      "name": "blockTimestamp",
                      "type": "uint64"
                    },
                    {
                      "internalType": "bytes32",
                      "name": "sourceAddressHash",
                      "type": "bytes32"
                    },
                    {
                      "internalType": "bytes32",
                      "name": "sourceAddressesRoot",
                      "type": "bytes32"
                    },
                    {
                      "internalType": "bytes32",
                      "name": "receivingAddressHash",
                      "type": "bytes32"
                    },
                    {
                      "internalType": "bytes32",
                      "name": "intendedReceivingAddressHash",
                      "type": "bytes32"
                    },
                    {
                      "internalType": "int256",
                      "name": "spentAmount",
                      "type": "int256"
                    },
                    {
                      "internalType": "int256",
                      "name": "intendedSpentAmount",
                      "type": "int256"
                    },
                    {
                      "internalType": "int256",
                      "name": "receivedAmount",
                      "type": "int256"
                    },
                    {
                      "internalType": "int256",
                      "name": "intendedReceivedAmount",
                      "type": "int256"
                    },
                    {
                      "internalType": "bytes32",
                      "name": "standardPaymentReference",
                      "type": "bytes32"
                    },
                    {
                      "internalType": "bool",
                      "name": "oneToOne",
                      "type": "bool"
                    },
                    {
                      "internalType": "uint8",
                      "name": "status",
                      "type": "uint8"
                    }
                  ],
                  "internalType": "struct IPayment.ResponseBody",
                  "name": "responseBody",
                  "type": "tuple"
                }
              ],
              "internalType": "struct IPayment.Response",
              "name": "data",
              "type": "tuple"
            }
          ],
          "internalType": "struct IPayment.Proof",
          "name": "_payment",
          "type": "tuple"
        }
      ],
      "name": "proveUnderlyingAddressEOA",
      "outputs": [],
      "stateMutability": "nonpayable",
      "type": "function"
    },
    {
      "inputs": [
        {
          "internalType": "address",
          "name": "_agentVault",
          "type": "address"
        }
      ],
      "name": "upgradeAgentVaultAndPool",
      "outputs": [],
      "stateMutability": "nonpayable",
      "type": "function"
    }
  ],
  "bytecode": "0x608060405234801561001057600080fd5b50614260806100206000396000f3fe608060405234801561001057600080fd5b50600436106100575760003560e01c80635e71055c1461005c578063778aadd514610082578063ae87b37f14610097578063b356adc7146100aa578063b9a2ddb1146100d5575b600080fd5b61006f61006a3660046132f8565b6100e8565b6040519081526020015b60405180910390f35b610095610090366004613315565b6100f9565b005b6100956100a536600461334e565b610107565b6100bd6100b8366004613389565b610113565b6040516001600160a01b039091168152602001610079565b6100956100e33660046132f8565b61012f565b60006100f382610138565b92915050565b61010382826102f9565b5050565b61011081610802565b50565b600061011d610880565b6101283084846108e9565b9392505050565b61011081610d18565b60008161014481610dff565b6000805160206141eb833981519152600061015e85610e56565b600481015490915065010000000000900463ffffffff16156101bf5760405162461bcd60e51b81526020600482015260156024820152746167656e74207374696c6c20617661696c61626c6560581b60448201526064015b60405180910390fd5b6101c881610ef2565b6001600160401b0316156102135760405162461bcd60e51b81526020600482015260126024820152716167656e74207374696c6c2061637469766560701b60448201526064016101b6565b60048181015460ff168181111561022c5761022c6133f1565b146102db576004818101805460ff19169091179055601082015460009061026390600160801b90046001600160401b03164261341d565b905061026e81610f58565b82600a0160086101000a8154816001600160401b0302191690836001600160401b03160217905550856001600160a01b03167f86bbd7101c8a4494b25e559dee68314c4bc85dd8eae43137811ebcc8bb26a69c826040516102d191815260200190565b60405180910390a2505b600a0154600160401b90046001600160401b03169250505b50919050565b8161030381610dff565b60008051602061420b833981519152600061031d85610e56565b90506004808083015460ff1690811115610339576103396133f1565b1461037e5760405162461bcd60e51b815260206004820152601560248201527419195cdd1c9bde481b9bdd08185b9b9bdd5b98d959605a1b60448201526064016101b6565b600a810154600160401b90046001600160401b031642116103e15760405162461bcd60e51b815260206004820152601860248201527f64657374726f793a206e6f7420616c6c6f77656420796574000000000000000060448201526064016101b6565b6103ea81610ef2565b6001600160401b03161561040057610400613430565b805460405162f55d9d60e01b81526001600160a01b0386811660048301529091169062f55d9d90602401600060405180830381600087803b15801561044457600080fd5b505af1158015610458573d6000803e3d6000fd5b505060405162f55d9d60e01b81526001600160a01b0387811660048301528816925062f55d9d9150602401600060405180830381600087803b15801561049d57600080fd5b505af11580156104b1573d6000803e3d6000fd5b50505050600a8101546003830154600160d01b90910463ffffffff16906104d982600161341d565b10156105b2576003830180546104f190600190613446565b8154811061050157610501613459565b6000918252602090912001546003840180546001600160a01b03909216918390811061052f5761052f613459565b9060005260206000200160006101000a8154816001600160a01b0302191690836001600160a01b03160217905550600061059184600301838154811061057757610577613459565b6000918252602090912001546001600160a01b0316610e56565b600a01805463ffffffff60d01b1916600160d01b63ffffffff851602179055505b826003018054806105c5576105c561346f565b600082815260209020810160001990810180546001600160a01b03191690550190556107bd827f87971da2ffd60f015ef85ead0fa62169ee9c342d8f1db03babee919d33ccf8196000908152600b909101602052604080822080546001600160c01b03199081169091557fe0243e58c76a12071b4a375d5f283eaf01d6025bbabcdabd4ca2d0d3f67c5e3283528183208054821690557f1eb84f0e555ab7d88fd7243f3853898f7c3c98ed4c0285667956c327a2f2d17083528183208054821690557f381f724f6ecd2a24d4a619016614db98defae86152186d60beff19b685ea2b5a83528183208054821690557f061115fe294a09236be45875a15a7800403f95fde525547c9662b92a6359932e83528183208054821690557f9aea190d2b3dd7d1d8e8d055952c2e9923c067928667db7f47b1f818b830cba483528183208054821690557f50c491cb85c5de272af4bdee937deba8bfb8efc757876ce0671faf286198be9583528183208054821690557feb57753c1b4e94880186635dfc9185be51406a9179ca76e095563b00d9ef41d683528183208054821690557f98d367e8e159b82e76c08eb9e8367ae98bb11d65de64fdcde63c3a6a50e1756583528183208054821690557f88c9c5a9542135d89e93b19972c3c03dc735891e5c01c49b7bf7f869ba18b1bd8352912080549091169055565b6107c682610fc4565b6040516001600160a01b038716907fc3eb286975d067e136d2d07c4c04700fbc1f72bf6b0778de0c99e95f4385661790600090a2505050505050565b60008051602061420b83398151915261081a82610fe8565b600061082533611046565b9050610830816110d3565b6108426005830184600b85018461118b565b61087b610857610120850161010086016134a1565b6108629060016134bc565b610874610140860161012087016134a1565b60006112e0565b505050565b7fec7e8c1c441439dd40959777f4c577ea0cd42fcc1dbe59d2bd0f5d9c55df8dc754600160881b900460ff166108e75760405162461bcd60e51b815260206004820152600c60248201526b1b9bdd08185d1d1858da195960a21b60448201526064016101b6565b565b600060008051602061420b83398151915261094461090a60208501856134e3565b8080601f01602080910402602001604051908101604052809392919081815260200183838082843760009201919091525061146e92505050565b600061094f33611046565b905061095a816110d3565b610963856116de565b60006109726020870187613530565b6109809060a0810190613550565b61098990613614565b80519091506109cc5760405162461bcd60e51b815260206004820152600f60248201526e1859191c995cdcc81a5b9d985b1a59608a1b60448201526064016101b6565b60006000805160206141eb833981519152600201546040516313db266360e31b81526001600160a01b038a8116600483015290911691506000908290639ed93318906024016020604051808303816000875af1158015610a30573d6000803e3d6000fd5b505050506040513d601f19601f82011682018060405250810190610a5491906136b9565b90506000604082901b600160401b600160e01b03167f5bebac0595fee029d42bb673937f5f1cb81cf8641382bc17774635de9b7d7965189050600060048083015460ff1690811115610aa857610aa86133f1565b14610ab557610ab5613430565b600481018054600160ff199091168117909155810180546001600160a01b0319166001600160a01b038716179055610afa610af360208a018a6132f8565b8290611843565b600f86015460048201805464ffff000000191661ffff909216630100000002919091179055610b2d8160808a01356119a2565b610b3b8160a08a0135611a3a565b610b498160408a0135611ad2565b610b578160608a0135611b3e565b610b658160c08a0135611bac565b610b9f85838660400151610b846000805160206141eb83398151915290565b600d015460058b0193929190600160501b900460ff16611c3c565b60208401516002820190610bb3908261375d565b50604084810151600383018190556000908152600588016020522054600f8701546001600160401b03600160a01b909204821691610c029162010000900416610bfd8360016134bc565b611d42565b600a8301805467ffffffffffffffff19166001600160401b0392909216919091179055610c308b848b611d6b565b82546001600160a01b0319166001600160a01b0391909116178255610c598260e08b0135611f30565b610c68826101008b01356120bc565b610c77826101208b013561214d565b610c86826101408b01356121e6565b6003870154610c9490612210565b600a8301805463ffffffff60d01b1916600160d01b63ffffffff939093169290920291909117905560038701805460018101825560009182526020918290200180546001600160a01b0319166001600160a01b0386811691909117909155835491870151610d0992899287929116908d612275565b50909998505050505050505050565b80610d2281610dff565b6000805160206141eb8339815191526000610d3c84610e56565b54604080516332f7ce0b60e21b815290516001600160a01b039092169250600091839163cbdf382c9160048083019260209291908290030181865afa158015610d89573d6000803e3d6000fd5b505050506040513d601f19601f82011682018060405250810190610dad91906136b9565b6002840154909150610dc8906001600160a01b0316866124e4565b6003830154610de0906001600160a01b0316836124e4565b6004830154610df8906001600160a01b0316826124e4565b5050505050565b610e11610e0b82610e56565b33612712565b6101105760405162461bcd60e51b815260206004820152601660248201527537b7363c9030b3b2b73a103b30bab63a1037bbb732b960511b60448201526064016101b6565b7f5bebac0595fee029d42bb673937f5f1cb81cf8641382bc17774635de9b7d7965600160401b600160e01b03604083901b161880600060048084015460ff1690811115610ea557610ea56133f1565b036102f35760405162461bcd60e51b815260206004820152601b60248201527f696e76616c6964206167656e74207661756c742061646472657373000000000060448201526064016101b6565b60058101546000906001600160401b03600160801b82048116600160c01b909204161115610f2257610f22613430565b60058201546001600160401b03600160801b8204811691610f4e9180821691600160401b9004166134bc565b6100f391906134bc565b60006001600160401b03821115610fc05760405162461bcd60e51b815260206004820152602660248201527f53616665436173743a2076616c756520646f65736e27742066697420696e203660448201526534206269747360d01b60648201526084016101b6565b5090565b600f810181815b80821015610fe25760008255600182019150610fcb565b50505050565b6000610ffc6102a08301610280840161382d565b60ff161461103d5760405162461bcd60e51b815260206004820152600e60248201526d1c185e5b595b9d0819985a5b195960921b60448201526064016101b6565b610110816127c1565b600080611051612989565b60405163039f412760e11b81526001600160a01b038581166004830152919091169063073e824e90602401602060405180830381865afa158015611099573d6000803e3d6000fd5b505050506040513d601f19601f820116820180604052508101906110bd91906136b9565b90506001600160a01b0381166100f35782610128565b6110db612989565b604051633af32abf60e01b81526001600160a01b0383811660048301529190911690633af32abf90602401602060405180830381865afa158015611123573d6000803e3d6000fd5b505050506040513d601f19601f820116820180604052508101906111479190613848565b6101105760405162461bcd60e51b81526020600482015260156024820152741859d95b9d081b9bdd081dda1a5d195b1a5cdd1959605a1b60448201526064016101b6565b6101408301356000036111a0576111a0613430565b610140830135600090815260208590526040902080546001600160a01b0316156112065760405162461bcd60e51b81526020600482015260176024820152761859191c995cdcc8185b1c9958591e4818db185a5b5959604a1b60448201526064016101b6565b67464250526641001360c01b6001600160a01b03831617610240850135146112705760405162461bcd60e51b815260206004820152601f60248201527f696e76616c69642061646472657373206f776e6572736869702070726f6f660060448201526064016101b6565b61127a83856129b7565b8054600168ff000000000000000160a01b0319166001600160a01b03831617600160e01b1781556112b3610120850161010086016134a1565b81546001600160401b0391909116600160a01b0267ffffffffffffffff60a01b1990911617905550505050565b60008051602061420b8339815191526000806112fc84876134bc565b600f8401549091506001600160401b03620100009091048116908216111561134857600f8301805469ffffffffffffffff00001916620100006001600160401b03841602179055600191505b60006103e86000805160206141eb833981519152600c01546113709063ffffffff1687613865565b61137a91906138a6565b61138490876134bc565b600f8501546001600160401b039182169250600160501b9004168111156113db576113ae81610f58565b84600f01600a6101000a8154816001600160401b0302191690836001600160401b03160217905550600192505b8215611465576113ea42610f58565b600f8501805467ffffffffffffffff60901b1916600160901b6001600160401b039384160217908190556040805162010000830484168152600160501b9092049092166020820152428183015290517f2078549e3faec355556787458d744ad19765bbb953b3f71801333f29abdce1c8916060908290030190a15b50505050505050565b60405160008051602061420b833981519152907fec7e8c1c441439dd40959777f4c577ea0cd42fcc1dbe59d2bd0f5d9c55df8db8906114ae9084906138f0565b9081526040519081900360200190205460ff161561150e5760405162461bcd60e51b815260206004820152601760248201527f73756666697820616c726561647920726573657276656400000000000000000060448201526064016101b6565b6001816002018360405161152291906138f0565b908152604051908190036020019020805491151560ff1990921691909117905581518290600281101561158a5760405162461bcd60e51b815260206004820152601060248201526f1cdd59999a5e081d1bdbc81cda1bdc9d60821b60448201526064016101b6565b60148111156115cd5760405162461bcd60e51b815260206004820152600f60248201526e73756666697820746f6f206c6f6e6760881b60448201526064016101b6565b60005b81811015610df85760008382815181106115ec576115ec613459565b01602001516001600160f81b0319169050604160f81b811080159061161f5750602d60f91b6001600160f81b0319821611155b806116515750600360fc1b6001600160f81b03198216108015906116515750603960f81b6001600160f81b0319821611155b806116895750600082118015611670575061166d600184613446565b82105b80156116895750602d60f81b6001600160f81b03198216145b6116d55760405162461bcd60e51b815260206004820152601b60248201527f696e76616c69642063686172616374657220696e20737566666978000000000060448201526064016101b6565b506001016115d0565b7f4f24f5c433db0962dac0d2c8b84197a6e6c7cc4e5d9ebe1916a1b6193da2f342547f4f24f5c433db0962dac0d2c8b84197a6e6c7cc4e5d9ebe1916a1b6193da2f345546000805160206141eb833981519152916001600160a01b0316906117496020850185613530565b602001351461178a5760405162461bcd60e51b815260206004820152600d60248201526c34b73b30b634b21031b430b4b760991b60448201526064016101b6565b60405163f34ef58760e01b81526001600160a01b0382169063f34ef587906117b6908690600401613a71565b602060405180830381865afa1580156117d3573d6000803e3d6000fd5b505050506040513d601f19601f820116820180604052508101906117f79190613848565b61087b5760405162461bcd60e51b815260206004820152601b60248201527f616464726573732076616c6964697479206e6f742070726f766564000000000060448201526064016101b6565b60008051602061420b833981519152600061185f6002846129f3565b9050600082600001828154811061187857611878613459565b60009182526020909120600490910201905060028154600160a01b900460ff1660028111156118a9576118a96133f1565b146118b6576118b6613430565b8054600160b01b90046001600160401b03161561190d5760405162461bcd60e51b815260206004820152601560248201527418dbdb1b185d195c985b0819195c1c9958d85d1959605a1b60448201526064016101b6565b61191682612a96565b8560040160016101000a81548161ffff021916908361ffff160217905550600061193f86612af9565b9050600061194d8288612bf7565b600384015490915063ffffffff168110156114655760405162461bcd60e51b81526020600482015260156024820152741b9bdd08195b9bdd59da0818dbdb1b185d195c985b605a1b60448201526064016101b6565b60006119ad83612cc2565b600381015490915063ffffffff16821015611a0a5760405162461bcd60e51b815260206004820152601a60248201527f636f6c6c61746572616c20726174696f20746f6f20736d616c6c00000000000060448201526064016101b6565b611a1382612210565b83600401600d6101000a81548163ffffffff021916908363ffffffff160217905550505050565b6000611a4583612d0f565b600381015490915063ffffffff16821015611aa25760405162461bcd60e51b815260206004820152601a60248201527f636f6c6c61746572616c20726174696f20746f6f20736d616c6c00000000000060448201526064016101b6565b611aab82612210565b8360040160116101000a81548163ffffffff021916908363ffffffff160217905550505050565b612710811115611b135760405162461bcd60e51b815260206004820152600c60248201526b0cccaca40e8dede40d0d2ced60a31b60448201526064016101b6565b611b1c81612a96565b8260040160096101000a81548161ffff021916908361ffff1602179055505050565b612710811115611b815760405162461bcd60e51b815260206004820152600e60248201526d0ecc2d8eaca40e8dede40d0d2ced60931b60448201526064016101b6565b611b8a81612a96565b82600401600b6101000a81548161ffff021916908361ffff1602179055505050565b612710811115611bef5760405162461bcd60e51b815260206004820152600e60248201526d0ecc2d8eaca40e8dede40d0d2ced60931b60448201526064016101b6565b612328811015611c115760405162461bcd60e51b81526004016101b690613b50565b611c1a81612a96565b82600a0160106101000a81548161ffff021916908361ffff1602179055505050565b600082815260208690526040902080546001600160a01b0316611c7157805468ffffffffffffffffff60a01b19168155611cc7565b80546001600160a01b03868116911614611cc75760405162461bcd60e51b81526020600482015260176024820152761859191c995cdcc8185b1c9958591e4818db185a5b5959604a1b60448201526064016101b6565b811580611cdc57508054600160e01b900460ff165b611d1d5760405162461bcd60e51b81526020600482015260126024820152711153d0481c1c9bdbd9881c995c5d5a5c995960721b60448201526064016101b6565b80546001600160a01b0319166001600160a01b03949094169390931790925550505050565b6000816001600160401b0316836001600160401b03161015611d645781610128565b5090919050565b7f4f24f5c433db0962dac0d2c8b84197a6e6c7cc4e5d9ebe1916a1b6193da2f33d547f4f24f5c433db0962dac0d2c8b84197a6e6c7cc4e5d9ebe1916a1b6193da2f33e546040516309825b9560e01b81526000926000805160206141eb833981519152926001600160a01b0391821692911690849083906309825b9590611dfa908b908b908b90600401613b77565b6020604051808303816000875af1158015611e19573d6000803e3d6000fd5b505050506040513d601f19601f82011682018060405250810190611e3d91906136b9565b905060006001600160a01b03831663796d58368360058801611e6260208c018c6134e3565b6040518563ffffffff1660e01b8152600401611e819493929190613c4a565b6020604051808303816000875af1158015611ea0573d6000803e3d6000fd5b505050506040513d601f19601f82011682018060405250810190611ec491906136b9565b6040516333ce01fd60e01b81526001600160a01b038083166004830152919250908316906333ce01fd90602401600060405180830381600087803b158015611f0b57600080fd5b505af1158015611f1f573d6000803e3d6000fd5b50939b9a5050505050505050505050565b6000611f3b83612d0f565b600381015490915063ffffffff1680831015611f695760405162461bcd60e51b81526004016101b690613b50565b835460408051633cfc747d60e01b815290516000926001600160a01b031691633cfc747d9160048083019260209291908290030181865afa158015611fb2573d6000803e3d6000fd5b505050506040513d601f19601f82011682018060405250810190611fd69190613cf3565b63ffffffff1690506002611feb826003613d19565b611ff59190613d30565b841115806120195750600a61200b83600c613d19565b6120159190613d30565b8411155b6120585760405162461bcd60e51b815260206004820152601060248201526f696e63726561736520746f6f2062696760801b60448201526064016101b6565b8454604051630f0f739560e31b8152600481018690526001600160a01b039091169063787b9ca890602401600060405180830381600087803b15801561209d57600080fd5b505af11580156120b1573d6000803e3d6000fd5b505050505050505050565b60006120c783612d0f565b600381015490915063ffffffff168210156120f45760405162461bcd60e51b81526004016101b690613b50565b825460405163444c2e6b60e11b8152600481018490526001600160a01b03909116906388985cd690602401600060405180830381600087803b15801561213957600080fd5b505af1158015611465573d6000803e3d6000fd5b600461215c6127106003613d19565b6121669190613d30565b8110156121855760405162461bcd60e51b81526004016101b690613b50565b8154604051634d2123f360e11b8152600481018390526001600160a01b0390911690639a4247e690602401600060405180830381600087803b1580156121ca57600080fd5b505af11580156121de573d6000803e3d6000fd5b505050505050565b6121ef81612210565b600c92909201805463ffffffff191663ffffffff9093169290921790915550565b600063ffffffff821115610fc05760405162461bcd60e51b815260206004820152602660248201527f53616665436173743a2076616c756520646f65736e27742066697420696e203360448201526532206269747360d01b60648201526084016101b6565b61230b604051806101c0016040528060006001600160a01b0316815260200160006001600160a01b031681526020016060815260200160006001600160a01b0316815260200160006001600160a01b031681526020016000815260200160008152602001600081526020016000815260200160008152602001600081526020016000815260200160008152602001600081525090565b6001600160a01b038416808252604080516332f7ce0b60e21b8152905163cbdf382c916004808201926020929091908290030181865afa158015612353573d6000803e3d6000fd5b505050506040513d601f19601f8201168201806040525081019061237791906136b9565b6001600160a01b0316602080830191909152612395908301836132f8565b81606001906001600160a01b031690816001600160a01b031681525050836001600160a01b0316639edbf0076040518163ffffffff1660e01b8152600401602060405180830381865afa1580156123f0573d6000803e3d6000fd5b505050506040513d601f19601f8201168201806040525081019061241491906136b9565b6001600160a01b0390811660808084019190915260408084018690528481013560a080860191909152606086013560c0808701919091529286013560e08087019190915290860135610100808701919091529286013561012080870191909152908601356101408087019190915292860135610160860152850135610180850152908401356101a084015251868216918816907fdde4e1391087a23dd1b24107a9e3848e2e1297449a6d212092d3162dbf2340bc906124d4908590613d70565b60405180910390a3505050505050565b60008190506000836001600160a01b0316635c60da1b6040518163ffffffff1660e01b8152600401602060405180830381865afa158015612529573d6000803e3d6000fd5b505050506040513d601f19601f8201168201806040525081019061254d91906136b9565b90506000826001600160a01b0316635c60da1b6040518163ffffffff1660e01b8152600401602060405180830381865afa15801561258f573d6000803e3d6000fd5b505050506040513d601f19601f820116820180604052508101906125b391906136b9565b9050816001600160a01b0316816001600160a01b031614610df857604051630422b7e960e11b81526001600160a01b038581166004830152600091908716906308456fd290602401600060405180830381865afa158015612618573d6000803e3d6000fd5b505050506040513d6000823e601f3d908101601f191682016040526126409190810190613e6e565b8051909150156126af5760405163278f794360e11b81526001600160a01b03851690634f1ef286906126789086908590600401613edb565b600060405180830381600087803b15801561269257600080fd5b505af11580156126a6573d6000803e3d6000fd5b505050506121de565b604051631b2ce7f360e11b81526001600160a01b038481166004830152851690633659cfe690602401600060405180830381600087803b1580156126f257600080fd5b505af1158015612706573d6000803e3d6000fd5b50505050505050505050565b60018201546000906001600160a01b039081169083168114806127b95750612738612989565b604051631f86345d60e31b81526001600160a01b038381166004830152919091169063fc31a2e890602401602060405180830381865afa158015612780573d6000803e3d6000fd5b505050506040513d601f19601f820116820180604052508101906127a491906136b9565b6001600160a01b0316836001600160a01b0316145b949350505050565b7f4f24f5c433db0962dac0d2c8b84197a6e6c7cc4e5d9ebe1916a1b6193da2f342547f4f24f5c433db0962dac0d2c8b84197a6e6c7cc4e5d9ebe1916a1b6193da2f345546000805160206141eb833981519152916001600160a01b0316906040840135146128615760405162461bcd60e51b815260206004820152600d60248201526c34b73b30b634b21031b430b4b760991b60448201526064016101b6565b60405163a7a3797560e01b81526001600160a01b0382169063a7a379759061288d908690600401613eff565b602060405180830381865afa1580156128aa573d6000803e3d6000fd5b505050506040513d601f19601f820116820180604052508101906128ce9190613848565b61291a5760405162461bcd60e51b815260206004820152601860248201527f6c6567616c207061796d656e74206e6f742070726f766564000000000000000060448201526064016101b6565b61293d61292f610140850161012086016134a1565b6001600160401b0316612d48565b61087b5760405162461bcd60e51b815260206004820152601c60248201527f7665726966696564207472616e73616374696f6e20746f6f206f6c640000000060448201526064016101b6565b7f4f24f5c433db0962dac0d2c8b84197a6e6c7cc4e5d9ebe1916a1b6193da2f341546001600160a01b031690565b6040805161014083013560208083019190915260a0840135828401528251808303840181526060909201909252805191012061087b8382612d6b565b600060008051602061420b833981519152817fec7e8c1c441439dd40959777f4c577ea0cd42fcc1dbe59d2bd0f5d9c55df8db781612a318787612e33565b815260200190815260200160002054905060008111612a825760405162461bcd60e51b815260206004820152600d60248201526c3ab735b737bbb7103a37b5b2b760991b60448201526064016101b6565b612a8d600182613446565b95945050505050565b600061ffff821115610fc05760405162461bcd60e51b815260206004820152602660248201527f53616665436173743a2076616c756520646f65736e27742066697420696e203160448201526536206269747360d01b60648201526084016101b6565b612b1e6040805160608101909152806000815260200160008152602001600081525090565b6000612b2983612cc2565b6040805160608101909152909150806000815282546020909101906001600160a01b03166370a082317f5bebac0595fee029d42bb673937f5f1cb81cf8641382bc17774635de9b7d7965871860401c6040516001600160e01b031960e084901b1681526001600160a01b039091166004820152602401602060405180830381865afa158015612bbc573d6000803e3d6000fd5b505050506040513d601f19601f82011682018060405250810190612be0919061408c565b8152602001612bee83612e5d565b90529392505050565b600080600184516002811115612c0f57612c0f6133f1565b14612c2e576005830154600160801b90046001600160401b0316612c44565b6005830154600160c01b90046001600160401b03165b60058401546001600160401b0391821692506000918391612c709181811691600160401b90041661341d565b612c7a919061341d565b90506000612c8c828760400151612e73565b905080600003612ca6576402540be40093505050506100f3565b6020860151612cb89061271083612e89565b9695505050505050565b60008060008051602061420b83398151915260048401548154919250829161010090910461ffff16908110612cf957612cf9613459565b9060005260206000209060040201915050919050565b60008060008051602061420b833981519152600484015481549192508291630100000090910461ffff16908110612cf957612cf9613459565b6000612d58600e62015180613d19565b612d629042613446565b90911015919050565b60008181526020839052604090205415612dc75760405162461bcd60e51b815260206004820152601960248201527f7061796d656e7420616c726561647920636f6e6669726d65640000000000000060448201526064016101b6565b6000612dd66201518042613d30565b6000818152600185016020526040812054919250819003612df75782612df9565b805b6000848152602086815260408083209390935584825260018701905290812084905560028501549003610fe2576002840182905550505050565b6000816001600160a01b031660a0846002811115612e5357612e536133f1565b901b179392505050565b6000612e6a826000612faf565b50909392505050565b600061012882612e856009600a614189565b8591905b6000808211612ecd5760405162461bcd60e51b815260206004820152601060248201526f4469766973696f6e206279207a65726f60801b60448201526064016101b6565b83600003612edd57506000610128565b83830283858281612ef057612ef0613890565b0403612f0e57828181612f0557612f05613890565b04915050610128565b506000612f1b8386613d30565b90506000612f298487614195565b90506000612f378587613d30565b90506000612f458688614195565b905085612f528285613d19565b612f5c9190613d30565b612f668385613d19565b612f708387613d19565b88612f7b8689613d19565b612f859190613d19565b612f8f919061341d565b612f99919061341d565b612fa3919061341d565b98975050505050505050565b60008060008060008061304e886001018054612fca906136e1565b80601f0160208091040260200160405190810160405280929190818152602001828054612ff6906136e1565b80156130435780601f1061301857610100808354040283529160200191613043565b820191906000526020600020905b81548152906001019060200180831161302657829003601f168201915b50505050508861316e565b8a549295509093509150600160f01b900460ff161561309557875460009061308490600160a81b900460ff16600183878661325c565b965091945084935061316792505050565b60008060006131308b60020180546130ac906136e1565b80601f01602080910402602001604051908101604052809291908181526020018280546130d8906136e1565b80156131255780601f106130fa57610100808354040283529160200191613125565b820191906000526020600020905b81548152906001019060200180831161310857829003601f168201915b50505050508b61316e565b8d54929550909350915060009061315490600160a81b900460ff1685848a8961325c565b9950949750909550613167945050505050565b9250925092565b7f4f24f5c433db0962dac0d2c8b84197a6e6c7cc4e5d9ebe1916a1b6193da2f34454600090819081906000805160206141eb833981519152906001600160a01b031685156132305760405163e4a0a55b60e01b81526001600160a01b0382169063e4a0a55b906131e2908a906004016141a9565b606060405180830381865afa1580156131ff573d6000803e3d6000fd5b505050506040513d601f19601f8201168201806040525081019061322391906141bc565b9450945094505050613167565b60405163524f388960e01b81526001600160a01b0382169063524f3889906131e2908a906004016141a9565b60006000805160206141eb83398151915281600961327a878a61341d565b613284919061341d565b600a8301549091506000906132a4908690600160a81b900460ff1661341d565b9050808210156132b6576132b6613430565b6132d66132c38284613446565b6132ce90600a614189565b87908a612e89565b9998505050505050505050565b6001600160a01b038116811461011057600080fd5b60006020828403121561330a57600080fd5b8135610128816132e3565b6000806040838503121561332857600080fd5b8235613333816132e3565b91506020830135613343816132e3565b809150509250929050565b60006020828403121561336057600080fd5b81356001600160401b0381111561337657600080fd5b82016102a0818503121561012857600080fd5b6000806040838503121561339c57600080fd5b82356001600160401b03808211156133b357600080fd5b90840190604082870312156133c757600080fd5b909250602084013590808211156133dd57600080fd5b508301610160818603121561334357600080fd5b634e487b7160e01b600052602160045260246000fd5b634e487b7160e01b600052601160045260246000fd5b808201808211156100f3576100f3613407565b634e487b7160e01b600052600160045260246000fd5b818103818111156100f3576100f3613407565b634e487b7160e01b600052603260045260246000fd5b634e487b7160e01b600052603160045260246000fd5b80356001600160401b038116811461349c57600080fd5b919050565b6000602082840312156134b357600080fd5b61012882613485565b6001600160401b038181168382160190808211156134dc576134dc613407565b5092915050565b6000808335601e198436030181126134fa57600080fd5b8301803591506001600160401b0382111561351457600080fd5b60200191503681900382131561352957600080fd5b9250929050565b6000823560be1983360301811261354657600080fd5b9190910192915050565b60008235605e1983360301811261354657600080fd5b634e487b7160e01b600052604160045260246000fd5b604051606081016001600160401b038111828210171561359e5761359e613566565b60405290565b604051601f8201601f191681016001600160401b03811182821017156135cc576135cc613566565b604052919050565b801515811461011057600080fd5b803561349c816135d4565b60006001600160401b0382111561360657613606613566565b50601f01601f191660200190565b60006060823603121561362657600080fd5b61362e61357c565b8235613639816135d4565b81526020838101356001600160401b0381111561365557600080fd5b840136601f82011261366657600080fd5b8035613679613674826135ed565b6135a4565b818152368483850101111561368d57600080fd5b818484018583013760008483830101528084860152505050506040830135604082015280915050919050565b6000602082840312156136cb57600080fd5b8151610128816132e3565b803561349c816132e3565b600181811c908216806136f557607f821691505b6020821081036102f357634e487b7160e01b600052602260045260246000fd5b601f82111561087b576000816000526020600020601f850160051c8101602086101561373e5750805b601f850160051c820191505b818110156121de5782815560010161374a565b81516001600160401b0381111561377657613776613566565b61378a8161378484546136e1565b84613715565b602080601f8311600181146137bf57600084156137a75750858301515b600019600386901b1c1916600185901b1785556121de565b600085815260208120601f198616915b828110156137ee578886015182559484019460019091019084016137cf565b508582101561380c5787850151600019600388901b60f8161c191681555b5050505050600190811b01905550565b803560ff8116811461349c57600080fd5b60006020828403121561383f57600080fd5b6101288261381c565b60006020828403121561385a57600080fd5b8151610128816135d4565b6001600160401b0381811683821602808216919082811461388857613888613407565b505092915050565b634e487b7160e01b600052601260045260246000fd5b60006001600160401b03808416806138c0576138c0613890565b92169190910492915050565b60005b838110156138e75781810151838201526020016138cf565b50506000910152565b600082516135468184602087016138cc565b6000808335601e1984360301811261391957600080fd5b83016020810192503590506001600160401b0381111561393857600080fd5b8060051b360382131561352957600080fd5b81835260006001600160fb1b0383111561396357600080fd5b8260051b80836020870137939093016020019392505050565b6000808335601e1984360301811261399357600080fd5b83016020810192503590506001600160401b038111156139b257600080fd5b80360382131561352957600080fd5b81835281816020850137506000828201602090810191909152601f909101601f19169091010190565b60006139f6828361397c565b60208552612a8d6020860182846139c1565b60008235605e19833603018112613a1e57600080fd5b90910192915050565b60008135613a34816135d4565b15158352613a45602083018361397c565b60606020860152613a5a6060860182846139c1565b915050604083013560408501528091505092915050565b602081526000613a818384613902565b60406020850152613a9660608501828461394a565b915050602084013560be19853603018112613ab057600080fd5b8481019050601f198483030160408501528035825260208101356020830152613adb60408201613485565b6001600160401b03808216604085015280613af860608501613485565b16606085015250506080810135601e19823603018112613b1757600080fd5b60c06080840152613b2d60c084018383016139ea565b9050613b3c60a0830183613a08565b915082810360a0840152612cb88183613a27565b6020808252600d908201526c76616c756520746f6f206c6f7760981b604082015260600190565b6001600160a01b03848116825283166020820152606060408201819052600090613bb3908301613ba6856136d6565b6001600160a01b03169052565b613bc0602084018461397c565b610160806080860152613bd86101c0860183856139c1565b9250604086013560a0860152606086013560c0860152608086013560e0860152610100915060a08601358286015261012060c08701358187015261014060e088013581880152838801358388015281880135610180880152808801356101a08801525050505080915050949350505050565b60018060a01b0385168152600060206060602084015260008654613c6d816136e1565b8060608701526080600180841660008114613c8f5760018114613cab57613cdb565b60ff19851660808a0152608084151560051b8a01019550613cdb565b8b600052602060002060005b85811015613cd25781548b8201860152908301908801613cb7565b8a016080019650505b50505050508381036040850152612fa38186886139c1565b600060208284031215613d0557600080fd5b815163ffffffff8116811461012857600080fd5b80820281158282048414176100f3576100f3613407565b600082613d3f57613d3f613890565b500490565b60008151808452613d5c8160208601602086016138cc565b601f01601f19169290920160200192915050565b60208152613d8a6020820183516001600160a01b03169052565b60006020830151613da660408401826001600160a01b03169052565b5060408301516101c0806060850152613dc36101e0850183613d44565b91506060850151613ddf60808601826001600160a01b03169052565b5060808501516001600160a01b03811660a08601525060a085015160c08581019190915285015160e08086019190915285015161010080860191909152850151610120808601919091528501516101408086019190915285015161016080860191909152850151610180808601919091528501516101a080860191909152909401519390920192909252919050565b600060208284031215613e8057600080fd5b81516001600160401b03811115613e9657600080fd5b8201601f81018413613ea757600080fd5b8051613eb5613674826135ed565b818152856020838501011115613eca57600080fd5b612a8d8260208301602086016138cc565b6001600160a01b03831681526040602082018190526000906127b990830184613d44565b602081526000613f0f8384613902565b6102a0806020860152613f276102c08601838561394a565b92506020860135604086015260408601356060860152613f4960608701613485565b91506001600160401b03808316608087015280613f6860808901613485565b1660a08701525060a086013560c086015260c086013560e0860152610100915060e086013582860152610120613fb2818701613fa5858a01613485565b6001600160401b03169052565b613fbd818801613485565b925050610140613fd7818701846001600160401b03169052565b610160925080870135838701525061018082870135818701526101a092508087013583870152506101c082870135818701526101e0925080870135838701525061020082870135818701526102209250808701358387015250610240828701358187015261026092508087013583870152506140548287016135e2565b91506102806140668187018415159052565b61407181880161381c565b9250506140828186018360ff169052565b5090949350505050565b60006020828403121561409e57600080fd5b5051919050565b600181815b808511156140e05781600019048211156140c6576140c6613407565b808516156140d357918102915b93841c93908002906140aa565b509250929050565b6000826140f7575060016100f3565b81614104575060006100f3565b816001811461411a576002811461412457614140565b60019150506100f3565b60ff84111561413557614135613407565b50506001821b6100f3565b5060208310610133831016604e8410600b8410161715614163575081810a6100f3565b61416d83836140a5565b806000190482111561418157614181613407565b029392505050565b600061012883836140e8565b6000826141a4576141a4613890565b500690565b6020815260006101286020830184613d44565b6000806000606084860312156141d157600080fd5b835192506020840151915060408401519050925092509256fe4f24f5c433db0962dac0d2c8b84197a6e6c7cc4e5d9ebe1916a1b6193da2f33aec7e8c1c441439dd40959777f4c577ea0cd42fcc1dbe59d2bd0f5d9c55df8db6a264697066735822122024b4dbafd1a00f99b19a085b5c466ed625ece710b767de5be4f5bb361fbb61b064736f6c63430008170033",
  "linkReferences": {},
  "deployedLinkReferences": {}
}