{
  "_format": "hh-sol-artifact-1",
  "contractName": "FdcVerificationMock",
  "sourceName": "contracts/fdc/mock/FdcVerificationMock.sol",
  "abi": [
    {
      "inputs": [
        {
          "internalType": "contract IRelay",
          "name": "_relay",
          "type": "address"
        },
        {
          "internalType": "uint8",
          "name": "_fdcProtocolId",
          "type": "uint8"
        }
      ],
      "stateMutability": "nonpayable",
      "type": "constructor"
    },
    {
      "inputs": [],
      "name": "fdcProtocolId",
      "outputs": [
        {
          "internalType": "uint8",
          "name": "",
          "type": "uint8"
        }
      ],
      "stateMutability": "view",
      "type": "function"
    },
    {
      "inputs": [],
      "name": "relay",
      "outputs": [
        {
          "internalType": "contract IRelay",
          "name": "",
          "type": "address"
        }
      ],
      "stateMutability": "view",
      "type": "function"
    },
    {
      "inputs": [
        {
          "components": [
            {
              "internalType": "bytes32[]",
              "name": "merkleProof",
              "type": "bytes32[]"
            },
            {
              "components": [
                {
                  "internalType": "bytes32",
                  "name": "attestationType",
                  "type": "bytes32"
                },
                {
                  "internalType": "bytes32",
                  "name": "sourceId",
                  "type": "bytes32"
                },
                {
                  "internalType": "uint64",
                  "name": "votingRound",
                  "type": "uint64"
                },
                {
                  "internalType": "uint64",
                  "name": "lowestUsedTimestamp",
                  "type": "uint64"
                },
                {
                  "components": [
                    {
                      "internalType": "string",
                      "name": "addressStr",
                      "type": "string"
                    }
                  ],
                  "internalType": "struct IAddressValidity.RequestBody",
                  "name": "requestBody",
                  "type": "tuple"
                },
                {
                  "components": [
                    {
                      "internalType": "bool",
                      "name": "isValid",
                      "type": "bool"
                    },
                    {
                      "internalType": "string",
                      "name": "standardAddress",
                      "type": "string"
                    },
                    {
                      "internalType": "bytes32",
                      "name": "standardAddressHash",
                      "type": "bytes32"
                    }
                  ],
                  "internalType": "struct IAddressValidity.ResponseBody",
                  "name": "responseBody",
                  "type": "tuple"
                }
              ],
              "internalType": "struct IAddressValidity.Response",
              "name": "data",
              "type": "tuple"
            }
          ],
          "internalType": "struct IAddressValidity.Proof",
          "name": "_proof",
          "type": "tuple"
        }
      ],
      "name": "verifyAddressValidity",
      "outputs": [
        {
          "internalType": "bool",
          "name": "_proved",
          "type": "bool"
        }
      ],
      "stateMutability": "view",
      "type": "function"
    },
    {
      "inputs": [
        {
          "components": [
            {
              "internalType": "bytes32[]",
              "name": "merkleProof",
              "type": "bytes32[]"
            },
            {
              "components": [
                {
                  "internalType": "bytes32",
                  "name": "attestationType",
                  "type": "bytes32"
                },
                {
                  "internalType": "bytes32",
                  "name": "sourceId",
                  "type": "bytes32"
                },
                {
                  "internalType": "uint64",
                  "name": "votingRound",
                  "type": "uint64"
                },
                {
                  "internalType": "uint64",
                  "name": "lowestUsedTimestamp",
                  "type": "uint64"
                },
                {
                  "components": [
                    {
                      "internalType": "bytes32",
                      "name": "transactionId",
                      "type": "bytes32"
                    },
                    {
                      "internalType": "bytes32",
                      "name": "sourceAddressIndicator",
                      "type": "bytes32"
                    }
                  ],
                  "internalType": "struct IBalanceDecreasingTransaction.RequestBody",
                  "name": "requestBody",
                  "type": "tuple"
                },
                {
                  "components": [
                    {
                      "internalType": "uint64",
                      "name": "blockNumber",
                      "type": "uint64"
                    },
                    {
                      "internalType": "uint64",
                      "name": "blockTimestamp",
                      "type": "uint64"
                    },
                    {
                      "internalType": "bytes32",
                      "name": "sourceAddressHash",
                      "type": "bytes32"
                    },
                    {
                      "internalType": "int256",
                      "name": "spentAmount",
                      "type": "int256"
                    },
                    {
                      "internalType": "bytes32",
                      "name": "standardPaymentReference",
                      "type": "bytes32"
                    }
                  ],
                  "internalType": "struct IBalanceDecreasingTransaction.ResponseBody",
                  "name": "responseBody",
                  "type": "tuple"
                }
              ],
              "internalType": "struct IBalanceDecreasingTransaction.Response",
              "name": "data",
              "type": "tuple"
            }
          ],
          "internalType": "struct IBalanceDecreasingTransaction.Proof",
          "name": "_proof",
          "type": "tuple"
        }
      ],
      "name": "verifyBalanceDecreasingTransaction",
      "outputs": [
        {
          "internalType": "bool",
          "name": "_proved",
          "type": "bool"
        }
      ],
      "stateMutability": "view",
      "type": "function"
    },
    {
      "inputs": [
        {
          "components": [
            {
              "internalType": "bytes32[]",
              "name": "merkleProof",
              "type": "bytes32[]"
            },
            {
              "components": [
                {
                  "internalType": "bytes32",
                  "name": "attestationType",
                  "type": "bytes32"
                },
                {
                  "internalType": "bytes32",
                  "name": "sourceId",
                  "type": "bytes32"
                },
                {
                  "internalType": "uint64",
                  "name": "votingRound",
                  "type": "uint64"
                },
                {
                  "internalType": "uint64",
                  "name": "lowestUsedTimestamp",
                  "type": "uint64"
                },
                {
                  "components": [
                    {
                      "internalType": "uint64",
                      "name": "blockNumber",
                      "type": "uint64"
                    },
                    {
                      "internalType": "uint64",
                      "name": "queryWindow",
                      "type": "uint64"
                    }
                  ],
                  "internalType": "struct IConfirmedBlockHeightExists.RequestBody",
                  "name": "requestBody",
                  "type": "tuple"
                },
                {
                  "components": [
                    {
                      "internalType": "uint64",
                      "name": "blockTimestamp",
                      "type": "uint64"
                    },
                    {
                      "internalType": "uint64",
                      "name": "numberOfConfirmations",
                      "type": "uint64"
                    },
                    {
                      "internalType": "uint64",
                      "name": "lowestQueryWindowBlockNumber",
                      "type": "uint64"
                    },
                    {
                      "internalType": "uint64",
                      "name": "lowestQueryWindowBlockTimestamp",
                      "type": "uint64"
                    }
                  ],
                  "internalType": "struct IConfirmedBlockHeightExists.ResponseBody",
                  "name": "responseBody",
                  "type": "tuple"
                }
              ],
              "internalType": "struct IConfirmedBlockHeightExists.Response",
              "name": "data",
              "type": "tuple"
            }
          ],
          "internalType": "struct IConfirmedBlockHeightExists.Proof",
          "name": "_proof",
          "type": "tuple"
        }
      ],
      "name": "verifyConfirmedBlockHeightExists",
      "outputs": [
        {
          "internalType": "bool",
          "name": "_proved",
          "type": "bool"
        }
      ],
      "stateMutability": "view",
      "type": "function"
    },
    {
      "inputs": [
        {
          "components": [
            {
              "internalType": "bytes32[]",
              "name": "merkleProof",
              "type": "bytes32[]"
            },
            {
              "components": [
                {
                  "internalType": "bytes32",
                  "name": "attestationType",
                  "type": "bytes32"
                },
                {
                  "internalType": "bytes32",
                  "name": "sourceId",
                  "type": "bytes32"
                },
                {
                  "internalType": "uint64",
                  "name": "votingRound",
                  "type": "uint64"
                },
                {
                  "internalType": "uint64",
                  "name": "lowestUsedTimestamp",
                  "type": "uint64"
                },
                {
                  "components": [
                    {
                      "internalType": "bytes32",
                      "name": "transactionHash",
                      "type": "bytes32"
                    },
                    {
                      "internalType": "uint16",
                      "name": "requiredConfirmations",
                      "type": "uint16"
                    },
                    {
                      "internalType": "bool",
                      "name": "provideInput",
                      "type": "bool"
                    },
                    {
                      "internalType": "bool",
                      "name": "listEvents",
                      "type": "bool"
                    },
                    {
                      "internalType": "uint32[]",
                      "name": "logIndices",
                      "type": "uint32[]"
                    }
                  ],
                  "internalType": "struct IEVMTransaction.RequestBody",
                  "name": "requestBody",
                  "type": "tuple"
                },
                {
                  "components": [
                    {
                      "internalType": "uint64",
                      "name": "blockNumber",
                      "type": "uint64"
                    },
                    {
                      "internalType": "uint64",
                      "name": "timestamp",
                      "type": "uint64"
                    },
                    {
                      "internalType": "address",
                      "name": "sourceAddress",
                      "type": "address"
                    },
                    {
                      "internalType": "bool",
                      "name": "isDeployment",
                      "type": "bool"
                    },
                    {
                      "internalType": "address",
                      "name": "receivingAddress",
                      "type": "address"
                    },
                    {
                      "internalType": "uint256",
                      "name": "value",
                      "type": "uint256"
                    },
                    {
                      "internalType": "bytes",
                      "name": "input",
                      "type": "bytes"
                    },
                    {
                      "internalType": "uint8",
                      "name": "status",
                      "type": "uint8"
                    },
                    {
                      "components": [
                        {
                          "internalType": "uint32",
                          "name": "logIndex",
                          "type": "uint32"
                        },
                        {
                          "internalType": "address",
                          "name": "emitterAddress",
                          "type": "address"
                        },
                        {
                          "internalType": "bytes32[]",
                          "name": "topics",
                          "type": "bytes32[]"
                        },
                        {
                          "internalType": "bytes",
                          "name": "data",
                          "type": "bytes"
                        },
                        {
                          "internalType": "bool",
                          "name": "removed",
                          "type": "bool"
                        }
                      ],
                      "internalType": "struct IEVMTransaction.Event[]",
                      "name": "events",
                      "type": "tuple[]"
                    }
                  ],
                  "internalType": "struct IEVMTransaction.ResponseBody",
                  "name": "responseBody",
                  "type": "tuple"
                }
              ],
              "internalType": "struct IEVMTransaction.Response",
              "name": "data",
              "type": "tuple"
            }
          ],
          "internalType": "struct IEVMTransaction.Proof",
          "name": "_proof",
          "type": "tuple"
        }
      ],
      "name": "verifyEVMTransaction",
      "outputs": [
        {
          "internalType": "bool",
          "name": "_proved",
          "type": "bool"
        }
      ],
      "stateMutability": "view",
      "type": "function"
    },
    {
      "inputs": [
        {
          "components": [
            {
              "internalType": "bytes32[]",
              "name": "merkleProof",
              "type": "bytes32[]"
            },
            {
              "components": [
                {
                  "internalType": "bytes32",
                  "name": "attestationType",
                  "type": "bytes32"
                },
                {
                  "internalType": "bytes32",
                  "name": "sourceId",
                  "type": "bytes32"
                },
                {
                  "internalType": "uint64",
                  "name": "votingRound",
                  "type": "uint64"
                },
                {
                  "internalType": "uint64",
                  "name": "lowestUsedTimestamp",
                  "type": "uint64"
                },
                {
                  "components": [
                    {
                      "internalType": "string",
                      "name": "url",
                      "type": "string"
                    },
                    {
                      "internalType": "string",
                      "name": "httpMethod",
                      "type": "string"
                    },
                    {
                      "internalType": "string",
                      "name": "headers",
                      "type": "string"
                    },
                    {
                      "internalType": "string",
                      "name": "queryParams",
                      "type": "string"
                    },
                    {
                      "internalType": "string",
                      "name": "body",
                      "type": "string"
                    },
                    {
                      "internalType": "string",
                      "name": "postProcessJq",
                      "type": "string"
                    },
                    {
                      "internalType": "string",
                      "name": "abiSignature",
                      "type": "string"
                    }
                  ],
                  "internalType": "struct IWeb2Json.RequestBody",
                  "name": "requestBody",
                  "type": "tuple"
                },
                {
                  "components": [
                    {
                      "internalType": "bytes",
                      "name": "abiEncodedData",
                      "type": "bytes"
                    }
                  ],
                  "internalType": "struct IWeb2Json.ResponseBody",
                  "name": "responseBody",
                  "type": "tuple"
                }
              ],
              "internalType": "struct IWeb2Json.Response",
              "name": "data",
              "type": "tuple"
            }
          ],
          "internalType": "struct IWeb2Json.Proof",
          "name": "_proof",
          "type": "tuple"
        }
      ],
      "name": "verifyJsonApi",
      "outputs": [
        {
          "internalType": "bool",
          "name": "_proved",
          "type": "bool"
        }
      ],
      "stateMutability": "view",
      "type": "function"
    },
    {
      "inputs": [
        {
          "components": [
            {
              "internalType": "bytes32[]",
              "name": "merkleProof",
              "type": "bytes32[]"
            },
            {
              "components": [
                {
                  "internalType": "bytes32",
                  "name": "attestationType",
                  "type": "bytes32"
                },
                {
                  "internalType": "bytes32",
                  "name": "sourceId",
                  "type": "bytes32"
                },
                {
                  "internalType": "uint64",
                  "name": "votingRound",
                  "type": "uint64"
                },
                {
                  "internalType": "uint64",
                  "name": "lowestUsedTimestamp",
                  "type": "uint64"
                },
                {
                  "components": [
                    {
                      "internalType": "bytes32",
                      "name": "transactionId",
                      "type": "bytes32"
                    },
                    {
                      "internalType": "uint256",
                      "name": "inUtxo",
                      "type": "uint256"
                    },
                    {
                      "internalType": "uint256",
                      "name": "utxo",
                      "type": "uint256"
                    }
                  ],
                  "internalType": "struct IPayment.RequestBody",
                  "name": "requestBody",
                  "type": "tuple"
                },
                {
                  "components": [
                    {
                      "internalType": "uint64",
                      "name": "blockNumber",
                      "type": "uint64"
                    },
                    {
                      "internalType": "uint64",
                      "name": "blockTimestamp",
                      "type": "uint64"
                    },
                    {
                      "internalType": "bytes32",
                      "name": "sourceAddressHash",
                      "type": "bytes32"
                    },
                    {
                      "internalType": "bytes32",
                      "name": "sourceAddressesRoot",
                      "type": "bytes32"
                    },
                    {
                      "internalType": "bytes32",
                      "name": "receivingAddressHash",
                      "type": "bytes32"
                    },
                    {
                      "internalType": "bytes32",
                      "name": "intendedReceivingAddressHash",
                      "type": "bytes32"
                    },
                    {
                      "internalType": "int256",
                      "name": "spentAmount",
                      "type": "int256"
                    },
                    {
                      "internalType": "int256",
                      "name": "intendedSpentAmount",
                      "type": "int256"
                    },
                    {
                      "internalType": "int256",
                      "name": "receivedAmount",
                      "type": "int256"
                    },
                    {
                      "internalType": "int256",
                      "name": "intendedReceivedAmount",
                      "type": "int256"
                    },
                    {
                      "internalType": "bytes32",
                      "name": "standardPaymentReference",
                      "type": "bytes32"
                    },
                    {
                      "internalType": "bool",
                      "name": "oneToOne",
                      "type": "bool"
                    },
                    {
                      "internalType": "uint8",
                      "name": "status",
                      "type": "uint8"
                    }
                  ],
                  "internalType": "struct IPayment.ResponseBody",
                  "name": "responseBody",
                  "type": "tuple"
                }
              ],
              "internalType": "struct IPayment.Response",
              "name": "data",
              "type": "tuple"
            }
          ],
          "internalType": "struct IPayment.Proof",
          "name": "_proof",
          "type": "tuple"
        }
      ],
      "name": "verifyPayment",
      "outputs": [
        {
          "internalType": "bool",
          "name": "_proved",
          "type": "bool"
        }
      ],
      "stateMutability": "view",
      "type": "function"
    },
    {
      "inputs": [
        {
          "components": [
            {
              "internalType": "bytes32[]",
              "name": "merkleProof",
              "type": "bytes32[]"
            },
            {
              "components": [
                {
                  "internalType": "bytes32",
                  "name": "attestationType",
                  "type": "bytes32"
                },
                {
                  "internalType": "bytes32",
                  "name": "sourceId",
                  "type": "bytes32"
                },
                {
                  "internalType": "uint64",
                  "name": "votingRound",
                  "type": "uint64"
                },
                {
                  "internalType": "uint64",
                  "name": "lowestUsedTimestamp",
                  "type": "uint64"
                },
                {
                  "components": [
                    {
                      "internalType": "uint64",
                      "name": "minimalBlockNumber",
                      "type": "uint64"
                    },
                    {
                      "internalType": "uint64",
                      "name": "deadlineBlockNumber",
                      "type": "uint64"
                    },
                    {
                      "internalType": "uint64",
                      "name": "deadlineTimestamp",
                      "type": "uint64"
                    },
                    {
                      "internalType": "bytes32",
                      "name": "destinationAddressHash",
                      "type": "bytes32"
                    },
                    {
                      "internalType": "uint256",
                      "name": "amount",
                      "type": "uint256"
                    },
                    {
                      "internalType": "bytes32",
                      "name": "standardPaymentReference",
                      "type": "bytes32"
                    },
                    {
                      "internalType": "bool",
                      "name": "checkSourceAddresses",
                      "type": "bool"
                    },
                    {
                      "internalType": "bytes32",
                      "name": "sourceAddressesRoot",
                      "type": "bytes32"
                    }
                  ],
                  "internalType": "struct IReferencedPaymentNonexistence.RequestBody",
                  "name": "requestBody",
                  "type": "tuple"
                },
                {
                  "components": [
                    {
                      "internalType": "uint64",
                      "name": "minimalBlockTimestamp",
                      "type": "uint64"
                    },
                    {
                      "internalType": "uint64",
                      "name": "firstOverflowBlockNumber",
                      "type": "uint64"
                    },
                    {
                      "internalType": "uint64",
                      "name": "firstOverflowBlockTimestamp",
                      "type": "uint64"
                    }
                  ],
                  "internalType": "struct IReferencedPaymentNonexistence.ResponseBody",
                  "name": "responseBody",
                  "type": "tuple"
                }
              ],
              "internalType": "struct IReferencedPaymentNonexistence.Response",
              "name": "data",
              "type": "tuple"
            }
          ],
          "internalType": "struct IReferencedPaymentNonexistence.Proof",
          "name": "_proof",
          "type": "tuple"
        }
      ],
      "name": "verifyReferencedPaymentNonexistence",
      "outputs": [
        {
          "internalType": "bool",
          "name": "_proved",
          "type": "bool"
        }
      ],
      "stateMutability": "view",
      "type": "function"
    }
  ],
  "bytecode": "0x60c060405234801561001057600080fd5b5060405161183f38038061183f83398101604081905261002f91610048565b6001600160a01b0390911660805260ff1660a052610094565b6000806040838503121561005b57600080fd5b82516001600160a01b038116811461007257600080fd5b602084015190925060ff8116811461008957600080fd5b809150509250929050565b60805160a05161172561011a60003960008181609d01528181610208015281816103670152818161047e0152818161057f0152818161068a015281816107b801526108ca015260008181610137015281816101e1015281816103400152818161045701528181610558015281816106630152818161079101526108a301526117256000f3fe608060405234801561001057600080fd5b50600436106100935760003560e01c8063a7a3797511610066578063a7a379751461011f578063b59589d114610132578063d2d3a41f14610171578063d577275114610184578063f34ef5871461019757600080fd5b806309d2f01f1461009857806358fbe9e1146100d65780635e30ebfb146100f95780636ec659c71461010c575b600080fd5b6100bf7f000000000000000000000000000000000000000000000000000000000000000081565b60405160ff90911681526020015b60405180910390f35b6100e96100e4366004610a38565b6101aa565b60405190151581526020016100cd565b6100e9610107366004610a74565b610303565b6100e961011a366004610aaf565b61041a565b6100e961012d366004610aea565b610531565b6101597f000000000000000000000000000000000000000000000000000000000000000081565b6040516001600160a01b0390911681526020016100cd565b6100e961017f366004610a38565b610632565b6100e9610192366004610b25565b610754565b6100e96101a5366004610a38565b61086b565b60006d22ab26aa3930b739b0b1ba34b7b760911b6101cb6020840184610b60565b351480156102fd57506102fd6001600160a01b037f0000000000000000000000000000000000000000000000000000000000000000166339436b007f00000000000000000000000000000000000000000000000000000000000000006102346020870187610b60565b610245906060810190604001610b9c565b6040516001600160e01b031960e085901b16815260ff90921660048301526001600160401b03166024820152604401602060405180830381865afa158015610291573d6000803e3d6000fd5b505050506040513d601f19601f820116820180604052508101906102b59190610bb7565b6102c26020850185610b60565b6040516020016102d29190610ef8565b60408051601f1981840301815291905280516020909101206102f48580611023565b90929091610994565b92915050565b600060208201357f436f6e6669726d6564426c6f636b4865696768744578697374730000000000001480156102fd57506102fd6001600160a01b037f0000000000000000000000000000000000000000000000000000000000000000166339436b007f00000000000000000000000000000000000000000000000000000000000000006103966080870160608801610b9c565b6040516001600160e01b031960e085901b16815260ff90921660048301526001600160401b03166024820152604401602060405180830381865afa1580156103e2573d6000803e3d6000fd5b505050506040513d601f19601f820116820180604052508101906104069190610bb7565b836020016040516020016102d2919061106c565b600060208201357f42616c616e636544656372656173696e675472616e73616374696f6e000000001480156102fd57506102fd6001600160a01b037f0000000000000000000000000000000000000000000000000000000000000000166339436b007f00000000000000000000000000000000000000000000000000000000000000006104ad6080870160608801610b9c565b6040516001600160e01b031960e085901b16815260ff90921660048301526001600160401b03166024820152604401602060405180830381865afa1580156104f9573d6000803e3d6000fd5b505050506040513d601f19601f8201168201806040525081019061051d9190610bb7565b836020016040516020016102d2919061112e565b600060208201356614185e5b595b9d60ca1b1480156102fd57506102fd6001600160a01b037f0000000000000000000000000000000000000000000000000000000000000000166339436b007f00000000000000000000000000000000000000000000000000000000000000006105ae6080870160608801610b9c565b6040516001600160e01b031960e085901b16815260ff90921660048301526001600160401b03166024820152604401602060405180830381865afa1580156105fa573d6000803e3d6000fd5b505050506040513d601f19601f8201168201806040525081019061061e9190610bb7565b836020016040516020016102d291906111d4565b6000672bb2b1192539b7b760c11b61064d6020840184610b60565b351480156102fd57506102fd6001600160a01b037f0000000000000000000000000000000000000000000000000000000000000000166339436b007f00000000000000000000000000000000000000000000000000000000000000006106b66020870187610b60565b6106c7906060810190604001610b9c565b6040516001600160e01b031960e085901b16815260ff90921660048301526001600160401b03166024820152604401602060405180830381865afa158015610713573d6000803e3d6000fd5b505050506040513d601f19601f820116820180604052508101906107379190610bb7565b6107446020850185610b60565b6040516020016102d29190611433565b600060208201357f5265666572656e6365645061796d656e744e6f6e6578697374656e63650000001480156102fd57506102fd6001600160a01b037f0000000000000000000000000000000000000000000000000000000000000000166339436b007f00000000000000000000000000000000000000000000000000000000000000006107e76080870160608801610b9c565b6040516001600160e01b031960e085901b16815260ff90921660048301526001600160401b03166024820152604401602060405180830381865afa158015610833573d6000803e3d6000fd5b505050506040513d601f19601f820116820180604052508101906108579190610bb7565b836020016040516020016102d2919061150d565b60006e4164647265737356616c696469747960881b61088d6020840184610b60565b351480156102fd57506102fd6001600160a01b037f0000000000000000000000000000000000000000000000000000000000000000166339436b007f00000000000000000000000000000000000000000000000000000000000000006108f66020870187610b60565b610907906060810190604001610b9c565b6040516001600160e01b031960e085901b16815260ff90921660048301526001600160401b03166024820152604401602060405180830381865afa158015610953573d6000803e3d6000fd5b505050506040513d601f19601f820116820180604052508101906109779190610bb7565b6109846020850185610b60565b6040516020016102d29190611629565b6000826109a28686856109ac565b1495945050505050565b600081815b848110156109e5576109db828787848181106109cf576109cf6116d9565b905060200201356109ee565b91506001016109b1565b50949350505050565b6000818310610a0a576000828152602084905260409020610a19565b60008381526020839052604090205b9392505050565b600060408284031215610a3257600080fd5b50919050565b600060208284031215610a4a57600080fd5b81356001600160401b03811115610a6057600080fd5b610a6c84828501610a20565b949350505050565b600060208284031215610a8657600080fd5b81356001600160401b03811115610a9c57600080fd5b82016101608185031215610a1957600080fd5b600060208284031215610ac157600080fd5b81356001600160401b03811115610ad757600080fd5b82016101808185031215610a1957600080fd5b600060208284031215610afc57600080fd5b81356001600160401b03811115610b1257600080fd5b82016102a08185031215610a1957600080fd5b600060208284031215610b3757600080fd5b81356001600160401b03811115610b4d57600080fd5b82016102008185031215610a1957600080fd5b6000823560be19833603018112610b7657600080fd5b9190910192915050565b80356001600160401b0381168114610b9757600080fd5b919050565b600060208284031215610bae57600080fd5b610a1982610b80565b600060208284031215610bc957600080fd5b5051919050565b60008235609e19833603018112610be657600080fd5b90910192915050565b80358015158114610b9757600080fd5b6000808335601e19843603018112610c1657600080fd5b83016020810192503590506001600160401b03811115610c3557600080fd5b8060051b3603821315610c4757600080fd5b9250929050565b803563ffffffff81168114610b9757600080fd5b6000823561011e19833603018112610be657600080fd5b80356001600160a01b0381168114610b9757600080fd5b6000808335601e19843603018112610ca757600080fd5b83016020810192503590506001600160401b03811115610cc657600080fd5b803603821315610c4757600080fd5b81835281816020850137506000828201602090810191909152601f909101601f19169091010190565b803560ff81168114610b9757600080fd5b818352602080840193600091600585811b830182018585805b89811015610dfb57868403601f19018b52610d43838a610bd0565b60a063ffffffff610d5383610c4e565b1686526001600160a01b03610d69838a01610c79565b16888701526040610d7c81840184610bff565b88830184905292880183905260c0926001600160fb1b03811115610d9e578687fd5b891b91508181898501375086016060610db984820185610c90565b848a850301838b0152610dcf8585018284610cd5565b9450505050506080610de2818401610bef565b1515960195909552509985019991850191600101610d28565b50919998505050505050505050565b6000610120610e2984610e1c85610b80565b6001600160401b03169052565b610e3560208401610b80565b6001600160401b03166020850152610e4f60408401610c79565b6001600160a01b03166040850152610e6960608401610bef565b15156060850152610e7c60808401610c79565b6001600160a01b0316608085015260a08381013590850152610ea160c0840184610c90565b8260c0870152610eb48387018284610cd5565b92505050610ec460e08401610cfe565b60ff1660e0850152610100610edb84820185610bff565b86840383880152610eed848284610d0f565b979650505050505050565b60006020808352833581840152808401356040840152610f1a60408501610b80565b6001600160401b03808216606086015280610f3760608801610b80565b1660808601525050610f4c6080850185610bd0565b60c060a08501526101808401813560e08601528282013561ffff8116808214610f7457600080fd5b61010087015250610f8760408301610bef565b1515610120860152610f9b60608301610bef565b1515610140860152610fb06080830183610bff565b60a06101608801529182905290915060006101a086015b83821015610ff25763ffffffff610fdd84610c4e565b16815291840191600191909101908401610fc7565b610fff60a0890189610c62565b878203601f190160c089015294506110178186610e0a565b98975050505050505050565b6000808335601e1984360301811261103a57600080fd5b8301803591506001600160401b0382111561105457600080fd5b6020019150600581901b3603821315610c4757600080fd5b8135815260208083013590820152610140810161108b60408401610b80565b6001600160401b038082166040850152806110a860608701610b80565b166060850152806110bb60808701610b80565b166080850152806110ce60a08701610b80565b1660a0850152806110e160c08701610b80565b1660c0850152806110f460e08701610b80565b1660e085015261010091508061110b838701610b80565b1682850152610120915080611121838701610b80565b1682850152505092915050565b8135815260208083013590820152610160810161114d60408401610b80565b6001600160401b0380821660408501528061116a60608701610b80565b1660608501526080850135608085015260a085013560a08501528061119160c08701610b80565b1660c0850152806111a460e08701610b80565b1660e085015250506101008381013590830152610120808401359083015261014092830135929091019190915290565b813581526020808301359082015261028081016111f360408401610b80565b6001600160401b0380821660408501528061121060608701610b80565b16606085015250506080830135608083015260a083013560a083015260c083013560c083015261124960e08301610e1c60e08601610b80565b610100611257818501610b80565b6001600160401b03169083015261012083810135908301526101408084013590830152610160808401359083015261018080840135908301526101a080840135908301526101c080840135908301526101e08084013590830152610200808401359083015261022080840135908301526102406112d5818501610bef565b1515908301526102606112e9848201610cfe565b60ff16920191909152919050565b60006113038283610c90565b60e0855261131560e086018284610cd5565b9150506113256020840184610c90565b8583036020870152611338838284610cd5565b925050506113496040840184610c90565b858303604087015261135c838284610cd5565b9250505061136d6060840184610c90565b8583036060870152611380838284610cd5565b925050506113916080840184610c90565b85830360808701526113a4838284610cd5565b925050506113b560a0840184610c90565b85830360a08701526113c8838284610cd5565b925050506113d960c0840184610c90565b85830360c08701526113ec838284610cd5565b9695505050505050565b60008235601e19833603018112610be657600080fd5b60006114188283610c90565b6020855261142a602086018284610cd5565b95945050505050565b602081528135602082015260208201356040820152600061145660408401610b80565b6001600160401b0380821660608501528061147360608701610b80565b1660808501525050608083013560de1984360301811261149257600080fd5b60c060a08401526114a860e084018583016112f7565b90506114b760a08501856113f6565b838203601f190160c085015261142a828261140c565b6001600160401b03806114df83610b80565b168352806114ef60208401610b80565b1660208401528061150260408401610b80565b166040840152505050565b81358152602080830135908201526101e0810161152c60408401610b80565b6001600160401b0380821660408501528061154960608701610b80565b1660608501528061155c60808701610b80565b1660808501528061156f60a08701610b80565b1660a08501528061158260c08701610b80565b1660c0850152505060e08381013590830152610100808401359083015261012080840135908301526101406115b8818501610bef565b15159083015261016083810135908301526101806115da8184018286016114cd565b5092915050565b6115ea81610bef565b1515825260006115fd6020830183610c90565b60606020860152611612606086018284610cd5565b915050604083013560408501528091505092915050565b602081528135602082015260208201356040820152600061164c60408401610b80565b6001600160401b0380821660608501528061166960608701610b80565b166080850152505061167e60808401846113f6565b60c060a084015261168f8182610c90565b9150602060e08501526116a761010085018383610cd5565b91505060a0840135605e198536030181126116c157600080fd5b838203601f190160c085015261142a828287016115e1565b634e487b7160e01b600052603260045260246000fdfea2646970667358221220fecb47a5b6818a49d3ad7567ff80f246986745a62667ed7846d3fed4fb9678cb64736f6c63430008170033",
  "linkReferences": {},
  "deployedLinkReferences": {}
}