{
  "_format": "hh-sol-artifact-1",
  "contractName": "FdcVerificationMock",
  "sourceName": "contracts/fdc/mock/FdcVerificationMock.sol",
  "abi": [
    {
      "inputs": [
        {
          "internalType": "contract IRelay",
          "name": "_relay",
          "type": "address"
        },
        {
          "internalType": "uint8",
          "name": "_fdcProtocolId",
          "type": "uint8"
        }
      ],
      "stateMutability": "nonpayable",
      "type": "constructor"
    },
    {
      "inputs": [],
      "name": "fdcProtocolId",
      "outputs": [
        {
          "internalType": "uint8",
          "name": "",
          "type": "uint8"
        }
      ],
      "stateMutability": "view",
      "type": "function"
    },
    {
      "inputs": [],
      "name": "relay",
      "outputs": [
        {
          "internalType": "contract IRelay",
          "name": "",
          "type": "address"
        }
      ],
      "stateMutability": "view",
      "type": "function"
    },
    {
      "inputs": [
        {
          "components": [
            {
              "internalType": "bytes32[]",
              "name": "merkleProof",
              "type": "bytes32[]"
            },
            {
              "components": [
                {
                  "internalType": "bytes32",
                  "name": "attestationType",
                  "type": "bytes32"
                },
                {
                  "internalType": "bytes32",
                  "name": "sourceId",
                  "type": "bytes32"
                },
                {
                  "internalType": "uint64",
                  "name": "votingRound",
                  "type": "uint64"
                },
                {
                  "internalType": "uint64",
                  "name": "lowestUsedTimestamp",
                  "type": "uint64"
                },
                {
                  "components": [
                    {
                      "internalType": "string",
                      "name": "addressStr",
                      "type": "string"
                    }
                  ],
                  "internalType": "struct IAddressValidity.RequestBody",
                  "name": "requestBody",
                  "type": "tuple"
                },
                {
                  "components": [
                    {
                      "internalType": "bool",
                      "name": "isValid",
                      "type": "bool"
                    },
                    {
                      "internalType": "string",
                      "name": "standardAddress",
                      "type": "string"
                    },
                    {
                      "internalType": "bytes32",
                      "name": "standardAddressHash",
                      "type": "bytes32"
                    }
                  ],
                  "internalType": "struct IAddressValidity.ResponseBody",
                  "name": "responseBody",
                  "type": "tuple"
                }
              ],
              "internalType": "struct IAddressValidity.Response",
              "name": "data",
              "type": "tuple"
            }
          ],
          "internalType": "struct IAddressValidity.Proof",
          "name": "_proof",
          "type": "tuple"
        }
      ],
      "name": "verifyAddressValidity",
      "outputs": [
        {
          "internalType": "bool",
          "name": "_proved",
          "type": "bool"
        }
      ],
      "stateMutability": "view",
      "type": "function"
    },
    {
      "inputs": [
        {
          "components": [
            {
              "internalType": "bytes32[]",
              "name": "merkleProof",
              "type": "bytes32[]"
            },
            {
              "components": [
                {
                  "internalType": "bytes32",
                  "name": "attestationType",
                  "type": "bytes32"
                },
                {
                  "internalType": "bytes32",
                  "name": "sourceId",
                  "type": "bytes32"
                },
                {
                  "internalType": "uint64",
                  "name": "votingRound",
                  "type": "uint64"
                },
                {
                  "internalType": "uint64",
                  "name": "lowestUsedTimestamp",
                  "type": "uint64"
                },
                {
                  "components": [
                    {
                      "internalType": "bytes32",
                      "name": "transactionId",
                      "type": "bytes32"
                    },
                    {
                      "internalType": "bytes32",
                      "name": "sourceAddressIndicator",
                      "type": "bytes32"
                    }
                  ],
                  "internalType": "struct IBalanceDecreasingTransaction.RequestBody",
                  "name": "requestBody",
                  "type": "tuple"
                },
                {
                  "components": [
                    {
                      "internalType": "uint64",
                      "name": "blockNumber",
                      "type": "uint64"
                    },
                    {
                      "internalType": "uint64",
                      "name": "blockTimestamp",
                      "type": "uint64"
                    },
                    {
                      "internalType": "bytes32",
                      "name": "sourceAddressHash",
                      "type": "bytes32"
                    },
                    {
                      "internalType": "int256",
                      "name": "spentAmount",
                      "type": "int256"
                    },
                    {
                      "internalType": "bytes32",
                      "name": "standardPaymentReference",
                      "type": "bytes32"
                    }
                  ],
                  "internalType": "struct IBalanceDecreasingTransaction.ResponseBody",
                  "name": "responseBody",
                  "type": "tuple"
                }
              ],
              "internalType": "struct IBalanceDecreasingTransaction.Response",
              "name": "data",
              "type": "tuple"
            }
          ],
          "internalType": "struct IBalanceDecreasingTransaction.Proof",
          "name": "_proof",
          "type": "tuple"
        }
      ],
      "name": "verifyBalanceDecreasingTransaction",
      "outputs": [
        {
          "internalType": "bool",
          "name": "_proved",
          "type": "bool"
        }
      ],
      "stateMutability": "view",
      "type": "function"
    },
    {
      "inputs": [
        {
          "components": [
            {
              "internalType": "bytes32[]",
              "name": "merkleProof",
              "type": "bytes32[]"
            },
            {
              "components": [
                {
                  "internalType": "bytes32",
                  "name": "attestationType",
                  "type": "bytes32"
                },
                {
                  "internalType": "bytes32",
                  "name": "sourceId",
                  "type": "bytes32"
                },
                {
                  "internalType": "uint64",
                  "name": "votingRound",
                  "type": "uint64"
                },
                {
                  "internalType": "uint64",
                  "name": "lowestUsedTimestamp",
                  "type": "uint64"
                },
                {
                  "components": [
                    {
                      "internalType": "uint64",
                      "name": "blockNumber",
                      "type": "uint64"
                    },
                    {
                      "internalType": "uint64",
                      "name": "queryWindow",
                      "type": "uint64"
                    }
                  ],
                  "internalType": "struct IConfirmedBlockHeightExists.RequestBody",
                  "name": "requestBody",
                  "type": "tuple"
                },
                {
                  "components": [
                    {
                      "internalType": "uint64",
                      "name": "blockTimestamp",
                      "type": "uint64"
                    },
                    {
                      "internalType": "uint64",
                      "name": "numberOfConfirmations",
                      "type": "uint64"
                    },
                    {
                      "internalType": "uint64",
                      "name": "lowestQueryWindowBlockNumber",
                      "type": "uint64"
                    },
                    {
                      "internalType": "uint64",
                      "name": "lowestQueryWindowBlockTimestamp",
                      "type": "uint64"
                    }
                  ],
                  "internalType": "struct IConfirmedBlockHeightExists.ResponseBody",
                  "name": "responseBody",
                  "type": "tuple"
                }
              ],
              "internalType": "struct IConfirmedBlockHeightExists.Response",
              "name": "data",
              "type": "tuple"
            }
          ],
          "internalType": "struct IConfirmedBlockHeightExists.Proof",
          "name": "_proof",
          "type": "tuple"
        }
      ],
      "name": "verifyConfirmedBlockHeightExists",
      "outputs": [
        {
          "internalType": "bool",
          "name": "_proved",
          "type": "bool"
        }
      ],
      "stateMutability": "view",
      "type": "function"
    },
    {
      "inputs": [
        {
          "components": [
            {
              "internalType": "bytes32[]",
              "name": "merkleProof",
              "type": "bytes32[]"
            },
            {
              "components": [
                {
                  "internalType": "bytes32",
                  "name": "attestationType",
                  "type": "bytes32"
                },
                {
                  "internalType": "bytes32",
                  "name": "sourceId",
                  "type": "bytes32"
                },
                {
                  "internalType": "uint64",
                  "name": "votingRound",
                  "type": "uint64"
                },
                {
                  "internalType": "uint64",
                  "name": "lowestUsedTimestamp",
                  "type": "uint64"
                },
                {
                  "components": [
                    {
                      "internalType": "bytes32",
                      "name": "transactionHash",
                      "type": "bytes32"
                    },
                    {
                      "internalType": "uint16",
                      "name": "requiredConfirmations",
                      "type": "uint16"
                    },
                    {
                      "internalType": "bool",
                      "name": "provideInput",
                      "type": "bool"
                    },
                    {
                      "internalType": "bool",
                      "name": "listEvents",
                      "type": "bool"
                    },
                    {
                      "internalType": "uint32[]",
                      "name": "logIndices",
                      "type": "uint32[]"
                    }
                  ],
                  "internalType": "struct IEVMTransaction.RequestBody",
                  "name": "requestBody",
                  "type": "tuple"
                },
                {
                  "components": [
                    {
                      "internalType": "uint64",
                      "name": "blockNumber",
                      "type": "uint64"
                    },
                    {
                      "internalType": "uint64",
                      "name": "timestamp",
                      "type": "uint64"
                    },
                    {
                      "internalType": "address",
                      "name": "sourceAddress",
                      "type": "address"
                    },
                    {
                      "internalType": "bool",
                      "name": "isDeployment",
                      "type": "bool"
                    },
                    {
                      "internalType": "address",
                      "name": "receivingAddress",
                      "type": "address"
                    },
                    {
                      "internalType": "uint256",
                      "name": "value",
                      "type": "uint256"
                    },
                    {
                      "internalType": "bytes",
                      "name": "input",
                      "type": "bytes"
                    },
                    {
                      "internalType": "uint8",
                      "name": "status",
                      "type": "uint8"
                    },
                    {
                      "components": [
                        {
                          "internalType": "uint32",
                          "name": "logIndex",
                          "type": "uint32"
                        },
                        {
                          "internalType": "address",
                          "name": "emitterAddress",
                          "type": "address"
                        },
                        {
                          "internalType": "bytes32[]",
                          "name": "topics",
                          "type": "bytes32[]"
                        },
                        {
                          "internalType": "bytes",
                          "name": "data",
                          "type": "bytes"
                        },
                        {
                          "internalType": "bool",
                          "name": "removed",
                          "type": "bool"
                        }
                      ],
                      "internalType": "struct IEVMTransaction.Event[]",
                      "name": "events",
                      "type": "tuple[]"
                    }
                  ],
                  "internalType": "struct IEVMTransaction.ResponseBody",
                  "name": "responseBody",
                  "type": "tuple"
                }
              ],
              "internalType": "struct IEVMTransaction.Response",
              "name": "data",
              "type": "tuple"
            }
          ],
          "internalType": "struct IEVMTransaction.Proof",
          "name": "_proof",
          "type": "tuple"
        }
      ],
      "name": "verifyEVMTransaction",
      "outputs": [
        {
          "internalType": "bool",
          "name": "_proved",
          "type": "bool"
        }
      ],
      "stateMutability": "view",
      "type": "function"
    },
    {
      "inputs": [
        {
          "components": [
            {
              "internalType": "bytes32[]",
              "name": "merkleProof",
              "type": "bytes32[]"
            },
            {
              "components": [
                {
                  "internalType": "bytes32",
                  "name": "attestationType",
                  "type": "bytes32"
                },
                {
                  "internalType": "bytes32",
                  "name": "sourceId",
                  "type": "bytes32"
                },
                {
                  "internalType": "uint64",
                  "name": "votingRound",
                  "type": "uint64"
                },
                {
                  "internalType": "uint64",
                  "name": "lowestUsedTimestamp",
                  "type": "uint64"
                },
                {
                  "components": [
                    {
                      "internalType": "string",
                      "name": "url",
                      "type": "string"
                    },
                    {
                      "internalType": "string",
                      "name": "httpMethod",
                      "type": "string"
                    },
                    {
                      "internalType": "string",
                      "name": "headers",
                      "type": "string"
                    },
                    {
                      "internalType": "string",
                      "name": "queryParams",
                      "type": "string"
                    },
                    {
                      "internalType": "string",
                      "name": "body",
                      "type": "string"
                    },
                    {
                      "internalType": "string",
                      "name": "postProcessJq",
                      "type": "string"
                    },
                    {
                      "internalType": "string",
                      "name": "abiSignature",
                      "type": "string"
                    }
                  ],
                  "internalType": "struct IWeb2Json.RequestBody",
                  "name": "requestBody",
                  "type": "tuple"
                },
                {
                  "components": [
                    {
                      "internalType": "bytes",
                      "name": "abiEncodedData",
                      "type": "bytes"
                    }
                  ],
                  "internalType": "struct IWeb2Json.ResponseBody",
                  "name": "responseBody",
                  "type": "tuple"
                }
              ],
              "internalType": "struct IWeb2Json.Response",
              "name": "data",
              "type": "tuple"
            }
          ],
          "internalType": "struct IWeb2Json.Proof",
          "name": "_proof",
          "type": "tuple"
        }
      ],
      "name": "verifyJsonApi",
      "outputs": [
        {
          "internalType": "bool",
          "name": "_proved",
          "type": "bool"
        }
      ],
      "stateMutability": "view",
      "type": "function"
    },
    {
      "inputs": [
        {
          "components": [
            {
              "internalType": "bytes32[]",
              "name": "merkleProof",
              "type": "bytes32[]"
            },
            {
              "components": [
                {
                  "internalType": "bytes32",
                  "name": "attestationType",
                  "type": "bytes32"
                },
                {
                  "internalType": "bytes32",
                  "name": "sourceId",
                  "type": "bytes32"
                },
                {
                  "internalType": "uint64",
                  "name": "votingRound",
                  "type": "uint64"
                },
                {
                  "internalType": "uint64",
                  "name": "lowestUsedTimestamp",
                  "type": "uint64"
                },
                {
                  "components": [
                    {
                      "internalType": "bytes32",
                      "name": "transactionId",
                      "type": "bytes32"
                    },
                    {
                      "internalType": "uint256",
                      "name": "inUtxo",
                      "type": "uint256"
                    },
                    {
                      "internalType": "uint256",
                      "name": "utxo",
                      "type": "uint256"
                    }
                  ],
                  "internalType": "struct IPayment.RequestBody",
                  "name": "requestBody",
                  "type": "tuple"
                },
                {
                  "components": [
                    {
                      "internalType": "uint64",
                      "name": "blockNumber",
                      "type": "uint64"
                    },
                    {
                      "internalType": "uint64",
                      "name": "blockTimestamp",
                      "type": "uint64"
                    },
                    {
                      "internalType": "bytes32",
                      "name": "sourceAddressHash",
                      "type": "bytes32"
                    },
                    {
                      "internalType": "bytes32",
                      "name": "sourceAddressesRoot",
                      "type": "bytes32"
                    },
                    {
                      "internalType": "bytes32",
                      "name": "receivingAddressHash",
                      "type": "bytes32"
                    },
                    {
                      "internalType": "bytes32",
                      "name": "intendedReceivingAddressHash",
                      "type": "bytes32"
                    },
                    {
                      "internalType": "int256",
                      "name": "spentAmount",
                      "type": "int256"
                    },
                    {
                      "internalType": "int256",
                      "name": "intendedSpentAmount",
                      "type": "int256"
                    },
                    {
                      "internalType": "int256",
                      "name": "receivedAmount",
                      "type": "int256"
                    },
                    {
                      "internalType": "int256",
                      "name": "intendedReceivedAmount",
                      "type": "int256"
                    },
                    {
                      "internalType": "bytes32",
                      "name": "standardPaymentReference",
                      "type": "bytes32"
                    },
                    {
                      "internalType": "bool",
                      "name": "oneToOne",
                      "type": "bool"
                    },
                    {
                      "internalType": "uint8",
                      "name": "status",
                      "type": "uint8"
                    }
                  ],
                  "internalType": "struct IPayment.ResponseBody",
                  "name": "responseBody",
                  "type": "tuple"
                }
              ],
              "internalType": "struct IPayment.Response",
              "name": "data",
              "type": "tuple"
            }
          ],
          "internalType": "struct IPayment.Proof",
          "name": "_proof",
          "type": "tuple"
        }
      ],
      "name": "verifyPayment",
      "outputs": [
        {
          "internalType": "bool",
          "name": "_proved",
          "type": "bool"
        }
      ],
      "stateMutability": "view",
      "type": "function"
    },
    {
      "inputs": [
        {
          "components": [
            {
              "internalType": "bytes32[]",
              "name": "merkleProof",
              "type": "bytes32[]"
            },
            {
              "components": [
                {
                  "internalType": "bytes32",
                  "name": "attestationType",
                  "type": "bytes32"
                },
                {
                  "internalType": "bytes32",
                  "name": "sourceId",
                  "type": "bytes32"
                },
                {
                  "internalType": "uint64",
                  "name": "votingRound",
                  "type": "uint64"
                },
                {
                  "internalType": "uint64",
                  "name": "lowestUsedTimestamp",
                  "type": "uint64"
                },
                {
                  "components": [
                    {
                      "internalType": "uint64",
                      "name": "minimalBlockNumber",
                      "type": "uint64"
                    },
                    {
                      "internalType": "uint64",
                      "name": "deadlineBlockNumber",
                      "type": "uint64"
                    },
                    {
                      "internalType": "uint64",
                      "name": "deadlineTimestamp",
                      "type": "uint64"
                    },
                    {
                      "internalType": "bytes32",
                      "name": "destinationAddressHash",
                      "type": "bytes32"
                    },
                    {
                      "internalType": "uint256",
                      "name": "amount",
                      "type": "uint256"
                    },
                    {
                      "internalType": "bytes32",
                      "name": "standardPaymentReference",
                      "type": "bytes32"
                    },
                    {
                      "internalType": "bool",
                      "name": "checkSourceAddresses",
                      "type": "bool"
                    },
                    {
                      "internalType": "bytes32",
                      "name": "sourceAddressesRoot",
                      "type": "bytes32"
                    }
                  ],
                  "internalType": "struct IReferencedPaymentNonexistence.RequestBody",
                  "name": "requestBody",
                  "type": "tuple"
                },
                {
                  "components": [
                    {
                      "internalType": "uint64",
                      "name": "minimalBlockTimestamp",
                      "type": "uint64"
                    },
                    {
                      "internalType": "uint64",
                      "name": "firstOverflowBlockNumber",
                      "type": "uint64"
                    },
                    {
                      "internalType": "uint64",
                      "name": "firstOverflowBlockTimestamp",
                      "type": "uint64"
                    }
                  ],
                  "internalType": "struct IReferencedPaymentNonexistence.ResponseBody",
                  "name": "responseBody",
                  "type": "tuple"
                }
              ],
              "internalType": "struct IReferencedPaymentNonexistence.Response",
              "name": "data",
              "type": "tuple"
            }
          ],
          "internalType": "struct IReferencedPaymentNonexistence.Proof",
          "name": "_proof",
          "type": "tuple"
        }
      ],
      "name": "verifyReferencedPaymentNonexistence",
      "outputs": [
        {
          "internalType": "bool",
          "name": "_proved",
          "type": "bool"
        }
      ],
      "stateMutability": "view",
      "type": "function"
    }
  ],
  "bytecode": "0x60c060405234801561001057600080fd5b506040516118b73803806118b783398101604081905261002f91610048565b6001600160a01b0390911660805260ff1660a052610094565b6000806040838503121561005b57600080fd5b82516001600160a01b038116811461007257600080fd5b602084015190925060ff8116811461008957600080fd5b809150509250929050565b60805160a05161179d61011a60003960008181609d01528181610208015281816103670152818161047e0152818161057f0152818161068a015281816107b801526108ca015260008181610137015281816101e1015281816103400152818161045701528181610558015281816106630152818161079101526108a3015261179d6000f3fe608060405234801561001057600080fd5b50600436106100935760003560e01c8063a7a3797511610066578063a7a379751461011f578063b59589d114610132578063d2d3a41f14610171578063d577275114610184578063f34ef5871461019757600080fd5b806309d2f01f1461009857806358fbe9e1146100d65780635e30ebfb146100f95780636ec659c71461010c575b600080fd5b6100bf7f000000000000000000000000000000000000000000000000000000000000000081565b60405160ff90911681526020015b60405180910390f35b6100e96100e4366004610a38565b6101aa565b60405190151581526020016100cd565b6100e9610107366004610a74565b610303565b6100e961011a366004610aaf565b61041a565b6100e961012d366004610aea565b610531565b6101597f000000000000000000000000000000000000000000000000000000000000000081565b6040516001600160a01b0390911681526020016100cd565b6100e961017f366004610a38565b610632565b6100e9610192366004610b25565b610754565b6100e96101a5366004610a38565b61086b565b60006d22ab26aa3930b739b0b1ba34b7b760911b6101cb6020840184610b60565b351480156102fd57506102fd6001600160a01b037f0000000000000000000000000000000000000000000000000000000000000000166339436b007f00000000000000000000000000000000000000000000000000000000000000006102346020870187610b60565b610245906060810190604001610b9c565b6040516001600160e01b031960e085901b16815260ff90921660048301526001600160401b03166024820152604401602060405180830381865afa158015610291573d6000803e3d6000fd5b505050506040513d601f19601f820116820180604052508101906102b59190610bb7565b6102c26020850185610b60565b6040516020016102d29190610efb565b60408051601f1981840301815291905280516020909101206102f4858061102e565b90929091610994565b92915050565b600060208201357f436f6e6669726d6564426c6f636b4865696768744578697374730000000000001480156102fd57506102fd6001600160a01b037f0000000000000000000000000000000000000000000000000000000000000000166339436b007f00000000000000000000000000000000000000000000000000000000000000006103966080870160608801610b9c565b6040516001600160e01b031960e085901b16815260ff90921660048301526001600160401b03166024820152604401602060405180830381865afa1580156103e2573d6000803e3d6000fd5b505050506040513d601f19601f820116820180604052508101906104069190610bb7565b836020016040516020016102d29190611077565b600060208201357f42616c616e636544656372656173696e675472616e73616374696f6e000000001480156102fd57506102fd6001600160a01b037f0000000000000000000000000000000000000000000000000000000000000000166339436b007f00000000000000000000000000000000000000000000000000000000000000006104ad6080870160608801610b9c565b6040516001600160e01b031960e085901b16815260ff90921660048301526001600160401b03166024820152604401602060405180830381865afa1580156104f9573d6000803e3d6000fd5b505050506040513d601f19601f8201168201806040525081019061051d9190610bb7565b836020016040516020016102d29190611164565b600060208201356614185e5b595b9d60ca1b1480156102fd57506102fd6001600160a01b037f0000000000000000000000000000000000000000000000000000000000000000166339436b007f00000000000000000000000000000000000000000000000000000000000000006105ae6080870160608801610b9c565b6040516001600160e01b031960e085901b16815260ff90921660048301526001600160401b03166024820152604401602060405180830381865afa1580156105fa573d6000803e3d6000fd5b505050506040513d601f19601f8201168201806040525081019061061e9190610bb7565b836020016040516020016102d2919061121b565b6000672bb2b1192539b7b760c11b61064d6020840184610b60565b351480156102fd57506102fd6001600160a01b037f0000000000000000000000000000000000000000000000000000000000000000166339436b007f00000000000000000000000000000000000000000000000000000000000000006106b66020870187610b60565b6106c7906060810190604001610b9c565b6040516001600160e01b031960e085901b16815260ff90921660048301526001600160401b03166024820152604401602060405180830381865afa158015610713573d6000803e3d6000fd5b505050506040513d601f19601f820116820180604052508101906107379190610bb7565b6107446020850185610b60565b6040516020016102d29190611478565b600060208201357f5265666572656e6365645061796d656e744e6f6e6578697374656e63650000001480156102fd57506102fd6001600160a01b037f0000000000000000000000000000000000000000000000000000000000000000166339436b007f00000000000000000000000000000000000000000000000000000000000000006107e76080870160608801610b9c565b6040516001600160e01b031960e085901b16815260ff90921660048301526001600160401b03166024820152604401602060405180830381865afa158015610833573d6000803e3d6000fd5b505050506040513d601f19601f820116820180604052508101906108579190610bb7565b836020016040516020016102d29190611564565b60006e4164647265737356616c696469747960881b61088d6020840184610b60565b351480156102fd57506102fd6001600160a01b037f0000000000000000000000000000000000000000000000000000000000000000166339436b007f00000000000000000000000000000000000000000000000000000000000000006108f66020870187610b60565b610907906060810190604001610b9c565b6040516001600160e01b031960e085901b16815260ff90921660048301526001600160401b03166024820152604401602060405180830381865afa158015610953573d6000803e3d6000fd5b505050506040513d601f19601f820116820180604052508101906109779190610bb7565b6109846020850185610b60565b6040516020016102d291906116a7565b6000826109a28686856109ac565b1495945050505050565b600081815b848110156109e5576109db828787848181106109cf576109cf611751565b905060200201356109ee565b91506001016109b1565b50949350505050565b6000818310610a0a576000828152602084905260409020610a19565b60008381526020839052604090205b9392505050565b600060408284031215610a3257600080fd5b50919050565b600060208284031215610a4a57600080fd5b81356001600160401b03811115610a6057600080fd5b610a6c84828501610a20565b949350505050565b600060208284031215610a8657600080fd5b81356001600160401b03811115610a9c57600080fd5b82016101608185031215610a1957600080fd5b600060208284031215610ac157600080fd5b81356001600160401b03811115610ad757600080fd5b82016101808185031215610a1957600080fd5b600060208284031215610afc57600080fd5b81356001600160401b03811115610b1257600080fd5b82016102a08185031215610a1957600080fd5b600060208284031215610b3757600080fd5b81356001600160401b03811115610b4d57600080fd5b82016102008185031215610a1957600080fd5b6000823560be19833603018112610b7657600080fd5b9190910192915050565b80356001600160401b0381168114610b9757600080fd5b919050565b600060208284031215610bae57600080fd5b610a1982610b80565b600060208284031215610bc957600080fd5b5051919050565b60008235609e19833603018112610be657600080fd5b90910192915050565b80358015158114610b9757600080fd5b6000808335601e19843603018112610c1657600080fd5b83016020810192503590506001600160401b03811115610c3557600080fd5b8060051b3603821315610c4757600080fd5b9250929050565b803563ffffffff81168114610b9757600080fd5b6000823561011e19833603018112610be657600080fd5b80356001600160a01b0381168114610b9757600080fd5b6000808335601e19843603018112610ca757600080fd5b83016020810192503590506001600160401b03811115610cc657600080fd5b803603821315610c4757600080fd5b81835281816020850137506000828201602090810191909152601f909101601f19169091010190565b803560ff81168114610b9757600080fd5b60008383855260208501945060208460051b8201018360005b86811015610e0157838303601f19018852610d438287610bd0565b63ffffffff610d5182610c4e565b1684526001600160a01b03610d6860208301610c79565b166020850152610d7b6040820182610bff565b60a06040870181905286018190526001600160fb1b03811115610d9d57600080fd5b60051b808260c088013785019050610db86060830183610c90565b60c0878403016060880152610dd160c084018284610cd5565b92505050610de160808301610bef565b151560809590950194909452506020978801979190910190600101610d28565b50909695505050505050565b610e2782610e1a83610b80565b6001600160401b03169052565b6000610e3560208301610b80565b6001600160401b03166020840152610e4f60408301610c79565b6001600160a01b03166040840152610e6960608301610bef565b15156060840152610e7c60808301610c79565b6001600160a01b0316608084015260a08281013590840152610ea160c0830183610c90565b61012060c0860152610eb861012086018284610cd5565b915050610ec760e08401610cfe565b60ff1660e0850152610edd610100840184610bff565b858303610100870152610ef1838284610d0f565b9695505050505050565b60208082528235828201528201356040808301919091526000906001600160401b0390610f29908501610b80565b1660608301526001600160401b03610f4360608501610b80565b166080830152610f566080840184610bd0565b60c060a0840152803560e08401526101808301602082013561ffff8116808214610f7f57600080fd5b61010086015250610f9260408301610bef565b1515610120850152610fa660608301610bef565b1515610140850152610fbb6080830183610bff565b60a06101608701529182905290915060006101a085015b83821015610ffe5763ffffffff610fe884610c4e565b1681526020928301926001929092019101610fd2565b61100b60a0880188610c62565b868203601f190160c088015293506110238185610e0d565b979650505050505050565b6000808335601e1984360301811261104557600080fd5b8301803591506001600160401b0382111561105f57600080fd5b6020019150600581901b3603821315610c4757600080fd5b813581526020808301359082015261014081016001600160401b0361109e60408501610b80565b1660408301526001600160401b036110b860608501610b80565b1660608301526001600160401b036110d260808501610b80565b1660808301526001600160401b036110ec60a08501610b80565b1660a08301526001600160401b0361110660c08501610b80565b1660c08301526001600160401b0361112060e08501610b80565b1660e08301526001600160401b0361113b6101008501610b80565b166101008301526001600160401b036111576101208501610b80565b1661012083015292915050565b813581526020808301359082015261016081016001600160401b0361118b60408501610b80565b1660408301526001600160401b036111a560608501610b80565b1660608301526080838101359083015260a080840135908301526001600160401b036111d360c08501610b80565b1660c08301526001600160401b036111ed60e08501610b80565b1660e08301526101008381013590830152610120808401359083015261014092830135929091019190915290565b813581526020808301359082015261028081016001600160401b0361124260408501610b80565b1660408301526001600160401b0361125c60608501610b80565b1660608301526080838101359083015260a0808401359083015260c0808401359083015261129460e080840190610e1a908601610b80565b6112a16101008401610b80565b6001600160401b031661010083015261012083810135908301526101408084013590830152610160808401359083015261018080840135908301526101a080840135908301526101c080840135908301526101e08084013590830152610200808401359083015261022080840135908301526113206102408401610bef565b15156102408301526113356102608401610cfe565b60ff81166102608401525092915050565b60006113528283610c90565b60e0855261136460e086018284610cd5565b9150506113746020840184610c90565b8583036020870152611387838284610cd5565b925050506113986040840184610c90565b85830360408701526113ab838284610cd5565b925050506113bc6060840184610c90565b85830360608701526113cf838284610cd5565b925050506113e06080840184610c90565b85830360808701526113f3838284610cd5565b9250505061140460a0840184610c90565b85830360a0870152611417838284610cd5565b9250505061142860c0840184610c90565b85830360c0870152610ef1838284610cd5565b60008235601e19833603018112610be657600080fd5b600061145d8283610c90565b6020855261146f602086018284610cd5565b95945050505050565b60208082528235828201528201356040808301919091526000906001600160401b03906114a6908501610b80565b1660608301526001600160401b036114c060608501610b80565b166080830152608083013560de198436030181126114dd57600080fd5b60c060a08401526114f360e08401858301611346565b905061150260a085018561143b565b838203601f190160c085015261146f8282611451565b6001600160401b0361152982610b80565b1682526001600160401b0361154060208301610b80565b1660208301526001600160401b0361155a60408301610b80565b1660408301525050565b81358152602080830135908201526101e081016001600160401b0361158b60408501610b80565b1660408301526001600160401b036115a560608501610b80565b1660608301526001600160401b036115bf60808501610b80565b1660808301526001600160401b036115d960a08501610b80565b1660a08301526001600160401b036115f360c08501610b80565b1660c083015260e08381013590830152610100808401359083015261012080840135908301526116266101408401610bef565b151561014083015261016083810135908301526102fd610180808401908501611518565b60008235605e19833603018112610be657600080fd5b61166981610bef565b15158252600061167c6020830183610c90565b60606020860152611691606086018284610cd5565b6040948501359590940194909452509092915050565b60208082528235828201528201356040808301919091526000906001600160401b03906116d5908501610b80565b1660608301526001600160401b036116ef60608501610b80565b166080830152611702608084018461143b565b60c060a08401526117138182610c90565b9150602060e085015261172b61010085018383610cd5565b91505061173b60a085018561164a565b838203601f190160c085015261146f8282611660565b634e487b7160e01b600052603260045260246000fdfea2646970667358221220d8f7579a9df5dede3b1e5d992bb7842554a18151c99a845793e2d1a3d999d6cd64736f6c634300081b0033",
  "linkReferences": {},
  "deployedLinkReferences": {}
}