{
  "_format": "hh-sol-artifact-1",
  "contractName": "Liquidator",
  "sourceName": "liquidator/contracts/Liquidator.sol",
  "abi": [
    {
      "inputs": [
        {
          "internalType": "address",
          "name": "_flashLender",
          "type": "address"
        },
        {
          "internalType": "address",
          "name": "_dex",
          "type": "address"
        }
      ],
      "stateMutability": "nonpayable",
      "type": "constructor"
    },
    {
      "anonymous": false,
      "inputs": [
        {
          "indexed": true,
          "internalType": "address",
          "name": "previousOwner",
          "type": "address"
        },
        {
          "indexed": true,
          "internalType": "address",
          "name": "newOwner",
          "type": "address"
        }
      ],
      "name": "OwnershipTransferred",
      "type": "event"
    },
    {
      "inputs": [],
      "name": "dex",
      "outputs": [
        {
          "internalType": "address",
          "name": "",
          "type": "address"
        }
      ],
      "stateMutability": "view",
      "type": "function"
    },
    {
      "inputs": [],
      "name": "flashLender",
      "outputs": [
        {
          "internalType": "address",
          "name": "",
          "type": "address"
        }
      ],
      "stateMutability": "view",
      "type": "function"
    },
    {
      "inputs": [
        {
          "internalType": "uint256",
          "name": "_maxSlippageBipsDex1",
          "type": "uint256"
        },
        {
          "internalType": "uint256",
          "name": "_maxSlippageBipsDex2",
          "type": "uint256"
        },
        {
          "internalType": "address",
          "name": "_agentVault",
          "type": "address"
        }
      ],
      "name": "maxSlippageToMinPrices",
      "outputs": [
        {
          "internalType": "uint256",
          "name": "",
          "type": "uint256"
        },
        {
          "internalType": "uint256",
          "name": "",
          "type": "uint256"
        },
        {
          "internalType": "uint256",
          "name": "",
          "type": "uint256"
        },
        {
          "internalType": "uint256",
          "name": "",
          "type": "uint256"
        }
      ],
      "stateMutability": "view",
      "type": "function"
    },
    {
      "inputs": [
        {
          "internalType": "address",
          "name": "",
          "type": "address"
        },
        {
          "internalType": "address",
          "name": "_token",
          "type": "address"
        },
        {
          "internalType": "uint256",
          "name": "_amount",
          "type": "uint256"
        },
        {
          "internalType": "uint256",
          "name": "_fee",
          "type": "uint256"
        },
        {
          "internalType": "bytes",
          "name": "_data",
          "type": "bytes"
        }
      ],
      "name": "onFlashLoan",
      "outputs": [
        {
          "internalType": "bytes32",
          "name": "",
          "type": "bytes32"
        }
      ],
      "stateMutability": "nonpayable",
      "type": "function"
    },
    {
      "inputs": [],
      "name": "owner",
      "outputs": [
        {
          "internalType": "address",
          "name": "",
          "type": "address"
        }
      ],
      "stateMutability": "view",
      "type": "function"
    },
    {
      "inputs": [],
      "name": "renounceOwnership",
      "outputs": [],
      "stateMutability": "nonpayable",
      "type": "function"
    },
    {
      "inputs": [
        {
          "internalType": "address",
          "name": "_agentVault",
          "type": "address"
        },
        {
          "internalType": "address",
          "name": "_profitTo",
          "type": "address"
        },
        {
          "components": [
            {
              "internalType": "address",
              "name": "flashLender",
              "type": "address"
            },
            {
              "internalType": "uint256",
              "name": "maxFlashFeeBips",
              "type": "uint256"
            },
            {
              "internalType": "address",
              "name": "dex",
              "type": "address"
            },
            {
              "components": [
                {
                  "internalType": "address[]",
                  "name": "path",
                  "type": "address[]"
                },
                {
                  "internalType": "uint256",
                  "name": "minPriceMul",
                  "type": "uint256"
                },
                {
                  "internalType": "uint256",
                  "name": "minPriceDiv",
                  "type": "uint256"
                }
              ],
              "internalType": "struct DexPairConfig",
              "name": "dexPair1",
              "type": "tuple"
            },
            {
              "components": [
                {
                  "internalType": "address[]",
                  "name": "path",
                  "type": "address[]"
                },
                {
                  "internalType": "uint256",
                  "name": "minPriceMul",
                  "type": "uint256"
                },
                {
                  "internalType": "uint256",
                  "name": "minPriceDiv",
                  "type": "uint256"
                }
              ],
              "internalType": "struct DexPairConfig",
              "name": "dexPair2",
              "type": "tuple"
            }
          ],
          "internalType": "struct ArbitrageConfig",
          "name": "_config",
          "type": "tuple"
        }
      ],
      "name": "runArbitrage",
      "outputs": [],
      "stateMutability": "nonpayable",
      "type": "function"
    },
    {
      "inputs": [
        {
          "internalType": "address",
          "name": "newOwner",
          "type": "address"
        }
      ],
      "name": "transferOwnership",
      "outputs": [],
      "stateMutability": "nonpayable",
      "type": "function"
    },
    {
      "inputs": [],
      "name": "withdrawNat",
      "outputs": [],
      "stateMutability": "nonpayable",
      "type": "function"
    },
    {
      "inputs": [
        {
          "internalType": "contract IERC20",
          "name": "token",
          "type": "address"
        }
      ],
      "name": "withdrawToken",
      "outputs": [],
      "stateMutability": "nonpayable",
      "type": "function"
    }
  ],
  "bytecode": "0x60c060405234801561001057600080fd5b506040516145bd3803806145bd83398101604081905261002f916100bb565b6100383361004f565b6001600160a01b039182166080521660a0526100ee565b600080546001600160a01b038381166001600160a01b0319831681178455604051919092169283917f8be0079c531659141344cd1fd0a4f28419497f9722a3daafe3b4186f6b6457e09190a35050565b80516001600160a01b03811681146100b657600080fd5b919050565b600080604083850312156100ce57600080fd5b6100d78361009f565b91506100e56020840161009f565b90509250929050565b60805160a0516144966101276000396000818160ee0152818161066f015261128c01526000818161015b015261124d01526144966000f3fe608060405234801561001057600080fd5b50600436106100be5760003560e01c8063a771445811610076578063ca2196bf1161005b578063ca2196bf146101b0578063d2fba798146101b8578063f2fde38b146101cb57600080fd5b8063a771445814610156578063ae4058601461017d57600080fd5b8063715018a6116100a7578063715018a61461012857806389476069146101325780638da5cb5b1461014557600080fd5b806323e30c8b146100c3578063692058c2146100e9575b600080fd5b6100d66100d1366004613772565b6101de565b6040519081526020015b60405180910390f35b6101107f000000000000000000000000000000000000000000000000000000000000000081565b6040516001600160a01b0390911681526020016100e0565b6101306105ad565b005b61013061014036600461381f565b6105c1565b6000546001600160a01b0316610110565b6101107f000000000000000000000000000000000000000000000000000000000000000081565b61019061018b36600461383c565b610668565b6040805194855260208501939093529183015260608201526080016100e0565b6101306106e2565b6101306101c6366004613875565b610724565b6101306101d936600461381f565b610744565b6000600160005474010000000000000000000000000000000000000000900460ff166002811115610211576102116138d3565b146102895760405162461bcd60e51b815260206004820152602d60248201527f4c697175696461746f723a20466c617368206c6f616e207769746820696e766160448201527f6c696420696e69746961746f720000000000000000000000000000000000000060648201526084015b60405180910390fd5b600080547fffffffffffffffffffffff00ffffffffffffffffffffffffffffffffffffffff16740200000000000000000000000000000000000000001790556040516102d89084908490613902565b60405190819003902060015460081b7fffffffffffffffffffffffffffffffffffffffffffffffffffffffffffffff009081169116146103805760405162461bcd60e51b815260206004820152602c60248201527f4c697175696461746f723a20466c617368206c656e646572207061737365642060448201527f696e76616c6964206461746100000000000000000000000000000000000000006064820152608401610280565b6000808061039085870187613b6f565b9250925092506127108882602001516103a99190613c00565b6103b39190613c46565b8711156104285760405162461bcd60e51b815260206004820152602c60248201527f4c697175696461746f723a20466c617368206c656e646572207061737365642060448201527f746f6f20686967682066656500000000000000000000000000000000000000006064820152608401610280565b606081015151805160009061043f5761043f613c81565b60200260200101516001600160a01b0316896001600160a01b0316146104cd5760405162461bcd60e51b815260206004820152602d60248201527f4c697175696461746f723a20466c617368206c656e646572207061737365642060448201527f696e76616c696420746f6b656e000000000000000000000000000000000000006064820152608401610280565b6104d9888484846107d1565b80516001600160a01b038a169063095ea7b3906104f68a8c613cb0565b6040517fffffffff0000000000000000000000000000000000000000000000000000000060e085901b1681526001600160a01b03909216600483015260248201526044016020604051808303816000875af1158015610559573d6000803e3d6000fd5b505050506040513d601f19601f8201168201806040525081019061057d9190613cd8565b507f439148f0bbc682ca079e46d6e2c2f0c1e3b820f1a291b069d8882abf8cf18dd99a9950505050505050505050565b6105b5610bca565b6105bf6000610c24565b565b6105c9610bca565b610665816105df6000546001600160a01b031690565b6040517f70a082310000000000000000000000000000000000000000000000000000000081523060048201526001600160a01b038516906370a0823190602401602060405180830381865afa15801561063c573d6000803e3d6000fd5b505050506040513d601f19601f820116820180604052508101906106609190613cf3565b610c8c565b50565b60008080807f00000000000000000000000000000000000000000000000000000000000000008161069887610d0c565b90506000806106b1848c856060015186604001516111dd565b915091506000806106cc868d876080015188606001516111dd565b949e939d509b5092995090975050505050505050565b6106ea610bca565b600080546040516001600160a01b03909116914780156108fc02929091818181858888f19350505050158015610665573d6000803e3d6000fd5b61072c610bca565b61073f838361073a84613d0c565b611234565b505050565b61074c610bca565b6001600160a01b0381166107c85760405162461bcd60e51b815260206004820152602660248201527f4f776e61626c653a206e6577206f776e657220697320746865207a65726f206160448201527f64647265737300000000000000000000000000000000000000000000000000006064820152608401610280565b61066581610c24565b60608060008360600151600001516000815181106107f1576107f1613c81565b60200260200101519050600084608001516000015160008151811061081857610818613c81565b602090810291909101015160408087015190517f095ea7b30000000000000000000000000000000000000000000000000000000081526001600160a01b039182166004820152602481018b905291925083169063095ea7b3906044016020604051808303816000875af1158015610893573d6000803e3d6000fd5b505050506040513d601f19601f820116820180604052508101906108b79190613cd8565b506108f5886108d78a886060015160200151896060015160400151611717565b60608801515160408901516001600160a01b03169291903042611738565b60408781015190517f095ea7b30000000000000000000000000000000000000000000000000000000081526001600160a01b039182166004820152600060248201529196509194509083169063095ea7b3906044016020604051808303816000875af1158015610969573d6000803e3d6000fd5b505050506040513d601f19601f8201168201806040525081019061098d9190613cd8565b506000846001865161099f9190613d18565b815181106109af576109af613c81565b60209081029190910101516040517fbcbaf4870000000000000000000000000000000000000000000000000000000081526001600160a01b038981166004830152602482018390529192506000918a169063bcbaf487906044016060604051808303816000875af1158015610a28573d6000803e3d6000fd5b505050506040513d601f19601f82011682018060405250810190610a4c9190613d2b565b92505081159050610bbe5760408781015190517f095ea7b30000000000000000000000000000000000000000000000000000000081526001600160a01b039182166004820152602481018390529084169063095ea7b3906044016020604051808303816000875af1158015610ac5573d6000803e3d6000fd5b505050506040513d601f19601f82011682018060405250810190610ae99190613cd8565b50610b2781610b09838a60800151602001518b6080015160400151611717565b60808a01515160408b01516001600160a01b03169291903042611738565b60408981015190517f095ea7b30000000000000000000000000000000000000000000000000000000081526001600160a01b039182166004820152600060248201529198508516915063095ea7b3906044016020604051808303816000875af1158015610b98573d6000803e3d6000fd5b505050506040513d601f19601f82011682018060405250810190610bbc9190613cd8565b505b50505050505050505050565b6000546001600160a01b031633146105bf5760405162461bcd60e51b815260206004820181905260248201527f4f776e61626c653a2063616c6c6572206973206e6f7420746865206f776e65726044820152606401610280565b600080546001600160a01b038381167fffffffffffffffffffffffff0000000000000000000000000000000000000000831681178455604051919092169283917f8be0079c531659141344cd1fd0a4f28419497f9722a3daafe3b4186f6b6457e09190a35050565b604080516001600160a01b038416602482015260448082018490528251808303909101815260649091019091526020810180517bffffffffffffffffffffffffffffffffffffffffffffffffffffffff167fa9059cbb0000000000000000000000000000000000000000000000000000000017905261073f908490611993565b610db960405180610200016040528060006001600160a01b0316815260200160006001600160a01b0316815260200160006001600160a01b0316815260200160006001600160a01b0316815260200160006001600160a01b0316815260200160008152602001600081526020016000815260200160008152602001600081526020016000815260200160008152602001606081526020016060815260200160608152602001606081525090565b6000826001600160a01b03166394217ad16040518163ffffffff1660e01b8152600401602060405180830381865afa158015610df9573d6000803e3d6000fd5b505050506040513d601f19601f82011682018060405250810190610e1d9190613d59565b6001600160a01b03808216808552908516602080860191909152604080517f7c7db1a500000000000000000000000000000000000000000000000000000000815290519394509192637c7db1a59260048082019392918290030181865afa158015610e8c573d6000803e3d6000fd5b505050506040513d601f19601f82011682018060405250810190610eb09190613d59565b82604001906001600160a01b031690816001600160a01b031681525050806001600160a01b031663b5a488a66040518163ffffffff1660e01b8152600401602060405180830381865afa158015610f0b573d6000803e3d6000fd5b505050506040513d601f19601f82011682018060405250810190610f2f9190613d59565b82608001906001600160a01b031690816001600160a01b031681525050806001600160a01b031663531090f36040518163ffffffff1660e01b8152600401602060405180830381865afa158015610f8a573d6000803e3d6000fd5b505050506040513d601f19601f82011682018060405250810190610fae9190613cf3565b82610100018181525050806001600160a01b031663410418f16040518163ffffffff1660e01b8152600401602060405180830381865afa158015610ff6573d6000803e3d6000fd5b505050506040513d601f19601f8201168201806040525081019061101a9190613cf3565b6101208301526040517f5f0169060000000000000000000000000000000000000000000000000000000081526001600160a01b038481166004830152821690635f01690690602401602060405180830381865afa15801561107f573d6000803e3d6000fd5b505050506040513d601f19601f820116820180604052508101906110a39190613d59565b6001600160a01b0390811660608401526040517f529cc2b900000000000000000000000000000000000000000000000000000000815284821660048201529082169063529cc2b990602401606060405180830381865afa15801561110b573d6000803e3d6000fd5b505050506040513d601f19601f8201168201806040525081019061112f9190613d2b565b60a085015260e084015260c0830152604080517f49b5fdb400000000000000000000000000000000000000000000000000000000815290516111cb9184916001600160a01b038516916349b5fdb49160048083019260209291908290030181865afa1580156111a2573d6000803e3d6000fd5b505050506040513d601f19601f820116820180604052508101906111c69190613d59565b611a7b565b61016084015261014083015250919050565b60008080806111f66001600160a01b0389168787611d24565b9092509050600061120988612710613d18565b6112139083613c00565b9050600061122384612710613c00565b919a91995090975050505050505050565b80516001600160a01b0316611270576001600160a01b037f00000000000000000000000000000000000000000000000000000000000000001681525b60408101516001600160a01b03166112b2576001600160a01b037f00000000000000000000000000000000000000000000000000000000000000001660408201525b6000836001600160a01b03166394217ad16040518163ffffffff1660e01b8152600401602060405180830381865afa1580156112f2573d6000803e3d6000fd5b505050506040513d601f19601f820116820180604052508101906113169190613d59565b6040517fe1c501000000000000000000000000000000000000000000000000000000000081526001600160a01b0386811660048301529192509082169063e1c50100906024016020604051808303816000875af1925050508015611397575060408051601f3d908101601f1916820190925261139491810190613cf3565b60015b1561139e57505b60006113a985610d0c565b90506113c683606001516000015182606001518360400151611f4d565b8360600151600001819052506113ed83608001516000015182608001518360600151611f4d565b6080840151526040830151606084015151611408919061202f565b6101808201526040830151608084015151611423919061202f565b6101a0820152606083810151516101c08301526080840151516101e08301528101516040517f70a082310000000000000000000000000000000000000000000000000000000081523060048201526000916001600160a01b0316906370a0823190602401602060405180830381865afa1580156114a4573d6000803e3d6000fd5b505050506040513d601f19601f820116820180604052508101906114c89190613cf3565b60808301516040517f70a082310000000000000000000000000000000000000000000000000000000081523060048201529192506000916001600160a01b03909116906370a0823190602401602060405180830381865afa158015611531573d6000803e3d6000fd5b505050506040513d601f19601f820116820180604052508101906115559190613cf3565b90506115618584612163565b60608301516040517f70a082310000000000000000000000000000000000000000000000000000000081523060048201526000916001600160a01b0316906370a0823190602401602060405180830381865afa1580156115c5573d6000803e3d6000fd5b505050506040513d601f19601f820116820180604052508101906115e99190613cf3565b60808501516040517f70a082310000000000000000000000000000000000000000000000000000000081523060048201529192506000916001600160a01b03909116906370a0823190602401602060405180830381865afa158015611652573d6000803e3d6000fd5b505050506040513d601f19601f820116820180604052508101906116769190613cf3565b90508382101580156116885750828110155b6116fa5760405162461bcd60e51b815260206004820152603b60248201527f4c697175696461746f723a204e656761746976652070726f66697420776f756c60448201527f6420646563726561736520636f6e74726163742062616c616e636500000000006064820152608401610280565b60006117068584613d18565b9050610bbe86606001518a83610c8c565b6000816117248486613c00565b61172e9190613c46565b90505b9392505050565b606080876001600160a01b03166338ed173988888888886040518663ffffffff1660e01b815260040161176f959493929190613d81565b6000604051808303816000875af19250505080156117af57506040513d6000823e601f3d908101601f191682016040526117ac9190810190613e5b565b60015b611982573d8080156117dd576040519150601f19603f3d011682016040523d82523d6000602084013e6117e2565b606091505b508051156117ef82612661565b9061180d5760405162461bcd60e51b81526004016102809190613f14565b506040517f38ed17390000000000000000000000000000000000000000000000000000000081526001600160a01b038a16906338ed17399061185b908b908b908b908b908b90600401613d81565b6000604051808303816000875af192505050801561189b57506040513d6000823e601f3d908101601f191682016040526118989190810190613f27565b60015b611968573d8080156118c9576040519150601f19603f3d011682016040523d82523d6000602084013e6118ce565b606091505b508051156118db82612661565b906118f95760405162461bcd60e51b81526004016102809190613f14565b5060405162461bcd60e51b815260206004820152602a60248201527f556e697377617056323a20737761704578616374546f6b656e73466f72546f6b60448201527f656e73206661696c6564000000000000000000000000000000000000000000006064820152608401610280565b604080516000815260208101909152935091506119889050565b90925090505b965096945050505050565b60006119e8826040518060400160405280602081526020017f5361666545524332303a206c6f772d6c6576656c2063616c6c206661696c6564815250856001600160a01b03166127499092919063ffffffff16565b9050805160001480611a09575080806020019051810190611a099190613cd8565b61073f5760405162461bcd60e51b815260206004820152602a60248201527f5361666545524332303a204552433230206f7065726174696f6e20646964206e60448201527f6f742073756363656564000000000000000000000000000000000000000000006064820152608401610280565b6000806000611a97856000015186606001518760800151612758565b80516040517f524f388900000000000000000000000000000000000000000000000000000000815291925060009182916001600160a01b0388169163524f388991611ae491600401613f14565b606060405180830381865afa158015611b01573d6000803e3d6000fd5b505050506040513d601f19601f82011682018060405250810190611b259190613d2b565b9250509150600080876001600160a01b031663524f388986602001516040518263ffffffff1660e01b8152600401611b5d9190613f14565b606060405180830381865afa158015611b7a573d6000803e3d6000fd5b505050506040513d601f19601f82011682018060405250810190611b9e9190613d2b565b9250509150600080896001600160a01b031663524f388988604001516040518263ffffffff1660e01b8152600401611bd69190613f14565b606060405180830381865afa158015611bf3573d6000803e3d6000fd5b505050506040513d601f19601f82011682018060405250810190611c179190613d2b565b9250509150611c978b606001516001600160a01b031663313ce5676040518163ffffffff1660e01b8152600401602060405180830381865afa158015611c61573d6000803e3d6000fd5b505050506040513d601f19601f82011682018060405250810190611c859190613f5c565b60ff1685858e61012001518a8a6128a7565b611d128c608001516001600160a01b031663313ce5676040518163ffffffff1660e01b8152600401602060405180830381865afa158015611cdc573d6000803e3d6000fd5b505050506040513d601f19601f82011682018060405250810190611d009190613f5c565b60ff1684848f61012001518b8b6128a7565b98509850505050505050509250929050565b6040517fd52bb6f40000000000000000000000000000000000000000000000000000000081526001600160a01b0383811660048301528281166024830152600091829186169063d52bb6f4906044016040805180830381865afa925050508015611dab575060408051601f3d908101601f19168201909252611da891810190613f7f565b60015b611f3f573d808015611dd9576040519150601f19603f3d011682016040523d82523d6000602084013e611dde565b606091505b50805115611deb82612661565b90611e095760405162461bcd60e51b81526004016102809190613f14565b506040517f7f6f21780000000000000000000000000000000000000000000000000000000081526001600160a01b0386811660048301528581166024830152871690637f6f2178906044016040805180830381865afa925050508015611e8c575060408051601f3d908101601f19168201909252611e8991810190613f7f565b60015b611f33573d808015611eba576040519150601f19603f3d011682016040523d82523d6000602084013e611ebf565b606091505b50805115611ecc82612661565b90611eea5760405162461bcd60e51b81526004016102809190613f14565b5060405162461bcd60e51b815260206004820152601d60248201527f556e697377617056323a206765745265736572766573206661696c65640000006044820152606401610280565b9093509150611f459050565b90925090505b935093915050565b60608351600003611f6957611f628383612917565b9050611731565b826001600160a01b031684600081518110611f8657611f86613c81565b60200260200101516001600160a01b0316148015611fdb5750816001600160a01b03168460018651611fb89190613d18565b81518110611fc857611fc8613c81565b60200260200101516001600160a01b0316145b6120275760405162461bcd60e51b815260206004820152601e60248201527f4c697175696461746f723a20496e76616c696420746f6b656e207061746800006044820152606401610280565b509192915050565b60606001825161203f9190613d18565b67ffffffffffffffff81111561205757612057613912565b60405190808252806020026020018201604052801561209c57816020015b60408051808201909152600080825260208201528152602001906001900390816120755790505b50905060005b600183516120b09190613d18565b81101561215c576121138382815181106120cc576120cc613c81565b6020026020010151848360016120e29190613cb0565b815181106120f2576120f2613c81565b6020026020010151866001600160a01b0316611d249092919063ffffffff16565b83838151811061212557612125613c81565b602002602001015160000184848151811061214257612142613c81565b6020908102919091018101510191909152526001016120a2565b5092915050565b6000805474010000000000000000000000000000000000000000900460ff166002811115612193576121936138d3565b146121e05760405162461bcd60e51b815260206004820152601e60248201527f4c697175696461746f723a205265656e7472616e637920626c6f636b656400006044820152606401610280565b600080547fffffffffffffffffffffff00ffffffffffffffffffffffffffffffffffffffff167401000000000000000000000000000000000000000017905560a08101516122965760405162461bcd60e51b815260206004820152602360248201527f4c697175696461746f723a204e6f20662d617373657420746f206c697175696460448201527f61746500000000000000000000000000000000000000000000000000000000006064820152608401610280565b815160608201516040517f613255ab0000000000000000000000000000000000000000000000000000000081526001600160a01b039182166004820152600092919091169063613255ab90602401602060405180830381865afa158015612301573d6000803e3d6000fd5b505050506040513d601f19601f820116820180604052508101906123259190613cf3565b90506000811161239d5760405162461bcd60e51b815260206004820152602260248201527f4c697175696461746f723a20466c617368206c6f616e20756e617661696c616260448201527f6c650000000000000000000000000000000000000000000000000000000000006064820152608401610280565b60006123a8836129a5565b9050600081116123fa5760405162461bcd60e51b815260206004820152601f60248201527f4c697175696461746f723a204e6f2070726f66697420617661696c61626c65006044820152606401610280565b600083600001518460200151866040516020016124199392919061400e565b60405160208183030381529060405290508080519060200120600160006101000a8154817effffffffffffffffffffffffffffffffffffffffffffffffffffffffffffff021916908360081c021790555084600001516001600160a01b0316635cffe9de30866060015161248d8787612a2f565b856040518563ffffffff1660e01b81526004016124ad94939291906140b4565b6020604051808303816000875af11580156124cc573d6000803e3d6000fd5b505050506040513d601f19601f820116820180604052508101906124f09190613cd8565b50606084015185516040517f095ea7b30000000000000000000000000000000000000000000000000000000081526001600160a01b0391821660048201526000602482015291169063095ea7b3906044016020604051808303816000875af1158015612560573d6000803e3d6000fd5b505050506040513d601f19601f820116820180604052508101906125849190613cd8565b5060029250612591915050565b60005474010000000000000000000000000000000000000000900460ff1660028111156125c0576125c06138d3565b14612635576040805162461bcd60e51b81526020600482015260248101919091527f4c697175696461746f723a205265656e7472616e637920626c6f636b6564206f60448201527f7220666c617368206c6f616e207265636569766572206e6f742063616c6c65646064820152608401610280565b5050600080547fffffffffffffffffffffff00ffffffffffffffffffffffffffffffffffffffff169055565b60606000600483516126739190613d18565b67ffffffffffffffff81111561268b5761268b613912565b6040519080825280601f01601f1916602001820160405280156126b5576020820181803683370190505b50905060005b815181101561273457836126d0826004613cb0565b815181106126e0576126e0613c81565b602001015160f81c60f81b8282815181106126fd576126fd613c81565b60200101907effffffffffffffffffffffffffffffffffffffffffffffffffffffffffffff1916908160001a9053506001016126bb565b5080806020019051810190611731919061414f565b606061172e8484600085612a45565b61277c60405180606001604052806060815260200160608152602001606081525090565b6040517f4610bc230000000000000000000000000000000000000000000000000000000081526000906001600160a01b03861690634610bc23906127c7906002908890600401614184565b600060405180830381865afa1580156127e4573d6000803e3d6000fd5b505050506040513d6000823e601f3d908101601f1916820160405261280c91908101906141e6565b90506000856001600160a01b0316634610bc236001866040518363ffffffff1660e01b815260040161283f929190614184565b600060405180830381865afa15801561285c573d6000803e3d6000fd5b505050506040513d6000823e601f3d908101601f1916820160405261288491908101906141e6565b60a0830151845260c0928301516020850152909101516040830152509392505050565b60008060096128b6878a613cb0565b6128c09190613cb0565b905060006128ce8487613cb0565b9050808210156128e0576128e06142e2565b876128eb8284613d18565b6128f690600a61442c565b6129009087613c00565b61290a9190613c46565b9998505050505050505050565b60408051600280825260608083018452926000929190602083019080368337019050509050838160008151811061295057612950613c81565b60200260200101906001600160a01b031690816001600160a01b031681525050828160018151811061298457612984613c81565b6001600160a01b039092166020928302919091019091015290505b92915050565b60008060018361018001515111806129c357506001836101a0015151115b90506000816129da576129d584612b39565b6129e3565b6129e384612d6d565b9050806000036129f7575060009392505050565b6000612a15612a0b83876101000151612ebc565b8660a00151612a2f565b9050612a2681866101800151612ec8565b95945050505050565b6000818310612a3e5781611731565b5090919050565b606082471015612abd5760405162461bcd60e51b815260206004820152602660248201527f416464726573733a20696e73756666696369656e742062616c616e636520666f60448201527f722063616c6c00000000000000000000000000000000000000000000000000006064820152608401610280565b600080866001600160a01b03168587604051612ad99190614438565b60006040518083038185875af1925050503d8060008114612b16576040519150601f19603f3d011682016040523d82523d6000602084013e612b1b565b606091505b5091509150612b2c87838387612f42565b925050505b949350505050565b600080826101800151600081518110612b5457612b54613c81565b60200260200101516000015190506000836101800151600081518110612b7c57612b7c613c81565b60200260200101516020015190506000846101a00151600081518110612ba457612ba4613c81565b60200260200101516000015190506000856101a00151600081518110612bcc57612bcc613c81565b6020026020010151602001519050816103e860036103e8612bed9190613d18565b612bf79087613c00565b612c019190613c46565b612c0b9190613c00565b9450612c1685612fbb565b94506000612c298488610100015161313e565b90506000836127108960c00151612c45858c6101400151613161565b612c4f9190613c00565b612c599190613c46565b612c639190613c00565b90506000836103e8612c76600382613d18565b6127108c60e00151612c8d888f6101600151613161565b612c979190613c00565b612ca19190613c46565b612cab9190613c00565b612cb59190613c46565b612cbf9190613c00565b9050612cd3612cce8284613cb0565b612fbb565b612cdd9089613c00565b975050505060008285612cf09190613c00565b9050858110612d06575060009695505050505050565b612d108187613d18565b9550612d2090506103e886613c00565b9450612d2f60036103e8613d18565b612d399086613c46565b9450612d458286613c46565b9450612d52858585613179565b9450612d638587610100015161313e565b9695505050505050565b600080612d838360a0015184610100015161313e565b9050600081815b6008811015612e4f576000613f34612710612da58686613d18565b612daf9190613c00565b612db99190613c46565b612dc39084613d18565b90506000613f34612710612dd78787613d18565b612de19190613c00565b612deb9190613c46565b612df59086613cb0565b90506064612e038286613d18565b11612e0f575050612e4f565b6000612e1b89846131d3565b90506000612e298a846131d3565b905080821115612e3b57829550612e3f565b8396505b505060019092019150612d8a9050565b5060006002612e5e8385613cb0565b612e689190613c46565b90506000612e7687866131d3565b90506000612e8488846131d3565b905080158015612e92575081155b15612ea557506000979650505050505050565b818111612eb0578592505b50909695505050505050565b60006117318284613c00565b805182905b801561215c57612f2e8284612ee3600185613d18565b81518110612ef357612ef3613c81565b60200260200101516000015185600185612f0d9190613d18565b81518110612f1d57612f1d613c81565b60200260200101516020015161361d565b915080612f3a81614454565b915050612ecd565b60608315612fb1578251600003612faa576001600160a01b0385163b612faa5760405162461bcd60e51b815260206004820152601d60248201527f416464726573733a2063616c6c20746f206e6f6e2d636f6e74726163740000006044820152606401610280565b5081612b31565b612b318383613673565b600081600003612fcd57506000919050565b8160017001000000000000000000000000000000008210612ff35760809190911c9060401b5b68010000000000000000821061300e5760409190911c9060201b5b64010000000082106130255760209190911c9060101b5b62010000821061303a5760109190911c9060081b5b610100821061304e5760089190911c9060041b5b601082106130615760049190911c9060021b5b6008821061306d5760011b5b600181858161307e5761307e613c17565b048201901c9050600181858161309657613096613c17565b048201901c905060018185816130ae576130ae613c17565b048201901c905060018185816130c6576130c6613c17565b048201901c905060018185816130de576130de613c17565b048201901c905060018185816130f6576130f6613c17565b048201901c9050600181858161310e5761310e613c17565b048201901c9050600081858161312657613126613c17565b0490508082106131365780612a26565b509392505050565b600081600161314d8286613cb0565b6131579190613d18565b6117319190613c46565b600061316f6009600a61442c565b6131578385613c00565b60008061318960036103e8613d18565b6131939086613c00565b905060006131a18483613c00565b90506000826131b26103e888613c00565b6131bc9190613cb0565b90506131c88183613c46565b979650505050505050565b600080836101a001515167ffffffffffffffff8111156131f5576131f5613912565b60405190808252806020026020018201604052801561323a57816020015b60408051808201909152600080825260208201528152602001906001900390816132135790505b50905060005b846101a00151518110156132cc576040518060400160405280866101a00151838151811061327057613270613c81565b6020026020010151600001518152602001866101a00151838151811061329857613298613c81565b6020026020010151602001518152508282815181106132b9576132b9613c81565b6020908102919091010152600101613240565b5060006132de84866101000151612ebc565b610180860151519091505b80156135d7576000613337838861018001516001856133089190613d18565b8151811061331857613318613c81565b602002602001015160000151896101800151600186612f0d9190613d18565b905060015b876101e00151518110156135c257876101c00151838151811061336157613361613c81565b60200260200101516001600160a01b0316886101e001516001836133859190613d18565b8151811061339557613395613c81565b60200260200101516001600160a01b031614801561340a57506101c08801516133bf600185613d18565b815181106133cf576133cf613c81565b60200260200101516001600160a01b0316886101e0015182815181106133f7576133f7613c81565b60200260200101516001600160a01b0316145b1561348457838561341c600184613d18565b8151811061342c5761342c613c81565b60200260200101516000018181516134449190613d18565b9052508185613454600184613d18565b8151811061346457613464613c81565b602002602001015160200181815161347c9190613cb0565b9052506135ba565b6101c0880151613495600185613d18565b815181106134a5576134a5613c81565b60200260200101516001600160a01b0316886101e001516001836134c99190613d18565b815181106134d9576134d9613c81565b60200260200101516001600160a01b03161480156135445750876101c00151838151811061350957613509613c81565b60200260200101516001600160a01b0316886101e00151828151811061353157613531613c81565b60200260200101516001600160a01b0316145b156135ba578185613556600184613d18565b8151811061356657613566613c81565b602002602001015160000181815161357e9190613d18565b905250838561358e600184613d18565b8151811061359e5761359e613c81565b60200260200101516020018181516135b69190613cb0565b9052505b60010161333c565b509150806135cf81614454565b9150506132e9565b506000806135e5878761369d565b9150915060006135f58286613701565b905060006136038285613cb0565b905084811161361357600061290a565b61290a8582613d18565b6000806103e861362d8686613c00565b6136379190613c00565b9050600061364860036103e8613d18565b6136528786613d18565b61365c9190613c00565b90506136688183613c46565b612d63906001613cb0565b8151156136835781518083602001fd5b8060405162461bcd60e51b81526004016102809190613f14565b6000806136cb6127108560c00151856136b69190613c00565b6136c09190613c46565b856101400151613161565b91506136f86127108560e00151856136e39190613c00565b6136ed9190613c46565b856101600151613161565b90509250929050565b8160005b825181101561215c576137538284838151811061372457613724613c81565b60200260200101516000015185848151811061374257613742613c81565b602002602001015160200151613179565b9150600101613705565b6001600160a01b038116811461066557600080fd5b60008060008060008060a0878903121561378b57600080fd5b86356137968161375d565b955060208701356137a68161375d565b94506040870135935060608701359250608087013567ffffffffffffffff8111156137d057600080fd5b8701601f810189136137e157600080fd5b803567ffffffffffffffff8111156137f857600080fd5b89602082840101111561380a57600080fd5b60208201935080925050509295509295509295565b60006020828403121561383157600080fd5b81356117318161375d565b60008060006060848603121561385157600080fd5b8335925060208401359150604084013561386a8161375d565b809150509250925092565b60008060006060848603121561388a57600080fd5b83356138958161375d565b925060208401356138a58161375d565b9150604084013567ffffffffffffffff8111156138c157600080fd5b840160a0818703121561386a57600080fd5b7f4e487b7100000000000000000000000000000000000000000000000000000000600052602160045260246000fd5b8183823760009101908152919050565b7f4e487b7100000000000000000000000000000000000000000000000000000000600052604160045260246000fd5b6040516060810167ffffffffffffffff8111828210171561396457613964613912565b60405290565b60405160a0810167ffffffffffffffff8111828210171561396457613964613912565b604051610120810167ffffffffffffffff8111828210171561396457613964613912565b604051601f8201601f1916810167ffffffffffffffff811182821017156139da576139da613912565b604052919050565b600067ffffffffffffffff8211156139fc576139fc613912565b5060051b60200190565b600060608284031215613a1857600080fd5b613a20613941565b9050813567ffffffffffffffff811115613a3957600080fd5b8201601f81018413613a4a57600080fd5b8035613a5d613a58826139e2565b6139b1565b8082825260208201915060208360051b850101925086831115613a7f57600080fd5b6020840193505b82841015613aaa578335613a998161375d565b825260209384019390910190613a86565b84525050506020828101359082015260409182013591810191909152919050565b600060a08284031215613add57600080fd5b613ae561396a565b90508135613af28161375d565b8152602082810135908201526040820135613b0c8161375d565b6040820152606082013567ffffffffffffffff811115613b2b57600080fd5b613b3784828501613a06565b606083015250608082013567ffffffffffffffff811115613b5757600080fd5b613b6384828501613a06565b60808301525092915050565b600080600060608486031215613b8457600080fd5b8335613b8f8161375d565b92506020840135613b9f8161375d565b9150604084013567ffffffffffffffff811115613bbb57600080fd5b613bc786828701613acb565b9150509250925092565b7f4e487b7100000000000000000000000000000000000000000000000000000000600052601160045260246000fd5b808202811582820484141761299f5761299f613bd1565b7f4e487b7100000000000000000000000000000000000000000000000000000000600052601260045260246000fd5b600082613c7c577f4e487b7100000000000000000000000000000000000000000000000000000000600052601260045260246000fd5b500490565b7f4e487b7100000000000000000000000000000000000000000000000000000000600052603260045260246000fd5b8082018082111561299f5761299f613bd1565b80518015158114613cd357600080fd5b919050565b600060208284031215613cea57600080fd5b61173182613cc3565b600060208284031215613d0557600080fd5b5051919050565b600061299f3683613acb565b8181038181111561299f5761299f613bd1565b600080600060608486031215613d4057600080fd5b5050815160208301516040909301519094929350919050565b600060208284031215613d6b57600080fd5b81516117318161375d565b8051613cd38161375d565b600060a0820187835286602084015260a0604084015280865180835260c08501915060208801925060005b81811015613dd35783516001600160a01b0316835260209384019390920191600101613dac565b50506001600160a01b039590951660608401525050608001529392505050565b600082601f830112613e0457600080fd5b8151613e12613a58826139e2565b8082825260208201915060208360051b860101925085831115613e3457600080fd5b602085015b83811015613e51578051835260209283019201613e39565b5095945050505050565b60008060408385031215613e6e57600080fd5b825167ffffffffffffffff811115613e8557600080fd5b613e9185828601613df3565b925050602083015167ffffffffffffffff811115613eae57600080fd5b613eba85828601613df3565b9150509250929050565b60005b83811015613edf578181015183820152602001613ec7565b50506000910152565b60008151808452613f00816020860160208601613ec4565b601f01601f19169290920160200192915050565b6020815260006117316020830184613ee8565b600060208284031215613f3957600080fd5b815167ffffffffffffffff811115613f5057600080fd5b612b3184828501613df3565b600060208284031215613f6e57600080fd5b815160ff8116811461173157600080fd5b60008060408385031215613f9257600080fd5b505080516020909101519092909150565b80516060808452815190840181905260009160200190829060808601905b80831015613fed576001600160a01b038451168252602082019150602084019350600183019250613fc1565b50602085015160208701526040850151604087015280935050505092915050565b6001600160a01b03841681526001600160a01b0383166020820152606060408201526001600160a01b038251166060820152602082015160808201526001600160a01b0360408301511660a08201526000606083015160a060c0840152614079610100840182613fa3565b905060808401517fffffffffffffffffffffffffffffffffffffffffffffffffffffffffffffffa08483030160e0850152612b2c8282613fa3565b6001600160a01b03851681526001600160a01b0384166020820152826040820152608060608201526000612d636080830184613ee8565b600082601f8301126140fc57600080fd5b815167ffffffffffffffff81111561411657614116613912565b6141296020601f19601f840116016139b1565b81815284602083860101111561413e57600080fd5b612b31826020830160208701613ec4565b60006020828403121561416157600080fd5b815167ffffffffffffffff81111561417857600080fd5b612b31848285016140eb565b60408101600384106141bf577f4e487b7100000000000000000000000000000000000000000000000000000000600052602160045260246000fd5b9281526001600160a01b039190911660209091015290565b805160038110613cd357600080fd5b6000602082840312156141f857600080fd5b815167ffffffffffffffff81111561420f57600080fd5b8201610120818503121561422257600080fd5b61422a61398d565b614233826141d7565b815261424160208301613d76565b6020820152604082810151908201526060808301519082015261426660808301613cc3565b608082015260a082015167ffffffffffffffff81111561428557600080fd5b614291868285016140eb565b60a08301525060c082015167ffffffffffffffff8111156142b157600080fd5b6142bd868285016140eb565b60c08301525060e0828101519082015261010091820151918101919091529392505050565b7f4e487b7100000000000000000000000000000000000000000000000000000000600052600160045260246000fd5b6001815b6001841115611f455780850481111561433057614330613bd1565b600184161561433e57908102905b60019390931c928002614315565b60008261435b5750600161299f565b816143685750600061299f565b816001811461437e5760028114614388576143a4565b600191505061299f565b60ff84111561439957614399613bd1565b50506001821b61299f565b5060208310610133831016604e8410600b84101617156143c7575081810a61299f565b6143f27fffffffffffffffffffffffffffffffffffffffffffffffffffffffffffffffff8484614311565b807fffffffffffffffffffffffffffffffffffffffffffffffffffffffffffffffff0482111561442457614424613bd1565b029392505050565b6000611731838361434c565b6000825161444a818460208701613ec4565b9190910192915050565b60008161446357614463613bd1565b507fffffffffffffffffffffffffffffffffffffffffffffffffffffffffffffffff019056fea164736f6c634300081b000a",
  "linkReferences": {},
  "deployedLinkReferences": {}
}