{
  "_format": "hh-sol-artifact-1",
  "contractName": "Whitelist",
  "sourceName": "contracts/agentOwnerRegistry/implementation/Whitelist.sol",
  "abi": [
    {
      "inputs": [
        {
          "internalType": "contract IGovernanceSettings",
          "name": "_governanceSettings",
          "type": "address"
        },
        {
          "internalType": "address",
          "name": "_initialGovernance",
          "type": "address"
        },
        {
          "internalType": "bool",
          "name": "_supportsRevoke",
          "type": "bool"
        }
      ],
      "stateMutability": "nonpayable",
      "type": "constructor"
    },
    {
      "anonymous": false,
      "inputs": [
        {
          "indexed": false,
          "internalType": "bytes",
          "name": "encodedCall",
          "type": "bytes"
        },
        {
          "indexed": false,
          "internalType": "bytes32",
          "name": "encodedCallHash",
          "type": "bytes32"
        },
        {
          "indexed": false,
          "internalType": "uint256",
          "name": "allowedAfterTimestamp",
          "type": "uint256"
        }
      ],
      "name": "GovernanceCallTimelocked",
      "type": "event"
    },
    {
      "anonymous": false,
      "inputs": [
        {
          "indexed": false,
          "internalType": "address",
          "name": "initialGovernance",
          "type": "address"
        }
      ],
      "name": "GovernanceInitialised",
      "type": "event"
    },
    {
      "anonymous": false,
      "inputs": [
        {
          "indexed": false,
          "internalType": "address",
          "name": "governanceSettings",
          "type": "address"
        }
      ],
      "name": "GovernedProductionModeEntered",
      "type": "event"
    },
    {
      "anonymous": false,
      "inputs": [
        {
          "indexed": false,
          "internalType": "address",
          "name": "manager",
          "type": "address"
        }
      ],
      "name": "ManagerChanged",
      "type": "event"
    },
    {
      "anonymous": false,
      "inputs": [
        {
          "indexed": false,
          "internalType": "bytes32",
          "name": "encodedCallHash",
          "type": "bytes32"
        }
      ],
      "name": "TimelockedGovernanceCallCanceled",
      "type": "event"
    },
    {
      "anonymous": false,
      "inputs": [
        {
          "indexed": false,
          "internalType": "bytes32",
          "name": "encodedCallHash",
          "type": "bytes32"
        }
      ],
      "name": "TimelockedGovernanceCallExecuted",
      "type": "event"
    },
    {
      "anonymous": false,
      "inputs": [
        {
          "indexed": false,
          "internalType": "address",
          "name": "value",
          "type": "address"
        }
      ],
      "name": "Whitelisted",
      "type": "event"
    },
    {
      "anonymous": false,
      "inputs": [
        {
          "indexed": false,
          "internalType": "address",
          "name": "value",
          "type": "address"
        }
      ],
      "name": "WhitelistingRevoked",
      "type": "event"
    },
    {
      "inputs": [
        {
          "internalType": "address",
          "name": "_address",
          "type": "address"
        }
      ],
      "name": "addAddressToWhitelist",
      "outputs": [],
      "stateMutability": "nonpayable",
      "type": "function"
    },
    {
      "inputs": [
        {
          "internalType": "address[]",
          "name": "_addresses",
          "type": "address[]"
        }
      ],
      "name": "addAddressesToWhitelist",
      "outputs": [],
      "stateMutability": "nonpayable",
      "type": "function"
    },
    {
      "inputs": [],
      "name": "allowAll",
      "outputs": [
        {
          "internalType": "bool",
          "name": "",
          "type": "bool"
        }
      ],
      "stateMutability": "view",
      "type": "function"
    },
    {
      "inputs": [
        {
          "internalType": "bytes",
          "name": "_encodedCall",
          "type": "bytes"
        }
      ],
      "name": "cancelGovernanceCall",
      "outputs": [],
      "stateMutability": "nonpayable",
      "type": "function"
    },
    {
      "inputs": [
        {
          "internalType": "bytes",
          "name": "_encodedCall",
          "type": "bytes"
        }
      ],
      "name": "executeGovernanceCall",
      "outputs": [],
      "stateMutability": "nonpayable",
      "type": "function"
    },
    {
      "inputs": [],
      "name": "governance",
      "outputs": [
        {
          "internalType": "address",
          "name": "",
          "type": "address"
        }
      ],
      "stateMutability": "view",
      "type": "function"
    },
    {
      "inputs": [],
      "name": "governanceSettings",
      "outputs": [
        {
          "internalType": "contract IGovernanceSettings",
          "name": "",
          "type": "address"
        }
      ],
      "stateMutability": "view",
      "type": "function"
    },
    {
      "inputs": [
        {
          "internalType": "address",
          "name": "_address",
          "type": "address"
        }
      ],
      "name": "isExecutor",
      "outputs": [
        {
          "internalType": "bool",
          "name": "",
          "type": "bool"
        }
      ],
      "stateMutability": "view",
      "type": "function"
    },
    {
      "inputs": [
        {
          "internalType": "address",
          "name": "_address",
          "type": "address"
        }
      ],
      "name": "isWhitelisted",
      "outputs": [
        {
          "internalType": "bool",
          "name": "",
          "type": "bool"
        }
      ],
      "stateMutability": "view",
      "type": "function"
    },
    {
      "inputs": [],
      "name": "manager",
      "outputs": [
        {
          "internalType": "address",
          "name": "",
          "type": "address"
        }
      ],
      "stateMutability": "view",
      "type": "function"
    },
    {
      "inputs": [],
      "name": "productionMode",
      "outputs": [
        {
          "internalType": "bool",
          "name": "",
          "type": "bool"
        }
      ],
      "stateMutability": "view",
      "type": "function"
    },
    {
      "inputs": [
        {
          "internalType": "address",
          "name": "_address",
          "type": "address"
        }
      ],
      "name": "revokeAddress",
      "outputs": [],
      "stateMutability": "nonpayable",
      "type": "function"
    },
    {
      "inputs": [
        {
          "internalType": "bool",
          "name": "_allowAll",
          "type": "bool"
        }
      ],
      "name": "setAllowAll",
      "outputs": [],
      "stateMutability": "nonpayable",
      "type": "function"
    },
    {
      "inputs": [
        {
          "internalType": "address",
          "name": "_manager",
          "type": "address"
        }
      ],
      "name": "setManager",
      "outputs": [],
      "stateMutability": "nonpayable",
      "type": "function"
    },
    {
      "inputs": [
        {
          "internalType": "bytes4",
          "name": "_interfaceId",
          "type": "bytes4"
        }
      ],
      "name": "supportsInterface",
      "outputs": [
        {
          "internalType": "bool",
          "name": "",
          "type": "bool"
        }
      ],
      "stateMutability": "pure",
      "type": "function"
    },
    {
      "inputs": [],
      "name": "supportsRevoke",
      "outputs": [
        {
          "internalType": "bool",
          "name": "",
          "type": "bool"
        }
      ],
      "stateMutability": "view",
      "type": "function"
    },
    {
      "inputs": [],
      "name": "switchToProductionMode",
      "outputs": [],
      "stateMutability": "nonpayable",
      "type": "function"
    }
  ],
  "bytecode": "0x60a060405234801561001057600080fd5b5060405161135038038061135083398101604081905261002f916101ff565b828261003b8282610053565b5050151560805250506000805460ff19169055610251565b7f2aa47ee5db910f3b2a06970c443249cc77dbd9f96100cfebc1775ab7fb1d18248054600160a01b900460ff16156100d25760405162461bcd60e51b815260206004820152601460248201527f696e697469616c6973656420213d2066616c736500000000000000000000000060448201526064015b60405180910390fd5b6001600160a01b0383166101285760405162461bcd60e51b815260206004820152601860248201527f676f7665726e616e63652073657474696e6773207a65726f000000000000000060448201526064016100c9565b6001600160a01b0382166101715760405162461bcd60e51b815260206004820152601060248201526f5f676f7665726e616e6365207a65726f60801b60448201526064016100c9565b80546001600160a01b038481166001600160a81b031990921691909117600160a01b1782556001820180549184166001600160a01b0319909216821790556040519081527f9789733827840833afc031fb2ef9ab6894271f77bad2085687cf4ae5c7bee4db9060200160405180910390a1505050565b6001600160a01b03811681146101fc57600080fd5b50565b60008060006060848603121561021457600080fd5b835161021f816101e7565b6020850151909350610230816101e7565b6040850151909250801515811461024657600080fd5b809150509250925092565b6080516110dd6102736000396000818161016501526105f801526110dd6000f3fe608060405234801561001057600080fd5b506004361061010b5760003560e01c80634ee643a5116100a2578063d0ebdbe711610071578063d0ebdbe714610236578063debfda3014610249578063e17f212e1461025c578063e2ec6ec31461027b578063f5a983831461028e57600080fd5b80634ee643a5146101f05780635aa6e675146101fd57806362354e03146102055780637b9417c81461022357600080fd5b8063317a7aec116100de578063317a7aec146101875780633af32abf1461019a578063481c6a75146101ad5780634d7d9c01146101dd57600080fd5b806301ffc9a71461011057806316fc2f6d1461013857806320c5f99d1461014d5780632583e7f714610160575b600080fd5b61012361011e366004610d6f565b610296565b60405190151581526020015b60405180910390f35b61014b610146366004610d99565b6102cd565b005b61014b61015b366004610d99565b6103b5565b6101237f000000000000000000000000000000000000000000000000000000000000000081565b61014b610195366004610e32565b6105a4565b6101236101a8366004610e32565b610666565b6000546101c59061010090046001600160a01b031681565b6040516001600160a01b03909116815260200161012f565b61014b6101eb366004610e5d565b610694565b6000546101239060ff1681565b6101c56106c9565b600080516020611088833981519152546001600160a01b03166101c5565b61014b610231366004610e32565b610772565b61014b610244366004610e32565b6107cd565b610123610257366004610e32565b61083f565b60008051602061108883398151915254600160a81b900460ff16610123565b61014b610289366004610e90565b6108d9565b61014b610965565b60006001600160e01b031982166301ffc9a760e01b14806102c757506001600160e01b03198216633af32abf60e01b145b92915050565b6102d5610a33565b604051600080516020611088833981519152906000906102f89085908590610f60565b604051809103902090508160020160008281526020019081526020016000205460000361036c5760405162461bcd60e51b815260206004820152601a60248201527f74696d656c6f636b3a20696e76616c69642073656c6563746f7200000000000060448201526064015b60405180910390fd5b6040518181527f69b058d6225c01c1f2a25801ca5b05705fa2e9118e93d518390ba804398c87b19060200160405180910390a16000908152600290910160205260408120555050565b6000805160206110888339815191526103cd3361083f565b6104095760405162461bcd60e51b815260206004820152600d60248201526c37b7363c9032bc32b1baba37b960991b6044820152606401610363565b6000838360405161041b929190610f60565b604080519182900390912060008181526002850160205291822054909250908190036104895760405162461bcd60e51b815260206004820152601a60248201527f74696d656c6f636b3a20696e76616c69642073656c6563746f720000000000006044820152606401610363565b804210156104d95760405162461bcd60e51b815260206004820152601960248201527f74696d656c6f636b3a206e6f7420616c6c6f77656420796574000000000000006044820152606401610363565b6000828152600284016020526040808220829055845460ff60b01b1916600160b01b17855551309061050e9088908890610f60565b6000604051808303816000865af19150503d806000811461054b576040519150601f19603f3d011682016040523d82523d6000602084013e610550565b606091505b5050845460ff60b01b191685556040518481529091507fec1225e5a8a8acb91e03ce648c683c74f5d152a775b9715980999441d714c44f9060200160405180910390a161059c81610a8f565b505050505050565b60005461010090046001600160a01b03163314806105da57506105c56106c9565b6001600160a01b0316336001600160a01b0316145b6105f65760405162461bcd60e51b815260040161036390610f70565b7f000000000000000000000000000000000000000000000000000000000000000061065a5760405162461bcd60e51b81526020600482015260146024820152731c995d9bdad9481b9bdd081cdd5c1c1bdc9d195960621b6044820152606401610363565b61066381610aac565b50565b6001600160a01b03811660009081526001602052604081205460ff16806102c7575060005460ff1692915050565b61069c610b20565b156106bc576106a9610b56565b6000805482151560ff1990911617905550565b6106636000366000610b9a565b600080516020611088833981519152805460009190600160a81b900460ff166106ff5760018101546001600160a01b031661076c565b805460408051631cc9492560e21b815290516001600160a01b03909216916373252494916004808201926020929091908290030181865afa158015610748573d6000803e3d6000fd5b505050506040513d601f19601f8201168201806040525081019061076c9190610fa7565b91505090565b60005461010090046001600160a01b03163314806107a857506107936106c9565b6001600160a01b0316336001600160a01b0316145b6107c45760405162461bcd60e51b815260040161036390610f70565b61066381610cb1565b6107d5610b20565b156106bc576107e2610b56565b60008054610100600160a81b0319166101006001600160a01b038416908102919091179091556040519081527f198db6e425fb8aafd1823c6ca50be2d51e5764571a5ae0f0f21c6812e45def0b906020015b60405180910390a150565b600080516020611088833981519152805460009190600160a01b900460ff1680156108d257508054604051630debfda360e41b81526001600160a01b0385811660048301529091169063debfda3090602401602060405180830381865afa1580156108ae573d6000803e3d6000fd5b505050506040513d601f19601f820116820180604052508101906108d29190610fc4565b9392505050565b60005461010090046001600160a01b031633148061090f57506108fa6106c9565b6001600160a01b0316336001600160a01b0316145b61092b5760405162461bcd60e51b815260040161036390610f70565b60005b81518110156109615761095982828151811061094c5761094c610fe1565b6020026020010151610cb1565b60010161092e565b5050565b61096d610a33565b6000805160206110888339815191528054600160a81b900460ff16156109d55760405162461bcd60e51b815260206004820152601a60248201527f616c726561647920696e2070726f64756374696f6e206d6f64650000000000006044820152606401610363565b6001810180546001600160a01b03191690558054600160a81b60ff60a81b1982161782556040516001600160a01b0390911681527f83af113638b5422f9e977cebc0aaf0eaf2188eb9a8baae7f9d46c42b33a1560c90602001610834565b610a3b6106c9565b6001600160a01b0316336001600160a01b031614610a8d5760405162461bcd60e51b815260206004820152600f60248201526e6f6e6c7920676f7665726e616e636560881b6044820152606401610363565b565b3d604051818101604052816000823e8215610aa8578181f35b8181fd5b6001600160a01b03811660009081526001602052604090205460ff16610acf5750565b6001600160a01b038116600081815260016020908152604091829020805460ff1916905590519182527fe01091cddc91f5497c62b6d5b4ae6514036739c2528f0463485236065e1eba4a9101610834565b600080516020611088833981519152805460009190600160b01b900460ff168061076c575054600160a81b900460ff1615919050565b6000805160206110888339815191528054600160b01b900460ff1615610b9257333014610b8557610b85610ff7565b805460ff60b01b19169055565b610663610a33565b600080516020611088833981519152610bb1610a33565b60008484604051610bc3929190610f60565b604080519182900382208454636221a54b60e01b845291519093506000926001600160a01b0390921691636221a54b9160048083019260209291908290030181865afa158015610c17573d6000803e3d6000fd5b505050506040513d601f19601f82011682018060405250810190610c3b919061100d565b905083811015610c485750825b6000610c548242611026565b600084815260028601602052604090819020829055519091507f8c02104dfc280f713854f25297de671710c544c58de69dbde8fb66974ce1ab9e90610ca0908990899087908690611047565b60405180910390a150505050505050565b6001600160a01b038116610cf65760405162461bcd60e51b815260206004820152600c60248201526b61646472657373207a65726f60a01b6044820152606401610363565b6001600160a01b03811660009081526001602052604090205460ff1615610d1a5750565b6001600160a01b038116600081815260016020818152604092839020805460ff191690921790915590519182527faab7954e9d246b167ef88aeddad35209ca2489d95a8aeb59e288d9b19fae5a549101610834565b600060208284031215610d8157600080fd5b81356001600160e01b0319811681146108d257600080fd5b60008060208385031215610dac57600080fd5b823567ffffffffffffffff811115610dc357600080fd5b8301601f81018513610dd457600080fd5b803567ffffffffffffffff811115610deb57600080fd5b856020828401011115610dfd57600080fd5b6020919091019590945092505050565b6001600160a01b038116811461066357600080fd5b8035610e2d81610e0d565b919050565b600060208284031215610e4457600080fd5b81356108d281610e0d565b801515811461066357600080fd5b600060208284031215610e6f57600080fd5b81356108d281610e4f565b634e487b7160e01b600052604160045260246000fd5b600060208284031215610ea257600080fd5b813567ffffffffffffffff811115610eb957600080fd5b8201601f81018413610eca57600080fd5b803567ffffffffffffffff811115610ee457610ee4610e7a565b8060051b604051601f19603f830116810181811067ffffffffffffffff82111715610f1157610f11610e7a565b604052918252602081840181019290810187841115610f2f57600080fd5b6020850194505b83851015610f5557610f4785610e22565b815260209485019401610f36565b509695505050505050565b8183823760009101908152919050565b6020808252601a908201527f6f6e6c7920676f7665726e616e6365206f72206d616e61676572000000000000604082015260600190565b600060208284031215610fb957600080fd5b81516108d281610e0d565b600060208284031215610fd657600080fd5b81516108d281610e4f565b634e487b7160e01b600052603260045260246000fd5b634e487b7160e01b600052600160045260246000fd5b60006020828403121561101f57600080fd5b5051919050565b808201808211156102c757634e487b7160e01b600052601160045260246000fd5b606081528360608201528385608083013760006080858301015260006080601f19601f87011683010190508360208301528260408301529594505050505056fe2aa47ee5db910f3b2a06970c443249cc77dbd9f96100cfebc1775ab7fb1d1824a264697066735822122008a047b437a431edf28e65eb5b765226f64b02a7cab514390ce4d4af39ae83f164736f6c634300081b0033",
  "linkReferences": {},
  "deployedLinkReferences": {}
}