{
  "_format": "hh-sol-artifact-1",
  "contractName": "AssetManagerInit",
  "sourceName": "contracts/assetManager/facets/AssetManagerInit.sol",
  "abi": [
    {
      "anonymous": false,
      "inputs": [
        {
          "indexed": false,
          "internalType": "uint8",
          "name": "collateralClass",
          "type": "uint8"
        },
        {
          "indexed": false,
          "internalType": "address",
          "name": "token",
          "type": "address"
        },
        {
          "indexed": false,
          "internalType": "uint256",
          "name": "decimals",
          "type": "uint256"
        },
        {
          "indexed": false,
          "internalType": "bool",
          "name": "directPricePair",
          "type": "bool"
        },
        {
          "indexed": false,
          "internalType": "string",
          "name": "assetFtsoSymbol",
          "type": "string"
        },
        {
          "indexed": false,
          "internalType": "string",
          "name": "tokenFtsoSymbol",
          "type": "string"
        },
        {
          "indexed": false,
          "internalType": "uint256",
          "name": "minCollateralRatioBIPS",
          "type": "uint256"
        },
        {
          "indexed": false,
          "internalType": "uint256",
          "name": "ccbMinCollateralRatioBIPS",
          "type": "uint256"
        },
        {
          "indexed": false,
          "internalType": "uint256",
          "name": "safetyMinCollateralRatioBIPS",
          "type": "uint256"
        }
      ],
      "name": "CollateralTypeAdded",
      "type": "event"
    },
    {
      "anonymous": false,
      "inputs": [
        {
          "indexed": false,
          "internalType": "bytes",
          "name": "encodedCall",
          "type": "bytes"
        },
        {
          "indexed": false,
          "internalType": "bytes32",
          "name": "encodedCallHash",
          "type": "bytes32"
        },
        {
          "indexed": false,
          "internalType": "uint256",
          "name": "allowedAfterTimestamp",
          "type": "uint256"
        }
      ],
      "name": "GovernanceCallTimelocked",
      "type": "event"
    },
    {
      "anonymous": false,
      "inputs": [
        {
          "indexed": false,
          "internalType": "address",
          "name": "initialGovernance",
          "type": "address"
        }
      ],
      "name": "GovernanceInitialised",
      "type": "event"
    },
    {
      "anonymous": false,
      "inputs": [
        {
          "indexed": false,
          "internalType": "address",
          "name": "governanceSettings",
          "type": "address"
        }
      ],
      "name": "GovernedProductionModeEntered",
      "type": "event"
    },
    {
      "anonymous": false,
      "inputs": [
        {
          "indexed": false,
          "internalType": "bytes32",
          "name": "encodedCallHash",
          "type": "bytes32"
        }
      ],
      "name": "TimelockedGovernanceCallCanceled",
      "type": "event"
    },
    {
      "anonymous": false,
      "inputs": [
        {
          "indexed": false,
          "internalType": "bytes32",
          "name": "encodedCallHash",
          "type": "bytes32"
        }
      ],
      "name": "TimelockedGovernanceCallExecuted",
      "type": "event"
    },
    {
      "inputs": [
        {
          "internalType": "bytes",
          "name": "_encodedCall",
          "type": "bytes"
        }
      ],
      "name": "cancelGovernanceCall",
      "outputs": [],
      "stateMutability": "nonpayable",
      "type": "function"
    },
    {
      "inputs": [
        {
          "internalType": "bytes",
          "name": "_encodedCall",
          "type": "bytes"
        }
      ],
      "name": "executeGovernanceCall",
      "outputs": [],
      "stateMutability": "nonpayable",
      "type": "function"
    },
    {
      "inputs": [],
      "name": "governance",
      "outputs": [
        {
          "internalType": "address",
          "name": "",
          "type": "address"
        }
      ],
      "stateMutability": "view",
      "type": "function"
    },
    {
      "inputs": [],
      "name": "governanceSettings",
      "outputs": [
        {
          "internalType": "contract IGovernanceSettings",
          "name": "",
          "type": "address"
        }
      ],
      "stateMutability": "view",
      "type": "function"
    },
    {
      "inputs": [
        {
          "internalType": "contract IGovernanceSettings",
          "name": "_governanceSettings",
          "type": "address"
        },
        {
          "internalType": "address",
          "name": "_initialGovernance",
          "type": "address"
        },
        {
          "components": [
            {
              "internalType": "address",
              "name": "assetManagerController",
              "type": "address"
            },
            {
              "internalType": "address",
              "name": "fAsset",
              "type": "address"
            },
            {
              "internalType": "address",
              "name": "agentVaultFactory",
              "type": "address"
            },
            {
              "internalType": "address",
              "name": "collateralPoolFactory",
              "type": "address"
            },
            {
              "internalType": "address",
              "name": "collateralPoolTokenFactory",
              "type": "address"
            },
            {
              "internalType": "string",
              "name": "poolTokenSuffix",
              "type": "string"
            },
            {
              "internalType": "address",
              "name": "whitelist",
              "type": "address"
            },
            {
              "internalType": "address",
              "name": "agentOwnerRegistry",
              "type": "address"
            },
            {
              "internalType": "address",
              "name": "fdcVerification",
              "type": "address"
            },
            {
              "internalType": "address payable",
              "name": "burnAddress",
              "type": "address"
            },
            {
              "internalType": "address",
              "name": "priceReader",
              "type": "address"
            },
            {
              "internalType": "uint8",
              "name": "assetDecimals",
              "type": "uint8"
            },
            {
              "internalType": "uint8",
              "name": "assetMintingDecimals",
              "type": "uint8"
            },
            {
              "internalType": "bytes32",
              "name": "chainId",
              "type": "bytes32"
            },
            {
              "internalType": "uint32",
              "name": "averageBlockTimeMS",
              "type": "uint32"
            },
            {
              "internalType": "uint32",
              "name": "mintingPoolHoldingsRequiredBIPS",
              "type": "uint32"
            },
            {
              "internalType": "uint16",
              "name": "collateralReservationFeeBIPS",
              "type": "uint16"
            },
            {
              "internalType": "uint64",
              "name": "assetUnitUBA",
              "type": "uint64"
            },
            {
              "internalType": "uint64",
              "name": "assetMintingGranularityUBA",
              "type": "uint64"
            },
            {
              "internalType": "uint64",
              "name": "lotSizeAMG",
              "type": "uint64"
            },
            {
              "internalType": "uint16",
              "name": "minUnderlyingBackingBIPS",
              "type": "uint16"
            },
            {
              "internalType": "bool",
              "name": "requireEOAAddressProof",
              "type": "bool"
            },
            {
              "internalType": "uint64",
              "name": "mintingCapAMG",
              "type": "uint64"
            },
            {
              "internalType": "uint64",
              "name": "underlyingBlocksForPayment",
              "type": "uint64"
            },
            {
              "internalType": "uint64",
              "name": "underlyingSecondsForPayment",
              "type": "uint64"
            },
            {
              "internalType": "uint16",
              "name": "redemptionFeeBIPS",
              "type": "uint16"
            },
            {
              "internalType": "uint32",
              "name": "redemptionDefaultFactorVaultCollateralBIPS",
              "type": "uint32"
            },
            {
              "internalType": "uint32",
              "name": "redemptionDefaultFactorPoolBIPS",
              "type": "uint32"
            },
            {
              "internalType": "uint64",
              "name": "confirmationByOthersAfterSeconds",
              "type": "uint64"
            },
            {
              "internalType": "uint128",
              "name": "confirmationByOthersRewardUSD5",
              "type": "uint128"
            },
            {
              "internalType": "uint16",
              "name": "maxRedeemedTickets",
              "type": "uint16"
            },
            {
              "internalType": "uint16",
              "name": "paymentChallengeRewardBIPS",
              "type": "uint16"
            },
            {
              "internalType": "uint128",
              "name": "paymentChallengeRewardUSD5",
              "type": "uint128"
            },
            {
              "internalType": "uint64",
              "name": "withdrawalWaitMinSeconds",
              "type": "uint64"
            },
            {
              "internalType": "uint64",
              "name": "maxTrustedPriceAgeSeconds",
              "type": "uint64"
            },
            {
              "internalType": "uint64",
              "name": "ccbTimeSeconds",
              "type": "uint64"
            },
            {
              "internalType": "uint64",
              "name": "attestationWindowSeconds",
              "type": "uint64"
            },
            {
              "internalType": "uint64",
              "name": "minUpdateRepeatTimeSeconds",
              "type": "uint64"
            },
            {
              "internalType": "uint64",
              "name": "buybackCollateralFactorBIPS",
              "type": "uint64"
            },
            {
              "internalType": "uint64",
              "name": "announcedUnderlyingConfirmationMinSeconds",
              "type": "uint64"
            },
            {
              "internalType": "uint64",
              "name": "tokenInvalidationTimeMinSeconds",
              "type": "uint64"
            },
            {
              "internalType": "uint32",
              "name": "vaultCollateralBuyForFlareFactorBIPS",
              "type": "uint32"
            },
            {
              "internalType": "uint64",
              "name": "agentExitAvailableTimelockSeconds",
              "type": "uint64"
            },
            {
              "internalType": "uint64",
              "name": "agentFeeChangeTimelockSeconds",
              "type": "uint64"
            },
            {
              "internalType": "uint64",
              "name": "agentMintingCRChangeTimelockSeconds",
              "type": "uint64"
            },
            {
              "internalType": "uint64",
              "name": "poolExitAndTopupChangeTimelockSeconds",
              "type": "uint64"
            },
            {
              "internalType": "uint64",
              "name": "agentTimelockedOperationWindowSeconds",
              "type": "uint64"
            },
            {
              "internalType": "uint32",
              "name": "collateralPoolTokenTimelockSeconds",
              "type": "uint32"
            },
            {
              "internalType": "uint64",
              "name": "liquidationStepSeconds",
              "type": "uint64"
            },
            {
              "internalType": "uint256[]",
              "name": "liquidationCollateralFactorBIPS",
              "type": "uint256[]"
            },
            {
              "internalType": "uint256[]",
              "name": "liquidationFactorVaultCollateralBIPS",
              "type": "uint256[]"
            },
            {
              "internalType": "uint64",
              "name": "diamondCutMinTimelockSeconds",
              "type": "uint64"
            },
            {
              "internalType": "uint64",
              "name": "maxEmergencyPauseDurationSeconds",
              "type": "uint64"
            },
            {
              "internalType": "uint64",
              "name": "emergencyPauseDurationResetAfterSeconds",
              "type": "uint64"
            },
            {
              "internalType": "uint64",
              "name": "cancelCollateralReservationAfterSeconds",
              "type": "uint64"
            },
            {
              "internalType": "uint16",
              "name": "rejectOrCancelCollateralReservationReturnFactorBIPS",
              "type": "uint16"
            },
            {
              "internalType": "uint64",
              "name": "rejectRedemptionRequestWindowSeconds",
              "type": "uint64"
            },
            {
              "internalType": "uint64",
              "name": "takeOverRedemptionRequestWindowSeconds",
              "type": "uint64"
            },
            {
              "internalType": "uint32",
              "name": "rejectedRedemptionDefaultFactorVaultCollateralBIPS",
              "type": "uint32"
            },
            {
              "internalType": "uint32",
              "name": "rejectedRedemptionDefaultFactorPoolBIPS",
              "type": "uint32"
            }
          ],
          "internalType": "struct AssetManagerSettings.Data",
          "name": "_settings",
          "type": "tuple"
        },
        {
          "components": [
            {
              "internalType": "enum CollateralType.Class",
              "name": "collateralClass",
              "type": "uint8"
            },
            {
              "internalType": "contract IERC20",
              "name": "token",
              "type": "address"
            },
            {
              "internalType": "uint256",
              "name": "decimals",
              "type": "uint256"
            },
            {
              "internalType": "uint256",
              "name": "validUntil",
              "type": "uint256"
            },
            {
              "internalType": "bool",
              "name": "directPricePair",
              "type": "bool"
            },
            {
              "internalType": "string",
              "name": "assetFtsoSymbol",
              "type": "string"
            },
            {
              "internalType": "string",
              "name": "tokenFtsoSymbol",
              "type": "string"
            },
            {
              "internalType": "uint256",
              "name": "minCollateralRatioBIPS",
              "type": "uint256"
            },
            {
              "internalType": "uint256",
              "name": "ccbMinCollateralRatioBIPS",
              "type": "uint256"
            },
            {
              "internalType": "uint256",
              "name": "safetyMinCollateralRatioBIPS",
              "type": "uint256"
            }
          ],
          "internalType": "struct CollateralType.Data[]",
          "name": "_initialCollateralTypes",
          "type": "tuple[]"
        }
      ],
      "name": "init",
      "outputs": [],
      "stateMutability": "nonpayable",
      "type": "function"
    },
    {
      "inputs": [
        {
          "internalType": "address",
          "name": "_address",
          "type": "address"
        }
      ],
      "name": "isExecutor",
      "outputs": [
        {
          "internalType": "bool",
          "name": "",
          "type": "bool"
        }
      ],
      "stateMutability": "view",
      "type": "function"
    },
    {
      "inputs": [],
      "name": "productionMode",
      "outputs": [
        {
          "internalType": "bool",
          "name": "",
          "type": "bool"
        }
      ],
      "stateMutability": "view",
      "type": "function"
    },
    {
      "inputs": [],
      "name": "switchToProductionMode",
      "outputs": [],
      "stateMutability": "nonpayable",
      "type": "function"
    },
    {
      "inputs": [],
      "name": "upgradeERC165Identifiers",
      "outputs": [],
      "stateMutability": "nonpayable",
      "type": "function"
    }
  ],
  "bytecode": "0x60806040523480156200001157600080fd5b50620000206111118062000026565b620001bf565b7f2aa47ee5db910f3b2a06970c443249cc77dbd9f96100cfebc1775ab7fb1d18248054600160a01b900460ff1615620000a65760405162461bcd60e51b815260206004820152601460248201527f696e697469616c6973656420213d2066616c736500000000000000000000000060448201526064015b60405180910390fd5b6001600160a01b038316620000fe5760405162461bcd60e51b815260206004820152601860248201527f676f7665726e616e63652073657474696e6773207a65726f000000000000000060448201526064016200009d565b6001600160a01b038216620001495760405162461bcd60e51b815260206004820152601060248201526f5f676f7665726e616e6365207a65726f60801b60448201526064016200009d565b80546001600160a01b038481166001600160a81b031990921691909117600160a01b1782556001820180549184166001600160a01b0319909216821790556040519081527f9789733827840833afc031fb2ef9ab6894271f77bad2085687cf4ae5c7bee4db9060200160405180910390a1505050565b61378980620001cf6000396000f3fe608060405234801561001057600080fd5b50600436106100935760003560e01c806362354e031161006657806362354e03146100f857806374b8812314610116578063debfda301461011e578063e17f212e14610141578063f5a983831461016057600080fd5b806316fc2f6d1461009857806320c5f99d146100ad5780632a58052e146100c05780635aa6e675146100d3575b600080fd5b6100ab6100a6366004612a74565b610168565b005b6100ab6100bb366004612a74565b610250565b6100ab6100ce366004612e81565b61043f565b6100db6105c5565b6040516001600160a01b0390911681526020015b60405180910390f35b600080516020613734833981519152546001600160a01b03166100db565b6100ab61066e565b61013161012c366004613378565b610790565b60405190151581526020016100ef565b60008051602061373483398151915254600160a81b900460ff16610131565b6100ab61082a565b6101706108fe565b604051600080516020613734833981519152906000906101939085908590613395565b60405180910390209050816002016000828152602001908152602001600020546000036102075760405162461bcd60e51b815260206004820152601a60248201527f74696d656c6f636b3a20696e76616c69642073656c6563746f7200000000000060448201526064015b60405180910390fd5b6040518181527f69b058d6225c01c1f2a25801ca5b05705fa2e9118e93d518390ba804398c87b19060200160405180910390a16000908152600290910160205260408120555050565b60008051602061373483398151915261026833610790565b6102a45760405162461bcd60e51b815260206004820152600d60248201526c37b7363c9032bc32b1baba37b960991b60448201526064016101fe565b600083836040516102b6929190613395565b604080519182900390912060008181526002850160205291822054909250908190036103245760405162461bcd60e51b815260206004820152601a60248201527f74696d656c6f636b3a20696e76616c69642073656c6563746f7200000000000060448201526064016101fe565b804210156103745760405162461bcd60e51b815260206004820152601960248201527f74696d656c6f636b3a206e6f7420616c6c6f776564207965740000000000000060448201526064016101fe565b6000828152600284016020526040808220829055845460ff60b01b1916600160b01b1785555130906103a99088908890613395565b6000604051808303816000865af19150503d80600081146103e6576040519150601f19603f3d011682016040523d82523d6000602084013e6103eb565b606091505b5050845460ff60b01b191685556040518481529091507fec1225e5a8a8acb91e03ce648c683c74f5d152a775b9715980999441d714c44f9060200160405180910390a16104378161095a565b505050505050565b6104498484610977565b610451610aeb565b61045a82610b14565b61046381610b29565b6105bf7fc8fcad8db84d3cc18b4c41d551ea0ee66dd599cde068d998e57d5e09332c131e6020527f673a26ab9c976db950bbe987aa80c5e387f329563bb0afe093ddccc970489e318054600160ff1991821681179092557f795db15802e151b19272d3e7b72ebd9d0cedc282cc23a6e937c8c3c90d9e213780548216831790557f9bed265332efc30fa7643cc339edc91cb284a0f6566818a5788922af58c86b5080548216831790557f0e17016f77c707cc5512876feaba348b6ac4583ca05776931566ec6ff53bf1bf80548216831790557f83137eabebdf4acf8769243baaa342a3351625edef8556f40f4fa06b29b4c0e480548216831790557f56a7850d3f8b5eba05dac9d851fe59abef3930a1ca8ad8ae322445961a13f7ed805482168317905563b6944a0760e01b6000527f4ee2dc5a87b2341cdd884cb24ac903cb3474fc8ab46d935373f1eb2142f14e5780549091169091179055565b50505050565b600080516020613734833981519152805460009190600160a81b900460ff166105fb5760018101546001600160a01b0316610668565b805460408051631cc9492560e21b815290516001600160a01b03909216916373252494916004808201926020929091908290030181865afa158015610644573d6000803e3d6000fd5b505050506040513d601f19601f8201168201806040525081019061066891906133a5565b91505090565b6301ffc9a760e01b6000527fc8fcad8db84d3cc18b4c41d551ea0ee66dd599cde068d998e57d5e09332c131e6020527f673a26ab9c976db950bbe987aa80c5e387f329563bb0afe093ddccc970489e31547fc8fcad8db84d3cc18b4c41d551ea0ee66dd599cde068d998e57d5e09332c131c9060ff166107225760405162461bcd60e51b815260206004820152600f60248201526e1b9bdd081a5b9a5d1a585b1a5e9959608a1b60448201526064016101fe565b63c4c3061b60e01b600090815260029091016020526040808220805460ff19908116600190811790925563441d7ad760e11b845282842080548216831790556304be81c360e01b8452828420805482168317905563b6944a0760e01b84529190922080549091169091179055565b600080516020613734833981519152805460009190600160a01b900460ff16801561082357508054604051630debfda360e41b81526001600160a01b0385811660048301529091169063debfda3090602401602060405180830381865afa1580156107ff573d6000803e3d6000fd5b505050506040513d601f19601f8201168201806040525081019061082391906133c2565b9392505050565b6108326108fe565b6000805160206137348339815191528054600160a81b900460ff161561089a5760405162461bcd60e51b815260206004820152601a60248201527f616c726561647920696e2070726f64756374696f6e206d6f646500000000000060448201526064016101fe565b6001810180546001600160a01b03191690558054600160a81b60ff60a81b1982161782556040516001600160a01b0390911681527f83af113638b5422f9e977cebc0aaf0eaf2188eb9a8baae7f9d46c42b33a1560c9060200160405180910390a150565b6109066105c5565b6001600160a01b0316336001600160a01b0316146109585760405162461bcd60e51b815260206004820152600f60248201526e6f6e6c7920676f7665726e616e636560881b60448201526064016101fe565b565b3d604051818101604052816000823e8215610973578181f35b8181fd5b6000805160206137348339815191528054600160a01b900460ff16156109d65760405162461bcd60e51b8152602060048201526014602482015273696e697469616c6973656420213d2066616c736560601b60448201526064016101fe565b6001600160a01b038316610a2c5760405162461bcd60e51b815260206004820152601860248201527f676f7665726e616e63652073657474696e6773207a65726f000000000000000060448201526064016101fe565b6001600160a01b038216610a755760405162461bcd60e51b815260206004820152601060248201526f5f676f7665726e616e6365207a65726f60801b60448201526064016101fe565b80546001600160a01b038481166001600160a81b031990921691909117600160a01b1782556001820180549184166001600160a01b0319909216821790556040519081527f9789733827840833afc031fb2ef9ab6894271f77bad2085687cf4ae5c7bee4db9060200160405180910390a1505050565b61095860017f0cd2207518cd3e5213e2c6dbe63d55b60aa893c194a427b7d7f1600408fd5bde55565b610b1d81610cd7565b610b26816116bd565b50565b600281511015610b855760405162461bcd60e51b815260206004820152602160248201527f6174206c656173742074776f20636f6c6c61746572616c7320726571756972656044820152601960fa1b60648201526084016101fe565b600181600081518110610b9a57610b9a6133f5565b6020026020010151600001516002811115610bb757610bb76133df565b14610c045760405162461bcd60e51b815260206004820152601a60248201527f6e6f74206120706f6f6c20636f6c6c61746572616c206174203000000000000060448201526064016101fe565b610c2781600081518110610c1a57610c1a6133f5565b6020026020010151612079565b50610c3260006124f6565b60015b8151811015610cd3576002828281518110610c5257610c526133f5565b6020026020010151600001516002811115610c6f57610c6f6133df565b14610cb55760405162461bcd60e51b81526020600482015260166024820152751b9bdd0818481d985d5b1d0818dbdb1b185d195c985b60521b60448201526064016101fe565b610cca828281518110610c1a57610c1a6133f5565b50600101610c35565b5050565b60208101516001600160a01b0316610d275760405162461bcd60e51b81526020600482015260136024820152727a65726f20664173736574206164647265737360681b60448201526064016101fe565b60408101516001600160a01b0316610d815760405162461bcd60e51b815260206004820152601e60248201527f7a65726f206167656e745661756c74466163746f72792061646472657373000060448201526064016101fe565b60608101516001600160a01b0316610de65760405162461bcd60e51b815260206004820152602260248201527f7a65726f20636f6c6c61746572616c506f6f6c466163746f7279206164647265604482015261737360f01b60648201526084016101fe565b60808101516001600160a01b0316610e505760405162461bcd60e51b815260206004820152602760248201527f7a65726f20636f6c6c61746572616c506f6f6c546f6b656e466163746f7279206044820152666164647265737360c81b60648201526084016101fe565b6101008101516001600160a01b0316610eab5760405162461bcd60e51b815260206004820152601c60248201527f7a65726f20666463566572696669636174696f6e20616464726573730000000060448201526064016101fe565b6101408101516001600160a01b0316610f065760405162461bcd60e51b815260206004820152601860248201527f7a65726f2070726963655265616465722061646472657373000000000000000060448201526064016101fe565b60e08101516001600160a01b0316610f605760405162461bcd60e51b815260206004820152601f60248201527f7a65726f206167656e744f776e6572526567697374727920616464726573730060448201526064016101fe565b60008161022001516001600160401b031611610f8e5760405162461bcd60e51b81526004016101fe9061340b565b60008161024001516001600160401b031611610fbc5760405162461bcd60e51b81526004016101fe9061340b565b6000816102e001516001600160401b031611610fea5760405162461bcd60e51b81526004016101fe9061340b565b60008161030001516001600160401b0316116110185760405162461bcd60e51b81526004016101fe9061340b565b600081610320015161ffff16116110415760405162461bcd60e51b81526004016101fe9061340b565b600081610200015161ffff161161106a5760405162461bcd60e51b81526004016101fe9061340b565b6000816103a001516001600160801b0316116110985760405162461bcd60e51b81526004016101fe9061340b565b6000816103c0015161ffff16116110c15760405162461bcd60e51b81526004016101fe9061340b565b60008161046001516001600160401b0316116110ef5760405162461bcd60e51b81526004016101fe9061340b565b60008161044001516001600160401b03161161111d5760405162461bcd60e51b81526004016101fe9061340b565b6000816104a001516001600160401b03161161114b5760405162461bcd60e51b81526004016101fe9061340b565b6000816104c001516001600160401b0316116111795760405162461bcd60e51b81526004016101fe9061340b565b60008161042001516001600160401b0316116111a75760405162461bcd60e51b81526004016101fe9061340b565b6000816101c0015163ffffffff16116111d25760405162461bcd60e51b81526004016101fe9061340b565b611204816102e001516001600160401b03168261030001516001600160401b0316836101c0015163ffffffff16612593565b60008161026001516001600160401b0316116112325760405162461bcd60e51b81526004016101fe9061340b565b6102c08101516001600160401b0316158061126957508061026001516001600160401b0316816102c001516001600160401b031610155b6112ad5760405162461bcd60e51b81526020600482015260156024820152741b5a5b9d1a5b99c818d85c081d1bdbc81cdb585b1b605a1b60448201526064016101fe565b600081610280015161ffff16116112d65760405162461bcd60e51b81526004016101fe9061340b565b61271081610280015161ffff1611156113015760405162461bcd60e51b81526004016101fe90613433565b61271081610200015161ffff16111561132c5760405162461bcd60e51b81526004016101fe90613433565b61271081610320015161ffff1611156113575760405162461bcd60e51b81526004016101fe90613433565b600081610360015182610340015161136f9190613476565b63ffffffff16905061271081116113bd5760405162461bcd60e51b8152602060048201526012602482015271626970732076616c756520746f6f206c6f7760701b60448201526064016101fe565b620151808261048001516001600160401b031610156114115760405162461bcd60e51b815260206004820152601060248201526f1dda5b991bddc81d1bdbc81cdb585b1b60821b60448201526064016101fe565b611c208261038001516001600160401b031610156114715760405162461bcd60e51b815260206004820152601a60248201527f6d757374206265206174206c656173742074776f20686f75727300000000000060448201526064016101fe565b610e10826104e001516001600160401b031611156114d15760405162461bcd60e51b815260206004820152601960248201527f636f6e6669726d6174696f6e2074696d6520746f6f206269670000000000000060448201526064016101fe565b61271082610520015163ffffffff1610156114fe5760405162461bcd60e51b81526004016101fe9061349a565b610e10826105c001516001600160401b0316101561152e5760405162461bcd60e51b81526004016101fe9061349a565b603c826105e0015163ffffffff16101561155a5760405162461bcd60e51b81526004016101fe9061349a565b60008261060001516001600160401b0316116115885760405162461bcd60e51b81526004016101fe9061340b565b6000826106c001516001600160401b0316116115b65760405162461bcd60e51b81526004016101fe9061340b565b612710826106e0015161ffff1611156115e15760405162461bcd60e51b81526004016101fe90613433565b60008261070001516001600160401b03161161160f5760405162461bcd60e51b81526004016101fe9061340b565b60008261072001516001600160401b03161161163d5760405162461bcd60e51b81526004016101fe9061340b565b60008261076001518361074001516116559190613476565b63ffffffff1690506127108110156116a45760405162461bcd60e51b8152602060048201526012602482015271626970732076616c756520746f6f206c6f7760701b60448201526064016101fe565b6116b8836106200151846106400151612631565b505050565b80517f4f24f5c433db0962dac0d2c8b84197a6e6c7cc4e5d9ebe1916a1b6193da2f33a80546001600160a01b03199081166001600160a01b0393841617825560208401517f4f24f5c433db0962dac0d2c8b84197a6e6c7cc4e5d9ebe1916a1b6193da2f33b8054831691851691909117905560408401517f4f24f5c433db0962dac0d2c8b84197a6e6c7cc4e5d9ebe1916a1b6193da2f33c8054831691851691909117905560608401517f4f24f5c433db0962dac0d2c8b84197a6e6c7cc4e5d9ebe1916a1b6193da2f33d8054831691851691909117905560808401517f4f24f5c433db0962dac0d2c8b84197a6e6c7cc4e5d9ebe1916a1b6193da2f33e805490921693169290921790915560a08201518190839082907f4f24f5c433db0962dac0d2c8b84197a6e6c7cc4e5d9ebe1916a1b6193da2f33f906118009082613545565b5060c08201518160060160006101000a8154816001600160a01b0302191690836001600160a01b0316021790555060e08201518160070160006101000a8154816001600160a01b0302191690836001600160a01b031602179055506101008201518160080160006101000a8154816001600160a01b0302191690836001600160a01b031602179055506101208201518160090160006101000a8154816001600160a01b0302191690836001600160a01b0316021790555061014082015181600a0160006101000a8154816001600160a01b0302191690836001600160a01b0316021790555061016082015181600a0160146101000a81548160ff021916908360ff16021790555061018082015181600a0160156101000a81548160ff021916908360ff1602179055506101a082015181600b01556101c082015181600c0160006101000a81548163ffffffff021916908363ffffffff1602179055506101e082015181600c0160046101000a81548163ffffffff021916908363ffffffff16021790555061020082015181600c0160086101000a81548161ffff021916908361ffff16021790555061022082015181600c01600a6101000a8154816001600160401b0302191690836001600160401b0316021790555061024082015181600c0160126101000a8154816001600160401b0302191690836001600160401b0316021790555061026082015181600d0160006101000a8154816001600160401b0302191690836001600160401b0316021790555061028082015181600d0160086101000a81548161ffff021916908361ffff1602179055506102a082015181600d01600a6101000a81548160ff0219169083151502179055506102c082015181600d01600b6101000a8154816001600160401b0302191690836001600160401b031602179055506102e082015181600d0160136101000a8154816001600160401b0302191690836001600160401b0316021790555061030082015181600e0160006101000a8154816001600160401b0302191690836001600160401b0316021790555061032082015181600e0160086101000a81548161ffff021916908361ffff16021790555061034082015181600e01600a6101000a81548163ffffffff021916908363ffffffff16021790555061036082015181600e01600e6101000a81548163ffffffff021916908363ffffffff16021790555061038082015181600e0160126101000a8154816001600160401b0302191690836001600160401b031602179055506103a082015181600f0160006101000a8154816001600160801b0302191690836001600160801b031602179055506103c082015181600f0160106101000a81548161ffff021916908361ffff1602179055506103e082015181600f0160126101000a81548161ffff021916908361ffff1602179055506104008201518160100160006101000a8154816001600160801b0302191690836001600160801b031602179055506104208201518160100160106101000a8154816001600160401b0302191690836001600160401b031602179055506104408201518160100160186101000a8154816001600160401b0302191690836001600160401b031602179055506104608201518160110160006101000a8154816001600160401b0302191690836001600160401b031602179055506104808201518160110160086101000a8154816001600160401b0302191690836001600160401b031602179055506104a08201518160110160106101000a8154816001600160401b0302191690836001600160401b031602179055506104c08201518160110160186101000a8154816001600160401b0302191690836001600160401b031602179055506104e08201518160120160006101000a8154816001600160401b0302191690836001600160401b031602179055506105008201518160120160086101000a8154816001600160401b0302191690836001600160401b031602179055506105208201518160120160106101000a81548163ffffffff021916908363ffffffff1602179055506105408201518160120160146101000a8154816001600160401b0302191690836001600160401b031602179055506105608201518160130160006101000a8154816001600160401b0302191690836001600160401b031602179055506105808201518160130160086101000a8154816001600160401b0302191690836001600160401b031602179055506105a08201518160130160106101000a8154816001600160401b0302191690836001600160401b031602179055506105c08201518160130160186101000a8154816001600160401b0302191690836001600160401b031602179055506105e08201518160140160006101000a81548163ffffffff021916908363ffffffff1602179055506106008201518160140160046101000a8154816001600160401b0302191690836001600160401b03160217905550610620820151816015019080519060200190611f38929190612a1d565b506106408201518051611f55916016840191602090910190612a1d565b506106608201516017820180546106808501516106a08601516106c08701516001600160401b039586166fffffffffffffffffffffffffffffffff1990941693909317600160401b92861692909202919091176001600160801b0316600160801b918516919091026001600160c01b031617600160c01b918416919091021790556106e0830151601890920180546107008501516107208601516107408701516107609097015161ffff90961669ffffffffffffffffffff19909316929092176201000091851691909102176bffffffffffffffffffffffff60501b1916600160501b919093160263ffffffff60901b191691909117600160901b63ffffffff948516021763ffffffff60b01b1916600160b01b9390921692909202179055505050565b60208101516000907fec7e8c1c441439dd40959777f4c577ea0cd42fcc1dbe59d2bd0f5d9c55df8db6906001600160a01b03166120e55760405162461bcd60e51b815260206004820152600a602482015269746f6b656e207a65726f60b01b60448201526064016101fe565b60006120f98460000151856020015161285c565b6000818152600184016020526040902054909150156121515760405162461bcd60e51b8152602060048201526014602482015273746f6b656e20616c72656164792065786973747360601b60448201526064016101fe565b6060840151156121a35760405162461bcd60e51b815260206004820152601b60248201527f63616e6e6f7420616464206465707265636174656420746f6b656e000000000060448201526064016101fe565b60008461010001516127101080156121c457508460e0015185610100015111155b80156121d957508461012001518560e0015111155b9050806122285760405162461bcd60e51b815260206004820152601960248201527f696e76616c696420636f6c6c61746572616c20726174696f730000000000000060448201526064016101fe565b82546040805161014081019091526020808801516001600160a01b0316825287518692918201906002811115612260576122606133df565b81526020016122728960400151612888565b60ff16815260200161228789606001516128ed565b6001600160401b031681526020018860800151151581526020018860a0015181526020018860c0015181526020016122c28960e00151612955565b63ffffffff1681526020016122db896101000151612955565b63ffffffff1681526020016122f4896101200151612955565b63ffffffff16905281546001810183556000928352602092839020825160049092020180546001600160a01b031981166001600160a01b03909316928317825593830151929390929183916001600160a81b03191617600160a01b836002811115612361576123616133df565b021790555060408201518154606084015160808501511515600160f01b0260ff60f01b196001600160401b03909216600160b01b0267ffffffffffffffff60b01b1960ff909516600160a81b029490941668ffffffffffffffffff60a81b1990931692909217929092179190911617815560a082015160018201906123e69082613545565b5060c082015160028201906123fb9082613545565b5060e0820151600390910180546101008401516101209094015163ffffffff908116600160401b026bffffffff0000000000000000199582166401000000000267ffffffffffffffff1990931691909416171792909216179055612460816001613604565b600084815260018601602052604090205585517fbef4c272617e8773ee6209dd5f05e50ca5be37232b0c94cb8439d8a56bfdb7ce9060028111156124a6576124a66133df565b8760200151886040015189608001518a60a001518b60c001518c60e001518d61010001518e61012001516040516124e59998979695949392919061365d565b60405180910390a195945050505050565b7fec7e8c1c441439dd40959777f4c577ea0cd42fcc1dbe59d2bd0f5d9c55df8db6805460009082908490811061252e5761252e6133f5565b60009182526020909120600490910201905060018154600160a01b900460ff16600281111561255f5761255f6133df565b1461256c5761256c6136d1565b612575836129ba565b600f92909201805461ffff191661ffff909316929092179091555050565b620151808211156125d75760405162461bcd60e51b815260206004820152600e60248201526d0ecc2d8eaca40e8dede40d0d2ced60931b60448201526064016101fe565b620151806103e86125e883866136e7565b6125f291906136fe565b11156116b85760405162461bcd60e51b815260206004820152600e60248201526d0ecc2d8eaca40e8dede40d0d2ced60931b60448201526064016101fe565b80518251146126765760405162461bcd60e51b81526020600482015260116024820152701b195b99dd1a1cc81b9bdd08195c5d585b607a1b60448201526064016101fe565b6001825110156126c85760405162461bcd60e51b815260206004820152601c60248201527f6174206c65617374206f6e6520666163746f722072657175697265640000000060448201526064016101fe565b60005b82518110156116b8576127108382815181106126e9576126e96133f5565b6020026020010151116127335760405162461bcd60e51b8152602060048201526012602482015271666163746f72206e6f742061626f7665203160701b60448201526064016101fe565b828181518110612745576127456133f5565b602002602001015182828151811061275f5761275f6133f5565b602002602001015111156127c75760405162461bcd60e51b815260206004820152602960248201527f7661756c7420636f6c6c61746572616c20666163746f722068696768657220746044820152681a185b881d1bdd185b60ba1b60648201526084016101fe565b80158061280f5750826127db600183613720565b815181106127eb576127eb6133f5565b6020026020010151838281518110612805576128056133f5565b6020026020010151115b6128545760405162461bcd60e51b8152602060048201526016602482015275666163746f7273206e6f7420696e6372656173696e6760501b60448201526064016101fe565b6001016126cb565b6000816001600160a01b031660a084600281111561287c5761287c6133df565b901b1790505b92915050565b600060ff8211156128e95760405162461bcd60e51b815260206004820152602560248201527f53616665436173743a2076616c756520646f65736e27742066697420696e2038604482015264206269747360d81b60648201526084016101fe565b5090565b60006001600160401b038211156128e95760405162461bcd60e51b815260206004820152602660248201527f53616665436173743a2076616c756520646f65736e27742066697420696e203660448201526534206269747360d01b60648201526084016101fe565b600063ffffffff8211156128e95760405162461bcd60e51b815260206004820152602660248201527f53616665436173743a2076616c756520646f65736e27742066697420696e203360448201526532206269747360d01b60648201526084016101fe565b600061ffff8211156128e95760405162461bcd60e51b815260206004820152602660248201527f53616665436173743a2076616c756520646f65736e27742066697420696e203160448201526536206269747360d01b60648201526084016101fe565b828054828255906000526020600020908101928215612a58579160200282015b82811115612a58578251825591602001919060010190612a3d565b506128e99291505b808211156128e95760008155600101612a60565b60008060208385031215612a8757600080fd5b82356001600160401b0380821115612a9e57600080fd5b818501915085601f830112612ab257600080fd5b813581811115612ac157600080fd5b866020828501011115612ad357600080fd5b60209290920196919550909350505050565b6001600160a01b0381168114610b2657600080fd5b8035612b0581612ae5565b919050565b634e487b7160e01b600052604160045260246000fd5b60405161014081016001600160401b0381118282101715612b4357612b43612b0a565b60405290565b60405161078081016001600160401b0381118282101715612b4357612b43612b0a565b604051601f8201601f191681016001600160401b0381118282101715612b9457612b94612b0a565b604052919050565b600082601f830112612bad57600080fd5b81356001600160401b03811115612bc657612bc6612b0a565b612bd9601f8201601f1916602001612b6c565b818152846020838601011115612bee57600080fd5b816020850160208301376000918101602001919091529392505050565b803560ff81168114612b0557600080fd5b803563ffffffff81168114612b0557600080fd5b803561ffff81168114612b0557600080fd5b80356001600160401b0381168114612b0557600080fd5b8015158114610b2657600080fd5b8035612b0581612c59565b80356001600160801b0381168114612b0557600080fd5b60006001600160401b03821115612ca257612ca2612b0a565b5060051b60200190565b600082601f830112612cbd57600080fd5b81356020612cd2612ccd83612c89565b612b6c565b8083825260208201915060208460051b870101935086841115612cf457600080fd5b602086015b84811015612d105780358352918301918301612cf9565b509695505050505050565b803560038110612b0557600080fd5b600082601f830112612d3b57600080fd5b81356020612d4b612ccd83612c89565b82815260059290921b84018101918181019086841115612d6a57600080fd5b8286015b84811015612d105780356001600160401b0380821115612d8e5760008081fd5b90880190610140828b03601f1901811315612da95760008081fd5b612db1612b20565b612dbc888501612d1b565b81526040612dcb818601612afa565b89830152606080860135828401526080915081860135818401525060a0612df3818701612c67565b8284015260c091508186013585811115612e0d5760008081fd5b612e1b8f8c838a0101612b9c565b82850152505060e08086013585811115612e355760008081fd5b612e438f8c838a0101612b9c565b838501525061010094508486013581840152505061012080850135848301528285013581830152508087525050505083830192508381019050612d6e565b60008060008060808587031215612e9757600080fd5b8435612ea281612ae5565b93506020850135612eb281612ae5565b925060408501356001600160401b0380821115612ece57600080fd5b908601906107808289031215612ee357600080fd5b612eeb612b49565b612ef483612afa565b8152612f0260208401612afa565b6020820152612f1360408401612afa565b6040820152612f2460608401612afa565b6060820152612f3560808401612afa565b608082015260a083013582811115612f4c57600080fd5b612f588a828601612b9c565b60a083015250612f6a60c08401612afa565b60c0820152612f7b60e08401612afa565b60e0820152610100612f8e818501612afa565b90820152610120612fa0848201612afa565b90820152610140612fb2848201612afa565b90820152610160612fc4848201612c0b565b90820152610180612fd6848201612c0b565b908201526101a083810135908201526101c0612ff3818501612c1c565b908201526101e0613005848201612c1c565b90820152610200613017848201612c30565b90820152610220613029848201612c42565b9082015261024061303b848201612c42565b9082015261026061304d848201612c42565b9082015261028061305f848201612c30565b908201526102a0613071848201612c67565b908201526102c0613083848201612c42565b908201526102e0613095848201612c42565b908201526103006130a7848201612c42565b908201526103206130b9848201612c30565b908201526103406130cb848201612c1c565b908201526103606130dd848201612c1c565b908201526103806130ef848201612c42565b908201526103a0613101848201612c72565b908201526103c0613113848201612c30565b908201526103e0613125848201612c30565b90820152610400613137848201612c72565b90820152610420613149848201612c42565b9082015261044061315b848201612c42565b9082015261046061316d848201612c42565b9082015261048061317f848201612c42565b908201526104a0613191848201612c42565b908201526104c06131a3848201612c42565b908201526104e06131b5848201612c42565b908201526105006131c7848201612c42565b908201526105206131d9848201612c1c565b908201526105406131eb848201612c42565b908201526105606131fd848201612c42565b9082015261058061320f848201612c42565b908201526105a0613221848201612c42565b908201526105c0613233848201612c42565b908201526105e0613245848201612c1c565b90820152610600613257848201612c42565b90820152610620838101358381111561326f57600080fd5b61327b8b828701612cac565b828401525050610640808401358381111561329557600080fd5b6132a18b828701612cac565b8284015250506106606132b5818501612c42565b908201526106806132c7848201612c42565b908201526106a06132d9848201612c42565b908201526106c06132eb848201612c42565b908201526106e06132fd848201612c30565b9082015261070061330f848201612c42565b90820152610720613321848201612c42565b90820152610740613333848201612c1c565b90820152610760613345848201612c1c565b908201529350606087013591508082111561335f57600080fd5b5061336c87828801612d2a565b91505092959194509250565b60006020828403121561338a57600080fd5b813561082381612ae5565b8183823760009101908152919050565b6000602082840312156133b757600080fd5b815161082381612ae5565b6000602082840312156133d457600080fd5b815161082381612c59565b634e487b7160e01b600052602160045260246000fd5b634e487b7160e01b600052603260045260246000fd5b6020808252600e908201526d63616e6e6f74206265207a65726f60901b604082015260600190565b6020808252601390820152720c4d2e0e640ecc2d8eaca40e8dede40d0d2ced606b1b604082015260600190565b634e487b7160e01b600052601160045260246000fd5b63ffffffff81811683821601908082111561349357613493613460565b5092915050565b6020808252600f908201526e1d985b1d59481d1bdbc81cdb585b1b608a1b604082015260600190565b600181811c908216806134d757607f821691505b6020821081036134f757634e487b7160e01b600052602260045260246000fd5b50919050565b601f8211156116b8576000816000526020600020601f850160051c810160208610156135265750805b601f850160051c820191505b8181101561043757828155600101613532565b81516001600160401b0381111561355e5761355e612b0a565b6135728161356c84546134c3565b846134fd565b602080601f8311600181146135a7576000841561358f5750858301515b600019600386901b1c1916600185901b178555610437565b600085815260208120601f198616915b828110156135d6578886015182559484019460019091019084016135b7565b50858210156135f45787850151600019600388901b60f8161c191681555b5050505050600190811b01905550565b8082018082111561288257612882613460565b6000815180845260005b8181101561363d57602081850181015186830182015201613621565b506000602082860101526020601f19601f83011685010191505092915050565b60ff8a1681526001600160a01b03891660208201526040810188905286151560608201526101206080820181905260009061369a83820189613617565b905082810360a08401526136ae8188613617565b60c0840196909652505060e0810192909252610100909101529695505050505050565b634e487b7160e01b600052600160045260246000fd5b808202811582820484141761288257612882613460565b60008261371b57634e487b7160e01b600052601260045260246000fd5b500490565b818103818111156128825761288261346056fe2aa47ee5db910f3b2a06970c443249cc77dbd9f96100cfebc1775ab7fb1d1824a2646970667358221220b0fa2b1f7ee6d3cec6d978c46b03d02edfc13ec8f72ccb0d5430294b20a0d39464736f6c63430008170033",
  "linkReferences": {},
  "deployedLinkReferences": {}
}