{
  "_format": "hh-sol-artifact-1",
  "contractName": "AssetManagerInit",
  "sourceName": "contracts/assetManager/facets/AssetManagerInit.sol",
  "abi": [
    {
      "anonymous": false,
      "inputs": [
        {
          "indexed": false,
          "internalType": "uint8",
          "name": "collateralClass",
          "type": "uint8"
        },
        {
          "indexed": false,
          "internalType": "address",
          "name": "token",
          "type": "address"
        },
        {
          "indexed": false,
          "internalType": "uint256",
          "name": "decimals",
          "type": "uint256"
        },
        {
          "indexed": false,
          "internalType": "bool",
          "name": "directPricePair",
          "type": "bool"
        },
        {
          "indexed": false,
          "internalType": "string",
          "name": "assetFtsoSymbol",
          "type": "string"
        },
        {
          "indexed": false,
          "internalType": "string",
          "name": "tokenFtsoSymbol",
          "type": "string"
        },
        {
          "indexed": false,
          "internalType": "uint256",
          "name": "minCollateralRatioBIPS",
          "type": "uint256"
        },
        {
          "indexed": false,
          "internalType": "uint256",
          "name": "ccbMinCollateralRatioBIPS",
          "type": "uint256"
        },
        {
          "indexed": false,
          "internalType": "uint256",
          "name": "safetyMinCollateralRatioBIPS",
          "type": "uint256"
        }
      ],
      "name": "CollateralTypeAdded",
      "type": "event"
    },
    {
      "anonymous": false,
      "inputs": [
        {
          "indexed": false,
          "internalType": "bytes",
          "name": "encodedCall",
          "type": "bytes"
        },
        {
          "indexed": false,
          "internalType": "bytes32",
          "name": "encodedCallHash",
          "type": "bytes32"
        },
        {
          "indexed": false,
          "internalType": "uint256",
          "name": "allowedAfterTimestamp",
          "type": "uint256"
        }
      ],
      "name": "GovernanceCallTimelocked",
      "type": "event"
    },
    {
      "anonymous": false,
      "inputs": [
        {
          "indexed": false,
          "internalType": "address",
          "name": "initialGovernance",
          "type": "address"
        }
      ],
      "name": "GovernanceInitialised",
      "type": "event"
    },
    {
      "anonymous": false,
      "inputs": [
        {
          "indexed": false,
          "internalType": "address",
          "name": "governanceSettings",
          "type": "address"
        }
      ],
      "name": "GovernedProductionModeEntered",
      "type": "event"
    },
    {
      "anonymous": false,
      "inputs": [
        {
          "indexed": false,
          "internalType": "bytes32",
          "name": "encodedCallHash",
          "type": "bytes32"
        }
      ],
      "name": "TimelockedGovernanceCallCanceled",
      "type": "event"
    },
    {
      "anonymous": false,
      "inputs": [
        {
          "indexed": false,
          "internalType": "bytes32",
          "name": "encodedCallHash",
          "type": "bytes32"
        }
      ],
      "name": "TimelockedGovernanceCallExecuted",
      "type": "event"
    },
    {
      "inputs": [
        {
          "internalType": "bytes",
          "name": "_encodedCall",
          "type": "bytes"
        }
      ],
      "name": "cancelGovernanceCall",
      "outputs": [],
      "stateMutability": "nonpayable",
      "type": "function"
    },
    {
      "inputs": [
        {
          "internalType": "bytes",
          "name": "_encodedCall",
          "type": "bytes"
        }
      ],
      "name": "executeGovernanceCall",
      "outputs": [],
      "stateMutability": "nonpayable",
      "type": "function"
    },
    {
      "inputs": [],
      "name": "governance",
      "outputs": [
        {
          "internalType": "address",
          "name": "",
          "type": "address"
        }
      ],
      "stateMutability": "view",
      "type": "function"
    },
    {
      "inputs": [],
      "name": "governanceSettings",
      "outputs": [
        {
          "internalType": "contract IGovernanceSettings",
          "name": "",
          "type": "address"
        }
      ],
      "stateMutability": "view",
      "type": "function"
    },
    {
      "inputs": [
        {
          "internalType": "contract IGovernanceSettings",
          "name": "_governanceSettings",
          "type": "address"
        },
        {
          "internalType": "address",
          "name": "_initialGovernance",
          "type": "address"
        },
        {
          "components": [
            {
              "internalType": "address",
              "name": "assetManagerController",
              "type": "address"
            },
            {
              "internalType": "address",
              "name": "fAsset",
              "type": "address"
            },
            {
              "internalType": "address",
              "name": "agentVaultFactory",
              "type": "address"
            },
            {
              "internalType": "address",
              "name": "collateralPoolFactory",
              "type": "address"
            },
            {
              "internalType": "address",
              "name": "collateralPoolTokenFactory",
              "type": "address"
            },
            {
              "internalType": "string",
              "name": "poolTokenSuffix",
              "type": "string"
            },
            {
              "internalType": "address",
              "name": "whitelist",
              "type": "address"
            },
            {
              "internalType": "address",
              "name": "agentOwnerRegistry",
              "type": "address"
            },
            {
              "internalType": "address",
              "name": "fdcVerification",
              "type": "address"
            },
            {
              "internalType": "address payable",
              "name": "burnAddress",
              "type": "address"
            },
            {
              "internalType": "address",
              "name": "priceReader",
              "type": "address"
            },
            {
              "internalType": "uint8",
              "name": "assetDecimals",
              "type": "uint8"
            },
            {
              "internalType": "uint8",
              "name": "assetMintingDecimals",
              "type": "uint8"
            },
            {
              "internalType": "bytes32",
              "name": "chainId",
              "type": "bytes32"
            },
            {
              "internalType": "uint32",
              "name": "averageBlockTimeMS",
              "type": "uint32"
            },
            {
              "internalType": "uint32",
              "name": "mintingPoolHoldingsRequiredBIPS",
              "type": "uint32"
            },
            {
              "internalType": "uint16",
              "name": "collateralReservationFeeBIPS",
              "type": "uint16"
            },
            {
              "internalType": "uint64",
              "name": "assetUnitUBA",
              "type": "uint64"
            },
            {
              "internalType": "uint64",
              "name": "assetMintingGranularityUBA",
              "type": "uint64"
            },
            {
              "internalType": "uint64",
              "name": "lotSizeAMG",
              "type": "uint64"
            },
            {
              "internalType": "uint16",
              "name": "__minUnderlyingBackingBIPS",
              "type": "uint16"
            },
            {
              "internalType": "bool",
              "name": "requireEOAAddressProof",
              "type": "bool"
            },
            {
              "internalType": "uint64",
              "name": "mintingCapAMG",
              "type": "uint64"
            },
            {
              "internalType": "uint64",
              "name": "underlyingBlocksForPayment",
              "type": "uint64"
            },
            {
              "internalType": "uint64",
              "name": "underlyingSecondsForPayment",
              "type": "uint64"
            },
            {
              "internalType": "uint16",
              "name": "redemptionFeeBIPS",
              "type": "uint16"
            },
            {
              "internalType": "uint32",
              "name": "redemptionDefaultFactorVaultCollateralBIPS",
              "type": "uint32"
            },
            {
              "internalType": "uint32",
              "name": "__redemptionDefaultFactorPoolBIPS",
              "type": "uint32"
            },
            {
              "internalType": "uint64",
              "name": "confirmationByOthersAfterSeconds",
              "type": "uint64"
            },
            {
              "internalType": "uint128",
              "name": "confirmationByOthersRewardUSD5",
              "type": "uint128"
            },
            {
              "internalType": "uint16",
              "name": "maxRedeemedTickets",
              "type": "uint16"
            },
            {
              "internalType": "uint16",
              "name": "paymentChallengeRewardBIPS",
              "type": "uint16"
            },
            {
              "internalType": "uint128",
              "name": "paymentChallengeRewardUSD5",
              "type": "uint128"
            },
            {
              "internalType": "uint64",
              "name": "withdrawalWaitMinSeconds",
              "type": "uint64"
            },
            {
              "internalType": "uint64",
              "name": "maxTrustedPriceAgeSeconds",
              "type": "uint64"
            },
            {
              "internalType": "uint64",
              "name": "ccbTimeSeconds",
              "type": "uint64"
            },
            {
              "internalType": "uint64",
              "name": "attestationWindowSeconds",
              "type": "uint64"
            },
            {
              "internalType": "uint64",
              "name": "minUpdateRepeatTimeSeconds",
              "type": "uint64"
            },
            {
              "internalType": "uint64",
              "name": "__buybackCollateralFactorBIPS",
              "type": "uint64"
            },
            {
              "internalType": "uint64",
              "name": "announcedUnderlyingConfirmationMinSeconds",
              "type": "uint64"
            },
            {
              "internalType": "uint64",
              "name": "tokenInvalidationTimeMinSeconds",
              "type": "uint64"
            },
            {
              "internalType": "uint32",
              "name": "vaultCollateralBuyForFlareFactorBIPS",
              "type": "uint32"
            },
            {
              "internalType": "uint64",
              "name": "agentExitAvailableTimelockSeconds",
              "type": "uint64"
            },
            {
              "internalType": "uint64",
              "name": "agentFeeChangeTimelockSeconds",
              "type": "uint64"
            },
            {
              "internalType": "uint64",
              "name": "agentMintingCRChangeTimelockSeconds",
              "type": "uint64"
            },
            {
              "internalType": "uint64",
              "name": "poolExitCRChangeTimelockSeconds",
              "type": "uint64"
            },
            {
              "internalType": "uint64",
              "name": "agentTimelockedOperationWindowSeconds",
              "type": "uint64"
            },
            {
              "internalType": "uint32",
              "name": "collateralPoolTokenTimelockSeconds",
              "type": "uint32"
            },
            {
              "internalType": "uint64",
              "name": "liquidationStepSeconds",
              "type": "uint64"
            },
            {
              "internalType": "uint256[]",
              "name": "liquidationCollateralFactorBIPS",
              "type": "uint256[]"
            },
            {
              "internalType": "uint256[]",
              "name": "liquidationFactorVaultCollateralBIPS",
              "type": "uint256[]"
            },
            {
              "internalType": "uint64",
              "name": "diamondCutMinTimelockSeconds",
              "type": "uint64"
            },
            {
              "internalType": "uint64",
              "name": "maxEmergencyPauseDurationSeconds",
              "type": "uint64"
            },
            {
              "internalType": "uint64",
              "name": "emergencyPauseDurationResetAfterSeconds",
              "type": "uint64"
            },
            {
              "internalType": "uint64",
              "name": "__cancelCollateralReservationAfterSeconds",
              "type": "uint64"
            },
            {
              "internalType": "uint16",
              "name": "__rejectOrCancelCollateralReservationReturnFactorBIPS",
              "type": "uint16"
            },
            {
              "internalType": "uint64",
              "name": "__rejectRedemptionRequestWindowSeconds",
              "type": "uint64"
            },
            {
              "internalType": "uint64",
              "name": "__takeOverRedemptionRequestWindowSeconds",
              "type": "uint64"
            },
            {
              "internalType": "uint32",
              "name": "__rejectedRedemptionDefaultFactorVaultCollateralBIPS",
              "type": "uint32"
            },
            {
              "internalType": "uint32",
              "name": "__rejectedRedemptionDefaultFactorPoolBIPS",
              "type": "uint32"
            }
          ],
          "internalType": "struct AssetManagerSettings.Data",
          "name": "_settings",
          "type": "tuple"
        },
        {
          "components": [
            {
              "internalType": "enum CollateralType.Class",
              "name": "collateralClass",
              "type": "uint8"
            },
            {
              "internalType": "contract IERC20",
              "name": "token",
              "type": "address"
            },
            {
              "internalType": "uint256",
              "name": "decimals",
              "type": "uint256"
            },
            {
              "internalType": "uint256",
              "name": "validUntil",
              "type": "uint256"
            },
            {
              "internalType": "bool",
              "name": "directPricePair",
              "type": "bool"
            },
            {
              "internalType": "string",
              "name": "assetFtsoSymbol",
              "type": "string"
            },
            {
              "internalType": "string",
              "name": "tokenFtsoSymbol",
              "type": "string"
            },
            {
              "internalType": "uint256",
              "name": "minCollateralRatioBIPS",
              "type": "uint256"
            },
            {
              "internalType": "uint256",
              "name": "ccbMinCollateralRatioBIPS",
              "type": "uint256"
            },
            {
              "internalType": "uint256",
              "name": "safetyMinCollateralRatioBIPS",
              "type": "uint256"
            }
          ],
          "internalType": "struct CollateralType.Data[]",
          "name": "_initialCollateralTypes",
          "type": "tuple[]"
        }
      ],
      "name": "init",
      "outputs": [],
      "stateMutability": "nonpayable",
      "type": "function"
    },
    {
      "inputs": [
        {
          "internalType": "address",
          "name": "_address",
          "type": "address"
        }
      ],
      "name": "isExecutor",
      "outputs": [
        {
          "internalType": "bool",
          "name": "",
          "type": "bool"
        }
      ],
      "stateMutability": "view",
      "type": "function"
    },
    {
      "inputs": [],
      "name": "productionMode",
      "outputs": [
        {
          "internalType": "bool",
          "name": "",
          "type": "bool"
        }
      ],
      "stateMutability": "view",
      "type": "function"
    },
    {
      "inputs": [],
      "name": "switchToProductionMode",
      "outputs": [],
      "stateMutability": "nonpayable",
      "type": "function"
    },
    {
      "inputs": [],
      "name": "upgradeERC165Identifiers",
      "outputs": [],
      "stateMutability": "nonpayable",
      "type": "function"
    }
  ],
  "bytecode": "0x608060405234801561001057600080fd5b5061001d61111180610022565b6101b6565b7f2aa47ee5db910f3b2a06970c443249cc77dbd9f96100cfebc1775ab7fb1d18248054600160a01b900460ff16156100a15760405162461bcd60e51b815260206004820152601460248201527f696e697469616c6973656420213d2066616c736500000000000000000000000060448201526064015b60405180910390fd5b6001600160a01b0383166100f75760405162461bcd60e51b815260206004820152601860248201527f676f7665726e616e63652073657474696e6773207a65726f00000000000000006044820152606401610098565b6001600160a01b0382166101405760405162461bcd60e51b815260206004820152601060248201526f5f676f7665726e616e6365207a65726f60801b6044820152606401610098565b80546001600160a01b038481166001600160a81b031990921691909117600160a01b1782556001820180549184166001600160a01b0319909216821790556040519081527f9789733827840833afc031fb2ef9ab6894271f77bad2085687cf4ae5c7bee4db9060200160405180910390a1505050565b6137b9806101c56000396000f3fe608060405234801561001057600080fd5b50600436106100935760003560e01c806362354e031161006657806362354e03146100f857806374b8812314610116578063debfda301461011e578063e17f212e14610141578063f5a983831461016057600080fd5b806316fc2f6d1461009857806320c5f99d146100ad5780632a58052e146100c05780635aa6e675146100d3575b600080fd5b6100ab6100a6366004612a86565b610168565b005b6100ab6100bb366004612a86565b610250565b6100ab6100ce366004612e94565b61043f565b6100db6105c5565b6040516001600160a01b0390911681526020015b60405180910390f35b600080516020613764833981519152546001600160a01b03166100db565b6100ab61066e565b61013161012c3660046133d3565b610790565b60405190151581526020016100ef565b60008051602061376483398151915254600160a81b900460ff16610131565b6100ab61082a565b6101706108fe565b6040516000805160206137648339815191529060009061019390859085906133f0565b60405180910390209050816002016000828152602001908152602001600020546000036102075760405162461bcd60e51b815260206004820152601a60248201527f74696d656c6f636b3a20696e76616c69642073656c6563746f7200000000000060448201526064015b60405180910390fd5b6040518181527f69b058d6225c01c1f2a25801ca5b05705fa2e9118e93d518390ba804398c87b19060200160405180910390a16000908152600290910160205260408120555050565b60008051602061376483398151915261026833610790565b6102a45760405162461bcd60e51b815260206004820152600d60248201526c37b7363c9032bc32b1baba37b960991b60448201526064016101fe565b600083836040516102b69291906133f0565b604080519182900390912060008181526002850160205291822054909250908190036103245760405162461bcd60e51b815260206004820152601a60248201527f74696d656c6f636b3a20696e76616c69642073656c6563746f7200000000000060448201526064016101fe565b804210156103745760405162461bcd60e51b815260206004820152601960248201527f74696d656c6f636b3a206e6f7420616c6c6f776564207965740000000000000060448201526064016101fe565b6000828152600284016020526040808220829055845460ff60b01b1916600160b01b1785555130906103a990889088906133f0565b6000604051808303816000865af19150503d80600081146103e6576040519150601f19603f3d011682016040523d82523d6000602084013e6103eb565b606091505b5050845460ff60b01b191685556040518481529091507fec1225e5a8a8acb91e03ce648c683c74f5d152a775b9715980999441d714c44f9060200160405180910390a16104378161095a565b505050505050565b6104498484610977565b610451610aeb565b61045a82610b14565b61046381610b29565b6105bf7fc8fcad8db84d3cc18b4c41d551ea0ee66dd599cde068d998e57d5e09332c131e6020527f673a26ab9c976db950bbe987aa80c5e387f329563bb0afe093ddccc970489e318054600160ff1991821681179092557f795db15802e151b19272d3e7b72ebd9d0cedc282cc23a6e937c8c3c90d9e213780548216831790557f9bed265332efc30fa7643cc339edc91cb284a0f6566818a5788922af58c86b5080548216831790557f0e17016f77c707cc5512876feaba348b6ac4583ca05776931566ec6ff53bf1bf80548216831790557f3c0935eccf79cdc7595c83698612fd73988261afa4ff0ad3b9cb8e0b6cef4eb280548216831790557fe7968570f149439c033fc61ae3f7af54e897e68c84908a63417b16ec23d20746805482168317905563b6944a0760e01b6000527f4ee2dc5a87b2341cdd884cb24ac903cb3474fc8ab46d935373f1eb2142f14e5780549091169091179055565b50505050565b600080516020613764833981519152805460009190600160a81b900460ff166105fb5760018101546001600160a01b0316610668565b805460408051631cc9492560e21b815290516001600160a01b03909216916373252494916004808201926020929091908290030181865afa158015610644573d6000803e3d6000fd5b505050506040513d601f19601f820116820180604052508101906106689190613400565b91505090565b6301ffc9a760e01b6000527fc8fcad8db84d3cc18b4c41d551ea0ee66dd599cde068d998e57d5e09332c131e6020527f673a26ab9c976db950bbe987aa80c5e387f329563bb0afe093ddccc970489e31547fc8fcad8db84d3cc18b4c41d551ea0ee66dd599cde068d998e57d5e09332c131c9060ff166107225760405162461bcd60e51b815260206004820152600f60248201526e1b9bdd081a5b9a5d1a585b1a5e9959608a1b60448201526064016101fe565b63c4c3061b60e01b600090815260029091016020526040808220805460ff199081166001908117909255638f85ebf160e01b8452828420805482168317905563f4879ca360e01b8452828420805482168317905563b6944a0760e01b84529190922080549091169091179055565b600080516020613764833981519152805460009190600160a01b900460ff16801561082357508054604051630debfda360e41b81526001600160a01b0385811660048301529091169063debfda3090602401602060405180830381865afa1580156107ff573d6000803e3d6000fd5b505050506040513d601f19601f82011682018060405250810190610823919061341d565b9392505050565b6108326108fe565b6000805160206137648339815191528054600160a81b900460ff161561089a5760405162461bcd60e51b815260206004820152601a60248201527f616c726561647920696e2070726f64756374696f6e206d6f646500000000000060448201526064016101fe565b6001810180546001600160a01b03191690558054600160a81b60ff60a81b1982161782556040516001600160a01b0390911681527f83af113638b5422f9e977cebc0aaf0eaf2188eb9a8baae7f9d46c42b33a1560c9060200160405180910390a150565b6109066105c5565b6001600160a01b0316336001600160a01b0316146109585760405162461bcd60e51b815260206004820152600f60248201526e6f6e6c7920676f7665726e616e636560881b60448201526064016101fe565b565b3d604051818101604052816000823e8215610973578181f35b8181fd5b6000805160206137648339815191528054600160a01b900460ff16156109d65760405162461bcd60e51b8152602060048201526014602482015273696e697469616c6973656420213d2066616c736560601b60448201526064016101fe565b6001600160a01b038316610a2c5760405162461bcd60e51b815260206004820152601860248201527f676f7665726e616e63652073657474696e6773207a65726f000000000000000060448201526064016101fe565b6001600160a01b038216610a755760405162461bcd60e51b815260206004820152601060248201526f5f676f7665726e616e6365207a65726f60801b60448201526064016101fe565b80546001600160a01b038481166001600160a81b031990921691909117600160a01b1782556001820180549184166001600160a01b0319909216821790556040519081527f9789733827840833afc031fb2ef9ab6894271f77bad2085687cf4ae5c7bee4db9060200160405180910390a1505050565b61095860017f0cd2207518cd3e5213e2c6dbe63d55b60aa893c194a427b7d7f1600408fd5bde55565b610b1d81610cd7565b610b26816116ca565b50565b600281511015610b855760405162461bcd60e51b815260206004820152602160248201527f6174206c656173742074776f20636f6c6c61746572616c7320726571756972656044820152601960fa1b60648201526084016101fe565b600181600081518110610b9a57610b9a613450565b6020026020010151600001516002811115610bb757610bb761343a565b14610c045760405162461bcd60e51b815260206004820152601a60248201527f6e6f74206120706f6f6c20636f6c6c61746572616c206174203000000000000060448201526064016101fe565b610c2781600081518110610c1a57610c1a613450565b6020026020010151612086565b50610c326000612503565b60015b8151811015610cd3576002828281518110610c5257610c52613450565b6020026020010151600001516002811115610c6f57610c6f61343a565b14610cb55760405162461bcd60e51b81526020600482015260166024820152751b9bdd0818481d985d5b1d0818dbdb1b185d195c985b60521b60448201526064016101fe565b610cca828281518110610c1a57610c1a613450565b50600101610c35565b5050565b60208101516001600160a01b0316610d275760405162461bcd60e51b81526020600482015260136024820152727a65726f20664173736574206164647265737360681b60448201526064016101fe565b60408101516001600160a01b0316610d815760405162461bcd60e51b815260206004820152601e60248201527f7a65726f206167656e745661756c74466163746f72792061646472657373000060448201526064016101fe565b60608101516001600160a01b0316610de65760405162461bcd60e51b815260206004820152602260248201527f7a65726f20636f6c6c61746572616c506f6f6c466163746f7279206164647265604482015261737360f01b60648201526084016101fe565b60808101516001600160a01b0316610e505760405162461bcd60e51b815260206004820152602760248201527f7a65726f20636f6c6c61746572616c506f6f6c546f6b656e466163746f7279206044820152666164647265737360c81b60648201526084016101fe565b6101008101516001600160a01b0316610eab5760405162461bcd60e51b815260206004820152601c60248201527f7a65726f20666463566572696669636174696f6e20616464726573730000000060448201526064016101fe565b6101408101516001600160a01b0316610f065760405162461bcd60e51b815260206004820152601860248201527f7a65726f2070726963655265616465722061646472657373000000000000000060448201526064016101fe565b60e08101516001600160a01b0316610f605760405162461bcd60e51b815260206004820152601f60248201527f7a65726f206167656e744f776e6572526567697374727920616464726573730060448201526064016101fe565b60008161022001516001600160401b031611610f8e5760405162461bcd60e51b81526004016101fe90613466565b60008161024001516001600160401b031611610fbc5760405162461bcd60e51b81526004016101fe90613466565b6000816102e001516001600160401b031611610fea5760405162461bcd60e51b81526004016101fe90613466565b60008161030001516001600160401b0316116110185760405162461bcd60e51b81526004016101fe90613466565b600081610320015161ffff16116110415760405162461bcd60e51b81526004016101fe90613466565b600081610200015161ffff161161106a5760405162461bcd60e51b81526004016101fe90613466565b6000816103a001516001600160801b0316116110985760405162461bcd60e51b81526004016101fe90613466565b6000816103c0015161ffff16116110c15760405162461bcd60e51b81526004016101fe90613466565b60008161046001516001600160401b0316116110ef5760405162461bcd60e51b81526004016101fe90613466565b60008161044001516001600160401b03161161111d5760405162461bcd60e51b81526004016101fe90613466565b6000816104a001516001600160401b03161161114b5760405162461bcd60e51b81526004016101fe90613466565b60008161042001516001600160401b0316116111795760405162461bcd60e51b81526004016101fe90613466565b6000816101c0015163ffffffff16116111a45760405162461bcd60e51b81526004016101fe90613466565b6111d6816102e001516001600160401b03168261030001516001600160401b0316836101c0015163ffffffff166125a0565b60008161026001516001600160401b0316116112045760405162461bcd60e51b81526004016101fe90613466565b6102c08101516001600160401b0316158061123b57508061026001516001600160401b0316816102c001516001600160401b031610155b61127f5760405162461bcd60e51b81526020600482015260156024820152741b5a5b9d1a5b99c818d85c081d1bdbc81cdb585b1b605a1b60448201526064016101fe565b61271081610200015161ffff1611156112d05760405162461bcd60e51b81526020600482015260136024820152720c4d2e0e640ecc2d8eaca40e8dede40d0d2ced606b1b60448201526064016101fe565b61271081610320015161ffff1611156113215760405162461bcd60e51b81526020600482015260136024820152720c4d2e0e640ecc2d8eaca40e8dede40d0d2ced606b1b60448201526064016101fe565b61271081610340015163ffffffff16116113725760405162461bcd60e51b8152602060048201526012602482015271626970732076616c756520746f6f206c6f7760701b60448201526064016101fe565b620151808161048001516001600160401b031610156113c65760405162461bcd60e51b815260206004820152601060248201526f1dda5b991bddc81d1bdbc81cdb585b1b60821b60448201526064016101fe565b611c208161038001516001600160401b031610156114265760405162461bcd60e51b815260206004820152601a60248201527f6d757374206265206174206c656173742074776f20686f75727300000000000060448201526064016101fe565b610e10816104e001516001600160401b031611156114865760405162461bcd60e51b815260206004820152601960248201527f636f6e6669726d6174696f6e2074696d6520746f6f206269670000000000000060448201526064016101fe565b61271081610520015163ffffffff1610156114b35760405162461bcd60e51b81526004016101fe9061348e565b610e10816105c001516001600160401b031610156114e35760405162461bcd60e51b81526004016101fe9061348e565b603c816105e0015163ffffffff16101561150f5760405162461bcd60e51b81526004016101fe9061348e565b60008161060001516001600160401b03161161153d5760405162461bcd60e51b81526004016101fe90613466565b611551816106200151826106400151612643565b6104c08101516001600160401b03161561157d5760405162461bcd60e51b81526004016101fe906134b7565b61028081015161ffff16156115a45760405162461bcd60e51b81526004016101fe906134b7565b61036081015163ffffffff16156115cd5760405162461bcd60e51b81526004016101fe906134b7565b6106c08101516001600160401b0316156115f95760405162461bcd60e51b81526004016101fe906134b7565b6106e081015161ffff16156116205760405162461bcd60e51b81526004016101fe906134b7565b6107008101516001600160401b03161561164c5760405162461bcd60e51b81526004016101fe906134b7565b6107208101516001600160401b0316156116785760405162461bcd60e51b81526004016101fe906134b7565b61074081015163ffffffff16156116a15760405162461bcd60e51b81526004016101fe906134b7565b61076081015163ffffffff1615610b265760405162461bcd60e51b81526004016101fe906134b7565b80517f4f24f5c433db0962dac0d2c8b84197a6e6c7cc4e5d9ebe1916a1b6193da2f33a80546001600160a01b03199081166001600160a01b0393841617825560208401517f4f24f5c433db0962dac0d2c8b84197a6e6c7cc4e5d9ebe1916a1b6193da2f33b8054831691851691909117905560408401517f4f24f5c433db0962dac0d2c8b84197a6e6c7cc4e5d9ebe1916a1b6193da2f33c8054831691851691909117905560608401517f4f24f5c433db0962dac0d2c8b84197a6e6c7cc4e5d9ebe1916a1b6193da2f33d8054831691851691909117905560808401517f4f24f5c433db0962dac0d2c8b84197a6e6c7cc4e5d9ebe1916a1b6193da2f33e805490921693169290921790915560a08201518190839082907f4f24f5c433db0962dac0d2c8b84197a6e6c7cc4e5d9ebe1916a1b6193da2f33f9061180d9082613565565b5060c08201518160060160006101000a8154816001600160a01b0302191690836001600160a01b0316021790555060e08201518160070160006101000a8154816001600160a01b0302191690836001600160a01b031602179055506101008201518160080160006101000a8154816001600160a01b0302191690836001600160a01b031602179055506101208201518160090160006101000a8154816001600160a01b0302191690836001600160a01b0316021790555061014082015181600a0160006101000a8154816001600160a01b0302191690836001600160a01b0316021790555061016082015181600a0160146101000a81548160ff021916908360ff16021790555061018082015181600a0160156101000a81548160ff021916908360ff1602179055506101a082015181600b01556101c082015181600c0160006101000a81548163ffffffff021916908363ffffffff1602179055506101e082015181600c0160046101000a81548163ffffffff021916908363ffffffff16021790555061020082015181600c0160086101000a81548161ffff021916908361ffff16021790555061022082015181600c01600a6101000a8154816001600160401b0302191690836001600160401b0316021790555061024082015181600c0160126101000a8154816001600160401b0302191690836001600160401b0316021790555061026082015181600d0160006101000a8154816001600160401b0302191690836001600160401b0316021790555061028082015181600d0160086101000a81548161ffff021916908361ffff1602179055506102a082015181600d01600a6101000a81548160ff0219169083151502179055506102c082015181600d01600b6101000a8154816001600160401b0302191690836001600160401b031602179055506102e082015181600d0160136101000a8154816001600160401b0302191690836001600160401b0316021790555061030082015181600e0160006101000a8154816001600160401b0302191690836001600160401b0316021790555061032082015181600e0160086101000a81548161ffff021916908361ffff16021790555061034082015181600e01600a6101000a81548163ffffffff021916908363ffffffff16021790555061036082015181600e01600e6101000a81548163ffffffff021916908363ffffffff16021790555061038082015181600e0160126101000a8154816001600160401b0302191690836001600160401b031602179055506103a082015181600f0160006101000a8154816001600160801b0302191690836001600160801b031602179055506103c082015181600f0160106101000a81548161ffff021916908361ffff1602179055506103e082015181600f0160126101000a81548161ffff021916908361ffff1602179055506104008201518160100160006101000a8154816001600160801b0302191690836001600160801b031602179055506104208201518160100160106101000a8154816001600160401b0302191690836001600160401b031602179055506104408201518160100160186101000a8154816001600160401b0302191690836001600160401b031602179055506104608201518160110160006101000a8154816001600160401b0302191690836001600160401b031602179055506104808201518160110160086101000a8154816001600160401b0302191690836001600160401b031602179055506104a08201518160110160106101000a8154816001600160401b0302191690836001600160401b031602179055506104c08201518160110160186101000a8154816001600160401b0302191690836001600160401b031602179055506104e08201518160120160006101000a8154816001600160401b0302191690836001600160401b031602179055506105008201518160120160086101000a8154816001600160401b0302191690836001600160401b031602179055506105208201518160120160106101000a81548163ffffffff021916908363ffffffff1602179055506105408201518160120160146101000a8154816001600160401b0302191690836001600160401b031602179055506105608201518160130160006101000a8154816001600160401b0302191690836001600160401b031602179055506105808201518160130160086101000a8154816001600160401b0302191690836001600160401b031602179055506105a08201518160130160106101000a8154816001600160401b0302191690836001600160401b031602179055506105c08201518160130160186101000a8154816001600160401b0302191690836001600160401b031602179055506105e08201518160140160006101000a81548163ffffffff021916908363ffffffff1602179055506106008201518160140160046101000a8154816001600160401b0302191690836001600160401b03160217905550610620820151816015019080519060200190611f45929190612a2f565b506106408201518051611f62916016840191602090910190612a2f565b506106608201516017820180546106808501516106a08601516106c08701516001600160401b039586166fffffffffffffffffffffffffffffffff1990941693909317600160401b92861692909202919091176001600160801b0316600160801b918516919091026001600160c01b031617600160c01b918416919091021790556106e0830151601890920180546107008501516107208601516107408701516107609097015161ffff90961669ffffffffffffffffffff19909316929092176201000091851691909102176bffffffffffffffffffffffff60501b1916600160501b919093160263ffffffff60901b191691909117600160901b63ffffffff948516021763ffffffff60b01b1916600160b01b9390921692909202179055505050565b60208101516000907fec7e8c1c441439dd40959777f4c577ea0cd42fcc1dbe59d2bd0f5d9c55df8db6906001600160a01b03166120f25760405162461bcd60e51b815260206004820152600a602482015269746f6b656e207a65726f60b01b60448201526064016101fe565b60006121068460000151856020015161286e565b60008181526001840160205260409020549091501561215e5760405162461bcd60e51b8152602060048201526014602482015273746f6b656e20616c72656164792065786973747360601b60448201526064016101fe565b6060840151156121b05760405162461bcd60e51b815260206004820152601b60248201527f63616e6e6f7420616464206465707265636174656420746f6b656e000000000060448201526064016101fe565b60008461010001516127101080156121d157508460e0015185610100015111155b80156121e657508461012001518560e0015111155b9050806122355760405162461bcd60e51b815260206004820152601960248201527f696e76616c696420636f6c6c61746572616c20726174696f730000000000000060448201526064016101fe565b82546040805161014081019091526020808801516001600160a01b031682528751869291820190600281111561226d5761226d61343a565b815260200161227f896040015161289a565b60ff16815260200161229489606001516128ff565b6001600160401b031681526020018860800151151581526020018860a0015181526020018860c0015181526020016122cf8960e00151612967565b63ffffffff1681526020016122e8896101000151612967565b63ffffffff168152602001612301896101200151612967565b63ffffffff16905281546001810183556000928352602092839020825160049092020180546001600160a01b031981166001600160a01b03909316928317825593830151929390929183916001600160a81b03191617600160a01b83600281111561236e5761236e61343a565b021790555060408201518154606084015160808501511515600160f01b0260ff60f01b196001600160401b03909216600160b01b0267ffffffffffffffff60b01b1960ff909516600160a81b029490941668ffffffffffffffffff60a81b1990931692909217929092179190911617815560a082015160018201906123f39082613565565b5060c082015160028201906124089082613565565b5060e0820151600390910180546101008401516101209094015163ffffffff908116600160401b026bffffffff0000000000000000199582166401000000000267ffffffffffffffff199093169190941617179290921617905561246d816001613639565b600084815260018601602052604090205585517fbef4c272617e8773ee6209dd5f05e50ca5be37232b0c94cb8439d8a56bfdb7ce9060028111156124b3576124b361343a565b8760200151886040015189608001518a60a001518b60c001518c60e001518d61010001518e61012001516040516124f299989796959493929190613692565b60405180910390a195945050505050565b7fec7e8c1c441439dd40959777f4c577ea0cd42fcc1dbe59d2bd0f5d9c55df8db6805460009082908490811061253b5761253b613450565b60009182526020909120600490910201905060018154600160a01b900460ff16600281111561256c5761256c61343a565b1461257957612579613701565b612582836129cc565b600f92909201805461ffff191661ffff909316929092179091555050565b620151808211156125e45760405162461bcd60e51b815260206004820152600e60248201526d0ecc2d8eaca40e8dede40d0d2ced60931b60448201526064016101fe565b620151806103e86125f58386613717565b6125ff919061372e565b111561263e5760405162461bcd60e51b815260206004820152600e60248201526d0ecc2d8eaca40e8dede40d0d2ced60931b60448201526064016101fe565b505050565b80518251146126885760405162461bcd60e51b81526020600482015260116024820152701b195b99dd1a1cc81b9bdd08195c5d585b607a1b60448201526064016101fe565b6001825110156126da5760405162461bcd60e51b815260206004820152601c60248201527f6174206c65617374206f6e6520666163746f722072657175697265640000000060448201526064016101fe565b60005b825181101561263e576127108382815181106126fb576126fb613450565b6020026020010151116127455760405162461bcd60e51b8152602060048201526012602482015271666163746f72206e6f742061626f7665203160701b60448201526064016101fe565b82818151811061275757612757613450565b602002602001015182828151811061277157612771613450565b602002602001015111156127d95760405162461bcd60e51b815260206004820152602960248201527f7661756c7420636f6c6c61746572616c20666163746f722068696768657220746044820152681a185b881d1bdd185b60ba1b60648201526084016101fe565b8015806128215750826127ed600183613750565b815181106127fd576127fd613450565b602002602001015183828151811061281757612817613450565b6020026020010151115b6128665760405162461bcd60e51b8152602060048201526016602482015275666163746f7273206e6f7420696e6372656173696e6760501b60448201526064016101fe565b6001016126dd565b6000816001600160a01b031660a084600281111561288e5761288e61343a565b901b1790505b92915050565b600060ff8211156128fb5760405162461bcd60e51b815260206004820152602560248201527f53616665436173743a2076616c756520646f65736e27742066697420696e2038604482015264206269747360d81b60648201526084016101fe565b5090565b60006001600160401b038211156128fb5760405162461bcd60e51b815260206004820152602660248201527f53616665436173743a2076616c756520646f65736e27742066697420696e203660448201526534206269747360d01b60648201526084016101fe565b600063ffffffff8211156128fb5760405162461bcd60e51b815260206004820152602660248201527f53616665436173743a2076616c756520646f65736e27742066697420696e203360448201526532206269747360d01b60648201526084016101fe565b600061ffff8211156128fb5760405162461bcd60e51b815260206004820152602660248201527f53616665436173743a2076616c756520646f65736e27742066697420696e203160448201526536206269747360d01b60648201526084016101fe565b828054828255906000526020600020908101928215612a6a579160200282015b82811115612a6a578251825591602001919060010190612a4f565b506128fb9291505b808211156128fb5760008155600101612a72565b60008060208385031215612a9957600080fd5b82356001600160401b03811115612aaf57600080fd5b8301601f81018513612ac057600080fd5b80356001600160401b03811115612ad657600080fd5b856020828401011115612ae857600080fd5b6020919091019590945092505050565b6001600160a01b0381168114610b2657600080fd5b8035612b1881612af8565b919050565b634e487b7160e01b600052604160045260246000fd5b60405161014081016001600160401b0381118282101715612b5657612b56612b1d565b60405290565b60405161078081016001600160401b0381118282101715612b5657612b56612b1d565b604051601f8201601f191681016001600160401b0381118282101715612ba757612ba7612b1d565b604052919050565b600082601f830112612bc057600080fd5b81356001600160401b03811115612bd957612bd9612b1d565b612bec601f8201601f1916602001612b7f565b818152846020838601011115612c0157600080fd5b816020850160208301376000918101602001919091529392505050565b803560ff81168114612b1857600080fd5b803563ffffffff81168114612b1857600080fd5b803561ffff81168114612b1857600080fd5b80356001600160401b0381168114612b1857600080fd5b8015158114610b2657600080fd5b8035612b1881612c6c565b80356001600160801b0381168114612b1857600080fd5b60006001600160401b03821115612cb557612cb5612b1d565b5060051b60200190565b600082601f830112612cd057600080fd5b8135612ce3612cde82612c9c565b612b7f565b8082825260208201915060208360051b860101925085831115612d0557600080fd5b602085015b83811015612d22578035835260209283019201612d0a565b5095945050505050565b803560038110612b1857600080fd5b600082601f830112612d4c57600080fd5b8135612d5a612cde82612c9c565b8082825260208201915060208360051b860101925085831115612d7c57600080fd5b602085015b83811015612d225780356001600160401b03811115612d9f57600080fd5b8601610140818903601f19011215612db657600080fd5b612dbe612b33565b612dca60208301612d2c565b8152612dd860408301612b0d565b60208201526060828101356040830152608083013590820152612dfd60a08301612c7a565b608082015260c08201356001600160401b03811115612e1b57600080fd5b612e2a8a602083860101612baf565b60a08301525060e08201356001600160401b03811115612e4957600080fd5b612e588a602083860101612baf565b60c0830152506101008281013560e083015261012080840135918301919091526101409092013591810191909152835260209283019201612d81565b60008060008060808587031215612eaa57600080fd5b8435612eb581612af8565b93506020850135612ec581612af8565b925060408501356001600160401b03811115612ee057600080fd5b85016107808188031215612ef357600080fd5b612efb612b5c565b612f0482612b0d565b8152612f1260208301612b0d565b6020820152612f2360408301612b0d565b6040820152612f3460608301612b0d565b6060820152612f4560808301612b0d565b608082015260a08201356001600160401b03811115612f6357600080fd5b612f6f89828501612baf565b60a083015250612f8160c08301612b0d565b60c0820152612f9260e08301612b0d565b60e0820152612fa46101008301612b0d565b610100820152612fb76101208301612b0d565b610120820152612fca6101408301612b0d565b610140820152612fdd6101608301612c1e565b610160820152612ff06101808301612c1e565b6101808201526101a0828101359082015261300e6101c08301612c2f565b6101c08201526130216101e08301612c2f565b6101e08201526130346102008301612c43565b6102008201526130476102208301612c55565b61022082015261305a6102408301612c55565b61024082015261306d6102608301612c55565b6102608201526130806102808301612c43565b6102808201526130936102a08301612c7a565b6102a08201526130a66102c08301612c55565b6102c08201526130b96102e08301612c55565b6102e08201526130cc6103008301612c55565b6103008201526130df6103208301612c43565b6103208201526130f26103408301612c2f565b6103408201526131056103608301612c2f565b6103608201526131186103808301612c55565b61038082015261312b6103a08301612c85565b6103a082015261313e6103c08301612c43565b6103c08201526131516103e08301612c43565b6103e08201526131646104008301612c85565b6104008201526131776104208301612c55565b61042082015261318a6104408301612c55565b61044082015261319d6104608301612c55565b6104608201526131b06104808301612c55565b6104808201526131c36104a08301612c55565b6104a08201526131d66104c08301612c55565b6104c08201526131e96104e08301612c55565b6104e08201526131fc6105008301612c55565b61050082015261320f6105208301612c2f565b6105208201526132226105408301612c55565b6105408201526132356105608301612c55565b6105608201526132486105808301612c55565b61058082015261325b6105a08301612c55565b6105a082015261326e6105c08301612c55565b6105c08201526132816105e08301612c2f565b6105e08201526132946106008301612c55565b6106008201526106208201356001600160401b038111156132b457600080fd5b6132c089828501612cbf565b610620830152506106408201356001600160401b038111156132e157600080fd5b6132ed89828501612cbf565b610640830152506133016106608301612c55565b6106608201526133146106808301612c55565b6106808201526133276106a08301612c55565b6106a082015261333a6106c08301612c55565b6106c082015261334d6106e08301612c43565b6106e08201526133606107008301612c55565b6107008201526133736107208301612c55565b6107208201526133866107408301612c2f565b6107408201526133996107608301612c2f565b61076082015292505060608501356001600160401b038111156133bb57600080fd5b6133c787828801612d3b565b91505092959194509250565b6000602082840312156133e557600080fd5b813561082381612af8565b8183823760009101908152919050565b60006020828403121561341257600080fd5b815161082381612af8565b60006020828403121561342f57600080fd5b815161082381612c6c565b634e487b7160e01b600052602160045260246000fd5b634e487b7160e01b600052603260045260246000fd5b6020808252600e908201526d63616e6e6f74206265207a65726f60901b604082015260600190565b6020808252600f908201526e1d985b1d59481d1bdbc81cdb585b1b608a1b604082015260600190565b6020808252600c908201526b6d757374206265207a65726f60a01b604082015260600190565b600181811c908216806134f157607f821691505b60208210810361351157634e487b7160e01b600052602260045260246000fd5b50919050565b601f82111561263e57806000526020600020601f840160051c8101602085101561353e5750805b601f840160051c820191505b8181101561355e576000815560010161354a565b5050505050565b81516001600160401b0381111561357e5761357e612b1d565b6135928161358c84546134dd565b84613517565b6020601f8211600181146135c657600083156135ae5750848201515b600019600385901b1c1916600184901b17845561355e565b600084815260208120601f198516915b828110156135f657878501518255602094850194600190920191016135d6565b50848210156136145786840151600019600387901b60f8161c191681555b50505050600190811b01905550565b634e487b7160e01b600052601160045260246000fd5b8082018082111561289457612894613623565b6000815180845260005b8181101561367257602081850181015186830182015201613656565b506000602082860101526020601f19601f83011685010191505092915050565b60ff8a16815260018060a01b03891660208201528760408201528615156060820152610120608082015260006136cc61012083018861364c565b82810360a08401526136de818861364c565b60c0840196909652505060e0810192909252610100909101529695505050505050565b634e487b7160e01b600052600160045260246000fd5b808202811582820484141761289457612894613623565b60008261374b57634e487b7160e01b600052601260045260246000fd5b500490565b818103818111156128945761289461362356fe2aa47ee5db910f3b2a06970c443249cc77dbd9f96100cfebc1775ab7fb1d1824a2646970667358221220765a4e64af5e2eb652f1734dcedac92115f84fd58f838b9ec1468f55050e7fc464736f6c634300081b0033",
  "linkReferences": {},
  "deployedLinkReferences": {}
}