{
  "_format": "hh-sol-artifact-1",
  "contractName": "WNatMock",
  "sourceName": "contracts/flareSmartContracts/mock/WNatMock.sol",
  "abi": [
    {
      "inputs": [
        {
          "internalType": "address",
          "name": "",
          "type": "address"
        },
        {
          "internalType": "string",
          "name": "_name",
          "type": "string"
        },
        {
          "internalType": "string",
          "name": "_symbol",
          "type": "string"
        }
      ],
      "stateMutability": "nonpayable",
      "type": "constructor"
    },
    {
      "anonymous": false,
      "inputs": [
        {
          "indexed": true,
          "internalType": "address",
          "name": "owner",
          "type": "address"
        },
        {
          "indexed": true,
          "internalType": "address",
          "name": "spender",
          "type": "address"
        },
        {
          "indexed": false,
          "internalType": "uint256",
          "name": "value",
          "type": "uint256"
        }
      ],
      "name": "Approval",
      "type": "event"
    },
    {
      "anonymous": false,
      "inputs": [
        {
          "indexed": true,
          "internalType": "address",
          "name": "from",
          "type": "address"
        },
        {
          "indexed": true,
          "internalType": "address",
          "name": "to",
          "type": "address"
        },
        {
          "indexed": false,
          "internalType": "uint256",
          "name": "value",
          "type": "uint256"
        }
      ],
      "name": "Transfer",
      "type": "event"
    },
    {
      "inputs": [
        {
          "internalType": "address",
          "name": "owner",
          "type": "address"
        },
        {
          "internalType": "address",
          "name": "spender",
          "type": "address"
        }
      ],
      "name": "allowance",
      "outputs": [
        {
          "internalType": "uint256",
          "name": "",
          "type": "uint256"
        }
      ],
      "stateMutability": "view",
      "type": "function"
    },
    {
      "inputs": [
        {
          "internalType": "address",
          "name": "spender",
          "type": "address"
        },
        {
          "internalType": "uint256",
          "name": "amount",
          "type": "uint256"
        }
      ],
      "name": "approve",
      "outputs": [
        {
          "internalType": "bool",
          "name": "",
          "type": "bool"
        }
      ],
      "stateMutability": "nonpayable",
      "type": "function"
    },
    {
      "inputs": [
        {
          "internalType": "address",
          "name": "account",
          "type": "address"
        }
      ],
      "name": "balanceOf",
      "outputs": [
        {
          "internalType": "uint256",
          "name": "",
          "type": "uint256"
        }
      ],
      "stateMutability": "view",
      "type": "function"
    },
    {
      "inputs": [
        {
          "internalType": "address",
          "name": "",
          "type": "address"
        },
        {
          "internalType": "uint256",
          "name": "",
          "type": "uint256"
        }
      ],
      "name": "balanceOfAt",
      "outputs": [
        {
          "internalType": "uint256",
          "name": "",
          "type": "uint256"
        }
      ],
      "stateMutability": "pure",
      "type": "function"
    },
    {
      "inputs": [
        {
          "internalType": "address[]",
          "name": "",
          "type": "address[]"
        },
        {
          "internalType": "uint256[]",
          "name": "",
          "type": "uint256[]"
        }
      ],
      "name": "batchDelegate",
      "outputs": [],
      "stateMutability": "pure",
      "type": "function"
    },
    {
      "inputs": [],
      "name": "decimals",
      "outputs": [
        {
          "internalType": "uint8",
          "name": "",
          "type": "uint8"
        }
      ],
      "stateMutability": "view",
      "type": "function"
    },
    {
      "inputs": [
        {
          "internalType": "address",
          "name": "spender",
          "type": "address"
        },
        {
          "internalType": "uint256",
          "name": "subtractedValue",
          "type": "uint256"
        }
      ],
      "name": "decreaseAllowance",
      "outputs": [
        {
          "internalType": "bool",
          "name": "",
          "type": "bool"
        }
      ],
      "stateMutability": "nonpayable",
      "type": "function"
    },
    {
      "inputs": [
        {
          "internalType": "address",
          "name": "_to",
          "type": "address"
        },
        {
          "internalType": "uint256",
          "name": "_bips",
          "type": "uint256"
        }
      ],
      "name": "delegate",
      "outputs": [],
      "stateMutability": "nonpayable",
      "type": "function"
    },
    {
      "inputs": [
        {
          "internalType": "address",
          "name": "",
          "type": "address"
        },
        {
          "internalType": "uint256",
          "name": "",
          "type": "uint256"
        }
      ],
      "name": "delegateExplicit",
      "outputs": [],
      "stateMutability": "pure",
      "type": "function"
    },
    {
      "inputs": [
        {
          "internalType": "address",
          "name": "_owner",
          "type": "address"
        }
      ],
      "name": "delegatesOf",
      "outputs": [
        {
          "internalType": "address[]",
          "name": "_delegateAddresses",
          "type": "address[]"
        },
        {
          "internalType": "uint256[]",
          "name": "_bips",
          "type": "uint256[]"
        },
        {
          "internalType": "uint256",
          "name": "_count",
          "type": "uint256"
        },
        {
          "internalType": "uint256",
          "name": "_delegationMode",
          "type": "uint256"
        }
      ],
      "stateMutability": "view",
      "type": "function"
    },
    {
      "inputs": [
        {
          "internalType": "address",
          "name": "",
          "type": "address"
        },
        {
          "internalType": "uint256",
          "name": "",
          "type": "uint256"
        }
      ],
      "name": "delegatesOfAt",
      "outputs": [
        {
          "internalType": "address[]",
          "name": "",
          "type": "address[]"
        },
        {
          "internalType": "uint256[]",
          "name": "",
          "type": "uint256[]"
        },
        {
          "internalType": "uint256",
          "name": "",
          "type": "uint256"
        },
        {
          "internalType": "uint256",
          "name": "",
          "type": "uint256"
        }
      ],
      "stateMutability": "pure",
      "type": "function"
    },
    {
      "inputs": [
        {
          "internalType": "address",
          "name": "",
          "type": "address"
        }
      ],
      "name": "delegationModeOf",
      "outputs": [
        {
          "internalType": "uint256",
          "name": "",
          "type": "uint256"
        }
      ],
      "stateMutability": "pure",
      "type": "function"
    },
    {
      "inputs": [],
      "name": "deposit",
      "outputs": [],
      "stateMutability": "payable",
      "type": "function"
    },
    {
      "inputs": [
        {
          "internalType": "address",
          "name": "_recipient",
          "type": "address"
        }
      ],
      "name": "depositTo",
      "outputs": [],
      "stateMutability": "payable",
      "type": "function"
    },
    {
      "inputs": [],
      "name": "governanceVotePower",
      "outputs": [
        {
          "internalType": "contract IGovernanceVotePower",
          "name": "",
          "type": "address"
        }
      ],
      "stateMutability": "view",
      "type": "function"
    },
    {
      "inputs": [
        {
          "internalType": "address",
          "name": "spender",
          "type": "address"
        },
        {
          "internalType": "uint256",
          "name": "addedValue",
          "type": "uint256"
        }
      ],
      "name": "increaseAllowance",
      "outputs": [
        {
          "internalType": "bool",
          "name": "",
          "type": "bool"
        }
      ],
      "stateMutability": "nonpayable",
      "type": "function"
    },
    {
      "inputs": [],
      "name": "name",
      "outputs": [
        {
          "internalType": "string",
          "name": "",
          "type": "string"
        }
      ],
      "stateMutability": "view",
      "type": "function"
    },
    {
      "inputs": [],
      "name": "readVotePowerContract",
      "outputs": [
        {
          "internalType": "contract IVPContractEvents",
          "name": "",
          "type": "address"
        }
      ],
      "stateMutability": "pure",
      "type": "function"
    },
    {
      "inputs": [
        {
          "internalType": "address",
          "name": "",
          "type": "address"
        },
        {
          "internalType": "uint256",
          "name": "",
          "type": "uint256"
        }
      ],
      "name": "revokeDelegationAt",
      "outputs": [],
      "stateMutability": "pure",
      "type": "function"
    },
    {
      "inputs": [
        {
          "internalType": "contract IGovernanceVotePower",
          "name": "_governanceVotePower",
          "type": "address"
        }
      ],
      "name": "setGovernanceVotePower",
      "outputs": [],
      "stateMutability": "nonpayable",
      "type": "function"
    },
    {
      "inputs": [],
      "name": "symbol",
      "outputs": [
        {
          "internalType": "string",
          "name": "",
          "type": "string"
        }
      ],
      "stateMutability": "view",
      "type": "function"
    },
    {
      "inputs": [],
      "name": "totalSupply",
      "outputs": [
        {
          "internalType": "uint256",
          "name": "",
          "type": "uint256"
        }
      ],
      "stateMutability": "view",
      "type": "function"
    },
    {
      "inputs": [
        {
          "internalType": "uint256",
          "name": "",
          "type": "uint256"
        }
      ],
      "name": "totalSupplyAt",
      "outputs": [
        {
          "internalType": "uint256",
          "name": "",
          "type": "uint256"
        }
      ],
      "stateMutability": "pure",
      "type": "function"
    },
    {
      "inputs": [],
      "name": "totalVotePower",
      "outputs": [
        {
          "internalType": "uint256",
          "name": "",
          "type": "uint256"
        }
      ],
      "stateMutability": "view",
      "type": "function"
    },
    {
      "inputs": [
        {
          "internalType": "uint256",
          "name": "",
          "type": "uint256"
        }
      ],
      "name": "totalVotePowerAt",
      "outputs": [
        {
          "internalType": "uint256",
          "name": "",
          "type": "uint256"
        }
      ],
      "stateMutability": "pure",
      "type": "function"
    },
    {
      "inputs": [
        {
          "internalType": "address",
          "name": "to",
          "type": "address"
        },
        {
          "internalType": "uint256",
          "name": "amount",
          "type": "uint256"
        }
      ],
      "name": "transfer",
      "outputs": [
        {
          "internalType": "bool",
          "name": "",
          "type": "bool"
        }
      ],
      "stateMutability": "nonpayable",
      "type": "function"
    },
    {
      "inputs": [
        {
          "internalType": "address",
          "name": "from",
          "type": "address"
        },
        {
          "internalType": "address",
          "name": "to",
          "type": "address"
        },
        {
          "internalType": "uint256",
          "name": "amount",
          "type": "uint256"
        }
      ],
      "name": "transferFrom",
      "outputs": [
        {
          "internalType": "bool",
          "name": "",
          "type": "bool"
        }
      ],
      "stateMutability": "nonpayable",
      "type": "function"
    },
    {
      "inputs": [],
      "name": "undelegateAll",
      "outputs": [],
      "stateMutability": "nonpayable",
      "type": "function"
    },
    {
      "inputs": [
        {
          "internalType": "address[]",
          "name": "",
          "type": "address[]"
        }
      ],
      "name": "undelegateAllExplicit",
      "outputs": [
        {
          "internalType": "uint256",
          "name": "",
          "type": "uint256"
        }
      ],
      "stateMutability": "pure",
      "type": "function"
    },
    {
      "inputs": [
        {
          "internalType": "address",
          "name": "_owner",
          "type": "address"
        }
      ],
      "name": "undelegatedVotePowerOf",
      "outputs": [
        {
          "internalType": "uint256",
          "name": "_votePower",
          "type": "uint256"
        }
      ],
      "stateMutability": "view",
      "type": "function"
    },
    {
      "inputs": [
        {
          "internalType": "address",
          "name": "",
          "type": "address"
        },
        {
          "internalType": "uint256",
          "name": "",
          "type": "uint256"
        }
      ],
      "name": "undelegatedVotePowerOfAt",
      "outputs": [
        {
          "internalType": "uint256",
          "name": "",
          "type": "uint256"
        }
      ],
      "stateMutability": "pure",
      "type": "function"
    },
    {
      "inputs": [
        {
          "internalType": "address",
          "name": "_from",
          "type": "address"
        },
        {
          "internalType": "address",
          "name": "_to",
          "type": "address"
        }
      ],
      "name": "votePowerFromTo",
      "outputs": [
        {
          "internalType": "uint256",
          "name": "",
          "type": "uint256"
        }
      ],
      "stateMutability": "view",
      "type": "function"
    },
    {
      "inputs": [
        {
          "internalType": "address",
          "name": "",
          "type": "address"
        },
        {
          "internalType": "address",
          "name": "",
          "type": "address"
        },
        {
          "internalType": "uint256",
          "name": "",
          "type": "uint256"
        }
      ],
      "name": "votePowerFromToAt",
      "outputs": [
        {
          "internalType": "uint256",
          "name": "",
          "type": "uint256"
        }
      ],
      "stateMutability": "pure",
      "type": "function"
    },
    {
      "inputs": [
        {
          "internalType": "address",
          "name": "_owner",
          "type": "address"
        }
      ],
      "name": "votePowerOf",
      "outputs": [
        {
          "internalType": "uint256",
          "name": "_votePower",
          "type": "uint256"
        }
      ],
      "stateMutability": "view",
      "type": "function"
    },
    {
      "inputs": [
        {
          "internalType": "address",
          "name": "",
          "type": "address"
        },
        {
          "internalType": "uint256",
          "name": "",
          "type": "uint256"
        }
      ],
      "name": "votePowerOfAt",
      "outputs": [
        {
          "internalType": "uint256",
          "name": "",
          "type": "uint256"
        }
      ],
      "stateMutability": "pure",
      "type": "function"
    },
    {
      "inputs": [
        {
          "internalType": "address",
          "name": "",
          "type": "address"
        },
        {
          "internalType": "uint256",
          "name": "",
          "type": "uint256"
        }
      ],
      "name": "votePowerOfAtIgnoringRevocation",
      "outputs": [
        {
          "internalType": "uint256",
          "name": "",
          "type": "uint256"
        }
      ],
      "stateMutability": "pure",
      "type": "function"
    },
    {
      "inputs": [
        {
          "internalType": "uint256",
          "name": "_amount",
          "type": "uint256"
        }
      ],
      "name": "withdraw",
      "outputs": [],
      "stateMutability": "nonpayable",
      "type": "function"
    },
    {
      "inputs": [
        {
          "internalType": "address",
          "name": "_owner",
          "type": "address"
        },
        {
          "internalType": "uint256",
          "name": "_amount",
          "type": "uint256"
        }
      ],
      "name": "withdrawFrom",
      "outputs": [],
      "stateMutability": "nonpayable",
      "type": "function"
    },
    {
      "inputs": [],
      "name": "writeVotePowerContract",
      "outputs": [
        {
          "internalType": "contract IVPContractEvents",
          "name": "",
          "type": "address"
        }
      ],
      "stateMutability": "pure",
      "type": "function"
    },
    {
      "stateMutability": "payable",
      "type": "receive"
    }
  ],
  "bytecode": "0x608060405234801561001057600080fd5b5060405161205038038061205083398101604081905261002f9161010e565b8181600361003d838261021f565b50600461004a828261021f565b5050505050506102dd565b634e487b7160e01b600052604160045260246000fd5b600082601f83011261007c57600080fd5b81516001600160401b0381111561009557610095610055565b604051601f8201601f19908116603f011681016001600160401b03811182821017156100c3576100c3610055565b6040528181528382016020018510156100db57600080fd5b60005b828110156100fa576020818601810151838301820152016100de565b506000918101602001919091529392505050565b60008060006060848603121561012357600080fd5b83516001600160a01b038116811461013a57600080fd5b60208501519093506001600160401b0381111561015657600080fd5b6101628682870161006b565b604086015190935090506001600160401b0381111561018057600080fd5b61018c8682870161006b565b9150509250925092565b600181811c908216806101aa57607f821691505b6020821081036101ca57634e487b7160e01b600052602260045260246000fd5b50919050565b601f82111561021a57806000526020600020601f840160051c810160208510156101f75750805b601f840160051c820191505b818110156102175760008155600101610203565b50505b505050565b81516001600160401b0381111561023857610238610055565b61024c816102468454610196565b846101d0565b6020601f82116001811461028057600083156102685750848201515b600019600385901b1c1916600184901b178455610217565b600084815260208120601f198516915b828110156102b05787850151825560209485019460019092019101610290565b50848210156102ce5786840151600019600387901b60f8161c191681555b50505050600190811b01905550565b611d64806102ec6000396000f3fe6080604052600436106102345760003560e01c80639470b0bd1161012e578063be0ca747116100ab578063dd62ed3e1161006f578063dd62ed3e146105e2578063e64767aa14610602578063ed475a791461061d578063f5f3d4f71461063d578063f68377671461065257600080fd5b8063be0ca7471461057f578063d06dc3ad1461055f578063d0e30db01461059f578063d6aa0b77146105a7578063dc4fcda7146105c757600080fd5b8063a457c2d7116100f2578063a457c2d7146104f7578063a9059cbb14610517578063b302f39314610537578063b760faf91461054c578063bbd6fbf81461055f57600080fd5b80639470b0bd1461048557806395d89b41146104a5578063981b24d0146103cb5780639b3baa0e146103225780639ca2231a146104ba57600080fd5b8063313ce567116101bc57806370a082311161018057806370a08231146104015780637de5b8ed1461043757806383035a82146102685780638c2b8ae11461046757806392bfe6d81461026857600080fd5b8063313ce5671461038f57806339509351146103ab5780633e5aa26a146103cb5780634ee2cd7e146102685780635d6d11eb146103e657600080fd5b8063142d101811610203578063142d1018146102ed57806318160ddd1461030d5780631fec092a1461032257806323b872dd1461034f5780632e1a7d4d1461036f57600080fd5b8063026e402b1461024857806304bb4e431461026857806306fdde031461029b578063095ea7b3146102bd57600080fd5b3661024357610241610673565b005b600080fd5b34801561025457600080fd5b50610241610263366004611889565b61067f565b34801561027457600080fd5b50610288610283366004611889565b610991565b6040519081526020015b60405180910390f35b3480156102a757600080fd5b506102b06109ab565b60405161029291906118b5565b3480156102c957600080fd5b506102dd6102d8366004611889565b6109ba565b6040519015158152602001610292565b3480156102f957600080fd5b50610288610308366004611903565b6109d4565b34801561031957600080fd5b50600254610288565b34801561032e57600080fd5b50610337610991565b6040516001600160a01b039091168152602001610292565b34801561035b57600080fd5b506102dd61036a366004611920565b610b7e565b34801561037b57600080fd5b5061024161038a366004611961565b610ba2565b34801561039b57600080fd5b5060405160128152602001610292565b3480156103b757600080fd5b506102dd6103c6366004611889565b610bdd565b3480156103d757600080fd5b50610288610283366004611961565b3480156103f257600080fd5b50610288610283366004611a5b565b34801561040d57600080fd5b5061028861041c366004611903565b6001600160a01b031660009081526020819052604090205490565b34801561044357600080fd5b50610457610452366004611903565b610bff565b6040516102929493929190611a98565b34801561047357600080fd5b506005546001600160a01b0316610337565b34801561049157600080fd5b506102416104a0366004611889565b610d75565b3480156104b157600080fd5b506102b0610dbc565b3480156104c657600080fd5b506102416104d5366004611903565b600580546001600160a01b0319166001600160a01b0392909216919091179055565b34801561050357600080fd5b506102dd610512366004611889565b610dc6565b34801561052357600080fd5b506102dd610532366004611889565b610e41565b34801561054357600080fd5b50610241610e4f565b61024161055a366004611903565b610ed4565b34801561056b57600080fd5b5061024161057a366004611889565b610ede565b34801561058b57600080fd5b5061028861059a366004611b2d565b610ef6565b610241610673565b3480156105b357600080fd5b506102886105c2366004611903565b610fcc565b3480156105d357600080fd5b5061024161057a366004611b66565b3480156105ee57600080fd5b506102886105fd366004611b2d565b61105d565b34801561060e57600080fd5b50610288610283366004611920565b34801561062957600080fd5b50610457610638366004611889565b611088565b34801561064957600080fd5b506102886110a6565b34801561065e57600080fd5b5061028861066d366004611903565b50600190565b61067d33346110b1565b565b6001600160a01b0382166106da5760405162461bcd60e51b815260206004820152601f60248201527f63616e6e6f742064656c656761746520746f207a65726f20616464726573730060448201526064015b60405180910390fd5b336001600160a01b038316036107325760405162461bcd60e51b815260206004820152601760248201527f63616e6e6f742064656c656761746520746f2073656c6600000000000000000060448201526064016106d1565b6127108111156107785760405162461bcd60e51b815260206004820152601160248201527062697073206f7574206f662072616e676560781b60448201526064016106d1565b3360009081526006602052604081208190815b815481101561084657856001600160a01b03168282815481106107b0576107b0611c2a565b6000918252602090912001546001600160a01b03160361080957848282815481106107dd576107dd611c2a565b9060005260206000200160000160146101000a81548161ffff021916908361ffff160217905550600192505b81818154811061081b5761081b611c2a565b60009182526020909120015461083c90600160a01b900461ffff1685611c56565b935060010161078b565b50816108b757604080518082019091526001600160a01b03808716825261ffff808716602080850191825285546001810187556000878152919091209451940180549151909216600160a01b026001600160b01b031990911693909216929092171790556108b48484611c56565b92505b6127108311156109095760405162461bcd60e51b815260206004820152601e60248201527f746f74616c20626970732063616e6e6f7420657863656564203130303030000060448201526064016106d1565b8054600210156109675760405162461bcd60e51b815260206004820152602360248201527f63616e6e6f742068617665206d6f7265207468616e20322064656c65676174696044820152626f6e7360e81b60648201526084016106d1565b6001600160a01b03851660009081526007602052604090206109899033611170565b505050505050565b600060405162461bcd60e51b81526004016106d190611c69565b60606109b561118c565b905090565b6000336109c881858561121e565b60019150505b92915050565b6001600160a01b038116600090815260208181526040808320546006909252822090918291905b8154811015610a5d576000828281548110610a1857610a18611c2a565b600091825260209091200154600160a01b900461ffff169050612710610a3e8286611c92565b610a489190611ca9565b610a529086611ccb565b9450506001016109fb565b506001600160a01b0384166000908152600760205260408120905b610a8182611342565b811015610b75576000610a94838361134c565b6001600160a01b03811660009081526006602052604081209192505b8154811015610b6a57886001600160a01b0316828281548110610ad557610ad5611c2a565b6000918252602090912001546001600160a01b031603610b62576000828281548110610b0357610b03611c2a565b60009182526020909120015461ffff600160a01b90910416905061271081610b40866001600160a01b031660009081526020819052604090205490565b610b4a9190611c92565b610b549190611ca9565b610b5e908a611c56565b9850505b600101610ab0565b505050600101610a78565b50505050919050565b600033610b8c858285611358565b610b978585856113d2565b506001949350505050565b610bac3382611576565b604051339082156108fc029083906000818181858888f19350505050158015610bd9573d6000803e3d6000fd5b5050565b6000336109c8818585610bf0838361105d565b610bfa9190611c56565b61121e565b6001600160a01b0381166000908152600660205260408120805460609283928267ffffffffffffffff811115610c3757610c3761197a565b604051908082528060200260200182016040528015610c60578160200160208202803683370190505b5094508267ffffffffffffffff811115610c7c57610c7c61197a565b604051908082528060200260200182016040528015610ca5578160200160208202803683370190505b50935060005b83811015610d6857818181548110610cc557610cc5611c2a565b60009182526020909120015486516001600160a01b0390911690879083908110610cf157610cf1611c2a565b60200260200101906001600160a01b031690816001600160a01b031681525050818181548110610d2357610d23611c2a565b9060005260206000200160000160149054906101000a900461ffff1661ffff16858281518110610d5557610d55611c2a565b6020908102919091010152600101610cab565b5060019150509193509193565b610d80823383611358565b610d8a8282611576565b604051339082156108fc029083906000818181858888f19350505050158015610db7573d6000803e3d6000fd5b505050565b60606109b56116a8565b60003381610dd4828661105d565b905083811015610e345760405162461bcd60e51b815260206004820152602560248201527f45524332303a2064656372656173656420616c6c6f77616e63652062656c6f77604482015264207a65726f60d81b60648201526084016106d1565b610b97828686840361121e565b6000336109c88185856113d2565b336000908152600660205260408120905b8154811015610eb8576000828281548110610e7d57610e7d611c2a565b60009182526020808320909101546001600160a01b031680835260079091526040909120909150610eae90336116b7565b5050600101610e60565b50336000908152600660205260408120610ed191611838565b50565b610ed181346110b1565b60405162461bcd60e51b81526004016106d190611c69565b6001600160a01b0382166000908152600660205260408120815b8154811015610fc157836001600160a01b0316828281548110610f3557610f35611c2a565b6000918252602090912001546001600160a01b031603610fb9576001600160a01b03851660009081526020819052604081205490506000838381548110610f7e57610f7e611c2a565b600091825260209091200154600160a01b900461ffff169050612710610fa48284611c92565b610fae9190611ca9565b9450505050506109ce565b600101610f10565b506000949350505050565b6001600160a01b038116600090815260208181526040808320546006909252822090918291905b815481101561105557600082828154811061101057611010611c2a565b600091825260209091200154600160a01b900461ffff1690506127106110368286611c92565b6110409190611ca9565b61104a9086611ccb565b945050600101610ff3565b505050919050565b6001600160a01b03918216600090815260016020908152604080832093909416825291909152205490565b60608060008060405162461bcd60e51b81526004016106d190611c69565b60006109b560025490565b6001600160a01b0382166111075760405162461bcd60e51b815260206004820152601f60248201527f45524332303a206d696e7420746f20746865207a65726f20616464726573730060448201526064016106d1565b80600260008282546111199190611c56565b90915550506001600160a01b038216600081815260208181526040808320805486019055518481527fddf252ad1be2c89b69c2b068fc378daa952ba7f163c4a11628f55a4df523b3ef910160405180910390a35050565b6000611185836001600160a01b0384166116cc565b9392505050565b60606003805461119b90611cde565b80601f01602080910402602001604051908101604052809291908181526020018280546111c790611cde565b80156112145780601f106111e957610100808354040283529160200191611214565b820191906000526020600020905b8154815290600101906020018083116111f757829003601f168201915b5050505050905090565b6001600160a01b0383166112805760405162461bcd60e51b8152602060048201526024808201527f45524332303a20617070726f76652066726f6d20746865207a65726f206164646044820152637265737360e01b60648201526084016106d1565b6001600160a01b0382166112e15760405162461bcd60e51b815260206004820152602260248201527f45524332303a20617070726f766520746f20746865207a65726f206164647265604482015261737360f01b60648201526084016106d1565b6001600160a01b0383811660008181526001602090815260408083209487168084529482529182902085905590518481527f8c5be1e5ebec7d5bd14f71427d1e84f3dd0314c0f7b2291e5b200ac8c7c3b925910160405180910390a3505050565b60006109ce825490565b6000611185838361171b565b6000611364848461105d565b905060001981146113cc57818110156113bf5760405162461bcd60e51b815260206004820152601d60248201527f45524332303a20696e73756666696369656e7420616c6c6f77616e636500000060448201526064016106d1565b6113cc848484840361121e565b50505050565b6001600160a01b0383166114365760405162461bcd60e51b815260206004820152602560248201527f45524332303a207472616e736665722066726f6d20746865207a65726f206164604482015264647265737360d81b60648201526084016106d1565b6001600160a01b0382166114985760405162461bcd60e51b815260206004820152602360248201527f45524332303a207472616e7366657220746f20746865207a65726f206164647260448201526265737360e81b60648201526084016106d1565b6001600160a01b038316600090815260208190526040902054818110156115105760405162461bcd60e51b815260206004820152602660248201527f45524332303a207472616e7366657220616d6f756e7420657863656564732062604482015265616c616e636560d01b60648201526084016106d1565b6001600160a01b03848116600081815260208181526040808320878703905593871680835291849020805487019055925185815290927fddf252ad1be2c89b69c2b068fc378daa952ba7f163c4a11628f55a4df523b3ef910160405180910390a36113cc565b6001600160a01b0382166115d65760405162461bcd60e51b815260206004820152602160248201527f45524332303a206275726e2066726f6d20746865207a65726f206164647265736044820152607360f81b60648201526084016106d1565b6001600160a01b0382166000908152602081905260409020548181101561164a5760405162461bcd60e51b815260206004820152602260248201527f45524332303a206275726e20616d6f756e7420657863656564732062616c616e604482015261636560f01b60648201526084016106d1565b6001600160a01b0383166000818152602081815260408083208686039055600280548790039055518581529192917fddf252ad1be2c89b69c2b068fc378daa952ba7f163c4a11628f55a4df523b3ef910160405180910390a3505050565b60606004805461119b90611cde565b6000611185836001600160a01b038416611745565b6000818152600183016020526040812054611713575081546001818101845560008481526020808220909301849055845484825282860190935260409020919091556109ce565b5060006109ce565b600082600001828154811061173257611732611c2a565b9060005260206000200154905092915050565b6000818152600183016020526040812054801561182e576000611769600183611ccb565b855490915060009061177d90600190611ccb565b90508181146117e257600086600001828154811061179d5761179d611c2a565b90600052602060002001549050808760000184815481106117c0576117c0611c2a565b6000918252602080832090910192909255918252600188019052604090208390555b85548690806117f3576117f3611d18565b6001900381819060005260206000200160009055905585600101600086815260200190815260200160002060009055600193505050506109ce565b60009150506109ce565b5080546000825590600052602060002090810190610ed191905b808211156118705780546001600160b01b0319168155600101611852565b5090565b6001600160a01b0381168114610ed157600080fd5b6000806040838503121561189c57600080fd5b82356118a781611874565b946020939093013593505050565b602081526000825180602084015260005b818110156118e357602081860181015160408684010152016118c6565b506000604082850101526040601f19601f83011684010191505092915050565b60006020828403121561191557600080fd5b813561118581611874565b60008060006060848603121561193557600080fd5b833561194081611874565b9250602084013561195081611874565b929592945050506040919091013590565b60006020828403121561197357600080fd5b5035919050565b634e487b7160e01b600052604160045260246000fd5b604051601f8201601f1916810167ffffffffffffffff811182821017156119b9576119b961197a565b604052919050565b600067ffffffffffffffff8211156119db576119db61197a565b5060051b60200190565b600082601f8301126119f657600080fd5b8135611a09611a04826119c1565b611990565b8082825260208201915060208360051b860101925085831115611a2b57600080fd5b602085015b83811015611a51578035611a4381611874565b835260209283019201611a30565b5095945050505050565b600060208284031215611a6d57600080fd5b813567ffffffffffffffff811115611a8457600080fd5b611a90848285016119e5565b949350505050565b60808082528551908201819052600090602087019060a0840190835b81811015611adb5783516001600160a01b0316835260209384019390920191600101611ab4565b50508381036020808601919091528751808352918101925087019060005b81811015611b17578251845260209384019390920191600101611af9565b5050506040830194909452506060015292915050565b60008060408385031215611b4057600080fd5b8235611b4b81611874565b91506020830135611b5b81611874565b809150509250929050565b60008060408385031215611b7957600080fd5b823567ffffffffffffffff811115611b9057600080fd5b611b9c858286016119e5565b925050602083013567ffffffffffffffff811115611bb957600080fd5b8301601f81018513611bca57600080fd5b8035611bd8611a04826119c1565b8082825260208201915060208360051b850101925087831115611bfa57600080fd5b6020840193505b82841015611c1c578335825260209384019390910190611c01565b809450505050509250929050565b634e487b7160e01b600052603260045260246000fd5b634e487b7160e01b600052601160045260246000fd5b808201808211156109ce576109ce611c40565b6020808252600f908201526e1b9bdd081a5b5c1b195b595b9d1959608a1b604082015260600190565b80820281158282048414176109ce576109ce611c40565b600082611cc657634e487b7160e01b600052601260045260246000fd5b500490565b818103818111156109ce576109ce611c40565b600181811c90821680611cf257607f821691505b602082108103611d1257634e487b7160e01b600052602260045260246000fd5b50919050565b634e487b7160e01b600052603160045260246000fdfea2646970667358221220c30765c7e322ba107fa67bd9a8dba8119d47c485dc63cfa4ecd3cf35960432d364736f6c634300081b0033",
  "linkReferences": {},
  "deployedLinkReferences": {}
}