{
  "_format": "hh-sol-artifact-1",
  "contractName": "WNatMock",
  "sourceName": "contracts/flareSmartContracts/mock/WNatMock.sol",
  "abi": [
    {
      "inputs": [
        {
          "internalType": "address",
          "name": "",
          "type": "address"
        },
        {
          "internalType": "string",
          "name": "_name",
          "type": "string"
        },
        {
          "internalType": "string",
          "name": "_symbol",
          "type": "string"
        }
      ],
      "stateMutability": "nonpayable",
      "type": "constructor"
    },
    {
      "anonymous": false,
      "inputs": [
        {
          "indexed": true,
          "internalType": "address",
          "name": "owner",
          "type": "address"
        },
        {
          "indexed": true,
          "internalType": "address",
          "name": "spender",
          "type": "address"
        },
        {
          "indexed": false,
          "internalType": "uint256",
          "name": "value",
          "type": "uint256"
        }
      ],
      "name": "Approval",
      "type": "event"
    },
    {
      "anonymous": false,
      "inputs": [
        {
          "indexed": true,
          "internalType": "address",
          "name": "from",
          "type": "address"
        },
        {
          "indexed": true,
          "internalType": "address",
          "name": "to",
          "type": "address"
        },
        {
          "indexed": false,
          "internalType": "uint256",
          "name": "value",
          "type": "uint256"
        }
      ],
      "name": "Transfer",
      "type": "event"
    },
    {
      "inputs": [
        {
          "internalType": "address",
          "name": "owner",
          "type": "address"
        },
        {
          "internalType": "address",
          "name": "spender",
          "type": "address"
        }
      ],
      "name": "allowance",
      "outputs": [
        {
          "internalType": "uint256",
          "name": "",
          "type": "uint256"
        }
      ],
      "stateMutability": "view",
      "type": "function"
    },
    {
      "inputs": [
        {
          "internalType": "address",
          "name": "spender",
          "type": "address"
        },
        {
          "internalType": "uint256",
          "name": "amount",
          "type": "uint256"
        }
      ],
      "name": "approve",
      "outputs": [
        {
          "internalType": "bool",
          "name": "",
          "type": "bool"
        }
      ],
      "stateMutability": "nonpayable",
      "type": "function"
    },
    {
      "inputs": [
        {
          "internalType": "address",
          "name": "account",
          "type": "address"
        }
      ],
      "name": "balanceOf",
      "outputs": [
        {
          "internalType": "uint256",
          "name": "",
          "type": "uint256"
        }
      ],
      "stateMutability": "view",
      "type": "function"
    },
    {
      "inputs": [
        {
          "internalType": "address",
          "name": "",
          "type": "address"
        },
        {
          "internalType": "uint256",
          "name": "",
          "type": "uint256"
        }
      ],
      "name": "balanceOfAt",
      "outputs": [
        {
          "internalType": "uint256",
          "name": "",
          "type": "uint256"
        }
      ],
      "stateMutability": "pure",
      "type": "function"
    },
    {
      "inputs": [
        {
          "internalType": "address[]",
          "name": "",
          "type": "address[]"
        },
        {
          "internalType": "uint256[]",
          "name": "",
          "type": "uint256[]"
        }
      ],
      "name": "batchDelegate",
      "outputs": [],
      "stateMutability": "pure",
      "type": "function"
    },
    {
      "inputs": [],
      "name": "decimals",
      "outputs": [
        {
          "internalType": "uint8",
          "name": "",
          "type": "uint8"
        }
      ],
      "stateMutability": "view",
      "type": "function"
    },
    {
      "inputs": [
        {
          "internalType": "address",
          "name": "spender",
          "type": "address"
        },
        {
          "internalType": "uint256",
          "name": "subtractedValue",
          "type": "uint256"
        }
      ],
      "name": "decreaseAllowance",
      "outputs": [
        {
          "internalType": "bool",
          "name": "",
          "type": "bool"
        }
      ],
      "stateMutability": "nonpayable",
      "type": "function"
    },
    {
      "inputs": [
        {
          "internalType": "address",
          "name": "_to",
          "type": "address"
        },
        {
          "internalType": "uint256",
          "name": "_bips",
          "type": "uint256"
        }
      ],
      "name": "delegate",
      "outputs": [],
      "stateMutability": "nonpayable",
      "type": "function"
    },
    {
      "inputs": [
        {
          "internalType": "address",
          "name": "",
          "type": "address"
        },
        {
          "internalType": "uint256",
          "name": "",
          "type": "uint256"
        }
      ],
      "name": "delegateExplicit",
      "outputs": [],
      "stateMutability": "pure",
      "type": "function"
    },
    {
      "inputs": [
        {
          "internalType": "address",
          "name": "_owner",
          "type": "address"
        }
      ],
      "name": "delegatesOf",
      "outputs": [
        {
          "internalType": "address[]",
          "name": "_delegateAddresses",
          "type": "address[]"
        },
        {
          "internalType": "uint256[]",
          "name": "_bips",
          "type": "uint256[]"
        },
        {
          "internalType": "uint256",
          "name": "_count",
          "type": "uint256"
        },
        {
          "internalType": "uint256",
          "name": "_delegationMode",
          "type": "uint256"
        }
      ],
      "stateMutability": "view",
      "type": "function"
    },
    {
      "inputs": [
        {
          "internalType": "address",
          "name": "",
          "type": "address"
        },
        {
          "internalType": "uint256",
          "name": "",
          "type": "uint256"
        }
      ],
      "name": "delegatesOfAt",
      "outputs": [
        {
          "internalType": "address[]",
          "name": "",
          "type": "address[]"
        },
        {
          "internalType": "uint256[]",
          "name": "",
          "type": "uint256[]"
        },
        {
          "internalType": "uint256",
          "name": "",
          "type": "uint256"
        },
        {
          "internalType": "uint256",
          "name": "",
          "type": "uint256"
        }
      ],
      "stateMutability": "pure",
      "type": "function"
    },
    {
      "inputs": [
        {
          "internalType": "address",
          "name": "",
          "type": "address"
        }
      ],
      "name": "delegationModeOf",
      "outputs": [
        {
          "internalType": "uint256",
          "name": "",
          "type": "uint256"
        }
      ],
      "stateMutability": "pure",
      "type": "function"
    },
    {
      "inputs": [],
      "name": "deposit",
      "outputs": [],
      "stateMutability": "payable",
      "type": "function"
    },
    {
      "inputs": [
        {
          "internalType": "address",
          "name": "_recipient",
          "type": "address"
        }
      ],
      "name": "depositTo",
      "outputs": [],
      "stateMutability": "payable",
      "type": "function"
    },
    {
      "inputs": [],
      "name": "governanceVotePower",
      "outputs": [
        {
          "internalType": "contract IGovernanceVotePower",
          "name": "",
          "type": "address"
        }
      ],
      "stateMutability": "view",
      "type": "function"
    },
    {
      "inputs": [
        {
          "internalType": "address",
          "name": "spender",
          "type": "address"
        },
        {
          "internalType": "uint256",
          "name": "addedValue",
          "type": "uint256"
        }
      ],
      "name": "increaseAllowance",
      "outputs": [
        {
          "internalType": "bool",
          "name": "",
          "type": "bool"
        }
      ],
      "stateMutability": "nonpayable",
      "type": "function"
    },
    {
      "inputs": [],
      "name": "name",
      "outputs": [
        {
          "internalType": "string",
          "name": "",
          "type": "string"
        }
      ],
      "stateMutability": "view",
      "type": "function"
    },
    {
      "inputs": [],
      "name": "readVotePowerContract",
      "outputs": [
        {
          "internalType": "contract IVPContractEvents",
          "name": "",
          "type": "address"
        }
      ],
      "stateMutability": "pure",
      "type": "function"
    },
    {
      "inputs": [
        {
          "internalType": "address",
          "name": "",
          "type": "address"
        },
        {
          "internalType": "uint256",
          "name": "",
          "type": "uint256"
        }
      ],
      "name": "revokeDelegationAt",
      "outputs": [],
      "stateMutability": "pure",
      "type": "function"
    },
    {
      "inputs": [
        {
          "internalType": "contract IGovernanceVotePower",
          "name": "_governanceVotePower",
          "type": "address"
        }
      ],
      "name": "setGovernanceVotePower",
      "outputs": [],
      "stateMutability": "nonpayable",
      "type": "function"
    },
    {
      "inputs": [],
      "name": "symbol",
      "outputs": [
        {
          "internalType": "string",
          "name": "",
          "type": "string"
        }
      ],
      "stateMutability": "view",
      "type": "function"
    },
    {
      "inputs": [],
      "name": "totalSupply",
      "outputs": [
        {
          "internalType": "uint256",
          "name": "",
          "type": "uint256"
        }
      ],
      "stateMutability": "view",
      "type": "function"
    },
    {
      "inputs": [
        {
          "internalType": "uint256",
          "name": "",
          "type": "uint256"
        }
      ],
      "name": "totalSupplyAt",
      "outputs": [
        {
          "internalType": "uint256",
          "name": "",
          "type": "uint256"
        }
      ],
      "stateMutability": "pure",
      "type": "function"
    },
    {
      "inputs": [],
      "name": "totalVotePower",
      "outputs": [
        {
          "internalType": "uint256",
          "name": "",
          "type": "uint256"
        }
      ],
      "stateMutability": "view",
      "type": "function"
    },
    {
      "inputs": [
        {
          "internalType": "uint256",
          "name": "",
          "type": "uint256"
        }
      ],
      "name": "totalVotePowerAt",
      "outputs": [
        {
          "internalType": "uint256",
          "name": "",
          "type": "uint256"
        }
      ],
      "stateMutability": "pure",
      "type": "function"
    },
    {
      "inputs": [
        {
          "internalType": "address",
          "name": "to",
          "type": "address"
        },
        {
          "internalType": "uint256",
          "name": "amount",
          "type": "uint256"
        }
      ],
      "name": "transfer",
      "outputs": [
        {
          "internalType": "bool",
          "name": "",
          "type": "bool"
        }
      ],
      "stateMutability": "nonpayable",
      "type": "function"
    },
    {
      "inputs": [
        {
          "internalType": "address",
          "name": "from",
          "type": "address"
        },
        {
          "internalType": "address",
          "name": "to",
          "type": "address"
        },
        {
          "internalType": "uint256",
          "name": "amount",
          "type": "uint256"
        }
      ],
      "name": "transferFrom",
      "outputs": [
        {
          "internalType": "bool",
          "name": "",
          "type": "bool"
        }
      ],
      "stateMutability": "nonpayable",
      "type": "function"
    },
    {
      "inputs": [],
      "name": "undelegateAll",
      "outputs": [],
      "stateMutability": "nonpayable",
      "type": "function"
    },
    {
      "inputs": [
        {
          "internalType": "address[]",
          "name": "",
          "type": "address[]"
        }
      ],
      "name": "undelegateAllExplicit",
      "outputs": [
        {
          "internalType": "uint256",
          "name": "",
          "type": "uint256"
        }
      ],
      "stateMutability": "pure",
      "type": "function"
    },
    {
      "inputs": [
        {
          "internalType": "address",
          "name": "_owner",
          "type": "address"
        }
      ],
      "name": "undelegatedVotePowerOf",
      "outputs": [
        {
          "internalType": "uint256",
          "name": "_votePower",
          "type": "uint256"
        }
      ],
      "stateMutability": "view",
      "type": "function"
    },
    {
      "inputs": [
        {
          "internalType": "address",
          "name": "",
          "type": "address"
        },
        {
          "internalType": "uint256",
          "name": "",
          "type": "uint256"
        }
      ],
      "name": "undelegatedVotePowerOfAt",
      "outputs": [
        {
          "internalType": "uint256",
          "name": "",
          "type": "uint256"
        }
      ],
      "stateMutability": "pure",
      "type": "function"
    },
    {
      "inputs": [
        {
          "internalType": "address",
          "name": "_from",
          "type": "address"
        },
        {
          "internalType": "address",
          "name": "_to",
          "type": "address"
        }
      ],
      "name": "votePowerFromTo",
      "outputs": [
        {
          "internalType": "uint256",
          "name": "",
          "type": "uint256"
        }
      ],
      "stateMutability": "view",
      "type": "function"
    },
    {
      "inputs": [
        {
          "internalType": "address",
          "name": "",
          "type": "address"
        },
        {
          "internalType": "address",
          "name": "",
          "type": "address"
        },
        {
          "internalType": "uint256",
          "name": "",
          "type": "uint256"
        }
      ],
      "name": "votePowerFromToAt",
      "outputs": [
        {
          "internalType": "uint256",
          "name": "",
          "type": "uint256"
        }
      ],
      "stateMutability": "pure",
      "type": "function"
    },
    {
      "inputs": [
        {
          "internalType": "address",
          "name": "_owner",
          "type": "address"
        }
      ],
      "name": "votePowerOf",
      "outputs": [
        {
          "internalType": "uint256",
          "name": "_votePower",
          "type": "uint256"
        }
      ],
      "stateMutability": "view",
      "type": "function"
    },
    {
      "inputs": [
        {
          "internalType": "address",
          "name": "",
          "type": "address"
        },
        {
          "internalType": "uint256",
          "name": "",
          "type": "uint256"
        }
      ],
      "name": "votePowerOfAt",
      "outputs": [
        {
          "internalType": "uint256",
          "name": "",
          "type": "uint256"
        }
      ],
      "stateMutability": "pure",
      "type": "function"
    },
    {
      "inputs": [
        {
          "internalType": "address",
          "name": "",
          "type": "address"
        },
        {
          "internalType": "uint256",
          "name": "",
          "type": "uint256"
        }
      ],
      "name": "votePowerOfAtIgnoringRevocation",
      "outputs": [
        {
          "internalType": "uint256",
          "name": "",
          "type": "uint256"
        }
      ],
      "stateMutability": "pure",
      "type": "function"
    },
    {
      "inputs": [
        {
          "internalType": "uint256",
          "name": "_amount",
          "type": "uint256"
        }
      ],
      "name": "withdraw",
      "outputs": [],
      "stateMutability": "nonpayable",
      "type": "function"
    },
    {
      "inputs": [
        {
          "internalType": "address",
          "name": "_owner",
          "type": "address"
        },
        {
          "internalType": "uint256",
          "name": "_amount",
          "type": "uint256"
        }
      ],
      "name": "withdrawFrom",
      "outputs": [],
      "stateMutability": "nonpayable",
      "type": "function"
    },
    {
      "inputs": [],
      "name": "writeVotePowerContract",
      "outputs": [
        {
          "internalType": "contract IVPContractEvents",
          "name": "",
          "type": "address"
        }
      ],
      "stateMutability": "pure",
      "type": "function"
    }
  ],
  "bytecode": "0x608060405234801561001057600080fd5b5060405161203f38038061203f83398101604081905261002f9161010e565b8181600361003d838261021f565b50600461004a828261021f565b5050505050506102dd565b634e487b7160e01b600052604160045260246000fd5b600082601f83011261007c57600080fd5b81516001600160401b0381111561009557610095610055565b604051601f8201601f19908116603f011681016001600160401b03811182821017156100c3576100c3610055565b6040528181528382016020018510156100db57600080fd5b60005b828110156100fa576020818601810151838301820152016100de565b506000918101602001919091529392505050565b60008060006060848603121561012357600080fd5b83516001600160a01b038116811461013a57600080fd5b60208501519093506001600160401b0381111561015657600080fd5b6101628682870161006b565b604086015190935090506001600160401b0381111561018057600080fd5b61018c8682870161006b565b9150509250925092565b600181811c908216806101aa57607f821691505b6020821081036101ca57634e487b7160e01b600052602260045260246000fd5b50919050565b601f82111561021a57806000526020600020601f840160051c810160208510156101f75750805b601f840160051c820191505b818110156102175760008155600101610203565b50505b505050565b81516001600160401b0381111561023857610238610055565b61024c816102468454610196565b846101d0565b6020601f82116001811461028057600083156102685750848201515b600019600385901b1c1916600184901b178455610217565b600084815260208120601f198516915b828110156102b05787850151825560209485019460019092019101610290565b50848210156102ce5786840151600019600387901b60f8161c191681555b50505050600190811b01905550565b611d53806102ec6000396000f3fe6080604052600436106102305760003560e01c80639470b0bd1161012e578063be0ca747116100ab578063dd62ed3e1161006f578063dd62ed3e146105d1578063e64767aa146105f1578063ed475a791461060c578063f5f3d4f71461062c578063f68377671461064157600080fd5b8063be0ca7471461056e578063d06dc3ad1461054e578063d0e30db01461058e578063d6aa0b7714610596578063dc4fcda7146105b657600080fd5b8063a457c2d7116100f2578063a457c2d7146104e6578063a9059cbb14610506578063b302f39314610526578063b760faf91461053b578063bbd6fbf81461054e57600080fd5b80639470b0bd1461047457806395d89b4114610494578063981b24d0146103ba5780639b3baa0e146103115780639ca2231a146104a957600080fd5b8063313ce567116101bc57806370a082311161018057806370a08231146103f05780637de5b8ed1461042657806383035a82146102575780638c2b8ae11461045657806392bfe6d81461025757600080fd5b8063313ce5671461037e578063395093511461039a5780633e5aa26a146103ba5780634ee2cd7e146102575780635d6d11eb146103d557600080fd5b8063142d101811610203578063142d1018146102dc57806318160ddd146102fc5780631fec092a1461031157806323b872dd1461033e5780632e1a7d4d1461035e57600080fd5b8063026e402b1461023557806304bb4e431461025757806306fdde031461028a578063095ea7b3146102ac575b600080fd5b34801561024157600080fd5b50610255610250366004611878565b610662565b005b34801561026357600080fd5b50610277610272366004611878565b610974565b6040519081526020015b60405180910390f35b34801561029657600080fd5b5061029f61098e565b60405161028191906118a4565b3480156102b857600080fd5b506102cc6102c7366004611878565b61099d565b6040519015158152602001610281565b3480156102e857600080fd5b506102776102f73660046118f2565b6109b7565b34801561030857600080fd5b50600254610277565b34801561031d57600080fd5b50610326610974565b6040516001600160a01b039091168152602001610281565b34801561034a57600080fd5b506102cc61035936600461190f565b610b61565b34801561036a57600080fd5b50610255610379366004611950565b610b85565b34801561038a57600080fd5b5060405160128152602001610281565b3480156103a657600080fd5b506102cc6103b5366004611878565b610bc0565b3480156103c657600080fd5b50610277610272366004611950565b3480156103e157600080fd5b50610277610272366004611a4a565b3480156103fc57600080fd5b5061027761040b3660046118f2565b6001600160a01b031660009081526020819052604090205490565b34801561043257600080fd5b506104466104413660046118f2565b610be2565b6040516102819493929190611a87565b34801561046257600080fd5b506005546001600160a01b0316610326565b34801561048057600080fd5b5061025561048f366004611878565b610d58565b3480156104a057600080fd5b5061029f610d9f565b3480156104b557600080fd5b506102556104c43660046118f2565b600580546001600160a01b0319166001600160a01b0392909216919091179055565b3480156104f257600080fd5b506102cc610501366004611878565b610da9565b34801561051257600080fd5b506102cc610521366004611878565b610e24565b34801561053257600080fd5b50610255610e32565b6102556105493660046118f2565b610eb7565b34801561055a57600080fd5b50610255610569366004611878565b610ec1565b34801561057a57600080fd5b50610277610589366004611b1c565b610ed9565b610255610faf565b3480156105a257600080fd5b506102776105b13660046118f2565b610fbb565b3480156105c257600080fd5b50610255610569366004611b55565b3480156105dd57600080fd5b506102776105ec366004611b1c565b61104c565b3480156105fd57600080fd5b5061027761027236600461190f565b34801561061857600080fd5b50610446610627366004611878565b611077565b34801561063857600080fd5b50610277611095565b34801561064d57600080fd5b5061027761065c3660046118f2565b50600190565b6001600160a01b0382166106bd5760405162461bcd60e51b815260206004820152601f60248201527f63616e6e6f742064656c656761746520746f207a65726f20616464726573730060448201526064015b60405180910390fd5b336001600160a01b038316036107155760405162461bcd60e51b815260206004820152601760248201527f63616e6e6f742064656c656761746520746f2073656c6600000000000000000060448201526064016106b4565b61271081111561075b5760405162461bcd60e51b815260206004820152601160248201527062697073206f7574206f662072616e676560781b60448201526064016106b4565b3360009081526006602052604081208190815b815481101561082957856001600160a01b031682828154811061079357610793611c19565b6000918252602090912001546001600160a01b0316036107ec57848282815481106107c0576107c0611c19565b9060005260206000200160000160146101000a81548161ffff021916908361ffff160217905550600192505b8181815481106107fe576107fe611c19565b60009182526020909120015461081f90600160a01b900461ffff1685611c45565b935060010161076e565b508161089a57604080518082019091526001600160a01b03808716825261ffff808716602080850191825285546001810187556000878152919091209451940180549151909216600160a01b026001600160b01b031990911693909216929092171790556108978484611c45565b92505b6127108311156108ec5760405162461bcd60e51b815260206004820152601e60248201527f746f74616c20626970732063616e6e6f7420657863656564203130303030000060448201526064016106b4565b80546002101561094a5760405162461bcd60e51b815260206004820152602360248201527f63616e6e6f742068617665206d6f7265207468616e20322064656c65676174696044820152626f6e7360e81b60648201526084016106b4565b6001600160a01b038516600090815260076020526040902061096c90336110a0565b505050505050565b600060405162461bcd60e51b81526004016106b490611c58565b60606109986110bc565b905090565b6000336109ab81858561114e565b60019150505b92915050565b6001600160a01b038116600090815260208181526040808320546006909252822090918291905b8154811015610a405760008282815481106109fb576109fb611c19565b600091825260209091200154600160a01b900461ffff169050612710610a218286611c81565b610a2b9190611c98565b610a359086611cba565b9450506001016109de565b506001600160a01b0384166000908152600760205260408120905b610a6482611272565b811015610b58576000610a77838361127c565b6001600160a01b03811660009081526006602052604081209192505b8154811015610b4d57886001600160a01b0316828281548110610ab857610ab8611c19565b6000918252602090912001546001600160a01b031603610b45576000828281548110610ae657610ae6611c19565b60009182526020909120015461ffff600160a01b90910416905061271081610b23866001600160a01b031660009081526020819052604090205490565b610b2d9190611c81565b610b379190611c98565b610b41908a611c45565b9850505b600101610a93565b505050600101610a5b565b50505050919050565b600033610b6f858285611288565b610b7a858585611302565b506001949350505050565b610b8f33826114a6565b604051339082156108fc029083906000818181858888f19350505050158015610bbc573d6000803e3d6000fd5b5050565b6000336109ab818585610bd3838361104c565b610bdd9190611c45565b61114e565b6001600160a01b0381166000908152600660205260408120805460609283928267ffffffffffffffff811115610c1a57610c1a611969565b604051908082528060200260200182016040528015610c43578160200160208202803683370190505b5094508267ffffffffffffffff811115610c5f57610c5f611969565b604051908082528060200260200182016040528015610c88578160200160208202803683370190505b50935060005b83811015610d4b57818181548110610ca857610ca8611c19565b60009182526020909120015486516001600160a01b0390911690879083908110610cd457610cd4611c19565b60200260200101906001600160a01b031690816001600160a01b031681525050818181548110610d0657610d06611c19565b9060005260206000200160000160149054906101000a900461ffff1661ffff16858281518110610d3857610d38611c19565b6020908102919091010152600101610c8e565b5060019150509193509193565b610d63823383611288565b610d6d82826114a6565b604051339082156108fc029083906000818181858888f19350505050158015610d9a573d6000803e3d6000fd5b505050565b60606109986115d8565b60003381610db7828661104c565b905083811015610e175760405162461bcd60e51b815260206004820152602560248201527f45524332303a2064656372656173656420616c6c6f77616e63652062656c6f77604482015264207a65726f60d81b60648201526084016106b4565b610b7a828686840361114e565b6000336109ab818585611302565b336000908152600660205260408120905b8154811015610e9b576000828281548110610e6057610e60611c19565b60009182526020808320909101546001600160a01b031680835260079091526040909120909150610e9190336115e7565b5050600101610e43565b50336000908152600660205260408120610eb491611827565b50565b610eb481346115fc565b60405162461bcd60e51b81526004016106b490611c58565b6001600160a01b0382166000908152600660205260408120815b8154811015610fa457836001600160a01b0316828281548110610f1857610f18611c19565b6000918252602090912001546001600160a01b031603610f9c576001600160a01b03851660009081526020819052604081205490506000838381548110610f6157610f61611c19565b600091825260209091200154600160a01b900461ffff169050612710610f878284611c81565b610f919190611c98565b9450505050506109b1565b600101610ef3565b506000949350505050565b610fb933346115fc565b565b6001600160a01b038116600090815260208181526040808320546006909252822090918291905b8154811015611044576000828281548110610fff57610fff611c19565b600091825260209091200154600160a01b900461ffff1690506127106110258286611c81565b61102f9190611c98565b6110399086611cba565b945050600101610fe2565b505050919050565b6001600160a01b03918216600090815260016020908152604080832093909416825291909152205490565b60608060008060405162461bcd60e51b81526004016106b490611c58565b600061099860025490565b60006110b5836001600160a01b0384166116bb565b9392505050565b6060600380546110cb90611ccd565b80601f01602080910402602001604051908101604052809291908181526020018280546110f790611ccd565b80156111445780601f1061111957610100808354040283529160200191611144565b820191906000526020600020905b81548152906001019060200180831161112757829003601f168201915b5050505050905090565b6001600160a01b0383166111b05760405162461bcd60e51b8152602060048201526024808201527f45524332303a20617070726f76652066726f6d20746865207a65726f206164646044820152637265737360e01b60648201526084016106b4565b6001600160a01b0382166112115760405162461bcd60e51b815260206004820152602260248201527f45524332303a20617070726f766520746f20746865207a65726f206164647265604482015261737360f01b60648201526084016106b4565b6001600160a01b0383811660008181526001602090815260408083209487168084529482529182902085905590518481527f8c5be1e5ebec7d5bd14f71427d1e84f3dd0314c0f7b2291e5b200ac8c7c3b925910160405180910390a3505050565b60006109b1825490565b60006110b5838361170a565b6000611294848461104c565b905060001981146112fc57818110156112ef5760405162461bcd60e51b815260206004820152601d60248201527f45524332303a20696e73756666696369656e7420616c6c6f77616e636500000060448201526064016106b4565b6112fc848484840361114e565b50505050565b6001600160a01b0383166113665760405162461bcd60e51b815260206004820152602560248201527f45524332303a207472616e736665722066726f6d20746865207a65726f206164604482015264647265737360d81b60648201526084016106b4565b6001600160a01b0382166113c85760405162461bcd60e51b815260206004820152602360248201527f45524332303a207472616e7366657220746f20746865207a65726f206164647260448201526265737360e81b60648201526084016106b4565b6001600160a01b038316600090815260208190526040902054818110156114405760405162461bcd60e51b815260206004820152602660248201527f45524332303a207472616e7366657220616d6f756e7420657863656564732062604482015265616c616e636560d01b60648201526084016106b4565b6001600160a01b03848116600081815260208181526040808320878703905593871680835291849020805487019055925185815290927fddf252ad1be2c89b69c2b068fc378daa952ba7f163c4a11628f55a4df523b3ef910160405180910390a36112fc565b6001600160a01b0382166115065760405162461bcd60e51b815260206004820152602160248201527f45524332303a206275726e2066726f6d20746865207a65726f206164647265736044820152607360f81b60648201526084016106b4565b6001600160a01b0382166000908152602081905260409020548181101561157a5760405162461bcd60e51b815260206004820152602260248201527f45524332303a206275726e20616d6f756e7420657863656564732062616c616e604482015261636560f01b60648201526084016106b4565b6001600160a01b0383166000818152602081815260408083208686039055600280548790039055518581529192917fddf252ad1be2c89b69c2b068fc378daa952ba7f163c4a11628f55a4df523b3ef910160405180910390a3505050565b6060600480546110cb90611ccd565b60006110b5836001600160a01b038416611734565b6001600160a01b0382166116525760405162461bcd60e51b815260206004820152601f60248201527f45524332303a206d696e7420746f20746865207a65726f20616464726573730060448201526064016106b4565b80600260008282546116649190611c45565b90915550506001600160a01b038216600081815260208181526040808320805486019055518481527fddf252ad1be2c89b69c2b068fc378daa952ba7f163c4a11628f55a4df523b3ef910160405180910390a35050565b6000818152600183016020526040812054611702575081546001818101845560008481526020808220909301849055845484825282860190935260409020919091556109b1565b5060006109b1565b600082600001828154811061172157611721611c19565b9060005260206000200154905092915050565b6000818152600183016020526040812054801561181d576000611758600183611cba565b855490915060009061176c90600190611cba565b90508181146117d157600086600001828154811061178c5761178c611c19565b90600052602060002001549050808760000184815481106117af576117af611c19565b6000918252602080832090910192909255918252600188019052604090208390555b85548690806117e2576117e2611d07565b6001900381819060005260206000200160009055905585600101600086815260200190815260200160002060009055600193505050506109b1565b60009150506109b1565b5080546000825590600052602060002090810190610eb491905b8082111561185f5780546001600160b01b0319168155600101611841565b5090565b6001600160a01b0381168114610eb457600080fd5b6000806040838503121561188b57600080fd5b823561189681611863565b946020939093013593505050565b602081526000825180602084015260005b818110156118d257602081860181015160408684010152016118b5565b506000604082850101526040601f19601f83011684010191505092915050565b60006020828403121561190457600080fd5b81356110b581611863565b60008060006060848603121561192457600080fd5b833561192f81611863565b9250602084013561193f81611863565b929592945050506040919091013590565b60006020828403121561196257600080fd5b5035919050565b634e487b7160e01b600052604160045260246000fd5b604051601f8201601f1916810167ffffffffffffffff811182821017156119a8576119a8611969565b604052919050565b600067ffffffffffffffff8211156119ca576119ca611969565b5060051b60200190565b600082601f8301126119e557600080fd5b81356119f86119f3826119b0565b61197f565b8082825260208201915060208360051b860101925085831115611a1a57600080fd5b602085015b83811015611a40578035611a3281611863565b835260209283019201611a1f565b5095945050505050565b600060208284031215611a5c57600080fd5b813567ffffffffffffffff811115611a7357600080fd5b611a7f848285016119d4565b949350505050565b60808082528551908201819052600090602087019060a0840190835b81811015611aca5783516001600160a01b0316835260209384019390920191600101611aa3565b50508381036020808601919091528751808352918101925087019060005b81811015611b06578251845260209384019390920191600101611ae8565b5050506040830194909452506060015292915050565b60008060408385031215611b2f57600080fd5b8235611b3a81611863565b91506020830135611b4a81611863565b809150509250929050565b60008060408385031215611b6857600080fd5b823567ffffffffffffffff811115611b7f57600080fd5b611b8b858286016119d4565b925050602083013567ffffffffffffffff811115611ba857600080fd5b8301601f81018513611bb957600080fd5b8035611bc76119f3826119b0565b8082825260208201915060208360051b850101925087831115611be957600080fd5b6020840193505b82841015611c0b578335825260209384019390910190611bf0565b809450505050509250929050565b634e487b7160e01b600052603260045260246000fd5b634e487b7160e01b600052601160045260246000fd5b808201808211156109b1576109b1611c2f565b6020808252600f908201526e1b9bdd081a5b5c1b195b595b9d1959608a1b604082015260600190565b80820281158282048414176109b1576109b1611c2f565b600082611cb557634e487b7160e01b600052601260045260246000fd5b500490565b818103818111156109b1576109b1611c2f565b600181811c90821680611ce157607f821691505b602082108103611d0157634e487b7160e01b600052602260045260246000fd5b50919050565b634e487b7160e01b600052603160045260246000fdfea2646970667358221220ca8e773eb9ddaee510c739e0ac5070582662725c051f2be7baa0c601f1224b1164736f6c634300081b0033",
  "linkReferences": {},
  "deployedLinkReferences": {}
}