{
  "_format": "hh-sol-artifact-1",
  "contractName": "CoreVaultClientFacet",
  "sourceName": "contracts/assetManager/facets/CoreVaultClientFacet.sol",
  "abi": [
    {
      "inputs": [],
      "stateMutability": "nonpayable",
      "type": "constructor"
    },
    {
      "inputs": [],
      "name": "AgentsUnderlyingAddressNotAllowedByCoreVault",
      "type": "error"
    },
    {
      "inputs": [],
      "name": "CannotRedeemToAgentsAddress",
      "type": "error"
    },
    {
      "inputs": [],
      "name": "CannotReturnZeroLots",
      "type": "error"
    },
    {
      "inputs": [],
      "name": "CoreVaultNotEnabled",
      "type": "error"
    },
    {
      "inputs": [],
      "name": "DivisionByZero",
      "type": "error"
    },
    {
      "inputs": [],
      "name": "EmergencyPauseActive",
      "type": "error"
    },
    {
      "inputs": [],
      "name": "ExecutorFeeWithoutExecutor",
      "type": "error"
    },
    {
      "inputs": [],
      "name": "InvalidAgentStatus",
      "type": "error"
    },
    {
      "inputs": [],
      "name": "InvalidAgentVaultAddress",
      "type": "error"
    },
    {
      "inputs": [],
      "name": "InvalidChain",
      "type": "error"
    },
    {
      "inputs": [],
      "name": "InvalidPaymentReference",
      "type": "error"
    },
    {
      "inputs": [],
      "name": "LegalPaymentNotProven",
      "type": "error"
    },
    {
      "inputs": [],
      "name": "NoActiveReturnRequest",
      "type": "error"
    },
    {
      "inputs": [],
      "name": "NotAttached",
      "type": "error"
    },
    {
      "inputs": [],
      "name": "NotEnoughAvailableOnCoreVault",
      "type": "error"
    },
    {
      "inputs": [],
      "name": "NotEnoughFreeCollateral",
      "type": "error"
    },
    {
      "inputs": [],
      "name": "NotEnoughUnderlying",
      "type": "error"
    },
    {
      "inputs": [],
      "name": "NotWhitelisted",
      "type": "error"
    },
    {
      "inputs": [],
      "name": "NothingMinted",
      "type": "error"
    },
    {
      "inputs": [],
      "name": "OnlyAgentVaultOwner",
      "type": "error"
    },
    {
      "inputs": [],
      "name": "OnlyAssetManagerController",
      "type": "error"
    },
    {
      "inputs": [],
      "name": "PaymentAlreadyConfirmed",
      "type": "error"
    },
    {
      "inputs": [],
      "name": "PaymentFailed",
      "type": "error"
    },
    {
      "inputs": [],
      "name": "PaymentNotFromCoreVault",
      "type": "error"
    },
    {
      "inputs": [],
      "name": "PaymentNotToAgentsAddress",
      "type": "error"
    },
    {
      "inputs": [],
      "name": "ReentrancyGuardReentrantCall",
      "type": "error"
    },
    {
      "inputs": [],
      "name": "RequestedAmountTooSmall",
      "type": "error"
    },
    {
      "inputs": [],
      "name": "ReturnFromCoreVaultAlreadyRequested",
      "type": "error"
    },
    {
      "inputs": [],
      "name": "TooLittleMintingLeftAfterTransfer",
      "type": "error"
    },
    {
      "inputs": [],
      "name": "TransferAlreadyActive",
      "type": "error"
    },
    {
      "inputs": [],
      "name": "UnderlyingAddressNotAllowedByCoreVault",
      "type": "error"
    },
    {
      "inputs": [],
      "name": "UnderlyingAddressTooLong",
      "type": "error"
    },
    {
      "inputs": [],
      "name": "ZeroTransferNotAllowed",
      "type": "error"
    },
    {
      "anonymous": false,
      "inputs": [
        {
          "indexed": true,
          "internalType": "address",
          "name": "redeemer",
          "type": "address"
        },
        {
          "indexed": false,
          "internalType": "string",
          "name": "paymentAddress",
          "type": "string"
        },
        {
          "indexed": false,
          "internalType": "bytes32",
          "name": "paymentReference",
          "type": "bytes32"
        },
        {
          "indexed": false,
          "internalType": "uint256",
          "name": "valueUBA",
          "type": "uint256"
        },
        {
          "indexed": false,
          "internalType": "uint256",
          "name": "feeUBA",
          "type": "uint256"
        }
      ],
      "name": "CoreVaultRedemptionRequested",
      "type": "event"
    },
    {
      "anonymous": false,
      "inputs": [
        {
          "indexed": false,
          "internalType": "uint256",
          "name": "underlyingBlockNumber",
          "type": "uint256"
        },
        {
          "indexed": false,
          "internalType": "uint256",
          "name": "underlyingBlockTimestamp",
          "type": "uint256"
        },
        {
          "indexed": false,
          "internalType": "uint256",
          "name": "updatedAt",
          "type": "uint256"
        }
      ],
      "name": "CurrentUnderlyingBlockUpdated",
      "type": "event"
    },
    {
      "anonymous": false,
      "inputs": [
        {
          "indexed": true,
          "internalType": "address",
          "name": "agentVault",
          "type": "address"
        },
        {
          "indexed": false,
          "internalType": "uint256",
          "name": "dustUBA",
          "type": "uint256"
        }
      ],
      "name": "DustChanged",
      "type": "event"
    },
    {
      "anonymous": false,
      "inputs": [
        {
          "indexed": true,
          "internalType": "address",
          "name": "agentVault",
          "type": "address"
        },
        {
          "indexed": true,
          "internalType": "address",
          "name": "redeemer",
          "type": "address"
        },
        {
          "indexed": true,
          "internalType": "uint256",
          "name": "requestId",
          "type": "uint256"
        },
        {
          "indexed": false,
          "internalType": "string",
          "name": "paymentAddress",
          "type": "string"
        },
        {
          "indexed": false,
          "internalType": "uint256",
          "name": "valueUBA",
          "type": "uint256"
        },
        {
          "indexed": false,
          "internalType": "uint256",
          "name": "feeUBA",
          "type": "uint256"
        },
        {
          "indexed": false,
          "internalType": "uint256",
          "name": "firstUnderlyingBlock",
          "type": "uint256"
        },
        {
          "indexed": false,
          "internalType": "uint256",
          "name": "lastUnderlyingBlock",
          "type": "uint256"
        },
        {
          "indexed": false,
          "internalType": "uint256",
          "name": "lastUnderlyingTimestamp",
          "type": "uint256"
        },
        {
          "indexed": false,
          "internalType": "bytes32",
          "name": "paymentReference",
          "type": "bytes32"
        },
        {
          "indexed": false,
          "internalType": "address",
          "name": "executor",
          "type": "address"
        },
        {
          "indexed": false,
          "internalType": "uint256",
          "name": "executorFeeNatWei",
          "type": "uint256"
        }
      ],
      "name": "RedemptionRequested",
      "type": "event"
    },
    {
      "anonymous": false,
      "inputs": [
        {
          "indexed": true,
          "internalType": "address",
          "name": "agentVault",
          "type": "address"
        },
        {
          "indexed": true,
          "internalType": "uint256",
          "name": "redemptionTicketId",
          "type": "uint256"
        },
        {
          "indexed": false,
          "internalType": "uint256",
          "name": "ticketValueUBA",
          "type": "uint256"
        }
      ],
      "name": "RedemptionTicketCreated",
      "type": "event"
    },
    {
      "anonymous": false,
      "inputs": [
        {
          "indexed": true,
          "internalType": "address",
          "name": "agentVault",
          "type": "address"
        },
        {
          "indexed": true,
          "internalType": "uint256",
          "name": "redemptionTicketId",
          "type": "uint256"
        }
      ],
      "name": "RedemptionTicketDeleted",
      "type": "event"
    },
    {
      "anonymous": false,
      "inputs": [
        {
          "indexed": true,
          "internalType": "address",
          "name": "agentVault",
          "type": "address"
        },
        {
          "indexed": true,
          "internalType": "uint256",
          "name": "redemptionTicketId",
          "type": "uint256"
        },
        {
          "indexed": false,
          "internalType": "uint256",
          "name": "ticketValueUBA",
          "type": "uint256"
        }
      ],
      "name": "RedemptionTicketUpdated",
      "type": "event"
    },
    {
      "anonymous": false,
      "inputs": [
        {
          "indexed": true,
          "internalType": "address",
          "name": "agentVault",
          "type": "address"
        },
        {
          "indexed": true,
          "internalType": "uint256",
          "name": "requestId",
          "type": "uint256"
        }
      ],
      "name": "ReturnFromCoreVaultCancelled",
      "type": "event"
    },
    {
      "anonymous": false,
      "inputs": [
        {
          "indexed": true,
          "internalType": "address",
          "name": "agentVault",
          "type": "address"
        },
        {
          "indexed": true,
          "internalType": "uint256",
          "name": "requestId",
          "type": "uint256"
        },
        {
          "indexed": false,
          "internalType": "uint256",
          "name": "receivedUnderlyingUBA",
          "type": "uint256"
        },
        {
          "indexed": false,
          "internalType": "uint256",
          "name": "remintedUBA",
          "type": "uint256"
        }
      ],
      "name": "ReturnFromCoreVaultConfirmed",
      "type": "event"
    },
    {
      "anonymous": false,
      "inputs": [
        {
          "indexed": true,
          "internalType": "address",
          "name": "agentVault",
          "type": "address"
        },
        {
          "indexed": true,
          "internalType": "uint256",
          "name": "requestId",
          "type": "uint256"
        },
        {
          "indexed": false,
          "internalType": "bytes32",
          "name": "paymentReference",
          "type": "bytes32"
        },
        {
          "indexed": false,
          "internalType": "uint256",
          "name": "valueUBA",
          "type": "uint256"
        }
      ],
      "name": "ReturnFromCoreVaultRequested",
      "type": "event"
    },
    {
      "anonymous": false,
      "inputs": [
        {
          "indexed": true,
          "internalType": "address",
          "name": "agentVault",
          "type": "address"
        },
        {
          "indexed": true,
          "internalType": "uint256",
          "name": "transferRedemptionRequestId",
          "type": "uint256"
        },
        {
          "indexed": false,
          "internalType": "uint256",
          "name": "remintedUBA",
          "type": "uint256"
        }
      ],
      "name": "TransferToCoreVaultDefaulted",
      "type": "event"
    },
    {
      "anonymous": false,
      "inputs": [
        {
          "indexed": true,
          "internalType": "address",
          "name": "agentVault",
          "type": "address"
        },
        {
          "indexed": true,
          "internalType": "uint256",
          "name": "transferRedemptionRequestId",
          "type": "uint256"
        },
        {
          "indexed": false,
          "internalType": "uint256",
          "name": "valueUBA",
          "type": "uint256"
        }
      ],
      "name": "TransferToCoreVaultStarted",
      "type": "event"
    },
    {
      "anonymous": false,
      "inputs": [
        {
          "indexed": true,
          "internalType": "address",
          "name": "agentVault",
          "type": "address"
        },
        {
          "indexed": true,
          "internalType": "uint256",
          "name": "transferRedemptionRequestId",
          "type": "uint256"
        },
        {
          "indexed": false,
          "internalType": "uint256",
          "name": "valueUBA",
          "type": "uint256"
        }
      ],
      "name": "TransferToCoreVaultSuccessful",
      "type": "event"
    },
    {
      "anonymous": false,
      "inputs": [
        {
          "indexed": true,
          "internalType": "address",
          "name": "agentVault",
          "type": "address"
        },
        {
          "indexed": false,
          "internalType": "int256",
          "name": "underlyingBalanceUBA",
          "type": "int256"
        }
      ],
      "name": "UnderlyingBalanceChanged",
      "type": "event"
    },
    {
      "inputs": [
        {
          "internalType": "address",
          "name": "_agentVault",
          "type": "address"
        }
      ],
      "name": "cancelReturnFromCoreVault",
      "outputs": [],
      "stateMutability": "nonpayable",
      "type": "function"
    },
    {
      "inputs": [
        {
          "components": [
            {
              "internalType": "bytes32[]",
              "name": "merkleProof",
              "type": "bytes32[]"
            },
            {
              "components": [
                {
                  "internalType": "bytes32",
                  "name": "attestationType",
                  "type": "bytes32"
                },
                {
                  "internalType": "bytes32",
                  "name": "sourceId",
                  "type": "bytes32"
                },
                {
                  "internalType": "uint64",
                  "name": "votingRound",
                  "type": "uint64"
                },
                {
                  "internalType": "uint64",
                  "name": "lowestUsedTimestamp",
                  "type": "uint64"
                },
                {
                  "components": [
                    {
                      "internalType": "bytes32",
                      "name": "transactionId",
                      "type": "bytes32"
                    },
                    {
                      "internalType": "uint256",
                      "name": "inUtxo",
                      "type": "uint256"
                    },
                    {
                      "internalType": "uint256",
                      "name": "utxo",
                      "type": "uint256"
                    }
                  ],
                  "internalType": "struct IPayment.RequestBody",
                  "name": "requestBody",
                  "type": "tuple"
                },
                {
                  "components": [
                    {
                      "internalType": "uint64",
                      "name": "blockNumber",
                      "type": "uint64"
                    },
                    {
                      "internalType": "uint64",
                      "name": "blockTimestamp",
                      "type": "uint64"
                    },
                    {
                      "internalType": "bytes32",
                      "name": "sourceAddressHash",
                      "type": "bytes32"
                    },
                    {
                      "internalType": "bytes32",
                      "name": "sourceAddressesRoot",
                      "type": "bytes32"
                    },
                    {
                      "internalType": "bytes32",
                      "name": "receivingAddressHash",
                      "type": "bytes32"
                    },
                    {
                      "internalType": "bytes32",
                      "name": "intendedReceivingAddressHash",
                      "type": "bytes32"
                    },
                    {
                      "internalType": "int256",
                      "name": "spentAmount",
                      "type": "int256"
                    },
                    {
                      "internalType": "int256",
                      "name": "intendedSpentAmount",
                      "type": "int256"
                    },
                    {
                      "internalType": "int256",
                      "name": "receivedAmount",
                      "type": "int256"
                    },
                    {
                      "internalType": "int256",
                      "name": "intendedReceivedAmount",
                      "type": "int256"
                    },
                    {
                      "internalType": "bytes32",
                      "name": "standardPaymentReference",
                      "type": "bytes32"
                    },
                    {
                      "internalType": "bool",
                      "name": "oneToOne",
                      "type": "bool"
                    },
                    {
                      "internalType": "uint8",
                      "name": "status",
                      "type": "uint8"
                    }
                  ],
                  "internalType": "struct IPayment.ResponseBody",
                  "name": "responseBody",
                  "type": "tuple"
                }
              ],
              "internalType": "struct IPayment.Response",
              "name": "data",
              "type": "tuple"
            }
          ],
          "internalType": "struct IPayment.Proof",
          "name": "_payment",
          "type": "tuple"
        },
        {
          "internalType": "address",
          "name": "_agentVault",
          "type": "address"
        }
      ],
      "name": "confirmReturnFromCoreVault",
      "outputs": [],
      "stateMutability": "nonpayable",
      "type": "function"
    },
    {
      "inputs": [],
      "name": "coreVaultAvailableAmount",
      "outputs": [
        {
          "internalType": "uint256",
          "name": "_immediatelyAvailableUBA",
          "type": "uint256"
        },
        {
          "internalType": "uint256",
          "name": "_totalAvailableUBA",
          "type": "uint256"
        }
      ],
      "stateMutability": "view",
      "type": "function"
    },
    {
      "inputs": [
        {
          "internalType": "address",
          "name": "_agentVault",
          "type": "address"
        }
      ],
      "name": "maximumTransferToCoreVault",
      "outputs": [
        {
          "internalType": "uint256",
          "name": "_maximumTransferUBA",
          "type": "uint256"
        },
        {
          "internalType": "uint256",
          "name": "_minimumLeftAmountUBA",
          "type": "uint256"
        }
      ],
      "stateMutability": "view",
      "type": "function"
    },
    {
      "inputs": [
        {
          "internalType": "uint256",
          "name": "_lots",
          "type": "uint256"
        },
        {
          "internalType": "string",
          "name": "_redeemerUnderlyingAddress",
          "type": "string"
        }
      ],
      "name": "redeemFromCoreVault",
      "outputs": [],
      "stateMutability": "nonpayable",
      "type": "function"
    },
    {
      "inputs": [
        {
          "internalType": "address",
          "name": "_agentVault",
          "type": "address"
        },
        {
          "internalType": "uint256",
          "name": "_lots",
          "type": "uint256"
        }
      ],
      "name": "requestReturnFromCoreVault",
      "outputs": [],
      "stateMutability": "nonpayable",
      "type": "function"
    },
    {
      "inputs": [
        {
          "internalType": "address",
          "name": "_agentVault",
          "type": "address"
        },
        {
          "internalType": "uint256",
          "name": "_amountUBA",
          "type": "uint256"
        }
      ],
      "name": "transferToCoreVault",
      "outputs": [],
      "stateMutability": "nonpayable",
      "type": "function"
    }
  ],
  "bytecode": "0x6080604052348015600f57600080fd5b507f5176d9aff61164d28f93ea46eb1dc40e6c1f84dd050716ad33cf1851e70a4aa3805460ff60401b191668010000000000000000179055614e14806100566000396000f3fe608060405234801561001057600080fd5b506004361061007d5760003560e01c8063687fea711161005b578063687fea71146100cb578063890a8340146100de5780639b70be1f146100f1578063cfffc0061461010457600080fd5b8063210db79c1461008257806332974aaf146100975780636286592e146100b8575b600080fd5b6100956100903660046141c1565b610117565b005b61009f61050d565b6040805192835260208301919091520160405180910390f35b6100956100c63660046141c1565b610520565b6100956100d93660046141ed565b6107ff565b6100956100ec3660046142b1565b610a7b565b6100956100ff36600461433a565b610d3e565b61009f61011236600461433a565b610e6e565b61011f610eb7565b610127610eee565b61012f610f51565b8161013981610f89565b600061014484610fb8565b90506000600080516020614dbf8339815191528054604051632b656fef60e01b81529192506001600160a01b031690632b656fef9061018a906002860190600401614414565b602060405180830381865afa1580156101a7573d6000803e3d6000fd5b505050506040513d601f19601f820116820180604052508101906101cb9190614435565b6101e85760405163255d0eab60e11b815260040160405180910390fd5b600c820154600160601b90046001600160401b03161561021b576040516304e42fdb60e31b815260040160405180910390fd5b600061022683611053565b90506000851161024957604051633999c45760e11b815260040160405180910390fd5b6001600484015460ff16600581111561026457610264614452565b146102825760405163aa2b63b360e01b815260040160405180910390fd5b8461028f828560006110fd565b10156102ae5760405163d78c667760e01b815260040160405180910390fd5b60006102b8611157565b9050808611156102db576040516329f5b0c760e21b815260040160405180910390fd5b6102e36111a4565b600284018054600990610307908490600160481b90046001600160401b031661447e565b82546101009290920a6001600160401b038181021990931691831602179091556002850154600c8701805467ffffffffffffffff60601b1916600160481b9092048316600160601b81029290921790819055909250600160a01b900416156103715761037161449d565b600061037c886111c2565b600c870180546001600160401b03808416600160a01b0267ffffffffffffffff60a01b1990921691909117909155600588018054929350839290916000916103c69185911661447e565b92506101000a8154816001600160401b0302191690836001600160401b0316021790555060006103fe836001600160401b03166111f1565b9050600061041361040e8461121b565b61124c565b8754604051631700b8c760e31b81529192506001600160a01b03169063b805c6389061044d9060028c0190869086906001906004016144b3565b6020604051808303816000875af115801561046c573d6000803e3d6000fd5b505050506040513d601f19601f8201168201806040525081019061049091906144ed565b50604080518381526001600160801b03831660208201526001600160401b038616916001600160a01b038e16917fbeb006f5c72be7811ac8a5314277e6fab21e6a2737d4119694735e810899079191015b60405180910390a35050505050505050506105096001600080516020614d9f83398151915255565b5050565b600080610518611282565b915091509091565b610528610eb7565b610530610eee565b610538610f51565b8161054281610f89565b600061054d84610fb8565b90506000600080516020614dbf83398151915290506003600483015460ff16600581111561057d5761057d614452565b0361059b5760405163aa2b63b360e01b815260040160405180910390fd5b600084116105bb5760405162c6a3af60e61b815260040160405180910390fd5b6006820154600160401b9004600f0b6105d38561144f565b13156105f257604051635857ecb760e01b815260040160405180910390fd5b600c82015464010000000090046001600160401b0316156106265760405163280b880360e21b815260040160405180910390fd5b6000610631856114b9565b9050600061064284836000806114ea565b5090506000816001600160401b03161161066f576040516307bf15a960e11b815260040160405180910390fd5b600061067a856116bf565b50905080826001600160401b031611156106a75760405163d0a69bb360e01b815260040160405180910390fd5b835460408051633d083bf560e11b815290516000926001600160a01b031691637a1077ea91600480830192869291908290030181865afa1580156106ef573d6000803e3d6000fd5b505050506040513d6000823e601f3d908101601f19168201604052610717919081019061452a565b9050600061078260405180604001604052808c6001600160a01b03168152602001866001600160401b03168152508760010160009054906101000a90046001600160a01b03168460008060008c60000160149054906101000a90046001600160401b031660016116f4565b600c880180546bffffffffffffffff0000000019166401000000006001600160401b03841602179055905060006107b88561121b565b9050816001600160401b03168b6001600160a01b03167f7720ffc529ed13201c71ca65a93771ecb026d4a7ea1a557116dfac60fafd9fb6836040516104e191815260200190565b610807610eb7565b61080f610f51565b8061081981610f89565b600061082483610fb8565b9050600080516020614dbf83398151915261083e85611bc1565b600c820154600160601b90046001600160401b0316600081900361087557604051632d51cb7d60e11b815260040160405180910390fd5b81546040805163c9febdf560e01b815290516001600160a01b039092169163c9febdf5916004808201926020929091908290030181865afa1580156108be573d6000803e3d6000fd5b505050506040513d601f19601f820116820180604052508101906108e291906144ed565b6101408701351461090657604051633eec3b2360e11b815260040160405180910390fd5b60038301546101808701351461092f5760405163638e4f8160e01b815260040160405180910390fd5b610941816001600160401b03166111f1565b61024087013514610965576040516315e7425f60e31b815260040160405180910390fd5b61098f7fec7e8c1c441439dd40959777f4c577ea0cd42fcc1dbe59d2bd0f5d9c55df8dc187611bff565b600061099f610200880135611c0d565b905060006109ac826114b9565b905060006109d186600c0160149054906101000a90046001600160401b031683611c5f565b90506109dd8682611c8c565b6109e78684611d58565b6109f089611e0a565b6109f986611e38565b6000610a048261121b565b9050846001600160401b0316896001600160a01b03167ff31c790716bd513f9122b4d1e80f9fce17cd414160d32271088b0c6b2af33e258684604051610a54929190918252602082015260400190565b60405180910390a350505050505050506105096001600080516020614d9f83398151915255565b610a83610eb7565b610a8b610eee565b610a93610f51565b600080516020614dbf8339815191528054604051632b656fef60e01b81526001600160a01b0390911690632b656fef90610ad19085906004016145c3565b602060405180830381865afa158015610aee573d6000803e3d6000fd5b505050506040513d601f19601f82011682018060405250810190610b129190614435565b610b2f5760405163518dc46b60e01b815260040160405180910390fd5b6000610b39611157565b905080841115610b5c576040516329f5b0c760e21b815260040160405180910390fd5b6002820154600090610b77906001600160401b031683611ee9565b905080851015610b9a576040516363fcf6e560e11b815260040160405180910390fd5b6000610ba586611ef8565b9050610bb13382611f38565b6001840154600090610bcf908390600160b01b900461ffff16611fa0565b90506000610be061040e83856145d6565b9050610bea6111a4565b600287018054601190610c0e908490600160881b90046001600160401b031661447e565b92506101000a8154816001600160401b0302191690836001600160401b031602179055506000610c5d8760020160119054906101000a90046001600160401b03166001600160401b0316611faf565b8754604051631700b8c760e31b81529192506001600160a01b03169063b805c63890610c94908b90859087906000906004016145e9565b6020604051808303816000875af1158015610cb3573d6000803e3d6000fd5b505050506040513d601f19601f82011682018060405250810190610cd791906144ed565b9050336001600160a01b03167f81390715ea13edf7069460e93980705ef2cd439f5c4a1a7c4fc1a323a2d4996b89838787604051610d1894939291906145fc565b60405180910390a2505050505050506105096001600080516020614d9f83398151915255565b610d46610eb7565b610d4e610f51565b80610d5881610f89565b6000610d6383610fb8565b600c810154909150600080516020614dbf83398151915290600160601b90046001600160401b03166000819003610dad57604051632d51cb7d60e11b815260040160405180910390fd5b815460405163a903532560e01b81526001600160a01b039091169063a903532590610ddf906002870190600401614414565b600060405180830381600087803b158015610df957600080fd5b505af1158015610e0d573d6000803e3d6000fd5b50505050610e1a83611e38565b60405181906001600160a01b038716907f89413196dc66c2fb1b91c291e94b73b766a03f31219603ff31ef497ef202e93490600090a350505050610e6b6001600080516020614d9f83398151915255565b50565b6000806000610e7c84610fb8565b9050600080610e8a836116bf565b91509150610e9f610e9a83611fd9565b61121b565b9450610ead610e9a82611fd9565b9350505050915091565b600080516020614dbf83398151915280546001600160a01b0316610e6b576040516356f9eaeb60e11b815260040160405180910390fd5b7fec7e8c1c441439dd40959777f4c577ea0cd42fcc1dbe59d2bd0f5d9c55df8dc654600080516020614d7f8339815191529042600160401b9091046001600160401b03161115610e6b5760405163909b191760e01b815260040160405180910390fd5b600080516020614d9f833981519152805460011901610f8357604051633ee5aeb560e01b815260040160405180910390fd5b60029055565b610f9b610f9582610fb8565b33612041565b610e6b5760405163f6e2f99b60e01b815260040160405180910390fd5b604081901b68010000000000000000600160e01b03167f5bebac0595fee029d42bb673937f5f1cb81cf8641382bc17774635de9b7d79651860048101546000919060ff168281600581111561100f5761100f614452565b1415801561102f5750600581600581111561102c5761102c614452565b14155b61104c5760405163d68a46c560e01b815260040160405180910390fd5b5092915050565b6110be6040805160c081019091526000606082018181526080830182905260a083019190915281908152604080516060810182526000808252602082810182905292820152910190815260408051606081018252600080825260208281018290529282015291015290565b60006110c983612082565b905060405180606001604052806110df8561213f565b81526020018281526020016110f485846121e4565b90529392505050565b60008061110f856000015185856123b3565b90506000611122866020015186866123b3565b90506000611135876040015187876123b3565b905061114a836111458484611ee9565b611ee9565b93505050505b9392505050565b6000806111626123f4565b9050600061116e611282565b600d8401549092506001600160401b0316905061118a826114b9565b6111949190614641565b6001600160401b03169250505090565b60006111b26103e84361466f565b6111bd906001614683565b905090565b6000806111cd6123f4565b600d810154909150611150906111ec906001600160401b031685614696565b611fd9565b60006001600160401b0382111561120a5761120a61449d565b5067119094149990400160c21b1790565b6000806112266123f4565b600c810154909150611150906001600160401b03600160901b9091048116908516614696565b60006001600160801b0382111561127e5760405162461bcd60e51b8152600401611275906146ad565b60405180910390fd5b5090565b60008080600080516020614dbf833981519152905060008160000160009054906101000a90046001600160a01b03166001600160a01b03166346fcff4c6040518163ffffffff1660e01b8152600401602060405180830381865afa1580156112ee573d6000803e3d6000fd5b505050506040513d601f19601f82011682018060405250810190611312919061470b565b6001600160801b0316905060008260000160009054906101000a90046001600160a01b03166001600160a01b031663f0ec77fa6040518163ffffffff1660e01b8152600401602060405180830381865afa158015611374573d6000803e3d6000fd5b505050506040513d601f19601f82011682018060405250810190611398919061470b565b6001600160801b0316905060006113ad612418565b845460408051631214493d60e11b815290516001600160a01b0390921691632428927a916004808201926020929091908290030181865afa1580156113f6573d6000803e3d6000fd5b505050506040513d601f19601f8201168201806040525081019061141a91906144ed565b6114249190614683565b905061143083826124ad565b955061144561143f8385614683565b826124ad565b9450505050509091565b60006001600160ff1b0382111561127e5760405162461bcd60e51b815260206004820152602860248201527f53616665436173743a2076616c756520646f65736e27742066697420696e2061604482015267371034b73a191a9b60c11b6064820152608401611275565b6000806114c46123f4565b600c810154909150611150906111ec90600160901b90046001600160401b031685614726565b600080600080516020614d7f833981519152816115056123f4565b600f0154600160801b900461ffff16905060006115206123f4565b600d01546001600160401b0316905060005b82811080156115525750886001600160401b0316866001600160401b0316105b1561163057600060088501816115678d6124c7565b6001600160a01b0316815260208101919091526040016000908120546001600160401b0316915081900361159b5750611630565b6001600160401b038181166000908152600787016020526040812060068e0154815491936115d49291811691600160a01b90041661447e565b90506115e0858261473a565b6115ea9082614768565b905060006116016115fb8b8f614768565b83611c5f565b905061160d84826124ef565b611617818b61447e565b995050505050808061162890614787565b915050611532565b506000611653611640878b614768565b60068c01546001600160401b0316611c5f565b9050861561167257611665828261473a565b61166f9082614768565b90505b6001600160401b038116156116975761168b818761447e565b95506116978a826126c6565b87156116a7576116a78a876126f3565b6116b08661121b565b94505050505094509492505050565b6000806116cb8361273f565b60058401549091506116ed90600160401b90046001600160401b0316826124ad565b9150915091565b60006001600160401b038416158061171457506001600160a01b03851615155b61173157604051632a436fa560e21b815260040160405180910390fd5b8851600080516020614d7f8339815191529060009061174f90610fb8565b905060808951106117735760405163599ec1c160e01b815260040160405180910390fd5b885160208a01206003820154810361179e576040516302908b3160e11b815260040160405180910390fd5b60006117b061040e8e6020015161121b565b90506117bb8a612791565b94506118556040805161026081018252600080825260208201819052918101829052606081018290526080810182905260a0810182905260c0810182905260e08101829052610100810182905261012081018290529061014082019081526000602082018190526040820181905260608083018290526080830182905260a0830182905260c083015260e082018190526101009091015290565b8281526001600160801b0382166020820152600f8501546201000090046001600160401b031660608201528d5161188c9089612826565b6001600160401b0390811660a08401521660808201526118ab42611fd9565b6001600160401b0316610100820152866118f1576118ec61040e6118cd6123f4565b600e01546001600160801b03851690600160401b900461ffff16611fa0565b6118f4565b60005b6001600160801b031660408201526001600160a01b038d811660e08301528e511661012082015260208e01516001600160401b031660c082015260016101408201819052508a15156101608201526001600160a01b038a81166101808301526001600160401b038a81166101a084015261020083018e9052881515610220840152600c860154600160e01b900461ffff166102408401528781166000908152600a880160209081526040918290208551815590850151918501516001600160801b03928316600160801b918416820217600183015560608601516002808401805460808a015160a08b015160c08c0151958a166001600160801b031990931692909217600160401b918a1691909102179096169587169093026001600160c01b031694909417600160c01b9186169190910217905560e08501516003820180546101008801519287166001600160e01b031990911617600160a01b929095168202949094179093556101208501516004820180546001600160a01b0319811692909616918217815561014087015187969395909491936001600160a81b03191690921791908490811115611aaa57611aaa614452565b021790555061016082015160048201805460ff60a81b1916600160a81b921515929092029190911790556101808201516005820180546101a08501516001600160a01b039093166001600160e01b031990911617600160a01b6001600160401b03938416021790556101c08301516006830180546101e08601519284166001600160801b031990911617600160401b92909316919091029190911790556102008201516007820190611b5c90826147ee565b50610220820151600890910180546102409093015161ffff166101000262ffff00199215159290921662ffffff199093169290921717905560208e0151611ba59085908d61293e565b611bb081878e6129e2565b505050505098975050505050505050565b6000611bd56102a0830161028084016148bd565b60ff1614611bf6576040516307a4ced160e51b815260040160405180910390fd5b610e6b81612a9c565b6105098260a0830135612b6a565b60008082121561127e5760405162461bcd60e51b815260206004820181905260248201527f53616665436173743a2076616c7565206d75737420626520706f7369746976656044820152606401611275565b6000816001600160401b0316836001600160401b03161115611c815781611c83565b825b90505b92915050565b808260050160088282829054906101000a90046001600160401b0316611cb2919061447e565b92506101000a8154816001600160401b0302191690836001600160401b031602179055506000611ce06123f4565b6006840154909150600090611cff9084906001600160401b031661447e565b600d830154909150600090611d1d906001600160401b03168361473a565b90506000611d2b8284614768565b90506001600160401b03811615611d4657611d468682612baa565b611d508683612d4d565b505050505050565b611d69611d648261144f565b612de3565b600683018054600890611d87908490600160401b9004600f0b6148d8565b92506101000a8154816001600160801b030219169083600f0b6001600160801b03160217905550611db7826124c7565b6006830154604051600160401b909104600f0b81526001600160a01b0391909116907f73da6891cb86668451f612d2555e88650888a0133a30b1d226b2d1f955e62bca9060200160405180910390a25050565b610e6b611e1f6101208301610100840161492e565b611e316101408401610120850161492e565b6001612e0c565b600c810154600160601b90046001600160401b031615801590611e6e5750600c810154600160a01b90046001600160401b031615155b611e7a57611e7a61449d565b600c8101546005820180546001600160401b03600160a01b909304831692600091611ea791859116614768565b82546001600160401b039182166101009390930a928302919092021990911617905550600c0180546fffffffffffffffffffffffffffffffff60601b19169055565b6000818310611c815781611c83565b600080611f036123f4565b600c810154600d8201549192506001600160401b03600160901b909104811691611f2e911685614696565b6111509190614696565b611f40612f93565b604051632770a7eb60e21b81526001600160a01b038481166004830152602482018490529190911690639dc29fac90604401600060405180830381600087803b158015611f8c57600080fd5b505af1158015611d50573d6000803e3d6000fd5b6000611c838383612710612fb1565b60006001600160401b03821115611fc857611fc861449d565b5067464250526641000560c01b1790565b60006001600160401b0382111561127e5760405162461bcd60e51b815260206004820152602660248201527f53616665436173743a2076616c756520646f65736e27742066697420696e203660448201526534206269747360d01b6064820152608401611275565b60018201546000906001600160a01b0383811691161480611c835750612066836130b5565b6001600160a01b0316826001600160a01b031614905092915050565b6120a76040805160608101909152806000815260200160008152602001600081525090565b60006120b28361312e565b604080516060810182526001815285548251634ac8eb5f60e01b8152925193945090926020808501936001600160a01b0390931692634ac8eb5f92600480830193928290030181865afa15801561210d573d6000803e3d6000fd5b505050506040513d601f19601f8201168201806040525081019061213191906144ed565b81526020016110f48361317d565b6121646040805160608101909152806000815260200160008152602001600081525090565b600061216f83613193565b60408051606081019091526000815281549192509060208201906001600160a01b03166370a082316121a0876124c7565b6040516001600160e01b031960e084901b1681526001600160a01b039091166004820152602401602060405180830381865afa15801561210d573d6000803e3d6000fd5b6122096040805160608101909152806000815260200160008152602001600081525090565b8254604080516332f7ce0b60e21b815290516000926001600160a01b03169163cbdf382c9160048083019260209291908290030181865afa158015612252573d6000803e3d6000fd5b505050506040513d601f19601f820116820180604052508101906122769190614949565b90506000816001600160a01b03166370a08231612292876124c7565b6040516001600160e01b031960e084901b1681526001600160a01b039091166004820152602401602060405180830381865afa1580156122d6573d6000803e3d6000fd5b505050506040513d601f19601f820116820180604052508101906122fa91906144ed565b90506000826001600160a01b03166318160ddd6040518163ffffffff1660e01b8152600401602060405180830381865afa15801561233c573d6000803e3d6000fd5b505050506040513d601f19601f8201168201806040525081019061236091906144ed565b90506000856020015160000361237a57856040015161238f565b6020860151604087015161238f918490612fb1565b60408051606081018252600281526020810195909552840152509095945050505050565b6000806123c085856131ca565b905060006123cf8686866131ef565b9050806000036123e05760006123ea565b6123ea8183614726565b9695505050505050565b7f4f24f5c433db0962dac0d2c8b84197a6e6c7cc4e5d9ebe1916a1b6193da2f33a90565b600080516020614dbf8339815191528054604080516385b4bb5360e01b815290516000939284926001600160a01b03909116916385b4bb53916004808201926080929091908290030181865afa158015612476573d6000803e3d6000fd5b505050506040513d601f19601f8201168201806040525081019061249a9190614966565b6001600160801b03169695505050505050565b60008183116124bd576000611c83565b611c8382846145d6565b7f5bebac0595fee029d42bb673937f5f1cb81cf8641382bc17774635de9b7d79651860401c90565b6001600160401b03821660009081527fec7e8c1c441439dd40959777f4c577ea0cd42fcc1dbe59d2bd0f5d9c55df8dbd602081905260408220805491929091612540906001600160a01b0316610fb8565b9050600061254c6123f4565b600d0154600683015484546001600160401b039283169350600092889261257f9290821691600160a01b9091041661447e565b6125899190614768565b90506000612597838361473a565b905060006125a58284614768565b9050806001600160401b031660000361260f576125c2878a613222565b886001600160401b03166125d5866124c7565b6001600160a01b03167fb7f65e70a51658e24800516a5dc90e2dd65176e18381adda77f58e2044482b1960405160405180910390a36126b1565b85546001600160401b03828116600160a01b90920416146126b157855467ffffffffffffffff60a01b1916600160a01b6001600160401b0383160217865560006126588261121b565b9050896001600160401b031661266d876124c7565b6001600160a01b03167f9d2e72c50be7927e999d37329649af37a863df77bcb25361699ce021d3d7475d836040516126a791815260200190565b60405180910390a3505b6126bb8583612d4d565b505050505050505050565b60068201546000906126e29083906001600160401b0316614768565b90506126ee8382612d4d565b505050565b6005820154612713908290600160401b90046001600160401b0316614768565b8260050160086101000a8154816001600160401b0302191690836001600160401b031602179055505050565b60008061274b83611053565b9050600061275d8483600001516135fc565b9050600061276f8584602001516135fc565b905060006127818685604001516135fc565b90506123ea836111458484611ee9565b6000600080516020614d7f833981519152816127ab6111a4565b600e8301546127ca9190600160401b90046001600160401b031661447e565b90506000846127da5760006127dd565b60015b60ff166001196127ee84600161447e565b161790508083600e0160086101000a8154816001600160401b0302191690836001600160401b03160217905550809350505050919050565b600080600080516020614d7f833981519152816128416123f4565b905060008561284f88613671565b600f850154600160901b90046001600160401b031661286d42611fd9565b6128779190614768565b612881919061447e565b61288b919061447e565b600c8301549091506000906128bf9063ffffffff166128b56001600160401b0385166103e8614696565b6111ec9190614726565b600d840154600f8601549192506001600160401b03600160981b9091048116916128f19184916201000090041661447e565b6128fb919061447e565b600e840154600f8601549197506001600160401b0390811691612927918591600160501b90041661447e565b612931919061447e565b9450505050509250929050565b818360050160108282829054906101000a90046001600160401b0316612964919061447e565b92506101000a8154816001600160401b0302191690836001600160401b03160217905550806129d857818360050160188282829054906101000a90046001600160401b03166129b3919061447e565b92506101000a8154816001600160401b0302191690836001600160401b031602179055505b6126ee83836126f3565b816001600160401b03168360e001516001600160a01b03168461012001516001600160a01b03167f8cbbd73a8d1b8b02a53c4c3b0ee34b472fe3099cc19bcfb57f1aae09e8a9847e848760200151886040015189606001518a608001518b60a00151612a568c6001600160401b0316613729565b8d6101800151633b9aca008f6101a001516001600160401b0316612a7a9190614696565b604051612a8f999897969594939291906149ba565b60405180910390a4505050565b6000612aa66123f4565b6008810154600b8201549192506001600160a01b031690604084013514612ae05760405163057f3fa760e51b815260040160405180910390fd5b60405163a7a3797560e01b81526001600160a01b0382169063a7a3797590612b0c908690600401614b65565b602060405180830381865afa158015612b29573d6000803e3d6000fd5b505050506040513d601f19601f82011682018060405250810190612b4d9190614435565b6126ee576040516316c32dbb60e21b815260040160405180910390fd5b60008181526020839052604090205415612b97576040516318dce79f60e01b815260040160405180910390fd5b6000818152602092909252604090912055565b600080516020614d7f8339815191526001600160401b038216600003612bcf57505050565b6000612bda846124c7565b6009830154600160401b90046001600160401b031660008181526007850160205260409020805492935090916001600160a01b03808516911603612cd757805485908290601490612c3c908490600160a01b90046001600160401b031661447e565b92506101000a8154816001600160401b0302191690836001600160401b031602179055506000612c828260000160149054906101000a90046001600160401b031661121b565b9050826001600160401b0316846001600160a01b03167f9d2e72c50be7927e999d37329649af37a863df77bcb25361699ce021d3d7475d83604051612cc991815260200190565b60405180910390a350611d50565b6000612ce7600786018588613753565b90506000612cf48761121b565b9050816001600160401b0316856001600160a01b03167f631f8f2039090539b2ea4ef7dc567f7f1939ef4dd3e790b1ca7bc548a1fada5883604051612d3b91815260200190565b60405180910390a35050505050505050565b60068201546001600160401b03808316911603612d68575050565b60068201805467ffffffffffffffff19166001600160401b0383161790556000612d918261121b565b9050612d9c836124c7565b6001600160a01b03167fa3db2bc927901a1d3ba09ad51d84609457b98443be9132a0a936a47c5a1081b582604051612dd691815260200190565b60405180910390a2505050565b80600f81900b8114612e075760405162461bcd60e51b8152600401611275906146ad565b919050565b600080516020614d7f833981519152600080612e28848761447e565b600f8401549091506001600160401b036201000090910481169082161115612e7457600f8301805469ffffffffffffffff00001916620100006001600160401b03841602179055600191505b60006103e8612e816123f4565b600c0154612e959063ffffffff1687614bfa565b612e9f9190614641565b612ea9908761447e565b600f8501546001600160401b039182169250600160501b900416811115612f0057612ed381611fd9565b84600f01600a6101000a8154816001600160401b0302191690836001600160401b03160217905550600192505b8215612f8a57612f0f42611fd9565b600f8501805467ffffffffffffffff60901b1916600160901b6001600160401b039384160217908190556040805162010000830484168152600160501b9092049092166020820152428183015290517f2078549e3faec355556787458d744ad19765bbb953b3f71801333f29abdce1c8916060908290030190a15b50505050505050565b600080612f9e6123f4565b600101546001600160a01b031692915050565b6000808211612fd3576040516323d359a360e01b815260040160405180910390fd5b83600003612fe357506000611150565b83830283858281612ff657612ff661462b565b04036130145782818161300b5761300b61462b565b04915050611150565b5060006130218386614726565b9050600061302f848761466f565b9050600061303d8587614726565b9050600061304b868861466f565b9050856130588285614696565b6130629190614726565b61306c8385614696565b6130768387614696565b886130818689614696565b61308b9190614696565b6130959190614683565b61309f9190614683565b6130a99190614683565b98975050505050505050565b60006130bf613b5c565b6001830154604051631f86345d60e31b81526001600160a01b03918216600482015291169063fc31a2e890602401602060405180830381865afa15801561310a573d6000803e3d6000fd5b505050506040513d601f19601f82011682018060405250810190611c869190614949565b600080600080516020614d7f833981519152600484015481549192508291630100000090910461ffff1690811061316757613167614c1c565b9060005260206000209060040201915050919050565b600061318a826000613b7a565b50909392505050565b600080600080516020614d7f83398151915260048401548154919250829161010090910461ffff1690811061316757613167614c1c565b6000806131d78484613d39565b90506131e78460200151826124ad565b949350505050565b6000806131fa6123f4565b600d81015490915061321990869086906001600160401b031686613e69565b95945050505050565b6001600160401b038116600090815260208390526040902080546001600160a01b03166132515761325161449d565b80546001600160a01b031660009081526001808501602052604082209083015490916001600160401b0390911690036132d75760028401546001600160401b038481169116146132a3576132a361449d565b6001820154600285018054600160401b9092046001600160401b031667ffffffffffffffff1990921691909117905561333f565b60028401546001600160401b03908116908416036132f7576132f761449d565b6001828101546001600160401b038082166000908152602088905260409020909201805467ffffffffffffffff60401b1916600160401b928390049093169091029190911790555b6001820154600160401b90046001600160401b03166000036133b65760028401546001600160401b03848116600160401b90920416146133815761338161449d565b600182015460028501805467ffffffffffffffff60401b19166001600160401b03909216600160401b0291909117905561341e565b60028401546001600160401b03600160401b9091048116908416036133dd576133dd61449d565b600180830154600160401b81046001600160401b039081166000908152602088905260409020909201805467ffffffffffffffff1916929091169190911790555b6001820154600160801b90046001600160401b03166000036134835780546001600160401b038481169116146134565761345661449d565b60018201548154600160c01b9091046001600160401b031667ffffffffffffffff199091161781556134e9565b80546001600160401b03908116908416036134a0576134a061449d565b6001828101546001600160401b03600160801b82048116600090815260208890526040902090920180546001600160c01b0316600160c01b928390049093169091029190911790555b6001820154600160c01b90046001600160401b031660000361355c5780546001600160401b03848116600160401b90920416146135285761352861449d565b6001820154815467ffffffffffffffff60401b1916600160801b9091046001600160401b0316600160401b021781556135ce565b80546001600160401b03600160401b9091048116908416036135805761358061449d565b6001828101546001600160401b03600160c01b820481166000908152602088905260409020909201805467ffffffffffffffff60801b1916600160801b928390049093169091029190911790555b50506001600160401b031660009081526020919091526040812080546001600160e01b031916815560010155565b600080600080516020614dbf83398151915290506000613620858560000151613eed565b915050600061363785602001518660400151613fb9565b905060006136488261271085612fb1565b6001850154909150613666908290600160c01b900461ffff16611fa0565b979650505050505050565b6001600160a01b03811660009081527f1309a575a1ebd5e5ca64d58e63b864f1d06aed3e31a021b0eabae653c215fb07602052604081207f1309a575a1ebd5e5ca64d58e63b864f1d06aed3e31a021b0eabae653c215fb0690826136d442611fd9565b835483549192506000916136f4916001600160401b03908116911661447e565b90506137008183613fd2565b835467ffffffffffffffff19166001600160401b039190911690811784556123ea908390614768565b60006001600160401b038211156137425761374261449d565b5067232128293320800160c11b1790565b6001600160a01b0382166000908152600184016020526040812060028501805483919060109061379290600160801b90046001600160401b0316614c32565b91906101000a8154816001600160401b0302191690836001600160401b03160217905590506040518060c00160405280866001600160a01b03168152602001856001600160401b031681526020018760020160089054906101000a90046001600160401b03166001600160401b0316815260200160006001600160401b031681526020018360000160089054906101000a90046001600160401b03166001600160401b0316815260200160006001600160401b0316815250866000016000836001600160401b03166001600160401b0316815260200190815260200160002060008201518160000160006101000a8154816001600160a01b0302191690836001600160a01b0316021790555060208201518160000160146101000a8154816001600160401b0302191690836001600160401b0316021790555060408201518160010160006101000a8154816001600160401b0302191690836001600160401b0316021790555060608201518160010160086101000a8154816001600160401b0302191690836001600160401b0316021790555060808201518160010160106101000a8154816001600160401b0302191690836001600160401b0316021790555060a08201518160010160186101000a8154816001600160401b0302191690836001600160401b031602179055509050508560020160009054906101000a90046001600160401b03166001600160401b03166000036139ef576002860154600160401b90046001600160401b0316156139cc576139cc61449d565b60028601805467ffffffffffffffff19166001600160401b038316179055613a57565b6002860154600160401b90046001600160401b0316600003613a1357613a1361449d565b6002860154600160401b908190046001600160401b039081166000908152602089905260409020600101805467ffffffffffffffff60401b19169184169092021790555b6002860180546001600160401b03808416600160401b0267ffffffffffffffff60401b1990921691909117909155825416600003613acd578154600160401b90046001600160401b031615613aae57613aae61449d565b815467ffffffffffffffff19166001600160401b038216178255613b30565b8154600160401b90046001600160401b0316600003613aee57613aee61449d565b81546001600160401b03600160401b909104811660009081526020889052604090206001018054918316600160c01b026001600160c01b039092169190911790555b815467ffffffffffffffff60401b1916600160401b6001600160401b0383160217909155949350505050565b600080613b676123f4565b600701546001600160a01b031692915050565b600080600080600080613c19886001018054613b9590614357565b80601f0160208091040260200160405190810160405280929190818152602001828054613bc190614357565b8015613c0e5780601f10613be357610100808354040283529160200191613c0e565b820191906000526020600020905b815481529060010190602001808311613bf157829003601f168201915b505050505088613ff4565b8a549295509093509150600160f01b900460ff1615613c60578754600090613c4f90600160a81b900460ff1660018387866140bf565b9650919450849350613d3292505050565b6000806000613cfb8b6002018054613c7790614357565b80601f0160208091040260200160405190810160405280929190818152602001828054613ca390614357565b8015613cf05780601f10613cc557610100808354040283529160200191613cf0565b820191906000526020600020905b815481529060010190602001808311613cd357829003601f168201915b50505050508b613ff4565b8d549295509093509150600090613d1f90600160a81b900460ff1685848a896140bf565b9950949750909550613d32945050505050565b9250925092565b6000806000613d4c848660000151613eed565b60058601549193509150600090613d75906001600160401b03600160401b820481169116614683565b90506000613d9184613d8b848a60400151614136565b90611fa0565b90506000600188516002811115613daa57613daa614452565b14613dc9576005870154600160801b90046001600160401b0316613ddf565b6005870154600160c01b90046001600160401b03165b90506000613dfe85613d8b846001600160401b03168c60400151614136565b9050600060018a516002811115613e1757613e17614452565b03613e23576000613e3b565b8951613e30908a90614150565b546001600160801b03165b6001600160801b0316905080613e518386614683565b613e5b9190614683565b9a9950505050505050505050565b60008082613e78576000613ea1565b6004850154613ea19061ffff600160581b8204811691613d8b918891600160481b900416611fa0565b90506000613eaf8286614683565b90506000613ec1828960400151614136565b90506000613ed3888a60000151613eed565b509050613ee08282611fa0565b9998505050505050505050565b6000806002836002811115613f0457613f04614452565b03613f31576000613f136123f4565b600c0154640100000000900463ffffffff169250829150613fb29050565b6001836002811115613f4557613f45614452565b03613f8057613f538461312e565b60030154600485015463ffffffff9182169250613f7991600160881b909104168261419d565b9150613fb2565b613f8984613193565b60030154600485015463ffffffff9182169250613faf91600160681b909104168261419d565b91505b9250929050565b6000611c83613fca6009600a614d44565b849084612fb1565b6000816001600160401b0316836001600160401b03161015611c815781611c83565b6000806000806140026123f4565b600a8101549091506001600160a01b031685156140935760405163e4a0a55b60e01b81526001600160a01b0382169063e4a0a55b90614045908a906004016145c3565b606060405180830381865afa158015614062573d6000803e3d6000fd5b505050506040513d601f19601f820116820180604052508101906140869190614d50565b9450945094505050613d32565b60405163524f388960e01b81526001600160a01b0382169063524f388990614045908a906004016145c3565b6000806140ca6123f4565b9050600060096140da878a614683565b6140e49190614683565b600a830154909150600090614104908690600160a81b900460ff16614683565b9050808210156141165761411661449d565b613ee061412382846145d6565b61412e90600a614d44565b87908a612fb1565b6000611c83826141486009600a614d44565b859190612fb1565b6000600182600281111561416657614166614452565b036141735761417361449d565b600082600281111561418757614187614452565b146141955782600901611c83565b505060080190565b6000818311611c815781611c83565b6001600160a01b0381168114610e6b57600080fd5b600080604083850312156141d457600080fd5b82356141df816141ac565b946020939093013593505050565b6000806040838503121561420057600080fd5b82356001600160401b0381111561421657600080fd5b83016102a0818603121561422957600080fd5b91506020830135614239816141ac565b809150509250929050565b634e487b7160e01b600052604160045260246000fd5b604051601f8201601f191681016001600160401b038111828210171561428257614282614244565b604052919050565b60006001600160401b038211156142a3576142a3614244565b50601f01601f191660200190565b600080604083850312156142c457600080fd5b8235915060208301356001600160401b038111156142e157600080fd5b8301601f810185136142f257600080fd5b80356143056143008261428a565b61425a565b81815286602083850101111561431a57600080fd5b816020840160208301376000602083830101528093505050509250929050565b60006020828403121561434c57600080fd5b8135611150816141ac565b600181811c9082168061436b57607f821691505b60208210810361438b57634e487b7160e01b600052602260045260246000fd5b50919050565b6000815461439e81614357565b8085526001821680156143b857600181146143d45761440b565b60ff1983166020870152602082151560051b870101935061440b565b84600052602060002060005b838110156144025781546020828a0101526001820191506020810190506143e0565b87016020019450505b50505092915050565b602081526000611c836020830184614391565b8015158114610e6b57600080fd5b60006020828403121561444757600080fd5b815161115081614427565b634e487b7160e01b600052602160045260246000fd5b634e487b7160e01b600052601160045260246000fd5b6001600160401b038181168382160190811115611c8657611c86614468565b634e487b7160e01b600052600160045260246000fd5b6080815260006144c66080830187614391565b6020830195909552506001600160801b039290921660408301521515606090910152919050565b6000602082840312156144ff57600080fd5b5051919050565b60005b83811015614521578181015183820152602001614509565b50506000910152565b60006020828403121561453c57600080fd5b81516001600160401b0381111561455257600080fd5b8201601f8101841361456357600080fd5b80516145716143008261428a565b81815285602083850101111561458657600080fd5b613219826020830160208601614506565b600081518084526145af816020860160208601614506565b601f01601f19169290920160200192915050565b602081526000611c836020830184614597565b81810381811115611c8657611c86614468565b6080815260006144c66080830187614597565b60808152600061460f6080830187614597565b6020830195909552506040810192909252606090910152919050565b634e487b7160e01b600052601260045260246000fd5b60006001600160401b0383168061465a5761465a61462b565b806001600160401b0384160491505092915050565b60008261467e5761467e61462b565b500690565b80820180821115611c8657611c86614468565b8082028115828204841417611c8657611c86614468565b60208082526027908201527f53616665436173743a2076616c756520646f65736e27742066697420696e20316040820152663238206269747360c81b606082015260800190565b80516001600160801b0381168114612e0757600080fd5b60006020828403121561471d57600080fd5b611c83826146f4565b6000826147355761473561462b565b500490565b60006001600160401b038316806147535761475361462b565b806001600160401b0384160691505092915050565b6001600160401b038281168282160390811115611c8657611c86614468565b60006001820161479957614799614468565b5060010190565b601f8211156126ee57806000526020600020601f840160051c810160208510156147c75750805b601f840160051c820191505b818110156147e757600081556001016147d3565b5050505050565b81516001600160401b0381111561480757614807614244565b61481b816148158454614357565b846147a0565b6020601f82116001811461484f57600083156148375750848201515b600019600385901b1c1916600184901b1784556147e7565b600084815260208120601f198516915b8281101561487f578785015182556020948501946001909201910161485f565b508482101561489d5786840151600019600387901b60f8161c191681555b50505050600190811b01905550565b803560ff81168114612e0757600080fd5b6000602082840312156148cf57600080fd5b611c83826148ac565b600f81810b9083900b016f7fffffffffffffffffffffffffffffff81136f7fffffffffffffffffffffffffffffff1982121715611c8657611c86614468565b80356001600160401b0381168114612e0757600080fd5b60006020828403121561494057600080fd5b611c8382614917565b60006020828403121561495b57600080fd5b8151611150816141ac565b6000806000806080858703121561497c57600080fd5b614985856146f4565b9350614993602086016146f4565b92506149a1604086016146f4565b91506149af606086016146f4565b905092959194509250565b610120815260006149cf61012083018c614597565b6001600160801b039a8b1660208401529890991660408201526001600160401b03968716606082015294861660808601529290941660a084015260c08301526001600160a01b0390921660e0820152610100015292915050565b8035612e0781614427565b80358252602080820135908301526001600160401b03614a5660408301614917565b1660408301526001600160401b03614a7060608301614917565b1660608301526080818101359083015260a0808201359083015260c08082013590830152614ab560e080840190614aa8908401614917565b6001600160401b03169052565b614ac26101008201614917565b6001600160401b031661010083015261012081810135908301526101408082013590830152610160808201359083015261018080820135908301526101a080820135908301526101c080820135908301526101e0808201359083015261020080820135908301526102208082013590830152614b416102408201614a29565b1515610240830152614b5661026082016148ac565b60ff8116610260840152505050565b6020815260008235601e19843603018112614b7f57600080fd5b83016020810190356001600160401b03811115614b9b57600080fd5b8060051b803603831315614bae57600080fd5b6102a060208601526102c085018290526001600160fb1b03821115614bd257600080fd5b80836102e0870137614bea6040860160208801614a34565b939093016102e001949350505050565b6001600160401b03818116838216029081169081811461104c5761104c614468565b634e487b7160e01b600052603260045260246000fd5b60006001600160401b0382166001600160401b038103614c5457614c54614468565b60010192915050565b6001815b6001841115614c9857808504811115614c7c57614c7c614468565b6001841615614c8a57908102905b60019390931c928002614c61565b935093915050565b600082614caf57506001611c86565b81614cbc57506000611c86565b8160018114614cd25760028114614cdc57614cf8565b6001915050611c86565b60ff841115614ced57614ced614468565b50506001821b611c86565b5060208310610133831016604e8410600b8410161715614d1b575081810a611c86565b614d286000198484614c5d565b8060001904821115614d3c57614d3c614468565b029392505050565b6000611c838383614ca0565b600080600060608486031215614d6557600080fd5b505081516020830151604090930151909492935091905056feec7e8c1c441439dd40959777f4c577ea0cd42fcc1dbe59d2bd0f5d9c55df8db60cd2207518cd3e5213e2c6dbe63d55b60aa893c194a427b7d7f1600408fd5bde5176d9aff61164d28f93ea46eb1dc40e6c1f84dd050716ad33cf1851e70a4aa1a2646970667358221220a7ea4d7384a04736b9a14992bbbd58f679a856cbc2f91474dcfc1764c49dd45964736f6c634300081b0033",
  "linkReferences": {},
  "deployedLinkReferences": {}
}