{
  "_format": "hh-sol-artifact-1",
  "contractName": "CoreVaultClientFacet",
  "sourceName": "contracts/assetManager/facets/CoreVaultClientFacet.sol",
  "abi": [
    {
      "inputs": [],
      "stateMutability": "nonpayable",
      "type": "constructor"
    },
    {
      "inputs": [],
      "name": "CannotRedeemToAgentsAddress",
      "type": "error"
    },
    {
      "inputs": [],
      "name": "CannotReturnZeroLots",
      "type": "error"
    },
    {
      "inputs": [],
      "name": "CoreVaultNotEnabled",
      "type": "error"
    },
    {
      "inputs": [],
      "name": "DivisionByZero",
      "type": "error"
    },
    {
      "inputs": [],
      "name": "EmergencyPauseActive",
      "type": "error"
    },
    {
      "inputs": [],
      "name": "ExecutorFeeWithoutExecutor",
      "type": "error"
    },
    {
      "inputs": [],
      "name": "InvalidAgentStatus",
      "type": "error"
    },
    {
      "inputs": [],
      "name": "InvalidAgentVaultAddress",
      "type": "error"
    },
    {
      "inputs": [],
      "name": "InvalidChain",
      "type": "error"
    },
    {
      "inputs": [],
      "name": "InvalidPaymentReference",
      "type": "error"
    },
    {
      "inputs": [],
      "name": "LegalPaymentNotProven",
      "type": "error"
    },
    {
      "inputs": [],
      "name": "NoActiveReturnRequest",
      "type": "error"
    },
    {
      "inputs": [],
      "name": "NotAttached",
      "type": "error"
    },
    {
      "inputs": [],
      "name": "NotEnoughAvailableOnCoreVault",
      "type": "error"
    },
    {
      "inputs": [],
      "name": "NotEnoughFreeCollateral",
      "type": "error"
    },
    {
      "inputs": [],
      "name": "NotEnoughUnderlying",
      "type": "error"
    },
    {
      "inputs": [],
      "name": "NotWhitelisted",
      "type": "error"
    },
    {
      "inputs": [],
      "name": "NothingMinted",
      "type": "error"
    },
    {
      "inputs": [],
      "name": "OnlyAgentVaultOwner",
      "type": "error"
    },
    {
      "inputs": [],
      "name": "OnlyAssetManagerController",
      "type": "error"
    },
    {
      "inputs": [],
      "name": "PaymentAlreadyConfirmed",
      "type": "error"
    },
    {
      "inputs": [],
      "name": "PaymentFailed",
      "type": "error"
    },
    {
      "inputs": [],
      "name": "PaymentNotFromCoreVault",
      "type": "error"
    },
    {
      "inputs": [],
      "name": "PaymentNotToAgentsAddress",
      "type": "error"
    },
    {
      "inputs": [],
      "name": "ReentrancyGuardReentrantCall",
      "type": "error"
    },
    {
      "inputs": [],
      "name": "RequestedAmountTooSmall",
      "type": "error"
    },
    {
      "inputs": [],
      "name": "ReturnFromCoreVaultAlreadyRequested",
      "type": "error"
    },
    {
      "inputs": [],
      "name": "TooLittleMintingLeftAfterTransfer",
      "type": "error"
    },
    {
      "inputs": [],
      "name": "TransferAlreadyActive",
      "type": "error"
    },
    {
      "inputs": [],
      "name": "UnderlyingAddressTooLong",
      "type": "error"
    },
    {
      "inputs": [],
      "name": "ZeroTransferNotAllowed",
      "type": "error"
    },
    {
      "anonymous": false,
      "inputs": [
        {
          "indexed": true,
          "internalType": "address",
          "name": "redeemer",
          "type": "address"
        },
        {
          "indexed": false,
          "internalType": "string",
          "name": "paymentAddress",
          "type": "string"
        },
        {
          "indexed": false,
          "internalType": "bytes32",
          "name": "paymentReference",
          "type": "bytes32"
        },
        {
          "indexed": false,
          "internalType": "uint256",
          "name": "valueUBA",
          "type": "uint256"
        },
        {
          "indexed": false,
          "internalType": "uint256",
          "name": "feeUBA",
          "type": "uint256"
        }
      ],
      "name": "CoreVaultRedemptionRequested",
      "type": "event"
    },
    {
      "anonymous": false,
      "inputs": [
        {
          "indexed": false,
          "internalType": "uint256",
          "name": "underlyingBlockNumber",
          "type": "uint256"
        },
        {
          "indexed": false,
          "internalType": "uint256",
          "name": "underlyingBlockTimestamp",
          "type": "uint256"
        },
        {
          "indexed": false,
          "internalType": "uint256",
          "name": "updatedAt",
          "type": "uint256"
        }
      ],
      "name": "CurrentUnderlyingBlockUpdated",
      "type": "event"
    },
    {
      "anonymous": false,
      "inputs": [
        {
          "indexed": true,
          "internalType": "address",
          "name": "agentVault",
          "type": "address"
        },
        {
          "indexed": false,
          "internalType": "uint256",
          "name": "dustUBA",
          "type": "uint256"
        }
      ],
      "name": "DustChanged",
      "type": "event"
    },
    {
      "anonymous": false,
      "inputs": [
        {
          "indexed": true,
          "internalType": "address",
          "name": "agentVault",
          "type": "address"
        },
        {
          "indexed": true,
          "internalType": "address",
          "name": "redeemer",
          "type": "address"
        },
        {
          "indexed": true,
          "internalType": "uint256",
          "name": "requestId",
          "type": "uint256"
        },
        {
          "indexed": false,
          "internalType": "string",
          "name": "paymentAddress",
          "type": "string"
        },
        {
          "indexed": false,
          "internalType": "uint256",
          "name": "valueUBA",
          "type": "uint256"
        },
        {
          "indexed": false,
          "internalType": "uint256",
          "name": "feeUBA",
          "type": "uint256"
        },
        {
          "indexed": false,
          "internalType": "uint256",
          "name": "firstUnderlyingBlock",
          "type": "uint256"
        },
        {
          "indexed": false,
          "internalType": "uint256",
          "name": "lastUnderlyingBlock",
          "type": "uint256"
        },
        {
          "indexed": false,
          "internalType": "uint256",
          "name": "lastUnderlyingTimestamp",
          "type": "uint256"
        },
        {
          "indexed": false,
          "internalType": "bytes32",
          "name": "paymentReference",
          "type": "bytes32"
        },
        {
          "indexed": false,
          "internalType": "address",
          "name": "executor",
          "type": "address"
        },
        {
          "indexed": false,
          "internalType": "uint256",
          "name": "executorFeeNatWei",
          "type": "uint256"
        }
      ],
      "name": "RedemptionRequested",
      "type": "event"
    },
    {
      "anonymous": false,
      "inputs": [
        {
          "indexed": true,
          "internalType": "address",
          "name": "agentVault",
          "type": "address"
        },
        {
          "indexed": true,
          "internalType": "uint256",
          "name": "redemptionTicketId",
          "type": "uint256"
        },
        {
          "indexed": false,
          "internalType": "uint256",
          "name": "ticketValueUBA",
          "type": "uint256"
        }
      ],
      "name": "RedemptionTicketCreated",
      "type": "event"
    },
    {
      "anonymous": false,
      "inputs": [
        {
          "indexed": true,
          "internalType": "address",
          "name": "agentVault",
          "type": "address"
        },
        {
          "indexed": true,
          "internalType": "uint256",
          "name": "redemptionTicketId",
          "type": "uint256"
        }
      ],
      "name": "RedemptionTicketDeleted",
      "type": "event"
    },
    {
      "anonymous": false,
      "inputs": [
        {
          "indexed": true,
          "internalType": "address",
          "name": "agentVault",
          "type": "address"
        },
        {
          "indexed": true,
          "internalType": "uint256",
          "name": "redemptionTicketId",
          "type": "uint256"
        },
        {
          "indexed": false,
          "internalType": "uint256",
          "name": "ticketValueUBA",
          "type": "uint256"
        }
      ],
      "name": "RedemptionTicketUpdated",
      "type": "event"
    },
    {
      "anonymous": false,
      "inputs": [
        {
          "indexed": true,
          "internalType": "address",
          "name": "agentVault",
          "type": "address"
        },
        {
          "indexed": true,
          "internalType": "uint256",
          "name": "requestId",
          "type": "uint256"
        }
      ],
      "name": "ReturnFromCoreVaultCancelled",
      "type": "event"
    },
    {
      "anonymous": false,
      "inputs": [
        {
          "indexed": true,
          "internalType": "address",
          "name": "agentVault",
          "type": "address"
        },
        {
          "indexed": true,
          "internalType": "uint256",
          "name": "requestId",
          "type": "uint256"
        },
        {
          "indexed": false,
          "internalType": "uint256",
          "name": "receivedUnderlyingUBA",
          "type": "uint256"
        },
        {
          "indexed": false,
          "internalType": "uint256",
          "name": "remintedUBA",
          "type": "uint256"
        }
      ],
      "name": "ReturnFromCoreVaultConfirmed",
      "type": "event"
    },
    {
      "anonymous": false,
      "inputs": [
        {
          "indexed": true,
          "internalType": "address",
          "name": "agentVault",
          "type": "address"
        },
        {
          "indexed": true,
          "internalType": "uint256",
          "name": "requestId",
          "type": "uint256"
        },
        {
          "indexed": false,
          "internalType": "bytes32",
          "name": "paymentReference",
          "type": "bytes32"
        },
        {
          "indexed": false,
          "internalType": "uint256",
          "name": "valueUBA",
          "type": "uint256"
        }
      ],
      "name": "ReturnFromCoreVaultRequested",
      "type": "event"
    },
    {
      "anonymous": false,
      "inputs": [
        {
          "indexed": true,
          "internalType": "address",
          "name": "agentVault",
          "type": "address"
        },
        {
          "indexed": true,
          "internalType": "uint256",
          "name": "transferRedemptionRequestId",
          "type": "uint256"
        },
        {
          "indexed": false,
          "internalType": "uint256",
          "name": "remintedUBA",
          "type": "uint256"
        }
      ],
      "name": "TransferToCoreVaultDefaulted",
      "type": "event"
    },
    {
      "anonymous": false,
      "inputs": [
        {
          "indexed": true,
          "internalType": "address",
          "name": "agentVault",
          "type": "address"
        },
        {
          "indexed": true,
          "internalType": "uint256",
          "name": "transferRedemptionRequestId",
          "type": "uint256"
        },
        {
          "indexed": false,
          "internalType": "uint256",
          "name": "valueUBA",
          "type": "uint256"
        }
      ],
      "name": "TransferToCoreVaultStarted",
      "type": "event"
    },
    {
      "anonymous": false,
      "inputs": [
        {
          "indexed": true,
          "internalType": "address",
          "name": "agentVault",
          "type": "address"
        },
        {
          "indexed": true,
          "internalType": "uint256",
          "name": "transferRedemptionRequestId",
          "type": "uint256"
        },
        {
          "indexed": false,
          "internalType": "uint256",
          "name": "valueUBA",
          "type": "uint256"
        }
      ],
      "name": "TransferToCoreVaultSuccessful",
      "type": "event"
    },
    {
      "anonymous": false,
      "inputs": [
        {
          "indexed": true,
          "internalType": "address",
          "name": "agentVault",
          "type": "address"
        },
        {
          "indexed": false,
          "internalType": "int256",
          "name": "underlyingBalanceUBA",
          "type": "int256"
        }
      ],
      "name": "UnderlyingBalanceChanged",
      "type": "event"
    },
    {
      "inputs": [
        {
          "internalType": "address",
          "name": "_agentVault",
          "type": "address"
        }
      ],
      "name": "cancelReturnFromCoreVault",
      "outputs": [],
      "stateMutability": "nonpayable",
      "type": "function"
    },
    {
      "inputs": [
        {
          "components": [
            {
              "internalType": "bytes32[]",
              "name": "merkleProof",
              "type": "bytes32[]"
            },
            {
              "components": [
                {
                  "internalType": "bytes32",
                  "name": "attestationType",
                  "type": "bytes32"
                },
                {
                  "internalType": "bytes32",
                  "name": "sourceId",
                  "type": "bytes32"
                },
                {
                  "internalType": "uint64",
                  "name": "votingRound",
                  "type": "uint64"
                },
                {
                  "internalType": "uint64",
                  "name": "lowestUsedTimestamp",
                  "type": "uint64"
                },
                {
                  "components": [
                    {
                      "internalType": "bytes32",
                      "name": "transactionId",
                      "type": "bytes32"
                    },
                    {
                      "internalType": "uint256",
                      "name": "inUtxo",
                      "type": "uint256"
                    },
                    {
                      "internalType": "uint256",
                      "name": "utxo",
                      "type": "uint256"
                    }
                  ],
                  "internalType": "struct IPayment.RequestBody",
                  "name": "requestBody",
                  "type": "tuple"
                },
                {
                  "components": [
                    {
                      "internalType": "uint64",
                      "name": "blockNumber",
                      "type": "uint64"
                    },
                    {
                      "internalType": "uint64",
                      "name": "blockTimestamp",
                      "type": "uint64"
                    },
                    {
                      "internalType": "bytes32",
                      "name": "sourceAddressHash",
                      "type": "bytes32"
                    },
                    {
                      "internalType": "bytes32",
                      "name": "sourceAddressesRoot",
                      "type": "bytes32"
                    },
                    {
                      "internalType": "bytes32",
                      "name": "receivingAddressHash",
                      "type": "bytes32"
                    },
                    {
                      "internalType": "bytes32",
                      "name": "intendedReceivingAddressHash",
                      "type": "bytes32"
                    },
                    {
                      "internalType": "int256",
                      "name": "spentAmount",
                      "type": "int256"
                    },
                    {
                      "internalType": "int256",
                      "name": "intendedSpentAmount",
                      "type": "int256"
                    },
                    {
                      "internalType": "int256",
                      "name": "receivedAmount",
                      "type": "int256"
                    },
                    {
                      "internalType": "int256",
                      "name": "intendedReceivedAmount",
                      "type": "int256"
                    },
                    {
                      "internalType": "bytes32",
                      "name": "standardPaymentReference",
                      "type": "bytes32"
                    },
                    {
                      "internalType": "bool",
                      "name": "oneToOne",
                      "type": "bool"
                    },
                    {
                      "internalType": "uint8",
                      "name": "status",
                      "type": "uint8"
                    }
                  ],
                  "internalType": "struct IPayment.ResponseBody",
                  "name": "responseBody",
                  "type": "tuple"
                }
              ],
              "internalType": "struct IPayment.Response",
              "name": "data",
              "type": "tuple"
            }
          ],
          "internalType": "struct IPayment.Proof",
          "name": "_payment",
          "type": "tuple"
        },
        {
          "internalType": "address",
          "name": "_agentVault",
          "type": "address"
        }
      ],
      "name": "confirmReturnFromCoreVault",
      "outputs": [],
      "stateMutability": "nonpayable",
      "type": "function"
    },
    {
      "inputs": [],
      "name": "coreVaultAvailableAmount",
      "outputs": [
        {
          "internalType": "uint256",
          "name": "_immediatelyAvailableUBA",
          "type": "uint256"
        },
        {
          "internalType": "uint256",
          "name": "_totalAvailableUBA",
          "type": "uint256"
        }
      ],
      "stateMutability": "view",
      "type": "function"
    },
    {
      "inputs": [
        {
          "internalType": "address",
          "name": "_agentVault",
          "type": "address"
        }
      ],
      "name": "maximumTransferToCoreVault",
      "outputs": [
        {
          "internalType": "uint256",
          "name": "_maximumTransferUBA",
          "type": "uint256"
        },
        {
          "internalType": "uint256",
          "name": "_minimumLeftAmountUBA",
          "type": "uint256"
        }
      ],
      "stateMutability": "view",
      "type": "function"
    },
    {
      "inputs": [
        {
          "internalType": "uint256",
          "name": "_lots",
          "type": "uint256"
        },
        {
          "internalType": "string",
          "name": "_redeemerUnderlyingAddress",
          "type": "string"
        }
      ],
      "name": "redeemFromCoreVault",
      "outputs": [],
      "stateMutability": "nonpayable",
      "type": "function"
    },
    {
      "inputs": [
        {
          "internalType": "address",
          "name": "_agentVault",
          "type": "address"
        },
        {
          "internalType": "uint256",
          "name": "_lots",
          "type": "uint256"
        }
      ],
      "name": "requestReturnFromCoreVault",
      "outputs": [],
      "stateMutability": "nonpayable",
      "type": "function"
    },
    {
      "inputs": [
        {
          "internalType": "address",
          "name": "_agentVault",
          "type": "address"
        },
        {
          "internalType": "uint256",
          "name": "_amountUBA",
          "type": "uint256"
        }
      ],
      "name": "transferToCoreVault",
      "outputs": [],
      "stateMutability": "nonpayable",
      "type": "function"
    }
  ],
  "bytecode": "0x6080604052348015600f57600080fd5b507f908500188c8f91f50d58dffac83eda18fc06d9da0208fc6b66c78a4c3fec74f4805460ff60401b191668010000000000000000179055614d33806100566000396000f3fe608060405234801561001057600080fd5b506004361061007d5760003560e01c8063687fea711161005b578063687fea71146100cb578063890a8340146100de5780639b70be1f146100f1578063cfffc0061461010457600080fd5b8063210db79c1461008257806332974aaf146100975780636286592e146100b8575b600080fd5b6100956100903660046140e0565b610117565b005b61009f61047e565b6040805192835260208301919091520160405180910390f35b6100956100c63660046140e0565b610491565b6100956100d936600461410c565b610771565b6100956100ec3660046141d0565b6109f7565b6100956100ff366004614259565b610c2f565b61009f610112366004614259565b610d69565b61011f610db2565b6101296001610de9565b610131610e93565b8161013b81610ecb565b600061014684610efa565b600c810154909150600080516020614cbe83398151915290600160601b90046001600160401b03161561018c576040516304e42fdb60e31b815260040160405180910390fd5b600061019783610f95565b9050600085116101ba57604051633999c45760e11b815260040160405180910390fd5b6001600484015460ff1660058111156101d5576101d5614276565b146101f35760405163aa2b63b360e01b815260040160405180910390fd5b846102008285600061103f565b101561021f5760405163d78c667760e01b815260040160405180910390fd5b6000610229611099565b90508086111561024c576040516329f5b0c760e21b815260040160405180910390fd5b6102546110e6565b600284018054600990610278908490600160481b90046001600160401b03166142a2565b82546101009290920a6001600160401b038181021990931691831602179091556002850154600c8701805467ffffffffffffffff60601b1916600160481b9092048316600160601b81029290921790819055909250600160a01b900416156102e2576102e26142c1565b60006102ed88611104565b600c870180546001600160401b03808416600160a01b0267ffffffffffffffff60a01b199092169190911790915560058801805492935083929091600091610337918591166142a2565b92506101000a8154816001600160401b0302191690836001600160401b03160217905550600061036f836001600160401b0316611133565b9050600061038461037f8461115d565b61118e565b8754604051631700b8c760e31b81529192506001600160a01b03169063b805c638906103be9060028c019086908690600190600401614394565b6020604051808303816000875af11580156103dd573d6000803e3d6000fd5b505050506040513d601f19601f8201168201806040525081019061040191906143ce565b50604080518381526001600160801b03831660208201526001600160401b038616916001600160a01b038e16917fbeb006f5c72be7811ac8a5314277e6fab21e6a2737d4119694735e810899079191015b60405180910390a350505050505050505061047a6001600080516020614cde83398151915255565b5050565b6000806104896111c4565b915091509091565b610499610db2565b6104a36001610de9565b6104ab610e93565b816104b581610ecb565b60006104c084610efa565b90506000600080516020614cbe83398151915290506003600483015460ff1660058111156104f0576104f0614276565b0361050e5760405163aa2b63b360e01b815260040160405180910390fd5b6000841161052e5760405162c6a3af60e61b815260040160405180910390fd5b6006820154600160401b9004600f0b61054685611391565b131561056557604051635857ecb760e01b815260040160405180910390fd5b600c82015464010000000090046001600160401b0316156105995760405163280b880360e21b815260040160405180910390fd5b60006105a4856113fb565b905060006105b48483600061142c565b5090506000816001600160401b0316116105e1576040516307bf15a960e11b815260040160405180910390fd5b60006105ec856115e3565b50905080826001600160401b031611156106195760405163d0a69bb360e01b815260040160405180910390fd5b835460408051633d083bf560e11b815290516000926001600160a01b031691637a1077ea91600480830192869291908290030181865afa158015610661573d6000803e3d6000fd5b505050506040513d6000823e601f3d908101601f19168201604052610689919081019061440b565b905060006106f460405180604001604052808c6001600160a01b03168152602001866001600160401b03168152508760010160009054906101000a90046001600160a01b03168460008060008c60000160149054906101000a90046001600160401b03166001611618565b600c880180546bffffffffffffffff0000000019166401000000006001600160401b038416021790559050600061072a8561115d565b9050816001600160401b03168b6001600160a01b03167f7720ffc529ed13201c71ca65a93771ecb026d4a7ea1a557116dfac60fafd9fb68360405161045291815260200190565b610779610db2565b6107836002610de9565b61078b610e93565b8061079581610ecb565b60006107a083610efa565b9050600080516020614cbe8339815191526107ba85611ae5565b600c820154600160601b90046001600160401b031660008190036107f157604051632d51cb7d60e11b815260040160405180910390fd5b81546040805163c9febdf560e01b815290516001600160a01b039092169163c9febdf5916004808201926020929091908290030181865afa15801561083a573d6000803e3d6000fd5b505050506040513d601f19601f8201168201806040525081019061085e91906143ce565b6101408701351461088257604051633eec3b2360e11b815260040160405180910390fd5b6003830154610180870135146108ab5760405163638e4f8160e01b815260040160405180910390fd5b6108bd816001600160401b0316611133565b610240870135146108e1576040516315e7425f60e31b815260040160405180910390fd5b61090b7fec7e8c1c441439dd40959777f4c577ea0cd42fcc1dbe59d2bd0f5d9c55df8dc187611b23565b600061091b610200880135611b31565b90506000610928826113fb565b9050600061094d86600c0160149054906101000a90046001600160401b031683611b83565b90506109598682611bb0565b6109638684611c7c565b61096c89611d2e565b61097586611d5c565b60006109808261115d565b9050846001600160401b0316896001600160a01b03167ff31c790716bd513f9122b4d1e80f9fce17cd414160d32271088b0c6b2af33e2586846040516109d0929190918252602082015260400190565b60405180910390a3505050505050505061047a6001600080516020614cde83398151915255565b6109ff610db2565b610a096001610de9565b610a11610e93565b600080516020614cbe8339815191526000610a2a611099565b905080841115610a4d576040516329f5b0c760e21b815260040160405180910390fd5b6002820154600090610a68906001600160401b031683611e0d565b905080851015610a8b576040516363fcf6e560e11b815260040160405180910390fd5b6000610a9686611e1c565b9050610aa23382611e5c565b6001840154600090610ac0908390600160b01b900461ffff16611ec4565b90506000610ad161037f8385614478565b9050610adb6110e6565b600287018054601190610aff908490600160881b90046001600160401b03166142a2565b92506101000a8154816001600160401b0302191690836001600160401b031602179055506000610b4e8760020160119054906101000a90046001600160401b03166001600160401b0316611ed3565b8754604051631700b8c760e31b81529192506001600160a01b03169063b805c63890610b85908b90859087906000906004016144b7565b6020604051808303816000875af1158015610ba4573d6000803e3d6000fd5b505050506040513d601f19601f82011682018060405250810190610bc891906143ce565b9050336001600160a01b03167f81390715ea13edf7069460e93980705ef2cd439f5c4a1a7c4fc1a323a2d4996b89838787604051610c0994939291906144ca565b60405180910390a25050505050505061047a6001600080516020614cde83398151915255565b610c37610db2565b610c416002610de9565b610c49610e93565b80610c5381610ecb565b6000610c5e83610efa565b600c810154909150600080516020614cbe83398151915290600160601b90046001600160401b03166000819003610ca857604051632d51cb7d60e11b815260040160405180910390fd5b815460405163a903532560e01b81526001600160a01b039091169063a903532590610cda9060028701906004016144f9565b600060405180830381600087803b158015610cf457600080fd5b505af1158015610d08573d6000803e3d6000fd5b50505050610d1583611d5c565b60405181906001600160a01b038716907f89413196dc66c2fb1b91c291e94b73b766a03f31219603ff31ef497ef202e93490600090a350505050610d666001600080516020614cde83398151915255565b50565b6000806000610d7784610efa565b9050600080610d85836115e3565b91509150610d9a610d9583611efd565b61115d565b9450610da8610d9582611efd565b9350505050915091565b600080516020614cbe83398151915280546001600160a01b0316610d66576040516356f9eaeb60e11b815260040160405180910390fd5b7fec7e8c1c441439dd40959777f4c577ea0cd42fcc1dbe59d2bd0f5d9c55df8dc654600080516020614c9e8339815191529060009042600160401b9091046001600160401b0316118015610e6d5750826003811115610e4a57610e4a614276565b6011830154600160901b900460ff166003811115610e6a57610e6a614276565b10155b90508015610e8e5760405163909b191760e01b815260040160405180910390fd5b505050565b600080516020614cde833981519152805460011901610ec557604051633ee5aeb560e01b815260040160405180910390fd5b60029055565b610edd610ed782610efa565b33611f65565b610d665760405163f6e2f99b60e01b815260040160405180910390fd5b604081901b68010000000000000000600160e01b03167f5bebac0595fee029d42bb673937f5f1cb81cf8641382bc17774635de9b7d79651860048101546000919060ff1682816005811115610f5157610f51614276565b14158015610f7157506005816005811115610f6e57610f6e614276565b14155b610f8e5760405163d68a46c560e01b815260040160405180910390fd5b5092915050565b6110006040805160c081019091526000606082018181526080830182905260a083019190915281908152604080516060810182526000808252602082810182905292820152910190815260408051606081018252600080825260208281018290529282015291015290565b600061100b83611fa6565b9050604051806060016040528061102185612063565b81526020018281526020016110368584612108565b90529392505050565b600080611051856000015185856122d7565b90506000611064866020015186866122d7565b90506000611077876040015187876122d7565b905061108c836110878484611e0d565b611e0d565b93505050505b9392505050565b6000806110a4612318565b905060006110b06111c4565b600d8401549092506001600160401b031690506110cc826113fb565b6110d69190614522565b6001600160401b03169250505090565b60006110f46103e843614550565b6110ff906001614564565b905090565b60008061110f612318565b600d8101549091506110929061112e906001600160401b031685614577565b611efd565b60006001600160401b0382111561114c5761114c6142c1565b5067119094149990400160c21b1790565b600080611168612318565b600c810154909150611092906001600160401b03600160901b9091048116908516614577565b60006001600160801b038211156111c05760405162461bcd60e51b81526004016111b79061458e565b60405180910390fd5b5090565b60008080600080516020614cbe833981519152905060008160000160009054906101000a90046001600160a01b03166001600160a01b03166346fcff4c6040518163ffffffff1660e01b8152600401602060405180830381865afa158015611230573d6000803e3d6000fd5b505050506040513d601f19601f8201168201806040525081019061125491906145ec565b6001600160801b0316905060008260000160009054906101000a90046001600160a01b03166001600160a01b031663f0ec77fa6040518163ffffffff1660e01b8152600401602060405180830381865afa1580156112b6573d6000803e3d6000fd5b505050506040513d601f19601f820116820180604052508101906112da91906145ec565b6001600160801b0316905060006112ef61233c565b845460408051631214493d60e11b815290516001600160a01b0390921691632428927a916004808201926020929091908290030181865afa158015611338573d6000803e3d6000fd5b505050506040513d601f19601f8201168201806040525081019061135c91906143ce565b6113669190614564565b905061137283826123d1565b95506113876113818385614564565b826123d1565b9450505050509091565b60006001600160ff1b038211156111c05760405162461bcd60e51b815260206004820152602860248201527f53616665436173743a2076616c756520646f65736e27742066697420696e2061604482015267371034b73a191a9b60c11b60648201526084016111b7565b600080611406612318565b600c8101549091506110929061112e90600160901b90046001600160401b031685614607565b600080600080516020614c9e83398151915281611447612318565b600f0154600160801b900461ffff1690506000611462612318565b600d01546001600160401b0316905060005b82811080156114945750876001600160401b0316866001600160401b0316105b1561157257600060088501816114a98c6123eb565b6001600160a01b0316815260208101919091526040016000908120546001600160401b031691508190036114dd5750611572565b6001600160401b038181166000908152600787016020526040812060068d0154815491936115169291811691600160a01b9004166142a2565b9050611522858261461b565b61152c9082614649565b9050600061154361153d8b8e614649565b83611b83565b905061154f8482612413565b611559818b6142a2565b995050505050808061156a90614668565b915050611474565b506000611595611582878a614649565b60068b01546001600160401b0316611b83565b90506001600160401b038116156115bc576115b081876142a2565b95506115bc89826125ea565b86156115cc576115cc8987612612565b6115d58661115d565b945050505050935093915050565b6000806115ef8361265e565b600584015490915061161190600160401b90046001600160401b0316826123d1565b9150915091565b60006001600160401b038416158061163857506001600160a01b03851615155b61165557604051632a436fa560e21b815260040160405180910390fd5b8851600080516020614c9e8339815191529060009061167390610efa565b905060808951106116975760405163599ec1c160e01b815260040160405180910390fd5b885160208a0120600382015481036116c2576040516302908b3160e11b815260040160405180910390fd5b60006116d461037f8e6020015161115d565b90506116df8a6126b0565b94506117796040805161026081018252600080825260208201819052918101829052606081018290526080810182905260a0810182905260c0810182905260e08101829052610100810182905261012081018290529061014082019081526000602082018190526040820181905260608083018290526080830182905260a0830182905260c083015260e082018190526101009091015290565b8281526001600160801b0382166020820152600f8501546201000090046001600160401b031660608201528d516117b09089612745565b6001600160401b0390811660a08401521660808201526117cf42611efd565b6001600160401b0316610100820152866118155761181061037f6117f1612318565b600e01546001600160801b03851690600160401b900461ffff16611ec4565b611818565b60005b6001600160801b031660408201526001600160a01b038d811660e08301528e511661012082015260208e01516001600160401b031660c082015260016101408201819052508a15156101608201526001600160a01b03808b166101808301526001600160401b03808b166101a084015261020083018e9052881515610220840152600c86015461ffff600160e01b909104166102408401528781166000908152600a880160209081526040918290208551815590850151918501516001600160801b03908116600160801b9081029382169390931760018301556060860151600283018054608089015160a08a015160c08b01518916600160c01b026001600160c01b03918a1690980216908816600160401b026001600160801b0319929092169388169390931717909216179290921790915560e0840151600382018054610100870151909416600160a01b9081026001600160e01b03199095169286169290921793909317909255610120840151600482018054919094166001600160a01b0319821681178555610140860151869593949093926001600160a81b031916909117908360068111156119ce576119ce614276565b021790555061016082015160048201805460ff60a81b1916600160a81b921515929092029190911790556101808201516005820180546101a08501516001600160a01b039093166001600160e01b031990911617600160a01b6001600160401b03938416021790556101c08301516006830180546101e08601519284166001600160801b031990911617600160401b92909316919091029190911790556102008201516007820190611a8090826146cf565b50610220820151600890910180546102409093015161ffff166101000262ffff00199215159290921662ffffff199093169290921717905560208e0151611ac99085908d61285d565b611ad481878e612901565b505050505098975050505050505050565b6000611af96102a08301610280840161479e565b60ff1614611b1a576040516307a4ced160e51b815260040160405180910390fd5b610d66816129bb565b61047a8260a0830135612a89565b6000808212156111c05760405162461bcd60e51b815260206004820181905260248201527f53616665436173743a2076616c7565206d75737420626520706f73697469766560448201526064016111b7565b6000816001600160401b0316836001600160401b03161115611ba55781611ba7565b825b90505b92915050565b808260050160088282829054906101000a90046001600160401b0316611bd691906142a2565b92506101000a8154816001600160401b0302191690836001600160401b031602179055506000611c04612318565b6006840154909150600090611c239084906001600160401b03166142a2565b600d830154909150600090611c41906001600160401b03168361461b565b90506000611c4f8284614649565b90506001600160401b03811615611c6a57611c6a8682612ac9565b611c748683612c6c565b505050505050565b611c8d611c8882611391565b612d02565b600683018054600890611cab908490600160401b9004600f0b6147b9565b92506101000a8154816001600160801b030219169083600f0b6001600160801b03160217905550611cdb826123eb565b6006830154604051600160401b909104600f0b81526001600160a01b0391909116907f73da6891cb86668451f612d2555e88650888a0133a30b1d226b2d1f955e62bca9060200160405180910390a25050565b610d66611d436101208301610100840161480f565b611d556101408401610120850161480f565b6001612d2b565b600c810154600160601b90046001600160401b031615801590611d925750600c810154600160a01b90046001600160401b031615155b611d9e57611d9e6142c1565b600c8101546005820180546001600160401b03600160a01b909304831692600091611dcb91859116614649565b82546001600160401b039182166101009390930a928302919092021990911617905550600c0180546fffffffffffffffffffffffffffffffff60601b19169055565b6000818310611ba55781611ba7565b600080611e27612318565b600c810154600d8201549192506001600160401b03600160901b909104811691611e52911685614577565b6110929190614577565b611e64612eb2565b604051632770a7eb60e21b81526001600160a01b038481166004830152602482018490529190911690639dc29fac90604401600060405180830381600087803b158015611eb057600080fd5b505af1158015611c74573d6000803e3d6000fd5b6000611ba78383612710612ed0565b60006001600160401b03821115611eec57611eec6142c1565b5067464250526641000560c01b1790565b60006001600160401b038211156111c05760405162461bcd60e51b815260206004820152602660248201527f53616665436173743a2076616c756520646f65736e27742066697420696e203660448201526534206269747360d01b60648201526084016111b7565b60018201546000906001600160a01b0383811691161480611ba75750611f8a83612fd4565b6001600160a01b0316826001600160a01b031614905092915050565b611fcb6040805160608101909152806000815260200160008152602001600081525090565b6000611fd68361304d565b604080516060810182526001815285548251634ac8eb5f60e01b8152925193945090926020808501936001600160a01b0390931692634ac8eb5f92600480830193928290030181865afa158015612031573d6000803e3d6000fd5b505050506040513d601f19601f8201168201806040525081019061205591906143ce565b81526020016110368361309c565b6120886040805160608101909152806000815260200160008152602001600081525090565b6000612093836130b2565b60408051606081019091526000815281549192509060208201906001600160a01b03166370a082316120c4876123eb565b6040516001600160e01b031960e084901b1681526001600160a01b039091166004820152602401602060405180830381865afa158015612031573d6000803e3d6000fd5b61212d6040805160608101909152806000815260200160008152602001600081525090565b8254604080516332f7ce0b60e21b815290516000926001600160a01b03169163cbdf382c9160048083019260209291908290030181865afa158015612176573d6000803e3d6000fd5b505050506040513d601f19601f8201168201806040525081019061219a919061482a565b90506000816001600160a01b03166370a082316121b6876123eb565b6040516001600160e01b031960e084901b1681526001600160a01b039091166004820152602401602060405180830381865afa1580156121fa573d6000803e3d6000fd5b505050506040513d601f19601f8201168201806040525081019061221e91906143ce565b90506000826001600160a01b03166318160ddd6040518163ffffffff1660e01b8152600401602060405180830381865afa158015612260573d6000803e3d6000fd5b505050506040513d601f19601f8201168201806040525081019061228491906143ce565b90506000856020015160000361229e5785604001516122b3565b602086015160408701516122b3918490612ed0565b60408051606081018252600281526020810195909552840152509095945050505050565b6000806122e485856130e9565b905060006122f386868661310e565b90508060000361230457600061230e565b61230e8183614607565b9695505050505050565b7f4f24f5c433db0962dac0d2c8b84197a6e6c7cc4e5d9ebe1916a1b6193da2f33a90565b600080516020614cbe8339815191528054604080516385b4bb5360e01b815290516000939284926001600160a01b03909116916385b4bb53916004808201926080929091908290030181865afa15801561239a573d6000803e3d6000fd5b505050506040513d601f19601f820116820180604052508101906123be9190614847565b6001600160801b03169695505050505050565b60008183116123e1576000611ba7565b611ba78284614478565b7f5bebac0595fee029d42bb673937f5f1cb81cf8641382bc17774635de9b7d79651860401c90565b6001600160401b03821660009081527fec7e8c1c441439dd40959777f4c577ea0cd42fcc1dbe59d2bd0f5d9c55df8dbd602081905260408220805491929091612464906001600160a01b0316610efa565b90506000612470612318565b600d0154600683015484546001600160401b03928316935060009288926124a39290821691600160a01b909104166142a2565b6124ad9190614649565b905060006124bb838361461b565b905060006124c98284614649565b9050806001600160401b0316600003612533576124e6878a613141565b886001600160401b03166124f9866123eb565b6001600160a01b03167fb7f65e70a51658e24800516a5dc90e2dd65176e18381adda77f58e2044482b1960405160405180910390a36125d5565b85546001600160401b03828116600160a01b90920416146125d557855467ffffffffffffffff60a01b1916600160a01b6001600160401b03831602178655600061257c8261115d565b9050896001600160401b0316612591876123eb565b6001600160a01b03167f9d2e72c50be7927e999d37329649af37a863df77bcb25361699ce021d3d7475d836040516125cb91815260200190565b60405180910390a3505b6125df8583612c6c565b505050505050505050565b60068201546000906126069083906001600160401b0316614649565b9050610e8e8382612c6c565b6005820154612632908290600160401b90046001600160401b0316614649565b8260050160086101000a8154816001600160401b0302191690836001600160401b031602179055505050565b60008061266a83610f95565b9050600061267c84836000015161351b565b9050600061268e85846020015161351b565b905060006126a086856040015161351b565b905061230e836110878484611e0d565b6000600080516020614c9e833981519152816126ca6110e6565b600e8301546126e99190600160401b90046001600160401b03166142a2565b90506000846126f95760006126fc565b60015b60ff1660011961270d8460016142a2565b161790508083600e0160086101000a8154816001600160401b0302191690836001600160401b03160217905550809350505050919050565b600080600080516020614c9e83398151915281612760612318565b905060008561276e88613590565b600f850154600160901b90046001600160401b031661278c42611efd565b6127969190614649565b6127a091906142a2565b6127aa91906142a2565b600c8301549091506000906127de9063ffffffff166127d46001600160401b0385166103e8614577565b61112e9190614607565b600d840154600f8601549192506001600160401b03600160981b909104811691612810918491620100009004166142a2565b61281a91906142a2565b600e840154600f8601549197506001600160401b0390811691612846918591600160501b9004166142a2565b61285091906142a2565b9450505050509250929050565b818360050160108282829054906101000a90046001600160401b031661288391906142a2565b92506101000a8154816001600160401b0302191690836001600160401b03160217905550806128f757818360050160188282829054906101000a90046001600160401b03166128d291906142a2565b92506101000a8154816001600160401b0302191690836001600160401b031602179055505b610e8e8383612612565b816001600160401b03168360e001516001600160a01b03168461012001516001600160a01b03167f8cbbd73a8d1b8b02a53c4c3b0ee34b472fe3099cc19bcfb57f1aae09e8a9847e848760200151886040015189606001518a608001518b60a001516129758c6001600160401b0316613648565b8d6101800151633b9aca008f6101a001516001600160401b03166129999190614577565b6040516129ae9998979695949392919061489b565b60405180910390a4505050565b60006129c5612318565b6008810154600b8201549192506001600160a01b0316906040840135146129ff5760405163057f3fa760e51b815260040160405180910390fd5b60405163a7a3797560e01b81526001600160a01b0382169063a7a3797590612a2b908690600401614a54565b602060405180830381865afa158015612a48573d6000803e3d6000fd5b505050506040513d601f19601f82011682018060405250810190612a6c9190614ae9565b610e8e576040516316c32dbb60e21b815260040160405180910390fd5b60008181526020839052604090205415612ab6576040516318dce79f60e01b815260040160405180910390fd5b6000818152602092909252604090912055565b600080516020614c9e8339815191526001600160401b038216600003612aee57505050565b6000612af9846123eb565b6009830154600160401b90046001600160401b031660008181526007850160205260409020805492935090916001600160a01b03808516911603612bf657805485908290601490612b5b908490600160a01b90046001600160401b03166142a2565b92506101000a8154816001600160401b0302191690836001600160401b031602179055506000612ba18260000160149054906101000a90046001600160401b031661115d565b9050826001600160401b0316846001600160a01b03167f9d2e72c50be7927e999d37329649af37a863df77bcb25361699ce021d3d7475d83604051612be891815260200190565b60405180910390a350611c74565b6000612c06600786018588613672565b90506000612c138761115d565b9050816001600160401b0316856001600160a01b03167f631f8f2039090539b2ea4ef7dc567f7f1939ef4dd3e790b1ca7bc548a1fada5883604051612c5a91815260200190565b60405180910390a35050505050505050565b60068201546001600160401b03808316911603612c87575050565b60068201805467ffffffffffffffff19166001600160401b0383161790556000612cb08261115d565b9050612cbb836123eb565b6001600160a01b03167fa3db2bc927901a1d3ba09ad51d84609457b98443be9132a0a936a47c5a1081b582604051612cf591815260200190565b60405180910390a2505050565b80600f81900b8114612d265760405162461bcd60e51b81526004016111b79061458e565b919050565b600080516020614c9e833981519152600080612d4784876142a2565b600f8401549091506001600160401b036201000090910481169082161115612d9357600f8301805469ffffffffffffffff00001916620100006001600160401b03841602179055600191505b60006103e8612da0612318565b600c0154612db49063ffffffff1687614b06565b612dbe9190614522565b612dc890876142a2565b600f8501546001600160401b039182169250600160501b900416811115612e1f57612df281611efd565b84600f01600a6101000a8154816001600160401b0302191690836001600160401b03160217905550600192505b8215612ea957612e2e42611efd565b600f8501805467ffffffffffffffff60901b1916600160901b6001600160401b039384160217908190556040805162010000830484168152600160501b9092049092166020820152428183015290517f2078549e3faec355556787458d744ad19765bbb953b3f71801333f29abdce1c8916060908290030190a15b50505050505050565b600080612ebd612318565b600101546001600160a01b031692915050565b6000808211612ef2576040516323d359a360e01b815260040160405180910390fd5b83600003612f0257506000611092565b83830283858281612f1557612f1561450c565b0403612f3357828181612f2a57612f2a61450c565b04915050611092565b506000612f408386614607565b90506000612f4e8487614550565b90506000612f5c8587614607565b90506000612f6a8688614550565b905085612f778285614577565b612f819190614607565b612f8b8385614577565b612f958387614577565b88612fa08689614577565b612faa9190614577565b612fb49190614564565b612fbe9190614564565b612fc89190614564565b98975050505050505050565b6000612fde613a7b565b6001830154604051631f86345d60e31b81526001600160a01b03918216600482015291169063fc31a2e890602401602060405180830381865afa158015613029573d6000803e3d6000fd5b505050506040513d601f19601f82011682018060405250810190611baa919061482a565b600080600080516020614c9e833981519152600484015481549192508291630100000090910461ffff1690811061308657613086614b28565b9060005260206000209060040201915050919050565b60006130a9826000613a99565b50909392505050565b600080600080516020614c9e83398151915260048401548154919250829161010090910461ffff1690811061308657613086614b28565b6000806130f68484613c58565b90506131068460200151826123d1565b949350505050565b600080613119612318565b600d81015490915061313890869086906001600160401b031686613d88565b95945050505050565b6001600160401b038116600090815260208390526040902080546001600160a01b0316613170576131706142c1565b80546001600160a01b031660009081526001808501602052604082209083015490916001600160401b0390911690036131f65760028401546001600160401b038481169116146131c2576131c26142c1565b6001820154600285018054600160401b9092046001600160401b031667ffffffffffffffff1990921691909117905561325e565b60028401546001600160401b0390811690841603613216576132166142c1565b6001828101546001600160401b038082166000908152602088905260409020909201805467ffffffffffffffff60401b1916600160401b928390049093169091029190911790555b6001820154600160401b90046001600160401b03166000036132d55760028401546001600160401b03848116600160401b90920416146132a0576132a06142c1565b600182015460028501805467ffffffffffffffff60401b19166001600160401b03909216600160401b0291909117905561333d565b60028401546001600160401b03600160401b9091048116908416036132fc576132fc6142c1565b600180830154600160401b81046001600160401b039081166000908152602088905260409020909201805467ffffffffffffffff1916929091169190911790555b6001820154600160801b90046001600160401b03166000036133a25780546001600160401b03848116911614613375576133756142c1565b60018201548154600160c01b9091046001600160401b031667ffffffffffffffff19909116178155613408565b80546001600160401b03908116908416036133bf576133bf6142c1565b6001828101546001600160401b03600160801b82048116600090815260208890526040902090920180546001600160c01b0316600160c01b928390049093169091029190911790555b6001820154600160c01b90046001600160401b031660000361347b5780546001600160401b03848116600160401b9092041614613447576134476142c1565b6001820154815467ffffffffffffffff60401b1916600160801b9091046001600160401b0316600160401b021781556134ed565b80546001600160401b03600160401b90910481169084160361349f5761349f6142c1565b6001828101546001600160401b03600160c01b820481166000908152602088905260409020909201805467ffffffffffffffff60801b1916600160801b928390049093169091029190911790555b50506001600160401b031660009081526020919091526040812080546001600160e01b031916815560010155565b600080600080516020614cbe8339815191529050600061353f858560000151613e0c565b915050600061355685602001518660400151613ed8565b905060006135678261271085612ed0565b6001850154909150613585908290600160c01b900461ffff16611ec4565b979650505050505050565b6001600160a01b03811660009081527f1309a575a1ebd5e5ca64d58e63b864f1d06aed3e31a021b0eabae653c215fb07602052604081207f1309a575a1ebd5e5ca64d58e63b864f1d06aed3e31a021b0eabae653c215fb0690826135f342611efd565b83548354919250600091613613916001600160401b0390811691166142a2565b905061361f8183613ef1565b835467ffffffffffffffff19166001600160401b0391909116908117845561230e908390614649565b60006001600160401b03821115613661576136616142c1565b5067232128293320800160c11b1790565b6001600160a01b038216600090815260018401602052604081206002850180548391906010906136b190600160801b90046001600160401b0316614b3e565b91906101000a8154816001600160401b0302191690836001600160401b03160217905590506040518060c00160405280866001600160a01b03168152602001856001600160401b031681526020018760020160089054906101000a90046001600160401b03166001600160401b0316815260200160006001600160401b031681526020018360000160089054906101000a90046001600160401b03166001600160401b0316815260200160006001600160401b0316815250866000016000836001600160401b03166001600160401b0316815260200190815260200160002060008201518160000160006101000a8154816001600160a01b0302191690836001600160a01b0316021790555060208201518160000160146101000a8154816001600160401b0302191690836001600160401b0316021790555060408201518160010160006101000a8154816001600160401b0302191690836001600160401b0316021790555060608201518160010160086101000a8154816001600160401b0302191690836001600160401b0316021790555060808201518160010160106101000a8154816001600160401b0302191690836001600160401b0316021790555060a08201518160010160186101000a8154816001600160401b0302191690836001600160401b031602179055509050508560020160009054906101000a90046001600160401b03166001600160401b031660000361390e576002860154600160401b90046001600160401b0316156138eb576138eb6142c1565b60028601805467ffffffffffffffff19166001600160401b038316179055613976565b6002860154600160401b90046001600160401b0316600003613932576139326142c1565b6002860154600160401b908190046001600160401b039081166000908152602089905260409020600101805467ffffffffffffffff60401b19169184169092021790555b6002860180546001600160401b03808416600160401b0267ffffffffffffffff60401b19909216919091179091558254166000036139ec578154600160401b90046001600160401b0316156139cd576139cd6142c1565b815467ffffffffffffffff19166001600160401b038216178255613a4f565b8154600160401b90046001600160401b0316600003613a0d57613a0d6142c1565b81546001600160401b03600160401b909104811660009081526020889052604090206001018054918316600160c01b026001600160c01b039092169190911790555b815467ffffffffffffffff60401b1916600160401b6001600160401b0383160217909155949350505050565b600080613a86612318565b600701546001600160a01b031692915050565b600080600080600080613b38886001018054613ab4906142d7565b80601f0160208091040260200160405190810160405280929190818152602001828054613ae0906142d7565b8015613b2d5780601f10613b0257610100808354040283529160200191613b2d565b820191906000526020600020905b815481529060010190602001808311613b1057829003601f168201915b505050505088613f13565b8a549295509093509150600160f01b900460ff1615613b7f578754600090613b6e90600160a81b900460ff166001838786613fde565b9650919450849350613c5192505050565b6000806000613c1a8b6002018054613b96906142d7565b80601f0160208091040260200160405190810160405280929190818152602001828054613bc2906142d7565b8015613c0f5780601f10613be457610100808354040283529160200191613c0f565b820191906000526020600020905b815481529060010190602001808311613bf257829003601f168201915b50505050508b613f13565b8d549295509093509150600090613c3e90600160a81b900460ff1685848a89613fde565b9950949750909550613c51945050505050565b9250925092565b6000806000613c6b848660000151613e0c565b60058601549193509150600090613c94906001600160401b03600160401b820481169116614564565b90506000613cb084613caa848a60400151614055565b90611ec4565b90506000600188516002811115613cc957613cc9614276565b14613ce8576005870154600160801b90046001600160401b0316613cfe565b6005870154600160c01b90046001600160401b03165b90506000613d1d85613caa846001600160401b03168c60400151614055565b9050600060018a516002811115613d3657613d36614276565b03613d42576000613d5a565b8951613d4f908a9061406f565b546001600160801b03165b6001600160801b0316905080613d708386614564565b613d7a9190614564565b9a9950505050505050505050565b60008082613d97576000613dc0565b6004850154613dc09061ffff600160581b8204811691613caa918891600160481b900416611ec4565b90506000613dce8286614564565b90506000613de0828960400151614055565b90506000613df2888a60000151613e0c565b509050613dff8282611ec4565b9998505050505050505050565b6000806002836002811115613e2357613e23614276565b03613e50576000613e32612318565b600c0154640100000000900463ffffffff169250829150613ed19050565b6001836002811115613e6457613e64614276565b03613e9f57613e728461304d565b60030154600485015463ffffffff9182169250613e9891600160881b90910416826140bc565b9150613ed1565b613ea8846130b2565b60030154600485015463ffffffff9182169250613ece91600160681b90910416826140bc565b91505b9250929050565b6000611ba7613ee96009600a614c50565b849084612ed0565b6000816001600160401b0316836001600160401b03161015611ba55781611ba7565b600080600080613f21612318565b600a8101549091506001600160a01b03168515613fb25760405163e4a0a55b60e01b81526001600160a01b0382169063e4a0a55b90613f64908a90600401614c5c565b606060405180830381865afa158015613f81573d6000803e3d6000fd5b505050506040513d601f19601f82011682018060405250810190613fa59190614c6f565b9450945094505050613c51565b60405163524f388960e01b81526001600160a01b0382169063524f388990613f64908a90600401614c5c565b600080613fe9612318565b905060006009613ff9878a614564565b6140039190614564565b600a830154909150600090614023908690600160a81b900460ff16614564565b905080821015614035576140356142c1565b613dff6140428284614478565b61404d90600a614c50565b87908a612ed0565b6000611ba7826140676009600a614c50565b859190612ed0565b6000600182600281111561408557614085614276565b03614092576140926142c1565b60008260028111156140a6576140a6614276565b146140b45782600901611ba7565b505060080190565b6000818311611ba55781611ba7565b6001600160a01b0381168114610d6657600080fd5b600080604083850312156140f357600080fd5b82356140fe816140cb565b946020939093013593505050565b6000806040838503121561411f57600080fd5b82356001600160401b0381111561413557600080fd5b83016102a0818603121561414857600080fd5b91506020830135614158816140cb565b809150509250929050565b634e487b7160e01b600052604160045260246000fd5b604051601f8201601f191681016001600160401b03811182821017156141a1576141a1614163565b604052919050565b60006001600160401b038211156141c2576141c2614163565b50601f01601f191660200190565b600080604083850312156141e357600080fd5b8235915060208301356001600160401b0381111561420057600080fd5b8301601f8101851361421157600080fd5b803561422461421f826141a9565b614179565b81815286602083850101111561423957600080fd5b816020840160208301376000602083830101528093505050509250929050565b60006020828403121561426b57600080fd5b8135611092816140cb565b634e487b7160e01b600052602160045260246000fd5b634e487b7160e01b600052601160045260246000fd5b6001600160401b038181168382160190811115611baa57611baa61428c565b634e487b7160e01b600052600160045260246000fd5b600181811c908216806142eb57607f821691505b60208210810361430b57634e487b7160e01b600052602260045260246000fd5b50919050565b6000815461431e816142d7565b80855260018216801561433857600181146143545761438b565b60ff1983166020870152602082151560051b870101935061438b565b84600052602060002060005b838110156143825781546020828a010152600182019150602081019050614360565b87016020019450505b50505092915050565b6080815260006143a76080830187614311565b6020830195909552506001600160801b039290921660408301521515606090910152919050565b6000602082840312156143e057600080fd5b5051919050565b60005b838110156144025781810151838201526020016143ea565b50506000910152565b60006020828403121561441d57600080fd5b81516001600160401b0381111561443357600080fd5b8201601f8101841361444457600080fd5b805161445261421f826141a9565b81815285602083850101111561446757600080fd5b6131388260208301602086016143e7565b81810381811115611baa57611baa61428c565b600081518084526144a38160208601602086016143e7565b601f01601f19169290920160200192915050565b6080815260006143a7608083018761448b565b6080815260006144dd608083018761448b565b6020830195909552506040810192909252606090910152919050565b602081526000611ba76020830184614311565b634e487b7160e01b600052601260045260246000fd5b60006001600160401b0383168061453b5761453b61450c565b806001600160401b0384160491505092915050565b60008261455f5761455f61450c565b500690565b80820180821115611baa57611baa61428c565b8082028115828204841417611baa57611baa61428c565b60208082526027908201527f53616665436173743a2076616c756520646f65736e27742066697420696e20316040820152663238206269747360c81b606082015260800190565b80516001600160801b0381168114612d2657600080fd5b6000602082840312156145fe57600080fd5b611ba7826145d5565b6000826146165761461661450c565b500490565b60006001600160401b038316806146345761463461450c565b806001600160401b0384160691505092915050565b6001600160401b038281168282160390811115611baa57611baa61428c565b60006001820161467a5761467a61428c565b5060010190565b601f821115610e8e57806000526020600020601f840160051c810160208510156146a85750805b601f840160051c820191505b818110156146c857600081556001016146b4565b5050505050565b81516001600160401b038111156146e8576146e8614163565b6146fc816146f684546142d7565b84614681565b6020601f82116001811461473057600083156147185750848201515b600019600385901b1c1916600184901b1784556146c8565b600084815260208120601f198516915b828110156147605787850151825560209485019460019092019101614740565b508482101561477e5786840151600019600387901b60f8161c191681555b50505050600190811b01905550565b803560ff81168114612d2657600080fd5b6000602082840312156147b057600080fd5b611ba78261478d565b600f81810b9083900b016f7fffffffffffffffffffffffffffffff81136f7fffffffffffffffffffffffffffffff1982121715611baa57611baa61428c565b80356001600160401b0381168114612d2657600080fd5b60006020828403121561482157600080fd5b611ba7826147f8565b60006020828403121561483c57600080fd5b8151611092816140cb565b6000806000806080858703121561485d57600080fd5b614866856145d5565b9350614874602086016145d5565b9250614882604086016145d5565b9150614890606086016145d5565b905092959194509250565b610120815260006148b061012083018c61448b565b6001600160801b039a8b1660208401529890991660408201526001600160401b03968716606082015294861660808601529290941660a084015260c08301526001600160a01b0390921660e0820152610100015292915050565b8015158114610d6657600080fd5b8035612d268161490a565b80358252602080820135908301526001600160401b03614945604083016147f8565b1660408301526001600160401b0361495f606083016147f8565b1660608301526080818101359083015260a0808201359083015260c080820135908301526149a460e0808401906149979084016147f8565b6001600160401b03169052565b6149b161010082016147f8565b6001600160401b031661010083015261012081810135908301526101408082013590830152610160808201359083015261018080820135908301526101a080820135908301526101c080820135908301526101e0808201359083015261020080820135908301526102208082013590830152614a306102408201614918565b1515610240830152614a45610260820161478d565b60ff8116610260840152505050565b6020815260008235601e19843603018112614a6e57600080fd5b83016020810190356001600160401b03811115614a8a57600080fd5b8060051b803603831315614a9d57600080fd5b6102a060208601526102c085018290526001600160fb1b03821115614ac157600080fd5b80836102e0870137614ad96040860160208801614923565b939093016102e001949350505050565b600060208284031215614afb57600080fd5b81516110928161490a565b6001600160401b038181168382160290811690818114610f8e57610f8e61428c565b634e487b7160e01b600052603260045260246000fd5b60006001600160401b0382166001600160401b038103614b6057614b6061428c565b60010192915050565b6001815b6001841115614ba457808504811115614b8857614b8861428c565b6001841615614b9657908102905b60019390931c928002614b6d565b935093915050565b600082614bbb57506001611baa565b81614bc857506000611baa565b8160018114614bde5760028114614be857614c04565b6001915050611baa565b60ff841115614bf957614bf961428c565b50506001821b611baa565b5060208310610133831016604e8410600b8410161715614c27575081810a611baa565b614c346000198484614b69565b8060001904821115614c4857614c4861428c565b029392505050565b6000611ba78383614bac565b602081526000611ba7602083018461448b565b600080600060608486031215614c8457600080fd5b505081516020830151604090930151909492935091905056feec7e8c1c441439dd40959777f4c577ea0cd42fcc1dbe59d2bd0f5d9c55df8db6908500188c8f91f50d58dffac83eda18fc06d9da0208fc6b66c78a4c3fec74f20cd2207518cd3e5213e2c6dbe63d55b60aa893c194a427b7d7f1600408fd5bdea26469706673582212206f20ee719659ec2ed15f782a99b95f76d04e15bfc1f6884bde881240195a7df364736f6c634300081b0033",
  "linkReferences": {},
  "deployedLinkReferences": {}
}