{
  "_format": "hh-sol-artifact-1",
  "contractName": "CoreVaultSettingsFacet",
  "sourceName": "contracts/assetManager/facets/CoreVaultSettingsFacet.sol",
  "abi": [
    {
      "inputs": [],
      "stateMutability": "nonpayable",
      "type": "constructor"
    },
    {
      "anonymous": false,
      "inputs": [
        {
          "indexed": false,
          "internalType": "string",
          "name": "name",
          "type": "string"
        },
        {
          "indexed": false,
          "internalType": "address",
          "name": "value",
          "type": "address"
        }
      ],
      "name": "ContractChanged",
      "type": "event"
    },
    {
      "anonymous": false,
      "inputs": [
        {
          "indexed": false,
          "internalType": "bytes",
          "name": "encodedCall",
          "type": "bytes"
        },
        {
          "indexed": false,
          "internalType": "bytes32",
          "name": "encodedCallHash",
          "type": "bytes32"
        },
        {
          "indexed": false,
          "internalType": "uint256",
          "name": "allowedAfterTimestamp",
          "type": "uint256"
        }
      ],
      "name": "GovernanceCallTimelocked",
      "type": "event"
    },
    {
      "anonymous": false,
      "inputs": [
        {
          "indexed": false,
          "internalType": "address",
          "name": "initialGovernance",
          "type": "address"
        }
      ],
      "name": "GovernanceInitialised",
      "type": "event"
    },
    {
      "anonymous": false,
      "inputs": [
        {
          "indexed": false,
          "internalType": "address",
          "name": "governanceSettings",
          "type": "address"
        }
      ],
      "name": "GovernedProductionModeEntered",
      "type": "event"
    },
    {
      "anonymous": false,
      "inputs": [
        {
          "indexed": false,
          "internalType": "string",
          "name": "name",
          "type": "string"
        },
        {
          "indexed": false,
          "internalType": "uint256",
          "name": "value",
          "type": "uint256"
        }
      ],
      "name": "SettingChanged",
      "type": "event"
    },
    {
      "anonymous": false,
      "inputs": [
        {
          "indexed": false,
          "internalType": "bytes32",
          "name": "encodedCallHash",
          "type": "bytes32"
        }
      ],
      "name": "TimelockedGovernanceCallCanceled",
      "type": "event"
    },
    {
      "anonymous": false,
      "inputs": [
        {
          "indexed": false,
          "internalType": "bytes32",
          "name": "encodedCallHash",
          "type": "bytes32"
        }
      ],
      "name": "TimelockedGovernanceCallExecuted",
      "type": "event"
    },
    {
      "inputs": [
        {
          "internalType": "bytes",
          "name": "_encodedCall",
          "type": "bytes"
        }
      ],
      "name": "cancelGovernanceCall",
      "outputs": [],
      "stateMutability": "nonpayable",
      "type": "function"
    },
    {
      "inputs": [
        {
          "internalType": "bytes",
          "name": "_encodedCall",
          "type": "bytes"
        }
      ],
      "name": "executeGovernanceCall",
      "outputs": [],
      "stateMutability": "nonpayable",
      "type": "function"
    },
    {
      "inputs": [],
      "name": "getCoreVaultManager",
      "outputs": [
        {
          "internalType": "address",
          "name": "",
          "type": "address"
        }
      ],
      "stateMutability": "view",
      "type": "function"
    },
    {
      "inputs": [],
      "name": "getCoreVaultMinimumAmountLeftBIPS",
      "outputs": [
        {
          "internalType": "uint256",
          "name": "",
          "type": "uint256"
        }
      ],
      "stateMutability": "view",
      "type": "function"
    },
    {
      "inputs": [],
      "name": "getCoreVaultMinimumRedeemLots",
      "outputs": [
        {
          "internalType": "uint256",
          "name": "",
          "type": "uint256"
        }
      ],
      "stateMutability": "view",
      "type": "function"
    },
    {
      "inputs": [],
      "name": "getCoreVaultNativeAddress",
      "outputs": [
        {
          "internalType": "address",
          "name": "",
          "type": "address"
        }
      ],
      "stateMutability": "view",
      "type": "function"
    },
    {
      "inputs": [],
      "name": "getCoreVaultRedemptionFeeBIPS",
      "outputs": [
        {
          "internalType": "uint256",
          "name": "",
          "type": "uint256"
        }
      ],
      "stateMutability": "view",
      "type": "function"
    },
    {
      "inputs": [],
      "name": "getCoreVaultTransferFeeBIPS",
      "outputs": [
        {
          "internalType": "uint256",
          "name": "",
          "type": "uint256"
        }
      ],
      "stateMutability": "view",
      "type": "function"
    },
    {
      "inputs": [],
      "name": "getCoreVaultTransferTimeExtensionSeconds",
      "outputs": [
        {
          "internalType": "uint256",
          "name": "",
          "type": "uint256"
        }
      ],
      "stateMutability": "view",
      "type": "function"
    },
    {
      "inputs": [],
      "name": "governance",
      "outputs": [
        {
          "internalType": "address",
          "name": "",
          "type": "address"
        }
      ],
      "stateMutability": "view",
      "type": "function"
    },
    {
      "inputs": [],
      "name": "governanceSettings",
      "outputs": [
        {
          "internalType": "contract IGovernanceSettings",
          "name": "",
          "type": "address"
        }
      ],
      "stateMutability": "view",
      "type": "function"
    },
    {
      "inputs": [
        {
          "internalType": "contract IICoreVaultManager",
          "name": "_coreVaultManager",
          "type": "address"
        },
        {
          "internalType": "address payable",
          "name": "_nativeAddress",
          "type": "address"
        },
        {
          "internalType": "uint256",
          "name": "_transferFeeBIPS",
          "type": "uint256"
        },
        {
          "internalType": "uint256",
          "name": "_transferTimeExtensionSeconds",
          "type": "uint256"
        },
        {
          "internalType": "uint256",
          "name": "_redemptionFeeBIPS",
          "type": "uint256"
        },
        {
          "internalType": "uint256",
          "name": "_minimumAmountLeftBIPS",
          "type": "uint256"
        },
        {
          "internalType": "uint256",
          "name": "_minimumRedeemLots",
          "type": "uint256"
        }
      ],
      "name": "initCoreVaultFacet",
      "outputs": [],
      "stateMutability": "nonpayable",
      "type": "function"
    },
    {
      "inputs": [
        {
          "internalType": "address",
          "name": "_address",
          "type": "address"
        }
      ],
      "name": "isExecutor",
      "outputs": [
        {
          "internalType": "bool",
          "name": "",
          "type": "bool"
        }
      ],
      "stateMutability": "view",
      "type": "function"
    },
    {
      "inputs": [],
      "name": "productionMode",
      "outputs": [
        {
          "internalType": "bool",
          "name": "",
          "type": "bool"
        }
      ],
      "stateMutability": "view",
      "type": "function"
    },
    {
      "inputs": [
        {
          "internalType": "address",
          "name": "_coreVaultManager",
          "type": "address"
        }
      ],
      "name": "setCoreVaultManager",
      "outputs": [],
      "stateMutability": "nonpayable",
      "type": "function"
    },
    {
      "inputs": [
        {
          "internalType": "uint256",
          "name": "_minimumAmountLeftBIPS",
          "type": "uint256"
        }
      ],
      "name": "setCoreVaultMinimumAmountLeftBIPS",
      "outputs": [],
      "stateMutability": "nonpayable",
      "type": "function"
    },
    {
      "inputs": [
        {
          "internalType": "uint256",
          "name": "_minimumRedeemLots",
          "type": "uint256"
        }
      ],
      "name": "setCoreVaultMinimumRedeemLots",
      "outputs": [],
      "stateMutability": "nonpayable",
      "type": "function"
    },
    {
      "inputs": [
        {
          "internalType": "address payable",
          "name": "_nativeAddress",
          "type": "address"
        }
      ],
      "name": "setCoreVaultNativeAddress",
      "outputs": [],
      "stateMutability": "nonpayable",
      "type": "function"
    },
    {
      "inputs": [
        {
          "internalType": "uint256",
          "name": "_redemptionFeeBIPS",
          "type": "uint256"
        }
      ],
      "name": "setCoreVaultRedemptionFeeBIPS",
      "outputs": [],
      "stateMutability": "nonpayable",
      "type": "function"
    },
    {
      "inputs": [
        {
          "internalType": "uint256",
          "name": "_transferFeeBIPS",
          "type": "uint256"
        }
      ],
      "name": "setCoreVaultTransferFeeBIPS",
      "outputs": [],
      "stateMutability": "nonpayable",
      "type": "function"
    },
    {
      "inputs": [
        {
          "internalType": "uint256",
          "name": "_transferTimeExtensionSeconds",
          "type": "uint256"
        }
      ],
      "name": "setCoreVaultTransferTimeExtensionSeconds",
      "outputs": [],
      "stateMutability": "nonpayable",
      "type": "function"
    },
    {
      "inputs": [],
      "name": "switchToProductionMode",
      "outputs": [],
      "stateMutability": "nonpayable",
      "type": "function"
    },
    {
      "inputs": [],
      "name": "updateInterfacesAtCoreVaultDeploy",
      "outputs": [],
      "stateMutability": "nonpayable",
      "type": "function"
    }
  ],
  "bytecode": "0x608060405234801561001057600080fd5b5061001d61111180610059565b7f908500188c8f91f50d58dffac83eda18fc06d9da0208fc6b66c78a4c3fec74f4805460ff60401b1916680100000000000000001790556101ed565b7f2aa47ee5db910f3b2a06970c443249cc77dbd9f96100cfebc1775ab7fb1d18248054600160a01b900460ff16156100d85760405162461bcd60e51b815260206004820152601460248201527f696e697469616c6973656420213d2066616c736500000000000000000000000060448201526064015b60405180910390fd5b6001600160a01b03831661012e5760405162461bcd60e51b815260206004820152601860248201527f676f7665726e616e63652073657474696e6773207a65726f000000000000000060448201526064016100cf565b6001600160a01b0382166101775760405162461bcd60e51b815260206004820152601060248201526f5f676f7665726e616e6365207a65726f60801b60448201526064016100cf565b80546001600160a01b038481166001600160a81b031990921691909117600160a01b1782556001820180549184166001600160a01b0319909216821790556040519081527f9789733827840833afc031fb2ef9ab6894271f77bad2085687cf4ae5c7bee4db9060200160405180910390a1505050565b611690806101fc6000396000f3fe608060405234801561001057600080fd5b506004361061014d5760003560e01c8063a79936e4116100c3578063e17f212e1161007c578063e17f212e14610324578063e6a118d514610343578063ec89390514610356578063ecad40c914610376578063f5a9838314610389578063fe1ad6421461039157600080fd5b8063a79936e414610282578063acdc0260146102a8578063b2a0d420146102bb578063be1e366a146102ce578063d3c42acc146102ee578063debfda301461030157600080fd5b80635aa6e675116101155780635aa6e675146101ed57806362354e031461020d578063929d71bf1461022b5780639bd193a314610249578063a2785a7114610251578063a67ab2b11461026f57600080fd5b806303094b211461015257806316fc2f6d1461019257806320c5f99d146101a757806343b9552e146101ba57806344dcbf7b146101cd575b600080fd5b7f908500188c8f91f50d58dffac83eda18fc06d9da0208fc6b66c78a4c3fec74f45467ffffffffffffffff165b6040519081526020015b60405180910390f35b6101a56101a03660046113a9565b6103a4565b005b6101a56101b53660046113a9565b61048c565b6101a56101c836600461141b565b61067b565b6000805160206115db83398151915254600160a01b900461ffff1661017f565b6101f561071c565b6040516001600160a01b039091168152602001610189565b60008051602061161b833981519152546001600160a01b03166101f5565b6000805160206115db833981519152546001600160a01b03166101f5565b6101a56107c5565b6000805160206115fb833981519152546001600160a01b03166101f5565b6101a561027d36600461141b565b6108e0565b6000805160206115fb83398151915254600160a01b900467ffffffffffffffff1661017f565b6101a56102b636600461141b565b61099a565b6101a56102c936600461141b565b610a54565b6000805160206115db83398151915254600160b01b900461ffff1661017f565b6101a56102fc366004611449565b610b0e565b61031461030f3660046114ab565b610d1e565b6040519015158152602001610189565b60008051602061161b83398151915254600160a81b900460ff16610314565b6101a56103513660046114ab565b610db8565b6000805160206115db83398151915254600160c01b900461ffff1661017f565b6101a561038436600461141b565b610eac565b6101a5610f57565b6101a561039f3660046114ab565b61102b565b6103ac6110cf565b60405160008051602061161b833981519152906000906103cf90859085906114c8565b60405180910390209050816002016000828152602001908152602001600020546000036104435760405162461bcd60e51b815260206004820152601a60248201527f74696d656c6f636b3a20696e76616c69642073656c6563746f7200000000000060448201526064015b60405180910390fd5b6040518181527f69b058d6225c01c1f2a25801ca5b05705fa2e9118e93d518390ba804398c87b19060200160405180910390a16000908152600290910160205260408120555050565b60008051602061161b8339815191526104a433610d1e565b6104e05760405162461bcd60e51b815260206004820152600d60248201526c37b7363c9032bc32b1baba37b960991b604482015260640161043a565b600083836040516104f29291906114c8565b604080519182900390912060008181526002850160205291822054909250908190036105605760405162461bcd60e51b815260206004820152601a60248201527f74696d656c6f636b3a20696e76616c69642073656c6563746f72000000000000604482015260640161043a565b804210156105b05760405162461bcd60e51b815260206004820152601960248201527f74696d656c6f636b3a206e6f7420616c6c6f7765642079657400000000000000604482015260640161043a565b6000828152600284016020526040808220829055845460ff60b01b1916600160b01b1785555130906105e590889088906114c8565b6000604051808303816000865af19150503d8060008114610622576040519150601f19603f3d011682016040523d82523d6000602084013e610627565b606091505b5050845460ff60b01b191685556040518481529091507fec1225e5a8a8acb91e03ce648c683c74f5d152a775b9715980999441d714c44f9060200160405180910390a16106738161112b565b505050505050565b6106836110cf565b6000805160206115fb83398151915261069b82611148565b60028201805467ffffffffffffffff191667ffffffffffffffff9290921691909117905560408051818152601a918101919091527f636f72655661756c744d696e696d756d52656465656d4c6f747300000000000060608201526020810183905260008051602061163b833981519152906080015b60405180910390a15050565b60008051602061161b833981519152805460009190600160a81b900460ff166107525760018101546001600160a01b03166107bf565b805460408051631cc9492560e21b815290516001600160a01b03909216916373252494916004808201926020929091908290030181865afa15801561079b573d6000803e3d6000fd5b505050506040513d601f19601f820116820180604052508101906107bf91906114d8565b91505090565b6301ffc9a760e01b6000527fc8fcad8db84d3cc18b4c41d551ea0ee66dd599cde068d998e57d5e09332c131e6020527f673a26ab9c976db950bbe987aa80c5e387f329563bb0afe093ddccc970489e31547fc8fcad8db84d3cc18b4c41d551ea0ee66dd599cde068d998e57d5e09332c131c9060ff166108875760405162461bcd60e51b815260206004820152601760248201527f6469616d6f6e64206e6f7420696e697469616c697a6564000000000000000000604482015260640161043a565b63441d7ad760e11b600090815260029091016020526040808220805460ff199081166001908117909255631eb0d36d60e21b845282842080548216831790556346cbaccf60e11b84529190922080549091169091179055565b6108e86110cf565b61271081111561090a5760405162461bcd60e51b815260040161043a906114f5565b6000805160206115fb833981519152610922826111b5565b60018201805461ffff92909216600160c01b0261ffff60c01b1990921691909117905560408051818152601e918101919091527f636f72655661756c744d696e696d756d416d6f756e744c65667442495053000060608201526020810183905260008051602061163b83398151915290608001610710565b6109a26110cf565b6127108111156109c45760405162461bcd60e51b815260040161043a906114f5565b6000805160206115fb8339815191526109dc826111b5565b60018201805461ffff92909216600160a01b0261ffff60a01b19909216919091179055604080518181526018918101919091527f636f72655661756c745472616e7366657246656542495053000000000000000060608201526020810183905260008051602061163b83398151915290608001610710565b610a5c6110cf565b612710811115610a7e5760405162461bcd60e51b815260040161043a906114f5565b6000805160206115fb833981519152610a96826111b5565b60018201805461ffff92909216600160b01b0261ffff60b01b1990921691909117905560408051818152601a918101919091527f636f72655661756c74526564656d7074696f6e4665654249505300000000000060608201526020810183905260008051602061163b83398151915290608001610710565b610b166107c5565b612710851115610b385760405162461bcd60e51b815260040161043a906114f5565b612710831115610b5a5760405162461bcd60e51b815260040161043a906114f5565b612710821115610b7c5760405162461bcd60e51b815260040161043a906114f5565b7f908500188c8f91f50d58dffac83eda18fc06d9da0208fc6b66c78a4c3fec74f4546000805160206115fb83398151915290600160401b900460ff1615610bfb5760405162461bcd60e51b8152602060048201526013602482015272185b1c9958591e481a5b9a5d1a585b1a5e9959606a1b604482015260640161043a565b60028101805468ff00000000000000001916600160401b17905580546001600160a01b03808a166001600160a01b0319928316178355600183018054918a1691909216179055610c4a866111b5565b8160010160146101000a81548161ffff021916908361ffff160217905550610c7185611148565b815467ffffffffffffffff91909116600160a01b0267ffffffffffffffff60a01b19909116178155610ca2846111b5565b8160010160166101000a81548161ffff021916908361ffff160217905550610cc9836111b5565b8160010160186101000a81548161ffff021916908361ffff160217905550610cf082611148565b600291909101805467ffffffffffffffff191667ffffffffffffffff90921691909117905550505050505050565b60008051602061161b833981519152805460009190600160a01b900460ff168015610db157508054604051630debfda360e41b81526001600160a01b0385811660048301529091169063debfda3090602401602060405180830381865afa158015610d8d573d6000803e3d6000fd5b505050506040513d601f19601f82011682018060405250810190610db19190611522565b9392505050565b610dc0611218565b15610e9c57610dcd61124e565b6001600160a01b038116610e145760405162461bcd60e51b815260206004820152600e60248201526d63616e6e6f742064697361626c6560901b604482015260640161043a565b6000805160206115fb83398151915280546001600160a01b0383166001600160a01b031990911681178255604080518181526010818301526f31b7b932ab30bab63a26b0b730b3b2b960811b60608201526020810192909252517fcb274d507e7a9978f5a8c15929fd58c472b8addc1a9bba454b0c0a49a05c91529181900360800190a15050565b610ea96000366000611292565b50565b610eb46110cf565b6000805160206115fb833981519152610ecc82611148565b815467ffffffffffffffff91909116600160a01b0267ffffffffffffffff60a01b19909116178155604080518181526025918101919091527f636f72655661756c745472616e7366657254696d65457874656e73696f6e5365606082015264636f6e647360d81b60808201526020810183905260008051602061163b8339815191529060a001610710565b610f5f6110cf565b60008051602061161b8339815191528054600160a81b900460ff1615610fc75760405162461bcd60e51b815260206004820152601a60248201527f616c726561647920696e2070726f64756374696f6e206d6f6465000000000000604482015260640161043a565b6001810180546001600160a01b03191690558054600160a81b60ff60a81b1982161782556040516001600160a01b0390911681527f83af113638b5422f9e977cebc0aaf0eaf2188eb9a8baae7f9d46c42b33a1560c9060200160405180910390a150565b6110336110cf565b6000805160206115db83398151915280546001600160a01b0319166001600160a01b0383169081179091556040805181815260169181019190915275636f72655661756c744e61746976654164647265737360501b606082015260208101919091526000805160206115fb833981519152907fcb274d507e7a9978f5a8c15929fd58c472b8addc1a9bba454b0c0a49a05c915290608001610710565b6110d761071c565b6001600160a01b0316336001600160a01b0316146111295760405162461bcd60e51b815260206004820152600f60248201526e6f6e6c7920676f7665726e616e636560881b604482015260640161043a565b565b3d604051818101604052816000823e8215611144578181f35b8181fd5b600067ffffffffffffffff8211156111b15760405162461bcd60e51b815260206004820152602660248201527f53616665436173743a2076616c756520646f65736e27742066697420696e203660448201526534206269747360d01b606482015260840161043a565b5090565b600061ffff8211156111b15760405162461bcd60e51b815260206004820152602660248201527f53616665436173743a2076616c756520646f65736e27742066697420696e203160448201526536206269747360d01b606482015260840161043a565b60008051602061161b833981519152805460009190600160b01b900460ff16806107bf575054600160a81b900460ff1615919050565b60008051602061161b8339815191528054600160b01b900460ff161561128a5733301461127d5761127d611544565b805460ff60b01b19169055565b610ea96110cf565b60008051602061161b8339815191526112a96110cf565b600084846040516112bb9291906114c8565b604080519182900382208454636221a54b60e01b845291519093506000926001600160a01b0390921691636221a54b9160048083019260209291908290030181865afa15801561130f573d6000803e3d6000fd5b505050506040513d601f19601f82011682018060405250810190611333919061155a565b9050838110156113405750825b600061134c8242611573565b600084815260028601602052604090819020829055519091507f8c02104dfc280f713854f25297de671710c544c58de69dbde8fb66974ce1ab9e9061139890899089908790869061159a565b60405180910390a150505050505050565b600080602083850312156113bc57600080fd5b823567ffffffffffffffff808211156113d457600080fd5b818501915085601f8301126113e857600080fd5b8135818111156113f757600080fd5b86602082850101111561140957600080fd5b60209290920196919550909350505050565b60006020828403121561142d57600080fd5b5035919050565b6001600160a01b0381168114610ea957600080fd5b600080600080600080600060e0888a03121561146457600080fd5b873561146f81611434565b9650602088013561147f81611434565b96999698505050506040850135946060810135946080820135945060a0820135935060c0909101359150565b6000602082840312156114bd57600080fd5b8135610db181611434565b8183823760009101908152919050565b6000602082840312156114ea57600080fd5b8151610db181611434565b6020808252601390820152720c4d2e0e640ecc2d8eaca40e8dede40d0d2ced606b1b604082015260600190565b60006020828403121561153457600080fd5b81518015158114610db157600080fd5b634e487b7160e01b600052600160045260246000fd5b60006020828403121561156c57600080fd5b5051919050565b8082018082111561159457634e487b7160e01b600052601160045260246000fd5b92915050565b606081528360608201528385608083013760006080858301015260006080601f19601f87011683010190508360208301528260408301529594505050505056fe908500188c8f91f50d58dffac83eda18fc06d9da0208fc6b66c78a4c3fec74f3908500188c8f91f50d58dffac83eda18fc06d9da0208fc6b66c78a4c3fec74f22aa47ee5db910f3b2a06970c443249cc77dbd9f96100cfebc1775ab7fb1d1824ac1fb27759c1e6f9e4a24d4f8c320be6091becb03cea5a95398fa220fca4ac0ea2646970667358221220755143425d315c0aaf39ed783313bd346b73d1a3b5e46b6191b295b131c890aa64736f6c63430008170033",
  "linkReferences": {},
  "deployedLinkReferences": {}
}