{
  "_format": "hh-sol-artifact-1",
  "contractName": "RedemptionRequestsFacet",
  "sourceName": "contracts/assetManager/facets/RedemptionRequestsFacet.sol",
  "abi": [
    {
      "anonymous": false,
      "inputs": [
        {
          "indexed": true,
          "internalType": "address",
          "name": "agentVault",
          "type": "address"
        },
        {
          "indexed": false,
          "internalType": "uint256",
          "name": "dustUBA",
          "type": "uint256"
        }
      ],
      "name": "DustChanged",
      "type": "event"
    },
    {
      "anonymous": false,
      "inputs": [
        {
          "indexed": true,
          "internalType": "address",
          "name": "agentVault",
          "type": "address"
        }
      ],
      "name": "LiquidationEnded",
      "type": "event"
    },
    {
      "anonymous": false,
      "inputs": [
        {
          "indexed": true,
          "internalType": "address",
          "name": "agentVault",
          "type": "address"
        },
        {
          "indexed": true,
          "internalType": "address",
          "name": "redeemer",
          "type": "address"
        },
        {
          "indexed": false,
          "internalType": "uint256",
          "name": "redemptionAmountUBA",
          "type": "uint256"
        },
        {
          "indexed": false,
          "internalType": "uint256",
          "name": "paidVaultCollateralWei",
          "type": "uint256"
        }
      ],
      "name": "RedeemedInCollateral",
      "type": "event"
    },
    {
      "anonymous": false,
      "inputs": [
        {
          "indexed": true,
          "internalType": "address",
          "name": "agentVault",
          "type": "address"
        },
        {
          "indexed": true,
          "internalType": "address",
          "name": "redeemer",
          "type": "address"
        },
        {
          "indexed": true,
          "internalType": "uint64",
          "name": "requestId",
          "type": "uint64"
        },
        {
          "indexed": false,
          "internalType": "uint256",
          "name": "redemptionAmountUBA",
          "type": "uint256"
        }
      ],
      "name": "RedemptionRejected",
      "type": "event"
    },
    {
      "anonymous": false,
      "inputs": [
        {
          "indexed": true,
          "internalType": "address",
          "name": "redeemer",
          "type": "address"
        },
        {
          "indexed": false,
          "internalType": "uint256",
          "name": "remainingLots",
          "type": "uint256"
        }
      ],
      "name": "RedemptionRequestIncomplete",
      "type": "event"
    },
    {
      "anonymous": false,
      "inputs": [
        {
          "indexed": true,
          "internalType": "address",
          "name": "agentVault",
          "type": "address"
        },
        {
          "indexed": true,
          "internalType": "address",
          "name": "redeemer",
          "type": "address"
        },
        {
          "indexed": true,
          "internalType": "uint256",
          "name": "requestId",
          "type": "uint256"
        },
        {
          "indexed": false,
          "internalType": "string",
          "name": "paymentAddress",
          "type": "string"
        },
        {
          "indexed": false,
          "internalType": "uint256",
          "name": "valueUBA",
          "type": "uint256"
        },
        {
          "indexed": false,
          "internalType": "uint256",
          "name": "feeUBA",
          "type": "uint256"
        },
        {
          "indexed": false,
          "internalType": "uint256",
          "name": "firstUnderlyingBlock",
          "type": "uint256"
        },
        {
          "indexed": false,
          "internalType": "uint256",
          "name": "lastUnderlyingBlock",
          "type": "uint256"
        },
        {
          "indexed": false,
          "internalType": "uint256",
          "name": "lastUnderlyingTimestamp",
          "type": "uint256"
        },
        {
          "indexed": false,
          "internalType": "bytes32",
          "name": "paymentReference",
          "type": "bytes32"
        },
        {
          "indexed": false,
          "internalType": "address",
          "name": "executor",
          "type": "address"
        },
        {
          "indexed": false,
          "internalType": "uint256",
          "name": "executorFeeNatWei",
          "type": "uint256"
        }
      ],
      "name": "RedemptionRequested",
      "type": "event"
    },
    {
      "anonymous": false,
      "inputs": [
        {
          "indexed": true,
          "internalType": "address",
          "name": "agentVault",
          "type": "address"
        },
        {
          "indexed": true,
          "internalType": "uint256",
          "name": "redemptionTicketId",
          "type": "uint256"
        },
        {
          "indexed": false,
          "internalType": "uint256",
          "name": "ticketValueUBA",
          "type": "uint256"
        }
      ],
      "name": "RedemptionTicketCreated",
      "type": "event"
    },
    {
      "anonymous": false,
      "inputs": [
        {
          "indexed": true,
          "internalType": "address",
          "name": "agentVault",
          "type": "address"
        },
        {
          "indexed": true,
          "internalType": "uint256",
          "name": "redemptionTicketId",
          "type": "uint256"
        }
      ],
      "name": "RedemptionTicketDeleted",
      "type": "event"
    },
    {
      "anonymous": false,
      "inputs": [
        {
          "indexed": true,
          "internalType": "address",
          "name": "agentVault",
          "type": "address"
        },
        {
          "indexed": true,
          "internalType": "uint256",
          "name": "redemptionTicketId",
          "type": "uint256"
        },
        {
          "indexed": false,
          "internalType": "uint256",
          "name": "ticketValueUBA",
          "type": "uint256"
        }
      ],
      "name": "RedemptionTicketUpdated",
      "type": "event"
    },
    {
      "anonymous": false,
      "inputs": [
        {
          "indexed": true,
          "internalType": "address",
          "name": "agentVault",
          "type": "address"
        },
        {
          "indexed": false,
          "internalType": "uint256",
          "name": "valueUBA",
          "type": "uint256"
        }
      ],
      "name": "SelfClose",
      "type": "event"
    },
    {
      "inputs": [
        {
          "internalType": "address",
          "name": "_agentVault",
          "type": "address"
        }
      ],
      "name": "convertDustToTicket",
      "outputs": [],
      "stateMutability": "nonpayable",
      "type": "function"
    },
    {
      "inputs": [
        {
          "internalType": "address",
          "name": "_agentVault",
          "type": "address"
        }
      ],
      "name": "maxRedemptionFromAgent",
      "outputs": [
        {
          "internalType": "uint256",
          "name": "",
          "type": "uint256"
        }
      ],
      "stateMutability": "view",
      "type": "function"
    },
    {
      "inputs": [
        {
          "internalType": "uint256",
          "name": "_lots",
          "type": "uint256"
        },
        {
          "internalType": "string",
          "name": "_redeemerUnderlyingAddressString",
          "type": "string"
        },
        {
          "internalType": "address payable",
          "name": "_executor",
          "type": "address"
        }
      ],
      "name": "redeem",
      "outputs": [
        {
          "internalType": "uint256",
          "name": "_redeemedAmountUBA",
          "type": "uint256"
        }
      ],
      "stateMutability": "payable",
      "type": "function"
    },
    {
      "inputs": [
        {
          "internalType": "address",
          "name": "_agentVault",
          "type": "address"
        },
        {
          "internalType": "address",
          "name": "_receiver",
          "type": "address"
        },
        {
          "internalType": "uint256",
          "name": "_amountUBA",
          "type": "uint256"
        },
        {
          "internalType": "string",
          "name": "_receiverUnderlyingAddress",
          "type": "string"
        },
        {
          "internalType": "address payable",
          "name": "_executor",
          "type": "address"
        }
      ],
      "name": "redeemFromAgent",
      "outputs": [],
      "stateMutability": "payable",
      "type": "function"
    },
    {
      "inputs": [
        {
          "internalType": "address",
          "name": "_agentVault",
          "type": "address"
        },
        {
          "internalType": "address",
          "name": "_receiver",
          "type": "address"
        },
        {
          "internalType": "uint256",
          "name": "_amountUBA",
          "type": "uint256"
        }
      ],
      "name": "redeemFromAgentInCollateral",
      "outputs": [],
      "stateMutability": "nonpayable",
      "type": "function"
    },
    {
      "inputs": [
        {
          "components": [
            {
              "internalType": "bytes32[]",
              "name": "merkleProof",
              "type": "bytes32[]"
            },
            {
              "components": [
                {
                  "internalType": "bytes32",
                  "name": "attestationType",
                  "type": "bytes32"
                },
                {
                  "internalType": "bytes32",
                  "name": "sourceId",
                  "type": "bytes32"
                },
                {
                  "internalType": "uint64",
                  "name": "votingRound",
                  "type": "uint64"
                },
                {
                  "internalType": "uint64",
                  "name": "lowestUsedTimestamp",
                  "type": "uint64"
                },
                {
                  "components": [
                    {
                      "internalType": "string",
                      "name": "addressStr",
                      "type": "string"
                    }
                  ],
                  "internalType": "struct IAddressValidity.RequestBody",
                  "name": "requestBody",
                  "type": "tuple"
                },
                {
                  "components": [
                    {
                      "internalType": "bool",
                      "name": "isValid",
                      "type": "bool"
                    },
                    {
                      "internalType": "string",
                      "name": "standardAddress",
                      "type": "string"
                    },
                    {
                      "internalType": "bytes32",
                      "name": "standardAddressHash",
                      "type": "bytes32"
                    }
                  ],
                  "internalType": "struct IAddressValidity.ResponseBody",
                  "name": "responseBody",
                  "type": "tuple"
                }
              ],
              "internalType": "struct IAddressValidity.Response",
              "name": "data",
              "type": "tuple"
            }
          ],
          "internalType": "struct IAddressValidity.Proof",
          "name": "_proof",
          "type": "tuple"
        },
        {
          "internalType": "uint256",
          "name": "_redemptionRequestId",
          "type": "uint256"
        }
      ],
      "name": "rejectInvalidRedemption",
      "outputs": [],
      "stateMutability": "nonpayable",
      "type": "function"
    },
    {
      "inputs": [
        {
          "internalType": "address",
          "name": "_agentVault",
          "type": "address"
        },
        {
          "internalType": "uint256",
          "name": "_amountUBA",
          "type": "uint256"
        }
      ],
      "name": "selfClose",
      "outputs": [
        {
          "internalType": "uint256",
          "name": "_closedAmountUBA",
          "type": "uint256"
        }
      ],
      "stateMutability": "nonpayable",
      "type": "function"
    }
  ],
  "bytecode": "0x608060405234801561001057600080fd5b506151f9806100206000396000f3fe6080604052600436106100705760003560e01c80639584da2a1161004e5780639584da2a146100e957806399646d1c14610109578063997be0f41461011c578063ed000b301461012f57600080fd5b80631e8bee011461007557806365454f94146100a757806387375f27146100c9575b600080fd5b34801561008157600080fd5b506100956100903660046146e7565b61014f565b60405190815260200160405180910390f35b3480156100b357600080fd5b506100c76100c23660046146e7565b610160565b005b3480156100d557600080fd5b506100c76100e4366004614704565b61018b565b3480156100f557600080fd5b5061009561010436600461474d565b6101c0565b61009561011736600461480d565b6101f5565b6100c761012a366004614867565b610243565b34801561013b57600080fd5b506100c761014a3660046148e7565b61027e565b600061015a826102b5565b92915050565b6101686102cc565b61017181610338565b61018860016000805160206151a483398151915255565b50565b6101936102cc565b6101a5826101a0836103c6565b610432565b6101bc60016000805160206151a483398151915255565b5050565b60006101ca6106d3565b6101d26102cc565b6101dc838361075e565b905061015a60016000805160206151a483398151915255565b60006101ff610836565b6102076106d3565b61020f6102cc565b6102233361021c866103c6565b8585610902565b905061023c60016000805160206151a483398151915255565b9392505050565b61024b6106d3565b6102536102cc565b6102608585858585610b93565b61027760016000805160206151a483398151915255565b5050505050565b6102866106d3565b61028e6102cc565b610299838383610c68565b6102b060016000805160206151a483398151915255565b505050565b6000806102c183610da9565b905061023c81610e50565b6000805160206151a48339815191528054600119016103325760405162461bcd60e51b815260206004820152601f60248201527f5265656e7472616e637947756172643a207265656e7472616e742063616c6c0060448201526064015b60405180910390fd5b60029055565b6000610342610f52565b9050600061034f83610da9565b600d83015460068201549192506001600160401b039081169116106102b057600d8201546006820154600091610391916001600160401b03918216911661493e565b60068301549091506000906103b09083906001600160401b031661497a565b90506103bc8382610f76565b610277838361111a565b60006001600160401b0382111561042e5760405162461bcd60e51b815260206004820152602660248201527f53616665436173743a2076616c756520646f65736e27742066697420696e203660448201526534206269747360d01b6064820152608401610329565b5090565b600061043d826111b0565b600881015490915060ff16156104555761045561499a565b600481015460009061046f906001600160a01b0316610da9565b905060016004830154600160a01b900460ff166002811115610493576104936149b0565b146104e05760405162461bcd60e51b815260206004820152601960248201527f696e76616c696420726564656d7074696f6e20737461747573000000000000006044820152606401610329565b6104e98161128c565b6104f2846112db565b600061050160208601866149c6565b61050f9060808101906149e6565b61051990806149fc565b604051610527929190614a49565b60405180910390209050826000015481146105745760405162461bcd60e51b815260206004820152600d60248201526c77726f6e67206164647265737360981b6044820152606401610329565b600061058360208701876149c6565b6105919060a0810190614a59565b61059f906020810190614a7d565b80156105c9575083546105b560208801886149c6565b6105c39060a0810190614a59565b60400135145b905080156106095760405162461bcd60e51b815260206004820152600d60248201526c1859191c995cdcc81d985b1a59609a1b6044820152606401610329565b61063c838560020160189054906101000a90046001600160401b03168660040160159054906101000a900460ff16611403565b610645846114f9565b600284015460009061066690600160c01b90046001600160401b0316611570565b600386015460048701546040518381529293506001600160401b038916926001600160a01b0392831692909116907f546ca4504281c4fdf80e86f89160accd6da6cea9b105796337a515103ec70a6f9060200160405180910390a46106ca866115a1565b50505050505050565b7fec7e8c1c441439dd40959777f4c577ea0cd42fcc1dbe59d2bd0f5d9c55df8dc6546000805160206151848339815191529042600160401b9091046001600160401b031611156101885760405162461bcd60e51b8152602060048201526016602482015275656d657267656e63792070617573652061637469766560501b6044820152606401610329565b60008061076a84610da9565b90506107758161128c565b826000036107b75760405162461bcd60e51b815260206004820152600f60248201526e073656c6620636c6f7365206f66203608c1b6044820152606401610329565b60006107c284611665565b905060006107d4838360016000611696565b9150506107e1338261186b565b6107ea836118d3565b856001600160a01b03167f27a9c0ea115e1a078f8a4ddd385379102c3138ded0ddd00bf9cc5ee197457dc88260405161082591815260200190565b60405180910390a295945050505050565b6000610840610f52565b60068101549091506001600160a01b031615610188576006810154604051633af32abf60e01b81523360048201526001600160a01b0390911690633af32abf90602401602060405180830381865afa1580156108a0573d6000803e3d6000fd5b505050506040513d601f19601f820116820180604052508101906108c49190614a9a565b6101885760405162461bcd60e51b815260206004820152600f60248201526e1b9bdd081dda1a5d195b1a5cdd1959608a1b6044820152606401610329565b60008061090d610f52565b600f0160109054906101000a900461ffff1661ffff16905060006040518060400160405280836001600160401b0381111561094a5761094a61476b565b60405190808252806020026020018201604052801561098f57816020015b60408051808201909152600080825260208201528152602001906001900390816109685790505b508152602001600081525090506000805b83811080156109c05750876001600160401b0316826001600160401b0316105b15610a76577fec7e8c1c441439dd40959777f4c577ea0cd42fcc1dbe59d2bd0f5d9c55df8dbf546001600160401b0316600003610a4557816001600160401b0316600003610a405760405162461bcd60e51b815260206004820152600d60248201526c72656465656d2030206c6f747360981b6044820152606401610329565b610a76565b610a58610a52838a61497a565b846119bf565b610a629083614ab7565b915080610a6e81614ad7565b9150506109a0565b506000610a87633b9aca0034614af0565b905060005b8360200151811015610b03576000818560200151610aaa9190614b04565b610ab49084614af0565b9050610ac08184614b04565b9250610af985600001518381518110610adb57610adb614b17565b60200260200101518c8b60008c610af1876103c6565b600080611bf7565b5050600101610a8c565b50876001600160401b0316826001600160401b03161015610b6f576001600160a01b0389167fffb29516defd624d1f4ff8436cc96282ba7b4294c3a18cf274c3bdf21c9ccd99610b53848b61497a565b6040516001600160401b03909116815260200160405180910390a25b6000610b7a836120ec565b9050610b86338261186b565b9998505050505050505050565b6000610b9e86610da9565b9050610ba981612130565b83600003610beb5760405162461bcd60e51b815260206004820152600f60248201526e0726564656d7074696f6e206f66203608c1b6044820152606401610329565b6000610bf685611665565b9050600080610c088484600080611696565b604080518082019091526001600160a01b038c1681526001600160401b03831660208201529193509150610c51818a8960018a610af1610c4c633b9aca0034614af0565b6103c6565b50610c5c338361186b565b50505050505050505050565b6000610c7384610da9565b9050610c7e81612130565b81600003610cc05760405162461bcd60e51b815260206004820152600f60248201526e0726564656d7074696f6e206f66203608c1b6044820152606401610329565b6000610ccb83611665565b9050600080610cde848460016000611696565b60048601549193509150600090610cfd90610100900461ffff16612180565b600a860154909150600090610d3090600160801b900461ffff16610d2a6001600160401b038716856121cb565b906121e5565b9050610d3d8689836121f4565b50876001600160a01b0316896001600160a01b03167f25c177efe505ee9dd8e37b9825d729e1a27b6ac048c6e55ba91841d9a7fa9ecc8584604051610d8c929190918252602082015260400190565b60405180910390a3610d9e338461186b565b505050505050505050565b7f5bebac0595fee029d42bb673937f5f1cb81cf8641382bc17774635de9b7d796568010000000000000000600160e01b03604083901b161880600060048084015460ff1690811115610dfd57610dfd6149b0565b03610e4a5760405162461bcd60e51b815260206004820152601b60248201527f696e76616c6964206167656e74207661756c74206164647265737300000000006044820152606401610329565b50919050565b6006810154600090600080516020615184833981519152906001600160401b031682610e7a610f52565b600f0154600160801b900461ffff16905060006008840181610e9b886122fe565b6001600160a01b0316815260208101919091526040016000908120546001600160401b031691505b6001600160401b03821615801590610eda57508281105b15610f3e576001600160401b038281166000908152600787016020526040902080549091610f1091600160a01b90041686614ab7565b6001909101549094506001600160401b03600160c01b90910416915080610f3681614ad7565b915050610ec3565b50610f4883611570565b9695505050505050565b7f4f24f5c433db0962dac0d2c8b84197a6e6c7cc4e5d9ebe1916a1b6193da2f33a90565b6000805160206151848339815191526001600160401b038216600003610f9b57505050565b6000610fa6846122fe565b6009830154600160401b90046001600160401b031660008181526007850160205260409020805492935090916001600160a01b038085169116036110a357805485908290601490611008908490600160a01b90046001600160401b0316614ab7565b92506101000a8154816001600160401b0302191690836001600160401b03160217905550600061104e8260000160149054906101000a90046001600160401b0316611570565b9050826001600160401b0316846001600160a01b03167f9d2e72c50be7927e999d37329649af37a863df77bcb25361699ce021d3d7475d8360405161109591815260200190565b60405180910390a350611112565b60006110b3600786018588612326565b905060006110c087611570565b9050816001600160401b0316856001600160a01b03167f631f8f2039090539b2ea4ef7dc567f7f1939ef4dd3e790b1ca7bc548a1fada588360405161110791815260200190565b60405180910390a350505b505050505050565b60068201546001600160401b03808316911603611135575050565b60068201805467ffffffffffffffff19166001600160401b038316179055600061115e82611570565b9050611169836122fe565b6001600160a01b03167fa3db2bc927901a1d3ba09ad51d84609457b98443be9132a0a936a47c5a1081b5826040516111a391815260200190565b60405180910390a2505050565b60006000805160206151848339815191526001600160401b038316820361120e5760405162461bcd60e51b81526020600482015260126024820152711a5b9d985b1a59081c995c5d595cdd081a5960721b6044820152606401610329565b6001600160401b0383166000908152600a82016020526040812092506004830154600160a01b900460ff16600281111561124a5761124a6149b0565b03610e4a5760405162461bcd60e51b81526020600482015260126024820152711a5b9d985b1a59081c995c5d595cdd081a5960721b6044820152606401610329565b611296813361272f565b6101885760405162461bcd60e51b815260206004820152601660248201527537b7363c9030b3b2b73a103b30bab63a1037bbb732b960511b6044820152606401610329565b60006112e5610f52565b6008810154600b8201549192506001600160a01b03169061130960208501856149c6565b602001351461134a5760405162461bcd60e51b815260206004820152600d60248201526c34b73b30b634b21031b430b4b760991b6044820152606401610329565b60405163f34ef58760e01b81526001600160a01b0382169063f34ef58790611376908690600401614cda565b602060405180830381865afa158015611393573d6000803e3d6000fd5b505050506040513d601f19601f820116820180604052508101906113b79190614a9a565b6102b05760405162461bcd60e51b815260206004820152601b60248201527f616464726573732076616c6964697479206e6f742070726f76656400000000006044820152606401610329565b6114518360050160109054906101000a90046001600160401b031683604051806040016040528060148152602001736e6f7420656e6f7567682072656465656d696e6760601b8152506127de565b8360050160106101000a8154816001600160401b0302191690836001600160401b03160217905550806102b0576114cc8360050160189054906101000a90046001600160401b031683604051806040016040528060148152602001736e6f7420656e6f7567682072656465656d696e6760601b8152506127de565b8360050160186101000a8154816001600160401b0302191690836001600160401b03160217905550505050565b600581015460009061152090633b9aca0090600160a01b90046001600160401b0316614d77565b905080156101bc5760058201805467ffffffffffffffff60a01b1981169091556001600160a01b031633036115675760058201546101bc906001600160a01b031682612829565b6101bc816128d2565b60008061157b610f52565b600c81015490915061023c906001600160401b03600160901b9091048116908516614d77565b6115aa81612919565b6001600160401b03811660009081527fec7e8c1c441439dd40959777f4c577ea0cd42fcc1dbe59d2bd0f5d9c55df8dc06020526040812081815560018101829055600281018290556003810180546001600160e01b03199081169091556004820180546001600160b01b031916905560058201805490911690556006810180546001600160801b0319169055600080516020615184833981519152916116536007830182614688565b50600801805462ffffff191690555050565b600080611670610f52565b600c81015490915061023c90610c4c90600160901b90046001600160401b031685614af0565b600080600080516020615184833981519152816116b1610f52565b600f0154600160801b900461ffff16905060006116cc610f52565b600d01546001600160401b0316905060005b82811080156116fe5750886001600160401b0316866001600160401b0316105b156117dc57600060088501816117138d6122fe565b6001600160a01b0316815260208101919091526040016000908120546001600160401b0316915081900361174757506117dc565b6001600160401b038181166000908152600787016020526040812060068e0154815491936117809291811691600160a01b900416614ab7565b905061178c858261493e565b611796908261497a565b905060006117ad6117a78b8f61497a565b8361298a565b90506117b984826129b3565b6117c3818b614ab7565b99505050505080806117d490614ad7565b9150506116de565b5060006117ff6117ec878b61497a565b60068c01546001600160401b031661298a565b9050861561181e57611811828261493e565b61181b908261497a565b90505b6001600160401b03811615611843576118378187614ab7565b95506118438a82612b7f565b8715611853576118538a87612bd0565b61185c86611570565b94505050505094509492505050565b611873612c69565b604051632770a7eb60e21b81526001600160a01b038481166004830152602482018490529190911690639dc29fac90604401600060405180830381600087803b1580156118bf57600080fd5b505af1158015611112573d6000803e3d6000fd5b600260048083015460ff16908111156118ee576118ee6149b0565b146118f65750565b600061190182612c87565b9050600061190e83612cfb565b9050600061191e84836000612dd1565b9050600061192e85846001612dd1565b905081846000015110158015611948575080846020015110155b15610277576004850180547fff00000000000000000000ffffffffffffffffffffffffffffffffffffffff00166001179055611983856122fe565b6001600160a01b03167fe513b42585b0ceec0d56d56fe3a23861c15a2f74eb4c32c94334d63d68ff4dcf60405160405180910390a25050505050565b6000600080516020615184833981519152816119d9610f52565b60098301549091506001600160401b031660008190036119ff576000935050505061015a565b6001600160401b0381166000908152600784016020526040812080549091506001600160a01b03166000611a3282610da9565b600d860154600682015485549293506000926001600160401b0392831692611a6492811691600160a01b900416614ab7565b611a6e9190614d8e565b9050611a7a8a8261298a565b97506001600160401b03881615611bdf57600d860154600090611aa6906001600160401b03168a614db4565b905060005b8a6020015181108015611af15750846001600160a01b03168b600001518281518110611ad957611ad9614b17565b6020026020010151600001516001600160a01b031614155b15611b0657611aff81614ad7565b9050611aab565b8a60200151811015611b7257818b600001518281518110611b2957611b29614b17565b602002602001015160200151611b3f9190614ab7565b8b51805183908110611b5357611b53614b17565b6020908102919091018101516001600160401b03909216910152611bce565b6040518060400160405280866001600160a01b03168152602001836001600160401b03168152508b600001518c6020018051809190611bb090614ad7565b905281518110611bc257611bc2614b17565b60200260200101819052505b611bd887836129b3565b5050611bea565b611bea8560006129b3565b5050505050505092915050565b8751600090600080516020615184833981519152908290611c1790610da9565b90506080895110611c6a5760405162461bcd60e51b815260206004820152601b60248201527f756e6465726c79696e67206164647265737320746f6f206c6f6e6700000000006044820152606401610329565b885160208a012060038201548103611cc45760405162461bcd60e51b815260206004820181905260248201527f63616e6e6f742072656465656d20746f206167656e74277320616464726573736044820152606401610329565b6000611cdb611cd68e60200151611570565b612e35565b9050611ce68a612e9e565b9450611d806040805161026081018252600080825260208201819052918101829052606081018290526080810182905260a0810182905260c0810182905260e08101829052610100810182905261012081018290529061014082019081526000602082018190526040820181905260608083018290526080830182905260a0830182905260c083015260e082018190526101009091015290565b8281526001600160801b0382166020820152600f8501546201000090046001600160401b031660608201528d51611db79089612f33565b6001600160401b0390811660a0840152166080820152611dd6426103c6565b6001600160401b031661010082015286611e1c57611e17611cd6611df8610f52565b600e01546001600160801b03851690600160401b900461ffff166121e5565b611e1f565b60005b6001600160801b031660408201526001600160a01b038d811660e08301528e511661012082015260208e01516001600160401b031660c082015260016101408201819052508a15156101608201526001600160a01b038a81166101808301526001600160401b038a81166101a084015261020083018e9052881515610220840152600c860154600160e01b900461ffff166102408401528781166000908152600a880160209081526040918290208551815590850151918501516001600160801b03928316600160801b918416820217600183015560608601516002808401805460808a015160a08b015160c08c0151958a166001600160801b031990931692909217600160401b918a1691909102179096169587169093026001600160c01b031694909417600160c01b9186169190910217905560e08501516003820180546101008801519287166001600160e01b031990911617600160a01b929095168202949094179093556101208501516004820180546001600160a01b0319811692909616918217815561014087015187969395909491936001600160a81b03191690921791908490811115611fd557611fd56149b0565b021790555061016082015160048201805460ff60a81b1916600160a81b921515929092029190911790556101808201516005820180546101a08501516001600160a01b039093166001600160e01b031990911617600160a01b6001600160401b03938416021790556101c08301516006830180546101e08601519284166001600160801b031990911617600160401b929093169190910291909117905561020082015160078201906120879082614e5b565b50610220820151600890910180546102409093015161ffff166101000262ffff00199215159290921662ffffff199093169290921717905560208e01516120d09085908d61304b565b6120db81878e6130ef565b505050505098975050505050505050565b6000806120f7610f52565b600c810154600d8201549192506001600160401b03600160901b90910481169161212691908116908616614d77565b61023c9190614d77565b80546001600160a01b031633146101885760405162461bcd60e51b81526020600482015260146024820152731bdb9b1e4818dbdb1b185d195c985b081c1bdbdb60621b6044820152606401610329565b60008060008051602061518483398151915290506121c18160000184815481106121ac576121ac614b17565b906000526020600020906004020160006131b4565b5090949350505050565b600061023c826121dd6009600a614ffe565b859190613373565b600061023c8383612710613373565b60008061220085613499565b9050600061220d866122fe565b82546040516370a0823160e01b81526001600160a01b03808416600483015292935061228692879216906370a0823190602401602060405180830381865afa15801561225d573d6000803e3d6000fd5b505050506040513d601f19601f82011682018060405250810190612281919061500a565b6134e6565b825460405163083e007560e21b81526001600160a01b0391821660048201528782166024820152604481018390529194508216906320f801d490606401600060405180830381600087803b1580156122dd57600080fd5b505af11580156122f1573d6000803e3d6000fd5b5050505050509392505050565b7f5bebac0595fee029d42bb673937f5f1cb81cf8641382bc17774635de9b7d79651860401c90565b6001600160a01b0382166000908152600184016020526040812060028501805483919060109061236590600160801b90046001600160401b0316615023565b91906101000a8154816001600160401b0302191690836001600160401b03160217905590506040518060c00160405280866001600160a01b03168152602001856001600160401b031681526020018760020160089054906101000a90046001600160401b03166001600160401b0316815260200160006001600160401b031681526020018360000160089054906101000a90046001600160401b03166001600160401b0316815260200160006001600160401b0316815250866000016000836001600160401b03166001600160401b0316815260200190815260200160002060008201518160000160006101000a8154816001600160a01b0302191690836001600160a01b0316021790555060208201518160000160146101000a8154816001600160401b0302191690836001600160401b0316021790555060408201518160010160006101000a8154816001600160401b0302191690836001600160401b0316021790555060608201518160010160086101000a8154816001600160401b0302191690836001600160401b0316021790555060808201518160010160106101000a8154816001600160401b0302191690836001600160401b0316021790555060a08201518160010160186101000a8154816001600160401b0302191690836001600160401b031602179055509050508560020160009054906101000a90046001600160401b03166001600160401b03166000036125c2576002860154600160401b90046001600160401b03161561259f5761259f61499a565b60028601805467ffffffffffffffff19166001600160401b03831617905561262a565b6002860154600160401b90046001600160401b03166000036125e6576125e661499a565b6002860154600160401b908190046001600160401b039081166000908152602089905260409020600101805467ffffffffffffffff60401b19169184169092021790555b6002860180546001600160401b03808416600160401b0267ffffffffffffffff60401b19909216919091179091558254166000036126a0578154600160401b90046001600160401b0316156126815761268161499a565b815467ffffffffffffffff19166001600160401b038216178255612703565b8154600160401b90046001600160401b03166000036126c1576126c161499a565b81546001600160401b03600160401b909104811660009081526020889052604090206001018054918316600160c01b026001600160c01b039092169190911790555b815467ffffffffffffffff60401b1916600160401b6001600160401b0383160217909155949350505050565b60018201546000906001600160a01b039081169083168114806127d657506127556134f5565b604051631f86345d60e31b81526001600160a01b038381166004830152919091169063fc31a2e890602401602060405180830381865afa15801561279d573d6000803e3d6000fd5b505050506040513d601f19601f820116820180604052508101906127c19190615049565b6001600160a01b0316836001600160a01b0316145b949350505050565b6000826001600160401b0316846001600160401b0316101582906128155760405162461bcd60e51b815260040161032991906150ac565b5050506001600160401b0390811691160390565b612831613513565b80156101bc576000826001600160a01b031682620186a090604051600060405180830381858888f193505050503d806000811461288a576040519150601f19603f3d011682016040523d82523d6000602084013e61288f565b606091505b50509050806102b05760405162461bcd60e51b815260206004820152600f60248201526e1d1c985b9cd9995c8819985a5b1959608a1b6044820152606401610329565b60006128dc610f52565b60098101546040519192506001600160a01b03169083156108fc029084906000818181858888f193505050501580156102b0573d6000803e3d6000fd5b6000612924826111b0565b600881015490915060ff16156101bc57600481015460009061294e906001600160a01b0316610da9565b600c8101549091506001600160401b0380851664010000000090920416036102b057600c0180546bffffffffffffffff00000000191690555050565b6000816001600160401b0316836001600160401b031611156129ac578161023c565b5090919050565b6001600160401b03821660009081527fec7e8c1c441439dd40959777f4c577ea0cd42fcc1dbe59d2bd0f5d9c55df8dbd602081905260408220805491929091612a04906001600160a01b0316610da9565b90506000612a10610f52565b600d0154600683015484546001600160401b0392831693506000928892612a439290821691600160a01b90910416614ab7565b612a4d919061497a565b90506000612a5b838361493e565b90506000612a69828461497a565b9050806001600160401b0316600003612ad357612a86878a613574565b886001600160401b0316612a99866122fe565b6001600160a01b03167fb7f65e70a51658e24800516a5dc90e2dd65176e18381adda77f58e2044482b1960405160405180910390a3612b75565b85546001600160401b03828116600160a01b9092041614612b7557855467ffffffffffffffff60a01b1916600160a01b6001600160401b038316021786556000612b1c82611570565b9050896001600160401b0316612b31876122fe565b6001600160a01b03167f9d2e72c50be7927e999d37329649af37a863df77bcb25361699ce021d3d7475d83604051612b6b91815260200190565b60405180910390a3505b610d9e858361111a565b600682015460408051808201909152600f81526e1b9bdd08195b9bdd59da08191d5cdd608a1b6020820152600091612bc4916001600160401b039091169084906127de565b90506102b0838261111a565b612c1b8260050160089054906101000a90046001600160401b031682604051806040016040528060118152602001701b9bdd08195b9bdd59da081b5a5b9d1959607a1b8152506127de565b8260050160086101000a8154816001600160401b0302191690836001600160401b031602179055506101bc612c4f836122fe565b6005840154600160401b90046001600160401b031661394e565b600080612c74610f52565b600101546001600160a01b031692915050565b612cb26040518060800160405280600081526020016000815260200160008152602001600081525090565b600080612cc084600061399a565b91509150600080612cd286600161399a565b604080516080810182529687526020870192909252908501939093525050606082015292915050565b600080612d06610f52565b600484015490915060ff166002816004811115612d2557612d256149b0565b03612da457600060016004860154600160e81b900460ff166002811115612d4e57612d4e6149b0565b148015612d8a575060118301546004860154612d7d916001600160401b0390811691600160a81b900416614ab7565b6001600160401b03164211155b905080612d98576002612d9b565b60015b95945050505050565b6003816004811115612db857612db86149b0565b03612dc7575060029392505050565b5060009392505050565b600080612dde85846139e8565b90506001846002811115612df457612df46149b0565b1480612e075750612e058584613a94565b155b15612e1d576003015463ffffffff16905061023c565b60030154600160401b900463ffffffff16905061023c565b60006001600160801b0382111561042e5760405162461bcd60e51b815260206004820152602760248201527f53616665436173743a2076616c756520646f65736e27742066697420696e20316044820152663238206269747360c81b6064820152608401610329565b600060008051602061518483398151915281612eb8613afd565b600e830154612ed79190600160401b90046001600160401b0316614ab7565b9050600084612ee7576000612eea565b60015b60ff16600119612efb846001614ab7565b161790508083600e0160086101000a8154816001600160401b0302191690836001600160401b03160217905550809350505050919050565b60008060008051602061518483398151915281612f4e610f52565b9050600085612f5c88613b1b565b600f850154600160901b90046001600160401b0316612f7a426103c6565b612f84919061497a565b612f8e9190614ab7565b612f989190614ab7565b600c830154909150600090612fcc9063ffffffff16612fc26001600160401b0385166103e8614d77565b610c4c9190614af0565b600d840154600f8601549192506001600160401b03600160981b909104811691612ffe91849162010000900416614ab7565b6130089190614ab7565b600e840154600f8601549197506001600160401b0390811691613034918591600160501b900416614ab7565b61303e9190614ab7565b9450505050509250929050565b818360050160108282829054906101000a90046001600160401b03166130719190614ab7565b92506101000a8154816001600160401b0302191690836001600160401b03160217905550806130e557818360050160188282829054906101000a90046001600160401b03166130c09190614ab7565b92506101000a8154816001600160401b0302191690836001600160401b031602179055505b6102b08383612bd0565b816001600160401b03168360e001516001600160a01b03168461012001516001600160a01b03167f8cbbd73a8d1b8b02a53c4c3b0ee34b472fe3099cc19bcfb57f1aae09e8a9847e848760200151886040015189606001518a608001518b60a0015161316e8c6001600160401b031667232128293320800160c11b1790565b8d6101800151633b9aca008f6101a001516001600160401b03166131929190614d77565b6040516131a7999897969594939291906150bf565b60405180910390a4505050565b6000806000806000806132538860010180546131cf90614ddf565b80601f01602080910402602001604051908101604052809291908181526020018280546131fb90614ddf565b80156132485780601f1061321d57610100808354040283529160200191613248565b820191906000526020600020905b81548152906001019060200180831161322b57829003601f168201915b505050505088613bd3565b8a549295509093509150600160f01b900460ff161561329a57875460009061328990600160a81b900460ff166001838786613c9e565b965091945084935061336c92505050565b60008060006133358b60020180546132b190614ddf565b80601f01602080910402602001604051908101604052809291908181526020018280546132dd90614ddf565b801561332a5780601f106132ff5761010080835404028352916020019161332a565b820191906000526020600020905b81548152906001019060200180831161330d57829003601f168201915b50505050508b613bd3565b8d54929550909350915060009061335990600160a81b900460ff1685848a89613c9e565b995094975090955061336c945050505050565b9250925092565b60008082116133b75760405162461bcd60e51b815260206004820152601060248201526f4469766973696f6e206279207a65726f60801b6044820152606401610329565b836000036133c75750600061023c565b838302838582816133da576133da614928565b04036133f8578281816133ef576133ef614928565b0491505061023c565b5060006134058386614af0565b90506000613413848761512e565b905060006134218587614af0565b9050600061342f868861512e565b90508561343c8285614d77565b6134469190614af0565b6134508385614d77565b61345a8387614d77565b886134658689614d77565b61346f9190614d77565b6134799190615142565b6134839190615142565b61348d9190615142565b98975050505050505050565b60008060008051602061518483398151915260048401548154919250829161010090910461ffff169081106134d0576134d0614b17565b9060005260206000209060040201915050919050565b60008183106129ac578161023c565b600080613500610f52565b600701546001600160a01b031692915050565b6000805160206151a4833981519152546002146135725760405162461bcd60e51b815260206004820152601f60248201527f5265656e7472616e637947756172643a206775617264207265717569726564006044820152606401610329565b565b6001600160401b038116600090815260208390526040902080546001600160a01b03166135a3576135a361499a565b80546001600160a01b031660009081526001808501602052604082209083015490916001600160401b0390911690036136295760028401546001600160401b038481169116146135f5576135f561499a565b6001820154600285018054600160401b9092046001600160401b031667ffffffffffffffff19909216919091179055613691565b60028401546001600160401b03908116908416036136495761364961499a565b6001828101546001600160401b038082166000908152602088905260409020909201805467ffffffffffffffff60401b1916600160401b928390049093169091029190911790555b6001820154600160401b90046001600160401b03166000036137085760028401546001600160401b03848116600160401b90920416146136d3576136d361499a565b600182015460028501805467ffffffffffffffff60401b19166001600160401b03909216600160401b02919091179055613770565b60028401546001600160401b03600160401b90910481169084160361372f5761372f61499a565b600180830154600160401b81046001600160401b039081166000908152602088905260409020909201805467ffffffffffffffff1916929091169190911790555b6001820154600160801b90046001600160401b03166000036137d55780546001600160401b038481169116146137a8576137a861499a565b60018201548154600160c01b9091046001600160401b031667ffffffffffffffff1990911617815561383b565b80546001600160401b03908116908416036137f2576137f261499a565b6001828101546001600160401b03600160801b82048116600090815260208890526040902090920180546001600160c01b0316600160c01b928390049093169091029190911790555b6001820154600160c01b90046001600160401b03166000036138ae5780546001600160401b03848116600160401b909204161461387a5761387a61499a565b6001820154815467ffffffffffffffff60401b1916600160801b9091046001600160401b0316600160401b02178155613920565b80546001600160401b03600160401b9091048116908416036138d2576138d261499a565b6001828101546001600160401b03600160c01b820481166000908152602088905260409020909201805467ffffffffffffffff60801b1916600160801b928390049093169091029190911790555b50506001600160401b031660009081526020919091526040812080546001600160e01b031916815560010155565b7f341c6685fdb8ed7133465b64f545b9fbc5699a59cbd1ad98992e5c070a74c5106102b07f341c6685fdb8ed7133465b64f545b9fbc5699a59cbd1ad98992e5c070a74c5118484613d15565b6000806000806139aa8686613d7e565b9150915060006139ba8388613e5c565b905060006139c88389613e5c565b9050836040015194506139db8282613f1d565b9550505050509250929050565b600060028260028111156139fe576139fe6149b0565b03613a0b57613a0b61499a565b6000805160206151848339815191526000836002811115613a2e57613a2e6149b0565b03613a6a57600484015481548291610100900461ffff16908110613a5457613a54614b17565b906000526020600020906004020191505061015a565b6004840154815482916301000000900461ffff16908110613a5457613a54614b17565b5092915050565b600080826002811115613aa957613aa96149b0565b03613ac557506004820154600160f01b9004600116151561015a565b6001826002811115613ad957613ad96149b0565b14613ae657613ae661499a565b506004820154600160f01b9004600216151561015a565b6000613b0b6103e84361512e565b613b16906001615142565b905090565b6001600160a01b03811660009081527f1309a575a1ebd5e5ca64d58e63b864f1d06aed3e31a021b0eabae653c215fb07602052604081207f1309a575a1ebd5e5ca64d58e63b864f1d06aed3e31a021b0eabae653c215fb069082613b7e426103c6565b83548354919250600091613b9e916001600160401b039081169116614ab7565b9050613baa8183613f2c565b835467ffffffffffffffff19166001600160401b03919091169081178455610f4890839061497a565b600080600080613be1610f52565b600a8101549091506001600160a01b03168515613c725760405163e4a0a55b60e01b81526001600160a01b0382169063e4a0a55b90613c24908a906004016150ac565b606060405180830381865afa158015613c41573d6000803e3d6000fd5b505050506040513d601f19601f82011682018060405250810190613c659190615155565b945094509450505061336c565b60405163524f388960e01b81526001600160a01b0382169063524f388990613c24908a906004016150ac565b600080613ca9610f52565b905060006009613cb9878a615142565b613cc39190615142565b600a830154909150600090613ce3908690600160a81b900460ff16615142565b905080821015613cf557613cf561499a565b610b86613d028284614b04565b613d0d90600a614ffe565b87908a613373565b6001600160a01b0382166000908152600484016020526040812090613d3982613f4e565b90506000613d4686613f4e565b9050613d53834286613fe9565b613d744283613d628785614ab7565b613d6c919061497a565b889190613fe9565b611112868461435b565b613da36040805160608101909152806000815260200160008152602001600081525090565b613dc86040805160608101909152806000815260200160008152602001600081525090565b6000613dd485856139e8565b90506000613de3868684614398565b9050600080613df184614499565b915091506040518060600160405280886002811115613e1257613e126149b0565b81526020018481526020018381525095506040518060600160405280886002811115613e4057613e406149b0565b8152602001848152602001828152509450505050509250929050565b600080600184516002811115613e7457613e746149b0565b14613e93576005830154600160801b90046001600160401b0316613ea9565b6005830154600160c01b90046001600160401b03165b60058401546001600160401b0391821692506000918391613ed59181811691600160401b900416615142565b613edf9190615142565b90506000613ef18287604001516121cb565b905080600003613f0b576402540be400935050505061015a565b6020860151610f489061271083613373565b60008183116129ac578161023c565b6000816001600160401b0316836001600160401b031610156129ac578161023c565b6001810154600090600160401b90046001600160401b03168103613f7457506000919050565b60018201546001600160401b03808216600160401b9092041611613f9a57613f9a61499a565b6001828101548391600091613fbf9190600160401b90046001600160401b031661497a565b6001600160401b039081168252602082019290925260400160002054600160c01b90041692915050565b6001830154600160401b90046001600160401b03166000036141085760018301546001600160401b0316156140205761402061499a565b604051806060016040528060006001600160801b03168152602001614044846103c6565b6001600160401b0390811682528381166020909201919091526001850180548692600092600160401b9092041690600861407d83615023565b82546001600160401b039182166101009390930a92830292820219169190911790915590811682526020808301939093526040918201600020845181549486015195909301518216600160c01b026001600160c01b0395909216600160801b026001600160c01b03199094166001600160801b03909316929092179290921792909216179055505050565b60018301546001600160401b03808216600160401b909204161161412e5761412e61499a565b6001838101546000918591839161415491600160401b90046001600160401b031661497a565b6001600160401b03908116825260208201929092526040016000208054909250600160801b9004168390036141a65780546001600160c01b0316600160c01b6001600160401b03841602178155614355565b8054600160801b90046001600160401b031683116142175760405162461bcd60e51b815260206004820152602860248201527f54696d6543756d756c61746976653a2074696d657374616d70206e6f7420696e6044820152676372656173696e6760c01b6064820152608401610329565b805460009061423690600160801b90046001600160401b031685614b04565b82546142529190600160c01b90046001600160401b0316614d77565b825461426791906001600160801b0316615142565b9050604051806060016040528061427d83612e35565b6001600160801b03168152602001614294866103c6565b6001600160401b0390811682528581166020909201919091526001870180548892600092600160401b909204169060086142cd83615023565b82546001600160401b039182166101009390930a92830292820219169190911790915590811682526020808301939093526040918201600020845181549486015195909301518216600160c01b026001600160c01b0395909216600160801b026001600160c01b03199094166001600160801b03909316929092179290921792909216179055505b50505050565b600382015460009061437e908490600160c01b90046001600160401b0316614548565b905061438c82826002614583565b6102b083826002614583565b60006143a382614654565b6143af5750600061023c565b60018360028111156143c3576143c36149b0565b0361443c57835460408051634ac8eb5f60e01b815290516001600160a01b0390921691634ac8eb5f916004808201926020929091908290030181865afa158015614411573d6000803e3d6000fd5b505050506040513d601f19601f82011682018060405250810190614435919061500a565b905061023c565b81546001600160a01b03166370a08231614455866122fe565b6040516001600160e01b031960e084901b1681526001600160a01b039091166004820152602401602060405180830381865afa158015614411573d6000803e3d6000fd5b60008060006144a6610f52565b905060008060006144b88760006131b4565b92509250925060008060006144ce8a60016131b4565b60108a0154929550909350915060009085906144fa90600160c01b90046001600160401b031684615142565b1015801561452757506010880154869061452490600160c01b90046001600160401b031685615142565b10155b9050869950806145375786614539565b835b98505050505050505050915091565b600382015460009061456b908390600160401b90046001600160401b0316614d77565b600384015461023c91906001600160401b0316615142565b60018301546001600160401b0380821691600160401b90041660005b83811080156145b75750816145b5846001615142565b105b80156145f05750848660006145cd866001615142565b8152602081019190915260400160002054600160801b90046001600160401b0316105b1561461f5760008381526020879052604081205561460d83614ad7565b925061461881614ad7565b905061459f565b614628836103c6565b600196909601805467ffffffffffffffff19166001600160401b03909716969096179095555050505050565b8054600090600160b01b90046001600160401b0316158061015a5750505442600160b01b9091046001600160401b03161190565b50805461469490614ddf565b6000825580601f106146a4575050565b601f01602090049060005260206000209081019061018891905b8082111561042e57600081556001016146be565b6001600160a01b038116811461018857600080fd5b6000602082840312156146f957600080fd5b813561023c816146d2565b6000806040838503121561471757600080fd5b82356001600160401b0381111561472d57600080fd5b83016040818603121561473f57600080fd5b946020939093013593505050565b6000806040838503121561476057600080fd5b823561473f816146d2565b634e487b7160e01b600052604160045260246000fd5b600082601f83011261479257600080fd5b81356001600160401b03808211156147ac576147ac61476b565b604051601f8301601f19908116603f011681019082821181831017156147d4576147d461476b565b816040528381528660208588010111156147ed57600080fd5b836020870160208301376000602085830101528094505050505092915050565b60008060006060848603121561482257600080fd5b8335925060208401356001600160401b0381111561483f57600080fd5b61484b86828701614781565b925050604084013561485c816146d2565b809150509250925092565b600080600080600060a0868803121561487f57600080fd5b853561488a816146d2565b9450602086013561489a816146d2565b93506040860135925060608601356001600160401b038111156148bc57600080fd5b6148c888828901614781565b92505060808601356148d9816146d2565b809150509295509295909350565b6000806000606084860312156148fc57600080fd5b8335614907816146d2565b92506020840135614917816146d2565b929592945050506040919091013590565b634e487b7160e01b600052601260045260246000fd5b60006001600160401b038084168061495857614958614928565b92169190910692915050565b634e487b7160e01b600052601160045260246000fd5b6001600160401b03828116828216039080821115613a8d57613a8d614964565b634e487b7160e01b600052600160045260246000fd5b634e487b7160e01b600052602160045260246000fd5b6000823560be198336030181126149dc57600080fd5b9190910192915050565b60008235601e198336030181126149dc57600080fd5b6000808335601e19843603018112614a1357600080fd5b8301803591506001600160401b03821115614a2d57600080fd5b602001915036819003821315614a4257600080fd5b9250929050565b8183823760009101908152919050565b60008235605e198336030181126149dc57600080fd5b801515811461018857600080fd5b600060208284031215614a8f57600080fd5b813561023c81614a6f565b600060208284031215614aac57600080fd5b815161023c81614a6f565b6001600160401b03818116838216019080821115613a8d57613a8d614964565b600060018201614ae957614ae9614964565b5060010190565b600082614aff57614aff614928565b500490565b8181038181111561015a5761015a614964565b634e487b7160e01b600052603260045260246000fd5b6000823560be19833603018112614b4357600080fd5b90910192915050565b80356001600160401b0381168114614b6357600080fd5b919050565b6000808335601e19843603018112614b7f57600080fd5b83016020810192503590506001600160401b03811115614b9e57600080fd5b803603821315614a4257600080fd5b81835281816020850137506000828201602090810191909152601f909101601f19169091010190565b60008235605e19833603018112614b4357600080fd5b60008135614bf981614a6f565b15158352614c0a6020830183614b68565b60606020860152614c1f606086018284614bad565b915050604083013560408501528091505092915050565b80358252602081013560208301526000614c5260408301614b4c565b6001600160401b03808216604086015280614c6f60608601614b4c565b16606086015250506080820135601e19833603018112614c8e57600080fd5b60c060808501528201614ca18180614b68565b9150602060c0860152614cb860e086018383614bad565b915050614cc860a0840184614bd6565b84820360a0860152612d9b8282614bec565b6020815260008235601e19843603018112614cf457600080fd5b83016020810190356001600160401b03811115614d1057600080fd5b8060051b803603831315614d2357600080fd5b60406020860152606085018290526001600160fb1b03821115614d4557600080fd5b8083608087013784019150614d5f90506020850185614b2d565b6060848303016040850152612d9b6080830182614c36565b808202811582820484141761015a5761015a614964565b60006001600160401b0380841680614da857614da8614928565b92169190910492915050565b6001600160401b03818116838216028082169190828114614dd757614dd7614964565b505092915050565b600181811c90821680614df357607f821691505b602082108103610e4a57634e487b7160e01b600052602260045260246000fd5b601f8211156102b0576000816000526020600020601f850160051c81016020861015614e3c5750805b601f850160051c820191505b8181101561111257828155600101614e48565b81516001600160401b03811115614e7457614e7461476b565b614e8881614e828454614ddf565b84614e13565b602080601f831160018114614ebd5760008415614ea55750858301515b600019600386901b1c1916600185901b178555611112565b600085815260208120601f198616915b82811015614eec57888601518255948401946001909101908401614ecd565b5085821015614f0a5787850151600019600388901b60f8161c191681555b5050505050600190811b01905550565b600181815b80851115614f55578160001904821115614f3b57614f3b614964565b80851615614f4857918102915b93841c9390800290614f1f565b509250929050565b600082614f6c5750600161015a565b81614f795750600061015a565b8160018114614f8f5760028114614f9957614fb5565b600191505061015a565b60ff841115614faa57614faa614964565b50506001821b61015a565b5060208310610133831016604e8410600b8410161715614fd8575081810a61015a565b614fe28383614f1a565b8060001904821115614ff657614ff6614964565b029392505050565b600061023c8383614f5d565b60006020828403121561501c57600080fd5b5051919050565b60006001600160401b0380831681810361503f5761503f614964565b6001019392505050565b60006020828403121561505b57600080fd5b815161023c816146d2565b6000815180845260005b8181101561508c57602081850181015186830182015201615070565b506000602082860101526020601f19601f83011685010191505092915050565b60208152600061023c6020830184615066565b60006101208083526150d38184018d615066565b6001600160801b039b8c16602085015299909a166040830152506001600160401b03968716606082015294861660808601529290941660a084015260c08301526001600160a01b0390921660e0820152610100015292915050565b60008261513d5761513d614928565b500690565b8082018082111561015a5761015a614964565b60008060006060848603121561516a57600080fd5b835192506020840151915060408401519050925092509256feec7e8c1c441439dd40959777f4c577ea0cd42fcc1dbe59d2bd0f5d9c55df8db60cd2207518cd3e5213e2c6dbe63d55b60aa893c194a427b7d7f1600408fd5bdea2646970667358221220e5091deef43edbd3c635b11bc5a5d6a76700c2287173cea2b789ccf072b0927864736f6c63430008170033",
  "linkReferences": {},
  "deployedLinkReferences": {}
}