{
  "_format": "hh-sol-artifact-1",
  "contractName": "RedemptionRequestsFacet",
  "sourceName": "contracts/assetManager/facets/RedemptionRequestsFacet.sol",
  "abi": [
    {
      "inputs": [],
      "name": "AddressValid",
      "type": "error"
    },
    {
      "inputs": [],
      "name": "AddressValidityNotProven",
      "type": "error"
    },
    {
      "inputs": [],
      "name": "CannotRedeemToAgentsAddress",
      "type": "error"
    },
    {
      "inputs": [],
      "name": "DivisionByZero",
      "type": "error"
    },
    {
      "inputs": [],
      "name": "EmergencyPauseActive",
      "type": "error"
    },
    {
      "inputs": [],
      "name": "ExecutorFeeWithoutExecutor",
      "type": "error"
    },
    {
      "inputs": [],
      "name": "InvalidAgentVaultAddress",
      "type": "error"
    },
    {
      "inputs": [],
      "name": "InvalidChain",
      "type": "error"
    },
    {
      "inputs": [],
      "name": "InvalidRedemptionStatus",
      "type": "error"
    },
    {
      "inputs": [],
      "name": "InvalidRequestId",
      "type": "error"
    },
    {
      "inputs": [],
      "name": "InvalidTicketId",
      "type": "error"
    },
    {
      "inputs": [],
      "name": "NotAttached",
      "type": "error"
    },
    {
      "inputs": [],
      "name": "NotWhitelisted",
      "type": "error"
    },
    {
      "inputs": [],
      "name": "OnlyAgentVaultOwner",
      "type": "error"
    },
    {
      "inputs": [],
      "name": "OnlyAssetManagerController",
      "type": "error"
    },
    {
      "inputs": [],
      "name": "OnlyCollateralPool",
      "type": "error"
    },
    {
      "inputs": [],
      "name": "OnlyImmediateGovernanceOrExecutor",
      "type": "error"
    },
    {
      "inputs": [],
      "name": "RedeemZeroLots",
      "type": "error"
    },
    {
      "inputs": [],
      "name": "RedemptionOfZero",
      "type": "error"
    },
    {
      "inputs": [],
      "name": "ReentrancyGuardReentrantCall",
      "type": "error"
    },
    {
      "inputs": [],
      "name": "SelfCloseOfZero",
      "type": "error"
    },
    {
      "inputs": [],
      "name": "UnderlyingAddressTooLong",
      "type": "error"
    },
    {
      "inputs": [],
      "name": "WrongAddress",
      "type": "error"
    },
    {
      "anonymous": false,
      "inputs": [
        {
          "indexed": true,
          "internalType": "address",
          "name": "agentVault",
          "type": "address"
        },
        {
          "indexed": false,
          "internalType": "uint256",
          "name": "dustUBA",
          "type": "uint256"
        }
      ],
      "name": "DustChanged",
      "type": "event"
    },
    {
      "anonymous": false,
      "inputs": [
        {
          "indexed": true,
          "internalType": "address",
          "name": "agentVault",
          "type": "address"
        }
      ],
      "name": "LiquidationEnded",
      "type": "event"
    },
    {
      "anonymous": false,
      "inputs": [
        {
          "indexed": true,
          "internalType": "address",
          "name": "agentVault",
          "type": "address"
        },
        {
          "indexed": true,
          "internalType": "address",
          "name": "redeemer",
          "type": "address"
        },
        {
          "indexed": false,
          "internalType": "uint256",
          "name": "redemptionAmountUBA",
          "type": "uint256"
        },
        {
          "indexed": false,
          "internalType": "uint256",
          "name": "paidVaultCollateralWei",
          "type": "uint256"
        }
      ],
      "name": "RedeemedInCollateral",
      "type": "event"
    },
    {
      "anonymous": false,
      "inputs": [
        {
          "indexed": true,
          "internalType": "address",
          "name": "agentVault",
          "type": "address"
        },
        {
          "indexed": true,
          "internalType": "address",
          "name": "redeemer",
          "type": "address"
        },
        {
          "indexed": true,
          "internalType": "uint256",
          "name": "requestId",
          "type": "uint256"
        },
        {
          "indexed": false,
          "internalType": "uint256",
          "name": "redemptionAmountUBA",
          "type": "uint256"
        }
      ],
      "name": "RedemptionRejected",
      "type": "event"
    },
    {
      "anonymous": false,
      "inputs": [
        {
          "indexed": true,
          "internalType": "address",
          "name": "redeemer",
          "type": "address"
        },
        {
          "indexed": false,
          "internalType": "uint256",
          "name": "remainingLots",
          "type": "uint256"
        }
      ],
      "name": "RedemptionRequestIncomplete",
      "type": "event"
    },
    {
      "anonymous": false,
      "inputs": [
        {
          "indexed": true,
          "internalType": "address",
          "name": "agentVault",
          "type": "address"
        },
        {
          "indexed": true,
          "internalType": "address",
          "name": "redeemer",
          "type": "address"
        },
        {
          "indexed": true,
          "internalType": "uint256",
          "name": "requestId",
          "type": "uint256"
        },
        {
          "indexed": false,
          "internalType": "string",
          "name": "paymentAddress",
          "type": "string"
        },
        {
          "indexed": false,
          "internalType": "uint256",
          "name": "valueUBA",
          "type": "uint256"
        },
        {
          "indexed": false,
          "internalType": "uint256",
          "name": "feeUBA",
          "type": "uint256"
        },
        {
          "indexed": false,
          "internalType": "uint256",
          "name": "firstUnderlyingBlock",
          "type": "uint256"
        },
        {
          "indexed": false,
          "internalType": "uint256",
          "name": "lastUnderlyingBlock",
          "type": "uint256"
        },
        {
          "indexed": false,
          "internalType": "uint256",
          "name": "lastUnderlyingTimestamp",
          "type": "uint256"
        },
        {
          "indexed": false,
          "internalType": "bytes32",
          "name": "paymentReference",
          "type": "bytes32"
        },
        {
          "indexed": false,
          "internalType": "address",
          "name": "executor",
          "type": "address"
        },
        {
          "indexed": false,
          "internalType": "uint256",
          "name": "executorFeeNatWei",
          "type": "uint256"
        }
      ],
      "name": "RedemptionRequested",
      "type": "event"
    },
    {
      "anonymous": false,
      "inputs": [
        {
          "indexed": true,
          "internalType": "address",
          "name": "agentVault",
          "type": "address"
        },
        {
          "indexed": true,
          "internalType": "uint256",
          "name": "redemptionTicketId",
          "type": "uint256"
        },
        {
          "indexed": false,
          "internalType": "uint256",
          "name": "ticketValueUBA",
          "type": "uint256"
        }
      ],
      "name": "RedemptionTicketCreated",
      "type": "event"
    },
    {
      "anonymous": false,
      "inputs": [
        {
          "indexed": true,
          "internalType": "address",
          "name": "agentVault",
          "type": "address"
        },
        {
          "indexed": true,
          "internalType": "uint256",
          "name": "redemptionTicketId",
          "type": "uint256"
        }
      ],
      "name": "RedemptionTicketDeleted",
      "type": "event"
    },
    {
      "anonymous": false,
      "inputs": [
        {
          "indexed": true,
          "internalType": "address",
          "name": "agentVault",
          "type": "address"
        },
        {
          "indexed": true,
          "internalType": "uint256",
          "name": "redemptionTicketId",
          "type": "uint256"
        },
        {
          "indexed": false,
          "internalType": "uint256",
          "name": "ticketValueUBA",
          "type": "uint256"
        }
      ],
      "name": "RedemptionTicketUpdated",
      "type": "event"
    },
    {
      "anonymous": false,
      "inputs": [
        {
          "indexed": false,
          "internalType": "uint256",
          "name": "firstTicketId",
          "type": "uint256"
        },
        {
          "indexed": false,
          "internalType": "uint256",
          "name": "nextTicketId",
          "type": "uint256"
        }
      ],
      "name": "RedemptionTicketsConsolidated",
      "type": "event"
    },
    {
      "anonymous": false,
      "inputs": [
        {
          "indexed": true,
          "internalType": "address",
          "name": "agentVault",
          "type": "address"
        },
        {
          "indexed": false,
          "internalType": "uint256",
          "name": "valueUBA",
          "type": "uint256"
        }
      ],
      "name": "SelfClose",
      "type": "event"
    },
    {
      "inputs": [
        {
          "internalType": "uint256",
          "name": "_firstTicketId",
          "type": "uint256"
        }
      ],
      "name": "consolidateSmallTickets",
      "outputs": [],
      "stateMutability": "nonpayable",
      "type": "function"
    },
    {
      "inputs": [
        {
          "internalType": "address",
          "name": "_agentVault",
          "type": "address"
        }
      ],
      "name": "convertDustToTicket",
      "outputs": [],
      "stateMutability": "nonpayable",
      "type": "function"
    },
    {
      "inputs": [
        {
          "internalType": "address",
          "name": "_agentVault",
          "type": "address"
        }
      ],
      "name": "maxRedemptionFromAgent",
      "outputs": [
        {
          "internalType": "uint256",
          "name": "",
          "type": "uint256"
        }
      ],
      "stateMutability": "view",
      "type": "function"
    },
    {
      "inputs": [
        {
          "internalType": "uint256",
          "name": "_lots",
          "type": "uint256"
        },
        {
          "internalType": "string",
          "name": "_redeemerUnderlyingAddressString",
          "type": "string"
        },
        {
          "internalType": "address payable",
          "name": "_executor",
          "type": "address"
        }
      ],
      "name": "redeem",
      "outputs": [
        {
          "internalType": "uint256",
          "name": "_redeemedAmountUBA",
          "type": "uint256"
        }
      ],
      "stateMutability": "payable",
      "type": "function"
    },
    {
      "inputs": [
        {
          "internalType": "address",
          "name": "_agentVault",
          "type": "address"
        },
        {
          "internalType": "address",
          "name": "_receiver",
          "type": "address"
        },
        {
          "internalType": "uint256",
          "name": "_amountUBA",
          "type": "uint256"
        },
        {
          "internalType": "string",
          "name": "_receiverUnderlyingAddress",
          "type": "string"
        },
        {
          "internalType": "address payable",
          "name": "_executor",
          "type": "address"
        }
      ],
      "name": "redeemFromAgent",
      "outputs": [],
      "stateMutability": "payable",
      "type": "function"
    },
    {
      "inputs": [
        {
          "internalType": "address",
          "name": "_agentVault",
          "type": "address"
        },
        {
          "internalType": "address",
          "name": "_receiver",
          "type": "address"
        },
        {
          "internalType": "uint256",
          "name": "_amountUBA",
          "type": "uint256"
        }
      ],
      "name": "redeemFromAgentInCollateral",
      "outputs": [],
      "stateMutability": "nonpayable",
      "type": "function"
    },
    {
      "inputs": [
        {
          "components": [
            {
              "internalType": "bytes32[]",
              "name": "merkleProof",
              "type": "bytes32[]"
            },
            {
              "components": [
                {
                  "internalType": "bytes32",
                  "name": "attestationType",
                  "type": "bytes32"
                },
                {
                  "internalType": "bytes32",
                  "name": "sourceId",
                  "type": "bytes32"
                },
                {
                  "internalType": "uint64",
                  "name": "votingRound",
                  "type": "uint64"
                },
                {
                  "internalType": "uint64",
                  "name": "lowestUsedTimestamp",
                  "type": "uint64"
                },
                {
                  "components": [
                    {
                      "internalType": "string",
                      "name": "addressStr",
                      "type": "string"
                    }
                  ],
                  "internalType": "struct IAddressValidity.RequestBody",
                  "name": "requestBody",
                  "type": "tuple"
                },
                {
                  "components": [
                    {
                      "internalType": "bool",
                      "name": "isValid",
                      "type": "bool"
                    },
                    {
                      "internalType": "string",
                      "name": "standardAddress",
                      "type": "string"
                    },
                    {
                      "internalType": "bytes32",
                      "name": "standardAddressHash",
                      "type": "bytes32"
                    }
                  ],
                  "internalType": "struct IAddressValidity.ResponseBody",
                  "name": "responseBody",
                  "type": "tuple"
                }
              ],
              "internalType": "struct IAddressValidity.Response",
              "name": "data",
              "type": "tuple"
            }
          ],
          "internalType": "struct IAddressValidity.Proof",
          "name": "_proof",
          "type": "tuple"
        },
        {
          "internalType": "uint256",
          "name": "_redemptionRequestId",
          "type": "uint256"
        }
      ],
      "name": "rejectInvalidRedemption",
      "outputs": [],
      "stateMutability": "nonpayable",
      "type": "function"
    },
    {
      "inputs": [
        {
          "internalType": "address",
          "name": "_agentVault",
          "type": "address"
        },
        {
          "internalType": "uint256",
          "name": "_amountUBA",
          "type": "uint256"
        }
      ],
      "name": "selfClose",
      "outputs": [
        {
          "internalType": "uint256",
          "name": "_closedAmountUBA",
          "type": "uint256"
        }
      ],
      "stateMutability": "nonpayable",
      "type": "function"
    }
  ],
  "bytecode": "0x6080604052348015600f57600080fd5b506148238061001f6000396000f3fe60806040526004361061007b5760003560e01c806399646d1c1161004e57806399646d1c14610114578063997be0f414610127578063df6f36631461013a578063ed000b301461015a57600080fd5b80631e8bee011461008057806365454f94146100b257806387375f27146100d45780639584da2a146100f4575b600080fd5b34801561008c57600080fd5b506100a061009b366004613d04565b61017a565b60405190815260200160405180910390f35b3480156100be57600080fd5b506100d26100cd366004613d04565b61028a565b005b3480156100e057600080fd5b506100d26100ef366004613d21565b610349565b34801561010057600080fd5b506100a061010f366004613d6a565b6105a2565b6100a0610122366004613e2b565b610684565b6100d2610135366004613e85565b6108c0565b34801561014657600080fd5b506100d2610155366004613f05565b61099c565b34801561016657600080fd5b506100d2610175366004613f1e565b610afa565b60008061018683610c41565b60068101549091506000805160206147ae833981519152906001600160401b031660006101b1610cdc565b600f0154600160801b900461ffff169050600060088401816101d287610d00565b6001600160a01b0316815260208101919091526040016000908120546001600160401b031691505b6001600160401b0382161580159061021157508281105b15610275576001600160401b03828116600090815260078701602052604090208054909161024791600160a01b90041686613f75565b6001909101549094506001600160401b03600160c01b9091041691508061026d81613f94565b9150506101fa565b5061027f83610d28565b979650505050505050565b6102946001610d59565b61029c610da8565b60006102a6610cdc565b905060006102b383610c41565b600d83015460068201549192506001600160401b0390811691161061032d57600d82015460068201546000916102f5916001600160401b039182169116613fc3565b60068301549091506000906103149083906001600160401b0316613ff1565b90506103208382610de0565b61032a8383610f84565b50505b505061034660016000805160206147ce83398151915255565b50565b6103536002610d59565b61035b610da8565b600061036882600161101a565b600881015490915060ff161561038057610380614010565b600481015460009061039a906001600160a01b0316610c41565b905060016004830154600160a01b900460ff1660068111156103be576103be614026565b146103dc57604051638336ad7d60e01b815260040160405180910390fd5b6103e5816110ce565b6103ee846110f5565b60006103fd602086018661403c565b61040b90608081019061405c565b6104159080614072565b6040516104239291906140b8565b604051809103902090508260000154811461045157604051630d23cf4160e11b815260040160405180910390fd5b6000610460602087018761403c565b61046e9060a08101906140c8565b61047c9060208101906140ec565b80156104a657508354610492602088018861403c565b6104a09060a08101906140c8565b60400135145b905080156104c757604051631e99ffed60e01b815260040160405180910390fd5b6104fa838560020160189054906101000a90046001600160401b03168660040160159054906101000a900460ff166111cf565b61050384611269565b600284015460009061052490600160c01b90046001600160401b0316610d28565b6003860154600487015460405183815292935088926001600160a01b0392831692909116907f94d66df0cc76b15bc59edd2c5f5b565292490a6ef58fde83e3bfaef6671627af9060200160405180910390a4610582868660066112ee565b505050505061059e60016000805160206147ce83398151915255565b5050565b60006105ae6001610d59565b6105b6610da8565b826105c081611346565b60006105cb85610c41565b9050836000036105ee57604051634910298d60e11b815260040160405180910390fd5b60006105f985611358565b9050600061060983836001611389565b9150506106163382611540565b61061f836115a8565b866001600160a01b03167f27a9c0ea115e1a078f8a4ddd385379102c3138ded0ddd00bf9cc5ee197457dc88260405161065a91815260200190565b60405180910390a2935050505061067e60016000805160206147ce83398151915255565b92915050565b60006106906001610d59565b610698610da8565b60006106a2610cdc565b600f0160109054906101000a900461ffff1661ffff16905060006040518060400160405280836001600160401b038111156106df576106df613d88565b60405190808252806020026020018201604052801561072457816020015b60408051808201909152600080825260208201528152602001906001900390816106fd5790505b508152602001600081525090506000805b838110801561074357508782105b156107905760008061075e610758858c614109565b86611685565b91509150811561076f575050610790565b610779818561411c565b93505050808061078890613f94565b915050610735565b50806000036107b25760405163882ccad960e01b815260040160405180910390fd5b60006107c2633b9aca003461412f565b905060005b836020015181101561083e5760008185602001516107e59190614109565b6107ef908461412f565b90506107fb8184614109565b92506108348560000151838151811061081657610816614143565b6020026020010151338b60008c61082c876118b8565b600080611929565b50506001016107c7565b508782101561088557337fffb29516defd624d1f4ff8436cc96282ba7b4294c3a18cf274c3bdf21c9ccd99610873848b614109565b60405190815260200160405180910390a25b600061089083611dfb565b905061089c3382611540565b9450505050506108b960016000805160206147ce83398151915255565b9392505050565b6108ca6001610d59565b6108d2610da8565b60006108dd86610c41565b90506108e881611e3b565b83600003610909576040516345a22e4360e01b815260040160405180910390fd5b600061091485611358565b905060008061092584846000611389565b604080518082019091526001600160a01b038c1681526001600160401b0383166020820152919350915061096e818a8960018a61082c610969633b9aca003461412f565b6118b8565b506109793383611540565b505050505061099560016000805160206147ce83398151915255565b5050505050565b6109a66001610d59565b6109ae610da8565b6109b6611e65565b6000805160206147ae83398151915260006109cf610cdc565b600f0154600160801b900461ffff16905060008381036109fc5760098301546001600160401b0316610a05565b610a05846118b8565b90508060005b83811015610a9b576001600160401b03821615610a9b576001600160401b0382166000908152600786016020526040902081151580610a53575080546001600160a01b031615155b610a705760405163369cb27760e01b815260040160405180910390fd5b6001810154600160401b90046001600160401b0316610a90846000611e8d565b925050600101610a0b565b50604080516001600160401b038085168252831660208201527ffcd4d7e3c741c278947117e3e41c09fb0e286bb07df70c221282891839f211b4910160405180910390a15050505061034660016000805160206147ce83398151915255565b610b046001610d59565b610b0c610da8565b6000610b1784610c41565b9050610b2281611e3b565b81600003610b43576040516345a22e4360e01b815260040160405180910390fd5b6000610b4e83611358565b9050600080610b5f84846001611389565b60048601549193509150600090610b7e90610100900461ffff16612064565b600a860154909150600090610bb190600160801b900461ffff16610bab6001600160401b038716856120af565b906120c9565b9050610bbe8689836120d8565b50876001600160a01b0316896001600160a01b03167f25c177efe505ee9dd8e37b9825d729e1a27b6ac048c6e55ba91841d9a7fa9ecc8584604051610c0d929190918252602082015260400190565b60405180910390a3610c1f3384611540565b505050505050610c3c60016000805160206147ce83398151915255565b505050565b604081901b68010000000000000000600160e01b03167f5bebac0595fee029d42bb673937f5f1cb81cf8641382bc17774635de9b7d79651860048101546000919060ff1682816005811115610c9857610c98614026565b14158015610cb857506005816005811115610cb557610cb5614026565b14155b610cd55760405163d68a46c560e01b815260040160405180910390fd5b5092915050565b7f4f24f5c433db0962dac0d2c8b84197a6e6c7cc4e5d9ebe1916a1b6193da2f33a90565b7f5bebac0595fee029d42bb673937f5f1cb81cf8641382bc17774635de9b7d79651860401c90565b600080610d33610cdc565b600c8101549091506108b9906001600160401b03600160901b9091048116908516614159565b6000816003811115610d6d57610d6d614026565b610d756121e2565b6003811115610d8657610d86614026565b108015915061059e5760405163909b191760e01b815260040160405180910390fd5b6000805160206147ce833981519152805460011901610dda57604051633ee5aeb560e01b815260040160405180910390fd5b60029055565b6000805160206147ae8339815191526001600160401b038216600003610e0557505050565b6000610e1084610d00565b6009830154600160401b90046001600160401b031660008181526007850160205260409020805492935090916001600160a01b03808516911603610f0d57805485908290601490610e72908490600160a01b90046001600160401b0316613f75565b92506101000a8154816001600160401b0302191690836001600160401b031602179055506000610eb88260000160149054906101000a90046001600160401b0316610d28565b9050826001600160401b0316846001600160a01b03167f9d2e72c50be7927e999d37329649af37a863df77bcb25361699ce021d3d7475d83604051610eff91815260200190565b60405180910390a350610f7c565b6000610f1d600786018588612233565b90506000610f2a87610d28565b9050816001600160401b0316856001600160a01b03167f631f8f2039090539b2ea4ef7dc567f7f1939ef4dd3e790b1ca7bc548a1fada5883604051610f7191815260200190565b60405180910390a350505b505050505050565b60068201546001600160401b03808316911603610f9f575050565b60068201805467ffffffffffffffff19166001600160401b0383161790556000610fc882610d28565b9050610fd383610d00565b6001600160a01b03167fa3db2bc927901a1d3ba09ad51d84609457b98443be9132a0a936a47c5a1081b58260405161100d91815260200190565b60405180910390a2505050565b60006000805160206147ae83398151915283820361104b576040516302e8145360e61b815260040160405180910390fd5b6000848152600a8201602052604090209150821561108e5761106c8261263c565b611089576040516302e8145360e61b815260040160405180910390fd5b610cd5565b60006004830154600160a01b900460ff1660068111156110b0576110b0614026565b03610cd5576040516302e8145360e61b815260040160405180910390fd5b6110d88133612685565b6103465760405163f6e2f99b60e01b815260040160405180910390fd5b60006110ff610cdc565b6008810154600b8201549192506001600160a01b031690611123602085018561403c565b60200135146111455760405163057f3fa760e51b815260040160405180910390fd5b60405163f34ef58760e01b81526001600160a01b0382169063f34ef58790611171908690600401614328565b602060405180830381865afa15801561118e573d6000803e3d6000fd5b505050506040513d601f19601f820116820180604052508101906111b291906143c5565b610c3c5760405163f5c977e760e01b815260040160405180910390fd5b60058301546111ef908390600160801b90046001600160401b0316613ff1565b8360050160106101000a8154816001600160401b0302191690836001600160401b0316021790555080610c3c57600583015461123c908390600160c01b90046001600160401b0316613ff1565b8360050160186101000a8154816001600160401b0302191690836001600160401b03160217905550505050565b600581015460009061129090633b9aca0090600160a01b90046001600160401b0316614159565b9050801561059e5760058201805467ffffffffffffffff60a01b191690556112b66126c6565b6001600160a01b03166108fc829081150290604051600060405180830381858888f19350505050158015610c3c573d6000803e3d6000fd5b600381600681111561130257611302614026565b101561131057611310614010565b60048201805482919060ff60a01b1916600160a01b83600681111561133757611337614026565b0217905550610c3c83836126e4565b6110d861135282610c41565b33612685565b600080611363610cdc565b600c8101549091506108b99061096990600160901b90046001600160401b03168561412f565b6000806000805160206147ae833981519152816113a4610cdc565b600f0154600160801b900461ffff16905060006113bf610cdc565b600d01546001600160401b0316905060005b82811080156113f15750876001600160401b0316866001600160401b0316105b156114cf57600060088501816114068c610d00565b6001600160a01b0316815260208101919091526040016000908120546001600160401b0316915081900361143a57506114cf565b6001600160401b038181166000908152600787016020526040812060068d0154815491936114739291811691600160a01b900416613f75565b905061147f8582613fc3565b6114899082613ff1565b905060006114a061149a8b8e613ff1565b83612745565b90506114ac8482611e8d565b6114b6818b613f75565b99505050505080806114c790613f94565b9150506113d1565b5060006114f26114df878a613ff1565b60068b01546001600160401b0316612745565b90506001600160401b038116156115195761150d8187613f75565b9550611519898261276e565b8615611529576115298987612796565b61153286610d28565b945050505050935093915050565b6115486127e2565b604051632770a7eb60e21b81526001600160a01b038481166004830152602482018490529190911690639dc29fac90604401600060405180830381600087803b15801561159457600080fd5b505af1158015610f7c573d6000803e3d6000fd5b6002600482015460ff1660058111156115c3576115c3614026565b146115cb5750565b60006115d682612800565b905060006115e5836000612874565b905060006115f4846001612874565b90508183600001511015801561160e575080836020015110155b1561167f576004840180547fff00ff0000000000000000ffffffffffffffffffffffffffffffffffffffff0016600117905561164984610d00565b6001600160a01b03167fe513b42585b0ceec0d56d56fe3a23861c15a2f74eb4c32c94334d63d68ff4dcf60405160405180910390a25b50505050565b6000806000805160206147ae833981519152816116a0610cdc565b60098301549091506001600160401b031660008190036116ca5760016000945094505050506118b1565b6001600160401b0381166000908152600784016020526040812080549091506001600160a01b031660006116fd82610c41565b600d860154600682015485549293506000926001600160401b039283169261172f92811691600160a01b900416613f75565b61173991906143e2565b6001600160401b03169050600098506117528b826128ba565b9750871561189e576000611765896128c9565b905060005b8b60200151811080156117b05750846001600160a01b03168c60000151828151811061179857611798614143565b6020026020010151600001516001600160a01b031614155b156117c5576117be81613f94565b905061176a565b8b6020015181101561183157818c6000015182815181106117e8576117e8614143565b6020026020010151602001516117fe9190613f75565b8c5180518390811061181257611812614143565b6020908102919091018101516001600160401b0390921691015261188d565b6040518060400160405280866001600160a01b03168152602001836001600160401b03168152508c600001518d602001805180919061186f90613f94565b90528151811061188157611881614143565b60200260200101819052505b6118978783611e8d565b50506118a9565b6118a9856000611e8d565b505050505050505b9250929050565b60006001600160401b038211156119255760405162461bcd60e51b815260206004820152602660248201527f53616665436173743a2076616c756520646f65736e27742066697420696e203660448201526534206269747360d01b60648201526084015b60405180910390fd5b5090565b60006001600160401b038416158061194957506001600160a01b03851615155b61196657604051632a436fa560e21b815260040160405180910390fd5b88516000805160206147ae8339815191529060009061198490610c41565b905060808951106119a85760405163599ec1c160e01b815260040160405180910390fd5b885160208a0120600382015481036119d3576040516302908b3160e11b815260040160405180910390fd5b60006119ea6119e58e60200151610d28565b6128f3565b90506119f58a61295c565b9450611a8f6040805161026081018252600080825260208201819052918101829052606081018290526080810182905260a0810182905260c0810182905260e08101829052610100810182905261012081018290529061014082019081526000602082018190526040820181905260608083018290526080830182905260a0830182905260c083015260e082018190526101009091015290565b8281526001600160801b0382166020820152600f8501546201000090046001600160401b031660608201528d51611ac690896129f1565b6001600160401b0390811660a0840152166080820152611ae5426118b8565b6001600160401b031661010082015286611b2b57611b266119e5611b07610cdc565b600e01546001600160801b03851690600160401b900461ffff166120c9565b611b2e565b60005b6001600160801b031660408201526001600160a01b038d811660e08301528e511661012082015260208e01516001600160401b031660c082015260016101408201819052508a15156101608201526001600160a01b03808b166101808301526001600160401b03808b166101a084015261020083018e9052881515610220840152600c86015461ffff600160e01b909104166102408401528781166000908152600a880160209081526040918290208551815590850151918501516001600160801b03908116600160801b9081029382169390931760018301556060860151600283018054608089015160a08a015160c08b01518916600160c01b026001600160c01b03918a1690980216908816600160401b026001600160801b0319929092169388169390931717909216179290921790915560e0840151600382018054610100870151909416600160a01b9081026001600160e01b03199095169286169290921793909317909255610120840151600482018054919094166001600160a01b0319821681178555610140860151869593949093926001600160a81b03191690911790836006811115611ce457611ce4614026565b021790555061016082015160048201805460ff60a81b1916600160a81b921515929092029190911790556101808201516005820180546101a08501516001600160a01b039093166001600160e01b031990911617600160a01b6001600160401b03938416021790556101c08301516006830180546101e08601519284166001600160801b031990911617600160401b92909316919091029190911790556102008201516007820190611d969082614491565b50610220820151600890910180546102409093015161ffff166101000262ffff00199215159290921662ffffff199093169290921717905560208e0151611ddf9085908d612b09565b611dea81878e612bad565b505050505098975050505050505050565b600080611e06610cdc565b600c810154600d8201549192506001600160401b03600160901b909104811691611e31911685614159565b6108b99190614159565b80546001600160a01b0316331461034657604051636f6afbb360e01b815260040160405180910390fd5b611e6e33612c67565b611e8b5760405163a4138f6160e01b815260040160405180910390fd5b565b6001600160401b03821660009081527fec7e8c1c441439dd40959777f4c577ea0cd42fcc1dbe59d2bd0f5d9c55df8dbd602081905260408220805491929091611ede906001600160a01b0316610c41565b90506000611eea610cdc565b600d0154600683015484546001600160401b0392831693506000928892611f1d9290821691600160a01b90910416613f75565b611f279190613ff1565b90506000611f358383613fc3565b90506000611f438284613ff1565b9050806001600160401b0316600003611fad57611f60878a612d53565b886001600160401b0316611f7386610d00565b6001600160a01b03167fb7f65e70a51658e24800516a5dc90e2dd65176e18381adda77f58e2044482b1960405160405180910390a361204f565b85546001600160401b03828116600160a01b909204161461204f57855467ffffffffffffffff60a01b1916600160a01b6001600160401b038316021786556000611ff682610d28565b9050896001600160401b031661200b87610d00565b6001600160a01b03167f9d2e72c50be7927e999d37329649af37a863df77bcb25361699ce021d3d7475d8360405161204591815260200190565b60405180910390a3505b6120598583610f84565b505050505050505050565b6000806000805160206147ae83398151915290506120a581600001848154811061209057612090614143565b9060005260206000209060040201600061312d565b5090949350505050565b60006108b9826120c16009600a614636565b8591906132ec565b60006108b983836127106132ec565b6000806120e4856133f0565b905060006120f186610d00565b82546040516370a0823160e01b81526001600160a01b03808416600483015292935061216a92879216906370a0823190602401602060405180830381865afa158015612141573d6000803e3d6000fd5b505050506040513d601f19601f820116820180604052508101906121659190614642565b6128ba565b825460405163083e007560e21b81526001600160a01b0391821660048201528782166024820152604481018390529194508216906320f801d490606401600060405180830381600087803b1580156121c157600080fd5b505af11580156121d5573d6000803e3d6000fd5b5050505050509392505050565b6000806121ed61343d565b905060006121f96134a5565b905081600381111561220d5761220d614026565b81600381111561221f5761221f614026565b1161222a578161222c565b805b9250505090565b6001600160a01b0382166000908152600184016020526040812060028501805483919060109061227290600160801b90046001600160401b031661465b565b91906101000a8154816001600160401b0302191690836001600160401b03160217905590506040518060c00160405280866001600160a01b03168152602001856001600160401b031681526020018760020160089054906101000a90046001600160401b03166001600160401b0316815260200160006001600160401b031681526020018360000160089054906101000a90046001600160401b03166001600160401b0316815260200160006001600160401b0316815250866000016000836001600160401b03166001600160401b0316815260200190815260200160002060008201518160000160006101000a8154816001600160a01b0302191690836001600160a01b0316021790555060208201518160000160146101000a8154816001600160401b0302191690836001600160401b0316021790555060408201518160010160006101000a8154816001600160401b0302191690836001600160401b0316021790555060608201518160010160086101000a8154816001600160401b0302191690836001600160401b0316021790555060808201518160010160106101000a8154816001600160401b0302191690836001600160401b0316021790555060a08201518160010160186101000a8154816001600160401b0302191690836001600160401b031602179055509050508560020160009054906101000a90046001600160401b03166001600160401b03166000036124cf576002860154600160401b90046001600160401b0316156124ac576124ac614010565b60028601805467ffffffffffffffff19166001600160401b038316179055612537565b6002860154600160401b90046001600160401b03166000036124f3576124f3614010565b6002860154600160401b908190046001600160401b039081166000908152602089905260409020600101805467ffffffffffffffff60401b19169184169092021790555b6002860180546001600160401b03808416600160401b0267ffffffffffffffff60401b19909216919091179091558254166000036125ad578154600160401b90046001600160401b03161561258e5761258e614010565b815467ffffffffffffffff19166001600160401b038216178255612610565b8154600160401b90046001600160401b03166000036125ce576125ce614010565b81546001600160401b03600160401b909104811660009081526020889052604090206001018054918316600160c01b026001600160c01b039092169190911790555b815467ffffffffffffffff60401b1916600160401b6001600160401b0383160217909155949350505050565b6004810154600090600160a01b900460ff16600181600681111561266257612662614026565b14806108b95750600281600681111561267d5761267d614026565b149392505050565b60018201546000906001600160a01b03838116911614806108b957506126aa8361350d565b6001600160a01b0316826001600160a01b031614905092915050565b6000806126d1610cdc565b600901546001600160a01b031692915050565b600881015460ff161561059e57600481015460009061270b906001600160a01b0316610c41565b600c81015490915064010000000090046001600160401b0316839003610c3c57600c0180546bffffffffffffffff00000000191690555050565b6000816001600160401b0316836001600160401b0316111561276757816108b9565b5090919050565b600682015460009061278a9083906001600160401b0316613ff1565b9050610c3c8382610f84565b60058201546127b6908290600160401b90046001600160401b0316613ff1565b8260050160086101000a8154816001600160401b0302191690836001600160401b031602179055505050565b6000806127ed610cdc565b600101546001600160a01b031692915050565b61282b6040518060800160405280600081526020016000815260200160008152602001600081525090565b600080612839846000613586565b9150915060008061284b866001613586565b604080516080810182529687526020870192909252908501939093525050606082015292915050565b60008061288184846135e1565b905061288d8484613686565b6128a2576003015463ffffffff16905061067e565b60030154600160401b900463ffffffff16905061067e565b600081831061276757816108b9565b6000806128d4610cdc565b600d8101549091506108b990610969906001600160401b031685614159565b60006001600160801b038211156119255760405162461bcd60e51b815260206004820152602760248201527f53616665436173743a2076616c756520646f65736e27742066697420696e20316044820152663238206269747360c81b606482015260840161191c565b60006000805160206147ae833981519152816129766136ef565b600e8301546129959190600160401b90046001600160401b0316613f75565b90506000846129a55760006129a8565b60015b60ff166001196129b9846001613f75565b161790508083600e0160086101000a8154816001600160401b0302191690836001600160401b03160217905550809350505050919050565b6000806000805160206147ae83398151915281612a0c610cdc565b9050600085612a1a8861370d565b600f850154600160901b90046001600160401b0316612a38426118b8565b612a429190613ff1565b612a4c9190613f75565b612a569190613f75565b600c830154909150600090612a8a9063ffffffff16612a806001600160401b0385166103e8614159565b610969919061412f565b600d840154600f8601549192506001600160401b03600160981b909104811691612abc91849162010000900416613f75565b612ac69190613f75565b600e840154600f8601549197506001600160401b0390811691612af2918591600160501b900416613f75565b612afc9190613f75565b9450505050509250929050565b818360050160108282829054906101000a90046001600160401b0316612b2f9190613f75565b92506101000a8154816001600160401b0302191690836001600160401b0316021790555080612ba357818360050160188282829054906101000a90046001600160401b0316612b7e9190613f75565b92506101000a8154816001600160401b0302191690836001600160401b031602179055505b610c3c8383612796565b816001600160401b03168360e001516001600160a01b03168461012001516001600160a01b03167f8cbbd73a8d1b8b02a53c4c3b0ee34b472fe3099cc19bcfb57f1aae09e8a9847e848760200151886040015189606001518a608001518b60a00151612c218c6001600160401b03166137cf565b8d6101800151633b9aca008f6101a001516001600160401b0316612c459190614159565b604051612c5a999897969594939291906146cc565b60405180910390a4505050565b600080309050806001600160a01b0316635aa6e6756040518163ffffffff1660e01b8152600401602060405180830381865afa158015612cab573d6000803e3d6000fd5b505050506040513d601f19601f82011682018060405250810190612ccf919061473b565b6001600160a01b0316836001600160a01b031614806108b95750604051630debfda360e41b81526001600160a01b03848116600483015282169063debfda3090602401602060405180830381865afa158015612d2f573d6000803e3d6000fd5b505050506040513d601f19601f820116820180604052508101906108b991906143c5565b6001600160401b038116600090815260208390526040902080546001600160a01b0316612d8257612d82614010565b80546001600160a01b031660009081526001808501602052604082209083015490916001600160401b039091169003612e085760028401546001600160401b03848116911614612dd457612dd4614010565b6001820154600285018054600160401b9092046001600160401b031667ffffffffffffffff19909216919091179055612e70565b60028401546001600160401b0390811690841603612e2857612e28614010565b6001828101546001600160401b038082166000908152602088905260409020909201805467ffffffffffffffff60401b1916600160401b928390049093169091029190911790555b6001820154600160401b90046001600160401b0316600003612ee75760028401546001600160401b03848116600160401b9092041614612eb257612eb2614010565b600182015460028501805467ffffffffffffffff60401b19166001600160401b03909216600160401b02919091179055612f4f565b60028401546001600160401b03600160401b909104811690841603612f0e57612f0e614010565b600180830154600160401b81046001600160401b039081166000908152602088905260409020909201805467ffffffffffffffff1916929091169190911790555b6001820154600160801b90046001600160401b0316600003612fb45780546001600160401b03848116911614612f8757612f87614010565b60018201548154600160c01b9091046001600160401b031667ffffffffffffffff1990911617815561301a565b80546001600160401b0390811690841603612fd157612fd1614010565b6001828101546001600160401b03600160801b82048116600090815260208890526040902090920180546001600160c01b0316600160c01b928390049093169091029190911790555b6001820154600160c01b90046001600160401b031660000361308d5780546001600160401b03848116600160401b909204161461305957613059614010565b6001820154815467ffffffffffffffff60401b1916600160801b9091046001600160401b0316600160401b021781556130ff565b80546001600160401b03600160401b9091048116908416036130b1576130b1614010565b6001828101546001600160401b03600160c01b820481166000908152602088905260409020909201805467ffffffffffffffff60801b1916600160801b928390049093169091029190911790555b50506001600160401b031660009081526020919091526040812080546001600160e01b031916815560010155565b6000806000806000806131cc88600101805461314890614410565b80601f016020809104026020016040519081016040528092919081815260200182805461317490614410565b80156131c15780601f10613196576101008083540402835291602001916131c1565b820191906000526020600020905b8154815290600101906020018083116131a457829003601f168201915b5050505050886137f9565b8a549295509093509150600160f01b900460ff161561321357875460009061320290600160a81b900460ff1660018387866138c4565b96509194508493506132e592505050565b60008060006132ae8b600201805461322a90614410565b80601f016020809104026020016040519081016040528092919081815260200182805461325690614410565b80156132a35780601f10613278576101008083540402835291602001916132a3565b820191906000526020600020905b81548152906001019060200180831161328657829003601f168201915b50505050508b6137f9565b8d5492955090935091506000906132d290600160a81b900460ff1685848a896138c4565b99509497509095506132e5945050505050565b9250925092565b600080821161330e576040516323d359a360e01b815260040160405180910390fd5b8360000361331e575060006108b9565b8383028385828161333157613331613fad565b040361334f5782818161334657613346613fad565b049150506108b9565b50600061335c838661412f565b9050600061336a8487614758565b90506000613378858761412f565b905060006133868688614758565b9050856133938285614159565b61339d919061412f565b6133a78385614159565b6133b18387614159565b886133bc8689614159565b6133c69190614159565b6133d0919061411c565b6133da919061411c565b6133e4919061411c565b98975050505050505050565b6000806000805160206147ae83398151915260048401548154919250829161010090910461ffff1690811061342757613427614143565b9060005260206000209060040201915050919050565b7fec7e8c1c441439dd40959777f4c577ea0cd42fcc1dbe59d2bd0f5d9c55df8dc6546000906000805160206147ae8339815191529042600160401b9091046001600160401b0316118061349157600061222c565b5060110154600160901b900460ff16919050565b7fec7e8c1c441439dd40959777f4c577ea0cd42fcc1dbe59d2bd0f5d9c55df8dc7546000906000805160206147ae8339815191529042600160a01b9091046001600160401b031611806134f957600061222c565b5060110154600160981b900460ff16919050565b6000613517613948565b6001830154604051631f86345d60e31b81526001600160a01b03918216600482015291169063fc31a2e890602401602060405180830381865afa158015613562573d6000803e3d6000fd5b505050506040513d601f19601f8201168201806040525081019061067e919061473b565b6000806000806135968686613966565b9150915060006135a68388613a44565b905060006135b48389613a44565b90506135c8846040015184604001516128ba565b94506135d48282613a9b565b9550505050509250929050565b600060028260028111156135f7576135f7614026565b0361360457613604614010565b6000805160206147ae833981519152600083600281111561362757613627614026565b0361366357600484015481548291610100900461ffff1690811061364d5761364d614143565b906000526020600020906004020191505061067e565b6004840154815482916301000000900461ffff1690811061364d5761364d614143565b60008082600281111561369b5761369b614026565b036136b757506004820154600160f01b9004600116151561067e565b60018260028111156136cb576136cb614026565b146136d8576136d8614010565b506004820154600160f01b9004600216151561067e565b60006136fd6103e843614758565b61370890600161411c565b905090565b6001600160a01b03811660009081527f1309a575a1ebd5e5ca64d58e63b864f1d06aed3e31a021b0eabae653c215fb07602052604081207f1309a575a1ebd5e5ca64d58e63b864f1d06aed3e31a021b0eabae653c215fb069082613770426118b8565b83548354919250600091613790916001600160401b039081169116613f75565b905061379c8183613aaa565b835467ffffffffffffffff19166001600160401b039190911690811784556137c5908390613ff1565b9695505050505050565b60006001600160401b038211156137e8576137e8614010565b5067232128293320800160c11b1790565b600080600080613807610cdc565b600a8101549091506001600160a01b031685156138985760405163e4a0a55b60e01b81526001600160a01b0382169063e4a0a55b9061384a908a9060040161476c565b606060405180830381865afa158015613867573d6000803e3d6000fd5b505050506040513d601f19601f8201168201806040525081019061388b919061477f565b94509450945050506132e5565b60405163524f388960e01b81526001600160a01b0382169063524f38899061384a908a9060040161476c565b6000806138cf610cdc565b9050600060096138df878a61411c565b6138e9919061411c565b600a830154909150600090613909908690600160a81b900460ff1661411c565b90508082101561391b5761391b614010565b61393b6139288284614109565b61393390600a614636565b87908a6132ec565b9998505050505050505050565b600080613953610cdc565b600701546001600160a01b031692915050565b61398b6040805160608101909152806000815260200160008152602001600081525090565b6139b06040805160608101909152806000815260200160008152602001600081525090565b60006139bc85856135e1565b905060006139cb868684613acc565b90506000806139d984613bb8565b9150915060405180606001604052808860028111156139fa576139fa614026565b81526020018481526020018381525095506040518060600160405280886002811115613a2857613a28614026565b8152602001848152602001828152509450505050509250929050565b600080613a55838560000151613c67565b90506000613a678286604001516120af565b905080600003613a80576402540be4009250505061067e565b6020850151613a9290612710836132ec565b95945050505050565b600081831161276757816108b9565b6000816001600160401b0316836001600160401b0316101561276757816108b9565b60006001836002811115613ae257613ae2614026565b03613b5b57835460408051634ac8eb5f60e01b815290516001600160a01b0390921691634ac8eb5f916004808201926020929091908290030181865afa158015613b30573d6000803e3d6000fd5b505050506040513d601f19601f82011682018060405250810190613b549190614642565b90506108b9565b81546001600160a01b03166370a08231613b7486610d00565b6040516001600160e01b031960e084901b1681526001600160a01b039091166004820152602401602060405180830381865afa158015613b30573d6000803e3d6000fd5b6000806000613bc5610cdc565b90506000806000613bd787600061312d565b9250925092506000806000613bed8a600161312d565b60108a015492955090935091506000908590613c1990600160c01b90046001600160401b03168461411c565b10158015613c46575060108801548690613c4390600160c01b90046001600160401b03168561411c565b10155b905086995080613c565786613c58565b835b98505050505050505050915091565b6000806001836002811115613c7e57613c7e614026565b14613c9d576005840154600160801b90046001600160401b0316613cb3565b6005840154600160c01b90046001600160401b03165b60058501546001600160401b0391821692508291613cdd9180821691600160401b9091041661411c565b613ce7919061411c565b949350505050565b6001600160a01b038116811461034657600080fd5b600060208284031215613d1657600080fd5b81356108b981613cef565b60008060408385031215613d3457600080fd5b82356001600160401b03811115613d4a57600080fd5b830160408186031215613d5c57600080fd5b946020939093013593505050565b60008060408385031215613d7d57600080fd5b8235613d5c81613cef565b634e487b7160e01b600052604160045260246000fd5b600082601f830112613daf57600080fd5b81356001600160401b03811115613dc857613dc8613d88565b604051601f8201601f19908116603f011681016001600160401b0381118282101715613df657613df6613d88565b604052818152838201602001851015613e0e57600080fd5b816020850160208301376000918101602001919091529392505050565b600080600060608486031215613e4057600080fd5b8335925060208401356001600160401b03811115613e5d57600080fd5b613e6986828701613d9e565b9250506040840135613e7a81613cef565b809150509250925092565b600080600080600060a08688031215613e9d57600080fd5b8535613ea881613cef565b94506020860135613eb881613cef565b93506040860135925060608601356001600160401b03811115613eda57600080fd5b613ee688828901613d9e565b9250506080860135613ef781613cef565b809150509295509295909350565b600060208284031215613f1757600080fd5b5035919050565b600080600060608486031215613f3357600080fd5b8335613f3e81613cef565b92506020840135613f4e81613cef565b929592945050506040919091013590565b634e487b7160e01b600052601160045260246000fd5b6001600160401b03818116838216019081111561067e5761067e613f5f565b600060018201613fa657613fa6613f5f565b5060010190565b634e487b7160e01b600052601260045260246000fd5b60006001600160401b03831680613fdc57613fdc613fad565b806001600160401b0384160691505092915050565b6001600160401b03828116828216039081111561067e5761067e613f5f565b634e487b7160e01b600052600160045260246000fd5b634e487b7160e01b600052602160045260246000fd5b6000823560be1983360301811261405257600080fd5b9190910192915050565b60008235601e1983360301811261405257600080fd5b6000808335601e1984360301811261408957600080fd5b8301803591506001600160401b038211156140a357600080fd5b6020019150368190038213156118b157600080fd5b8183823760009101908152919050565b60008235605e1983360301811261405257600080fd5b801515811461034657600080fd5b6000602082840312156140fe57600080fd5b81356108b9816140de565b8181038181111561067e5761067e613f5f565b8082018082111561067e5761067e613f5f565b60008261413e5761413e613fad565b500490565b634e487b7160e01b600052603260045260246000fd5b808202811582820484141761067e5761067e613f5f565b6000823560be1983360301811261418657600080fd5b90910192915050565b80356001600160401b03811681146141a657600080fd5b919050565b6000808335601e198436030181126141c257600080fd5b83016020810192503590506001600160401b038111156141e157600080fd5b8036038213156118b157600080fd5b81835281816020850137506000828201602090810191909152601f909101601f19169091010190565b600061422582836141ab565b60208552613a926020860182846141f0565b60008235605e1983360301811261418657600080fd5b6000813561425a816140de565b1515835261426b60208301836141ab565b606060208601526142806060860182846141f0565b6040948501359590940194909452509092915050565b803582526020808201359083015260006001600160401b036142ba6040840161418f565b1660408401526001600160401b036142d46060840161418f565b1660608401526080820135601e198336030181126142f157600080fd5b60c0608085015261430760c08501848301614219565b905061431660a0840184614237565b84820360a0860152613a92828261424d565b6020815260008235601e1984360301811261434257600080fd5b83016020810190356001600160401b0381111561435e57600080fd5b8060051b80360383131561437157600080fd5b60406020860152606085018290526001600160fb1b0382111561439357600080fd5b80836080870137840191506143ad90506020850185614170565b6060848303016040850152613a926080830182614296565b6000602082840312156143d757600080fd5b81516108b9816140de565b60006001600160401b038316806143fb576143fb613fad565b806001600160401b0384160491505092915050565b600181811c9082168061442457607f821691505b60208210810361444457634e487b7160e01b600052602260045260246000fd5b50919050565b601f821115610c3c57806000526020600020601f840160051c810160208510156144715750805b601f840160051c820191505b81811015610995576000815560010161447d565b81516001600160401b038111156144aa576144aa613d88565b6144be816144b88454614410565b8461444a565b6020601f8211600181146144f257600083156144da5750848201515b600019600385901b1c1916600184901b178455610995565b600084815260208120601f198516915b828110156145225787850151825560209485019460019092019101614502565b50848210156145405786840151600019600387901b60f8161c191681555b50505050600190811b01905550565b6001815b600184111561458a5780850481111561456e5761456e613f5f565b600184161561457c57908102905b60019390931c928002614553565b935093915050565b6000826145a15750600161067e565b816145ae5750600061067e565b81600181146145c457600281146145ce576145ea565b600191505061067e565b60ff8411156145df576145df613f5f565b50506001821b61067e565b5060208310610133831016604e8410600b841016171561460d575081810a61067e565b61461a600019848461454f565b806000190482111561462e5761462e613f5f565b029392505050565b60006108b98383614592565b60006020828403121561465457600080fd5b5051919050565b60006001600160401b0382166001600160401b03810361467d5761467d613f5f565b60010192915050565b6000815180845260005b818110156146ac57602081850181015186830182015201614690565b506000602082860101526020601f19601f83011685010191505092915050565b610120815260006146e161012083018c614686565b6001600160801b039a8b1660208401529890991660408201526001600160401b03968716606082015294861660808601529290941660a084015260c08301526001600160a01b0390921660e0820152610100015292915050565b60006020828403121561474d57600080fd5b81516108b981613cef565b60008261476757614767613fad565b500690565b6020815260006108b96020830184614686565b60008060006060848603121561479457600080fd5b505081516020830151604090930151909492935091905056feec7e8c1c441439dd40959777f4c577ea0cd42fcc1dbe59d2bd0f5d9c55df8db60cd2207518cd3e5213e2c6dbe63d55b60aa893c194a427b7d7f1600408fd5bdea264697066735822122049b861b3de66f1efbf252b3e9cbf258864d1d446a0869778e8fc0e75048db09b64736f6c634300081b0033",
  "linkReferences": {},
  "deployedLinkReferences": {}
}