{
  "_format": "hh-sol-artifact-1",
  "contractName": "RedemptionRequestsFacet",
  "sourceName": "contracts/assetManager/facets/RedemptionRequestsFacet.sol",
  "abi": [
    {
      "inputs": [],
      "name": "AddressValid",
      "type": "error"
    },
    {
      "inputs": [],
      "name": "AddressValidityNotProven",
      "type": "error"
    },
    {
      "inputs": [],
      "name": "CannotRedeemToAgentsAddress",
      "type": "error"
    },
    {
      "inputs": [],
      "name": "DivisionByZero",
      "type": "error"
    },
    {
      "inputs": [],
      "name": "EmergencyPauseActive",
      "type": "error"
    },
    {
      "inputs": [],
      "name": "ExecutorFeeWithoutExecutor",
      "type": "error"
    },
    {
      "inputs": [],
      "name": "InvalidAgentVaultAddress",
      "type": "error"
    },
    {
      "inputs": [],
      "name": "InvalidChain",
      "type": "error"
    },
    {
      "inputs": [],
      "name": "InvalidRedemptionStatus",
      "type": "error"
    },
    {
      "inputs": [],
      "name": "InvalidRequestId",
      "type": "error"
    },
    {
      "inputs": [],
      "name": "NotAttached",
      "type": "error"
    },
    {
      "inputs": [],
      "name": "NotWhitelisted",
      "type": "error"
    },
    {
      "inputs": [],
      "name": "OnlyAgentVaultOwner",
      "type": "error"
    },
    {
      "inputs": [],
      "name": "OnlyAssetManagerController",
      "type": "error"
    },
    {
      "inputs": [],
      "name": "OnlyCollateralPool",
      "type": "error"
    },
    {
      "inputs": [],
      "name": "RedeemZeroLots",
      "type": "error"
    },
    {
      "inputs": [],
      "name": "RedemptionOfZero",
      "type": "error"
    },
    {
      "inputs": [],
      "name": "ReentrancyGuardReentrantCall",
      "type": "error"
    },
    {
      "inputs": [],
      "name": "SelfCloseOfZero",
      "type": "error"
    },
    {
      "inputs": [],
      "name": "UnderlyingAddressTooLong",
      "type": "error"
    },
    {
      "inputs": [],
      "name": "WrongAddress",
      "type": "error"
    },
    {
      "anonymous": false,
      "inputs": [
        {
          "indexed": true,
          "internalType": "address",
          "name": "agentVault",
          "type": "address"
        },
        {
          "indexed": false,
          "internalType": "uint256",
          "name": "dustUBA",
          "type": "uint256"
        }
      ],
      "name": "DustChanged",
      "type": "event"
    },
    {
      "anonymous": false,
      "inputs": [
        {
          "indexed": true,
          "internalType": "address",
          "name": "agentVault",
          "type": "address"
        }
      ],
      "name": "LiquidationEnded",
      "type": "event"
    },
    {
      "anonymous": false,
      "inputs": [
        {
          "indexed": true,
          "internalType": "address",
          "name": "agentVault",
          "type": "address"
        },
        {
          "indexed": true,
          "internalType": "address",
          "name": "redeemer",
          "type": "address"
        },
        {
          "indexed": false,
          "internalType": "uint256",
          "name": "redemptionAmountUBA",
          "type": "uint256"
        },
        {
          "indexed": false,
          "internalType": "uint256",
          "name": "paidVaultCollateralWei",
          "type": "uint256"
        }
      ],
      "name": "RedeemedInCollateral",
      "type": "event"
    },
    {
      "anonymous": false,
      "inputs": [
        {
          "indexed": true,
          "internalType": "address",
          "name": "agentVault",
          "type": "address"
        },
        {
          "indexed": true,
          "internalType": "address",
          "name": "redeemer",
          "type": "address"
        },
        {
          "indexed": true,
          "internalType": "uint256",
          "name": "requestId",
          "type": "uint256"
        },
        {
          "indexed": false,
          "internalType": "uint256",
          "name": "redemptionAmountUBA",
          "type": "uint256"
        }
      ],
      "name": "RedemptionRejected",
      "type": "event"
    },
    {
      "anonymous": false,
      "inputs": [
        {
          "indexed": true,
          "internalType": "address",
          "name": "redeemer",
          "type": "address"
        },
        {
          "indexed": false,
          "internalType": "uint256",
          "name": "remainingLots",
          "type": "uint256"
        }
      ],
      "name": "RedemptionRequestIncomplete",
      "type": "event"
    },
    {
      "anonymous": false,
      "inputs": [
        {
          "indexed": true,
          "internalType": "address",
          "name": "agentVault",
          "type": "address"
        },
        {
          "indexed": true,
          "internalType": "address",
          "name": "redeemer",
          "type": "address"
        },
        {
          "indexed": true,
          "internalType": "uint256",
          "name": "requestId",
          "type": "uint256"
        },
        {
          "indexed": false,
          "internalType": "string",
          "name": "paymentAddress",
          "type": "string"
        },
        {
          "indexed": false,
          "internalType": "uint256",
          "name": "valueUBA",
          "type": "uint256"
        },
        {
          "indexed": false,
          "internalType": "uint256",
          "name": "feeUBA",
          "type": "uint256"
        },
        {
          "indexed": false,
          "internalType": "uint256",
          "name": "firstUnderlyingBlock",
          "type": "uint256"
        },
        {
          "indexed": false,
          "internalType": "uint256",
          "name": "lastUnderlyingBlock",
          "type": "uint256"
        },
        {
          "indexed": false,
          "internalType": "uint256",
          "name": "lastUnderlyingTimestamp",
          "type": "uint256"
        },
        {
          "indexed": false,
          "internalType": "bytes32",
          "name": "paymentReference",
          "type": "bytes32"
        },
        {
          "indexed": false,
          "internalType": "address",
          "name": "executor",
          "type": "address"
        },
        {
          "indexed": false,
          "internalType": "uint256",
          "name": "executorFeeNatWei",
          "type": "uint256"
        }
      ],
      "name": "RedemptionRequested",
      "type": "event"
    },
    {
      "anonymous": false,
      "inputs": [
        {
          "indexed": true,
          "internalType": "address",
          "name": "agentVault",
          "type": "address"
        },
        {
          "indexed": true,
          "internalType": "uint256",
          "name": "redemptionTicketId",
          "type": "uint256"
        },
        {
          "indexed": false,
          "internalType": "uint256",
          "name": "ticketValueUBA",
          "type": "uint256"
        }
      ],
      "name": "RedemptionTicketCreated",
      "type": "event"
    },
    {
      "anonymous": false,
      "inputs": [
        {
          "indexed": true,
          "internalType": "address",
          "name": "agentVault",
          "type": "address"
        },
        {
          "indexed": true,
          "internalType": "uint256",
          "name": "redemptionTicketId",
          "type": "uint256"
        }
      ],
      "name": "RedemptionTicketDeleted",
      "type": "event"
    },
    {
      "anonymous": false,
      "inputs": [
        {
          "indexed": true,
          "internalType": "address",
          "name": "agentVault",
          "type": "address"
        },
        {
          "indexed": true,
          "internalType": "uint256",
          "name": "redemptionTicketId",
          "type": "uint256"
        },
        {
          "indexed": false,
          "internalType": "uint256",
          "name": "ticketValueUBA",
          "type": "uint256"
        }
      ],
      "name": "RedemptionTicketUpdated",
      "type": "event"
    },
    {
      "anonymous": false,
      "inputs": [
        {
          "indexed": true,
          "internalType": "address",
          "name": "agentVault",
          "type": "address"
        },
        {
          "indexed": false,
          "internalType": "uint256",
          "name": "valueUBA",
          "type": "uint256"
        }
      ],
      "name": "SelfClose",
      "type": "event"
    },
    {
      "inputs": [
        {
          "internalType": "address",
          "name": "_agentVault",
          "type": "address"
        }
      ],
      "name": "convertDustToTicket",
      "outputs": [],
      "stateMutability": "nonpayable",
      "type": "function"
    },
    {
      "inputs": [
        {
          "internalType": "address",
          "name": "_agentVault",
          "type": "address"
        }
      ],
      "name": "maxRedemptionFromAgent",
      "outputs": [
        {
          "internalType": "uint256",
          "name": "",
          "type": "uint256"
        }
      ],
      "stateMutability": "view",
      "type": "function"
    },
    {
      "inputs": [
        {
          "internalType": "uint256",
          "name": "_lots",
          "type": "uint256"
        },
        {
          "internalType": "string",
          "name": "_redeemerUnderlyingAddressString",
          "type": "string"
        },
        {
          "internalType": "address payable",
          "name": "_executor",
          "type": "address"
        }
      ],
      "name": "redeem",
      "outputs": [
        {
          "internalType": "uint256",
          "name": "_redeemedAmountUBA",
          "type": "uint256"
        }
      ],
      "stateMutability": "payable",
      "type": "function"
    },
    {
      "inputs": [
        {
          "internalType": "address",
          "name": "_agentVault",
          "type": "address"
        },
        {
          "internalType": "address",
          "name": "_receiver",
          "type": "address"
        },
        {
          "internalType": "uint256",
          "name": "_amountUBA",
          "type": "uint256"
        },
        {
          "internalType": "string",
          "name": "_receiverUnderlyingAddress",
          "type": "string"
        },
        {
          "internalType": "address payable",
          "name": "_executor",
          "type": "address"
        }
      ],
      "name": "redeemFromAgent",
      "outputs": [],
      "stateMutability": "payable",
      "type": "function"
    },
    {
      "inputs": [
        {
          "internalType": "address",
          "name": "_agentVault",
          "type": "address"
        },
        {
          "internalType": "address",
          "name": "_receiver",
          "type": "address"
        },
        {
          "internalType": "uint256",
          "name": "_amountUBA",
          "type": "uint256"
        }
      ],
      "name": "redeemFromAgentInCollateral",
      "outputs": [],
      "stateMutability": "nonpayable",
      "type": "function"
    },
    {
      "inputs": [
        {
          "components": [
            {
              "internalType": "bytes32[]",
              "name": "merkleProof",
              "type": "bytes32[]"
            },
            {
              "components": [
                {
                  "internalType": "bytes32",
                  "name": "attestationType",
                  "type": "bytes32"
                },
                {
                  "internalType": "bytes32",
                  "name": "sourceId",
                  "type": "bytes32"
                },
                {
                  "internalType": "uint64",
                  "name": "votingRound",
                  "type": "uint64"
                },
                {
                  "internalType": "uint64",
                  "name": "lowestUsedTimestamp",
                  "type": "uint64"
                },
                {
                  "components": [
                    {
                      "internalType": "string",
                      "name": "addressStr",
                      "type": "string"
                    }
                  ],
                  "internalType": "struct IAddressValidity.RequestBody",
                  "name": "requestBody",
                  "type": "tuple"
                },
                {
                  "components": [
                    {
                      "internalType": "bool",
                      "name": "isValid",
                      "type": "bool"
                    },
                    {
                      "internalType": "string",
                      "name": "standardAddress",
                      "type": "string"
                    },
                    {
                      "internalType": "bytes32",
                      "name": "standardAddressHash",
                      "type": "bytes32"
                    }
                  ],
                  "internalType": "struct IAddressValidity.ResponseBody",
                  "name": "responseBody",
                  "type": "tuple"
                }
              ],
              "internalType": "struct IAddressValidity.Response",
              "name": "data",
              "type": "tuple"
            }
          ],
          "internalType": "struct IAddressValidity.Proof",
          "name": "_proof",
          "type": "tuple"
        },
        {
          "internalType": "uint256",
          "name": "_redemptionRequestId",
          "type": "uint256"
        }
      ],
      "name": "rejectInvalidRedemption",
      "outputs": [],
      "stateMutability": "nonpayable",
      "type": "function"
    },
    {
      "inputs": [
        {
          "internalType": "address",
          "name": "_agentVault",
          "type": "address"
        },
        {
          "internalType": "uint256",
          "name": "_amountUBA",
          "type": "uint256"
        }
      ],
      "name": "selfClose",
      "outputs": [
        {
          "internalType": "uint256",
          "name": "_closedAmountUBA",
          "type": "uint256"
        }
      ],
      "stateMutability": "nonpayable",
      "type": "function"
    }
  ],
  "bytecode": "0x6080604052348015600f57600080fd5b5061449c8061001f6000396000f3fe6080604052600436106100705760003560e01c80639584da2a1161004e5780639584da2a146100e957806399646d1c14610109578063997be0f41461011c578063ed000b301461012f57600080fd5b80631e8bee011461007557806365454f94146100a757806387375f27146100c9575b600080fd5b34801561008157600080fd5b5061009561009036600461398f565b61014f565b60405190815260200160405180910390f35b3480156100b357600080fd5b506100c76100c236600461398f565b61025f565b005b3480156100d557600080fd5b506100c76100e43660046139ac565b610314565b3480156100f557600080fd5b506100956101043660046139f5565b610563565b610095610117366004613ab6565b610643565b6100c761012a366004613b10565b61089d565b34801561013b57600080fd5b506100c761014a366004613b90565b610977565b60008061015b83610abc565b6006810154909150600080516020614427833981519152906001600160401b03166000610186610b57565b600f0154600160801b900461ffff169050600060088401816101a787610b7b565b6001600160a01b0316815260208101919091526040016000908120546001600160401b031691505b6001600160401b038216158015906101e657508281105b1561024a576001600160401b03828116600090815260078701602052604090208054909161021c91600160a01b90041686613be7565b6001909101549094506001600160401b03600160c01b9091041691508061024281613c06565b9150506101cf565b5061025483610ba3565b979650505050505050565b610267610bd4565b6000610271610b57565b9050600061027e83610abc565b600d83015460068201549192506001600160401b039081169116106102f857600d82015460068201546000916102c0916001600160401b039182169116613c35565b60068301549091506000906102df9083906001600160401b0316613c63565b90506102eb8382610c0c565b6102f58383610db0565b50505b5050610311600160008051602061444783398151915255565b50565b61031c610bd4565b6000610329826001610e46565b600881015490915060ff161561034157610341613c82565b600481015460009061035b906001600160a01b0316610abc565b905060016004830154600160a01b900460ff16600681111561037f5761037f613c98565b1461039d57604051638336ad7d60e01b815260040160405180910390fd5b6103a681610efa565b6103af84610f21565b60006103be6020860186613cae565b6103cc906080810190613cce565b6103d69080613ce4565b6040516103e4929190613d31565b604051809103902090508260000154811461041257604051630d23cf4160e11b815260040160405180910390fd5b60006104216020870187613cae565b61042f9060a0810190613d41565b61043d906020810190613d65565b8015610467575083546104536020880188613cae565b6104619060a0810190613d41565b60400135145b9050801561048857604051631e99ffed60e01b815260040160405180910390fd5b6104bb838560020160189054906101000a90046001600160401b03168660040160159054906101000a900460ff16610ffb565b6104c484611095565b60028401546000906104e590600160c01b90046001600160401b0316610ba3565b6003860154600487015460405183815292935088926001600160a01b0392831692909116907f94d66df0cc76b15bc59edd2c5f5b565292490a6ef58fde83e3bfaef6671627af9060200160405180910390a46105438686600661111a565b505050505061055f600160008051602061444783398151915255565b5050565b600061056d611172565b610575610bd4565b8261057f816111d5565b600061058a85610abc565b9050836000036105ad57604051634910298d60e11b815260040160405180910390fd5b60006105b8856111e7565b905060006105c883836001611218565b9150506105d533826113cf565b6105de83611437565b866001600160a01b03167f27a9c0ea115e1a078f8a4ddd385379102c3138ded0ddd00bf9cc5ee197457dc88260405161061991815260200190565b60405180910390a2935050505061063d600160008051602061444783398151915255565b92915050565b600061064d611172565b610655610bd4565b600061065f610b57565b600f0160109054906101000a900461ffff1661ffff16905060006040518060400160405280836001600160401b0381111561069c5761069c613a13565b6040519080825280602002602001820160405280156106e157816020015b60408051808201909152600080825260208201528152602001906001900390816106ba5790505b508152602001600081525090506000805b838110801561070057508782105b1561078e577fec7e8c1c441439dd40959777f4c577ea0cd42fcc1dbe59d2bd0f5d9c55df8dbf546001600160401b031660000361075d57816000036107585760405163882ccad960e01b815260040160405180910390fd5b61078e565b61077061076a838a613d82565b84611514565b61077a9083613d95565b91508061078681613c06565b9150506106f2565b50600061079f633b9aca0034613da8565b905060005b836020015181101561081b5760008185602001516107c29190613d82565b6107cc9084613da8565b90506107d88184613d82565b9250610811856000015183815181106107f3576107f3613dbc565b6020026020010151338b60008c6108098761173c565b6000806117ad565b50506001016107a4565b508782101561086257337fffb29516defd624d1f4ff8436cc96282ba7b4294c3a18cf274c3bdf21c9ccd99610850848b613d82565b60405190815260200160405180910390a25b600061086d83611c7f565b905061087933826113cf565b945050505050610896600160008051602061444783398151915255565b9392505050565b6108a5611172565b6108ad610bd4565b60006108b886610abc565b90506108c381611cbf565b836000036108e4576040516345a22e4360e01b815260040160405180910390fd5b60006108ef856111e7565b905060008061090084846000611218565b604080518082019091526001600160a01b038c1681526001600160401b03831660208201529193509150610949818a8960018a610809610944633b9aca0034613da8565b61173c565b5061095433836113cf565b5050505050610970600160008051602061444783398151915255565b5050505050565b61097f611172565b610987610bd4565b600061099284610abc565b905061099d81611cbf565b816000036109be576040516345a22e4360e01b815260040160405180910390fd5b60006109c9836111e7565b90506000806109da84846001611218565b600486015491935091506000906109f990610100900461ffff16611ce9565b600a860154909150600090610a2c90600160801b900461ffff16610a266001600160401b03871685611d34565b90611d4e565b9050610a39868983611d5d565b50876001600160a01b0316896001600160a01b03167f25c177efe505ee9dd8e37b9825d729e1a27b6ac048c6e55ba91841d9a7fa9ecc8584604051610a88929190918252602082015260400190565b60405180910390a3610a9a33846113cf565b505050505050610ab7600160008051602061444783398151915255565b505050565b604081901b68010000000000000000600160e01b03167f5bebac0595fee029d42bb673937f5f1cb81cf8641382bc17774635de9b7d79651860048101546000919060ff1682816005811115610b1357610b13613c98565b14158015610b3357506005816005811115610b3057610b30613c98565b14155b610b505760405163d68a46c560e01b815260040160405180910390fd5b5092915050565b7f4f24f5c433db0962dac0d2c8b84197a6e6c7cc4e5d9ebe1916a1b6193da2f33a90565b7f5bebac0595fee029d42bb673937f5f1cb81cf8641382bc17774635de9b7d79651860401c90565b600080610bae610b57565b600c810154909150610896906001600160401b03600160901b9091048116908516613dd2565b600080516020614447833981519152805460011901610c0657604051633ee5aeb560e01b815260040160405180910390fd5b60029055565b6000805160206144278339815191526001600160401b038216600003610c3157505050565b6000610c3c84610b7b565b6009830154600160401b90046001600160401b031660008181526007850160205260409020805492935090916001600160a01b03808516911603610d3957805485908290601490610c9e908490600160a01b90046001600160401b0316613be7565b92506101000a8154816001600160401b0302191690836001600160401b031602179055506000610ce48260000160149054906101000a90046001600160401b0316610ba3565b9050826001600160401b0316846001600160a01b03167f9d2e72c50be7927e999d37329649af37a863df77bcb25361699ce021d3d7475d83604051610d2b91815260200190565b60405180910390a350610da8565b6000610d49600786018588611e67565b90506000610d5687610ba3565b9050816001600160401b0316856001600160a01b03167f631f8f2039090539b2ea4ef7dc567f7f1939ef4dd3e790b1ca7bc548a1fada5883604051610d9d91815260200190565b60405180910390a350505b505050505050565b60068201546001600160401b03808316911603610dcb575050565b60068201805467ffffffffffffffff19166001600160401b0383161790556000610df482610ba3565b9050610dff83610b7b565b6001600160a01b03167fa3db2bc927901a1d3ba09ad51d84609457b98443be9132a0a936a47c5a1081b582604051610e3991815260200190565b60405180910390a2505050565b6000600080516020614427833981519152838203610e77576040516302e8145360e61b815260040160405180910390fd5b6000848152600a82016020526040902091508215610eba57610e9882612270565b610eb5576040516302e8145360e61b815260040160405180910390fd5b610b50565b60006004830154600160a01b900460ff166006811115610edc57610edc613c98565b03610b50576040516302e8145360e61b815260040160405180910390fd5b610f0481336122b9565b6103115760405163f6e2f99b60e01b815260040160405180910390fd5b6000610f2b610b57565b6008810154600b8201549192506001600160a01b031690610f4f6020850185613cae565b6020013514610f715760405163057f3fa760e51b815260040160405180910390fd5b60405163f34ef58760e01b81526001600160a01b0382169063f34ef58790610f9d908690600401613fa1565b602060405180830381865afa158015610fba573d6000803e3d6000fd5b505050506040513d601f19601f82011682018060405250810190610fde919061403e565b610ab75760405163f5c977e760e01b815260040160405180910390fd5b600583015461101b908390600160801b90046001600160401b0316613c63565b8360050160106101000a8154816001600160401b0302191690836001600160401b0316021790555080610ab7576005830154611068908390600160c01b90046001600160401b0316613c63565b8360050160186101000a8154816001600160401b0302191690836001600160401b03160217905550505050565b60058101546000906110bc90633b9aca0090600160a01b90046001600160401b0316613dd2565b9050801561055f5760058201805467ffffffffffffffff60a01b191690556110e26122fa565b6001600160a01b03166108fc829081150290604051600060405180830381858888f19350505050158015610ab7573d6000803e3d6000fd5b600381600681111561112e5761112e613c98565b101561113c5761113c613c82565b60048201805482919060ff60a01b1916600160a01b83600681111561116357611163613c98565b0217905550610ab78383612318565b7fec7e8c1c441439dd40959777f4c577ea0cd42fcc1dbe59d2bd0f5d9c55df8dc6546000805160206144278339815191529042600160401b9091046001600160401b031611156103115760405163909b191760e01b815260040160405180910390fd5b610f046111e182610abc565b336122b9565b6000806111f2610b57565b600c8101549091506108969061094490600160901b90046001600160401b031685613da8565b60008060008051602061442783398151915281611233610b57565b600f0154600160801b900461ffff169050600061124e610b57565b600d01546001600160401b0316905060005b82811080156112805750876001600160401b0316866001600160401b0316105b1561135e57600060088501816112958c610b7b565b6001600160a01b0316815260208101919091526040016000908120546001600160401b031691508190036112c9575061135e565b6001600160401b038181166000908152600787016020526040812060068d0154815491936113029291811691600160a01b900416613be7565b905061130e8582613c35565b6113189082613c63565b9050600061132f6113298b8e613c63565b83612379565b905061133b84826123a2565b611345818b613be7565b995050505050808061135690613c06565b915050611260565b50600061138161136e878a613c63565b60068b01546001600160401b0316612379565b90506001600160401b038116156113a85761139c8187613be7565b95506113a88982612579565b86156113b8576113b889876125a1565b6113c186610ba3565b945050505050935093915050565b6113d76125ed565b604051632770a7eb60e21b81526001600160a01b038481166004830152602482018490529190911690639dc29fac90604401600060405180830381600087803b15801561142357600080fd5b505af1158015610da8573d6000803e3d6000fd5b6002600482015460ff16600581111561145257611452613c98565b1461145a5750565b60006114658261260b565b9050600061147483600061267f565b9050600061148384600161267f565b90508183600001511015801561149d575080836020015110155b1561150e576004840180547fff00ff0000000000000000ffffffffffffffffffffffffffffffffffffffff001660011790556114d884610b7b565b6001600160a01b03167fe513b42585b0ceec0d56d56fe3a23861c15a2f74eb4c32c94334d63d68ff4dcf60405160405180910390a25b50505050565b60006000805160206144278339815191528161152e610b57565b60098301549091506001600160401b03166000819003611554576000935050505061063d565b6001600160401b0381166000908152600784016020526040812080549091506001600160a01b0316600061158782610abc565b600d860154600682015485549293506000926001600160401b03928316926115b992811691600160a01b900416613be7565b6115c3919061405b565b6001600160401b031690506115d88a826126c5565b975087156117245760006115eb896126d4565b905060005b8a60200151811080156116365750846001600160a01b03168b60000151828151811061161e5761161e613dbc565b6020026020010151600001516001600160a01b031614155b1561164b5761164481613c06565b90506115f0565b8a602001518110156116b757818b60000151828151811061166e5761166e613dbc565b6020026020010151602001516116849190613be7565b8b5180518390811061169857611698613dbc565b6020908102919091018101516001600160401b03909216910152611713565b6040518060400160405280866001600160a01b03168152602001836001600160401b03168152508b600001518c60200180518091906116f590613c06565b90528151811061170757611707613dbc565b60200260200101819052505b61171d87836123a2565b505061172f565b61172f8560006123a2565b5050505050505092915050565b60006001600160401b038211156117a95760405162461bcd60e51b815260206004820152602660248201527f53616665436173743a2076616c756520646f65736e27742066697420696e203660448201526534206269747360d01b60648201526084015b60405180910390fd5b5090565b60006001600160401b03841615806117cd57506001600160a01b03851615155b6117ea57604051632a436fa560e21b815260040160405180910390fd5b88516000805160206144278339815191529060009061180890610abc565b9050608089511061182c5760405163599ec1c160e01b815260040160405180910390fd5b885160208a012060038201548103611857576040516302908b3160e11b815260040160405180910390fd5b600061186e6118698e60200151610ba3565b6126fe565b90506118798a612767565b94506119136040805161026081018252600080825260208201819052918101829052606081018290526080810182905260a0810182905260c0810182905260e08101829052610100810182905261012081018290529061014082019081526000602082018190526040820181905260608083018290526080830182905260a0830182905260c083015260e082018190526101009091015290565b8281526001600160801b0382166020820152600f8501546201000090046001600160401b031660608201528d5161194a90896127fc565b6001600160401b0390811660a08401521660808201526119694261173c565b6001600160401b0316610100820152866119af576119aa61186961198b610b57565b600e01546001600160801b03851690600160401b900461ffff16611d4e565b6119b2565b60005b6001600160801b031660408201526001600160a01b038d811660e08301528e511661012082015260208e01516001600160401b031660c082015260016101408201819052508a15156101608201526001600160a01b03808b166101808301526001600160401b03808b166101a084015261020083018e9052881515610220840152600c86015461ffff600160e01b909104166102408401528781166000908152600a880160209081526040918290208551815590850151918501516001600160801b03908116600160801b9081029382169390931760018301556060860151600283018054608089015160a08a015160c08b01518916600160c01b026001600160c01b03918a1690980216908816600160401b026001600160801b0319929092169388169390931717909216179290921790915560e0840151600382018054610100870151909416600160a01b9081026001600160e01b03199095169286169290921793909317909255610120840151600482018054919094166001600160a01b0319821681178555610140860151869593949093926001600160a81b03191690911790836006811115611b6857611b68613c98565b021790555061016082015160048201805460ff60a81b1916600160a81b921515929092029190911790556101808201516005820180546101a08501516001600160a01b039093166001600160e01b031990911617600160a01b6001600160401b03938416021790556101c08301516006830180546101e08601519284166001600160801b031990911617600160401b92909316919091029190911790556102008201516007820190611c1a908261410a565b50610220820151600890910180546102409093015161ffff166101000262ffff00199215159290921662ffffff199093169290921717905560208e0151611c639085908d612914565b611c6e81878e6129b8565b505050505098975050505050505050565b600080611c8a610b57565b600c810154600d8201549192506001600160401b03600160901b909104811691611cb5911685613dd2565b6108969190613dd2565b80546001600160a01b0316331461031157604051636f6afbb360e01b815260040160405180910390fd5b6000806000805160206144278339815191529050611d2a816000018481548110611d1557611d15613dbc565b90600052602060002090600402016000612a72565b5090949350505050565b600061089682611d466009600a6142af565b859190612c31565b60006108968383612710612c31565b600080611d6985612d35565b90506000611d7686610b7b565b82546040516370a0823160e01b81526001600160a01b038084166004830152929350611def92879216906370a0823190602401602060405180830381865afa158015611dc6573d6000803e3d6000fd5b505050506040513d601f19601f82011682018060405250810190611dea91906142bb565b6126c5565b825460405163083e007560e21b81526001600160a01b0391821660048201528782166024820152604481018390529194508216906320f801d490606401600060405180830381600087803b158015611e4657600080fd5b505af1158015611e5a573d6000803e3d6000fd5b5050505050509392505050565b6001600160a01b03821660009081526001840160205260408120600285018054839190601090611ea690600160801b90046001600160401b03166142d4565b91906101000a8154816001600160401b0302191690836001600160401b03160217905590506040518060c00160405280866001600160a01b03168152602001856001600160401b031681526020018760020160089054906101000a90046001600160401b03166001600160401b0316815260200160006001600160401b031681526020018360000160089054906101000a90046001600160401b03166001600160401b0316815260200160006001600160401b0316815250866000016000836001600160401b03166001600160401b0316815260200190815260200160002060008201518160000160006101000a8154816001600160a01b0302191690836001600160a01b0316021790555060208201518160000160146101000a8154816001600160401b0302191690836001600160401b0316021790555060408201518160010160006101000a8154816001600160401b0302191690836001600160401b0316021790555060608201518160010160086101000a8154816001600160401b0302191690836001600160401b0316021790555060808201518160010160106101000a8154816001600160401b0302191690836001600160401b0316021790555060a08201518160010160186101000a8154816001600160401b0302191690836001600160401b031602179055509050508560020160009054906101000a90046001600160401b03166001600160401b0316600003612103576002860154600160401b90046001600160401b0316156120e0576120e0613c82565b60028601805467ffffffffffffffff19166001600160401b03831617905561216b565b6002860154600160401b90046001600160401b031660000361212757612127613c82565b6002860154600160401b908190046001600160401b039081166000908152602089905260409020600101805467ffffffffffffffff60401b19169184169092021790555b6002860180546001600160401b03808416600160401b0267ffffffffffffffff60401b19909216919091179091558254166000036121e1578154600160401b90046001600160401b0316156121c2576121c2613c82565b815467ffffffffffffffff19166001600160401b038216178255612244565b8154600160401b90046001600160401b031660000361220257612202613c82565b81546001600160401b03600160401b909104811660009081526020889052604090206001018054918316600160c01b026001600160c01b039092169190911790555b815467ffffffffffffffff60401b1916600160401b6001600160401b0383160217909155949350505050565b6004810154600090600160a01b900460ff16600181600681111561229657612296613c98565b1480610896575060028160068111156122b1576122b1613c98565b149392505050565b60018201546000906001600160a01b038381169116148061089657506122de83612d82565b6001600160a01b0316826001600160a01b031614905092915050565b600080612305610b57565b600901546001600160a01b031692915050565b600881015460ff161561055f57600481015460009061233f906001600160a01b0316610abc565b600c81015490915064010000000090046001600160401b0316839003610ab757600c0180546bffffffffffffffff00000000191690555050565b6000816001600160401b0316836001600160401b0316111561239b5781610896565b5090919050565b6001600160401b03821660009081527fec7e8c1c441439dd40959777f4c577ea0cd42fcc1dbe59d2bd0f5d9c55df8dbd6020819052604082208054919290916123f3906001600160a01b0316610abc565b905060006123ff610b57565b600d0154600683015484546001600160401b03928316935060009288926124329290821691600160a01b90910416613be7565b61243c9190613c63565b9050600061244a8383613c35565b905060006124588284613c63565b9050806001600160401b03166000036124c257612475878a612dfb565b886001600160401b031661248886610b7b565b6001600160a01b03167fb7f65e70a51658e24800516a5dc90e2dd65176e18381adda77f58e2044482b1960405160405180910390a3612564565b85546001600160401b03828116600160a01b909204161461256457855467ffffffffffffffff60a01b1916600160a01b6001600160401b03831602178655600061250b82610ba3565b9050896001600160401b031661252087610b7b565b6001600160a01b03167f9d2e72c50be7927e999d37329649af37a863df77bcb25361699ce021d3d7475d8360405161255a91815260200190565b60405180910390a3505b61256e8583610db0565b505050505050505050565b60068201546000906125959083906001600160401b0316613c63565b9050610ab78382610db0565b60058201546125c1908290600160401b90046001600160401b0316613c63565b8260050160086101000a8154816001600160401b0302191690836001600160401b031602179055505050565b6000806125f8610b57565b600101546001600160a01b031692915050565b6126366040518060800160405280600081526020016000815260200160008152602001600081525090565b6000806126448460006131d5565b915091506000806126568660016131d5565b604080516080810182529687526020870192909252908501939093525050606082015292915050565b60008061268c8484613223565b905061269884846132c8565b6126ad576003015463ffffffff16905061063d565b60030154600160401b900463ffffffff16905061063d565b600081831061239b5781610896565b6000806126df610b57565b600d81015490915061089690610944906001600160401b031685613dd2565b60006001600160801b038211156117a95760405162461bcd60e51b815260206004820152602760248201527f53616665436173743a2076616c756520646f65736e27742066697420696e20316044820152663238206269747360c81b60648201526084016117a0565b600060008051602061442783398151915281612781613331565b600e8301546127a09190600160401b90046001600160401b0316613be7565b90506000846127b05760006127b3565b60015b60ff166001196127c4846001613be7565b161790508083600e0160086101000a8154816001600160401b0302191690836001600160401b03160217905550809350505050919050565b60008060008051602061442783398151915281612817610b57565b90506000856128258861334f565b600f850154600160901b90046001600160401b03166128434261173c565b61284d9190613c63565b6128579190613be7565b6128619190613be7565b600c8301549091506000906128959063ffffffff1661288b6001600160401b0385166103e8613dd2565b6109449190613da8565b600d840154600f8601549192506001600160401b03600160981b9091048116916128c791849162010000900416613be7565b6128d19190613be7565b600e840154600f8601549197506001600160401b03908116916128fd918591600160501b900416613be7565b6129079190613be7565b9450505050509250929050565b818360050160108282829054906101000a90046001600160401b031661293a9190613be7565b92506101000a8154816001600160401b0302191690836001600160401b03160217905550806129ae57818360050160188282829054906101000a90046001600160401b03166129899190613be7565b92506101000a8154816001600160401b0302191690836001600160401b031602179055505b610ab783836125a1565b816001600160401b03168360e001516001600160a01b03168461012001516001600160a01b03167f8cbbd73a8d1b8b02a53c4c3b0ee34b472fe3099cc19bcfb57f1aae09e8a9847e848760200151886040015189606001518a608001518b60a00151612a2c8c6001600160401b0316613411565b8d6101800151633b9aca008f6101a001516001600160401b0316612a509190613dd2565b604051612a6599989796959493929190614345565b60405180910390a4505050565b600080600080600080612b11886001018054612a8d90614089565b80601f0160208091040260200160405190810160405280929190818152602001828054612ab990614089565b8015612b065780601f10612adb57610100808354040283529160200191612b06565b820191906000526020600020905b815481529060010190602001808311612ae957829003601f168201915b50505050508861343b565b8a549295509093509150600160f01b900460ff1615612b58578754600090612b4790600160a81b900460ff166001838786613506565b9650919450849350612c2a92505050565b6000806000612bf38b6002018054612b6f90614089565b80601f0160208091040260200160405190810160405280929190818152602001828054612b9b90614089565b8015612be85780601f10612bbd57610100808354040283529160200191612be8565b820191906000526020600020905b815481529060010190602001808311612bcb57829003601f168201915b50505050508b61343b565b8d549295509093509150600090612c1790600160a81b900460ff1685848a89613506565b9950949750909550612c2a945050505050565b9250925092565b6000808211612c53576040516323d359a360e01b815260040160405180910390fd5b83600003612c6357506000610896565b83830283858281612c7657612c76613c1f565b0403612c9457828181612c8b57612c8b613c1f565b04915050610896565b506000612ca18386613da8565b90506000612caf84876143b4565b90506000612cbd8587613da8565b90506000612ccb86886143b4565b905085612cd88285613dd2565b612ce29190613da8565b612cec8385613dd2565b612cf68387613dd2565b88612d018689613dd2565b612d0b9190613dd2565b612d159190613d95565b612d1f9190613d95565b612d299190613d95565b98975050505050505050565b60008060008051602061442783398151915260048401548154919250829161010090910461ffff16908110612d6c57612d6c613dbc565b9060005260206000209060040201915050919050565b6000612d8c61358a565b6001830154604051631f86345d60e31b81526001600160a01b03918216600482015291169063fc31a2e890602401602060405180830381865afa158015612dd7573d6000803e3d6000fd5b505050506040513d601f19601f8201168201806040525081019061063d91906143c8565b6001600160401b038116600090815260208390526040902080546001600160a01b0316612e2a57612e2a613c82565b80546001600160a01b031660009081526001808501602052604082209083015490916001600160401b039091169003612eb05760028401546001600160401b03848116911614612e7c57612e7c613c82565b6001820154600285018054600160401b9092046001600160401b031667ffffffffffffffff19909216919091179055612f18565b60028401546001600160401b0390811690841603612ed057612ed0613c82565b6001828101546001600160401b038082166000908152602088905260409020909201805467ffffffffffffffff60401b1916600160401b928390049093169091029190911790555b6001820154600160401b90046001600160401b0316600003612f8f5760028401546001600160401b03848116600160401b9092041614612f5a57612f5a613c82565b600182015460028501805467ffffffffffffffff60401b19166001600160401b03909216600160401b02919091179055612ff7565b60028401546001600160401b03600160401b909104811690841603612fb657612fb6613c82565b600180830154600160401b81046001600160401b039081166000908152602088905260409020909201805467ffffffffffffffff1916929091169190911790555b6001820154600160801b90046001600160401b031660000361305c5780546001600160401b0384811691161461302f5761302f613c82565b60018201548154600160c01b9091046001600160401b031667ffffffffffffffff199091161781556130c2565b80546001600160401b039081169084160361307957613079613c82565b6001828101546001600160401b03600160801b82048116600090815260208890526040902090920180546001600160c01b0316600160c01b928390049093169091029190911790555b6001820154600160c01b90046001600160401b03166000036131355780546001600160401b03848116600160401b909204161461310157613101613c82565b6001820154815467ffffffffffffffff60401b1916600160801b9091046001600160401b0316600160401b021781556131a7565b80546001600160401b03600160401b90910481169084160361315957613159613c82565b6001828101546001600160401b03600160c01b820481166000908152602088905260409020909201805467ffffffffffffffff60801b1916600160801b928390049093169091029190911790555b50506001600160401b031660009081526020919091526040812080546001600160e01b031916815560010155565b6000806000806131e586866135a8565b9150915060006131f58388613686565b905060006132038389613686565b90508360400151945061321682826136dd565b9550505050509250929050565b6000600282600281111561323957613239613c98565b0361324657613246613c82565b600080516020614427833981519152600083600281111561326957613269613c98565b036132a557600484015481548291610100900461ffff1690811061328f5761328f613dbc565b906000526020600020906004020191505061063d565b6004840154815482916301000000900461ffff1690811061328f5761328f613dbc565b6000808260028111156132dd576132dd613c98565b036132f957506004820154600160f01b9004600116151561063d565b600182600281111561330d5761330d613c98565b1461331a5761331a613c82565b506004820154600160f01b9004600216151561063d565b600061333f6103e8436143b4565b61334a906001613d95565b905090565b6001600160a01b03811660009081527f1309a575a1ebd5e5ca64d58e63b864f1d06aed3e31a021b0eabae653c215fb07602052604081207f1309a575a1ebd5e5ca64d58e63b864f1d06aed3e31a021b0eabae653c215fb0690826133b24261173c565b835483549192506000916133d2916001600160401b039081169116613be7565b90506133de81836136ec565b835467ffffffffffffffff19166001600160401b03919091169081178455613407908390613c63565b9695505050505050565b60006001600160401b0382111561342a5761342a613c82565b5067232128293320800160c11b1790565b600080600080613449610b57565b600a8101549091506001600160a01b031685156134da5760405163e4a0a55b60e01b81526001600160a01b0382169063e4a0a55b9061348c908a906004016143e5565b606060405180830381865afa1580156134a9573d6000803e3d6000fd5b505050506040513d601f19601f820116820180604052508101906134cd91906143f8565b9450945094505050612c2a565b60405163524f388960e01b81526001600160a01b0382169063524f38899061348c908a906004016143e5565b600080613511610b57565b905060006009613521878a613d95565b61352b9190613d95565b600a83015490915060009061354b908690600160a81b900460ff16613d95565b90508082101561355d5761355d613c82565b61357d61356a8284613d82565b61357590600a6142af565b87908a612c31565b9998505050505050505050565b600080613595610b57565b600701546001600160a01b031692915050565b6135cd6040805160608101909152806000815260200160008152602001600081525090565b6135f26040805160608101909152806000815260200160008152602001600081525090565b60006135fe8585613223565b9050600061360d86868461370e565b905060008061361b8461380f565b91509150604051806060016040528088600281111561363c5761363c613c98565b8152602001848152602001838152509550604051806060016040528088600281111561366a5761366a613c98565b8152602001848152602001828152509450505050509250929050565b6000806136978385600001516138be565b905060006136a9828660400151611d34565b9050806000036136c2576402540be4009250505061063d565b60208501516136d49061271083612c31565b95945050505050565b600081831161239b5781610896565b6000816001600160401b0316836001600160401b0316101561239b5781610896565b600061371982613946565b61372557506000610896565b600183600281111561373957613739613c98565b036137b257835460408051634ac8eb5f60e01b815290516001600160a01b0390921691634ac8eb5f916004808201926020929091908290030181865afa158015613787573d6000803e3d6000fd5b505050506040513d601f19601f820116820180604052508101906137ab91906142bb565b9050610896565b81546001600160a01b03166370a082316137cb86610b7b565b6040516001600160e01b031960e084901b1681526001600160a01b039091166004820152602401602060405180830381865afa158015613787573d6000803e3d6000fd5b600080600061381c610b57565b9050600080600061382e876000612a72565b92509250925060008060006138448a6001612a72565b60108a01549295509093509150600090859061387090600160c01b90046001600160401b031684613d95565b1015801561389d57506010880154869061389a90600160c01b90046001600160401b031685613d95565b10155b9050869950806138ad57866138af565b835b98505050505050505050915091565b60008060018360028111156138d5576138d5613c98565b146138f4576005840154600160801b90046001600160401b031661390a565b6005840154600160c01b90046001600160401b03165b60058501546001600160401b03918216925082916139349180821691600160401b90910416613d95565b61393e9190613d95565b949350505050565b8054600090600160b01b90046001600160401b0316158061063d5750505442600160b01b9091046001600160401b03161190565b6001600160a01b038116811461031157600080fd5b6000602082840312156139a157600080fd5b81356108968161397a565b600080604083850312156139bf57600080fd5b82356001600160401b038111156139d557600080fd5b8301604081860312156139e757600080fd5b946020939093013593505050565b60008060408385031215613a0857600080fd5b82356139e78161397a565b634e487b7160e01b600052604160045260246000fd5b600082601f830112613a3a57600080fd5b81356001600160401b03811115613a5357613a53613a13565b604051601f8201601f19908116603f011681016001600160401b0381118282101715613a8157613a81613a13565b604052818152838201602001851015613a9957600080fd5b816020850160208301376000918101602001919091529392505050565b600080600060608486031215613acb57600080fd5b8335925060208401356001600160401b03811115613ae857600080fd5b613af486828701613a29565b9250506040840135613b058161397a565b809150509250925092565b600080600080600060a08688031215613b2857600080fd5b8535613b338161397a565b94506020860135613b438161397a565b93506040860135925060608601356001600160401b03811115613b6557600080fd5b613b7188828901613a29565b9250506080860135613b828161397a565b809150509295509295909350565b600080600060608486031215613ba557600080fd5b8335613bb08161397a565b92506020840135613bc08161397a565b929592945050506040919091013590565b634e487b7160e01b600052601160045260246000fd5b6001600160401b03818116838216019081111561063d5761063d613bd1565b600060018201613c1857613c18613bd1565b5060010190565b634e487b7160e01b600052601260045260246000fd5b60006001600160401b03831680613c4e57613c4e613c1f565b806001600160401b0384160691505092915050565b6001600160401b03828116828216039081111561063d5761063d613bd1565b634e487b7160e01b600052600160045260246000fd5b634e487b7160e01b600052602160045260246000fd5b6000823560be19833603018112613cc457600080fd5b9190910192915050565b60008235601e19833603018112613cc457600080fd5b6000808335601e19843603018112613cfb57600080fd5b8301803591506001600160401b03821115613d1557600080fd5b602001915036819003821315613d2a57600080fd5b9250929050565b8183823760009101908152919050565b60008235605e19833603018112613cc457600080fd5b801515811461031157600080fd5b600060208284031215613d7757600080fd5b813561089681613d57565b8181038181111561063d5761063d613bd1565b8082018082111561063d5761063d613bd1565b600082613db757613db7613c1f565b500490565b634e487b7160e01b600052603260045260246000fd5b808202811582820484141761063d5761063d613bd1565b6000823560be19833603018112613dff57600080fd5b90910192915050565b80356001600160401b0381168114613e1f57600080fd5b919050565b6000808335601e19843603018112613e3b57600080fd5b83016020810192503590506001600160401b03811115613e5a57600080fd5b803603821315613d2a57600080fd5b81835281816020850137506000828201602090810191909152601f909101601f19169091010190565b6000613e9e8283613e24565b602085526136d4602086018284613e69565b60008235605e19833603018112613dff57600080fd5b60008135613ed381613d57565b15158352613ee46020830183613e24565b60606020860152613ef9606086018284613e69565b6040948501359590940194909452509092915050565b803582526020808201359083015260006001600160401b03613f3360408401613e08565b1660408401526001600160401b03613f4d60608401613e08565b1660608401526080820135601e19833603018112613f6a57600080fd5b60c06080850152613f8060c08501848301613e92565b9050613f8f60a0840184613eb0565b84820360a08601526136d48282613ec6565b6020815260008235601e19843603018112613fbb57600080fd5b83016020810190356001600160401b03811115613fd757600080fd5b8060051b803603831315613fea57600080fd5b60406020860152606085018290526001600160fb1b0382111561400c57600080fd5b808360808701378401915061402690506020850185613de9565b60608483030160408501526136d46080830182613f0f565b60006020828403121561405057600080fd5b815161089681613d57565b60006001600160401b0383168061407457614074613c1f565b806001600160401b0384160491505092915050565b600181811c9082168061409d57607f821691505b6020821081036140bd57634e487b7160e01b600052602260045260246000fd5b50919050565b601f821115610ab757806000526020600020601f840160051c810160208510156140ea5750805b601f840160051c820191505b8181101561097057600081556001016140f6565b81516001600160401b0381111561412357614123613a13565b614137816141318454614089565b846140c3565b6020601f82116001811461416b57600083156141535750848201515b600019600385901b1c1916600184901b178455610970565b600084815260208120601f198516915b8281101561419b578785015182556020948501946001909201910161417b565b50848210156141b95786840151600019600387901b60f8161c191681555b50505050600190811b01905550565b6001815b6001841115614203578085048111156141e7576141e7613bd1565b60018416156141f557908102905b60019390931c9280026141cc565b935093915050565b60008261421a5750600161063d565b816142275750600061063d565b816001811461423d576002811461424757614263565b600191505061063d565b60ff84111561425857614258613bd1565b50506001821b61063d565b5060208310610133831016604e8410600b8410161715614286575081810a61063d565b61429360001984846141c8565b80600019048211156142a7576142a7613bd1565b029392505050565b6000610896838361420b565b6000602082840312156142cd57600080fd5b5051919050565b60006001600160401b0382166001600160401b0381036142f6576142f6613bd1565b60010192915050565b6000815180845260005b8181101561432557602081850181015186830182015201614309565b506000602082860101526020601f19601f83011685010191505092915050565b6101208152600061435a61012083018c6142ff565b6001600160801b039a8b1660208401529890991660408201526001600160401b03968716606082015294861660808601529290941660a084015260c08301526001600160a01b0390921660e0820152610100015292915050565b6000826143c3576143c3613c1f565b500690565b6000602082840312156143da57600080fd5b81516108968161397a565b60208152600061089660208301846142ff565b60008060006060848603121561440d57600080fd5b505081516020830151604090930151909492935091905056feec7e8c1c441439dd40959777f4c577ea0cd42fcc1dbe59d2bd0f5d9c55df8db60cd2207518cd3e5213e2c6dbe63d55b60aa893c194a427b7d7f1600408fd5bdea264697066735822122069c53873ce51f49332f78ff74362043ea288c96cfbf7334c159310abed66f2ca64736f6c634300081b0033",
  "linkReferences": {},
  "deployedLinkReferences": {}
}