{
  "_format": "hh-sol-artifact-1",
  "contractName": "RedemptionRequestsFacet",
  "sourceName": "contracts/assetManager/facets/RedemptionRequestsFacet.sol",
  "abi": [
    {
      "inputs": [],
      "name": "AddressValid",
      "type": "error"
    },
    {
      "inputs": [],
      "name": "AddressValidityNotProven",
      "type": "error"
    },
    {
      "inputs": [],
      "name": "CannotRedeemToAgentsAddress",
      "type": "error"
    },
    {
      "inputs": [],
      "name": "DivisionByZero",
      "type": "error"
    },
    {
      "inputs": [],
      "name": "EmergencyPauseActive",
      "type": "error"
    },
    {
      "inputs": [],
      "name": "ExecutorFeeWithoutExecutor",
      "type": "error"
    },
    {
      "inputs": [],
      "name": "InvalidAgentVaultAddress",
      "type": "error"
    },
    {
      "inputs": [],
      "name": "InvalidChain",
      "type": "error"
    },
    {
      "inputs": [],
      "name": "InvalidRedemptionStatus",
      "type": "error"
    },
    {
      "inputs": [],
      "name": "InvalidRequestId",
      "type": "error"
    },
    {
      "inputs": [],
      "name": "InvalidTicketId",
      "type": "error"
    },
    {
      "inputs": [],
      "name": "NotAttached",
      "type": "error"
    },
    {
      "inputs": [],
      "name": "NotWhitelisted",
      "type": "error"
    },
    {
      "inputs": [],
      "name": "OnlyAgentVaultOwner",
      "type": "error"
    },
    {
      "inputs": [],
      "name": "OnlyAssetManagerController",
      "type": "error"
    },
    {
      "inputs": [],
      "name": "OnlyCollateralPool",
      "type": "error"
    },
    {
      "inputs": [],
      "name": "RedeemZeroLots",
      "type": "error"
    },
    {
      "inputs": [],
      "name": "RedemptionOfZero",
      "type": "error"
    },
    {
      "inputs": [],
      "name": "ReentrancyGuardReentrantCall",
      "type": "error"
    },
    {
      "inputs": [],
      "name": "SelfCloseOfZero",
      "type": "error"
    },
    {
      "inputs": [],
      "name": "UnderlyingAddressTooLong",
      "type": "error"
    },
    {
      "inputs": [],
      "name": "WrongAddress",
      "type": "error"
    },
    {
      "anonymous": false,
      "inputs": [
        {
          "indexed": true,
          "internalType": "address",
          "name": "agentVault",
          "type": "address"
        },
        {
          "indexed": false,
          "internalType": "uint256",
          "name": "dustUBA",
          "type": "uint256"
        }
      ],
      "name": "DustChanged",
      "type": "event"
    },
    {
      "anonymous": false,
      "inputs": [
        {
          "indexed": true,
          "internalType": "address",
          "name": "agentVault",
          "type": "address"
        }
      ],
      "name": "LiquidationEnded",
      "type": "event"
    },
    {
      "anonymous": false,
      "inputs": [
        {
          "indexed": true,
          "internalType": "address",
          "name": "agentVault",
          "type": "address"
        },
        {
          "indexed": true,
          "internalType": "address",
          "name": "redeemer",
          "type": "address"
        },
        {
          "indexed": false,
          "internalType": "uint256",
          "name": "redemptionAmountUBA",
          "type": "uint256"
        },
        {
          "indexed": false,
          "internalType": "uint256",
          "name": "paidVaultCollateralWei",
          "type": "uint256"
        }
      ],
      "name": "RedeemedInCollateral",
      "type": "event"
    },
    {
      "anonymous": false,
      "inputs": [
        {
          "indexed": true,
          "internalType": "address",
          "name": "agentVault",
          "type": "address"
        },
        {
          "indexed": true,
          "internalType": "address",
          "name": "redeemer",
          "type": "address"
        },
        {
          "indexed": true,
          "internalType": "uint256",
          "name": "requestId",
          "type": "uint256"
        },
        {
          "indexed": false,
          "internalType": "uint256",
          "name": "redemptionAmountUBA",
          "type": "uint256"
        }
      ],
      "name": "RedemptionRejected",
      "type": "event"
    },
    {
      "anonymous": false,
      "inputs": [
        {
          "indexed": true,
          "internalType": "address",
          "name": "redeemer",
          "type": "address"
        },
        {
          "indexed": false,
          "internalType": "uint256",
          "name": "remainingLots",
          "type": "uint256"
        }
      ],
      "name": "RedemptionRequestIncomplete",
      "type": "event"
    },
    {
      "anonymous": false,
      "inputs": [
        {
          "indexed": true,
          "internalType": "address",
          "name": "agentVault",
          "type": "address"
        },
        {
          "indexed": true,
          "internalType": "address",
          "name": "redeemer",
          "type": "address"
        },
        {
          "indexed": true,
          "internalType": "uint256",
          "name": "requestId",
          "type": "uint256"
        },
        {
          "indexed": false,
          "internalType": "string",
          "name": "paymentAddress",
          "type": "string"
        },
        {
          "indexed": false,
          "internalType": "uint256",
          "name": "valueUBA",
          "type": "uint256"
        },
        {
          "indexed": false,
          "internalType": "uint256",
          "name": "feeUBA",
          "type": "uint256"
        },
        {
          "indexed": false,
          "internalType": "uint256",
          "name": "firstUnderlyingBlock",
          "type": "uint256"
        },
        {
          "indexed": false,
          "internalType": "uint256",
          "name": "lastUnderlyingBlock",
          "type": "uint256"
        },
        {
          "indexed": false,
          "internalType": "uint256",
          "name": "lastUnderlyingTimestamp",
          "type": "uint256"
        },
        {
          "indexed": false,
          "internalType": "bytes32",
          "name": "paymentReference",
          "type": "bytes32"
        },
        {
          "indexed": false,
          "internalType": "address",
          "name": "executor",
          "type": "address"
        },
        {
          "indexed": false,
          "internalType": "uint256",
          "name": "executorFeeNatWei",
          "type": "uint256"
        }
      ],
      "name": "RedemptionRequested",
      "type": "event"
    },
    {
      "anonymous": false,
      "inputs": [
        {
          "indexed": true,
          "internalType": "address",
          "name": "agentVault",
          "type": "address"
        },
        {
          "indexed": true,
          "internalType": "uint256",
          "name": "redemptionTicketId",
          "type": "uint256"
        },
        {
          "indexed": false,
          "internalType": "uint256",
          "name": "ticketValueUBA",
          "type": "uint256"
        }
      ],
      "name": "RedemptionTicketCreated",
      "type": "event"
    },
    {
      "anonymous": false,
      "inputs": [
        {
          "indexed": true,
          "internalType": "address",
          "name": "agentVault",
          "type": "address"
        },
        {
          "indexed": true,
          "internalType": "uint256",
          "name": "redemptionTicketId",
          "type": "uint256"
        }
      ],
      "name": "RedemptionTicketDeleted",
      "type": "event"
    },
    {
      "anonymous": false,
      "inputs": [
        {
          "indexed": true,
          "internalType": "address",
          "name": "agentVault",
          "type": "address"
        },
        {
          "indexed": true,
          "internalType": "uint256",
          "name": "redemptionTicketId",
          "type": "uint256"
        },
        {
          "indexed": false,
          "internalType": "uint256",
          "name": "ticketValueUBA",
          "type": "uint256"
        }
      ],
      "name": "RedemptionTicketUpdated",
      "type": "event"
    },
    {
      "anonymous": false,
      "inputs": [
        {
          "indexed": false,
          "internalType": "uint256",
          "name": "firstTicketId",
          "type": "uint256"
        },
        {
          "indexed": false,
          "internalType": "uint256",
          "name": "nextTicketId",
          "type": "uint256"
        }
      ],
      "name": "RedemptionTicketsConsolidated",
      "type": "event"
    },
    {
      "anonymous": false,
      "inputs": [
        {
          "indexed": true,
          "internalType": "address",
          "name": "agentVault",
          "type": "address"
        },
        {
          "indexed": false,
          "internalType": "uint256",
          "name": "valueUBA",
          "type": "uint256"
        }
      ],
      "name": "SelfClose",
      "type": "event"
    },
    {
      "inputs": [
        {
          "internalType": "uint256",
          "name": "_firstTicketId",
          "type": "uint256"
        }
      ],
      "name": "consolidateSmallTickets",
      "outputs": [],
      "stateMutability": "nonpayable",
      "type": "function"
    },
    {
      "inputs": [
        {
          "internalType": "address",
          "name": "_agentVault",
          "type": "address"
        }
      ],
      "name": "convertDustToTicket",
      "outputs": [],
      "stateMutability": "nonpayable",
      "type": "function"
    },
    {
      "inputs": [
        {
          "internalType": "address",
          "name": "_agentVault",
          "type": "address"
        }
      ],
      "name": "maxRedemptionFromAgent",
      "outputs": [
        {
          "internalType": "uint256",
          "name": "",
          "type": "uint256"
        }
      ],
      "stateMutability": "view",
      "type": "function"
    },
    {
      "inputs": [
        {
          "internalType": "uint256",
          "name": "_lots",
          "type": "uint256"
        },
        {
          "internalType": "string",
          "name": "_redeemerUnderlyingAddressString",
          "type": "string"
        },
        {
          "internalType": "address payable",
          "name": "_executor",
          "type": "address"
        }
      ],
      "name": "redeem",
      "outputs": [
        {
          "internalType": "uint256",
          "name": "_redeemedAmountUBA",
          "type": "uint256"
        }
      ],
      "stateMutability": "payable",
      "type": "function"
    },
    {
      "inputs": [
        {
          "internalType": "address",
          "name": "_agentVault",
          "type": "address"
        },
        {
          "internalType": "address",
          "name": "_receiver",
          "type": "address"
        },
        {
          "internalType": "uint256",
          "name": "_amountUBA",
          "type": "uint256"
        },
        {
          "internalType": "string",
          "name": "_receiverUnderlyingAddress",
          "type": "string"
        },
        {
          "internalType": "address payable",
          "name": "_executor",
          "type": "address"
        }
      ],
      "name": "redeemFromAgent",
      "outputs": [],
      "stateMutability": "payable",
      "type": "function"
    },
    {
      "inputs": [
        {
          "internalType": "address",
          "name": "_agentVault",
          "type": "address"
        },
        {
          "internalType": "address",
          "name": "_receiver",
          "type": "address"
        },
        {
          "internalType": "uint256",
          "name": "_amountUBA",
          "type": "uint256"
        }
      ],
      "name": "redeemFromAgentInCollateral",
      "outputs": [],
      "stateMutability": "nonpayable",
      "type": "function"
    },
    {
      "inputs": [
        {
          "components": [
            {
              "internalType": "bytes32[]",
              "name": "merkleProof",
              "type": "bytes32[]"
            },
            {
              "components": [
                {
                  "internalType": "bytes32",
                  "name": "attestationType",
                  "type": "bytes32"
                },
                {
                  "internalType": "bytes32",
                  "name": "sourceId",
                  "type": "bytes32"
                },
                {
                  "internalType": "uint64",
                  "name": "votingRound",
                  "type": "uint64"
                },
                {
                  "internalType": "uint64",
                  "name": "lowestUsedTimestamp",
                  "type": "uint64"
                },
                {
                  "components": [
                    {
                      "internalType": "string",
                      "name": "addressStr",
                      "type": "string"
                    }
                  ],
                  "internalType": "struct IAddressValidity.RequestBody",
                  "name": "requestBody",
                  "type": "tuple"
                },
                {
                  "components": [
                    {
                      "internalType": "bool",
                      "name": "isValid",
                      "type": "bool"
                    },
                    {
                      "internalType": "string",
                      "name": "standardAddress",
                      "type": "string"
                    },
                    {
                      "internalType": "bytes32",
                      "name": "standardAddressHash",
                      "type": "bytes32"
                    }
                  ],
                  "internalType": "struct IAddressValidity.ResponseBody",
                  "name": "responseBody",
                  "type": "tuple"
                }
              ],
              "internalType": "struct IAddressValidity.Response",
              "name": "data",
              "type": "tuple"
            }
          ],
          "internalType": "struct IAddressValidity.Proof",
          "name": "_proof",
          "type": "tuple"
        },
        {
          "internalType": "uint256",
          "name": "_redemptionRequestId",
          "type": "uint256"
        }
      ],
      "name": "rejectInvalidRedemption",
      "outputs": [],
      "stateMutability": "nonpayable",
      "type": "function"
    },
    {
      "inputs": [
        {
          "internalType": "address",
          "name": "_agentVault",
          "type": "address"
        },
        {
          "internalType": "uint256",
          "name": "_amountUBA",
          "type": "uint256"
        }
      ],
      "name": "selfClose",
      "outputs": [
        {
          "internalType": "uint256",
          "name": "_closedAmountUBA",
          "type": "uint256"
        }
      ],
      "stateMutability": "nonpayable",
      "type": "function"
    }
  ],
  "bytecode": "0x6080604052348015600f57600080fd5b5061463c8061001f6000396000f3fe60806040526004361061007b5760003560e01c806399646d1c1161004e57806399646d1c14610114578063997be0f414610127578063df6f36631461013a578063ed000b301461015a57600080fd5b80631e8bee011461008057806365454f94146100b257806387375f27146100d45780639584da2a146100f4575b600080fd5b34801561008c57600080fd5b506100a061009b366004613b1d565b61017a565b60405190815260200160405180910390f35b3480156100be57600080fd5b506100d26100cd366004613b1d565b61028a565b005b3480156100e057600080fd5b506100d26100ef366004613b3a565b610349565b34801561010057600080fd5b506100a061010f366004613b83565b6105a2565b6100a0610122366004613c44565b610684565b6100d2610135366004613c9e565b6108c0565b34801561014657600080fd5b506100d2610155366004613d1e565b61099c565b34801561016657600080fd5b506100d2610175366004613d37565b610af2565b60008061018683610c39565b60068101549091506000805160206145c7833981519152906001600160401b031660006101b1610cd4565b600f0154600160801b900461ffff169050600060088401816101d287610cf8565b6001600160a01b0316815260208101919091526040016000908120546001600160401b031691505b6001600160401b0382161580159061021157508281105b15610275576001600160401b03828116600090815260078701602052604090208054909161024791600160a01b90041686613d8e565b6001909101549094506001600160401b03600160c01b9091041691508061026d81613dad565b9150506101fa565b5061027f83610d20565b979650505050505050565b6102946001610d51565b61029c610df6565b60006102a6610cd4565b905060006102b383610c39565b600d83015460068201549192506001600160401b0390811691161061032d57600d82015460068201546000916102f5916001600160401b039182169116613ddc565b60068301549091506000906103149083906001600160401b0316613e0a565b90506103208382610e2e565b61032a8383610fd2565b50505b505061034660016000805160206145e783398151915255565b50565b6103536002610d51565b61035b610df6565b6000610368826001611068565b600881015490915060ff161561038057610380613e29565b600481015460009061039a906001600160a01b0316610c39565b905060016004830154600160a01b900460ff1660068111156103be576103be613e3f565b146103dc57604051638336ad7d60e01b815260040160405180910390fd5b6103e58161111c565b6103ee84611143565b60006103fd6020860186613e55565b61040b906080810190613e75565b6104159080613e8b565b604051610423929190613ed1565b604051809103902090508260000154811461045157604051630d23cf4160e11b815260040160405180910390fd5b60006104606020870187613e55565b61046e9060a0810190613ee1565b61047c906020810190613f05565b80156104a6575083546104926020880188613e55565b6104a09060a0810190613ee1565b60400135145b905080156104c757604051631e99ffed60e01b815260040160405180910390fd5b6104fa838560020160189054906101000a90046001600160401b03168660040160159054906101000a900460ff1661121d565b610503846112b7565b600284015460009061052490600160c01b90046001600160401b0316610d20565b6003860154600487015460405183815292935088926001600160a01b0392831692909116907f94d66df0cc76b15bc59edd2c5f5b565292490a6ef58fde83e3bfaef6671627af9060200160405180910390a46105828686600661133c565b505050505061059e60016000805160206145e783398151915255565b5050565b60006105ae6001610d51565b6105b6610df6565b826105c081611394565b60006105cb85610c39565b9050836000036105ee57604051634910298d60e11b815260040160405180910390fd5b60006105f9856113a6565b90506000610609838360016113d7565b915050610616338261158e565b61061f836115f6565b866001600160a01b03167f27a9c0ea115e1a078f8a4ddd385379102c3138ded0ddd00bf9cc5ee197457dc88260405161065a91815260200190565b60405180910390a2935050505061067e60016000805160206145e783398151915255565b92915050565b60006106906001610d51565b610698610df6565b60006106a2610cd4565b600f0160109054906101000a900461ffff1661ffff16905060006040518060400160405280836001600160401b038111156106df576106df613ba1565b60405190808252806020026020018201604052801561072457816020015b60408051808201909152600080825260208201528152602001906001900390816106fd5790505b508152602001600081525090506000805b838110801561074357508782105b156107905760008061075e610758858c613f22565b866116d3565b91509150811561076f575050610790565b6107798185613f35565b93505050808061078890613dad565b915050610735565b50806000036107b25760405163882ccad960e01b815260040160405180910390fd5b60006107c2633b9aca0034613f48565b905060005b836020015181101561083e5760008185602001516107e59190613f22565b6107ef9084613f48565b90506107fb8184613f22565b92506108348560000151838151811061081657610816613f5c565b6020026020010151338b60008c61082c87611906565b600080611977565b50506001016107c7565b508782101561088557337fffb29516defd624d1f4ff8436cc96282ba7b4294c3a18cf274c3bdf21c9ccd99610873848b613f22565b60405190815260200160405180910390a25b600061089083611e49565b905061089c338261158e565b9450505050506108b960016000805160206145e783398151915255565b9392505050565b6108ca6001610d51565b6108d2610df6565b60006108dd86610c39565b90506108e881611e89565b83600003610909576040516345a22e4360e01b815260040160405180910390fd5b6000610914856113a6565b9050600080610925848460006113d7565b604080518082019091526001600160a01b038c1681526001600160401b0383166020820152919350915061096e818a8960018a61082c610969633b9aca0034613f48565b611906565b50610979338361158e565b505050505061099560016000805160206145e783398151915255565b5050505050565b6109a66001610d51565b6109ae610df6565b6000805160206145c783398151915260006109c7610cd4565b600f0154600160801b900461ffff16905060008381036109f45760098301546001600160401b03166109fd565b6109fd84611906565b90508060005b83811015610a93576001600160401b03821615610a93576001600160401b0382166000908152600786016020526040902081151580610a4b575080546001600160a01b031615155b610a685760405163369cb27760e01b815260040160405180910390fd5b6001810154600160401b90046001600160401b0316610a88846000611eb3565b925050600101610a03565b50604080516001600160401b038085168252831660208201527ffcd4d7e3c741c278947117e3e41c09fb0e286bb07df70c221282891839f211b4910160405180910390a15050505061034660016000805160206145e783398151915255565b610afc6001610d51565b610b04610df6565b6000610b0f84610c39565b9050610b1a81611e89565b81600003610b3b576040516345a22e4360e01b815260040160405180910390fd5b6000610b46836113a6565b9050600080610b57848460016113d7565b60048601549193509150600090610b7690610100900461ffff1661208a565b600a860154909150600090610ba990600160801b900461ffff16610ba36001600160401b038716856120d5565b906120ef565b9050610bb68689836120fe565b50876001600160a01b0316896001600160a01b03167f25c177efe505ee9dd8e37b9825d729e1a27b6ac048c6e55ba91841d9a7fa9ecc8584604051610c05929190918252602082015260400190565b60405180910390a3610c17338461158e565b505050505050610c3460016000805160206145e783398151915255565b505050565b604081901b68010000000000000000600160e01b03167f5bebac0595fee029d42bb673937f5f1cb81cf8641382bc17774635de9b7d79651860048101546000919060ff1682816005811115610c9057610c90613e3f565b14158015610cb057506005816005811115610cad57610cad613e3f565b14155b610ccd5760405163d68a46c560e01b815260040160405180910390fd5b5092915050565b7f4f24f5c433db0962dac0d2c8b84197a6e6c7cc4e5d9ebe1916a1b6193da2f33a90565b7f5bebac0595fee029d42bb673937f5f1cb81cf8641382bc17774635de9b7d79651860401c90565b600080610d2b610cd4565b600c8101549091506108b9906001600160401b03600160901b9091048116908516613f72565b7fec7e8c1c441439dd40959777f4c577ea0cd42fcc1dbe59d2bd0f5d9c55df8dc6546000805160206145c78339815191529060009042600160401b9091046001600160401b0316118015610dd55750826003811115610db257610db2613e3f565b6011830154600160901b900460ff166003811115610dd257610dd2613e3f565b10155b90508015610c345760405163909b191760e01b815260040160405180910390fd5b6000805160206145e7833981519152805460011901610e2857604051633ee5aeb560e01b815260040160405180910390fd5b60029055565b6000805160206145c78339815191526001600160401b038216600003610e5357505050565b6000610e5e84610cf8565b6009830154600160401b90046001600160401b031660008181526007850160205260409020805492935090916001600160a01b03808516911603610f5b57805485908290601490610ec0908490600160a01b90046001600160401b0316613d8e565b92506101000a8154816001600160401b0302191690836001600160401b031602179055506000610f068260000160149054906101000a90046001600160401b0316610d20565b9050826001600160401b0316846001600160a01b03167f9d2e72c50be7927e999d37329649af37a863df77bcb25361699ce021d3d7475d83604051610f4d91815260200190565b60405180910390a350610fca565b6000610f6b600786018588612208565b90506000610f7887610d20565b9050816001600160401b0316856001600160a01b03167f631f8f2039090539b2ea4ef7dc567f7f1939ef4dd3e790b1ca7bc548a1fada5883604051610fbf91815260200190565b60405180910390a350505b505050505050565b60068201546001600160401b03808316911603610fed575050565b60068201805467ffffffffffffffff19166001600160401b038316179055600061101682610d20565b905061102183610cf8565b6001600160a01b03167fa3db2bc927901a1d3ba09ad51d84609457b98443be9132a0a936a47c5a1081b58260405161105b91815260200190565b60405180910390a2505050565b60006000805160206145c7833981519152838203611099576040516302e8145360e61b815260040160405180910390fd5b6000848152600a820160205260409020915082156110dc576110ba82612611565b6110d7576040516302e8145360e61b815260040160405180910390fd5b610ccd565b60006004830154600160a01b900460ff1660068111156110fe576110fe613e3f565b03610ccd576040516302e8145360e61b815260040160405180910390fd5b611126813361265a565b6103465760405163f6e2f99b60e01b815260040160405180910390fd5b600061114d610cd4565b6008810154600b8201549192506001600160a01b0316906111716020850185613e55565b60200135146111935760405163057f3fa760e51b815260040160405180910390fd5b60405163f34ef58760e01b81526001600160a01b0382169063f34ef587906111bf908690600401614141565b602060405180830381865afa1580156111dc573d6000803e3d6000fd5b505050506040513d601f19601f8201168201806040525081019061120091906141de565b610c345760405163f5c977e760e01b815260040160405180910390fd5b600583015461123d908390600160801b90046001600160401b0316613e0a565b8360050160106101000a8154816001600160401b0302191690836001600160401b0316021790555080610c3457600583015461128a908390600160c01b90046001600160401b0316613e0a565b8360050160186101000a8154816001600160401b0302191690836001600160401b03160217905550505050565b60058101546000906112de90633b9aca0090600160a01b90046001600160401b0316613f72565b9050801561059e5760058201805467ffffffffffffffff60a01b1916905561130461269b565b6001600160a01b03166108fc829081150290604051600060405180830381858888f19350505050158015610c34573d6000803e3d6000fd5b600381600681111561135057611350613e3f565b101561135e5761135e613e29565b60048201805482919060ff60a01b1916600160a01b83600681111561138557611385613e3f565b0217905550610c3483836126b9565b6111266113a082610c39565b3361265a565b6000806113b1610cd4565b600c8101549091506108b99061096990600160901b90046001600160401b031685613f48565b6000806000805160206145c7833981519152816113f2610cd4565b600f0154600160801b900461ffff169050600061140d610cd4565b600d01546001600160401b0316905060005b828110801561143f5750876001600160401b0316866001600160401b0316105b1561151d57600060088501816114548c610cf8565b6001600160a01b0316815260208101919091526040016000908120546001600160401b03169150819003611488575061151d565b6001600160401b038181166000908152600787016020526040812060068d0154815491936114c19291811691600160a01b900416613d8e565b90506114cd8582613ddc565b6114d79082613e0a565b905060006114ee6114e88b8e613e0a565b8361271a565b90506114fa8482611eb3565b611504818b613d8e565b995050505050808061151590613dad565b91505061141f565b50600061154061152d878a613e0a565b60068b01546001600160401b031661271a565b90506001600160401b038116156115675761155b8187613d8e565b95506115678982612743565b861561157757611577898761276b565b61158086610d20565b945050505050935093915050565b6115966127b7565b604051632770a7eb60e21b81526001600160a01b038481166004830152602482018490529190911690639dc29fac90604401600060405180830381600087803b1580156115e257600080fd5b505af1158015610fca573d6000803e3d6000fd5b6002600482015460ff16600581111561161157611611613e3f565b146116195750565b6000611624826127d5565b90506000611633836000612849565b90506000611642846001612849565b90508183600001511015801561165c575080836020015110155b156116cd576004840180547fff00ff0000000000000000ffffffffffffffffffffffffffffffffffffffff0016600117905561169784610cf8565b6001600160a01b03167fe513b42585b0ceec0d56d56fe3a23861c15a2f74eb4c32c94334d63d68ff4dcf60405160405180910390a25b50505050565b6000806000805160206145c7833981519152816116ee610cd4565b60098301549091506001600160401b031660008190036117185760016000945094505050506118ff565b6001600160401b0381166000908152600784016020526040812080549091506001600160a01b0316600061174b82610c39565b600d860154600682015485549293506000926001600160401b039283169261177d92811691600160a01b900416613d8e565b61178791906141fb565b6001600160401b03169050600098506117a08b8261288f565b975087156118ec5760006117b38961289e565b905060005b8b60200151811080156117fe5750846001600160a01b03168c6000015182815181106117e6576117e6613f5c565b6020026020010151600001516001600160a01b031614155b156118135761180c81613dad565b90506117b8565b8b6020015181101561187f57818c60000151828151811061183657611836613f5c565b60200260200101516020015161184c9190613d8e565b8c5180518390811061186057611860613f5c565b6020908102919091018101516001600160401b039092169101526118db565b6040518060400160405280866001600160a01b03168152602001836001600160401b03168152508c600001518d60200180518091906118bd90613dad565b9052815181106118cf576118cf613f5c565b60200260200101819052505b6118e58783611eb3565b50506118f7565b6118f7856000611eb3565b505050505050505b9250929050565b60006001600160401b038211156119735760405162461bcd60e51b815260206004820152602660248201527f53616665436173743a2076616c756520646f65736e27742066697420696e203660448201526534206269747360d01b60648201526084015b60405180910390fd5b5090565b60006001600160401b038416158061199757506001600160a01b03851615155b6119b457604051632a436fa560e21b815260040160405180910390fd5b88516000805160206145c7833981519152906000906119d290610c39565b905060808951106119f65760405163599ec1c160e01b815260040160405180910390fd5b885160208a012060038201548103611a21576040516302908b3160e11b815260040160405180910390fd5b6000611a38611a338e60200151610d20565b6128c8565b9050611a438a612931565b9450611add6040805161026081018252600080825260208201819052918101829052606081018290526080810182905260a0810182905260c0810182905260e08101829052610100810182905261012081018290529061014082019081526000602082018190526040820181905260608083018290526080830182905260a0830182905260c083015260e082018190526101009091015290565b8281526001600160801b0382166020820152600f8501546201000090046001600160401b031660608201528d51611b1490896129c6565b6001600160401b0390811660a0840152166080820152611b3342611906565b6001600160401b031661010082015286611b7957611b74611a33611b55610cd4565b600e01546001600160801b03851690600160401b900461ffff166120ef565b611b7c565b60005b6001600160801b031660408201526001600160a01b038d811660e08301528e511661012082015260208e01516001600160401b031660c082015260016101408201819052508a15156101608201526001600160a01b03808b166101808301526001600160401b03808b166101a084015261020083018e9052881515610220840152600c86015461ffff600160e01b909104166102408401528781166000908152600a880160209081526040918290208551815590850151918501516001600160801b03908116600160801b9081029382169390931760018301556060860151600283018054608089015160a08a015160c08b01518916600160c01b026001600160c01b03918a1690980216908816600160401b026001600160801b0319929092169388169390931717909216179290921790915560e0840151600382018054610100870151909416600160a01b9081026001600160e01b03199095169286169290921793909317909255610120840151600482018054919094166001600160a01b0319821681178555610140860151869593949093926001600160a81b03191690911790836006811115611d3257611d32613e3f565b021790555061016082015160048201805460ff60a81b1916600160a81b921515929092029190911790556101808201516005820180546101a08501516001600160a01b039093166001600160e01b031990911617600160a01b6001600160401b03938416021790556101c08301516006830180546101e08601519284166001600160801b031990911617600160401b92909316919091029190911790556102008201516007820190611de490826142aa565b50610220820151600890910180546102409093015161ffff166101000262ffff00199215159290921662ffffff199093169290921717905560208e0151611e2d9085908d612ade565b611e3881878e612b82565b505050505098975050505050505050565b600080611e54610cd4565b600c810154600d8201549192506001600160401b03600160901b909104811691611e7f911685613f72565b6108b99190613f72565b80546001600160a01b0316331461034657604051636f6afbb360e01b815260040160405180910390fd5b6001600160401b03821660009081527fec7e8c1c441439dd40959777f4c577ea0cd42fcc1dbe59d2bd0f5d9c55df8dbd602081905260408220805491929091611f04906001600160a01b0316610c39565b90506000611f10610cd4565b600d0154600683015484546001600160401b0392831693506000928892611f439290821691600160a01b90910416613d8e565b611f4d9190613e0a565b90506000611f5b8383613ddc565b90506000611f698284613e0a565b9050806001600160401b0316600003611fd357611f86878a612c3c565b886001600160401b0316611f9986610cf8565b6001600160a01b03167fb7f65e70a51658e24800516a5dc90e2dd65176e18381adda77f58e2044482b1960405160405180910390a3612075565b85546001600160401b03828116600160a01b909204161461207557855467ffffffffffffffff60a01b1916600160a01b6001600160401b03831602178655600061201c82610d20565b9050896001600160401b031661203187610cf8565b6001600160a01b03167f9d2e72c50be7927e999d37329649af37a863df77bcb25361699ce021d3d7475d8360405161206b91815260200190565b60405180910390a3505b61207f8583610fd2565b505050505050505050565b6000806000805160206145c783398151915290506120cb8160000184815481106120b6576120b6613f5c565b90600052602060002090600402016000613016565b5090949350505050565b60006108b9826120e76009600a61444f565b8591906131d5565b60006108b983836127106131d5565b60008061210a856132d9565b9050600061211786610cf8565b82546040516370a0823160e01b81526001600160a01b03808416600483015292935061219092879216906370a0823190602401602060405180830381865afa158015612167573d6000803e3d6000fd5b505050506040513d601f19601f8201168201806040525081019061218b919061445b565b61288f565b825460405163083e007560e21b81526001600160a01b0391821660048201528782166024820152604481018390529194508216906320f801d490606401600060405180830381600087803b1580156121e757600080fd5b505af11580156121fb573d6000803e3d6000fd5b5050505050509392505050565b6001600160a01b0382166000908152600184016020526040812060028501805483919060109061224790600160801b90046001600160401b0316614474565b91906101000a8154816001600160401b0302191690836001600160401b03160217905590506040518060c00160405280866001600160a01b03168152602001856001600160401b031681526020018760020160089054906101000a90046001600160401b03166001600160401b0316815260200160006001600160401b031681526020018360000160089054906101000a90046001600160401b03166001600160401b0316815260200160006001600160401b0316815250866000016000836001600160401b03166001600160401b0316815260200190815260200160002060008201518160000160006101000a8154816001600160a01b0302191690836001600160a01b0316021790555060208201518160000160146101000a8154816001600160401b0302191690836001600160401b0316021790555060408201518160010160006101000a8154816001600160401b0302191690836001600160401b0316021790555060608201518160010160086101000a8154816001600160401b0302191690836001600160401b0316021790555060808201518160010160106101000a8154816001600160401b0302191690836001600160401b0316021790555060a08201518160010160186101000a8154816001600160401b0302191690836001600160401b031602179055509050508560020160009054906101000a90046001600160401b03166001600160401b03166000036124a4576002860154600160401b90046001600160401b03161561248157612481613e29565b60028601805467ffffffffffffffff19166001600160401b03831617905561250c565b6002860154600160401b90046001600160401b03166000036124c8576124c8613e29565b6002860154600160401b908190046001600160401b039081166000908152602089905260409020600101805467ffffffffffffffff60401b19169184169092021790555b6002860180546001600160401b03808416600160401b0267ffffffffffffffff60401b1990921691909117909155825416600003612582578154600160401b90046001600160401b03161561256357612563613e29565b815467ffffffffffffffff19166001600160401b0382161782556125e5565b8154600160401b90046001600160401b03166000036125a3576125a3613e29565b81546001600160401b03600160401b909104811660009081526020889052604090206001018054918316600160c01b026001600160c01b039092169190911790555b815467ffffffffffffffff60401b1916600160401b6001600160401b0383160217909155949350505050565b6004810154600090600160a01b900460ff16600181600681111561263757612637613e3f565b14806108b95750600281600681111561265257612652613e3f565b149392505050565b60018201546000906001600160a01b03838116911614806108b9575061267f83613326565b6001600160a01b0316826001600160a01b031614905092915050565b6000806126a6610cd4565b600901546001600160a01b031692915050565b600881015460ff161561059e5760048101546000906126e0906001600160a01b0316610c39565b600c81015490915064010000000090046001600160401b0316839003610c3457600c0180546bffffffffffffffff00000000191690555050565b6000816001600160401b0316836001600160401b0316111561273c57816108b9565b5090919050565b600682015460009061275f9083906001600160401b0316613e0a565b9050610c348382610fd2565b600582015461278b908290600160401b90046001600160401b0316613e0a565b8260050160086101000a8154816001600160401b0302191690836001600160401b031602179055505050565b6000806127c2610cd4565b600101546001600160a01b031692915050565b6128006040518060800160405280600081526020016000815260200160008152602001600081525090565b60008061280e84600061339f565b9150915060008061282086600161339f565b604080516080810182529687526020870192909252908501939093525050606082015292915050565b60008061285684846133fa565b9050612862848461349f565b612877576003015463ffffffff16905061067e565b60030154600160401b900463ffffffff16905061067e565b600081831061273c57816108b9565b6000806128a9610cd4565b600d8101549091506108b990610969906001600160401b031685613f72565b60006001600160801b038211156119735760405162461bcd60e51b815260206004820152602760248201527f53616665436173743a2076616c756520646f65736e27742066697420696e20316044820152663238206269747360c81b606482015260840161196a565b60006000805160206145c78339815191528161294b613508565b600e83015461296a9190600160401b90046001600160401b0316613d8e565b905060008461297a57600061297d565b60015b60ff1660011961298e846001613d8e565b161790508083600e0160086101000a8154816001600160401b0302191690836001600160401b03160217905550809350505050919050565b6000806000805160206145c7833981519152816129e1610cd4565b90506000856129ef88613526565b600f850154600160901b90046001600160401b0316612a0d42611906565b612a179190613e0a565b612a219190613d8e565b612a2b9190613d8e565b600c830154909150600090612a5f9063ffffffff16612a556001600160401b0385166103e8613f72565b6109699190613f48565b600d840154600f8601549192506001600160401b03600160981b909104811691612a9191849162010000900416613d8e565b612a9b9190613d8e565b600e840154600f8601549197506001600160401b0390811691612ac7918591600160501b900416613d8e565b612ad19190613d8e565b9450505050509250929050565b818360050160108282829054906101000a90046001600160401b0316612b049190613d8e565b92506101000a8154816001600160401b0302191690836001600160401b0316021790555080612b7857818360050160188282829054906101000a90046001600160401b0316612b539190613d8e565b92506101000a8154816001600160401b0302191690836001600160401b031602179055505b610c34838361276b565b816001600160401b03168360e001516001600160a01b03168461012001516001600160a01b03167f8cbbd73a8d1b8b02a53c4c3b0ee34b472fe3099cc19bcfb57f1aae09e8a9847e848760200151886040015189606001518a608001518b60a00151612bf68c6001600160401b03166135e8565b8d6101800151633b9aca008f6101a001516001600160401b0316612c1a9190613f72565b604051612c2f999897969594939291906144e5565b60405180910390a4505050565b6001600160401b038116600090815260208390526040902080546001600160a01b0316612c6b57612c6b613e29565b80546001600160a01b031660009081526001808501602052604082209083015490916001600160401b039091169003612cf15760028401546001600160401b03848116911614612cbd57612cbd613e29565b6001820154600285018054600160401b9092046001600160401b031667ffffffffffffffff19909216919091179055612d59565b60028401546001600160401b0390811690841603612d1157612d11613e29565b6001828101546001600160401b038082166000908152602088905260409020909201805467ffffffffffffffff60401b1916600160401b928390049093169091029190911790555b6001820154600160401b90046001600160401b0316600003612dd05760028401546001600160401b03848116600160401b9092041614612d9b57612d9b613e29565b600182015460028501805467ffffffffffffffff60401b19166001600160401b03909216600160401b02919091179055612e38565b60028401546001600160401b03600160401b909104811690841603612df757612df7613e29565b600180830154600160401b81046001600160401b039081166000908152602088905260409020909201805467ffffffffffffffff1916929091169190911790555b6001820154600160801b90046001600160401b0316600003612e9d5780546001600160401b03848116911614612e7057612e70613e29565b60018201548154600160c01b9091046001600160401b031667ffffffffffffffff19909116178155612f03565b80546001600160401b0390811690841603612eba57612eba613e29565b6001828101546001600160401b03600160801b82048116600090815260208890526040902090920180546001600160c01b0316600160c01b928390049093169091029190911790555b6001820154600160c01b90046001600160401b0316600003612f765780546001600160401b03848116600160401b9092041614612f4257612f42613e29565b6001820154815467ffffffffffffffff60401b1916600160801b9091046001600160401b0316600160401b02178155612fe8565b80546001600160401b03600160401b909104811690841603612f9a57612f9a613e29565b6001828101546001600160401b03600160c01b820481166000908152602088905260409020909201805467ffffffffffffffff60801b1916600160801b928390049093169091029190911790555b50506001600160401b031660009081526020919091526040812080546001600160e01b031916815560010155565b6000806000806000806130b588600101805461303190614229565b80601f016020809104026020016040519081016040528092919081815260200182805461305d90614229565b80156130aa5780601f1061307f576101008083540402835291602001916130aa565b820191906000526020600020905b81548152906001019060200180831161308d57829003601f168201915b505050505088613612565b8a549295509093509150600160f01b900460ff16156130fc5787546000906130eb90600160a81b900460ff1660018387866136dd565b96509194508493506131ce92505050565b60008060006131978b600201805461311390614229565b80601f016020809104026020016040519081016040528092919081815260200182805461313f90614229565b801561318c5780601f106131615761010080835404028352916020019161318c565b820191906000526020600020905b81548152906001019060200180831161316f57829003601f168201915b50505050508b613612565b8d5492955090935091506000906131bb90600160a81b900460ff1685848a896136dd565b99509497509095506131ce945050505050565b9250925092565b60008082116131f7576040516323d359a360e01b815260040160405180910390fd5b83600003613207575060006108b9565b8383028385828161321a5761321a613dc6565b04036132385782818161322f5761322f613dc6565b049150506108b9565b5060006132458386613f48565b905060006132538487614554565b905060006132618587613f48565b9050600061326f8688614554565b90508561327c8285613f72565b6132869190613f48565b6132908385613f72565b61329a8387613f72565b886132a58689613f72565b6132af9190613f72565b6132b99190613f35565b6132c39190613f35565b6132cd9190613f35565b98975050505050505050565b6000806000805160206145c783398151915260048401548154919250829161010090910461ffff1690811061331057613310613f5c565b9060005260206000209060040201915050919050565b6000613330613761565b6001830154604051631f86345d60e31b81526001600160a01b03918216600482015291169063fc31a2e890602401602060405180830381865afa15801561337b573d6000803e3d6000fd5b505050506040513d601f19601f8201168201806040525081019061067e9190614568565b6000806000806133af868661377f565b9150915060006133bf838861385d565b905060006133cd838961385d565b90506133e18460400151846040015161288f565b94506133ed82826138b4565b9550505050509250929050565b6000600282600281111561341057613410613e3f565b0361341d5761341d613e29565b6000805160206145c7833981519152600083600281111561344057613440613e3f565b0361347c57600484015481548291610100900461ffff1690811061346657613466613f5c565b906000526020600020906004020191505061067e565b6004840154815482916301000000900461ffff1690811061346657613466613f5c565b6000808260028111156134b4576134b4613e3f565b036134d057506004820154600160f01b9004600116151561067e565b60018260028111156134e4576134e4613e3f565b146134f1576134f1613e29565b506004820154600160f01b9004600216151561067e565b60006135166103e843614554565b613521906001613f35565b905090565b6001600160a01b03811660009081527f1309a575a1ebd5e5ca64d58e63b864f1d06aed3e31a021b0eabae653c215fb07602052604081207f1309a575a1ebd5e5ca64d58e63b864f1d06aed3e31a021b0eabae653c215fb06908261358942611906565b835483549192506000916135a9916001600160401b039081169116613d8e565b90506135b581836138c3565b835467ffffffffffffffff19166001600160401b039190911690811784556135de908390613e0a565b9695505050505050565b60006001600160401b0382111561360157613601613e29565b5067232128293320800160c11b1790565b600080600080613620610cd4565b600a8101549091506001600160a01b031685156136b15760405163e4a0a55b60e01b81526001600160a01b0382169063e4a0a55b90613663908a90600401614585565b606060405180830381865afa158015613680573d6000803e3d6000fd5b505050506040513d601f19601f820116820180604052508101906136a49190614598565b94509450945050506131ce565b60405163524f388960e01b81526001600160a01b0382169063524f388990613663908a90600401614585565b6000806136e8610cd4565b9050600060096136f8878a613f35565b6137029190613f35565b600a830154909150600090613722908690600160a81b900460ff16613f35565b90508082101561373457613734613e29565b6137546137418284613f22565b61374c90600a61444f565b87908a6131d5565b9998505050505050505050565b60008061376c610cd4565b600701546001600160a01b031692915050565b6137a46040805160608101909152806000815260200160008152602001600081525090565b6137c96040805160608101909152806000815260200160008152602001600081525090565b60006137d585856133fa565b905060006137e48686846138e5565b90506000806137f2846139d1565b91509150604051806060016040528088600281111561381357613813613e3f565b8152602001848152602001838152509550604051806060016040528088600281111561384157613841613e3f565b8152602001848152602001828152509450505050509250929050565b60008061386e838560000151613a80565b905060006138808286604001516120d5565b905080600003613899576402540be4009250505061067e565b60208501516138ab90612710836131d5565b95945050505050565b600081831161273c57816108b9565b6000816001600160401b0316836001600160401b0316101561273c57816108b9565b600060018360028111156138fb576138fb613e3f565b0361397457835460408051634ac8eb5f60e01b815290516001600160a01b0390921691634ac8eb5f916004808201926020929091908290030181865afa158015613949573d6000803e3d6000fd5b505050506040513d601f19601f8201168201806040525081019061396d919061445b565b90506108b9565b81546001600160a01b03166370a0823161398d86610cf8565b6040516001600160e01b031960e084901b1681526001600160a01b039091166004820152602401602060405180830381865afa158015613949573d6000803e3d6000fd5b60008060006139de610cd4565b905060008060006139f0876000613016565b9250925092506000806000613a068a6001613016565b60108a015492955090935091506000908590613a3290600160c01b90046001600160401b031684613f35565b10158015613a5f575060108801548690613a5c90600160c01b90046001600160401b031685613f35565b10155b905086995080613a6f5786613a71565b835b98505050505050505050915091565b6000806001836002811115613a9757613a97613e3f565b14613ab6576005840154600160801b90046001600160401b0316613acc565b6005840154600160c01b90046001600160401b03165b60058501546001600160401b0391821692508291613af69180821691600160401b90910416613f35565b613b009190613f35565b949350505050565b6001600160a01b038116811461034657600080fd5b600060208284031215613b2f57600080fd5b81356108b981613b08565b60008060408385031215613b4d57600080fd5b82356001600160401b03811115613b6357600080fd5b830160408186031215613b7557600080fd5b946020939093013593505050565b60008060408385031215613b9657600080fd5b8235613b7581613b08565b634e487b7160e01b600052604160045260246000fd5b600082601f830112613bc857600080fd5b81356001600160401b03811115613be157613be1613ba1565b604051601f8201601f19908116603f011681016001600160401b0381118282101715613c0f57613c0f613ba1565b604052818152838201602001851015613c2757600080fd5b816020850160208301376000918101602001919091529392505050565b600080600060608486031215613c5957600080fd5b8335925060208401356001600160401b03811115613c7657600080fd5b613c8286828701613bb7565b9250506040840135613c9381613b08565b809150509250925092565b600080600080600060a08688031215613cb657600080fd5b8535613cc181613b08565b94506020860135613cd181613b08565b93506040860135925060608601356001600160401b03811115613cf357600080fd5b613cff88828901613bb7565b9250506080860135613d1081613b08565b809150509295509295909350565b600060208284031215613d3057600080fd5b5035919050565b600080600060608486031215613d4c57600080fd5b8335613d5781613b08565b92506020840135613d6781613b08565b929592945050506040919091013590565b634e487b7160e01b600052601160045260246000fd5b6001600160401b03818116838216019081111561067e5761067e613d78565b600060018201613dbf57613dbf613d78565b5060010190565b634e487b7160e01b600052601260045260246000fd5b60006001600160401b03831680613df557613df5613dc6565b806001600160401b0384160691505092915050565b6001600160401b03828116828216039081111561067e5761067e613d78565b634e487b7160e01b600052600160045260246000fd5b634e487b7160e01b600052602160045260246000fd5b6000823560be19833603018112613e6b57600080fd5b9190910192915050565b60008235601e19833603018112613e6b57600080fd5b6000808335601e19843603018112613ea257600080fd5b8301803591506001600160401b03821115613ebc57600080fd5b6020019150368190038213156118ff57600080fd5b8183823760009101908152919050565b60008235605e19833603018112613e6b57600080fd5b801515811461034657600080fd5b600060208284031215613f1757600080fd5b81356108b981613ef7565b8181038181111561067e5761067e613d78565b8082018082111561067e5761067e613d78565b600082613f5757613f57613dc6565b500490565b634e487b7160e01b600052603260045260246000fd5b808202811582820484141761067e5761067e613d78565b6000823560be19833603018112613f9f57600080fd5b90910192915050565b80356001600160401b0381168114613fbf57600080fd5b919050565b6000808335601e19843603018112613fdb57600080fd5b83016020810192503590506001600160401b03811115613ffa57600080fd5b8036038213156118ff57600080fd5b81835281816020850137506000828201602090810191909152601f909101601f19169091010190565b600061403e8283613fc4565b602085526138ab602086018284614009565b60008235605e19833603018112613f9f57600080fd5b6000813561407381613ef7565b151583526140846020830183613fc4565b60606020860152614099606086018284614009565b6040948501359590940194909452509092915050565b803582526020808201359083015260006001600160401b036140d360408401613fa8565b1660408401526001600160401b036140ed60608401613fa8565b1660608401526080820135601e1983360301811261410a57600080fd5b60c0608085015261412060c08501848301614032565b905061412f60a0840184614050565b84820360a08601526138ab8282614066565b6020815260008235601e1984360301811261415b57600080fd5b83016020810190356001600160401b0381111561417757600080fd5b8060051b80360383131561418a57600080fd5b60406020860152606085018290526001600160fb1b038211156141ac57600080fd5b80836080870137840191506141c690506020850185613f89565b60608483030160408501526138ab60808301826140af565b6000602082840312156141f057600080fd5b81516108b981613ef7565b60006001600160401b0383168061421457614214613dc6565b806001600160401b0384160491505092915050565b600181811c9082168061423d57607f821691505b60208210810361425d57634e487b7160e01b600052602260045260246000fd5b50919050565b601f821115610c3457806000526020600020601f840160051c8101602085101561428a5750805b601f840160051c820191505b818110156109955760008155600101614296565b81516001600160401b038111156142c3576142c3613ba1565b6142d7816142d18454614229565b84614263565b6020601f82116001811461430b57600083156142f35750848201515b600019600385901b1c1916600184901b178455610995565b600084815260208120601f198516915b8281101561433b578785015182556020948501946001909201910161431b565b50848210156143595786840151600019600387901b60f8161c191681555b50505050600190811b01905550565b6001815b60018411156143a35780850481111561438757614387613d78565b600184161561439557908102905b60019390931c92800261436c565b935093915050565b6000826143ba5750600161067e565b816143c75750600061067e565b81600181146143dd57600281146143e757614403565b600191505061067e565b60ff8411156143f8576143f8613d78565b50506001821b61067e565b5060208310610133831016604e8410600b8410161715614426575081810a61067e565b6144336000198484614368565b806000190482111561444757614447613d78565b029392505050565b60006108b983836143ab565b60006020828403121561446d57600080fd5b5051919050565b60006001600160401b0382166001600160401b03810361449657614496613d78565b60010192915050565b6000815180845260005b818110156144c5576020818501810151868301820152016144a9565b506000602082860101526020601f19601f83011685010191505092915050565b610120815260006144fa61012083018c61449f565b6001600160801b039a8b1660208401529890991660408201526001600160401b03968716606082015294861660808601529290941660a084015260c08301526001600160a01b0390921660e0820152610100015292915050565b60008261456357614563613dc6565b500690565b60006020828403121561457a57600080fd5b81516108b981613b08565b6020815260006108b9602083018461449f565b6000806000606084860312156145ad57600080fd5b505081516020830151604090930151909492935091905056feec7e8c1c441439dd40959777f4c577ea0cd42fcc1dbe59d2bd0f5d9c55df8db60cd2207518cd3e5213e2c6dbe63d55b60aa893c194a427b7d7f1600408fd5bdea264697066735822122057f5bc693e913229970bbb6d46960a2560ff0894c42e8090b18f44b35cd4e47264736f6c634300081b0033",
  "linkReferences": {},
  "deployedLinkReferences": {}
}