{
  "_format": "hh-sol-artifact-1",
  "contractName": "TransfersMock",
  "sourceName": "contracts/utils/mock/TransfersMock.sol",
  "abi": [
    {
      "inputs": [],
      "name": "ReentrancyGuardReentrantCall",
      "type": "error"
    },
    {
      "inputs": [],
      "name": "ReentrancyGuardRequired",
      "type": "error"
    },
    {
      "inputs": [],
      "name": "TransferFailed",
      "type": "error"
    },
    {
      "inputs": [
        {
          "internalType": "address payable",
          "name": "_recipient",
          "type": "address"
        },
        {
          "internalType": "uint256",
          "name": "_amount",
          "type": "uint256"
        }
      ],
      "name": "transferNAT",
      "outputs": [],
      "stateMutability": "nonpayable",
      "type": "function"
    },
    {
      "inputs": [
        {
          "internalType": "address payable",
          "name": "_recipient",
          "type": "address"
        },
        {
          "internalType": "uint256",
          "name": "_amount",
          "type": "uint256"
        }
      ],
      "name": "transferNATNoGuard",
      "outputs": [],
      "stateMutability": "nonpayable",
      "type": "function"
    },
    {
      "stateMutability": "payable",
      "type": "receive"
    }
  ],
  "bytecode": "0x6080604052348015600f57600080fd5b5061024d8061001f6000396000f3fe60806040526004361061002d5760003560e01c8063c6cb8fc714610039578063e502a2db1461005b57600080fd5b3661003457005b600080fd5b34801561004557600080fd5b506100596100543660046101df565b61007b565b005b34801561006757600080fd5b506100596100763660046101df565b610089565b61008582826100c4565b5050565b610091610151565b61009b82826100c4565b61008560017f0cd2207518cd3e5213e2c6dbe63d55b60aa893c194a427b7d7f1600408fd5bde55565b6100cc61019b565b8015610085576000826001600160a01b031682620186a090604051600060405180830381858888f193505050503d8060008114610125576040519150601f19603f3d011682016040523d82523d6000602084013e61012a565b606091505b505090508061014c576040516312171d8360e31b815260040160405180910390fd5b505050565b7f0cd2207518cd3e5213e2c6dbe63d55b60aa893c194a427b7d7f1600408fd5bde80546001190161019557604051633ee5aeb560e01b815260040160405180910390fd5b60029055565b7f0cd2207518cd3e5213e2c6dbe63d55b60aa893c194a427b7d7f1600408fd5bde546002146101dd57604051635bff566960e01b815260040160405180910390fd5b565b600080604083850312156101f257600080fd5b82356001600160a01b038116811461020957600080fd5b94602093909301359350505056fea26469706673582212204d3b751f3679bba9ee08e46bd6132f5412596c8e1a5dd2ed07ca79ea51cdcdd264736f6c634300081b0033",
  "linkReferences": {},
  "deployedLinkReferences": {}
}