{
  "_format": "hh-sol-artifact-1",
  "contractName": "TransfersMock",
  "sourceName": "contracts/utils/mock/TransfersMock.sol",
  "abi": [
    {
      "inputs": [
        {
          "internalType": "address payable",
          "name": "_recipient",
          "type": "address"
        },
        {
          "internalType": "uint256",
          "name": "_amount",
          "type": "uint256"
        }
      ],
      "name": "transferNAT",
      "outputs": [],
      "stateMutability": "nonpayable",
      "type": "function"
    },
    {
      "inputs": [
        {
          "internalType": "address payable",
          "name": "_recipient",
          "type": "address"
        },
        {
          "internalType": "uint256",
          "name": "_amount",
          "type": "uint256"
        }
      ],
      "name": "transferNATNoGuard",
      "outputs": [],
      "stateMutability": "nonpayable",
      "type": "function"
    },
    {
      "stateMutability": "payable",
      "type": "receive"
    }
  ],
  "bytecode": "0x6080604052348015600f57600080fd5b506102d18061001f6000396000f3fe60806040526004361061002d5760003560e01c8063c6cb8fc714610039578063e502a2db1461005b57600080fd5b3661003457005b600080fd5b34801561004557600080fd5b50610059610054366004610263565b61007b565b005b34801561006757600080fd5b50610059610076366004610263565b610089565b61008582826100c4565b5050565b610091610177565b61009b82826100c4565b61008560017f0cd2207518cd3e5213e2c6dbe63d55b60aa893c194a427b7d7f1600408fd5bde55565b6100cc6101f0565b8015610085576000826001600160a01b031682620186a090604051600060405180830381858888f193505050503d8060008114610125576040519150601f19603f3d011682016040523d82523d6000602084013e61012a565b606091505b50509050806101725760405162461bcd60e51b815260206004820152600f60248201526e1d1c985b9cd9995c8819985a5b1959608a1b60448201526064015b60405180910390fd5b505050565b7f0cd2207518cd3e5213e2c6dbe63d55b60aa893c194a427b7d7f1600408fd5bde8054600119016101ea5760405162461bcd60e51b815260206004820152601f60248201527f5265656e7472616e637947756172643a207265656e7472616e742063616c6c006044820152606401610169565b60029055565b7f0cd2207518cd3e5213e2c6dbe63d55b60aa893c194a427b7d7f1600408fd5bde546002146102615760405162461bcd60e51b815260206004820152601f60248201527f5265656e7472616e637947756172643a206775617264207265717569726564006044820152606401610169565b565b6000806040838503121561027657600080fd5b82356001600160a01b038116811461028d57600080fd5b94602093909301359350505056fea2646970667358221220a7f45d8d3166d03f39db189c8d3faadb8bf7ca0308fe743581ea80570c6e808b64736f6c634300081b0033",
  "linkReferences": {},
  "deployedLinkReferences": {}
}