{
  "_format": "hh-sol-artifact-1",
  "contractName": "AvailableAgentsFacet",
  "sourceName": "contracts/assetManager/facets/AvailableAgentsFacet.sol",
  "abi": [
    {
      "anonymous": false,
      "inputs": [
        {
          "indexed": true,
          "internalType": "address",
          "name": "agentVault",
          "type": "address"
        },
        {
          "indexed": false,
          "internalType": "uint256",
          "name": "feeBIPS",
          "type": "uint256"
        },
        {
          "indexed": false,
          "internalType": "uint256",
          "name": "mintingVaultCollateralRatioBIPS",
          "type": "uint256"
        },
        {
          "indexed": false,
          "internalType": "uint256",
          "name": "mintingPoolCollateralRatioBIPS",
          "type": "uint256"
        },
        {
          "indexed": false,
          "internalType": "uint256",
          "name": "freeCollateralLots",
          "type": "uint256"
        }
      ],
      "name": "AgentAvailable",
      "type": "event"
    },
    {
      "anonymous": false,
      "inputs": [
        {
          "indexed": true,
          "internalType": "address",
          "name": "agentVault",
          "type": "address"
        },
        {
          "indexed": false,
          "internalType": "uint256",
          "name": "exitAllowedAt",
          "type": "uint256"
        }
      ],
      "name": "AvailableAgentExitAnnounced",
      "type": "event"
    },
    {
      "anonymous": false,
      "inputs": [
        {
          "indexed": true,
          "internalType": "address",
          "name": "agentVault",
          "type": "address"
        }
      ],
      "name": "AvailableAgentExited",
      "type": "event"
    },
    {
      "inputs": [
        {
          "internalType": "address",
          "name": "_agentVault",
          "type": "address"
        }
      ],
      "name": "announceExitAvailableAgentList",
      "outputs": [
        {
          "internalType": "uint256",
          "name": "_exitAllowedAt",
          "type": "uint256"
        }
      ],
      "stateMutability": "nonpayable",
      "type": "function"
    },
    {
      "inputs": [
        {
          "internalType": "address",
          "name": "_agentVault",
          "type": "address"
        }
      ],
      "name": "exitAvailableAgentList",
      "outputs": [],
      "stateMutability": "nonpayable",
      "type": "function"
    },
    {
      "inputs": [
        {
          "internalType": "uint256",
          "name": "_start",
          "type": "uint256"
        },
        {
          "internalType": "uint256",
          "name": "_end",
          "type": "uint256"
        }
      ],
      "name": "getAvailableAgentsDetailedList",
      "outputs": [
        {
          "components": [
            {
              "internalType": "address",
              "name": "agentVault",
              "type": "address"
            },
            {
              "internalType": "address",
              "name": "ownerManagementAddress",
              "type": "address"
            },
            {
              "internalType": "uint256",
              "name": "feeBIPS",
              "type": "uint256"
            },
            {
              "internalType": "uint256",
              "name": "mintingVaultCollateralRatioBIPS",
              "type": "uint256"
            },
            {
              "internalType": "uint256",
              "name": "mintingPoolCollateralRatioBIPS",
              "type": "uint256"
            },
            {
              "internalType": "uint256",
              "name": "freeCollateralLots",
              "type": "uint256"
            },
            {
              "internalType": "enum AgentInfo.Status",
              "name": "status",
              "type": "uint8"
            }
          ],
          "internalType": "struct AvailableAgentInfo.Data[]",
          "name": "_agents",
          "type": "tuple[]"
        },
        {
          "internalType": "uint256",
          "name": "_totalLength",
          "type": "uint256"
        }
      ],
      "stateMutability": "view",
      "type": "function"
    },
    {
      "inputs": [
        {
          "internalType": "uint256",
          "name": "_start",
          "type": "uint256"
        },
        {
          "internalType": "uint256",
          "name": "_end",
          "type": "uint256"
        }
      ],
      "name": "getAvailableAgentsList",
      "outputs": [
        {
          "internalType": "address[]",
          "name": "_agents",
          "type": "address[]"
        },
        {
          "internalType": "uint256",
          "name": "_totalLength",
          "type": "uint256"
        }
      ],
      "stateMutability": "view",
      "type": "function"
    },
    {
      "inputs": [
        {
          "internalType": "address",
          "name": "_agentVault",
          "type": "address"
        }
      ],
      "name": "makeAgentAvailable",
      "outputs": [],
      "stateMutability": "nonpayable",
      "type": "function"
    }
  ],
  "bytecode": "0x6080604052348015600f57600080fd5b506121858061001f6000396000f3fe608060405234801561001057600080fd5b50600436106100575760003560e01c8063042039301461005c5780633851b61414610071578063612007e5146100975780638003314d146100aa578063e415339c146100cb575b600080fd5b61006f61006a366004611ca1565b6100ec565b005b61008461007f366004611ca1565b610460565b6040519081526020015b60405180910390f35b61006f6100a5366004611ca1565b61059b565b6100bd6100b8366004611cbe565b6107c1565b60405161008e929190611cf6565b6100de6100d9366004611cbe565b6109a8565b60405161008e929190611daf565b806100f681610ab0565b6000805160206121308339815191526000805160206120f0833981519152600061011f85610b0a565b6004810154909150600160281b900463ffffffff1660000361017e5760405162461bcd60e51b81526020600482015260136024820152726167656e74206e6f7420617661696c61626c6560681b60448201526064015b60405180910390fd5b600a810154600160901b90046001600160401b03166000036101d75760405162461bcd60e51b8152602060048201526012602482015271195e1a5d081b9bdd08185b9b9bdd5b98d95960721b6044820152606401610175565b600a810154600160901b90046001600160401b031642101561022b5760405162461bcd60e51b815260206004820152600d60248201526c32bc34ba103a37b79039b7b7b760991b6044820152606401610175565b6013820154600a820154610259916001600160401b03600160c01b909104811691600160901b900416611e08565b6001600160401b03164211156102a15760405162461bcd60e51b815260206004820152600d60248201526c6578697420746f6f206c61746560981b6044820152606401610175565b60048101546000906102c290600190600160281b900463ffffffff16611e27565b600485015463ffffffff9190911691506102dd826001611e43565b10156103c6576004840180546102f590600190611e56565b8154811061030557610305611e69565b6000918252602090912001546004850180546001600160a01b03909216918390811061033357610333611e69565b9060005260206000200160006101000a8154816001600160a01b0302191690836001600160a01b03160217905550600061039585600401838154811061037b5761037b611e69565b6000918252602090912001546001600160a01b0316610b0a565b90506103a2826001611e43565b8160040160056101000a81548163ffffffff021916908363ffffffff160217905550505b6004808301805468ffffffff00000000001916905584018054806103ec576103ec611e7f565b600082815260208120820160001990810180546001600160a01b0319169055909101909155600a8301805467ffffffffffffffff60901b191690556040516001600160a01b038816917fc8a2aa2579bcc813e260278486f5bcff68db3ff1875f2b26f1d8e5ea4b5172c491a2505050505050565b60008161046c81610ab0565b600061047784610b0a565b6004810154909150600160281b900463ffffffff166000036104d15760405162461bcd60e51b81526020600482015260136024820152726167656e74206e6f7420617661696c61626c6560681b6044820152606401610175565b7f4f24f5c433db0962dac0d2c8b84197a6e6c7cc4e5d9ebe1916a1b6193da2f34c546000805160206120f08339815191529061051d90600160a01b90046001600160401b031642611e43565b935061052884610b9a565b82600a0160126101000a8154816001600160401b0302191690836001600160401b03160217905550846001600160a01b03167f884230266c6af6bbe3f468b90afda0d08f7602e4b4f51712a164da396ff6fedd8560405161058b91815260200190565b60405180910390a2505050919050565b806105a581610ab0565b60008051602061213083398151915260006105bf84610b0a565b9050600160048083015460ff16908111156105dc576105dc611ce0565b146106205760405162461bcd60e51b8152602060048201526014602482015273696e76616c6964206167656e742073746174757360601b6044820152606401610175565b6004810154600160281b900463ffffffff161561067f5760405162461bcd60e51b815260206004820152601760248201527f6167656e7420616c726561647920617661696c61626c650000000000000000006044820152606401610175565b600061068a82610c06565b905060006106988284610ca8565b905060018110156106eb5760405162461bcd60e51b815260206004820152601a60248201527f6e6f7420656e6f756768206672656520636f6c6c61746572616c0000000000006044820152606401610175565b6004840180546001810182556000828152602090200180546001600160a01b0319166001600160a01b0389161790555461072490610cbf565b60048401805468ffffffff00000000001916600160281b63ffffffff93841602179081905560408051600160481b830461ffff168152600160681b830484166020820152600160881b90920490921691810191909152606081018290526001600160a01b038716907f26d52c0d0fb1f56df34a0827f71dc5a67598c0c4dc5948f6eb45950efa3fece19060800160405180910390a2505050505050565b7fec7e8c1c441439dd40959777f4c577ea0cd42fcc1dbe59d2bd0f5d9c55df8dba546060906000805160206121308339815191526107ff8483610d24565b935061080b8585610d24565b94506108178585611e56565b6001600160401b0381111561082e5761082e611e95565b60405190808252806020026020018201604052801561086757816020015b610854611c2d565b81526020019060019003908161084c5790505b509250845b8481101561099f57600082600401828154811061088b5761088b611e69565b60009182526020822001546001600160a01b038116925060401b600160401b600160e01b031660008051602061211083398151915218905060006108ce82610c06565b905060006108dd836000610d3a565b50905060006108ed846001610d3a565b506040805160e0810182526001600160a01b03888116825260018801541660208201526004870154600160481b900461ffff1691810191909152606081018490526080810182905290915060a081016109468587610ca8565b815260200161095486610e16565b600481111561096557610965611ce0565b9052896109728d89611e56565b8151811061098257610982611e69565b60200260200101819052505050505050808060010191505061086c565b50509250929050565b7fec7e8c1c441439dd40959777f4c577ea0cd42fcc1dbe59d2bd0f5d9c55df8dba546060906000805160206121308339815191526109e68483610d24565b93506109f28585610d24565b94506109fe8585611e56565b6001600160401b03811115610a1557610a15611e95565b604051908082528060200260200182016040528015610a3e578160200160208202803683370190505b509250845b8481101561099f57816004018181548110610a6057610a60611e69565b6000918252602090912001546001600160a01b031684610a808884611e56565b81518110610a9057610a90611e69565b6001600160a01b0390921660209283029190910190910152600101610a43565b610ac2610abc82610b0a565b33610ee0565b610b075760405162461bcd60e51b815260206004820152601660248201527537b7363c9030b3b2b73a103b30bab63a1037bbb732b960511b6044820152606401610175565b50565b600080516020612110833981519152600160401b600160e01b03604083901b161880600060048084015460ff1690811115610b4757610b47611ce0565b03610b945760405162461bcd60e51b815260206004820152601b60248201527f696e76616c6964206167656e74207661756c74206164647265737300000000006044820152606401610175565b50919050565b60006001600160401b03821115610c025760405162461bcd60e51b815260206004820152602660248201527f53616665436173743a2076616c756520646f65736e27742066697420696e203660448201526534206269747360d01b6064820152608401610175565b5090565b6040805160c081018252600060608083018281526080840183905260a0840183905283528351808201855282815260208082018490528186018490528085019190915284519182018552828252810182905280840191909152610c699282015290565b6000610c7483610f21565b90506040518060600160405280610c8a85610fde565b8152602001828152602001610c9f858461108f565b90529392505050565b6000610cb683836001611269565b90505b92915050565b600063ffffffff821115610c025760405162461bcd60e51b815260206004820152602660248201527f53616665436173743a2076616c756520646f65736e27742066697420696e203360448201526532206269747360d01b6064820152608401610175565b6000818310610d335781610cb6565b5090919050565b6000806002836002811115610d5157610d51611ce0565b03610d8e5750507f4f24f5c433db0962dac0d2c8b84197a6e6c7cc4e5d9ebe1916a1b6193da2f34654640100000000900463ffffffff1680610e0f565b6001836002811115610da257610da2611ce0565b03610ddd57610db0846112c3565b60030154600485015463ffffffff9182169250610dd691600160881b9091041682611312565b9150610e0f565b610de684611321565b60030154600485015463ffffffff9182169250610e0c91600160681b9091041682611312565b91505b9250929050565b600481015460009060ff166001816004811115610e3557610e35611ce0565b03610e435750600092915050565b6002816004811115610e5757610e57611ce0565b03610e94576000610e6784611358565b90506001816002811115610e7d57610e7d611ce0565b14610e89576002610e8c565b60015b949350505050565b6003816004811115610ea857610ea8611ce0565b03610eb65750600392915050565b6004816004811115610eca57610eca611ce0565b14610ed757610ed7611eab565b50600492915050565b60018201546000906001600160a01b0383811691161480610cb65750610f0583611435565b6001600160a01b0316826001600160a01b031614905092915050565b610f466040805160608101909152806000815260200160008152602001600081525090565b6000610f51836112c3565b604080516060810182526001815285548251634ac8eb5f60e01b8152925193945090926020808501936001600160a01b0390931692634ac8eb5f92600480830193928290030181865afa158015610fac573d6000803e3d6000fd5b505050506040513d601f19601f82011682018060405250810190610fd09190611ec1565b8152602001610c9f836114d7565b6110036040805160608101909152806000815260200160008152602001600081525090565b600061100e83611321565b6040805160608101909152909150806000815282546020909101906001600160a01b03166370a08231600080516020612110833981519152871860401c6040516001600160e01b031960e084901b1681526001600160a01b039091166004820152602401602060405180830381865afa158015610fac573d6000803e3d6000fd5b6110b46040805160608101909152806000815260200160008152602001600081525090565b8254604080516332f7ce0b60e21b815290516000926001600160a01b03169163cbdf382c9160048083019260209291908290030181865afa1580156110fd573d6000803e3d6000fd5b505050506040513d601f19601f820116820180604052508101906111219190611eda565b905060006001600160a01b0382166370a08231600080516020612110833981519152871860401c6040516001600160e01b031960e084901b1681526001600160a01b039091166004820152602401602060405180830381865afa15801561118c573d6000803e3d6000fd5b505050506040513d601f19601f820116820180604052508101906111b09190611ec1565b90506000826001600160a01b03166318160ddd6040518163ffffffff1660e01b8152600401602060405180830381865afa1580156111f2573d6000803e3d6000fd5b505050506040513d601f19601f820116820180604052508101906112169190611ec1565b905060008560200151600003611230578560400151611245565b602086015160408701516112459184906114ed565b60408051606081018252600281526020810195909552840152509095945050505050565b60008061127b85600001518585611613565b9050600061128e86602001518686611613565b905060006112a187604001518787611613565b90506112b6836112b18484610d24565b610d24565b93505050505b9392505050565b600080600080516020612130833981519152600484015481549192508291630100000090910461ffff169081106112fc576112fc611e69565b9060005260206000209060040201915050919050565b6000818311610d335781610cb6565b60008060008051602061213083398151915260048401548154919250829161010090910461ffff169081106112fc576112fc611e69565b6000806000805160206120f0833981519152600484015490915060ff16600281600481111561138957611389611ce0565b0361140857600060016004860154600160e81b900460ff1660028111156113b2576113b2611ce0565b1480156113ee5750601183015460048601546113e1916001600160401b0390811691600160a81b900416611e08565b6001600160401b03164211155b9050806113fc5760026113ff565b60015b95945050505050565b600381600481111561141c5761141c611ce0565b0361142b575060029392505050565b5060009392505050565b60006114687f4f24f5c433db0962dac0d2c8b84197a6e6c7cc4e5d9ebe1916a1b6193da2f341546001600160a01b031690565b6001830154604051631f86345d60e31b81526001600160a01b03918216600482015291169063fc31a2e890602401602060405180830381865afa1580156114b3573d6000803e3d6000fd5b505050506040513d601f19601f82011682018060405250810190610cb99190611eda565b60006114e4826000611654565b50909392505050565b60008082116115315760405162461bcd60e51b815260206004820152601060248201526f4469766973696f6e206279207a65726f60801b6044820152606401610175565b83600003611541575060006112bc565b8383028385828161155457611554611ef7565b04036115725782818161156957611569611ef7565b049150506112bc565b50600061157f8386611f0d565b9050600061158d8487611f21565b9050600061159b8587611f0d565b905060006115a98688611f21565b9050856115b68285611f35565b6115c09190611f0d565b6115ca8385611f35565b6115d48387611f35565b886115df8689611f35565b6115e99190611f35565b6115f39190611e43565b6115fd9190611e43565b6116079190611e43565b98975050505050505050565b6000806116208585611813565b9050600061162f868686611830565b90508060000361164057600061164a565b61164a8183611f0d565b9695505050505050565b6000806000806000806116f388600101805461166f90611f4c565b80601f016020809104026020016040519081016040528092919081815260200182805461169b90611f4c565b80156116e85780601f106116bd576101008083540402835291602001916116e8565b820191906000526020600020905b8154815290600101906020018083116116cb57829003601f168201915b50505050508861187c565b8a549295509093509150600160f01b900460ff161561173a57875460009061172990600160a81b900460ff16600183878661196a565b965091945084935061180c92505050565b60008060006117d58b600201805461175190611f4c565b80601f016020809104026020016040519081016040528092919081815260200182805461177d90611f4c565b80156117ca5780601f1061179f576101008083540402835291602001916117ca565b820191906000526020600020905b8154815290600101906020018083116117ad57829003601f168201915b50505050508b61187c565b8d5492955090935091506000906117f990600160a81b900460ff1685848a8961196a565b995094975090955061180c945050505050565b9250925092565b60008061182084846119f1565b9050610e8c846020015182611b26565b7f4f24f5c433db0962dac0d2c8b84197a6e6c7cc4e5d9ebe1916a1b6193da2f347546000906000805160206120f0833981519152906113ff90869086906001600160401b031686611b40565b7f4f24f5c433db0962dac0d2c8b84197a6e6c7cc4e5d9ebe1916a1b6193da2f34454600090819081906000805160206120f0833981519152906001600160a01b0316851561193e5760405163e4a0a55b60e01b81526001600160a01b0382169063e4a0a55b906118f0908a90600401611f80565b606060405180830381865afa15801561190d573d6000803e3d6000fd5b505050506040513d601f19601f820116820180604052508101906119319190611fce565b945094509450505061180c565b60405163524f388960e01b81526001600160a01b0382169063524f3889906118f0908a90600401611f80565b60006000805160206120f0833981519152816009611988878a611e43565b6119929190611e43565b600a8301549091506000906119b2908690600160a81b900460ff16611e43565b9050808210156119c4576119c4611eab565b6119e46119d18284611e56565b6119dc90600a6120e3565b87908a6114ed565b9998505050505050505050565b6000806000611a04848660000151610d3a565b60058601549193509150600090611a32906001600160401b0368010000000000000000820481169116611e43565b90506000611a4e84611a48848a60400151611bb7565b90611bd1565b90506000600188516002811115611a6757611a67611ce0565b14611a86576005870154600160801b90046001600160401b0316611a9c565b6005870154600160c01b90046001600160401b03165b90506000611abb85611a48846001600160401b03168c60400151611bb7565b9050600060018a516002811115611ad457611ad4611ce0565b03611ae0576000611af8565b8951611aed908a90611be0565b546001600160801b03165b6001600160801b0316905080611b0e8386611e43565b611b189190611e43565b9a9950505050505050505050565b6000818311611b36576000610cb6565b610cb68284611e56565b60008082611b4f576000611b78565b6004850154611b789061ffff600160581b8204811691611a48918891600160481b900416611bd1565b90506000611b868286611e43565b90506000611b98828960400151611bb7565b90506000611baa888a60000151610d3a565b5090506119e48282611bd1565b6000610cb682611bc96009600a6120e3565b8591906114ed565b6000610cb683836127106114ed565b60006001826002811115611bf657611bf6611ce0565b03611c0357611c03611eab565b6000826002811115611c1757611c17611ce0565b14611c255782600901610cb6565b505060080190565b6040518060e0016040528060006001600160a01b0316815260200160006001600160a01b031681526020016000815260200160008152602001600081526020016000815260200160006004811115611c8757611c87611ce0565b905290565b6001600160a01b0381168114610b0757600080fd5b600060208284031215611cb357600080fd5b81356112bc81611c8c565b60008060408385031215611cd157600080fd5b50508035926020909101359150565b634e487b7160e01b600052602160045260246000fd5b6040808252835190820181905260009060208501906060840190835b81811015611d9c57835180516001600160a01b0390811685526020808301519091169085015260408082015190850152606080820151908501526080808201519085015260a0808201519085015260c0015160058110611d8257634e487b7160e01b600052602160045260246000fd5b60c08401526020939093019260e090920191600101611d12565b5050602093909301939093525092915050565b6040808252835190820181905260009060208501906060840190835b81811015611d9c5783516001600160a01b0316835260209384019390920191600101611dcb565b634e487b7160e01b600052601160045260246000fd5b6001600160401b038181168382160190811115610cb957610cb9611df2565b63ffffffff8281168282160390811115610cb957610cb9611df2565b80820180821115610cb957610cb9611df2565b81810381811115610cb957610cb9611df2565b634e487b7160e01b600052603260045260246000fd5b634e487b7160e01b600052603160045260246000fd5b634e487b7160e01b600052604160045260246000fd5b634e487b7160e01b600052600160045260246000fd5b600060208284031215611ed357600080fd5b5051919050565b600060208284031215611eec57600080fd5b81516112bc81611c8c565b634e487b7160e01b600052601260045260246000fd5b600082611f1c57611f1c611ef7565b500490565b600082611f3057611f30611ef7565b500690565b8082028115828204841417610cb957610cb9611df2565b600181811c90821680611f6057607f821691505b602082108103610b9457634e487b7160e01b600052602260045260246000fd5b602081526000825180602084015260005b81811015611fae5760208186018101516040868401015201611f91565b506000604082850101526040601f19601f83011684010191505092915050565b600080600060608486031215611fe357600080fd5b5050815160208301516040909301519094929350919050565b6001815b60018411156120375780850481111561201b5761201b611df2565b600184161561202957908102905b60019390931c928002612000565b935093915050565b60008261204e57506001610cb9565b8161205b57506000610cb9565b8160018114612071576002811461207b57612097565b6001915050610cb9565b60ff84111561208c5761208c611df2565b50506001821b610cb9565b5060208310610133831016604e8410600b84101617156120ba575081810a610cb9565b6120c76000198484611ffc565b80600019048211156120db576120db611df2565b029392505050565b6000610cb6838361203f56fe4f24f5c433db0962dac0d2c8b84197a6e6c7cc4e5d9ebe1916a1b6193da2f33a5bebac0595fee029d42bb673937f5f1cb81cf8641382bc17774635de9b7d7965ec7e8c1c441439dd40959777f4c577ea0cd42fcc1dbe59d2bd0f5d9c55df8db6a264697066735822122014f7ce06fb44c3018adcf09e557d96e8919bfa6eb219f38d38bf00d91fbe78d064736f6c634300081b0033",
  "linkReferences": {},
  "deployedLinkReferences": {}
}