{
  "_format": "hh-sol-artifact-1",
  "contractName": "AvailableAgentsFacet",
  "sourceName": "contracts/assetManager/facets/AvailableAgentsFacet.sol",
  "abi": [
    {
      "inputs": [],
      "name": "AgentAlreadyAvailable",
      "type": "error"
    },
    {
      "inputs": [],
      "name": "AgentNotAvailable",
      "type": "error"
    },
    {
      "inputs": [],
      "name": "DivisionByZero",
      "type": "error"
    },
    {
      "inputs": [],
      "name": "EmergencyPauseActive",
      "type": "error"
    },
    {
      "inputs": [],
      "name": "ExitNotAnnounced",
      "type": "error"
    },
    {
      "inputs": [],
      "name": "ExitTooLate",
      "type": "error"
    },
    {
      "inputs": [],
      "name": "ExitTooSoon",
      "type": "error"
    },
    {
      "inputs": [],
      "name": "InvalidAgentStatus",
      "type": "error"
    },
    {
      "inputs": [],
      "name": "InvalidAgentVaultAddress",
      "type": "error"
    },
    {
      "inputs": [],
      "name": "NotAttached",
      "type": "error"
    },
    {
      "inputs": [],
      "name": "NotEnoughFreeCollateral",
      "type": "error"
    },
    {
      "inputs": [],
      "name": "NotWhitelisted",
      "type": "error"
    },
    {
      "inputs": [],
      "name": "OnlyAgentVaultOwner",
      "type": "error"
    },
    {
      "inputs": [],
      "name": "OnlyAssetManagerController",
      "type": "error"
    },
    {
      "anonymous": false,
      "inputs": [
        {
          "indexed": true,
          "internalType": "address",
          "name": "agentVault",
          "type": "address"
        },
        {
          "indexed": false,
          "internalType": "uint256",
          "name": "feeBIPS",
          "type": "uint256"
        },
        {
          "indexed": false,
          "internalType": "uint256",
          "name": "mintingVaultCollateralRatioBIPS",
          "type": "uint256"
        },
        {
          "indexed": false,
          "internalType": "uint256",
          "name": "mintingPoolCollateralRatioBIPS",
          "type": "uint256"
        },
        {
          "indexed": false,
          "internalType": "uint256",
          "name": "freeCollateralLots",
          "type": "uint256"
        }
      ],
      "name": "AgentAvailable",
      "type": "event"
    },
    {
      "anonymous": false,
      "inputs": [
        {
          "indexed": true,
          "internalType": "address",
          "name": "agentVault",
          "type": "address"
        },
        {
          "indexed": false,
          "internalType": "uint256",
          "name": "exitAllowedAt",
          "type": "uint256"
        }
      ],
      "name": "AvailableAgentExitAnnounced",
      "type": "event"
    },
    {
      "anonymous": false,
      "inputs": [
        {
          "indexed": true,
          "internalType": "address",
          "name": "agentVault",
          "type": "address"
        }
      ],
      "name": "AvailableAgentExited",
      "type": "event"
    },
    {
      "inputs": [
        {
          "internalType": "address",
          "name": "_agentVault",
          "type": "address"
        }
      ],
      "name": "announceExitAvailableAgentList",
      "outputs": [
        {
          "internalType": "uint256",
          "name": "_exitAllowedAt",
          "type": "uint256"
        }
      ],
      "stateMutability": "nonpayable",
      "type": "function"
    },
    {
      "inputs": [
        {
          "internalType": "address",
          "name": "_agentVault",
          "type": "address"
        }
      ],
      "name": "exitAvailableAgentList",
      "outputs": [],
      "stateMutability": "nonpayable",
      "type": "function"
    },
    {
      "inputs": [
        {
          "internalType": "uint256",
          "name": "_start",
          "type": "uint256"
        },
        {
          "internalType": "uint256",
          "name": "_end",
          "type": "uint256"
        }
      ],
      "name": "getAvailableAgentsDetailedList",
      "outputs": [
        {
          "components": [
            {
              "internalType": "address",
              "name": "agentVault",
              "type": "address"
            },
            {
              "internalType": "address",
              "name": "ownerManagementAddress",
              "type": "address"
            },
            {
              "internalType": "uint256",
              "name": "feeBIPS",
              "type": "uint256"
            },
            {
              "internalType": "uint256",
              "name": "mintingVaultCollateralRatioBIPS",
              "type": "uint256"
            },
            {
              "internalType": "uint256",
              "name": "mintingPoolCollateralRatioBIPS",
              "type": "uint256"
            },
            {
              "internalType": "uint256",
              "name": "freeCollateralLots",
              "type": "uint256"
            },
            {
              "internalType": "enum AgentInfo.Status",
              "name": "status",
              "type": "uint8"
            }
          ],
          "internalType": "struct AvailableAgentInfo.Data[]",
          "name": "_agents",
          "type": "tuple[]"
        },
        {
          "internalType": "uint256",
          "name": "_totalLength",
          "type": "uint256"
        }
      ],
      "stateMutability": "view",
      "type": "function"
    },
    {
      "inputs": [
        {
          "internalType": "uint256",
          "name": "_start",
          "type": "uint256"
        },
        {
          "internalType": "uint256",
          "name": "_end",
          "type": "uint256"
        }
      ],
      "name": "getAvailableAgentsList",
      "outputs": [
        {
          "internalType": "address[]",
          "name": "_agents",
          "type": "address[]"
        },
        {
          "internalType": "uint256",
          "name": "_totalLength",
          "type": "uint256"
        }
      ],
      "stateMutability": "view",
      "type": "function"
    },
    {
      "inputs": [
        {
          "internalType": "address",
          "name": "_agentVault",
          "type": "address"
        }
      ],
      "name": "makeAgentAvailable",
      "outputs": [],
      "stateMutability": "nonpayable",
      "type": "function"
    }
  ],
  "bytecode": "0x6080604052348015600f57600080fd5b50611f3d8061001f6000396000f3fe608060405234801561001057600080fd5b50600436106100575760003560e01c8063042039301461005c5780633851b61414610071578063612007e5146100975780638003314d146100aa578063e415339c146100cb575b600080fd5b61006f61006a366004611a79565b6100ec565b005b61008461007f366004611a79565b6103d4565b6040519081526020015b60405180910390f35b61006f6100a5366004611a79565b6104ea565b6100bd6100b8366004611a96565b61068c565b60405161008e929190611ace565b6100de6100d9366004611a96565b61085c565b60405161008e929190611b87565b806100f681610964565b600080516020611ee8833981519152600080516020611ec8833981519152600061011f85610996565b6004810154909150600160281b900463ffffffff16600003610154576040516306b5215560e01b815260040160405180910390fd5b600a810154600160901b90046001600160401b031660000361018957604051634dbfa72b60e11b815260040160405180910390fd5b600a810154600160901b90046001600160401b03164210156101be5760405163e30f1c4b60e01b815260040160405180910390fd5b6013820154600a8201546101ec916001600160401b03600160c01b909104811691600160901b900416611be0565b6001600160401b03164211156102155760405163b84dec6f60e01b815260040160405180910390fd5b600481015460009061023690600190600160281b900463ffffffff16611bff565b600485015463ffffffff919091169150610251826001611c1b565b101561033a5760048401805461026990600190611c2e565b8154811061027957610279611c41565b6000918252602090912001546004850180546001600160a01b0390921691839081106102a7576102a7611c41565b9060005260206000200160006101000a8154816001600160a01b0302191690836001600160a01b0316021790555060006103098560040183815481106102ef576102ef611c41565b6000918252602090912001546001600160a01b0316610996565b9050610316826001611c1b565b8160040160056101000a81548163ffffffff021916908363ffffffff160217905550505b6004808301805468ffffffff000000000019169055840180548061036057610360611c57565b600082815260208120820160001990810180546001600160a01b0319169055909101909155600a8301805467ffffffffffffffff60901b191690556040516001600160a01b038816917fc8a2aa2579bcc813e260278486f5bcff68db3ff1875f2b26f1d8e5ea4b5172c491a2505050505050565b6000816103e081610964565b60006103eb84610996565b6004810154909150600160281b900463ffffffff16600003610420576040516306b5215560e01b815260040160405180910390fd5b7f4f24f5c433db0962dac0d2c8b84197a6e6c7cc4e5d9ebe1916a1b6193da2f34c54600080516020611ec88339815191529061046c90600160a01b90046001600160401b031642611c1b565b935061047784610a05565b82600a0160126101000a8154816001600160401b0302191690836001600160401b03160217905550846001600160a01b03167f884230266c6af6bbe3f468b90afda0d08f7602e4b4f51712a164da396ff6fedd856040516104da91815260200190565b60405180910390a2505050919050565b806104f481610964565b600080516020611ee8833981519152600061050e84610996565b90506001600482015460ff16600581111561052b5761052b611ab8565b146105495760405163aa2b63b360e01b815260040160405180910390fd5b6004810154600160281b900463ffffffff1615610579576040516308f8a41760e31b815260040160405180910390fd5b600061058482610a76565b905060006105928284610b18565b905060018110156105b65760405163d78c667760e01b815260040160405180910390fd5b6004840180546001810182556000828152602090200180546001600160a01b0319166001600160a01b038916179055546105ef90610b2f565b60048401805468ffffffff00000000001916600160281b63ffffffff93841602179081905560408051600160481b830461ffff168152600160681b830484166020820152600160881b90920490921691810191909152606081018290526001600160a01b038716907f26d52c0d0fb1f56df34a0827f71dc5a67598c0c4dc5948f6eb45950efa3fece19060800160405180910390a2505050505050565b7fec7e8c1c441439dd40959777f4c577ea0cd42fcc1dbe59d2bd0f5d9c55df8dba54606090600080516020611ee88339815191526106ca8483610b94565b93506106d68585610b94565b94506106e28585611c2e565b6001600160401b038111156106f9576106f9611c6d565b60405190808252806020026020018201604052801561073257816020015b61071f611a05565b8152602001906001900390816107175790505b509250845b8481101561085357600082600401828154811061075657610756611c41565b60009182526020822001546001600160a01b0316915061077582610baa565b9050600061078282610a76565b90506000610791836000610be3565b50905060006107a1846001610be3565b506040805160e0810182526001600160a01b03888116825260018801541660208201526004870154600160481b900461ffff1691810191909152606081018490526080810182905290915060a081016107fa8587610b18565b815260200161080886610cbf565b600481111561081957610819611ab8565b9052896108268d89611c2e565b8151811061083657610836611c41565b602002602001018190525050505050508080600101915050610737565b50509250929050565b7fec7e8c1c441439dd40959777f4c577ea0cd42fcc1dbe59d2bd0f5d9c55df8dba54606090600080516020611ee883398151915261089a8483610b94565b93506108a68585610b94565b94506108b28585611c2e565b6001600160401b038111156108c9576108c9611c6d565b6040519080825280602002602001820160405280156108f2578160200160208202803683370190505b509250845b848110156108535781600401818154811061091457610914611c41565b6000918252602090912001546001600160a01b0316846109348884611c2e565b8151811061094457610944611c41565b6001600160a01b03909216602092830291909101909101526001016108f7565b61097661097082610996565b33610d82565b6109935760405163f6e2f99b60e01b815260040160405180910390fd5b50565b6000806109a283610baa565b600481015490915060ff1660008160058111156109c1576109c1611ab8565b141580156109e1575060058160058111156109de576109de611ab8565b14155b6109fe5760405163d68a46c560e01b815260040160405180910390fd5b5092915050565b60006001600160401b03821115610a725760405162461bcd60e51b815260206004820152602660248201527f53616665436173743a2076616c756520646f65736e27742066697420696e203660448201526534206269747360d01b60648201526084015b60405180910390fd5b5090565b6040805160c081018252600060608083018281526080840183905260a0840183905283528351808201855282815260208082018490528186018490528085019190915284519182018552828252810182905280840191909152610ad99282015290565b6000610ae483610dc3565b90506040518060600160405280610afa85610e80565b8152602001828152602001610b0f8584610f43565b90529392505050565b6000610b268383600161112f565b90505b92915050565b600063ffffffff821115610a725760405162461bcd60e51b815260206004820152602660248201527f53616665436173743a2076616c756520646f65736e27742066697420696e203360448201526532206269747360d01b6064820152608401610a69565b6000818310610ba35781610b26565b5090919050565b60401b68010000000000000000600160e01b03167f5bebac0595fee029d42bb673937f5f1cb81cf8641382bc17774635de9b7d79651890565b6000806002836002811115610bfa57610bfa611ab8565b03610c375750507f4f24f5c433db0962dac0d2c8b84197a6e6c7cc4e5d9ebe1916a1b6193da2f34654640100000000900463ffffffff1680610cb8565b6001836002811115610c4b57610c4b611ab8565b03610c8657610c5984611189565b60030154600485015463ffffffff9182169250610c7f91600160881b90910416826111d8565b9150610cb8565b610c8f846111e7565b60030154600485015463ffffffff9182169250610cb591600160681b90910416826111d8565b91505b9250929050565b600481015460009060ff166001816005811115610cde57610cde611ab8565b03610cec5750600092915050565b6002816005811115610d0057610d00611ab8565b03610d0e5750600192915050565b6003816005811115610d2257610d22611ab8565b03610d305750600292915050565b6004816005811115610d4457610d44611ab8565b03610d525750600392915050565b6005816005811115610d6657610d66611ab8565b14610d7357610d73611c83565b50600492915050565b50919050565b60018201546000906001600160a01b0383811691161480610b265750610da78361121e565b6001600160a01b0316826001600160a01b031614905092915050565b610de86040805160608101909152806000815260200160008152602001600081525090565b6000610df383611189565b604080516060810182526001815285548251634ac8eb5f60e01b8152925193945090926020808501936001600160a01b0390931692634ac8eb5f92600480830193928290030181865afa158015610e4e573d6000803e3d6000fd5b505050506040513d601f19601f82011682018060405250810190610e729190611c99565b8152602001610b0f836112c0565b610ea56040805160608101909152806000815260200160008152602001600081525090565b6000610eb0836111e7565b6040805160608101909152909150806000815282546020909101906001600160a01b03166370a082317f5bebac0595fee029d42bb673937f5f1cb81cf8641382bc17774635de9b7d7965871860401c6040516001600160e01b031960e084901b1681526001600160a01b039091166004820152602401602060405180830381865afa158015610e4e573d6000803e3d6000fd5b610f686040805160608101909152806000815260200160008152602001600081525090565b8254604080516332f7ce0b60e21b815290516000926001600160a01b03169163cbdf382c9160048083019260209291908290030181865afa158015610fb1573d6000803e3d6000fd5b505050506040513d601f19601f82011682018060405250810190610fd59190611cb2565b905060006001600160a01b0382166370a082317f5bebac0595fee029d42bb673937f5f1cb81cf8641382bc17774635de9b7d7965871860401c6040516001600160e01b031960e084901b1681526001600160a01b039091166004820152602401602060405180830381865afa158015611052573d6000803e3d6000fd5b505050506040513d601f19601f820116820180604052508101906110769190611c99565b90506000826001600160a01b03166318160ddd6040518163ffffffff1660e01b8152600401602060405180830381865afa1580156110b8573d6000803e3d6000fd5b505050506040513d601f19601f820116820180604052508101906110dc9190611c99565b9050600085602001516000036110f657856040015161110b565b6020860151604087015161110b9184906112d6565b60408051606081018252600281526020810195909552840152509095945050505050565b600080611141856000015185856113da565b90506000611154866020015186866113da565b90506000611167876040015187876113da565b905061117c836111778484610b94565b610b94565b93505050505b9392505050565b600080600080516020611ee8833981519152600484015481549192508291630100000090910461ffff169081106111c2576111c2611c41565b9060005260206000209060040201915050919050565b6000818311610ba35781610b26565b600080600080516020611ee883398151915260048401548154919250829161010090910461ffff169081106111c2576111c2611c41565b60006112517f4f24f5c433db0962dac0d2c8b84197a6e6c7cc4e5d9ebe1916a1b6193da2f341546001600160a01b031690565b6001830154604051631f86345d60e31b81526001600160a01b03918216600482015291169063fc31a2e890602401602060405180830381865afa15801561129c573d6000803e3d6000fd5b505050506040513d601f19601f82011682018060405250810190610b299190611cb2565b60006112cd82600061141b565b50909392505050565b60008082116112f8576040516323d359a360e01b815260040160405180910390fd5b8360000361130857506000611182565b8383028385828161131b5761131b611ccf565b04036113395782818161133057611330611ccf565b04915050611182565b5060006113468386611ce5565b905060006113548487611cf9565b905060006113628587611ce5565b905060006113708688611cf9565b90508561137d8285611d0d565b6113879190611ce5565b6113918385611d0d565b61139b8387611d0d565b886113a68689611d0d565b6113b09190611d0d565b6113ba9190611c1b565b6113c49190611c1b565b6113ce9190611c1b565b98975050505050505050565b6000806113e785856115da565b905060006113f68686866115ff565b905080600003611407576000611411565b6114118183611ce5565b9695505050505050565b6000806000806000806114ba88600101805461143690611d24565b80601f016020809104026020016040519081016040528092919081815260200182805461146290611d24565b80156114af5780601f10611484576101008083540402835291602001916114af565b820191906000526020600020905b81548152906001019060200180831161149257829003601f168201915b505050505088611654565b8a549295509093509150600160f01b900460ff16156115015787546000906114f090600160a81b900460ff166001838786611742565b96509194508493506115d392505050565b600080600061159c8b600201805461151890611d24565b80601f016020809104026020016040519081016040528092919081815260200182805461154490611d24565b80156115915780601f1061156657610100808354040283529160200191611591565b820191906000526020600020905b81548152906001019060200180831161157457829003601f168201915b50505050508b611654565b8d5492955090935091506000906115c090600160a81b900460ff1685848a89611742565b99509497509095506115d3945050505050565b9250925092565b6000806115e784846117c9565b90506115f78460200151826118fe565b949350505050565b7f4f24f5c433db0962dac0d2c8b84197a6e6c7cc4e5d9ebe1916a1b6193da2f34754600090600080516020611ec88339815191529061164b90869086906001600160401b031686611918565b95945050505050565b7f4f24f5c433db0962dac0d2c8b84197a6e6c7cc4e5d9ebe1916a1b6193da2f3445460009081908190600080516020611ec8833981519152906001600160a01b031685156117165760405163e4a0a55b60e01b81526001600160a01b0382169063e4a0a55b906116c8908a90600401611d58565b606060405180830381865afa1580156116e5573d6000803e3d6000fd5b505050506040513d601f19601f820116820180604052508101906117099190611da6565b94509450945050506115d3565b60405163524f388960e01b81526001600160a01b0382169063524f3889906116c8908a90600401611d58565b6000600080516020611ec8833981519152816009611760878a611c1b565b61176a9190611c1b565b600a83015490915060009061178a908690600160a81b900460ff16611c1b565b90508082101561179c5761179c611c83565b6117bc6117a98284611c2e565b6117b490600a611ebb565b87908a6112d6565b9998505050505050505050565b60008060006117dc848660000151610be3565b6005860154919350915060009061180a906001600160401b0368010000000000000000820481169116611c1b565b9050600061182684611820848a6040015161198f565b906119a9565b9050600060018851600281111561183f5761183f611ab8565b1461185e576005870154600160801b90046001600160401b0316611874565b6005870154600160c01b90046001600160401b03165b9050600061189385611820846001600160401b03168c6040015161198f565b9050600060018a5160028111156118ac576118ac611ab8565b036118b85760006118d0565b89516118c5908a906119b8565b546001600160801b03165b6001600160801b03169050806118e68386611c1b565b6118f09190611c1b565b9a9950505050505050505050565b600081831161190e576000610b26565b610b268284611c2e565b60008082611927576000611950565b60048501546119509061ffff600160581b8204811691611820918891600160481b9004166119a9565b9050600061195e8286611c1b565b9050600061197082896040015161198f565b90506000611982888a60000151610be3565b5090506117bc82826119a9565b6000610b26826119a16009600a611ebb565b8591906112d6565b6000610b2683836127106112d6565b600060018260028111156119ce576119ce611ab8565b036119db576119db611c83565b60008260028111156119ef576119ef611ab8565b146119fd5782600901610b26565b505060080190565b6040518060e0016040528060006001600160a01b0316815260200160006001600160a01b031681526020016000815260200160008152602001600081526020016000815260200160006004811115611a5f57611a5f611ab8565b905290565b6001600160a01b038116811461099357600080fd5b600060208284031215611a8b57600080fd5b813561118281611a64565b60008060408385031215611aa957600080fd5b50508035926020909101359150565b634e487b7160e01b600052602160045260246000fd5b6040808252835190820181905260009060208501906060840190835b81811015611b7457835180516001600160a01b0390811685526020808301519091169085015260408082015190850152606080820151908501526080808201519085015260a0808201519085015260c0015160058110611b5a57634e487b7160e01b600052602160045260246000fd5b60c08401526020939093019260e090920191600101611aea565b5050602093909301939093525092915050565b6040808252835190820181905260009060208501906060840190835b81811015611b745783516001600160a01b0316835260209384019390920191600101611ba3565b634e487b7160e01b600052601160045260246000fd5b6001600160401b038181168382160190811115610b2957610b29611bca565b63ffffffff8281168282160390811115610b2957610b29611bca565b80820180821115610b2957610b29611bca565b81810381811115610b2957610b29611bca565b634e487b7160e01b600052603260045260246000fd5b634e487b7160e01b600052603160045260246000fd5b634e487b7160e01b600052604160045260246000fd5b634e487b7160e01b600052600160045260246000fd5b600060208284031215611cab57600080fd5b5051919050565b600060208284031215611cc457600080fd5b815161118281611a64565b634e487b7160e01b600052601260045260246000fd5b600082611cf457611cf4611ccf565b500490565b600082611d0857611d08611ccf565b500690565b8082028115828204841417610b2957610b29611bca565b600181811c90821680611d3857607f821691505b602082108103610d7c57634e487b7160e01b600052602260045260246000fd5b602081526000825180602084015260005b81811015611d865760208186018101516040868401015201611d69565b506000604082850101526040601f19601f83011684010191505092915050565b600080600060608486031215611dbb57600080fd5b5050815160208301516040909301519094929350919050565b6001815b6001841115611e0f57808504811115611df357611df3611bca565b6001841615611e0157908102905b60019390931c928002611dd8565b935093915050565b600082611e2657506001610b29565b81611e3357506000610b29565b8160018114611e495760028114611e5357611e6f565b6001915050610b29565b60ff841115611e6457611e64611bca565b50506001821b610b29565b5060208310610133831016604e8410600b8410161715611e92575081810a610b29565b611e9f6000198484611dd4565b8060001904821115611eb357611eb3611bca565b029392505050565b6000610b268383611e1756fe4f24f5c433db0962dac0d2c8b84197a6e6c7cc4e5d9ebe1916a1b6193da2f33aec7e8c1c441439dd40959777f4c577ea0cd42fcc1dbe59d2bd0f5d9c55df8db6a26469706673582212201598eb5d5809a0e66cf4123ce6d4df8ffa0fcffe6692651f366a2d0f7099529364736f6c634300081b0033",
  "linkReferences": {},
  "deployedLinkReferences": {}
}